{"contracts/landNFT.sol":{"LandNFT":{"abi":[{"inputs":[{"internalType":"uint256","name":"_mintPrice","type":"uint256"}],"stateMutability":"nonpayable","type":"constructor"},{"anonymous":false,"inputs":[{"indexed":true,"internalType":"address","name":"owner","type":"address"},{"indexed":true,"internalType":"address","name":"approved","type":"address"},{"indexed":true,"internalType":"uint256","name":"tokenId","type":"uint256"}],"name":"Approval","type":"event"},{"anonymous":false,"inputs":[{"indexed":true,"internalType":"address","name":"owner","type":"address"},{"indexed":true,"internalType":"address","name":"operator","type":"address"},{"indexed":false,"internalType":"bool","name":"approved","type":"bool"}],"name":"ApprovalForAll","type":"event"},{"anonymous":false,"inputs":[{"indexed":false,"internalType":"uint256","name":"tokenId","type":"uint256"},{"indexed":false,"internalType":"string","name":"buildingName","type":"string"},{"indexed":false,"internalType":"uint256","name":"level","type":"uint256"}],"name":"BuildingConstructionCompleted","type":"event"},{"anonymous":false,"inputs":[{"indexed":false,"internalType":"uint256","name":"tokenId","type":"uint256"},{"indexed":false,"internalType":"string","name":"buildingName","type":"string"},{"indexed":false,"internalType":"uint256","name":"level","type":"uint256"},{"indexed":false,"internalType":"uint256","name":"completionTime","type":"uint256"}],"name":"BuildingConstructionStarted","type":"event"},{"anonymous":false,"inputs":[{"indexed":false,"internalType":"uint256","name":"tokenId","type":"uint256"},{"components":[{"internalType":"uint256","name":"population","type":"uint256"},{"internalType":"uint256","name":"production","type":"uint256"},{"internalType":"uint256","name":"happiness","type":"uint256"},{"internalType":"uint256","name":"technology","type":"uint256"},{"internalType":"uint256","name":"piety","type":"uint256"},{"internalType":"uint256","name":"strength","type":"uint256"},{"components":[{"internalType":"string","name":"name","type":"string"},{"internalType":"uint256","name":"level","type":"uint256"},{"internalType":"bool","name":"isActive","type":"bool"}],"internalType":"struct DataTypes.Building[]","name":"buildings","type":"tuple[]"},{"components":[{"internalType":"string","name":"name","type":"string"},{"internalType":"uint256","name":"level","type":"uint256"},{"internalType":"uint256","name":"completionTime","type":"uint256"}],"internalType":"struct DataTypes.BuildingUnderConstruction[]","name":"constructions","type":"tuple[]"},{"components":[{"internalType":"uint256","name":"food","type":"uint256"},{"internalType":"uint256","name":"wood","type":"uint256"},{"internalType":"uint256","name":"stone","type":"uint256"},{"internalType":"uint256","name":"brass","type":"uint256"},{"internalType":"uint256","name":"iron","type":"uint256"},{"internalType":"uint256","name":"gold","type":"uint256"}],"internalType":"struct DataTypes.Resources","name":"resources","type":"tuple"},{"internalType":"uint256","name":"lastResourceUpdate","type":"uint256"}],"indexed":false,"internalType":"struct DataTypes.LandStats","name":"stats","type":"tuple"}],"name":"EpochUpdated","type":"event"},{"anonymous":false,"inputs":[{"indexed":true,"internalType":"address","name":"owner","type":"address"},{"indexed":false,"internalType":"uint256","name":"tokenId","type":"uint256"},{"indexed":false,"internalType":"int256","name":"x","type":"int256"},{"indexed":false,"internalType":"int256","name":"y","type":"int256"}],"name":"Minted","type":"event"},{"anonymous":false,"inputs":[{"indexed":true,"internalType":"address","name":"previousOwner","type":"address"},{"indexed":true,"internalType":"address","name":"newOwner","type":"address"}],"name":"OwnershipTransferred","type":"event"},{"anonymous":false,"inputs":[{"indexed":true,"internalType":"address","name":"from","type":"address"},{"indexed":true,"internalType":"address","name":"to","type":"address"},{"indexed":true,"internalType":"uint256","name":"tokenId","type":"uint256"}],"name":"Transfer","type":"event"},{"inputs":[{"internalType":"address","name":"to","type":"address"},{"internalType":"uint256","name":"tokenId","type":"uint256"}],"name":"approve","outputs":[],"stateMutability":"nonpayable","type":"function"},{"inputs":[{"internalType":"address","name":"owner","type":"address"}],"name":"balanceOf","outputs":[{"internalType":"uint256","name":"","type":"uint256"}],"stateMutability":"view","type":"function"},{"inputs":[],"name":"buildingManager","outputs":[{"internalType":"contract BuildingManager","name":"","type":"address"}],"stateMutability":"view","type":"function"},{"inputs":[{"internalType":"uint256","name":"tokenId","type":"uint256"}],"name":"completeBuildingConstruction","outputs":[],"stateMutability":"nonpayable","type":"function"},{"inputs":[],"name":"epochDuration","outputs":[{"internalType":"uint256","name":"","type":"uint256"}],"stateMutability":"view","type":"function"},{"inputs":[{"internalType":"uint256","name":"tokenId","type":"uint256"}],"name":"getApproved","outputs":[{"internalType":"address","name":"","type":"address"}],"stateMutability":"view","type":"function"},{"inputs":[{"internalType":"uint256","name":"tokenId","type":"uint256"}],"name":"getLandCoordinates","outputs":[{"internalType":"int256","name":"x","type":"int256"},{"internalType":"int256","name":"y","type":"int256"}],"stateMutability":"view","type":"function"},{"inputs":[{"internalType":"uint256","name":"tokenId","type":"uint256"}],"name":"getLandStats","outputs":[{"components":[{"internalType":"uint256","name":"population","type":"uint256"},{"internalType":"uint256","name":"production","type":"uint256"},{"internalType":"uint256","name":"happiness","type":"uint256"},{"internalType":"uint256","name":"technology","type":"uint256"},{"internalType":"uint256","name":"piety","type":"uint256"},{"internalType":"uint256","name":"strength","type":"uint256"},{"components":[{"internalType":"string","name":"name","type":"string"},{"internalType":"uint256","name":"level","type":"uint256"},{"internalType":"bool","name":"isActive","type":"bool"}],"internalType":"struct DataTypes.Building[]","name":"buildings","type":"tuple[]"},{"components":[{"internalType":"string","name":"name","type":"string"},{"internalType":"uint256","name":"level","type":"uint256"},{"internalType":"uint256","name":"completionTime","type":"uint256"}],"internalType":"struct DataTypes.BuildingUnderConstruction[]","name":"constructions","type":"tuple[]"},{"components":[{"internalType":"uint256","name":"food","type":"uint256"},{"internalType":"uint256","name":"wood","type":"uint256"},{"internalType":"uint256","name":"stone","type":"uint256"},{"internalType":"uint256","name":"brass","type":"uint256"},{"internalType":"uint256","name":"iron","type":"uint256"},{"internalType":"uint256","name":"gold","type":"uint256"}],"internalType":"struct DataTypes.Resources","name":"resources","type":"tuple"},{"internalType":"uint256","name":"lastResourceUpdate","type":"uint256"}],"internalType":"struct DataTypes.LandStats","name":"","type":"tuple"}],"stateMutability":"view","type":"function"},{"inputs":[{"internalType":"uint256","name":"newMaxSupply","type":"uint256"}],"name":"increaseMaxSupply","outputs":[],"stateMutability":"nonpayable","type":"function"},{"inputs":[{"internalType":"address","name":"owner","type":"address"},{"internalType":"address","name":"operator","type":"address"}],"name":"isApprovedForAll","outputs":[{"internalType":"bool","name":"","type":"bool"}],"stateMutability":"view","type":"function"},{"inputs":[],"name":"mapContract","outputs":[{"internalType":"contract MapContract","name":"","type":"address"}],"stateMutability":"view","type":"function"},{"inputs":[],"name":"maxSupply","outputs":[{"internalType":"uint256","name":"","type":"uint256"}],"stateMutability":"view","type":"function"},{"inputs":[{"internalType":"enum LandNFT.MintOption","name":"option","type":"uint8"},{"internalType":"uint256","name":"existingTokenId","type":"uint256"},{"internalType":"int256","name":"x","type":"int256"},{"internalType":"int256","name":"y","type":"int256"}],"name":"mint","outputs":[],"stateMutability":"payable","type":"function"},{"inputs":[],"name":"mintPrice","outputs":[{"internalType":"uint256","name":"","type":"uint256"}],"stateMutability":"view","type":"function"},{"inputs":[],"name":"name","outputs":[{"internalType":"string","name":"","type":"string"}],"stateMutability":"view","type":"function"},{"inputs":[],"name":"nextTokenId","outputs":[{"internalType":"uint256","name":"","type":"uint256"}],"stateMutability":"view","type":"function"},{"inputs":[],"name":"owner","outputs":[{"internalType":"address","name":"","type":"address"}],"stateMutability":"view","type":"function"},{"inputs":[{"internalType":"uint256","name":"tokenId","type":"uint256"}],"name":"ownerOf","outputs":[{"internalType":"address","name":"","type":"address"}],"stateMutability":"view","type":"function"},{"inputs":[],"name":"renounceOwnership","outputs":[],"stateMutability":"nonpayable","type":"function"},{"inputs":[{"internalType":"address","name":"from","type":"address"},{"internalType":"address","name":"to","type":"address"},{"internalType":"uint256","name":"tokenId","type":"uint256"}],"name":"safeTransferFrom","outputs":[],"stateMutability":"nonpayable","type":"function"},{"inputs":[{"internalType":"address","name":"from","type":"address"},{"internalType":"address","name":"to","type":"address"},{"internalType":"uint256","name":"tokenId","type":"uint256"},{"internalType":"bytes","name":"data","type":"bytes"}],"name":"safeTransferFrom","outputs":[],"stateMutability":"nonpayable","type":"function"},{"inputs":[{"internalType":"address","name":"operator","type":"address"},{"internalType":"bool","name":"approved","type":"bool"}],"name":"setApprovalForAll","outputs":[],"stateMutability":"nonpayable","type":"function"},{"inputs":[{"internalType":"address","name":"_buildingManager","type":"address"}],"name":"setBuildingManager","outputs":[],"stateMutability":"nonpayable","type":"function"},{"inputs":[{"internalType":"address","name":"_mapContract","type":"address"}],"name":"setMapContract","outputs":[],"stateMutability":"nonpayable","type":"function"},{"inputs":[{"internalType":"uint256","name":"newPrice","type":"uint256"}],"name":"setMintPrice","outputs":[],"stateMutability":"nonpayable","type":"function"},{"inputs":[{"internalType":"uint256","name":"tokenId","type":"uint256"},{"internalType":"string","name":"buildingName","type":"string"},{"internalType":"uint256","name":"level","type":"uint256"}],"name":"startBuildingConstruction","outputs":[],"stateMutability":"nonpayable","type":"function"},{"inputs":[{"internalType":"bytes4","name":"interfaceId","type":"bytes4"}],"name":"supportsInterface","outputs":[{"internalType":"bool","name":"","type":"bool"}],"stateMutability":"view","type":"function"},{"inputs":[],"name":"symbol","outputs":[{"internalType":"string","name":"","type":"string"}],"stateMutability":"view","type":"function"},{"inputs":[{"internalType":"uint256","name":"index","type":"uint256"}],"name":"tokenByIndex","outputs":[{"internalType":"uint256","name":"","type":"uint256"}],"stateMutability":"view","type":"function"},{"inputs":[{"internalType":"address","name":"owner","type":"address"},{"internalType":"uint256","name":"index","type":"uint256"}],"name":"tokenOfOwnerByIndex","outputs":[{"internalType":"uint256","name":"","type":"uint256"}],"stateMutability":"view","type":"function"},{"inputs":[{"internalType":"uint256","name":"tokenId","type":"uint256"}],"name":"tokenURI","outputs":[{"internalType":"string","name":"","type":"string"}],"stateMutability":"view","type":"function"},{"inputs":[],"name":"totalSupply","outputs":[{"internalType":"uint256","name":"","type":"uint256"}],"stateMutability":"view","type":"function"},{"inputs":[{"internalType":"address","name":"from","type":"address"},{"internalType":"address","name":"to","type":"address"},{"internalType":"uint256","name":"tokenId","type":"uint256"}],"name":"transferFrom","outputs":[],"stateMutability":"nonpayable","type":"function"},{"inputs":[{"internalType":"address","name":"newOwner","type":"address"}],"name":"transferOwnership","outputs":[],"stateMutability":"nonpayable","type":"function"},{"inputs":[{"internalType":"uint256","name":"tokenId","type":"uint256"}],"name":"updateEpoch","outputs":[],"stateMutability":"nonpayable","type":"function"},{"inputs":[],"name":"withdraw","outputs":[],"stateMutability":"nonpayable","type":"function"}],"evm":{"bytecode":{"linkReferences":{},"object":"6080604052620151806010556127106011553480156200001e57600080fd5b50604051620046223803806200462283398101604081905262000041916200012c565b6040518060400160405280600d81526020016c119a9d5b9b1d5b990813185b99609a1b8152506040518060400160405280600381526020016211929360ea1b8152508160009081620000949190620001eb565b506001620000a38282620001eb565b505050620000c0620000ba620000d660201b60201c565b620000da565b6001600b819055600f91909155600e55620002b7565b3390565b600a80546001600160a01b038381166001600160a01b0319831681179093556040519116919082907f8be0079c531659141344cd1fd0a4f28419497f9722a3daafe3b4186f6b6457e090600090a35050565b6000602082840312156200013f57600080fd5b5051919050565b634e487b7160e01b600052604160045260246000fd5b600181811c908216806200017157607f821691505b6020821081036200019257634e487b7160e01b600052602260045260246000fd5b50919050565b601f821115620001e657600081815260208120601f850160051c81016020861015620001c15750805b601f850160051c820191505b81811015620001e257828155600101620001cd565b5050505b505050565b81516001600160401b0381111562000207576200020762000146565b6200021f816200021884546200015c565b8462000198565b602080601f8311600181146200025757600084156200023e5750858301515b600019600386901b1c1916600185901b178555620001e2565b600085815260208120601f198616915b82811015620002885788860151825594840194600190910190840162000267565b5085821015620002a75787850151600019600388901b60f8161c191681555b5050505050600190811b01905550565b61435b80620002c76000396000f3fe60806040526004361061020f5760003560e01c80636352211e1161011857806395d89b41116100a0578063c87b56dd1161006f578063c87b56dd146105fc578063d5abeb011461061c578063e985e9c514610632578063f2fde38b1461067b578063f4a0a5281461069b57600080fd5b806395d89b4114610587578063a22cb4651461059c578063a563ef2c146105bc578063b88d4fde146105dc57600080fd5b806370a08231116100e757806370a08231146104fe578063715018a61461051e57806375794a3c146105335780638da5cb5b1461054957806390edbfee1461056757600080fd5b80636352211e146104885780636727b150146104a85780636817c76c146104c8578063691c7836146104de57600080fd5b806323b872dd1161019b57806342842e0e1161016a57806342842e0e146103dd5780634f6ccce7146103fd5780634ff0876a1461041d578063514500561461043357806360e4c3931461046857600080fd5b806323b872dd146103685780632de3e04f146103885780632f745c59146103a85780633ccfd60b146103c857600080fd5b8063081812fc116101e2578063081812fc146102be57806308d1616d146102f6578063095ea7b31461030957806315ca0dc01461032957806318160ddd1461034957600080fd5b8063018c7f9e1461021457806301ffc9a71461024a5780630426657c1461027a57806306fdde031461029c575b600080fd5b34801561022057600080fd5b5061023461022f366004613320565b6106bb565b604051610241919061346e565b60405180910390f35b34801561025657600080fd5b5061026a610265366004613557565b6109b8565b6040519015158152602001610241565b34801561028657600080fd5b5061029a610295366004613590565b6109e3565b005b3480156102a857600080fd5b506102b1610a66565b60405161024191906135ab565b3480156102ca57600080fd5b506102de6102d9366004613320565b610af8565b6040516001600160a01b039091168152602001610241565b61029a6103043660046135be565b610b1f565b34801561031557600080fd5b5061029a6103243660046135fd565b611363565b34801561033557600080fd5b5061029a610344366004613320565b611478565b34801561035557600080fd5b506008545b604051908152602001610241565b34801561037457600080fd5b5061029a610383366004613627565b6114eb565b34801561039457600080fd5b5061029a6103a3366004613320565b61151c565b3480156103b457600080fd5b5061035a6103c33660046135fd565b6118aa565b3480156103d457600080fd5b5061029a611940565b3480156103e957600080fd5b5061029a6103f8366004613627565b6119ee565b34801561040957600080fd5b5061035a610418366004613320565b611a09565b34801561042957600080fd5b5061035a60105481565b34801561043f57600080fd5b5061045361044e366004613320565b611a9c565b60408051928352602083019190915201610241565b34801561047457600080fd5b50600c546102de906001600160a01b031681565b34801561049457600080fd5b506102de6104a3366004613320565b611b39565b3480156104b457600080fd5b50600d546102de906001600160a01b031681565b3480156104d457600080fd5b5061035a600f5481565b3480156104ea57600080fd5b5061029a6104f936600461375d565b611b99565b34801561050a57600080fd5b5061035a610519366004613590565b611de4565b34801561052a57600080fd5b5061029a611e6a565b34801561053f57600080fd5b5061035a600e5481565b34801561055557600080fd5b50600a546001600160a01b03166102de565b34801561057357600080fd5b5061029a610582366004613320565b611e7e565b34801561059357600080fd5b506102b1611efb565b3480156105a857600080fd5b5061029a6105b73660046137cf565b611f0a565b3480156105c857600080fd5b5061029a6105d7366004613590565b611f19565b3480156105e857600080fd5b5061029a6105f7366004613806565b611f9c565b34801561060857600080fd5b506102b1610617366004613320565b611fce565b34801561062857600080fd5b5061035a60115481565b34801561063e57600080fd5b5061026a61064d366004613882565b6001600160a01b03918216600090815260056020908152604080832093909416825291909152205460ff1690565b34801561068757600080fd5b5061029a610696366004613590565b612042565b3480156106a757600080fd5b5061029a6106b6366004613320565b6120b8565b6106c3613248565b6106cc826120c5565b6106f15760405162461bcd60e51b81526004016106e8906138b5565b60405180910390fd5b601260008381526020019081526020016000206040518061014001604052908160008201548152602001600182015481526020016002820154815260200160038201548152602001600482015481526020016005820154815260200160068201805480602002602001604051908101604052809291908181526020016000905b8282101561085457838290600052602060002090600302016040518060600160405290816000820180546107a4906138e3565b80601f01602080910402602001604051908101604052809291908181526020018280546107d0906138e3565b801561081d5780601f106107f25761010080835404028352916020019161081d565b820191906000526020600020905b81548152906001019060200180831161080057829003601f168201915b505050918352505060018281015460208084019190915260029093015460ff16151560409092019190915291835292019101610771565b50505050815260200160078201805480602002602001604051908101604052809291908181526020016000905b8282101561095957838290600052602060002090600302016040518060600160405290816000820180546108b4906138e3565b80601f01602080910402602001604051908101604052809291908181526020018280546108e0906138e3565b801561092d5780601f106109025761010080835404028352916020019161092d565b820191906000526020600020905b81548152906001019060200180831161091057829003601f168201915b505050505081526020016001820154815260200160028201548152505081526020019060010190610881565b505050908252506040805160c081018252600884015481526009840154602082810191909152600a85015482840152600b8501546060830152600c8501546080830152600d85015460a0830152830152600e9092015491015292915050565b60006001600160e01b0319821663780e9d6360e01b14806109dd57506109dd826120e2565b92915050565b6109eb612132565b600d546001600160a01b031615610a445760405162461bcd60e51b815260206004820152601760248201527f4d6170436f6e747261637420616c72656164792073657400000000000000000060448201526064016106e8565b600d80546001600160a01b0319166001600160a01b0392909216919091179055565b606060008054610a75906138e3565b80601f0160208091040260200160405190810160405280929190818152602001828054610aa1906138e3565b8015610aee5780601f10610ac357610100808354040283529160200191610aee565b820191906000526020600020905b815481529060010190602001808311610ad157829003601f168201915b5050505050905090565b6000610b038261218c565b506000908152600460205260409020546001600160a01b031690565b610b276121dc565b600f54341015610b705760405162461bcd60e51b8152602060048201526014602482015273125b9cdd59999a58da595b9d081c185e5b595b9d60621b60448201526064016106e8565b600d546001600160a01b0316610bbe5760405162461bcd60e51b815260206004820152601360248201527213585c10dbdb9d1c9858dd081b9bdd081cd95d606a1b60448201526064016106e8565b601154600e541115610c0b5760405162461bcd60e51b815260206004820152601660248201527513585e1a5b5d5b481cdd5c1c1b1e481c995858da195960521b60448201526064016106e8565b600e80549081906000610c1d83613933565b9190505550610c2c3382612235565b6000818152601260209081526040808320606480825560326001808401829055600284018290556003840187905560048401879055600a60058501819055855160c0810187526101f480825261012c98820189905260c8978201889052606082018a90526080820186905260a09091018490526008860155600985019690965594830193909355600b820194909455600c810193909355600d83015542600e830155866001811115610ce057610ce061394c565b03610f845733610cef86611b39565b6001600160a01b031614610d505760405162461bcd60e51b815260206004820152602260248201527f4e6f7420746865206f776e6572206f6620746865206578697374696e67206c616044820152611b9960f21b60648201526084016106e8565b600d54604051633c7c604f60e01b81526004810187905260009182916001600160a01b0390911690633c7c604f906024016040805180830381865afa158015610d9d573d6000803e3d6000fd5b505050506040513d601f19601f82011682018060405250810190610dc19190613962565b600d546040516372013ed360e11b815260048101849052602481018390529294509092506000916001600160a01b039091169063e4027da690604401600060405180830381865afa158015610e1a573d6000803e3d6000fd5b505050506040513d6000823e601f3d908101601f19168201604052610e429190810190613986565b90506000815111610e9f5760405162461bcd60e51b815260206004820152602160248201527f4e6f2061646a6163656e7420636f6f7264696e6174657320617661696c61626c6044820152606560f81b60648201526084016106e8565b600081600081518110610eb457610eb4613a53565b602090810291909101810151600d5481519282015160405163478935d360e01b8152600481018b9052602481019490945260448401529092506001600160a01b03169063478935d390606401600060405180830381600087803b158015610f1a57600080fd5b505af1158015610f2e573d6000803e3d6000fd5b50508251602080850151604080518c8152928301939093528183015290513393507f8436f10f9012a01d1c3bb5d6dd9014da60dd826366249f20010f63bc881bea8292509081900360600190a2505050506111d0565b6000866001811115610f9857610f9861394c565b0361105f57600d54604051631039f59d60e01b81526004810184905260009182916001600160a01b0390911690631039f59d9060240160408051808303816000875af1158015610fec573d6000803e3d6000fd5b505050506040513d601f19601f820116820180604052508101906110109190613962565b6040805187815260208101849052908101829052919350915033907f8436f10f9012a01d1c3bb5d6dd9014da60dd826366249f20010f63bc881bea829060600160405180910390a250506111d0565b600d546040516307facfc160e41b815260048101869052602481018590526001600160a01b0390911690637facfc1090604401602060405180830381865afa1580156110af573d6000803e3d6000fd5b505050506040513d601f19601f820116820180604052508101906110d39190613a74565b156111205760405162461bcd60e51b815260206004820152601c60248201527f436f6f7264696e6174657320616c7265616479206f636375706965640000000060448201526064016106e8565b600d5460405163478935d360e01b81526004810184905260248101869052604481018590526001600160a01b039091169063478935d390606401600060405180830381600087803b15801561117457600080fd5b505af1158015611188573d6000803e3d6000fd5b505060408051858152602081018890529081018690523392507f8436f10f9012a01d1c3bb5d6dd9014da60dd826366249f20010f63bc881bea82915060600160405180910390a25b6040805160a081018252600460608201908152634661726d60e01b6080830152815260016020808301829052928201819052600684018054918201815560009081529290922081519192839260039091029091019081906112319082613adf565b5060208201516001808301919091556040928301516002909201805492151560ff1990931692909217909155600c54915163244d87ad60e11b81526000926001600160a01b03169163489b0f5a916112ad91906004016040808252600490820152634661726d60e01b6060820152602081019190915260800190565b600060405180830381865afa1580156112ca573d6000803e3d6000fd5b505050506040513d6000823e601f3d908101601f191682016040526112f29190810190613c5e565b9050806080015183600101600082825461130c9190613d67565b909155505060a081015160028401805460009061132a908490613d67565b9091555050610100810151600584018054600090611349908490613d67565b90915550506001600b555061135d92505050565b50505050565b600061136e82611b39565b9050806001600160a01b0316836001600160a01b0316036113db5760405162461bcd60e51b815260206004820152602160248201527f4552433732313a20617070726f76616c20746f2063757272656e74206f776e656044820152603960f91b60648201526084016106e8565b336001600160a01b03821614806113f757506113f7813361064d565b6114695760405162461bcd60e51b815260206004820152603d60248201527f4552433732313a20617070726f76652063616c6c6572206973206e6f7420746f60448201527f6b656e206f776e6572206f7220617070726f76656420666f7220616c6c00000060648201526084016106e8565b611473838361224f565b505050565b6114806121dc565b611489816120c5565b6114a55760405162461bcd60e51b81526004016106e8906138b5565b336114af82611b39565b6001600160a01b0316146114d55760405162461bcd60e51b81526004016106e890613d7a565b6114de816122bd565b6114e86001600b55565b50565b6114f5338261239e565b6115115760405162461bcd60e51b81526004016106e890613db1565b61147383838361241d565b6115246121dc565b3361152e82611b39565b6001600160a01b0316146115545760405162461bcd60e51b81526004016106e890613d7a565b61155d8161258e565b6000818152601260205260408120600701905b815481101561189e57600082828154811061158d5761158d613a53565b90600052602060002090600302016040518060600160405290816000820180546115b6906138e3565b80601f01602080910402602001604051908101604052809291908181526020018280546115e2906138e3565b801561162f5780601f106116045761010080835404028352916020019161162f565b820191906000526020600020905b81548152906001019060200180831161161257829003601f168201915b505050505081526020016001820154815260200160028201548152505090508060400151421061188a57600c548151602083015160405163244d87ad60e11b81526000936001600160a01b03169263489b0f5a9261168f92600401613dfe565b600060405180830381865afa1580156116ac573d6000803e3d6000fd5b505050506040513d6000823e601f3d908101601f191682016040526116d49190810190613c5e565b60808101516000878152601260205260408120600101805493945091926116fc908490613d67565b909155505060a081015160008681526012602052604081206002018054909190611727908490613d67565b909155505061010081015160008681526012602052604081206005018054909190611753908490613d67565b909155505060008581526012602090815260408083208151606081018352865181528684015181850152600192810183905260069091018054928301815584529190922081519192600302019081906117ac9082613adf565b5060208201516001828101919091556040909201516002909101805460ff1916911515919091179055845485916117e291613e20565b815481106117f2576117f2613a53565b906000526020600020906003020184848154811061181257611812613a53565b600091825260209091206003909102018061182d8382613e33565b5060018281015490820155600291820154910155835484908061185257611852613f06565b6000828152602081206000199092019160038302019061187282826132d2565b50600060018201819055600290910155905550611898565b8161189481613933565b9250505b50611570565b50506114e86001600b55565b60006118b583611de4565b82106119175760405162461bcd60e51b815260206004820152602b60248201527f455243373231456e756d657261626c653a206f776e657220696e646578206f7560448201526a74206f6620626f756e647360a81b60648201526084016106e8565b506001600160a01b03919091166000908152600660209081526040808320938352929052205490565b611948612132565b600061195c600a546001600160a01b031690565b6001600160a01b03164760405160006040518083038185875af1925050503d80600081146119a6576040519150601f19603f3d011682016040523d82523d6000602084013e6119ab565b606091505b50509050806114e85760405162461bcd60e51b815260206004820152600f60248201526e151c985b9cd9995c8819985a5b1959608a1b60448201526064016106e8565b61147383838360405180602001604052806000815250611f9c565b6000611a1460085490565b8210611a775760405162461bcd60e51b815260206004820152602c60248201527f455243373231456e756d657261626c653a20676c6f62616c20696e646578206f60448201526b7574206f6620626f756e647360a01b60648201526084016106e8565b60088281548110611a8a57611a8a613a53565b90600052602060002001549050919050565b600080611aa8836120c5565b611ac45760405162461bcd60e51b81526004016106e8906138b5565b600d54604051633c7c604f60e01b8152600481018590526001600160a01b0390911690633c7c604f906024016040805180830381865afa158015611b0c573d6000803e3d6000fd5b505050506040513d601f19601f82011682018060405250810190611b309190613962565b91509150915091565b6000818152600260205260408120546001600160a01b0316806109dd5760405162461bcd60e51b8152602060048201526018602482015277115490cdcc8c4e881a5b9d985b1a59081d1bdad95b88125160421b60448201526064016106e8565b611ba16121dc565b33611bab84611b39565b6001600160a01b031614611bd15760405162461bcd60e51b81526004016106e890613d7a565b600c5460405163244d87ad60e11b81526000916001600160a01b03169063489b0f5a90611c049086908690600401613dfe565b600060405180830381865afa158015611c21573d6000803e3d6000fd5b505050506040513d6000823e601f3d908101601f19168201604052611c499190810190613c5e565b9050611c548461258e565b600084815260126020908152604091829020825160c08101845260088201548152600982015492810192909252600a81015482840152600b8101546060830152600c8101546080830152600d015460a082015290820151611cb5919061272d565b611cf85760405162461bcd60e51b81526020600482015260146024820152734e6f7420656e6f756768207265736f757263657360601b60448201526064016106e8565b611d1b60126000868152602001908152602001600020600801826040015161279c565b600081610140015142611d2e9190613d67565b60008681526012602090815260408083208151606081018352898152808401899052918201859052600701805460018101825590845291909220825193945091926003909102909101908190611d849082613adf565b50602082015181600101556040820151816002015550507f622e8de066e5bec4c7150e2fd56df14c20cecbea5744da2646fe0cfd2861d15785858584604051611dd09493929190613f1c565b60405180910390a150506114736001600b55565b60006001600160a01b038216611e4e5760405162461bcd60e51b815260206004820152602960248201527f4552433732313a2061646472657373207a65726f206973206e6f7420612076616044820152683634b21037bbb732b960b91b60648201526084016106e8565b506001600160a01b031660009081526003602052604090205490565b611e72612132565b611e7c600061284f565b565b611e86612132565b6011548111611ef65760405162461bcd60e51b815260206004820152603660248201527f4e6577206d617820737570706c79206d7573742062652067726561746572207460448201527568616e2063757272656e74206d617820737570706c7960501b60648201526084016106e8565b601155565b606060018054610a75906138e3565b611f153383836128a1565b5050565b611f21612132565b600c546001600160a01b031615611f7a5760405162461bcd60e51b815260206004820152601b60248201527f4275696c64696e674d616e6167657220616c726561647920736574000000000060448201526064016106e8565b600c80546001600160a01b0319166001600160a01b0392909216919091179055565b611fa6338361239e565b611fc25760405162461bcd60e51b81526004016106e890613db1565b61135d8484848461296f565b6060611fd98261218c565b6000611ff060408051602081019091526000815290565b90506000815111612010576040518060200160405280600081525061203b565b8061201a846129a2565b60405160200161202b929190613f48565b6040516020818303038152906040525b9392505050565b61204a612132565b6001600160a01b0381166120af5760405162461bcd60e51b815260206004820152602660248201527f4f776e61626c653a206e6577206f776e657220697320746865207a65726f206160448201526564647265737360d01b60648201526084016106e8565b6114e88161284f565b6120c0612132565b600f55565b6000908152600260205260409020546001600160a01b0316151590565b60006001600160e01b031982166380ac58cd60e01b148061211357506001600160e01b03198216635b5e139f60e01b145b806109dd57506301ffc9a760e01b6001600160e01b03198316146109dd565b600a546001600160a01b03163314611e7c5760405162461bcd60e51b815260206004820181905260248201527f4f776e61626c653a2063616c6c6572206973206e6f7420746865206f776e657260448201526064016106e8565b612195816120c5565b6114e85760405162461bcd60e51b8152602060048201526018602482015277115490cdcc8c4e881a5b9d985b1a59081d1bdad95b88125160421b60448201526064016106e8565b6002600b540361222e5760405162461bcd60e51b815260206004820152601f60248201527f5265656e7472616e637947756172643a207265656e7472616e742063616c6c0060448201526064016106e8565b6002600b55565b611f15828260405180602001604052806000815250612a35565b600081815260046020526040902080546001600160a01b0319166001600160a01b038416908117909155819061228482611b39565b6001600160a01b03167f8c5be1e5ebec7d5bd14f71427d1e84f3dd0314c0f7b2291e5b200ac8c7c3b92560405160405180910390a45050565b60008181526012602052604090206122d48261258e565b60328160020154111561232c57600060648260000154603284600201546122fb9190613e20565b6123059190613f77565b61230f9190613f8e565b9050808260000160008282546123259190613d67565b9091555050505b60058160020154111561235957600581600201600082825461234e9190613e20565b909155506123619050565b600060028201555b7ff3abc8dbf0c6213d4011b96ecd73368a6e6f36cbe993693ca128db83465a639e828260405161239292919061411f565b60405180910390a15050565b6000806123aa83611b39565b9050806001600160a01b0316846001600160a01b031614806123f157506001600160a01b0380821660009081526005602090815260408083209388168352929052205460ff165b806124155750836001600160a01b031661240a84610af8565b6001600160a01b0316145b949350505050565b826001600160a01b031661243082611b39565b6001600160a01b0316146124565760405162461bcd60e51b81526004016106e8906141f2565b6001600160a01b0382166124b85760405162461bcd60e51b8152602060048201526024808201527f4552433732313a207472616e7366657220746f20746865207a65726f206164646044820152637265737360e01b60648201526084016106e8565b6124c58383836001612a68565b826001600160a01b03166124d882611b39565b6001600160a01b0316146124fe5760405162461bcd60e51b81526004016106e8906141f2565b600081815260046020908152604080832080546001600160a01b03199081169091556001600160a01b0387811680865260038552838620805460001901905590871680865283862080546001019055868652600290945282852080549092168417909155905184937fddf252ad1be2c89b69c2b068fc378daa952ba7f163c4a11628f55a4df523b3ef91a4505050565b6000818152601260205260408120600e8101549091906125ae9042613e20565b90506000601054826125c09190613f8e565b9050801561135d57600c5460405163bfecd1a760e01b81526000916001600160a01b03169063bfecd1a7906125fe9060068801908690600401614237565b60c060405180830381865afa15801561261b573d6000803e3d6000fd5b505050506040513d601f19601f8201168201806040525081019061263f919061424a565b9050806000015184600801600001600082825461265c9190613d67565b9091555050602081015160098501805460009061267a908490613d67565b90915550506040810151600a85018054600090612698908490613d67565b90915550506060810151600b850180546000906126b6908490613d67565b90915550506080810151600c850180546000906126d4908490613d67565b909155505060a0810151600d850180546000906126f2908490613d67565b90915550612701905085612b9c565b60105461270e9083613f77565b84600e0160008282546127219190613d67565b90915550505050505050565b805182516000911180159061274a57508160200151836020015110155b801561275e57508160400151836040015110155b801561277257508160600151836060015110155b801561278657508160800151836080015110155b801561203b57505060a090810151910151101590565b8051825483906000906127b0908490613e20565b909155505060208101516001830180546000906127ce908490613e20565b909155505060408101516002830180546000906127ec908490613e20565b9091555050606081015160038301805460009061280a908490613e20565b90915550506080810151600483018054600090612828908490613e20565b909155505060a0810151600583018054600090612846908490613e20565b90915550505050565b600a80546001600160a01b038381166001600160a01b0319831681179093556040519116919082907f8be0079c531659141344cd1fd0a4f28419497f9722a3daafe3b4186f6b6457e090600090a35050565b816001600160a01b0316836001600160a01b0316036129025760405162461bcd60e51b815260206004820152601960248201527f4552433732313a20617070726f766520746f2063616c6c65720000000000000060448201526064016106e8565b6001600160a01b03838116600081815260056020908152604080832094871680845294825291829020805460ff191686151590811790915591519182527f17307eab39ab6107e8899845ad3d59bd9653f200f220920489ca2b5937696c31910160405180910390a3505050565b61297a84848461241d565b61298684848484612d64565b61135d5760405162461bcd60e51b81526004016106e890614266565b606060006129af83612e65565b600101905060008167ffffffffffffffff8111156129cf576129cf613663565b6040519080825280601f01601f1916602001820160405280156129f9576020820181803683370190505b5090508181016020015b600019016f181899199a1a9b1b9c1cb0b131b232b360811b600a86061a8153600a8504945084612a0357509392505050565b612a3f8383612f3d565b612a4c6000848484612d64565b6114735760405162461bcd60e51b81526004016106e890614266565b6001811115612ad75760405162461bcd60e51b815260206004820152603560248201527f455243373231456e756d657261626c653a20636f6e7365637574697665207472604482015274185b9cd9995c9cc81b9bdd081cdd5c1c1bdc9d1959605a1b60648201526084016106e8565b816001600160a01b038516612b3357612b2e81600880546000838152600960205260408120829055600182018355919091527ff3f7a9fe364faab93b216da50a3214154f22a0a2b415b23a84c8169e8b636ee30155565b612b56565b836001600160a01b0316856001600160a01b031614612b5657612b5685826130b8565b6001600160a01b038416612b7257612b6d81613155565b612b95565b846001600160a01b0316846001600160a01b031614612b9557612b958482613204565b5050505050565b6000818152601260205260408120905b6006820154811015611473576000826006018281548110612bcf57612bcf613a53565b60009182526020909120600390910201600281015490915060ff1615612d5157600c54600182015460405163244d87ad60e11b81526000926001600160a01b03169163489b0f5a91612c259186916004016142b8565b600060405180830381865afa158015612c42573d6000803e3d6000fd5b505050506040513d6000823e601f3d908101601f19168201604052612c6a9190810190613c5e565b90506000816060015190506000612ccb866008016040518060c001604052908160008201548152602001600182015481526020016002820154815260200160038201548152602001600482015481526020016005820154815250508361272d565b90508015612ce557612ce0866008018361279c565b612d4d565b60028401805460ff191690556080830151600187018054600090612d0a908490613e20565b909155505060a0830151600287018054600090612d28908490613e20565b9091555050610100830151600587018054600090612d47908490613e20565b90915550505b5050505b5080612d5c81613933565b915050612bac565b60006001600160a01b0384163b15612e5a57604051630a85bd0160e11b81526001600160a01b0385169063150b7a0290612da89033908990889088906004016142cb565b6020604051808303816000875af1925050508015612de3575060408051601f3d908101601f19168201909252612de091810190614308565b60015b612e40573d808015612e11576040519150601f19603f3d011682016040523d82523d6000602084013e612e16565b606091505b508051600003612e385760405162461bcd60e51b81526004016106e890614266565b805181602001fd5b6001600160e01b031916630a85bd0160e11b149050612415565b506001949350505050565b60008072184f03e93ff9f4daa797ed6e38ed64bf6a1f0160401b8310612ea45772184f03e93ff9f4daa797ed6e38ed64bf6a1f0160401b830492506040015b6d04ee2d6d415b85acef81000000008310612ed0576d04ee2d6d415b85acef8100000000830492506020015b662386f26fc100008310612eee57662386f26fc10000830492506010015b6305f5e1008310612f06576305f5e100830492506008015b6127108310612f1a57612710830492506004015b60648310612f2c576064830492506002015b600a83106109dd5760010192915050565b6001600160a01b038216612f935760405162461bcd60e51b815260206004820181905260248201527f4552433732313a206d696e7420746f20746865207a65726f206164647265737360448201526064016106e8565b612f9c816120c5565b15612fe95760405162461bcd60e51b815260206004820152601c60248201527f4552433732313a20746f6b656e20616c7265616479206d696e7465640000000060448201526064016106e8565b612ff7600083836001612a68565b613000816120c5565b1561304d5760405162461bcd60e51b815260206004820152601c60248201527f4552433732313a20746f6b656e20616c7265616479206d696e7465640000000060448201526064016106e8565b6001600160a01b038216600081815260036020908152604080832080546001019055848352600290915280822080546001600160a01b0319168417905551839291907fddf252ad1be2c89b69c2b068fc378daa952ba7f163c4a11628f55a4df523b3ef908290a45050565b600060016130c584611de4565b6130cf9190613e20565b600083815260076020526040902054909150808214613122576001600160a01b03841660009081526006602090815260408083208584528252808320548484528184208190558352600790915290208190555b5060009182526007602090815260408084208490556001600160a01b039094168352600681528383209183525290812055565b60085460009061316790600190613e20565b6000838152600960205260408120546008805493945090928490811061318f5761318f613a53565b9060005260206000200154905080600883815481106131b0576131b0613a53565b60009182526020808320909101929092558281526009909152604080822084905585825281205560088054806131e8576131e8613f06565b6001900381819060005260206000200160009055905550505050565b600061320f83611de4565b6001600160a01b039093166000908152600660209081526040808320868452825280832085905593825260079052919091209190915550565b60405180610140016040528060008152602001600081526020016000815260200160008152602001600081526020016000815260200160608152602001606081526020016132c56040518060c001604052806000815260200160008152602001600081526020016000815260200160008152602001600081525090565b8152602001600081525090565b5080546132de906138e3565b6000825580601f106132ee575050565b601f0160209004906000526020600020908101906114e891905b8082111561331c5760008155600101613308565b5090565b60006020828403121561333257600080fd5b5035919050565b60005b8381101561335457818101518382015260200161333c565b50506000910152565b60008151808452613375816020860160208601613339565b601f01601f19169290920160200192915050565b600082825180855260208086019550808260051b84010181860160005b848110156133f657601f198684030189528151606081518186526133cc8287018261335d565b838801518789015260409384015115159390960192909252505097830197908301906001016133a6565b5090979650505050505050565b600082825180855260208086019550808260051b84010181860160005b848110156133f657601f198684030189528151606081518186526134468287018261335d565b8388015187890152604093840151939096019290925250509783019790830190600101613420565b6020815281516020820152602082015160408201526040820151606082015260608201516080820152608082015160a082015260a082015160c0820152600060c08301516101e08060e08501526134c9610200850183613389565b915060e0850151610100601f1986850301818701526134e88483613403565b9087015180516101208881019190915260208201516101408901526040820151610160890152606082015161018089015260808201516101a089015260a0909101516101c0880152909601519190940152509192915050565b6001600160e01b0319811681146114e857600080fd5b60006020828403121561356957600080fd5b813561203b81613541565b80356001600160a01b038116811461358b57600080fd5b919050565b6000602082840312156135a257600080fd5b61203b82613574565b60208152600061203b602083018461335d565b600080600080608085870312156135d457600080fd5b8435600281106135e357600080fd5b966020860135965060408601359560600135945092505050565b6000806040838503121561361057600080fd5b61361983613574565b946020939093013593505050565b60008060006060848603121561363c57600080fd5b61364584613574565b925061365360208501613574565b9150604084013590509250925092565b634e487b7160e01b600052604160045260246000fd5b6040805190810167ffffffffffffffff8111828210171561369c5761369c613663565b60405290565b604051610180810167ffffffffffffffff8111828210171561369c5761369c613663565b604051601f8201601f1916810167ffffffffffffffff811182821017156136ef576136ef613663565b604052919050565b600067ffffffffffffffff82111561371157613711613663565b50601f01601f191660200190565b600061373261372d846136f7565b6136c6565b905082815283838301111561374657600080fd5b828260208301376000602084830101529392505050565b60008060006060848603121561377257600080fd5b83359250602084013567ffffffffffffffff81111561379057600080fd5b8401601f810186136137a157600080fd5b6137b08682356020840161371f565b925050604084013590509250925092565b80151581146114e857600080fd5b600080604083850312156137e257600080fd5b6137eb83613574565b915060208301356137fb816137c1565b809150509250929050565b6000806000806080858703121561381c57600080fd5b61382585613574565b935061383360208601613574565b925060408501359150606085013567ffffffffffffffff81111561385657600080fd5b8501601f8101871361386757600080fd5b6138768782356020840161371f565b91505092959194509250565b6000806040838503121561389557600080fd5b61389e83613574565b91506138ac60208401613574565b90509250929050565b602080825260149082015273151bdad95b88191bd95cc81b9bdd08195e1a5cdd60621b604082015260600190565b600181811c908216806138f757607f821691505b60208210810361391757634e487b7160e01b600052602260045260246000fd5b50919050565b634e487b7160e01b600052601160045260246000fd5b6000600182016139455761394561391d565b5060010190565b634e487b7160e01b600052602160045260246000fd5b6000806040838503121561397557600080fd5b505080516020909101519092909150565b6000602080838503121561399957600080fd5b825167ffffffffffffffff808211156139b157600080fd5b818501915085601f8301126139c557600080fd5b8151818111156139d7576139d7613663565b6139e5848260051b016136c6565b818152848101925060069190911b830184019087821115613a0557600080fd5b928401925b81841015613a485760408489031215613a235760008081fd5b613a2b613679565b845181528585015186820152835260409093019291840191613a0a565b979650505050505050565b634e487b7160e01b600052603260045260246000fd5b805161358b816137c1565b600060208284031215613a8657600080fd5b815161203b816137c1565b601f82111561147357600081815260208120601f850160051c81016020861015613ab85750805b601f850160051c820191505b81811015613ad757828155600101613ac4565b505050505050565b815167ffffffffffffffff811115613af957613af9613663565b613b0d81613b0784546138e3565b84613a91565b602080601f831160018114613b425760008415613b2a5750858301515b600019600386901b1c1916600185901b178555613ad7565b600085815260208120601f198616915b82811015613b7157888601518255948401946001909101908401613b52565b5085821015613b8f5787850151600019600388901b60f8161c191681555b5050505050600190811b01905550565b600082601f830112613bb057600080fd5b8151613bbe61372d826136f7565b818152846020838601011115613bd357600080fd5b612415826020830160208701613339565b600060c08284031215613bf657600080fd5b60405160c0810181811067ffffffffffffffff82111715613c1957613c19613663565b8060405250809150825181526020830151602082015260408301516040820152606083015160608201526080830151608082015260a083015160a08201525092915050565b600060208284031215613c7057600080fd5b815167ffffffffffffffff80821115613c8857600080fd5b908301906103608286031215613c9d57600080fd5b613ca56136a2565b825182811115613cb457600080fd5b613cc087828601613b9f565b82525060208301516020820152613cda8660408501613be4565b60408201526101009150613cf086838501613be4565b60608201526101c083015160808201526101e083015160a082015261020083015160c082015261022083015160e082015261024083015182820152613d39866102608501613be4565b610120820152610320830151610140820152613d586103408401613a69565b61016082015295945050505050565b808201808211156109dd576109dd61391d565b6020808252601a908201527f4e6f7420746865206f776e6572206f662074686973206c616e64000000000000604082015260600190565b6020808252602d908201527f4552433732313a2063616c6c6572206973206e6f7420746f6b656e206f776e6560408201526c1c881bdc88185c1c1c9bdd9959609a1b606082015260800190565b604081526000613e11604083018561335d565b90508260208301529392505050565b818103818111156109dd576109dd61391d565b818103613e3e575050565b613e4882546138e3565b67ffffffffffffffff811115613e6057613e60613663565b613e6e81613b0784546138e3565b6000601f821160018114613ea25760008315613e8a5750848201545b600019600385901b1c1916600184901b178455612b95565b600085815260209020601f19841690600086815260209020845b83811015613edc5782860154825560019586019590910190602001613ebc565b5085831015613b8f5793015460001960f8600387901b161c19169092555050600190811b01905550565b634e487b7160e01b600052603160045260246000fd5b848152608060208201526000613f35608083018661335d565b6040830194909452506060015292915050565b60008351613f5a818460208801613339565b835190830190613f6e818360208801613339565b01949350505050565b80820281158282048414176109dd576109dd61391d565b600082613fab57634e487b7160e01b600052601260045260246000fd5b500490565b60008154613fbd816138e3565b808552602060018381168015613fda5760018114613ff457614022565b60ff1985168884015283151560051b880183019550614022565b866000528260002060005b8581101561401a5781548a8201860152908301908401613fff565b890184019650505b505050505092915050565b600081548084526020808501808196508360051b81019150856000528260002060005b858110156140a2578284038952606080855261406e81860184613fb0565b905060018301548686015260ff60028401541615156040860152809450506003820191508489019850600181019050614050565b5091979650505050505050565b600081548084526020808501808196508360051b81019150856000528260002060005b858110156140a257828403895260608085526140f081860184613fb0565b9050600183015486860152600283015460408601528094505060038201915084890198506001810190506140d2565b82815260406020820152815460408201526001820154606082015260028201546080820152600382015460a0820152600482015460c0820152600582015460e08201526101e0610100820152600061417e61022083016006850161402d565b828103603f190161012084015261419881600786016140af565b60088501546101408501526009850154610160850152600a850154610180850152600b8501546101a0850152600c8501546101c0850152600d8501546101e08501529050600e840154610200840152809150509392505050565b60208082526025908201527f4552433732313a207472616e736665722066726f6d20696e636f72726563742060408201526437bbb732b960d91b606082015260800190565b604081526000613e11604083018561402d565b600060c0828403121561425c57600080fd5b61203b8383613be4565b60208082526032908201527f4552433732313a207472616e7366657220746f206e6f6e20455243373231526560408201527131b2b4bb32b91034b6b83632b6b2b73a32b960711b606082015260800190565b604081526000613e116040830185613fb0565b6001600160a01b03858116825284166020820152604081018390526080606082018190526000906142fe9083018461335d565b9695505050505050565b60006020828403121561431a57600080fd5b815161203b8161354156fea264697066735822122008457fda97cf38f01f75f3bbfa8c8dc34f7eba12c336cfa31ed5cb87b5ecd31164736f6c63430008130033","opcodes":"PUSH1 0x80 PUSH1 0x40 MSTORE PUSH3 0x15180 PUSH1 0x10 SSTORE PUSH2 0x2710 PUSH1 0x11 SSTORE CALLVALUE DUP1 ISZERO PUSH3 0x1E JUMPI PUSH1 0x0 DUP1 REVERT JUMPDEST POP PUSH1 0x40 MLOAD PUSH3 0x4622 CODESIZE SUB DUP1 PUSH3 0x4622 DUP4 CODECOPY DUP2 ADD PUSH1 0x40 DUP2 SWAP1 MSTORE PUSH3 0x41 SWAP2 PUSH3 0x12C JUMP JUMPDEST PUSH1 0x40 MLOAD DUP1 PUSH1 0x40 ADD PUSH1 0x40 MSTORE DUP1 PUSH1 0xD DUP2 MSTORE PUSH1 0x20 ADD PUSH13 0x119A9D5B9B1D5B990813185B99 PUSH1 0x9A SHL DUP2 MSTORE POP PUSH1 0x40 MLOAD DUP1 PUSH1 0x40 ADD PUSH1 0x40 MSTORE DUP1 PUSH1 0x3 DUP2 MSTORE PUSH1 0x20 ADD PUSH3 0x119293 PUSH1 0xEA SHL DUP2 MSTORE POP DUP2 PUSH1 0x0 SWAP1 DUP2 PUSH3 0x94 SWAP2 SWAP1 PUSH3 0x1EB JUMP JUMPDEST POP PUSH1 0x1 PUSH3 0xA3 DUP3 DUP3 PUSH3 0x1EB JUMP JUMPDEST POP POP POP PUSH3 0xC0 PUSH3 0xBA PUSH3 0xD6 PUSH1 0x20 SHL PUSH1 0x20 SHR JUMP JUMPDEST PUSH3 0xDA JUMP JUMPDEST PUSH1 0x1 PUSH1 0xB DUP2 SWAP1 SSTORE PUSH1 0xF SWAP2 SWAP1 SWAP2 SSTORE PUSH1 0xE SSTORE PUSH3 0x2B7 JUMP JUMPDEST CALLER SWAP1 JUMP JUMPDEST PUSH1 0xA DUP1 SLOAD PUSH1 0x1 PUSH1 0x1 PUSH1 0xA0 SHL SUB DUP4 DUP2 AND PUSH1 0x1 PUSH1 0x1 PUSH1 0xA0 SHL SUB NOT DUP4 AND DUP2 OR SWAP1 SWAP4 SSTORE PUSH1 0x40 MLOAD SWAP2 AND SWAP2 SWAP1 DUP3 SWAP1 PUSH32 0x8BE0079C531659141344CD1FD0A4F28419497F9722A3DAAFE3B4186F6B6457E0 SWAP1 PUSH1 0x0 SWAP1 LOG3 POP POP JUMP JUMPDEST PUSH1 0x0 PUSH1 0x20 DUP3 DUP5 SUB SLT ISZERO PUSH3 0x13F JUMPI PUSH1 0x0 DUP1 REVERT JUMPDEST POP MLOAD SWAP2 SWAP1 POP JUMP JUMPDEST PUSH4 0x4E487B71 PUSH1 0xE0 SHL PUSH1 0x0 MSTORE PUSH1 0x41 PUSH1 0x4 MSTORE PUSH1 0x24 PUSH1 0x0 REVERT JUMPDEST PUSH1 0x1 DUP2 DUP2 SHR SWAP1 DUP3 AND DUP1 PUSH3 0x171 JUMPI PUSH1 0x7F DUP3 AND SWAP2 POP JUMPDEST PUSH1 0x20 DUP3 LT DUP2 SUB PUSH3 0x192 JUMPI PUSH4 0x4E487B71 PUSH1 0xE0 SHL PUSH1 0x0 MSTORE PUSH1 0x22 PUSH1 0x4 MSTORE PUSH1 0x24 PUSH1 0x0 REVERT JUMPDEST POP SWAP2 SWAP1 POP JUMP JUMPDEST PUSH1 0x1F DUP3 GT ISZERO PUSH3 0x1E6 JUMPI PUSH1 0x0 DUP2 DUP2 MSTORE PUSH1 0x20 DUP2 KECCAK256 PUSH1 0x1F DUP6 ADD PUSH1 0x5 SHR DUP2 ADD PUSH1 0x20 DUP7 LT ISZERO PUSH3 0x1C1 JUMPI POP DUP1 JUMPDEST PUSH1 0x1F DUP6 ADD PUSH1 0x5 SHR DUP3 ADD SWAP2 POP JUMPDEST DUP2 DUP2 LT ISZERO PUSH3 0x1E2 JUMPI DUP3 DUP2 SSTORE PUSH1 0x1 ADD PUSH3 0x1CD JUMP JUMPDEST POP POP POP JUMPDEST POP POP POP JUMP JUMPDEST DUP2 MLOAD PUSH1 0x1 PUSH1 0x1 PUSH1 0x40 SHL SUB DUP2 GT ISZERO PUSH3 0x207 JUMPI PUSH3 0x207 PUSH3 0x146 JUMP JUMPDEST PUSH3 0x21F DUP2 PUSH3 0x218 DUP5 SLOAD PUSH3 0x15C JUMP JUMPDEST DUP5 PUSH3 0x198 JUMP JUMPDEST PUSH1 0x20 DUP1 PUSH1 0x1F DUP4 GT PUSH1 0x1 DUP2 EQ PUSH3 0x257 JUMPI PUSH1 0x0 DUP5 ISZERO PUSH3 0x23E JUMPI POP DUP6 DUP4 ADD MLOAD JUMPDEST PUSH1 0x0 NOT PUSH1 0x3 DUP7 SWAP1 SHL SHR NOT AND PUSH1 0x1 DUP6 SWAP1 SHL OR DUP6 SSTORE PUSH3 0x1E2 JUMP JUMPDEST PUSH1 0x0 DUP6 DUP2 MSTORE PUSH1 0x20 DUP2 KECCAK256 PUSH1 0x1F NOT DUP7 AND SWAP2 JUMPDEST DUP3 DUP2 LT ISZERO PUSH3 0x288 JUMPI DUP9 DUP7 ADD MLOAD DUP3 SSTORE SWAP5 DUP5 ADD SWAP5 PUSH1 0x1 SWAP1 SWAP2 ADD SWAP1 DUP5 ADD PUSH3 0x267 JUMP JUMPDEST POP DUP6 DUP3 LT ISZERO PUSH3 0x2A7 JUMPI DUP8 DUP6 ADD MLOAD PUSH1 0x0 NOT PUSH1 0x3 DUP9 SWAP1 SHL PUSH1 0xF8 AND SHR NOT AND DUP2 SSTORE JUMPDEST POP POP POP POP POP PUSH1 0x1 SWAP1 DUP2 SHL ADD SWAP1 SSTORE POP JUMP JUMPDEST PUSH2 0x435B DUP1 PUSH3 0x2C7 PUSH1 0x0 CODECOPY PUSH1 0x0 RETURN INVALID PUSH1 0x80 PUSH1 0x40 MSTORE PUSH1 0x4 CALLDATASIZE LT PUSH2 0x20F JUMPI PUSH1 0x0 CALLDATALOAD PUSH1 0xE0 SHR DUP1 PUSH4 0x6352211E GT PUSH2 0x118 JUMPI DUP1 PUSH4 0x95D89B41 GT PUSH2 0xA0 JUMPI DUP1 PUSH4 0xC87B56DD GT PUSH2 0x6F JUMPI DUP1 PUSH4 0xC87B56DD EQ PUSH2 0x5FC JUMPI DUP1 PUSH4 0xD5ABEB01 EQ PUSH2 0x61C JUMPI DUP1 PUSH4 0xE985E9C5 EQ PUSH2 0x632 JUMPI DUP1 PUSH4 0xF2FDE38B EQ PUSH2 0x67B JUMPI DUP1 PUSH4 0xF4A0A528 EQ PUSH2 0x69B JUMPI PUSH1 0x0 DUP1 REVERT JUMPDEST DUP1 PUSH4 0x95D89B41 EQ PUSH2 0x587 JUMPI DUP1 PUSH4 0xA22CB465 EQ PUSH2 0x59C JUMPI DUP1 PUSH4 0xA563EF2C EQ PUSH2 0x5BC JUMPI DUP1 PUSH4 0xB88D4FDE EQ PUSH2 0x5DC JUMPI PUSH1 0x0 DUP1 REVERT JUMPDEST DUP1 PUSH4 0x70A08231 GT PUSH2 0xE7 JUMPI DUP1 PUSH4 0x70A08231 EQ PUSH2 0x4FE JUMPI DUP1 PUSH4 0x715018A6 EQ PUSH2 0x51E JUMPI DUP1 PUSH4 0x75794A3C EQ PUSH2 0x533 JUMPI DUP1 PUSH4 0x8DA5CB5B EQ PUSH2 0x549 JUMPI DUP1 PUSH4 0x90EDBFEE EQ PUSH2 0x567 JUMPI PUSH1 0x0 DUP1 REVERT JUMPDEST DUP1 PUSH4 0x6352211E EQ PUSH2 0x488 JUMPI DUP1 PUSH4 0x6727B150 EQ PUSH2 0x4A8 JUMPI DUP1 PUSH4 0x6817C76C EQ PUSH2 0x4C8 JUMPI DUP1 PUSH4 0x691C7836 EQ PUSH2 0x4DE JUMPI PUSH1 0x0 DUP1 REVERT JUMPDEST DUP1 PUSH4 0x23B872DD GT PUSH2 0x19B JUMPI DUP1 PUSH4 0x42842E0E GT PUSH2 0x16A JUMPI DUP1 PUSH4 0x42842E0E EQ PUSH2 0x3DD JUMPI DUP1 PUSH4 0x4F6CCCE7 EQ PUSH2 0x3FD JUMPI DUP1 PUSH4 0x4FF0876A EQ PUSH2 0x41D JUMPI DUP1 PUSH4 0x51450056 EQ PUSH2 0x433 JUMPI DUP1 PUSH4 0x60E4C393 EQ PUSH2 0x468 JUMPI PUSH1 0x0 DUP1 REVERT JUMPDEST DUP1 PUSH4 0x23B872DD EQ PUSH2 0x368 JUMPI DUP1 PUSH4 0x2DE3E04F EQ PUSH2 0x388 JUMPI DUP1 PUSH4 0x2F745C59 EQ PUSH2 0x3A8 JUMPI DUP1 PUSH4 0x3CCFD60B EQ PUSH2 0x3C8 JUMPI PUSH1 0x0 DUP1 REVERT JUMPDEST DUP1 PUSH4 0x81812FC GT PUSH2 0x1E2 JUMPI DUP1 PUSH4 0x81812FC EQ PUSH2 0x2BE JUMPI DUP1 PUSH4 0x8D1616D EQ PUSH2 0x2F6 JUMPI DUP1 PUSH4 0x95EA7B3 EQ PUSH2 0x309 JUMPI DUP1 PUSH4 0x15CA0DC0 EQ PUSH2 0x329 JUMPI DUP1 PUSH4 0x18160DDD EQ PUSH2 0x349 JUMPI PUSH1 0x0 DUP1 REVERT JUMPDEST DUP1 PUSH4 0x18C7F9E EQ PUSH2 0x214 JUMPI DUP1 PUSH4 0x1FFC9A7 EQ PUSH2 0x24A JUMPI DUP1 PUSH4 0x426657C EQ PUSH2 0x27A JUMPI DUP1 PUSH4 0x6FDDE03 EQ PUSH2 0x29C JUMPI JUMPDEST PUSH1 0x0 DUP1 REVERT JUMPDEST CALLVALUE DUP1 ISZERO PUSH2 0x220 JUMPI PUSH1 0x0 DUP1 REVERT JUMPDEST POP PUSH2 0x234 PUSH2 0x22F CALLDATASIZE PUSH1 0x4 PUSH2 0x3320 JUMP JUMPDEST PUSH2 0x6BB JUMP JUMPDEST PUSH1 0x40 MLOAD PUSH2 0x241 SWAP2 SWAP1 PUSH2 0x346E JUMP JUMPDEST PUSH1 0x40 MLOAD DUP1 SWAP2 SUB SWAP1 RETURN JUMPDEST CALLVALUE DUP1 ISZERO PUSH2 0x256 JUMPI PUSH1 0x0 DUP1 REVERT JUMPDEST POP PUSH2 0x26A PUSH2 0x265 CALLDATASIZE PUSH1 0x4 PUSH2 0x3557 JUMP JUMPDEST PUSH2 0x9B8 JUMP JUMPDEST PUSH1 0x40 MLOAD SWAP1 ISZERO ISZERO DUP2 MSTORE PUSH1 0x20 ADD PUSH2 0x241 JUMP JUMPDEST CALLVALUE DUP1 ISZERO PUSH2 0x286 JUMPI PUSH1 0x0 DUP1 REVERT JUMPDEST POP PUSH2 0x29A PUSH2 0x295 CALLDATASIZE PUSH1 0x4 PUSH2 0x3590 JUMP JUMPDEST PUSH2 0x9E3 JUMP JUMPDEST STOP JUMPDEST CALLVALUE DUP1 ISZERO PUSH2 0x2A8 JUMPI PUSH1 0x0 DUP1 REVERT JUMPDEST POP PUSH2 0x2B1 PUSH2 0xA66 JUMP JUMPDEST PUSH1 0x40 MLOAD PUSH2 0x241 SWAP2 SWAP1 PUSH2 0x35AB JUMP JUMPDEST CALLVALUE DUP1 ISZERO PUSH2 0x2CA JUMPI PUSH1 0x0 DUP1 REVERT JUMPDEST POP PUSH2 0x2DE PUSH2 0x2D9 CALLDATASIZE PUSH1 0x4 PUSH2 0x3320 JUMP JUMPDEST PUSH2 0xAF8 JUMP JUMPDEST PUSH1 0x40 MLOAD PUSH1 0x1 PUSH1 0x1 PUSH1 0xA0 SHL SUB SWAP1 SWAP2 AND DUP2 MSTORE PUSH1 0x20 ADD PUSH2 0x241 JUMP JUMPDEST PUSH2 0x29A PUSH2 0x304 CALLDATASIZE PUSH1 0x4 PUSH2 0x35BE JUMP JUMPDEST PUSH2 0xB1F JUMP JUMPDEST CALLVALUE DUP1 ISZERO PUSH2 0x315 JUMPI PUSH1 0x0 DUP1 REVERT JUMPDEST POP PUSH2 0x29A PUSH2 0x324 CALLDATASIZE PUSH1 0x4 PUSH2 0x35FD JUMP JUMPDEST PUSH2 0x1363 JUMP JUMPDEST CALLVALUE DUP1 ISZERO PUSH2 0x335 JUMPI PUSH1 0x0 DUP1 REVERT JUMPDEST POP PUSH2 0x29A PUSH2 0x344 CALLDATASIZE PUSH1 0x4 PUSH2 0x3320 JUMP JUMPDEST PUSH2 0x1478 JUMP JUMPDEST CALLVALUE DUP1 ISZERO PUSH2 0x355 JUMPI PUSH1 0x0 DUP1 REVERT JUMPDEST POP PUSH1 0x8 SLOAD JUMPDEST PUSH1 0x40 MLOAD SWAP1 DUP2 MSTORE PUSH1 0x20 ADD PUSH2 0x241 JUMP JUMPDEST CALLVALUE DUP1 ISZERO PUSH2 0x374 JUMPI PUSH1 0x0 DUP1 REVERT JUMPDEST POP PUSH2 0x29A PUSH2 0x383 CALLDATASIZE PUSH1 0x4 PUSH2 0x3627 JUMP JUMPDEST PUSH2 0x14EB JUMP JUMPDEST CALLVALUE DUP1 ISZERO PUSH2 0x394 JUMPI PUSH1 0x0 DUP1 REVERT JUMPDEST POP PUSH2 0x29A PUSH2 0x3A3 CALLDATASIZE PUSH1 0x4 PUSH2 0x3320 JUMP JUMPDEST PUSH2 0x151C JUMP JUMPDEST CALLVALUE DUP1 ISZERO PUSH2 0x3B4 JUMPI PUSH1 0x0 DUP1 REVERT JUMPDEST POP PUSH2 0x35A PUSH2 0x3C3 CALLDATASIZE PUSH1 0x4 PUSH2 0x35FD JUMP JUMPDEST PUSH2 0x18AA JUMP JUMPDEST CALLVALUE DUP1 ISZERO PUSH2 0x3D4 JUMPI PUSH1 0x0 DUP1 REVERT JUMPDEST POP PUSH2 0x29A PUSH2 0x1940 JUMP JUMPDEST CALLVALUE DUP1 ISZERO PUSH2 0x3E9 JUMPI PUSH1 0x0 DUP1 REVERT JUMPDEST POP PUSH2 0x29A PUSH2 0x3F8 CALLDATASIZE PUSH1 0x4 PUSH2 0x3627 JUMP JUMPDEST PUSH2 0x19EE JUMP JUMPDEST CALLVALUE DUP1 ISZERO PUSH2 0x409 JUMPI PUSH1 0x0 DUP1 REVERT JUMPDEST POP PUSH2 0x35A PUSH2 0x418 CALLDATASIZE PUSH1 0x4 PUSH2 0x3320 JUMP JUMPDEST PUSH2 0x1A09 JUMP JUMPDEST CALLVALUE DUP1 ISZERO PUSH2 0x429 JUMPI PUSH1 0x0 DUP1 REVERT JUMPDEST POP PUSH2 0x35A PUSH1 0x10 SLOAD DUP2 JUMP JUMPDEST CALLVALUE DUP1 ISZERO PUSH2 0x43F JUMPI PUSH1 0x0 DUP1 REVERT JUMPDEST POP PUSH2 0x453 PUSH2 0x44E CALLDATASIZE PUSH1 0x4 PUSH2 0x3320 JUMP JUMPDEST PUSH2 0x1A9C JUMP JUMPDEST PUSH1 0x40 DUP1 MLOAD SWAP3 DUP4 MSTORE PUSH1 0x20 DUP4 ADD SWAP2 SWAP1 SWAP2 MSTORE ADD PUSH2 0x241 JUMP JUMPDEST CALLVALUE DUP1 ISZERO PUSH2 0x474 JUMPI PUSH1 0x0 DUP1 REVERT JUMPDEST POP PUSH1 0xC SLOAD PUSH2 0x2DE SWAP1 PUSH1 0x1 PUSH1 0x1 PUSH1 0xA0 SHL SUB AND DUP2 JUMP JUMPDEST CALLVALUE DUP1 ISZERO PUSH2 0x494 JUMPI PUSH1 0x0 DUP1 REVERT JUMPDEST POP PUSH2 0x2DE PUSH2 0x4A3 CALLDATASIZE PUSH1 0x4 PUSH2 0x3320 JUMP JUMPDEST PUSH2 0x1B39 JUMP JUMPDEST CALLVALUE DUP1 ISZERO PUSH2 0x4B4 JUMPI PUSH1 0x0 DUP1 REVERT JUMPDEST POP PUSH1 0xD SLOAD PUSH2 0x2DE SWAP1 PUSH1 0x1 PUSH1 0x1 PUSH1 0xA0 SHL SUB AND DUP2 JUMP JUMPDEST CALLVALUE DUP1 ISZERO PUSH2 0x4D4 JUMPI PUSH1 0x0 DUP1 REVERT JUMPDEST POP PUSH2 0x35A PUSH1 0xF SLOAD DUP2 JUMP JUMPDEST CALLVALUE DUP1 ISZERO PUSH2 0x4EA JUMPI PUSH1 0x0 DUP1 REVERT JUMPDEST POP PUSH2 0x29A PUSH2 0x4F9 CALLDATASIZE PUSH1 0x4 PUSH2 0x375D JUMP JUMPDEST PUSH2 0x1B99 JUMP JUMPDEST CALLVALUE DUP1 ISZERO PUSH2 0x50A JUMPI PUSH1 0x0 DUP1 REVERT JUMPDEST POP PUSH2 0x35A PUSH2 0x519 CALLDATASIZE PUSH1 0x4 PUSH2 0x3590 JUMP JUMPDEST PUSH2 0x1DE4 JUMP JUMPDEST CALLVALUE DUP1 ISZERO PUSH2 0x52A JUMPI PUSH1 0x0 DUP1 REVERT JUMPDEST POP PUSH2 0x29A PUSH2 0x1E6A JUMP JUMPDEST CALLVALUE DUP1 ISZERO PUSH2 0x53F JUMPI PUSH1 0x0 DUP1 REVERT JUMPDEST POP PUSH2 0x35A PUSH1 0xE SLOAD DUP2 JUMP JUMPDEST CALLVALUE DUP1 ISZERO PUSH2 0x555 JUMPI PUSH1 0x0 DUP1 REVERT JUMPDEST POP PUSH1 0xA SLOAD PUSH1 0x1 PUSH1 0x1 PUSH1 0xA0 SHL SUB AND PUSH2 0x2DE JUMP JUMPDEST CALLVALUE DUP1 ISZERO PUSH2 0x573 JUMPI PUSH1 0x0 DUP1 REVERT JUMPDEST POP PUSH2 0x29A PUSH2 0x582 CALLDATASIZE PUSH1 0x4 PUSH2 0x3320 JUMP JUMPDEST PUSH2 0x1E7E JUMP JUMPDEST CALLVALUE DUP1 ISZERO PUSH2 0x593 JUMPI PUSH1 0x0 DUP1 REVERT JUMPDEST POP PUSH2 0x2B1 PUSH2 0x1EFB JUMP JUMPDEST CALLVALUE DUP1 ISZERO PUSH2 0x5A8 JUMPI PUSH1 0x0 DUP1 REVERT JUMPDEST POP PUSH2 0x29A PUSH2 0x5B7 CALLDATASIZE PUSH1 0x4 PUSH2 0x37CF JUMP JUMPDEST PUSH2 0x1F0A JUMP JUMPDEST CALLVALUE DUP1 ISZERO PUSH2 0x5C8 JUMPI PUSH1 0x0 DUP1 REVERT JUMPDEST POP PUSH2 0x29A PUSH2 0x5D7 CALLDATASIZE PUSH1 0x4 PUSH2 0x3590 JUMP JUMPDEST PUSH2 0x1F19 JUMP JUMPDEST CALLVALUE DUP1 ISZERO PUSH2 0x5E8 JUMPI PUSH1 0x0 DUP1 REVERT JUMPDEST POP PUSH2 0x29A PUSH2 0x5F7 CALLDATASIZE PUSH1 0x4 PUSH2 0x3806 JUMP JUMPDEST PUSH2 0x1F9C JUMP JUMPDEST CALLVALUE DUP1 ISZERO PUSH2 0x608 JUMPI PUSH1 0x0 DUP1 REVERT JUMPDEST POP PUSH2 0x2B1 PUSH2 0x617 CALLDATASIZE PUSH1 0x4 PUSH2 0x3320 JUMP JUMPDEST PUSH2 0x1FCE JUMP JUMPDEST CALLVALUE DUP1 ISZERO PUSH2 0x628 JUMPI PUSH1 0x0 DUP1 REVERT JUMPDEST POP PUSH2 0x35A PUSH1 0x11 SLOAD DUP2 JUMP JUMPDEST CALLVALUE DUP1 ISZERO PUSH2 0x63E JUMPI PUSH1 0x0 DUP1 REVERT JUMPDEST POP PUSH2 0x26A PUSH2 0x64D CALLDATASIZE PUSH1 0x4 PUSH2 0x3882 JUMP JUMPDEST PUSH1 0x1 PUSH1 0x1 PUSH1 0xA0 SHL SUB SWAP2 DUP3 AND PUSH1 0x0 SWAP1 DUP2 MSTORE PUSH1 0x5 PUSH1 0x20 SWAP1 DUP2 MSTORE PUSH1 0x40 DUP1 DUP4 KECCAK256 SWAP4 SWAP1 SWAP5 AND DUP3 MSTORE SWAP2 SWAP1 SWAP2 MSTORE KECCAK256 SLOAD PUSH1 0xFF AND SWAP1 JUMP JUMPDEST CALLVALUE DUP1 ISZERO PUSH2 0x687 JUMPI PUSH1 0x0 DUP1 REVERT JUMPDEST POP PUSH2 0x29A PUSH2 0x696 CALLDATASIZE PUSH1 0x4 PUSH2 0x3590 JUMP JUMPDEST PUSH2 0x2042 JUMP JUMPDEST CALLVALUE DUP1 ISZERO PUSH2 0x6A7 JUMPI PUSH1 0x0 DUP1 REVERT JUMPDEST POP PUSH2 0x29A PUSH2 0x6B6 CALLDATASIZE PUSH1 0x4 PUSH2 0x3320 JUMP JUMPDEST PUSH2 0x20B8 JUMP JUMPDEST PUSH2 0x6C3 PUSH2 0x3248 JUMP JUMPDEST PUSH2 0x6CC DUP3 PUSH2 0x20C5 JUMP JUMPDEST PUSH2 0x6F1 JUMPI PUSH1 0x40 MLOAD PUSH3 0x461BCD PUSH1 0xE5 SHL DUP2 MSTORE PUSH1 0x4 ADD PUSH2 0x6E8 SWAP1 PUSH2 0x38B5 JUMP JUMPDEST PUSH1 0x40 MLOAD DUP1 SWAP2 SUB SWAP1 REVERT JUMPDEST PUSH1 0x12 PUSH1 0x0 DUP4 DUP2 MSTORE PUSH1 0x20 ADD SWAP1 DUP2 MSTORE PUSH1 0x20 ADD PUSH1 0x0 KECCAK256 PUSH1 0x40 MLOAD DUP1 PUSH2 0x140 ADD PUSH1 0x40 MSTORE SWAP1 DUP2 PUSH1 0x0 DUP3 ADD SLOAD DUP2 MSTORE PUSH1 0x20 ADD PUSH1 0x1 DUP3 ADD SLOAD DUP2 MSTORE PUSH1 0x20 ADD PUSH1 0x2 DUP3 ADD SLOAD DUP2 MSTORE PUSH1 0x20 ADD PUSH1 0x3 DUP3 ADD SLOAD DUP2 MSTORE PUSH1 0x20 ADD PUSH1 0x4 DUP3 ADD SLOAD DUP2 MSTORE PUSH1 0x20 ADD PUSH1 0x5 DUP3 ADD SLOAD DUP2 MSTORE PUSH1 0x20 ADD PUSH1 0x6 DUP3 ADD DUP1 SLOAD DUP1 PUSH1 0x20 MUL PUSH1 0x20 ADD PUSH1 0x40 MLOAD SWAP1 DUP2 ADD PUSH1 0x40 MSTORE DUP1 SWAP3 SWAP2 SWAP1 DUP2 DUP2 MSTORE PUSH1 0x20 ADD PUSH1 0x0 SWAP1 JUMPDEST DUP3 DUP3 LT ISZERO PUSH2 0x854 JUMPI DUP4 DUP3 SWAP1 PUSH1 0x0 MSTORE PUSH1 0x20 PUSH1 0x0 KECCAK256 SWAP1 PUSH1 0x3 MUL ADD PUSH1 0x40 MLOAD DUP1 PUSH1 0x60 ADD PUSH1 0x40 MSTORE SWAP1 DUP2 PUSH1 0x0 DUP3 ADD DUP1 SLOAD PUSH2 0x7A4 SWAP1 PUSH2 0x38E3 JUMP JUMPDEST DUP1 PUSH1 0x1F ADD PUSH1 0x20 DUP1 SWAP2 DIV MUL PUSH1 0x20 ADD PUSH1 0x40 MLOAD SWAP1 DUP2 ADD PUSH1 0x40 MSTORE DUP1 SWAP3 SWAP2 SWAP1 DUP2 DUP2 MSTORE PUSH1 0x20 ADD DUP3 DUP1 SLOAD PUSH2 0x7D0 SWAP1 PUSH2 0x38E3 JUMP JUMPDEST DUP1 ISZERO PUSH2 0x81D JUMPI DUP1 PUSH1 0x1F LT PUSH2 0x7F2 JUMPI PUSH2 0x100 DUP1 DUP4 SLOAD DIV MUL DUP4 MSTORE SWAP2 PUSH1 0x20 ADD SWAP2 PUSH2 0x81D JUMP JUMPDEST DUP3 ADD SWAP2 SWAP1 PUSH1 0x0 MSTORE PUSH1 0x20 PUSH1 0x0 KECCAK256 SWAP1 JUMPDEST DUP2 SLOAD DUP2 MSTORE SWAP1 PUSH1 0x1 ADD SWAP1 PUSH1 0x20 ADD DUP1 DUP4 GT PUSH2 0x800 JUMPI DUP3 SWAP1 SUB PUSH1 0x1F AND DUP3 ADD SWAP2 JUMPDEST POP POP POP SWAP2 DUP4 MSTORE POP POP PUSH1 0x1 DUP3 DUP2 ADD SLOAD PUSH1 0x20 DUP1 DUP5 ADD SWAP2 SWAP1 SWAP2 MSTORE PUSH1 0x2 SWAP1 SWAP4 ADD SLOAD PUSH1 0xFF AND ISZERO ISZERO PUSH1 0x40 SWAP1 SWAP3 ADD SWAP2 SWAP1 SWAP2 MSTORE SWAP2 DUP4 MSTORE SWAP3 ADD SWAP2 ADD PUSH2 0x771 JUMP JUMPDEST POP POP POP POP DUP2 MSTORE PUSH1 0x20 ADD PUSH1 0x7 DUP3 ADD DUP1 SLOAD DUP1 PUSH1 0x20 MUL PUSH1 0x20 ADD PUSH1 0x40 MLOAD SWAP1 DUP2 ADD PUSH1 0x40 MSTORE DUP1 SWAP3 SWAP2 SWAP1 DUP2 DUP2 MSTORE PUSH1 0x20 ADD PUSH1 0x0 SWAP1 JUMPDEST DUP3 DUP3 LT ISZERO PUSH2 0x959 JUMPI DUP4 DUP3 SWAP1 PUSH1 0x0 MSTORE PUSH1 0x20 PUSH1 0x0 KECCAK256 SWAP1 PUSH1 0x3 MUL ADD PUSH1 0x40 MLOAD DUP1 PUSH1 0x60 ADD PUSH1 0x40 MSTORE SWAP1 DUP2 PUSH1 0x0 DUP3 ADD DUP1 SLOAD PUSH2 0x8B4 SWAP1 PUSH2 0x38E3 JUMP JUMPDEST DUP1 PUSH1 0x1F ADD PUSH1 0x20 DUP1 SWAP2 DIV MUL PUSH1 0x20 ADD PUSH1 0x40 MLOAD SWAP1 DUP2 ADD PUSH1 0x40 MSTORE DUP1 SWAP3 SWAP2 SWAP1 DUP2 DUP2 MSTORE PUSH1 0x20 ADD DUP3 DUP1 SLOAD PUSH2 0x8E0 SWAP1 PUSH2 0x38E3 JUMP JUMPDEST DUP1 ISZERO PUSH2 0x92D JUMPI DUP1 PUSH1 0x1F LT PUSH2 0x902 JUMPI PUSH2 0x100 DUP1 DUP4 SLOAD DIV MUL DUP4 MSTORE SWAP2 PUSH1 0x20 ADD SWAP2 PUSH2 0x92D JUMP JUMPDEST DUP3 ADD SWAP2 SWAP1 PUSH1 0x0 MSTORE PUSH1 0x20 PUSH1 0x0 KECCAK256 SWAP1 JUMPDEST DUP2 SLOAD DUP2 MSTORE SWAP1 PUSH1 0x1 ADD SWAP1 PUSH1 0x20 ADD DUP1 DUP4 GT PUSH2 0x910 JUMPI DUP3 SWAP1 SUB PUSH1 0x1F AND DUP3 ADD SWAP2 JUMPDEST POP POP POP POP POP DUP2 MSTORE PUSH1 0x20 ADD PUSH1 0x1 DUP3 ADD SLOAD DUP2 MSTORE PUSH1 0x20 ADD PUSH1 0x2 DUP3 ADD SLOAD DUP2 MSTORE POP POP DUP2 MSTORE PUSH1 0x20 ADD SWAP1 PUSH1 0x1 ADD SWAP1 PUSH2 0x881 JUMP JUMPDEST POP POP POP SWAP1 DUP3 MSTORE POP PUSH1 0x40 DUP1 MLOAD PUSH1 0xC0 DUP2 ADD DUP3 MSTORE PUSH1 0x8 DUP5 ADD SLOAD DUP2 MSTORE PUSH1 0x9 DUP5 ADD SLOAD PUSH1 0x20 DUP3 DUP2 ADD SWAP2 SWAP1 SWAP2 MSTORE PUSH1 0xA DUP6 ADD SLOAD DUP3 DUP5 ADD MSTORE PUSH1 0xB DUP6 ADD SLOAD PUSH1 0x60 DUP4 ADD MSTORE PUSH1 0xC DUP6 ADD SLOAD PUSH1 0x80 DUP4 ADD MSTORE PUSH1 0xD DUP6 ADD SLOAD PUSH1 0xA0 DUP4 ADD MSTORE DUP4 ADD MSTORE PUSH1 0xE SWAP1 SWAP3 ADD SLOAD SWAP2 ADD MSTORE SWAP3 SWAP2 POP POP JUMP JUMPDEST PUSH1 0x0 PUSH1 0x1 PUSH1 0x1 PUSH1 0xE0 SHL SUB NOT DUP3 AND PUSH4 0x780E9D63 PUSH1 0xE0 SHL EQ DUP1 PUSH2 0x9DD JUMPI POP PUSH2 0x9DD DUP3 PUSH2 0x20E2 JUMP JUMPDEST SWAP3 SWAP2 POP POP JUMP JUMPDEST PUSH2 0x9EB PUSH2 0x2132 JUMP JUMPDEST PUSH1 0xD SLOAD PUSH1 0x1 PUSH1 0x1 PUSH1 0xA0 SHL SUB AND ISZERO PUSH2 0xA44 JUMPI PUSH1 0x40 MLOAD PUSH3 0x461BCD PUSH1 0xE5 SHL DUP2 MSTORE PUSH1 0x20 PUSH1 0x4 DUP3 ADD MSTORE PUSH1 0x17 PUSH1 0x24 DUP3 ADD MSTORE PUSH32 0x4D6170436F6E747261637420616C726561647920736574000000000000000000 PUSH1 0x44 DUP3 ADD MSTORE PUSH1 0x64 ADD PUSH2 0x6E8 JUMP JUMPDEST PUSH1 0xD DUP1 SLOAD PUSH1 0x1 PUSH1 0x1 PUSH1 0xA0 SHL SUB NOT AND PUSH1 0x1 PUSH1 0x1 PUSH1 0xA0 SHL SUB SWAP3 SWAP1 SWAP3 AND SWAP2 SWAP1 SWAP2 OR SWAP1 SSTORE JUMP JUMPDEST PUSH1 0x60 PUSH1 0x0 DUP1 SLOAD PUSH2 0xA75 SWAP1 PUSH2 0x38E3 JUMP JUMPDEST DUP1 PUSH1 0x1F ADD PUSH1 0x20 DUP1 SWAP2 DIV MUL PUSH1 0x20 ADD PUSH1 0x40 MLOAD SWAP1 DUP2 ADD PUSH1 0x40 MSTORE DUP1 SWAP3 SWAP2 SWAP1 DUP2 DUP2 MSTORE PUSH1 0x20 ADD DUP3 DUP1 SLOAD PUSH2 0xAA1 SWAP1 PUSH2 0x38E3 JUMP JUMPDEST DUP1 ISZERO PUSH2 0xAEE JUMPI DUP1 PUSH1 0x1F LT PUSH2 0xAC3 JUMPI PUSH2 0x100 DUP1 DUP4 SLOAD DIV MUL DUP4 MSTORE SWAP2 PUSH1 0x20 ADD SWAP2 PUSH2 0xAEE JUMP JUMPDEST DUP3 ADD SWAP2 SWAP1 PUSH1 0x0 MSTORE PUSH1 0x20 PUSH1 0x0 KECCAK256 SWAP1 JUMPDEST DUP2 SLOAD DUP2 MSTORE SWAP1 PUSH1 0x1 ADD SWAP1 PUSH1 0x20 ADD DUP1 DUP4 GT PUSH2 0xAD1 JUMPI DUP3 SWAP1 SUB PUSH1 0x1F AND DUP3 ADD SWAP2 JUMPDEST POP POP POP POP POP SWAP1 POP SWAP1 JUMP JUMPDEST PUSH1 0x0 PUSH2 0xB03 DUP3 PUSH2 0x218C JUMP JUMPDEST POP PUSH1 0x0 SWAP1 DUP2 MSTORE PUSH1 0x4 PUSH1 0x20 MSTORE PUSH1 0x40 SWAP1 KECCAK256 SLOAD PUSH1 0x1 PUSH1 0x1 PUSH1 0xA0 SHL SUB AND SWAP1 JUMP JUMPDEST PUSH2 0xB27 PUSH2 0x21DC JUMP JUMPDEST PUSH1 0xF SLOAD CALLVALUE LT ISZERO PUSH2 0xB70 JUMPI PUSH1 0x40 MLOAD PUSH3 0x461BCD PUSH1 0xE5 SHL DUP2 MSTORE PUSH1 0x20 PUSH1 0x4 DUP3 ADD MSTORE PUSH1 0x14 PUSH1 0x24 DUP3 ADD MSTORE PUSH20 0x125B9CDD59999A58DA595B9D081C185E5B595B9D PUSH1 0x62 SHL PUSH1 0x44 DUP3 ADD MSTORE PUSH1 0x64 ADD PUSH2 0x6E8 JUMP JUMPDEST PUSH1 0xD SLOAD PUSH1 0x1 PUSH1 0x1 PUSH1 0xA0 SHL SUB AND PUSH2 0xBBE JUMPI PUSH1 0x40 MLOAD PUSH3 0x461BCD PUSH1 0xE5 SHL DUP2 MSTORE PUSH1 0x20 PUSH1 0x4 DUP3 ADD MSTORE PUSH1 0x13 PUSH1 0x24 DUP3 ADD MSTORE PUSH19 0x13585C10DBDB9D1C9858DD081B9BDD081CD95D PUSH1 0x6A SHL PUSH1 0x44 DUP3 ADD MSTORE PUSH1 0x64 ADD PUSH2 0x6E8 JUMP JUMPDEST PUSH1 0x11 SLOAD PUSH1 0xE SLOAD GT ISZERO PUSH2 0xC0B JUMPI PUSH1 0x40 MLOAD PUSH3 0x461BCD PUSH1 0xE5 SHL DUP2 MSTORE PUSH1 0x20 PUSH1 0x4 DUP3 ADD MSTORE PUSH1 0x16 PUSH1 0x24 DUP3 ADD MSTORE PUSH22 0x13585E1A5B5D5B481CDD5C1C1B1E481C995858DA1959 PUSH1 0x52 SHL PUSH1 0x44 DUP3 ADD MSTORE PUSH1 0x64 ADD PUSH2 0x6E8 JUMP JUMPDEST PUSH1 0xE DUP1 SLOAD SWAP1 DUP2 SWAP1 PUSH1 0x0 PUSH2 0xC1D DUP4 PUSH2 0x3933 JUMP JUMPDEST SWAP2 SWAP1 POP SSTORE POP PUSH2 0xC2C CALLER DUP3 PUSH2 0x2235 JUMP JUMPDEST PUSH1 0x0 DUP2 DUP2 MSTORE PUSH1 0x12 PUSH1 0x20 SWAP1 DUP2 MSTORE PUSH1 0x40 DUP1 DUP4 KECCAK256 PUSH1 0x64 DUP1 DUP3 SSTORE PUSH1 0x32 PUSH1 0x1 DUP1 DUP5 ADD DUP3 SWAP1 SSTORE PUSH1 0x2 DUP5 ADD DUP3 SWAP1 SSTORE PUSH1 0x3 DUP5 ADD DUP8 SWAP1 SSTORE PUSH1 0x4 DUP5 ADD DUP8 SWAP1 SSTORE PUSH1 0xA PUSH1 0x5 DUP6 ADD DUP2 SWAP1 SSTORE DUP6 MLOAD PUSH1 0xC0 DUP2 ADD DUP8 MSTORE PUSH2 0x1F4 DUP1 DUP3 MSTORE PUSH2 0x12C SWAP9 DUP3 ADD DUP10 SWAP1 MSTORE PUSH1 0xC8 SWAP8 DUP3 ADD DUP9 SWAP1 MSTORE PUSH1 0x60 DUP3 ADD DUP11 SWAP1 MSTORE PUSH1 0x80 DUP3 ADD DUP7 SWAP1 MSTORE PUSH1 0xA0 SWAP1 SWAP2 ADD DUP5 SWAP1 MSTORE PUSH1 0x8 DUP7 ADD SSTORE PUSH1 0x9 DUP6 ADD SWAP7 SWAP1 SWAP7 SSTORE SWAP5 DUP4 ADD SWAP4 SWAP1 SWAP4 SSTORE PUSH1 0xB DUP3 ADD SWAP5 SWAP1 SWAP5 SSTORE PUSH1 0xC DUP2 ADD SWAP4 SWAP1 SWAP4 SSTORE PUSH1 0xD DUP4 ADD SSTORE TIMESTAMP PUSH1 0xE DUP4 ADD SSTORE DUP7 PUSH1 0x1 DUP2 GT ISZERO PUSH2 0xCE0 JUMPI PUSH2 0xCE0 PUSH2 0x394C JUMP JUMPDEST SUB PUSH2 0xF84 JUMPI CALLER PUSH2 0xCEF DUP7 PUSH2 0x1B39 JUMP JUMPDEST PUSH1 0x1 PUSH1 0x1 PUSH1 0xA0 SHL SUB AND EQ PUSH2 0xD50 JUMPI PUSH1 0x40 MLOAD PUSH3 0x461BCD PUSH1 0xE5 SHL DUP2 MSTORE PUSH1 0x20 PUSH1 0x4 DUP3 ADD MSTORE PUSH1 0x22 PUSH1 0x24 DUP3 ADD MSTORE PUSH32 0x4E6F7420746865206F776E6572206F6620746865206578697374696E67206C61 PUSH1 0x44 DUP3 ADD MSTORE PUSH2 0x1B99 PUSH1 0xF2 SHL PUSH1 0x64 DUP3 ADD MSTORE PUSH1 0x84 ADD PUSH2 0x6E8 JUMP JUMPDEST PUSH1 0xD SLOAD PUSH1 0x40 MLOAD PUSH4 0x3C7C604F PUSH1 0xE0 SHL DUP2 MSTORE PUSH1 0x4 DUP2 ADD DUP8 SWAP1 MSTORE PUSH1 0x0 SWAP2 DUP3 SWAP2 PUSH1 0x1 PUSH1 0x1 PUSH1 0xA0 SHL SUB SWAP1 SWAP2 AND SWAP1 PUSH4 0x3C7C604F SWAP1 PUSH1 0x24 ADD PUSH1 0x40 DUP1 MLOAD DUP1 DUP4 SUB DUP2 DUP7 GAS STATICCALL ISZERO DUP1 ISZERO PUSH2 0xD9D JUMPI RETURNDATASIZE PUSH1 0x0 DUP1 RETURNDATACOPY RETURNDATASIZE PUSH1 0x0 REVERT JUMPDEST POP POP POP POP PUSH1 0x40 MLOAD RETURNDATASIZE PUSH1 0x1F NOT PUSH1 0x1F DUP3 ADD AND DUP3 ADD DUP1 PUSH1 0x40 MSTORE POP DUP2 ADD SWAP1 PUSH2 0xDC1 SWAP2 SWAP1 PUSH2 0x3962 JUMP JUMPDEST PUSH1 0xD SLOAD PUSH1 0x40 MLOAD PUSH4 0x72013ED3 PUSH1 0xE1 SHL DUP2 MSTORE PUSH1 0x4 DUP2 ADD DUP5 SWAP1 MSTORE PUSH1 0x24 DUP2 ADD DUP4 SWAP1 MSTORE SWAP3 SWAP5 POP SWAP1 SWAP3 POP PUSH1 0x0 SWAP2 PUSH1 0x1 PUSH1 0x1 PUSH1 0xA0 SHL SUB SWAP1 SWAP2 AND SWAP1 PUSH4 0xE4027DA6 SWAP1 PUSH1 0x44 ADD PUSH1 0x0 PUSH1 0x40 MLOAD DUP1 DUP4 SUB DUP2 DUP7 GAS STATICCALL ISZERO DUP1 ISZERO PUSH2 0xE1A JUMPI RETURNDATASIZE PUSH1 0x0 DUP1 RETURNDATACOPY RETURNDATASIZE PUSH1 0x0 REVERT JUMPDEST POP POP POP POP PUSH1 0x40 MLOAD RETURNDATASIZE PUSH1 0x0 DUP3 RETURNDATACOPY PUSH1 0x1F RETURNDATASIZE SWAP1 DUP2 ADD PUSH1 0x1F NOT AND DUP3 ADD PUSH1 0x40 MSTORE PUSH2 0xE42 SWAP2 SWAP1 DUP2 ADD SWAP1 PUSH2 0x3986 JUMP JUMPDEST SWAP1 POP PUSH1 0x0 DUP2 MLOAD GT PUSH2 0xE9F JUMPI PUSH1 0x40 MLOAD PUSH3 0x461BCD PUSH1 0xE5 SHL DUP2 MSTORE PUSH1 0x20 PUSH1 0x4 DUP3 ADD MSTORE PUSH1 0x21 PUSH1 0x24 DUP3 ADD MSTORE PUSH32 0x4E6F2061646A6163656E7420636F6F7264696E6174657320617661696C61626C PUSH1 0x44 DUP3 ADD MSTORE PUSH1 0x65 PUSH1 0xF8 SHL PUSH1 0x64 DUP3 ADD MSTORE PUSH1 0x84 ADD PUSH2 0x6E8 JUMP JUMPDEST PUSH1 0x0 DUP2 PUSH1 0x0 DUP2 MLOAD DUP2 LT PUSH2 0xEB4 JUMPI PUSH2 0xEB4 PUSH2 0x3A53 JUMP JUMPDEST PUSH1 0x20 SWAP1 DUP2 MUL SWAP2 SWAP1 SWAP2 ADD DUP2 ADD MLOAD PUSH1 0xD SLOAD DUP2 MLOAD SWAP3 DUP3 ADD MLOAD PUSH1 0x40 MLOAD PUSH4 0x478935D3 PUSH1 0xE0 SHL DUP2 MSTORE PUSH1 0x4 DUP2 ADD DUP12 SWAP1 MSTORE PUSH1 0x24 DUP2 ADD SWAP5 SWAP1 SWAP5 MSTORE PUSH1 0x44 DUP5 ADD MSTORE SWAP1 SWAP3 POP PUSH1 0x1 PUSH1 0x1 PUSH1 0xA0 SHL SUB AND SWAP1 PUSH4 0x478935D3 SWAP1 PUSH1 0x64 ADD PUSH1 0x0 PUSH1 0x40 MLOAD DUP1 DUP4 SUB DUP2 PUSH1 0x0 DUP8 DUP1 EXTCODESIZE ISZERO DUP1 ISZERO PUSH2 0xF1A JUMPI PUSH1 0x0 DUP1 REVERT JUMPDEST POP GAS CALL ISZERO DUP1 ISZERO PUSH2 0xF2E JUMPI RETURNDATASIZE PUSH1 0x0 DUP1 RETURNDATACOPY RETURNDATASIZE PUSH1 0x0 REVERT JUMPDEST POP POP DUP3 MLOAD PUSH1 0x20 DUP1 DUP6 ADD MLOAD PUSH1 0x40 DUP1 MLOAD DUP13 DUP2 MSTORE SWAP3 DUP4 ADD SWAP4 SWAP1 SWAP4 MSTORE DUP2 DUP4 ADD MSTORE SWAP1 MLOAD CALLER SWAP4 POP PUSH32 0x8436F10F9012A01D1C3BB5D6DD9014DA60DD826366249F20010F63BC881BEA82 SWAP3 POP SWAP1 DUP2 SWAP1 SUB PUSH1 0x60 ADD SWAP1 LOG2 POP POP POP POP PUSH2 0x11D0 JUMP JUMPDEST PUSH1 0x0 DUP7 PUSH1 0x1 DUP2 GT ISZERO PUSH2 0xF98 JUMPI PUSH2 0xF98 PUSH2 0x394C JUMP JUMPDEST SUB PUSH2 0x105F JUMPI PUSH1 0xD SLOAD PUSH1 0x40 MLOAD PUSH4 0x1039F59D PUSH1 0xE0 SHL DUP2 MSTORE PUSH1 0x4 DUP2 ADD DUP5 SWAP1 MSTORE PUSH1 0x0 SWAP2 DUP3 SWAP2 PUSH1 0x1 PUSH1 0x1 PUSH1 0xA0 SHL SUB SWAP1 SWAP2 AND SWAP1 PUSH4 0x1039F59D SWAP1 PUSH1 0x24 ADD PUSH1 0x40 DUP1 MLOAD DUP1 DUP4 SUB DUP2 PUSH1 0x0 DUP8 GAS CALL ISZERO DUP1 ISZERO PUSH2 0xFEC JUMPI RETURNDATASIZE PUSH1 0x0 DUP1 RETURNDATACOPY RETURNDATASIZE PUSH1 0x0 REVERT JUMPDEST POP POP POP POP PUSH1 0x40 MLOAD RETURNDATASIZE PUSH1 0x1F NOT PUSH1 0x1F DUP3 ADD AND DUP3 ADD DUP1 PUSH1 0x40 MSTORE POP DUP2 ADD SWAP1 PUSH2 0x1010 SWAP2 SWAP1 PUSH2 0x3962 JUMP JUMPDEST PUSH1 0x40 DUP1 MLOAD DUP8 DUP2 MSTORE PUSH1 0x20 DUP2 ADD DUP5 SWAP1 MSTORE SWAP1 DUP2 ADD DUP3 SWAP1 MSTORE SWAP2 SWAP4 POP SWAP2 POP CALLER SWAP1 PUSH32 0x8436F10F9012A01D1C3BB5D6DD9014DA60DD826366249F20010F63BC881BEA82 SWAP1 PUSH1 0x60 ADD PUSH1 0x40 MLOAD DUP1 SWAP2 SUB SWAP1 LOG2 POP POP PUSH2 0x11D0 JUMP JUMPDEST PUSH1 0xD SLOAD PUSH1 0x40 MLOAD PUSH4 0x7FACFC1 PUSH1 0xE4 SHL DUP2 MSTORE PUSH1 0x4 DUP2 ADD DUP7 SWAP1 MSTORE PUSH1 0x24 DUP2 ADD DUP6 SWAP1 MSTORE PUSH1 0x1 PUSH1 0x1 PUSH1 0xA0 SHL SUB SWAP1 SWAP2 AND SWAP1 PUSH4 0x7FACFC10 SWAP1 PUSH1 0x44 ADD PUSH1 0x20 PUSH1 0x40 MLOAD DUP1 DUP4 SUB DUP2 DUP7 GAS STATICCALL ISZERO DUP1 ISZERO PUSH2 0x10AF JUMPI RETURNDATASIZE PUSH1 0x0 DUP1 RETURNDATACOPY RETURNDATASIZE PUSH1 0x0 REVERT JUMPDEST POP POP POP POP PUSH1 0x40 MLOAD RETURNDATASIZE PUSH1 0x1F NOT PUSH1 0x1F DUP3 ADD AND DUP3 ADD DUP1 PUSH1 0x40 MSTORE POP DUP2 ADD SWAP1 PUSH2 0x10D3 SWAP2 SWAP1 PUSH2 0x3A74 JUMP JUMPDEST ISZERO PUSH2 0x1120 JUMPI PUSH1 0x40 MLOAD PUSH3 0x461BCD PUSH1 0xE5 SHL DUP2 MSTORE PUSH1 0x20 PUSH1 0x4 DUP3 ADD MSTORE PUSH1 0x1C PUSH1 0x24 DUP3 ADD MSTORE PUSH32 0x436F6F7264696E6174657320616C7265616479206F6363757069656400000000 PUSH1 0x44 DUP3 ADD MSTORE PUSH1 0x64 ADD PUSH2 0x6E8 JUMP JUMPDEST PUSH1 0xD SLOAD PUSH1 0x40 MLOAD PUSH4 0x478935D3 PUSH1 0xE0 SHL DUP2 MSTORE PUSH1 0x4 DUP2 ADD DUP5 SWAP1 MSTORE PUSH1 0x24 DUP2 ADD DUP7 SWAP1 MSTORE PUSH1 0x44 DUP2 ADD DUP6 SWAP1 MSTORE PUSH1 0x1 PUSH1 0x1 PUSH1 0xA0 SHL SUB SWAP1 SWAP2 AND SWAP1 PUSH4 0x478935D3 SWAP1 PUSH1 0x64 ADD PUSH1 0x0 PUSH1 0x40 MLOAD DUP1 DUP4 SUB DUP2 PUSH1 0x0 DUP8 DUP1 EXTCODESIZE ISZERO DUP1 ISZERO PUSH2 0x1174 JUMPI PUSH1 0x0 DUP1 REVERT JUMPDEST POP GAS CALL ISZERO DUP1 ISZERO PUSH2 0x1188 JUMPI RETURNDATASIZE PUSH1 0x0 DUP1 RETURNDATACOPY RETURNDATASIZE PUSH1 0x0 REVERT JUMPDEST POP POP PUSH1 0x40 DUP1 MLOAD DUP6 DUP2 MSTORE PUSH1 0x20 DUP2 ADD DUP9 SWAP1 MSTORE SWAP1 DUP2 ADD DUP7 SWAP1 MSTORE CALLER SWAP3 POP PUSH32 0x8436F10F9012A01D1C3BB5D6DD9014DA60DD826366249F20010F63BC881BEA82 SWAP2 POP PUSH1 0x60 ADD PUSH1 0x40 MLOAD DUP1 SWAP2 SUB SWAP1 LOG2 JUMPDEST PUSH1 0x40 DUP1 MLOAD PUSH1 0xA0 DUP2 ADD DUP3 MSTORE PUSH1 0x4 PUSH1 0x60 DUP3 ADD SWAP1 DUP2 MSTORE PUSH4 0x4661726D PUSH1 0xE0 SHL PUSH1 0x80 DUP4 ADD MSTORE DUP2 MSTORE PUSH1 0x1 PUSH1 0x20 DUP1 DUP4 ADD DUP3 SWAP1 MSTORE SWAP3 DUP3 ADD DUP2 SWAP1 MSTORE PUSH1 0x6 DUP5 ADD DUP1 SLOAD SWAP2 DUP3 ADD DUP2 SSTORE PUSH1 0x0 SWAP1 DUP2 MSTORE SWAP3 SWAP1 SWAP3 KECCAK256 DUP2 MLOAD SWAP2 SWAP3 DUP4 SWAP3 PUSH1 0x3 SWAP1 SWAP2 MUL SWAP1 SWAP2 ADD SWAP1 DUP2 SWAP1 PUSH2 0x1231 SWAP1 DUP3 PUSH2 0x3ADF JUMP JUMPDEST POP PUSH1 0x20 DUP3 ADD MLOAD PUSH1 0x1 DUP1 DUP4 ADD SWAP2 SWAP1 SWAP2 SSTORE PUSH1 0x40 SWAP3 DUP4 ADD MLOAD PUSH1 0x2 SWAP1 SWAP3 ADD DUP1 SLOAD SWAP3 ISZERO ISZERO PUSH1 0xFF NOT SWAP1 SWAP4 AND SWAP3 SWAP1 SWAP3 OR SWAP1 SWAP2 SSTORE PUSH1 0xC SLOAD SWAP2 MLOAD PUSH4 0x244D87AD PUSH1 0xE1 SHL DUP2 MSTORE PUSH1 0x0 SWAP3 PUSH1 0x1 PUSH1 0x1 PUSH1 0xA0 SHL SUB AND SWAP2 PUSH4 0x489B0F5A SWAP2 PUSH2 0x12AD SWAP2 SWAP1 PUSH1 0x4 ADD PUSH1 0x40 DUP1 DUP3 MSTORE PUSH1 0x4 SWAP1 DUP3 ADD MSTORE PUSH4 0x4661726D PUSH1 0xE0 SHL PUSH1 0x60 DUP3 ADD MSTORE PUSH1 0x20 DUP2 ADD SWAP2 SWAP1 SWAP2 MSTORE PUSH1 0x80 ADD SWAP1 JUMP JUMPDEST PUSH1 0x0 PUSH1 0x40 MLOAD DUP1 DUP4 SUB DUP2 DUP7 GAS STATICCALL ISZERO DUP1 ISZERO PUSH2 0x12CA JUMPI RETURNDATASIZE PUSH1 0x0 DUP1 RETURNDATACOPY RETURNDATASIZE PUSH1 0x0 REVERT JUMPDEST POP POP POP POP PUSH1 0x40 MLOAD RETURNDATASIZE PUSH1 0x0 DUP3 RETURNDATACOPY PUSH1 0x1F RETURNDATASIZE SWAP1 DUP2 ADD PUSH1 0x1F NOT AND DUP3 ADD PUSH1 0x40 MSTORE PUSH2 0x12F2 SWAP2 SWAP1 DUP2 ADD SWAP1 PUSH2 0x3C5E JUMP JUMPDEST SWAP1 POP DUP1 PUSH1 0x80 ADD MLOAD DUP4 PUSH1 0x1 ADD PUSH1 0x0 DUP3 DUP3 SLOAD PUSH2 0x130C SWAP2 SWAP1 PUSH2 0x3D67 JUMP JUMPDEST SWAP1 SWAP2 SSTORE POP POP PUSH1 0xA0 DUP2 ADD MLOAD PUSH1 0x2 DUP5 ADD DUP1 SLOAD PUSH1 0x0 SWAP1 PUSH2 0x132A SWAP1 DUP5 SWAP1 PUSH2 0x3D67 JUMP JUMPDEST SWAP1 SWAP2 SSTORE POP POP PUSH2 0x100 DUP2 ADD MLOAD PUSH1 0x5 DUP5 ADD DUP1 SLOAD PUSH1 0x0 SWAP1 PUSH2 0x1349 SWAP1 DUP5 SWAP1 PUSH2 0x3D67 JUMP JUMPDEST SWAP1 SWAP2 SSTORE POP POP PUSH1 0x1 PUSH1 0xB SSTORE POP PUSH2 0x135D SWAP3 POP POP POP JUMP JUMPDEST POP POP POP POP JUMP JUMPDEST PUSH1 0x0 PUSH2 0x136E DUP3 PUSH2 0x1B39 JUMP JUMPDEST SWAP1 POP DUP1 PUSH1 0x1 PUSH1 0x1 PUSH1 0xA0 SHL SUB AND DUP4 PUSH1 0x1 PUSH1 0x1 PUSH1 0xA0 SHL SUB AND SUB PUSH2 0x13DB JUMPI PUSH1 0x40 MLOAD PUSH3 0x461BCD PUSH1 0xE5 SHL DUP2 MSTORE PUSH1 0x20 PUSH1 0x4 DUP3 ADD MSTORE PUSH1 0x21 PUSH1 0x24 DUP3 ADD MSTORE PUSH32 0x4552433732313A20617070726F76616C20746F2063757272656E74206F776E65 PUSH1 0x44 DUP3 ADD MSTORE PUSH1 0x39 PUSH1 0xF9 SHL PUSH1 0x64 DUP3 ADD MSTORE PUSH1 0x84 ADD PUSH2 0x6E8 JUMP JUMPDEST CALLER PUSH1 0x1 PUSH1 0x1 PUSH1 0xA0 SHL SUB DUP3 AND EQ DUP1 PUSH2 0x13F7 JUMPI POP PUSH2 0x13F7 DUP2 CALLER PUSH2 0x64D JUMP JUMPDEST PUSH2 0x1469 JUMPI PUSH1 0x40 MLOAD PUSH3 0x461BCD PUSH1 0xE5 SHL DUP2 MSTORE PUSH1 0x20 PUSH1 0x4 DUP3 ADD MSTORE PUSH1 0x3D PUSH1 0x24 DUP3 ADD MSTORE PUSH32 0x4552433732313A20617070726F76652063616C6C6572206973206E6F7420746F PUSH1 0x44 DUP3 ADD MSTORE PUSH32 0x6B656E206F776E6572206F7220617070726F76656420666F7220616C6C000000 PUSH1 0x64 DUP3 ADD MSTORE PUSH1 0x84 ADD PUSH2 0x6E8 JUMP JUMPDEST PUSH2 0x1473 DUP4 DUP4 PUSH2 0x224F JUMP JUMPDEST POP POP POP JUMP JUMPDEST PUSH2 0x1480 PUSH2 0x21DC JUMP JUMPDEST PUSH2 0x1489 DUP2 PUSH2 0x20C5 JUMP JUMPDEST PUSH2 0x14A5 JUMPI PUSH1 0x40 MLOAD PUSH3 0x461BCD PUSH1 0xE5 SHL DUP2 MSTORE PUSH1 0x4 ADD PUSH2 0x6E8 SWAP1 PUSH2 0x38B5 JUMP JUMPDEST CALLER PUSH2 0x14AF DUP3 PUSH2 0x1B39 JUMP JUMPDEST PUSH1 0x1 PUSH1 0x1 PUSH1 0xA0 SHL SUB AND EQ PUSH2 0x14D5 JUMPI PUSH1 0x40 MLOAD PUSH3 0x461BCD PUSH1 0xE5 SHL DUP2 MSTORE PUSH1 0x4 ADD PUSH2 0x6E8 SWAP1 PUSH2 0x3D7A JUMP JUMPDEST PUSH2 0x14DE DUP2 PUSH2 0x22BD JUMP JUMPDEST PUSH2 0x14E8 PUSH1 0x1 PUSH1 0xB SSTORE JUMP JUMPDEST POP JUMP JUMPDEST PUSH2 0x14F5 CALLER DUP3 PUSH2 0x239E JUMP JUMPDEST PUSH2 0x1511 JUMPI PUSH1 0x40 MLOAD PUSH3 0x461BCD PUSH1 0xE5 SHL DUP2 MSTORE PUSH1 0x4 ADD PUSH2 0x6E8 SWAP1 PUSH2 0x3DB1 JUMP JUMPDEST PUSH2 0x1473 DUP4 DUP4 DUP4 PUSH2 0x241D JUMP JUMPDEST PUSH2 0x1524 PUSH2 0x21DC JUMP JUMPDEST CALLER PUSH2 0x152E DUP3 PUSH2 0x1B39 JUMP JUMPDEST PUSH1 0x1 PUSH1 0x1 PUSH1 0xA0 SHL SUB AND EQ PUSH2 0x1554 JUMPI PUSH1 0x40 MLOAD PUSH3 0x461BCD PUSH1 0xE5 SHL DUP2 MSTORE PUSH1 0x4 ADD PUSH2 0x6E8 SWAP1 PUSH2 0x3D7A JUMP JUMPDEST PUSH2 0x155D DUP2 PUSH2 0x258E JUMP JUMPDEST PUSH1 0x0 DUP2 DUP2 MSTORE PUSH1 0x12 PUSH1 0x20 MSTORE PUSH1 0x40 DUP2 KECCAK256 PUSH1 0x7 ADD SWAP1 JUMPDEST DUP2 SLOAD DUP2 LT ISZERO PUSH2 0x189E JUMPI PUSH1 0x0 DUP3 DUP3 DUP2 SLOAD DUP2 LT PUSH2 0x158D JUMPI PUSH2 0x158D PUSH2 0x3A53 JUMP JUMPDEST SWAP1 PUSH1 0x0 MSTORE PUSH1 0x20 PUSH1 0x0 KECCAK256 SWAP1 PUSH1 0x3 MUL ADD PUSH1 0x40 MLOAD DUP1 PUSH1 0x60 ADD PUSH1 0x40 MSTORE SWAP1 DUP2 PUSH1 0x0 DUP3 ADD DUP1 SLOAD PUSH2 0x15B6 SWAP1 PUSH2 0x38E3 JUMP JUMPDEST DUP1 PUSH1 0x1F ADD PUSH1 0x20 DUP1 SWAP2 DIV MUL PUSH1 0x20 ADD PUSH1 0x40 MLOAD SWAP1 DUP2 ADD PUSH1 0x40 MSTORE DUP1 SWAP3 SWAP2 SWAP1 DUP2 DUP2 MSTORE PUSH1 0x20 ADD DUP3 DUP1 SLOAD PUSH2 0x15E2 SWAP1 PUSH2 0x38E3 JUMP JUMPDEST DUP1 ISZERO PUSH2 0x162F JUMPI DUP1 PUSH1 0x1F LT PUSH2 0x1604 JUMPI PUSH2 0x100 DUP1 DUP4 SLOAD DIV MUL DUP4 MSTORE SWAP2 PUSH1 0x20 ADD SWAP2 PUSH2 0x162F JUMP JUMPDEST DUP3 ADD SWAP2 SWAP1 PUSH1 0x0 MSTORE PUSH1 0x20 PUSH1 0x0 KECCAK256 SWAP1 JUMPDEST DUP2 SLOAD DUP2 MSTORE SWAP1 PUSH1 0x1 ADD SWAP1 PUSH1 0x20 ADD DUP1 DUP4 GT PUSH2 0x1612 JUMPI DUP3 SWAP1 SUB PUSH1 0x1F AND DUP3 ADD SWAP2 JUMPDEST POP POP POP POP POP DUP2 MSTORE PUSH1 0x20 ADD PUSH1 0x1 DUP3 ADD SLOAD DUP2 MSTORE PUSH1 0x20 ADD PUSH1 0x2 DUP3 ADD SLOAD DUP2 MSTORE POP POP SWAP1 POP DUP1 PUSH1 0x40 ADD MLOAD TIMESTAMP LT PUSH2 0x188A JUMPI PUSH1 0xC SLOAD DUP2 MLOAD PUSH1 0x20 DUP4 ADD MLOAD PUSH1 0x40 MLOAD PUSH4 0x244D87AD PUSH1 0xE1 SHL DUP2 MSTORE PUSH1 0x0 SWAP4 PUSH1 0x1 PUSH1 0x1 PUSH1 0xA0 SHL SUB AND SWAP3 PUSH4 0x489B0F5A SWAP3 PUSH2 0x168F SWAP3 PUSH1 0x4 ADD PUSH2 0x3DFE JUMP JUMPDEST PUSH1 0x0 PUSH1 0x40 MLOAD DUP1 DUP4 SUB DUP2 DUP7 GAS STATICCALL ISZERO DUP1 ISZERO PUSH2 0x16AC JUMPI RETURNDATASIZE PUSH1 0x0 DUP1 RETURNDATACOPY RETURNDATASIZE PUSH1 0x0 REVERT JUMPDEST POP POP POP POP PUSH1 0x40 MLOAD RETURNDATASIZE PUSH1 0x0 DUP3 RETURNDATACOPY PUSH1 0x1F RETURNDATASIZE SWAP1 DUP2 ADD PUSH1 0x1F NOT AND DUP3 ADD PUSH1 0x40 MSTORE PUSH2 0x16D4 SWAP2 SWAP1 DUP2 ADD SWAP1 PUSH2 0x3C5E JUMP JUMPDEST PUSH1 0x80 DUP2 ADD MLOAD PUSH1 0x0 DUP8 DUP2 MSTORE PUSH1 0x12 PUSH1 0x20 MSTORE PUSH1 0x40 DUP2 KECCAK256 PUSH1 0x1 ADD DUP1 SLOAD SWAP4 SWAP5 POP SWAP2 SWAP3 PUSH2 0x16FC SWAP1 DUP5 SWAP1 PUSH2 0x3D67 JUMP JUMPDEST SWAP1 SWAP2 SSTORE POP POP PUSH1 0xA0 DUP2 ADD MLOAD PUSH1 0x0 DUP7 DUP2 MSTORE PUSH1 0x12 PUSH1 0x20 MSTORE PUSH1 0x40 DUP2 KECCAK256 PUSH1 0x2 ADD DUP1 SLOAD SWAP1 SWAP2 SWAP1 PUSH2 0x1727 SWAP1 DUP5 SWAP1 PUSH2 0x3D67 JUMP JUMPDEST SWAP1 SWAP2 SSTORE POP POP PUSH2 0x100 DUP2 ADD MLOAD PUSH1 0x0 DUP7 DUP2 MSTORE PUSH1 0x12 PUSH1 0x20 MSTORE PUSH1 0x40 DUP2 KECCAK256 PUSH1 0x5 ADD DUP1 SLOAD SWAP1 SWAP2 SWAP1 PUSH2 0x1753 SWAP1 DUP5 SWAP1 PUSH2 0x3D67 JUMP JUMPDEST SWAP1 SWAP2 SSTORE POP POP PUSH1 0x0 DUP6 DUP2 MSTORE PUSH1 0x12 PUSH1 0x20 SWAP1 DUP2 MSTORE PUSH1 0x40 DUP1 DUP4 KECCAK256 DUP2 MLOAD PUSH1 0x60 DUP2 ADD DUP4 MSTORE DUP7 MLOAD DUP2 MSTORE DUP7 DUP5 ADD MLOAD DUP2 DUP6 ADD MSTORE PUSH1 0x1 SWAP3 DUP2 ADD DUP4 SWAP1 MSTORE PUSH1 0x6 SWAP1 SWAP2 ADD DUP1 SLOAD SWAP3 DUP4 ADD DUP2 SSTORE DUP5 MSTORE SWAP2 SWAP1 SWAP3 KECCAK256 DUP2 MLOAD SWAP2 SWAP3 PUSH1 0x3 MUL ADD SWAP1 DUP2 SWAP1 PUSH2 0x17AC SWAP1 DUP3 PUSH2 0x3ADF JUMP JUMPDEST POP PUSH1 0x20 DUP3 ADD MLOAD PUSH1 0x1 DUP3 DUP2 ADD SWAP2 SWAP1 SWAP2 SSTORE PUSH1 0x40 SWAP1 SWAP3 ADD MLOAD PUSH1 0x2 SWAP1 SWAP2 ADD DUP1 SLOAD PUSH1 0xFF NOT AND SWAP2 ISZERO ISZERO SWAP2 SWAP1 SWAP2 OR SWAP1 SSTORE DUP5 SLOAD DUP6 SWAP2 PUSH2 0x17E2 SWAP2 PUSH2 0x3E20 JUMP JUMPDEST DUP2 SLOAD DUP2 LT PUSH2 0x17F2 JUMPI PUSH2 0x17F2 PUSH2 0x3A53 JUMP JUMPDEST SWAP1 PUSH1 0x0 MSTORE PUSH1 0x20 PUSH1 0x0 KECCAK256 SWAP1 PUSH1 0x3 MUL ADD DUP5 DUP5 DUP2 SLOAD DUP2 LT PUSH2 0x1812 JUMPI PUSH2 0x1812 PUSH2 0x3A53 JUMP JUMPDEST PUSH1 0x0 SWAP2 DUP3 MSTORE PUSH1 0x20 SWAP1 SWAP2 KECCAK256 PUSH1 0x3 SWAP1 SWAP2 MUL ADD DUP1 PUSH2 0x182D DUP4 DUP3 PUSH2 0x3E33 JUMP JUMPDEST POP PUSH1 0x1 DUP3 DUP2 ADD SLOAD SWAP1 DUP3 ADD SSTORE PUSH1 0x2 SWAP2 DUP3 ADD SLOAD SWAP2 ADD SSTORE DUP4 SLOAD DUP5 SWAP1 DUP1 PUSH2 0x1852 JUMPI PUSH2 0x1852 PUSH2 0x3F06 JUMP JUMPDEST PUSH1 0x0 DUP3 DUP2 MSTORE PUSH1 0x20 DUP2 KECCAK256 PUSH1 0x0 NOT SWAP1 SWAP3 ADD SWAP2 PUSH1 0x3 DUP4 MUL ADD SWAP1 PUSH2 0x1872 DUP3 DUP3 PUSH2 0x32D2 JUMP JUMPDEST POP PUSH1 0x0 PUSH1 0x1 DUP3 ADD DUP2 SWAP1 SSTORE PUSH1 0x2 SWAP1 SWAP2 ADD SSTORE SWAP1 SSTORE POP PUSH2 0x1898 JUMP JUMPDEST DUP2 PUSH2 0x1894 DUP2 PUSH2 0x3933 JUMP JUMPDEST SWAP3 POP POP JUMPDEST POP PUSH2 0x1570 JUMP JUMPDEST POP POP PUSH2 0x14E8 PUSH1 0x1 PUSH1 0xB SSTORE JUMP JUMPDEST PUSH1 0x0 PUSH2 0x18B5 DUP4 PUSH2 0x1DE4 JUMP JUMPDEST DUP3 LT PUSH2 0x1917 JUMPI PUSH1 0x40 MLOAD PUSH3 0x461BCD PUSH1 0xE5 SHL DUP2 MSTORE PUSH1 0x20 PUSH1 0x4 DUP3 ADD MSTORE PUSH1 0x2B PUSH1 0x24 DUP3 ADD MSTORE PUSH32 0x455243373231456E756D657261626C653A206F776E657220696E646578206F75 PUSH1 0x44 DUP3 ADD MSTORE PUSH11 0x74206F6620626F756E6473 PUSH1 0xA8 SHL PUSH1 0x64 DUP3 ADD MSTORE PUSH1 0x84 ADD PUSH2 0x6E8 JUMP JUMPDEST POP PUSH1 0x1 PUSH1 0x1 PUSH1 0xA0 SHL SUB SWAP2 SWAP1 SWAP2 AND PUSH1 0x0 SWAP1 DUP2 MSTORE PUSH1 0x6 PUSH1 0x20 SWAP1 DUP2 MSTORE PUSH1 0x40 DUP1 DUP4 KECCAK256 SWAP4 DUP4 MSTORE SWAP3 SWAP1 MSTORE KECCAK256 SLOAD SWAP1 JUMP JUMPDEST PUSH2 0x1948 PUSH2 0x2132 JUMP JUMPDEST PUSH1 0x0 PUSH2 0x195C PUSH1 0xA SLOAD PUSH1 0x1 PUSH1 0x1 PUSH1 0xA0 SHL SUB AND SWAP1 JUMP JUMPDEST PUSH1 0x1 PUSH1 0x1 PUSH1 0xA0 SHL SUB AND SELFBALANCE PUSH1 0x40 MLOAD PUSH1 0x0 PUSH1 0x40 MLOAD DUP1 DUP4 SUB DUP2 DUP6 DUP8 GAS CALL SWAP3 POP POP POP RETURNDATASIZE DUP1 PUSH1 0x0 DUP2 EQ PUSH2 0x19A6 JUMPI PUSH1 0x40 MLOAD SWAP2 POP PUSH1 0x1F NOT PUSH1 0x3F RETURNDATASIZE ADD AND DUP3 ADD PUSH1 0x40 MSTORE RETURNDATASIZE DUP3 MSTORE RETURNDATASIZE PUSH1 0x0 PUSH1 0x20 DUP5 ADD RETURNDATACOPY PUSH2 0x19AB JUMP JUMPDEST PUSH1 0x60 SWAP2 POP JUMPDEST POP POP SWAP1 POP DUP1 PUSH2 0x14E8 JUMPI PUSH1 0x40 MLOAD PUSH3 0x461BCD PUSH1 0xE5 SHL DUP2 MSTORE PUSH1 0x20 PUSH1 0x4 DUP3 ADD MSTORE PUSH1 0xF PUSH1 0x24 DUP3 ADD MSTORE PUSH15 0x151C985B9CD9995C8819985A5B1959 PUSH1 0x8A SHL PUSH1 0x44 DUP3 ADD MSTORE PUSH1 0x64 ADD PUSH2 0x6E8 JUMP JUMPDEST PUSH2 0x1473 DUP4 DUP4 DUP4 PUSH1 0x40 MLOAD DUP1 PUSH1 0x20 ADD PUSH1 0x40 MSTORE DUP1 PUSH1 0x0 DUP2 MSTORE POP PUSH2 0x1F9C JUMP JUMPDEST PUSH1 0x0 PUSH2 0x1A14 PUSH1 0x8 SLOAD SWAP1 JUMP JUMPDEST DUP3 LT PUSH2 0x1A77 JUMPI PUSH1 0x40 MLOAD PUSH3 0x461BCD PUSH1 0xE5 SHL DUP2 MSTORE PUSH1 0x20 PUSH1 0x4 DUP3 ADD MSTORE PUSH1 0x2C PUSH1 0x24 DUP3 ADD MSTORE PUSH32 0x455243373231456E756D657261626C653A20676C6F62616C20696E646578206F PUSH1 0x44 DUP3 ADD MSTORE PUSH12 0x7574206F6620626F756E6473 PUSH1 0xA0 SHL PUSH1 0x64 DUP3 ADD MSTORE PUSH1 0x84 ADD PUSH2 0x6E8 JUMP JUMPDEST PUSH1 0x8 DUP3 DUP2 SLOAD DUP2 LT PUSH2 0x1A8A JUMPI PUSH2 0x1A8A PUSH2 0x3A53 JUMP JUMPDEST SWAP1 PUSH1 0x0 MSTORE PUSH1 0x20 PUSH1 0x0 KECCAK256 ADD SLOAD SWAP1 POP SWAP2 SWAP1 POP JUMP JUMPDEST PUSH1 0x0 DUP1 PUSH2 0x1AA8 DUP4 PUSH2 0x20C5 JUMP JUMPDEST PUSH2 0x1AC4 JUMPI PUSH1 0x40 MLOAD PUSH3 0x461BCD PUSH1 0xE5 SHL DUP2 MSTORE PUSH1 0x4 ADD PUSH2 0x6E8 SWAP1 PUSH2 0x38B5 JUMP JUMPDEST PUSH1 0xD SLOAD PUSH1 0x40 MLOAD PUSH4 0x3C7C604F PUSH1 0xE0 SHL DUP2 MSTORE PUSH1 0x4 DUP2 ADD DUP6 SWAP1 MSTORE PUSH1 0x1 PUSH1 0x1 PUSH1 0xA0 SHL SUB SWAP1 SWAP2 AND SWAP1 PUSH4 0x3C7C604F SWAP1 PUSH1 0x24 ADD PUSH1 0x40 DUP1 MLOAD DUP1 DUP4 SUB DUP2 DUP7 GAS STATICCALL ISZERO DUP1 ISZERO PUSH2 0x1B0C JUMPI RETURNDATASIZE PUSH1 0x0 DUP1 RETURNDATACOPY RETURNDATASIZE PUSH1 0x0 REVERT JUMPDEST POP POP POP POP PUSH1 0x40 MLOAD RETURNDATASIZE PUSH1 0x1F NOT PUSH1 0x1F DUP3 ADD AND DUP3 ADD DUP1 PUSH1 0x40 MSTORE POP DUP2 ADD SWAP1 PUSH2 0x1B30 SWAP2 SWAP1 PUSH2 0x3962 JUMP JUMPDEST SWAP2 POP SWAP2 POP SWAP2 POP SWAP2 JUMP JUMPDEST PUSH1 0x0 DUP2 DUP2 MSTORE PUSH1 0x2 PUSH1 0x20 MSTORE PUSH1 0x40 DUP2 KECCAK256 SLOAD PUSH1 0x1 PUSH1 0x1 PUSH1 0xA0 SHL SUB AND DUP1 PUSH2 0x9DD JUMPI PUSH1 0x40 MLOAD PUSH3 0x461BCD PUSH1 0xE5 SHL DUP2 MSTORE PUSH1 0x20 PUSH1 0x4 DUP3 ADD MSTORE PUSH1 0x18 PUSH1 0x24 DUP3 ADD MSTORE PUSH24 0x115490CDCC8C4E881A5B9D985B1A59081D1BDAD95B881251 PUSH1 0x42 SHL PUSH1 0x44 DUP3 ADD MSTORE PUSH1 0x64 ADD PUSH2 0x6E8 JUMP JUMPDEST PUSH2 0x1BA1 PUSH2 0x21DC JUMP JUMPDEST CALLER PUSH2 0x1BAB DUP5 PUSH2 0x1B39 JUMP JUMPDEST PUSH1 0x1 PUSH1 0x1 PUSH1 0xA0 SHL SUB AND EQ PUSH2 0x1BD1 JUMPI PUSH1 0x40 MLOAD PUSH3 0x461BCD PUSH1 0xE5 SHL DUP2 MSTORE PUSH1 0x4 ADD PUSH2 0x6E8 SWAP1 PUSH2 0x3D7A JUMP JUMPDEST PUSH1 0xC SLOAD PUSH1 0x40 MLOAD PUSH4 0x244D87AD PUSH1 0xE1 SHL DUP2 MSTORE PUSH1 0x0 SWAP2 PUSH1 0x1 PUSH1 0x1 PUSH1 0xA0 SHL SUB AND SWAP1 PUSH4 0x489B0F5A SWAP1 PUSH2 0x1C04 SWAP1 DUP7 SWAP1 DUP7 SWAP1 PUSH1 0x4 ADD PUSH2 0x3DFE JUMP JUMPDEST PUSH1 0x0 PUSH1 0x40 MLOAD DUP1 DUP4 SUB DUP2 DUP7 GAS STATICCALL ISZERO DUP1 ISZERO PUSH2 0x1C21 JUMPI RETURNDATASIZE PUSH1 0x0 DUP1 RETURNDATACOPY RETURNDATASIZE PUSH1 0x0 REVERT JUMPDEST POP POP POP POP PUSH1 0x40 MLOAD RETURNDATASIZE PUSH1 0x0 DUP3 RETURNDATACOPY PUSH1 0x1F RETURNDATASIZE SWAP1 DUP2 ADD PUSH1 0x1F NOT AND DUP3 ADD PUSH1 0x40 MSTORE PUSH2 0x1C49 SWAP2 SWAP1 DUP2 ADD SWAP1 PUSH2 0x3C5E JUMP JUMPDEST SWAP1 POP PUSH2 0x1C54 DUP5 PUSH2 0x258E JUMP JUMPDEST PUSH1 0x0 DUP5 DUP2 MSTORE PUSH1 0x12 PUSH1 0x20 SWAP1 DUP2 MSTORE PUSH1 0x40 SWAP2 DUP3 SWAP1 KECCAK256 DUP3 MLOAD PUSH1 0xC0 DUP2 ADD DUP5 MSTORE PUSH1 0x8 DUP3 ADD SLOAD DUP2 MSTORE PUSH1 0x9 DUP3 ADD SLOAD SWAP3 DUP2 ADD SWAP3 SWAP1 SWAP3 MSTORE PUSH1 0xA DUP2 ADD SLOAD DUP3 DUP5 ADD MSTORE PUSH1 0xB DUP2 ADD SLOAD PUSH1 0x60 DUP4 ADD MSTORE PUSH1 0xC DUP2 ADD SLOAD PUSH1 0x80 DUP4 ADD MSTORE PUSH1 0xD ADD SLOAD PUSH1 0xA0 DUP3 ADD MSTORE SWAP1 DUP3 ADD MLOAD PUSH2 0x1CB5 SWAP2 SWAP1 PUSH2 0x272D JUMP JUMPDEST PUSH2 0x1CF8 JUMPI PUSH1 0x40 MLOAD PUSH3 0x461BCD PUSH1 0xE5 SHL DUP2 MSTORE PUSH1 0x20 PUSH1 0x4 DUP3 ADD MSTORE PUSH1 0x14 PUSH1 0x24 DUP3 ADD MSTORE PUSH20 0x4E6F7420656E6F756768207265736F7572636573 PUSH1 0x60 SHL PUSH1 0x44 DUP3 ADD MSTORE PUSH1 0x64 ADD PUSH2 0x6E8 JUMP JUMPDEST PUSH2 0x1D1B PUSH1 0x12 PUSH1 0x0 DUP7 DUP2 MSTORE PUSH1 0x20 ADD SWAP1 DUP2 MSTORE PUSH1 0x20 ADD PUSH1 0x0 KECCAK256 PUSH1 0x8 ADD DUP3 PUSH1 0x40 ADD MLOAD PUSH2 0x279C JUMP JUMPDEST PUSH1 0x0 DUP2 PUSH2 0x140 ADD MLOAD TIMESTAMP PUSH2 0x1D2E SWAP2 SWAP1 PUSH2 0x3D67 JUMP JUMPDEST PUSH1 0x0 DUP7 DUP2 MSTORE PUSH1 0x12 PUSH1 0x20 SWAP1 DUP2 MSTORE PUSH1 0x40 DUP1 DUP4 KECCAK256 DUP2 MLOAD PUSH1 0x60 DUP2 ADD DUP4 MSTORE DUP10 DUP2 MSTORE DUP1 DUP5 ADD DUP10 SWAP1 MSTORE SWAP2 DUP3 ADD DUP6 SWAP1 MSTORE PUSH1 0x7 ADD DUP1 SLOAD PUSH1 0x1 DUP2 ADD DUP3 SSTORE SWAP1 DUP5 MSTORE SWAP2 SWAP1 SWAP3 KECCAK256 DUP3 MLOAD SWAP4 SWAP5 POP SWAP2 SWAP3 PUSH1 0x3 SWAP1 SWAP2 MUL SWAP1 SWAP2 ADD SWAP1 DUP2 SWAP1 PUSH2 0x1D84 SWAP1 DUP3 PUSH2 0x3ADF JUMP JUMPDEST POP PUSH1 0x20 DUP3 ADD MLOAD DUP2 PUSH1 0x1 ADD SSTORE PUSH1 0x40 DUP3 ADD MLOAD DUP2 PUSH1 0x2 ADD SSTORE POP POP PUSH32 0x622E8DE066E5BEC4C7150E2FD56DF14C20CECBEA5744DA2646FE0CFD2861D157 DUP6 DUP6 DUP6 DUP5 PUSH1 0x40 MLOAD PUSH2 0x1DD0 SWAP5 SWAP4 SWAP3 SWAP2 SWAP1 PUSH2 0x3F1C JUMP JUMPDEST PUSH1 0x40 MLOAD DUP1 SWAP2 SUB SWAP1 LOG1 POP POP PUSH2 0x1473 PUSH1 0x1 PUSH1 0xB SSTORE JUMP JUMPDEST PUSH1 0x0 PUSH1 0x1 PUSH1 0x1 PUSH1 0xA0 SHL SUB DUP3 AND PUSH2 0x1E4E JUMPI PUSH1 0x40 MLOAD PUSH3 0x461BCD PUSH1 0xE5 SHL DUP2 MSTORE PUSH1 0x20 PUSH1 0x4 DUP3 ADD MSTORE PUSH1 0x29 PUSH1 0x24 DUP3 ADD MSTORE PUSH32 0x4552433732313A2061646472657373207A65726F206973206E6F742061207661 PUSH1 0x44 DUP3 ADD MSTORE PUSH9 0x3634B21037BBB732B9 PUSH1 0xB9 SHL PUSH1 0x64 DUP3 ADD MSTORE PUSH1 0x84 ADD PUSH2 0x6E8 JUMP JUMPDEST POP PUSH1 0x1 PUSH1 0x1 PUSH1 0xA0 SHL SUB AND PUSH1 0x0 SWAP1 DUP2 MSTORE PUSH1 0x3 PUSH1 0x20 MSTORE PUSH1 0x40 SWAP1 KECCAK256 SLOAD SWAP1 JUMP JUMPDEST PUSH2 0x1E72 PUSH2 0x2132 JUMP JUMPDEST PUSH2 0x1E7C PUSH1 0x0 PUSH2 0x284F JUMP JUMPDEST JUMP JUMPDEST PUSH2 0x1E86 PUSH2 0x2132 JUMP JUMPDEST PUSH1 0x11 SLOAD DUP2 GT PUSH2 0x1EF6 JUMPI PUSH1 0x40 MLOAD PUSH3 0x461BCD PUSH1 0xE5 SHL DUP2 MSTORE PUSH1 0x20 PUSH1 0x4 DUP3 ADD MSTORE PUSH1 0x36 PUSH1 0x24 DUP3 ADD MSTORE PUSH32 0x4E6577206D617820737570706C79206D75737420626520677265617465722074 PUSH1 0x44 DUP3 ADD MSTORE PUSH22 0x68616E2063757272656E74206D617820737570706C79 PUSH1 0x50 SHL PUSH1 0x64 DUP3 ADD MSTORE PUSH1 0x84 ADD PUSH2 0x6E8 JUMP JUMPDEST PUSH1 0x11 SSTORE JUMP JUMPDEST PUSH1 0x60 PUSH1 0x1 DUP1 SLOAD PUSH2 0xA75 SWAP1 PUSH2 0x38E3 JUMP JUMPDEST PUSH2 0x1F15 CALLER DUP4 DUP4 PUSH2 0x28A1 JUMP JUMPDEST POP POP JUMP JUMPDEST PUSH2 0x1F21 PUSH2 0x2132 JUMP JUMPDEST PUSH1 0xC SLOAD PUSH1 0x1 PUSH1 0x1 PUSH1 0xA0 SHL SUB AND ISZERO PUSH2 0x1F7A JUMPI PUSH1 0x40 MLOAD PUSH3 0x461BCD PUSH1 0xE5 SHL DUP2 MSTORE PUSH1 0x20 PUSH1 0x4 DUP3 ADD MSTORE PUSH1 0x1B PUSH1 0x24 DUP3 ADD MSTORE PUSH32 0x4275696C64696E674D616E6167657220616C7265616479207365740000000000 PUSH1 0x44 DUP3 ADD MSTORE PUSH1 0x64 ADD PUSH2 0x6E8 JUMP JUMPDEST PUSH1 0xC DUP1 SLOAD PUSH1 0x1 PUSH1 0x1 PUSH1 0xA0 SHL SUB NOT AND PUSH1 0x1 PUSH1 0x1 PUSH1 0xA0 SHL SUB SWAP3 SWAP1 SWAP3 AND SWAP2 SWAP1 SWAP2 OR SWAP1 SSTORE JUMP JUMPDEST PUSH2 0x1FA6 CALLER DUP4 PUSH2 0x239E JUMP JUMPDEST PUSH2 0x1FC2 JUMPI PUSH1 0x40 MLOAD PUSH3 0x461BCD PUSH1 0xE5 SHL DUP2 MSTORE PUSH1 0x4 ADD PUSH2 0x6E8 SWAP1 PUSH2 0x3DB1 JUMP JUMPDEST PUSH2 0x135D DUP5 DUP5 DUP5 DUP5 PUSH2 0x296F JUMP JUMPDEST PUSH1 0x60 PUSH2 0x1FD9 DUP3 PUSH2 0x218C JUMP JUMPDEST PUSH1 0x0 PUSH2 0x1FF0 PUSH1 0x40 DUP1 MLOAD PUSH1 0x20 DUP2 ADD SWAP1 SWAP2 MSTORE PUSH1 0x0 DUP2 MSTORE SWAP1 JUMP JUMPDEST SWAP1 POP PUSH1 0x0 DUP2 MLOAD GT PUSH2 0x2010 JUMPI PUSH1 0x40 MLOAD DUP1 PUSH1 0x20 ADD PUSH1 0x40 MSTORE DUP1 PUSH1 0x0 DUP2 MSTORE POP PUSH2 0x203B JUMP JUMPDEST DUP1 PUSH2 0x201A DUP5 PUSH2 0x29A2 JUMP JUMPDEST PUSH1 0x40 MLOAD PUSH1 0x20 ADD PUSH2 0x202B SWAP3 SWAP2 SWAP1 PUSH2 0x3F48 JUMP JUMPDEST PUSH1 0x40 MLOAD PUSH1 0x20 DUP2 DUP4 SUB SUB DUP2 MSTORE SWAP1 PUSH1 0x40 MSTORE JUMPDEST SWAP4 SWAP3 POP POP POP JUMP JUMPDEST PUSH2 0x204A PUSH2 0x2132 JUMP JUMPDEST PUSH1 0x1 PUSH1 0x1 PUSH1 0xA0 SHL SUB DUP2 AND PUSH2 0x20AF JUMPI PUSH1 0x40 MLOAD PUSH3 0x461BCD PUSH1 0xE5 SHL DUP2 MSTORE PUSH1 0x20 PUSH1 0x4 DUP3 ADD MSTORE PUSH1 0x26 PUSH1 0x24 DUP3 ADD MSTORE PUSH32 0x4F776E61626C653A206E6577206F776E657220697320746865207A65726F2061 PUSH1 0x44 DUP3 ADD MSTORE PUSH6 0x646472657373 PUSH1 0xD0 SHL PUSH1 0x64 DUP3 ADD MSTORE PUSH1 0x84 ADD PUSH2 0x6E8 JUMP JUMPDEST PUSH2 0x14E8 DUP2 PUSH2 0x284F JUMP JUMPDEST PUSH2 0x20C0 PUSH2 0x2132 JUMP JUMPDEST PUSH1 0xF SSTORE JUMP JUMPDEST PUSH1 0x0 SWAP1 DUP2 MSTORE PUSH1 0x2 PUSH1 0x20 MSTORE PUSH1 0x40 SWAP1 KECCAK256 SLOAD PUSH1 0x1 PUSH1 0x1 PUSH1 0xA0 SHL SUB AND ISZERO ISZERO SWAP1 JUMP JUMPDEST PUSH1 0x0 PUSH1 0x1 PUSH1 0x1 PUSH1 0xE0 SHL SUB NOT DUP3 AND PUSH4 0x80AC58CD PUSH1 0xE0 SHL EQ DUP1 PUSH2 0x2113 JUMPI POP PUSH1 0x1 PUSH1 0x1 PUSH1 0xE0 SHL SUB NOT DUP3 AND PUSH4 0x5B5E139F PUSH1 0xE0 SHL EQ JUMPDEST DUP1 PUSH2 0x9DD JUMPI POP PUSH4 0x1FFC9A7 PUSH1 0xE0 SHL PUSH1 0x1 PUSH1 0x1 PUSH1 0xE0 SHL SUB NOT DUP4 AND EQ PUSH2 0x9DD JUMP JUMPDEST PUSH1 0xA SLOAD PUSH1 0x1 PUSH1 0x1 PUSH1 0xA0 SHL SUB AND CALLER EQ PUSH2 0x1E7C JUMPI PUSH1 0x40 MLOAD PUSH3 0x461BCD PUSH1 0xE5 SHL DUP2 MSTORE PUSH1 0x20 PUSH1 0x4 DUP3 ADD DUP2 SWAP1 MSTORE PUSH1 0x24 DUP3 ADD MSTORE PUSH32 0x4F776E61626C653A2063616C6C6572206973206E6F7420746865206F776E6572 PUSH1 0x44 DUP3 ADD MSTORE PUSH1 0x64 ADD PUSH2 0x6E8 JUMP JUMPDEST PUSH2 0x2195 DUP2 PUSH2 0x20C5 JUMP JUMPDEST PUSH2 0x14E8 JUMPI PUSH1 0x40 MLOAD PUSH3 0x461BCD PUSH1 0xE5 SHL DUP2 MSTORE PUSH1 0x20 PUSH1 0x4 DUP3 ADD MSTORE PUSH1 0x18 PUSH1 0x24 DUP3 ADD MSTORE PUSH24 0x115490CDCC8C4E881A5B9D985B1A59081D1BDAD95B881251 PUSH1 0x42 SHL PUSH1 0x44 DUP3 ADD MSTORE PUSH1 0x64 ADD PUSH2 0x6E8 JUMP JUMPDEST PUSH1 0x2 PUSH1 0xB SLOAD SUB PUSH2 0x222E JUMPI PUSH1 0x40 MLOAD PUSH3 0x461BCD PUSH1 0xE5 SHL DUP2 MSTORE PUSH1 0x20 PUSH1 0x4 DUP3 ADD MSTORE PUSH1 0x1F PUSH1 0x24 DUP3 ADD MSTORE PUSH32 0x5265656E7472616E637947756172643A207265656E7472616E742063616C6C00 PUSH1 0x44 DUP3 ADD MSTORE PUSH1 0x64 ADD PUSH2 0x6E8 JUMP JUMPDEST PUSH1 0x2 PUSH1 0xB SSTORE JUMP JUMPDEST PUSH2 0x1F15 DUP3 DUP3 PUSH1 0x40 MLOAD DUP1 PUSH1 0x20 ADD PUSH1 0x40 MSTORE DUP1 PUSH1 0x0 DUP2 MSTORE POP PUSH2 0x2A35 JUMP JUMPDEST PUSH1 0x0 DUP2 DUP2 MSTORE PUSH1 0x4 PUSH1 0x20 MSTORE PUSH1 0x40 SWAP1 KECCAK256 DUP1 SLOAD PUSH1 0x1 PUSH1 0x1 PUSH1 0xA0 SHL SUB NOT AND PUSH1 0x1 PUSH1 0x1 PUSH1 0xA0 SHL SUB DUP5 AND SWAP1 DUP2 OR SWAP1 SWAP2 SSTORE DUP2 SWAP1 PUSH2 0x2284 DUP3 PUSH2 0x1B39 JUMP JUMPDEST PUSH1 0x1 PUSH1 0x1 PUSH1 0xA0 SHL SUB AND PUSH32 0x8C5BE1E5EBEC7D5BD14F71427D1E84F3DD0314C0F7B2291E5B200AC8C7C3B925 PUSH1 0x40 MLOAD PUSH1 0x40 MLOAD DUP1 SWAP2 SUB SWAP1 LOG4 POP POP JUMP JUMPDEST PUSH1 0x0 DUP2 DUP2 MSTORE PUSH1 0x12 PUSH1 0x20 MSTORE PUSH1 0x40 SWAP1 KECCAK256 PUSH2 0x22D4 DUP3 PUSH2 0x258E JUMP JUMPDEST PUSH1 0x32 DUP2 PUSH1 0x2 ADD SLOAD GT ISZERO PUSH2 0x232C JUMPI PUSH1 0x0 PUSH1 0x64 DUP3 PUSH1 0x0 ADD SLOAD PUSH1 0x32 DUP5 PUSH1 0x2 ADD SLOAD PUSH2 0x22FB SWAP2 SWAP1 PUSH2 0x3E20 JUMP JUMPDEST PUSH2 0x2305 SWAP2 SWAP1 PUSH2 0x3F77 JUMP JUMPDEST PUSH2 0x230F SWAP2 SWAP1 PUSH2 0x3F8E JUMP JUMPDEST SWAP1 POP DUP1 DUP3 PUSH1 0x0 ADD PUSH1 0x0 DUP3 DUP3 SLOAD PUSH2 0x2325 SWAP2 SWAP1 PUSH2 0x3D67 JUMP JUMPDEST SWAP1 SWAP2 SSTORE POP POP POP JUMPDEST PUSH1 0x5 DUP2 PUSH1 0x2 ADD SLOAD GT ISZERO PUSH2 0x2359 JUMPI PUSH1 0x5 DUP2 PUSH1 0x2 ADD PUSH1 0x0 DUP3 DUP3 SLOAD PUSH2 0x234E SWAP2 SWAP1 PUSH2 0x3E20 JUMP JUMPDEST SWAP1 SWAP2 SSTORE POP PUSH2 0x2361 SWAP1 POP JUMP JUMPDEST PUSH1 0x0 PUSH1 0x2 DUP3 ADD SSTORE JUMPDEST PUSH32 0xF3ABC8DBF0C6213D4011B96ECD73368A6E6F36CBE993693CA128DB83465A639E DUP3 DUP3 PUSH1 0x40 MLOAD PUSH2 0x2392 SWAP3 SWAP2 SWAP1 PUSH2 0x411F JUMP JUMPDEST PUSH1 0x40 MLOAD DUP1 SWAP2 SUB SWAP1 LOG1 POP POP JUMP JUMPDEST PUSH1 0x0 DUP1 PUSH2 0x23AA DUP4 PUSH2 0x1B39 JUMP JUMPDEST SWAP1 POP DUP1 PUSH1 0x1 PUSH1 0x1 PUSH1 0xA0 SHL SUB AND DUP5 PUSH1 0x1 PUSH1 0x1 PUSH1 0xA0 SHL SUB AND EQ DUP1 PUSH2 0x23F1 JUMPI POP PUSH1 0x1 PUSH1 0x1 PUSH1 0xA0 SHL SUB DUP1 DUP3 AND PUSH1 0x0 SWAP1 DUP2 MSTORE PUSH1 0x5 PUSH1 0x20 SWAP1 DUP2 MSTORE PUSH1 0x40 DUP1 DUP4 KECCAK256 SWAP4 DUP9 AND DUP4 MSTORE SWAP3 SWAP1 MSTORE KECCAK256 SLOAD PUSH1 0xFF AND JUMPDEST DUP1 PUSH2 0x2415 JUMPI POP DUP4 PUSH1 0x1 PUSH1 0x1 PUSH1 0xA0 SHL SUB AND PUSH2 0x240A DUP5 PUSH2 0xAF8 JUMP JUMPDEST PUSH1 0x1 PUSH1 0x1 PUSH1 0xA0 SHL SUB AND EQ JUMPDEST SWAP5 SWAP4 POP POP POP POP JUMP JUMPDEST DUP3 PUSH1 0x1 PUSH1 0x1 PUSH1 0xA0 SHL SUB AND PUSH2 0x2430 DUP3 PUSH2 0x1B39 JUMP JUMPDEST PUSH1 0x1 PUSH1 0x1 PUSH1 0xA0 SHL SUB AND EQ PUSH2 0x2456 JUMPI PUSH1 0x40 MLOAD PUSH3 0x461BCD PUSH1 0xE5 SHL DUP2 MSTORE PUSH1 0x4 ADD PUSH2 0x6E8 SWAP1 PUSH2 0x41F2 JUMP JUMPDEST PUSH1 0x1 PUSH1 0x1 PUSH1 0xA0 SHL SUB DUP3 AND PUSH2 0x24B8 JUMPI PUSH1 0x40 MLOAD PUSH3 0x461BCD PUSH1 0xE5 SHL DUP2 MSTORE PUSH1 0x20 PUSH1 0x4 DUP3 ADD MSTORE PUSH1 0x24 DUP1 DUP3 ADD MSTORE PUSH32 0x4552433732313A207472616E7366657220746F20746865207A65726F20616464 PUSH1 0x44 DUP3 ADD MSTORE PUSH4 0x72657373 PUSH1 0xE0 SHL PUSH1 0x64 DUP3 ADD MSTORE PUSH1 0x84 ADD PUSH2 0x6E8 JUMP JUMPDEST PUSH2 0x24C5 DUP4 DUP4 DUP4 PUSH1 0x1 PUSH2 0x2A68 JUMP JUMPDEST DUP3 PUSH1 0x1 PUSH1 0x1 PUSH1 0xA0 SHL SUB AND PUSH2 0x24D8 DUP3 PUSH2 0x1B39 JUMP JUMPDEST PUSH1 0x1 PUSH1 0x1 PUSH1 0xA0 SHL SUB AND EQ PUSH2 0x24FE JUMPI PUSH1 0x40 MLOAD PUSH3 0x461BCD PUSH1 0xE5 SHL DUP2 MSTORE PUSH1 0x4 ADD PUSH2 0x6E8 SWAP1 PUSH2 0x41F2 JUMP JUMPDEST PUSH1 0x0 DUP2 DUP2 MSTORE PUSH1 0x4 PUSH1 0x20 SWAP1 DUP2 MSTORE PUSH1 0x40 DUP1 DUP4 KECCAK256 DUP1 SLOAD PUSH1 0x1 PUSH1 0x1 PUSH1 0xA0 SHL SUB NOT SWAP1 DUP2 AND SWAP1 SWAP2 SSTORE PUSH1 0x1 PUSH1 0x1 PUSH1 0xA0 SHL SUB DUP8 DUP2 AND DUP1 DUP7 MSTORE PUSH1 0x3 DUP6 MSTORE DUP4 DUP7 KECCAK256 DUP1 SLOAD PUSH1 0x0 NOT ADD SWAP1 SSTORE SWAP1 DUP8 AND DUP1 DUP7 MSTORE DUP4 DUP7 KECCAK256 DUP1 SLOAD PUSH1 0x1 ADD SWAP1 SSTORE DUP7 DUP7 MSTORE PUSH1 0x2 SWAP1 SWAP5 MSTORE DUP3 DUP6 KECCAK256 DUP1 SLOAD SWAP1 SWAP3 AND DUP5 OR SWAP1 SWAP2 SSTORE SWAP1 MLOAD DUP5 SWAP4 PUSH32 0xDDF252AD1BE2C89B69C2B068FC378DAA952BA7F163C4A11628F55A4DF523B3EF SWAP2 LOG4 POP POP POP JUMP JUMPDEST PUSH1 0x0 DUP2 DUP2 MSTORE PUSH1 0x12 PUSH1 0x20 MSTORE PUSH1 0x40 DUP2 KECCAK256 PUSH1 0xE DUP2 ADD SLOAD SWAP1 SWAP2 SWAP1 PUSH2 0x25AE SWAP1 TIMESTAMP PUSH2 0x3E20 JUMP JUMPDEST SWAP1 POP PUSH1 0x0 PUSH1 0x10 SLOAD DUP3 PUSH2 0x25C0 SWAP2 SWAP1 PUSH2 0x3F8E JUMP JUMPDEST SWAP1 POP DUP1 ISZERO PUSH2 0x135D JUMPI PUSH1 0xC SLOAD PUSH1 0x40 MLOAD PUSH4 0xBFECD1A7 PUSH1 0xE0 SHL DUP2 MSTORE PUSH1 0x0 SWAP2 PUSH1 0x1 PUSH1 0x1 PUSH1 0xA0 SHL SUB AND SWAP1 PUSH4 0xBFECD1A7 SWAP1 PUSH2 0x25FE SWAP1 PUSH1 0x6 DUP9 ADD SWAP1 DUP7 SWAP1 PUSH1 0x4 ADD PUSH2 0x4237 JUMP JUMPDEST PUSH1 0xC0 PUSH1 0x40 MLOAD DUP1 DUP4 SUB DUP2 DUP7 GAS STATICCALL ISZERO DUP1 ISZERO PUSH2 0x261B JUMPI RETURNDATASIZE PUSH1 0x0 DUP1 RETURNDATACOPY RETURNDATASIZE PUSH1 0x0 REVERT JUMPDEST POP POP POP POP PUSH1 0x40 MLOAD RETURNDATASIZE PUSH1 0x1F NOT PUSH1 0x1F DUP3 ADD AND DUP3 ADD DUP1 PUSH1 0x40 MSTORE POP DUP2 ADD SWAP1 PUSH2 0x263F SWAP2 SWAP1 PUSH2 0x424A JUMP JUMPDEST SWAP1 POP DUP1 PUSH1 0x0 ADD MLOAD DUP5 PUSH1 0x8 ADD PUSH1 0x0 ADD PUSH1 0x0 DUP3 DUP3 SLOAD PUSH2 0x265C SWAP2 SWAP1 PUSH2 0x3D67 JUMP JUMPDEST SWAP1 SWAP2 SSTORE POP POP PUSH1 0x20 DUP2 ADD MLOAD PUSH1 0x9 DUP6 ADD DUP1 SLOAD PUSH1 0x0 SWAP1 PUSH2 0x267A SWAP1 DUP5 SWAP1 PUSH2 0x3D67 JUMP JUMPDEST SWAP1 SWAP2 SSTORE POP POP PUSH1 0x40 DUP2 ADD MLOAD PUSH1 0xA DUP6 ADD DUP1 SLOAD PUSH1 0x0 SWAP1 PUSH2 0x2698 SWAP1 DUP5 SWAP1 PUSH2 0x3D67 JUMP JUMPDEST SWAP1 SWAP2 SSTORE POP POP PUSH1 0x60 DUP2 ADD MLOAD PUSH1 0xB DUP6 ADD DUP1 SLOAD PUSH1 0x0 SWAP1 PUSH2 0x26B6 SWAP1 DUP5 SWAP1 PUSH2 0x3D67 JUMP JUMPDEST SWAP1 SWAP2 SSTORE POP POP PUSH1 0x80 DUP2 ADD MLOAD PUSH1 0xC DUP6 ADD DUP1 SLOAD PUSH1 0x0 SWAP1 PUSH2 0x26D4 SWAP1 DUP5 SWAP1 PUSH2 0x3D67 JUMP JUMPDEST SWAP1 SWAP2 SSTORE POP POP PUSH1 0xA0 DUP2 ADD MLOAD PUSH1 0xD DUP6 ADD DUP1 SLOAD PUSH1 0x0 SWAP1 PUSH2 0x26F2 SWAP1 DUP5 SWAP1 PUSH2 0x3D67 JUMP JUMPDEST SWAP1 SWAP2 SSTORE POP PUSH2 0x2701 SWAP1 POP DUP6 PUSH2 0x2B9C JUMP JUMPDEST PUSH1 0x10 SLOAD PUSH2 0x270E SWAP1 DUP4 PUSH2 0x3F77 JUMP JUMPDEST DUP5 PUSH1 0xE ADD PUSH1 0x0 DUP3 DUP3 SLOAD PUSH2 0x2721 SWAP2 SWAP1 PUSH2 0x3D67 JUMP JUMPDEST SWAP1 SWAP2 SSTORE POP POP POP POP POP POP POP JUMP JUMPDEST DUP1 MLOAD DUP3 MLOAD PUSH1 0x0 SWAP2 GT DUP1 ISZERO SWAP1 PUSH2 0x274A JUMPI POP DUP2 PUSH1 0x20 ADD MLOAD DUP4 PUSH1 0x20 ADD MLOAD LT ISZERO JUMPDEST DUP1 ISZERO PUSH2 0x275E JUMPI POP DUP2 PUSH1 0x40 ADD MLOAD DUP4 PUSH1 0x40 ADD MLOAD LT ISZERO JUMPDEST DUP1 ISZERO PUSH2 0x2772 JUMPI POP DUP2 PUSH1 0x60 ADD MLOAD DUP4 PUSH1 0x60 ADD MLOAD LT ISZERO JUMPDEST DUP1 ISZERO PUSH2 0x2786 JUMPI POP DUP2 PUSH1 0x80 ADD MLOAD DUP4 PUSH1 0x80 ADD MLOAD LT ISZERO JUMPDEST DUP1 ISZERO PUSH2 0x203B JUMPI POP POP PUSH1 0xA0 SWAP1 DUP2 ADD MLOAD SWAP2 ADD MLOAD LT ISZERO SWAP1 JUMP JUMPDEST DUP1 MLOAD DUP3 SLOAD DUP4 SWAP1 PUSH1 0x0 SWAP1 PUSH2 0x27B0 SWAP1 DUP5 SWAP1 PUSH2 0x3E20 JUMP JUMPDEST SWAP1 SWAP2 SSTORE POP POP PUSH1 0x20 DUP2 ADD MLOAD PUSH1 0x1 DUP4 ADD DUP1 SLOAD PUSH1 0x0 SWAP1 PUSH2 0x27CE SWAP1 DUP5 SWAP1 PUSH2 0x3E20 JUMP JUMPDEST SWAP1 SWAP2 SSTORE POP POP PUSH1 0x40 DUP2 ADD MLOAD PUSH1 0x2 DUP4 ADD DUP1 SLOAD PUSH1 0x0 SWAP1 PUSH2 0x27EC SWAP1 DUP5 SWAP1 PUSH2 0x3E20 JUMP JUMPDEST SWAP1 SWAP2 SSTORE POP POP PUSH1 0x60 DUP2 ADD MLOAD PUSH1 0x3 DUP4 ADD DUP1 SLOAD PUSH1 0x0 SWAP1 PUSH2 0x280A SWAP1 DUP5 SWAP1 PUSH2 0x3E20 JUMP JUMPDEST SWAP1 SWAP2 SSTORE POP POP PUSH1 0x80 DUP2 ADD MLOAD PUSH1 0x4 DUP4 ADD DUP1 SLOAD PUSH1 0x0 SWAP1 PUSH2 0x2828 SWAP1 DUP5 SWAP1 PUSH2 0x3E20 JUMP JUMPDEST SWAP1 SWAP2 SSTORE POP POP PUSH1 0xA0 DUP2 ADD MLOAD PUSH1 0x5 DUP4 ADD DUP1 SLOAD PUSH1 0x0 SWAP1 PUSH2 0x2846 SWAP1 DUP5 SWAP1 PUSH2 0x3E20 JUMP JUMPDEST SWAP1 SWAP2 SSTORE POP POP POP POP JUMP JUMPDEST PUSH1 0xA DUP1 SLOAD PUSH1 0x1 PUSH1 0x1 PUSH1 0xA0 SHL SUB DUP4 DUP2 AND PUSH1 0x1 PUSH1 0x1 PUSH1 0xA0 SHL SUB NOT DUP4 AND DUP2 OR SWAP1 SWAP4 SSTORE PUSH1 0x40 MLOAD SWAP2 AND SWAP2 SWAP1 DUP3 SWAP1 PUSH32 0x8BE0079C531659141344CD1FD0A4F28419497F9722A3DAAFE3B4186F6B6457E0 SWAP1 PUSH1 0x0 SWAP1 LOG3 POP POP JUMP JUMPDEST DUP2 PUSH1 0x1 PUSH1 0x1 PUSH1 0xA0 SHL SUB AND DUP4 PUSH1 0x1 PUSH1 0x1 PUSH1 0xA0 SHL SUB AND SUB PUSH2 0x2902 JUMPI PUSH1 0x40 MLOAD PUSH3 0x461BCD PUSH1 0xE5 SHL DUP2 MSTORE PUSH1 0x20 PUSH1 0x4 DUP3 ADD MSTORE PUSH1 0x19 PUSH1 0x24 DUP3 ADD MSTORE PUSH32 0x4552433732313A20617070726F766520746F2063616C6C657200000000000000 PUSH1 0x44 DUP3 ADD MSTORE PUSH1 0x64 ADD PUSH2 0x6E8 JUMP JUMPDEST PUSH1 0x1 PUSH1 0x1 PUSH1 0xA0 SHL SUB DUP4 DUP2 AND PUSH1 0x0 DUP2 DUP2 MSTORE PUSH1 0x5 PUSH1 0x20 SWAP1 DUP2 MSTORE PUSH1 0x40 DUP1 DUP4 KECCAK256 SWAP5 DUP8 AND DUP1 DUP5 MSTORE SWAP5 DUP3 MSTORE SWAP2 DUP3 SWAP1 KECCAK256 DUP1 SLOAD PUSH1 0xFF NOT AND DUP7 ISZERO ISZERO SWAP1 DUP2 OR SWAP1 SWAP2 SSTORE SWAP2 MLOAD SWAP2 DUP3 MSTORE PUSH32 0x17307EAB39AB6107E8899845AD3D59BD9653F200F220920489CA2B5937696C31 SWAP2 ADD PUSH1 0x40 MLOAD DUP1 SWAP2 SUB SWAP1 LOG3 POP POP POP JUMP JUMPDEST PUSH2 0x297A DUP5 DUP5 DUP5 PUSH2 0x241D JUMP JUMPDEST PUSH2 0x2986 DUP5 DUP5 DUP5 DUP5 PUSH2 0x2D64 JUMP JUMPDEST PUSH2 0x135D JUMPI PUSH1 0x40 MLOAD PUSH3 0x461BCD PUSH1 0xE5 SHL DUP2 MSTORE PUSH1 0x4 ADD PUSH2 0x6E8 SWAP1 PUSH2 0x4266 JUMP JUMPDEST PUSH1 0x60 PUSH1 0x0 PUSH2 0x29AF DUP4 PUSH2 0x2E65 JUMP JUMPDEST PUSH1 0x1 ADD SWAP1 POP PUSH1 0x0 DUP2 PUSH8 0xFFFFFFFFFFFFFFFF DUP2 GT ISZERO PUSH2 0x29CF JUMPI PUSH2 0x29CF PUSH2 0x3663 JUMP JUMPDEST PUSH1 0x40 MLOAD SWAP1 DUP1 DUP3 MSTORE DUP1 PUSH1 0x1F ADD PUSH1 0x1F NOT AND PUSH1 0x20 ADD DUP3 ADD PUSH1 0x40 MSTORE DUP1 ISZERO PUSH2 0x29F9 JUMPI PUSH1 0x20 DUP3 ADD DUP2 DUP1 CALLDATASIZE DUP4 CALLDATACOPY ADD SWAP1 POP JUMPDEST POP SWAP1 POP DUP2 DUP2 ADD PUSH1 0x20 ADD JUMPDEST PUSH1 0x0 NOT ADD PUSH16 0x181899199A1A9B1B9C1CB0B131B232B3 PUSH1 0x81 SHL PUSH1 0xA DUP7 MOD BYTE DUP2 MSTORE8 PUSH1 0xA DUP6 DIV SWAP5 POP DUP5 PUSH2 0x2A03 JUMPI POP SWAP4 SWAP3 POP POP POP JUMP JUMPDEST PUSH2 0x2A3F DUP4 DUP4 PUSH2 0x2F3D JUMP JUMPDEST PUSH2 0x2A4C PUSH1 0x0 DUP5 DUP5 DUP5 PUSH2 0x2D64 JUMP JUMPDEST PUSH2 0x1473 JUMPI PUSH1 0x40 MLOAD PUSH3 0x461BCD PUSH1 0xE5 SHL DUP2 MSTORE PUSH1 0x4 ADD PUSH2 0x6E8 SWAP1 PUSH2 0x4266 JUMP JUMPDEST PUSH1 0x1 DUP2 GT ISZERO PUSH2 0x2AD7 JUMPI PUSH1 0x40 MLOAD PUSH3 0x461BCD PUSH1 0xE5 SHL DUP2 MSTORE PUSH1 0x20 PUSH1 0x4 DUP3 ADD MSTORE PUSH1 0x35 PUSH1 0x24 DUP3 ADD MSTORE PUSH32 0x455243373231456E756D657261626C653A20636F6E7365637574697665207472 PUSH1 0x44 DUP3 ADD MSTORE PUSH21 0x185B9CD9995C9CC81B9BDD081CDD5C1C1BDC9D1959 PUSH1 0x5A SHL PUSH1 0x64 DUP3 ADD MSTORE PUSH1 0x84 ADD PUSH2 0x6E8 JUMP JUMPDEST DUP2 PUSH1 0x1 PUSH1 0x1 PUSH1 0xA0 SHL SUB DUP6 AND PUSH2 0x2B33 JUMPI PUSH2 0x2B2E DUP2 PUSH1 0x8 DUP1 SLOAD PUSH1 0x0 DUP4 DUP2 MSTORE PUSH1 0x9 PUSH1 0x20 MSTORE PUSH1 0x40 DUP2 KECCAK256 DUP3 SWAP1 SSTORE PUSH1 0x1 DUP3 ADD DUP4 SSTORE SWAP2 SWAP1 SWAP2 MSTORE PUSH32 0xF3F7A9FE364FAAB93B216DA50A3214154F22A0A2B415B23A84C8169E8B636EE3 ADD SSTORE JUMP JUMPDEST PUSH2 0x2B56 JUMP JUMPDEST DUP4 PUSH1 0x1 PUSH1 0x1 PUSH1 0xA0 SHL SUB AND DUP6 PUSH1 0x1 PUSH1 0x1 PUSH1 0xA0 SHL SUB AND EQ PUSH2 0x2B56 JUMPI PUSH2 0x2B56 DUP6 DUP3 PUSH2 0x30B8 JUMP JUMPDEST PUSH1 0x1 PUSH1 0x1 PUSH1 0xA0 SHL SUB DUP5 AND PUSH2 0x2B72 JUMPI PUSH2 0x2B6D DUP2 PUSH2 0x3155 JUMP JUMPDEST PUSH2 0x2B95 JUMP JUMPDEST DUP5 PUSH1 0x1 PUSH1 0x1 PUSH1 0xA0 SHL SUB AND DUP5 PUSH1 0x1 PUSH1 0x1 PUSH1 0xA0 SHL SUB AND EQ PUSH2 0x2B95 JUMPI PUSH2 0x2B95 DUP5 DUP3 PUSH2 0x3204 JUMP JUMPDEST POP POP POP POP POP JUMP JUMPDEST PUSH1 0x0 DUP2 DUP2 MSTORE PUSH1 0x12 PUSH1 0x20 MSTORE PUSH1 0x40 DUP2 KECCAK256 SWAP1 JUMPDEST PUSH1 0x6 DUP3 ADD SLOAD DUP2 LT ISZERO PUSH2 0x1473 JUMPI PUSH1 0x0 DUP3 PUSH1 0x6 ADD DUP3 DUP2 SLOAD DUP2 LT PUSH2 0x2BCF JUMPI PUSH2 0x2BCF PUSH2 0x3A53 JUMP JUMPDEST PUSH1 0x0 SWAP2 DUP3 MSTORE PUSH1 0x20 SWAP1 SWAP2 KECCAK256 PUSH1 0x3 SWAP1 SWAP2 MUL ADD PUSH1 0x2 DUP2 ADD SLOAD SWAP1 SWAP2 POP PUSH1 0xFF AND ISZERO PUSH2 0x2D51 JUMPI PUSH1 0xC SLOAD PUSH1 0x1 DUP3 ADD SLOAD PUSH1 0x40 MLOAD PUSH4 0x244D87AD PUSH1 0xE1 SHL DUP2 MSTORE PUSH1 0x0 SWAP3 PUSH1 0x1 PUSH1 0x1 PUSH1 0xA0 SHL SUB AND SWAP2 PUSH4 0x489B0F5A SWAP2 PUSH2 0x2C25 SWAP2 DUP7 SWAP2 PUSH1 0x4 ADD PUSH2 0x42B8 JUMP JUMPDEST PUSH1 0x0 PUSH1 0x40 MLOAD DUP1 DUP4 SUB DUP2 DUP7 GAS STATICCALL ISZERO DUP1 ISZERO PUSH2 0x2C42 JUMPI RETURNDATASIZE PUSH1 0x0 DUP1 RETURNDATACOPY RETURNDATASIZE PUSH1 0x0 REVERT JUMPDEST POP POP POP POP PUSH1 0x40 MLOAD RETURNDATASIZE PUSH1 0x0 DUP3 RETURNDATACOPY PUSH1 0x1F RETURNDATASIZE SWAP1 DUP2 ADD PUSH1 0x1F NOT AND DUP3 ADD PUSH1 0x40 MSTORE PUSH2 0x2C6A SWAP2 SWAP1 DUP2 ADD SWAP1 PUSH2 0x3C5E JUMP JUMPDEST SWAP1 POP PUSH1 0x0 DUP2 PUSH1 0x60 ADD MLOAD SWAP1 POP PUSH1 0x0 PUSH2 0x2CCB DUP7 PUSH1 0x8 ADD PUSH1 0x40 MLOAD DUP1 PUSH1 0xC0 ADD PUSH1 0x40 MSTORE SWAP1 DUP2 PUSH1 0x0 DUP3 ADD SLOAD DUP2 MSTORE PUSH1 0x20 ADD PUSH1 0x1 DUP3 ADD SLOAD DUP2 MSTORE PUSH1 0x20 ADD PUSH1 0x2 DUP3 ADD SLOAD DUP2 MSTORE PUSH1 0x20 ADD PUSH1 0x3 DUP3 ADD SLOAD DUP2 MSTORE PUSH1 0x20 ADD PUSH1 0x4 DUP3 ADD SLOAD DUP2 MSTORE PUSH1 0x20 ADD PUSH1 0x5 DUP3 ADD SLOAD DUP2 MSTORE POP POP DUP4 PUSH2 0x272D JUMP JUMPDEST SWAP1 POP DUP1 ISZERO PUSH2 0x2CE5 JUMPI PUSH2 0x2CE0 DUP7 PUSH1 0x8 ADD DUP4 PUSH2 0x279C JUMP JUMPDEST PUSH2 0x2D4D JUMP JUMPDEST PUSH1 0x2 DUP5 ADD DUP1 SLOAD PUSH1 0xFF NOT AND SWAP1 SSTORE PUSH1 0x80 DUP4 ADD MLOAD PUSH1 0x1 DUP8 ADD DUP1 SLOAD PUSH1 0x0 SWAP1 PUSH2 0x2D0A SWAP1 DUP5 SWAP1 PUSH2 0x3E20 JUMP JUMPDEST SWAP1 SWAP2 SSTORE POP POP PUSH1 0xA0 DUP4 ADD MLOAD PUSH1 0x2 DUP8 ADD DUP1 SLOAD PUSH1 0x0 SWAP1 PUSH2 0x2D28 SWAP1 DUP5 SWAP1 PUSH2 0x3E20 JUMP JUMPDEST SWAP1 SWAP2 SSTORE POP POP PUSH2 0x100 DUP4 ADD MLOAD PUSH1 0x5 DUP8 ADD DUP1 SLOAD PUSH1 0x0 SWAP1 PUSH2 0x2D47 SWAP1 DUP5 SWAP1 PUSH2 0x3E20 JUMP JUMPDEST SWAP1 SWAP2 SSTORE POP POP JUMPDEST POP POP POP JUMPDEST POP DUP1 PUSH2 0x2D5C DUP2 PUSH2 0x3933 JUMP JUMPDEST SWAP2 POP POP PUSH2 0x2BAC JUMP JUMPDEST PUSH1 0x0 PUSH1 0x1 PUSH1 0x1 PUSH1 0xA0 SHL SUB DUP5 AND EXTCODESIZE ISZERO PUSH2 0x2E5A JUMPI PUSH1 0x40 MLOAD PUSH4 0xA85BD01 PUSH1 0xE1 SHL DUP2 MSTORE PUSH1 0x1 PUSH1 0x1 PUSH1 0xA0 SHL SUB DUP6 AND SWAP1 PUSH4 0x150B7A02 SWAP1 PUSH2 0x2DA8 SWAP1 CALLER SWAP1 DUP10 SWAP1 DUP9 SWAP1 DUP9 SWAP1 PUSH1 0x4 ADD PUSH2 0x42CB JUMP JUMPDEST PUSH1 0x20 PUSH1 0x40 MLOAD DUP1 DUP4 SUB DUP2 PUSH1 0x0 DUP8 GAS CALL SWAP3 POP POP POP DUP1 ISZERO PUSH2 0x2DE3 JUMPI POP PUSH1 0x40 DUP1 MLOAD PUSH1 0x1F RETURNDATASIZE SWAP1 DUP2 ADD PUSH1 0x1F NOT AND DUP3 ADD SWAP1 SWAP3 MSTORE PUSH2 0x2DE0 SWAP2 DUP2 ADD SWAP1 PUSH2 0x4308 JUMP JUMPDEST PUSH1 0x1 JUMPDEST PUSH2 0x2E40 JUMPI RETURNDATASIZE DUP1 DUP1 ISZERO PUSH2 0x2E11 JUMPI PUSH1 0x40 MLOAD SWAP2 POP PUSH1 0x1F NOT PUSH1 0x3F RETURNDATASIZE ADD AND DUP3 ADD PUSH1 0x40 MSTORE RETURNDATASIZE DUP3 MSTORE RETURNDATASIZE PUSH1 0x0 PUSH1 0x20 DUP5 ADD RETURNDATACOPY PUSH2 0x2E16 JUMP JUMPDEST PUSH1 0x60 SWAP2 POP JUMPDEST POP DUP1 MLOAD PUSH1 0x0 SUB PUSH2 0x2E38 JUMPI PUSH1 0x40 MLOAD PUSH3 0x461BCD PUSH1 0xE5 SHL DUP2 MSTORE PUSH1 0x4 ADD PUSH2 0x6E8 SWAP1 PUSH2 0x4266 JUMP JUMPDEST DUP1 MLOAD DUP2 PUSH1 0x20 ADD REVERT JUMPDEST PUSH1 0x1 PUSH1 0x1 PUSH1 0xE0 SHL SUB NOT AND PUSH4 0xA85BD01 PUSH1 0xE1 SHL EQ SWAP1 POP PUSH2 0x2415 JUMP JUMPDEST POP PUSH1 0x1 SWAP5 SWAP4 POP POP POP POP JUMP JUMPDEST PUSH1 0x0 DUP1 PUSH19 0x184F03E93FF9F4DAA797ED6E38ED64BF6A1F01 PUSH1 0x40 SHL DUP4 LT PUSH2 0x2EA4 JUMPI PUSH19 0x184F03E93FF9F4DAA797ED6E38ED64BF6A1F01 PUSH1 0x40 SHL DUP4 DIV SWAP3 POP PUSH1 0x40 ADD JUMPDEST PUSH14 0x4EE2D6D415B85ACEF8100000000 DUP4 LT PUSH2 0x2ED0 JUMPI PUSH14 0x4EE2D6D415B85ACEF8100000000 DUP4 DIV SWAP3 POP PUSH1 0x20 ADD JUMPDEST PUSH7 0x2386F26FC10000 DUP4 LT PUSH2 0x2EEE JUMPI PUSH7 0x2386F26FC10000 DUP4 DIV SWAP3 POP PUSH1 0x10 ADD JUMPDEST PUSH4 0x5F5E100 DUP4 LT PUSH2 0x2F06 JUMPI PUSH4 0x5F5E100 DUP4 DIV SWAP3 POP PUSH1 0x8 ADD JUMPDEST PUSH2 0x2710 DUP4 LT PUSH2 0x2F1A JUMPI PUSH2 0x2710 DUP4 DIV SWAP3 POP PUSH1 0x4 ADD JUMPDEST PUSH1 0x64 DUP4 LT PUSH2 0x2F2C JUMPI PUSH1 0x64 DUP4 DIV SWAP3 POP PUSH1 0x2 ADD JUMPDEST PUSH1 0xA DUP4 LT PUSH2 0x9DD JUMPI PUSH1 0x1 ADD SWAP3 SWAP2 POP POP JUMP JUMPDEST PUSH1 0x1 PUSH1 0x1 PUSH1 0xA0 SHL SUB DUP3 AND PUSH2 0x2F93 JUMPI PUSH1 0x40 MLOAD PUSH3 0x461BCD PUSH1 0xE5 SHL DUP2 MSTORE PUSH1 0x20 PUSH1 0x4 DUP3 ADD DUP2 SWAP1 MSTORE PUSH1 0x24 DUP3 ADD MSTORE PUSH32 0x4552433732313A206D696E7420746F20746865207A65726F2061646472657373 PUSH1 0x44 DUP3 ADD MSTORE PUSH1 0x64 ADD PUSH2 0x6E8 JUMP JUMPDEST PUSH2 0x2F9C DUP2 PUSH2 0x20C5 JUMP JUMPDEST ISZERO PUSH2 0x2FE9 JUMPI PUSH1 0x40 MLOAD PUSH3 0x461BCD PUSH1 0xE5 SHL DUP2 MSTORE PUSH1 0x20 PUSH1 0x4 DUP3 ADD MSTORE PUSH1 0x1C PUSH1 0x24 DUP3 ADD MSTORE PUSH32 0x4552433732313A20746F6B656E20616C7265616479206D696E74656400000000 PUSH1 0x44 DUP3 ADD MSTORE PUSH1 0x64 ADD PUSH2 0x6E8 JUMP JUMPDEST PUSH2 0x2FF7 PUSH1 0x0 DUP4 DUP4 PUSH1 0x1 PUSH2 0x2A68 JUMP JUMPDEST PUSH2 0x3000 DUP2 PUSH2 0x20C5 JUMP JUMPDEST ISZERO PUSH2 0x304D JUMPI PUSH1 0x40 MLOAD PUSH3 0x461BCD PUSH1 0xE5 SHL DUP2 MSTORE PUSH1 0x20 PUSH1 0x4 DUP3 ADD MSTORE PUSH1 0x1C PUSH1 0x24 DUP3 ADD MSTORE PUSH32 0x4552433732313A20746F6B656E20616C7265616479206D696E74656400000000 PUSH1 0x44 DUP3 ADD MSTORE PUSH1 0x64 ADD PUSH2 0x6E8 JUMP JUMPDEST PUSH1 0x1 PUSH1 0x1 PUSH1 0xA0 SHL SUB DUP3 AND PUSH1 0x0 DUP2 DUP2 MSTORE PUSH1 0x3 PUSH1 0x20 SWAP1 DUP2 MSTORE PUSH1 0x40 DUP1 DUP4 KECCAK256 DUP1 SLOAD PUSH1 0x1 ADD SWAP1 SSTORE DUP5 DUP4 MSTORE PUSH1 0x2 SWAP1 SWAP2 MSTORE DUP1 DUP3 KECCAK256 DUP1 SLOAD PUSH1 0x1 PUSH1 0x1 PUSH1 0xA0 SHL SUB NOT AND DUP5 OR SWAP1 SSTORE MLOAD DUP4 SWAP3 SWAP2 SWAP1 PUSH32 0xDDF252AD1BE2C89B69C2B068FC378DAA952BA7F163C4A11628F55A4DF523B3EF SWAP1 DUP3 SWAP1 LOG4 POP POP JUMP JUMPDEST PUSH1 0x0 PUSH1 0x1 PUSH2 0x30C5 DUP5 PUSH2 0x1DE4 JUMP JUMPDEST PUSH2 0x30CF SWAP2 SWAP1 PUSH2 0x3E20 JUMP JUMPDEST PUSH1 0x0 DUP4 DUP2 MSTORE PUSH1 0x7 PUSH1 0x20 MSTORE PUSH1 0x40 SWAP1 KECCAK256 SLOAD SWAP1 SWAP2 POP DUP1 DUP3 EQ PUSH2 0x3122 JUMPI PUSH1 0x1 PUSH1 0x1 PUSH1 0xA0 SHL SUB DUP5 AND PUSH1 0x0 SWAP1 DUP2 MSTORE PUSH1 0x6 PUSH1 0x20 SWAP1 DUP2 MSTORE PUSH1 0x40 DUP1 DUP4 KECCAK256 DUP6 DUP5 MSTORE DUP3 MSTORE DUP1 DUP4 KECCAK256 SLOAD DUP5 DUP5 MSTORE DUP2 DUP5 KECCAK256 DUP2 SWAP1 SSTORE DUP4 MSTORE PUSH1 0x7 SWAP1 SWAP2 MSTORE SWAP1 KECCAK256 DUP2 SWAP1 SSTORE JUMPDEST POP PUSH1 0x0 SWAP2 DUP3 MSTORE PUSH1 0x7 PUSH1 0x20 SWAP1 DUP2 MSTORE PUSH1 0x40 DUP1 DUP5 KECCAK256 DUP5 SWAP1 SSTORE PUSH1 0x1 PUSH1 0x1 PUSH1 0xA0 SHL SUB SWAP1 SWAP5 AND DUP4 MSTORE PUSH1 0x6 DUP2 MSTORE DUP4 DUP4 KECCAK256 SWAP2 DUP4 MSTORE MSTORE SWAP1 DUP2 KECCAK256 SSTORE JUMP JUMPDEST PUSH1 0x8 SLOAD PUSH1 0x0 SWAP1 PUSH2 0x3167 SWAP1 PUSH1 0x1 SWAP1 PUSH2 0x3E20 JUMP JUMPDEST PUSH1 0x0 DUP4 DUP2 MSTORE PUSH1 0x9 PUSH1 0x20 MSTORE PUSH1 0x40 DUP2 KECCAK256 SLOAD PUSH1 0x8 DUP1 SLOAD SWAP4 SWAP5 POP SWAP1 SWAP3 DUP5 SWAP1 DUP2 LT PUSH2 0x318F JUMPI PUSH2 0x318F PUSH2 0x3A53 JUMP JUMPDEST SWAP1 PUSH1 0x0 MSTORE PUSH1 0x20 PUSH1 0x0 KECCAK256 ADD SLOAD SWAP1 POP DUP1 PUSH1 0x8 DUP4 DUP2 SLOAD DUP2 LT PUSH2 0x31B0 JUMPI PUSH2 0x31B0 PUSH2 0x3A53 JUMP JUMPDEST PUSH1 0x0 SWAP2 DUP3 MSTORE PUSH1 0x20 DUP1 DUP4 KECCAK256 SWAP1 SWAP2 ADD SWAP3 SWAP1 SWAP3 SSTORE DUP3 DUP2 MSTORE PUSH1 0x9 SWAP1 SWAP2 MSTORE PUSH1 0x40 DUP1 DUP3 KECCAK256 DUP5 SWAP1 SSTORE DUP6 DUP3 MSTORE DUP2 KECCAK256 SSTORE PUSH1 0x8 DUP1 SLOAD DUP1 PUSH2 0x31E8 JUMPI PUSH2 0x31E8 PUSH2 0x3F06 JUMP JUMPDEST PUSH1 0x1 SWAP1 SUB DUP2 DUP2 SWAP1 PUSH1 0x0 MSTORE PUSH1 0x20 PUSH1 0x0 KECCAK256 ADD PUSH1 0x0 SWAP1 SSTORE SWAP1 SSTORE POP POP POP POP JUMP JUMPDEST PUSH1 0x0 PUSH2 0x320F DUP4 PUSH2 0x1DE4 JUMP JUMPDEST PUSH1 0x1 PUSH1 0x1 PUSH1 0xA0 SHL SUB SWAP1 SWAP4 AND PUSH1 0x0 SWAP1 DUP2 MSTORE PUSH1 0x6 PUSH1 0x20 SWAP1 DUP2 MSTORE PUSH1 0x40 DUP1 DUP4 KECCAK256 DUP7 DUP5 MSTORE DUP3 MSTORE DUP1 DUP4 KECCAK256 DUP6 SWAP1 SSTORE SWAP4 DUP3 MSTORE PUSH1 0x7 SWAP1 MSTORE SWAP2 SWAP1 SWAP2 KECCAK256 SWAP2 SWAP1 SWAP2 SSTORE POP JUMP JUMPDEST PUSH1 0x40 MLOAD DUP1 PUSH2 0x140 ADD PUSH1 0x40 MSTORE DUP1 PUSH1 0x0 DUP2 MSTORE PUSH1 0x20 ADD PUSH1 0x0 DUP2 MSTORE PUSH1 0x20 ADD PUSH1 0x0 DUP2 MSTORE PUSH1 0x20 ADD PUSH1 0x0 DUP2 MSTORE PUSH1 0x20 ADD PUSH1 0x0 DUP2 MSTORE PUSH1 0x20 ADD PUSH1 0x0 DUP2 MSTORE PUSH1 0x20 ADD PUSH1 0x60 DUP2 MSTORE PUSH1 0x20 ADD PUSH1 0x60 DUP2 MSTORE PUSH1 0x20 ADD PUSH2 0x32C5 PUSH1 0x40 MLOAD DUP1 PUSH1 0xC0 ADD PUSH1 0x40 MSTORE DUP1 PUSH1 0x0 DUP2 MSTORE PUSH1 0x20 ADD PUSH1 0x0 DUP2 MSTORE PUSH1 0x20 ADD PUSH1 0x0 DUP2 MSTORE PUSH1 0x20 ADD PUSH1 0x0 DUP2 MSTORE PUSH1 0x20 ADD PUSH1 0x0 DUP2 MSTORE PUSH1 0x20 ADD PUSH1 0x0 DUP2 MSTORE POP SWAP1 JUMP JUMPDEST DUP2 MSTORE PUSH1 0x20 ADD PUSH1 0x0 DUP2 MSTORE POP SWAP1 JUMP JUMPDEST POP DUP1 SLOAD PUSH2 0x32DE SWAP1 PUSH2 0x38E3 JUMP JUMPDEST PUSH1 0x0 DUP3 SSTORE DUP1 PUSH1 0x1F LT PUSH2 0x32EE JUMPI POP POP JUMP JUMPDEST PUSH1 0x1F ADD PUSH1 0x20 SWAP1 DIV SWAP1 PUSH1 0x0 MSTORE PUSH1 0x20 PUSH1 0x0 KECCAK256 SWAP1 DUP2 ADD SWAP1 PUSH2 0x14E8 SWAP2 SWAP1 JUMPDEST DUP1 DUP3 GT ISZERO PUSH2 0x331C JUMPI PUSH1 0x0 DUP2 SSTORE PUSH1 0x1 ADD PUSH2 0x3308 JUMP JUMPDEST POP SWAP1 JUMP JUMPDEST PUSH1 0x0 PUSH1 0x20 DUP3 DUP5 SUB SLT ISZERO PUSH2 0x3332 JUMPI PUSH1 0x0 DUP1 REVERT JUMPDEST POP CALLDATALOAD SWAP2 SWAP1 POP JUMP JUMPDEST PUSH1 0x0 JUMPDEST DUP4 DUP2 LT ISZERO PUSH2 0x3354 JUMPI DUP2 DUP2 ADD MLOAD DUP4 DUP3 ADD MSTORE PUSH1 0x20 ADD PUSH2 0x333C JUMP JUMPDEST POP POP PUSH1 0x0 SWAP2 ADD MSTORE JUMP JUMPDEST PUSH1 0x0 DUP2 MLOAD DUP1 DUP5 MSTORE PUSH2 0x3375 DUP2 PUSH1 0x20 DUP7 ADD PUSH1 0x20 DUP7 ADD PUSH2 0x3339 JUMP JUMPDEST PUSH1 0x1F ADD PUSH1 0x1F NOT AND SWAP3 SWAP1 SWAP3 ADD PUSH1 0x20 ADD SWAP3 SWAP2 POP POP JUMP JUMPDEST PUSH1 0x0 DUP3 DUP3 MLOAD DUP1 DUP6 MSTORE PUSH1 0x20 DUP1 DUP7 ADD SWAP6 POP DUP1 DUP3 PUSH1 0x5 SHL DUP5 ADD ADD DUP2 DUP7 ADD PUSH1 0x0 JUMPDEST DUP5 DUP2 LT ISZERO PUSH2 0x33F6 JUMPI PUSH1 0x1F NOT DUP7 DUP5 SUB ADD DUP10 MSTORE DUP2 MLOAD PUSH1 0x60 DUP2 MLOAD DUP2 DUP7 MSTORE PUSH2 0x33CC DUP3 DUP8 ADD DUP3 PUSH2 0x335D JUMP JUMPDEST DUP4 DUP9 ADD MLOAD DUP8 DUP10 ADD MSTORE PUSH1 0x40 SWAP4 DUP5 ADD MLOAD ISZERO ISZERO SWAP4 SWAP1 SWAP7 ADD SWAP3 SWAP1 SWAP3 MSTORE POP POP SWAP8 DUP4 ADD SWAP8 SWAP1 DUP4 ADD SWAP1 PUSH1 0x1 ADD PUSH2 0x33A6 JUMP JUMPDEST POP SWAP1 SWAP8 SWAP7 POP POP POP POP POP POP POP JUMP JUMPDEST PUSH1 0x0 DUP3 DUP3 MLOAD DUP1 DUP6 MSTORE PUSH1 0x20 DUP1 DUP7 ADD SWAP6 POP DUP1 DUP3 PUSH1 0x5 SHL DUP5 ADD ADD DUP2 DUP7 ADD PUSH1 0x0 JUMPDEST DUP5 DUP2 LT ISZERO PUSH2 0x33F6 JUMPI PUSH1 0x1F NOT DUP7 DUP5 SUB ADD DUP10 MSTORE DUP2 MLOAD PUSH1 0x60 DUP2 MLOAD DUP2 DUP7 MSTORE PUSH2 0x3446 DUP3 DUP8 ADD DUP3 PUSH2 0x335D JUMP JUMPDEST DUP4 DUP9 ADD MLOAD DUP8 DUP10 ADD MSTORE PUSH1 0x40 SWAP4 DUP5 ADD MLOAD SWAP4 SWAP1 SWAP7 ADD SWAP3 SWAP1 SWAP3 MSTORE POP POP SWAP8 DUP4 ADD SWAP8 SWAP1 DUP4 ADD SWAP1 PUSH1 0x1 ADD PUSH2 0x3420 JUMP JUMPDEST PUSH1 0x20 DUP2 MSTORE DUP2 MLOAD PUSH1 0x20 DUP3 ADD MSTORE PUSH1 0x20 DUP3 ADD MLOAD PUSH1 0x40 DUP3 ADD MSTORE PUSH1 0x40 DUP3 ADD MLOAD PUSH1 0x60 DUP3 ADD MSTORE PUSH1 0x60 DUP3 ADD MLOAD PUSH1 0x80 DUP3 ADD MSTORE PUSH1 0x80 DUP3 ADD MLOAD PUSH1 0xA0 DUP3 ADD MSTORE PUSH1 0xA0 DUP3 ADD MLOAD PUSH1 0xC0 DUP3 ADD MSTORE PUSH1 0x0 PUSH1 0xC0 DUP4 ADD MLOAD PUSH2 0x1E0 DUP1 PUSH1 0xE0 DUP6 ADD MSTORE PUSH2 0x34C9 PUSH2 0x200 DUP6 ADD DUP4 PUSH2 0x3389 JUMP JUMPDEST SWAP2 POP PUSH1 0xE0 DUP6 ADD MLOAD PUSH2 0x100 PUSH1 0x1F NOT DUP7 DUP6 SUB ADD DUP2 DUP8 ADD MSTORE PUSH2 0x34E8 DUP5 DUP4 PUSH2 0x3403 JUMP JUMPDEST SWAP1 DUP8 ADD MLOAD DUP1 MLOAD PUSH2 0x120 DUP9 DUP2 ADD SWAP2 SWAP1 SWAP2 MSTORE PUSH1 0x20 DUP3 ADD MLOAD PUSH2 0x140 DUP10 ADD MSTORE PUSH1 0x40 DUP3 ADD MLOAD PUSH2 0x160 DUP10 ADD MSTORE PUSH1 0x60 DUP3 ADD MLOAD PUSH2 0x180 DUP10 ADD MSTORE PUSH1 0x80 DUP3 ADD MLOAD PUSH2 0x1A0 DUP10 ADD MSTORE PUSH1 0xA0 SWAP1 SWAP2 ADD MLOAD PUSH2 0x1C0 DUP9 ADD MSTORE SWAP1 SWAP7 ADD MLOAD SWAP2 SWAP1 SWAP5 ADD MSTORE POP SWAP2 SWAP3 SWAP2 POP POP JUMP JUMPDEST PUSH1 0x1 PUSH1 0x1 PUSH1 0xE0 SHL SUB NOT DUP2 AND DUP2 EQ PUSH2 0x14E8 JUMPI PUSH1 0x0 DUP1 REVERT JUMPDEST PUSH1 0x0 PUSH1 0x20 DUP3 DUP5 SUB SLT ISZERO PUSH2 0x3569 JUMPI PUSH1 0x0 DUP1 REVERT JUMPDEST DUP2 CALLDATALOAD PUSH2 0x203B DUP2 PUSH2 0x3541 JUMP JUMPDEST DUP1 CALLDATALOAD PUSH1 0x1 PUSH1 0x1 PUSH1 0xA0 SHL SUB DUP2 AND DUP2 EQ PUSH2 0x358B JUMPI PUSH1 0x0 DUP1 REVERT JUMPDEST SWAP2 SWAP1 POP JUMP JUMPDEST PUSH1 0x0 PUSH1 0x20 DUP3 DUP5 SUB SLT ISZERO PUSH2 0x35A2 JUMPI PUSH1 0x0 DUP1 REVERT JUMPDEST PUSH2 0x203B DUP3 PUSH2 0x3574 JUMP JUMPDEST PUSH1 0x20 DUP2 MSTORE PUSH1 0x0 PUSH2 0x203B PUSH1 0x20 DUP4 ADD DUP5 PUSH2 0x335D JUMP JUMPDEST PUSH1 0x0 DUP1 PUSH1 0x0 DUP1 PUSH1 0x80 DUP6 DUP8 SUB SLT ISZERO PUSH2 0x35D4 JUMPI PUSH1 0x0 DUP1 REVERT JUMPDEST DUP5 CALLDATALOAD PUSH1 0x2 DUP2 LT PUSH2 0x35E3 JUMPI PUSH1 0x0 DUP1 REVERT JUMPDEST SWAP7 PUSH1 0x20 DUP7 ADD CALLDATALOAD SWAP7 POP PUSH1 0x40 DUP7 ADD CALLDATALOAD SWAP6 PUSH1 0x60 ADD CALLDATALOAD SWAP5 POP SWAP3 POP POP POP JUMP JUMPDEST PUSH1 0x0 DUP1 PUSH1 0x40 DUP4 DUP6 SUB SLT ISZERO PUSH2 0x3610 JUMPI PUSH1 0x0 DUP1 REVERT JUMPDEST PUSH2 0x3619 DUP4 PUSH2 0x3574 JUMP JUMPDEST SWAP5 PUSH1 0x20 SWAP4 SWAP1 SWAP4 ADD CALLDATALOAD SWAP4 POP POP POP JUMP JUMPDEST PUSH1 0x0 DUP1 PUSH1 0x0 PUSH1 0x60 DUP5 DUP7 SUB SLT ISZERO PUSH2 0x363C JUMPI PUSH1 0x0 DUP1 REVERT JUMPDEST PUSH2 0x3645 DUP5 PUSH2 0x3574 JUMP JUMPDEST SWAP3 POP PUSH2 0x3653 PUSH1 0x20 DUP6 ADD PUSH2 0x3574 JUMP JUMPDEST SWAP2 POP PUSH1 0x40 DUP5 ADD CALLDATALOAD SWAP1 POP SWAP3 POP SWAP3 POP SWAP3 JUMP JUMPDEST PUSH4 0x4E487B71 PUSH1 0xE0 SHL PUSH1 0x0 MSTORE PUSH1 0x41 PUSH1 0x4 MSTORE PUSH1 0x24 PUSH1 0x0 REVERT JUMPDEST PUSH1 0x40 DUP1 MLOAD SWAP1 DUP2 ADD PUSH8 0xFFFFFFFFFFFFFFFF DUP2 GT DUP3 DUP3 LT OR ISZERO PUSH2 0x369C JUMPI PUSH2 0x369C PUSH2 0x3663 JUMP JUMPDEST PUSH1 0x40 MSTORE SWAP1 JUMP JUMPDEST PUSH1 0x40 MLOAD PUSH2 0x180 DUP2 ADD PUSH8 0xFFFFFFFFFFFFFFFF DUP2 GT DUP3 DUP3 LT OR ISZERO PUSH2 0x369C JUMPI PUSH2 0x369C PUSH2 0x3663 JUMP JUMPDEST PUSH1 0x40 MLOAD PUSH1 0x1F DUP3 ADD PUSH1 0x1F NOT AND DUP2 ADD PUSH8 0xFFFFFFFFFFFFFFFF DUP2 GT DUP3 DUP3 LT OR ISZERO PUSH2 0x36EF JUMPI PUSH2 0x36EF PUSH2 0x3663 JUMP JUMPDEST PUSH1 0x40 MSTORE SWAP2 SWAP1 POP JUMP JUMPDEST PUSH1 0x0 PUSH8 0xFFFFFFFFFFFFFFFF DUP3 GT ISZERO PUSH2 0x3711 JUMPI PUSH2 0x3711 PUSH2 0x3663 JUMP JUMPDEST POP PUSH1 0x1F ADD PUSH1 0x1F NOT AND PUSH1 0x20 ADD SWAP1 JUMP JUMPDEST PUSH1 0x0 PUSH2 0x3732 PUSH2 0x372D DUP5 PUSH2 0x36F7 JUMP JUMPDEST PUSH2 0x36C6 JUMP JUMPDEST SWAP1 POP DUP3 DUP2 MSTORE DUP4 DUP4 DUP4 ADD GT ISZERO PUSH2 0x3746 JUMPI PUSH1 0x0 DUP1 REVERT JUMPDEST DUP3 DUP3 PUSH1 0x20 DUP4 ADD CALLDATACOPY PUSH1 0x0 PUSH1 0x20 DUP5 DUP4 ADD ADD MSTORE SWAP4 SWAP3 POP POP POP JUMP JUMPDEST PUSH1 0x0 DUP1 PUSH1 0x0 PUSH1 0x60 DUP5 DUP7 SUB SLT ISZERO PUSH2 0x3772 JUMPI PUSH1 0x0 DUP1 REVERT JUMPDEST DUP4 CALLDATALOAD SWAP3 POP PUSH1 0x20 DUP5 ADD CALLDATALOAD PUSH8 0xFFFFFFFFFFFFFFFF DUP2 GT ISZERO PUSH2 0x3790 JUMPI PUSH1 0x0 DUP1 REVERT JUMPDEST DUP5 ADD PUSH1 0x1F DUP2 ADD DUP7 SGT PUSH2 0x37A1 JUMPI PUSH1 0x0 DUP1 REVERT JUMPDEST PUSH2 0x37B0 DUP7 DUP3 CALLDATALOAD PUSH1 0x20 DUP5 ADD PUSH2 0x371F JUMP JUMPDEST SWAP3 POP POP PUSH1 0x40 DUP5 ADD CALLDATALOAD SWAP1 POP SWAP3 POP SWAP3 POP SWAP3 JUMP JUMPDEST DUP1 ISZERO ISZERO DUP2 EQ PUSH2 0x14E8 JUMPI PUSH1 0x0 DUP1 REVERT JUMPDEST PUSH1 0x0 DUP1 PUSH1 0x40 DUP4 DUP6 SUB SLT ISZERO PUSH2 0x37E2 JUMPI PUSH1 0x0 DUP1 REVERT JUMPDEST PUSH2 0x37EB DUP4 PUSH2 0x3574 JUMP JUMPDEST SWAP2 POP PUSH1 0x20 DUP4 ADD CALLDATALOAD PUSH2 0x37FB DUP2 PUSH2 0x37C1 JUMP JUMPDEST DUP1 SWAP2 POP POP SWAP3 POP SWAP3 SWAP1 POP JUMP JUMPDEST PUSH1 0x0 DUP1 PUSH1 0x0 DUP1 PUSH1 0x80 DUP6 DUP8 SUB SLT ISZERO PUSH2 0x381C JUMPI PUSH1 0x0 DUP1 REVERT JUMPDEST PUSH2 0x3825 DUP6 PUSH2 0x3574 JUMP JUMPDEST SWAP4 POP PUSH2 0x3833 PUSH1 0x20 DUP7 ADD PUSH2 0x3574 JUMP JUMPDEST SWAP3 POP PUSH1 0x40 DUP6 ADD CALLDATALOAD SWAP2 POP PUSH1 0x60 DUP6 ADD CALLDATALOAD PUSH8 0xFFFFFFFFFFFFFFFF DUP2 GT ISZERO PUSH2 0x3856 JUMPI PUSH1 0x0 DUP1 REVERT JUMPDEST DUP6 ADD PUSH1 0x1F DUP2 ADD DUP8 SGT PUSH2 0x3867 JUMPI PUSH1 0x0 DUP1 REVERT JUMPDEST PUSH2 0x3876 DUP8 DUP3 CALLDATALOAD PUSH1 0x20 DUP5 ADD PUSH2 0x371F JUMP JUMPDEST SWAP2 POP POP SWAP3 SWAP6 SWAP2 SWAP5 POP SWAP3 POP JUMP JUMPDEST PUSH1 0x0 DUP1 PUSH1 0x40 DUP4 DUP6 SUB SLT ISZERO PUSH2 0x3895 JUMPI PUSH1 0x0 DUP1 REVERT JUMPDEST PUSH2 0x389E DUP4 PUSH2 0x3574 JUMP JUMPDEST SWAP2 POP PUSH2 0x38AC PUSH1 0x20 DUP5 ADD PUSH2 0x3574 JUMP JUMPDEST SWAP1 POP SWAP3 POP SWAP3 SWAP1 POP JUMP JUMPDEST PUSH1 0x20 DUP1 DUP3 MSTORE PUSH1 0x14 SWAP1 DUP3 ADD MSTORE PUSH20 0x151BDAD95B88191BD95CC81B9BDD08195E1A5CDD PUSH1 0x62 SHL PUSH1 0x40 DUP3 ADD MSTORE PUSH1 0x60 ADD SWAP1 JUMP JUMPDEST PUSH1 0x1 DUP2 DUP2 SHR SWAP1 DUP3 AND DUP1 PUSH2 0x38F7 JUMPI PUSH1 0x7F DUP3 AND SWAP2 POP JUMPDEST PUSH1 0x20 DUP3 LT DUP2 SUB PUSH2 0x3917 JUMPI PUSH4 0x4E487B71 PUSH1 0xE0 SHL PUSH1 0x0 MSTORE PUSH1 0x22 PUSH1 0x4 MSTORE PUSH1 0x24 PUSH1 0x0 REVERT JUMPDEST POP SWAP2 SWAP1 POP JUMP JUMPDEST PUSH4 0x4E487B71 PUSH1 0xE0 SHL PUSH1 0x0 MSTORE PUSH1 0x11 PUSH1 0x4 MSTORE PUSH1 0x24 PUSH1 0x0 REVERT JUMPDEST PUSH1 0x0 PUSH1 0x1 DUP3 ADD PUSH2 0x3945 JUMPI PUSH2 0x3945 PUSH2 0x391D JUMP JUMPDEST POP PUSH1 0x1 ADD SWAP1 JUMP JUMPDEST PUSH4 0x4E487B71 PUSH1 0xE0 SHL PUSH1 0x0 MSTORE PUSH1 0x21 PUSH1 0x4 MSTORE PUSH1 0x24 PUSH1 0x0 REVERT JUMPDEST PUSH1 0x0 DUP1 PUSH1 0x40 DUP4 DUP6 SUB SLT ISZERO PUSH2 0x3975 JUMPI PUSH1 0x0 DUP1 REVERT JUMPDEST POP POP DUP1 MLOAD PUSH1 0x20 SWAP1 SWAP2 ADD MLOAD SWAP1 SWAP3 SWAP1 SWAP2 POP JUMP JUMPDEST PUSH1 0x0 PUSH1 0x20 DUP1 DUP4 DUP6 SUB SLT ISZERO PUSH2 0x3999 JUMPI PUSH1 0x0 DUP1 REVERT JUMPDEST DUP3 MLOAD PUSH8 0xFFFFFFFFFFFFFFFF DUP1 DUP3 GT ISZERO PUSH2 0x39B1 JUMPI PUSH1 0x0 DUP1 REVERT JUMPDEST DUP2 DUP6 ADD SWAP2 POP DUP6 PUSH1 0x1F DUP4 ADD SLT PUSH2 0x39C5 JUMPI PUSH1 0x0 DUP1 REVERT JUMPDEST DUP2 MLOAD DUP2 DUP2 GT ISZERO PUSH2 0x39D7 JUMPI PUSH2 0x39D7 PUSH2 0x3663 JUMP JUMPDEST PUSH2 0x39E5 DUP5 DUP3 PUSH1 0x5 SHL ADD PUSH2 0x36C6 JUMP JUMPDEST DUP2 DUP2 MSTORE DUP5 DUP2 ADD SWAP3 POP PUSH1 0x6 SWAP2 SWAP1 SWAP2 SHL DUP4 ADD DUP5 ADD SWAP1 DUP8 DUP3 GT ISZERO PUSH2 0x3A05 JUMPI PUSH1 0x0 DUP1 REVERT JUMPDEST SWAP3 DUP5 ADD SWAP3 JUMPDEST DUP2 DUP5 LT ISZERO PUSH2 0x3A48 JUMPI PUSH1 0x40 DUP5 DUP10 SUB SLT ISZERO PUSH2 0x3A23 JUMPI PUSH1 0x0 DUP1 DUP2 REVERT JUMPDEST PUSH2 0x3A2B PUSH2 0x3679 JUMP JUMPDEST DUP5 MLOAD DUP2 MSTORE DUP6 DUP6 ADD MLOAD DUP7 DUP3 ADD MSTORE DUP4 MSTORE PUSH1 0x40 SWAP1 SWAP4 ADD SWAP3 SWAP2 DUP5 ADD SWAP2 PUSH2 0x3A0A JUMP JUMPDEST SWAP8 SWAP7 POP POP POP POP POP POP POP JUMP JUMPDEST PUSH4 0x4E487B71 PUSH1 0xE0 SHL PUSH1 0x0 MSTORE PUSH1 0x32 PUSH1 0x4 MSTORE PUSH1 0x24 PUSH1 0x0 REVERT JUMPDEST DUP1 MLOAD PUSH2 0x358B DUP2 PUSH2 0x37C1 JUMP JUMPDEST PUSH1 0x0 PUSH1 0x20 DUP3 DUP5 SUB SLT ISZERO PUSH2 0x3A86 JUMPI PUSH1 0x0 DUP1 REVERT JUMPDEST DUP2 MLOAD PUSH2 0x203B DUP2 PUSH2 0x37C1 JUMP JUMPDEST PUSH1 0x1F DUP3 GT ISZERO PUSH2 0x1473 JUMPI PUSH1 0x0 DUP2 DUP2 MSTORE PUSH1 0x20 DUP2 KECCAK256 PUSH1 0x1F DUP6 ADD PUSH1 0x5 SHR DUP2 ADD PUSH1 0x20 DUP7 LT ISZERO PUSH2 0x3AB8 JUMPI POP DUP1 JUMPDEST PUSH1 0x1F DUP6 ADD PUSH1 0x5 SHR DUP3 ADD SWAP2 POP JUMPDEST DUP2 DUP2 LT ISZERO PUSH2 0x3AD7 JUMPI DUP3 DUP2 SSTORE PUSH1 0x1 ADD PUSH2 0x3AC4 JUMP JUMPDEST POP POP POP POP POP POP JUMP JUMPDEST DUP2 MLOAD PUSH8 0xFFFFFFFFFFFFFFFF DUP2 GT ISZERO PUSH2 0x3AF9 JUMPI PUSH2 0x3AF9 PUSH2 0x3663 JUMP JUMPDEST PUSH2 0x3B0D DUP2 PUSH2 0x3B07 DUP5 SLOAD PUSH2 0x38E3 JUMP JUMPDEST DUP5 PUSH2 0x3A91 JUMP JUMPDEST PUSH1 0x20 DUP1 PUSH1 0x1F DUP4 GT PUSH1 0x1 DUP2 EQ PUSH2 0x3B42 JUMPI PUSH1 0x0 DUP5 ISZERO PUSH2 0x3B2A JUMPI POP DUP6 DUP4 ADD MLOAD JUMPDEST PUSH1 0x0 NOT PUSH1 0x3 DUP7 SWAP1 SHL SHR NOT AND PUSH1 0x1 DUP6 SWAP1 SHL OR DUP6 SSTORE PUSH2 0x3AD7 JUMP JUMPDEST PUSH1 0x0 DUP6 DUP2 MSTORE PUSH1 0x20 DUP2 KECCAK256 PUSH1 0x1F NOT DUP7 AND SWAP2 JUMPDEST DUP3 DUP2 LT ISZERO PUSH2 0x3B71 JUMPI DUP9 DUP7 ADD MLOAD DUP3 SSTORE SWAP5 DUP5 ADD SWAP5 PUSH1 0x1 SWAP1 SWAP2 ADD SWAP1 DUP5 ADD PUSH2 0x3B52 JUMP JUMPDEST POP DUP6 DUP3 LT ISZERO PUSH2 0x3B8F JUMPI DUP8 DUP6 ADD MLOAD PUSH1 0x0 NOT PUSH1 0x3 DUP9 SWAP1 SHL PUSH1 0xF8 AND SHR NOT AND DUP2 SSTORE JUMPDEST POP POP POP POP POP PUSH1 0x1 SWAP1 DUP2 SHL ADD SWAP1 SSTORE POP JUMP JUMPDEST PUSH1 0x0 DUP3 PUSH1 0x1F DUP4 ADD SLT PUSH2 0x3BB0 JUMPI PUSH1 0x0 DUP1 REVERT JUMPDEST DUP2 MLOAD PUSH2 0x3BBE PUSH2 0x372D DUP3 PUSH2 0x36F7 JUMP JUMPDEST DUP2 DUP2 MSTORE DUP5 PUSH1 0x20 DUP4 DUP7 ADD ADD GT ISZERO PUSH2 0x3BD3 JUMPI PUSH1 0x0 DUP1 REVERT JUMPDEST PUSH2 0x2415 DUP3 PUSH1 0x20 DUP4 ADD PUSH1 0x20 DUP8 ADD PUSH2 0x3339 JUMP JUMPDEST PUSH1 0x0 PUSH1 0xC0 DUP3 DUP5 SUB SLT ISZERO PUSH2 0x3BF6 JUMPI PUSH1 0x0 DUP1 REVERT JUMPDEST PUSH1 0x40 MLOAD PUSH1 0xC0 DUP2 ADD DUP2 DUP2 LT PUSH8 0xFFFFFFFFFFFFFFFF DUP3 GT OR ISZERO PUSH2 0x3C19 JUMPI PUSH2 0x3C19 PUSH2 0x3663 JUMP JUMPDEST DUP1 PUSH1 0x40 MSTORE POP DUP1 SWAP2 POP DUP3 MLOAD DUP2 MSTORE PUSH1 0x20 DUP4 ADD MLOAD PUSH1 0x20 DUP3 ADD MSTORE PUSH1 0x40 DUP4 ADD MLOAD PUSH1 0x40 DUP3 ADD MSTORE PUSH1 0x60 DUP4 ADD MLOAD PUSH1 0x60 DUP3 ADD MSTORE PUSH1 0x80 DUP4 ADD MLOAD PUSH1 0x80 DUP3 ADD MSTORE PUSH1 0xA0 DUP4 ADD MLOAD PUSH1 0xA0 DUP3 ADD MSTORE POP SWAP3 SWAP2 POP POP JUMP JUMPDEST PUSH1 0x0 PUSH1 0x20 DUP3 DUP5 SUB SLT ISZERO PUSH2 0x3C70 JUMPI PUSH1 0x0 DUP1 REVERT JUMPDEST DUP2 MLOAD PUSH8 0xFFFFFFFFFFFFFFFF DUP1 DUP3 GT ISZERO PUSH2 0x3C88 JUMPI PUSH1 0x0 DUP1 REVERT JUMPDEST SWAP1 DUP4 ADD SWAP1 PUSH2 0x360 DUP3 DUP7 SUB SLT ISZERO PUSH2 0x3C9D JUMPI PUSH1 0x0 DUP1 REVERT JUMPDEST PUSH2 0x3CA5 PUSH2 0x36A2 JUMP JUMPDEST DUP3 MLOAD DUP3 DUP2 GT ISZERO PUSH2 0x3CB4 JUMPI PUSH1 0x0 DUP1 REVERT JUMPDEST PUSH2 0x3CC0 DUP8 DUP3 DUP7 ADD PUSH2 0x3B9F JUMP JUMPDEST DUP3 MSTORE POP PUSH1 0x20 DUP4 ADD MLOAD PUSH1 0x20 DUP3 ADD MSTORE PUSH2 0x3CDA DUP7 PUSH1 0x40 DUP6 ADD PUSH2 0x3BE4 JUMP JUMPDEST PUSH1 0x40 DUP3 ADD MSTORE PUSH2 0x100 SWAP2 POP PUSH2 0x3CF0 DUP7 DUP4 DUP6 ADD PUSH2 0x3BE4 JUMP JUMPDEST PUSH1 0x60 DUP3 ADD MSTORE PUSH2 0x1C0 DUP4 ADD MLOAD PUSH1 0x80 DUP3 ADD MSTORE PUSH2 0x1E0 DUP4 ADD MLOAD PUSH1 0xA0 DUP3 ADD MSTORE PUSH2 0x200 DUP4 ADD MLOAD PUSH1 0xC0 DUP3 ADD MSTORE PUSH2 0x220 DUP4 ADD MLOAD PUSH1 0xE0 DUP3 ADD MSTORE PUSH2 0x240 DUP4 ADD MLOAD DUP3 DUP3 ADD MSTORE PUSH2 0x3D39 DUP7 PUSH2 0x260 DUP6 ADD PUSH2 0x3BE4 JUMP JUMPDEST PUSH2 0x120 DUP3 ADD MSTORE PUSH2 0x320 DUP4 ADD MLOAD PUSH2 0x140 DUP3 ADD MSTORE PUSH2 0x3D58 PUSH2 0x340 DUP5 ADD PUSH2 0x3A69 JUMP JUMPDEST PUSH2 0x160 DUP3 ADD MSTORE SWAP6 SWAP5 POP POP POP POP POP JUMP JUMPDEST DUP1 DUP3 ADD DUP1 DUP3 GT ISZERO PUSH2 0x9DD JUMPI PUSH2 0x9DD PUSH2 0x391D JUMP JUMPDEST PUSH1 0x20 DUP1 DUP3 MSTORE PUSH1 0x1A SWAP1 DUP3 ADD MSTORE PUSH32 0x4E6F7420746865206F776E6572206F662074686973206C616E64000000000000 PUSH1 0x40 DUP3 ADD MSTORE PUSH1 0x60 ADD SWAP1 JUMP JUMPDEST PUSH1 0x20 DUP1 DUP3 MSTORE PUSH1 0x2D SWAP1 DUP3 ADD MSTORE PUSH32 0x4552433732313A2063616C6C6572206973206E6F7420746F6B656E206F776E65 PUSH1 0x40 DUP3 ADD MSTORE PUSH13 0x1C881BDC88185C1C1C9BDD9959 PUSH1 0x9A SHL PUSH1 0x60 DUP3 ADD MSTORE PUSH1 0x80 ADD SWAP1 JUMP JUMPDEST PUSH1 0x40 DUP2 MSTORE PUSH1 0x0 PUSH2 0x3E11 PUSH1 0x40 DUP4 ADD DUP6 PUSH2 0x335D JUMP JUMPDEST SWAP1 POP DUP3 PUSH1 0x20 DUP4 ADD MSTORE SWAP4 SWAP3 POP POP POP JUMP JUMPDEST DUP2 DUP2 SUB DUP2 DUP2 GT ISZERO PUSH2 0x9DD JUMPI PUSH2 0x9DD PUSH2 0x391D JUMP JUMPDEST DUP2 DUP2 SUB PUSH2 0x3E3E JUMPI POP POP JUMP JUMPDEST PUSH2 0x3E48 DUP3 SLOAD PUSH2 0x38E3 JUMP JUMPDEST PUSH8 0xFFFFFFFFFFFFFFFF DUP2 GT ISZERO PUSH2 0x3E60 JUMPI PUSH2 0x3E60 PUSH2 0x3663 JUMP JUMPDEST PUSH2 0x3E6E DUP2 PUSH2 0x3B07 DUP5 SLOAD PUSH2 0x38E3 JUMP JUMPDEST PUSH1 0x0 PUSH1 0x1F DUP3 GT PUSH1 0x1 DUP2 EQ PUSH2 0x3EA2 JUMPI PUSH1 0x0 DUP4 ISZERO PUSH2 0x3E8A JUMPI POP DUP5 DUP3 ADD SLOAD JUMPDEST PUSH1 0x0 NOT PUSH1 0x3 DUP6 SWAP1 SHL SHR NOT AND PUSH1 0x1 DUP5 SWAP1 SHL OR DUP5 SSTORE PUSH2 0x2B95 JUMP JUMPDEST PUSH1 0x0 DUP6 DUP2 MSTORE PUSH1 0x20 SWAP1 KECCAK256 PUSH1 0x1F NOT DUP5 AND SWAP1 PUSH1 0x0 DUP7 DUP2 MSTORE PUSH1 0x20 SWAP1 KECCAK256 DUP5 JUMPDEST DUP4 DUP2 LT ISZERO PUSH2 0x3EDC JUMPI DUP3 DUP7 ADD SLOAD DUP3 SSTORE PUSH1 0x1 SWAP6 DUP7 ADD SWAP6 SWAP1 SWAP2 ADD SWAP1 PUSH1 0x20 ADD PUSH2 0x3EBC JUMP JUMPDEST POP DUP6 DUP4 LT ISZERO PUSH2 0x3B8F JUMPI SWAP4 ADD SLOAD PUSH1 0x0 NOT PUSH1 0xF8 PUSH1 0x3 DUP8 SWAP1 SHL AND SHR NOT AND SWAP1 SWAP3 SSTORE POP POP PUSH1 0x1 SWAP1 DUP2 SHL ADD SWAP1 SSTORE POP JUMP JUMPDEST PUSH4 0x4E487B71 PUSH1 0xE0 SHL PUSH1 0x0 MSTORE PUSH1 0x31 PUSH1 0x4 MSTORE PUSH1 0x24 PUSH1 0x0 REVERT JUMPDEST DUP5 DUP2 MSTORE PUSH1 0x80 PUSH1 0x20 DUP3 ADD MSTORE PUSH1 0x0 PUSH2 0x3F35 PUSH1 0x80 DUP4 ADD DUP7 PUSH2 0x335D JUMP JUMPDEST PUSH1 0x40 DUP4 ADD SWAP5 SWAP1 SWAP5 MSTORE POP PUSH1 0x60 ADD MSTORE SWAP3 SWAP2 POP POP JUMP JUMPDEST PUSH1 0x0 DUP4 MLOAD PUSH2 0x3F5A DUP2 DUP5 PUSH1 0x20 DUP9 ADD PUSH2 0x3339 JUMP JUMPDEST DUP4 MLOAD SWAP1 DUP4 ADD SWAP1 PUSH2 0x3F6E DUP2 DUP4 PUSH1 0x20 DUP9 ADD PUSH2 0x3339 JUMP JUMPDEST ADD SWAP5 SWAP4 POP POP POP POP JUMP JUMPDEST DUP1 DUP3 MUL DUP2 ISZERO DUP3 DUP3 DIV DUP5 EQ OR PUSH2 0x9DD JUMPI PUSH2 0x9DD PUSH2 0x391D JUMP JUMPDEST PUSH1 0x0 DUP3 PUSH2 0x3FAB JUMPI PUSH4 0x4E487B71 PUSH1 0xE0 SHL PUSH1 0x0 MSTORE PUSH1 0x12 PUSH1 0x4 MSTORE PUSH1 0x24 PUSH1 0x0 REVERT JUMPDEST POP DIV SWAP1 JUMP JUMPDEST PUSH1 0x0 DUP2 SLOAD PUSH2 0x3FBD DUP2 PUSH2 0x38E3 JUMP JUMPDEST DUP1 DUP6 MSTORE PUSH1 0x20 PUSH1 0x1 DUP4 DUP2 AND DUP1 ISZERO PUSH2 0x3FDA JUMPI PUSH1 0x1 DUP2 EQ PUSH2 0x3FF4 JUMPI PUSH2 0x4022 JUMP JUMPDEST PUSH1 0xFF NOT DUP6 AND DUP9 DUP5 ADD MSTORE DUP4 ISZERO ISZERO PUSH1 0x5 SHL DUP9 ADD DUP4 ADD SWAP6 POP PUSH2 0x4022 JUMP JUMPDEST DUP7 PUSH1 0x0 MSTORE DUP3 PUSH1 0x0 KECCAK256 PUSH1 0x0 JUMPDEST DUP6 DUP2 LT ISZERO PUSH2 0x401A JUMPI DUP2 SLOAD DUP11 DUP3 ADD DUP7 ADD MSTORE SWAP1 DUP4 ADD SWAP1 DUP5 ADD PUSH2 0x3FFF JUMP JUMPDEST DUP10 ADD DUP5 ADD SWAP7 POP POP JUMPDEST POP POP POP POP POP SWAP3 SWAP2 POP POP JUMP JUMPDEST PUSH1 0x0 DUP2 SLOAD DUP1 DUP5 MSTORE PUSH1 0x20 DUP1 DUP6 ADD DUP1 DUP2 SWAP7 POP DUP4 PUSH1 0x5 SHL DUP2 ADD SWAP2 POP DUP6 PUSH1 0x0 MSTORE DUP3 PUSH1 0x0 KECCAK256 PUSH1 0x0 JUMPDEST DUP6 DUP2 LT ISZERO PUSH2 0x40A2 JUMPI DUP3 DUP5 SUB DUP10 MSTORE PUSH1 0x60 DUP1 DUP6 MSTORE PUSH2 0x406E DUP2 DUP7 ADD DUP5 PUSH2 0x3FB0 JUMP JUMPDEST SWAP1 POP PUSH1 0x1 DUP4 ADD SLOAD DUP7 DUP7 ADD MSTORE PUSH1 0xFF PUSH1 0x2 DUP5 ADD SLOAD AND ISZERO ISZERO PUSH1 0x40 DUP7 ADD MSTORE DUP1 SWAP5 POP POP PUSH1 0x3 DUP3 ADD SWAP2 POP DUP5 DUP10 ADD SWAP9 POP PUSH1 0x1 DUP2 ADD SWAP1 POP PUSH2 0x4050 JUMP JUMPDEST POP SWAP2 SWAP8 SWAP7 POP POP POP POP POP POP POP JUMP JUMPDEST PUSH1 0x0 DUP2 SLOAD DUP1 DUP5 MSTORE PUSH1 0x20 DUP1 DUP6 ADD DUP1 DUP2 SWAP7 POP DUP4 PUSH1 0x5 SHL DUP2 ADD SWAP2 POP DUP6 PUSH1 0x0 MSTORE DUP3 PUSH1 0x0 KECCAK256 PUSH1 0x0 JUMPDEST DUP6 DUP2 LT ISZERO PUSH2 0x40A2 JUMPI DUP3 DUP5 SUB DUP10 MSTORE PUSH1 0x60 DUP1 DUP6 MSTORE PUSH2 0x40F0 DUP2 DUP7 ADD DUP5 PUSH2 0x3FB0 JUMP JUMPDEST SWAP1 POP PUSH1 0x1 DUP4 ADD SLOAD DUP7 DUP7 ADD MSTORE PUSH1 0x2 DUP4 ADD SLOAD PUSH1 0x40 DUP7 ADD MSTORE DUP1 SWAP5 POP POP PUSH1 0x3 DUP3 ADD SWAP2 POP DUP5 DUP10 ADD SWAP9 POP PUSH1 0x1 DUP2 ADD SWAP1 POP PUSH2 0x40D2 JUMP JUMPDEST DUP3 DUP2 MSTORE PUSH1 0x40 PUSH1 0x20 DUP3 ADD MSTORE DUP2 SLOAD PUSH1 0x40 DUP3 ADD MSTORE PUSH1 0x1 DUP3 ADD SLOAD PUSH1 0x60 DUP3 ADD MSTORE PUSH1 0x2 DUP3 ADD SLOAD PUSH1 0x80 DUP3 ADD MSTORE PUSH1 0x3 DUP3 ADD SLOAD PUSH1 0xA0 DUP3 ADD MSTORE PUSH1 0x4 DUP3 ADD SLOAD PUSH1 0xC0 DUP3 ADD MSTORE PUSH1 0x5 DUP3 ADD SLOAD PUSH1 0xE0 DUP3 ADD MSTORE PUSH2 0x1E0 PUSH2 0x100 DUP3 ADD MSTORE PUSH1 0x0 PUSH2 0x417E PUSH2 0x220 DUP4 ADD PUSH1 0x6 DUP6 ADD PUSH2 0x402D JUMP JUMPDEST DUP3 DUP2 SUB PUSH1 0x3F NOT ADD PUSH2 0x120 DUP5 ADD MSTORE PUSH2 0x4198 DUP2 PUSH1 0x7 DUP7 ADD PUSH2 0x40AF JUMP JUMPDEST PUSH1 0x8 DUP6 ADD SLOAD PUSH2 0x140 DUP6 ADD MSTORE PUSH1 0x9 DUP6 ADD SLOAD PUSH2 0x160 DUP6 ADD MSTORE PUSH1 0xA DUP6 ADD SLOAD PUSH2 0x180 DUP6 ADD MSTORE PUSH1 0xB DUP6 ADD SLOAD PUSH2 0x1A0 DUP6 ADD MSTORE PUSH1 0xC DUP6 ADD SLOAD PUSH2 0x1C0 DUP6 ADD MSTORE PUSH1 0xD DUP6 ADD SLOAD PUSH2 0x1E0 DUP6 ADD MSTORE SWAP1 POP PUSH1 0xE DUP5 ADD SLOAD PUSH2 0x200 DUP5 ADD MSTORE DUP1 SWAP2 POP POP SWAP4 SWAP3 POP POP POP JUMP JUMPDEST PUSH1 0x20 DUP1 DUP3 MSTORE PUSH1 0x25 SWAP1 DUP3 ADD MSTORE PUSH32 0x4552433732313A207472616E736665722066726F6D20696E636F727265637420 PUSH1 0x40 DUP3 ADD MSTORE PUSH5 0x37BBB732B9 PUSH1 0xD9 SHL PUSH1 0x60 DUP3 ADD MSTORE PUSH1 0x80 ADD SWAP1 JUMP JUMPDEST PUSH1 0x40 DUP2 MSTORE PUSH1 0x0 PUSH2 0x3E11 PUSH1 0x40 DUP4 ADD DUP6 PUSH2 0x402D JUMP JUMPDEST PUSH1 0x0 PUSH1 0xC0 DUP3 DUP5 SUB SLT ISZERO PUSH2 0x425C JUMPI PUSH1 0x0 DUP1 REVERT JUMPDEST PUSH2 0x203B DUP4 DUP4 PUSH2 0x3BE4 JUMP JUMPDEST PUSH1 0x20 DUP1 DUP3 MSTORE PUSH1 0x32 SWAP1 DUP3 ADD MSTORE PUSH32 0x4552433732313A207472616E7366657220746F206E6F6E204552433732315265 PUSH1 0x40 DUP3 ADD MSTORE PUSH18 0x31B2B4BB32B91034B6B83632B6B2B73A32B9 PUSH1 0x71 SHL PUSH1 0x60 DUP3 ADD MSTORE PUSH1 0x80 ADD SWAP1 JUMP JUMPDEST PUSH1 0x40 DUP2 MSTORE PUSH1 0x0 PUSH2 0x3E11 PUSH1 0x40 DUP4 ADD DUP6 PUSH2 0x3FB0 JUMP JUMPDEST PUSH1 0x1 PUSH1 0x1 PUSH1 0xA0 SHL SUB DUP6 DUP2 AND DUP3 MSTORE DUP5 AND PUSH1 0x20 DUP3 ADD MSTORE PUSH1 0x40 DUP2 ADD DUP4 SWAP1 MSTORE PUSH1 0x80 PUSH1 0x60 DUP3 ADD DUP2 SWAP1 MSTORE PUSH1 0x0 SWAP1 PUSH2 0x42FE SWAP1 DUP4 ADD DUP5 PUSH2 0x335D JUMP JUMPDEST SWAP7 SWAP6 POP POP POP POP POP POP JUMP JUMPDEST PUSH1 0x0 PUSH1 0x20 DUP3 DUP5 SUB SLT ISZERO PUSH2 0x431A JUMPI PUSH1 0x0 DUP1 REVERT JUMPDEST DUP2 MLOAD PUSH2 0x203B DUP2 PUSH2 0x3541 JUMP INVALID LOG2 PUSH5 0x6970667358 0x22 SLT KECCAK256 ADDMOD GASLIMIT PUSH32 0xDA97CF38F01F75F3BBFA8C8DC34F7EBA12C336CFA31ED5CB87B5ECD31164736F PUSH13 0x63430008130033000000000000 "},"methodIdentifiers":{"approve(address,uint256)":"095ea7b3","balanceOf(address)":"70a08231","buildingManager()":"60e4c393","completeBuildingConstruction(uint256)":"2de3e04f","epochDuration()":"4ff0876a","getApproved(uint256)":"081812fc","getLandCoordinates(uint256)":"51450056","getLandStats(uint256)":"018c7f9e","increaseMaxSupply(uint256)":"90edbfee","isApprovedForAll(address,address)":"e985e9c5","mapContract()":"6727b150","maxSupply()":"d5abeb01","mint(uint8,uint256,int256,int256)":"08d1616d","mintPrice()":"6817c76c","name()":"06fdde03","nextTokenId()":"75794a3c","owner()":"8da5cb5b","ownerOf(uint256)":"6352211e","renounceOwnership()":"715018a6","safeTransferFrom(address,address,uint256)":"42842e0e","safeTransferFrom(address,address,uint256,bytes)":"b88d4fde","setApprovalForAll(address,bool)":"a22cb465","setBuildingManager(address)":"a563ef2c","setMapContract(address)":"0426657c","setMintPrice(uint256)":"f4a0a528","startBuildingConstruction(uint256,string,uint256)":"691c7836","supportsInterface(bytes4)":"01ffc9a7","symbol()":"95d89b41","tokenByIndex(uint256)":"4f6ccce7","tokenOfOwnerByIndex(address,uint256)":"2f745c59","tokenURI(uint256)":"c87b56dd","totalSupply()":"18160ddd","transferFrom(address,address,uint256)":"23b872dd","transferOwnership(address)":"f2fde38b","updateEpoch(uint256)":"15ca0dc0","withdraw()":"3ccfd60b"}}}}}