{"contracts/mapContract.sol":{"MapContract":{"abi":[{"inputs":[],"name":"GRID_SIZE","outputs":[{"internalType":"int256","name":"","type":"int256"}],"stateMutability":"view","type":"function"},{"inputs":[],"name":"MAX_COORDINATE","outputs":[{"internalType":"int256","name":"","type":"int256"}],"stateMutability":"view","type":"function"},{"inputs":[],"name":"MAX_COORDINATES","outputs":[{"internalType":"uint256","name":"","type":"uint256"}],"stateMutability":"view","type":"function"},{"inputs":[],"name":"MIN_COORDINATE","outputs":[{"internalType":"int256","name":"","type":"int256"}],"stateMutability":"view","type":"function"},{"inputs":[{"internalType":"uint256","name":"tokenId","type":"uint256"},{"internalType":"int256","name":"x","type":"int256"},{"internalType":"int256","name":"y","type":"int256"}],"name":"assignCoordinate","outputs":[],"stateMutability":"nonpayable","type":"function"},{"inputs":[{"internalType":"uint256","name":"tokenId","type":"uint256"}],"name":"assignRandomCoordinate","outputs":[{"internalType":"int256","name":"x","type":"int256"},{"internalType":"int256","name":"y","type":"int256"}],"stateMutability":"nonpayable","type":"function"},{"inputs":[{"internalType":"int256","name":"x","type":"int256"},{"internalType":"int256","name":"y","type":"int256"}],"name":"getAvailableAdjacentCoordinates","outputs":[{"components":[{"internalType":"int256","name":"x","type":"int256"},{"internalType":"int256","name":"y","type":"int256"}],"internalType":"struct DataTypes.Coordinates[]","name":"","type":"tuple[]"}],"stateMutability":"view","type":"function"},{"inputs":[{"internalType":"int256","name":"x","type":"int256"},{"internalType":"int256","name":"y","type":"int256"}],"name":"getCoordinateTokenId","outputs":[{"internalType":"uint256","name":"","type":"uint256"}],"stateMutability":"view","type":"function"},{"inputs":[{"internalType":"uint256","name":"tokenId","type":"uint256"}],"name":"getTokenCoordinates","outputs":[{"internalType":"int256","name":"x","type":"int256"},{"internalType":"int256","name":"y","type":"int256"}],"stateMutability":"view","type":"function"},{"inputs":[{"internalType":"int256","name":"x","type":"int256"},{"internalType":"int256","name":"y","type":"int256"}],"name":"isCoordinateOccupied","outputs":[{"internalType":"bool","name":"","type":"bool"}],"stateMutability":"view","type":"function"},{"inputs":[],"name":"landNFTAddress","outputs":[{"internalType":"address","name":"","type":"address"}],"stateMutability":"view","type":"function"},{"inputs":[{"internalType":"address","name":"_landNFTAddress","type":"address"}],"name":"setLandNFTAddress","outputs":[],"stateMutability":"nonpayable","type":"function"},{"inputs":[],"name":"totalAssignedCoordinates","outputs":[{"internalType":"uint256","name":"","type":"uint256"}],"stateMutability":"view","type":"function"}],"evm":{"bytecode":{"linkReferences":{},"object":"608060405234801561001057600080fd5b50610cfa806100206000396000f3fe608060405234801561001057600080fd5b50600436106100cf5760003560e01c80637babce561161008c5780638cf6408f116100665780638cf6408f146101dd578063af11c6f614610208578063d257418314610211578063e4027da61461021957600080fd5b80637babce56146101855780637facfc10146101985780637fc4eda8146101d557600080fd5b80630650e904146100d45780631039f59d146100ef57806337c905a9146101175780633c7c604f1461012c578063478935d31461016957806348f21a621461017c575b600080fd5b6100dc600081565b6040519081526020015b60405180910390f35b6101026100fd366004610aff565b610239565b604080519283526020830191909152016100e6565b61012a610125366004610b18565b610481565b005b61010261013a366004610aff565b600090815260026020908152604091829020825180840190935280548084526001909101549290910182905291565b61012a610177366004610b48565b6104fc565b6100dc61271081565b6100dc610193366004610b74565b610738565b6101c56101a6366004610b74565b6000918252600160209081526040808420928452919052902054151590565b60405190151581526020016100e6565b6100dc606481565b6000546101f0906001600160a01b031681565b6040516001600160a01b0390911681526020016100e6565b6100dc60035481565b6100dc610759565b61022c610227366004610b74565b610768565b6040516100e69190610b96565b6000805481906001600160a01b0316331461029b5760405162461bcd60e51b815260206004820152601e60248201527f4f6e6c79204c616e644e465420636f6e74726163742063616e2063616c6c000060448201526064015b60405180910390fd5b612710600354106102ee5760405162461bcd60e51b815260206004820152601c60248201527f416c6c20636f6f7264696e61746573206172652061737369676e6564000000006044820152606401610292565b606460005b8181101561043357604080514260208201524491810191909152606081018690526080810182905260009060649060a0016040516020818303038152906040528051906020012060001c6103479190610be5565b90506000606442448961035b876001610c1d565b6040805160208101959095528401929092526060830152608082015260a0016040516020818303038152906040528051906020012060001c61039d9190610be5565b600083815260016020908152604080832084845290915290205490915061041e57600082815260016020818152604080842085855282528084208b9055805180820182528681528083018681528c86526002909352908420905181559051910155600380549161040c83610c30565b90915550919550935061047c92505050565b5050808061042b90610c30565b9150506102f3565b5060405162461bcd60e51b815260206004820152601f60248201527f4e6f20617661696c61626c652072616e646f6d20636f6f7264696e61746573006044820152606401610292565b915091565b6000546001600160a01b0316156104da5760405162461bcd60e51b815260206004820152601b60248201527f4c616e644e4654206164647265737320616c72656164792073657400000000006044820152606401610292565b600080546001600160a01b0319166001600160a01b0392909216919091179055565b6000546001600160a01b031633146105565760405162461bcd60e51b815260206004820152601e60248201527f4f6e6c79204c616e644e465420636f6e74726163742063616e2063616c6c00006044820152606401610292565b612710600354106105a95760405162461bcd60e51b815260206004820152601c60248201527f416c6c20636f6f7264696e61746573206172652061737369676e6564000000006044820152606401610292565b600082121580156105c557506105c160016064610c49565b8213155b6106115760405162461bcd60e51b815260206004820152601960248201527f7820636f6f7264696e617465206f7574206f662072616e6765000000000000006044820152606401610292565b6000811215801561062d575061062960016064610c49565b8113155b6106795760405162461bcd60e51b815260206004820152601960248201527f7920636f6f7264696e617465206f7574206f662072616e6765000000000000006044820152606401610292565b6000828152600160209081526040808320848452909152902054156106e05760405162461bcd60e51b815260206004820152601b60248201527f436f6f7264696e61746520616c7265616479206f6363757069656400000000006044820152606401610292565b60008281526001602081815260408084208585528252808420879055805180820182528681528083018681528886526002909352908420905181559051910155600380549161072e83610c30565b9190505550505050565b60008281526001602090815260408083208484529091529020545b92915050565b61076560016064610c49565b81565b60606000610774610ac6565b61078060016064610c49565b61078b866001610c70565b136107d55760405180604001604052808660016107a89190610c70565b81526020018590528183600481106107c2576107c2610c98565b6020020152816107d181610c30565b9250505b60006107e2600187610c49565b1261082c5760405180604001604052806001876107ff9190610c49565b815260200185905281836004811061081957610819610c98565b60200201528161082881610c30565b9250505b61083860016064610c49565b610843856001610c70565b1361088d5760405180604001604052808681526020018560016108669190610c70565b905281836004811061087a5761087a610c98565b60200201528161088981610c30565b9250505b600061089a600186610c49565b126108e45760405180604001604052808681526020016001866108bd9190610c49565b90528183600481106108d1576108d1610c98565b6020020152816108e081610c30565b9250505b60008267ffffffffffffffff8111156108ff576108ff610cae565b60405190808252806020026020018201604052801561094457816020015b604080518082019091526000808252602082015281526020019060019003908161091d5790505b5090506000805b84811015610a01576109a884826004811061096857610968610c98565b60200201515185836004811061098057610980610c98565b6020020151602001516000918252600160209081526040808420928452919052902054151590565b6109ef578381600481106109be576109be610c98565b60200201518383815181106109d5576109d5610c98565b602002602001018190525081806109eb90610c30565b9250505b806109f981610c30565b91505061094b565b5060008167ffffffffffffffff811115610a1d57610a1d610cae565b604051908082528060200260200182016040528015610a6257816020015b6040805180820190915260008082526020820152815260200190600190039081610a3b5790505b50905060005b82811015610aba57838181518110610a8257610a82610c98565b6020026020010151828281518110610a9c57610a9c610c98565b60200260200101819052508080610ab290610c30565b915050610a68565b50979650505050505050565b60405180608001604052806004905b6040805180820190915260008082526020820152815260200190600190039081610ad55790505090565b600060208284031215610b1157600080fd5b5035919050565b600060208284031215610b2a57600080fd5b81356001600160a01b0381168114610b4157600080fd5b9392505050565b600080600060608486031215610b5d57600080fd5b505081359360208301359350604090920135919050565b60008060408385031215610b8757600080fd5b50508035926020909101359150565b602080825282518282018190526000919060409081850190868401855b82811015610bd857815180518552860151868501529284019290850190600101610bb3565b5091979650505050505050565b600082610c0257634e487b7160e01b600052601260045260246000fd5b500690565b634e487b7160e01b600052601160045260246000fd5b8082018082111561075357610753610c07565b600060018201610c4257610c42610c07565b5060010190565b8181036000831280158383131683831282161715610c6957610c69610c07565b5092915050565b8082018281126000831280158216821582161715610c9057610c90610c07565b505092915050565b634e487b7160e01b600052603260045260246000fd5b634e487b7160e01b600052604160045260246000fdfea26469706673582212209c8419cc71091e2913e609e08873a260c72b98c51ce806ab4642ed92a36cba3264736f6c63430008130033","opcodes":"PUSH1 0x80 PUSH1 0x40 MSTORE CALLVALUE DUP1 ISZERO PUSH2 0x10 JUMPI PUSH1 0x0 DUP1 REVERT JUMPDEST POP PUSH2 0xCFA DUP1 PUSH2 0x20 PUSH1 0x0 CODECOPY PUSH1 0x0 RETURN INVALID PUSH1 0x80 PUSH1 0x40 MSTORE CALLVALUE DUP1 ISZERO PUSH2 0x10 JUMPI PUSH1 0x0 DUP1 REVERT JUMPDEST POP PUSH1 0x4 CALLDATASIZE LT PUSH2 0xCF JUMPI PUSH1 0x0 CALLDATALOAD PUSH1 0xE0 SHR DUP1 PUSH4 0x7BABCE56 GT PUSH2 0x8C JUMPI DUP1 PUSH4 0x8CF6408F GT PUSH2 0x66 JUMPI DUP1 PUSH4 0x8CF6408F EQ PUSH2 0x1DD JUMPI DUP1 PUSH4 0xAF11C6F6 EQ PUSH2 0x208 JUMPI DUP1 PUSH4 0xD2574183 EQ PUSH2 0x211 JUMPI DUP1 PUSH4 0xE4027DA6 EQ PUSH2 0x219 JUMPI PUSH1 0x0 DUP1 REVERT JUMPDEST DUP1 PUSH4 0x7BABCE56 EQ PUSH2 0x185 JUMPI DUP1 PUSH4 0x7FACFC10 EQ PUSH2 0x198 JUMPI DUP1 PUSH4 0x7FC4EDA8 EQ PUSH2 0x1D5 JUMPI PUSH1 0x0 DUP1 REVERT JUMPDEST DUP1 PUSH4 0x650E904 EQ PUSH2 0xD4 JUMPI DUP1 PUSH4 0x1039F59D EQ PUSH2 0xEF JUMPI DUP1 PUSH4 0x37C905A9 EQ PUSH2 0x117 JUMPI DUP1 PUSH4 0x3C7C604F EQ PUSH2 0x12C JUMPI DUP1 PUSH4 0x478935D3 EQ PUSH2 0x169 JUMPI DUP1 PUSH4 0x48F21A62 EQ PUSH2 0x17C JUMPI JUMPDEST PUSH1 0x0 DUP1 REVERT JUMPDEST PUSH2 0xDC PUSH1 0x0 DUP2 JUMP JUMPDEST PUSH1 0x40 MLOAD SWAP1 DUP2 MSTORE PUSH1 0x20 ADD JUMPDEST PUSH1 0x40 MLOAD DUP1 SWAP2 SUB SWAP1 RETURN JUMPDEST PUSH2 0x102 PUSH2 0xFD CALLDATASIZE PUSH1 0x4 PUSH2 0xAFF JUMP JUMPDEST PUSH2 0x239 JUMP JUMPDEST PUSH1 0x40 DUP1 MLOAD SWAP3 DUP4 MSTORE PUSH1 0x20 DUP4 ADD SWAP2 SWAP1 SWAP2 MSTORE ADD PUSH2 0xE6 JUMP JUMPDEST PUSH2 0x12A PUSH2 0x125 CALLDATASIZE PUSH1 0x4 PUSH2 0xB18 JUMP JUMPDEST PUSH2 0x481 JUMP JUMPDEST STOP JUMPDEST PUSH2 0x102 PUSH2 0x13A CALLDATASIZE PUSH1 0x4 PUSH2 0xAFF JUMP JUMPDEST PUSH1 0x0 SWAP1 DUP2 MSTORE PUSH1 0x2 PUSH1 0x20 SWAP1 DUP2 MSTORE PUSH1 0x40 SWAP2 DUP3 SWAP1 KECCAK256 DUP3 MLOAD DUP1 DUP5 ADD SWAP1 SWAP4 MSTORE DUP1 SLOAD DUP1 DUP5 MSTORE PUSH1 0x1 SWAP1 SWAP2 ADD SLOAD SWAP3 SWAP1 SWAP2 ADD DUP3 SWAP1 MSTORE SWAP2 JUMP JUMPDEST PUSH2 0x12A PUSH2 0x177 CALLDATASIZE PUSH1 0x4 PUSH2 0xB48 JUMP JUMPDEST PUSH2 0x4FC JUMP JUMPDEST PUSH2 0xDC PUSH2 0x2710 DUP2 JUMP JUMPDEST PUSH2 0xDC PUSH2 0x193 CALLDATASIZE PUSH1 0x4 PUSH2 0xB74 JUMP JUMPDEST PUSH2 0x738 JUMP JUMPDEST PUSH2 0x1C5 PUSH2 0x1A6 CALLDATASIZE PUSH1 0x4 PUSH2 0xB74 JUMP JUMPDEST PUSH1 0x0 SWAP2 DUP3 MSTORE PUSH1 0x1 PUSH1 0x20 SWAP1 DUP2 MSTORE PUSH1 0x40 DUP1 DUP5 KECCAK256 SWAP3 DUP5 MSTORE SWAP2 SWAP1 MSTORE SWAP1 KECCAK256 SLOAD ISZERO ISZERO SWAP1 JUMP JUMPDEST PUSH1 0x40 MLOAD SWAP1 ISZERO ISZERO DUP2 MSTORE PUSH1 0x20 ADD PUSH2 0xE6 JUMP JUMPDEST PUSH2 0xDC PUSH1 0x64 DUP2 JUMP JUMPDEST PUSH1 0x0 SLOAD PUSH2 0x1F0 SWAP1 PUSH1 0x1 PUSH1 0x1 PUSH1 0xA0 SHL SUB AND DUP2 JUMP JUMPDEST PUSH1 0x40 MLOAD PUSH1 0x1 PUSH1 0x1 PUSH1 0xA0 SHL SUB SWAP1 SWAP2 AND DUP2 MSTORE PUSH1 0x20 ADD PUSH2 0xE6 JUMP JUMPDEST PUSH2 0xDC PUSH1 0x3 SLOAD DUP2 JUMP JUMPDEST PUSH2 0xDC PUSH2 0x759 JUMP JUMPDEST PUSH2 0x22C PUSH2 0x227 CALLDATASIZE PUSH1 0x4 PUSH2 0xB74 JUMP JUMPDEST PUSH2 0x768 JUMP JUMPDEST PUSH1 0x40 MLOAD PUSH2 0xE6 SWAP2 SWAP1 PUSH2 0xB96 JUMP JUMPDEST PUSH1 0x0 DUP1 SLOAD DUP2 SWAP1 PUSH1 0x1 PUSH1 0x1 PUSH1 0xA0 SHL SUB AND CALLER EQ PUSH2 0x29B JUMPI PUSH1 0x40 MLOAD PUSH3 0x461BCD PUSH1 0xE5 SHL DUP2 MSTORE PUSH1 0x20 PUSH1 0x4 DUP3 ADD MSTORE PUSH1 0x1E PUSH1 0x24 DUP3 ADD MSTORE PUSH32 0x4F6E6C79204C616E644E465420636F6E74726163742063616E2063616C6C0000 PUSH1 0x44 DUP3 ADD MSTORE PUSH1 0x64 ADD JUMPDEST PUSH1 0x40 MLOAD DUP1 SWAP2 SUB SWAP1 REVERT JUMPDEST PUSH2 0x2710 PUSH1 0x3 SLOAD LT PUSH2 0x2EE JUMPI PUSH1 0x40 MLOAD PUSH3 0x461BCD PUSH1 0xE5 SHL DUP2 MSTORE PUSH1 0x20 PUSH1 0x4 DUP3 ADD MSTORE PUSH1 0x1C PUSH1 0x24 DUP3 ADD MSTORE PUSH32 0x416C6C20636F6F7264696E61746573206172652061737369676E656400000000 PUSH1 0x44 DUP3 ADD MSTORE PUSH1 0x64 ADD PUSH2 0x292 JUMP JUMPDEST PUSH1 0x64 PUSH1 0x0 JUMPDEST DUP2 DUP2 LT ISZERO PUSH2 0x433 JUMPI PUSH1 0x40 DUP1 MLOAD TIMESTAMP PUSH1 0x20 DUP3 ADD MSTORE PREVRANDAO SWAP2 DUP2 ADD SWAP2 SWAP1 SWAP2 MSTORE PUSH1 0x60 DUP2 ADD DUP7 SWAP1 MSTORE PUSH1 0x80 DUP2 ADD DUP3 SWAP1 MSTORE PUSH1 0x0 SWAP1 PUSH1 0x64 SWAP1 PUSH1 0xA0 ADD PUSH1 0x40 MLOAD PUSH1 0x20 DUP2 DUP4 SUB SUB DUP2 MSTORE SWAP1 PUSH1 0x40 MSTORE DUP1 MLOAD SWAP1 PUSH1 0x20 ADD KECCAK256 PUSH1 0x0 SHR PUSH2 0x347 SWAP2 SWAP1 PUSH2 0xBE5 JUMP JUMPDEST SWAP1 POP PUSH1 0x0 PUSH1 0x64 TIMESTAMP PREVRANDAO DUP10 PUSH2 0x35B DUP8 PUSH1 0x1 PUSH2 0xC1D JUMP JUMPDEST PUSH1 0x40 DUP1 MLOAD PUSH1 0x20 DUP2 ADD SWAP6 SWAP1 SWAP6 MSTORE DUP5 ADD SWAP3 SWAP1 SWAP3 MSTORE PUSH1 0x60 DUP4 ADD MSTORE PUSH1 0x80 DUP3 ADD MSTORE PUSH1 0xA0 ADD PUSH1 0x40 MLOAD PUSH1 0x20 DUP2 DUP4 SUB SUB DUP2 MSTORE SWAP1 PUSH1 0x40 MSTORE DUP1 MLOAD SWAP1 PUSH1 0x20 ADD KECCAK256 PUSH1 0x0 SHR PUSH2 0x39D SWAP2 SWAP1 PUSH2 0xBE5 JUMP JUMPDEST PUSH1 0x0 DUP4 DUP2 MSTORE PUSH1 0x1 PUSH1 0x20 SWAP1 DUP2 MSTORE PUSH1 0x40 DUP1 DUP4 KECCAK256 DUP5 DUP5 MSTORE SWAP1 SWAP2 MSTORE SWAP1 KECCAK256 SLOAD SWAP1 SWAP2 POP PUSH2 0x41E JUMPI PUSH1 0x0 DUP3 DUP2 MSTORE PUSH1 0x1 PUSH1 0x20 DUP2 DUP2 MSTORE PUSH1 0x40 DUP1 DUP5 KECCAK256 DUP6 DUP6 MSTORE DUP3 MSTORE DUP1 DUP5 KECCAK256 DUP12 SWAP1 SSTORE DUP1 MLOAD DUP1 DUP3 ADD DUP3 MSTORE DUP7 DUP2 MSTORE DUP1 DUP4 ADD DUP7 DUP2 MSTORE DUP13 DUP7 MSTORE PUSH1 0x2 SWAP1 SWAP4 MSTORE SWAP1 DUP5 KECCAK256 SWAP1 MLOAD DUP2 SSTORE SWAP1 MLOAD SWAP2 ADD SSTORE PUSH1 0x3 DUP1 SLOAD SWAP2 PUSH2 0x40C DUP4 PUSH2 0xC30 JUMP JUMPDEST SWAP1 SWAP2 SSTORE POP SWAP2 SWAP6 POP SWAP4 POP PUSH2 0x47C SWAP3 POP POP POP JUMP JUMPDEST POP POP DUP1 DUP1 PUSH2 0x42B SWAP1 PUSH2 0xC30 JUMP JUMPDEST SWAP2 POP POP PUSH2 0x2F3 JUMP JUMPDEST POP PUSH1 0x40 MLOAD PUSH3 0x461BCD PUSH1 0xE5 SHL DUP2 MSTORE PUSH1 0x20 PUSH1 0x4 DUP3 ADD MSTORE PUSH1 0x1F PUSH1 0x24 DUP3 ADD MSTORE PUSH32 0x4E6F20617661696C61626C652072616E646F6D20636F6F7264696E6174657300 PUSH1 0x44 DUP3 ADD MSTORE PUSH1 0x64 ADD PUSH2 0x292 JUMP JUMPDEST SWAP2 POP SWAP2 JUMP JUMPDEST PUSH1 0x0 SLOAD PUSH1 0x1 PUSH1 0x1 PUSH1 0xA0 SHL SUB AND ISZERO PUSH2 0x4DA JUMPI PUSH1 0x40 MLOAD PUSH3 0x461BCD PUSH1 0xE5 SHL DUP2 MSTORE PUSH1 0x20 PUSH1 0x4 DUP3 ADD MSTORE PUSH1 0x1B PUSH1 0x24 DUP3 ADD MSTORE PUSH32 0x4C616E644E4654206164647265737320616C7265616479207365740000000000 PUSH1 0x44 DUP3 ADD MSTORE PUSH1 0x64 ADD PUSH2 0x292 JUMP JUMPDEST PUSH1 0x0 DUP1 SLOAD PUSH1 0x1 PUSH1 0x1 PUSH1 0xA0 SHL SUB NOT AND PUSH1 0x1 PUSH1 0x1 PUSH1 0xA0 SHL SUB SWAP3 SWAP1 SWAP3 AND SWAP2 SWAP1 SWAP2 OR SWAP1 SSTORE JUMP JUMPDEST PUSH1 0x0 SLOAD PUSH1 0x1 PUSH1 0x1 PUSH1 0xA0 SHL SUB AND CALLER EQ PUSH2 0x556 JUMPI PUSH1 0x40 MLOAD PUSH3 0x461BCD PUSH1 0xE5 SHL DUP2 MSTORE PUSH1 0x20 PUSH1 0x4 DUP3 ADD MSTORE PUSH1 0x1E PUSH1 0x24 DUP3 ADD MSTORE PUSH32 0x4F6E6C79204C616E644E465420636F6E74726163742063616E2063616C6C0000 PUSH1 0x44 DUP3 ADD MSTORE PUSH1 0x64 ADD PUSH2 0x292 JUMP JUMPDEST PUSH2 0x2710 PUSH1 0x3 SLOAD LT PUSH2 0x5A9 JUMPI PUSH1 0x40 MLOAD PUSH3 0x461BCD PUSH1 0xE5 SHL DUP2 MSTORE PUSH1 0x20 PUSH1 0x4 DUP3 ADD MSTORE PUSH1 0x1C PUSH1 0x24 DUP3 ADD MSTORE PUSH32 0x416C6C20636F6F7264696E61746573206172652061737369676E656400000000 PUSH1 0x44 DUP3 ADD MSTORE PUSH1 0x64 ADD PUSH2 0x292 JUMP JUMPDEST PUSH1 0x0 DUP3 SLT ISZERO DUP1 ISZERO PUSH2 0x5C5 JUMPI POP PUSH2 0x5C1 PUSH1 0x1 PUSH1 0x64 PUSH2 0xC49 JUMP JUMPDEST DUP3 SGT ISZERO JUMPDEST PUSH2 0x611 JUMPI PUSH1 0x40 MLOAD PUSH3 0x461BCD PUSH1 0xE5 SHL DUP2 MSTORE PUSH1 0x20 PUSH1 0x4 DUP3 ADD MSTORE PUSH1 0x19 PUSH1 0x24 DUP3 ADD MSTORE PUSH32 0x7820636F6F7264696E617465206F7574206F662072616E676500000000000000 PUSH1 0x44 DUP3 ADD MSTORE PUSH1 0x64 ADD PUSH2 0x292 JUMP JUMPDEST PUSH1 0x0 DUP2 SLT ISZERO DUP1 ISZERO PUSH2 0x62D JUMPI POP PUSH2 0x629 PUSH1 0x1 PUSH1 0x64 PUSH2 0xC49 JUMP JUMPDEST DUP2 SGT ISZERO JUMPDEST PUSH2 0x679 JUMPI PUSH1 0x40 MLOAD PUSH3 0x461BCD PUSH1 0xE5 SHL DUP2 MSTORE PUSH1 0x20 PUSH1 0x4 DUP3 ADD MSTORE PUSH1 0x19 PUSH1 0x24 DUP3 ADD MSTORE PUSH32 0x7920636F6F7264696E617465206F7574206F662072616E676500000000000000 PUSH1 0x44 DUP3 ADD MSTORE PUSH1 0x64 ADD PUSH2 0x292 JUMP JUMPDEST PUSH1 0x0 DUP3 DUP2 MSTORE PUSH1 0x1 PUSH1 0x20 SWAP1 DUP2 MSTORE PUSH1 0x40 DUP1 DUP4 KECCAK256 DUP5 DUP5 MSTORE SWAP1 SWAP2 MSTORE SWAP1 KECCAK256 SLOAD ISZERO PUSH2 0x6E0 JUMPI PUSH1 0x40 MLOAD PUSH3 0x461BCD PUSH1 0xE5 SHL DUP2 MSTORE PUSH1 0x20 PUSH1 0x4 DUP3 ADD MSTORE PUSH1 0x1B PUSH1 0x24 DUP3 ADD MSTORE PUSH32 0x436F6F7264696E61746520616C7265616479206F636375706965640000000000 PUSH1 0x44 DUP3 ADD MSTORE PUSH1 0x64 ADD PUSH2 0x292 JUMP JUMPDEST PUSH1 0x0 DUP3 DUP2 MSTORE PUSH1 0x1 PUSH1 0x20 DUP2 DUP2 MSTORE PUSH1 0x40 DUP1 DUP5 KECCAK256 DUP6 DUP6 MSTORE DUP3 MSTORE DUP1 DUP5 KECCAK256 DUP8 SWAP1 SSTORE DUP1 MLOAD DUP1 DUP3 ADD DUP3 MSTORE DUP7 DUP2 MSTORE DUP1 DUP4 ADD DUP7 DUP2 MSTORE DUP9 DUP7 MSTORE PUSH1 0x2 SWAP1 SWAP4 MSTORE SWAP1 DUP5 KECCAK256 SWAP1 MLOAD DUP2 SSTORE SWAP1 MLOAD SWAP2 ADD SSTORE PUSH1 0x3 DUP1 SLOAD SWAP2 PUSH2 0x72E DUP4 PUSH2 0xC30 JUMP JUMPDEST SWAP2 SWAP1 POP SSTORE POP POP POP POP JUMP JUMPDEST PUSH1 0x0 DUP3 DUP2 MSTORE PUSH1 0x1 PUSH1 0x20 SWAP1 DUP2 MSTORE PUSH1 0x40 DUP1 DUP4 KECCAK256 DUP5 DUP5 MSTORE SWAP1 SWAP2 MSTORE SWAP1 KECCAK256 SLOAD JUMPDEST SWAP3 SWAP2 POP POP JUMP JUMPDEST PUSH2 0x765 PUSH1 0x1 PUSH1 0x64 PUSH2 0xC49 JUMP JUMPDEST DUP2 JUMP JUMPDEST PUSH1 0x60 PUSH1 0x0 PUSH2 0x774 PUSH2 0xAC6 JUMP JUMPDEST PUSH2 0x780 PUSH1 0x1 PUSH1 0x64 PUSH2 0xC49 JUMP JUMPDEST PUSH2 0x78B DUP7 PUSH1 0x1 PUSH2 0xC70 JUMP JUMPDEST SGT PUSH2 0x7D5 JUMPI PUSH1 0x40 MLOAD DUP1 PUSH1 0x40 ADD PUSH1 0x40 MSTORE DUP1 DUP7 PUSH1 0x1 PUSH2 0x7A8 SWAP2 SWAP1 PUSH2 0xC70 JUMP JUMPDEST DUP2 MSTORE PUSH1 0x20 ADD DUP6 SWAP1 MSTORE DUP2 DUP4 PUSH1 0x4 DUP2 LT PUSH2 0x7C2 JUMPI PUSH2 0x7C2 PUSH2 0xC98 JUMP JUMPDEST PUSH1 0x20 MUL ADD MSTORE DUP2 PUSH2 0x7D1 DUP2 PUSH2 0xC30 JUMP JUMPDEST SWAP3 POP POP JUMPDEST PUSH1 0x0 PUSH2 0x7E2 PUSH1 0x1 DUP8 PUSH2 0xC49 JUMP JUMPDEST SLT PUSH2 0x82C JUMPI PUSH1 0x40 MLOAD DUP1 PUSH1 0x40 ADD PUSH1 0x40 MSTORE DUP1 PUSH1 0x1 DUP8 PUSH2 0x7FF SWAP2 SWAP1 PUSH2 0xC49 JUMP JUMPDEST DUP2 MSTORE PUSH1 0x20 ADD DUP6 SWAP1 MSTORE DUP2 DUP4 PUSH1 0x4 DUP2 LT PUSH2 0x819 JUMPI PUSH2 0x819 PUSH2 0xC98 JUMP JUMPDEST PUSH1 0x20 MUL ADD MSTORE DUP2 PUSH2 0x828 DUP2 PUSH2 0xC30 JUMP JUMPDEST SWAP3 POP POP JUMPDEST PUSH2 0x838 PUSH1 0x1 PUSH1 0x64 PUSH2 0xC49 JUMP JUMPDEST PUSH2 0x843 DUP6 PUSH1 0x1 PUSH2 0xC70 JUMP JUMPDEST SGT PUSH2 0x88D JUMPI PUSH1 0x40 MLOAD DUP1 PUSH1 0x40 ADD PUSH1 0x40 MSTORE DUP1 DUP7 DUP2 MSTORE PUSH1 0x20 ADD DUP6 PUSH1 0x1 PUSH2 0x866 SWAP2 SWAP1 PUSH2 0xC70 JUMP JUMPDEST SWAP1 MSTORE DUP2 DUP4 PUSH1 0x4 DUP2 LT PUSH2 0x87A JUMPI PUSH2 0x87A PUSH2 0xC98 JUMP JUMPDEST PUSH1 0x20 MUL ADD MSTORE DUP2 PUSH2 0x889 DUP2 PUSH2 0xC30 JUMP JUMPDEST SWAP3 POP POP JUMPDEST PUSH1 0x0 PUSH2 0x89A PUSH1 0x1 DUP7 PUSH2 0xC49 JUMP JUMPDEST SLT PUSH2 0x8E4 JUMPI PUSH1 0x40 MLOAD DUP1 PUSH1 0x40 ADD PUSH1 0x40 MSTORE DUP1 DUP7 DUP2 MSTORE PUSH1 0x20 ADD PUSH1 0x1 DUP7 PUSH2 0x8BD SWAP2 SWAP1 PUSH2 0xC49 JUMP JUMPDEST SWAP1 MSTORE DUP2 DUP4 PUSH1 0x4 DUP2 LT PUSH2 0x8D1 JUMPI PUSH2 0x8D1 PUSH2 0xC98 JUMP JUMPDEST PUSH1 0x20 MUL ADD MSTORE DUP2 PUSH2 0x8E0 DUP2 PUSH2 0xC30 JUMP JUMPDEST SWAP3 POP POP JUMPDEST PUSH1 0x0 DUP3 PUSH8 0xFFFFFFFFFFFFFFFF DUP2 GT ISZERO PUSH2 0x8FF JUMPI PUSH2 0x8FF PUSH2 0xCAE JUMP JUMPDEST PUSH1 0x40 MLOAD SWAP1 DUP1 DUP3 MSTORE DUP1 PUSH1 0x20 MUL PUSH1 0x20 ADD DUP3 ADD PUSH1 0x40 MSTORE DUP1 ISZERO PUSH2 0x944 JUMPI DUP2 PUSH1 0x20 ADD JUMPDEST PUSH1 0x40 DUP1 MLOAD DUP1 DUP3 ADD SWAP1 SWAP2 MSTORE PUSH1 0x0 DUP1 DUP3 MSTORE PUSH1 0x20 DUP3 ADD MSTORE DUP2 MSTORE PUSH1 0x20 ADD SWAP1 PUSH1 0x1 SWAP1 SUB SWAP1 DUP2 PUSH2 0x91D JUMPI SWAP1 POP JUMPDEST POP SWAP1 POP PUSH1 0x0 DUP1 JUMPDEST DUP5 DUP2 LT ISZERO PUSH2 0xA01 JUMPI PUSH2 0x9A8 DUP5 DUP3 PUSH1 0x4 DUP2 LT PUSH2 0x968 JUMPI PUSH2 0x968 PUSH2 0xC98 JUMP JUMPDEST PUSH1 0x20 MUL ADD MLOAD MLOAD DUP6 DUP4 PUSH1 0x4 DUP2 LT PUSH2 0x980 JUMPI PUSH2 0x980 PUSH2 0xC98 JUMP JUMPDEST PUSH1 0x20 MUL ADD MLOAD PUSH1 0x20 ADD MLOAD PUSH1 0x0 SWAP2 DUP3 MSTORE PUSH1 0x1 PUSH1 0x20 SWAP1 DUP2 MSTORE PUSH1 0x40 DUP1 DUP5 KECCAK256 SWAP3 DUP5 MSTORE SWAP2 SWAP1 MSTORE SWAP1 KECCAK256 SLOAD ISZERO ISZERO SWAP1 JUMP JUMPDEST PUSH2 0x9EF JUMPI DUP4 DUP2 PUSH1 0x4 DUP2 LT PUSH2 0x9BE JUMPI PUSH2 0x9BE PUSH2 0xC98 JUMP JUMPDEST PUSH1 0x20 MUL ADD MLOAD DUP4 DUP4 DUP2 MLOAD DUP2 LT PUSH2 0x9D5 JUMPI PUSH2 0x9D5 PUSH2 0xC98 JUMP JUMPDEST PUSH1 0x20 MUL PUSH1 0x20 ADD ADD DUP2 SWAP1 MSTORE POP DUP2 DUP1 PUSH2 0x9EB SWAP1 PUSH2 0xC30 JUMP JUMPDEST SWAP3 POP POP JUMPDEST DUP1 PUSH2 0x9F9 DUP2 PUSH2 0xC30 JUMP JUMPDEST SWAP2 POP POP PUSH2 0x94B JUMP JUMPDEST POP PUSH1 0x0 DUP2 PUSH8 0xFFFFFFFFFFFFFFFF DUP2 GT ISZERO PUSH2 0xA1D JUMPI PUSH2 0xA1D PUSH2 0xCAE JUMP JUMPDEST PUSH1 0x40 MLOAD SWAP1 DUP1 DUP3 MSTORE DUP1 PUSH1 0x20 MUL PUSH1 0x20 ADD DUP3 ADD PUSH1 0x40 MSTORE DUP1 ISZERO PUSH2 0xA62 JUMPI DUP2 PUSH1 0x20 ADD JUMPDEST PUSH1 0x40 DUP1 MLOAD DUP1 DUP3 ADD SWAP1 SWAP2 MSTORE PUSH1 0x0 DUP1 DUP3 MSTORE PUSH1 0x20 DUP3 ADD MSTORE DUP2 MSTORE PUSH1 0x20 ADD SWAP1 PUSH1 0x1 SWAP1 SUB SWAP1 DUP2 PUSH2 0xA3B JUMPI SWAP1 POP JUMPDEST POP SWAP1 POP PUSH1 0x0 JUMPDEST DUP3 DUP2 LT ISZERO PUSH2 0xABA JUMPI DUP4 DUP2 DUP2 MLOAD DUP2 LT PUSH2 0xA82 JUMPI PUSH2 0xA82 PUSH2 0xC98 JUMP JUMPDEST PUSH1 0x20 MUL PUSH1 0x20 ADD ADD MLOAD DUP3 DUP3 DUP2 MLOAD DUP2 LT PUSH2 0xA9C JUMPI PUSH2 0xA9C PUSH2 0xC98 JUMP JUMPDEST PUSH1 0x20 MUL PUSH1 0x20 ADD ADD DUP2 SWAP1 MSTORE POP DUP1 DUP1 PUSH2 0xAB2 SWAP1 PUSH2 0xC30 JUMP JUMPDEST SWAP2 POP POP PUSH2 0xA68 JUMP JUMPDEST POP SWAP8 SWAP7 POP POP POP POP POP POP POP JUMP JUMPDEST PUSH1 0x40 MLOAD DUP1 PUSH1 0x80 ADD PUSH1 0x40 MSTORE DUP1 PUSH1 0x4 SWAP1 JUMPDEST PUSH1 0x40 DUP1 MLOAD DUP1 DUP3 ADD SWAP1 SWAP2 MSTORE PUSH1 0x0 DUP1 DUP3 MSTORE PUSH1 0x20 DUP3 ADD MSTORE DUP2 MSTORE PUSH1 0x20 ADD SWAP1 PUSH1 0x1 SWAP1 SUB SWAP1 DUP2 PUSH2 0xAD5 JUMPI SWAP1 POP POP SWAP1 JUMP JUMPDEST PUSH1 0x0 PUSH1 0x20 DUP3 DUP5 SUB SLT ISZERO PUSH2 0xB11 JUMPI PUSH1 0x0 DUP1 REVERT JUMPDEST POP CALLDATALOAD SWAP2 SWAP1 POP JUMP JUMPDEST PUSH1 0x0 PUSH1 0x20 DUP3 DUP5 SUB SLT ISZERO PUSH2 0xB2A JUMPI PUSH1 0x0 DUP1 REVERT JUMPDEST DUP2 CALLDATALOAD PUSH1 0x1 PUSH1 0x1 PUSH1 0xA0 SHL SUB DUP2 AND DUP2 EQ PUSH2 0xB41 JUMPI PUSH1 0x0 DUP1 REVERT JUMPDEST SWAP4 SWAP3 POP POP POP JUMP JUMPDEST PUSH1 0x0 DUP1 PUSH1 0x0 PUSH1 0x60 DUP5 DUP7 SUB SLT ISZERO PUSH2 0xB5D JUMPI PUSH1 0x0 DUP1 REVERT JUMPDEST POP POP DUP2 CALLDATALOAD SWAP4 PUSH1 0x20 DUP4 ADD CALLDATALOAD SWAP4 POP PUSH1 0x40 SWAP1 SWAP3 ADD CALLDATALOAD SWAP2 SWAP1 POP JUMP JUMPDEST PUSH1 0x0 DUP1 PUSH1 0x40 DUP4 DUP6 SUB SLT ISZERO PUSH2 0xB87 JUMPI PUSH1 0x0 DUP1 REVERT JUMPDEST POP POP DUP1 CALLDATALOAD SWAP3 PUSH1 0x20 SWAP1 SWAP2 ADD CALLDATALOAD SWAP2 POP JUMP JUMPDEST PUSH1 0x20 DUP1 DUP3 MSTORE DUP3 MLOAD DUP3 DUP3 ADD DUP2 SWAP1 MSTORE PUSH1 0x0 SWAP2 SWAP1 PUSH1 0x40 SWAP1 DUP2 DUP6 ADD SWAP1 DUP7 DUP5 ADD DUP6 JUMPDEST DUP3 DUP2 LT ISZERO PUSH2 0xBD8 JUMPI DUP2 MLOAD DUP1 MLOAD DUP6 MSTORE DUP7 ADD MLOAD DUP7 DUP6 ADD MSTORE SWAP3 DUP5 ADD SWAP3 SWAP1 DUP6 ADD SWAP1 PUSH1 0x1 ADD PUSH2 0xBB3 JUMP JUMPDEST POP SWAP2 SWAP8 SWAP7 POP POP POP POP POP POP POP JUMP JUMPDEST PUSH1 0x0 DUP3 PUSH2 0xC02 JUMPI PUSH4 0x4E487B71 PUSH1 0xE0 SHL PUSH1 0x0 MSTORE PUSH1 0x12 PUSH1 0x4 MSTORE PUSH1 0x24 PUSH1 0x0 REVERT JUMPDEST POP MOD SWAP1 JUMP JUMPDEST PUSH4 0x4E487B71 PUSH1 0xE0 SHL PUSH1 0x0 MSTORE PUSH1 0x11 PUSH1 0x4 MSTORE PUSH1 0x24 PUSH1 0x0 REVERT JUMPDEST DUP1 DUP3 ADD DUP1 DUP3 GT ISZERO PUSH2 0x753 JUMPI PUSH2 0x753 PUSH2 0xC07 JUMP JUMPDEST PUSH1 0x0 PUSH1 0x1 DUP3 ADD PUSH2 0xC42 JUMPI PUSH2 0xC42 PUSH2 0xC07 JUMP JUMPDEST POP PUSH1 0x1 ADD SWAP1 JUMP JUMPDEST DUP2 DUP2 SUB PUSH1 0x0 DUP4 SLT DUP1 ISZERO DUP4 DUP4 SGT AND DUP4 DUP4 SLT DUP3 AND OR ISZERO PUSH2 0xC69 JUMPI PUSH2 0xC69 PUSH2 0xC07 JUMP JUMPDEST POP SWAP3 SWAP2 POP POP JUMP JUMPDEST DUP1 DUP3 ADD DUP3 DUP2 SLT PUSH1 0x0 DUP4 SLT DUP1 ISZERO DUP3 AND DUP3 ISZERO DUP3 AND OR ISZERO PUSH2 0xC90 JUMPI PUSH2 0xC90 PUSH2 0xC07 JUMP JUMPDEST POP POP SWAP3 SWAP2 POP POP JUMP JUMPDEST PUSH4 0x4E487B71 PUSH1 0xE0 SHL PUSH1 0x0 MSTORE PUSH1 0x32 PUSH1 0x4 MSTORE PUSH1 0x24 PUSH1 0x0 REVERT JUMPDEST PUSH4 0x4E487B71 PUSH1 0xE0 SHL PUSH1 0x0 MSTORE PUSH1 0x41 PUSH1 0x4 MSTORE PUSH1 0x24 PUSH1 0x0 REVERT INVALID LOG2 PUSH5 0x6970667358 0x22 SLT KECCAK256 SWAP13 DUP5 NOT 0xCC PUSH18 0x91E2913E609E08873A260C72B98C51CE806 0xAB CHAINID TIMESTAMP 0xED SWAP3 LOG3 PUSH13 0xBA3264736F6C63430008130033 "},"methodIdentifiers":{"GRID_SIZE()":"7fc4eda8","MAX_COORDINATE()":"d2574183","MAX_COORDINATES()":"48f21a62","MIN_COORDINATE()":"0650e904","assignCoordinate(uint256,int256,int256)":"478935d3","assignRandomCoordinate(uint256)":"1039f59d","getAvailableAdjacentCoordinates(int256,int256)":"e4027da6","getCoordinateTokenId(int256,int256)":"7babce56","getTokenCoordinates(uint256)":"3c7c604f","isCoordinateOccupied(int256,int256)":"7facfc10","landNFTAddress()":"8cf6408f","setLandNFTAddress(address)":"37c905a9","totalAssignedCoordinates()":"af11c6f6"}}}}}