{"contracts/ArmyDeck.sol":{"ArmyDeck":{"abi":[{"inputs":[{"internalType":"address","name":"_unitNFTAddress","type":"address"}],"stateMutability":"nonpayable","type":"constructor"},{"anonymous":false,"inputs":[{"indexed":true,"internalType":"address","name":"previousOwner","type":"address"},{"indexed":true,"internalType":"address","name":"newOwner","type":"address"}],"name":"OwnershipTransferred","type":"event"},{"anonymous":false,"inputs":[{"indexed":true,"internalType":"address","name":"user","type":"address"},{"indexed":false,"internalType":"uint256[]","name":"unitIds","type":"uint256[]"}],"name":"UnitsAddedToDeck","type":"event"},{"anonymous":false,"inputs":[{"indexed":true,"internalType":"address","name":"user","type":"address"},{"indexed":false,"internalType":"uint256[]","name":"unitIds","type":"uint256[]"}],"name":"UnitsRemovedFromDeck","type":"event"},{"inputs":[],"name":"MAX_UNITS_IN_DECK","outputs":[{"internalType":"uint8","name":"","type":"uint8"}],"stateMutability":"view","type":"function"},{"inputs":[{"internalType":"uint256[]","name":"_unitIds","type":"uint256[]"}],"name":"addUnitsToDeck","outputs":[],"stateMutability":"nonpayable","type":"function"},{"inputs":[{"internalType":"address","name":"_user","type":"address"}],"name":"getUserDeck","outputs":[{"internalType":"uint256[]","name":"","type":"uint256[]"}],"stateMutability":"view","type":"function"},{"inputs":[{"internalType":"address","name":"_user","type":"address"}],"name":"getUserDeckUnitDetails","outputs":[{"internalType":"string[]","name":"names","type":"string[]"},{"internalType":"uint256[]","name":"attacks","type":"uint256[]"},{"internalType":"uint256[]","name":"defenses","type":"uint256[]"},{"internalType":"uint256[]","name":"speeds","type":"uint256[]"},{"internalType":"uint256[]","name":"ranges","type":"uint256[]"},{"internalType":"string[]","name":"abilitiesList","type":"string[]"},{"internalType":"bool[]","name":"isActives","type":"bool[]"}],"stateMutability":"view","type":"function"},{"inputs":[],"name":"owner","outputs":[{"internalType":"address","name":"","type":"address"}],"stateMutability":"view","type":"function"},{"inputs":[{"internalType":"uint256[]","name":"_unitIds","type":"uint256[]"}],"name":"removeUnitsFromDeck","outputs":[],"stateMutability":"nonpayable","type":"function"},{"inputs":[],"name":"renounceOwnership","outputs":[],"stateMutability":"nonpayable","type":"function"},{"inputs":[{"internalType":"address","name":"newOwner","type":"address"}],"name":"transferOwnership","outputs":[],"stateMutability":"nonpayable","type":"function"},{"inputs":[],"name":"unitNFTContract","outputs":[{"internalType":"contract IUnitNFT","name":"","type":"address"}],"stateMutability":"view","type":"function"},{"inputs":[{"internalType":"address","name":"","type":"address"},{"internalType":"uint256","name":"","type":"uint256"}],"name":"userDecks","outputs":[{"internalType":"uint256","name":"","type":"uint256"}],"stateMutability":"view","type":"function"}],"evm":{"bytecode":{"linkReferences":{},"object":"6080346100a757601f610fab38819003918201601f19168301916001600160401b038311848410176100ac578084926020946040528339810103126100a757516001600160a01b0390818116908190036100a75760005460018060a01b0319903382821617600055604051933391167f8be0079c531659141344cd1fd0a4f28419497f9722a3daafe3b4186f6b6457e0600080a36001541617600155610ee890816100c38239f35b600080fd5b634e487b7160e01b600052604160045260246000fdfe608080604052600436101561001357600080fd5b60003560e01c9081633d3ab78414610a20575080635f45304e146109c8578063715018a61461096f5780637371111a14610946578063822b6eeb146108b75780638da5cb5b1461088e578063bf9ccf3314610483578063c70e116c14610234578063cb0aac281461015b5763f2fde38b1461008d57600080fd5b34610156576020366003190112610156576100a6610a3a565b6100ae610b93565b6001600160a01b0390811690811561010257600054826bffffffffffffffffffffffff60a01b821617600055167f8be0079c531659141344cd1fd0a4f28419497f9722a3daafe3b4186f6b6457e0600080a3005b60405162461bcd60e51b815260206004820152602660248201527f4f776e61626c653a206e6577206f776e657220697320746865207a65726f206160448201526564647265737360d01b6064820152608490fd5b600080fd5b346101565761016936610b46565b610174811515610beb565b3360005260026020526040600020818154106101ef5760005b8281106101cc5760405133907ff9b2e78f75b7ad64bcb8b8cf8464699d454781b15cc208607039aef94ad20c0790806101c7878983610c6c565b0390a2005b806101e56101de6101ea938688610c3a565b3584610d92565b610c2b565b61018d565b60405162461bcd60e51b815260206004820152601860248201527f4e6f7420656e6f75676820756e69747320696e206465636b00000000000000006044820152606490fd5b346101565761024236610b46565b61024d811515610beb565b33600052602060028152604060002090815483810180911161046d576007106104335760005b8381106102ad5760405133907fb148cdf0fdad47346220b5e24963d8928af1ae448bcd673fb30031cdc253dbb590806101c7888a83610c6c565b6102b8818587610c3a565b600180546040516331a9108f60e11b815292356004840181905292602492916001600160a01b0390879083908690829085165afa918215610427576000926103ef575b50339116036103ab5761030e8387610e70565b610370578554916801000000000000000083101561035c57509161033e8261035795946101e59401885587610a50565b90919082549060031b91821b91600019901b1916179055565b610273565b634e487b7160e01b60009081526041600452fd5b60405162461bcd60e51b81526004810186905260148184015273556e697420616c726561647920696e206465636b60601b6044820152606490fd5b60405162461bcd60e51b815260048101869052601a818401527f4e6f7420746865206f776e6572206f66207468697320756e69740000000000006044820152606490fd5b9091508681813d8311610420575b6104078183610c4a565b810103126101565751818116810361015657908a6102fb565b503d6103fd565b6040513d6000823e3d90fd5b6064906040519062461bcd60e51b825260048201526013602482015272111958dac81b1a5b5a5d08195e18d959591959606a1b6044820152fd5b634e487b7160e01b600052601160045260246000fd5b34610156576020366003190112610156576001600160a01b03806104a5610a3a565b16600052600260205260406000206040518082602082945493848152019060005260206000209260005b8181106108755750506104e492500382610c4a565b8051916104f083610cad565b926104fa81610cf7565b61050382610cf7565b61050c83610cf7565b9161051684610cf7565b9361052081610cad565b9561052a82610c95565b97610538604051998a610c4a565b828952601f1961054784610c95565b013660208b013760009160015416915b83811061061357508960e08a6105d28b6105c48c6105b68d6105a88e61059a8f61058c6040519d8d8f9e8f9081520190610ad5565b8c810360208e015290610a7e565b908a820360408c0152610a7e565b9088820360608a0152610a7e565b908682036080880152610a7e565b9084820360a0860152610ad5565b82810360c08401526020808351928381520192019060005b8181106105f8575050500390f35b825115158452859450602093840193909201916001016105ea565b61062381839c969798999c610d29565b51906040519163fe401d2f60e01b83526004830152600082602481875afa918215610427576000926106ea575b5060e0826106df9351610663848a610d29565b5261066e8389610d29565b50602081015161067e848b610d29565b52604081015161068e848c610d29565b52606081015161069e848d610d29565b528d6106af84608084015192610d29565b5260a08101516106bf848e610d29565b526106ca838d610d29565b50015115156106d9828d610d29565b52610c2b565b999695949399610557565b3d9250826000823e6106fc8382610c4a565b602081848101031261015657805167ffffffffffffffff8111610156576101a081830185840103126101565760405193610100850185811067ffffffffffffffff82111761085f576040528183015167ffffffffffffffff81116101565761076b908285019084860101610d3d565b85528282016020818101519087015260408082015190870152606080820151908701526080808201519087015260a001519067ffffffffffffffff8211610156576107bf60c0928286019085870101610d3d565b60a08701528383019084010360bf19011261015657604051918260c081011067ffffffffffffffff60c08501111761085f5760c083810160409081529290910180820151845260e08101516020850152610100810151928401929092526101208201516060840152610140820151608084015261016082015160a0840152840191909152610180015180151581036101565760e080840191909152610650565b634e487b7160e01b600052604160045260246000fd5b84548352600194850194869450602090930192016104cf565b34610156576000366003190112610156576000546040516001600160a01b039091168152602090f35b3461015657602080600319360112610156576001600160a01b036108d9610a3a565b1660005260028152604060002090604051808383829554938481520190600052836000209260005b858282106109305750505061091892500383610c4a565b61092c604051928284938452830190610a7e565b0390f35b8554845260019586019588955093019201610901565b34610156576000366003190112610156576001546040516001600160a01b039091168152602090f35b3461015657600036600319011261015657610988610b93565b600080546001600160a01b0319811682556001600160a01b03167f8be0079c531659141344cd1fd0a4f28419497f9722a3daafe3b4186f6b6457e08280a3005b34610156576040366003190112610156576109e1610a3a565b6001600160a01b031660009081526002602052604090208054602435919082101561015657602091610a1291610a50565b90546040519160031b1c8152f35b346101565760003660031901126101565780600760209252f35b600435906001600160a01b038216820361015657565b8054821015610a685760005260206000200190600090565b634e487b7160e01b600052603260045260246000fd5b90815180825260208080930193019160005b828110610a9e575050505090565b835185529381019392810192600101610a90565b60005b838110610ac55750506000910152565b8181015183820152602001610ab5565b908082519081815260208091019281808460051b8301019501936000915b848310610b035750505050505090565b909192939495848080600193601f1980878303018852601f8c51610b3281518092818752878088019101610ab2565b011601019801930193019194939290610af3565b9060206003198301126101565760043567ffffffffffffffff9283821161015657806023830112156101565781600401359384116101565760248460051b83010111610156576024019190565b6000546001600160a01b03163303610ba757565b606460405162461bcd60e51b815260206004820152602060248201527f4f776e61626c653a2063616c6c6572206973206e6f7420746865206f776e65726044820152fd5b15610bf257565b60405162461bcd60e51b8152602060048201526011602482015270139bc81d5b9a5d1cc81c1c9bdd9a591959607a1b6044820152606490fd5b600019811461046d5760010190565b9190811015610a685760051b0190565b90601f8019910116810190811067ffffffffffffffff82111761085f57604052565b602080825281018390526001600160fb1b0383116101565760409260051b809284830137010190565b67ffffffffffffffff811161085f5760051b60200190565b90610cb782610c95565b610cc46040519182610c4a565b8281528092610cd5601f1991610c95565b019060005b828110610ce657505050565b806060602080938501015201610cda565b90610d0182610c95565b610d0e6040519182610c4a565b8281528092610d1f601f1991610c95565b0190602036910137565b8051821015610a685760209160051b010190565b81601f8201121561015657805167ffffffffffffffff811161085f5760405192610d71601f8301601f191660200185610c4a565b8184526020828401011161015657610d8f9160208085019101610ab2565b90565b9060005b825480821015610e32578290610dac8386610a50565b929054600393841b1c14610dca575050610dc590610c2b565b610d96565b909392506000199182820191821161046d5761033e610dec610df99386610a50565b905490871b1c9185610a50565b81548015610e1c57810192610e0e8484610a50565b81939154921b1b1916905555565b634e487b7160e01b600052603160045260246000fd5b60405162461bcd60e51b8152602060048201526016602482015275556e6974206e6f7420666f756e6420696e206465636b60501b6044820152606490fd5b9060005b8254811015610eaa5781610e888285610a50565b90549060031b1c14610ea257610e9d90610c2b565b610e74565b505050600190565b50505060009056fea26469706673582212203470cda1bd5c2042b3f65cd4a5922fde57a989e35176e49b1c8c4a4f8a032b8064736f6c63430008130033","opcodes":"PUSH1 0x80 CALLVALUE PUSH2 0xA7 JUMPI PUSH1 0x1F PUSH2 0xFAB CODESIZE DUP2 SWAP1 SUB SWAP2 DUP3 ADD PUSH1 0x1F NOT AND DUP4 ADD SWAP2 PUSH1 0x1 PUSH1 0x1 PUSH1 0x40 SHL SUB DUP4 GT DUP5 DUP5 LT OR PUSH2 0xAC JUMPI DUP1 DUP5 SWAP3 PUSH1 0x20 SWAP5 PUSH1 0x40 MSTORE DUP4 CODECOPY DUP2 ADD SUB SLT PUSH2 0xA7 JUMPI MLOAD PUSH1 0x1 PUSH1 0x1 PUSH1 0xA0 SHL SUB SWAP1 DUP2 DUP2 AND SWAP1 DUP2 SWAP1 SUB PUSH2 0xA7 JUMPI PUSH1 0x0 SLOAD PUSH1 0x1 DUP1 PUSH1 0xA0 SHL SUB NOT SWAP1 CALLER DUP3 DUP3 AND OR PUSH1 0x0 SSTORE PUSH1 0x40 MLOAD SWAP4 CALLER SWAP2 AND PUSH32 0x8BE0079C531659141344CD1FD0A4F28419497F9722A3DAAFE3B4186F6B6457E0 PUSH1 0x0 DUP1 LOG3 PUSH1 0x1 SLOAD AND OR PUSH1 0x1 SSTORE PUSH2 0xEE8 SWAP1 DUP2 PUSH2 0xC3 DUP3 CODECOPY RETURN JUMPDEST PUSH1 0x0 DUP1 REVERT JUMPDEST PUSH4 0x4E487B71 PUSH1 0xE0 SHL PUSH1 0x0 MSTORE PUSH1 0x41 PUSH1 0x4 MSTORE PUSH1 0x24 PUSH1 0x0 REVERT INVALID PUSH1 0x80 DUP1 PUSH1 0x40 MSTORE PUSH1 0x4 CALLDATASIZE LT ISZERO PUSH2 0x13 JUMPI PUSH1 0x0 DUP1 REVERT JUMPDEST PUSH1 0x0 CALLDATALOAD PUSH1 0xE0 SHR SWAP1 DUP2 PUSH4 0x3D3AB784 EQ PUSH2 0xA20 JUMPI POP DUP1 PUSH4 0x5F45304E EQ PUSH2 0x9C8 JUMPI DUP1 PUSH4 0x715018A6 EQ PUSH2 0x96F JUMPI DUP1 PUSH4 0x7371111A EQ PUSH2 0x946 JUMPI DUP1 PUSH4 0x822B6EEB EQ PUSH2 0x8B7 JUMPI DUP1 PUSH4 0x8DA5CB5B EQ PUSH2 0x88E JUMPI DUP1 PUSH4 0xBF9CCF33 EQ PUSH2 0x483 JUMPI DUP1 PUSH4 0xC70E116C EQ PUSH2 0x234 JUMPI DUP1 PUSH4 0xCB0AAC28 EQ PUSH2 0x15B JUMPI PUSH4 0xF2FDE38B EQ PUSH2 0x8D JUMPI PUSH1 0x0 DUP1 REVERT JUMPDEST CALLVALUE PUSH2 0x156 JUMPI PUSH1 0x20 CALLDATASIZE PUSH1 0x3 NOT ADD SLT PUSH2 0x156 JUMPI PUSH2 0xA6 PUSH2 0xA3A JUMP JUMPDEST PUSH2 0xAE PUSH2 0xB93 JUMP JUMPDEST PUSH1 0x1 PUSH1 0x1 PUSH1 0xA0 SHL SUB SWAP1 DUP2 AND SWAP1 DUP2 ISZERO PUSH2 0x102 JUMPI PUSH1 0x0 SLOAD DUP3 PUSH12 0xFFFFFFFFFFFFFFFFFFFFFFFF PUSH1 0xA0 SHL DUP3 AND OR PUSH1 0x0 SSTORE AND PUSH32 0x8BE0079C531659141344CD1FD0A4F28419497F9722A3DAAFE3B4186F6B6457E0 PUSH1 0x0 DUP1 LOG3 STOP JUMPDEST PUSH1 0x40 MLOAD PUSH3 0x461BCD PUSH1 0xE5 SHL DUP2 MSTORE PUSH1 0x20 PUSH1 0x4 DUP3 ADD MSTORE PUSH1 0x26 PUSH1 0x24 DUP3 ADD MSTORE PUSH32 0x4F776E61626C653A206E6577206F776E657220697320746865207A65726F2061 PUSH1 0x44 DUP3 ADD MSTORE PUSH6 0x646472657373 PUSH1 0xD0 SHL PUSH1 0x64 DUP3 ADD MSTORE PUSH1 0x84 SWAP1 REVERT JUMPDEST PUSH1 0x0 DUP1 REVERT JUMPDEST CALLVALUE PUSH2 0x156 JUMPI PUSH2 0x169 CALLDATASIZE PUSH2 0xB46 JUMP JUMPDEST PUSH2 0x174 DUP2 ISZERO ISZERO PUSH2 0xBEB JUMP JUMPDEST CALLER PUSH1 0x0 MSTORE PUSH1 0x2 PUSH1 0x20 MSTORE PUSH1 0x40 PUSH1 0x0 KECCAK256 DUP2 DUP2 SLOAD LT PUSH2 0x1EF JUMPI PUSH1 0x0 JUMPDEST DUP3 DUP2 LT PUSH2 0x1CC JUMPI PUSH1 0x40 MLOAD CALLER SWAP1 PUSH32 0xF9B2E78F75B7AD64BCB8B8CF8464699D454781B15CC208607039AEF94AD20C07 SWAP1 DUP1 PUSH2 0x1C7 DUP8 DUP10 DUP4 PUSH2 0xC6C JUMP JUMPDEST SUB SWAP1 LOG2 STOP JUMPDEST DUP1 PUSH2 0x1E5 PUSH2 0x1DE PUSH2 0x1EA SWAP4 DUP7 DUP9 PUSH2 0xC3A JUMP JUMPDEST CALLDATALOAD DUP5 PUSH2 0xD92 JUMP JUMPDEST PUSH2 0xC2B JUMP JUMPDEST PUSH2 0x18D JUMP JUMPDEST PUSH1 0x40 MLOAD PUSH3 0x461BCD PUSH1 0xE5 SHL DUP2 MSTORE PUSH1 0x20 PUSH1 0x4 DUP3 ADD MSTORE PUSH1 0x18 PUSH1 0x24 DUP3 ADD MSTORE PUSH32 0x4E6F7420656E6F75676820756E69747320696E206465636B0000000000000000 PUSH1 0x44 DUP3 ADD MSTORE PUSH1 0x64 SWAP1 REVERT JUMPDEST CALLVALUE PUSH2 0x156 JUMPI PUSH2 0x242 CALLDATASIZE PUSH2 0xB46 JUMP JUMPDEST PUSH2 0x24D DUP2 ISZERO ISZERO PUSH2 0xBEB JUMP JUMPDEST CALLER PUSH1 0x0 MSTORE PUSH1 0x20 PUSH1 0x2 DUP2 MSTORE PUSH1 0x40 PUSH1 0x0 KECCAK256 SWAP1 DUP2 SLOAD DUP4 DUP2 ADD DUP1 SWAP2 GT PUSH2 0x46D JUMPI PUSH1 0x7 LT PUSH2 0x433 JUMPI PUSH1 0x0 JUMPDEST DUP4 DUP2 LT PUSH2 0x2AD JUMPI PUSH1 0x40 MLOAD CALLER SWAP1 PUSH32 0xB148CDF0FDAD47346220B5E24963D8928AF1AE448BCD673FB30031CDC253DBB5 SWAP1 DUP1 PUSH2 0x1C7 DUP9 DUP11 DUP4 PUSH2 0xC6C JUMP JUMPDEST PUSH2 0x2B8 DUP2 DUP6 DUP8 PUSH2 0xC3A JUMP JUMPDEST PUSH1 0x1 DUP1 SLOAD PUSH1 0x40 MLOAD PUSH4 0x31A9108F PUSH1 0xE1 SHL DUP2 MSTORE SWAP3 CALLDATALOAD PUSH1 0x4 DUP5 ADD DUP2 SWAP1 MSTORE SWAP3 PUSH1 0x24 SWAP3 SWAP2 PUSH1 0x1 PUSH1 0x1 PUSH1 0xA0 SHL SUB SWAP1 DUP8 SWAP1 DUP4 SWAP1 DUP7 SWAP1 DUP3 SWAP1 DUP6 AND GAS STATICCALL SWAP2 DUP3 ISZERO PUSH2 0x427 JUMPI PUSH1 0x0 SWAP3 PUSH2 0x3EF JUMPI JUMPDEST POP CALLER SWAP2 AND SUB PUSH2 0x3AB JUMPI PUSH2 0x30E DUP4 DUP8 PUSH2 0xE70 JUMP JUMPDEST PUSH2 0x370 JUMPI DUP6 SLOAD SWAP2 PUSH9 0x10000000000000000 DUP4 LT ISZERO PUSH2 0x35C JUMPI POP SWAP2 PUSH2 0x33E DUP3 PUSH2 0x357 SWAP6 SWAP5 PUSH2 0x1E5 SWAP5 ADD DUP9 SSTORE DUP8 PUSH2 0xA50 JUMP JUMPDEST SWAP1 SWAP2 SWAP1 DUP3 SLOAD SWAP1 PUSH1 0x3 SHL SWAP2 DUP3 SHL SWAP2 PUSH1 0x0 NOT SWAP1 SHL NOT AND OR SWAP1 SSTORE JUMP JUMPDEST PUSH2 0x273 JUMP JUMPDEST PUSH4 0x4E487B71 PUSH1 0xE0 SHL PUSH1 0x0 SWAP1 DUP2 MSTORE PUSH1 0x41 PUSH1 0x4 MSTORE REVERT JUMPDEST PUSH1 0x40 MLOAD PUSH3 0x461BCD PUSH1 0xE5 SHL DUP2 MSTORE PUSH1 0x4 DUP2 ADD DUP7 SWAP1 MSTORE PUSH1 0x14 DUP2 DUP5 ADD MSTORE PUSH20 0x556E697420616C726561647920696E206465636B PUSH1 0x60 SHL PUSH1 0x44 DUP3 ADD MSTORE PUSH1 0x64 SWAP1 REVERT JUMPDEST PUSH1 0x40 MLOAD PUSH3 0x461BCD PUSH1 0xE5 SHL DUP2 MSTORE PUSH1 0x4 DUP2 ADD DUP7 SWAP1 MSTORE PUSH1 0x1A DUP2 DUP5 ADD MSTORE PUSH32 0x4E6F7420746865206F776E6572206F66207468697320756E6974000000000000 PUSH1 0x44 DUP3 ADD MSTORE PUSH1 0x64 SWAP1 REVERT JUMPDEST SWAP1 SWAP2 POP DUP7 DUP2 DUP2 RETURNDATASIZE DUP4 GT PUSH2 0x420 JUMPI JUMPDEST PUSH2 0x407 DUP2 DUP4 PUSH2 0xC4A JUMP JUMPDEST DUP2 ADD SUB SLT PUSH2 0x156 JUMPI MLOAD DUP2 DUP2 AND DUP2 SUB PUSH2 0x156 JUMPI SWAP1 DUP11 PUSH2 0x2FB JUMP JUMPDEST POP RETURNDATASIZE PUSH2 0x3FD JUMP JUMPDEST PUSH1 0x40 MLOAD RETURNDATASIZE PUSH1 0x0 DUP3 RETURNDATACOPY RETURNDATASIZE SWAP1 REVERT JUMPDEST PUSH1 0x64 SWAP1 PUSH1 0x40 MLOAD SWAP1 PUSH3 0x461BCD PUSH1 0xE5 SHL DUP3 MSTORE PUSH1 0x4 DUP3 ADD MSTORE PUSH1 0x13 PUSH1 0x24 DUP3 ADD MSTORE PUSH19 0x111958DAC81B1A5B5A5D08195E18D959591959 PUSH1 0x6A SHL PUSH1 0x44 DUP3 ADD MSTORE REVERT JUMPDEST PUSH4 0x4E487B71 PUSH1 0xE0 SHL PUSH1 0x0 MSTORE PUSH1 0x11 PUSH1 0x4 MSTORE PUSH1 0x24 PUSH1 0x0 REVERT JUMPDEST CALLVALUE PUSH2 0x156 JUMPI PUSH1 0x20 CALLDATASIZE PUSH1 0x3 NOT ADD SLT PUSH2 0x156 JUMPI PUSH1 0x1 PUSH1 0x1 PUSH1 0xA0 SHL SUB DUP1 PUSH2 0x4A5 PUSH2 0xA3A JUMP JUMPDEST AND PUSH1 0x0 MSTORE PUSH1 0x2 PUSH1 0x20 MSTORE PUSH1 0x40 PUSH1 0x0 KECCAK256 PUSH1 0x40 MLOAD DUP1 DUP3 PUSH1 0x20 DUP3 SWAP5 SLOAD SWAP4 DUP5 DUP2 MSTORE ADD SWAP1 PUSH1 0x0 MSTORE PUSH1 0x20 PUSH1 0x0 KECCAK256 SWAP3 PUSH1 0x0 JUMPDEST DUP2 DUP2 LT PUSH2 0x875 JUMPI POP POP PUSH2 0x4E4 SWAP3 POP SUB DUP3 PUSH2 0xC4A JUMP JUMPDEST DUP1 MLOAD SWAP2 PUSH2 0x4F0 DUP4 PUSH2 0xCAD JUMP JUMPDEST SWAP3 PUSH2 0x4FA DUP2 PUSH2 0xCF7 JUMP JUMPDEST PUSH2 0x503 DUP3 PUSH2 0xCF7 JUMP JUMPDEST PUSH2 0x50C DUP4 PUSH2 0xCF7 JUMP JUMPDEST SWAP2 PUSH2 0x516 DUP5 PUSH2 0xCF7 JUMP JUMPDEST SWAP4 PUSH2 0x520 DUP2 PUSH2 0xCAD JUMP JUMPDEST SWAP6 PUSH2 0x52A DUP3 PUSH2 0xC95 JUMP JUMPDEST SWAP8 PUSH2 0x538 PUSH1 0x40 MLOAD SWAP10 DUP11 PUSH2 0xC4A JUMP JUMPDEST DUP3 DUP10 MSTORE PUSH1 0x1F NOT PUSH2 0x547 DUP5 PUSH2 0xC95 JUMP JUMPDEST ADD CALLDATASIZE PUSH1 0x20 DUP12 ADD CALLDATACOPY PUSH1 0x0 SWAP2 PUSH1 0x1 SLOAD AND SWAP2 JUMPDEST DUP4 DUP2 LT PUSH2 0x613 JUMPI POP DUP10 PUSH1 0xE0 DUP11 PUSH2 0x5D2 DUP12 PUSH2 0x5C4 DUP13 PUSH2 0x5B6 DUP14 PUSH2 0x5A8 DUP15 PUSH2 0x59A DUP16 PUSH2 0x58C PUSH1 0x40 MLOAD SWAP14 DUP14 DUP16 SWAP15 DUP16 SWAP1 DUP2 MSTORE ADD SWAP1 PUSH2 0xAD5 JUMP JUMPDEST DUP13 DUP2 SUB PUSH1 0x20 DUP15 ADD MSTORE SWAP1 PUSH2 0xA7E JUMP JUMPDEST SWAP1 DUP11 DUP3 SUB PUSH1 0x40 DUP13 ADD MSTORE PUSH2 0xA7E JUMP JUMPDEST SWAP1 DUP9 DUP3 SUB PUSH1 0x60 DUP11 ADD MSTORE PUSH2 0xA7E JUMP JUMPDEST SWAP1 DUP7 DUP3 SUB PUSH1 0x80 DUP9 ADD MSTORE PUSH2 0xA7E JUMP JUMPDEST SWAP1 DUP5 DUP3 SUB PUSH1 0xA0 DUP7 ADD MSTORE PUSH2 0xAD5 JUMP JUMPDEST DUP3 DUP2 SUB PUSH1 0xC0 DUP5 ADD MSTORE PUSH1 0x20 DUP1 DUP4 MLOAD SWAP3 DUP4 DUP2 MSTORE ADD SWAP3 ADD SWAP1 PUSH1 0x0 JUMPDEST DUP2 DUP2 LT PUSH2 0x5F8 JUMPI POP POP POP SUB SWAP1 RETURN JUMPDEST DUP3 MLOAD ISZERO ISZERO DUP5 MSTORE DUP6 SWAP5 POP PUSH1 0x20 SWAP4 DUP5 ADD SWAP4 SWAP1 SWAP3 ADD SWAP2 PUSH1 0x1 ADD PUSH2 0x5EA JUMP JUMPDEST PUSH2 0x623 DUP2 DUP4 SWAP13 SWAP7 SWAP8 SWAP9 SWAP10 SWAP13 PUSH2 0xD29 JUMP JUMPDEST MLOAD SWAP1 PUSH1 0x40 MLOAD SWAP2 PUSH4 0xFE401D2F PUSH1 0xE0 SHL DUP4 MSTORE PUSH1 0x4 DUP4 ADD MSTORE PUSH1 0x0 DUP3 PUSH1 0x24 DUP2 DUP8 GAS STATICCALL SWAP2 DUP3 ISZERO PUSH2 0x427 JUMPI PUSH1 0x0 SWAP3 PUSH2 0x6EA JUMPI JUMPDEST POP PUSH1 0xE0 DUP3 PUSH2 0x6DF SWAP4 MLOAD PUSH2 0x663 DUP5 DUP11 PUSH2 0xD29 JUMP JUMPDEST MSTORE PUSH2 0x66E DUP4 DUP10 PUSH2 0xD29 JUMP JUMPDEST POP PUSH1 0x20 DUP2 ADD MLOAD PUSH2 0x67E DUP5 DUP12 PUSH2 0xD29 JUMP JUMPDEST MSTORE PUSH1 0x40 DUP2 ADD MLOAD PUSH2 0x68E DUP5 DUP13 PUSH2 0xD29 JUMP JUMPDEST MSTORE PUSH1 0x60 DUP2 ADD MLOAD PUSH2 0x69E DUP5 DUP14 PUSH2 0xD29 JUMP JUMPDEST MSTORE DUP14 PUSH2 0x6AF DUP5 PUSH1 0x80 DUP5 ADD MLOAD SWAP3 PUSH2 0xD29 JUMP JUMPDEST MSTORE PUSH1 0xA0 DUP2 ADD MLOAD PUSH2 0x6BF DUP5 DUP15 PUSH2 0xD29 JUMP JUMPDEST MSTORE PUSH2 0x6CA DUP4 DUP14 PUSH2 0xD29 JUMP JUMPDEST POP ADD MLOAD ISZERO ISZERO PUSH2 0x6D9 DUP3 DUP14 PUSH2 0xD29 JUMP JUMPDEST MSTORE PUSH2 0xC2B JUMP JUMPDEST SWAP10 SWAP7 SWAP6 SWAP5 SWAP4 SWAP10 PUSH2 0x557 JUMP JUMPDEST RETURNDATASIZE SWAP3 POP DUP3 PUSH1 0x0 DUP3 RETURNDATACOPY PUSH2 0x6FC DUP4 DUP3 PUSH2 0xC4A JUMP JUMPDEST PUSH1 0x20 DUP2 DUP5 DUP2 ADD SUB SLT PUSH2 0x156 JUMPI DUP1 MLOAD PUSH8 0xFFFFFFFFFFFFFFFF DUP2 GT PUSH2 0x156 JUMPI PUSH2 0x1A0 DUP2 DUP4 ADD DUP6 DUP5 ADD SUB SLT PUSH2 0x156 JUMPI PUSH1 0x40 MLOAD SWAP4 PUSH2 0x100 DUP6 ADD DUP6 DUP2 LT PUSH8 0xFFFFFFFFFFFFFFFF DUP3 GT OR PUSH2 0x85F JUMPI PUSH1 0x40 MSTORE DUP2 DUP4 ADD MLOAD PUSH8 0xFFFFFFFFFFFFFFFF DUP2 GT PUSH2 0x156 JUMPI PUSH2 0x76B SWAP1 DUP3 DUP6 ADD SWAP1 DUP5 DUP7 ADD ADD PUSH2 0xD3D JUMP JUMPDEST DUP6 MSTORE DUP3 DUP3 ADD PUSH1 0x20 DUP2 DUP2 ADD MLOAD SWAP1 DUP8 ADD MSTORE PUSH1 0x40 DUP1 DUP3 ADD MLOAD SWAP1 DUP8 ADD MSTORE PUSH1 0x60 DUP1 DUP3 ADD MLOAD SWAP1 DUP8 ADD MSTORE PUSH1 0x80 DUP1 DUP3 ADD MLOAD SWAP1 DUP8 ADD MSTORE PUSH1 0xA0 ADD MLOAD SWAP1 PUSH8 0xFFFFFFFFFFFFFFFF DUP3 GT PUSH2 0x156 JUMPI PUSH2 0x7BF PUSH1 0xC0 SWAP3 DUP3 DUP7 ADD SWAP1 DUP6 DUP8 ADD ADD PUSH2 0xD3D JUMP JUMPDEST PUSH1 0xA0 DUP8 ADD MSTORE DUP4 DUP4 ADD SWAP1 DUP5 ADD SUB PUSH1 0xBF NOT ADD SLT PUSH2 0x156 JUMPI PUSH1 0x40 MLOAD SWAP2 DUP3 PUSH1 0xC0 DUP2 ADD LT PUSH8 0xFFFFFFFFFFFFFFFF PUSH1 0xC0 DUP6 ADD GT OR PUSH2 0x85F JUMPI PUSH1 0xC0 DUP4 DUP2 ADD PUSH1 0x40 SWAP1 DUP2 MSTORE SWAP3 SWAP1 SWAP2 ADD DUP1 DUP3 ADD MLOAD DUP5 MSTORE PUSH1 0xE0 DUP2 ADD MLOAD PUSH1 0x20 DUP6 ADD MSTORE PUSH2 0x100 DUP2 ADD MLOAD SWAP3 DUP5 ADD SWAP3 SWAP1 SWAP3 MSTORE PUSH2 0x120 DUP3 ADD MLOAD PUSH1 0x60 DUP5 ADD MSTORE PUSH2 0x140 DUP3 ADD MLOAD PUSH1 0x80 DUP5 ADD MSTORE PUSH2 0x160 DUP3 ADD MLOAD PUSH1 0xA0 DUP5 ADD MSTORE DUP5 ADD SWAP2 SWAP1 SWAP2 MSTORE PUSH2 0x180 ADD MLOAD DUP1 ISZERO ISZERO DUP2 SUB PUSH2 0x156 JUMPI PUSH1 0xE0 DUP1 DUP5 ADD SWAP2 SWAP1 SWAP2 MSTORE PUSH2 0x650 JUMP JUMPDEST PUSH4 0x4E487B71 PUSH1 0xE0 SHL PUSH1 0x0 MSTORE PUSH1 0x41 PUSH1 0x4 MSTORE PUSH1 0x24 PUSH1 0x0 REVERT JUMPDEST DUP5 SLOAD DUP4 MSTORE PUSH1 0x1 SWAP5 DUP6 ADD SWAP5 DUP7 SWAP5 POP PUSH1 0x20 SWAP1 SWAP4 ADD SWAP3 ADD PUSH2 0x4CF JUMP JUMPDEST CALLVALUE PUSH2 0x156 JUMPI PUSH1 0x0 CALLDATASIZE PUSH1 0x3 NOT ADD SLT PUSH2 0x156 JUMPI PUSH1 0x0 SLOAD PUSH1 0x40 MLOAD PUSH1 0x1 PUSH1 0x1 PUSH1 0xA0 SHL SUB SWAP1 SWAP2 AND DUP2 MSTORE PUSH1 0x20 SWAP1 RETURN JUMPDEST CALLVALUE PUSH2 0x156 JUMPI PUSH1 0x20 DUP1 PUSH1 0x3 NOT CALLDATASIZE ADD SLT PUSH2 0x156 JUMPI PUSH1 0x1 PUSH1 0x1 PUSH1 0xA0 SHL SUB PUSH2 0x8D9 PUSH2 0xA3A JUMP JUMPDEST AND PUSH1 0x0 MSTORE PUSH1 0x2 DUP2 MSTORE PUSH1 0x40 PUSH1 0x0 KECCAK256 SWAP1 PUSH1 0x40 MLOAD DUP1 DUP4 DUP4 DUP3 SWAP6 SLOAD SWAP4 DUP5 DUP2 MSTORE ADD SWAP1 PUSH1 0x0 MSTORE DUP4 PUSH1 0x0 KECCAK256 SWAP3 PUSH1 0x0 JUMPDEST DUP6 DUP3 DUP3 LT PUSH2 0x930 JUMPI POP POP POP PUSH2 0x918 SWAP3 POP SUB DUP4 PUSH2 0xC4A JUMP JUMPDEST PUSH2 0x92C PUSH1 0x40 MLOAD SWAP3 DUP3 DUP5 SWAP4 DUP5 MSTORE DUP4 ADD SWAP1 PUSH2 0xA7E JUMP JUMPDEST SUB SWAP1 RETURN JUMPDEST DUP6 SLOAD DUP5 MSTORE PUSH1 0x1 SWAP6 DUP7 ADD SWAP6 DUP9 SWAP6 POP SWAP4 ADD SWAP3 ADD PUSH2 0x901 JUMP JUMPDEST CALLVALUE PUSH2 0x156 JUMPI PUSH1 0x0 CALLDATASIZE PUSH1 0x3 NOT ADD SLT PUSH2 0x156 JUMPI PUSH1 0x1 SLOAD PUSH1 0x40 MLOAD PUSH1 0x1 PUSH1 0x1 PUSH1 0xA0 SHL SUB SWAP1 SWAP2 AND DUP2 MSTORE PUSH1 0x20 SWAP1 RETURN JUMPDEST CALLVALUE PUSH2 0x156 JUMPI PUSH1 0x0 CALLDATASIZE PUSH1 0x3 NOT ADD SLT PUSH2 0x156 JUMPI PUSH2 0x988 PUSH2 0xB93 JUMP JUMPDEST PUSH1 0x0 DUP1 SLOAD PUSH1 0x1 PUSH1 0x1 PUSH1 0xA0 SHL SUB NOT DUP2 AND DUP3 SSTORE PUSH1 0x1 PUSH1 0x1 PUSH1 0xA0 SHL SUB AND PUSH32 0x8BE0079C531659141344CD1FD0A4F28419497F9722A3DAAFE3B4186F6B6457E0 DUP3 DUP1 LOG3 STOP JUMPDEST CALLVALUE PUSH2 0x156 JUMPI PUSH1 0x40 CALLDATASIZE PUSH1 0x3 NOT ADD SLT PUSH2 0x156 JUMPI PUSH2 0x9E1 PUSH2 0xA3A JUMP JUMPDEST PUSH1 0x1 PUSH1 0x1 PUSH1 0xA0 SHL SUB AND PUSH1 0x0 SWAP1 DUP2 MSTORE PUSH1 0x2 PUSH1 0x20 MSTORE PUSH1 0x40 SWAP1 KECCAK256 DUP1 SLOAD PUSH1 0x24 CALLDATALOAD SWAP2 SWAP1 DUP3 LT ISZERO PUSH2 0x156 JUMPI PUSH1 0x20 SWAP2 PUSH2 0xA12 SWAP2 PUSH2 0xA50 JUMP JUMPDEST SWAP1 SLOAD PUSH1 0x40 MLOAD SWAP2 PUSH1 0x3 SHL SHR DUP2 MSTORE RETURN JUMPDEST CALLVALUE PUSH2 0x156 JUMPI PUSH1 0x0 CALLDATASIZE PUSH1 0x3 NOT ADD SLT PUSH2 0x156 JUMPI DUP1 PUSH1 0x7 PUSH1 0x20 SWAP3 MSTORE RETURN JUMPDEST PUSH1 0x4 CALLDATALOAD SWAP1 PUSH1 0x1 PUSH1 0x1 PUSH1 0xA0 SHL SUB DUP3 AND DUP3 SUB PUSH2 0x156 JUMPI JUMP JUMPDEST DUP1 SLOAD DUP3 LT ISZERO PUSH2 0xA68 JUMPI PUSH1 0x0 MSTORE PUSH1 0x20 PUSH1 0x0 KECCAK256 ADD SWAP1 PUSH1 0x0 SWAP1 JUMP JUMPDEST PUSH4 0x4E487B71 PUSH1 0xE0 SHL PUSH1 0x0 MSTORE PUSH1 0x32 PUSH1 0x4 MSTORE PUSH1 0x24 PUSH1 0x0 REVERT JUMPDEST SWAP1 DUP2 MLOAD DUP1 DUP3 MSTORE PUSH1 0x20 DUP1 DUP1 SWAP4 ADD SWAP4 ADD SWAP2 PUSH1 0x0 JUMPDEST DUP3 DUP2 LT PUSH2 0xA9E JUMPI POP POP POP POP SWAP1 JUMP JUMPDEST DUP4 MLOAD DUP6 MSTORE SWAP4 DUP2 ADD SWAP4 SWAP3 DUP2 ADD SWAP3 PUSH1 0x1 ADD PUSH2 0xA90 JUMP JUMPDEST PUSH1 0x0 JUMPDEST DUP4 DUP2 LT PUSH2 0xAC5 JUMPI POP POP PUSH1 0x0 SWAP2 ADD MSTORE JUMP JUMPDEST DUP2 DUP2 ADD MLOAD DUP4 DUP3 ADD MSTORE PUSH1 0x20 ADD PUSH2 0xAB5 JUMP JUMPDEST SWAP1 DUP1 DUP3 MLOAD SWAP1 DUP2 DUP2 MSTORE PUSH1 0x20 DUP1 SWAP2 ADD SWAP3 DUP2 DUP1 DUP5 PUSH1 0x5 SHL DUP4 ADD ADD SWAP6 ADD SWAP4 PUSH1 0x0 SWAP2 JUMPDEST DUP5 DUP4 LT PUSH2 0xB03 JUMPI POP POP POP POP POP POP SWAP1 JUMP JUMPDEST SWAP1 SWAP2 SWAP3 SWAP4 SWAP5 SWAP6 DUP5 DUP1 DUP1 PUSH1 0x1 SWAP4 PUSH1 0x1F NOT DUP1 DUP8 DUP4 SUB ADD DUP9 MSTORE PUSH1 0x1F DUP13 MLOAD PUSH2 0xB32 DUP2 MLOAD DUP1 SWAP3 DUP2 DUP8 MSTORE DUP8 DUP1 DUP9 ADD SWAP2 ADD PUSH2 0xAB2 JUMP JUMPDEST ADD AND ADD ADD SWAP9 ADD SWAP4 ADD SWAP4 ADD SWAP2 SWAP5 SWAP4 SWAP3 SWAP1 PUSH2 0xAF3 JUMP JUMPDEST SWAP1 PUSH1 0x20 PUSH1 0x3 NOT DUP4 ADD SLT PUSH2 0x156 JUMPI PUSH1 0x4 CALLDATALOAD PUSH8 0xFFFFFFFFFFFFFFFF SWAP3 DUP4 DUP3 GT PUSH2 0x156 JUMPI DUP1 PUSH1 0x23 DUP4 ADD SLT ISZERO PUSH2 0x156 JUMPI DUP2 PUSH1 0x4 ADD CALLDATALOAD SWAP4 DUP5 GT PUSH2 0x156 JUMPI PUSH1 0x24 DUP5 PUSH1 0x5 SHL DUP4 ADD ADD GT PUSH2 0x156 JUMPI PUSH1 0x24 ADD SWAP2 SWAP1 JUMP JUMPDEST PUSH1 0x0 SLOAD PUSH1 0x1 PUSH1 0x1 PUSH1 0xA0 SHL SUB AND CALLER SUB PUSH2 0xBA7 JUMPI JUMP JUMPDEST PUSH1 0x64 PUSH1 0x40 MLOAD PUSH3 0x461BCD PUSH1 0xE5 SHL DUP2 MSTORE PUSH1 0x20 PUSH1 0x4 DUP3 ADD MSTORE PUSH1 0x20 PUSH1 0x24 DUP3 ADD MSTORE PUSH32 0x4F776E61626C653A2063616C6C6572206973206E6F7420746865206F776E6572 PUSH1 0x44 DUP3 ADD MSTORE REVERT JUMPDEST ISZERO PUSH2 0xBF2 JUMPI JUMP JUMPDEST PUSH1 0x40 MLOAD PUSH3 0x461BCD PUSH1 0xE5 SHL DUP2 MSTORE PUSH1 0x20 PUSH1 0x4 DUP3 ADD MSTORE PUSH1 0x11 PUSH1 0x24 DUP3 ADD MSTORE PUSH17 0x139BC81D5B9A5D1CC81C1C9BDD9A591959 PUSH1 0x7A SHL PUSH1 0x44 DUP3 ADD MSTORE PUSH1 0x64 SWAP1 REVERT JUMPDEST PUSH1 0x0 NOT DUP2 EQ PUSH2 0x46D JUMPI PUSH1 0x1 ADD SWAP1 JUMP JUMPDEST SWAP2 SWAP1 DUP2 LT ISZERO PUSH2 0xA68 JUMPI PUSH1 0x5 SHL ADD SWAP1 JUMP JUMPDEST SWAP1 PUSH1 0x1F DUP1 NOT SWAP2 ADD AND DUP2 ADD SWAP1 DUP2 LT PUSH8 0xFFFFFFFFFFFFFFFF DUP3 GT OR PUSH2 0x85F JUMPI PUSH1 0x40 MSTORE JUMP JUMPDEST PUSH1 0x20 DUP1 DUP3 MSTORE DUP2 ADD DUP4 SWAP1 MSTORE PUSH1 0x1 PUSH1 0x1 PUSH1 0xFB SHL SUB DUP4 GT PUSH2 0x156 JUMPI PUSH1 0x40 SWAP3 PUSH1 0x5 SHL DUP1 SWAP3 DUP5 DUP4 ADD CALLDATACOPY ADD ADD SWAP1 JUMP JUMPDEST PUSH8 0xFFFFFFFFFFFFFFFF DUP2 GT PUSH2 0x85F JUMPI PUSH1 0x5 SHL PUSH1 0x20 ADD SWAP1 JUMP JUMPDEST SWAP1 PUSH2 0xCB7 DUP3 PUSH2 0xC95 JUMP JUMPDEST PUSH2 0xCC4 PUSH1 0x40 MLOAD SWAP2 DUP3 PUSH2 0xC4A JUMP JUMPDEST DUP3 DUP2 MSTORE DUP1 SWAP3 PUSH2 0xCD5 PUSH1 0x1F NOT SWAP2 PUSH2 0xC95 JUMP JUMPDEST ADD SWAP1 PUSH1 0x0 JUMPDEST DUP3 DUP2 LT PUSH2 0xCE6 JUMPI POP POP POP JUMP JUMPDEST DUP1 PUSH1 0x60 PUSH1 0x20 DUP1 SWAP4 DUP6 ADD ADD MSTORE ADD PUSH2 0xCDA JUMP JUMPDEST SWAP1 PUSH2 0xD01 DUP3 PUSH2 0xC95 JUMP JUMPDEST PUSH2 0xD0E PUSH1 0x40 MLOAD SWAP2 DUP3 PUSH2 0xC4A JUMP JUMPDEST DUP3 DUP2 MSTORE DUP1 SWAP3 PUSH2 0xD1F PUSH1 0x1F NOT SWAP2 PUSH2 0xC95 JUMP JUMPDEST ADD SWAP1 PUSH1 0x20 CALLDATASIZE SWAP2 ADD CALLDATACOPY JUMP JUMPDEST DUP1 MLOAD DUP3 LT ISZERO PUSH2 0xA68 JUMPI PUSH1 0x20 SWAP2 PUSH1 0x5 SHL ADD ADD SWAP1 JUMP JUMPDEST DUP2 PUSH1 0x1F DUP3 ADD SLT ISZERO PUSH2 0x156 JUMPI DUP1 MLOAD PUSH8 0xFFFFFFFFFFFFFFFF DUP2 GT PUSH2 0x85F JUMPI PUSH1 0x40 MLOAD SWAP3 PUSH2 0xD71 PUSH1 0x1F DUP4 ADD PUSH1 0x1F NOT AND PUSH1 0x20 ADD DUP6 PUSH2 0xC4A JUMP JUMPDEST DUP2 DUP5 MSTORE PUSH1 0x20 DUP3 DUP5 ADD ADD GT PUSH2 0x156 JUMPI PUSH2 0xD8F SWAP2 PUSH1 0x20 DUP1 DUP6 ADD SWAP2 ADD PUSH2 0xAB2 JUMP JUMPDEST SWAP1 JUMP JUMPDEST SWAP1 PUSH1 0x0 JUMPDEST DUP3 SLOAD DUP1 DUP3 LT ISZERO PUSH2 0xE32 JUMPI DUP3 SWAP1 PUSH2 0xDAC DUP4 DUP7 PUSH2 0xA50 JUMP JUMPDEST SWAP3 SWAP1 SLOAD PUSH1 0x3 SWAP4 DUP5 SHL SHR EQ PUSH2 0xDCA JUMPI POP POP PUSH2 0xDC5 SWAP1 PUSH2 0xC2B JUMP JUMPDEST PUSH2 0xD96 JUMP JUMPDEST SWAP1 SWAP4 SWAP3 POP PUSH1 0x0 NOT SWAP2 DUP3 DUP3 ADD SWAP2 DUP3 GT PUSH2 0x46D JUMPI PUSH2 0x33E PUSH2 0xDEC PUSH2 0xDF9 SWAP4 DUP7 PUSH2 0xA50 JUMP JUMPDEST SWAP1 SLOAD SWAP1 DUP8 SHL SHR SWAP2 DUP6 PUSH2 0xA50 JUMP JUMPDEST DUP2 SLOAD DUP1 ISZERO PUSH2 0xE1C JUMPI DUP2 ADD SWAP3 PUSH2 0xE0E DUP5 DUP5 PUSH2 0xA50 JUMP JUMPDEST DUP2 SWAP4 SWAP2 SLOAD SWAP3 SHL SHL NOT AND SWAP1 SSTORE SSTORE JUMP JUMPDEST PUSH4 0x4E487B71 PUSH1 0xE0 SHL PUSH1 0x0 MSTORE PUSH1 0x31 PUSH1 0x4 MSTORE PUSH1 0x24 PUSH1 0x0 REVERT JUMPDEST PUSH1 0x40 MLOAD PUSH3 0x461BCD PUSH1 0xE5 SHL DUP2 MSTORE PUSH1 0x20 PUSH1 0x4 DUP3 ADD MSTORE PUSH1 0x16 PUSH1 0x24 DUP3 ADD MSTORE PUSH22 0x556E6974206E6F7420666F756E6420696E206465636B PUSH1 0x50 SHL PUSH1 0x44 DUP3 ADD MSTORE PUSH1 0x64 SWAP1 REVERT JUMPDEST SWAP1 PUSH1 0x0 JUMPDEST DUP3 SLOAD DUP2 LT ISZERO PUSH2 0xEAA JUMPI DUP2 PUSH2 0xE88 DUP3 DUP6 PUSH2 0xA50 JUMP JUMPDEST SWAP1 SLOAD SWAP1 PUSH1 0x3 SHL SHR EQ PUSH2 0xEA2 JUMPI PUSH2 0xE9D SWAP1 PUSH2 0xC2B JUMP JUMPDEST PUSH2 0xE74 JUMP JUMPDEST POP POP POP PUSH1 0x1 SWAP1 JUMP JUMPDEST POP POP POP PUSH1 0x0 SWAP1 JUMP INVALID LOG2 PUSH5 0x6970667358 0x22 SLT KECCAK256 CALLVALUE PUSH17 0xCDA1BD5C2042B3F65CD4A5922FDE57A989 0xE3 MLOAD PUSH23 0xE49B1C8C4A4F8A032B8064736F6C634300081300330000 "},"methodIdentifiers":{"MAX_UNITS_IN_DECK()":"3d3ab784","addUnitsToDeck(uint256[])":"c70e116c","getUserDeck(address)":"822b6eeb","getUserDeckUnitDetails(address)":"bf9ccf33","owner()":"8da5cb5b","removeUnitsFromDeck(uint256[])":"cb0aac28","renounceOwnership()":"715018a6","transferOwnership(address)":"f2fde38b","unitNFTContract()":"7371111a","userDecks(address,uint256)":"5f45304e"}}}}}