{"contracts/BuildingManager.sol":{"BuildingManager":{"abi":[{"inputs":[],"stateMutability":"nonpayable","type":"constructor"},{"anonymous":false,"inputs":[{"indexed":true,"internalType":"address","name":"previousOwner","type":"address"},{"indexed":true,"internalType":"address","name":"newOwner","type":"address"}],"name":"OwnershipTransferred","type":"event"},{"inputs":[{"internalType":"string","name":"","type":"string"},{"internalType":"uint256","name":"","type":"uint256"}],"name":"availableBuildings","outputs":[{"internalType":"string","name":"name","type":"string"},{"internalType":"uint256","name":"level","type":"uint256"},{"components":[{"internalType":"uint256","name":"food","type":"uint256"},{"internalType":"uint256","name":"wood","type":"uint256"},{"internalType":"uint256","name":"stone","type":"uint256"},{"internalType":"uint256","name":"brass","type":"uint256"},{"internalType":"uint256","name":"iron","type":"uint256"},{"internalType":"uint256","name":"gold","type":"uint256"}],"internalType":"struct DataTypes.Resources","name":"baseCost","type":"tuple"},{"components":[{"internalType":"uint256","name":"food","type":"uint256"},{"internalType":"uint256","name":"wood","type":"uint256"},{"internalType":"uint256","name":"stone","type":"uint256"},{"internalType":"uint256","name":"brass","type":"uint256"},{"internalType":"uint256","name":"iron","type":"uint256"},{"internalType":"uint256","name":"gold","type":"uint256"}],"internalType":"struct DataTypes.Resources","name":"upkeepCost","type":"tuple"},{"internalType":"uint256","name":"productionBoost","type":"uint256"},{"internalType":"uint256","name":"happinessBoost","type":"uint256"},{"internalType":"uint256","name":"technologyBoost","type":"uint256"},{"internalType":"uint256","name":"pietyBoost","type":"uint256"},{"internalType":"uint256","name":"strengthBoost","type":"uint256"},{"components":[{"internalType":"uint256","name":"foodPerEpoch","type":"uint256"},{"internalType":"uint256","name":"woodPerEpoch","type":"uint256"},{"internalType":"uint256","name":"stonePerEpoch","type":"uint256"},{"internalType":"uint256","name":"brassPerEpoch","type":"uint256"},{"internalType":"uint256","name":"ironPerEpoch","type":"uint256"},{"internalType":"uint256","name":"goldPerEpoch","type":"uint256"}],"internalType":"struct DataTypes.ResourceProduction","name":"resourceProduction","type":"tuple"},{"internalType":"uint256","name":"baseConstructionTime","type":"uint256"},{"internalType":"bool","name":"isAvailable","type":"bool"},{"internalType":"string","name":"imageURI","type":"string"}],"stateMutability":"view","type":"function"},{"inputs":[{"components":[{"internalType":"string","name":"name","type":"string"},{"internalType":"uint256","name":"level","type":"uint256"},{"internalType":"bool","name":"isActive","type":"bool"}],"internalType":"struct DataTypes.Building[]","name":"buildings","type":"tuple[]"},{"internalType":"uint256","name":"epochsElapsed","type":"uint256"}],"name":"calculateTotalResourceProduction","outputs":[{"components":[{"internalType":"uint256","name":"food","type":"uint256"},{"internalType":"uint256","name":"wood","type":"uint256"},{"internalType":"uint256","name":"stone","type":"uint256"},{"internalType":"uint256","name":"brass","type":"uint256"},{"internalType":"uint256","name":"iron","type":"uint256"},{"internalType":"uint256","name":"gold","type":"uint256"}],"internalType":"struct DataTypes.Resources","name":"","type":"tuple"}],"stateMutability":"view","type":"function"},{"inputs":[{"internalType":"string","name":"buildingName","type":"string"},{"internalType":"uint256","name":"level","type":"uint256"}],"name":"completeBuildingConstruction","outputs":[{"internalType":"uint256","name":"productionBoost","type":"uint256"},{"internalType":"uint256","name":"happinessBoost","type":"uint256"},{"internalType":"uint256","name":"strengthBoost","type":"uint256"}],"stateMutability":"view","type":"function"},{"inputs":[{"internalType":"string","name":"name","type":"string"},{"internalType":"uint256","name":"level","type":"uint256"}],"name":"getBuildingInfo","outputs":[{"components":[{"internalType":"string","name":"name","type":"string"},{"internalType":"uint256","name":"level","type":"uint256"},{"components":[{"internalType":"uint256","name":"food","type":"uint256"},{"internalType":"uint256","name":"wood","type":"uint256"},{"internalType":"uint256","name":"stone","type":"uint256"},{"internalType":"uint256","name":"brass","type":"uint256"},{"internalType":"uint256","name":"iron","type":"uint256"},{"internalType":"uint256","name":"gold","type":"uint256"}],"internalType":"struct DataTypes.Resources","name":"baseCost","type":"tuple"},{"components":[{"internalType":"uint256","name":"food","type":"uint256"},{"internalType":"uint256","name":"wood","type":"uint256"},{"internalType":"uint256","name":"stone","type":"uint256"},{"internalType":"uint256","name":"brass","type":"uint256"},{"internalType":"uint256","name":"iron","type":"uint256"},{"internalType":"uint256","name":"gold","type":"uint256"}],"internalType":"struct DataTypes.Resources","name":"upkeepCost","type":"tuple"},{"internalType":"uint256","name":"productionBoost","type":"uint256"},{"internalType":"uint256","name":"happinessBoost","type":"uint256"},{"internalType":"uint256","name":"technologyBoost","type":"uint256"},{"internalType":"uint256","name":"pietyBoost","type":"uint256"},{"internalType":"uint256","name":"strengthBoost","type":"uint256"},{"components":[{"internalType":"uint256","name":"foodPerEpoch","type":"uint256"},{"internalType":"uint256","name":"woodPerEpoch","type":"uint256"},{"internalType":"uint256","name":"stonePerEpoch","type":"uint256"},{"internalType":"uint256","name":"brassPerEpoch","type":"uint256"},{"internalType":"uint256","name":"ironPerEpoch","type":"uint256"},{"internalType":"uint256","name":"goldPerEpoch","type":"uint256"}],"internalType":"struct DataTypes.ResourceProduction","name":"resourceProduction","type":"tuple"},{"internalType":"uint256","name":"baseConstructionTime","type":"uint256"},{"internalType":"bool","name":"isAvailable","type":"bool"},{"internalType":"string","name":"imageURI","type":"string"}],"internalType":"struct BuildingManager.BuildingInfo","name":"","type":"tuple"}],"stateMutability":"view","type":"function"},{"inputs":[],"name":"landNFT","outputs":[{"internalType":"address","name":"","type":"address"}],"stateMutability":"view","type":"function"},{"inputs":[],"name":"owner","outputs":[{"internalType":"address","name":"","type":"address"}],"stateMutability":"view","type":"function"},{"inputs":[],"name":"renounceOwnership","outputs":[],"stateMutability":"nonpayable","type":"function"},{"inputs":[{"internalType":"address","name":"_landNFT","type":"address"}],"name":"setLandNFT","outputs":[],"stateMutability":"nonpayable","type":"function"},{"inputs":[{"internalType":"string","name":"buildingName","type":"string"},{"internalType":"uint256","name":"level","type":"uint256"},{"components":[{"internalType":"uint256","name":"food","type":"uint256"},{"internalType":"uint256","name":"wood","type":"uint256"},{"internalType":"uint256","name":"stone","type":"uint256"},{"internalType":"uint256","name":"brass","type":"uint256"},{"internalType":"uint256","name":"iron","type":"uint256"},{"internalType":"uint256","name":"gold","type":"uint256"}],"internalType":"struct DataTypes.Resources","name":"currentResources","type":"tuple"},{"internalType":"uint256","name":"production","type":"uint256"}],"name":"startBuildingConstruction","outputs":[{"components":[{"internalType":"uint256","name":"food","type":"uint256"},{"internalType":"uint256","name":"wood","type":"uint256"},{"internalType":"uint256","name":"stone","type":"uint256"},{"internalType":"uint256","name":"brass","type":"uint256"},{"internalType":"uint256","name":"iron","type":"uint256"},{"internalType":"uint256","name":"gold","type":"uint256"}],"internalType":"struct DataTypes.Resources","name":"updatedResources","type":"tuple"},{"internalType":"uint256","name":"completionTime","type":"uint256"}],"stateMutability":"view","type":"function"},{"inputs":[{"internalType":"address","name":"newOwner","type":"address"}],"name":"transferOwnership","outputs":[],"stateMutability":"nonpayable","type":"function"},{"inputs":[{"internalType":"string","name":"buildingName","type":"string"},{"internalType":"uint256","name":"level","type":"uint256"},{"internalType":"string","name":"newImageURI","type":"string"}],"name":"updateBuildingImageURI","outputs":[],"stateMutability":"nonpayable","type":"function"},{"inputs":[{"internalType":"address","name":"_newLandNFT","type":"address"}],"name":"updateLandNFT","outputs":[],"stateMutability":"nonpayable","type":"function"}],"evm":{"bytecode":{"linkReferences":{},"object":"34620069055760008054336001600160a01b0319821681178355916001600160a01b03909116907f8be0079c531659141344cd1fd0a4f28419497f9722a3daafe3b4186f6b6457e09080a3610100604081905260446080527f68747470733a2f2f697066732e696f2f697066732f516d52476f6b4d33686b5060a0527f4e665a4a53647a6f4548546b3568683668656a5972324672773667315570526d60c052635970722f60e01b60e052620000b5816200690a565b6064815260326020820152601e60408201526000606082015260006080820152601460a08201526200011b604051620000ee816200690a565b6064815260326020820152601e60408201526000606082015260006080820152601460a0820152620069b0565b60405162000129816200690a565b6064815260006020820152600060408201526000606082015260006080820152600060a0820152604051916200018a6009846200016b60208201608062006983565b6806661726d2e776562760bc1b8152036016198101865201846200695f565b60405193620001998562006926565b604051620001a78162006943565b60048152634661726d60e01b60208201528552600160208601526040850152606084015260056080840152600260a0840152600060c0840152600060e08401526000610100840152610120830152610e1061014083015260016101608301526101808201526024604051634661726d60e01b815260026004820152206001600052602052604060002090805180519060018060401b038211620048695783548060011c906001811615620068fa575b60011660208210146200484857601f8111620068b1575b50602090601f83116001146200683e576101809392916000918362006832575b50508160011b916000199060031b1c19161783555b6020818101516001850155604080830151805160028701559182015160038601558101516004850155606081015160058501556080810151600685015560a00151600784015560608181015180516008860155602081015160098601556040810151600a86015590810151600b8501556080810151600c85015560a00151600d840155608081810151600e85015560a080830151600f86015560c0830151601086015560e08301516011860155610100830151601286015561012083015180516013870155602081015160148701556040810151601587015560608101516016870155918201516017860155015160188401556101408101516019840155610160810151151560ff8019601a86015416911617601a840155015180519060018060401b0382116200486957601b830154600181811c9116801562006827575b60208210146200484857601f8111620067db575b50602090601f83116001146200676657601b9291600091836200675a575b50508160011b916000199060031b1c1916179101555b60405162000437816200690a565b60508152603c6020820152602860408201526000606082015260006080820152601960a08201526200049d60405162000470816200690a565b60508152603c6020820152602860408201526000606082015260006080820152601960a0820152620069b0565b604051620004ab816200690a565b6000815260646020820152600060408201526000606082015260006080820152600060a08201526040519162000514600f84620004ed60208201608062006983565b6e06c756d6265726d696c6c2e7765627608c1b81526010198282030182520301846200695f565b60405193620005238562006926565b604051620005318162006943565b600b81526a131d5b58995c88135a5b1b60aa1b60208201528552600160208601526040850152606084015260046080840152600060a0840152600060c0840152600060e08401526000610100840152610120830152610e106101408301526001610160830152610180820152602b6040516a131d5b58995c88135a5b1b60aa1b81526002600b820152206001600052602052604060002090805180519060018060401b03821162004869578354600181811c911680156200674f575b60208210146200484857601f811162006706575b50602090601f831160011462006693576101809392916000918362006687575b50508160011b916000199060031b1c19161783555b6020818101516001850155604080830151805160028701559182015160038601558101516004850155606081015160058501556080810151600685015560a00151600784015560608181015180516008860155602081015160098601556040810151600a86015590810151600b8501556080810151600c85015560a00151600d840155608081810151600e85015560a080830151600f86015560c0830151601086015560e08301516011860155610100830151601286015561012083015180516013870155602081015160148701556040810151601587015560608101516016870155918201516017860155015160188401556101408101516019840155601a8301610160820151151560ff80198354169116179055015180519060018060401b0382116200486957601b830154600181811c911680156200667c575b60208210146200484857601f811162006630575b50602090601f8311600114620065bb57601b929160009183620065af575b50508160011b916000199060031b1c1916179101555b604051620007c9816200690a565b605a815260286020820152603260408201526000606082015260006080820152601e60a08201526200082f60405162000802816200690a565b605a815260286020820152603260408201526000606082015260006080820152601e60a0820152620069b0565b6040516200083d816200690a565b6000815260006020820152606460408201526000606082015260006080820152600060a082015260405191620008a2600b846200087f60208201608062006983565b6a07175617272792e776562760ac1b81526014198282030182520301846200695f565b60405193620008b18562006926565b604051620008bf8162006943565b600681526551756172727960d01b60208201528552600160208601526040850152606084015260036080840152600060a0840152600060c0840152600060e08401526000610100840152610120830152610e10610140830152600161016083015261018082015260266040516551756172727960d01b815260026006820152206001600052602052604060002090805180519060018060401b03821162004869578354600181811c91168015620065a4575b60208210146200484857601f81116200655b575b50602090601f8311600114620064e85761018093929160009183620064dc575b50508160011b916000199060031b1c19161783555b6020818101516001850155604080830151805160028701559182015160038601558101516004850155606081015160058501556080810151600685015560a00151600784015560608181015180516008860155602081015160098601556040810151600a86015590810151600b8501556080810151600c85015560a00151600d840155608081810151600e85015560a080830151600f86015560c0830151601086015560e08301516011860155610100830151601286015561012083015180516013870155602081015160148701556040810151601587015560608101516016870155918201516017860155015160188401556101408101516019840155601a8301610160820151151560ff80198354169116179055015180519060018060401b0382116200486957601b830154600181811c91168015620064d1575b60208210146200484857601f811162006485575b50602090601f83116001146200641057601b92916000918362006404575b50508160011b916000199060031b1c1916179101555b60405162000b4d816200690a565b6064815260326020820152603c60408201526000606082015260006080820152602360a082015262000bb360405162000b86816200690a565b6064815260326020820152603c60408201526000606082015260006080820152602360a0820152620069b0565b60405162000bc1816200690a565b6000815260006020820152600060408201526000606082015260646080820152600060a08201526040519162000c29600e8462000c0360208201608062006983565b6d069726f6e5f6d696e652e776562760941b81526011198282030182520301846200695f565b6040519362000c388562006926565b60405162000c468162006943565b600981526849726f6e204d696e6560b81b60208201528552600160208601526040850152606084015260036080840152600060a0840152600060c0840152600060e08401526002610100840152610120830152610e10610140830152600161016083015261018082015260296040516849726f6e204d696e6560b81b815260026009820152206001600052602052604060002090805180519060018060401b03821162004869578354600181811c91168015620063f9575b60208210146200484857601f8111620063b0575b50602090601f83116001146200633d576101809392916000918362006331575b50508160011b916000199060031b1c19161783555b6020818101516001850155604080830151805160028701559182015160038601558101516004850155606081015160058501556080810151600685015560a00151600784015560608181015180516008860155602081015160098601556040810151600a86015590810151600b8501556080810151600c85015560a00151600d840155608081810151600e85015560a080830151600f86015560c0830151601086015560e08301516011860155610100830151601286015561012083015180516013870155602081015160148701556040810151601587015560608101516016870155918201516017860155015160188401556101408101516019840155601a8301610160820151151560ff80198354169116179055015180519060018060401b0382116200486957601b830154600181811c9116801562006326575b60208210146200484857601f8111620062da575b50602090601f83116001146200626557601b92916000918362006259575b50508160011b916000199060031b1c1916179101555b60405162000eda816200690a565b606e8152603c6020820152602860408201526000606082015260006080820152602860a082015262000f4060405162000f13816200690a565b606e8152603c6020820152602860408201526000606082015260006080820152602860a0820152620069b0565b60405162000f4e816200690a565b6000815260006020820152600060408201526064606082015260006080820152600060a08201526040519162000fb5600d8462000f9060208201608062006983565b6c0776f726b73686f702e7765627609c1b81526012198282030182520301846200695f565b6040519362000fc48562006926565b60405162000fd28162006943565b60088152670576f726b73686f760c41b60208201528552600160208601526040850152606084015260056080840152600060a0840152600360c0840152600060e08401526000610100840152610120830152610e1061014083015260016101608301526101808201526028604051670576f726b73686f760c41b815260026008820152206001600052602052604060002090805180519060018060401b03821162004869578354600181811c911680156200624e575b60208210146200484857601f811162006205575b50602090601f831160011462006192576101809392916000918362006186575b50508160011b916000199060031b1c19161783555b6020818101516001850155604080830151805160028701559182015160038601558101516004850155606081015160058501556080810151600685015560a00151600784015560608181015180516008860155602081015160098601556040810151600a86015590810151600b8501556080810151600c85015560a00151600d840155608081810151600e85015560a080830151600f86015560c0830151601086015560e08301516011860155610100830151601286015561012083015180516013870155602081015160148701556040810151601587015560608101516016870155918201516017860155015160188401556101408101516019840155601a8301610160820151151560ff80198354169116179055015180519060018060401b0382116200486957601b830154600181811c911680156200617b575b60208210146200484857601f81116200612f575b50602090601f8311600114620060ba57601b929160009183620060ae575b50508160011b916000199060031b1c1916179101555b60405162001264816200690a565b6078815260326020820152603260408201526000606082015260006080820152603260a0820152620012ca6040516200129d816200690a565b6078815260326020820152603260408201526000606082015260006080820152603260a0820152620069b0565b604051620012d8816200690a565b6000815260006020820152600060408201526000606082015260006080820152606460a082015260405191620013426010846200131a60208201608062006983565b6f06d61726b6574706c6163652e776562760841b8152600f198282030182520301846200695f565b60405193620013518562006926565b6040516200135f8162006943565b600b81526a4d61726b6574706c61636560a81b60208201528552600160208601526040850152606084015260006080840152600360a0840152600060c0840152600260e08401526000610100840152610120830152610e106101408301526001610160830152610180820152602b6040516a4d61726b6574706c61636560a81b81526002600b820152206001600052602052604060002090805180519060018060401b03821162004869578354600181811c91168015620060a3575b60208210146200484857601f81116200605a575b50602090601f831160011462005fe7576101809392916000918362005fdb575b50508160011b916000199060031b1c19161783555b6020818101516001850155604080830151805160028701559182015160038601558101516004850155606081015160058501556080810151600685015560a00151600784015560608181015180516008860155602081015160098601556040810151600a86015590810151600b8501556080810151600c85015560a00151600d840155608081810151600e85015560a080830151600f86015560c0830151601086015560e08301516011860155610100830151601286015561012083015180516013870155602081015160148701556040810151601587015560608101516016870155918201516017860155015160188401556101408101516019840155601a8301610160820151151560ff80198354169116179055015180519060018060401b0382116200486957601b830154600181811c9116801562005fd0575b60208210146200484857601f811162005f84575b50602090601f831160011462005f0f57601b92916000918362005f03575b50508160011b916000199060031b1c1916179101555b604051620015f7816200690a565b6082815260466020820152603c60408201526000606082015260006080820152603c60a08201526200165d60405162001630816200690a565b6082815260466020820152603c60408201526000606082015260006080820152603c60a0820152620069b0565b6040516200166b816200690a565b6000815260006020820152600060408201526000606082015260006080820152600060a082015260405191620016d0600d84620016ad60208201608062006983565b6c06261727261636b732e7765627609c1b8152036012198101865201846200695f565b60405193620016df8562006926565b604051620016ed8162006943565b60088152674261727261636b7360c01b60208201528552600160208601526040850152606084015260006080840152600060a0840152600060c0840152600060e08401526005610100840152610120830152610e1061014083015260016101608301526101808201526028604051674261727261636b7360c01b815260026008820152206001600052602052604060002090805180519060018060401b03821162004869578354600181811c9116801562005ef8575b60208210146200484857601f811162005eaf575b50602090601f831160011462005e3c576101809392916000918362005e30575b50508160011b916000199060031b1c19161783555b6020818101516001850155604080830151805160028701559182015160038601558101516004850155606081015160058501556080810151600685015560a00151600784015560608181015180516008860155602081015160098601556040810151600a86015590810151600b8501556080810151600c85015560a00151600d840155608081810151600e85015560a080830151600f86015560c0830151601086015560e08301516011860155610100830151601286015561012083015180516013870155602081015160148701556040810151601587015560608101516016870155918201516017860155015160188401556101408101516019840155601a8301610160820151151560ff80198354169116179055015180519060018060401b0382116200486957601b830154600181811c9116801562005e25575b60208210146200484857601f811162005dd9575b50602090601f831160011462005d6457601b92916000918362005d58575b50508160011b916000199060031b1c1916179101555b6040516200197f816200690a565b608c8152603c6020820152604660408201526000606082015260006080820152604660a0820152620019e5604051620019b8816200690a565b608c8152603c6020820152604660408201526000606082015260006080820152604660a0820152620069b0565b604051620019f3816200690a565b6000815260006020820152600060408201526000606082015260006080820152600060a08201526040519162001a56600b8462001a3560208201608062006983565b6a074656d706c652e776562760ac1b8152036014198101865201846200695f565b6040519362001a658562006926565b60405162001a738162006943565b600681526554656d706c6560d01b60208201528552600160208601526040850152606084015260006080840152600560a0840152600060c0840152600760e08401526000610100840152610120830152610e10610140830152600161016083015261018082015260266040516554656d706c6560d01b815260026006820152206001600052602052604060002090805180519060018060401b03821162004869578354600181811c9116801562005d4d575b60208210146200484857601f811162005d04575b50602090601f831160011462005c91576101809392916000918362005c85575b50508160011b916000199060031b1c19161783555b6020818101516001850155604080830151805160028701559182015160038601558101516004850155606081015160058501556080810151600685015560a00151600784015560608181015180516008860155602081015160098601556040810151600a86015590810151600b8501556080810151600c85015560a00151600d840155608081810151600e85015560a080830151600f86015560c0830151601086015560e08301516011860155610100830151601286015561012083015180516013870155602081015160148701556040810151601587015560608101516016870155918201516017860155015160188401556101408101516019840155601a8301610160820151151560ff80198354169116179055015180519060018060401b0382116200486957601b830154600181811c9116801562005c7a575b60208210146200484857601f811162005c2e575b50602090601f831160011462005bb957601b92916000918362005bad575b50508160011b916000199060031b1c1916179101555b60405162001d01816200690a565b6096815260506020820152603260408201526000606082015260006080820152605060a082015262001d6760405162001d3a816200690a565b6096815260506020820152603260408201526000606082015260006080820152605060a0820152620069b0565b60405162001d75816200690a565b6000815260006020820152600060408201526000606082015260006080820152600060a08201526040519162001ddb600c8462001db760208201608062006983565b6b061636164656d792e776562760a41b81526013198282030182520301846200695f565b6040519362001dea8562006926565b60405162001df88162006943565b600781526641636164656d7960c81b60208201528552600160208601526040850152606084015260056080840152600260a0840152600560c0840152600060e08401526000610100840152610120830152610e10610140830152600161016083015261018082015260276040516641636164656d7960c81b815260026007820152206001600052602052604060002090805180519060018060401b03821162004869578354600181811c9116801562005ba2575b60208210146200484857601f811162005b59575b50602090601f831160011462005ae6576101809392916000918362005ada575b50508160011b916000199060031b1c19161783555b6020818101516001850155604080830151805160028701559182015160038601558101516004850155606081015160058501556080810151600685015560a00151600784015560608181015180516008860155602081015160098601556040810151600a86015590810151600b8501556080810151600c85015560a00151600d840155608081810151600e85015560a080830151600f86015560c0830151601086015560e08301516011860155610100830151601286015561012083015180516013870155602081015160148701556040810151601587015560608101516016870155918201516017860155015160188401556101408101516019840155601a8301610160820151151560ff80198354169116179055015180519060018060401b0382116200486957601b830154600181811c9116801562005acf575b60208210146200484857601f811162005a83575b50602090601f831160011462005a0e57601b92916000918362005a02575b50508160011b916000199060031b1c1916179101555b60405162002088816200690a565b60a08152605a6020820152605060408201526000606082015260006080820152605a60a0820152620020ee604051620020c1816200690a565b60a08152605a6020820152605060408201526000606082015260006080820152605a60a0820152620069b0565b604051620020fc816200690a565b6000815260006020820152600060408201526000606082015260006080820152600060a08201526040519162002160600c846200213e60208201608062006983565b6b0737461626c65732e776562760a41b8152036013198101865201846200695f565b604051936200216f8562006926565b6040516200217d8162006943565b6007815266537461626c657360c81b60208201528552600160208601526040850152606084015260006080840152600060a0840152600060c0840152600060e08401526003610100840152610120830152610e106101408301526001610160830152610180820152602760405166537461626c657360c81b815260026007820152206001600052602052604060002090805180519060018060401b03821162004869578354600181811c91168015620059f7575b60208210146200484857601f8111620059ae575b50602090601f83116001146200593b57610180939291600091836200592f575b50508160011b916000199060031b1c19161783555b6020818101516001850155604080830151805160028701559182015160038601558101516004850155606081015160058501556080810151600685015560a00151600784015560608181015180516008860155602081015160098601556040810151600a86015590810151600b8501556080810151600c85015560a00151600d840155608081810151600e85015560a080830151600f86015560c0830151601086015560e08301516011860155610100830151601286015561012083015180516013870155602081015160148701556040810151601587015560608101516016870155918201516017860155015160188401556101408101516019840155601a8301610160820151151560ff80198354169116179055015180519060018060401b0382116200486957601b830154600181811c9116801562005924575b60208210146200484857601f8111620058d8575b50602090601f83116001146200586357601b92916000918362005857575b50508160011b916000199060031b1c1916179101555b6040516200240d816200690a565b60c8815260646020820152603c60408201526000606082015260006080820152602860a08201526200247360405162002446816200690a565b60c8815260646020820152603c60408201526000606082015260006080820152602860a0820152620069b0565b60405162002481816200690a565b60c8815260006020820152600060408201526000606082015260006080820152600060a082015260405191620024e4600b84620024c360208201608062006983565b6a06573746174652e776562760ac1b8152036014198101865201846200695f565b60405193620024f38562006926565b604051620025018162006943565b600681526545737461746560d01b602082015285526002602086015260408501526060840152600a6080840152600460a0840152600060c0840152600060e08401526000610100840152610120830152610e10610140830152600161016083015261018082015260266040516545737461746560d01b815260026006820152206002600052602052604060002090805180519060018060401b03821162004869578354600181811c911680156200584c575b60208210146200484857601f811162005803575b50602090601f831160011462005790576101809392916000918362005784575b50508160011b916000199060031b1c19161783555b6020818101516001850155604080830151805160028701559182015160038601558101516004850155606081015160058501556080810151600685015560a00151600784015560608181015180516008860155602081015160098601556040810151600a86015590810151600b8501556080810151600c85015560a00151600d840155608081810151600e85015560a080830151600f86015560c0830151601086015560e08301516011860155610100830151601286015561012083015180516013870155602081015160148701556040810151601587015560608101516016870155918201516017860155015160188401556101408101516019840155601a8301610160820151151560ff80198354169116179055015180519060018060401b0382116200486957601b830154600181811c9116801562005779575b60208210146200484857601f81116200572d575b50602090601f8311600114620056b857601b929160009183620056ac575b50508160011b916000199060031b1c1916179101555b6040516200278f816200690a565b620027f461012c80835260a0602084015260646040840152600060608401526000608084015260a08084015260405190620027ca826200690a565b815260a0602082015260646040820152600060608201526000608082015260a080820152620069b0565b60405162002802816200690a565b6000815260006020820152600060408201526000606082015260006080820152600060a08201526040519162002869600f846200284460208201608062006983565b6e0756e69766572736974792e7765627608c1b8152036010198101865201846200695f565b60405193620028788562006926565b604051620028868162006943565b600a815269556e697665727369747960b01b602082015285526002602086015260408501526060840152600a6080840152600460a0840152600a60c0840152600060e08401526000610100840152610120830152610e106101408301526001610160830152610180820152602a60405169556e697665727369747960b01b81526002600a820152206002600052602052604060002090805180519060018060401b03821162004869578354600181811c91168015620056a1575b60208210146200484857601f811162005658575b50602090601f8311600114620055e55761018093929160009183620055d9575b50508160011b916000199060031b1c19161783555b6020818101516001850155604080830151805160028701559182015160038601558101516004850155606081015160058501556080810151600685015560a00151600784015560608181015180516008860155602081015160098601556040810151600a86015590810151600b8501556080810151600c85015560a00151600d840155608081810151600e85015560a080830151600f86015560c0830151601086015560e08301516011860155610100830151601286015561012083015180516013870155602081015160148701556040810151601587015560608101516016870155918201516017860155015160188401556101408101516019840155601a8301610160820151151560ff80198354169116179055015180519060018060401b0382116200486957601b830154600181811c91168015620055ce575b60208210146200484857601f811162005582575b50602090601f83116001146200550d57601b92916000918362005501575b50508160011b916000199060031b1c1916179101555b60405162002b1c816200690a565b62002b8361011880835260786020840152608c60408401526000606084015260006080840152608c60a08401526040519062002b58826200690a565b815260786020820152608c60408201526000606082015260006080820152608c60a0820152620069b0565b60405162002b91816200690a565b6000815260006020820152600060408201526000606082015260006080820152600060a08201526040519162002bf7600e8462002bd360208201608062006983565b6d063617468656472616c2e776562760941b8152036011198101865201846200695f565b6040519362002c068562006926565b60405162002c148162006943565b600981526810d85d1a19591c985b60ba1b60208201528552600260208601526040850152606084015260006080840152600a60a0840152600060c0840152600a60e08401526000610100840152610120830152610e10610140830152600161016083015261018082015260296040516810d85d1a19591c985b60ba1b815260026009820152206002600052602052604060002090805180519060018060401b03821162004869578354600181811c91168015620054f6575b60208210146200484857601f8111620054ad575b50602090601f83116001146200543a57610180939291600091836200542e575b50508160011b916000199060031b1c19161783555b6020818101516001850155604080830151805160028701559182015160038601558101516004850155606081015160058501556080810151600685015560a00151600784015560608181015180516008860155602081015160098601556040810151600a86015590810151600b8501556080810151600c85015560a00151600d840155608081810151600e85015560a080830151600f86015560c0830151601086015560e08301516011860155610100830151601286015561012083015180516013870155602081015160148701556040810151601587015560608101516016870155918201516017860155015160188401556101408101516019840155601a8301610160820151151560ff80198354169116179055015180519060018060401b0382116200486957601b830154600181811c9116801562005423575b60208210146200484857601f8111620053d7575b50602090601f83116001146200536257601b92916000918362005356575b50508160011b916000199060031b1c1916179101555b60405162002ea8816200690a565b60a0815260786020820152605060408201526000606082015260006080820152603260a082015262002f0e60405162002ee1816200690a565b60a0815260786020820152605060408201526000606082015260006080820152603260a0820152620069b0565b60405162002f1c816200690a565b6000815260c86020820152600060408201526000606082015260006080820152600060a08201526040519162002f80600c8462002f5e60208201608062006983565b6b07361776d696c6c2e776562760a41b8152036013198101865201846200695f565b6040519362002f8f8562006926565b60405162002f9d8162006943565b600781526614d85ddb5a5b1b60ca1b60208201528552600260208601526040850152606084015260086080840152600060a0840152600060c0840152600060e08401526000610100840152610120830152610e10610140830152600161016083015261018082015260276040516614d85ddb5a5b1b60ca1b815260026007820152206002600052602052604060002090805180519060018060401b03821162004869578354600181811c911680156200534b575b60208210146200484857601f811162005302575b50602090601f83116001146200528f576101809392916000918362005283575b50508160011b916000199060031b1c19161783555b6020818101516001850155604080830151805160028701559182015160038601558101516004850155606081015160058501556080810151600685015560a00151600784015560608181015180516008860155602081015160098601556040810151600a86015590810151600b8501556080810151600c85015560a00151600d840155608081810151600e85015560a080830151600f86015560c0830151601086015560e08301516011860155610100830151601286015561012083015180516013870155602081015160148701556040810151601587015560608101516016870155918201516017860155015160188401556101408101516019840155601a8301610160820151151560ff80198354169116179055015180519060018060401b0382116200486957601b830154600181811c9116801562005278575b60208210146200484857601f81116200522c575b50602090601f8311600114620051b757601b929160009183620051ab575b50508160011b916000199060031b1c1916179101555b6040516200322d816200690a565b60b4815260506020820152606460408201526000606082015260006080820152603c60a08201526200329360405162003266816200690a565b60b4815260506020820152606460408201526000606082015260006080820152603c60a0820152620069b0565b604051620032a1816200690a565b600081526000602082015260c860408201526000606082015260006080820152600060a08201526040519162003308600f84620032e360208201608062006983565b6e073746f6e65776f726b732e7765627608c1b8152036010198101865201846200695f565b60405193620033178562006926565b604051620033258162006943565b600a81526953746f6e65776f726b7360b01b60208201528552600260208601526040850152606084015260066080840152600060a0840152600060c0840152600060e08401526000610100840152610120830152610e106101408301526001610160830152610180820152602a6040516953746f6e65776f726b7360b01b81526002600a820152206002600052602052604060002090805180519060018060401b03821162004869578354600181811c91168015620051a0575b60208210146200484857601f811162005157575b50602090601f8311600114620050e45761018093929160009183620050d8575b50508160011b916000199060031b1c19161783555b6020818101516001850155604080830151805160028701559182015160038601558101516004850155606081015160058501556080810151600685015560a00151600784015560608181015180516008860155602081015160098601556040810151600a86015590810151600b8501556080810151600c85015560a00151600d840155608081810151600e85015560a080830151600f86015560c0830151601086015560e08301516011860155610100830151601286015561012083015180516013870155602081015160148701556040810151601587015560608101516016870155918201516017860155015160188401556101408101516019840155601a8301610160820151151560ff80198354169116179055015180519060018060401b0382116200486957601b830154600181811c91168015620050cd575b60208210146200484857601f811162005081575b50602090601f83116001146200500c57601b92916000918362005000575b50508160011b916000199060031b1c1916179101555b604051620035bb816200690a565b60c8815260646020820152607860408201526000606082015260006080820152604660a082015262003621604051620035f4816200690a565b60c8815260646020820152607860408201526000606082015260006080820152604660a0820152620069b0565b6040516200362f816200690a565b6000815260006020820152600060408201526000606082015260c86080820152600060a08201526040519162003696600f846200367160208201608062006983565b6e0737465656c776f726b732e7765627608c1b8152036010198101865201846200695f565b60405193620036a58562006926565b604051620036b38162006943565b600a815269537465656c776f726b7360b01b60208201528552600260208601526040850152606084015260066080840152600060a0840152600060c0840152600060e08401526000610100840152610120830152610e106101408301526001610160830152610180820152602a60405169537465656c776f726b7360b01b81526002600a820152206002600052602052604060002090805180519060018060401b03821162004869578354600181811c9116801562004ff5575b60208210146200484857601f811162004fac575b50602090601f831160011462004f39576101809392916000918362004f2d575b50508160011b916000199060031b1c19161783555b6020818101516001850155604080830151805160028701559182015160038601558101516004850155606081015160058501556080810151600685015560a00151600784015560608181015180516008860155602081015160098601556040810151600a86015590810151600b8501556080810151600c85015560a00151600d840155608081810151600e85015560a080830151600f86015560c0830151601086015560e08301516011860155610100830151601286015561012083015180516013870155602081015160148701556040810151601587015560608101516016870155918201516017860155015160188401556101408101516019840155601a8301610160820151151560ff80198354169116179055015180519060018060401b0382116200486957601b830154600181811c9116801562004f22575b60208210146200484857601f811162004ed6575b50602090601f831160011462004e6157601b92916000918362004e55575b50508160011b916000199060031b1c1916179101555b60405162003949816200690a565b60dc815260786020820152605060408201526000606082015260006080820152605060a0820152620039af60405162003982816200690a565b60dc815260786020820152605060408201526000606082015260006080820152605060a0820152620069b0565b604051620039bd816200690a565b60008152600060208201526000604082015260c8606082015260006080820152600060a08201526040519162003a21600c84620039ff60208201608062006983565b6b0666163746f72792e776562760a41b8152036013198101865201846200695f565b6040519362003a308562006926565b60405162003a3e8162006943565b6007815266466163746f727960c81b602082015285526002602086015260408501526060840152600a6080840152600060a0840152600060c0840152600060e08401526000610100840152610120830152610e106101408301526001610160830152610180820152602760405166466163746f727960c81b815260026007820152206002600052602052604060002090805180519060018060401b03821162004869578354600181811c9116801562004e4a575b60208210146200484857601f811162004e01575b50602090601f831160011462004d8e576101809392916000918362004d82575b50508160011b916000199060031b1c19161783555b6020818101516001850155604080830151805160028701559182015160038601558101516004850155606081015160058501556080810151600685015560a00151600784015560608181015180516008860155602081015160098601556040810151600a86015590810151600b8501556080810151600c85015560a00151600d840155608081810151600e85015560a080830151600f86015560c0830151601086015560e08301516011860155610100830151601286015561012083015180516013870155602081015160148701556040810151601587015560608101516016870155918201516017860155015160188401556101408101516019840155601a8301610160820151151560ff80198354169116179055015180519060018060401b0382116200486957601b830154600181811c9116801562004d77575b60208210146200484857601f811162004d2b575b50602090601f831160011462004cb657601b92916000918362004caa575b50508160011b916000199060031b1c1916179101555b60405162003cce816200690a565b60f0815260646020820152606460408201526000606082015260006080820152606460a082015262003d3460405162003d07816200690a565b60f0815260646020820152606460408201526000606082015260006080820152606460a0820152620069b0565b60405162003d42816200690a565b600081526000602082015260006040820152600060608201526000608082015260c860a08201526040519162003daa60108462003d8460208201608062006983565b6f074726164696e67706f73742e776562760841b815203600f198101865201846200695f565b6040519362003db98562006926565b60405162003dc78162006943565b600c81526b151c98591a5b99c8141bdcdd60a21b60208201528552600260208601526040850152606084015260006080840152600660a0840152600060c0840152600260e08401526000610100840152610120830152610e106101408301526001610160830152610180820152602c6040516b151c98591a5b99c8141bdcdd60a21b81526002600c820152206002600052602052604060002090805180519060018060401b03821162004869578354600181811c9116801562004c9f575b60208210146200484857601f811162004c56575b50602090601f831160011462004be3576101809392916000918362004bd7575b50508160011b916000199060031b1c19161783555b6020818101516001850155604080830151805160028701559182015160038601558101516004850155606081015160058501556080810151600685015560a00151600784015560608181015180516008860155602081015160098601556040810151600a86015590810151600b8501556080810151600c85015560a00151600d840155608081810151600e85015560a080830151600f86015560c0830151601086015560e08301516011860155610100830151601286015561012083015180516013870155602081015160148701556040810151601587015560608101516016870155918201516017860155015160188401556101408101516019840155601a8301610160820151151560ff80198354169116179055015180519060018060401b0382116200486957601b830154600181811c9116801562004bcc575b60208210146200484857601f811162004b80575b50602090601f831160011462004b0b57601b92916000918362004aff575b50508160011b916000199060031b1c1916179101555b60405162004061816200690a565b620040c8610104808352608c6020840152607860408401526000606084015260006080840152607860a0840152604051906200409d826200690a565b8152608c6020820152607860408201526000606082015260006080820152607860a0820152620069b0565b604051620040d6816200690a565b6000815260006020820152600060408201526000606082015260006080820152600060a0820152604051916200413b600d846200411860208201608062006983565b6c0666f7274726573732e7765627609c1b8152036012198101865201846200695f565b604051936200414a8562006926565b604051620041588162006943565b6008815267466f72747265737360c01b60208201528552600260208601526040850152606084015260006080840152600060a0840152600060c0840152600060e0840152600a610100840152610120830152610e106101408301526001610160830152610180820152602860405167466f72747265737360c01b815260026008820152206002600052602052604060002090805180519060018060401b03821162004869578354600181811c9116801562004af4575b60208210146200484857601f811162004aab575b50602090601f831160011462004a38576101809392916000918362004a2c575b50508160011b916000199060031b1c19161783555b6020818101516001850155604080830151805160028701559182015160038601558101516004850155606081015160058501556080810151600685015560a00151600784015560608181015180516008860155602081015160098601556040810151600a86015590810151600b8501556080810151600c85015560a00151600d840155608081810151600e85015560a080830151600f86015560c0830151601086015560e08301516011860155610100830151601286015561012083015180516013870155602081015160148701556040810151601587015560608101516016870155918201516017860155015160188401556101408101516019840155601a8301610160820151151560ff80198354169116179055015180519060018060401b0382116200486957601b830154600181811c9116801562004a21575b60208210146200484857601f8111620049d5575b50602090601f83116001146200496057601b92916000918362004954575b50508160011b916000199060031b1c1916179101555b604051620043ea816200690a565b610140815260b4602082015260a06040820152600060608201526000608082015260b460a08201526200445260405162004424816200690a565b610140815260b4602082015260a06040820152600060608201526000608082015260b460a0820152620069b0565b60405162004460816200690a565b6000815260006020820152600060408201526000606082015260006080820152600060a082015260405191620044ca601284620044a260208201608062006983565b710636176616c72797363686f6f6c2e776562760741b815203600d198101865201846200695f565b60405193620044d98562006926565b604051620044e78162006943565b600e81526d10d85d985b1c9e4814d8da1bdbdb60921b60208201528552600260208601526040850152606084015260006080840152600060a0840152600060c0840152600060e08401526006610100840152610120830152610e106101408301526001610160830152610180820152602e6040516d10d85d985b1c9e4814d8da1bdbdb60921b81526002600e8201522060026000526020526040600020815180519060018060401b03821162004869578254600181811c9116801562004949575b60208210146200484857601f811162004900575b50602090601f83116001146200488b5791806101809492601b946000926200487f575b50508160011b916000199060031b1c19161781555b6020848101516001830155604080860151805160028501559182015160038401558101516004830155606081015160058301556080810151600683015560a00151600782015560608481015180516008840155602081015160098401556040810151600a84015590810151600b8301556080810151600c83015560a00151600d820155608084810151600e83015560a080860151600f84015560c0860151601084015560e08601516011840155610100860151601284015561012086015180516013850155602081015160148501556040810151601585015560608101516016850155918201516017840155015160188201556101408401516019820155601a8101610160850151151560ff801983541691161790550191015190815160018060401b03811162004869578154600181811c911680156200485e575b60208210146200484857601f8111620047fb575b50602092601f821160011462004792579281929360009262004786575b50508160011b916000199060031b1c19161790555b6040516113ad908162006b148239f35b01519050388062004761565b601f198216938360005260206000209160005b868110620047e25750836001959610620047c8575b505050811b01905562004776565b015160001960f88460031b161c19169055388080620047ba565b91926020600181928685015181550194019201620047a5565b826000526020600020601f830160051c810191602084106200483d575b601f0160051c01905b81811062004830575062004744565b6000815560010162004821565b909150819062004818565b634e487b7160e01b600052602260045260246000fd5b90607f169062004730565b634e487b7160e01b600052604160045260246000fd5b015190503880620045df565b908360005260206000209160005b601f1985168110620048e75750926101809492600192601b9583601f19811610620048cd575b505050811b018155620045f4565b015160001960f88460031b161c19169055388080620048bf565b9192602060018192868501518155019401920162004899565b836000526020600020601f840160051c81016020851062004941575b601f830160051c8201811062004934575050620045bc565b600081556001016200491c565b50806200491c565b90607f1690620045a8565b015190503880620043c6565b90601b840160005260206000209160005b601f1985168110620049bc5750918391600193601b95601f19811610620049a2575b505050811b01910155620043dc565b015160001960f88460031b161c1916905538808062004993565b9192602060018192868501518155019401920162004971565b601b84016000526020600020601f840160051c81016020851062004a19575b601f830160051c8201811062004a0c575050620043a8565b60008155600101620049f4565b5080620049f4565b90607f169062004394565b01519050388062004242565b908460005260206000209160005b601f198516811062004a9257509183916001936101809695601f1981161062004a78575b505050811b01835562004257565b015160001960f88460031b161c1916905538808062004a6a565b9192602060018192868501518155019401920162004a46565b846000526020600020601f840160051c81016020851062004aec575b601f830160051c8201811062004adf57505062004222565b6000815560010162004ac7565b508062004ac7565b90607f16906200420e565b0151905038806200403d565b90601b840160005260206000209160005b601f198516811062004b675750918391600193601b95601f1981161062004b4d575b505050811b0191015562004053565b015160001960f88460031b161c1916905538808062004b3e565b9192602060018192868501518155019401920162004b1c565b601b84016000526020600020601f840160051c81016020851062004bc4575b601f830160051c8201811062004bb75750506200401f565b6000815560010162004b9f565b508062004b9f565b90607f16906200400b565b01519050388062003eb9565b908460005260206000209160005b601f198516811062004c3d57509183916001936101809695601f1981161062004c23575b505050811b01835562003ece565b015160001960f88460031b161c1916905538808062004c15565b9192602060018192868501518155019401920162004bf1565b846000526020600020601f840160051c81016020851062004c97575b601f830160051c8201811062004c8a57505062003e99565b6000815560010162004c72565b508062004c72565b90607f169062003e85565b01519050388062003caa565b90601b840160005260206000209160005b601f198516811062004d125750918391600193601b95601f1981161062004cf8575b505050811b0191015562003cc0565b015160001960f88460031b161c1916905538808062004ce9565b9192602060018192868501518155019401920162004cc7565b601b84016000526020600020601f840160051c81016020851062004d6f575b601f830160051c8201811062004d6257505062003c8c565b6000815560010162004d4a565b508062004d4a565b90607f169062003c78565b01519050388062003b26565b908460005260206000209160005b601f198516811062004de857509183916001936101809695601f1981161062004dce575b505050811b01835562003b3b565b015160001960f88460031b161c1916905538808062004dc0565b9192602060018192868501518155019401920162004d9c565b846000526020600020601f840160051c81016020851062004e42575b601f830160051c8201811062004e3557505062003b06565b6000815560010162004e1d565b508062004e1d565b90607f169062003af2565b01519050388062003925565b90601b840160005260206000209160005b601f198516811062004ebd5750918391600193601b95601f1981161062004ea3575b505050811b019101556200393b565b015160001960f88460031b161c1916905538808062004e94565b9192602060018192868501518155019401920162004e72565b601b84016000526020600020601f840160051c81016020851062004f1a575b601f830160051c8201811062004f0d57505062003907565b6000815560010162004ef5565b508062004ef5565b90607f1690620038f3565b015190503880620037a1565b908460005260206000209160005b601f198516811062004f9357509183916001936101809695601f1981161062004f79575b505050811b018355620037b6565b015160001960f88460031b161c1916905538808062004f6b565b9192602060018192868501518155019401920162004f47565b846000526020600020601f840160051c81016020851062004fed575b601f830160051c8201811062004fe057505062003781565b6000815560010162004fc8565b508062004fc8565b90607f16906200376d565b01519050388062003597565b90601b840160005260206000209160005b601f1985168110620050685750918391600193601b95601f198116106200504e575b505050811b01910155620035ad565b015160001960f88460031b161c191690553880806200503f565b919260206001819286850151815501940192016200501d565b601b84016000526020600020601f840160051c810160208510620050c5575b601f830160051c82018110620050b857505062003579565b60008155600101620050a0565b5080620050a0565b90607f169062003565565b01519050388062003413565b908460005260206000209160005b601f19851681106200513e57509183916001936101809695601f1981161062005124575b505050811b01835562003428565b015160001960f88460031b161c1916905538808062005116565b91926020600181928685015181550194019201620050f2565b846000526020600020601f840160051c81016020851062005198575b601f830160051c820181106200518b575050620033f3565b6000815560010162005173565b508062005173565b90607f1690620033df565b01519050388062003209565b90601b840160005260206000209160005b601f1985168110620052135750918391600193601b95601f19811610620051f9575b505050811b019101556200321f565b015160001960f88460031b161c19169055388080620051ea565b91926020600181928685015181550194019201620051c8565b601b84016000526020600020601f840160051c81016020851062005270575b601f830160051c8201811062005263575050620031eb565b600081556001016200524b565b50806200524b565b90607f1690620031d7565b01519050388062003085565b908460005260206000209160005b601f1985168110620052e957509183916001936101809695601f19811610620052cf575b505050811b0183556200309a565b015160001960f88460031b161c19169055388080620052c1565b919260206001819286850151815501940192016200529d565b846000526020600020601f840160051c81016020851062005343575b601f830160051c820181106200533657505062003065565b600081556001016200531e565b50806200531e565b90607f169062003051565b01519050388062002e84565b90601b840160005260206000209160005b601f1985168110620053be5750918391600193601b95601f19811610620053a4575b505050811b0191015562002e9a565b015160001960f88460031b161c1916905538808062005395565b9192602060018192868501518155019401920162005373565b601b84016000526020600020601f840160051c8101602085106200541b575b601f830160051c820181106200540e57505062002e66565b60008155600101620053f6565b5080620053f6565b90607f169062002e52565b01519050388062002d00565b908460005260206000209160005b601f19851681106200549457509183916001936101809695601f198116106200547a575b505050811b01835562002d15565b015160001960f88460031b161c191690553880806200546c565b9192602060018192868501518155019401920162005448565b846000526020600020601f840160051c810160208510620054ee575b601f830160051c82018110620054e157505062002ce0565b60008155600101620054c9565b5080620054c9565b90607f169062002ccc565b01519050388062002af8565b90601b840160005260206000209160005b601f1985168110620055695750918391600193601b95601f198116106200554f575b505050811b0191015562002b0e565b015160001960f88460031b161c1916905538808062005540565b919260206001819286850151815501940192016200551e565b601b84016000526020600020601f840160051c810160208510620055c6575b601f830160051c82018110620055b957505062002ada565b60008155600101620055a1565b5080620055a1565b90607f169062002ac6565b01519050388062002974565b908460005260206000209160005b601f19851681106200563f57509183916001936101809695601f1981161062005625575b505050811b01835562002989565b015160001960f88460031b161c1916905538808062005617565b91926020600181928685015181550194019201620055f3565b846000526020600020601f840160051c81016020851062005699575b601f830160051c820181106200568c57505062002954565b6000815560010162005674565b508062005674565b90607f169062002940565b0151905038806200276b565b90601b840160005260206000209160005b601f1985168110620057145750918391600193601b95601f19811610620056fa575b505050811b0191015562002781565b015160001960f88460031b161c19169055388080620056eb565b91926020600181928685015181550194019201620056c9565b601b84016000526020600020601f840160051c81016020851062005771575b601f830160051c82018110620057645750506200274d565b600081556001016200574c565b50806200574c565b90607f169062002739565b015190503880620025e7565b908460005260206000209160005b601f1985168110620057ea57509183916001936101809695601f19811610620057d0575b505050811b018355620025fc565b015160001960f88460031b161c19169055388080620057c2565b919260206001819286850151815501940192016200579e565b846000526020600020601f840160051c81016020851062005844575b601f830160051c8201811062005837575050620025c7565b600081556001016200581f565b50806200581f565b90607f1690620025b3565b015190503880620023e9565b90601b840160005260206000209160005b601f1985168110620058bf5750918391600193601b95601f19811610620058a5575b505050811b01910155620023ff565b015160001960f88460031b161c1916905538808062005896565b9192602060018192868501518155019401920162005874565b601b84016000526020600020601f840160051c8101602085106200591c575b601f830160051c820181106200590f575050620023cb565b60008155600101620058f7565b5080620058f7565b90607f1690620023b7565b01519050388062002265565b908460005260206000209160005b601f19851681106200599557509183916001936101809695601f198116106200597b575b505050811b0183556200227a565b015160001960f88460031b161c191690553880806200596d565b9192602060018192868501518155019401920162005949565b846000526020600020601f840160051c810160208510620059ef575b601f830160051c82018110620059e257505062002245565b60008155600101620059ca565b5080620059ca565b90607f169062002231565b01519050388062002064565b90601b840160005260206000209160005b601f198516811062005a6a5750918391600193601b95601f1981161062005a50575b505050811b019101556200207a565b015160001960f88460031b161c1916905538808062005a41565b9192602060018192868501518155019401920162005a1f565b601b84016000526020600020601f840160051c81016020851062005ac7575b601f830160051c8201811062005aba57505062002046565b6000815560010162005aa2565b508062005aa2565b90607f169062002032565b01519050388062001ee0565b908460005260206000209160005b601f198516811062005b4057509183916001936101809695601f1981161062005b26575b505050811b01835562001ef5565b015160001960f88460031b161c1916905538808062005b18565b9192602060018192868501518155019401920162005af4565b846000526020600020601f840160051c81016020851062005b9a575b601f830160051c8201811062005b8d57505062001ec0565b6000815560010162005b75565b508062005b75565b90607f169062001eac565b01519050388062001cdd565b90601b840160005260206000209160005b601f198516811062005c155750918391600193601b95601f1981161062005bfb575b505050811b0191015562001cf3565b015160001960f88460031b161c1916905538808062005bec565b9192602060018192868501518155019401920162005bca565b601b84016000526020600020601f840160051c81016020851062005c72575b601f830160051c8201811062005c6557505062001cbf565b6000815560010162005c4d565b508062005c4d565b90607f169062001cab565b01519050388062001b59565b908460005260206000209160005b601f198516811062005ceb57509183916001936101809695601f1981161062005cd1575b505050811b01835562001b6e565b015160001960f88460031b161c1916905538808062005cc3565b9192602060018192868501518155019401920162005c9f565b846000526020600020601f840160051c81016020851062005d45575b601f830160051c8201811062005d3857505062001b39565b6000815560010162005d20565b508062005d20565b90607f169062001b25565b0151905038806200195b565b90601b840160005260206000209160005b601f198516811062005dc05750918391600193601b95601f1981161062005da6575b505050811b0191015562001971565b015160001960f88460031b161c1916905538808062005d97565b9192602060018192868501518155019401920162005d75565b601b84016000526020600020601f840160051c81016020851062005e1d575b601f830160051c8201811062005e105750506200193d565b6000815560010162005df8565b508062005df8565b90607f169062001929565b015190503880620017d7565b908460005260206000209160005b601f198516811062005e9657509183916001936101809695601f1981161062005e7c575b505050811b018355620017ec565b015160001960f88460031b161c1916905538808062005e6e565b9192602060018192868501518155019401920162005e4a565b846000526020600020601f840160051c81016020851062005ef0575b601f830160051c8201811062005ee3575050620017b7565b6000815560010162005ecb565b508062005ecb565b90607f1690620017a3565b015190503880620015d3565b90601b840160005260206000209160005b601f198516811062005f6b5750918391600193601b95601f1981161062005f51575b505050811b01910155620015e9565b015160001960f88460031b161c1916905538808062005f42565b9192602060018192868501518155019401920162005f20565b601b84016000526020600020601f840160051c81016020851062005fc8575b601f830160051c8201811062005fbb575050620015b5565b6000815560010162005fa3565b508062005fa3565b90607f1690620015a1565b0151905038806200144f565b908460005260206000209160005b601f19851681106200604157509183916001936101809695601f1981161062006027575b505050811b01835562001464565b015160001960f88460031b161c1916905538808062006019565b9192602060018192868501518155019401920162005ff5565b846000526020600020601f840160051c8101602085106200609b575b601f830160051c820181106200608e5750506200142f565b6000815560010162006076565b508062006076565b90607f16906200141b565b01519050388062001240565b90601b840160005260206000209160005b601f1985168110620061165750918391600193601b95601f19811610620060fc575b505050811b0191015562001256565b015160001960f88460031b161c19169055388080620060ed565b91926020600181928685015181550194019201620060cb565b601b84016000526020600020601f840160051c81016020851062006173575b601f830160051c820181106200616657505062001222565b600081556001016200614e565b50806200614e565b90607f16906200120e565b015190503880620010bc565b908460005260206000209160005b601f1985168110620061ec57509183916001936101809695601f19811610620061d2575b505050811b018355620010d1565b015160001960f88460031b161c19169055388080620061c4565b91926020600181928685015181550194019201620061a0565b846000526020600020601f840160051c81016020851062006246575b601f830160051c82018110620062395750506200109c565b6000815560010162006221565b508062006221565b90607f169062001088565b01519050388062000eb6565b90601b840160005260206000209160005b601f1985168110620062c15750918391600193601b95601f19811610620062a7575b505050811b0191015562000ecc565b015160001960f88460031b161c1916905538808062006298565b9192602060018192868501518155019401920162006276565b601b84016000526020600020601f840160051c8101602085106200631e575b601f830160051c820181106200631157505062000e98565b60008155600101620062f9565b5080620062f9565b90607f169062000e84565b01519050388062000d32565b908460005260206000209160005b601f19851681106200639757509183916001936101809695601f198116106200637d575b505050811b01835562000d47565b015160001960f88460031b161c191690553880806200636f565b919260206001819286850151815501940192016200634b565b846000526020600020601f840160051c810160208510620063f1575b601f830160051c82018110620063e457505062000d12565b60008155600101620063cc565b5080620063cc565b90607f169062000cfe565b01519050388062000b29565b90601b840160005260206000209160005b601f19851681106200646c5750918391600193601b95601f1981161062006452575b505050811b0191015562000b3f565b015160001960f88460031b161c1916905538808062006443565b9192602060018192868501518155019401920162006421565b601b84016000526020600020601f840160051c810160208510620064c9575b601f830160051c82018110620064bc57505062000b0b565b60008155600101620064a4565b5080620064a4565b90607f169062000af7565b015190503880620009a5565b908460005260206000209160005b601f19851681106200654257509183916001936101809695601f1981161062006528575b505050811b018355620009ba565b015160001960f88460031b161c191690553880806200651a565b91926020600181928685015181550194019201620064f6565b846000526020600020601f840160051c8101602085106200659c575b601f830160051c820181106200658f57505062000985565b6000815560010162006577565b508062006577565b90607f169062000971565b015190503880620007a5565b90601b840160005260206000209160005b601f1985168110620066175750918391600193601b95601f19811610620065fd575b505050811b01910155620007bb565b015160001960f88460031b161c19169055388080620065ee565b91926020600181928685015181550194019201620065cc565b601b84016000526020600020601f840160051c81016020851062006674575b601f830160051c820181106200666757505062000787565b600081556001016200664f565b50806200664f565b90607f169062000773565b01519050388062000621565b908460005260206000209160005b601f1985168110620066ed57509183916001936101809695601f19811610620066d3575b505050811b01835562000636565b015160001960f88460031b161c19169055388080620066c5565b91926020600181928685015181550194019201620066a1565b846000526020600020601f840160051c81016020851062006747575b601f830160051c820181106200673a57505062000601565b6000815560010162006722565b508062006722565b90607f1690620005ed565b01519050388062000413565b90601b840160005260206000209160005b601f1985168110620067c25750918391600193601b95601f19811610620067a8575b505050811b0191015562000429565b015160001960f88460031b161c1916905538808062006799565b9192602060018192868501518155019401920162006777565b601b84016000526020600020601f840160051c8101602085106200681f575b601f830160051c8201811062006812575050620003f5565b60008155600101620067fa565b5080620067fa565b90607f1690620003e1565b0151905038806200028d565b908460005260206000209160005b601f19851681106200689857509183916001936101809695601f198116106200687e575b505050811b018355620002a2565b015160001960f88460031b161c1916905538808062006870565b919260206001819286850151815501940192016200684c565b846000526020600020601f840160051c810160208510620068f2575b601f830160051c82018110620068e55750506200026d565b60008155600101620068cd565b5080620068cd565b90607f169062000256565b600080fd5b60c081019081106001600160401b038211176200486957604052565b6101a081019081106001600160401b038211176200486957604052565b604081019081106001600160401b038211176200486957604052565b601f909101601f19168101906001600160401b038211908210176200486957604052565b9081519160005b8381106200699c575050016000815290565b80602080928401015181850152016200698a565b60a0604051620069c0816200690a565b60009181838093528260208201528260408201528260608201528260808201520152815160019281841b9060029280830484149015171562006aff5760208101519182861b9280840485149015171562006aeb5760408201519485871b9580870486149015171562006aaf5760608301519687811b9780890487149015171562006ad75760808401519384821b9480860488149015171562006ac35760a0015180911b95818704149015171562006aaf57506040519562006a81876200690a565b60648096818096818096048b520460208a01520460408801520460608601520460808401520460a082015290565b634e487b7160e01b81526011600452602490fd5b634e487b7160e01b83526011600452602483fd5b634e487b7160e01b82526011600452602482fd5b634e487b7160e01b85526011600452602485fd5b634e487b7160e01b84526011600452602484fdfe60808060405260048036101561001457600080fd5b600091823560e01c90816339d022e114610f5857508063489b0f5a14610d285780636790d4b914610bf3578063715018a614610b995780638da5cb5b14610b72578063ab0e237814610ae9578063b5a6581814610a5e578063bfecd1a71461072f578063c58e527f1461057e578063d9dcfdb8146101d4578063ed81049d146101705763f2fde38b146100a657600080fd5b3461016c57602036600319011261016c576001600160a01b0381358181169290839003610168576100d5611221565b8215610115575082546001600160a01b0319811683178455167f8be0079c531659141344cd1fd0a4f28419497f9722a3daafe3b4186f6b6457e08380a380f35b60849060206040519162461bcd60e51b8352820152602660248201527f4f776e61626c653a206e6577206f776e657220697320746865207a65726f206160448201526564647265737360d01b6064820152fd5b8380fd5b5080fd5b82346101d1576040606091602061019d6101893661104a565b92908186519382858094519384920161107c565b8101600281520301902090825260205220600e810154906012600f8201549101549060405192835260208301526040820152f35b80fd5b503461016c5761012036600319011261016c57803567ffffffffffffffff811161057a576102059036908301610fee565b9060c036604319011261057a576040519161021f83610fb0565b604435835260208301936064358552604084019160843583526060850160a4358152608086019060c4358252610282602060a089019460e4358652610262611279565b5061026f815115156112ab565b816040519382858094519384920161107c565b81016002815203019020946024958635865260205260408520986102ac60ff601a8c0154166112ef565b88519060028b015480921061054557805160038c0154809110610510578351928a8d01548094106104da57908c94939291600587519601548096106104a457908d9695949392916006895198015480981061046f57908e989796959493929160078b519a0154809a1061043a5761033f938f9361033f61033f9997948661033f6103489f9e9d9b989661033f9751611334565b90528251611334565b9052610104359485156103ea5760190154926032840293808504603214901517156103da57600186018096116103da5785156103ca5760e08561039a610e10898804818110156103ae57505b4261136a565b6103a760405180936110c4565b60c0820152f35b90506202a3008082116103c2575b50610394565b9050846103bc565b634e487b7160e01b825260129052fd5b634e487b7160e01b825260119052fd5b60405162461bcd60e51b81526020818601528084018490527f50726f64756374696f6e206d7573742062652067726561746572207468616e206044820152637a65726f60e01b6064820152608490fd5b60648e600f8f60206040519362461bcd60e51b85528401528201526e139bdd08195b9bdd59da0819dbdb19608a1b6044820152fd5b60405162461bcd60e51b81526020818f0152600f818e01526e2737ba1032b737bab3b41034b937b760891b6044820152606490fd5b60405162461bcd60e51b81526020818e01526010818d01526f4e6f7420656e6f75676820627261737360801b6044820152606490fd5b60405162461bcd60e51b81526020818d01526010818c01526f4e6f7420656e6f7567682073746f6e6560801b6044820152606490fd5b60405162461bcd60e51b81526020818c0152600f818b01526e139bdd08195b9bdd59da081ddbdbd9608a1b6044820152606490fd5b60405162461bcd60e51b81526020818b0152600f818a01526e139bdd08195b9bdd59da08199bdbd9608a1b6044820152606490fd5b8280fd5b5090346101d15760603660031901126101d15767ffffffffffffffff91803583811161057a576105b19036908301610fee565b92604435818111610168576105c99036908401610fee565b936105d2611221565b6105de815115156112ab565b60405181818093516105f6816020968780960161107c565b8101600281520301902060243585528152601b6040852061061d60ff601a830154166112ef565b0192855192831161071c575061063383546110fb565b601f81116106d9575b5080601f8311600114610677575083948293949261066c575b50508160011b916000199060031b1c191617905580f35b015190503880610655565b90601f198316958486528286209286905b8882106106c1575050836001959697106106a8575b505050811b01905580f35b015160001960f88460031b161c1916905538808061069d565b80600185968294968601518155019501930190610688565b838552818520601f840160051c810191838510610712575b601f0160051c01905b818110610707575061063c565b8581556001016106fa565b90915081906106f1565b634e487b7160e01b855260419052602484fd5b503461016c57604036600319011261016c5780359167ffffffffffffffff9182841161016c573660238501121561016c578381013592808411610a4b5760059380851b9560405192602092610786848a0186610fcc565b8452828401906024809984010192368411610a4757898101925b8484106109b55750505050508535906107b7611279565b506107c0611279565b92855b81518110156109a3578281891b830101516040810151610802575b5060001981146107f0576001016107c3565b634e487b7160e01b8752601186528887fd5b805190848061081a604051948581519384920161107c565b8301928181600295868152030190209101518952845261099b6109908660408b206108666040519561084b87610f7d565b61085483611135565b875260018301548a88015282016111db565b6040860152610877600882016111db565b60609081870152600e820154608090818801528b61096a600f8501549460a0998a9687820152601082015460c0820152601182015460e082015260128201546101008201526101806108fa601b6108d0601386016111db565b946101208501958652601981015461014086015260ff601a82015416151561016086015201611135565b910152519361091461090d888751611357565b845161136a565b83528c6109326109278983890151611357565b91850191825161136a565b9052610942876040870151611357565b6109516040850191825161136a565b90526109608782870151611357565b920191825161136a565b905261098761097c8583850151611357565b918d0191825161136a565b90520151611357565b91870191825161136a565b9052386107de565b60c0856109b360405180926110c4565bf35b8335838111610a43578201606090816023198236030112610a295760405191820182811086821117610a31576040528c810135858111610a2d5790610a016064928f3691840101610fee565b835260448101358984015201358015158103610a2957604082015281529285019285016107a0565b8a80fd5b8b80fd5b634e487b7160e01b8c5260418b528d8cfd5b8980fd5b8780fd5b634e487b7160e01b835260418252602483fd5b503461016c57602036600319011261016c5780356001600160a01b038116919082900361057a57610a8d611221565b8115610aaf57506bffffffffffffffffffffffff60a01b600154161760015580f35b60649060206040519162461bcd60e51b83528201526013602482015272496e76616c6964206e6577206164647265737360681b6044820152fd5b503461016c57602036600319011261016c576001600160a01b038135818116929083900361016857610b19611221565b600154918216610b3557506001600160a01b0319161760015580f35b60649060206040519162461bcd60e51b8352820152601660248201527513185b99139195081a5cc8185b1c9958591e481cd95d60521b6044820152fd5b82346101d157806003193601126101d157546040516001600160a01b039091168152602090f35b82346101d157806003193601126101d157610bb2611221565b80546001600160a01b03198116825581906001600160a01b03167f8be0079c531659141344cd1fd0a4f28419497f9722a3daafe3b4186f6b6457e08280a380f35b82346101d157610c023661104a565b906040518181809351602081930191610c1a9261107c565b81016002815203602001902090825260205260409020610c3981611135565b60018201549091610c4c600282016111db565b92610c59600883016111db565b91600e810154600f8201546010830154601184015460128501549160138601610c81906111db565b93601987015495601a88015460ff1697601b01610c9d90611135565b996040519c8d9c8d9b8c6103808091528d01610cb89161109f565b9b6020015260408d01610cca916110c4565b6101008c01610cd8916110c4565b6101c08b01526101e08a01526102008901526102208801526102408701526102608601610d04916110c4565b6103208501521515610340840152828103610360840152610d249161109f565b0390f35b82346101d1576040610d24916020610dc3610d423661104a565b929060606101808751610d5481610f7d565b8281528785820152610d64611279565b89820152610d70611279565b838201528760808201528760a08201528760c08201528760e082015287610100820152610d9b611279565b610120820152876101408201528761016082015201528186519382858094519384920161107c565b8101600281520301902090825260205220610e83601b60405192610de684610f7d565b610def81611135565b845260018101546020850152610e07600282016111db565b6040850152610e18600882016111db565b6060850152600e8101546080850152600f81015460a0850152601081015460c0850152601181015460e08501526012810154610100850152610e5c601382016111db565b610120850152601981015461014085015260ff601a82015416151561016085015201611135565b61018082015260405191829160208352610180610eae825161038060208701526103a086019061109f565b9160208101516040860152610ecb604082015160608701906110c4565b610ede60608201516101208701906110c4565b60808101516101e086015260a081015161020086015260c081015161022086015260e0810151610240860152610100810151610260860152610f2a6101208201516102808701906110c4565b61014081015161034086015261016081015115156103608601520151838203601f190161038085015261109f565b83903461016c578160031936011261016c576001546001600160a01b03168152602090f35b6101a0810190811067ffffffffffffffff821117610f9a57604052565b634e487b7160e01b600052604160045260246000fd5b60c0810190811067ffffffffffffffff821117610f9a57604052565b90601f8019910116810190811067ffffffffffffffff821117610f9a57604052565b81601f820112156110455780359067ffffffffffffffff8211610f9a5760405192611023601f8401601f191660200185610fcc565b8284526020838301011161104557816000926020809301838601378301015290565b600080fd5b6040600319820112611045576004359067ffffffffffffffff82116110455761107591600401610fee565b9060243590565b60005b83811061108f5750506000910152565b818101518382015260200161107f565b906020916110b88151809281855285808601910161107c565b601f01601f1916010190565b60a0809180518452602081015160208501526040810151604085015260608101516060850152608081015160808501520151910152565b90600182811c9216801561112b575b602083101461111557565b634e487b7160e01b600052602260045260246000fd5b91607f169161110a565b9060405191826000825492611149846110fb565b9081845260019485811690816000146111b85750600114611175575b505061117392500383610fcc565b565b9093915060005260209081600020936000915b8183106111a057505061117393508201013880611165565b85548884018501529485019487945091830191611188565b91505061117394506020925060ff191682840152151560051b8201013880611165565b906040516111e881610fb0565b60a06005829480548452600181015460208501526002810154604085015260038101546060850152600481015460808501520154910152565b6000546001600160a01b0316330361123557565b606460405162461bcd60e51b815260206004820152602060248201527f4f776e61626c653a2063616c6c6572206973206e6f7420746865206f776e65726044820152fd5b6040519061128682610fb0565b8160a06000918281528260208201528260408201528260608201528260808201520152565b156112b257565b60405162461bcd60e51b8152602060048201526015602482015274496e76616c6964206275696c64696e67206e616d6560581b6044820152606490fd5b156112f657565b60405162461bcd60e51b81526020600482015260166024820152754275696c64696e67206e6f7420617661696c61626c6560501b6044820152606490fd5b9190820391821161134157565b634e487b7160e01b600052601160045260246000fd5b8181029291811591840414171561134157565b919082018092116113415756fea2646970667358221220b361c62040c7710fa1d0f119dbda51b1e097ea08a3ab5d2e7dd3e387d2360bca64736f6c63430008130033","opcodes":"CALLVALUE PUSH3 0x6905 JUMPI PUSH1 0x0 DUP1 SLOAD CALLER PUSH1 0x1 PUSH1 0x1 PUSH1 0xA0 SHL SUB NOT DUP3 AND DUP2 OR DUP4 SSTORE SWAP2 PUSH1 0x1 PUSH1 0x1 PUSH1 0xA0 SHL SUB SWAP1 SWAP2 AND SWAP1 PUSH32 0x8BE0079C531659141344CD1FD0A4F28419497F9722A3DAAFE3B4186F6B6457E0 SWAP1 DUP1 LOG3 PUSH2 0x100 PUSH1 0x40 DUP2 SWAP1 MSTORE PUSH1 0x44 PUSH1 0x80 MSTORE PUSH32 0x68747470733A2F2F697066732E696F2F697066732F516D52476F6B4D33686B50 PUSH1 0xA0 MSTORE PUSH32 0x4E665A4A53647A6F4548546B3568683668656A5972324672773667315570526D PUSH1 0xC0 MSTORE PUSH4 0x5970722F PUSH1 0xE0 SHL PUSH1 0xE0 MSTORE PUSH3 0xB5 DUP2 PUSH3 0x690A JUMP JUMPDEST PUSH1 0x64 DUP2 MSTORE PUSH1 0x32 PUSH1 0x20 DUP3 ADD MSTORE PUSH1 0x1E PUSH1 0x40 DUP3 ADD MSTORE PUSH1 0x0 PUSH1 0x60 DUP3 ADD MSTORE PUSH1 0x0 PUSH1 0x80 DUP3 ADD MSTORE PUSH1 0x14 PUSH1 0xA0 DUP3 ADD MSTORE PUSH3 0x11B PUSH1 0x40 MLOAD PUSH3 0xEE DUP2 PUSH3 0x690A JUMP JUMPDEST PUSH1 0x64 DUP2 MSTORE PUSH1 0x32 PUSH1 0x20 DUP3 ADD MSTORE PUSH1 0x1E PUSH1 0x40 DUP3 ADD MSTORE PUSH1 0x0 PUSH1 0x60 DUP3 ADD MSTORE PUSH1 0x0 PUSH1 0x80 DUP3 ADD MSTORE PUSH1 0x14 PUSH1 0xA0 DUP3 ADD MSTORE PUSH3 0x69B0 JUMP JUMPDEST PUSH1 0x40 MLOAD PUSH3 0x129 DUP2 PUSH3 0x690A JUMP JUMPDEST PUSH1 0x64 DUP2 MSTORE PUSH1 0x0 PUSH1 0x20 DUP3 ADD MSTORE PUSH1 0x0 PUSH1 0x40 DUP3 ADD MSTORE PUSH1 0x0 PUSH1 0x60 DUP3 ADD MSTORE PUSH1 0x0 PUSH1 0x80 DUP3 ADD MSTORE PUSH1 0x0 PUSH1 0xA0 DUP3 ADD MSTORE PUSH1 0x40 MLOAD SWAP2 PUSH3 0x18A PUSH1 0x9 DUP5 PUSH3 0x16B PUSH1 0x20 DUP3 ADD PUSH1 0x80 PUSH3 0x6983 JUMP JUMPDEST PUSH9 0x6661726D2E7765627 PUSH1 0xBC SHL DUP2 MSTORE SUB PUSH1 0x16 NOT DUP2 ADD DUP7 MSTORE ADD DUP5 PUSH3 0x695F JUMP JUMPDEST PUSH1 0x40 MLOAD SWAP4 PUSH3 0x199 DUP6 PUSH3 0x6926 JUMP JUMPDEST PUSH1 0x40 MLOAD PUSH3 0x1A7 DUP2 PUSH3 0x6943 JUMP JUMPDEST PUSH1 0x4 DUP2 MSTORE PUSH4 0x4661726D PUSH1 0xE0 SHL PUSH1 0x20 DUP3 ADD MSTORE DUP6 MSTORE PUSH1 0x1 PUSH1 0x20 DUP7 ADD MSTORE PUSH1 0x40 DUP6 ADD MSTORE PUSH1 0x60 DUP5 ADD MSTORE PUSH1 0x5 PUSH1 0x80 DUP5 ADD MSTORE PUSH1 0x2 PUSH1 0xA0 DUP5 ADD MSTORE PUSH1 0x0 PUSH1 0xC0 DUP5 ADD MSTORE PUSH1 0x0 PUSH1 0xE0 DUP5 ADD MSTORE PUSH1 0x0 PUSH2 0x100 DUP5 ADD MSTORE PUSH2 0x120 DUP4 ADD MSTORE PUSH2 0xE10 PUSH2 0x140 DUP4 ADD MSTORE PUSH1 0x1 PUSH2 0x160 DUP4 ADD MSTORE PUSH2 0x180 DUP3 ADD MSTORE PUSH1 0x24 PUSH1 0x40 MLOAD PUSH4 0x4661726D PUSH1 0xE0 SHL DUP2 MSTORE PUSH1 0x2 PUSH1 0x4 DUP3 ADD MSTORE KECCAK256 PUSH1 0x1 PUSH1 0x0 MSTORE PUSH1 0x20 MSTORE PUSH1 0x40 PUSH1 0x0 KECCAK256 SWAP1 DUP1 MLOAD DUP1 MLOAD SWAP1 PUSH1 0x1 DUP1 PUSH1 0x40 SHL SUB DUP3 GT PUSH3 0x4869 JUMPI DUP4 SLOAD DUP1 PUSH1 0x1 SHR SWAP1 PUSH1 0x1 DUP2 AND ISZERO PUSH3 0x68FA JUMPI JUMPDEST PUSH1 0x1 AND PUSH1 0x20 DUP3 LT EQ PUSH3 0x4848 JUMPI PUSH1 0x1F DUP2 GT PUSH3 0x68B1 JUMPI JUMPDEST POP PUSH1 0x20 SWAP1 PUSH1 0x1F DUP4 GT PUSH1 0x1 EQ PUSH3 0x683E JUMPI PUSH2 0x180 SWAP4 SWAP3 SWAP2 PUSH1 0x0 SWAP2 DUP4 PUSH3 0x6832 JUMPI JUMPDEST POP POP DUP2 PUSH1 0x1 SHL SWAP2 PUSH1 0x0 NOT SWAP1 PUSH1 0x3 SHL SHR NOT AND OR DUP4 SSTORE JUMPDEST PUSH1 0x20 DUP2 DUP2 ADD MLOAD PUSH1 0x1 DUP6 ADD SSTORE PUSH1 0x40 DUP1 DUP4 ADD MLOAD DUP1 MLOAD PUSH1 0x2 DUP8 ADD SSTORE SWAP2 DUP3 ADD MLOAD PUSH1 0x3 DUP7 ADD SSTORE DUP2 ADD MLOAD PUSH1 0x4 DUP6 ADD SSTORE PUSH1 0x60 DUP2 ADD MLOAD PUSH1 0x5 DUP6 ADD SSTORE PUSH1 0x80 DUP2 ADD MLOAD PUSH1 0x6 DUP6 ADD SSTORE PUSH1 0xA0 ADD MLOAD PUSH1 0x7 DUP5 ADD SSTORE PUSH1 0x60 DUP2 DUP2 ADD MLOAD DUP1 MLOAD PUSH1 0x8 DUP7 ADD SSTORE PUSH1 0x20 DUP2 ADD MLOAD PUSH1 0x9 DUP7 ADD SSTORE PUSH1 0x40 DUP2 ADD MLOAD PUSH1 0xA DUP7 ADD SSTORE SWAP1 DUP2 ADD MLOAD PUSH1 0xB DUP6 ADD SSTORE PUSH1 0x80 DUP2 ADD MLOAD PUSH1 0xC DUP6 ADD SSTORE PUSH1 0xA0 ADD MLOAD PUSH1 0xD DUP5 ADD SSTORE PUSH1 0x80 DUP2 DUP2 ADD MLOAD PUSH1 0xE DUP6 ADD SSTORE PUSH1 0xA0 DUP1 DUP4 ADD MLOAD PUSH1 0xF DUP7 ADD SSTORE PUSH1 0xC0 DUP4 ADD MLOAD PUSH1 0x10 DUP7 ADD SSTORE PUSH1 0xE0 DUP4 ADD MLOAD PUSH1 0x11 DUP7 ADD SSTORE PUSH2 0x100 DUP4 ADD MLOAD PUSH1 0x12 DUP7 ADD SSTORE PUSH2 0x120 DUP4 ADD MLOAD DUP1 MLOAD PUSH1 0x13 DUP8 ADD SSTORE PUSH1 0x20 DUP2 ADD MLOAD PUSH1 0x14 DUP8 ADD SSTORE PUSH1 0x40 DUP2 ADD MLOAD PUSH1 0x15 DUP8 ADD SSTORE PUSH1 0x60 DUP2 ADD MLOAD PUSH1 0x16 DUP8 ADD SSTORE SWAP2 DUP3 ADD MLOAD PUSH1 0x17 DUP7 ADD SSTORE ADD MLOAD PUSH1 0x18 DUP5 ADD SSTORE PUSH2 0x140 DUP2 ADD MLOAD PUSH1 0x19 DUP5 ADD SSTORE PUSH2 0x160 DUP2 ADD MLOAD ISZERO ISZERO PUSH1 0xFF DUP1 NOT PUSH1 0x1A DUP7 ADD SLOAD AND SWAP2 AND OR PUSH1 0x1A DUP5 ADD SSTORE ADD MLOAD DUP1 MLOAD SWAP1 PUSH1 0x1 DUP1 PUSH1 0x40 SHL SUB DUP3 GT PUSH3 0x4869 JUMPI PUSH1 0x1B DUP4 ADD SLOAD PUSH1 0x1 DUP2 DUP2 SHR SWAP2 AND DUP1 ISZERO PUSH3 0x6827 JUMPI JUMPDEST PUSH1 0x20 DUP3 LT EQ PUSH3 0x4848 JUMPI PUSH1 0x1F DUP2 GT PUSH3 0x67DB JUMPI JUMPDEST POP PUSH1 0x20 SWAP1 PUSH1 0x1F DUP4 GT PUSH1 0x1 EQ PUSH3 0x6766 JUMPI PUSH1 0x1B SWAP3 SWAP2 PUSH1 0x0 SWAP2 DUP4 PUSH3 0x675A JUMPI JUMPDEST POP POP DUP2 PUSH1 0x1 SHL SWAP2 PUSH1 0x0 NOT SWAP1 PUSH1 0x3 SHL SHR NOT AND OR SWAP2 ADD SSTORE JUMPDEST PUSH1 0x40 MLOAD PUSH3 0x437 DUP2 PUSH3 0x690A JUMP JUMPDEST PUSH1 0x50 DUP2 MSTORE PUSH1 0x3C PUSH1 0x20 DUP3 ADD MSTORE PUSH1 0x28 PUSH1 0x40 DUP3 ADD MSTORE PUSH1 0x0 PUSH1 0x60 DUP3 ADD MSTORE PUSH1 0x0 PUSH1 0x80 DUP3 ADD MSTORE PUSH1 0x19 PUSH1 0xA0 DUP3 ADD MSTORE PUSH3 0x49D PUSH1 0x40 MLOAD PUSH3 0x470 DUP2 PUSH3 0x690A JUMP JUMPDEST PUSH1 0x50 DUP2 MSTORE PUSH1 0x3C PUSH1 0x20 DUP3 ADD MSTORE PUSH1 0x28 PUSH1 0x40 DUP3 ADD MSTORE PUSH1 0x0 PUSH1 0x60 DUP3 ADD MSTORE PUSH1 0x0 PUSH1 0x80 DUP3 ADD MSTORE PUSH1 0x19 PUSH1 0xA0 DUP3 ADD MSTORE PUSH3 0x69B0 JUMP JUMPDEST PUSH1 0x40 MLOAD PUSH3 0x4AB DUP2 PUSH3 0x690A JUMP JUMPDEST PUSH1 0x0 DUP2 MSTORE PUSH1 0x64 PUSH1 0x20 DUP3 ADD MSTORE PUSH1 0x0 PUSH1 0x40 DUP3 ADD MSTORE PUSH1 0x0 PUSH1 0x60 DUP3 ADD MSTORE PUSH1 0x0 PUSH1 0x80 DUP3 ADD MSTORE PUSH1 0x0 PUSH1 0xA0 DUP3 ADD MSTORE PUSH1 0x40 MLOAD SWAP2 PUSH3 0x514 PUSH1 0xF DUP5 PUSH3 0x4ED PUSH1 0x20 DUP3 ADD PUSH1 0x80 PUSH3 0x6983 JUMP JUMPDEST PUSH15 0x6C756D6265726D696C6C2E7765627 PUSH1 0x8C SHL DUP2 MSTORE PUSH1 0x10 NOT DUP3 DUP3 SUB ADD DUP3 MSTORE SUB ADD DUP5 PUSH3 0x695F JUMP JUMPDEST PUSH1 0x40 MLOAD SWAP4 PUSH3 0x523 DUP6 PUSH3 0x6926 JUMP JUMPDEST PUSH1 0x40 MLOAD PUSH3 0x531 DUP2 PUSH3 0x6943 JUMP JUMPDEST PUSH1 0xB DUP2 MSTORE PUSH11 0x131D5B58995C88135A5B1B PUSH1 0xAA SHL PUSH1 0x20 DUP3 ADD MSTORE DUP6 MSTORE PUSH1 0x1 PUSH1 0x20 DUP7 ADD MSTORE PUSH1 0x40 DUP6 ADD MSTORE PUSH1 0x60 DUP5 ADD MSTORE PUSH1 0x4 PUSH1 0x80 DUP5 ADD MSTORE PUSH1 0x0 PUSH1 0xA0 DUP5 ADD MSTORE PUSH1 0x0 PUSH1 0xC0 DUP5 ADD MSTORE PUSH1 0x0 PUSH1 0xE0 DUP5 ADD MSTORE PUSH1 0x0 PUSH2 0x100 DUP5 ADD MSTORE PUSH2 0x120 DUP4 ADD MSTORE PUSH2 0xE10 PUSH2 0x140 DUP4 ADD MSTORE PUSH1 0x1 PUSH2 0x160 DUP4 ADD MSTORE PUSH2 0x180 DUP3 ADD MSTORE PUSH1 0x2B PUSH1 0x40 MLOAD PUSH11 0x131D5B58995C88135A5B1B PUSH1 0xAA SHL DUP2 MSTORE PUSH1 0x2 PUSH1 0xB DUP3 ADD MSTORE KECCAK256 PUSH1 0x1 PUSH1 0x0 MSTORE PUSH1 0x20 MSTORE PUSH1 0x40 PUSH1 0x0 KECCAK256 SWAP1 DUP1 MLOAD DUP1 MLOAD SWAP1 PUSH1 0x1 DUP1 PUSH1 0x40 SHL SUB DUP3 GT PUSH3 0x4869 JUMPI DUP4 SLOAD PUSH1 0x1 DUP2 DUP2 SHR SWAP2 AND DUP1 ISZERO PUSH3 0x674F JUMPI JUMPDEST PUSH1 0x20 DUP3 LT EQ PUSH3 0x4848 JUMPI PUSH1 0x1F DUP2 GT PUSH3 0x6706 JUMPI JUMPDEST POP PUSH1 0x20 SWAP1 PUSH1 0x1F DUP4 GT PUSH1 0x1 EQ PUSH3 0x6693 JUMPI PUSH2 0x180 SWAP4 SWAP3 SWAP2 PUSH1 0x0 SWAP2 DUP4 PUSH3 0x6687 JUMPI JUMPDEST POP POP DUP2 PUSH1 0x1 SHL SWAP2 PUSH1 0x0 NOT SWAP1 PUSH1 0x3 SHL SHR NOT AND OR DUP4 SSTORE JUMPDEST PUSH1 0x20 DUP2 DUP2 ADD MLOAD PUSH1 0x1 DUP6 ADD SSTORE PUSH1 0x40 DUP1 DUP4 ADD MLOAD DUP1 MLOAD PUSH1 0x2 DUP8 ADD SSTORE SWAP2 DUP3 ADD MLOAD PUSH1 0x3 DUP7 ADD SSTORE DUP2 ADD MLOAD PUSH1 0x4 DUP6 ADD SSTORE PUSH1 0x60 DUP2 ADD MLOAD PUSH1 0x5 DUP6 ADD SSTORE PUSH1 0x80 DUP2 ADD MLOAD PUSH1 0x6 DUP6 ADD SSTORE PUSH1 0xA0 ADD MLOAD PUSH1 0x7 DUP5 ADD SSTORE PUSH1 0x60 DUP2 DUP2 ADD MLOAD DUP1 MLOAD PUSH1 0x8 DUP7 ADD SSTORE PUSH1 0x20 DUP2 ADD MLOAD PUSH1 0x9 DUP7 ADD SSTORE PUSH1 0x40 DUP2 ADD MLOAD PUSH1 0xA DUP7 ADD SSTORE SWAP1 DUP2 ADD MLOAD PUSH1 0xB DUP6 ADD SSTORE PUSH1 0x80 DUP2 ADD MLOAD PUSH1 0xC DUP6 ADD SSTORE PUSH1 0xA0 ADD MLOAD PUSH1 0xD DUP5 ADD SSTORE PUSH1 0x80 DUP2 DUP2 ADD MLOAD PUSH1 0xE DUP6 ADD SSTORE PUSH1 0xA0 DUP1 DUP4 ADD MLOAD PUSH1 0xF DUP7 ADD SSTORE PUSH1 0xC0 DUP4 ADD MLOAD PUSH1 0x10 DUP7 ADD SSTORE PUSH1 0xE0 DUP4 ADD MLOAD PUSH1 0x11 DUP7 ADD SSTORE PUSH2 0x100 DUP4 ADD MLOAD PUSH1 0x12 DUP7 ADD SSTORE PUSH2 0x120 DUP4 ADD MLOAD DUP1 MLOAD PUSH1 0x13 DUP8 ADD SSTORE PUSH1 0x20 DUP2 ADD MLOAD PUSH1 0x14 DUP8 ADD SSTORE PUSH1 0x40 DUP2 ADD MLOAD PUSH1 0x15 DUP8 ADD SSTORE PUSH1 0x60 DUP2 ADD MLOAD PUSH1 0x16 DUP8 ADD SSTORE SWAP2 DUP3 ADD MLOAD PUSH1 0x17 DUP7 ADD SSTORE ADD MLOAD PUSH1 0x18 DUP5 ADD SSTORE PUSH2 0x140 DUP2 ADD MLOAD PUSH1 0x19 DUP5 ADD SSTORE PUSH1 0x1A DUP4 ADD PUSH2 0x160 DUP3 ADD MLOAD ISZERO ISZERO PUSH1 0xFF DUP1 NOT DUP4 SLOAD AND SWAP2 AND OR SWAP1 SSTORE ADD MLOAD DUP1 MLOAD SWAP1 PUSH1 0x1 DUP1 PUSH1 0x40 SHL SUB DUP3 GT PUSH3 0x4869 JUMPI PUSH1 0x1B DUP4 ADD SLOAD PUSH1 0x1 DUP2 DUP2 SHR SWAP2 AND DUP1 ISZERO PUSH3 0x667C JUMPI JUMPDEST PUSH1 0x20 DUP3 LT EQ PUSH3 0x4848 JUMPI PUSH1 0x1F DUP2 GT PUSH3 0x6630 JUMPI JUMPDEST POP PUSH1 0x20 SWAP1 PUSH1 0x1F DUP4 GT PUSH1 0x1 EQ PUSH3 0x65BB JUMPI PUSH1 0x1B SWAP3 SWAP2 PUSH1 0x0 SWAP2 DUP4 PUSH3 0x65AF JUMPI JUMPDEST POP POP DUP2 PUSH1 0x1 SHL SWAP2 PUSH1 0x0 NOT SWAP1 PUSH1 0x3 SHL SHR NOT AND OR SWAP2 ADD SSTORE JUMPDEST PUSH1 0x40 MLOAD PUSH3 0x7C9 DUP2 PUSH3 0x690A JUMP JUMPDEST PUSH1 0x5A DUP2 MSTORE PUSH1 0x28 PUSH1 0x20 DUP3 ADD MSTORE PUSH1 0x32 PUSH1 0x40 DUP3 ADD MSTORE PUSH1 0x0 PUSH1 0x60 DUP3 ADD MSTORE PUSH1 0x0 PUSH1 0x80 DUP3 ADD MSTORE PUSH1 0x1E PUSH1 0xA0 DUP3 ADD MSTORE PUSH3 0x82F PUSH1 0x40 MLOAD PUSH3 0x802 DUP2 PUSH3 0x690A JUMP JUMPDEST PUSH1 0x5A DUP2 MSTORE PUSH1 0x28 PUSH1 0x20 DUP3 ADD MSTORE PUSH1 0x32 PUSH1 0x40 DUP3 ADD MSTORE PUSH1 0x0 PUSH1 0x60 DUP3 ADD MSTORE PUSH1 0x0 PUSH1 0x80 DUP3 ADD MSTORE PUSH1 0x1E PUSH1 0xA0 DUP3 ADD MSTORE PUSH3 0x69B0 JUMP JUMPDEST PUSH1 0x40 MLOAD PUSH3 0x83D DUP2 PUSH3 0x690A JUMP JUMPDEST PUSH1 0x0 DUP2 MSTORE PUSH1 0x0 PUSH1 0x20 DUP3 ADD MSTORE PUSH1 0x64 PUSH1 0x40 DUP3 ADD MSTORE PUSH1 0x0 PUSH1 0x60 DUP3 ADD MSTORE PUSH1 0x0 PUSH1 0x80 DUP3 ADD MSTORE PUSH1 0x0 PUSH1 0xA0 DUP3 ADD MSTORE PUSH1 0x40 MLOAD SWAP2 PUSH3 0x8A2 PUSH1 0xB DUP5 PUSH3 0x87F PUSH1 0x20 DUP3 ADD PUSH1 0x80 PUSH3 0x6983 JUMP JUMPDEST PUSH11 0x7175617272792E7765627 PUSH1 0xAC SHL DUP2 MSTORE PUSH1 0x14 NOT DUP3 DUP3 SUB ADD DUP3 MSTORE SUB ADD DUP5 PUSH3 0x695F JUMP JUMPDEST PUSH1 0x40 MLOAD SWAP4 PUSH3 0x8B1 DUP6 PUSH3 0x6926 JUMP JUMPDEST PUSH1 0x40 MLOAD PUSH3 0x8BF DUP2 PUSH3 0x6943 JUMP JUMPDEST PUSH1 0x6 DUP2 MSTORE PUSH6 0x517561727279 PUSH1 0xD0 SHL PUSH1 0x20 DUP3 ADD MSTORE DUP6 MSTORE PUSH1 0x1 PUSH1 0x20 DUP7 ADD MSTORE PUSH1 0x40 DUP6 ADD MSTORE PUSH1 0x60 DUP5 ADD MSTORE PUSH1 0x3 PUSH1 0x80 DUP5 ADD MSTORE PUSH1 0x0 PUSH1 0xA0 DUP5 ADD MSTORE PUSH1 0x0 PUSH1 0xC0 DUP5 ADD MSTORE PUSH1 0x0 PUSH1 0xE0 DUP5 ADD MSTORE PUSH1 0x0 PUSH2 0x100 DUP5 ADD MSTORE PUSH2 0x120 DUP4 ADD MSTORE PUSH2 0xE10 PUSH2 0x140 DUP4 ADD MSTORE PUSH1 0x1 PUSH2 0x160 DUP4 ADD MSTORE PUSH2 0x180 DUP3 ADD MSTORE PUSH1 0x26 PUSH1 0x40 MLOAD PUSH6 0x517561727279 PUSH1 0xD0 SHL DUP2 MSTORE PUSH1 0x2 PUSH1 0x6 DUP3 ADD MSTORE KECCAK256 PUSH1 0x1 PUSH1 0x0 MSTORE PUSH1 0x20 MSTORE PUSH1 0x40 PUSH1 0x0 KECCAK256 SWAP1 DUP1 MLOAD DUP1 MLOAD SWAP1 PUSH1 0x1 DUP1 PUSH1 0x40 SHL SUB DUP3 GT PUSH3 0x4869 JUMPI DUP4 SLOAD PUSH1 0x1 DUP2 DUP2 SHR SWAP2 AND DUP1 ISZERO PUSH3 0x65A4 JUMPI JUMPDEST PUSH1 0x20 DUP3 LT EQ PUSH3 0x4848 JUMPI PUSH1 0x1F DUP2 GT PUSH3 0x655B JUMPI JUMPDEST POP PUSH1 0x20 SWAP1 PUSH1 0x1F DUP4 GT PUSH1 0x1 EQ PUSH3 0x64E8 JUMPI PUSH2 0x180 SWAP4 SWAP3 SWAP2 PUSH1 0x0 SWAP2 DUP4 PUSH3 0x64DC JUMPI JUMPDEST POP POP DUP2 PUSH1 0x1 SHL SWAP2 PUSH1 0x0 NOT SWAP1 PUSH1 0x3 SHL SHR NOT AND OR DUP4 SSTORE JUMPDEST PUSH1 0x20 DUP2 DUP2 ADD MLOAD PUSH1 0x1 DUP6 ADD SSTORE PUSH1 0x40 DUP1 DUP4 ADD MLOAD DUP1 MLOAD PUSH1 0x2 DUP8 ADD SSTORE SWAP2 DUP3 ADD MLOAD PUSH1 0x3 DUP7 ADD SSTORE DUP2 ADD MLOAD PUSH1 0x4 DUP6 ADD SSTORE PUSH1 0x60 DUP2 ADD MLOAD PUSH1 0x5 DUP6 ADD SSTORE PUSH1 0x80 DUP2 ADD MLOAD PUSH1 0x6 DUP6 ADD SSTORE PUSH1 0xA0 ADD MLOAD PUSH1 0x7 DUP5 ADD SSTORE PUSH1 0x60 DUP2 DUP2 ADD MLOAD DUP1 MLOAD PUSH1 0x8 DUP7 ADD SSTORE PUSH1 0x20 DUP2 ADD MLOAD PUSH1 0x9 DUP7 ADD SSTORE PUSH1 0x40 DUP2 ADD MLOAD PUSH1 0xA DUP7 ADD SSTORE SWAP1 DUP2 ADD MLOAD PUSH1 0xB DUP6 ADD SSTORE PUSH1 0x80 DUP2 ADD MLOAD PUSH1 0xC DUP6 ADD SSTORE PUSH1 0xA0 ADD MLOAD PUSH1 0xD DUP5 ADD SSTORE PUSH1 0x80 DUP2 DUP2 ADD MLOAD PUSH1 0xE DUP6 ADD SSTORE PUSH1 0xA0 DUP1 DUP4 ADD MLOAD PUSH1 0xF DUP7 ADD SSTORE PUSH1 0xC0 DUP4 ADD MLOAD PUSH1 0x10 DUP7 ADD SSTORE PUSH1 0xE0 DUP4 ADD MLOAD PUSH1 0x11 DUP7 ADD SSTORE PUSH2 0x100 DUP4 ADD MLOAD PUSH1 0x12 DUP7 ADD SSTORE PUSH2 0x120 DUP4 ADD MLOAD DUP1 MLOAD PUSH1 0x13 DUP8 ADD SSTORE PUSH1 0x20 DUP2 ADD MLOAD PUSH1 0x14 DUP8 ADD SSTORE PUSH1 0x40 DUP2 ADD MLOAD PUSH1 0x15 DUP8 ADD SSTORE PUSH1 0x60 DUP2 ADD MLOAD PUSH1 0x16 DUP8 ADD SSTORE SWAP2 DUP3 ADD MLOAD PUSH1 0x17 DUP7 ADD SSTORE ADD MLOAD PUSH1 0x18 DUP5 ADD SSTORE PUSH2 0x140 DUP2 ADD MLOAD PUSH1 0x19 DUP5 ADD SSTORE PUSH1 0x1A DUP4 ADD PUSH2 0x160 DUP3 ADD MLOAD ISZERO ISZERO PUSH1 0xFF DUP1 NOT DUP4 SLOAD AND SWAP2 AND OR SWAP1 SSTORE ADD MLOAD DUP1 MLOAD SWAP1 PUSH1 0x1 DUP1 PUSH1 0x40 SHL SUB DUP3 GT PUSH3 0x4869 JUMPI PUSH1 0x1B DUP4 ADD SLOAD PUSH1 0x1 DUP2 DUP2 SHR SWAP2 AND DUP1 ISZERO PUSH3 0x64D1 JUMPI JUMPDEST PUSH1 0x20 DUP3 LT EQ PUSH3 0x4848 JUMPI PUSH1 0x1F DUP2 GT PUSH3 0x6485 JUMPI JUMPDEST POP PUSH1 0x20 SWAP1 PUSH1 0x1F DUP4 GT PUSH1 0x1 EQ PUSH3 0x6410 JUMPI PUSH1 0x1B SWAP3 SWAP2 PUSH1 0x0 SWAP2 DUP4 PUSH3 0x6404 JUMPI JUMPDEST POP POP DUP2 PUSH1 0x1 SHL SWAP2 PUSH1 0x0 NOT SWAP1 PUSH1 0x3 SHL SHR NOT AND OR SWAP2 ADD SSTORE JUMPDEST PUSH1 0x40 MLOAD PUSH3 0xB4D DUP2 PUSH3 0x690A JUMP JUMPDEST PUSH1 0x64 DUP2 MSTORE PUSH1 0x32 PUSH1 0x20 DUP3 ADD MSTORE PUSH1 0x3C PUSH1 0x40 DUP3 ADD MSTORE PUSH1 0x0 PUSH1 0x60 DUP3 ADD MSTORE PUSH1 0x0 PUSH1 0x80 DUP3 ADD MSTORE PUSH1 0x23 PUSH1 0xA0 DUP3 ADD MSTORE PUSH3 0xBB3 PUSH1 0x40 MLOAD PUSH3 0xB86 DUP2 PUSH3 0x690A JUMP JUMPDEST PUSH1 0x64 DUP2 MSTORE PUSH1 0x32 PUSH1 0x20 DUP3 ADD MSTORE PUSH1 0x3C PUSH1 0x40 DUP3 ADD MSTORE PUSH1 0x0 PUSH1 0x60 DUP3 ADD MSTORE PUSH1 0x0 PUSH1 0x80 DUP3 ADD MSTORE PUSH1 0x23 PUSH1 0xA0 DUP3 ADD MSTORE PUSH3 0x69B0 JUMP JUMPDEST PUSH1 0x40 MLOAD PUSH3 0xBC1 DUP2 PUSH3 0x690A JUMP JUMPDEST PUSH1 0x0 DUP2 MSTORE PUSH1 0x0 PUSH1 0x20 DUP3 ADD MSTORE PUSH1 0x0 PUSH1 0x40 DUP3 ADD MSTORE PUSH1 0x0 PUSH1 0x60 DUP3 ADD MSTORE PUSH1 0x64 PUSH1 0x80 DUP3 ADD MSTORE PUSH1 0x0 PUSH1 0xA0 DUP3 ADD MSTORE PUSH1 0x40 MLOAD SWAP2 PUSH3 0xC29 PUSH1 0xE DUP5 PUSH3 0xC03 PUSH1 0x20 DUP3 ADD PUSH1 0x80 PUSH3 0x6983 JUMP JUMPDEST PUSH14 0x69726F6E5F6D696E652E7765627 PUSH1 0x94 SHL DUP2 MSTORE PUSH1 0x11 NOT DUP3 DUP3 SUB ADD DUP3 MSTORE SUB ADD DUP5 PUSH3 0x695F JUMP JUMPDEST PUSH1 0x40 MLOAD SWAP4 PUSH3 0xC38 DUP6 PUSH3 0x6926 JUMP JUMPDEST PUSH1 0x40 MLOAD PUSH3 0xC46 DUP2 PUSH3 0x6943 JUMP JUMPDEST PUSH1 0x9 DUP2 MSTORE PUSH9 0x49726F6E204D696E65 PUSH1 0xB8 SHL PUSH1 0x20 DUP3 ADD MSTORE DUP6 MSTORE PUSH1 0x1 PUSH1 0x20 DUP7 ADD MSTORE PUSH1 0x40 DUP6 ADD MSTORE PUSH1 0x60 DUP5 ADD MSTORE PUSH1 0x3 PUSH1 0x80 DUP5 ADD MSTORE PUSH1 0x0 PUSH1 0xA0 DUP5 ADD MSTORE PUSH1 0x0 PUSH1 0xC0 DUP5 ADD MSTORE PUSH1 0x0 PUSH1 0xE0 DUP5 ADD MSTORE PUSH1 0x2 PUSH2 0x100 DUP5 ADD MSTORE PUSH2 0x120 DUP4 ADD MSTORE PUSH2 0xE10 PUSH2 0x140 DUP4 ADD MSTORE PUSH1 0x1 PUSH2 0x160 DUP4 ADD MSTORE PUSH2 0x180 DUP3 ADD MSTORE PUSH1 0x29 PUSH1 0x40 MLOAD PUSH9 0x49726F6E204D696E65 PUSH1 0xB8 SHL DUP2 MSTORE PUSH1 0x2 PUSH1 0x9 DUP3 ADD MSTORE KECCAK256 PUSH1 0x1 PUSH1 0x0 MSTORE PUSH1 0x20 MSTORE PUSH1 0x40 PUSH1 0x0 KECCAK256 SWAP1 DUP1 MLOAD DUP1 MLOAD SWAP1 PUSH1 0x1 DUP1 PUSH1 0x40 SHL SUB DUP3 GT PUSH3 0x4869 JUMPI DUP4 SLOAD PUSH1 0x1 DUP2 DUP2 SHR SWAP2 AND DUP1 ISZERO PUSH3 0x63F9 JUMPI JUMPDEST PUSH1 0x20 DUP3 LT EQ PUSH3 0x4848 JUMPI PUSH1 0x1F DUP2 GT PUSH3 0x63B0 JUMPI JUMPDEST POP PUSH1 0x20 SWAP1 PUSH1 0x1F DUP4 GT PUSH1 0x1 EQ PUSH3 0x633D JUMPI PUSH2 0x180 SWAP4 SWAP3 SWAP2 PUSH1 0x0 SWAP2 DUP4 PUSH3 0x6331 JUMPI JUMPDEST POP POP DUP2 PUSH1 0x1 SHL SWAP2 PUSH1 0x0 NOT SWAP1 PUSH1 0x3 SHL SHR NOT AND OR DUP4 SSTORE JUMPDEST PUSH1 0x20 DUP2 DUP2 ADD MLOAD PUSH1 0x1 DUP6 ADD SSTORE PUSH1 0x40 DUP1 DUP4 ADD MLOAD DUP1 MLOAD PUSH1 0x2 DUP8 ADD SSTORE SWAP2 DUP3 ADD MLOAD PUSH1 0x3 DUP7 ADD SSTORE DUP2 ADD MLOAD PUSH1 0x4 DUP6 ADD SSTORE PUSH1 0x60 DUP2 ADD MLOAD PUSH1 0x5 DUP6 ADD SSTORE PUSH1 0x80 DUP2 ADD MLOAD PUSH1 0x6 DUP6 ADD SSTORE PUSH1 0xA0 ADD MLOAD PUSH1 0x7 DUP5 ADD SSTORE PUSH1 0x60 DUP2 DUP2 ADD MLOAD DUP1 MLOAD PUSH1 0x8 DUP7 ADD SSTORE PUSH1 0x20 DUP2 ADD MLOAD PUSH1 0x9 DUP7 ADD SSTORE PUSH1 0x40 DUP2 ADD MLOAD PUSH1 0xA DUP7 ADD SSTORE SWAP1 DUP2 ADD MLOAD PUSH1 0xB DUP6 ADD SSTORE PUSH1 0x80 DUP2 ADD MLOAD PUSH1 0xC DUP6 ADD SSTORE PUSH1 0xA0 ADD MLOAD PUSH1 0xD DUP5 ADD SSTORE PUSH1 0x80 DUP2 DUP2 ADD MLOAD PUSH1 0xE DUP6 ADD SSTORE PUSH1 0xA0 DUP1 DUP4 ADD MLOAD PUSH1 0xF DUP7 ADD SSTORE PUSH1 0xC0 DUP4 ADD MLOAD PUSH1 0x10 DUP7 ADD SSTORE PUSH1 0xE0 DUP4 ADD MLOAD PUSH1 0x11 DUP7 ADD SSTORE PUSH2 0x100 DUP4 ADD MLOAD PUSH1 0x12 DUP7 ADD SSTORE PUSH2 0x120 DUP4 ADD MLOAD DUP1 MLOAD PUSH1 0x13 DUP8 ADD SSTORE PUSH1 0x20 DUP2 ADD MLOAD PUSH1 0x14 DUP8 ADD SSTORE PUSH1 0x40 DUP2 ADD MLOAD PUSH1 0x15 DUP8 ADD SSTORE PUSH1 0x60 DUP2 ADD MLOAD PUSH1 0x16 DUP8 ADD SSTORE SWAP2 DUP3 ADD MLOAD PUSH1 0x17 DUP7 ADD SSTORE ADD MLOAD PUSH1 0x18 DUP5 ADD SSTORE PUSH2 0x140 DUP2 ADD MLOAD PUSH1 0x19 DUP5 ADD SSTORE PUSH1 0x1A DUP4 ADD PUSH2 0x160 DUP3 ADD MLOAD ISZERO ISZERO PUSH1 0xFF DUP1 NOT DUP4 SLOAD AND SWAP2 AND OR SWAP1 SSTORE ADD MLOAD DUP1 MLOAD SWAP1 PUSH1 0x1 DUP1 PUSH1 0x40 SHL SUB DUP3 GT PUSH3 0x4869 JUMPI PUSH1 0x1B DUP4 ADD SLOAD PUSH1 0x1 DUP2 DUP2 SHR SWAP2 AND DUP1 ISZERO PUSH3 0x6326 JUMPI JUMPDEST PUSH1 0x20 DUP3 LT EQ PUSH3 0x4848 JUMPI PUSH1 0x1F DUP2 GT PUSH3 0x62DA JUMPI JUMPDEST POP PUSH1 0x20 SWAP1 PUSH1 0x1F DUP4 GT PUSH1 0x1 EQ PUSH3 0x6265 JUMPI PUSH1 0x1B SWAP3 SWAP2 PUSH1 0x0 SWAP2 DUP4 PUSH3 0x6259 JUMPI JUMPDEST POP POP DUP2 PUSH1 0x1 SHL SWAP2 PUSH1 0x0 NOT SWAP1 PUSH1 0x3 SHL SHR NOT AND OR SWAP2 ADD SSTORE JUMPDEST PUSH1 0x40 MLOAD PUSH3 0xEDA DUP2 PUSH3 0x690A JUMP JUMPDEST PUSH1 0x6E DUP2 MSTORE PUSH1 0x3C PUSH1 0x20 DUP3 ADD MSTORE PUSH1 0x28 PUSH1 0x40 DUP3 ADD MSTORE PUSH1 0x0 PUSH1 0x60 DUP3 ADD MSTORE PUSH1 0x0 PUSH1 0x80 DUP3 ADD MSTORE PUSH1 0x28 PUSH1 0xA0 DUP3 ADD MSTORE PUSH3 0xF40 PUSH1 0x40 MLOAD PUSH3 0xF13 DUP2 PUSH3 0x690A JUMP JUMPDEST PUSH1 0x6E DUP2 MSTORE PUSH1 0x3C PUSH1 0x20 DUP3 ADD MSTORE PUSH1 0x28 PUSH1 0x40 DUP3 ADD MSTORE PUSH1 0x0 PUSH1 0x60 DUP3 ADD MSTORE PUSH1 0x0 PUSH1 0x80 DUP3 ADD MSTORE PUSH1 0x28 PUSH1 0xA0 DUP3 ADD MSTORE PUSH3 0x69B0 JUMP JUMPDEST PUSH1 0x40 MLOAD PUSH3 0xF4E DUP2 PUSH3 0x690A JUMP JUMPDEST PUSH1 0x0 DUP2 MSTORE PUSH1 0x0 PUSH1 0x20 DUP3 ADD MSTORE PUSH1 0x0 PUSH1 0x40 DUP3 ADD MSTORE PUSH1 0x64 PUSH1 0x60 DUP3 ADD MSTORE PUSH1 0x0 PUSH1 0x80 DUP3 ADD MSTORE PUSH1 0x0 PUSH1 0xA0 DUP3 ADD MSTORE PUSH1 0x40 MLOAD SWAP2 PUSH3 0xFB5 PUSH1 0xD DUP5 PUSH3 0xF90 PUSH1 0x20 DUP3 ADD PUSH1 0x80 PUSH3 0x6983 JUMP JUMPDEST PUSH13 0x776F726B73686F702E7765627 PUSH1 0x9C SHL DUP2 MSTORE PUSH1 0x12 NOT DUP3 DUP3 SUB ADD DUP3 MSTORE SUB ADD DUP5 PUSH3 0x695F JUMP JUMPDEST PUSH1 0x40 MLOAD SWAP4 PUSH3 0xFC4 DUP6 PUSH3 0x6926 JUMP JUMPDEST PUSH1 0x40 MLOAD PUSH3 0xFD2 DUP2 PUSH3 0x6943 JUMP JUMPDEST PUSH1 0x8 DUP2 MSTORE PUSH8 0x576F726B73686F7 PUSH1 0xC4 SHL PUSH1 0x20 DUP3 ADD MSTORE DUP6 MSTORE PUSH1 0x1 PUSH1 0x20 DUP7 ADD MSTORE PUSH1 0x40 DUP6 ADD MSTORE PUSH1 0x60 DUP5 ADD MSTORE PUSH1 0x5 PUSH1 0x80 DUP5 ADD MSTORE PUSH1 0x0 PUSH1 0xA0 DUP5 ADD MSTORE PUSH1 0x3 PUSH1 0xC0 DUP5 ADD MSTORE PUSH1 0x0 PUSH1 0xE0 DUP5 ADD MSTORE PUSH1 0x0 PUSH2 0x100 DUP5 ADD MSTORE PUSH2 0x120 DUP4 ADD MSTORE PUSH2 0xE10 PUSH2 0x140 DUP4 ADD MSTORE PUSH1 0x1 PUSH2 0x160 DUP4 ADD MSTORE PUSH2 0x180 DUP3 ADD MSTORE PUSH1 0x28 PUSH1 0x40 MLOAD PUSH8 0x576F726B73686F7 PUSH1 0xC4 SHL DUP2 MSTORE PUSH1 0x2 PUSH1 0x8 DUP3 ADD MSTORE KECCAK256 PUSH1 0x1 PUSH1 0x0 MSTORE PUSH1 0x20 MSTORE PUSH1 0x40 PUSH1 0x0 KECCAK256 SWAP1 DUP1 MLOAD DUP1 MLOAD SWAP1 PUSH1 0x1 DUP1 PUSH1 0x40 SHL SUB DUP3 GT PUSH3 0x4869 JUMPI DUP4 SLOAD PUSH1 0x1 DUP2 DUP2 SHR SWAP2 AND DUP1 ISZERO PUSH3 0x624E JUMPI JUMPDEST PUSH1 0x20 DUP3 LT EQ PUSH3 0x4848 JUMPI PUSH1 0x1F DUP2 GT PUSH3 0x6205 JUMPI JUMPDEST POP PUSH1 0x20 SWAP1 PUSH1 0x1F DUP4 GT PUSH1 0x1 EQ PUSH3 0x6192 JUMPI PUSH2 0x180 SWAP4 SWAP3 SWAP2 PUSH1 0x0 SWAP2 DUP4 PUSH3 0x6186 JUMPI JUMPDEST POP POP DUP2 PUSH1 0x1 SHL SWAP2 PUSH1 0x0 NOT SWAP1 PUSH1 0x3 SHL SHR NOT AND OR DUP4 SSTORE JUMPDEST PUSH1 0x20 DUP2 DUP2 ADD MLOAD PUSH1 0x1 DUP6 ADD SSTORE PUSH1 0x40 DUP1 DUP4 ADD MLOAD DUP1 MLOAD PUSH1 0x2 DUP8 ADD SSTORE SWAP2 DUP3 ADD MLOAD PUSH1 0x3 DUP7 ADD SSTORE DUP2 ADD MLOAD PUSH1 0x4 DUP6 ADD SSTORE PUSH1 0x60 DUP2 ADD MLOAD PUSH1 0x5 DUP6 ADD SSTORE PUSH1 0x80 DUP2 ADD MLOAD PUSH1 0x6 DUP6 ADD SSTORE PUSH1 0xA0 ADD MLOAD PUSH1 0x7 DUP5 ADD SSTORE PUSH1 0x60 DUP2 DUP2 ADD MLOAD DUP1 MLOAD PUSH1 0x8 DUP7 ADD SSTORE PUSH1 0x20 DUP2 ADD MLOAD PUSH1 0x9 DUP7 ADD SSTORE PUSH1 0x40 DUP2 ADD MLOAD PUSH1 0xA DUP7 ADD SSTORE SWAP1 DUP2 ADD MLOAD PUSH1 0xB DUP6 ADD SSTORE PUSH1 0x80 DUP2 ADD MLOAD PUSH1 0xC DUP6 ADD SSTORE PUSH1 0xA0 ADD MLOAD PUSH1 0xD DUP5 ADD SSTORE PUSH1 0x80 DUP2 DUP2 ADD MLOAD PUSH1 0xE DUP6 ADD SSTORE PUSH1 0xA0 DUP1 DUP4 ADD MLOAD PUSH1 0xF DUP7 ADD SSTORE PUSH1 0xC0 DUP4 ADD MLOAD PUSH1 0x10 DUP7 ADD SSTORE PUSH1 0xE0 DUP4 ADD MLOAD PUSH1 0x11 DUP7 ADD SSTORE PUSH2 0x100 DUP4 ADD MLOAD PUSH1 0x12 DUP7 ADD SSTORE PUSH2 0x120 DUP4 ADD MLOAD DUP1 MLOAD PUSH1 0x13 DUP8 ADD SSTORE PUSH1 0x20 DUP2 ADD MLOAD PUSH1 0x14 DUP8 ADD SSTORE PUSH1 0x40 DUP2 ADD MLOAD PUSH1 0x15 DUP8 ADD SSTORE PUSH1 0x60 DUP2 ADD MLOAD PUSH1 0x16 DUP8 ADD SSTORE SWAP2 DUP3 ADD MLOAD PUSH1 0x17 DUP7 ADD SSTORE ADD MLOAD PUSH1 0x18 DUP5 ADD SSTORE PUSH2 0x140 DUP2 ADD MLOAD PUSH1 0x19 DUP5 ADD SSTORE PUSH1 0x1A DUP4 ADD PUSH2 0x160 DUP3 ADD MLOAD ISZERO ISZERO PUSH1 0xFF DUP1 NOT DUP4 SLOAD AND SWAP2 AND OR SWAP1 SSTORE ADD MLOAD DUP1 MLOAD SWAP1 PUSH1 0x1 DUP1 PUSH1 0x40 SHL SUB DUP3 GT PUSH3 0x4869 JUMPI PUSH1 0x1B DUP4 ADD SLOAD PUSH1 0x1 DUP2 DUP2 SHR SWAP2 AND DUP1 ISZERO PUSH3 0x617B JUMPI JUMPDEST PUSH1 0x20 DUP3 LT EQ PUSH3 0x4848 JUMPI PUSH1 0x1F DUP2 GT PUSH3 0x612F JUMPI JUMPDEST POP PUSH1 0x20 SWAP1 PUSH1 0x1F DUP4 GT PUSH1 0x1 EQ PUSH3 0x60BA JUMPI PUSH1 0x1B SWAP3 SWAP2 PUSH1 0x0 SWAP2 DUP4 PUSH3 0x60AE JUMPI JUMPDEST POP POP DUP2 PUSH1 0x1 SHL SWAP2 PUSH1 0x0 NOT SWAP1 PUSH1 0x3 SHL SHR NOT AND OR SWAP2 ADD SSTORE JUMPDEST PUSH1 0x40 MLOAD PUSH3 0x1264 DUP2 PUSH3 0x690A JUMP JUMPDEST PUSH1 0x78 DUP2 MSTORE PUSH1 0x32 PUSH1 0x20 DUP3 ADD MSTORE PUSH1 0x32 PUSH1 0x40 DUP3 ADD MSTORE PUSH1 0x0 PUSH1 0x60 DUP3 ADD MSTORE PUSH1 0x0 PUSH1 0x80 DUP3 ADD MSTORE PUSH1 0x32 PUSH1 0xA0 DUP3 ADD MSTORE PUSH3 0x12CA PUSH1 0x40 MLOAD PUSH3 0x129D DUP2 PUSH3 0x690A JUMP JUMPDEST PUSH1 0x78 DUP2 MSTORE PUSH1 0x32 PUSH1 0x20 DUP3 ADD MSTORE PUSH1 0x32 PUSH1 0x40 DUP3 ADD MSTORE PUSH1 0x0 PUSH1 0x60 DUP3 ADD MSTORE PUSH1 0x0 PUSH1 0x80 DUP3 ADD MSTORE PUSH1 0x32 PUSH1 0xA0 DUP3 ADD MSTORE PUSH3 0x69B0 JUMP JUMPDEST PUSH1 0x40 MLOAD PUSH3 0x12D8 DUP2 PUSH3 0x690A JUMP JUMPDEST PUSH1 0x0 DUP2 MSTORE PUSH1 0x0 PUSH1 0x20 DUP3 ADD MSTORE PUSH1 0x0 PUSH1 0x40 DUP3 ADD MSTORE PUSH1 0x0 PUSH1 0x60 DUP3 ADD MSTORE PUSH1 0x0 PUSH1 0x80 DUP3 ADD MSTORE PUSH1 0x64 PUSH1 0xA0 DUP3 ADD MSTORE PUSH1 0x40 MLOAD SWAP2 PUSH3 0x1342 PUSH1 0x10 DUP5 PUSH3 0x131A PUSH1 0x20 DUP3 ADD PUSH1 0x80 PUSH3 0x6983 JUMP JUMPDEST PUSH16 0x6D61726B6574706C6163652E7765627 PUSH1 0x84 SHL DUP2 MSTORE PUSH1 0xF NOT DUP3 DUP3 SUB ADD DUP3 MSTORE SUB ADD DUP5 PUSH3 0x695F JUMP JUMPDEST PUSH1 0x40 MLOAD SWAP4 PUSH3 0x1351 DUP6 PUSH3 0x6926 JUMP JUMPDEST PUSH1 0x40 MLOAD PUSH3 0x135F DUP2 PUSH3 0x6943 JUMP JUMPDEST PUSH1 0xB DUP2 MSTORE PUSH11 0x4D61726B6574706C616365 PUSH1 0xA8 SHL PUSH1 0x20 DUP3 ADD MSTORE DUP6 MSTORE PUSH1 0x1 PUSH1 0x20 DUP7 ADD MSTORE PUSH1 0x40 DUP6 ADD MSTORE PUSH1 0x60 DUP5 ADD MSTORE PUSH1 0x0 PUSH1 0x80 DUP5 ADD MSTORE PUSH1 0x3 PUSH1 0xA0 DUP5 ADD MSTORE PUSH1 0x0 PUSH1 0xC0 DUP5 ADD MSTORE PUSH1 0x2 PUSH1 0xE0 DUP5 ADD MSTORE PUSH1 0x0 PUSH2 0x100 DUP5 ADD MSTORE PUSH2 0x120 DUP4 ADD MSTORE PUSH2 0xE10 PUSH2 0x140 DUP4 ADD MSTORE PUSH1 0x1 PUSH2 0x160 DUP4 ADD MSTORE PUSH2 0x180 DUP3 ADD MSTORE PUSH1 0x2B PUSH1 0x40 MLOAD PUSH11 0x4D61726B6574706C616365 PUSH1 0xA8 SHL DUP2 MSTORE PUSH1 0x2 PUSH1 0xB DUP3 ADD MSTORE KECCAK256 PUSH1 0x1 PUSH1 0x0 MSTORE PUSH1 0x20 MSTORE PUSH1 0x40 PUSH1 0x0 KECCAK256 SWAP1 DUP1 MLOAD DUP1 MLOAD SWAP1 PUSH1 0x1 DUP1 PUSH1 0x40 SHL SUB DUP3 GT PUSH3 0x4869 JUMPI DUP4 SLOAD PUSH1 0x1 DUP2 DUP2 SHR SWAP2 AND DUP1 ISZERO PUSH3 0x60A3 JUMPI JUMPDEST PUSH1 0x20 DUP3 LT EQ PUSH3 0x4848 JUMPI PUSH1 0x1F DUP2 GT PUSH3 0x605A JUMPI JUMPDEST POP PUSH1 0x20 SWAP1 PUSH1 0x1F DUP4 GT PUSH1 0x1 EQ PUSH3 0x5FE7 JUMPI PUSH2 0x180 SWAP4 SWAP3 SWAP2 PUSH1 0x0 SWAP2 DUP4 PUSH3 0x5FDB JUMPI JUMPDEST POP POP DUP2 PUSH1 0x1 SHL SWAP2 PUSH1 0x0 NOT SWAP1 PUSH1 0x3 SHL SHR NOT AND OR DUP4 SSTORE JUMPDEST PUSH1 0x20 DUP2 DUP2 ADD MLOAD PUSH1 0x1 DUP6 ADD SSTORE PUSH1 0x40 DUP1 DUP4 ADD MLOAD DUP1 MLOAD PUSH1 0x2 DUP8 ADD SSTORE SWAP2 DUP3 ADD MLOAD PUSH1 0x3 DUP7 ADD SSTORE DUP2 ADD MLOAD PUSH1 0x4 DUP6 ADD SSTORE PUSH1 0x60 DUP2 ADD MLOAD PUSH1 0x5 DUP6 ADD SSTORE PUSH1 0x80 DUP2 ADD MLOAD PUSH1 0x6 DUP6 ADD SSTORE PUSH1 0xA0 ADD MLOAD PUSH1 0x7 DUP5 ADD SSTORE PUSH1 0x60 DUP2 DUP2 ADD MLOAD DUP1 MLOAD PUSH1 0x8 DUP7 ADD SSTORE PUSH1 0x20 DUP2 ADD MLOAD PUSH1 0x9 DUP7 ADD SSTORE PUSH1 0x40 DUP2 ADD MLOAD PUSH1 0xA DUP7 ADD SSTORE SWAP1 DUP2 ADD MLOAD PUSH1 0xB DUP6 ADD SSTORE PUSH1 0x80 DUP2 ADD MLOAD PUSH1 0xC DUP6 ADD SSTORE PUSH1 0xA0 ADD MLOAD PUSH1 0xD DUP5 ADD SSTORE PUSH1 0x80 DUP2 DUP2 ADD MLOAD PUSH1 0xE DUP6 ADD SSTORE PUSH1 0xA0 DUP1 DUP4 ADD MLOAD PUSH1 0xF DUP7 ADD SSTORE PUSH1 0xC0 DUP4 ADD MLOAD PUSH1 0x10 DUP7 ADD SSTORE PUSH1 0xE0 DUP4 ADD MLOAD PUSH1 0x11 DUP7 ADD SSTORE PUSH2 0x100 DUP4 ADD MLOAD PUSH1 0x12 DUP7 ADD SSTORE PUSH2 0x120 DUP4 ADD MLOAD DUP1 MLOAD PUSH1 0x13 DUP8 ADD SSTORE PUSH1 0x20 DUP2 ADD MLOAD PUSH1 0x14 DUP8 ADD SSTORE PUSH1 0x40 DUP2 ADD MLOAD PUSH1 0x15 DUP8 ADD SSTORE PUSH1 0x60 DUP2 ADD MLOAD PUSH1 0x16 DUP8 ADD SSTORE SWAP2 DUP3 ADD MLOAD PUSH1 0x17 DUP7 ADD SSTORE ADD MLOAD PUSH1 0x18 DUP5 ADD SSTORE PUSH2 0x140 DUP2 ADD MLOAD PUSH1 0x19 DUP5 ADD SSTORE PUSH1 0x1A DUP4 ADD PUSH2 0x160 DUP3 ADD MLOAD ISZERO ISZERO PUSH1 0xFF DUP1 NOT DUP4 SLOAD AND SWAP2 AND OR SWAP1 SSTORE ADD MLOAD DUP1 MLOAD SWAP1 PUSH1 0x1 DUP1 PUSH1 0x40 SHL SUB DUP3 GT PUSH3 0x4869 JUMPI PUSH1 0x1B DUP4 ADD SLOAD PUSH1 0x1 DUP2 DUP2 SHR SWAP2 AND DUP1 ISZERO PUSH3 0x5FD0 JUMPI JUMPDEST PUSH1 0x20 DUP3 LT EQ PUSH3 0x4848 JUMPI PUSH1 0x1F DUP2 GT PUSH3 0x5F84 JUMPI JUMPDEST POP PUSH1 0x20 SWAP1 PUSH1 0x1F DUP4 GT PUSH1 0x1 EQ PUSH3 0x5F0F JUMPI PUSH1 0x1B SWAP3 SWAP2 PUSH1 0x0 SWAP2 DUP4 PUSH3 0x5F03 JUMPI JUMPDEST POP POP DUP2 PUSH1 0x1 SHL SWAP2 PUSH1 0x0 NOT SWAP1 PUSH1 0x3 SHL SHR NOT AND OR SWAP2 ADD SSTORE JUMPDEST PUSH1 0x40 MLOAD PUSH3 0x15F7 DUP2 PUSH3 0x690A JUMP JUMPDEST PUSH1 0x82 DUP2 MSTORE PUSH1 0x46 PUSH1 0x20 DUP3 ADD MSTORE PUSH1 0x3C PUSH1 0x40 DUP3 ADD MSTORE PUSH1 0x0 PUSH1 0x60 DUP3 ADD MSTORE PUSH1 0x0 PUSH1 0x80 DUP3 ADD MSTORE PUSH1 0x3C PUSH1 0xA0 DUP3 ADD MSTORE PUSH3 0x165D PUSH1 0x40 MLOAD PUSH3 0x1630 DUP2 PUSH3 0x690A JUMP JUMPDEST PUSH1 0x82 DUP2 MSTORE PUSH1 0x46 PUSH1 0x20 DUP3 ADD MSTORE PUSH1 0x3C PUSH1 0x40 DUP3 ADD MSTORE PUSH1 0x0 PUSH1 0x60 DUP3 ADD MSTORE PUSH1 0x0 PUSH1 0x80 DUP3 ADD MSTORE PUSH1 0x3C PUSH1 0xA0 DUP3 ADD MSTORE PUSH3 0x69B0 JUMP JUMPDEST PUSH1 0x40 MLOAD PUSH3 0x166B DUP2 PUSH3 0x690A JUMP JUMPDEST PUSH1 0x0 DUP2 MSTORE PUSH1 0x0 PUSH1 0x20 DUP3 ADD MSTORE PUSH1 0x0 PUSH1 0x40 DUP3 ADD MSTORE PUSH1 0x0 PUSH1 0x60 DUP3 ADD MSTORE PUSH1 0x0 PUSH1 0x80 DUP3 ADD MSTORE PUSH1 0x0 PUSH1 0xA0 DUP3 ADD MSTORE PUSH1 0x40 MLOAD SWAP2 PUSH3 0x16D0 PUSH1 0xD DUP5 PUSH3 0x16AD PUSH1 0x20 DUP3 ADD PUSH1 0x80 PUSH3 0x6983 JUMP JUMPDEST PUSH13 0x6261727261636B732E7765627 PUSH1 0x9C SHL DUP2 MSTORE SUB PUSH1 0x12 NOT DUP2 ADD DUP7 MSTORE ADD DUP5 PUSH3 0x695F JUMP JUMPDEST PUSH1 0x40 MLOAD SWAP4 PUSH3 0x16DF DUP6 PUSH3 0x6926 JUMP JUMPDEST PUSH1 0x40 MLOAD PUSH3 0x16ED DUP2 PUSH3 0x6943 JUMP JUMPDEST PUSH1 0x8 DUP2 MSTORE PUSH8 0x4261727261636B73 PUSH1 0xC0 SHL PUSH1 0x20 DUP3 ADD MSTORE DUP6 MSTORE PUSH1 0x1 PUSH1 0x20 DUP7 ADD MSTORE PUSH1 0x40 DUP6 ADD MSTORE PUSH1 0x60 DUP5 ADD MSTORE PUSH1 0x0 PUSH1 0x80 DUP5 ADD MSTORE PUSH1 0x0 PUSH1 0xA0 DUP5 ADD MSTORE PUSH1 0x0 PUSH1 0xC0 DUP5 ADD MSTORE PUSH1 0x0 PUSH1 0xE0 DUP5 ADD MSTORE PUSH1 0x5 PUSH2 0x100 DUP5 ADD MSTORE PUSH2 0x120 DUP4 ADD MSTORE PUSH2 0xE10 PUSH2 0x140 DUP4 ADD MSTORE PUSH1 0x1 PUSH2 0x160 DUP4 ADD MSTORE PUSH2 0x180 DUP3 ADD MSTORE PUSH1 0x28 PUSH1 0x40 MLOAD PUSH8 0x4261727261636B73 PUSH1 0xC0 SHL DUP2 MSTORE PUSH1 0x2 PUSH1 0x8 DUP3 ADD MSTORE KECCAK256 PUSH1 0x1 PUSH1 0x0 MSTORE PUSH1 0x20 MSTORE PUSH1 0x40 PUSH1 0x0 KECCAK256 SWAP1 DUP1 MLOAD DUP1 MLOAD SWAP1 PUSH1 0x1 DUP1 PUSH1 0x40 SHL SUB DUP3 GT PUSH3 0x4869 JUMPI DUP4 SLOAD PUSH1 0x1 DUP2 DUP2 SHR SWAP2 AND DUP1 ISZERO PUSH3 0x5EF8 JUMPI JUMPDEST PUSH1 0x20 DUP3 LT EQ PUSH3 0x4848 JUMPI PUSH1 0x1F DUP2 GT PUSH3 0x5EAF JUMPI JUMPDEST POP PUSH1 0x20 SWAP1 PUSH1 0x1F DUP4 GT PUSH1 0x1 EQ PUSH3 0x5E3C JUMPI PUSH2 0x180 SWAP4 SWAP3 SWAP2 PUSH1 0x0 SWAP2 DUP4 PUSH3 0x5E30 JUMPI JUMPDEST POP POP DUP2 PUSH1 0x1 SHL SWAP2 PUSH1 0x0 NOT SWAP1 PUSH1 0x3 SHL SHR NOT AND OR DUP4 SSTORE JUMPDEST PUSH1 0x20 DUP2 DUP2 ADD MLOAD PUSH1 0x1 DUP6 ADD SSTORE PUSH1 0x40 DUP1 DUP4 ADD MLOAD DUP1 MLOAD PUSH1 0x2 DUP8 ADD SSTORE SWAP2 DUP3 ADD MLOAD PUSH1 0x3 DUP7 ADD SSTORE DUP2 ADD MLOAD PUSH1 0x4 DUP6 ADD SSTORE PUSH1 0x60 DUP2 ADD MLOAD PUSH1 0x5 DUP6 ADD SSTORE PUSH1 0x80 DUP2 ADD MLOAD PUSH1 0x6 DUP6 ADD SSTORE PUSH1 0xA0 ADD MLOAD PUSH1 0x7 DUP5 ADD SSTORE PUSH1 0x60 DUP2 DUP2 ADD MLOAD DUP1 MLOAD PUSH1 0x8 DUP7 ADD SSTORE PUSH1 0x20 DUP2 ADD MLOAD PUSH1 0x9 DUP7 ADD SSTORE PUSH1 0x40 DUP2 ADD MLOAD PUSH1 0xA DUP7 ADD SSTORE SWAP1 DUP2 ADD MLOAD PUSH1 0xB DUP6 ADD SSTORE PUSH1 0x80 DUP2 ADD MLOAD PUSH1 0xC DUP6 ADD SSTORE PUSH1 0xA0 ADD MLOAD PUSH1 0xD DUP5 ADD SSTORE PUSH1 0x80 DUP2 DUP2 ADD MLOAD PUSH1 0xE DUP6 ADD SSTORE PUSH1 0xA0 DUP1 DUP4 ADD MLOAD PUSH1 0xF DUP7 ADD SSTORE PUSH1 0xC0 DUP4 ADD MLOAD PUSH1 0x10 DUP7 ADD SSTORE PUSH1 0xE0 DUP4 ADD MLOAD PUSH1 0x11 DUP7 ADD SSTORE PUSH2 0x100 DUP4 ADD MLOAD PUSH1 0x12 DUP7 ADD SSTORE PUSH2 0x120 DUP4 ADD MLOAD DUP1 MLOAD PUSH1 0x13 DUP8 ADD SSTORE PUSH1 0x20 DUP2 ADD MLOAD PUSH1 0x14 DUP8 ADD SSTORE PUSH1 0x40 DUP2 ADD MLOAD PUSH1 0x15 DUP8 ADD SSTORE PUSH1 0x60 DUP2 ADD MLOAD PUSH1 0x16 DUP8 ADD SSTORE SWAP2 DUP3 ADD MLOAD PUSH1 0x17 DUP7 ADD SSTORE ADD MLOAD PUSH1 0x18 DUP5 ADD SSTORE PUSH2 0x140 DUP2 ADD MLOAD PUSH1 0x19 DUP5 ADD SSTORE PUSH1 0x1A DUP4 ADD PUSH2 0x160 DUP3 ADD MLOAD ISZERO ISZERO PUSH1 0xFF DUP1 NOT DUP4 SLOAD AND SWAP2 AND OR SWAP1 SSTORE ADD MLOAD DUP1 MLOAD SWAP1 PUSH1 0x1 DUP1 PUSH1 0x40 SHL SUB DUP3 GT PUSH3 0x4869 JUMPI PUSH1 0x1B DUP4 ADD SLOAD PUSH1 0x1 DUP2 DUP2 SHR SWAP2 AND DUP1 ISZERO PUSH3 0x5E25 JUMPI JUMPDEST PUSH1 0x20 DUP3 LT EQ PUSH3 0x4848 JUMPI PUSH1 0x1F DUP2 GT PUSH3 0x5DD9 JUMPI JUMPDEST POP PUSH1 0x20 SWAP1 PUSH1 0x1F DUP4 GT PUSH1 0x1 EQ PUSH3 0x5D64 JUMPI PUSH1 0x1B SWAP3 SWAP2 PUSH1 0x0 SWAP2 DUP4 PUSH3 0x5D58 JUMPI JUMPDEST POP POP DUP2 PUSH1 0x1 SHL SWAP2 PUSH1 0x0 NOT SWAP1 PUSH1 0x3 SHL SHR NOT AND OR SWAP2 ADD SSTORE JUMPDEST PUSH1 0x40 MLOAD PUSH3 0x197F DUP2 PUSH3 0x690A JUMP JUMPDEST PUSH1 0x8C DUP2 MSTORE PUSH1 0x3C PUSH1 0x20 DUP3 ADD MSTORE PUSH1 0x46 PUSH1 0x40 DUP3 ADD MSTORE PUSH1 0x0 PUSH1 0x60 DUP3 ADD MSTORE PUSH1 0x0 PUSH1 0x80 DUP3 ADD MSTORE PUSH1 0x46 PUSH1 0xA0 DUP3 ADD MSTORE PUSH3 0x19E5 PUSH1 0x40 MLOAD PUSH3 0x19B8 DUP2 PUSH3 0x690A JUMP JUMPDEST PUSH1 0x8C DUP2 MSTORE PUSH1 0x3C PUSH1 0x20 DUP3 ADD MSTORE PUSH1 0x46 PUSH1 0x40 DUP3 ADD MSTORE PUSH1 0x0 PUSH1 0x60 DUP3 ADD MSTORE PUSH1 0x0 PUSH1 0x80 DUP3 ADD MSTORE PUSH1 0x46 PUSH1 0xA0 DUP3 ADD MSTORE PUSH3 0x69B0 JUMP JUMPDEST PUSH1 0x40 MLOAD PUSH3 0x19F3 DUP2 PUSH3 0x690A JUMP JUMPDEST PUSH1 0x0 DUP2 MSTORE PUSH1 0x0 PUSH1 0x20 DUP3 ADD MSTORE PUSH1 0x0 PUSH1 0x40 DUP3 ADD MSTORE PUSH1 0x0 PUSH1 0x60 DUP3 ADD MSTORE PUSH1 0x0 PUSH1 0x80 DUP3 ADD MSTORE PUSH1 0x0 PUSH1 0xA0 DUP3 ADD MSTORE PUSH1 0x40 MLOAD SWAP2 PUSH3 0x1A56 PUSH1 0xB DUP5 PUSH3 0x1A35 PUSH1 0x20 DUP3 ADD PUSH1 0x80 PUSH3 0x6983 JUMP JUMPDEST PUSH11 0x74656D706C652E7765627 PUSH1 0xAC SHL DUP2 MSTORE SUB PUSH1 0x14 NOT DUP2 ADD DUP7 MSTORE ADD DUP5 PUSH3 0x695F JUMP JUMPDEST PUSH1 0x40 MLOAD SWAP4 PUSH3 0x1A65 DUP6 PUSH3 0x6926 JUMP JUMPDEST PUSH1 0x40 MLOAD PUSH3 0x1A73 DUP2 PUSH3 0x6943 JUMP JUMPDEST PUSH1 0x6 DUP2 MSTORE PUSH6 0x54656D706C65 PUSH1 0xD0 SHL PUSH1 0x20 DUP3 ADD MSTORE DUP6 MSTORE PUSH1 0x1 PUSH1 0x20 DUP7 ADD MSTORE PUSH1 0x40 DUP6 ADD MSTORE PUSH1 0x60 DUP5 ADD MSTORE PUSH1 0x0 PUSH1 0x80 DUP5 ADD MSTORE PUSH1 0x5 PUSH1 0xA0 DUP5 ADD MSTORE PUSH1 0x0 PUSH1 0xC0 DUP5 ADD MSTORE PUSH1 0x7 PUSH1 0xE0 DUP5 ADD MSTORE PUSH1 0x0 PUSH2 0x100 DUP5 ADD MSTORE PUSH2 0x120 DUP4 ADD MSTORE PUSH2 0xE10 PUSH2 0x140 DUP4 ADD MSTORE PUSH1 0x1 PUSH2 0x160 DUP4 ADD MSTORE PUSH2 0x180 DUP3 ADD MSTORE PUSH1 0x26 PUSH1 0x40 MLOAD PUSH6 0x54656D706C65 PUSH1 0xD0 SHL DUP2 MSTORE PUSH1 0x2 PUSH1 0x6 DUP3 ADD MSTORE KECCAK256 PUSH1 0x1 PUSH1 0x0 MSTORE PUSH1 0x20 MSTORE PUSH1 0x40 PUSH1 0x0 KECCAK256 SWAP1 DUP1 MLOAD DUP1 MLOAD SWAP1 PUSH1 0x1 DUP1 PUSH1 0x40 SHL SUB DUP3 GT PUSH3 0x4869 JUMPI DUP4 SLOAD PUSH1 0x1 DUP2 DUP2 SHR SWAP2 AND DUP1 ISZERO PUSH3 0x5D4D JUMPI JUMPDEST PUSH1 0x20 DUP3 LT EQ PUSH3 0x4848 JUMPI PUSH1 0x1F DUP2 GT PUSH3 0x5D04 JUMPI JUMPDEST POP PUSH1 0x20 SWAP1 PUSH1 0x1F DUP4 GT PUSH1 0x1 EQ PUSH3 0x5C91 JUMPI PUSH2 0x180 SWAP4 SWAP3 SWAP2 PUSH1 0x0 SWAP2 DUP4 PUSH3 0x5C85 JUMPI JUMPDEST POP POP DUP2 PUSH1 0x1 SHL SWAP2 PUSH1 0x0 NOT SWAP1 PUSH1 0x3 SHL SHR NOT AND OR DUP4 SSTORE JUMPDEST PUSH1 0x20 DUP2 DUP2 ADD MLOAD PUSH1 0x1 DUP6 ADD SSTORE PUSH1 0x40 DUP1 DUP4 ADD MLOAD DUP1 MLOAD PUSH1 0x2 DUP8 ADD SSTORE SWAP2 DUP3 ADD MLOAD PUSH1 0x3 DUP7 ADD SSTORE DUP2 ADD MLOAD PUSH1 0x4 DUP6 ADD SSTORE PUSH1 0x60 DUP2 ADD MLOAD PUSH1 0x5 DUP6 ADD SSTORE PUSH1 0x80 DUP2 ADD MLOAD PUSH1 0x6 DUP6 ADD SSTORE PUSH1 0xA0 ADD MLOAD PUSH1 0x7 DUP5 ADD SSTORE PUSH1 0x60 DUP2 DUP2 ADD MLOAD DUP1 MLOAD PUSH1 0x8 DUP7 ADD SSTORE PUSH1 0x20 DUP2 ADD MLOAD PUSH1 0x9 DUP7 ADD SSTORE PUSH1 0x40 DUP2 ADD MLOAD PUSH1 0xA DUP7 ADD SSTORE SWAP1 DUP2 ADD MLOAD PUSH1 0xB DUP6 ADD SSTORE PUSH1 0x80 DUP2 ADD MLOAD PUSH1 0xC DUP6 ADD SSTORE PUSH1 0xA0 ADD MLOAD PUSH1 0xD DUP5 ADD SSTORE PUSH1 0x80 DUP2 DUP2 ADD MLOAD PUSH1 0xE DUP6 ADD SSTORE PUSH1 0xA0 DUP1 DUP4 ADD MLOAD PUSH1 0xF DUP7 ADD SSTORE PUSH1 0xC0 DUP4 ADD MLOAD PUSH1 0x10 DUP7 ADD SSTORE PUSH1 0xE0 DUP4 ADD MLOAD PUSH1 0x11 DUP7 ADD SSTORE PUSH2 0x100 DUP4 ADD MLOAD PUSH1 0x12 DUP7 ADD SSTORE PUSH2 0x120 DUP4 ADD MLOAD DUP1 MLOAD PUSH1 0x13 DUP8 ADD SSTORE PUSH1 0x20 DUP2 ADD MLOAD PUSH1 0x14 DUP8 ADD SSTORE PUSH1 0x40 DUP2 ADD MLOAD PUSH1 0x15 DUP8 ADD SSTORE PUSH1 0x60 DUP2 ADD MLOAD PUSH1 0x16 DUP8 ADD SSTORE SWAP2 DUP3 ADD MLOAD PUSH1 0x17 DUP7 ADD SSTORE ADD MLOAD PUSH1 0x18 DUP5 ADD SSTORE PUSH2 0x140 DUP2 ADD MLOAD PUSH1 0x19 DUP5 ADD SSTORE PUSH1 0x1A DUP4 ADD PUSH2 0x160 DUP3 ADD MLOAD ISZERO ISZERO PUSH1 0xFF DUP1 NOT DUP4 SLOAD AND SWAP2 AND OR SWAP1 SSTORE ADD MLOAD DUP1 MLOAD SWAP1 PUSH1 0x1 DUP1 PUSH1 0x40 SHL SUB DUP3 GT PUSH3 0x4869 JUMPI PUSH1 0x1B DUP4 ADD SLOAD PUSH1 0x1 DUP2 DUP2 SHR SWAP2 AND DUP1 ISZERO PUSH3 0x5C7A JUMPI JUMPDEST PUSH1 0x20 DUP3 LT EQ PUSH3 0x4848 JUMPI PUSH1 0x1F DUP2 GT PUSH3 0x5C2E JUMPI JUMPDEST POP PUSH1 0x20 SWAP1 PUSH1 0x1F DUP4 GT PUSH1 0x1 EQ PUSH3 0x5BB9 JUMPI PUSH1 0x1B SWAP3 SWAP2 PUSH1 0x0 SWAP2 DUP4 PUSH3 0x5BAD JUMPI JUMPDEST POP POP DUP2 PUSH1 0x1 SHL SWAP2 PUSH1 0x0 NOT SWAP1 PUSH1 0x3 SHL SHR NOT AND OR SWAP2 ADD SSTORE JUMPDEST PUSH1 0x40 MLOAD PUSH3 0x1D01 DUP2 PUSH3 0x690A JUMP JUMPDEST PUSH1 0x96 DUP2 MSTORE PUSH1 0x50 PUSH1 0x20 DUP3 ADD MSTORE PUSH1 0x32 PUSH1 0x40 DUP3 ADD MSTORE PUSH1 0x0 PUSH1 0x60 DUP3 ADD MSTORE PUSH1 0x0 PUSH1 0x80 DUP3 ADD MSTORE PUSH1 0x50 PUSH1 0xA0 DUP3 ADD MSTORE PUSH3 0x1D67 PUSH1 0x40 MLOAD PUSH3 0x1D3A DUP2 PUSH3 0x690A JUMP JUMPDEST PUSH1 0x96 DUP2 MSTORE PUSH1 0x50 PUSH1 0x20 DUP3 ADD MSTORE PUSH1 0x32 PUSH1 0x40 DUP3 ADD MSTORE PUSH1 0x0 PUSH1 0x60 DUP3 ADD MSTORE PUSH1 0x0 PUSH1 0x80 DUP3 ADD MSTORE PUSH1 0x50 PUSH1 0xA0 DUP3 ADD MSTORE PUSH3 0x69B0 JUMP JUMPDEST PUSH1 0x40 MLOAD PUSH3 0x1D75 DUP2 PUSH3 0x690A JUMP JUMPDEST PUSH1 0x0 DUP2 MSTORE PUSH1 0x0 PUSH1 0x20 DUP3 ADD MSTORE PUSH1 0x0 PUSH1 0x40 DUP3 ADD MSTORE PUSH1 0x0 PUSH1 0x60 DUP3 ADD MSTORE PUSH1 0x0 PUSH1 0x80 DUP3 ADD MSTORE PUSH1 0x0 PUSH1 0xA0 DUP3 ADD MSTORE PUSH1 0x40 MLOAD SWAP2 PUSH3 0x1DDB PUSH1 0xC DUP5 PUSH3 0x1DB7 PUSH1 0x20 DUP3 ADD PUSH1 0x80 PUSH3 0x6983 JUMP JUMPDEST PUSH12 0x61636164656D792E7765627 PUSH1 0xA4 SHL DUP2 MSTORE PUSH1 0x13 NOT DUP3 DUP3 SUB ADD DUP3 MSTORE SUB ADD DUP5 PUSH3 0x695F JUMP JUMPDEST PUSH1 0x40 MLOAD SWAP4 PUSH3 0x1DEA DUP6 PUSH3 0x6926 JUMP JUMPDEST PUSH1 0x40 MLOAD PUSH3 0x1DF8 DUP2 PUSH3 0x6943 JUMP JUMPDEST PUSH1 0x7 DUP2 MSTORE PUSH7 0x41636164656D79 PUSH1 0xC8 SHL PUSH1 0x20 DUP3 ADD MSTORE DUP6 MSTORE PUSH1 0x1 PUSH1 0x20 DUP7 ADD MSTORE PUSH1 0x40 DUP6 ADD MSTORE PUSH1 0x60 DUP5 ADD MSTORE PUSH1 0x5 PUSH1 0x80 DUP5 ADD MSTORE PUSH1 0x2 PUSH1 0xA0 DUP5 ADD MSTORE PUSH1 0x5 PUSH1 0xC0 DUP5 ADD MSTORE PUSH1 0x0 PUSH1 0xE0 DUP5 ADD MSTORE PUSH1 0x0 PUSH2 0x100 DUP5 ADD MSTORE PUSH2 0x120 DUP4 ADD MSTORE PUSH2 0xE10 PUSH2 0x140 DUP4 ADD MSTORE PUSH1 0x1 PUSH2 0x160 DUP4 ADD MSTORE PUSH2 0x180 DUP3 ADD MSTORE PUSH1 0x27 PUSH1 0x40 MLOAD PUSH7 0x41636164656D79 PUSH1 0xC8 SHL DUP2 MSTORE PUSH1 0x2 PUSH1 0x7 DUP3 ADD MSTORE KECCAK256 PUSH1 0x1 PUSH1 0x0 MSTORE PUSH1 0x20 MSTORE PUSH1 0x40 PUSH1 0x0 KECCAK256 SWAP1 DUP1 MLOAD DUP1 MLOAD SWAP1 PUSH1 0x1 DUP1 PUSH1 0x40 SHL SUB DUP3 GT PUSH3 0x4869 JUMPI DUP4 SLOAD PUSH1 0x1 DUP2 DUP2 SHR SWAP2 AND DUP1 ISZERO PUSH3 0x5BA2 JUMPI JUMPDEST PUSH1 0x20 DUP3 LT EQ PUSH3 0x4848 JUMPI PUSH1 0x1F DUP2 GT PUSH3 0x5B59 JUMPI JUMPDEST POP PUSH1 0x20 SWAP1 PUSH1 0x1F DUP4 GT PUSH1 0x1 EQ PUSH3 0x5AE6 JUMPI PUSH2 0x180 SWAP4 SWAP3 SWAP2 PUSH1 0x0 SWAP2 DUP4 PUSH3 0x5ADA JUMPI JUMPDEST POP POP DUP2 PUSH1 0x1 SHL SWAP2 PUSH1 0x0 NOT SWAP1 PUSH1 0x3 SHL SHR NOT AND OR DUP4 SSTORE JUMPDEST PUSH1 0x20 DUP2 DUP2 ADD MLOAD PUSH1 0x1 DUP6 ADD SSTORE PUSH1 0x40 DUP1 DUP4 ADD MLOAD DUP1 MLOAD PUSH1 0x2 DUP8 ADD SSTORE SWAP2 DUP3 ADD MLOAD PUSH1 0x3 DUP7 ADD SSTORE DUP2 ADD MLOAD PUSH1 0x4 DUP6 ADD SSTORE PUSH1 0x60 DUP2 ADD MLOAD PUSH1 0x5 DUP6 ADD SSTORE PUSH1 0x80 DUP2 ADD MLOAD PUSH1 0x6 DUP6 ADD SSTORE PUSH1 0xA0 ADD MLOAD PUSH1 0x7 DUP5 ADD SSTORE PUSH1 0x60 DUP2 DUP2 ADD MLOAD DUP1 MLOAD PUSH1 0x8 DUP7 ADD SSTORE PUSH1 0x20 DUP2 ADD MLOAD PUSH1 0x9 DUP7 ADD SSTORE PUSH1 0x40 DUP2 ADD MLOAD PUSH1 0xA DUP7 ADD SSTORE SWAP1 DUP2 ADD MLOAD PUSH1 0xB DUP6 ADD SSTORE PUSH1 0x80 DUP2 ADD MLOAD PUSH1 0xC DUP6 ADD SSTORE PUSH1 0xA0 ADD MLOAD PUSH1 0xD DUP5 ADD SSTORE PUSH1 0x80 DUP2 DUP2 ADD MLOAD PUSH1 0xE DUP6 ADD SSTORE PUSH1 0xA0 DUP1 DUP4 ADD MLOAD PUSH1 0xF DUP7 ADD SSTORE PUSH1 0xC0 DUP4 ADD MLOAD PUSH1 0x10 DUP7 ADD SSTORE PUSH1 0xE0 DUP4 ADD MLOAD PUSH1 0x11 DUP7 ADD SSTORE PUSH2 0x100 DUP4 ADD MLOAD PUSH1 0x12 DUP7 ADD SSTORE PUSH2 0x120 DUP4 ADD MLOAD DUP1 MLOAD PUSH1 0x13 DUP8 ADD SSTORE PUSH1 0x20 DUP2 ADD MLOAD PUSH1 0x14 DUP8 ADD SSTORE PUSH1 0x40 DUP2 ADD MLOAD PUSH1 0x15 DUP8 ADD SSTORE PUSH1 0x60 DUP2 ADD MLOAD PUSH1 0x16 DUP8 ADD SSTORE SWAP2 DUP3 ADD MLOAD PUSH1 0x17 DUP7 ADD SSTORE ADD MLOAD PUSH1 0x18 DUP5 ADD SSTORE PUSH2 0x140 DUP2 ADD MLOAD PUSH1 0x19 DUP5 ADD SSTORE PUSH1 0x1A DUP4 ADD PUSH2 0x160 DUP3 ADD MLOAD ISZERO ISZERO PUSH1 0xFF DUP1 NOT DUP4 SLOAD AND SWAP2 AND OR SWAP1 SSTORE ADD MLOAD DUP1 MLOAD SWAP1 PUSH1 0x1 DUP1 PUSH1 0x40 SHL SUB DUP3 GT PUSH3 0x4869 JUMPI PUSH1 0x1B DUP4 ADD SLOAD PUSH1 0x1 DUP2 DUP2 SHR SWAP2 AND DUP1 ISZERO PUSH3 0x5ACF JUMPI JUMPDEST PUSH1 0x20 DUP3 LT EQ PUSH3 0x4848 JUMPI PUSH1 0x1F DUP2 GT PUSH3 0x5A83 JUMPI JUMPDEST POP PUSH1 0x20 SWAP1 PUSH1 0x1F DUP4 GT PUSH1 0x1 EQ PUSH3 0x5A0E JUMPI PUSH1 0x1B SWAP3 SWAP2 PUSH1 0x0 SWAP2 DUP4 PUSH3 0x5A02 JUMPI JUMPDEST POP POP DUP2 PUSH1 0x1 SHL SWAP2 PUSH1 0x0 NOT SWAP1 PUSH1 0x3 SHL SHR NOT AND OR SWAP2 ADD SSTORE JUMPDEST PUSH1 0x40 MLOAD PUSH3 0x2088 DUP2 PUSH3 0x690A JUMP JUMPDEST PUSH1 0xA0 DUP2 MSTORE PUSH1 0x5A PUSH1 0x20 DUP3 ADD MSTORE PUSH1 0x50 PUSH1 0x40 DUP3 ADD MSTORE PUSH1 0x0 PUSH1 0x60 DUP3 ADD MSTORE PUSH1 0x0 PUSH1 0x80 DUP3 ADD MSTORE PUSH1 0x5A PUSH1 0xA0 DUP3 ADD MSTORE PUSH3 0x20EE PUSH1 0x40 MLOAD PUSH3 0x20C1 DUP2 PUSH3 0x690A JUMP JUMPDEST PUSH1 0xA0 DUP2 MSTORE PUSH1 0x5A PUSH1 0x20 DUP3 ADD MSTORE PUSH1 0x50 PUSH1 0x40 DUP3 ADD MSTORE PUSH1 0x0 PUSH1 0x60 DUP3 ADD MSTORE PUSH1 0x0 PUSH1 0x80 DUP3 ADD MSTORE PUSH1 0x5A PUSH1 0xA0 DUP3 ADD MSTORE PUSH3 0x69B0 JUMP JUMPDEST PUSH1 0x40 MLOAD PUSH3 0x20FC DUP2 PUSH3 0x690A JUMP JUMPDEST PUSH1 0x0 DUP2 MSTORE PUSH1 0x0 PUSH1 0x20 DUP3 ADD MSTORE PUSH1 0x0 PUSH1 0x40 DUP3 ADD MSTORE PUSH1 0x0 PUSH1 0x60 DUP3 ADD MSTORE PUSH1 0x0 PUSH1 0x80 DUP3 ADD MSTORE PUSH1 0x0 PUSH1 0xA0 DUP3 ADD MSTORE PUSH1 0x40 MLOAD SWAP2 PUSH3 0x2160 PUSH1 0xC DUP5 PUSH3 0x213E PUSH1 0x20 DUP3 ADD PUSH1 0x80 PUSH3 0x6983 JUMP JUMPDEST PUSH12 0x737461626C65732E7765627 PUSH1 0xA4 SHL DUP2 MSTORE SUB PUSH1 0x13 NOT DUP2 ADD DUP7 MSTORE ADD DUP5 PUSH3 0x695F JUMP JUMPDEST PUSH1 0x40 MLOAD SWAP4 PUSH3 0x216F DUP6 PUSH3 0x6926 JUMP JUMPDEST PUSH1 0x40 MLOAD PUSH3 0x217D DUP2 PUSH3 0x6943 JUMP JUMPDEST PUSH1 0x7 DUP2 MSTORE PUSH7 0x537461626C6573 PUSH1 0xC8 SHL PUSH1 0x20 DUP3 ADD MSTORE DUP6 MSTORE PUSH1 0x1 PUSH1 0x20 DUP7 ADD MSTORE PUSH1 0x40 DUP6 ADD MSTORE PUSH1 0x60 DUP5 ADD MSTORE PUSH1 0x0 PUSH1 0x80 DUP5 ADD MSTORE PUSH1 0x0 PUSH1 0xA0 DUP5 ADD MSTORE PUSH1 0x0 PUSH1 0xC0 DUP5 ADD MSTORE PUSH1 0x0 PUSH1 0xE0 DUP5 ADD MSTORE PUSH1 0x3 PUSH2 0x100 DUP5 ADD MSTORE PUSH2 0x120 DUP4 ADD MSTORE PUSH2 0xE10 PUSH2 0x140 DUP4 ADD MSTORE PUSH1 0x1 PUSH2 0x160 DUP4 ADD MSTORE PUSH2 0x180 DUP3 ADD MSTORE PUSH1 0x27 PUSH1 0x40 MLOAD PUSH7 0x537461626C6573 PUSH1 0xC8 SHL DUP2 MSTORE PUSH1 0x2 PUSH1 0x7 DUP3 ADD MSTORE KECCAK256 PUSH1 0x1 PUSH1 0x0 MSTORE PUSH1 0x20 MSTORE PUSH1 0x40 PUSH1 0x0 KECCAK256 SWAP1 DUP1 MLOAD DUP1 MLOAD SWAP1 PUSH1 0x1 DUP1 PUSH1 0x40 SHL SUB DUP3 GT PUSH3 0x4869 JUMPI DUP4 SLOAD PUSH1 0x1 DUP2 DUP2 SHR SWAP2 AND DUP1 ISZERO PUSH3 0x59F7 JUMPI JUMPDEST PUSH1 0x20 DUP3 LT EQ PUSH3 0x4848 JUMPI PUSH1 0x1F DUP2 GT PUSH3 0x59AE JUMPI JUMPDEST POP PUSH1 0x20 SWAP1 PUSH1 0x1F DUP4 GT PUSH1 0x1 EQ PUSH3 0x593B JUMPI PUSH2 0x180 SWAP4 SWAP3 SWAP2 PUSH1 0x0 SWAP2 DUP4 PUSH3 0x592F JUMPI JUMPDEST POP POP DUP2 PUSH1 0x1 SHL SWAP2 PUSH1 0x0 NOT SWAP1 PUSH1 0x3 SHL SHR NOT AND OR DUP4 SSTORE JUMPDEST PUSH1 0x20 DUP2 DUP2 ADD MLOAD PUSH1 0x1 DUP6 ADD SSTORE PUSH1 0x40 DUP1 DUP4 ADD MLOAD DUP1 MLOAD PUSH1 0x2 DUP8 ADD SSTORE SWAP2 DUP3 ADD MLOAD PUSH1 0x3 DUP7 ADD SSTORE DUP2 ADD MLOAD PUSH1 0x4 DUP6 ADD SSTORE PUSH1 0x60 DUP2 ADD MLOAD PUSH1 0x5 DUP6 ADD SSTORE PUSH1 0x80 DUP2 ADD MLOAD PUSH1 0x6 DUP6 ADD SSTORE PUSH1 0xA0 ADD MLOAD PUSH1 0x7 DUP5 ADD SSTORE PUSH1 0x60 DUP2 DUP2 ADD MLOAD DUP1 MLOAD PUSH1 0x8 DUP7 ADD SSTORE PUSH1 0x20 DUP2 ADD MLOAD PUSH1 0x9 DUP7 ADD SSTORE PUSH1 0x40 DUP2 ADD MLOAD PUSH1 0xA DUP7 ADD SSTORE SWAP1 DUP2 ADD MLOAD PUSH1 0xB DUP6 ADD SSTORE PUSH1 0x80 DUP2 ADD MLOAD PUSH1 0xC DUP6 ADD SSTORE PUSH1 0xA0 ADD MLOAD PUSH1 0xD DUP5 ADD SSTORE PUSH1 0x80 DUP2 DUP2 ADD MLOAD PUSH1 0xE DUP6 ADD SSTORE PUSH1 0xA0 DUP1 DUP4 ADD MLOAD PUSH1 0xF DUP7 ADD SSTORE PUSH1 0xC0 DUP4 ADD MLOAD PUSH1 0x10 DUP7 ADD SSTORE PUSH1 0xE0 DUP4 ADD MLOAD PUSH1 0x11 DUP7 ADD SSTORE PUSH2 0x100 DUP4 ADD MLOAD PUSH1 0x12 DUP7 ADD SSTORE PUSH2 0x120 DUP4 ADD MLOAD DUP1 MLOAD PUSH1 0x13 DUP8 ADD SSTORE PUSH1 0x20 DUP2 ADD MLOAD PUSH1 0x14 DUP8 ADD SSTORE PUSH1 0x40 DUP2 ADD MLOAD PUSH1 0x15 DUP8 ADD SSTORE PUSH1 0x60 DUP2 ADD MLOAD PUSH1 0x16 DUP8 ADD SSTORE SWAP2 DUP3 ADD MLOAD PUSH1 0x17 DUP7 ADD SSTORE ADD MLOAD PUSH1 0x18 DUP5 ADD SSTORE PUSH2 0x140 DUP2 ADD MLOAD PUSH1 0x19 DUP5 ADD SSTORE PUSH1 0x1A DUP4 ADD PUSH2 0x160 DUP3 ADD MLOAD ISZERO ISZERO PUSH1 0xFF DUP1 NOT DUP4 SLOAD AND SWAP2 AND OR SWAP1 SSTORE ADD MLOAD DUP1 MLOAD SWAP1 PUSH1 0x1 DUP1 PUSH1 0x40 SHL SUB DUP3 GT PUSH3 0x4869 JUMPI PUSH1 0x1B DUP4 ADD SLOAD PUSH1 0x1 DUP2 DUP2 SHR SWAP2 AND DUP1 ISZERO PUSH3 0x5924 JUMPI JUMPDEST PUSH1 0x20 DUP3 LT EQ PUSH3 0x4848 JUMPI PUSH1 0x1F DUP2 GT PUSH3 0x58D8 JUMPI JUMPDEST POP PUSH1 0x20 SWAP1 PUSH1 0x1F DUP4 GT PUSH1 0x1 EQ PUSH3 0x5863 JUMPI PUSH1 0x1B SWAP3 SWAP2 PUSH1 0x0 SWAP2 DUP4 PUSH3 0x5857 JUMPI JUMPDEST POP POP DUP2 PUSH1 0x1 SHL SWAP2 PUSH1 0x0 NOT SWAP1 PUSH1 0x3 SHL SHR NOT AND OR SWAP2 ADD SSTORE JUMPDEST PUSH1 0x40 MLOAD PUSH3 0x240D DUP2 PUSH3 0x690A JUMP JUMPDEST PUSH1 0xC8 DUP2 MSTORE PUSH1 0x64 PUSH1 0x20 DUP3 ADD MSTORE PUSH1 0x3C PUSH1 0x40 DUP3 ADD MSTORE PUSH1 0x0 PUSH1 0x60 DUP3 ADD MSTORE PUSH1 0x0 PUSH1 0x80 DUP3 ADD MSTORE PUSH1 0x28 PUSH1 0xA0 DUP3 ADD MSTORE PUSH3 0x2473 PUSH1 0x40 MLOAD PUSH3 0x2446 DUP2 PUSH3 0x690A JUMP JUMPDEST PUSH1 0xC8 DUP2 MSTORE PUSH1 0x64 PUSH1 0x20 DUP3 ADD MSTORE PUSH1 0x3C PUSH1 0x40 DUP3 ADD MSTORE PUSH1 0x0 PUSH1 0x60 DUP3 ADD MSTORE PUSH1 0x0 PUSH1 0x80 DUP3 ADD MSTORE PUSH1 0x28 PUSH1 0xA0 DUP3 ADD MSTORE PUSH3 0x69B0 JUMP JUMPDEST PUSH1 0x40 MLOAD PUSH3 0x2481 DUP2 PUSH3 0x690A JUMP JUMPDEST PUSH1 0xC8 DUP2 MSTORE PUSH1 0x0 PUSH1 0x20 DUP3 ADD MSTORE PUSH1 0x0 PUSH1 0x40 DUP3 ADD MSTORE PUSH1 0x0 PUSH1 0x60 DUP3 ADD MSTORE PUSH1 0x0 PUSH1 0x80 DUP3 ADD MSTORE PUSH1 0x0 PUSH1 0xA0 DUP3 ADD MSTORE PUSH1 0x40 MLOAD SWAP2 PUSH3 0x24E4 PUSH1 0xB DUP5 PUSH3 0x24C3 PUSH1 0x20 DUP3 ADD PUSH1 0x80 PUSH3 0x6983 JUMP JUMPDEST PUSH11 0x6573746174652E7765627 PUSH1 0xAC SHL DUP2 MSTORE SUB PUSH1 0x14 NOT DUP2 ADD DUP7 MSTORE ADD DUP5 PUSH3 0x695F JUMP JUMPDEST PUSH1 0x40 MLOAD SWAP4 PUSH3 0x24F3 DUP6 PUSH3 0x6926 JUMP JUMPDEST PUSH1 0x40 MLOAD PUSH3 0x2501 DUP2 PUSH3 0x6943 JUMP JUMPDEST PUSH1 0x6 DUP2 MSTORE PUSH6 0x457374617465 PUSH1 0xD0 SHL PUSH1 0x20 DUP3 ADD MSTORE DUP6 MSTORE PUSH1 0x2 PUSH1 0x20 DUP7 ADD MSTORE PUSH1 0x40 DUP6 ADD MSTORE PUSH1 0x60 DUP5 ADD MSTORE PUSH1 0xA PUSH1 0x80 DUP5 ADD MSTORE PUSH1 0x4 PUSH1 0xA0 DUP5 ADD MSTORE PUSH1 0x0 PUSH1 0xC0 DUP5 ADD MSTORE PUSH1 0x0 PUSH1 0xE0 DUP5 ADD MSTORE PUSH1 0x0 PUSH2 0x100 DUP5 ADD MSTORE PUSH2 0x120 DUP4 ADD MSTORE PUSH2 0xE10 PUSH2 0x140 DUP4 ADD MSTORE PUSH1 0x1 PUSH2 0x160 DUP4 ADD MSTORE PUSH2 0x180 DUP3 ADD MSTORE PUSH1 0x26 PUSH1 0x40 MLOAD PUSH6 0x457374617465 PUSH1 0xD0 SHL DUP2 MSTORE PUSH1 0x2 PUSH1 0x6 DUP3 ADD MSTORE KECCAK256 PUSH1 0x2 PUSH1 0x0 MSTORE PUSH1 0x20 MSTORE PUSH1 0x40 PUSH1 0x0 KECCAK256 SWAP1 DUP1 MLOAD DUP1 MLOAD SWAP1 PUSH1 0x1 DUP1 PUSH1 0x40 SHL SUB DUP3 GT PUSH3 0x4869 JUMPI DUP4 SLOAD PUSH1 0x1 DUP2 DUP2 SHR SWAP2 AND DUP1 ISZERO PUSH3 0x584C JUMPI JUMPDEST PUSH1 0x20 DUP3 LT EQ PUSH3 0x4848 JUMPI PUSH1 0x1F DUP2 GT PUSH3 0x5803 JUMPI JUMPDEST POP PUSH1 0x20 SWAP1 PUSH1 0x1F DUP4 GT PUSH1 0x1 EQ PUSH3 0x5790 JUMPI PUSH2 0x180 SWAP4 SWAP3 SWAP2 PUSH1 0x0 SWAP2 DUP4 PUSH3 0x5784 JUMPI JUMPDEST POP POP DUP2 PUSH1 0x1 SHL SWAP2 PUSH1 0x0 NOT SWAP1 PUSH1 0x3 SHL SHR NOT AND OR DUP4 SSTORE JUMPDEST PUSH1 0x20 DUP2 DUP2 ADD MLOAD PUSH1 0x1 DUP6 ADD SSTORE PUSH1 0x40 DUP1 DUP4 ADD MLOAD DUP1 MLOAD PUSH1 0x2 DUP8 ADD SSTORE SWAP2 DUP3 ADD MLOAD PUSH1 0x3 DUP7 ADD SSTORE DUP2 ADD MLOAD PUSH1 0x4 DUP6 ADD SSTORE PUSH1 0x60 DUP2 ADD MLOAD PUSH1 0x5 DUP6 ADD SSTORE PUSH1 0x80 DUP2 ADD MLOAD PUSH1 0x6 DUP6 ADD SSTORE PUSH1 0xA0 ADD MLOAD PUSH1 0x7 DUP5 ADD SSTORE PUSH1 0x60 DUP2 DUP2 ADD MLOAD DUP1 MLOAD PUSH1 0x8 DUP7 ADD SSTORE PUSH1 0x20 DUP2 ADD MLOAD PUSH1 0x9 DUP7 ADD SSTORE PUSH1 0x40 DUP2 ADD MLOAD PUSH1 0xA DUP7 ADD SSTORE SWAP1 DUP2 ADD MLOAD PUSH1 0xB DUP6 ADD SSTORE PUSH1 0x80 DUP2 ADD MLOAD PUSH1 0xC DUP6 ADD SSTORE PUSH1 0xA0 ADD MLOAD PUSH1 0xD DUP5 ADD SSTORE PUSH1 0x80 DUP2 DUP2 ADD MLOAD PUSH1 0xE DUP6 ADD SSTORE PUSH1 0xA0 DUP1 DUP4 ADD MLOAD PUSH1 0xF DUP7 ADD SSTORE PUSH1 0xC0 DUP4 ADD MLOAD PUSH1 0x10 DUP7 ADD SSTORE PUSH1 0xE0 DUP4 ADD MLOAD PUSH1 0x11 DUP7 ADD SSTORE PUSH2 0x100 DUP4 ADD MLOAD PUSH1 0x12 DUP7 ADD SSTORE PUSH2 0x120 DUP4 ADD MLOAD DUP1 MLOAD PUSH1 0x13 DUP8 ADD SSTORE PUSH1 0x20 DUP2 ADD MLOAD PUSH1 0x14 DUP8 ADD SSTORE PUSH1 0x40 DUP2 ADD MLOAD PUSH1 0x15 DUP8 ADD SSTORE PUSH1 0x60 DUP2 ADD MLOAD PUSH1 0x16 DUP8 ADD SSTORE SWAP2 DUP3 ADD MLOAD PUSH1 0x17 DUP7 ADD SSTORE ADD MLOAD PUSH1 0x18 DUP5 ADD SSTORE PUSH2 0x140 DUP2 ADD MLOAD PUSH1 0x19 DUP5 ADD SSTORE PUSH1 0x1A DUP4 ADD PUSH2 0x160 DUP3 ADD MLOAD ISZERO ISZERO PUSH1 0xFF DUP1 NOT DUP4 SLOAD AND SWAP2 AND OR SWAP1 SSTORE ADD MLOAD DUP1 MLOAD SWAP1 PUSH1 0x1 DUP1 PUSH1 0x40 SHL SUB DUP3 GT PUSH3 0x4869 JUMPI PUSH1 0x1B DUP4 ADD SLOAD PUSH1 0x1 DUP2 DUP2 SHR SWAP2 AND DUP1 ISZERO PUSH3 0x5779 JUMPI JUMPDEST PUSH1 0x20 DUP3 LT EQ PUSH3 0x4848 JUMPI PUSH1 0x1F DUP2 GT PUSH3 0x572D JUMPI JUMPDEST POP PUSH1 0x20 SWAP1 PUSH1 0x1F DUP4 GT PUSH1 0x1 EQ PUSH3 0x56B8 JUMPI PUSH1 0x1B SWAP3 SWAP2 PUSH1 0x0 SWAP2 DUP4 PUSH3 0x56AC JUMPI JUMPDEST POP POP DUP2 PUSH1 0x1 SHL SWAP2 PUSH1 0x0 NOT SWAP1 PUSH1 0x3 SHL SHR NOT AND OR SWAP2 ADD SSTORE JUMPDEST PUSH1 0x40 MLOAD PUSH3 0x278F DUP2 PUSH3 0x690A JUMP JUMPDEST PUSH3 0x27F4 PUSH2 0x12C DUP1 DUP4 MSTORE PUSH1 0xA0 PUSH1 0x20 DUP5 ADD MSTORE PUSH1 0x64 PUSH1 0x40 DUP5 ADD MSTORE PUSH1 0x0 PUSH1 0x60 DUP5 ADD MSTORE PUSH1 0x0 PUSH1 0x80 DUP5 ADD MSTORE PUSH1 0xA0 DUP1 DUP5 ADD MSTORE PUSH1 0x40 MLOAD SWAP1 PUSH3 0x27CA DUP3 PUSH3 0x690A JUMP JUMPDEST DUP2 MSTORE PUSH1 0xA0 PUSH1 0x20 DUP3 ADD MSTORE PUSH1 0x64 PUSH1 0x40 DUP3 ADD MSTORE PUSH1 0x0 PUSH1 0x60 DUP3 ADD MSTORE PUSH1 0x0 PUSH1 0x80 DUP3 ADD MSTORE PUSH1 0xA0 DUP1 DUP3 ADD MSTORE PUSH3 0x69B0 JUMP JUMPDEST PUSH1 0x40 MLOAD PUSH3 0x2802 DUP2 PUSH3 0x690A JUMP JUMPDEST PUSH1 0x0 DUP2 MSTORE PUSH1 0x0 PUSH1 0x20 DUP3 ADD MSTORE PUSH1 0x0 PUSH1 0x40 DUP3 ADD MSTORE PUSH1 0x0 PUSH1 0x60 DUP3 ADD MSTORE PUSH1 0x0 PUSH1 0x80 DUP3 ADD MSTORE PUSH1 0x0 PUSH1 0xA0 DUP3 ADD MSTORE PUSH1 0x40 MLOAD SWAP2 PUSH3 0x2869 PUSH1 0xF DUP5 PUSH3 0x2844 PUSH1 0x20 DUP3 ADD PUSH1 0x80 PUSH3 0x6983 JUMP JUMPDEST PUSH15 0x756E69766572736974792E7765627 PUSH1 0x8C SHL DUP2 MSTORE SUB PUSH1 0x10 NOT DUP2 ADD DUP7 MSTORE ADD DUP5 PUSH3 0x695F JUMP JUMPDEST PUSH1 0x40 MLOAD SWAP4 PUSH3 0x2878 DUP6 PUSH3 0x6926 JUMP JUMPDEST PUSH1 0x40 MLOAD PUSH3 0x2886 DUP2 PUSH3 0x6943 JUMP JUMPDEST PUSH1 0xA DUP2 MSTORE PUSH10 0x556E6976657273697479 PUSH1 0xB0 SHL PUSH1 0x20 DUP3 ADD MSTORE DUP6 MSTORE PUSH1 0x2 PUSH1 0x20 DUP7 ADD MSTORE PUSH1 0x40 DUP6 ADD MSTORE PUSH1 0x60 DUP5 ADD MSTORE PUSH1 0xA PUSH1 0x80 DUP5 ADD MSTORE PUSH1 0x4 PUSH1 0xA0 DUP5 ADD MSTORE PUSH1 0xA PUSH1 0xC0 DUP5 ADD MSTORE PUSH1 0x0 PUSH1 0xE0 DUP5 ADD MSTORE PUSH1 0x0 PUSH2 0x100 DUP5 ADD MSTORE PUSH2 0x120 DUP4 ADD MSTORE PUSH2 0xE10 PUSH2 0x140 DUP4 ADD MSTORE PUSH1 0x1 PUSH2 0x160 DUP4 ADD MSTORE PUSH2 0x180 DUP3 ADD MSTORE PUSH1 0x2A PUSH1 0x40 MLOAD PUSH10 0x556E6976657273697479 PUSH1 0xB0 SHL DUP2 MSTORE PUSH1 0x2 PUSH1 0xA DUP3 ADD MSTORE KECCAK256 PUSH1 0x2 PUSH1 0x0 MSTORE PUSH1 0x20 MSTORE PUSH1 0x40 PUSH1 0x0 KECCAK256 SWAP1 DUP1 MLOAD DUP1 MLOAD SWAP1 PUSH1 0x1 DUP1 PUSH1 0x40 SHL SUB DUP3 GT PUSH3 0x4869 JUMPI DUP4 SLOAD PUSH1 0x1 DUP2 DUP2 SHR SWAP2 AND DUP1 ISZERO PUSH3 0x56A1 JUMPI JUMPDEST PUSH1 0x20 DUP3 LT EQ PUSH3 0x4848 JUMPI PUSH1 0x1F DUP2 GT PUSH3 0x5658 JUMPI JUMPDEST POP PUSH1 0x20 SWAP1 PUSH1 0x1F DUP4 GT PUSH1 0x1 EQ PUSH3 0x55E5 JUMPI PUSH2 0x180 SWAP4 SWAP3 SWAP2 PUSH1 0x0 SWAP2 DUP4 PUSH3 0x55D9 JUMPI JUMPDEST POP POP DUP2 PUSH1 0x1 SHL SWAP2 PUSH1 0x0 NOT SWAP1 PUSH1 0x3 SHL SHR NOT AND OR DUP4 SSTORE JUMPDEST PUSH1 0x20 DUP2 DUP2 ADD MLOAD PUSH1 0x1 DUP6 ADD SSTORE PUSH1 0x40 DUP1 DUP4 ADD MLOAD DUP1 MLOAD PUSH1 0x2 DUP8 ADD SSTORE SWAP2 DUP3 ADD MLOAD PUSH1 0x3 DUP7 ADD SSTORE DUP2 ADD MLOAD PUSH1 0x4 DUP6 ADD SSTORE PUSH1 0x60 DUP2 ADD MLOAD PUSH1 0x5 DUP6 ADD SSTORE PUSH1 0x80 DUP2 ADD MLOAD PUSH1 0x6 DUP6 ADD SSTORE PUSH1 0xA0 ADD MLOAD PUSH1 0x7 DUP5 ADD SSTORE PUSH1 0x60 DUP2 DUP2 ADD MLOAD DUP1 MLOAD PUSH1 0x8 DUP7 ADD SSTORE PUSH1 0x20 DUP2 ADD MLOAD PUSH1 0x9 DUP7 ADD SSTORE PUSH1 0x40 DUP2 ADD MLOAD PUSH1 0xA DUP7 ADD SSTORE SWAP1 DUP2 ADD MLOAD PUSH1 0xB DUP6 ADD SSTORE PUSH1 0x80 DUP2 ADD MLOAD PUSH1 0xC DUP6 ADD SSTORE PUSH1 0xA0 ADD MLOAD PUSH1 0xD DUP5 ADD SSTORE PUSH1 0x80 DUP2 DUP2 ADD MLOAD PUSH1 0xE DUP6 ADD SSTORE PUSH1 0xA0 DUP1 DUP4 ADD MLOAD PUSH1 0xF DUP7 ADD SSTORE PUSH1 0xC0 DUP4 ADD MLOAD PUSH1 0x10 DUP7 ADD SSTORE PUSH1 0xE0 DUP4 ADD MLOAD PUSH1 0x11 DUP7 ADD SSTORE PUSH2 0x100 DUP4 ADD MLOAD PUSH1 0x12 DUP7 ADD SSTORE PUSH2 0x120 DUP4 ADD MLOAD DUP1 MLOAD PUSH1 0x13 DUP8 ADD SSTORE PUSH1 0x20 DUP2 ADD MLOAD PUSH1 0x14 DUP8 ADD SSTORE PUSH1 0x40 DUP2 ADD MLOAD PUSH1 0x15 DUP8 ADD SSTORE PUSH1 0x60 DUP2 ADD MLOAD PUSH1 0x16 DUP8 ADD SSTORE SWAP2 DUP3 ADD MLOAD PUSH1 0x17 DUP7 ADD SSTORE ADD MLOAD PUSH1 0x18 DUP5 ADD SSTORE PUSH2 0x140 DUP2 ADD MLOAD PUSH1 0x19 DUP5 ADD SSTORE PUSH1 0x1A DUP4 ADD PUSH2 0x160 DUP3 ADD MLOAD ISZERO ISZERO PUSH1 0xFF DUP1 NOT DUP4 SLOAD AND SWAP2 AND OR SWAP1 SSTORE ADD MLOAD DUP1 MLOAD SWAP1 PUSH1 0x1 DUP1 PUSH1 0x40 SHL SUB DUP3 GT PUSH3 0x4869 JUMPI PUSH1 0x1B DUP4 ADD SLOAD PUSH1 0x1 DUP2 DUP2 SHR SWAP2 AND DUP1 ISZERO PUSH3 0x55CE JUMPI JUMPDEST PUSH1 0x20 DUP3 LT EQ PUSH3 0x4848 JUMPI PUSH1 0x1F DUP2 GT PUSH3 0x5582 JUMPI JUMPDEST POP PUSH1 0x20 SWAP1 PUSH1 0x1F DUP4 GT PUSH1 0x1 EQ PUSH3 0x550D JUMPI PUSH1 0x1B SWAP3 SWAP2 PUSH1 0x0 SWAP2 DUP4 PUSH3 0x5501 JUMPI JUMPDEST POP POP DUP2 PUSH1 0x1 SHL SWAP2 PUSH1 0x0 NOT SWAP1 PUSH1 0x3 SHL SHR NOT AND OR SWAP2 ADD SSTORE JUMPDEST PUSH1 0x40 MLOAD PUSH3 0x2B1C DUP2 PUSH3 0x690A JUMP JUMPDEST PUSH3 0x2B83 PUSH2 0x118 DUP1 DUP4 MSTORE PUSH1 0x78 PUSH1 0x20 DUP5 ADD MSTORE PUSH1 0x8C PUSH1 0x40 DUP5 ADD MSTORE PUSH1 0x0 PUSH1 0x60 DUP5 ADD MSTORE PUSH1 0x0 PUSH1 0x80 DUP5 ADD MSTORE PUSH1 0x8C PUSH1 0xA0 DUP5 ADD MSTORE PUSH1 0x40 MLOAD SWAP1 PUSH3 0x2B58 DUP3 PUSH3 0x690A JUMP JUMPDEST DUP2 MSTORE PUSH1 0x78 PUSH1 0x20 DUP3 ADD MSTORE PUSH1 0x8C PUSH1 0x40 DUP3 ADD MSTORE PUSH1 0x0 PUSH1 0x60 DUP3 ADD MSTORE PUSH1 0x0 PUSH1 0x80 DUP3 ADD MSTORE PUSH1 0x8C PUSH1 0xA0 DUP3 ADD MSTORE PUSH3 0x69B0 JUMP JUMPDEST PUSH1 0x40 MLOAD PUSH3 0x2B91 DUP2 PUSH3 0x690A JUMP JUMPDEST PUSH1 0x0 DUP2 MSTORE PUSH1 0x0 PUSH1 0x20 DUP3 ADD MSTORE PUSH1 0x0 PUSH1 0x40 DUP3 ADD MSTORE PUSH1 0x0 PUSH1 0x60 DUP3 ADD MSTORE PUSH1 0x0 PUSH1 0x80 DUP3 ADD MSTORE PUSH1 0x0 PUSH1 0xA0 DUP3 ADD MSTORE PUSH1 0x40 MLOAD SWAP2 PUSH3 0x2BF7 PUSH1 0xE DUP5 PUSH3 0x2BD3 PUSH1 0x20 DUP3 ADD PUSH1 0x80 PUSH3 0x6983 JUMP JUMPDEST PUSH14 0x63617468656472616C2E7765627 PUSH1 0x94 SHL DUP2 MSTORE SUB PUSH1 0x11 NOT DUP2 ADD DUP7 MSTORE ADD DUP5 PUSH3 0x695F JUMP JUMPDEST PUSH1 0x40 MLOAD SWAP4 PUSH3 0x2C06 DUP6 PUSH3 0x6926 JUMP JUMPDEST PUSH1 0x40 MLOAD PUSH3 0x2C14 DUP2 PUSH3 0x6943 JUMP JUMPDEST PUSH1 0x9 DUP2 MSTORE PUSH9 0x10D85D1A19591C985B PUSH1 0xBA SHL PUSH1 0x20 DUP3 ADD MSTORE DUP6 MSTORE PUSH1 0x2 PUSH1 0x20 DUP7 ADD MSTORE PUSH1 0x40 DUP6 ADD MSTORE PUSH1 0x60 DUP5 ADD MSTORE PUSH1 0x0 PUSH1 0x80 DUP5 ADD MSTORE PUSH1 0xA PUSH1 0xA0 DUP5 ADD MSTORE PUSH1 0x0 PUSH1 0xC0 DUP5 ADD MSTORE PUSH1 0xA PUSH1 0xE0 DUP5 ADD MSTORE PUSH1 0x0 PUSH2 0x100 DUP5 ADD MSTORE PUSH2 0x120 DUP4 ADD MSTORE PUSH2 0xE10 PUSH2 0x140 DUP4 ADD MSTORE PUSH1 0x1 PUSH2 0x160 DUP4 ADD MSTORE PUSH2 0x180 DUP3 ADD MSTORE PUSH1 0x29 PUSH1 0x40 MLOAD PUSH9 0x10D85D1A19591C985B PUSH1 0xBA SHL DUP2 MSTORE PUSH1 0x2 PUSH1 0x9 DUP3 ADD MSTORE KECCAK256 PUSH1 0x2 PUSH1 0x0 MSTORE PUSH1 0x20 MSTORE PUSH1 0x40 PUSH1 0x0 KECCAK256 SWAP1 DUP1 MLOAD DUP1 MLOAD SWAP1 PUSH1 0x1 DUP1 PUSH1 0x40 SHL SUB DUP3 GT PUSH3 0x4869 JUMPI DUP4 SLOAD PUSH1 0x1 DUP2 DUP2 SHR SWAP2 AND DUP1 ISZERO PUSH3 0x54F6 JUMPI JUMPDEST PUSH1 0x20 DUP3 LT EQ PUSH3 0x4848 JUMPI PUSH1 0x1F DUP2 GT PUSH3 0x54AD JUMPI JUMPDEST POP PUSH1 0x20 SWAP1 PUSH1 0x1F DUP4 GT PUSH1 0x1 EQ PUSH3 0x543A JUMPI PUSH2 0x180 SWAP4 SWAP3 SWAP2 PUSH1 0x0 SWAP2 DUP4 PUSH3 0x542E JUMPI JUMPDEST POP POP DUP2 PUSH1 0x1 SHL SWAP2 PUSH1 0x0 NOT SWAP1 PUSH1 0x3 SHL SHR NOT AND OR DUP4 SSTORE JUMPDEST PUSH1 0x20 DUP2 DUP2 ADD MLOAD PUSH1 0x1 DUP6 ADD SSTORE PUSH1 0x40 DUP1 DUP4 ADD MLOAD DUP1 MLOAD PUSH1 0x2 DUP8 ADD SSTORE SWAP2 DUP3 ADD MLOAD PUSH1 0x3 DUP7 ADD SSTORE DUP2 ADD MLOAD PUSH1 0x4 DUP6 ADD SSTORE PUSH1 0x60 DUP2 ADD MLOAD PUSH1 0x5 DUP6 ADD SSTORE PUSH1 0x80 DUP2 ADD MLOAD PUSH1 0x6 DUP6 ADD SSTORE PUSH1 0xA0 ADD MLOAD PUSH1 0x7 DUP5 ADD SSTORE PUSH1 0x60 DUP2 DUP2 ADD MLOAD DUP1 MLOAD PUSH1 0x8 DUP7 ADD SSTORE PUSH1 0x20 DUP2 ADD MLOAD PUSH1 0x9 DUP7 ADD SSTORE PUSH1 0x40 DUP2 ADD MLOAD PUSH1 0xA DUP7 ADD SSTORE SWAP1 DUP2 ADD MLOAD PUSH1 0xB DUP6 ADD SSTORE PUSH1 0x80 DUP2 ADD MLOAD PUSH1 0xC DUP6 ADD SSTORE PUSH1 0xA0 ADD MLOAD PUSH1 0xD DUP5 ADD SSTORE PUSH1 0x80 DUP2 DUP2 ADD MLOAD PUSH1 0xE DUP6 ADD SSTORE PUSH1 0xA0 DUP1 DUP4 ADD MLOAD PUSH1 0xF DUP7 ADD SSTORE PUSH1 0xC0 DUP4 ADD MLOAD PUSH1 0x10 DUP7 ADD SSTORE PUSH1 0xE0 DUP4 ADD MLOAD PUSH1 0x11 DUP7 ADD SSTORE PUSH2 0x100 DUP4 ADD MLOAD PUSH1 0x12 DUP7 ADD SSTORE PUSH2 0x120 DUP4 ADD MLOAD DUP1 MLOAD PUSH1 0x13 DUP8 ADD SSTORE PUSH1 0x20 DUP2 ADD MLOAD PUSH1 0x14 DUP8 ADD SSTORE PUSH1 0x40 DUP2 ADD MLOAD PUSH1 0x15 DUP8 ADD SSTORE PUSH1 0x60 DUP2 ADD MLOAD PUSH1 0x16 DUP8 ADD SSTORE SWAP2 DUP3 ADD MLOAD PUSH1 0x17 DUP7 ADD SSTORE ADD MLOAD PUSH1 0x18 DUP5 ADD SSTORE PUSH2 0x140 DUP2 ADD MLOAD PUSH1 0x19 DUP5 ADD SSTORE PUSH1 0x1A DUP4 ADD PUSH2 0x160 DUP3 ADD MLOAD ISZERO ISZERO PUSH1 0xFF DUP1 NOT DUP4 SLOAD AND SWAP2 AND OR SWAP1 SSTORE ADD MLOAD DUP1 MLOAD SWAP1 PUSH1 0x1 DUP1 PUSH1 0x40 SHL SUB DUP3 GT PUSH3 0x4869 JUMPI PUSH1 0x1B DUP4 ADD SLOAD PUSH1 0x1 DUP2 DUP2 SHR SWAP2 AND DUP1 ISZERO PUSH3 0x5423 JUMPI JUMPDEST PUSH1 0x20 DUP3 LT EQ PUSH3 0x4848 JUMPI PUSH1 0x1F DUP2 GT PUSH3 0x53D7 JUMPI JUMPDEST POP PUSH1 0x20 SWAP1 PUSH1 0x1F DUP4 GT PUSH1 0x1 EQ PUSH3 0x5362 JUMPI PUSH1 0x1B SWAP3 SWAP2 PUSH1 0x0 SWAP2 DUP4 PUSH3 0x5356 JUMPI JUMPDEST POP POP DUP2 PUSH1 0x1 SHL SWAP2 PUSH1 0x0 NOT SWAP1 PUSH1 0x3 SHL SHR NOT AND OR SWAP2 ADD SSTORE JUMPDEST PUSH1 0x40 MLOAD PUSH3 0x2EA8 DUP2 PUSH3 0x690A JUMP JUMPDEST PUSH1 0xA0 DUP2 MSTORE PUSH1 0x78 PUSH1 0x20 DUP3 ADD MSTORE PUSH1 0x50 PUSH1 0x40 DUP3 ADD MSTORE PUSH1 0x0 PUSH1 0x60 DUP3 ADD MSTORE PUSH1 0x0 PUSH1 0x80 DUP3 ADD MSTORE PUSH1 0x32 PUSH1 0xA0 DUP3 ADD MSTORE PUSH3 0x2F0E PUSH1 0x40 MLOAD PUSH3 0x2EE1 DUP2 PUSH3 0x690A JUMP JUMPDEST PUSH1 0xA0 DUP2 MSTORE PUSH1 0x78 PUSH1 0x20 DUP3 ADD MSTORE PUSH1 0x50 PUSH1 0x40 DUP3 ADD MSTORE PUSH1 0x0 PUSH1 0x60 DUP3 ADD MSTORE PUSH1 0x0 PUSH1 0x80 DUP3 ADD MSTORE PUSH1 0x32 PUSH1 0xA0 DUP3 ADD MSTORE PUSH3 0x69B0 JUMP JUMPDEST PUSH1 0x40 MLOAD PUSH3 0x2F1C DUP2 PUSH3 0x690A JUMP JUMPDEST PUSH1 0x0 DUP2 MSTORE PUSH1 0xC8 PUSH1 0x20 DUP3 ADD MSTORE PUSH1 0x0 PUSH1 0x40 DUP3 ADD MSTORE PUSH1 0x0 PUSH1 0x60 DUP3 ADD MSTORE PUSH1 0x0 PUSH1 0x80 DUP3 ADD MSTORE PUSH1 0x0 PUSH1 0xA0 DUP3 ADD MSTORE PUSH1 0x40 MLOAD SWAP2 PUSH3 0x2F80 PUSH1 0xC DUP5 PUSH3 0x2F5E PUSH1 0x20 DUP3 ADD PUSH1 0x80 PUSH3 0x6983 JUMP JUMPDEST PUSH12 0x7361776D696C6C2E7765627 PUSH1 0xA4 SHL DUP2 MSTORE SUB PUSH1 0x13 NOT DUP2 ADD DUP7 MSTORE ADD DUP5 PUSH3 0x695F JUMP JUMPDEST PUSH1 0x40 MLOAD SWAP4 PUSH3 0x2F8F DUP6 PUSH3 0x6926 JUMP JUMPDEST PUSH1 0x40 MLOAD PUSH3 0x2F9D DUP2 PUSH3 0x6943 JUMP JUMPDEST PUSH1 0x7 DUP2 MSTORE PUSH7 0x14D85DDB5A5B1B PUSH1 0xCA SHL PUSH1 0x20 DUP3 ADD MSTORE DUP6 MSTORE PUSH1 0x2 PUSH1 0x20 DUP7 ADD MSTORE PUSH1 0x40 DUP6 ADD MSTORE PUSH1 0x60 DUP5 ADD MSTORE PUSH1 0x8 PUSH1 0x80 DUP5 ADD MSTORE PUSH1 0x0 PUSH1 0xA0 DUP5 ADD MSTORE PUSH1 0x0 PUSH1 0xC0 DUP5 ADD MSTORE PUSH1 0x0 PUSH1 0xE0 DUP5 ADD MSTORE PUSH1 0x0 PUSH2 0x100 DUP5 ADD MSTORE PUSH2 0x120 DUP4 ADD MSTORE PUSH2 0xE10 PUSH2 0x140 DUP4 ADD MSTORE PUSH1 0x1 PUSH2 0x160 DUP4 ADD MSTORE PUSH2 0x180 DUP3 ADD MSTORE PUSH1 0x27 PUSH1 0x40 MLOAD PUSH7 0x14D85DDB5A5B1B PUSH1 0xCA SHL DUP2 MSTORE PUSH1 0x2 PUSH1 0x7 DUP3 ADD MSTORE KECCAK256 PUSH1 0x2 PUSH1 0x0 MSTORE PUSH1 0x20 MSTORE PUSH1 0x40 PUSH1 0x0 KECCAK256 SWAP1 DUP1 MLOAD DUP1 MLOAD SWAP1 PUSH1 0x1 DUP1 PUSH1 0x40 SHL SUB DUP3 GT PUSH3 0x4869 JUMPI DUP4 SLOAD PUSH1 0x1 DUP2 DUP2 SHR SWAP2 AND DUP1 ISZERO PUSH3 0x534B JUMPI JUMPDEST PUSH1 0x20 DUP3 LT EQ PUSH3 0x4848 JUMPI PUSH1 0x1F DUP2 GT PUSH3 0x5302 JUMPI JUMPDEST POP PUSH1 0x20 SWAP1 PUSH1 0x1F DUP4 GT PUSH1 0x1 EQ PUSH3 0x528F JUMPI PUSH2 0x180 SWAP4 SWAP3 SWAP2 PUSH1 0x0 SWAP2 DUP4 PUSH3 0x5283 JUMPI JUMPDEST POP POP DUP2 PUSH1 0x1 SHL SWAP2 PUSH1 0x0 NOT SWAP1 PUSH1 0x3 SHL SHR NOT AND OR DUP4 SSTORE JUMPDEST PUSH1 0x20 DUP2 DUP2 ADD MLOAD PUSH1 0x1 DUP6 ADD SSTORE PUSH1 0x40 DUP1 DUP4 ADD MLOAD DUP1 MLOAD PUSH1 0x2 DUP8 ADD SSTORE SWAP2 DUP3 ADD MLOAD PUSH1 0x3 DUP7 ADD SSTORE DUP2 ADD MLOAD PUSH1 0x4 DUP6 ADD SSTORE PUSH1 0x60 DUP2 ADD MLOAD PUSH1 0x5 DUP6 ADD SSTORE PUSH1 0x80 DUP2 ADD MLOAD PUSH1 0x6 DUP6 ADD SSTORE PUSH1 0xA0 ADD MLOAD PUSH1 0x7 DUP5 ADD SSTORE PUSH1 0x60 DUP2 DUP2 ADD MLOAD DUP1 MLOAD PUSH1 0x8 DUP7 ADD SSTORE PUSH1 0x20 DUP2 ADD MLOAD PUSH1 0x9 DUP7 ADD SSTORE PUSH1 0x40 DUP2 ADD MLOAD PUSH1 0xA DUP7 ADD SSTORE SWAP1 DUP2 ADD MLOAD PUSH1 0xB DUP6 ADD SSTORE PUSH1 0x80 DUP2 ADD MLOAD PUSH1 0xC DUP6 ADD SSTORE PUSH1 0xA0 ADD MLOAD PUSH1 0xD DUP5 ADD SSTORE PUSH1 0x80 DUP2 DUP2 ADD MLOAD PUSH1 0xE DUP6 ADD SSTORE PUSH1 0xA0 DUP1 DUP4 ADD MLOAD PUSH1 0xF DUP7 ADD SSTORE PUSH1 0xC0 DUP4 ADD MLOAD PUSH1 0x10 DUP7 ADD SSTORE PUSH1 0xE0 DUP4 ADD MLOAD PUSH1 0x11 DUP7 ADD SSTORE PUSH2 0x100 DUP4 ADD MLOAD PUSH1 0x12 DUP7 ADD SSTORE PUSH2 0x120 DUP4 ADD MLOAD DUP1 MLOAD PUSH1 0x13 DUP8 ADD SSTORE PUSH1 0x20 DUP2 ADD MLOAD PUSH1 0x14 DUP8 ADD SSTORE PUSH1 0x40 DUP2 ADD MLOAD PUSH1 0x15 DUP8 ADD SSTORE PUSH1 0x60 DUP2 ADD MLOAD PUSH1 0x16 DUP8 ADD SSTORE SWAP2 DUP3 ADD MLOAD PUSH1 0x17 DUP7 ADD SSTORE ADD MLOAD PUSH1 0x18 DUP5 ADD SSTORE PUSH2 0x140 DUP2 ADD MLOAD PUSH1 0x19 DUP5 ADD SSTORE PUSH1 0x1A DUP4 ADD PUSH2 0x160 DUP3 ADD MLOAD ISZERO ISZERO PUSH1 0xFF DUP1 NOT DUP4 SLOAD AND SWAP2 AND OR SWAP1 SSTORE ADD MLOAD DUP1 MLOAD SWAP1 PUSH1 0x1 DUP1 PUSH1 0x40 SHL SUB DUP3 GT PUSH3 0x4869 JUMPI PUSH1 0x1B DUP4 ADD SLOAD PUSH1 0x1 DUP2 DUP2 SHR SWAP2 AND DUP1 ISZERO PUSH3 0x5278 JUMPI JUMPDEST PUSH1 0x20 DUP3 LT EQ PUSH3 0x4848 JUMPI PUSH1 0x1F DUP2 GT PUSH3 0x522C JUMPI JUMPDEST POP PUSH1 0x20 SWAP1 PUSH1 0x1F DUP4 GT PUSH1 0x1 EQ PUSH3 0x51B7 JUMPI PUSH1 0x1B SWAP3 SWAP2 PUSH1 0x0 SWAP2 DUP4 PUSH3 0x51AB JUMPI JUMPDEST POP POP DUP2 PUSH1 0x1 SHL SWAP2 PUSH1 0x0 NOT SWAP1 PUSH1 0x3 SHL SHR NOT AND OR SWAP2 ADD SSTORE JUMPDEST PUSH1 0x40 MLOAD PUSH3 0x322D DUP2 PUSH3 0x690A JUMP JUMPDEST PUSH1 0xB4 DUP2 MSTORE PUSH1 0x50 PUSH1 0x20 DUP3 ADD MSTORE PUSH1 0x64 PUSH1 0x40 DUP3 ADD MSTORE PUSH1 0x0 PUSH1 0x60 DUP3 ADD MSTORE PUSH1 0x0 PUSH1 0x80 DUP3 ADD MSTORE PUSH1 0x3C PUSH1 0xA0 DUP3 ADD MSTORE PUSH3 0x3293 PUSH1 0x40 MLOAD PUSH3 0x3266 DUP2 PUSH3 0x690A JUMP JUMPDEST PUSH1 0xB4 DUP2 MSTORE PUSH1 0x50 PUSH1 0x20 DUP3 ADD MSTORE PUSH1 0x64 PUSH1 0x40 DUP3 ADD MSTORE PUSH1 0x0 PUSH1 0x60 DUP3 ADD MSTORE PUSH1 0x0 PUSH1 0x80 DUP3 ADD MSTORE PUSH1 0x3C PUSH1 0xA0 DUP3 ADD MSTORE PUSH3 0x69B0 JUMP JUMPDEST PUSH1 0x40 MLOAD PUSH3 0x32A1 DUP2 PUSH3 0x690A JUMP JUMPDEST PUSH1 0x0 DUP2 MSTORE PUSH1 0x0 PUSH1 0x20 DUP3 ADD MSTORE PUSH1 0xC8 PUSH1 0x40 DUP3 ADD MSTORE PUSH1 0x0 PUSH1 0x60 DUP3 ADD MSTORE PUSH1 0x0 PUSH1 0x80 DUP3 ADD MSTORE PUSH1 0x0 PUSH1 0xA0 DUP3 ADD MSTORE PUSH1 0x40 MLOAD SWAP2 PUSH3 0x3308 PUSH1 0xF DUP5 PUSH3 0x32E3 PUSH1 0x20 DUP3 ADD PUSH1 0x80 PUSH3 0x6983 JUMP JUMPDEST PUSH15 0x73746F6E65776F726B732E7765627 PUSH1 0x8C SHL DUP2 MSTORE SUB PUSH1 0x10 NOT DUP2 ADD DUP7 MSTORE ADD DUP5 PUSH3 0x695F JUMP JUMPDEST PUSH1 0x40 MLOAD SWAP4 PUSH3 0x3317 DUP6 PUSH3 0x6926 JUMP JUMPDEST PUSH1 0x40 MLOAD PUSH3 0x3325 DUP2 PUSH3 0x6943 JUMP JUMPDEST PUSH1 0xA DUP2 MSTORE PUSH10 0x53746F6E65776F726B73 PUSH1 0xB0 SHL PUSH1 0x20 DUP3 ADD MSTORE DUP6 MSTORE PUSH1 0x2 PUSH1 0x20 DUP7 ADD MSTORE PUSH1 0x40 DUP6 ADD MSTORE PUSH1 0x60 DUP5 ADD MSTORE PUSH1 0x6 PUSH1 0x80 DUP5 ADD MSTORE PUSH1 0x0 PUSH1 0xA0 DUP5 ADD MSTORE PUSH1 0x0 PUSH1 0xC0 DUP5 ADD MSTORE PUSH1 0x0 PUSH1 0xE0 DUP5 ADD MSTORE PUSH1 0x0 PUSH2 0x100 DUP5 ADD MSTORE PUSH2 0x120 DUP4 ADD MSTORE PUSH2 0xE10 PUSH2 0x140 DUP4 ADD MSTORE PUSH1 0x1 PUSH2 0x160 DUP4 ADD MSTORE PUSH2 0x180 DUP3 ADD MSTORE PUSH1 0x2A PUSH1 0x40 MLOAD PUSH10 0x53746F6E65776F726B73 PUSH1 0xB0 SHL DUP2 MSTORE PUSH1 0x2 PUSH1 0xA DUP3 ADD MSTORE KECCAK256 PUSH1 0x2 PUSH1 0x0 MSTORE PUSH1 0x20 MSTORE PUSH1 0x40 PUSH1 0x0 KECCAK256 SWAP1 DUP1 MLOAD DUP1 MLOAD SWAP1 PUSH1 0x1 DUP1 PUSH1 0x40 SHL SUB DUP3 GT PUSH3 0x4869 JUMPI DUP4 SLOAD PUSH1 0x1 DUP2 DUP2 SHR SWAP2 AND DUP1 ISZERO PUSH3 0x51A0 JUMPI JUMPDEST PUSH1 0x20 DUP3 LT EQ PUSH3 0x4848 JUMPI PUSH1 0x1F DUP2 GT PUSH3 0x5157 JUMPI JUMPDEST POP PUSH1 0x20 SWAP1 PUSH1 0x1F DUP4 GT PUSH1 0x1 EQ PUSH3 0x50E4 JUMPI PUSH2 0x180 SWAP4 SWAP3 SWAP2 PUSH1 0x0 SWAP2 DUP4 PUSH3 0x50D8 JUMPI JUMPDEST POP POP DUP2 PUSH1 0x1 SHL SWAP2 PUSH1 0x0 NOT SWAP1 PUSH1 0x3 SHL SHR NOT AND OR DUP4 SSTORE JUMPDEST PUSH1 0x20 DUP2 DUP2 ADD MLOAD PUSH1 0x1 DUP6 ADD SSTORE PUSH1 0x40 DUP1 DUP4 ADD MLOAD DUP1 MLOAD PUSH1 0x2 DUP8 ADD SSTORE SWAP2 DUP3 ADD MLOAD PUSH1 0x3 DUP7 ADD SSTORE DUP2 ADD MLOAD PUSH1 0x4 DUP6 ADD SSTORE PUSH1 0x60 DUP2 ADD MLOAD PUSH1 0x5 DUP6 ADD SSTORE PUSH1 0x80 DUP2 ADD MLOAD PUSH1 0x6 DUP6 ADD SSTORE PUSH1 0xA0 ADD MLOAD PUSH1 0x7 DUP5 ADD SSTORE PUSH1 0x60 DUP2 DUP2 ADD MLOAD DUP1 MLOAD PUSH1 0x8 DUP7 ADD SSTORE PUSH1 0x20 DUP2 ADD MLOAD PUSH1 0x9 DUP7 ADD SSTORE PUSH1 0x40 DUP2 ADD MLOAD PUSH1 0xA DUP7 ADD SSTORE SWAP1 DUP2 ADD MLOAD PUSH1 0xB DUP6 ADD SSTORE PUSH1 0x80 DUP2 ADD MLOAD PUSH1 0xC DUP6 ADD SSTORE PUSH1 0xA0 ADD MLOAD PUSH1 0xD DUP5 ADD SSTORE PUSH1 0x80 DUP2 DUP2 ADD MLOAD PUSH1 0xE DUP6 ADD SSTORE PUSH1 0xA0 DUP1 DUP4 ADD MLOAD PUSH1 0xF DUP7 ADD SSTORE PUSH1 0xC0 DUP4 ADD MLOAD PUSH1 0x10 DUP7 ADD SSTORE PUSH1 0xE0 DUP4 ADD MLOAD PUSH1 0x11 DUP7 ADD SSTORE PUSH2 0x100 DUP4 ADD MLOAD PUSH1 0x12 DUP7 ADD SSTORE PUSH2 0x120 DUP4 ADD MLOAD DUP1 MLOAD PUSH1 0x13 DUP8 ADD SSTORE PUSH1 0x20 DUP2 ADD MLOAD PUSH1 0x14 DUP8 ADD SSTORE PUSH1 0x40 DUP2 ADD MLOAD PUSH1 0x15 DUP8 ADD SSTORE PUSH1 0x60 DUP2 ADD MLOAD PUSH1 0x16 DUP8 ADD SSTORE SWAP2 DUP3 ADD MLOAD PUSH1 0x17 DUP7 ADD SSTORE ADD MLOAD PUSH1 0x18 DUP5 ADD SSTORE PUSH2 0x140 DUP2 ADD MLOAD PUSH1 0x19 DUP5 ADD SSTORE PUSH1 0x1A DUP4 ADD PUSH2 0x160 DUP3 ADD MLOAD ISZERO ISZERO PUSH1 0xFF DUP1 NOT DUP4 SLOAD AND SWAP2 AND OR SWAP1 SSTORE ADD MLOAD DUP1 MLOAD SWAP1 PUSH1 0x1 DUP1 PUSH1 0x40 SHL SUB DUP3 GT PUSH3 0x4869 JUMPI PUSH1 0x1B DUP4 ADD SLOAD PUSH1 0x1 DUP2 DUP2 SHR SWAP2 AND DUP1 ISZERO PUSH3 0x50CD JUMPI JUMPDEST PUSH1 0x20 DUP3 LT EQ PUSH3 0x4848 JUMPI PUSH1 0x1F DUP2 GT PUSH3 0x5081 JUMPI JUMPDEST POP PUSH1 0x20 SWAP1 PUSH1 0x1F DUP4 GT PUSH1 0x1 EQ PUSH3 0x500C JUMPI PUSH1 0x1B SWAP3 SWAP2 PUSH1 0x0 SWAP2 DUP4 PUSH3 0x5000 JUMPI JUMPDEST POP POP DUP2 PUSH1 0x1 SHL SWAP2 PUSH1 0x0 NOT SWAP1 PUSH1 0x3 SHL SHR NOT AND OR SWAP2 ADD SSTORE JUMPDEST PUSH1 0x40 MLOAD PUSH3 0x35BB DUP2 PUSH3 0x690A JUMP JUMPDEST PUSH1 0xC8 DUP2 MSTORE PUSH1 0x64 PUSH1 0x20 DUP3 ADD MSTORE PUSH1 0x78 PUSH1 0x40 DUP3 ADD MSTORE PUSH1 0x0 PUSH1 0x60 DUP3 ADD MSTORE PUSH1 0x0 PUSH1 0x80 DUP3 ADD MSTORE PUSH1 0x46 PUSH1 0xA0 DUP3 ADD MSTORE PUSH3 0x3621 PUSH1 0x40 MLOAD PUSH3 0x35F4 DUP2 PUSH3 0x690A JUMP JUMPDEST PUSH1 0xC8 DUP2 MSTORE PUSH1 0x64 PUSH1 0x20 DUP3 ADD MSTORE PUSH1 0x78 PUSH1 0x40 DUP3 ADD MSTORE PUSH1 0x0 PUSH1 0x60 DUP3 ADD MSTORE PUSH1 0x0 PUSH1 0x80 DUP3 ADD MSTORE PUSH1 0x46 PUSH1 0xA0 DUP3 ADD MSTORE PUSH3 0x69B0 JUMP JUMPDEST PUSH1 0x40 MLOAD PUSH3 0x362F DUP2 PUSH3 0x690A JUMP JUMPDEST PUSH1 0x0 DUP2 MSTORE PUSH1 0x0 PUSH1 0x20 DUP3 ADD MSTORE PUSH1 0x0 PUSH1 0x40 DUP3 ADD MSTORE PUSH1 0x0 PUSH1 0x60 DUP3 ADD MSTORE PUSH1 0xC8 PUSH1 0x80 DUP3 ADD MSTORE PUSH1 0x0 PUSH1 0xA0 DUP3 ADD MSTORE PUSH1 0x40 MLOAD SWAP2 PUSH3 0x3696 PUSH1 0xF DUP5 PUSH3 0x3671 PUSH1 0x20 DUP3 ADD PUSH1 0x80 PUSH3 0x6983 JUMP JUMPDEST PUSH15 0x737465656C776F726B732E7765627 PUSH1 0x8C SHL DUP2 MSTORE SUB PUSH1 0x10 NOT DUP2 ADD DUP7 MSTORE ADD DUP5 PUSH3 0x695F JUMP JUMPDEST PUSH1 0x40 MLOAD SWAP4 PUSH3 0x36A5 DUP6 PUSH3 0x6926 JUMP JUMPDEST PUSH1 0x40 MLOAD PUSH3 0x36B3 DUP2 PUSH3 0x6943 JUMP JUMPDEST PUSH1 0xA DUP2 MSTORE PUSH10 0x537465656C776F726B73 PUSH1 0xB0 SHL PUSH1 0x20 DUP3 ADD MSTORE DUP6 MSTORE PUSH1 0x2 PUSH1 0x20 DUP7 ADD MSTORE PUSH1 0x40 DUP6 ADD MSTORE PUSH1 0x60 DUP5 ADD MSTORE PUSH1 0x6 PUSH1 0x80 DUP5 ADD MSTORE PUSH1 0x0 PUSH1 0xA0 DUP5 ADD MSTORE PUSH1 0x0 PUSH1 0xC0 DUP5 ADD MSTORE PUSH1 0x0 PUSH1 0xE0 DUP5 ADD MSTORE PUSH1 0x0 PUSH2 0x100 DUP5 ADD MSTORE PUSH2 0x120 DUP4 ADD MSTORE PUSH2 0xE10 PUSH2 0x140 DUP4 ADD MSTORE PUSH1 0x1 PUSH2 0x160 DUP4 ADD MSTORE PUSH2 0x180 DUP3 ADD MSTORE PUSH1 0x2A PUSH1 0x40 MLOAD PUSH10 0x537465656C776F726B73 PUSH1 0xB0 SHL DUP2 MSTORE PUSH1 0x2 PUSH1 0xA DUP3 ADD MSTORE KECCAK256 PUSH1 0x2 PUSH1 0x0 MSTORE PUSH1 0x20 MSTORE PUSH1 0x40 PUSH1 0x0 KECCAK256 SWAP1 DUP1 MLOAD DUP1 MLOAD SWAP1 PUSH1 0x1 DUP1 PUSH1 0x40 SHL SUB DUP3 GT PUSH3 0x4869 JUMPI DUP4 SLOAD PUSH1 0x1 DUP2 DUP2 SHR SWAP2 AND DUP1 ISZERO PUSH3 0x4FF5 JUMPI JUMPDEST PUSH1 0x20 DUP3 LT EQ PUSH3 0x4848 JUMPI PUSH1 0x1F DUP2 GT PUSH3 0x4FAC JUMPI JUMPDEST POP PUSH1 0x20 SWAP1 PUSH1 0x1F DUP4 GT PUSH1 0x1 EQ PUSH3 0x4F39 JUMPI PUSH2 0x180 SWAP4 SWAP3 SWAP2 PUSH1 0x0 SWAP2 DUP4 PUSH3 0x4F2D JUMPI JUMPDEST POP POP DUP2 PUSH1 0x1 SHL SWAP2 PUSH1 0x0 NOT SWAP1 PUSH1 0x3 SHL SHR NOT AND OR DUP4 SSTORE JUMPDEST PUSH1 0x20 DUP2 DUP2 ADD MLOAD PUSH1 0x1 DUP6 ADD SSTORE PUSH1 0x40 DUP1 DUP4 ADD MLOAD DUP1 MLOAD PUSH1 0x2 DUP8 ADD SSTORE SWAP2 DUP3 ADD MLOAD PUSH1 0x3 DUP7 ADD SSTORE DUP2 ADD MLOAD PUSH1 0x4 DUP6 ADD SSTORE PUSH1 0x60 DUP2 ADD MLOAD PUSH1 0x5 DUP6 ADD SSTORE PUSH1 0x80 DUP2 ADD MLOAD PUSH1 0x6 DUP6 ADD SSTORE PUSH1 0xA0 ADD MLOAD PUSH1 0x7 DUP5 ADD SSTORE PUSH1 0x60 DUP2 DUP2 ADD MLOAD DUP1 MLOAD PUSH1 0x8 DUP7 ADD SSTORE PUSH1 0x20 DUP2 ADD MLOAD PUSH1 0x9 DUP7 ADD SSTORE PUSH1 0x40 DUP2 ADD MLOAD PUSH1 0xA DUP7 ADD SSTORE SWAP1 DUP2 ADD MLOAD PUSH1 0xB DUP6 ADD SSTORE PUSH1 0x80 DUP2 ADD MLOAD PUSH1 0xC DUP6 ADD SSTORE PUSH1 0xA0 ADD MLOAD PUSH1 0xD DUP5 ADD SSTORE PUSH1 0x80 DUP2 DUP2 ADD MLOAD PUSH1 0xE DUP6 ADD SSTORE PUSH1 0xA0 DUP1 DUP4 ADD MLOAD PUSH1 0xF DUP7 ADD SSTORE PUSH1 0xC0 DUP4 ADD MLOAD PUSH1 0x10 DUP7 ADD SSTORE PUSH1 0xE0 DUP4 ADD MLOAD PUSH1 0x11 DUP7 ADD SSTORE PUSH2 0x100 DUP4 ADD MLOAD PUSH1 0x12 DUP7 ADD SSTORE PUSH2 0x120 DUP4 ADD MLOAD DUP1 MLOAD PUSH1 0x13 DUP8 ADD SSTORE PUSH1 0x20 DUP2 ADD MLOAD PUSH1 0x14 DUP8 ADD SSTORE PUSH1 0x40 DUP2 ADD MLOAD PUSH1 0x15 DUP8 ADD SSTORE PUSH1 0x60 DUP2 ADD MLOAD PUSH1 0x16 DUP8 ADD SSTORE SWAP2 DUP3 ADD MLOAD PUSH1 0x17 DUP7 ADD SSTORE ADD MLOAD PUSH1 0x18 DUP5 ADD SSTORE PUSH2 0x140 DUP2 ADD MLOAD PUSH1 0x19 DUP5 ADD SSTORE PUSH1 0x1A DUP4 ADD PUSH2 0x160 DUP3 ADD MLOAD ISZERO ISZERO PUSH1 0xFF DUP1 NOT DUP4 SLOAD AND SWAP2 AND OR SWAP1 SSTORE ADD MLOAD DUP1 MLOAD SWAP1 PUSH1 0x1 DUP1 PUSH1 0x40 SHL SUB DUP3 GT PUSH3 0x4869 JUMPI PUSH1 0x1B DUP4 ADD SLOAD PUSH1 0x1 DUP2 DUP2 SHR SWAP2 AND DUP1 ISZERO PUSH3 0x4F22 JUMPI JUMPDEST PUSH1 0x20 DUP3 LT EQ PUSH3 0x4848 JUMPI PUSH1 0x1F DUP2 GT PUSH3 0x4ED6 JUMPI JUMPDEST POP PUSH1 0x20 SWAP1 PUSH1 0x1F DUP4 GT PUSH1 0x1 EQ PUSH3 0x4E61 JUMPI PUSH1 0x1B SWAP3 SWAP2 PUSH1 0x0 SWAP2 DUP4 PUSH3 0x4E55 JUMPI JUMPDEST POP POP DUP2 PUSH1 0x1 SHL SWAP2 PUSH1 0x0 NOT SWAP1 PUSH1 0x3 SHL SHR NOT AND OR SWAP2 ADD SSTORE JUMPDEST PUSH1 0x40 MLOAD PUSH3 0x3949 DUP2 PUSH3 0x690A JUMP JUMPDEST PUSH1 0xDC DUP2 MSTORE PUSH1 0x78 PUSH1 0x20 DUP3 ADD MSTORE PUSH1 0x50 PUSH1 0x40 DUP3 ADD MSTORE PUSH1 0x0 PUSH1 0x60 DUP3 ADD MSTORE PUSH1 0x0 PUSH1 0x80 DUP3 ADD MSTORE PUSH1 0x50 PUSH1 0xA0 DUP3 ADD MSTORE PUSH3 0x39AF PUSH1 0x40 MLOAD PUSH3 0x3982 DUP2 PUSH3 0x690A JUMP JUMPDEST PUSH1 0xDC DUP2 MSTORE PUSH1 0x78 PUSH1 0x20 DUP3 ADD MSTORE PUSH1 0x50 PUSH1 0x40 DUP3 ADD MSTORE PUSH1 0x0 PUSH1 0x60 DUP3 ADD MSTORE PUSH1 0x0 PUSH1 0x80 DUP3 ADD MSTORE PUSH1 0x50 PUSH1 0xA0 DUP3 ADD MSTORE PUSH3 0x69B0 JUMP JUMPDEST PUSH1 0x40 MLOAD PUSH3 0x39BD DUP2 PUSH3 0x690A JUMP JUMPDEST PUSH1 0x0 DUP2 MSTORE PUSH1 0x0 PUSH1 0x20 DUP3 ADD MSTORE PUSH1 0x0 PUSH1 0x40 DUP3 ADD MSTORE PUSH1 0xC8 PUSH1 0x60 DUP3 ADD MSTORE PUSH1 0x0 PUSH1 0x80 DUP3 ADD MSTORE PUSH1 0x0 PUSH1 0xA0 DUP3 ADD MSTORE PUSH1 0x40 MLOAD SWAP2 PUSH3 0x3A21 PUSH1 0xC DUP5 PUSH3 0x39FF PUSH1 0x20 DUP3 ADD PUSH1 0x80 PUSH3 0x6983 JUMP JUMPDEST PUSH12 0x666163746F72792E7765627 PUSH1 0xA4 SHL DUP2 MSTORE SUB PUSH1 0x13 NOT DUP2 ADD DUP7 MSTORE ADD DUP5 PUSH3 0x695F JUMP JUMPDEST PUSH1 0x40 MLOAD SWAP4 PUSH3 0x3A30 DUP6 PUSH3 0x6926 JUMP JUMPDEST PUSH1 0x40 MLOAD PUSH3 0x3A3E DUP2 PUSH3 0x6943 JUMP JUMPDEST PUSH1 0x7 DUP2 MSTORE PUSH7 0x466163746F7279 PUSH1 0xC8 SHL PUSH1 0x20 DUP3 ADD MSTORE DUP6 MSTORE PUSH1 0x2 PUSH1 0x20 DUP7 ADD MSTORE PUSH1 0x40 DUP6 ADD MSTORE PUSH1 0x60 DUP5 ADD MSTORE PUSH1 0xA PUSH1 0x80 DUP5 ADD MSTORE PUSH1 0x0 PUSH1 0xA0 DUP5 ADD MSTORE PUSH1 0x0 PUSH1 0xC0 DUP5 ADD MSTORE PUSH1 0x0 PUSH1 0xE0 DUP5 ADD MSTORE PUSH1 0x0 PUSH2 0x100 DUP5 ADD MSTORE PUSH2 0x120 DUP4 ADD MSTORE PUSH2 0xE10 PUSH2 0x140 DUP4 ADD MSTORE PUSH1 0x1 PUSH2 0x160 DUP4 ADD MSTORE PUSH2 0x180 DUP3 ADD MSTORE PUSH1 0x27 PUSH1 0x40 MLOAD PUSH7 0x466163746F7279 PUSH1 0xC8 SHL DUP2 MSTORE PUSH1 0x2 PUSH1 0x7 DUP3 ADD MSTORE KECCAK256 PUSH1 0x2 PUSH1 0x0 MSTORE PUSH1 0x20 MSTORE PUSH1 0x40 PUSH1 0x0 KECCAK256 SWAP1 DUP1 MLOAD DUP1 MLOAD SWAP1 PUSH1 0x1 DUP1 PUSH1 0x40 SHL SUB DUP3 GT PUSH3 0x4869 JUMPI DUP4 SLOAD PUSH1 0x1 DUP2 DUP2 SHR SWAP2 AND DUP1 ISZERO PUSH3 0x4E4A JUMPI JUMPDEST PUSH1 0x20 DUP3 LT EQ PUSH3 0x4848 JUMPI PUSH1 0x1F DUP2 GT PUSH3 0x4E01 JUMPI JUMPDEST POP PUSH1 0x20 SWAP1 PUSH1 0x1F DUP4 GT PUSH1 0x1 EQ PUSH3 0x4D8E JUMPI PUSH2 0x180 SWAP4 SWAP3 SWAP2 PUSH1 0x0 SWAP2 DUP4 PUSH3 0x4D82 JUMPI JUMPDEST POP POP DUP2 PUSH1 0x1 SHL SWAP2 PUSH1 0x0 NOT SWAP1 PUSH1 0x3 SHL SHR NOT AND OR DUP4 SSTORE JUMPDEST PUSH1 0x20 DUP2 DUP2 ADD MLOAD PUSH1 0x1 DUP6 ADD SSTORE PUSH1 0x40 DUP1 DUP4 ADD MLOAD DUP1 MLOAD PUSH1 0x2 DUP8 ADD SSTORE SWAP2 DUP3 ADD MLOAD PUSH1 0x3 DUP7 ADD SSTORE DUP2 ADD MLOAD PUSH1 0x4 DUP6 ADD SSTORE PUSH1 0x60 DUP2 ADD MLOAD PUSH1 0x5 DUP6 ADD SSTORE PUSH1 0x80 DUP2 ADD MLOAD PUSH1 0x6 DUP6 ADD SSTORE PUSH1 0xA0 ADD MLOAD PUSH1 0x7 DUP5 ADD SSTORE PUSH1 0x60 DUP2 DUP2 ADD MLOAD DUP1 MLOAD PUSH1 0x8 DUP7 ADD SSTORE PUSH1 0x20 DUP2 ADD MLOAD PUSH1 0x9 DUP7 ADD SSTORE PUSH1 0x40 DUP2 ADD MLOAD PUSH1 0xA DUP7 ADD SSTORE SWAP1 DUP2 ADD MLOAD PUSH1 0xB DUP6 ADD SSTORE PUSH1 0x80 DUP2 ADD MLOAD PUSH1 0xC DUP6 ADD SSTORE PUSH1 0xA0 ADD MLOAD PUSH1 0xD DUP5 ADD SSTORE PUSH1 0x80 DUP2 DUP2 ADD MLOAD PUSH1 0xE DUP6 ADD SSTORE PUSH1 0xA0 DUP1 DUP4 ADD MLOAD PUSH1 0xF DUP7 ADD SSTORE PUSH1 0xC0 DUP4 ADD MLOAD PUSH1 0x10 DUP7 ADD SSTORE PUSH1 0xE0 DUP4 ADD MLOAD PUSH1 0x11 DUP7 ADD SSTORE PUSH2 0x100 DUP4 ADD MLOAD PUSH1 0x12 DUP7 ADD SSTORE PUSH2 0x120 DUP4 ADD MLOAD DUP1 MLOAD PUSH1 0x13 DUP8 ADD SSTORE PUSH1 0x20 DUP2 ADD MLOAD PUSH1 0x14 DUP8 ADD SSTORE PUSH1 0x40 DUP2 ADD MLOAD PUSH1 0x15 DUP8 ADD SSTORE PUSH1 0x60 DUP2 ADD MLOAD PUSH1 0x16 DUP8 ADD SSTORE SWAP2 DUP3 ADD MLOAD PUSH1 0x17 DUP7 ADD SSTORE ADD MLOAD PUSH1 0x18 DUP5 ADD SSTORE PUSH2 0x140 DUP2 ADD MLOAD PUSH1 0x19 DUP5 ADD SSTORE PUSH1 0x1A DUP4 ADD PUSH2 0x160 DUP3 ADD MLOAD ISZERO ISZERO PUSH1 0xFF DUP1 NOT DUP4 SLOAD AND SWAP2 AND OR SWAP1 SSTORE ADD MLOAD DUP1 MLOAD SWAP1 PUSH1 0x1 DUP1 PUSH1 0x40 SHL SUB DUP3 GT PUSH3 0x4869 JUMPI PUSH1 0x1B DUP4 ADD SLOAD PUSH1 0x1 DUP2 DUP2 SHR SWAP2 AND DUP1 ISZERO PUSH3 0x4D77 JUMPI JUMPDEST PUSH1 0x20 DUP3 LT EQ PUSH3 0x4848 JUMPI PUSH1 0x1F DUP2 GT PUSH3 0x4D2B JUMPI JUMPDEST POP PUSH1 0x20 SWAP1 PUSH1 0x1F DUP4 GT PUSH1 0x1 EQ PUSH3 0x4CB6 JUMPI PUSH1 0x1B SWAP3 SWAP2 PUSH1 0x0 SWAP2 DUP4 PUSH3 0x4CAA JUMPI JUMPDEST POP POP DUP2 PUSH1 0x1 SHL SWAP2 PUSH1 0x0 NOT SWAP1 PUSH1 0x3 SHL SHR NOT AND OR SWAP2 ADD SSTORE JUMPDEST PUSH1 0x40 MLOAD PUSH3 0x3CCE DUP2 PUSH3 0x690A JUMP JUMPDEST PUSH1 0xF0 DUP2 MSTORE PUSH1 0x64 PUSH1 0x20 DUP3 ADD MSTORE PUSH1 0x64 PUSH1 0x40 DUP3 ADD MSTORE PUSH1 0x0 PUSH1 0x60 DUP3 ADD MSTORE PUSH1 0x0 PUSH1 0x80 DUP3 ADD MSTORE PUSH1 0x64 PUSH1 0xA0 DUP3 ADD MSTORE PUSH3 0x3D34 PUSH1 0x40 MLOAD PUSH3 0x3D07 DUP2 PUSH3 0x690A JUMP JUMPDEST PUSH1 0xF0 DUP2 MSTORE PUSH1 0x64 PUSH1 0x20 DUP3 ADD MSTORE PUSH1 0x64 PUSH1 0x40 DUP3 ADD MSTORE PUSH1 0x0 PUSH1 0x60 DUP3 ADD MSTORE PUSH1 0x0 PUSH1 0x80 DUP3 ADD MSTORE PUSH1 0x64 PUSH1 0xA0 DUP3 ADD MSTORE PUSH3 0x69B0 JUMP JUMPDEST PUSH1 0x40 MLOAD PUSH3 0x3D42 DUP2 PUSH3 0x690A JUMP JUMPDEST PUSH1 0x0 DUP2 MSTORE PUSH1 0x0 PUSH1 0x20 DUP3 ADD MSTORE PUSH1 0x0 PUSH1 0x40 DUP3 ADD MSTORE PUSH1 0x0 PUSH1 0x60 DUP3 ADD MSTORE PUSH1 0x0 PUSH1 0x80 DUP3 ADD MSTORE PUSH1 0xC8 PUSH1 0xA0 DUP3 ADD MSTORE PUSH1 0x40 MLOAD SWAP2 PUSH3 0x3DAA PUSH1 0x10 DUP5 PUSH3 0x3D84 PUSH1 0x20 DUP3 ADD PUSH1 0x80 PUSH3 0x6983 JUMP JUMPDEST PUSH16 0x74726164696E67706F73742E7765627 PUSH1 0x84 SHL DUP2 MSTORE SUB PUSH1 0xF NOT DUP2 ADD DUP7 MSTORE ADD DUP5 PUSH3 0x695F JUMP JUMPDEST PUSH1 0x40 MLOAD SWAP4 PUSH3 0x3DB9 DUP6 PUSH3 0x6926 JUMP JUMPDEST PUSH1 0x40 MLOAD PUSH3 0x3DC7 DUP2 PUSH3 0x6943 JUMP JUMPDEST PUSH1 0xC DUP2 MSTORE PUSH12 0x151C98591A5B99C8141BDCDD PUSH1 0xA2 SHL PUSH1 0x20 DUP3 ADD MSTORE DUP6 MSTORE PUSH1 0x2 PUSH1 0x20 DUP7 ADD MSTORE PUSH1 0x40 DUP6 ADD MSTORE PUSH1 0x60 DUP5 ADD MSTORE PUSH1 0x0 PUSH1 0x80 DUP5 ADD MSTORE PUSH1 0x6 PUSH1 0xA0 DUP5 ADD MSTORE PUSH1 0x0 PUSH1 0xC0 DUP5 ADD MSTORE PUSH1 0x2 PUSH1 0xE0 DUP5 ADD MSTORE PUSH1 0x0 PUSH2 0x100 DUP5 ADD MSTORE PUSH2 0x120 DUP4 ADD MSTORE PUSH2 0xE10 PUSH2 0x140 DUP4 ADD MSTORE PUSH1 0x1 PUSH2 0x160 DUP4 ADD MSTORE PUSH2 0x180 DUP3 ADD MSTORE PUSH1 0x2C PUSH1 0x40 MLOAD PUSH12 0x151C98591A5B99C8141BDCDD PUSH1 0xA2 SHL DUP2 MSTORE PUSH1 0x2 PUSH1 0xC DUP3 ADD MSTORE KECCAK256 PUSH1 0x2 PUSH1 0x0 MSTORE PUSH1 0x20 MSTORE PUSH1 0x40 PUSH1 0x0 KECCAK256 SWAP1 DUP1 MLOAD DUP1 MLOAD SWAP1 PUSH1 0x1 DUP1 PUSH1 0x40 SHL SUB DUP3 GT PUSH3 0x4869 JUMPI DUP4 SLOAD PUSH1 0x1 DUP2 DUP2 SHR SWAP2 AND DUP1 ISZERO PUSH3 0x4C9F JUMPI JUMPDEST PUSH1 0x20 DUP3 LT EQ PUSH3 0x4848 JUMPI PUSH1 0x1F DUP2 GT PUSH3 0x4C56 JUMPI JUMPDEST POP PUSH1 0x20 SWAP1 PUSH1 0x1F DUP4 GT PUSH1 0x1 EQ PUSH3 0x4BE3 JUMPI PUSH2 0x180 SWAP4 SWAP3 SWAP2 PUSH1 0x0 SWAP2 DUP4 PUSH3 0x4BD7 JUMPI JUMPDEST POP POP DUP2 PUSH1 0x1 SHL SWAP2 PUSH1 0x0 NOT SWAP1 PUSH1 0x3 SHL SHR NOT AND OR DUP4 SSTORE JUMPDEST PUSH1 0x20 DUP2 DUP2 ADD MLOAD PUSH1 0x1 DUP6 ADD SSTORE PUSH1 0x40 DUP1 DUP4 ADD MLOAD DUP1 MLOAD PUSH1 0x2 DUP8 ADD SSTORE SWAP2 DUP3 ADD MLOAD PUSH1 0x3 DUP7 ADD SSTORE DUP2 ADD MLOAD PUSH1 0x4 DUP6 ADD SSTORE PUSH1 0x60 DUP2 ADD MLOAD PUSH1 0x5 DUP6 ADD SSTORE PUSH1 0x80 DUP2 ADD MLOAD PUSH1 0x6 DUP6 ADD SSTORE PUSH1 0xA0 ADD MLOAD PUSH1 0x7 DUP5 ADD SSTORE PUSH1 0x60 DUP2 DUP2 ADD MLOAD DUP1 MLOAD PUSH1 0x8 DUP7 ADD SSTORE PUSH1 0x20 DUP2 ADD MLOAD PUSH1 0x9 DUP7 ADD SSTORE PUSH1 0x40 DUP2 ADD MLOAD PUSH1 0xA DUP7 ADD SSTORE SWAP1 DUP2 ADD MLOAD PUSH1 0xB DUP6 ADD SSTORE PUSH1 0x80 DUP2 ADD MLOAD PUSH1 0xC DUP6 ADD SSTORE PUSH1 0xA0 ADD MLOAD PUSH1 0xD DUP5 ADD SSTORE PUSH1 0x80 DUP2 DUP2 ADD MLOAD PUSH1 0xE DUP6 ADD SSTORE PUSH1 0xA0 DUP1 DUP4 ADD MLOAD PUSH1 0xF DUP7 ADD SSTORE PUSH1 0xC0 DUP4 ADD MLOAD PUSH1 0x10 DUP7 ADD SSTORE PUSH1 0xE0 DUP4 ADD MLOAD PUSH1 0x11 DUP7 ADD SSTORE PUSH2 0x100 DUP4 ADD MLOAD PUSH1 0x12 DUP7 ADD SSTORE PUSH2 0x120 DUP4 ADD MLOAD DUP1 MLOAD PUSH1 0x13 DUP8 ADD SSTORE PUSH1 0x20 DUP2 ADD MLOAD PUSH1 0x14 DUP8 ADD SSTORE PUSH1 0x40 DUP2 ADD MLOAD PUSH1 0x15 DUP8 ADD SSTORE PUSH1 0x60 DUP2 ADD MLOAD PUSH1 0x16 DUP8 ADD SSTORE SWAP2 DUP3 ADD MLOAD PUSH1 0x17 DUP7 ADD SSTORE ADD MLOAD PUSH1 0x18 DUP5 ADD SSTORE PUSH2 0x140 DUP2 ADD MLOAD PUSH1 0x19 DUP5 ADD SSTORE PUSH1 0x1A DUP4 ADD PUSH2 0x160 DUP3 ADD MLOAD ISZERO ISZERO PUSH1 0xFF DUP1 NOT DUP4 SLOAD AND SWAP2 AND OR SWAP1 SSTORE ADD MLOAD DUP1 MLOAD SWAP1 PUSH1 0x1 DUP1 PUSH1 0x40 SHL SUB DUP3 GT PUSH3 0x4869 JUMPI PUSH1 0x1B DUP4 ADD SLOAD PUSH1 0x1 DUP2 DUP2 SHR SWAP2 AND DUP1 ISZERO PUSH3 0x4BCC JUMPI JUMPDEST PUSH1 0x20 DUP3 LT EQ PUSH3 0x4848 JUMPI PUSH1 0x1F DUP2 GT PUSH3 0x4B80 JUMPI JUMPDEST POP PUSH1 0x20 SWAP1 PUSH1 0x1F DUP4 GT PUSH1 0x1 EQ PUSH3 0x4B0B JUMPI PUSH1 0x1B SWAP3 SWAP2 PUSH1 0x0 SWAP2 DUP4 PUSH3 0x4AFF JUMPI JUMPDEST POP POP DUP2 PUSH1 0x1 SHL SWAP2 PUSH1 0x0 NOT SWAP1 PUSH1 0x3 SHL SHR NOT AND OR SWAP2 ADD SSTORE JUMPDEST PUSH1 0x40 MLOAD PUSH3 0x4061 DUP2 PUSH3 0x690A JUMP JUMPDEST PUSH3 0x40C8 PUSH2 0x104 DUP1 DUP4 MSTORE PUSH1 0x8C PUSH1 0x20 DUP5 ADD MSTORE PUSH1 0x78 PUSH1 0x40 DUP5 ADD MSTORE PUSH1 0x0 PUSH1 0x60 DUP5 ADD MSTORE PUSH1 0x0 PUSH1 0x80 DUP5 ADD MSTORE PUSH1 0x78 PUSH1 0xA0 DUP5 ADD MSTORE PUSH1 0x40 MLOAD SWAP1 PUSH3 0x409D DUP3 PUSH3 0x690A JUMP JUMPDEST DUP2 MSTORE PUSH1 0x8C PUSH1 0x20 DUP3 ADD MSTORE PUSH1 0x78 PUSH1 0x40 DUP3 ADD MSTORE PUSH1 0x0 PUSH1 0x60 DUP3 ADD MSTORE PUSH1 0x0 PUSH1 0x80 DUP3 ADD MSTORE PUSH1 0x78 PUSH1 0xA0 DUP3 ADD MSTORE PUSH3 0x69B0 JUMP JUMPDEST PUSH1 0x40 MLOAD PUSH3 0x40D6 DUP2 PUSH3 0x690A JUMP JUMPDEST PUSH1 0x0 DUP2 MSTORE PUSH1 0x0 PUSH1 0x20 DUP3 ADD MSTORE PUSH1 0x0 PUSH1 0x40 DUP3 ADD MSTORE PUSH1 0x0 PUSH1 0x60 DUP3 ADD MSTORE PUSH1 0x0 PUSH1 0x80 DUP3 ADD MSTORE PUSH1 0x0 PUSH1 0xA0 DUP3 ADD MSTORE PUSH1 0x40 MLOAD SWAP2 PUSH3 0x413B PUSH1 0xD DUP5 PUSH3 0x4118 PUSH1 0x20 DUP3 ADD PUSH1 0x80 PUSH3 0x6983 JUMP JUMPDEST PUSH13 0x666F7274726573732E7765627 PUSH1 0x9C SHL DUP2 MSTORE SUB PUSH1 0x12 NOT DUP2 ADD DUP7 MSTORE ADD DUP5 PUSH3 0x695F JUMP JUMPDEST PUSH1 0x40 MLOAD SWAP4 PUSH3 0x414A DUP6 PUSH3 0x6926 JUMP JUMPDEST PUSH1 0x40 MLOAD PUSH3 0x4158 DUP2 PUSH3 0x6943 JUMP JUMPDEST PUSH1 0x8 DUP2 MSTORE PUSH8 0x466F727472657373 PUSH1 0xC0 SHL PUSH1 0x20 DUP3 ADD MSTORE DUP6 MSTORE PUSH1 0x2 PUSH1 0x20 DUP7 ADD MSTORE PUSH1 0x40 DUP6 ADD MSTORE PUSH1 0x60 DUP5 ADD MSTORE PUSH1 0x0 PUSH1 0x80 DUP5 ADD MSTORE PUSH1 0x0 PUSH1 0xA0 DUP5 ADD MSTORE PUSH1 0x0 PUSH1 0xC0 DUP5 ADD MSTORE PUSH1 0x0 PUSH1 0xE0 DUP5 ADD MSTORE PUSH1 0xA PUSH2 0x100 DUP5 ADD MSTORE PUSH2 0x120 DUP4 ADD MSTORE PUSH2 0xE10 PUSH2 0x140 DUP4 ADD MSTORE PUSH1 0x1 PUSH2 0x160 DUP4 ADD MSTORE PUSH2 0x180 DUP3 ADD MSTORE PUSH1 0x28 PUSH1 0x40 MLOAD PUSH8 0x466F727472657373 PUSH1 0xC0 SHL DUP2 MSTORE PUSH1 0x2 PUSH1 0x8 DUP3 ADD MSTORE KECCAK256 PUSH1 0x2 PUSH1 0x0 MSTORE PUSH1 0x20 MSTORE PUSH1 0x40 PUSH1 0x0 KECCAK256 SWAP1 DUP1 MLOAD DUP1 MLOAD SWAP1 PUSH1 0x1 DUP1 PUSH1 0x40 SHL SUB DUP3 GT PUSH3 0x4869 JUMPI DUP4 SLOAD PUSH1 0x1 DUP2 DUP2 SHR SWAP2 AND DUP1 ISZERO PUSH3 0x4AF4 JUMPI JUMPDEST PUSH1 0x20 DUP3 LT EQ PUSH3 0x4848 JUMPI PUSH1 0x1F DUP2 GT PUSH3 0x4AAB JUMPI JUMPDEST POP PUSH1 0x20 SWAP1 PUSH1 0x1F DUP4 GT PUSH1 0x1 EQ PUSH3 0x4A38 JUMPI PUSH2 0x180 SWAP4 SWAP3 SWAP2 PUSH1 0x0 SWAP2 DUP4 PUSH3 0x4A2C JUMPI JUMPDEST POP POP DUP2 PUSH1 0x1 SHL SWAP2 PUSH1 0x0 NOT SWAP1 PUSH1 0x3 SHL SHR NOT AND OR DUP4 SSTORE JUMPDEST PUSH1 0x20 DUP2 DUP2 ADD MLOAD PUSH1 0x1 DUP6 ADD SSTORE PUSH1 0x40 DUP1 DUP4 ADD MLOAD DUP1 MLOAD PUSH1 0x2 DUP8 ADD SSTORE SWAP2 DUP3 ADD MLOAD PUSH1 0x3 DUP7 ADD SSTORE DUP2 ADD MLOAD PUSH1 0x4 DUP6 ADD SSTORE PUSH1 0x60 DUP2 ADD MLOAD PUSH1 0x5 DUP6 ADD SSTORE PUSH1 0x80 DUP2 ADD MLOAD PUSH1 0x6 DUP6 ADD SSTORE PUSH1 0xA0 ADD MLOAD PUSH1 0x7 DUP5 ADD SSTORE PUSH1 0x60 DUP2 DUP2 ADD MLOAD DUP1 MLOAD PUSH1 0x8 DUP7 ADD SSTORE PUSH1 0x20 DUP2 ADD MLOAD PUSH1 0x9 DUP7 ADD SSTORE PUSH1 0x40 DUP2 ADD MLOAD PUSH1 0xA DUP7 ADD SSTORE SWAP1 DUP2 ADD MLOAD PUSH1 0xB DUP6 ADD SSTORE PUSH1 0x80 DUP2 ADD MLOAD PUSH1 0xC DUP6 ADD SSTORE PUSH1 0xA0 ADD MLOAD PUSH1 0xD DUP5 ADD SSTORE PUSH1 0x80 DUP2 DUP2 ADD MLOAD PUSH1 0xE DUP6 ADD SSTORE PUSH1 0xA0 DUP1 DUP4 ADD MLOAD PUSH1 0xF DUP7 ADD SSTORE PUSH1 0xC0 DUP4 ADD MLOAD PUSH1 0x10 DUP7 ADD SSTORE PUSH1 0xE0 DUP4 ADD MLOAD PUSH1 0x11 DUP7 ADD SSTORE PUSH2 0x100 DUP4 ADD MLOAD PUSH1 0x12 DUP7 ADD SSTORE PUSH2 0x120 DUP4 ADD MLOAD DUP1 MLOAD PUSH1 0x13 DUP8 ADD SSTORE PUSH1 0x20 DUP2 ADD MLOAD PUSH1 0x14 DUP8 ADD SSTORE PUSH1 0x40 DUP2 ADD MLOAD PUSH1 0x15 DUP8 ADD SSTORE PUSH1 0x60 DUP2 ADD MLOAD PUSH1 0x16 DUP8 ADD SSTORE SWAP2 DUP3 ADD MLOAD PUSH1 0x17 DUP7 ADD SSTORE ADD MLOAD PUSH1 0x18 DUP5 ADD SSTORE PUSH2 0x140 DUP2 ADD MLOAD PUSH1 0x19 DUP5 ADD SSTORE PUSH1 0x1A DUP4 ADD PUSH2 0x160 DUP3 ADD MLOAD ISZERO ISZERO PUSH1 0xFF DUP1 NOT DUP4 SLOAD AND SWAP2 AND OR SWAP1 SSTORE ADD MLOAD DUP1 MLOAD SWAP1 PUSH1 0x1 DUP1 PUSH1 0x40 SHL SUB DUP3 GT PUSH3 0x4869 JUMPI PUSH1 0x1B DUP4 ADD SLOAD PUSH1 0x1 DUP2 DUP2 SHR SWAP2 AND DUP1 ISZERO PUSH3 0x4A21 JUMPI JUMPDEST PUSH1 0x20 DUP3 LT EQ PUSH3 0x4848 JUMPI PUSH1 0x1F DUP2 GT PUSH3 0x49D5 JUMPI JUMPDEST POP PUSH1 0x20 SWAP1 PUSH1 0x1F DUP4 GT PUSH1 0x1 EQ PUSH3 0x4960 JUMPI PUSH1 0x1B SWAP3 SWAP2 PUSH1 0x0 SWAP2 DUP4 PUSH3 0x4954 JUMPI JUMPDEST POP POP DUP2 PUSH1 0x1 SHL SWAP2 PUSH1 0x0 NOT SWAP1 PUSH1 0x3 SHL SHR NOT AND OR SWAP2 ADD SSTORE JUMPDEST PUSH1 0x40 MLOAD PUSH3 0x43EA DUP2 PUSH3 0x690A JUMP JUMPDEST PUSH2 0x140 DUP2 MSTORE PUSH1 0xB4 PUSH1 0x20 DUP3 ADD MSTORE PUSH1 0xA0 PUSH1 0x40 DUP3 ADD MSTORE PUSH1 0x0 PUSH1 0x60 DUP3 ADD MSTORE PUSH1 0x0 PUSH1 0x80 DUP3 ADD MSTORE PUSH1 0xB4 PUSH1 0xA0 DUP3 ADD MSTORE PUSH3 0x4452 PUSH1 0x40 MLOAD PUSH3 0x4424 DUP2 PUSH3 0x690A JUMP JUMPDEST PUSH2 0x140 DUP2 MSTORE PUSH1 0xB4 PUSH1 0x20 DUP3 ADD MSTORE PUSH1 0xA0 PUSH1 0x40 DUP3 ADD MSTORE PUSH1 0x0 PUSH1 0x60 DUP3 ADD MSTORE PUSH1 0x0 PUSH1 0x80 DUP3 ADD MSTORE PUSH1 0xB4 PUSH1 0xA0 DUP3 ADD MSTORE PUSH3 0x69B0 JUMP JUMPDEST PUSH1 0x40 MLOAD PUSH3 0x4460 DUP2 PUSH3 0x690A JUMP JUMPDEST PUSH1 0x0 DUP2 MSTORE PUSH1 0x0 PUSH1 0x20 DUP3 ADD MSTORE PUSH1 0x0 PUSH1 0x40 DUP3 ADD MSTORE PUSH1 0x0 PUSH1 0x60 DUP3 ADD MSTORE PUSH1 0x0 PUSH1 0x80 DUP3 ADD MSTORE PUSH1 0x0 PUSH1 0xA0 DUP3 ADD MSTORE PUSH1 0x40 MLOAD SWAP2 PUSH3 0x44CA PUSH1 0x12 DUP5 PUSH3 0x44A2 PUSH1 0x20 DUP3 ADD PUSH1 0x80 PUSH3 0x6983 JUMP JUMPDEST PUSH18 0x636176616C72797363686F6F6C2E7765627 PUSH1 0x74 SHL DUP2 MSTORE SUB PUSH1 0xD NOT DUP2 ADD DUP7 MSTORE ADD DUP5 PUSH3 0x695F JUMP JUMPDEST PUSH1 0x40 MLOAD SWAP4 PUSH3 0x44D9 DUP6 PUSH3 0x6926 JUMP JUMPDEST PUSH1 0x40 MLOAD PUSH3 0x44E7 DUP2 PUSH3 0x6943 JUMP JUMPDEST PUSH1 0xE DUP2 MSTORE PUSH14 0x10D85D985B1C9E4814D8DA1BDBDB PUSH1 0x92 SHL PUSH1 0x20 DUP3 ADD MSTORE DUP6 MSTORE PUSH1 0x2 PUSH1 0x20 DUP7 ADD MSTORE PUSH1 0x40 DUP6 ADD MSTORE PUSH1 0x60 DUP5 ADD MSTORE PUSH1 0x0 PUSH1 0x80 DUP5 ADD MSTORE PUSH1 0x0 PUSH1 0xA0 DUP5 ADD MSTORE PUSH1 0x0 PUSH1 0xC0 DUP5 ADD MSTORE PUSH1 0x0 PUSH1 0xE0 DUP5 ADD MSTORE PUSH1 0x6 PUSH2 0x100 DUP5 ADD MSTORE PUSH2 0x120 DUP4 ADD MSTORE PUSH2 0xE10 PUSH2 0x140 DUP4 ADD MSTORE PUSH1 0x1 PUSH2 0x160 DUP4 ADD MSTORE PUSH2 0x180 DUP3 ADD MSTORE PUSH1 0x2E PUSH1 0x40 MLOAD PUSH14 0x10D85D985B1C9E4814D8DA1BDBDB PUSH1 0x92 SHL DUP2 MSTORE PUSH1 0x2 PUSH1 0xE DUP3 ADD MSTORE KECCAK256 PUSH1 0x2 PUSH1 0x0 MSTORE PUSH1 0x20 MSTORE PUSH1 0x40 PUSH1 0x0 KECCAK256 DUP2 MLOAD DUP1 MLOAD SWAP1 PUSH1 0x1 DUP1 PUSH1 0x40 SHL SUB DUP3 GT PUSH3 0x4869 JUMPI DUP3 SLOAD PUSH1 0x1 DUP2 DUP2 SHR SWAP2 AND DUP1 ISZERO PUSH3 0x4949 JUMPI JUMPDEST PUSH1 0x20 DUP3 LT EQ PUSH3 0x4848 JUMPI PUSH1 0x1F DUP2 GT PUSH3 0x4900 JUMPI JUMPDEST POP PUSH1 0x20 SWAP1 PUSH1 0x1F DUP4 GT PUSH1 0x1 EQ PUSH3 0x488B JUMPI SWAP2 DUP1 PUSH2 0x180 SWAP5 SWAP3 PUSH1 0x1B SWAP5 PUSH1 0x0 SWAP3 PUSH3 0x487F JUMPI JUMPDEST POP POP DUP2 PUSH1 0x1 SHL SWAP2 PUSH1 0x0 NOT SWAP1 PUSH1 0x3 SHL SHR NOT AND OR DUP2 SSTORE JUMPDEST PUSH1 0x20 DUP5 DUP2 ADD MLOAD PUSH1 0x1 DUP4 ADD SSTORE PUSH1 0x40 DUP1 DUP7 ADD MLOAD DUP1 MLOAD PUSH1 0x2 DUP6 ADD SSTORE SWAP2 DUP3 ADD MLOAD PUSH1 0x3 DUP5 ADD SSTORE DUP2 ADD MLOAD PUSH1 0x4 DUP4 ADD SSTORE PUSH1 0x60 DUP2 ADD MLOAD PUSH1 0x5 DUP4 ADD SSTORE PUSH1 0x80 DUP2 ADD MLOAD PUSH1 0x6 DUP4 ADD SSTORE PUSH1 0xA0 ADD MLOAD PUSH1 0x7 DUP3 ADD SSTORE PUSH1 0x60 DUP5 DUP2 ADD MLOAD DUP1 MLOAD PUSH1 0x8 DUP5 ADD SSTORE PUSH1 0x20 DUP2 ADD MLOAD PUSH1 0x9 DUP5 ADD SSTORE PUSH1 0x40 DUP2 ADD MLOAD PUSH1 0xA DUP5 ADD SSTORE SWAP1 DUP2 ADD MLOAD PUSH1 0xB DUP4 ADD SSTORE PUSH1 0x80 DUP2 ADD MLOAD PUSH1 0xC DUP4 ADD SSTORE PUSH1 0xA0 ADD MLOAD PUSH1 0xD DUP3 ADD SSTORE PUSH1 0x80 DUP5 DUP2 ADD MLOAD PUSH1 0xE DUP4 ADD SSTORE PUSH1 0xA0 DUP1 DUP7 ADD MLOAD PUSH1 0xF DUP5 ADD SSTORE PUSH1 0xC0 DUP7 ADD MLOAD PUSH1 0x10 DUP5 ADD SSTORE PUSH1 0xE0 DUP7 ADD MLOAD PUSH1 0x11 DUP5 ADD SSTORE PUSH2 0x100 DUP7 ADD MLOAD PUSH1 0x12 DUP5 ADD SSTORE PUSH2 0x120 DUP7 ADD MLOAD DUP1 MLOAD PUSH1 0x13 DUP6 ADD SSTORE PUSH1 0x20 DUP2 ADD MLOAD PUSH1 0x14 DUP6 ADD SSTORE PUSH1 0x40 DUP2 ADD MLOAD PUSH1 0x15 DUP6 ADD SSTORE PUSH1 0x60 DUP2 ADD MLOAD PUSH1 0x16 DUP6 ADD SSTORE SWAP2 DUP3 ADD MLOAD PUSH1 0x17 DUP5 ADD SSTORE ADD MLOAD PUSH1 0x18 DUP3 ADD SSTORE PUSH2 0x140 DUP5 ADD MLOAD PUSH1 0x19 DUP3 ADD SSTORE PUSH1 0x1A DUP2 ADD PUSH2 0x160 DUP6 ADD MLOAD ISZERO ISZERO PUSH1 0xFF DUP1 NOT DUP4 SLOAD AND SWAP2 AND OR SWAP1 SSTORE ADD SWAP2 ADD MLOAD SWAP1 DUP2 MLOAD PUSH1 0x1 DUP1 PUSH1 0x40 SHL SUB DUP2 GT PUSH3 0x4869 JUMPI DUP2 SLOAD PUSH1 0x1 DUP2 DUP2 SHR SWAP2 AND DUP1 ISZERO PUSH3 0x485E JUMPI JUMPDEST PUSH1 0x20 DUP3 LT EQ PUSH3 0x4848 JUMPI PUSH1 0x1F DUP2 GT PUSH3 0x47FB JUMPI JUMPDEST POP PUSH1 0x20 SWAP3 PUSH1 0x1F DUP3 GT PUSH1 0x1 EQ PUSH3 0x4792 JUMPI SWAP3 DUP2 SWAP3 SWAP4 PUSH1 0x0 SWAP3 PUSH3 0x4786 JUMPI JUMPDEST POP POP DUP2 PUSH1 0x1 SHL SWAP2 PUSH1 0x0 NOT SWAP1 PUSH1 0x3 SHL SHR NOT AND OR SWAP1 SSTORE JUMPDEST PUSH1 0x40 MLOAD PUSH2 0x13AD SWAP1 DUP2 PUSH3 0x6B14 DUP3 CODECOPY RETURN JUMPDEST ADD MLOAD SWAP1 POP CODESIZE DUP1 PUSH3 0x4761 JUMP JUMPDEST PUSH1 0x1F NOT DUP3 AND SWAP4 DUP4 PUSH1 0x0 MSTORE PUSH1 0x20 PUSH1 0x0 KECCAK256 SWAP2 PUSH1 0x0 JUMPDEST DUP7 DUP2 LT PUSH3 0x47E2 JUMPI POP DUP4 PUSH1 0x1 SWAP6 SWAP7 LT PUSH3 0x47C8 JUMPI JUMPDEST POP POP POP DUP2 SHL ADD SWAP1 SSTORE PUSH3 0x4776 JUMP JUMPDEST ADD MLOAD PUSH1 0x0 NOT PUSH1 0xF8 DUP5 PUSH1 0x3 SHL AND SHR NOT AND SWAP1 SSTORE CODESIZE DUP1 DUP1 PUSH3 0x47BA JUMP JUMPDEST SWAP2 SWAP3 PUSH1 0x20 PUSH1 0x1 DUP2 SWAP3 DUP7 DUP6 ADD MLOAD DUP2 SSTORE ADD SWAP5 ADD SWAP3 ADD PUSH3 0x47A5 JUMP JUMPDEST DUP3 PUSH1 0x0 MSTORE PUSH1 0x20 PUSH1 0x0 KECCAK256 PUSH1 0x1F DUP4 ADD PUSH1 0x5 SHR DUP2 ADD SWAP2 PUSH1 0x20 DUP5 LT PUSH3 0x483D JUMPI JUMPDEST PUSH1 0x1F ADD PUSH1 0x5 SHR ADD SWAP1 JUMPDEST DUP2 DUP2 LT PUSH3 0x4830 JUMPI POP PUSH3 0x4744 JUMP JUMPDEST PUSH1 0x0 DUP2 SSTORE PUSH1 0x1 ADD PUSH3 0x4821 JUMP JUMPDEST SWAP1 SWAP2 POP DUP2 SWAP1 PUSH3 0x4818 JUMP JUMPDEST PUSH4 0x4E487B71 PUSH1 0xE0 SHL PUSH1 0x0 MSTORE PUSH1 0x22 PUSH1 0x4 MSTORE PUSH1 0x24 PUSH1 0x0 REVERT JUMPDEST SWAP1 PUSH1 0x7F AND SWAP1 PUSH3 0x4730 JUMP JUMPDEST PUSH4 0x4E487B71 PUSH1 0xE0 SHL PUSH1 0x0 MSTORE PUSH1 0x41 PUSH1 0x4 MSTORE PUSH1 0x24 PUSH1 0x0 REVERT JUMPDEST ADD MLOAD SWAP1 POP CODESIZE DUP1 PUSH3 0x45DF JUMP JUMPDEST SWAP1 DUP4 PUSH1 0x0 MSTORE PUSH1 0x20 PUSH1 0x0 KECCAK256 SWAP2 PUSH1 0x0 JUMPDEST PUSH1 0x1F NOT DUP6 AND DUP2 LT PUSH3 0x48E7 JUMPI POP SWAP3 PUSH2 0x180 SWAP5 SWAP3 PUSH1 0x1 SWAP3 PUSH1 0x1B SWAP6 DUP4 PUSH1 0x1F NOT DUP2 AND LT PUSH3 0x48CD JUMPI JUMPDEST POP POP POP DUP2 SHL ADD DUP2 SSTORE PUSH3 0x45F4 JUMP JUMPDEST ADD MLOAD PUSH1 0x0 NOT PUSH1 0xF8 DUP5 PUSH1 0x3 SHL AND SHR NOT AND SWAP1 SSTORE CODESIZE DUP1 DUP1 PUSH3 0x48BF JUMP JUMPDEST SWAP2 SWAP3 PUSH1 0x20 PUSH1 0x1 DUP2 SWAP3 DUP7 DUP6 ADD MLOAD DUP2 SSTORE ADD SWAP5 ADD SWAP3 ADD PUSH3 0x4899 JUMP JUMPDEST DUP4 PUSH1 0x0 MSTORE PUSH1 0x20 PUSH1 0x0 KECCAK256 PUSH1 0x1F DUP5 ADD PUSH1 0x5 SHR DUP2 ADD PUSH1 0x20 DUP6 LT PUSH3 0x4941 JUMPI JUMPDEST PUSH1 0x1F DUP4 ADD PUSH1 0x5 SHR DUP3 ADD DUP2 LT PUSH3 0x4934 JUMPI POP POP PUSH3 0x45BC JUMP JUMPDEST PUSH1 0x0 DUP2 SSTORE PUSH1 0x1 ADD PUSH3 0x491C JUMP JUMPDEST POP DUP1 PUSH3 0x491C JUMP JUMPDEST SWAP1 PUSH1 0x7F AND SWAP1 PUSH3 0x45A8 JUMP JUMPDEST ADD MLOAD SWAP1 POP CODESIZE DUP1 PUSH3 0x43C6 JUMP JUMPDEST SWAP1 PUSH1 0x1B DUP5 ADD PUSH1 0x0 MSTORE PUSH1 0x20 PUSH1 0x0 KECCAK256 SWAP2 PUSH1 0x0 JUMPDEST PUSH1 0x1F NOT DUP6 AND DUP2 LT PUSH3 0x49BC JUMPI POP SWAP2 DUP4 SWAP2 PUSH1 0x1 SWAP4 PUSH1 0x1B SWAP6 PUSH1 0x1F NOT DUP2 AND LT PUSH3 0x49A2 JUMPI JUMPDEST POP POP POP DUP2 SHL ADD SWAP2 ADD SSTORE PUSH3 0x43DC JUMP JUMPDEST ADD MLOAD PUSH1 0x0 NOT PUSH1 0xF8 DUP5 PUSH1 0x3 SHL AND SHR NOT AND SWAP1 SSTORE CODESIZE DUP1 DUP1 PUSH3 0x4993 JUMP JUMPDEST SWAP2 SWAP3 PUSH1 0x20 PUSH1 0x1 DUP2 SWAP3 DUP7 DUP6 ADD MLOAD DUP2 SSTORE ADD SWAP5 ADD SWAP3 ADD PUSH3 0x4971 JUMP JUMPDEST PUSH1 0x1B DUP5 ADD PUSH1 0x0 MSTORE PUSH1 0x20 PUSH1 0x0 KECCAK256 PUSH1 0x1F DUP5 ADD PUSH1 0x5 SHR DUP2 ADD PUSH1 0x20 DUP6 LT PUSH3 0x4A19 JUMPI JUMPDEST PUSH1 0x1F DUP4 ADD PUSH1 0x5 SHR DUP3 ADD DUP2 LT PUSH3 0x4A0C JUMPI POP POP PUSH3 0x43A8 JUMP JUMPDEST PUSH1 0x0 DUP2 SSTORE PUSH1 0x1 ADD PUSH3 0x49F4 JUMP JUMPDEST POP DUP1 PUSH3 0x49F4 JUMP JUMPDEST SWAP1 PUSH1 0x7F AND SWAP1 PUSH3 0x4394 JUMP JUMPDEST ADD MLOAD SWAP1 POP CODESIZE DUP1 PUSH3 0x4242 JUMP JUMPDEST SWAP1 DUP5 PUSH1 0x0 MSTORE PUSH1 0x20 PUSH1 0x0 KECCAK256 SWAP2 PUSH1 0x0 JUMPDEST PUSH1 0x1F NOT DUP6 AND DUP2 LT PUSH3 0x4A92 JUMPI POP SWAP2 DUP4 SWAP2 PUSH1 0x1 SWAP4 PUSH2 0x180 SWAP7 SWAP6 PUSH1 0x1F NOT DUP2 AND LT PUSH3 0x4A78 JUMPI JUMPDEST POP POP POP DUP2 SHL ADD DUP4 SSTORE PUSH3 0x4257 JUMP JUMPDEST ADD MLOAD PUSH1 0x0 NOT PUSH1 0xF8 DUP5 PUSH1 0x3 SHL AND SHR NOT AND SWAP1 SSTORE CODESIZE DUP1 DUP1 PUSH3 0x4A6A JUMP JUMPDEST SWAP2 SWAP3 PUSH1 0x20 PUSH1 0x1 DUP2 SWAP3 DUP7 DUP6 ADD MLOAD DUP2 SSTORE ADD SWAP5 ADD SWAP3 ADD PUSH3 0x4A46 JUMP JUMPDEST DUP5 PUSH1 0x0 MSTORE PUSH1 0x20 PUSH1 0x0 KECCAK256 PUSH1 0x1F DUP5 ADD PUSH1 0x5 SHR DUP2 ADD PUSH1 0x20 DUP6 LT PUSH3 0x4AEC JUMPI JUMPDEST PUSH1 0x1F DUP4 ADD PUSH1 0x5 SHR DUP3 ADD DUP2 LT PUSH3 0x4ADF JUMPI POP POP PUSH3 0x4222 JUMP JUMPDEST PUSH1 0x0 DUP2 SSTORE PUSH1 0x1 ADD PUSH3 0x4AC7 JUMP JUMPDEST POP DUP1 PUSH3 0x4AC7 JUMP JUMPDEST SWAP1 PUSH1 0x7F AND SWAP1 PUSH3 0x420E JUMP JUMPDEST ADD MLOAD SWAP1 POP CODESIZE DUP1 PUSH3 0x403D JUMP JUMPDEST SWAP1 PUSH1 0x1B DUP5 ADD PUSH1 0x0 MSTORE PUSH1 0x20 PUSH1 0x0 KECCAK256 SWAP2 PUSH1 0x0 JUMPDEST PUSH1 0x1F NOT DUP6 AND DUP2 LT PUSH3 0x4B67 JUMPI POP SWAP2 DUP4 SWAP2 PUSH1 0x1 SWAP4 PUSH1 0x1B SWAP6 PUSH1 0x1F NOT DUP2 AND LT PUSH3 0x4B4D JUMPI JUMPDEST POP POP POP DUP2 SHL ADD SWAP2 ADD SSTORE PUSH3 0x4053 JUMP JUMPDEST ADD MLOAD PUSH1 0x0 NOT PUSH1 0xF8 DUP5 PUSH1 0x3 SHL AND SHR NOT AND SWAP1 SSTORE CODESIZE DUP1 DUP1 PUSH3 0x4B3E JUMP JUMPDEST SWAP2 SWAP3 PUSH1 0x20 PUSH1 0x1 DUP2 SWAP3 DUP7 DUP6 ADD MLOAD DUP2 SSTORE ADD SWAP5 ADD SWAP3 ADD PUSH3 0x4B1C JUMP JUMPDEST PUSH1 0x1B DUP5 ADD PUSH1 0x0 MSTORE PUSH1 0x20 PUSH1 0x0 KECCAK256 PUSH1 0x1F DUP5 ADD PUSH1 0x5 SHR DUP2 ADD PUSH1 0x20 DUP6 LT PUSH3 0x4BC4 JUMPI JUMPDEST PUSH1 0x1F DUP4 ADD PUSH1 0x5 SHR DUP3 ADD DUP2 LT PUSH3 0x4BB7 JUMPI POP POP PUSH3 0x401F JUMP JUMPDEST PUSH1 0x0 DUP2 SSTORE PUSH1 0x1 ADD PUSH3 0x4B9F JUMP JUMPDEST POP DUP1 PUSH3 0x4B9F JUMP JUMPDEST SWAP1 PUSH1 0x7F AND SWAP1 PUSH3 0x400B JUMP JUMPDEST ADD MLOAD SWAP1 POP CODESIZE DUP1 PUSH3 0x3EB9 JUMP JUMPDEST SWAP1 DUP5 PUSH1 0x0 MSTORE PUSH1 0x20 PUSH1 0x0 KECCAK256 SWAP2 PUSH1 0x0 JUMPDEST PUSH1 0x1F NOT DUP6 AND DUP2 LT PUSH3 0x4C3D JUMPI POP SWAP2 DUP4 SWAP2 PUSH1 0x1 SWAP4 PUSH2 0x180 SWAP7 SWAP6 PUSH1 0x1F NOT DUP2 AND LT PUSH3 0x4C23 JUMPI JUMPDEST POP POP POP DUP2 SHL ADD DUP4 SSTORE PUSH3 0x3ECE JUMP JUMPDEST ADD MLOAD PUSH1 0x0 NOT PUSH1 0xF8 DUP5 PUSH1 0x3 SHL AND SHR NOT AND SWAP1 SSTORE CODESIZE DUP1 DUP1 PUSH3 0x4C15 JUMP JUMPDEST SWAP2 SWAP3 PUSH1 0x20 PUSH1 0x1 DUP2 SWAP3 DUP7 DUP6 ADD MLOAD DUP2 SSTORE ADD SWAP5 ADD SWAP3 ADD PUSH3 0x4BF1 JUMP JUMPDEST DUP5 PUSH1 0x0 MSTORE PUSH1 0x20 PUSH1 0x0 KECCAK256 PUSH1 0x1F DUP5 ADD PUSH1 0x5 SHR DUP2 ADD PUSH1 0x20 DUP6 LT PUSH3 0x4C97 JUMPI JUMPDEST PUSH1 0x1F DUP4 ADD PUSH1 0x5 SHR DUP3 ADD DUP2 LT PUSH3 0x4C8A JUMPI POP POP PUSH3 0x3E99 JUMP JUMPDEST PUSH1 0x0 DUP2 SSTORE PUSH1 0x1 ADD PUSH3 0x4C72 JUMP JUMPDEST POP DUP1 PUSH3 0x4C72 JUMP JUMPDEST SWAP1 PUSH1 0x7F AND SWAP1 PUSH3 0x3E85 JUMP JUMPDEST ADD MLOAD SWAP1 POP CODESIZE DUP1 PUSH3 0x3CAA JUMP JUMPDEST SWAP1 PUSH1 0x1B DUP5 ADD PUSH1 0x0 MSTORE PUSH1 0x20 PUSH1 0x0 KECCAK256 SWAP2 PUSH1 0x0 JUMPDEST PUSH1 0x1F NOT DUP6 AND DUP2 LT PUSH3 0x4D12 JUMPI POP SWAP2 DUP4 SWAP2 PUSH1 0x1 SWAP4 PUSH1 0x1B SWAP6 PUSH1 0x1F NOT DUP2 AND LT PUSH3 0x4CF8 JUMPI JUMPDEST POP POP POP DUP2 SHL ADD SWAP2 ADD SSTORE PUSH3 0x3CC0 JUMP JUMPDEST ADD MLOAD PUSH1 0x0 NOT PUSH1 0xF8 DUP5 PUSH1 0x3 SHL AND SHR NOT AND SWAP1 SSTORE CODESIZE DUP1 DUP1 PUSH3 0x4CE9 JUMP JUMPDEST SWAP2 SWAP3 PUSH1 0x20 PUSH1 0x1 DUP2 SWAP3 DUP7 DUP6 ADD MLOAD DUP2 SSTORE ADD SWAP5 ADD SWAP3 ADD PUSH3 0x4CC7 JUMP JUMPDEST PUSH1 0x1B DUP5 ADD PUSH1 0x0 MSTORE PUSH1 0x20 PUSH1 0x0 KECCAK256 PUSH1 0x1F DUP5 ADD PUSH1 0x5 SHR DUP2 ADD PUSH1 0x20 DUP6 LT PUSH3 0x4D6F JUMPI JUMPDEST PUSH1 0x1F DUP4 ADD PUSH1 0x5 SHR DUP3 ADD DUP2 LT PUSH3 0x4D62 JUMPI POP POP PUSH3 0x3C8C JUMP JUMPDEST PUSH1 0x0 DUP2 SSTORE PUSH1 0x1 ADD PUSH3 0x4D4A JUMP JUMPDEST POP DUP1 PUSH3 0x4D4A JUMP JUMPDEST SWAP1 PUSH1 0x7F AND SWAP1 PUSH3 0x3C78 JUMP JUMPDEST ADD MLOAD SWAP1 POP CODESIZE DUP1 PUSH3 0x3B26 JUMP JUMPDEST SWAP1 DUP5 PUSH1 0x0 MSTORE PUSH1 0x20 PUSH1 0x0 KECCAK256 SWAP2 PUSH1 0x0 JUMPDEST PUSH1 0x1F NOT DUP6 AND DUP2 LT PUSH3 0x4DE8 JUMPI POP SWAP2 DUP4 SWAP2 PUSH1 0x1 SWAP4 PUSH2 0x180 SWAP7 SWAP6 PUSH1 0x1F NOT DUP2 AND LT PUSH3 0x4DCE JUMPI JUMPDEST POP POP POP DUP2 SHL ADD DUP4 SSTORE PUSH3 0x3B3B JUMP JUMPDEST ADD MLOAD PUSH1 0x0 NOT PUSH1 0xF8 DUP5 PUSH1 0x3 SHL AND SHR NOT AND SWAP1 SSTORE CODESIZE DUP1 DUP1 PUSH3 0x4DC0 JUMP JUMPDEST SWAP2 SWAP3 PUSH1 0x20 PUSH1 0x1 DUP2 SWAP3 DUP7 DUP6 ADD MLOAD DUP2 SSTORE ADD SWAP5 ADD SWAP3 ADD PUSH3 0x4D9C JUMP JUMPDEST DUP5 PUSH1 0x0 MSTORE PUSH1 0x20 PUSH1 0x0 KECCAK256 PUSH1 0x1F DUP5 ADD PUSH1 0x5 SHR DUP2 ADD PUSH1 0x20 DUP6 LT PUSH3 0x4E42 JUMPI JUMPDEST PUSH1 0x1F DUP4 ADD PUSH1 0x5 SHR DUP3 ADD DUP2 LT PUSH3 0x4E35 JUMPI POP POP PUSH3 0x3B06 JUMP JUMPDEST PUSH1 0x0 DUP2 SSTORE PUSH1 0x1 ADD PUSH3 0x4E1D JUMP JUMPDEST POP DUP1 PUSH3 0x4E1D JUMP JUMPDEST SWAP1 PUSH1 0x7F AND SWAP1 PUSH3 0x3AF2 JUMP JUMPDEST ADD MLOAD SWAP1 POP CODESIZE DUP1 PUSH3 0x3925 JUMP JUMPDEST SWAP1 PUSH1 0x1B DUP5 ADD PUSH1 0x0 MSTORE PUSH1 0x20 PUSH1 0x0 KECCAK256 SWAP2 PUSH1 0x0 JUMPDEST PUSH1 0x1F NOT DUP6 AND DUP2 LT PUSH3 0x4EBD JUMPI POP SWAP2 DUP4 SWAP2 PUSH1 0x1 SWAP4 PUSH1 0x1B SWAP6 PUSH1 0x1F NOT DUP2 AND LT PUSH3 0x4EA3 JUMPI JUMPDEST POP POP POP DUP2 SHL ADD SWAP2 ADD SSTORE PUSH3 0x393B JUMP JUMPDEST ADD MLOAD PUSH1 0x0 NOT PUSH1 0xF8 DUP5 PUSH1 0x3 SHL AND SHR NOT AND SWAP1 SSTORE CODESIZE DUP1 DUP1 PUSH3 0x4E94 JUMP JUMPDEST SWAP2 SWAP3 PUSH1 0x20 PUSH1 0x1 DUP2 SWAP3 DUP7 DUP6 ADD MLOAD DUP2 SSTORE ADD SWAP5 ADD SWAP3 ADD PUSH3 0x4E72 JUMP JUMPDEST PUSH1 0x1B DUP5 ADD PUSH1 0x0 MSTORE PUSH1 0x20 PUSH1 0x0 KECCAK256 PUSH1 0x1F DUP5 ADD PUSH1 0x5 SHR DUP2 ADD PUSH1 0x20 DUP6 LT PUSH3 0x4F1A JUMPI JUMPDEST PUSH1 0x1F DUP4 ADD PUSH1 0x5 SHR DUP3 ADD DUP2 LT PUSH3 0x4F0D JUMPI POP POP PUSH3 0x3907 JUMP JUMPDEST PUSH1 0x0 DUP2 SSTORE PUSH1 0x1 ADD PUSH3 0x4EF5 JUMP JUMPDEST POP DUP1 PUSH3 0x4EF5 JUMP JUMPDEST SWAP1 PUSH1 0x7F AND SWAP1 PUSH3 0x38F3 JUMP JUMPDEST ADD MLOAD SWAP1 POP CODESIZE DUP1 PUSH3 0x37A1 JUMP JUMPDEST SWAP1 DUP5 PUSH1 0x0 MSTORE PUSH1 0x20 PUSH1 0x0 KECCAK256 SWAP2 PUSH1 0x0 JUMPDEST PUSH1 0x1F NOT DUP6 AND DUP2 LT PUSH3 0x4F93 JUMPI POP SWAP2 DUP4 SWAP2 PUSH1 0x1 SWAP4 PUSH2 0x180 SWAP7 SWAP6 PUSH1 0x1F NOT DUP2 AND LT PUSH3 0x4F79 JUMPI JUMPDEST POP POP POP DUP2 SHL ADD DUP4 SSTORE PUSH3 0x37B6 JUMP JUMPDEST ADD MLOAD PUSH1 0x0 NOT PUSH1 0xF8 DUP5 PUSH1 0x3 SHL AND SHR NOT AND SWAP1 SSTORE CODESIZE DUP1 DUP1 PUSH3 0x4F6B JUMP JUMPDEST SWAP2 SWAP3 PUSH1 0x20 PUSH1 0x1 DUP2 SWAP3 DUP7 DUP6 ADD MLOAD DUP2 SSTORE ADD SWAP5 ADD SWAP3 ADD PUSH3 0x4F47 JUMP JUMPDEST DUP5 PUSH1 0x0 MSTORE PUSH1 0x20 PUSH1 0x0 KECCAK256 PUSH1 0x1F DUP5 ADD PUSH1 0x5 SHR DUP2 ADD PUSH1 0x20 DUP6 LT PUSH3 0x4FED JUMPI JUMPDEST PUSH1 0x1F DUP4 ADD PUSH1 0x5 SHR DUP3 ADD DUP2 LT PUSH3 0x4FE0 JUMPI POP POP PUSH3 0x3781 JUMP JUMPDEST PUSH1 0x0 DUP2 SSTORE PUSH1 0x1 ADD PUSH3 0x4FC8 JUMP JUMPDEST POP DUP1 PUSH3 0x4FC8 JUMP JUMPDEST SWAP1 PUSH1 0x7F AND SWAP1 PUSH3 0x376D JUMP JUMPDEST ADD MLOAD SWAP1 POP CODESIZE DUP1 PUSH3 0x3597 JUMP JUMPDEST SWAP1 PUSH1 0x1B DUP5 ADD PUSH1 0x0 MSTORE PUSH1 0x20 PUSH1 0x0 KECCAK256 SWAP2 PUSH1 0x0 JUMPDEST PUSH1 0x1F NOT DUP6 AND DUP2 LT PUSH3 0x5068 JUMPI POP SWAP2 DUP4 SWAP2 PUSH1 0x1 SWAP4 PUSH1 0x1B SWAP6 PUSH1 0x1F NOT DUP2 AND LT PUSH3 0x504E JUMPI JUMPDEST POP POP POP DUP2 SHL ADD SWAP2 ADD SSTORE PUSH3 0x35AD JUMP JUMPDEST ADD MLOAD PUSH1 0x0 NOT PUSH1 0xF8 DUP5 PUSH1 0x3 SHL AND SHR NOT AND SWAP1 SSTORE CODESIZE DUP1 DUP1 PUSH3 0x503F JUMP JUMPDEST SWAP2 SWAP3 PUSH1 0x20 PUSH1 0x1 DUP2 SWAP3 DUP7 DUP6 ADD MLOAD DUP2 SSTORE ADD SWAP5 ADD SWAP3 ADD PUSH3 0x501D JUMP JUMPDEST PUSH1 0x1B DUP5 ADD PUSH1 0x0 MSTORE PUSH1 0x20 PUSH1 0x0 KECCAK256 PUSH1 0x1F DUP5 ADD PUSH1 0x5 SHR DUP2 ADD PUSH1 0x20 DUP6 LT PUSH3 0x50C5 JUMPI JUMPDEST PUSH1 0x1F DUP4 ADD PUSH1 0x5 SHR DUP3 ADD DUP2 LT PUSH3 0x50B8 JUMPI POP POP PUSH3 0x3579 JUMP JUMPDEST PUSH1 0x0 DUP2 SSTORE PUSH1 0x1 ADD PUSH3 0x50A0 JUMP JUMPDEST POP DUP1 PUSH3 0x50A0 JUMP JUMPDEST SWAP1 PUSH1 0x7F AND SWAP1 PUSH3 0x3565 JUMP JUMPDEST ADD MLOAD SWAP1 POP CODESIZE DUP1 PUSH3 0x3413 JUMP JUMPDEST SWAP1 DUP5 PUSH1 0x0 MSTORE PUSH1 0x20 PUSH1 0x0 KECCAK256 SWAP2 PUSH1 0x0 JUMPDEST PUSH1 0x1F NOT DUP6 AND DUP2 LT PUSH3 0x513E JUMPI POP SWAP2 DUP4 SWAP2 PUSH1 0x1 SWAP4 PUSH2 0x180 SWAP7 SWAP6 PUSH1 0x1F NOT DUP2 AND LT PUSH3 0x5124 JUMPI JUMPDEST POP POP POP DUP2 SHL ADD DUP4 SSTORE PUSH3 0x3428 JUMP JUMPDEST ADD MLOAD PUSH1 0x0 NOT PUSH1 0xF8 DUP5 PUSH1 0x3 SHL AND SHR NOT AND SWAP1 SSTORE CODESIZE DUP1 DUP1 PUSH3 0x5116 JUMP JUMPDEST SWAP2 SWAP3 PUSH1 0x20 PUSH1 0x1 DUP2 SWAP3 DUP7 DUP6 ADD MLOAD DUP2 SSTORE ADD SWAP5 ADD SWAP3 ADD PUSH3 0x50F2 JUMP JUMPDEST DUP5 PUSH1 0x0 MSTORE PUSH1 0x20 PUSH1 0x0 KECCAK256 PUSH1 0x1F DUP5 ADD PUSH1 0x5 SHR DUP2 ADD PUSH1 0x20 DUP6 LT PUSH3 0x5198 JUMPI JUMPDEST PUSH1 0x1F DUP4 ADD PUSH1 0x5 SHR DUP3 ADD DUP2 LT PUSH3 0x518B JUMPI POP POP PUSH3 0x33F3 JUMP JUMPDEST PUSH1 0x0 DUP2 SSTORE PUSH1 0x1 ADD PUSH3 0x5173 JUMP JUMPDEST POP DUP1 PUSH3 0x5173 JUMP JUMPDEST SWAP1 PUSH1 0x7F AND SWAP1 PUSH3 0x33DF JUMP JUMPDEST ADD MLOAD SWAP1 POP CODESIZE DUP1 PUSH3 0x3209 JUMP JUMPDEST SWAP1 PUSH1 0x1B DUP5 ADD PUSH1 0x0 MSTORE PUSH1 0x20 PUSH1 0x0 KECCAK256 SWAP2 PUSH1 0x0 JUMPDEST PUSH1 0x1F NOT DUP6 AND DUP2 LT PUSH3 0x5213 JUMPI POP SWAP2 DUP4 SWAP2 PUSH1 0x1 SWAP4 PUSH1 0x1B SWAP6 PUSH1 0x1F NOT DUP2 AND LT PUSH3 0x51F9 JUMPI JUMPDEST POP POP POP DUP2 SHL ADD SWAP2 ADD SSTORE PUSH3 0x321F JUMP JUMPDEST ADD MLOAD PUSH1 0x0 NOT PUSH1 0xF8 DUP5 PUSH1 0x3 SHL AND SHR NOT AND SWAP1 SSTORE CODESIZE DUP1 DUP1 PUSH3 0x51EA JUMP JUMPDEST SWAP2 SWAP3 PUSH1 0x20 PUSH1 0x1 DUP2 SWAP3 DUP7 DUP6 ADD MLOAD DUP2 SSTORE ADD SWAP5 ADD SWAP3 ADD PUSH3 0x51C8 JUMP JUMPDEST PUSH1 0x1B DUP5 ADD PUSH1 0x0 MSTORE PUSH1 0x20 PUSH1 0x0 KECCAK256 PUSH1 0x1F DUP5 ADD PUSH1 0x5 SHR DUP2 ADD PUSH1 0x20 DUP6 LT PUSH3 0x5270 JUMPI JUMPDEST PUSH1 0x1F DUP4 ADD PUSH1 0x5 SHR DUP3 ADD DUP2 LT PUSH3 0x5263 JUMPI POP POP PUSH3 0x31EB JUMP JUMPDEST PUSH1 0x0 DUP2 SSTORE PUSH1 0x1 ADD PUSH3 0x524B JUMP JUMPDEST POP DUP1 PUSH3 0x524B JUMP JUMPDEST SWAP1 PUSH1 0x7F AND SWAP1 PUSH3 0x31D7 JUMP JUMPDEST ADD MLOAD SWAP1 POP CODESIZE DUP1 PUSH3 0x3085 JUMP JUMPDEST SWAP1 DUP5 PUSH1 0x0 MSTORE PUSH1 0x20 PUSH1 0x0 KECCAK256 SWAP2 PUSH1 0x0 JUMPDEST PUSH1 0x1F NOT DUP6 AND DUP2 LT PUSH3 0x52E9 JUMPI POP SWAP2 DUP4 SWAP2 PUSH1 0x1 SWAP4 PUSH2 0x180 SWAP7 SWAP6 PUSH1 0x1F NOT DUP2 AND LT PUSH3 0x52CF JUMPI JUMPDEST POP POP POP DUP2 SHL ADD DUP4 SSTORE PUSH3 0x309A JUMP JUMPDEST ADD MLOAD PUSH1 0x0 NOT PUSH1 0xF8 DUP5 PUSH1 0x3 SHL AND SHR NOT AND SWAP1 SSTORE CODESIZE DUP1 DUP1 PUSH3 0x52C1 JUMP JUMPDEST SWAP2 SWAP3 PUSH1 0x20 PUSH1 0x1 DUP2 SWAP3 DUP7 DUP6 ADD MLOAD DUP2 SSTORE ADD SWAP5 ADD SWAP3 ADD PUSH3 0x529D JUMP JUMPDEST DUP5 PUSH1 0x0 MSTORE PUSH1 0x20 PUSH1 0x0 KECCAK256 PUSH1 0x1F DUP5 ADD PUSH1 0x5 SHR DUP2 ADD PUSH1 0x20 DUP6 LT PUSH3 0x5343 JUMPI JUMPDEST PUSH1 0x1F DUP4 ADD PUSH1 0x5 SHR DUP3 ADD DUP2 LT PUSH3 0x5336 JUMPI POP POP PUSH3 0x3065 JUMP JUMPDEST PUSH1 0x0 DUP2 SSTORE PUSH1 0x1 ADD PUSH3 0x531E JUMP JUMPDEST POP DUP1 PUSH3 0x531E JUMP JUMPDEST SWAP1 PUSH1 0x7F AND SWAP1 PUSH3 0x3051 JUMP JUMPDEST ADD MLOAD SWAP1 POP CODESIZE DUP1 PUSH3 0x2E84 JUMP JUMPDEST SWAP1 PUSH1 0x1B DUP5 ADD PUSH1 0x0 MSTORE PUSH1 0x20 PUSH1 0x0 KECCAK256 SWAP2 PUSH1 0x0 JUMPDEST PUSH1 0x1F NOT DUP6 AND DUP2 LT PUSH3 0x53BE JUMPI POP SWAP2 DUP4 SWAP2 PUSH1 0x1 SWAP4 PUSH1 0x1B SWAP6 PUSH1 0x1F NOT DUP2 AND LT PUSH3 0x53A4 JUMPI JUMPDEST POP POP POP DUP2 SHL ADD SWAP2 ADD SSTORE PUSH3 0x2E9A JUMP JUMPDEST ADD MLOAD PUSH1 0x0 NOT PUSH1 0xF8 DUP5 PUSH1 0x3 SHL AND SHR NOT AND SWAP1 SSTORE CODESIZE DUP1 DUP1 PUSH3 0x5395 JUMP JUMPDEST SWAP2 SWAP3 PUSH1 0x20 PUSH1 0x1 DUP2 SWAP3 DUP7 DUP6 ADD MLOAD DUP2 SSTORE ADD SWAP5 ADD SWAP3 ADD PUSH3 0x5373 JUMP JUMPDEST PUSH1 0x1B DUP5 ADD PUSH1 0x0 MSTORE PUSH1 0x20 PUSH1 0x0 KECCAK256 PUSH1 0x1F DUP5 ADD PUSH1 0x5 SHR DUP2 ADD PUSH1 0x20 DUP6 LT PUSH3 0x541B JUMPI JUMPDEST PUSH1 0x1F DUP4 ADD PUSH1 0x5 SHR DUP3 ADD DUP2 LT PUSH3 0x540E JUMPI POP POP PUSH3 0x2E66 JUMP JUMPDEST PUSH1 0x0 DUP2 SSTORE PUSH1 0x1 ADD PUSH3 0x53F6 JUMP JUMPDEST POP DUP1 PUSH3 0x53F6 JUMP JUMPDEST SWAP1 PUSH1 0x7F AND SWAP1 PUSH3 0x2E52 JUMP JUMPDEST ADD MLOAD SWAP1 POP CODESIZE DUP1 PUSH3 0x2D00 JUMP JUMPDEST SWAP1 DUP5 PUSH1 0x0 MSTORE PUSH1 0x20 PUSH1 0x0 KECCAK256 SWAP2 PUSH1 0x0 JUMPDEST PUSH1 0x1F NOT DUP6 AND DUP2 LT PUSH3 0x5494 JUMPI POP SWAP2 DUP4 SWAP2 PUSH1 0x1 SWAP4 PUSH2 0x180 SWAP7 SWAP6 PUSH1 0x1F NOT DUP2 AND LT PUSH3 0x547A JUMPI JUMPDEST POP POP POP DUP2 SHL ADD DUP4 SSTORE PUSH3 0x2D15 JUMP JUMPDEST ADD MLOAD PUSH1 0x0 NOT PUSH1 0xF8 DUP5 PUSH1 0x3 SHL AND SHR NOT AND SWAP1 SSTORE CODESIZE DUP1 DUP1 PUSH3 0x546C JUMP JUMPDEST SWAP2 SWAP3 PUSH1 0x20 PUSH1 0x1 DUP2 SWAP3 DUP7 DUP6 ADD MLOAD DUP2 SSTORE ADD SWAP5 ADD SWAP3 ADD PUSH3 0x5448 JUMP JUMPDEST DUP5 PUSH1 0x0 MSTORE PUSH1 0x20 PUSH1 0x0 KECCAK256 PUSH1 0x1F DUP5 ADD PUSH1 0x5 SHR DUP2 ADD PUSH1 0x20 DUP6 LT PUSH3 0x54EE JUMPI JUMPDEST PUSH1 0x1F DUP4 ADD PUSH1 0x5 SHR DUP3 ADD DUP2 LT PUSH3 0x54E1 JUMPI POP POP PUSH3 0x2CE0 JUMP JUMPDEST PUSH1 0x0 DUP2 SSTORE PUSH1 0x1 ADD PUSH3 0x54C9 JUMP JUMPDEST POP DUP1 PUSH3 0x54C9 JUMP JUMPDEST SWAP1 PUSH1 0x7F AND SWAP1 PUSH3 0x2CCC JUMP JUMPDEST ADD MLOAD SWAP1 POP CODESIZE DUP1 PUSH3 0x2AF8 JUMP JUMPDEST SWAP1 PUSH1 0x1B DUP5 ADD PUSH1 0x0 MSTORE PUSH1 0x20 PUSH1 0x0 KECCAK256 SWAP2 PUSH1 0x0 JUMPDEST PUSH1 0x1F NOT DUP6 AND DUP2 LT PUSH3 0x5569 JUMPI POP SWAP2 DUP4 SWAP2 PUSH1 0x1 SWAP4 PUSH1 0x1B SWAP6 PUSH1 0x1F NOT DUP2 AND LT PUSH3 0x554F JUMPI JUMPDEST POP POP POP DUP2 SHL ADD SWAP2 ADD SSTORE PUSH3 0x2B0E JUMP JUMPDEST ADD MLOAD PUSH1 0x0 NOT PUSH1 0xF8 DUP5 PUSH1 0x3 SHL AND SHR NOT AND SWAP1 SSTORE CODESIZE DUP1 DUP1 PUSH3 0x5540 JUMP JUMPDEST SWAP2 SWAP3 PUSH1 0x20 PUSH1 0x1 DUP2 SWAP3 DUP7 DUP6 ADD MLOAD DUP2 SSTORE ADD SWAP5 ADD SWAP3 ADD PUSH3 0x551E JUMP JUMPDEST PUSH1 0x1B DUP5 ADD PUSH1 0x0 MSTORE PUSH1 0x20 PUSH1 0x0 KECCAK256 PUSH1 0x1F DUP5 ADD PUSH1 0x5 SHR DUP2 ADD PUSH1 0x20 DUP6 LT PUSH3 0x55C6 JUMPI JUMPDEST PUSH1 0x1F DUP4 ADD PUSH1 0x5 SHR DUP3 ADD DUP2 LT PUSH3 0x55B9 JUMPI POP POP PUSH3 0x2ADA JUMP JUMPDEST PUSH1 0x0 DUP2 SSTORE PUSH1 0x1 ADD PUSH3 0x55A1 JUMP JUMPDEST POP DUP1 PUSH3 0x55A1 JUMP JUMPDEST SWAP1 PUSH1 0x7F AND SWAP1 PUSH3 0x2AC6 JUMP JUMPDEST ADD MLOAD SWAP1 POP CODESIZE DUP1 PUSH3 0x2974 JUMP JUMPDEST SWAP1 DUP5 PUSH1 0x0 MSTORE PUSH1 0x20 PUSH1 0x0 KECCAK256 SWAP2 PUSH1 0x0 JUMPDEST PUSH1 0x1F NOT DUP6 AND DUP2 LT PUSH3 0x563F JUMPI POP SWAP2 DUP4 SWAP2 PUSH1 0x1 SWAP4 PUSH2 0x180 SWAP7 SWAP6 PUSH1 0x1F NOT DUP2 AND LT PUSH3 0x5625 JUMPI JUMPDEST POP POP POP DUP2 SHL ADD DUP4 SSTORE PUSH3 0x2989 JUMP JUMPDEST ADD MLOAD PUSH1 0x0 NOT PUSH1 0xF8 DUP5 PUSH1 0x3 SHL AND SHR NOT AND SWAP1 SSTORE CODESIZE DUP1 DUP1 PUSH3 0x5617 JUMP JUMPDEST SWAP2 SWAP3 PUSH1 0x20 PUSH1 0x1 DUP2 SWAP3 DUP7 DUP6 ADD MLOAD DUP2 SSTORE ADD SWAP5 ADD SWAP3 ADD PUSH3 0x55F3 JUMP JUMPDEST DUP5 PUSH1 0x0 MSTORE PUSH1 0x20 PUSH1 0x0 KECCAK256 PUSH1 0x1F DUP5 ADD PUSH1 0x5 SHR DUP2 ADD PUSH1 0x20 DUP6 LT PUSH3 0x5699 JUMPI JUMPDEST PUSH1 0x1F DUP4 ADD PUSH1 0x5 SHR DUP3 ADD DUP2 LT PUSH3 0x568C JUMPI POP POP PUSH3 0x2954 JUMP JUMPDEST PUSH1 0x0 DUP2 SSTORE PUSH1 0x1 ADD PUSH3 0x5674 JUMP JUMPDEST POP DUP1 PUSH3 0x5674 JUMP JUMPDEST SWAP1 PUSH1 0x7F AND SWAP1 PUSH3 0x2940 JUMP JUMPDEST ADD MLOAD SWAP1 POP CODESIZE DUP1 PUSH3 0x276B JUMP JUMPDEST SWAP1 PUSH1 0x1B DUP5 ADD PUSH1 0x0 MSTORE PUSH1 0x20 PUSH1 0x0 KECCAK256 SWAP2 PUSH1 0x0 JUMPDEST PUSH1 0x1F NOT DUP6 AND DUP2 LT PUSH3 0x5714 JUMPI POP SWAP2 DUP4 SWAP2 PUSH1 0x1 SWAP4 PUSH1 0x1B SWAP6 PUSH1 0x1F NOT DUP2 AND LT PUSH3 0x56FA JUMPI JUMPDEST POP POP POP DUP2 SHL ADD SWAP2 ADD SSTORE PUSH3 0x2781 JUMP JUMPDEST ADD MLOAD PUSH1 0x0 NOT PUSH1 0xF8 DUP5 PUSH1 0x3 SHL AND SHR NOT AND SWAP1 SSTORE CODESIZE DUP1 DUP1 PUSH3 0x56EB JUMP JUMPDEST SWAP2 SWAP3 PUSH1 0x20 PUSH1 0x1 DUP2 SWAP3 DUP7 DUP6 ADD MLOAD DUP2 SSTORE ADD SWAP5 ADD SWAP3 ADD PUSH3 0x56C9 JUMP JUMPDEST PUSH1 0x1B DUP5 ADD PUSH1 0x0 MSTORE PUSH1 0x20 PUSH1 0x0 KECCAK256 PUSH1 0x1F DUP5 ADD PUSH1 0x5 SHR DUP2 ADD PUSH1 0x20 DUP6 LT PUSH3 0x5771 JUMPI JUMPDEST PUSH1 0x1F DUP4 ADD PUSH1 0x5 SHR DUP3 ADD DUP2 LT PUSH3 0x5764 JUMPI POP POP PUSH3 0x274D JUMP JUMPDEST PUSH1 0x0 DUP2 SSTORE PUSH1 0x1 ADD PUSH3 0x574C JUMP JUMPDEST POP DUP1 PUSH3 0x574C JUMP JUMPDEST SWAP1 PUSH1 0x7F AND SWAP1 PUSH3 0x2739 JUMP JUMPDEST ADD MLOAD SWAP1 POP CODESIZE DUP1 PUSH3 0x25E7 JUMP JUMPDEST SWAP1 DUP5 PUSH1 0x0 MSTORE PUSH1 0x20 PUSH1 0x0 KECCAK256 SWAP2 PUSH1 0x0 JUMPDEST PUSH1 0x1F NOT DUP6 AND DUP2 LT PUSH3 0x57EA JUMPI POP SWAP2 DUP4 SWAP2 PUSH1 0x1 SWAP4 PUSH2 0x180 SWAP7 SWAP6 PUSH1 0x1F NOT DUP2 AND LT PUSH3 0x57D0 JUMPI JUMPDEST POP POP POP DUP2 SHL ADD DUP4 SSTORE PUSH3 0x25FC JUMP JUMPDEST ADD MLOAD PUSH1 0x0 NOT PUSH1 0xF8 DUP5 PUSH1 0x3 SHL AND SHR NOT AND SWAP1 SSTORE CODESIZE DUP1 DUP1 PUSH3 0x57C2 JUMP JUMPDEST SWAP2 SWAP3 PUSH1 0x20 PUSH1 0x1 DUP2 SWAP3 DUP7 DUP6 ADD MLOAD DUP2 SSTORE ADD SWAP5 ADD SWAP3 ADD PUSH3 0x579E JUMP JUMPDEST DUP5 PUSH1 0x0 MSTORE PUSH1 0x20 PUSH1 0x0 KECCAK256 PUSH1 0x1F DUP5 ADD PUSH1 0x5 SHR DUP2 ADD PUSH1 0x20 DUP6 LT PUSH3 0x5844 JUMPI JUMPDEST PUSH1 0x1F DUP4 ADD PUSH1 0x5 SHR DUP3 ADD DUP2 LT PUSH3 0x5837 JUMPI POP POP PUSH3 0x25C7 JUMP JUMPDEST PUSH1 0x0 DUP2 SSTORE PUSH1 0x1 ADD PUSH3 0x581F JUMP JUMPDEST POP DUP1 PUSH3 0x581F JUMP JUMPDEST SWAP1 PUSH1 0x7F AND SWAP1 PUSH3 0x25B3 JUMP JUMPDEST ADD MLOAD SWAP1 POP CODESIZE DUP1 PUSH3 0x23E9 JUMP JUMPDEST SWAP1 PUSH1 0x1B DUP5 ADD PUSH1 0x0 MSTORE PUSH1 0x20 PUSH1 0x0 KECCAK256 SWAP2 PUSH1 0x0 JUMPDEST PUSH1 0x1F NOT DUP6 AND DUP2 LT PUSH3 0x58BF JUMPI POP SWAP2 DUP4 SWAP2 PUSH1 0x1 SWAP4 PUSH1 0x1B SWAP6 PUSH1 0x1F NOT DUP2 AND LT PUSH3 0x58A5 JUMPI JUMPDEST POP POP POP DUP2 SHL ADD SWAP2 ADD SSTORE PUSH3 0x23FF JUMP JUMPDEST ADD MLOAD PUSH1 0x0 NOT PUSH1 0xF8 DUP5 PUSH1 0x3 SHL AND SHR NOT AND SWAP1 SSTORE CODESIZE DUP1 DUP1 PUSH3 0x5896 JUMP JUMPDEST SWAP2 SWAP3 PUSH1 0x20 PUSH1 0x1 DUP2 SWAP3 DUP7 DUP6 ADD MLOAD DUP2 SSTORE ADD SWAP5 ADD SWAP3 ADD PUSH3 0x5874 JUMP JUMPDEST PUSH1 0x1B DUP5 ADD PUSH1 0x0 MSTORE PUSH1 0x20 PUSH1 0x0 KECCAK256 PUSH1 0x1F DUP5 ADD PUSH1 0x5 SHR DUP2 ADD PUSH1 0x20 DUP6 LT PUSH3 0x591C JUMPI JUMPDEST PUSH1 0x1F DUP4 ADD PUSH1 0x5 SHR DUP3 ADD DUP2 LT PUSH3 0x590F JUMPI POP POP PUSH3 0x23CB JUMP JUMPDEST PUSH1 0x0 DUP2 SSTORE PUSH1 0x1 ADD PUSH3 0x58F7 JUMP JUMPDEST POP DUP1 PUSH3 0x58F7 JUMP JUMPDEST SWAP1 PUSH1 0x7F AND SWAP1 PUSH3 0x23B7 JUMP JUMPDEST ADD MLOAD SWAP1 POP CODESIZE DUP1 PUSH3 0x2265 JUMP JUMPDEST SWAP1 DUP5 PUSH1 0x0 MSTORE PUSH1 0x20 PUSH1 0x0 KECCAK256 SWAP2 PUSH1 0x0 JUMPDEST PUSH1 0x1F NOT DUP6 AND DUP2 LT PUSH3 0x5995 JUMPI POP SWAP2 DUP4 SWAP2 PUSH1 0x1 SWAP4 PUSH2 0x180 SWAP7 SWAP6 PUSH1 0x1F NOT DUP2 AND LT PUSH3 0x597B JUMPI JUMPDEST POP POP POP DUP2 SHL ADD DUP4 SSTORE PUSH3 0x227A JUMP JUMPDEST ADD MLOAD PUSH1 0x0 NOT PUSH1 0xF8 DUP5 PUSH1 0x3 SHL AND SHR NOT AND SWAP1 SSTORE CODESIZE DUP1 DUP1 PUSH3 0x596D JUMP JUMPDEST SWAP2 SWAP3 PUSH1 0x20 PUSH1 0x1 DUP2 SWAP3 DUP7 DUP6 ADD MLOAD DUP2 SSTORE ADD SWAP5 ADD SWAP3 ADD PUSH3 0x5949 JUMP JUMPDEST DUP5 PUSH1 0x0 MSTORE PUSH1 0x20 PUSH1 0x0 KECCAK256 PUSH1 0x1F DUP5 ADD PUSH1 0x5 SHR DUP2 ADD PUSH1 0x20 DUP6 LT PUSH3 0x59EF JUMPI JUMPDEST PUSH1 0x1F DUP4 ADD PUSH1 0x5 SHR DUP3 ADD DUP2 LT PUSH3 0x59E2 JUMPI POP POP PUSH3 0x2245 JUMP JUMPDEST PUSH1 0x0 DUP2 SSTORE PUSH1 0x1 ADD PUSH3 0x59CA JUMP JUMPDEST POP DUP1 PUSH3 0x59CA JUMP JUMPDEST SWAP1 PUSH1 0x7F AND SWAP1 PUSH3 0x2231 JUMP JUMPDEST ADD MLOAD SWAP1 POP CODESIZE DUP1 PUSH3 0x2064 JUMP JUMPDEST SWAP1 PUSH1 0x1B DUP5 ADD PUSH1 0x0 MSTORE PUSH1 0x20 PUSH1 0x0 KECCAK256 SWAP2 PUSH1 0x0 JUMPDEST PUSH1 0x1F NOT DUP6 AND DUP2 LT PUSH3 0x5A6A JUMPI POP SWAP2 DUP4 SWAP2 PUSH1 0x1 SWAP4 PUSH1 0x1B SWAP6 PUSH1 0x1F NOT DUP2 AND LT PUSH3 0x5A50 JUMPI JUMPDEST POP POP POP DUP2 SHL ADD SWAP2 ADD SSTORE PUSH3 0x207A JUMP JUMPDEST ADD MLOAD PUSH1 0x0 NOT PUSH1 0xF8 DUP5 PUSH1 0x3 SHL AND SHR NOT AND SWAP1 SSTORE CODESIZE DUP1 DUP1 PUSH3 0x5A41 JUMP JUMPDEST SWAP2 SWAP3 PUSH1 0x20 PUSH1 0x1 DUP2 SWAP3 DUP7 DUP6 ADD MLOAD DUP2 SSTORE ADD SWAP5 ADD SWAP3 ADD PUSH3 0x5A1F JUMP JUMPDEST PUSH1 0x1B DUP5 ADD PUSH1 0x0 MSTORE PUSH1 0x20 PUSH1 0x0 KECCAK256 PUSH1 0x1F DUP5 ADD PUSH1 0x5 SHR DUP2 ADD PUSH1 0x20 DUP6 LT PUSH3 0x5AC7 JUMPI JUMPDEST PUSH1 0x1F DUP4 ADD PUSH1 0x5 SHR DUP3 ADD DUP2 LT PUSH3 0x5ABA JUMPI POP POP PUSH3 0x2046 JUMP JUMPDEST PUSH1 0x0 DUP2 SSTORE PUSH1 0x1 ADD PUSH3 0x5AA2 JUMP JUMPDEST POP DUP1 PUSH3 0x5AA2 JUMP JUMPDEST SWAP1 PUSH1 0x7F AND SWAP1 PUSH3 0x2032 JUMP JUMPDEST ADD MLOAD SWAP1 POP CODESIZE DUP1 PUSH3 0x1EE0 JUMP JUMPDEST SWAP1 DUP5 PUSH1 0x0 MSTORE PUSH1 0x20 PUSH1 0x0 KECCAK256 SWAP2 PUSH1 0x0 JUMPDEST PUSH1 0x1F NOT DUP6 AND DUP2 LT PUSH3 0x5B40 JUMPI POP SWAP2 DUP4 SWAP2 PUSH1 0x1 SWAP4 PUSH2 0x180 SWAP7 SWAP6 PUSH1 0x1F NOT DUP2 AND LT PUSH3 0x5B26 JUMPI JUMPDEST POP POP POP DUP2 SHL ADD DUP4 SSTORE PUSH3 0x1EF5 JUMP JUMPDEST ADD MLOAD PUSH1 0x0 NOT PUSH1 0xF8 DUP5 PUSH1 0x3 SHL AND SHR NOT AND SWAP1 SSTORE CODESIZE DUP1 DUP1 PUSH3 0x5B18 JUMP JUMPDEST SWAP2 SWAP3 PUSH1 0x20 PUSH1 0x1 DUP2 SWAP3 DUP7 DUP6 ADD MLOAD DUP2 SSTORE ADD SWAP5 ADD SWAP3 ADD PUSH3 0x5AF4 JUMP JUMPDEST DUP5 PUSH1 0x0 MSTORE PUSH1 0x20 PUSH1 0x0 KECCAK256 PUSH1 0x1F DUP5 ADD PUSH1 0x5 SHR DUP2 ADD PUSH1 0x20 DUP6 LT PUSH3 0x5B9A JUMPI JUMPDEST PUSH1 0x1F DUP4 ADD PUSH1 0x5 SHR DUP3 ADD DUP2 LT PUSH3 0x5B8D JUMPI POP POP PUSH3 0x1EC0 JUMP JUMPDEST PUSH1 0x0 DUP2 SSTORE PUSH1 0x1 ADD PUSH3 0x5B75 JUMP JUMPDEST POP DUP1 PUSH3 0x5B75 JUMP JUMPDEST SWAP1 PUSH1 0x7F AND SWAP1 PUSH3 0x1EAC JUMP JUMPDEST ADD MLOAD SWAP1 POP CODESIZE DUP1 PUSH3 0x1CDD JUMP JUMPDEST SWAP1 PUSH1 0x1B DUP5 ADD PUSH1 0x0 MSTORE PUSH1 0x20 PUSH1 0x0 KECCAK256 SWAP2 PUSH1 0x0 JUMPDEST PUSH1 0x1F NOT DUP6 AND DUP2 LT PUSH3 0x5C15 JUMPI POP SWAP2 DUP4 SWAP2 PUSH1 0x1 SWAP4 PUSH1 0x1B SWAP6 PUSH1 0x1F NOT DUP2 AND LT PUSH3 0x5BFB JUMPI JUMPDEST POP POP POP DUP2 SHL ADD SWAP2 ADD SSTORE PUSH3 0x1CF3 JUMP JUMPDEST ADD MLOAD PUSH1 0x0 NOT PUSH1 0xF8 DUP5 PUSH1 0x3 SHL AND SHR NOT AND SWAP1 SSTORE CODESIZE DUP1 DUP1 PUSH3 0x5BEC JUMP JUMPDEST SWAP2 SWAP3 PUSH1 0x20 PUSH1 0x1 DUP2 SWAP3 DUP7 DUP6 ADD MLOAD DUP2 SSTORE ADD SWAP5 ADD SWAP3 ADD PUSH3 0x5BCA JUMP JUMPDEST PUSH1 0x1B DUP5 ADD PUSH1 0x0 MSTORE PUSH1 0x20 PUSH1 0x0 KECCAK256 PUSH1 0x1F DUP5 ADD PUSH1 0x5 SHR DUP2 ADD PUSH1 0x20 DUP6 LT PUSH3 0x5C72 JUMPI JUMPDEST PUSH1 0x1F DUP4 ADD PUSH1 0x5 SHR DUP3 ADD DUP2 LT PUSH3 0x5C65 JUMPI POP POP PUSH3 0x1CBF JUMP JUMPDEST PUSH1 0x0 DUP2 SSTORE PUSH1 0x1 ADD PUSH3 0x5C4D JUMP JUMPDEST POP DUP1 PUSH3 0x5C4D JUMP JUMPDEST SWAP1 PUSH1 0x7F AND SWAP1 PUSH3 0x1CAB JUMP JUMPDEST ADD MLOAD SWAP1 POP CODESIZE DUP1 PUSH3 0x1B59 JUMP JUMPDEST SWAP1 DUP5 PUSH1 0x0 MSTORE PUSH1 0x20 PUSH1 0x0 KECCAK256 SWAP2 PUSH1 0x0 JUMPDEST PUSH1 0x1F NOT DUP6 AND DUP2 LT PUSH3 0x5CEB JUMPI POP SWAP2 DUP4 SWAP2 PUSH1 0x1 SWAP4 PUSH2 0x180 SWAP7 SWAP6 PUSH1 0x1F NOT DUP2 AND LT PUSH3 0x5CD1 JUMPI JUMPDEST POP POP POP DUP2 SHL ADD DUP4 SSTORE PUSH3 0x1B6E JUMP JUMPDEST ADD MLOAD PUSH1 0x0 NOT PUSH1 0xF8 DUP5 PUSH1 0x3 SHL AND SHR NOT AND SWAP1 SSTORE CODESIZE DUP1 DUP1 PUSH3 0x5CC3 JUMP JUMPDEST SWAP2 SWAP3 PUSH1 0x20 PUSH1 0x1 DUP2 SWAP3 DUP7 DUP6 ADD MLOAD DUP2 SSTORE ADD SWAP5 ADD SWAP3 ADD PUSH3 0x5C9F JUMP JUMPDEST DUP5 PUSH1 0x0 MSTORE PUSH1 0x20 PUSH1 0x0 KECCAK256 PUSH1 0x1F DUP5 ADD PUSH1 0x5 SHR DUP2 ADD PUSH1 0x20 DUP6 LT PUSH3 0x5D45 JUMPI JUMPDEST PUSH1 0x1F DUP4 ADD PUSH1 0x5 SHR DUP3 ADD DUP2 LT PUSH3 0x5D38 JUMPI POP POP PUSH3 0x1B39 JUMP JUMPDEST PUSH1 0x0 DUP2 SSTORE PUSH1 0x1 ADD PUSH3 0x5D20 JUMP JUMPDEST POP DUP1 PUSH3 0x5D20 JUMP JUMPDEST SWAP1 PUSH1 0x7F AND SWAP1 PUSH3 0x1B25 JUMP JUMPDEST ADD MLOAD SWAP1 POP CODESIZE DUP1 PUSH3 0x195B JUMP JUMPDEST SWAP1 PUSH1 0x1B DUP5 ADD PUSH1 0x0 MSTORE PUSH1 0x20 PUSH1 0x0 KECCAK256 SWAP2 PUSH1 0x0 JUMPDEST PUSH1 0x1F NOT DUP6 AND DUP2 LT PUSH3 0x5DC0 JUMPI POP SWAP2 DUP4 SWAP2 PUSH1 0x1 SWAP4 PUSH1 0x1B SWAP6 PUSH1 0x1F NOT DUP2 AND LT PUSH3 0x5DA6 JUMPI JUMPDEST POP POP POP DUP2 SHL ADD SWAP2 ADD SSTORE PUSH3 0x1971 JUMP JUMPDEST ADD MLOAD PUSH1 0x0 NOT PUSH1 0xF8 DUP5 PUSH1 0x3 SHL AND SHR NOT AND SWAP1 SSTORE CODESIZE DUP1 DUP1 PUSH3 0x5D97 JUMP JUMPDEST SWAP2 SWAP3 PUSH1 0x20 PUSH1 0x1 DUP2 SWAP3 DUP7 DUP6 ADD MLOAD DUP2 SSTORE ADD SWAP5 ADD SWAP3 ADD PUSH3 0x5D75 JUMP JUMPDEST PUSH1 0x1B DUP5 ADD PUSH1 0x0 MSTORE PUSH1 0x20 PUSH1 0x0 KECCAK256 PUSH1 0x1F DUP5 ADD PUSH1 0x5 SHR DUP2 ADD PUSH1 0x20 DUP6 LT PUSH3 0x5E1D JUMPI JUMPDEST PUSH1 0x1F DUP4 ADD PUSH1 0x5 SHR DUP3 ADD DUP2 LT PUSH3 0x5E10 JUMPI POP POP PUSH3 0x193D JUMP JUMPDEST PUSH1 0x0 DUP2 SSTORE PUSH1 0x1 ADD PUSH3 0x5DF8 JUMP JUMPDEST POP DUP1 PUSH3 0x5DF8 JUMP JUMPDEST SWAP1 PUSH1 0x7F AND SWAP1 PUSH3 0x1929 JUMP JUMPDEST ADD MLOAD SWAP1 POP CODESIZE DUP1 PUSH3 0x17D7 JUMP JUMPDEST SWAP1 DUP5 PUSH1 0x0 MSTORE PUSH1 0x20 PUSH1 0x0 KECCAK256 SWAP2 PUSH1 0x0 JUMPDEST PUSH1 0x1F NOT DUP6 AND DUP2 LT PUSH3 0x5E96 JUMPI POP SWAP2 DUP4 SWAP2 PUSH1 0x1 SWAP4 PUSH2 0x180 SWAP7 SWAP6 PUSH1 0x1F NOT DUP2 AND LT PUSH3 0x5E7C JUMPI JUMPDEST POP POP POP DUP2 SHL ADD DUP4 SSTORE PUSH3 0x17EC JUMP JUMPDEST ADD MLOAD PUSH1 0x0 NOT PUSH1 0xF8 DUP5 PUSH1 0x3 SHL AND SHR NOT AND SWAP1 SSTORE CODESIZE DUP1 DUP1 PUSH3 0x5E6E JUMP JUMPDEST SWAP2 SWAP3 PUSH1 0x20 PUSH1 0x1 DUP2 SWAP3 DUP7 DUP6 ADD MLOAD DUP2 SSTORE ADD SWAP5 ADD SWAP3 ADD PUSH3 0x5E4A JUMP JUMPDEST DUP5 PUSH1 0x0 MSTORE PUSH1 0x20 PUSH1 0x0 KECCAK256 PUSH1 0x1F DUP5 ADD PUSH1 0x5 SHR DUP2 ADD PUSH1 0x20 DUP6 LT PUSH3 0x5EF0 JUMPI JUMPDEST PUSH1 0x1F DUP4 ADD PUSH1 0x5 SHR DUP3 ADD DUP2 LT PUSH3 0x5EE3 JUMPI POP POP PUSH3 0x17B7 JUMP JUMPDEST PUSH1 0x0 DUP2 SSTORE PUSH1 0x1 ADD PUSH3 0x5ECB JUMP JUMPDEST POP DUP1 PUSH3 0x5ECB JUMP JUMPDEST SWAP1 PUSH1 0x7F AND SWAP1 PUSH3 0x17A3 JUMP JUMPDEST ADD MLOAD SWAP1 POP CODESIZE DUP1 PUSH3 0x15D3 JUMP JUMPDEST SWAP1 PUSH1 0x1B DUP5 ADD PUSH1 0x0 MSTORE PUSH1 0x20 PUSH1 0x0 KECCAK256 SWAP2 PUSH1 0x0 JUMPDEST PUSH1 0x1F NOT DUP6 AND DUP2 LT PUSH3 0x5F6B JUMPI POP SWAP2 DUP4 SWAP2 PUSH1 0x1 SWAP4 PUSH1 0x1B SWAP6 PUSH1 0x1F NOT DUP2 AND LT PUSH3 0x5F51 JUMPI JUMPDEST POP POP POP DUP2 SHL ADD SWAP2 ADD SSTORE PUSH3 0x15E9 JUMP JUMPDEST ADD MLOAD PUSH1 0x0 NOT PUSH1 0xF8 DUP5 PUSH1 0x3 SHL AND SHR NOT AND SWAP1 SSTORE CODESIZE DUP1 DUP1 PUSH3 0x5F42 JUMP JUMPDEST SWAP2 SWAP3 PUSH1 0x20 PUSH1 0x1 DUP2 SWAP3 DUP7 DUP6 ADD MLOAD DUP2 SSTORE ADD SWAP5 ADD SWAP3 ADD PUSH3 0x5F20 JUMP JUMPDEST PUSH1 0x1B DUP5 ADD PUSH1 0x0 MSTORE PUSH1 0x20 PUSH1 0x0 KECCAK256 PUSH1 0x1F DUP5 ADD PUSH1 0x5 SHR DUP2 ADD PUSH1 0x20 DUP6 LT PUSH3 0x5FC8 JUMPI JUMPDEST PUSH1 0x1F DUP4 ADD PUSH1 0x5 SHR DUP3 ADD DUP2 LT PUSH3 0x5FBB JUMPI POP POP PUSH3 0x15B5 JUMP JUMPDEST PUSH1 0x0 DUP2 SSTORE PUSH1 0x1 ADD PUSH3 0x5FA3 JUMP JUMPDEST POP DUP1 PUSH3 0x5FA3 JUMP JUMPDEST SWAP1 PUSH1 0x7F AND SWAP1 PUSH3 0x15A1 JUMP JUMPDEST ADD MLOAD SWAP1 POP CODESIZE DUP1 PUSH3 0x144F JUMP JUMPDEST SWAP1 DUP5 PUSH1 0x0 MSTORE PUSH1 0x20 PUSH1 0x0 KECCAK256 SWAP2 PUSH1 0x0 JUMPDEST PUSH1 0x1F NOT DUP6 AND DUP2 LT PUSH3 0x6041 JUMPI POP SWAP2 DUP4 SWAP2 PUSH1 0x1 SWAP4 PUSH2 0x180 SWAP7 SWAP6 PUSH1 0x1F NOT DUP2 AND LT PUSH3 0x6027 JUMPI JUMPDEST POP POP POP DUP2 SHL ADD DUP4 SSTORE PUSH3 0x1464 JUMP JUMPDEST ADD MLOAD PUSH1 0x0 NOT PUSH1 0xF8 DUP5 PUSH1 0x3 SHL AND SHR NOT AND SWAP1 SSTORE CODESIZE DUP1 DUP1 PUSH3 0x6019 JUMP JUMPDEST SWAP2 SWAP3 PUSH1 0x20 PUSH1 0x1 DUP2 SWAP3 DUP7 DUP6 ADD MLOAD DUP2 SSTORE ADD SWAP5 ADD SWAP3 ADD PUSH3 0x5FF5 JUMP JUMPDEST DUP5 PUSH1 0x0 MSTORE PUSH1 0x20 PUSH1 0x0 KECCAK256 PUSH1 0x1F DUP5 ADD PUSH1 0x5 SHR DUP2 ADD PUSH1 0x20 DUP6 LT PUSH3 0x609B JUMPI JUMPDEST PUSH1 0x1F DUP4 ADD PUSH1 0x5 SHR DUP3 ADD DUP2 LT PUSH3 0x608E JUMPI POP POP PUSH3 0x142F JUMP JUMPDEST PUSH1 0x0 DUP2 SSTORE PUSH1 0x1 ADD PUSH3 0x6076 JUMP JUMPDEST POP DUP1 PUSH3 0x6076 JUMP JUMPDEST SWAP1 PUSH1 0x7F AND SWAP1 PUSH3 0x141B JUMP JUMPDEST ADD MLOAD SWAP1 POP CODESIZE DUP1 PUSH3 0x1240 JUMP JUMPDEST SWAP1 PUSH1 0x1B DUP5 ADD PUSH1 0x0 MSTORE PUSH1 0x20 PUSH1 0x0 KECCAK256 SWAP2 PUSH1 0x0 JUMPDEST PUSH1 0x1F NOT DUP6 AND DUP2 LT PUSH3 0x6116 JUMPI POP SWAP2 DUP4 SWAP2 PUSH1 0x1 SWAP4 PUSH1 0x1B SWAP6 PUSH1 0x1F NOT DUP2 AND LT PUSH3 0x60FC JUMPI JUMPDEST POP POP POP DUP2 SHL ADD SWAP2 ADD SSTORE PUSH3 0x1256 JUMP JUMPDEST ADD MLOAD PUSH1 0x0 NOT PUSH1 0xF8 DUP5 PUSH1 0x3 SHL AND SHR NOT AND SWAP1 SSTORE CODESIZE DUP1 DUP1 PUSH3 0x60ED JUMP JUMPDEST SWAP2 SWAP3 PUSH1 0x20 PUSH1 0x1 DUP2 SWAP3 DUP7 DUP6 ADD MLOAD DUP2 SSTORE ADD SWAP5 ADD SWAP3 ADD PUSH3 0x60CB JUMP JUMPDEST PUSH1 0x1B DUP5 ADD PUSH1 0x0 MSTORE PUSH1 0x20 PUSH1 0x0 KECCAK256 PUSH1 0x1F DUP5 ADD PUSH1 0x5 SHR DUP2 ADD PUSH1 0x20 DUP6 LT PUSH3 0x6173 JUMPI JUMPDEST PUSH1 0x1F DUP4 ADD PUSH1 0x5 SHR DUP3 ADD DUP2 LT PUSH3 0x6166 JUMPI POP POP PUSH3 0x1222 JUMP JUMPDEST PUSH1 0x0 DUP2 SSTORE PUSH1 0x1 ADD PUSH3 0x614E JUMP JUMPDEST POP DUP1 PUSH3 0x614E JUMP JUMPDEST SWAP1 PUSH1 0x7F AND SWAP1 PUSH3 0x120E JUMP JUMPDEST ADD MLOAD SWAP1 POP CODESIZE DUP1 PUSH3 0x10BC JUMP JUMPDEST SWAP1 DUP5 PUSH1 0x0 MSTORE PUSH1 0x20 PUSH1 0x0 KECCAK256 SWAP2 PUSH1 0x0 JUMPDEST PUSH1 0x1F NOT DUP6 AND DUP2 LT PUSH3 0x61EC JUMPI POP SWAP2 DUP4 SWAP2 PUSH1 0x1 SWAP4 PUSH2 0x180 SWAP7 SWAP6 PUSH1 0x1F NOT DUP2 AND LT PUSH3 0x61D2 JUMPI JUMPDEST POP POP POP DUP2 SHL ADD DUP4 SSTORE PUSH3 0x10D1 JUMP JUMPDEST ADD MLOAD PUSH1 0x0 NOT PUSH1 0xF8 DUP5 PUSH1 0x3 SHL AND SHR NOT AND SWAP1 SSTORE CODESIZE DUP1 DUP1 PUSH3 0x61C4 JUMP JUMPDEST SWAP2 SWAP3 PUSH1 0x20 PUSH1 0x1 DUP2 SWAP3 DUP7 DUP6 ADD MLOAD DUP2 SSTORE ADD SWAP5 ADD SWAP3 ADD PUSH3 0x61A0 JUMP JUMPDEST DUP5 PUSH1 0x0 MSTORE PUSH1 0x20 PUSH1 0x0 KECCAK256 PUSH1 0x1F DUP5 ADD PUSH1 0x5 SHR DUP2 ADD PUSH1 0x20 DUP6 LT PUSH3 0x6246 JUMPI JUMPDEST PUSH1 0x1F DUP4 ADD PUSH1 0x5 SHR DUP3 ADD DUP2 LT PUSH3 0x6239 JUMPI POP POP PUSH3 0x109C JUMP JUMPDEST PUSH1 0x0 DUP2 SSTORE PUSH1 0x1 ADD PUSH3 0x6221 JUMP JUMPDEST POP DUP1 PUSH3 0x6221 JUMP JUMPDEST SWAP1 PUSH1 0x7F AND SWAP1 PUSH3 0x1088 JUMP JUMPDEST ADD MLOAD SWAP1 POP CODESIZE DUP1 PUSH3 0xEB6 JUMP JUMPDEST SWAP1 PUSH1 0x1B DUP5 ADD PUSH1 0x0 MSTORE PUSH1 0x20 PUSH1 0x0 KECCAK256 SWAP2 PUSH1 0x0 JUMPDEST PUSH1 0x1F NOT DUP6 AND DUP2 LT PUSH3 0x62C1 JUMPI POP SWAP2 DUP4 SWAP2 PUSH1 0x1 SWAP4 PUSH1 0x1B SWAP6 PUSH1 0x1F NOT DUP2 AND LT PUSH3 0x62A7 JUMPI JUMPDEST POP POP POP DUP2 SHL ADD SWAP2 ADD SSTORE PUSH3 0xECC JUMP JUMPDEST ADD MLOAD PUSH1 0x0 NOT PUSH1 0xF8 DUP5 PUSH1 0x3 SHL AND SHR NOT AND SWAP1 SSTORE CODESIZE DUP1 DUP1 PUSH3 0x6298 JUMP JUMPDEST SWAP2 SWAP3 PUSH1 0x20 PUSH1 0x1 DUP2 SWAP3 DUP7 DUP6 ADD MLOAD DUP2 SSTORE ADD SWAP5 ADD SWAP3 ADD PUSH3 0x6276 JUMP JUMPDEST PUSH1 0x1B DUP5 ADD PUSH1 0x0 MSTORE PUSH1 0x20 PUSH1 0x0 KECCAK256 PUSH1 0x1F DUP5 ADD PUSH1 0x5 SHR DUP2 ADD PUSH1 0x20 DUP6 LT PUSH3 0x631E JUMPI JUMPDEST PUSH1 0x1F DUP4 ADD PUSH1 0x5 SHR DUP3 ADD DUP2 LT PUSH3 0x6311 JUMPI POP POP PUSH3 0xE98 JUMP JUMPDEST PUSH1 0x0 DUP2 SSTORE PUSH1 0x1 ADD PUSH3 0x62F9 JUMP JUMPDEST POP DUP1 PUSH3 0x62F9 JUMP JUMPDEST SWAP1 PUSH1 0x7F AND SWAP1 PUSH3 0xE84 JUMP JUMPDEST ADD MLOAD SWAP1 POP CODESIZE DUP1 PUSH3 0xD32 JUMP JUMPDEST SWAP1 DUP5 PUSH1 0x0 MSTORE PUSH1 0x20 PUSH1 0x0 KECCAK256 SWAP2 PUSH1 0x0 JUMPDEST PUSH1 0x1F NOT DUP6 AND DUP2 LT PUSH3 0x6397 JUMPI POP SWAP2 DUP4 SWAP2 PUSH1 0x1 SWAP4 PUSH2 0x180 SWAP7 SWAP6 PUSH1 0x1F NOT DUP2 AND LT PUSH3 0x637D JUMPI JUMPDEST POP POP POP DUP2 SHL ADD DUP4 SSTORE PUSH3 0xD47 JUMP JUMPDEST ADD MLOAD PUSH1 0x0 NOT PUSH1 0xF8 DUP5 PUSH1 0x3 SHL AND SHR NOT AND SWAP1 SSTORE CODESIZE DUP1 DUP1 PUSH3 0x636F JUMP JUMPDEST SWAP2 SWAP3 PUSH1 0x20 PUSH1 0x1 DUP2 SWAP3 DUP7 DUP6 ADD MLOAD DUP2 SSTORE ADD SWAP5 ADD SWAP3 ADD PUSH3 0x634B JUMP JUMPDEST DUP5 PUSH1 0x0 MSTORE PUSH1 0x20 PUSH1 0x0 KECCAK256 PUSH1 0x1F DUP5 ADD PUSH1 0x5 SHR DUP2 ADD PUSH1 0x20 DUP6 LT PUSH3 0x63F1 JUMPI JUMPDEST PUSH1 0x1F DUP4 ADD PUSH1 0x5 SHR DUP3 ADD DUP2 LT PUSH3 0x63E4 JUMPI POP POP PUSH3 0xD12 JUMP JUMPDEST PUSH1 0x0 DUP2 SSTORE PUSH1 0x1 ADD PUSH3 0x63CC JUMP JUMPDEST POP DUP1 PUSH3 0x63CC JUMP JUMPDEST SWAP1 PUSH1 0x7F AND SWAP1 PUSH3 0xCFE JUMP JUMPDEST ADD MLOAD SWAP1 POP CODESIZE DUP1 PUSH3 0xB29 JUMP JUMPDEST SWAP1 PUSH1 0x1B DUP5 ADD PUSH1 0x0 MSTORE PUSH1 0x20 PUSH1 0x0 KECCAK256 SWAP2 PUSH1 0x0 JUMPDEST PUSH1 0x1F NOT DUP6 AND DUP2 LT PUSH3 0x646C JUMPI POP SWAP2 DUP4 SWAP2 PUSH1 0x1 SWAP4 PUSH1 0x1B SWAP6 PUSH1 0x1F NOT DUP2 AND LT PUSH3 0x6452 JUMPI JUMPDEST POP POP POP DUP2 SHL ADD SWAP2 ADD SSTORE PUSH3 0xB3F JUMP JUMPDEST ADD MLOAD PUSH1 0x0 NOT PUSH1 0xF8 DUP5 PUSH1 0x3 SHL AND SHR NOT AND SWAP1 SSTORE CODESIZE DUP1 DUP1 PUSH3 0x6443 JUMP JUMPDEST SWAP2 SWAP3 PUSH1 0x20 PUSH1 0x1 DUP2 SWAP3 DUP7 DUP6 ADD MLOAD DUP2 SSTORE ADD SWAP5 ADD SWAP3 ADD PUSH3 0x6421 JUMP JUMPDEST PUSH1 0x1B DUP5 ADD PUSH1 0x0 MSTORE PUSH1 0x20 PUSH1 0x0 KECCAK256 PUSH1 0x1F DUP5 ADD PUSH1 0x5 SHR DUP2 ADD PUSH1 0x20 DUP6 LT PUSH3 0x64C9 JUMPI JUMPDEST PUSH1 0x1F DUP4 ADD PUSH1 0x5 SHR DUP3 ADD DUP2 LT PUSH3 0x64BC JUMPI POP POP PUSH3 0xB0B JUMP JUMPDEST PUSH1 0x0 DUP2 SSTORE PUSH1 0x1 ADD PUSH3 0x64A4 JUMP JUMPDEST POP DUP1 PUSH3 0x64A4 JUMP JUMPDEST SWAP1 PUSH1 0x7F AND SWAP1 PUSH3 0xAF7 JUMP JUMPDEST ADD MLOAD SWAP1 POP CODESIZE DUP1 PUSH3 0x9A5 JUMP JUMPDEST SWAP1 DUP5 PUSH1 0x0 MSTORE PUSH1 0x20 PUSH1 0x0 KECCAK256 SWAP2 PUSH1 0x0 JUMPDEST PUSH1 0x1F NOT DUP6 AND DUP2 LT PUSH3 0x6542 JUMPI POP SWAP2 DUP4 SWAP2 PUSH1 0x1 SWAP4 PUSH2 0x180 SWAP7 SWAP6 PUSH1 0x1F NOT DUP2 AND LT PUSH3 0x6528 JUMPI JUMPDEST POP POP POP DUP2 SHL ADD DUP4 SSTORE PUSH3 0x9BA JUMP JUMPDEST ADD MLOAD PUSH1 0x0 NOT PUSH1 0xF8 DUP5 PUSH1 0x3 SHL AND SHR NOT AND SWAP1 SSTORE CODESIZE DUP1 DUP1 PUSH3 0x651A JUMP JUMPDEST SWAP2 SWAP3 PUSH1 0x20 PUSH1 0x1 DUP2 SWAP3 DUP7 DUP6 ADD MLOAD DUP2 SSTORE ADD SWAP5 ADD SWAP3 ADD PUSH3 0x64F6 JUMP JUMPDEST DUP5 PUSH1 0x0 MSTORE PUSH1 0x20 PUSH1 0x0 KECCAK256 PUSH1 0x1F DUP5 ADD PUSH1 0x5 SHR DUP2 ADD PUSH1 0x20 DUP6 LT PUSH3 0x659C JUMPI JUMPDEST PUSH1 0x1F DUP4 ADD PUSH1 0x5 SHR DUP3 ADD DUP2 LT PUSH3 0x658F JUMPI POP POP PUSH3 0x985 JUMP JUMPDEST PUSH1 0x0 DUP2 SSTORE PUSH1 0x1 ADD PUSH3 0x6577 JUMP JUMPDEST POP DUP1 PUSH3 0x6577 JUMP JUMPDEST SWAP1 PUSH1 0x7F AND SWAP1 PUSH3 0x971 JUMP JUMPDEST ADD MLOAD SWAP1 POP CODESIZE DUP1 PUSH3 0x7A5 JUMP JUMPDEST SWAP1 PUSH1 0x1B DUP5 ADD PUSH1 0x0 MSTORE PUSH1 0x20 PUSH1 0x0 KECCAK256 SWAP2 PUSH1 0x0 JUMPDEST PUSH1 0x1F NOT DUP6 AND DUP2 LT PUSH3 0x6617 JUMPI POP SWAP2 DUP4 SWAP2 PUSH1 0x1 SWAP4 PUSH1 0x1B SWAP6 PUSH1 0x1F NOT DUP2 AND LT PUSH3 0x65FD JUMPI JUMPDEST POP POP POP DUP2 SHL ADD SWAP2 ADD SSTORE PUSH3 0x7BB JUMP JUMPDEST ADD MLOAD PUSH1 0x0 NOT PUSH1 0xF8 DUP5 PUSH1 0x3 SHL AND SHR NOT AND SWAP1 SSTORE CODESIZE DUP1 DUP1 PUSH3 0x65EE JUMP JUMPDEST SWAP2 SWAP3 PUSH1 0x20 PUSH1 0x1 DUP2 SWAP3 DUP7 DUP6 ADD MLOAD DUP2 SSTORE ADD SWAP5 ADD SWAP3 ADD PUSH3 0x65CC JUMP JUMPDEST PUSH1 0x1B DUP5 ADD PUSH1 0x0 MSTORE PUSH1 0x20 PUSH1 0x0 KECCAK256 PUSH1 0x1F DUP5 ADD PUSH1 0x5 SHR DUP2 ADD PUSH1 0x20 DUP6 LT PUSH3 0x6674 JUMPI JUMPDEST PUSH1 0x1F DUP4 ADD PUSH1 0x5 SHR DUP3 ADD DUP2 LT PUSH3 0x6667 JUMPI POP POP PUSH3 0x787 JUMP JUMPDEST PUSH1 0x0 DUP2 SSTORE PUSH1 0x1 ADD PUSH3 0x664F JUMP JUMPDEST POP DUP1 PUSH3 0x664F JUMP JUMPDEST SWAP1 PUSH1 0x7F AND SWAP1 PUSH3 0x773 JUMP JUMPDEST ADD MLOAD SWAP1 POP CODESIZE DUP1 PUSH3 0x621 JUMP JUMPDEST SWAP1 DUP5 PUSH1 0x0 MSTORE PUSH1 0x20 PUSH1 0x0 KECCAK256 SWAP2 PUSH1 0x0 JUMPDEST PUSH1 0x1F NOT DUP6 AND DUP2 LT PUSH3 0x66ED JUMPI POP SWAP2 DUP4 SWAP2 PUSH1 0x1 SWAP4 PUSH2 0x180 SWAP7 SWAP6 PUSH1 0x1F NOT DUP2 AND LT PUSH3 0x66D3 JUMPI JUMPDEST POP POP POP DUP2 SHL ADD DUP4 SSTORE PUSH3 0x636 JUMP JUMPDEST ADD MLOAD PUSH1 0x0 NOT PUSH1 0xF8 DUP5 PUSH1 0x3 SHL AND SHR NOT AND SWAP1 SSTORE CODESIZE DUP1 DUP1 PUSH3 0x66C5 JUMP JUMPDEST SWAP2 SWAP3 PUSH1 0x20 PUSH1 0x1 DUP2 SWAP3 DUP7 DUP6 ADD MLOAD DUP2 SSTORE ADD SWAP5 ADD SWAP3 ADD PUSH3 0x66A1 JUMP JUMPDEST DUP5 PUSH1 0x0 MSTORE PUSH1 0x20 PUSH1 0x0 KECCAK256 PUSH1 0x1F DUP5 ADD PUSH1 0x5 SHR DUP2 ADD PUSH1 0x20 DUP6 LT PUSH3 0x6747 JUMPI JUMPDEST PUSH1 0x1F DUP4 ADD PUSH1 0x5 SHR DUP3 ADD DUP2 LT PUSH3 0x673A JUMPI POP POP PUSH3 0x601 JUMP JUMPDEST PUSH1 0x0 DUP2 SSTORE PUSH1 0x1 ADD PUSH3 0x6722 JUMP JUMPDEST POP DUP1 PUSH3 0x6722 JUMP JUMPDEST SWAP1 PUSH1 0x7F AND SWAP1 PUSH3 0x5ED JUMP JUMPDEST ADD MLOAD SWAP1 POP CODESIZE DUP1 PUSH3 0x413 JUMP JUMPDEST SWAP1 PUSH1 0x1B DUP5 ADD PUSH1 0x0 MSTORE PUSH1 0x20 PUSH1 0x0 KECCAK256 SWAP2 PUSH1 0x0 JUMPDEST PUSH1 0x1F NOT DUP6 AND DUP2 LT PUSH3 0x67C2 JUMPI POP SWAP2 DUP4 SWAP2 PUSH1 0x1 SWAP4 PUSH1 0x1B SWAP6 PUSH1 0x1F NOT DUP2 AND LT PUSH3 0x67A8 JUMPI JUMPDEST POP POP POP DUP2 SHL ADD SWAP2 ADD SSTORE PUSH3 0x429 JUMP JUMPDEST ADD MLOAD PUSH1 0x0 NOT PUSH1 0xF8 DUP5 PUSH1 0x3 SHL AND SHR NOT AND SWAP1 SSTORE CODESIZE DUP1 DUP1 PUSH3 0x6799 JUMP JUMPDEST SWAP2 SWAP3 PUSH1 0x20 PUSH1 0x1 DUP2 SWAP3 DUP7 DUP6 ADD MLOAD DUP2 SSTORE ADD SWAP5 ADD SWAP3 ADD PUSH3 0x6777 JUMP JUMPDEST PUSH1 0x1B DUP5 ADD PUSH1 0x0 MSTORE PUSH1 0x20 PUSH1 0x0 KECCAK256 PUSH1 0x1F DUP5 ADD PUSH1 0x5 SHR DUP2 ADD PUSH1 0x20 DUP6 LT PUSH3 0x681F JUMPI JUMPDEST PUSH1 0x1F DUP4 ADD PUSH1 0x5 SHR DUP3 ADD DUP2 LT PUSH3 0x6812 JUMPI POP POP PUSH3 0x3F5 JUMP JUMPDEST PUSH1 0x0 DUP2 SSTORE PUSH1 0x1 ADD PUSH3 0x67FA JUMP JUMPDEST POP DUP1 PUSH3 0x67FA JUMP JUMPDEST SWAP1 PUSH1 0x7F AND SWAP1 PUSH3 0x3E1 JUMP JUMPDEST ADD MLOAD SWAP1 POP CODESIZE DUP1 PUSH3 0x28D JUMP JUMPDEST SWAP1 DUP5 PUSH1 0x0 MSTORE PUSH1 0x20 PUSH1 0x0 KECCAK256 SWAP2 PUSH1 0x0 JUMPDEST PUSH1 0x1F NOT DUP6 AND DUP2 LT PUSH3 0x6898 JUMPI POP SWAP2 DUP4 SWAP2 PUSH1 0x1 SWAP4 PUSH2 0x180 SWAP7 SWAP6 PUSH1 0x1F NOT DUP2 AND LT PUSH3 0x687E JUMPI JUMPDEST POP POP POP DUP2 SHL ADD DUP4 SSTORE PUSH3 0x2A2 JUMP JUMPDEST ADD MLOAD PUSH1 0x0 NOT PUSH1 0xF8 DUP5 PUSH1 0x3 SHL AND SHR NOT AND SWAP1 SSTORE CODESIZE DUP1 DUP1 PUSH3 0x6870 JUMP JUMPDEST SWAP2 SWAP3 PUSH1 0x20 PUSH1 0x1 DUP2 SWAP3 DUP7 DUP6 ADD MLOAD DUP2 SSTORE ADD SWAP5 ADD SWAP3 ADD PUSH3 0x684C JUMP JUMPDEST DUP5 PUSH1 0x0 MSTORE PUSH1 0x20 PUSH1 0x0 KECCAK256 PUSH1 0x1F DUP5 ADD PUSH1 0x5 SHR DUP2 ADD PUSH1 0x20 DUP6 LT PUSH3 0x68F2 JUMPI JUMPDEST PUSH1 0x1F DUP4 ADD PUSH1 0x5 SHR DUP3 ADD DUP2 LT PUSH3 0x68E5 JUMPI POP POP PUSH3 0x26D JUMP JUMPDEST PUSH1 0x0 DUP2 SSTORE PUSH1 0x1 ADD PUSH3 0x68CD JUMP JUMPDEST POP DUP1 PUSH3 0x68CD JUMP JUMPDEST SWAP1 PUSH1 0x7F AND SWAP1 PUSH3 0x256 JUMP JUMPDEST PUSH1 0x0 DUP1 REVERT JUMPDEST PUSH1 0xC0 DUP2 ADD SWAP1 DUP2 LT PUSH1 0x1 PUSH1 0x1 PUSH1 0x40 SHL SUB DUP3 GT OR PUSH3 0x4869 JUMPI PUSH1 0x40 MSTORE JUMP JUMPDEST PUSH2 0x1A0 DUP2 ADD SWAP1 DUP2 LT PUSH1 0x1 PUSH1 0x1 PUSH1 0x40 SHL SUB DUP3 GT OR PUSH3 0x4869 JUMPI PUSH1 0x40 MSTORE JUMP JUMPDEST PUSH1 0x40 DUP2 ADD SWAP1 DUP2 LT PUSH1 0x1 PUSH1 0x1 PUSH1 0x40 SHL SUB DUP3 GT OR PUSH3 0x4869 JUMPI PUSH1 0x40 MSTORE JUMP JUMPDEST PUSH1 0x1F SWAP1 SWAP2 ADD PUSH1 0x1F NOT AND DUP2 ADD SWAP1 PUSH1 0x1 PUSH1 0x1 PUSH1 0x40 SHL SUB DUP3 GT SWAP1 DUP3 LT OR PUSH3 0x4869 JUMPI PUSH1 0x40 MSTORE JUMP JUMPDEST SWAP1 DUP2 MLOAD SWAP2 PUSH1 0x0 JUMPDEST DUP4 DUP2 LT PUSH3 0x699C JUMPI POP POP ADD PUSH1 0x0 DUP2 MSTORE SWAP1 JUMP JUMPDEST DUP1 PUSH1 0x20 DUP1 SWAP3 DUP5 ADD ADD MLOAD DUP2 DUP6 ADD MSTORE ADD PUSH3 0x698A JUMP JUMPDEST PUSH1 0xA0 PUSH1 0x40 MLOAD PUSH3 0x69C0 DUP2 PUSH3 0x690A JUMP JUMPDEST PUSH1 0x0 SWAP2 DUP2 DUP4 DUP1 SWAP4 MSTORE DUP3 PUSH1 0x20 DUP3 ADD MSTORE DUP3 PUSH1 0x40 DUP3 ADD MSTORE DUP3 PUSH1 0x60 DUP3 ADD MSTORE DUP3 PUSH1 0x80 DUP3 ADD MSTORE ADD MSTORE DUP2 MLOAD PUSH1 0x1 SWAP3 DUP2 DUP5 SHL SWAP1 PUSH1 0x2 SWAP3 DUP1 DUP4 DIV DUP5 EQ SWAP1 ISZERO OR ISZERO PUSH3 0x6AFF JUMPI PUSH1 0x20 DUP2 ADD MLOAD SWAP2 DUP3 DUP7 SHL SWAP3 DUP1 DUP5 DIV DUP6 EQ SWAP1 ISZERO OR ISZERO PUSH3 0x6AEB JUMPI PUSH1 0x40 DUP3 ADD MLOAD SWAP5 DUP6 DUP8 SHL SWAP6 DUP1 DUP8 DIV DUP7 EQ SWAP1 ISZERO OR ISZERO PUSH3 0x6AAF JUMPI PUSH1 0x60 DUP4 ADD MLOAD SWAP7 DUP8 DUP2 SHL SWAP8 DUP1 DUP10 DIV DUP8 EQ SWAP1 ISZERO OR ISZERO PUSH3 0x6AD7 JUMPI PUSH1 0x80 DUP5 ADD MLOAD SWAP4 DUP5 DUP3 SHL SWAP5 DUP1 DUP7 DIV DUP9 EQ SWAP1 ISZERO OR ISZERO PUSH3 0x6AC3 JUMPI PUSH1 0xA0 ADD MLOAD DUP1 SWAP2 SHL SWAP6 DUP2 DUP8 DIV EQ SWAP1 ISZERO OR ISZERO PUSH3 0x6AAF JUMPI POP PUSH1 0x40 MLOAD SWAP6 PUSH3 0x6A81 DUP8 PUSH3 0x690A JUMP JUMPDEST PUSH1 0x64 DUP1 SWAP7 DUP2 DUP1 SWAP7 DUP2 DUP1 SWAP7 DIV DUP12 MSTORE DIV PUSH1 0x20 DUP11 ADD MSTORE DIV PUSH1 0x40 DUP9 ADD MSTORE DIV PUSH1 0x60 DUP7 ADD MSTORE DIV PUSH1 0x80 DUP5 ADD MSTORE DIV PUSH1 0xA0 DUP3 ADD MSTORE SWAP1 JUMP JUMPDEST PUSH4 0x4E487B71 PUSH1 0xE0 SHL DUP2 MSTORE PUSH1 0x11 PUSH1 0x4 MSTORE PUSH1 0x24 SWAP1 REVERT JUMPDEST PUSH4 0x4E487B71 PUSH1 0xE0 SHL DUP4 MSTORE PUSH1 0x11 PUSH1 0x4 MSTORE PUSH1 0x24 DUP4 REVERT JUMPDEST PUSH4 0x4E487B71 PUSH1 0xE0 SHL DUP3 MSTORE PUSH1 0x11 PUSH1 0x4 MSTORE PUSH1 0x24 DUP3 REVERT JUMPDEST PUSH4 0x4E487B71 PUSH1 0xE0 SHL DUP6 MSTORE PUSH1 0x11 PUSH1 0x4 MSTORE PUSH1 0x24 DUP6 REVERT JUMPDEST PUSH4 0x4E487B71 PUSH1 0xE0 SHL DUP5 MSTORE PUSH1 0x11 PUSH1 0x4 MSTORE PUSH1 0x24 DUP5 REVERT INVALID PUSH1 0x80 DUP1 PUSH1 0x40 MSTORE PUSH1 0x4 DUP1 CALLDATASIZE LT ISZERO PUSH2 0x14 JUMPI PUSH1 0x0 DUP1 REVERT JUMPDEST PUSH1 0x0 SWAP2 DUP3 CALLDATALOAD PUSH1 0xE0 SHR SWAP1 DUP2 PUSH4 0x39D022E1 EQ PUSH2 0xF58 JUMPI POP DUP1 PUSH4 0x489B0F5A EQ PUSH2 0xD28 JUMPI DUP1 PUSH4 0x6790D4B9 EQ PUSH2 0xBF3 JUMPI DUP1 PUSH4 0x715018A6 EQ PUSH2 0xB99 JUMPI DUP1 PUSH4 0x8DA5CB5B EQ PUSH2 0xB72 JUMPI DUP1 PUSH4 0xAB0E2378 EQ PUSH2 0xAE9 JUMPI DUP1 PUSH4 0xB5A65818 EQ PUSH2 0xA5E JUMPI DUP1 PUSH4 0xBFECD1A7 EQ PUSH2 0x72F JUMPI DUP1 PUSH4 0xC58E527F EQ PUSH2 0x57E JUMPI DUP1 PUSH4 0xD9DCFDB8 EQ PUSH2 0x1D4 JUMPI DUP1 PUSH4 0xED81049D EQ PUSH2 0x170 JUMPI PUSH4 0xF2FDE38B EQ PUSH2 0xA6 JUMPI PUSH1 0x0 DUP1 REVERT JUMPDEST CALLVALUE PUSH2 0x16C JUMPI PUSH1 0x20 CALLDATASIZE PUSH1 0x3 NOT ADD SLT PUSH2 0x16C JUMPI PUSH1 0x1 PUSH1 0x1 PUSH1 0xA0 SHL SUB DUP2 CALLDATALOAD DUP2 DUP2 AND SWAP3 SWAP1 DUP4 SWAP1 SUB PUSH2 0x168 JUMPI PUSH2 0xD5 PUSH2 0x1221 JUMP JUMPDEST DUP3 ISZERO PUSH2 0x115 JUMPI POP DUP3 SLOAD PUSH1 0x1 PUSH1 0x1 PUSH1 0xA0 SHL SUB NOT DUP2 AND DUP4 OR DUP5 SSTORE AND PUSH32 0x8BE0079C531659141344CD1FD0A4F28419497F9722A3DAAFE3B4186F6B6457E0 DUP4 DUP1 LOG3 DUP1 RETURN JUMPDEST PUSH1 0x84 SWAP1 PUSH1 0x20 PUSH1 0x40 MLOAD SWAP2 PUSH3 0x461BCD PUSH1 0xE5 SHL DUP4 MSTORE DUP3 ADD MSTORE PUSH1 0x26 PUSH1 0x24 DUP3 ADD MSTORE PUSH32 0x4F776E61626C653A206E6577206F776E657220697320746865207A65726F2061 PUSH1 0x44 DUP3 ADD MSTORE PUSH6 0x646472657373 PUSH1 0xD0 SHL PUSH1 0x64 DUP3 ADD MSTORE REVERT JUMPDEST DUP4 DUP1 REVERT JUMPDEST POP DUP1 REVERT JUMPDEST DUP3 CALLVALUE PUSH2 0x1D1 JUMPI PUSH1 0x40 PUSH1 0x60 SWAP2 PUSH1 0x20 PUSH2 0x19D PUSH2 0x189 CALLDATASIZE PUSH2 0x104A JUMP JUMPDEST SWAP3 SWAP1 DUP2 DUP7 MLOAD SWAP4 DUP3 DUP6 DUP1 SWAP5 MLOAD SWAP4 DUP5 SWAP3 ADD PUSH2 0x107C JUMP JUMPDEST DUP2 ADD PUSH1 0x2 DUP2 MSTORE SUB ADD SWAP1 KECCAK256 SWAP1 DUP3 MSTORE PUSH1 0x20 MSTORE KECCAK256 PUSH1 0xE DUP2 ADD SLOAD SWAP1 PUSH1 0x12 PUSH1 0xF DUP3 ADD SLOAD SWAP2 ADD SLOAD SWAP1 PUSH1 0x40 MLOAD SWAP3 DUP4 MSTORE PUSH1 0x20 DUP4 ADD MSTORE PUSH1 0x40 DUP3 ADD MSTORE RETURN JUMPDEST DUP1 REVERT JUMPDEST POP CALLVALUE PUSH2 0x16C JUMPI PUSH2 0x120 CALLDATASIZE PUSH1 0x3 NOT ADD SLT PUSH2 0x16C JUMPI DUP1 CALLDATALOAD PUSH8 0xFFFFFFFFFFFFFFFF DUP2 GT PUSH2 0x57A JUMPI PUSH2 0x205 SWAP1 CALLDATASIZE SWAP1 DUP4 ADD PUSH2 0xFEE JUMP JUMPDEST SWAP1 PUSH1 0xC0 CALLDATASIZE PUSH1 0x43 NOT ADD SLT PUSH2 0x57A JUMPI PUSH1 0x40 MLOAD SWAP2 PUSH2 0x21F DUP4 PUSH2 0xFB0 JUMP JUMPDEST PUSH1 0x44 CALLDATALOAD DUP4 MSTORE PUSH1 0x20 DUP4 ADD SWAP4 PUSH1 0x64 CALLDATALOAD DUP6 MSTORE PUSH1 0x40 DUP5 ADD SWAP2 PUSH1 0x84 CALLDATALOAD DUP4 MSTORE PUSH1 0x60 DUP6 ADD PUSH1 0xA4 CALLDATALOAD DUP2 MSTORE PUSH1 0x80 DUP7 ADD SWAP1 PUSH1 0xC4 CALLDATALOAD DUP3 MSTORE PUSH2 0x282 PUSH1 0x20 PUSH1 0xA0 DUP10 ADD SWAP5 PUSH1 0xE4 CALLDATALOAD DUP7 MSTORE PUSH2 0x262 PUSH2 0x1279 JUMP JUMPDEST POP PUSH2 0x26F DUP2 MLOAD ISZERO ISZERO PUSH2 0x12AB JUMP JUMPDEST DUP2 PUSH1 0x40 MLOAD SWAP4 DUP3 DUP6 DUP1 SWAP5 MLOAD SWAP4 DUP5 SWAP3 ADD PUSH2 0x107C JUMP JUMPDEST DUP2 ADD PUSH1 0x2 DUP2 MSTORE SUB ADD SWAP1 KECCAK256 SWAP5 PUSH1 0x24 SWAP6 DUP7 CALLDATALOAD DUP7 MSTORE PUSH1 0x20 MSTORE PUSH1 0x40 DUP6 KECCAK256 SWAP9 PUSH2 0x2AC PUSH1 0xFF PUSH1 0x1A DUP13 ADD SLOAD AND PUSH2 0x12EF JUMP JUMPDEST DUP9 MLOAD SWAP1 PUSH1 0x2 DUP12 ADD SLOAD DUP1 SWAP3 LT PUSH2 0x545 JUMPI DUP1 MLOAD PUSH1 0x3 DUP13 ADD SLOAD DUP1 SWAP2 LT PUSH2 0x510 JUMPI DUP4 MLOAD SWAP3 DUP11 DUP14 ADD SLOAD DUP1 SWAP5 LT PUSH2 0x4DA JUMPI SWAP1 DUP13 SWAP5 SWAP4 SWAP3 SWAP2 PUSH1 0x5 DUP8 MLOAD SWAP7 ADD SLOAD DUP1 SWAP7 LT PUSH2 0x4A4 JUMPI SWAP1 DUP14 SWAP7 SWAP6 SWAP5 SWAP4 SWAP3 SWAP2 PUSH1 0x6 DUP10 MLOAD SWAP9 ADD SLOAD DUP1 SWAP9 LT PUSH2 0x46F JUMPI SWAP1 DUP15 SWAP9 SWAP8 SWAP7 SWAP6 SWAP5 SWAP4 SWAP3 SWAP2 PUSH1 0x7 DUP12 MLOAD SWAP11 ADD SLOAD DUP1 SWAP11 LT PUSH2 0x43A JUMPI PUSH2 0x33F SWAP4 DUP16 SWAP4 PUSH2 0x33F PUSH2 0x33F SWAP10 SWAP8 SWAP5 DUP7 PUSH2 0x33F PUSH2 0x348 SWAP16 SWAP15 SWAP14 SWAP12 SWAP9 SWAP7 PUSH2 0x33F SWAP8 MLOAD PUSH2 0x1334 JUMP JUMPDEST SWAP1 MSTORE DUP3 MLOAD PUSH2 0x1334 JUMP JUMPDEST SWAP1 MSTORE PUSH2 0x104 CALLDATALOAD SWAP5 DUP6 ISZERO PUSH2 0x3EA JUMPI PUSH1 0x19 ADD SLOAD SWAP3 PUSH1 0x32 DUP5 MUL SWAP4 DUP1 DUP6 DIV PUSH1 0x32 EQ SWAP1 ISZERO OR ISZERO PUSH2 0x3DA JUMPI PUSH1 0x1 DUP7 ADD DUP1 SWAP7 GT PUSH2 0x3DA JUMPI DUP6 ISZERO PUSH2 0x3CA JUMPI PUSH1 0xE0 DUP6 PUSH2 0x39A PUSH2 0xE10 DUP10 DUP9 DIV DUP2 DUP2 LT ISZERO PUSH2 0x3AE JUMPI POP JUMPDEST TIMESTAMP PUSH2 0x136A JUMP JUMPDEST PUSH2 0x3A7 PUSH1 0x40 MLOAD DUP1 SWAP4 PUSH2 0x10C4 JUMP JUMPDEST PUSH1 0xC0 DUP3 ADD MSTORE RETURN JUMPDEST SWAP1 POP PUSH3 0x2A300 DUP1 DUP3 GT PUSH2 0x3C2 JUMPI JUMPDEST POP PUSH2 0x394 JUMP JUMPDEST SWAP1 POP DUP5 PUSH2 0x3BC JUMP JUMPDEST PUSH4 0x4E487B71 PUSH1 0xE0 SHL DUP3 MSTORE PUSH1 0x12 SWAP1 MSTORE REVERT JUMPDEST PUSH4 0x4E487B71 PUSH1 0xE0 SHL DUP3 MSTORE PUSH1 0x11 SWAP1 MSTORE REVERT JUMPDEST PUSH1 0x40 MLOAD PUSH3 0x461BCD PUSH1 0xE5 SHL DUP2 MSTORE PUSH1 0x20 DUP2 DUP7 ADD MSTORE DUP1 DUP5 ADD DUP5 SWAP1 MSTORE PUSH32 0x50726F64756374696F6E206D7573742062652067726561746572207468616E20 PUSH1 0x44 DUP3 ADD MSTORE PUSH4 0x7A65726F PUSH1 0xE0 SHL PUSH1 0x64 DUP3 ADD MSTORE PUSH1 0x84 SWAP1 REVERT JUMPDEST PUSH1 0x64 DUP15 PUSH1 0xF DUP16 PUSH1 0x20 PUSH1 0x40 MLOAD SWAP4 PUSH3 0x461BCD PUSH1 0xE5 SHL DUP6 MSTORE DUP5 ADD MSTORE DUP3 ADD MSTORE PUSH15 0x139BDD08195B9BDD59DA0819DBDB19 PUSH1 0x8A SHL PUSH1 0x44 DUP3 ADD MSTORE REVERT JUMPDEST PUSH1 0x40 MLOAD PUSH3 0x461BCD PUSH1 0xE5 SHL DUP2 MSTORE PUSH1 0x20 DUP2 DUP16 ADD MSTORE PUSH1 0xF DUP2 DUP15 ADD MSTORE PUSH15 0x2737BA1032B737BAB3B41034B937B7 PUSH1 0x89 SHL PUSH1 0x44 DUP3 ADD MSTORE PUSH1 0x64 SWAP1 REVERT JUMPDEST PUSH1 0x40 MLOAD PUSH3 0x461BCD PUSH1 0xE5 SHL DUP2 MSTORE PUSH1 0x20 DUP2 DUP15 ADD MSTORE PUSH1 0x10 DUP2 DUP14 ADD MSTORE PUSH16 0x4E6F7420656E6F756768206272617373 PUSH1 0x80 SHL PUSH1 0x44 DUP3 ADD MSTORE PUSH1 0x64 SWAP1 REVERT JUMPDEST PUSH1 0x40 MLOAD PUSH3 0x461BCD PUSH1 0xE5 SHL DUP2 MSTORE PUSH1 0x20 DUP2 DUP14 ADD MSTORE PUSH1 0x10 DUP2 DUP13 ADD MSTORE PUSH16 0x4E6F7420656E6F7567682073746F6E65 PUSH1 0x80 SHL PUSH1 0x44 DUP3 ADD MSTORE PUSH1 0x64 SWAP1 REVERT JUMPDEST PUSH1 0x40 MLOAD PUSH3 0x461BCD PUSH1 0xE5 SHL DUP2 MSTORE PUSH1 0x20 DUP2 DUP13 ADD MSTORE PUSH1 0xF DUP2 DUP12 ADD MSTORE PUSH15 0x139BDD08195B9BDD59DA081DDBDBD9 PUSH1 0x8A SHL PUSH1 0x44 DUP3 ADD MSTORE PUSH1 0x64 SWAP1 REVERT JUMPDEST PUSH1 0x40 MLOAD PUSH3 0x461BCD PUSH1 0xE5 SHL DUP2 MSTORE PUSH1 0x20 DUP2 DUP12 ADD MSTORE PUSH1 0xF DUP2 DUP11 ADD MSTORE PUSH15 0x139BDD08195B9BDD59DA08199BDBD9 PUSH1 0x8A SHL PUSH1 0x44 DUP3 ADD MSTORE PUSH1 0x64 SWAP1 REVERT JUMPDEST DUP3 DUP1 REVERT JUMPDEST POP SWAP1 CALLVALUE PUSH2 0x1D1 JUMPI PUSH1 0x60 CALLDATASIZE PUSH1 0x3 NOT ADD SLT PUSH2 0x1D1 JUMPI PUSH8 0xFFFFFFFFFFFFFFFF SWAP2 DUP1 CALLDATALOAD DUP4 DUP2 GT PUSH2 0x57A JUMPI PUSH2 0x5B1 SWAP1 CALLDATASIZE SWAP1 DUP4 ADD PUSH2 0xFEE JUMP JUMPDEST SWAP3 PUSH1 0x44 CALLDATALOAD DUP2 DUP2 GT PUSH2 0x168 JUMPI PUSH2 0x5C9 SWAP1 CALLDATASIZE SWAP1 DUP5 ADD PUSH2 0xFEE JUMP JUMPDEST SWAP4 PUSH2 0x5D2 PUSH2 0x1221 JUMP JUMPDEST PUSH2 0x5DE DUP2 MLOAD ISZERO ISZERO PUSH2 0x12AB JUMP JUMPDEST PUSH1 0x40 MLOAD DUP2 DUP2 DUP1 SWAP4 MLOAD PUSH2 0x5F6 DUP2 PUSH1 0x20 SWAP7 DUP8 DUP1 SWAP7 ADD PUSH2 0x107C JUMP JUMPDEST DUP2 ADD PUSH1 0x2 DUP2 MSTORE SUB ADD SWAP1 KECCAK256 PUSH1 0x24 CALLDATALOAD DUP6 MSTORE DUP2 MSTORE PUSH1 0x1B PUSH1 0x40 DUP6 KECCAK256 PUSH2 0x61D PUSH1 0xFF PUSH1 0x1A DUP4 ADD SLOAD AND PUSH2 0x12EF JUMP JUMPDEST ADD SWAP3 DUP6 MLOAD SWAP3 DUP4 GT PUSH2 0x71C JUMPI POP PUSH2 0x633 DUP4 SLOAD PUSH2 0x10FB JUMP JUMPDEST PUSH1 0x1F DUP2 GT PUSH2 0x6D9 JUMPI JUMPDEST POP DUP1 PUSH1 0x1F DUP4 GT PUSH1 0x1 EQ PUSH2 0x677 JUMPI POP DUP4 SWAP5 DUP3 SWAP4 SWAP5 SWAP3 PUSH2 0x66C JUMPI JUMPDEST POP POP DUP2 PUSH1 0x1 SHL SWAP2 PUSH1 0x0 NOT SWAP1 PUSH1 0x3 SHL SHR NOT AND OR SWAP1 SSTORE DUP1 RETURN JUMPDEST ADD MLOAD SWAP1 POP CODESIZE DUP1 PUSH2 0x655 JUMP JUMPDEST SWAP1 PUSH1 0x1F NOT DUP4 AND SWAP6 DUP5 DUP7 MSTORE DUP3 DUP7 KECCAK256 SWAP3 DUP7 SWAP1 JUMPDEST DUP9 DUP3 LT PUSH2 0x6C1 JUMPI POP POP DUP4 PUSH1 0x1 SWAP6 SWAP7 SWAP8 LT PUSH2 0x6A8 JUMPI JUMPDEST POP POP POP DUP2 SHL ADD SWAP1 SSTORE DUP1 RETURN JUMPDEST ADD MLOAD PUSH1 0x0 NOT PUSH1 0xF8 DUP5 PUSH1 0x3 SHL AND SHR NOT AND SWAP1 SSTORE CODESIZE DUP1 DUP1 PUSH2 0x69D JUMP JUMPDEST DUP1 PUSH1 0x1 DUP6 SWAP7 DUP3 SWAP5 SWAP7 DUP7 ADD MLOAD DUP2 SSTORE ADD SWAP6 ADD SWAP4 ADD SWAP1 PUSH2 0x688 JUMP JUMPDEST DUP4 DUP6 MSTORE DUP2 DUP6 KECCAK256 PUSH1 0x1F DUP5 ADD PUSH1 0x5 SHR DUP2 ADD SWAP2 DUP4 DUP6 LT PUSH2 0x712 JUMPI JUMPDEST PUSH1 0x1F ADD PUSH1 0x5 SHR ADD SWAP1 JUMPDEST DUP2 DUP2 LT PUSH2 0x707 JUMPI POP PUSH2 0x63C JUMP JUMPDEST DUP6 DUP2 SSTORE PUSH1 0x1 ADD PUSH2 0x6FA JUMP JUMPDEST SWAP1 SWAP2 POP DUP2 SWAP1 PUSH2 0x6F1 JUMP JUMPDEST PUSH4 0x4E487B71 PUSH1 0xE0 SHL DUP6 MSTORE PUSH1 0x41 SWAP1 MSTORE PUSH1 0x24 DUP5 REVERT JUMPDEST POP CALLVALUE PUSH2 0x16C JUMPI PUSH1 0x40 CALLDATASIZE PUSH1 0x3 NOT ADD SLT PUSH2 0x16C JUMPI DUP1 CALLDATALOAD SWAP2 PUSH8 0xFFFFFFFFFFFFFFFF SWAP2 DUP3 DUP5 GT PUSH2 0x16C JUMPI CALLDATASIZE PUSH1 0x23 DUP6 ADD SLT ISZERO PUSH2 0x16C JUMPI DUP4 DUP2 ADD CALLDATALOAD SWAP3 DUP1 DUP5 GT PUSH2 0xA4B JUMPI PUSH1 0x5 SWAP4 DUP1 DUP6 SHL SWAP6 PUSH1 0x40 MLOAD SWAP3 PUSH1 0x20 SWAP3 PUSH2 0x786 DUP5 DUP11 ADD DUP7 PUSH2 0xFCC JUMP JUMPDEST DUP5 MSTORE DUP3 DUP5 ADD SWAP1 PUSH1 0x24 DUP1 SWAP10 DUP5 ADD ADD SWAP3 CALLDATASIZE DUP5 GT PUSH2 0xA47 JUMPI DUP10 DUP2 ADD SWAP3 JUMPDEST DUP5 DUP5 LT PUSH2 0x9B5 JUMPI POP POP POP POP POP DUP6 CALLDATALOAD SWAP1 PUSH2 0x7B7 PUSH2 0x1279 JUMP JUMPDEST POP PUSH2 0x7C0 PUSH2 0x1279 JUMP JUMPDEST SWAP3 DUP6 JUMPDEST DUP2 MLOAD DUP2 LT ISZERO PUSH2 0x9A3 JUMPI DUP3 DUP2 DUP10 SHL DUP4 ADD ADD MLOAD PUSH1 0x40 DUP2 ADD MLOAD PUSH2 0x802 JUMPI JUMPDEST POP PUSH1 0x0 NOT DUP2 EQ PUSH2 0x7F0 JUMPI PUSH1 0x1 ADD PUSH2 0x7C3 JUMP JUMPDEST PUSH4 0x4E487B71 PUSH1 0xE0 SHL DUP8 MSTORE PUSH1 0x11 DUP7 MSTORE DUP9 DUP8 REVERT JUMPDEST DUP1 MLOAD SWAP1 DUP5 DUP1 PUSH2 0x81A PUSH1 0x40 MLOAD SWAP5 DUP6 DUP2 MLOAD SWAP4 DUP5 SWAP3 ADD PUSH2 0x107C JUMP JUMPDEST DUP4 ADD SWAP3 DUP2 DUP2 PUSH1 0x2 SWAP6 DUP7 DUP2 MSTORE SUB ADD SWAP1 KECCAK256 SWAP2 ADD MLOAD DUP10 MSTORE DUP5 MSTORE PUSH2 0x99B PUSH2 0x990 DUP7 PUSH1 0x40 DUP12 KECCAK256 PUSH2 0x866 PUSH1 0x40 MLOAD SWAP6 PUSH2 0x84B DUP8 PUSH2 0xF7D JUMP JUMPDEST PUSH2 0x854 DUP4 PUSH2 0x1135 JUMP JUMPDEST DUP8 MSTORE PUSH1 0x1 DUP4 ADD SLOAD DUP11 DUP9 ADD MSTORE DUP3 ADD PUSH2 0x11DB JUMP JUMPDEST PUSH1 0x40 DUP7 ADD MSTORE PUSH2 0x877 PUSH1 0x8 DUP3 ADD PUSH2 0x11DB JUMP JUMPDEST PUSH1 0x60 SWAP1 DUP2 DUP8 ADD MSTORE PUSH1 0xE DUP3 ADD SLOAD PUSH1 0x80 SWAP1 DUP2 DUP9 ADD MSTORE DUP12 PUSH2 0x96A PUSH1 0xF DUP6 ADD SLOAD SWAP5 PUSH1 0xA0 SWAP10 DUP11 SWAP7 DUP8 DUP3 ADD MSTORE PUSH1 0x10 DUP3 ADD SLOAD PUSH1 0xC0 DUP3 ADD MSTORE PUSH1 0x11 DUP3 ADD SLOAD PUSH1 0xE0 DUP3 ADD MSTORE PUSH1 0x12 DUP3 ADD SLOAD PUSH2 0x100 DUP3 ADD MSTORE PUSH2 0x180 PUSH2 0x8FA PUSH1 0x1B PUSH2 0x8D0 PUSH1 0x13 DUP7 ADD PUSH2 0x11DB JUMP JUMPDEST SWAP5 PUSH2 0x120 DUP6 ADD SWAP6 DUP7 MSTORE PUSH1 0x19 DUP2 ADD SLOAD PUSH2 0x140 DUP7 ADD MSTORE PUSH1 0xFF PUSH1 0x1A DUP3 ADD SLOAD AND ISZERO ISZERO PUSH2 0x160 DUP7 ADD MSTORE ADD PUSH2 0x1135 JUMP JUMPDEST SWAP2 ADD MSTORE MLOAD SWAP4 PUSH2 0x914 PUSH2 0x90D DUP9 DUP8 MLOAD PUSH2 0x1357 JUMP JUMPDEST DUP5 MLOAD PUSH2 0x136A JUMP JUMPDEST DUP4 MSTORE DUP13 PUSH2 0x932 PUSH2 0x927 DUP10 DUP4 DUP10 ADD MLOAD PUSH2 0x1357 JUMP JUMPDEST SWAP2 DUP6 ADD SWAP2 DUP3 MLOAD PUSH2 0x136A JUMP JUMPDEST SWAP1 MSTORE PUSH2 0x942 DUP8 PUSH1 0x40 DUP8 ADD MLOAD PUSH2 0x1357 JUMP JUMPDEST PUSH2 0x951 PUSH1 0x40 DUP6 ADD SWAP2 DUP3 MLOAD PUSH2 0x136A JUMP JUMPDEST SWAP1 MSTORE PUSH2 0x960 DUP8 DUP3 DUP8 ADD MLOAD PUSH2 0x1357 JUMP JUMPDEST SWAP3 ADD SWAP2 DUP3 MLOAD PUSH2 0x136A JUMP JUMPDEST SWAP1 MSTORE PUSH2 0x987 PUSH2 0x97C DUP6 DUP4 DUP6 ADD MLOAD PUSH2 0x1357 JUMP JUMPDEST SWAP2 DUP14 ADD SWAP2 DUP3 MLOAD PUSH2 0x136A JUMP JUMPDEST SWAP1 MSTORE ADD MLOAD PUSH2 0x1357 JUMP JUMPDEST SWAP2 DUP8 ADD SWAP2 DUP3 MLOAD PUSH2 0x136A JUMP JUMPDEST SWAP1 MSTORE CODESIZE PUSH2 0x7DE JUMP JUMPDEST PUSH1 0xC0 DUP6 PUSH2 0x9B3 PUSH1 0x40 MLOAD DUP1 SWAP3 PUSH2 0x10C4 JUMP JUMPDEST RETURN JUMPDEST DUP4 CALLDATALOAD DUP4 DUP2 GT PUSH2 0xA43 JUMPI DUP3 ADD PUSH1 0x60 SWAP1 DUP2 PUSH1 0x23 NOT DUP3 CALLDATASIZE SUB ADD SLT PUSH2 0xA29 JUMPI PUSH1 0x40 MLOAD SWAP2 DUP3 ADD DUP3 DUP2 LT DUP7 DUP3 GT OR PUSH2 0xA31 JUMPI PUSH1 0x40 MSTORE DUP13 DUP2 ADD CALLDATALOAD DUP6 DUP2 GT PUSH2 0xA2D JUMPI SWAP1 PUSH2 0xA01 PUSH1 0x64 SWAP3 DUP16 CALLDATASIZE SWAP2 DUP5 ADD ADD PUSH2 0xFEE JUMP JUMPDEST DUP4 MSTORE PUSH1 0x44 DUP2 ADD CALLDATALOAD DUP10 DUP5 ADD MSTORE ADD CALLDATALOAD DUP1 ISZERO ISZERO DUP2 SUB PUSH2 0xA29 JUMPI PUSH1 0x40 DUP3 ADD MSTORE DUP2 MSTORE SWAP3 DUP6 ADD SWAP3 DUP6 ADD PUSH2 0x7A0 JUMP JUMPDEST DUP11 DUP1 REVERT JUMPDEST DUP12 DUP1 REVERT JUMPDEST PUSH4 0x4E487B71 PUSH1 0xE0 SHL DUP13 MSTORE PUSH1 0x41 DUP12 MSTORE DUP14 DUP13 REVERT JUMPDEST DUP10 DUP1 REVERT JUMPDEST DUP8 DUP1 REVERT JUMPDEST PUSH4 0x4E487B71 PUSH1 0xE0 SHL DUP4 MSTORE PUSH1 0x41 DUP3 MSTORE PUSH1 0x24 DUP4 REVERT JUMPDEST POP CALLVALUE PUSH2 0x16C JUMPI PUSH1 0x20 CALLDATASIZE PUSH1 0x3 NOT ADD SLT PUSH2 0x16C JUMPI DUP1 CALLDATALOAD PUSH1 0x1 PUSH1 0x1 PUSH1 0xA0 SHL SUB DUP2 AND SWAP2 SWAP1 DUP3 SWAP1 SUB PUSH2 0x57A JUMPI PUSH2 0xA8D PUSH2 0x1221 JUMP JUMPDEST DUP2 ISZERO PUSH2 0xAAF JUMPI POP PUSH12 0xFFFFFFFFFFFFFFFFFFFFFFFF PUSH1 0xA0 SHL PUSH1 0x1 SLOAD AND OR PUSH1 0x1 SSTORE DUP1 RETURN JUMPDEST PUSH1 0x64 SWAP1 PUSH1 0x20 PUSH1 0x40 MLOAD SWAP2 PUSH3 0x461BCD PUSH1 0xE5 SHL DUP4 MSTORE DUP3 ADD MSTORE PUSH1 0x13 PUSH1 0x24 DUP3 ADD MSTORE PUSH19 0x496E76616C6964206E65772061646472657373 PUSH1 0x68 SHL PUSH1 0x44 DUP3 ADD MSTORE REVERT JUMPDEST POP CALLVALUE PUSH2 0x16C JUMPI PUSH1 0x20 CALLDATASIZE PUSH1 0x3 NOT ADD SLT PUSH2 0x16C JUMPI PUSH1 0x1 PUSH1 0x1 PUSH1 0xA0 SHL SUB DUP2 CALLDATALOAD DUP2 DUP2 AND SWAP3 SWAP1 DUP4 SWAP1 SUB PUSH2 0x168 JUMPI PUSH2 0xB19 PUSH2 0x1221 JUMP JUMPDEST PUSH1 0x1 SLOAD SWAP2 DUP3 AND PUSH2 0xB35 JUMPI POP PUSH1 0x1 PUSH1 0x1 PUSH1 0xA0 SHL SUB NOT AND OR PUSH1 0x1 SSTORE DUP1 RETURN JUMPDEST PUSH1 0x64 SWAP1 PUSH1 0x20 PUSH1 0x40 MLOAD SWAP2 PUSH3 0x461BCD PUSH1 0xE5 SHL DUP4 MSTORE DUP3 ADD MSTORE PUSH1 0x16 PUSH1 0x24 DUP3 ADD MSTORE PUSH22 0x13185B99139195081A5CC8185B1C9958591E481CD95D PUSH1 0x52 SHL PUSH1 0x44 DUP3 ADD MSTORE REVERT JUMPDEST DUP3 CALLVALUE PUSH2 0x1D1 JUMPI DUP1 PUSH1 0x3 NOT CALLDATASIZE ADD SLT PUSH2 0x1D1 JUMPI SLOAD PUSH1 0x40 MLOAD PUSH1 0x1 PUSH1 0x1 PUSH1 0xA0 SHL SUB SWAP1 SWAP2 AND DUP2 MSTORE PUSH1 0x20 SWAP1 RETURN JUMPDEST DUP3 CALLVALUE PUSH2 0x1D1 JUMPI DUP1 PUSH1 0x3 NOT CALLDATASIZE ADD SLT PUSH2 0x1D1 JUMPI PUSH2 0xBB2 PUSH2 0x1221 JUMP JUMPDEST DUP1 SLOAD PUSH1 0x1 PUSH1 0x1 PUSH1 0xA0 SHL SUB NOT DUP2 AND DUP3 SSTORE DUP2 SWAP1 PUSH1 0x1 PUSH1 0x1 PUSH1 0xA0 SHL SUB AND PUSH32 0x8BE0079C531659141344CD1FD0A4F28419497F9722A3DAAFE3B4186F6B6457E0 DUP3 DUP1 LOG3 DUP1 RETURN JUMPDEST DUP3 CALLVALUE PUSH2 0x1D1 JUMPI PUSH2 0xC02 CALLDATASIZE PUSH2 0x104A JUMP JUMPDEST SWAP1 PUSH1 0x40 MLOAD DUP2 DUP2 DUP1 SWAP4 MLOAD PUSH1 0x20 DUP2 SWAP4 ADD SWAP2 PUSH2 0xC1A SWAP3 PUSH2 0x107C JUMP JUMPDEST DUP2 ADD PUSH1 0x2 DUP2 MSTORE SUB PUSH1 0x20 ADD SWAP1 KECCAK256 SWAP1 DUP3 MSTORE PUSH1 0x20 MSTORE PUSH1 0x40 SWAP1 KECCAK256 PUSH2 0xC39 DUP2 PUSH2 0x1135 JUMP JUMPDEST PUSH1 0x1 DUP3 ADD SLOAD SWAP1 SWAP2 PUSH2 0xC4C PUSH1 0x2 DUP3 ADD PUSH2 0x11DB JUMP JUMPDEST SWAP3 PUSH2 0xC59 PUSH1 0x8 DUP4 ADD PUSH2 0x11DB JUMP JUMPDEST SWAP2 PUSH1 0xE DUP2 ADD SLOAD PUSH1 0xF DUP3 ADD SLOAD PUSH1 0x10 DUP4 ADD SLOAD PUSH1 0x11 DUP5 ADD SLOAD PUSH1 0x12 DUP6 ADD SLOAD SWAP2 PUSH1 0x13 DUP7 ADD PUSH2 0xC81 SWAP1 PUSH2 0x11DB JUMP JUMPDEST SWAP4 PUSH1 0x19 DUP8 ADD SLOAD SWAP6 PUSH1 0x1A DUP9 ADD SLOAD PUSH1 0xFF AND SWAP8 PUSH1 0x1B ADD PUSH2 0xC9D SWAP1 PUSH2 0x1135 JUMP JUMPDEST SWAP10 PUSH1 0x40 MLOAD SWAP13 DUP14 SWAP13 DUP14 SWAP12 DUP13 PUSH2 0x380 DUP1 SWAP2 MSTORE DUP14 ADD PUSH2 0xCB8 SWAP2 PUSH2 0x109F JUMP JUMPDEST SWAP12 PUSH1 0x20 ADD MSTORE PUSH1 0x40 DUP14 ADD PUSH2 0xCCA SWAP2 PUSH2 0x10C4 JUMP JUMPDEST PUSH2 0x100 DUP13 ADD PUSH2 0xCD8 SWAP2 PUSH2 0x10C4 JUMP JUMPDEST PUSH2 0x1C0 DUP12 ADD MSTORE PUSH2 0x1E0 DUP11 ADD MSTORE PUSH2 0x200 DUP10 ADD MSTORE PUSH2 0x220 DUP9 ADD MSTORE PUSH2 0x240 DUP8 ADD MSTORE PUSH2 0x260 DUP7 ADD PUSH2 0xD04 SWAP2 PUSH2 0x10C4 JUMP JUMPDEST PUSH2 0x320 DUP6 ADD MSTORE ISZERO ISZERO PUSH2 0x340 DUP5 ADD MSTORE DUP3 DUP2 SUB PUSH2 0x360 DUP5 ADD MSTORE PUSH2 0xD24 SWAP2 PUSH2 0x109F JUMP JUMPDEST SUB SWAP1 RETURN JUMPDEST DUP3 CALLVALUE PUSH2 0x1D1 JUMPI PUSH1 0x40 PUSH2 0xD24 SWAP2 PUSH1 0x20 PUSH2 0xDC3 PUSH2 0xD42 CALLDATASIZE PUSH2 0x104A JUMP JUMPDEST SWAP3 SWAP1 PUSH1 0x60 PUSH2 0x180 DUP8 MLOAD PUSH2 0xD54 DUP2 PUSH2 0xF7D JUMP JUMPDEST DUP3 DUP2 MSTORE DUP8 DUP6 DUP3 ADD MSTORE PUSH2 0xD64 PUSH2 0x1279 JUMP JUMPDEST DUP10 DUP3 ADD MSTORE PUSH2 0xD70 PUSH2 0x1279 JUMP JUMPDEST DUP4 DUP3 ADD MSTORE DUP8 PUSH1 0x80 DUP3 ADD MSTORE DUP8 PUSH1 0xA0 DUP3 ADD MSTORE DUP8 PUSH1 0xC0 DUP3 ADD MSTORE DUP8 PUSH1 0xE0 DUP3 ADD MSTORE DUP8 PUSH2 0x100 DUP3 ADD MSTORE PUSH2 0xD9B PUSH2 0x1279 JUMP JUMPDEST PUSH2 0x120 DUP3 ADD MSTORE DUP8 PUSH2 0x140 DUP3 ADD MSTORE DUP8 PUSH2 0x160 DUP3 ADD MSTORE ADD MSTORE DUP2 DUP7 MLOAD SWAP4 DUP3 DUP6 DUP1 SWAP5 MLOAD SWAP4 DUP5 SWAP3 ADD PUSH2 0x107C JUMP JUMPDEST DUP2 ADD PUSH1 0x2 DUP2 MSTORE SUB ADD SWAP1 KECCAK256 SWAP1 DUP3 MSTORE PUSH1 0x20 MSTORE KECCAK256 PUSH2 0xE83 PUSH1 0x1B PUSH1 0x40 MLOAD SWAP3 PUSH2 0xDE6 DUP5 PUSH2 0xF7D JUMP JUMPDEST PUSH2 0xDEF DUP2 PUSH2 0x1135 JUMP JUMPDEST DUP5 MSTORE PUSH1 0x1 DUP2 ADD SLOAD PUSH1 0x20 DUP6 ADD MSTORE PUSH2 0xE07 PUSH1 0x2 DUP3 ADD PUSH2 0x11DB JUMP JUMPDEST PUSH1 0x40 DUP6 ADD MSTORE PUSH2 0xE18 PUSH1 0x8 DUP3 ADD PUSH2 0x11DB JUMP JUMPDEST PUSH1 0x60 DUP6 ADD MSTORE PUSH1 0xE DUP2 ADD SLOAD PUSH1 0x80 DUP6 ADD MSTORE PUSH1 0xF DUP2 ADD SLOAD PUSH1 0xA0 DUP6 ADD MSTORE PUSH1 0x10 DUP2 ADD SLOAD PUSH1 0xC0 DUP6 ADD MSTORE PUSH1 0x11 DUP2 ADD SLOAD PUSH1 0xE0 DUP6 ADD MSTORE PUSH1 0x12 DUP2 ADD SLOAD PUSH2 0x100 DUP6 ADD MSTORE PUSH2 0xE5C PUSH1 0x13 DUP3 ADD PUSH2 0x11DB JUMP JUMPDEST PUSH2 0x120 DUP6 ADD MSTORE PUSH1 0x19 DUP2 ADD SLOAD PUSH2 0x140 DUP6 ADD MSTORE PUSH1 0xFF PUSH1 0x1A DUP3 ADD SLOAD AND ISZERO ISZERO PUSH2 0x160 DUP6 ADD MSTORE ADD PUSH2 0x1135 JUMP JUMPDEST PUSH2 0x180 DUP3 ADD MSTORE PUSH1 0x40 MLOAD SWAP2 DUP3 SWAP2 PUSH1 0x20 DUP4 MSTORE PUSH2 0x180 PUSH2 0xEAE DUP3 MLOAD PUSH2 0x380 PUSH1 0x20 DUP8 ADD MSTORE PUSH2 0x3A0 DUP7 ADD SWAP1 PUSH2 0x109F JUMP JUMPDEST SWAP2 PUSH1 0x20 DUP2 ADD MLOAD PUSH1 0x40 DUP7 ADD MSTORE PUSH2 0xECB PUSH1 0x40 DUP3 ADD MLOAD PUSH1 0x60 DUP8 ADD SWAP1 PUSH2 0x10C4 JUMP JUMPDEST PUSH2 0xEDE PUSH1 0x60 DUP3 ADD MLOAD PUSH2 0x120 DUP8 ADD SWAP1 PUSH2 0x10C4 JUMP JUMPDEST PUSH1 0x80 DUP2 ADD MLOAD PUSH2 0x1E0 DUP7 ADD MSTORE PUSH1 0xA0 DUP2 ADD MLOAD PUSH2 0x200 DUP7 ADD MSTORE PUSH1 0xC0 DUP2 ADD MLOAD PUSH2 0x220 DUP7 ADD MSTORE PUSH1 0xE0 DUP2 ADD MLOAD PUSH2 0x240 DUP7 ADD MSTORE PUSH2 0x100 DUP2 ADD MLOAD PUSH2 0x260 DUP7 ADD MSTORE PUSH2 0xF2A PUSH2 0x120 DUP3 ADD MLOAD PUSH2 0x280 DUP8 ADD SWAP1 PUSH2 0x10C4 JUMP JUMPDEST PUSH2 0x140 DUP2 ADD MLOAD PUSH2 0x340 DUP7 ADD MSTORE PUSH2 0x160 DUP2 ADD MLOAD ISZERO ISZERO PUSH2 0x360 DUP7 ADD MSTORE ADD MLOAD DUP4 DUP3 SUB PUSH1 0x1F NOT ADD PUSH2 0x380 DUP6 ADD MSTORE PUSH2 0x109F JUMP JUMPDEST DUP4 SWAP1 CALLVALUE PUSH2 0x16C JUMPI DUP2 PUSH1 0x3 NOT CALLDATASIZE ADD SLT PUSH2 0x16C JUMPI PUSH1 0x1 SLOAD PUSH1 0x1 PUSH1 0x1 PUSH1 0xA0 SHL SUB AND DUP2 MSTORE PUSH1 0x20 SWAP1 RETURN JUMPDEST PUSH2 0x1A0 DUP2 ADD SWAP1 DUP2 LT PUSH8 0xFFFFFFFFFFFFFFFF DUP3 GT OR PUSH2 0xF9A JUMPI PUSH1 0x40 MSTORE JUMP JUMPDEST PUSH4 0x4E487B71 PUSH1 0xE0 SHL PUSH1 0x0 MSTORE PUSH1 0x41 PUSH1 0x4 MSTORE PUSH1 0x24 PUSH1 0x0 REVERT JUMPDEST PUSH1 0xC0 DUP2 ADD SWAP1 DUP2 LT PUSH8 0xFFFFFFFFFFFFFFFF DUP3 GT OR PUSH2 0xF9A JUMPI PUSH1 0x40 MSTORE JUMP JUMPDEST SWAP1 PUSH1 0x1F DUP1 NOT SWAP2 ADD AND DUP2 ADD SWAP1 DUP2 LT PUSH8 0xFFFFFFFFFFFFFFFF DUP3 GT OR PUSH2 0xF9A JUMPI PUSH1 0x40 MSTORE JUMP JUMPDEST DUP2 PUSH1 0x1F DUP3 ADD SLT ISZERO PUSH2 0x1045 JUMPI DUP1 CALLDATALOAD SWAP1 PUSH8 0xFFFFFFFFFFFFFFFF DUP3 GT PUSH2 0xF9A JUMPI PUSH1 0x40 MLOAD SWAP3 PUSH2 0x1023 PUSH1 0x1F DUP5 ADD PUSH1 0x1F NOT AND PUSH1 0x20 ADD DUP6 PUSH2 0xFCC JUMP JUMPDEST DUP3 DUP5 MSTORE PUSH1 0x20 DUP4 DUP4 ADD ADD GT PUSH2 0x1045 JUMPI DUP2 PUSH1 0x0 SWAP3 PUSH1 0x20 DUP1 SWAP4 ADD DUP4 DUP7 ADD CALLDATACOPY DUP4 ADD ADD MSTORE SWAP1 JUMP JUMPDEST PUSH1 0x0 DUP1 REVERT JUMPDEST PUSH1 0x40 PUSH1 0x3 NOT DUP3 ADD SLT PUSH2 0x1045 JUMPI PUSH1 0x4 CALLDATALOAD SWAP1 PUSH8 0xFFFFFFFFFFFFFFFF DUP3 GT PUSH2 0x1045 JUMPI PUSH2 0x1075 SWAP2 PUSH1 0x4 ADD PUSH2 0xFEE JUMP JUMPDEST SWAP1 PUSH1 0x24 CALLDATALOAD SWAP1 JUMP JUMPDEST PUSH1 0x0 JUMPDEST DUP4 DUP2 LT PUSH2 0x108F JUMPI POP POP PUSH1 0x0 SWAP2 ADD MSTORE JUMP JUMPDEST DUP2 DUP2 ADD MLOAD DUP4 DUP3 ADD MSTORE PUSH1 0x20 ADD PUSH2 0x107F JUMP JUMPDEST SWAP1 PUSH1 0x20 SWAP2 PUSH2 0x10B8 DUP2 MLOAD DUP1 SWAP3 DUP2 DUP6 MSTORE DUP6 DUP1 DUP7 ADD SWAP2 ADD PUSH2 0x107C JUMP JUMPDEST PUSH1 0x1F ADD PUSH1 0x1F NOT AND ADD ADD SWAP1 JUMP JUMPDEST PUSH1 0xA0 DUP1 SWAP2 DUP1 MLOAD DUP5 MSTORE PUSH1 0x20 DUP2 ADD MLOAD PUSH1 0x20 DUP6 ADD MSTORE PUSH1 0x40 DUP2 ADD MLOAD PUSH1 0x40 DUP6 ADD MSTORE PUSH1 0x60 DUP2 ADD MLOAD PUSH1 0x60 DUP6 ADD MSTORE PUSH1 0x80 DUP2 ADD MLOAD PUSH1 0x80 DUP6 ADD MSTORE ADD MLOAD SWAP2 ADD MSTORE JUMP JUMPDEST SWAP1 PUSH1 0x1 DUP3 DUP2 SHR SWAP3 AND DUP1 ISZERO PUSH2 0x112B JUMPI JUMPDEST PUSH1 0x20 DUP4 LT EQ PUSH2 0x1115 JUMPI JUMP JUMPDEST PUSH4 0x4E487B71 PUSH1 0xE0 SHL PUSH1 0x0 MSTORE PUSH1 0x22 PUSH1 0x4 MSTORE PUSH1 0x24 PUSH1 0x0 REVERT JUMPDEST SWAP2 PUSH1 0x7F AND SWAP2 PUSH2 0x110A JUMP JUMPDEST SWAP1 PUSH1 0x40 MLOAD SWAP2 DUP3 PUSH1 0x0 DUP3 SLOAD SWAP3 PUSH2 0x1149 DUP5 PUSH2 0x10FB JUMP JUMPDEST SWAP1 DUP2 DUP5 MSTORE PUSH1 0x1 SWAP5 DUP6 DUP2 AND SWAP1 DUP2 PUSH1 0x0 EQ PUSH2 0x11B8 JUMPI POP PUSH1 0x1 EQ PUSH2 0x1175 JUMPI JUMPDEST POP POP PUSH2 0x1173 SWAP3 POP SUB DUP4 PUSH2 0xFCC JUMP JUMPDEST JUMP JUMPDEST SWAP1 SWAP4 SWAP2 POP PUSH1 0x0 MSTORE PUSH1 0x20 SWAP1 DUP2 PUSH1 0x0 KECCAK256 SWAP4 PUSH1 0x0 SWAP2 JUMPDEST DUP2 DUP4 LT PUSH2 0x11A0 JUMPI POP POP PUSH2 0x1173 SWAP4 POP DUP3 ADD ADD CODESIZE DUP1 PUSH2 0x1165 JUMP JUMPDEST DUP6 SLOAD DUP9 DUP5 ADD DUP6 ADD MSTORE SWAP5 DUP6 ADD SWAP5 DUP8 SWAP5 POP SWAP2 DUP4 ADD SWAP2 PUSH2 0x1188 JUMP JUMPDEST SWAP2 POP POP PUSH2 0x1173 SWAP5 POP PUSH1 0x20 SWAP3 POP PUSH1 0xFF NOT AND DUP3 DUP5 ADD MSTORE ISZERO ISZERO PUSH1 0x5 SHL DUP3 ADD ADD CODESIZE DUP1 PUSH2 0x1165 JUMP JUMPDEST SWAP1 PUSH1 0x40 MLOAD PUSH2 0x11E8 DUP2 PUSH2 0xFB0 JUMP JUMPDEST PUSH1 0xA0 PUSH1 0x5 DUP3 SWAP5 DUP1 SLOAD DUP5 MSTORE PUSH1 0x1 DUP2 ADD SLOAD PUSH1 0x20 DUP6 ADD MSTORE PUSH1 0x2 DUP2 ADD SLOAD PUSH1 0x40 DUP6 ADD MSTORE PUSH1 0x3 DUP2 ADD SLOAD PUSH1 0x60 DUP6 ADD MSTORE PUSH1 0x4 DUP2 ADD SLOAD PUSH1 0x80 DUP6 ADD MSTORE ADD SLOAD SWAP2 ADD MSTORE JUMP JUMPDEST PUSH1 0x0 SLOAD PUSH1 0x1 PUSH1 0x1 PUSH1 0xA0 SHL SUB AND CALLER SUB PUSH2 0x1235 JUMPI JUMP JUMPDEST PUSH1 0x64 PUSH1 0x40 MLOAD PUSH3 0x461BCD PUSH1 0xE5 SHL DUP2 MSTORE PUSH1 0x20 PUSH1 0x4 DUP3 ADD MSTORE PUSH1 0x20 PUSH1 0x24 DUP3 ADD MSTORE PUSH32 0x4F776E61626C653A2063616C6C6572206973206E6F7420746865206F776E6572 PUSH1 0x44 DUP3 ADD MSTORE REVERT JUMPDEST PUSH1 0x40 MLOAD SWAP1 PUSH2 0x1286 DUP3 PUSH2 0xFB0 JUMP JUMPDEST DUP2 PUSH1 0xA0 PUSH1 0x0 SWAP2 DUP3 DUP2 MSTORE DUP3 PUSH1 0x20 DUP3 ADD MSTORE DUP3 PUSH1 0x40 DUP3 ADD MSTORE DUP3 PUSH1 0x60 DUP3 ADD MSTORE DUP3 PUSH1 0x80 DUP3 ADD MSTORE ADD MSTORE JUMP JUMPDEST ISZERO PUSH2 0x12B2 JUMPI JUMP JUMPDEST PUSH1 0x40 MLOAD PUSH3 0x461BCD PUSH1 0xE5 SHL DUP2 MSTORE PUSH1 0x20 PUSH1 0x4 DUP3 ADD MSTORE PUSH1 0x15 PUSH1 0x24 DUP3 ADD MSTORE PUSH21 0x496E76616C6964206275696C64696E67206E616D65 PUSH1 0x58 SHL PUSH1 0x44 DUP3 ADD MSTORE PUSH1 0x64 SWAP1 REVERT JUMPDEST ISZERO PUSH2 0x12F6 JUMPI JUMP JUMPDEST PUSH1 0x40 MLOAD PUSH3 0x461BCD PUSH1 0xE5 SHL DUP2 MSTORE PUSH1 0x20 PUSH1 0x4 DUP3 ADD MSTORE PUSH1 0x16 PUSH1 0x24 DUP3 ADD MSTORE PUSH22 0x4275696C64696E67206E6F7420617661696C61626C65 PUSH1 0x50 SHL PUSH1 0x44 DUP3 ADD MSTORE PUSH1 0x64 SWAP1 REVERT JUMPDEST SWAP2 SWAP1 DUP3 SUB SWAP2 DUP3 GT PUSH2 0x1341 JUMPI JUMP JUMPDEST PUSH4 0x4E487B71 PUSH1 0xE0 SHL PUSH1 0x0 MSTORE PUSH1 0x11 PUSH1 0x4 MSTORE PUSH1 0x24 PUSH1 0x0 REVERT JUMPDEST DUP2 DUP2 MUL SWAP3 SWAP2 DUP2 ISZERO SWAP2 DUP5 DIV EQ OR ISZERO PUSH2 0x1341 JUMPI JUMP JUMPDEST SWAP2 SWAP1 DUP3 ADD DUP1 SWAP3 GT PUSH2 0x1341 JUMPI JUMP INVALID LOG2 PUSH5 0x6970667358 0x22 SLT KECCAK256 0xB3 PUSH2 0xC620 BLOCKHASH 0xC7 PUSH18 0xFA1D0F119DBDA51B1E097EA08A3AB5D2E7D 0xD3 0xE3 DUP8 0xD2 CALLDATASIZE SIGNEXTEND 0xCA PUSH5 0x736F6C6343 STOP ADDMOD SGT STOP CALLER "},"deployedBytecode":{"immutableReferences":{},"linkReferences":{},"object":"60808060405260048036101561001457600080fd5b600091823560e01c90816339d022e114610f5857508063489b0f5a14610d285780636790d4b914610bf3578063715018a614610b995780638da5cb5b14610b72578063ab0e237814610ae9578063b5a6581814610a5e578063bfecd1a71461072f578063c58e527f1461057e578063d9dcfdb8146101d4578063ed81049d146101705763f2fde38b146100a657600080fd5b3461016c57602036600319011261016c576001600160a01b0381358181169290839003610168576100d5611221565b8215610115575082546001600160a01b0319811683178455167f8be0079c531659141344cd1fd0a4f28419497f9722a3daafe3b4186f6b6457e08380a380f35b60849060206040519162461bcd60e51b8352820152602660248201527f4f776e61626c653a206e6577206f776e657220697320746865207a65726f206160448201526564647265737360d01b6064820152fd5b8380fd5b5080fd5b82346101d1576040606091602061019d6101893661104a565b92908186519382858094519384920161107c565b8101600281520301902090825260205220600e810154906012600f8201549101549060405192835260208301526040820152f35b80fd5b503461016c5761012036600319011261016c57803567ffffffffffffffff811161057a576102059036908301610fee565b9060c036604319011261057a576040519161021f83610fb0565b604435835260208301936064358552604084019160843583526060850160a4358152608086019060c4358252610282602060a089019460e4358652610262611279565b5061026f815115156112ab565b816040519382858094519384920161107c565b81016002815203019020946024958635865260205260408520986102ac60ff601a8c0154166112ef565b88519060028b015480921061054557805160038c0154809110610510578351928a8d01548094106104da57908c94939291600587519601548096106104a457908d9695949392916006895198015480981061046f57908e989796959493929160078b519a0154809a1061043a5761033f938f9361033f61033f9997948661033f6103489f9e9d9b989661033f9751611334565b90528251611334565b9052610104359485156103ea5760190154926032840293808504603214901517156103da57600186018096116103da5785156103ca5760e08561039a610e10898804818110156103ae57505b4261136a565b6103a760405180936110c4565b60c0820152f35b90506202a3008082116103c2575b50610394565b9050846103bc565b634e487b7160e01b825260129052fd5b634e487b7160e01b825260119052fd5b60405162461bcd60e51b81526020818601528084018490527f50726f64756374696f6e206d7573742062652067726561746572207468616e206044820152637a65726f60e01b6064820152608490fd5b60648e600f8f60206040519362461bcd60e51b85528401528201526e139bdd08195b9bdd59da0819dbdb19608a1b6044820152fd5b60405162461bcd60e51b81526020818f0152600f818e01526e2737ba1032b737bab3b41034b937b760891b6044820152606490fd5b60405162461bcd60e51b81526020818e01526010818d01526f4e6f7420656e6f75676820627261737360801b6044820152606490fd5b60405162461bcd60e51b81526020818d01526010818c01526f4e6f7420656e6f7567682073746f6e6560801b6044820152606490fd5b60405162461bcd60e51b81526020818c0152600f818b01526e139bdd08195b9bdd59da081ddbdbd9608a1b6044820152606490fd5b60405162461bcd60e51b81526020818b0152600f818a01526e139bdd08195b9bdd59da08199bdbd9608a1b6044820152606490fd5b8280fd5b5090346101d15760603660031901126101d15767ffffffffffffffff91803583811161057a576105b19036908301610fee565b92604435818111610168576105c99036908401610fee565b936105d2611221565b6105de815115156112ab565b60405181818093516105f6816020968780960161107c565b8101600281520301902060243585528152601b6040852061061d60ff601a830154166112ef565b0192855192831161071c575061063383546110fb565b601f81116106d9575b5080601f8311600114610677575083948293949261066c575b50508160011b916000199060031b1c191617905580f35b015190503880610655565b90601f198316958486528286209286905b8882106106c1575050836001959697106106a8575b505050811b01905580f35b015160001960f88460031b161c1916905538808061069d565b80600185968294968601518155019501930190610688565b838552818520601f840160051c810191838510610712575b601f0160051c01905b818110610707575061063c565b8581556001016106fa565b90915081906106f1565b634e487b7160e01b855260419052602484fd5b503461016c57604036600319011261016c5780359167ffffffffffffffff9182841161016c573660238501121561016c578381013592808411610a4b5760059380851b9560405192602092610786848a0186610fcc565b8452828401906024809984010192368411610a4757898101925b8484106109b55750505050508535906107b7611279565b506107c0611279565b92855b81518110156109a3578281891b830101516040810151610802575b5060001981146107f0576001016107c3565b634e487b7160e01b8752601186528887fd5b805190848061081a604051948581519384920161107c565b8301928181600295868152030190209101518952845261099b6109908660408b206108666040519561084b87610f7d565b61085483611135565b875260018301548a88015282016111db565b6040860152610877600882016111db565b60609081870152600e820154608090818801528b61096a600f8501549460a0998a9687820152601082015460c0820152601182015460e082015260128201546101008201526101806108fa601b6108d0601386016111db565b946101208501958652601981015461014086015260ff601a82015416151561016086015201611135565b910152519361091461090d888751611357565b845161136a565b83528c6109326109278983890151611357565b91850191825161136a565b9052610942876040870151611357565b6109516040850191825161136a565b90526109608782870151611357565b920191825161136a565b905261098761097c8583850151611357565b918d0191825161136a565b90520151611357565b91870191825161136a565b9052386107de565b60c0856109b360405180926110c4565bf35b8335838111610a43578201606090816023198236030112610a295760405191820182811086821117610a31576040528c810135858111610a2d5790610a016064928f3691840101610fee565b835260448101358984015201358015158103610a2957604082015281529285019285016107a0565b8a80fd5b8b80fd5b634e487b7160e01b8c5260418b528d8cfd5b8980fd5b8780fd5b634e487b7160e01b835260418252602483fd5b503461016c57602036600319011261016c5780356001600160a01b038116919082900361057a57610a8d611221565b8115610aaf57506bffffffffffffffffffffffff60a01b600154161760015580f35b60649060206040519162461bcd60e51b83528201526013602482015272496e76616c6964206e6577206164647265737360681b6044820152fd5b503461016c57602036600319011261016c576001600160a01b038135818116929083900361016857610b19611221565b600154918216610b3557506001600160a01b0319161760015580f35b60649060206040519162461bcd60e51b8352820152601660248201527513185b99139195081a5cc8185b1c9958591e481cd95d60521b6044820152fd5b82346101d157806003193601126101d157546040516001600160a01b039091168152602090f35b82346101d157806003193601126101d157610bb2611221565b80546001600160a01b03198116825581906001600160a01b03167f8be0079c531659141344cd1fd0a4f28419497f9722a3daafe3b4186f6b6457e08280a380f35b82346101d157610c023661104a565b906040518181809351602081930191610c1a9261107c565b81016002815203602001902090825260205260409020610c3981611135565b60018201549091610c4c600282016111db565b92610c59600883016111db565b91600e810154600f8201546010830154601184015460128501549160138601610c81906111db565b93601987015495601a88015460ff1697601b01610c9d90611135565b996040519c8d9c8d9b8c6103808091528d01610cb89161109f565b9b6020015260408d01610cca916110c4565b6101008c01610cd8916110c4565b6101c08b01526101e08a01526102008901526102208801526102408701526102608601610d04916110c4565b6103208501521515610340840152828103610360840152610d249161109f565b0390f35b82346101d1576040610d24916020610dc3610d423661104a565b929060606101808751610d5481610f7d565b8281528785820152610d64611279565b89820152610d70611279565b838201528760808201528760a08201528760c08201528760e082015287610100820152610d9b611279565b610120820152876101408201528761016082015201528186519382858094519384920161107c565b8101600281520301902090825260205220610e83601b60405192610de684610f7d565b610def81611135565b845260018101546020850152610e07600282016111db565b6040850152610e18600882016111db565b6060850152600e8101546080850152600f81015460a0850152601081015460c0850152601181015460e08501526012810154610100850152610e5c601382016111db565b610120850152601981015461014085015260ff601a82015416151561016085015201611135565b61018082015260405191829160208352610180610eae825161038060208701526103a086019061109f565b9160208101516040860152610ecb604082015160608701906110c4565b610ede60608201516101208701906110c4565b60808101516101e086015260a081015161020086015260c081015161022086015260e0810151610240860152610100810151610260860152610f2a6101208201516102808701906110c4565b61014081015161034086015261016081015115156103608601520151838203601f190161038085015261109f565b83903461016c578160031936011261016c576001546001600160a01b03168152602090f35b6101a0810190811067ffffffffffffffff821117610f9a57604052565b634e487b7160e01b600052604160045260246000fd5b60c0810190811067ffffffffffffffff821117610f9a57604052565b90601f8019910116810190811067ffffffffffffffff821117610f9a57604052565b81601f820112156110455780359067ffffffffffffffff8211610f9a5760405192611023601f8401601f191660200185610fcc565b8284526020838301011161104557816000926020809301838601378301015290565b600080fd5b6040600319820112611045576004359067ffffffffffffffff82116110455761107591600401610fee565b9060243590565b60005b83811061108f5750506000910152565b818101518382015260200161107f565b906020916110b88151809281855285808601910161107c565b601f01601f1916010190565b60a0809180518452602081015160208501526040810151604085015260608101516060850152608081015160808501520151910152565b90600182811c9216801561112b575b602083101461111557565b634e487b7160e01b600052602260045260246000fd5b91607f169161110a565b9060405191826000825492611149846110fb565b9081845260019485811690816000146111b85750600114611175575b505061117392500383610fcc565b565b9093915060005260209081600020936000915b8183106111a057505061117393508201013880611165565b85548884018501529485019487945091830191611188565b91505061117394506020925060ff191682840152151560051b8201013880611165565b906040516111e881610fb0565b60a06005829480548452600181015460208501526002810154604085015260038101546060850152600481015460808501520154910152565b6000546001600160a01b0316330361123557565b606460405162461bcd60e51b815260206004820152602060248201527f4f776e61626c653a2063616c6c6572206973206e6f7420746865206f776e65726044820152fd5b6040519061128682610fb0565b8160a06000918281528260208201528260408201528260608201528260808201520152565b156112b257565b60405162461bcd60e51b8152602060048201526015602482015274496e76616c6964206275696c64696e67206e616d6560581b6044820152606490fd5b156112f657565b60405162461bcd60e51b81526020600482015260166024820152754275696c64696e67206e6f7420617661696c61626c6560501b6044820152606490fd5b9190820391821161134157565b634e487b7160e01b600052601160045260246000fd5b8181029291811591840414171561134157565b919082018092116113415756fea2646970667358221220b361c62040c7710fa1d0f119dbda51b1e097ea08a3ab5d2e7dd3e387d2360bca64736f6c63430008130033","opcodes":"PUSH1 0x80 DUP1 PUSH1 0x40 MSTORE PUSH1 0x4 DUP1 CALLDATASIZE LT ISZERO PUSH2 0x14 JUMPI PUSH1 0x0 DUP1 REVERT JUMPDEST PUSH1 0x0 SWAP2 DUP3 CALLDATALOAD PUSH1 0xE0 SHR SWAP1 DUP2 PUSH4 0x39D022E1 EQ PUSH2 0xF58 JUMPI POP DUP1 PUSH4 0x489B0F5A EQ PUSH2 0xD28 JUMPI DUP1 PUSH4 0x6790D4B9 EQ PUSH2 0xBF3 JUMPI DUP1 PUSH4 0x715018A6 EQ PUSH2 0xB99 JUMPI DUP1 PUSH4 0x8DA5CB5B EQ PUSH2 0xB72 JUMPI DUP1 PUSH4 0xAB0E2378 EQ PUSH2 0xAE9 JUMPI DUP1 PUSH4 0xB5A65818 EQ PUSH2 0xA5E JUMPI DUP1 PUSH4 0xBFECD1A7 EQ PUSH2 0x72F JUMPI DUP1 PUSH4 0xC58E527F EQ PUSH2 0x57E JUMPI DUP1 PUSH4 0xD9DCFDB8 EQ PUSH2 0x1D4 JUMPI DUP1 PUSH4 0xED81049D EQ PUSH2 0x170 JUMPI PUSH4 0xF2FDE38B EQ PUSH2 0xA6 JUMPI PUSH1 0x0 DUP1 REVERT JUMPDEST CALLVALUE PUSH2 0x16C JUMPI PUSH1 0x20 CALLDATASIZE PUSH1 0x3 NOT ADD SLT PUSH2 0x16C JUMPI PUSH1 0x1 PUSH1 0x1 PUSH1 0xA0 SHL SUB DUP2 CALLDATALOAD DUP2 DUP2 AND SWAP3 SWAP1 DUP4 SWAP1 SUB PUSH2 0x168 JUMPI PUSH2 0xD5 PUSH2 0x1221 JUMP JUMPDEST DUP3 ISZERO PUSH2 0x115 JUMPI POP DUP3 SLOAD PUSH1 0x1 PUSH1 0x1 PUSH1 0xA0 SHL SUB NOT DUP2 AND DUP4 OR DUP5 SSTORE AND PUSH32 0x8BE0079C531659141344CD1FD0A4F28419497F9722A3DAAFE3B4186F6B6457E0 DUP4 DUP1 LOG3 DUP1 RETURN JUMPDEST PUSH1 0x84 SWAP1 PUSH1 0x20 PUSH1 0x40 MLOAD SWAP2 PUSH3 0x461BCD PUSH1 0xE5 SHL DUP4 MSTORE DUP3 ADD MSTORE PUSH1 0x26 PUSH1 0x24 DUP3 ADD MSTORE PUSH32 0x4F776E61626C653A206E6577206F776E657220697320746865207A65726F2061 PUSH1 0x44 DUP3 ADD MSTORE PUSH6 0x646472657373 PUSH1 0xD0 SHL PUSH1 0x64 DUP3 ADD MSTORE REVERT JUMPDEST DUP4 DUP1 REVERT JUMPDEST POP DUP1 REVERT JUMPDEST DUP3 CALLVALUE PUSH2 0x1D1 JUMPI PUSH1 0x40 PUSH1 0x60 SWAP2 PUSH1 0x20 PUSH2 0x19D PUSH2 0x189 CALLDATASIZE PUSH2 0x104A JUMP JUMPDEST SWAP3 SWAP1 DUP2 DUP7 MLOAD SWAP4 DUP3 DUP6 DUP1 SWAP5 MLOAD SWAP4 DUP5 SWAP3 ADD PUSH2 0x107C JUMP JUMPDEST DUP2 ADD PUSH1 0x2 DUP2 MSTORE SUB ADD SWAP1 KECCAK256 SWAP1 DUP3 MSTORE PUSH1 0x20 MSTORE KECCAK256 PUSH1 0xE DUP2 ADD SLOAD SWAP1 PUSH1 0x12 PUSH1 0xF DUP3 ADD SLOAD SWAP2 ADD SLOAD SWAP1 PUSH1 0x40 MLOAD SWAP3 DUP4 MSTORE PUSH1 0x20 DUP4 ADD MSTORE PUSH1 0x40 DUP3 ADD MSTORE RETURN JUMPDEST DUP1 REVERT JUMPDEST POP CALLVALUE PUSH2 0x16C JUMPI PUSH2 0x120 CALLDATASIZE PUSH1 0x3 NOT ADD SLT PUSH2 0x16C JUMPI DUP1 CALLDATALOAD PUSH8 0xFFFFFFFFFFFFFFFF DUP2 GT PUSH2 0x57A JUMPI PUSH2 0x205 SWAP1 CALLDATASIZE SWAP1 DUP4 ADD PUSH2 0xFEE JUMP JUMPDEST SWAP1 PUSH1 0xC0 CALLDATASIZE PUSH1 0x43 NOT ADD SLT PUSH2 0x57A JUMPI PUSH1 0x40 MLOAD SWAP2 PUSH2 0x21F DUP4 PUSH2 0xFB0 JUMP JUMPDEST PUSH1 0x44 CALLDATALOAD DUP4 MSTORE PUSH1 0x20 DUP4 ADD SWAP4 PUSH1 0x64 CALLDATALOAD DUP6 MSTORE PUSH1 0x40 DUP5 ADD SWAP2 PUSH1 0x84 CALLDATALOAD DUP4 MSTORE PUSH1 0x60 DUP6 ADD PUSH1 0xA4 CALLDATALOAD DUP2 MSTORE PUSH1 0x80 DUP7 ADD SWAP1 PUSH1 0xC4 CALLDATALOAD DUP3 MSTORE PUSH2 0x282 PUSH1 0x20 PUSH1 0xA0 DUP10 ADD SWAP5 PUSH1 0xE4 CALLDATALOAD DUP7 MSTORE PUSH2 0x262 PUSH2 0x1279 JUMP JUMPDEST POP PUSH2 0x26F DUP2 MLOAD ISZERO ISZERO PUSH2 0x12AB JUMP JUMPDEST DUP2 PUSH1 0x40 MLOAD SWAP4 DUP3 DUP6 DUP1 SWAP5 MLOAD SWAP4 DUP5 SWAP3 ADD PUSH2 0x107C JUMP JUMPDEST DUP2 ADD PUSH1 0x2 DUP2 MSTORE SUB ADD SWAP1 KECCAK256 SWAP5 PUSH1 0x24 SWAP6 DUP7 CALLDATALOAD DUP7 MSTORE PUSH1 0x20 MSTORE PUSH1 0x40 DUP6 KECCAK256 SWAP9 PUSH2 0x2AC PUSH1 0xFF PUSH1 0x1A DUP13 ADD SLOAD AND PUSH2 0x12EF JUMP JUMPDEST DUP9 MLOAD SWAP1 PUSH1 0x2 DUP12 ADD SLOAD DUP1 SWAP3 LT PUSH2 0x545 JUMPI DUP1 MLOAD PUSH1 0x3 DUP13 ADD SLOAD DUP1 SWAP2 LT PUSH2 0x510 JUMPI DUP4 MLOAD SWAP3 DUP11 DUP14 ADD SLOAD DUP1 SWAP5 LT PUSH2 0x4DA JUMPI SWAP1 DUP13 SWAP5 SWAP4 SWAP3 SWAP2 PUSH1 0x5 DUP8 MLOAD SWAP7 ADD SLOAD DUP1 SWAP7 LT PUSH2 0x4A4 JUMPI SWAP1 DUP14 SWAP7 SWAP6 SWAP5 SWAP4 SWAP3 SWAP2 PUSH1 0x6 DUP10 MLOAD SWAP9 ADD SLOAD DUP1 SWAP9 LT PUSH2 0x46F JUMPI SWAP1 DUP15 SWAP9 SWAP8 SWAP7 SWAP6 SWAP5 SWAP4 SWAP3 SWAP2 PUSH1 0x7 DUP12 MLOAD SWAP11 ADD SLOAD DUP1 SWAP11 LT PUSH2 0x43A JUMPI PUSH2 0x33F SWAP4 DUP16 SWAP4 PUSH2 0x33F PUSH2 0x33F SWAP10 SWAP8 SWAP5 DUP7 PUSH2 0x33F PUSH2 0x348 SWAP16 SWAP15 SWAP14 SWAP12 SWAP9 SWAP7 PUSH2 0x33F SWAP8 MLOAD PUSH2 0x1334 JUMP JUMPDEST SWAP1 MSTORE DUP3 MLOAD PUSH2 0x1334 JUMP JUMPDEST SWAP1 MSTORE PUSH2 0x104 CALLDATALOAD SWAP5 DUP6 ISZERO PUSH2 0x3EA JUMPI PUSH1 0x19 ADD SLOAD SWAP3 PUSH1 0x32 DUP5 MUL SWAP4 DUP1 DUP6 DIV PUSH1 0x32 EQ SWAP1 ISZERO OR ISZERO PUSH2 0x3DA JUMPI PUSH1 0x1 DUP7 ADD DUP1 SWAP7 GT PUSH2 0x3DA JUMPI DUP6 ISZERO PUSH2 0x3CA JUMPI PUSH1 0xE0 DUP6 PUSH2 0x39A PUSH2 0xE10 DUP10 DUP9 DIV DUP2 DUP2 LT ISZERO PUSH2 0x3AE JUMPI POP JUMPDEST TIMESTAMP PUSH2 0x136A JUMP JUMPDEST PUSH2 0x3A7 PUSH1 0x40 MLOAD DUP1 SWAP4 PUSH2 0x10C4 JUMP JUMPDEST PUSH1 0xC0 DUP3 ADD MSTORE RETURN JUMPDEST SWAP1 POP PUSH3 0x2A300 DUP1 DUP3 GT PUSH2 0x3C2 JUMPI JUMPDEST POP PUSH2 0x394 JUMP JUMPDEST SWAP1 POP DUP5 PUSH2 0x3BC JUMP JUMPDEST PUSH4 0x4E487B71 PUSH1 0xE0 SHL DUP3 MSTORE PUSH1 0x12 SWAP1 MSTORE REVERT JUMPDEST PUSH4 0x4E487B71 PUSH1 0xE0 SHL DUP3 MSTORE PUSH1 0x11 SWAP1 MSTORE REVERT JUMPDEST PUSH1 0x40 MLOAD PUSH3 0x461BCD PUSH1 0xE5 SHL DUP2 MSTORE PUSH1 0x20 DUP2 DUP7 ADD MSTORE DUP1 DUP5 ADD DUP5 SWAP1 MSTORE PUSH32 0x50726F64756374696F6E206D7573742062652067726561746572207468616E20 PUSH1 0x44 DUP3 ADD MSTORE PUSH4 0x7A65726F PUSH1 0xE0 SHL PUSH1 0x64 DUP3 ADD MSTORE PUSH1 0x84 SWAP1 REVERT JUMPDEST PUSH1 0x64 DUP15 PUSH1 0xF DUP16 PUSH1 0x20 PUSH1 0x40 MLOAD SWAP4 PUSH3 0x461BCD PUSH1 0xE5 SHL DUP6 MSTORE DUP5 ADD MSTORE DUP3 ADD MSTORE PUSH15 0x139BDD08195B9BDD59DA0819DBDB19 PUSH1 0x8A SHL PUSH1 0x44 DUP3 ADD MSTORE REVERT JUMPDEST PUSH1 0x40 MLOAD PUSH3 0x461BCD PUSH1 0xE5 SHL DUP2 MSTORE PUSH1 0x20 DUP2 DUP16 ADD MSTORE PUSH1 0xF DUP2 DUP15 ADD MSTORE PUSH15 0x2737BA1032B737BAB3B41034B937B7 PUSH1 0x89 SHL PUSH1 0x44 DUP3 ADD MSTORE PUSH1 0x64 SWAP1 REVERT JUMPDEST PUSH1 0x40 MLOAD PUSH3 0x461BCD PUSH1 0xE5 SHL DUP2 MSTORE PUSH1 0x20 DUP2 DUP15 ADD MSTORE PUSH1 0x10 DUP2 DUP14 ADD MSTORE PUSH16 0x4E6F7420656E6F756768206272617373 PUSH1 0x80 SHL PUSH1 0x44 DUP3 ADD MSTORE PUSH1 0x64 SWAP1 REVERT JUMPDEST PUSH1 0x40 MLOAD PUSH3 0x461BCD PUSH1 0xE5 SHL DUP2 MSTORE PUSH1 0x20 DUP2 DUP14 ADD MSTORE PUSH1 0x10 DUP2 DUP13 ADD MSTORE PUSH16 0x4E6F7420656E6F7567682073746F6E65 PUSH1 0x80 SHL PUSH1 0x44 DUP3 ADD MSTORE PUSH1 0x64 SWAP1 REVERT JUMPDEST PUSH1 0x40 MLOAD PUSH3 0x461BCD PUSH1 0xE5 SHL DUP2 MSTORE PUSH1 0x20 DUP2 DUP13 ADD MSTORE PUSH1 0xF DUP2 DUP12 ADD MSTORE PUSH15 0x139BDD08195B9BDD59DA081DDBDBD9 PUSH1 0x8A SHL PUSH1 0x44 DUP3 ADD MSTORE PUSH1 0x64 SWAP1 REVERT JUMPDEST PUSH1 0x40 MLOAD PUSH3 0x461BCD PUSH1 0xE5 SHL DUP2 MSTORE PUSH1 0x20 DUP2 DUP12 ADD MSTORE PUSH1 0xF DUP2 DUP11 ADD MSTORE PUSH15 0x139BDD08195B9BDD59DA08199BDBD9 PUSH1 0x8A SHL PUSH1 0x44 DUP3 ADD MSTORE PUSH1 0x64 SWAP1 REVERT JUMPDEST DUP3 DUP1 REVERT JUMPDEST POP SWAP1 CALLVALUE PUSH2 0x1D1 JUMPI PUSH1 0x60 CALLDATASIZE PUSH1 0x3 NOT ADD SLT PUSH2 0x1D1 JUMPI PUSH8 0xFFFFFFFFFFFFFFFF SWAP2 DUP1 CALLDATALOAD DUP4 DUP2 GT PUSH2 0x57A JUMPI PUSH2 0x5B1 SWAP1 CALLDATASIZE SWAP1 DUP4 ADD PUSH2 0xFEE JUMP JUMPDEST SWAP3 PUSH1 0x44 CALLDATALOAD DUP2 DUP2 GT PUSH2 0x168 JUMPI PUSH2 0x5C9 SWAP1 CALLDATASIZE SWAP1 DUP5 ADD PUSH2 0xFEE JUMP JUMPDEST SWAP4 PUSH2 0x5D2 PUSH2 0x1221 JUMP JUMPDEST PUSH2 0x5DE DUP2 MLOAD ISZERO ISZERO PUSH2 0x12AB JUMP JUMPDEST PUSH1 0x40 MLOAD DUP2 DUP2 DUP1 SWAP4 MLOAD PUSH2 0x5F6 DUP2 PUSH1 0x20 SWAP7 DUP8 DUP1 SWAP7 ADD PUSH2 0x107C JUMP JUMPDEST DUP2 ADD PUSH1 0x2 DUP2 MSTORE SUB ADD SWAP1 KECCAK256 PUSH1 0x24 CALLDATALOAD DUP6 MSTORE DUP2 MSTORE PUSH1 0x1B PUSH1 0x40 DUP6 KECCAK256 PUSH2 0x61D PUSH1 0xFF PUSH1 0x1A DUP4 ADD SLOAD AND PUSH2 0x12EF JUMP JUMPDEST ADD SWAP3 DUP6 MLOAD SWAP3 DUP4 GT PUSH2 0x71C JUMPI POP PUSH2 0x633 DUP4 SLOAD PUSH2 0x10FB JUMP JUMPDEST PUSH1 0x1F DUP2 GT PUSH2 0x6D9 JUMPI JUMPDEST POP DUP1 PUSH1 0x1F DUP4 GT PUSH1 0x1 EQ PUSH2 0x677 JUMPI POP DUP4 SWAP5 DUP3 SWAP4 SWAP5 SWAP3 PUSH2 0x66C JUMPI JUMPDEST POP POP DUP2 PUSH1 0x1 SHL SWAP2 PUSH1 0x0 NOT SWAP1 PUSH1 0x3 SHL SHR NOT AND OR SWAP1 SSTORE DUP1 RETURN JUMPDEST ADD MLOAD SWAP1 POP CODESIZE DUP1 PUSH2 0x655 JUMP JUMPDEST SWAP1 PUSH1 0x1F NOT DUP4 AND SWAP6 DUP5 DUP7 MSTORE DUP3 DUP7 KECCAK256 SWAP3 DUP7 SWAP1 JUMPDEST DUP9 DUP3 LT PUSH2 0x6C1 JUMPI POP POP DUP4 PUSH1 0x1 SWAP6 SWAP7 SWAP8 LT PUSH2 0x6A8 JUMPI JUMPDEST POP POP POP DUP2 SHL ADD SWAP1 SSTORE DUP1 RETURN JUMPDEST ADD MLOAD PUSH1 0x0 NOT PUSH1 0xF8 DUP5 PUSH1 0x3 SHL AND SHR NOT AND SWAP1 SSTORE CODESIZE DUP1 DUP1 PUSH2 0x69D JUMP JUMPDEST DUP1 PUSH1 0x1 DUP6 SWAP7 DUP3 SWAP5 SWAP7 DUP7 ADD MLOAD DUP2 SSTORE ADD SWAP6 ADD SWAP4 ADD SWAP1 PUSH2 0x688 JUMP JUMPDEST DUP4 DUP6 MSTORE DUP2 DUP6 KECCAK256 PUSH1 0x1F DUP5 ADD PUSH1 0x5 SHR DUP2 ADD SWAP2 DUP4 DUP6 LT PUSH2 0x712 JUMPI JUMPDEST PUSH1 0x1F ADD PUSH1 0x5 SHR ADD SWAP1 JUMPDEST DUP2 DUP2 LT PUSH2 0x707 JUMPI POP PUSH2 0x63C JUMP JUMPDEST DUP6 DUP2 SSTORE PUSH1 0x1 ADD PUSH2 0x6FA JUMP JUMPDEST SWAP1 SWAP2 POP DUP2 SWAP1 PUSH2 0x6F1 JUMP JUMPDEST PUSH4 0x4E487B71 PUSH1 0xE0 SHL DUP6 MSTORE PUSH1 0x41 SWAP1 MSTORE PUSH1 0x24 DUP5 REVERT JUMPDEST POP CALLVALUE PUSH2 0x16C JUMPI PUSH1 0x40 CALLDATASIZE PUSH1 0x3 NOT ADD SLT PUSH2 0x16C JUMPI DUP1 CALLDATALOAD SWAP2 PUSH8 0xFFFFFFFFFFFFFFFF SWAP2 DUP3 DUP5 GT PUSH2 0x16C JUMPI CALLDATASIZE PUSH1 0x23 DUP6 ADD SLT ISZERO PUSH2 0x16C JUMPI DUP4 DUP2 ADD CALLDATALOAD SWAP3 DUP1 DUP5 GT PUSH2 0xA4B JUMPI PUSH1 0x5 SWAP4 DUP1 DUP6 SHL SWAP6 PUSH1 0x40 MLOAD SWAP3 PUSH1 0x20 SWAP3 PUSH2 0x786 DUP5 DUP11 ADD DUP7 PUSH2 0xFCC JUMP JUMPDEST DUP5 MSTORE DUP3 DUP5 ADD SWAP1 PUSH1 0x24 DUP1 SWAP10 DUP5 ADD ADD SWAP3 CALLDATASIZE DUP5 GT PUSH2 0xA47 JUMPI DUP10 DUP2 ADD SWAP3 JUMPDEST DUP5 DUP5 LT PUSH2 0x9B5 JUMPI POP POP POP POP POP DUP6 CALLDATALOAD SWAP1 PUSH2 0x7B7 PUSH2 0x1279 JUMP JUMPDEST POP PUSH2 0x7C0 PUSH2 0x1279 JUMP JUMPDEST SWAP3 DUP6 JUMPDEST DUP2 MLOAD DUP2 LT ISZERO PUSH2 0x9A3 JUMPI DUP3 DUP2 DUP10 SHL DUP4 ADD ADD MLOAD PUSH1 0x40 DUP2 ADD MLOAD PUSH2 0x802 JUMPI JUMPDEST POP PUSH1 0x0 NOT DUP2 EQ PUSH2 0x7F0 JUMPI PUSH1 0x1 ADD PUSH2 0x7C3 JUMP JUMPDEST PUSH4 0x4E487B71 PUSH1 0xE0 SHL DUP8 MSTORE PUSH1 0x11 DUP7 MSTORE DUP9 DUP8 REVERT JUMPDEST DUP1 MLOAD SWAP1 DUP5 DUP1 PUSH2 0x81A PUSH1 0x40 MLOAD SWAP5 DUP6 DUP2 MLOAD SWAP4 DUP5 SWAP3 ADD PUSH2 0x107C JUMP JUMPDEST DUP4 ADD SWAP3 DUP2 DUP2 PUSH1 0x2 SWAP6 DUP7 DUP2 MSTORE SUB ADD SWAP1 KECCAK256 SWAP2 ADD MLOAD DUP10 MSTORE DUP5 MSTORE PUSH2 0x99B PUSH2 0x990 DUP7 PUSH1 0x40 DUP12 KECCAK256 PUSH2 0x866 PUSH1 0x40 MLOAD SWAP6 PUSH2 0x84B DUP8 PUSH2 0xF7D JUMP JUMPDEST PUSH2 0x854 DUP4 PUSH2 0x1135 JUMP JUMPDEST DUP8 MSTORE PUSH1 0x1 DUP4 ADD SLOAD DUP11 DUP9 ADD MSTORE DUP3 ADD PUSH2 0x11DB JUMP JUMPDEST PUSH1 0x40 DUP7 ADD MSTORE PUSH2 0x877 PUSH1 0x8 DUP3 ADD PUSH2 0x11DB JUMP JUMPDEST PUSH1 0x60 SWAP1 DUP2 DUP8 ADD MSTORE PUSH1 0xE DUP3 ADD SLOAD PUSH1 0x80 SWAP1 DUP2 DUP9 ADD MSTORE DUP12 PUSH2 0x96A PUSH1 0xF DUP6 ADD SLOAD SWAP5 PUSH1 0xA0 SWAP10 DUP11 SWAP7 DUP8 DUP3 ADD MSTORE PUSH1 0x10 DUP3 ADD SLOAD PUSH1 0xC0 DUP3 ADD MSTORE PUSH1 0x11 DUP3 ADD SLOAD PUSH1 0xE0 DUP3 ADD MSTORE PUSH1 0x12 DUP3 ADD SLOAD PUSH2 0x100 DUP3 ADD MSTORE PUSH2 0x180 PUSH2 0x8FA PUSH1 0x1B PUSH2 0x8D0 PUSH1 0x13 DUP7 ADD PUSH2 0x11DB JUMP JUMPDEST SWAP5 PUSH2 0x120 DUP6 ADD SWAP6 DUP7 MSTORE PUSH1 0x19 DUP2 ADD SLOAD PUSH2 0x140 DUP7 ADD MSTORE PUSH1 0xFF PUSH1 0x1A DUP3 ADD SLOAD AND ISZERO ISZERO PUSH2 0x160 DUP7 ADD MSTORE ADD PUSH2 0x1135 JUMP JUMPDEST SWAP2 ADD MSTORE MLOAD SWAP4 PUSH2 0x914 PUSH2 0x90D DUP9 DUP8 MLOAD PUSH2 0x1357 JUMP JUMPDEST DUP5 MLOAD PUSH2 0x136A JUMP JUMPDEST DUP4 MSTORE DUP13 PUSH2 0x932 PUSH2 0x927 DUP10 DUP4 DUP10 ADD MLOAD PUSH2 0x1357 JUMP JUMPDEST SWAP2 DUP6 ADD SWAP2 DUP3 MLOAD PUSH2 0x136A JUMP JUMPDEST SWAP1 MSTORE PUSH2 0x942 DUP8 PUSH1 0x40 DUP8 ADD MLOAD PUSH2 0x1357 JUMP JUMPDEST PUSH2 0x951 PUSH1 0x40 DUP6 ADD SWAP2 DUP3 MLOAD PUSH2 0x136A JUMP JUMPDEST SWAP1 MSTORE PUSH2 0x960 DUP8 DUP3 DUP8 ADD MLOAD PUSH2 0x1357 JUMP JUMPDEST SWAP3 ADD SWAP2 DUP3 MLOAD PUSH2 0x136A JUMP JUMPDEST SWAP1 MSTORE PUSH2 0x987 PUSH2 0x97C DUP6 DUP4 DUP6 ADD MLOAD PUSH2 0x1357 JUMP JUMPDEST SWAP2 DUP14 ADD SWAP2 DUP3 MLOAD PUSH2 0x136A JUMP JUMPDEST SWAP1 MSTORE ADD MLOAD PUSH2 0x1357 JUMP JUMPDEST SWAP2 DUP8 ADD SWAP2 DUP3 MLOAD PUSH2 0x136A JUMP JUMPDEST SWAP1 MSTORE CODESIZE PUSH2 0x7DE JUMP JUMPDEST PUSH1 0xC0 DUP6 PUSH2 0x9B3 PUSH1 0x40 MLOAD DUP1 SWAP3 PUSH2 0x10C4 JUMP JUMPDEST RETURN JUMPDEST DUP4 CALLDATALOAD DUP4 DUP2 GT PUSH2 0xA43 JUMPI DUP3 ADD PUSH1 0x60 SWAP1 DUP2 PUSH1 0x23 NOT DUP3 CALLDATASIZE SUB ADD SLT PUSH2 0xA29 JUMPI PUSH1 0x40 MLOAD SWAP2 DUP3 ADD DUP3 DUP2 LT DUP7 DUP3 GT OR PUSH2 0xA31 JUMPI PUSH1 0x40 MSTORE DUP13 DUP2 ADD CALLDATALOAD DUP6 DUP2 GT PUSH2 0xA2D JUMPI SWAP1 PUSH2 0xA01 PUSH1 0x64 SWAP3 DUP16 CALLDATASIZE SWAP2 DUP5 ADD ADD PUSH2 0xFEE JUMP JUMPDEST DUP4 MSTORE PUSH1 0x44 DUP2 ADD CALLDATALOAD DUP10 DUP5 ADD MSTORE ADD CALLDATALOAD DUP1 ISZERO ISZERO DUP2 SUB PUSH2 0xA29 JUMPI PUSH1 0x40 DUP3 ADD MSTORE DUP2 MSTORE SWAP3 DUP6 ADD SWAP3 DUP6 ADD PUSH2 0x7A0 JUMP JUMPDEST DUP11 DUP1 REVERT JUMPDEST DUP12 DUP1 REVERT JUMPDEST PUSH4 0x4E487B71 PUSH1 0xE0 SHL DUP13 MSTORE PUSH1 0x41 DUP12 MSTORE DUP14 DUP13 REVERT JUMPDEST DUP10 DUP1 REVERT JUMPDEST DUP8 DUP1 REVERT JUMPDEST PUSH4 0x4E487B71 PUSH1 0xE0 SHL DUP4 MSTORE PUSH1 0x41 DUP3 MSTORE PUSH1 0x24 DUP4 REVERT JUMPDEST POP CALLVALUE PUSH2 0x16C JUMPI PUSH1 0x20 CALLDATASIZE PUSH1 0x3 NOT ADD SLT PUSH2 0x16C JUMPI DUP1 CALLDATALOAD PUSH1 0x1 PUSH1 0x1 PUSH1 0xA0 SHL SUB DUP2 AND SWAP2 SWAP1 DUP3 SWAP1 SUB PUSH2 0x57A JUMPI PUSH2 0xA8D PUSH2 0x1221 JUMP JUMPDEST DUP2 ISZERO PUSH2 0xAAF JUMPI POP PUSH12 0xFFFFFFFFFFFFFFFFFFFFFFFF PUSH1 0xA0 SHL PUSH1 0x1 SLOAD AND OR PUSH1 0x1 SSTORE DUP1 RETURN JUMPDEST PUSH1 0x64 SWAP1 PUSH1 0x20 PUSH1 0x40 MLOAD SWAP2 PUSH3 0x461BCD PUSH1 0xE5 SHL DUP4 MSTORE DUP3 ADD MSTORE PUSH1 0x13 PUSH1 0x24 DUP3 ADD MSTORE PUSH19 0x496E76616C6964206E65772061646472657373 PUSH1 0x68 SHL PUSH1 0x44 DUP3 ADD MSTORE REVERT JUMPDEST POP CALLVALUE PUSH2 0x16C JUMPI PUSH1 0x20 CALLDATASIZE PUSH1 0x3 NOT ADD SLT PUSH2 0x16C JUMPI PUSH1 0x1 PUSH1 0x1 PUSH1 0xA0 SHL SUB DUP2 CALLDATALOAD DUP2 DUP2 AND SWAP3 SWAP1 DUP4 SWAP1 SUB PUSH2 0x168 JUMPI PUSH2 0xB19 PUSH2 0x1221 JUMP JUMPDEST PUSH1 0x1 SLOAD SWAP2 DUP3 AND PUSH2 0xB35 JUMPI POP PUSH1 0x1 PUSH1 0x1 PUSH1 0xA0 SHL SUB NOT AND OR PUSH1 0x1 SSTORE DUP1 RETURN JUMPDEST PUSH1 0x64 SWAP1 PUSH1 0x20 PUSH1 0x40 MLOAD SWAP2 PUSH3 0x461BCD PUSH1 0xE5 SHL DUP4 MSTORE DUP3 ADD MSTORE PUSH1 0x16 PUSH1 0x24 DUP3 ADD MSTORE PUSH22 0x13185B99139195081A5CC8185B1C9958591E481CD95D PUSH1 0x52 SHL PUSH1 0x44 DUP3 ADD MSTORE REVERT JUMPDEST DUP3 CALLVALUE PUSH2 0x1D1 JUMPI DUP1 PUSH1 0x3 NOT CALLDATASIZE ADD SLT PUSH2 0x1D1 JUMPI SLOAD PUSH1 0x40 MLOAD PUSH1 0x1 PUSH1 0x1 PUSH1 0xA0 SHL SUB SWAP1 SWAP2 AND DUP2 MSTORE PUSH1 0x20 SWAP1 RETURN JUMPDEST DUP3 CALLVALUE PUSH2 0x1D1 JUMPI DUP1 PUSH1 0x3 NOT CALLDATASIZE ADD SLT PUSH2 0x1D1 JUMPI PUSH2 0xBB2 PUSH2 0x1221 JUMP JUMPDEST DUP1 SLOAD PUSH1 0x1 PUSH1 0x1 PUSH1 0xA0 SHL SUB NOT DUP2 AND DUP3 SSTORE DUP2 SWAP1 PUSH1 0x1 PUSH1 0x1 PUSH1 0xA0 SHL SUB AND PUSH32 0x8BE0079C531659141344CD1FD0A4F28419497F9722A3DAAFE3B4186F6B6457E0 DUP3 DUP1 LOG3 DUP1 RETURN JUMPDEST DUP3 CALLVALUE PUSH2 0x1D1 JUMPI PUSH2 0xC02 CALLDATASIZE PUSH2 0x104A JUMP JUMPDEST SWAP1 PUSH1 0x40 MLOAD DUP2 DUP2 DUP1 SWAP4 MLOAD PUSH1 0x20 DUP2 SWAP4 ADD SWAP2 PUSH2 0xC1A SWAP3 PUSH2 0x107C JUMP JUMPDEST DUP2 ADD PUSH1 0x2 DUP2 MSTORE SUB PUSH1 0x20 ADD SWAP1 KECCAK256 SWAP1 DUP3 MSTORE PUSH1 0x20 MSTORE PUSH1 0x40 SWAP1 KECCAK256 PUSH2 0xC39 DUP2 PUSH2 0x1135 JUMP JUMPDEST PUSH1 0x1 DUP3 ADD SLOAD SWAP1 SWAP2 PUSH2 0xC4C PUSH1 0x2 DUP3 ADD PUSH2 0x11DB JUMP JUMPDEST SWAP3 PUSH2 0xC59 PUSH1 0x8 DUP4 ADD PUSH2 0x11DB JUMP JUMPDEST SWAP2 PUSH1 0xE DUP2 ADD SLOAD PUSH1 0xF DUP3 ADD SLOAD PUSH1 0x10 DUP4 ADD SLOAD PUSH1 0x11 DUP5 ADD SLOAD PUSH1 0x12 DUP6 ADD SLOAD SWAP2 PUSH1 0x13 DUP7 ADD PUSH2 0xC81 SWAP1 PUSH2 0x11DB JUMP JUMPDEST SWAP4 PUSH1 0x19 DUP8 ADD SLOAD SWAP6 PUSH1 0x1A DUP9 ADD SLOAD PUSH1 0xFF AND SWAP8 PUSH1 0x1B ADD PUSH2 0xC9D SWAP1 PUSH2 0x1135 JUMP JUMPDEST SWAP10 PUSH1 0x40 MLOAD SWAP13 DUP14 SWAP13 DUP14 SWAP12 DUP13 PUSH2 0x380 DUP1 SWAP2 MSTORE DUP14 ADD PUSH2 0xCB8 SWAP2 PUSH2 0x109F JUMP JUMPDEST SWAP12 PUSH1 0x20 ADD MSTORE PUSH1 0x40 DUP14 ADD PUSH2 0xCCA SWAP2 PUSH2 0x10C4 JUMP JUMPDEST PUSH2 0x100 DUP13 ADD PUSH2 0xCD8 SWAP2 PUSH2 0x10C4 JUMP JUMPDEST PUSH2 0x1C0 DUP12 ADD MSTORE PUSH2 0x1E0 DUP11 ADD MSTORE PUSH2 0x200 DUP10 ADD MSTORE PUSH2 0x220 DUP9 ADD MSTORE PUSH2 0x240 DUP8 ADD MSTORE PUSH2 0x260 DUP7 ADD PUSH2 0xD04 SWAP2 PUSH2 0x10C4 JUMP JUMPDEST PUSH2 0x320 DUP6 ADD MSTORE ISZERO ISZERO PUSH2 0x340 DUP5 ADD MSTORE DUP3 DUP2 SUB PUSH2 0x360 DUP5 ADD MSTORE PUSH2 0xD24 SWAP2 PUSH2 0x109F JUMP JUMPDEST SUB SWAP1 RETURN JUMPDEST DUP3 CALLVALUE PUSH2 0x1D1 JUMPI PUSH1 0x40 PUSH2 0xD24 SWAP2 PUSH1 0x20 PUSH2 0xDC3 PUSH2 0xD42 CALLDATASIZE PUSH2 0x104A JUMP JUMPDEST SWAP3 SWAP1 PUSH1 0x60 PUSH2 0x180 DUP8 MLOAD PUSH2 0xD54 DUP2 PUSH2 0xF7D JUMP JUMPDEST DUP3 DUP2 MSTORE DUP8 DUP6 DUP3 ADD MSTORE PUSH2 0xD64 PUSH2 0x1279 JUMP JUMPDEST DUP10 DUP3 ADD MSTORE PUSH2 0xD70 PUSH2 0x1279 JUMP JUMPDEST DUP4 DUP3 ADD MSTORE DUP8 PUSH1 0x80 DUP3 ADD MSTORE DUP8 PUSH1 0xA0 DUP3 ADD MSTORE DUP8 PUSH1 0xC0 DUP3 ADD MSTORE DUP8 PUSH1 0xE0 DUP3 ADD MSTORE DUP8 PUSH2 0x100 DUP3 ADD MSTORE PUSH2 0xD9B PUSH2 0x1279 JUMP JUMPDEST PUSH2 0x120 DUP3 ADD MSTORE DUP8 PUSH2 0x140 DUP3 ADD MSTORE DUP8 PUSH2 0x160 DUP3 ADD MSTORE ADD MSTORE DUP2 DUP7 MLOAD SWAP4 DUP3 DUP6 DUP1 SWAP5 MLOAD SWAP4 DUP5 SWAP3 ADD PUSH2 0x107C JUMP JUMPDEST DUP2 ADD PUSH1 0x2 DUP2 MSTORE SUB ADD SWAP1 KECCAK256 SWAP1 DUP3 MSTORE PUSH1 0x20 MSTORE KECCAK256 PUSH2 0xE83 PUSH1 0x1B PUSH1 0x40 MLOAD SWAP3 PUSH2 0xDE6 DUP5 PUSH2 0xF7D JUMP JUMPDEST PUSH2 0xDEF DUP2 PUSH2 0x1135 JUMP JUMPDEST DUP5 MSTORE PUSH1 0x1 DUP2 ADD SLOAD PUSH1 0x20 DUP6 ADD MSTORE PUSH2 0xE07 PUSH1 0x2 DUP3 ADD PUSH2 0x11DB JUMP JUMPDEST PUSH1 0x40 DUP6 ADD MSTORE PUSH2 0xE18 PUSH1 0x8 DUP3 ADD PUSH2 0x11DB JUMP JUMPDEST PUSH1 0x60 DUP6 ADD MSTORE PUSH1 0xE DUP2 ADD SLOAD PUSH1 0x80 DUP6 ADD MSTORE PUSH1 0xF DUP2 ADD SLOAD PUSH1 0xA0 DUP6 ADD MSTORE PUSH1 0x10 DUP2 ADD SLOAD PUSH1 0xC0 DUP6 ADD MSTORE PUSH1 0x11 DUP2 ADD SLOAD PUSH1 0xE0 DUP6 ADD MSTORE PUSH1 0x12 DUP2 ADD SLOAD PUSH2 0x100 DUP6 ADD MSTORE PUSH2 0xE5C PUSH1 0x13 DUP3 ADD PUSH2 0x11DB JUMP JUMPDEST PUSH2 0x120 DUP6 ADD MSTORE PUSH1 0x19 DUP2 ADD SLOAD PUSH2 0x140 DUP6 ADD MSTORE PUSH1 0xFF PUSH1 0x1A DUP3 ADD SLOAD AND ISZERO ISZERO PUSH2 0x160 DUP6 ADD MSTORE ADD PUSH2 0x1135 JUMP JUMPDEST PUSH2 0x180 DUP3 ADD MSTORE PUSH1 0x40 MLOAD SWAP2 DUP3 SWAP2 PUSH1 0x20 DUP4 MSTORE PUSH2 0x180 PUSH2 0xEAE DUP3 MLOAD PUSH2 0x380 PUSH1 0x20 DUP8 ADD MSTORE PUSH2 0x3A0 DUP7 ADD SWAP1 PUSH2 0x109F JUMP JUMPDEST SWAP2 PUSH1 0x20 DUP2 ADD MLOAD PUSH1 0x40 DUP7 ADD MSTORE PUSH2 0xECB PUSH1 0x40 DUP3 ADD MLOAD PUSH1 0x60 DUP8 ADD SWAP1 PUSH2 0x10C4 JUMP JUMPDEST PUSH2 0xEDE PUSH1 0x60 DUP3 ADD MLOAD PUSH2 0x120 DUP8 ADD SWAP1 PUSH2 0x10C4 JUMP JUMPDEST PUSH1 0x80 DUP2 ADD MLOAD PUSH2 0x1E0 DUP7 ADD MSTORE PUSH1 0xA0 DUP2 ADD MLOAD PUSH2 0x200 DUP7 ADD MSTORE PUSH1 0xC0 DUP2 ADD MLOAD PUSH2 0x220 DUP7 ADD MSTORE PUSH1 0xE0 DUP2 ADD MLOAD PUSH2 0x240 DUP7 ADD MSTORE PUSH2 0x100 DUP2 ADD MLOAD PUSH2 0x260 DUP7 ADD MSTORE PUSH2 0xF2A PUSH2 0x120 DUP3 ADD MLOAD PUSH2 0x280 DUP8 ADD SWAP1 PUSH2 0x10C4 JUMP JUMPDEST PUSH2 0x140 DUP2 ADD MLOAD PUSH2 0x340 DUP7 ADD MSTORE PUSH2 0x160 DUP2 ADD MLOAD ISZERO ISZERO PUSH2 0x360 DUP7 ADD MSTORE ADD MLOAD DUP4 DUP3 SUB PUSH1 0x1F NOT ADD PUSH2 0x380 DUP6 ADD MSTORE PUSH2 0x109F JUMP JUMPDEST DUP4 SWAP1 CALLVALUE PUSH2 0x16C JUMPI DUP2 PUSH1 0x3 NOT CALLDATASIZE ADD SLT PUSH2 0x16C JUMPI PUSH1 0x1 SLOAD PUSH1 0x1 PUSH1 0x1 PUSH1 0xA0 SHL SUB AND DUP2 MSTORE PUSH1 0x20 SWAP1 RETURN JUMPDEST PUSH2 0x1A0 DUP2 ADD SWAP1 DUP2 LT PUSH8 0xFFFFFFFFFFFFFFFF DUP3 GT OR PUSH2 0xF9A JUMPI PUSH1 0x40 MSTORE JUMP JUMPDEST PUSH4 0x4E487B71 PUSH1 0xE0 SHL PUSH1 0x0 MSTORE PUSH1 0x41 PUSH1 0x4 MSTORE PUSH1 0x24 PUSH1 0x0 REVERT JUMPDEST PUSH1 0xC0 DUP2 ADD SWAP1 DUP2 LT PUSH8 0xFFFFFFFFFFFFFFFF DUP3 GT OR PUSH2 0xF9A JUMPI PUSH1 0x40 MSTORE JUMP JUMPDEST SWAP1 PUSH1 0x1F DUP1 NOT SWAP2 ADD AND DUP2 ADD SWAP1 DUP2 LT PUSH8 0xFFFFFFFFFFFFFFFF DUP3 GT OR PUSH2 0xF9A JUMPI PUSH1 0x40 MSTORE JUMP JUMPDEST DUP2 PUSH1 0x1F DUP3 ADD SLT ISZERO PUSH2 0x1045 JUMPI DUP1 CALLDATALOAD SWAP1 PUSH8 0xFFFFFFFFFFFFFFFF DUP3 GT PUSH2 0xF9A JUMPI PUSH1 0x40 MLOAD SWAP3 PUSH2 0x1023 PUSH1 0x1F DUP5 ADD PUSH1 0x1F NOT AND PUSH1 0x20 ADD DUP6 PUSH2 0xFCC JUMP JUMPDEST DUP3 DUP5 MSTORE PUSH1 0x20 DUP4 DUP4 ADD ADD GT PUSH2 0x1045 JUMPI DUP2 PUSH1 0x0 SWAP3 PUSH1 0x20 DUP1 SWAP4 ADD DUP4 DUP7 ADD CALLDATACOPY DUP4 ADD ADD MSTORE SWAP1 JUMP JUMPDEST PUSH1 0x0 DUP1 REVERT JUMPDEST PUSH1 0x40 PUSH1 0x3 NOT DUP3 ADD SLT PUSH2 0x1045 JUMPI PUSH1 0x4 CALLDATALOAD SWAP1 PUSH8 0xFFFFFFFFFFFFFFFF DUP3 GT PUSH2 0x1045 JUMPI PUSH2 0x1075 SWAP2 PUSH1 0x4 ADD PUSH2 0xFEE JUMP JUMPDEST SWAP1 PUSH1 0x24 CALLDATALOAD SWAP1 JUMP JUMPDEST PUSH1 0x0 JUMPDEST DUP4 DUP2 LT PUSH2 0x108F JUMPI POP POP PUSH1 0x0 SWAP2 ADD MSTORE JUMP JUMPDEST DUP2 DUP2 ADD MLOAD DUP4 DUP3 ADD MSTORE PUSH1 0x20 ADD PUSH2 0x107F JUMP JUMPDEST SWAP1 PUSH1 0x20 SWAP2 PUSH2 0x10B8 DUP2 MLOAD DUP1 SWAP3 DUP2 DUP6 MSTORE DUP6 DUP1 DUP7 ADD SWAP2 ADD PUSH2 0x107C JUMP JUMPDEST PUSH1 0x1F ADD PUSH1 0x1F NOT AND ADD ADD SWAP1 JUMP JUMPDEST PUSH1 0xA0 DUP1 SWAP2 DUP1 MLOAD DUP5 MSTORE PUSH1 0x20 DUP2 ADD MLOAD PUSH1 0x20 DUP6 ADD MSTORE PUSH1 0x40 DUP2 ADD MLOAD PUSH1 0x40 DUP6 ADD MSTORE PUSH1 0x60 DUP2 ADD MLOAD PUSH1 0x60 DUP6 ADD MSTORE PUSH1 0x80 DUP2 ADD MLOAD PUSH1 0x80 DUP6 ADD MSTORE ADD MLOAD SWAP2 ADD MSTORE JUMP JUMPDEST SWAP1 PUSH1 0x1 DUP3 DUP2 SHR SWAP3 AND DUP1 ISZERO PUSH2 0x112B JUMPI JUMPDEST PUSH1 0x20 DUP4 LT EQ PUSH2 0x1115 JUMPI JUMP JUMPDEST PUSH4 0x4E487B71 PUSH1 0xE0 SHL PUSH1 0x0 MSTORE PUSH1 0x22 PUSH1 0x4 MSTORE PUSH1 0x24 PUSH1 0x0 REVERT JUMPDEST SWAP2 PUSH1 0x7F AND SWAP2 PUSH2 0x110A JUMP JUMPDEST SWAP1 PUSH1 0x40 MLOAD SWAP2 DUP3 PUSH1 0x0 DUP3 SLOAD SWAP3 PUSH2 0x1149 DUP5 PUSH2 0x10FB JUMP JUMPDEST SWAP1 DUP2 DUP5 MSTORE PUSH1 0x1 SWAP5 DUP6 DUP2 AND SWAP1 DUP2 PUSH1 0x0 EQ PUSH2 0x11B8 JUMPI POP PUSH1 0x1 EQ PUSH2 0x1175 JUMPI JUMPDEST POP POP PUSH2 0x1173 SWAP3 POP SUB DUP4 PUSH2 0xFCC JUMP JUMPDEST JUMP JUMPDEST SWAP1 SWAP4 SWAP2 POP PUSH1 0x0 MSTORE PUSH1 0x20 SWAP1 DUP2 PUSH1 0x0 KECCAK256 SWAP4 PUSH1 0x0 SWAP2 JUMPDEST DUP2 DUP4 LT PUSH2 0x11A0 JUMPI POP POP PUSH2 0x1173 SWAP4 POP DUP3 ADD ADD CODESIZE DUP1 PUSH2 0x1165 JUMP JUMPDEST DUP6 SLOAD DUP9 DUP5 ADD DUP6 ADD MSTORE SWAP5 DUP6 ADD SWAP5 DUP8 SWAP5 POP SWAP2 DUP4 ADD SWAP2 PUSH2 0x1188 JUMP JUMPDEST SWAP2 POP POP PUSH2 0x1173 SWAP5 POP PUSH1 0x20 SWAP3 POP PUSH1 0xFF NOT AND DUP3 DUP5 ADD MSTORE ISZERO ISZERO PUSH1 0x5 SHL DUP3 ADD ADD CODESIZE DUP1 PUSH2 0x1165 JUMP JUMPDEST SWAP1 PUSH1 0x40 MLOAD PUSH2 0x11E8 DUP2 PUSH2 0xFB0 JUMP JUMPDEST PUSH1 0xA0 PUSH1 0x5 DUP3 SWAP5 DUP1 SLOAD DUP5 MSTORE PUSH1 0x1 DUP2 ADD SLOAD PUSH1 0x20 DUP6 ADD MSTORE PUSH1 0x2 DUP2 ADD SLOAD PUSH1 0x40 DUP6 ADD MSTORE PUSH1 0x3 DUP2 ADD SLOAD PUSH1 0x60 DUP6 ADD MSTORE PUSH1 0x4 DUP2 ADD SLOAD PUSH1 0x80 DUP6 ADD MSTORE ADD SLOAD SWAP2 ADD MSTORE JUMP JUMPDEST PUSH1 0x0 SLOAD PUSH1 0x1 PUSH1 0x1 PUSH1 0xA0 SHL SUB AND CALLER SUB PUSH2 0x1235 JUMPI JUMP JUMPDEST PUSH1 0x64 PUSH1 0x40 MLOAD PUSH3 0x461BCD PUSH1 0xE5 SHL DUP2 MSTORE PUSH1 0x20 PUSH1 0x4 DUP3 ADD MSTORE PUSH1 0x20 PUSH1 0x24 DUP3 ADD MSTORE PUSH32 0x4F776E61626C653A2063616C6C6572206973206E6F7420746865206F776E6572 PUSH1 0x44 DUP3 ADD MSTORE REVERT JUMPDEST PUSH1 0x40 MLOAD SWAP1 PUSH2 0x1286 DUP3 PUSH2 0xFB0 JUMP JUMPDEST DUP2 PUSH1 0xA0 PUSH1 0x0 SWAP2 DUP3 DUP2 MSTORE DUP3 PUSH1 0x20 DUP3 ADD MSTORE DUP3 PUSH1 0x40 DUP3 ADD MSTORE DUP3 PUSH1 0x60 DUP3 ADD MSTORE DUP3 PUSH1 0x80 DUP3 ADD MSTORE ADD MSTORE JUMP JUMPDEST ISZERO PUSH2 0x12B2 JUMPI JUMP JUMPDEST PUSH1 0x40 MLOAD PUSH3 0x461BCD PUSH1 0xE5 SHL DUP2 MSTORE PUSH1 0x20 PUSH1 0x4 DUP3 ADD MSTORE PUSH1 0x15 PUSH1 0x24 DUP3 ADD MSTORE PUSH21 0x496E76616C6964206275696C64696E67206E616D65 PUSH1 0x58 SHL PUSH1 0x44 DUP3 ADD MSTORE PUSH1 0x64 SWAP1 REVERT JUMPDEST ISZERO PUSH2 0x12F6 JUMPI JUMP JUMPDEST PUSH1 0x40 MLOAD PUSH3 0x461BCD PUSH1 0xE5 SHL DUP2 MSTORE PUSH1 0x20 PUSH1 0x4 DUP3 ADD MSTORE PUSH1 0x16 PUSH1 0x24 DUP3 ADD MSTORE PUSH22 0x4275696C64696E67206E6F7420617661696C61626C65 PUSH1 0x50 SHL PUSH1 0x44 DUP3 ADD MSTORE PUSH1 0x64 SWAP1 REVERT JUMPDEST SWAP2 SWAP1 DUP3 SUB SWAP2 DUP3 GT PUSH2 0x1341 JUMPI JUMP JUMPDEST PUSH4 0x4E487B71 PUSH1 0xE0 SHL PUSH1 0x0 MSTORE PUSH1 0x11 PUSH1 0x4 MSTORE PUSH1 0x24 PUSH1 0x0 REVERT JUMPDEST DUP2 DUP2 MUL SWAP3 SWAP2 DUP2 ISZERO SWAP2 DUP5 DIV EQ OR ISZERO PUSH2 0x1341 JUMPI JUMP JUMPDEST SWAP2 SWAP1 DUP3 ADD DUP1 SWAP3 GT PUSH2 0x1341 JUMPI JUMP INVALID LOG2 PUSH5 0x6970667358 0x22 SLT KECCAK256 0xB3 PUSH2 0xC620 BLOCKHASH 0xC7 PUSH18 0xFA1D0F119DBDA51B1E097EA08A3AB5D2E7D 0xD3 0xE3 DUP8 0xD2 CALLDATASIZE SIGNEXTEND 0xCA PUSH5 0x736F6C6343 STOP ADDMOD SGT STOP CALLER "},"methodIdentifiers":{"availableBuildings(string,uint256)":"6790d4b9","calculateTotalResourceProduction((string,uint256,bool)[],uint256)":"bfecd1a7","completeBuildingConstruction(string,uint256)":"ed81049d","getBuildingInfo(string,uint256)":"489b0f5a","landNFT()":"39d022e1","owner()":"8da5cb5b","renounceOwnership()":"715018a6","setLandNFT(address)":"ab0e2378","startBuildingConstruction(string,uint256,(uint256,uint256,uint256,uint256,uint256,uint256),uint256)":"d9dcfdb8","transferOwnership(address)":"f2fde38b","updateBuildingImageURI(string,uint256,string)":"c58e527f","updateLandNFT(address)":"b5a65818"}}}}}