{"contracts/landNFT.sol":{"LandNFT":{"abi":[{"inputs":[{"internalType":"uint256","name":"_mintPrice","type":"uint256"}],"stateMutability":"nonpayable","type":"constructor"},{"anonymous":false,"inputs":[{"indexed":true,"internalType":"address","name":"owner","type":"address"},{"indexed":true,"internalType":"address","name":"approved","type":"address"},{"indexed":true,"internalType":"uint256","name":"tokenId","type":"uint256"}],"name":"Approval","type":"event"},{"anonymous":false,"inputs":[{"indexed":true,"internalType":"address","name":"owner","type":"address"},{"indexed":true,"internalType":"address","name":"operator","type":"address"},{"indexed":false,"internalType":"bool","name":"approved","type":"bool"}],"name":"ApprovalForAll","type":"event"},{"anonymous":false,"inputs":[{"indexed":false,"internalType":"uint256","name":"tokenId","type":"uint256"},{"indexed":false,"internalType":"string","name":"buildingName","type":"string"},{"indexed":false,"internalType":"uint256","name":"level","type":"uint256"}],"name":"BuildingConstructionCompleted","type":"event"},{"anonymous":false,"inputs":[{"indexed":false,"internalType":"uint256","name":"tokenId","type":"uint256"},{"indexed":false,"internalType":"string","name":"buildingName","type":"string"},{"indexed":false,"internalType":"uint256","name":"level","type":"uint256"},{"indexed":false,"internalType":"uint256","name":"completionTime","type":"uint256"},{"indexed":false,"internalType":"uint256","name":"erc20Cost","type":"uint256"}],"name":"BuildingConstructionStarted","type":"event"},{"anonymous":false,"inputs":[{"indexed":false,"internalType":"uint256","name":"epochNumber","type":"uint256"}],"name":"EpochUpdated","type":"event"},{"anonymous":false,"inputs":[{"indexed":true,"internalType":"address","name":"marketContract","type":"address"}],"name":"MarketContractSet","type":"event"},{"anonymous":false,"inputs":[{"indexed":true,"internalType":"address","name":"owner","type":"address"},{"indexed":false,"internalType":"uint256","name":"tokenId","type":"uint256"},{"indexed":false,"internalType":"int256","name":"x","type":"int256"},{"indexed":false,"internalType":"int256","name":"y","type":"int256"}],"name":"Minted","type":"event"},{"anonymous":false,"inputs":[{"indexed":true,"internalType":"address","name":"previousOwner","type":"address"},{"indexed":true,"internalType":"address","name":"newOwner","type":"address"}],"name":"OwnershipTransferred","type":"event"},{"anonymous":false,"inputs":[{"indexed":true,"internalType":"address","name":"from","type":"address"},{"indexed":true,"internalType":"address","name":"to","type":"address"},{"indexed":true,"internalType":"uint256","name":"tokenId","type":"uint256"}],"name":"Transfer","type":"event"},{"inputs":[{"internalType":"uint256","name":"tokenId","type":"uint256"},{"components":[{"internalType":"uint256","name":"food","type":"uint256"},{"internalType":"uint256","name":"wood","type":"uint256"},{"internalType":"uint256","name":"stone","type":"uint256"},{"internalType":"uint256","name":"brass","type":"uint256"},{"internalType":"uint256","name":"iron","type":"uint256"},{"internalType":"uint256","name":"gold","type":"uint256"}],"internalType":"struct DataTypes.Resources","name":"resources","type":"tuple"}],"name":"addResources","outputs":[],"stateMutability":"nonpayable","type":"function"},{"inputs":[{"internalType":"address","name":"to","type":"address"},{"internalType":"uint256","name":"tokenId","type":"uint256"}],"name":"approve","outputs":[],"stateMutability":"nonpayable","type":"function"},{"inputs":[{"internalType":"address","name":"owner","type":"address"}],"name":"balanceOf","outputs":[{"internalType":"uint256","name":"","type":"uint256"}],"stateMutability":"view","type":"function"},{"inputs":[],"name":"buildingManager","outputs":[{"internalType":"contract BuildingManager","name":"","type":"address"}],"stateMutability":"view","type":"function"},{"inputs":[{"internalType":"uint256","name":"tokenId","type":"uint256"}],"name":"completeBuildingConstruction","outputs":[],"stateMutability":"nonpayable","type":"function"},{"inputs":[],"name":"epochDuration","outputs":[{"internalType":"uint256","name":"","type":"uint256"}],"stateMutability":"view","type":"function"},{"inputs":[],"name":"erc20Token","outputs":[{"internalType":"contract ERC20","name":"","type":"address"}],"stateMutability":"view","type":"function"},{"inputs":[{"internalType":"uint256","name":"tokenId","type":"uint256"}],"name":"getApproved","outputs":[{"internalType":"address","name":"","type":"address"}],"stateMutability":"view","type":"function"},{"inputs":[{"internalType":"uint256","name":"tokenId","type":"uint256"}],"name":"getLandCoordinates","outputs":[{"internalType":"int256","name":"x","type":"int256"},{"internalType":"int256","name":"y","type":"int256"}],"stateMutability":"view","type":"function"},{"inputs":[{"internalType":"uint256","name":"tokenId","type":"uint256"}],"name":"getLandStats","outputs":[{"components":[{"internalType":"uint256","name":"population","type":"uint256"},{"internalType":"uint256","name":"production","type":"uint256"},{"internalType":"uint256","name":"happiness","type":"uint256"},{"internalType":"uint256","name":"technology","type":"uint256"},{"internalType":"uint256","name":"piety","type":"uint256"},{"internalType":"uint256","name":"strength","type":"uint256"},{"components":[{"internalType":"string","name":"name","type":"string"},{"internalType":"uint256","name":"level","type":"uint256"},{"internalType":"bool","name":"isActive","type":"bool"}],"internalType":"struct DataTypes.Building[]","name":"buildings","type":"tuple[]"},{"components":[{"internalType":"string","name":"name","type":"string"},{"internalType":"uint256","name":"level","type":"uint256"},{"internalType":"uint256","name":"completionTime","type":"uint256"}],"internalType":"struct DataTypes.BuildingUnderConstruction[]","name":"constructions","type":"tuple[]"},{"components":[{"internalType":"uint256","name":"food","type":"uint256"},{"internalType":"uint256","name":"wood","type":"uint256"},{"internalType":"uint256","name":"stone","type":"uint256"},{"internalType":"uint256","name":"brass","type":"uint256"},{"internalType":"uint256","name":"iron","type":"uint256"},{"internalType":"uint256","name":"gold","type":"uint256"}],"internalType":"struct DataTypes.Resources","name":"resources","type":"tuple"},{"internalType":"uint256","name":"lastResourceUpdate","type":"uint256"}],"internalType":"struct DataTypes.LandStats","name":"","type":"tuple"}],"stateMutability":"view","type":"function"},{"inputs":[{"internalType":"uint256","name":"newMaxSupply","type":"uint256"}],"name":"increaseMaxSupply","outputs":[],"stateMutability":"nonpayable","type":"function"},{"inputs":[{"internalType":"address","name":"owner","type":"address"},{"internalType":"address","name":"operator","type":"address"}],"name":"isApprovedForAll","outputs":[{"internalType":"bool","name":"","type":"bool"}],"stateMutability":"view","type":"function"},{"inputs":[{"internalType":"uint256","name":"","type":"uint256"}],"name":"landStats","outputs":[{"internalType":"uint256","name":"population","type":"uint256"},{"internalType":"uint256","name":"production","type":"uint256"},{"internalType":"uint256","name":"happiness","type":"uint256"},{"internalType":"uint256","name":"technology","type":"uint256"},{"internalType":"uint256","name":"piety","type":"uint256"},{"internalType":"uint256","name":"strength","type":"uint256"},{"components":[{"internalType":"uint256","name":"food","type":"uint256"},{"internalType":"uint256","name":"wood","type":"uint256"},{"internalType":"uint256","name":"stone","type":"uint256"},{"internalType":"uint256","name":"brass","type":"uint256"},{"internalType":"uint256","name":"iron","type":"uint256"},{"internalType":"uint256","name":"gold","type":"uint256"}],"internalType":"struct DataTypes.Resources","name":"resources","type":"tuple"},{"internalType":"uint256","name":"lastResourceUpdate","type":"uint256"}],"stateMutability":"view","type":"function"},{"inputs":[],"name":"lastEpochUpdateTime","outputs":[{"internalType":"uint256","name":"","type":"uint256"}],"stateMutability":"view","type":"function"},{"inputs":[],"name":"lastFlippedEpochTime","outputs":[{"internalType":"uint256","name":"","type":"uint256"}],"stateMutability":"view","type":"function"},{"inputs":[],"name":"mapContract","outputs":[{"internalType":"contract MapContract","name":"","type":"address"}],"stateMutability":"view","type":"function"},{"inputs":[],"name":"marketContract","outputs":[{"internalType":"address","name":"","type":"address"}],"stateMutability":"view","type":"function"},{"inputs":[],"name":"maxSupply","outputs":[{"internalType":"uint256","name":"","type":"uint256"}],"stateMutability":"view","type":"function"},{"inputs":[{"internalType":"enum LandNFT.MintOption","name":"option","type":"uint8"},{"internalType":"uint256","name":"existingTokenId","type":"uint256"}],"name":"mint","outputs":[],"stateMutability":"payable","type":"function"},{"inputs":[],"name":"mintPrice","outputs":[{"internalType":"uint256","name":"","type":"uint256"}],"stateMutability":"view","type":"function"},{"inputs":[],"name":"name","outputs":[{"internalType":"string","name":"","type":"string"}],"stateMutability":"view","type":"function"},{"inputs":[],"name":"nextTokenId","outputs":[{"internalType":"uint256","name":"","type":"uint256"}],"stateMutability":"view","type":"function"},{"inputs":[],"name":"owner","outputs":[{"internalType":"address","name":"","type":"address"}],"stateMutability":"view","type":"function"},{"inputs":[{"internalType":"uint256","name":"tokenId","type":"uint256"}],"name":"ownerOf","outputs":[{"internalType":"address","name":"","type":"address"}],"stateMutability":"view","type":"function"},{"inputs":[],"name":"renounceOwnership","outputs":[],"stateMutability":"nonpayable","type":"function"},{"inputs":[{"internalType":"address","name":"from","type":"address"},{"internalType":"address","name":"to","type":"address"},{"internalType":"uint256","name":"tokenId","type":"uint256"}],"name":"safeTransferFrom","outputs":[],"stateMutability":"nonpayable","type":"function"},{"inputs":[{"internalType":"address","name":"from","type":"address"},{"internalType":"address","name":"to","type":"address"},{"internalType":"uint256","name":"tokenId","type":"uint256"},{"internalType":"bytes","name":"data","type":"bytes"}],"name":"safeTransferFrom","outputs":[],"stateMutability":"nonpayable","type":"function"},{"inputs":[{"internalType":"address","name":"operator","type":"address"},{"internalType":"bool","name":"approved","type":"bool"}],"name":"setApprovalForAll","outputs":[],"stateMutability":"nonpayable","type":"function"},{"inputs":[{"internalType":"address","name":"_buildingManager","type":"address"}],"name":"setBuildingManager","outputs":[],"stateMutability":"nonpayable","type":"function"},{"inputs":[{"internalType":"address","name":"_erc20Token","type":"address"}],"name":"setERC20Token","outputs":[],"stateMutability":"nonpayable","type":"function"},{"inputs":[{"internalType":"address","name":"_mapContract","type":"address"}],"name":"setMapContract","outputs":[],"stateMutability":"nonpayable","type":"function"},{"inputs":[{"internalType":"address","name":"_marketContract","type":"address"}],"name":"setMarketContract","outputs":[],"stateMutability":"nonpayable","type":"function"},{"inputs":[{"internalType":"uint256","name":"newPrice","type":"uint256"}],"name":"setMintPrice","outputs":[],"stateMutability":"nonpayable","type":"function"},{"inputs":[{"internalType":"uint256","name":"tokenId","type":"uint256"},{"internalType":"string","name":"buildingName","type":"string"},{"internalType":"uint256","name":"level","type":"uint256"}],"name":"startBuildingConstruction","outputs":[],"stateMutability":"nonpayable","type":"function"},{"inputs":[{"internalType":"bytes4","name":"interfaceId","type":"bytes4"}],"name":"supportsInterface","outputs":[{"internalType":"bool","name":"","type":"bool"}],"stateMutability":"view","type":"function"},{"inputs":[],"name":"symbol","outputs":[{"internalType":"string","name":"","type":"string"}],"stateMutability":"view","type":"function"},{"inputs":[{"internalType":"uint256","name":"index","type":"uint256"}],"name":"tokenByIndex","outputs":[{"internalType":"uint256","name":"","type":"uint256"}],"stateMutability":"view","type":"function"},{"inputs":[],"name":"tokenDecimals","outputs":[{"internalType":"uint8","name":"","type":"uint8"}],"stateMutability":"view","type":"function"},{"inputs":[{"internalType":"address","name":"owner","type":"address"},{"internalType":"uint256","name":"index","type":"uint256"}],"name":"tokenOfOwnerByIndex","outputs":[{"internalType":"uint256","name":"","type":"uint256"}],"stateMutability":"view","type":"function"},{"inputs":[{"internalType":"uint256","name":"tokenId","type":"uint256"}],"name":"tokenURI","outputs":[{"internalType":"string","name":"","type":"string"}],"stateMutability":"view","type":"function"},{"inputs":[],"name":"totalSupply","outputs":[{"internalType":"uint256","name":"","type":"uint256"}],"stateMutability":"view","type":"function"},{"inputs":[{"internalType":"address","name":"from","type":"address"},{"internalType":"address","name":"to","type":"address"},{"internalType":"uint256","name":"tokenId","type":"uint256"}],"name":"transferFrom","outputs":[],"stateMutability":"nonpayable","type":"function"},{"inputs":[{"internalType":"address","name":"newOwner","type":"address"}],"name":"transferOwnership","outputs":[],"stateMutability":"nonpayable","type":"function"},{"inputs":[],"name":"updateEpoch","outputs":[],"stateMutability":"nonpayable","type":"function"},{"inputs":[],"name":"withdraw","outputs":[],"stateMutability":"nonpayable","type":"function"},{"inputs":[],"name":"withdrawERC20","outputs":[],"stateMutability":"nonpayable","type":"function"}],"evm":{"bytecode":{"linkReferences":{},"object":"6080346200039757601f19601f6001600160401b0362004c6d388190038381018516860183811187821017620003815786928291604052833960209586918101031262000397575190620000526200039c565b92600d84526c119a9d5b9b1d5b990813185b99609a1b86850152620000766200039c565b95600387526211929360ea1b8188015284519583871162000381576000968754966001978881811c9116801562000376575b8582101462000362579081868493116200030f575b508490868311600114620002ae578a92620002a2575b5050600019600383901b1c191690871b1787555b87519384116200028e5785548681811c9116801562000283575b838210146200026f5783811162000227575b5081928411600114620001bf57505084958293949592620001b3575b5050600019600383901b1c191690831b1782555b600a8054336001600160a01b031982168117909255604051946001600160a01b03909116907f8be0079c531659141344cd1fd0a4f28419497f9722a3daafe3b4186f6b6457e09080a381600b55610e10601255612710601355601155601055426014556148b09081620003bd8239f35b0151905038806200012f565b8392919216968587528287209287905b8982106200020f5750508386979896959610620001f5575b505050811b01825562000143565b015160001960f88460031b161c19169055388080620001e7565b808885968294968601518155019501930190620001cf565b8688528288208480870160051c82019285881062000265575b0160051c019087905b8281106200025957505062000113565b89815501879062000249565b9250819262000240565b634e487b7160e01b88526022600452602488fd5b90607f169062000101565b634e487b7160e01b87526041600452602487fd5b015190503880620000d3565b90848a9416918b8052868c20928c5b88828210620002f85750508411620002de575b505050811b018755620000e7565b015160001960f88460031b161c19169055388080620002d0565b8385015186558d97909501949384019301620002bd565b909150898052848a208680850160051c82019287861062000358575b918b91869594930160051c01915b82811062000349575050620000bd565b8c81558594508b910162000339565b925081926200032b565b634e487b7160e01b8a52602260045260248afd5b90607f1690620000a8565b634e487b7160e01b600052604160045260246000fd5b600080fd5b60408051919082016001600160401b03811183821017620003815760405256fe608080604052600436101561001357600080fd5b600090813560e01c908163018c7f9e146127f75750806301ffc9a71461276e5780630426657c146126de57806306fdde031461263a578063073c9c811461261c578063081812fc146125fd578063095ea7b31461248857806318160ddd1461246a57806323b872dd146124455780632de3e04f146121215780632ed6d5e814611ff65780632f745c5914611f4957806336f4fb0214611e005780633b97e85614611ddf5780633ccfd60b14611d2357806342842e0e14611cf05780634f6ccce714611c5e5780634ff0876a14611c405780635145005614611b905780635c84284814611ad657806360e4c39314611aad5780636352211e14611a7c5780636727b15014611a535780636817c76c14611a35578063691c78361461159b57806370a082311461156f578063715018a61461151257806375794a3c146114f457806376fe7cb5146114d65780638a13eea7146114ad5780638da5cb5b1461148457806390edbfee146113f357806395d89b41146113105780639b0060011461118a578063a1794bcd14611161578063a22cb46514611084578063a563ef2c14610ff4578063b88d4fde14610f6c578063c87b56dd14610efa578063d5abeb0114610edc578063de56248714610dce578063e985e9c514610d7e578063f26748e214610404578063f2fde38b1461033e578063f4a0a5281461031b5763f85ea2ab1461021b57600080fd5b3461031857602036600319011261031857610234612baa565b61023c612d67565b6001600160a01b039081169081156102d357600f5490811661028e576001600160a01b0319168117600f557fb707ebc7426ca1a0097189565fab1383fa2bfd226132fb5573651ae72a02b2088280a280f35b60405162461bcd60e51b815260206004820152601a60248201527f4d61726b6574436f6e747261637420616c7265616479207365740000000000006044820152606490fd5b60405162461bcd60e51b815260206004820152601e60248201527f496e76616c6964204d61726b6574436f6e7472616374206164647265737300006044820152606490fd5b80fd5b503461031857602036600319011261031857610335612d67565b60043560115580f35b503461031857602036600319011261031857610358612baa565b610360612d67565b6001600160a01b039081169081156103b057600a54826001600160601b0360a01b821617600a55167f8be0079c531659141344cd1fd0a4f28419497f9722a3daafe3b4186f6b6457e0600080a380f35b60405162461bcd60e51b815260206004820152602660248201527f4f776e61626c653a206e6577206f776e657220697320746865207a65726f206160448201526564647265737360d01b6064820152608490fd5b506040366003190112610318576004356002811015610d7a5761042561399e565b6011543410610d3e57600e546001600160a01b031615610d03576010546013548111610cc55760018101808211610cb15760105560405161046581612c78565b8381523315610c6d57600082815260026020526040902054610493906001600160a01b031615155b156139f4565b6008548285526009602052806040862055600160401b811015610c5957610598916104e4846104cb8460016105939601600855613538565b90919082549060031b91821b91600019901b1916179055565b6104ed33612dbf565b3387526006602052604087208188526020528460408820558487526007602052604087205561053461048d85600052600260205260018060a01b0360406000205416151590565b33865260036020526040862060018154019055838652600260205260408620336001600160601b0360a01b8254161790558333877fddf252ad1be2c89b69c2b068fc378daa952ba7f163c4a11628f55a4df523b3ef8180a483336133c9565b61306b565b808352601760205260408320606481556001810160328155600282019360328555600a60038401556004830193600a8555866005850192600a84556040516105df81612c42565b6101f480825260fa60a061012c9384602082015260c86040820152606460608201526064608082015201526008880155600987015560c8600a8701556064600b8701556064600c87015560fa600d87015542600e87015560018114600014610ba0575050602435336001600160a01b0361065883612e82565b1603610b505760018060a01b03600e54169060405190633c7c604f60e01b82526004820152604081602481855afa8015610b145789918a91610b1f575b50604051916372013ed360e11b8352600483015260248201528881604481855afa908115610b14578991610a0c575b508051156109bd578051156109a957906020899594939201519081516020830151823b156109a55760405163478935d360e01b815260048101869052602481019290925260448201529086908290606490829084905af1801561099a5761094a575b5080516020918201516040805194855292840191909152908201526084949392919033907f8436f10f9012a01d1c3bb5d6dd9014da60dd826366249f20010f63bc881bea8290606090a25b6040519161077e83612c5d565b6107bb60066040519661079088612c93565b60048852634661726d60e01b97886020820152865260016020870152600160408701520193846136bd565b6108066040516107ca81612c5d565b604051946107d786612c93565b600b86526a4d61726b6574706c61636560a81b95866020820152825260016020830152600160408301526136bd565b8360018060a01b03600d54166040519788809263244d87ad60e11b998a835260406004840152600460448401526064830152600160248301525afa95861561093f578496610923575b5061085f608087015182546135f5565b905561088361010061087660a08801518a546135f5565b96878a55015182546135f5565b9055600d54604080519485526004850152600b6044850152606484019190915260016024840152829060849082906001600160a01b03165afa8015610918576108ea9360a09287926108f4575b506108e060e083015182546135f5565b90550151906135f5565b90556001600b5580f35b6109119192503d8089833e6109098183612cae565b81019061388d565b90386108d0565b6040513d87823e3d90fd5b6109389196503d8086833e6109098183612cae565b943861084f565b6040513d86823e3d90fd5b9094506001600160401b0381116109865760405287937f8436f10f9012a01d1c3bb5d6dd9014da60dd826366249f20010f63bc881bea82610726565b634e487b7160e01b89526041600452602489fd5b6040513d88823e3d90fd5b8780fd5b634e487b7160e01b89526032600452602489fd5b60405162461bcd60e51b815260206004820152602160248201527f4e6f2061646a6163656e7420636f6f7264696e6174657320617661696c61626c6044820152606560f81b6064820152608490fd5b90503d808a833e610a1d8183612cae565b6020828281010312610b10578151906001600160401b038211610b0c57808301601f838501011215610b0c578183015190610a5782613618565b93610a656040519586612cae565b828552602085019382820160208560061b838501010111610b0857602081830101945b60208560061b83850101018610610aa557505050505050386106c4565b6040868585010312610b04576040518060408101106001600160401b03604083011117610aef57604080820181528751825260208881015183820152918352969096019501610a88565b50634e487b7160e01b8f52604160045260248ffd5b8e80fd5b8d80fd5b8a80fd5b8980fd5b6040513d8b823e3d90fd5b9050610b43915060403d604011610b49575b610b3b8183612cae565b810190613602565b38610695565b503d610b31565b60405162461bcd60e51b815260206004820152602260248201527f4e6f7420746865206f776e6572206f6620746865206578697374696e67206c616044820152611b9960f21b6064820152608490fd5b9493919492909215610bb6575b60849450610771565b600e5460408051631039f59d60e01b81526004810188905296918790602490829088906001600160a01b03165af195861561093f576084967f8436f10f9012a01d1c3bb5d6dd9014da60dd826366249f20010f63bc881bea829186908792610c37575b506040805194855260208501919091528301523391606090a2610bad565b9050610c52915060403d604011610b4957610b3b8183612cae565b9038610c19565b634e487b7160e01b85526041600452602485fd5b606460405162461bcd60e51b815260206004820152602060248201527f4552433732313a206d696e7420746f20746865207a65726f20616464726573736044820152fd5b634e487b7160e01b84526011600452602484fd5b60405162461bcd60e51b815260206004820152601660248201527513585e1a5b5d5b481cdd5c1c1b1e481c995858da195960521b6044820152606490fd5b60405162461bcd60e51b815260206004820152601360248201527213585c10dbdb9d1c9858dd081b9bdd081cd95d606a1b6044820152606490fd5b60405162461bcd60e51b8152602060048201526014602482015273125b9cdd59999a58da595b9d081c185e5b595b9d60621b6044820152606490fd5b5080fd5b50346103185760403660031901126103185760ff6040602092610d9f612baa565b610da7612bc5565b6001600160a01b039182168352600586528383209116825284522054604051911615158152f35b503461031857602080600319360112610d7a57610de9612baa565b610df1612d67565b600c54906001600160a01b0390818316610e9757166001600160a01b0319919091168117600c5560405163313ce56760e01b815291908190839060049082905afa908115610e8c578391610e53575b8360ff831660ff19601654161760165580f35b905081813d8311610e85575b610e698183612cae565b81010312610d7a575160ff81168103610d7a5760ff9038610e40565b503d610e5f565b6040513d85823e3d90fd5b60405162461bcd60e51b815260048101859052601f60248201527f455243323020746f6b656e206164647265737320616c726561647920736574006044820152606490fd5b50346103185780600319360112610318576020601354604051908152f35b503461031857602036600319011261031857600435600090815260026020526040902054610f689190610f37906001600160a01b03161515612e36565b80604051610f4481612c78565b5260405190610f5282612c78565b8152604051918291602083526020830190612b85565b0390f35b503461031857608036600319011261031857610f86612baa565b610f8e612bc5565b90606435906044356001600160401b038311610ff05736602384011215610ff057610fed93610fca610593943690602481600401359101612d30565b92610fdd610fd8843361308f565b612fb6565b610fe8838383613157565b6134bd565b80f35b8480fd5b50346103185760203660031901126103185761100e612baa565b611016612d67565b600d54906001600160a01b039081831661103f5716906001600160601b0360a01b1617600d5580f35b60405162461bcd60e51b815260206004820152601b60248201527f4275696c64696e674d616e6167657220616c72656164792073657400000000006044820152606490fd5b50346103185760403660031901126103185761109e612baa565b602435908115159081830361115d576001600160a01b031691338314611118576110e990338552600560205260408520848652602052604085209060ff801983541691151516179055565b6040519081527f17307eab39ab6107e8899845ad3d59bd9653f200f220920489ca2b5937696c3160203392a380f35b60405162461bcd60e51b815260206004820152601960248201527f4552433732313a20617070726f766520746f2063616c6c6572000000000000006044820152606490fd5b8380fd5b5034610318578060031936011261031857600f546040516001600160a01b039091168152602090f35b50346103185760e03660031901126103185760043560c0366023190112610d7a576040516111b781612c42565b60243581526020808201916044358352604081016064358152606082016084358152608083019160a435835260a084019360c435855260018060a01b03600f541633036112cd57600088815260026020526040902054611226906001600160a01b031615156135b2565b6135b2565b5195878952601796878752611243600860408c20019182546135f5565b90555187895286865261125e600960408b20019182546135f5565b905551868852858552611279600a60408a20019182546135f5565b905551858752848452611294600b60408920019182546135f5565b9055518486528383526112af600c60408820019182546135f5565b905551928452526112c8600d60408420019182546135f5565b905580f35b6064866040519062461bcd60e51b825280600483015260248201527f43616c6c6572206973206e6f7420746865204d61726b6574436f6e74726163746044820152fd5b50346103185780600319360112610318576040519080600180549161133483612ea8565b808652928281169081156113c9575060011461136f575b610f688561135b81870382612cae565b604051918291602083526020830190612b85565b92508083527fb10e2d527612073b26eecdfd717e6a320cf44b4afac2b0732d9fcbe2b7fa0cf65b8284106113b157505050810160200161135b82610f6861134b565b80546020858701810191909152909301928101611396565b869550610f689693506020925061135b94915060ff191682840152151560051b820101929361134b565b503461031857602036600319011261031857600435611410612d67565b6013548111156114205760135580f35b60405162461bcd60e51b815260206004820152603660248201527f4e6577206d617820737570706c79206d7573742062652067726561746572207460448201527568616e2063757272656e74206d617820737570706c7960501b6064820152608490fd5b5034610318578060031936011261031857600a546040516001600160a01b039091168152602090f35b5034610318578060031936011261031857600c546040516001600160a01b039091168152602090f35b50346103185780600319360112610318576020601454604051908152f35b50346103185780600319360112610318576020601054604051908152f35b503461031857806003193601126103185761152b612d67565b600a80546001600160a01b0319811690915581906001600160a01b03167f8be0079c531659141344cd1fd0a4f28419497f9722a3daafe3b4186f6b6457e08280a380f35b503461031857602036600319011261031857602061159361158e612baa565b612dbf565b604051908152f35b50346103185760603660031901126103185760246001600160401b03813581811161115d573660238201121561115d576115de9036908481600401359101612d30565b916115e761399e565b6115f2600435612e82565b6001600160a01b0391906116099083163314613ada565b81600d541685604051809263244d87ad60e11b8252604060048301528180611634604482018b612b85565b6044358883015203915afa90811561099a578691611a1b575b5060043586526017602052600860408720016116776040830191611672835191612ccf565b613d84565b156119d75760a08151015160ff60165416604d81116119c4579061169e91600a0a90613ac7565b93600c54166040516370a0823160e01b81523360048201526020818681855afa8015610b145786918a9161198b575b5010611947576040516323b872dd60e01b60208201523385820152306044820152606480820187905281529060a08201878111838210176119345792611721611742959361173a9361014096604052613b26565b6004358a526017602052600860408b2001905190613e0e565b0151426135f5565b926004358652601760205260076040872001906040519161176283612c5d565b8683526044356020840152856040840152805490600160401b821015611921579061179291600182018155613643565b93909361190f5782519081519283116118fd57506117ba826117b48654612ea8565b86613676565b602090601f8311600114611869577fe6ad6e82819c4e41704f66995f6132e8e2887aabeac56a9808f514a83ebc245f979593836118409896946002946040948d9261185e575b50508160011b916000199060031b1c19161784555b602081015160018501550151910155604051938493600435855260a0602086015260a0850190612b85565b916044356040850152606084015260808301520390a16001600b5580f35b015190503880611800565b908489526020892091895b601f19851681106118e55750936001846002946040947fe6ad6e82819c4e41704f66995f6132e8e2887aabeac56a9808f514a83ebc245f9c9a986118409c9a98601f198116106118cc575b505050811b018455611815565b015160001960f88460031b161c191690553880806118bf565b91926020600181928685015181550194019201611874565b634e487b7160e01b8952604160045288fd5b634e487b7160e01b8852600488905287fd5b634e487b7160e01b895260416004528489fd5b634e487b7160e01b8a526041600452858afd5b60405162461bcd60e51b8152602060048201526017818601527f4e6f7420656e6f75676820455243323020746f6b656e730000000000000000006044820152606490fd5b9150506020813d6020116119bc575b816119a760209383612cae565b810103126119b857859051386116cd565b8880fd5b3d915061199a565b634e487b7160e01b895260116004528489fd5b60405162461bcd60e51b815260206004820152601c818501527f4e6f7420656e6f75676820696e2d67616d65207265736f7572636573000000006044820152606490fd5b611a2f91503d8088833e6109098183612cae565b3861164d565b50346103185780600319360112610318576020601154604051908152f35b5034610318578060031936011261031857600e546040516001600160a01b039091168152602090f35b5034610318576020366003190112610318576020611a9b600435612e82565b6040516001600160a01b039091168152f35b5034610318578060031936011261031857600d546040516001600160a01b039091168152602090f35b50346103185760203660031901126103185760406101a0916004358152601760205220805490611b8860018201549160028101546003820154600483015490600584015492600e611b2960088701612ccf565b95015496604051988952602089015260408801526060870152608086015260a085015260c084019060a0809180518452602081015160208501526040810151604085015260608101516060850152608081015160808501520151910152565b610180820152f35b503461031857602036600319011261031857600435600081815260026020526040902054909190611bcb906001600160a01b031615156135b2565b600e5460408051633c7c604f60e01b8152600481019490945290839060249082906001600160a01b03165afa8015611c33576040928291611c14575b5082519182526020820152f35b9050611c2d9150823d8411610b4957610b3b8183612cae565b38611c07565b50604051903d90823e3d90fd5b50346103185780600319360112610318576020601254604051908152f35b503461031857602036600319011261031857600435600854811015611c9657611c88602091613538565b90546040519160031b1c8152f35b60405162461bcd60e51b815260206004820152602c60248201527f455243373231456e756d657261626c653a20676c6f62616c20696e646578206f60448201526b7574206f6620626f756e647360a01b6064820152608490fd5b503461031857610fed610593611d0536612bdb565b9060405192611d1384612c78565b868452610fdd610fd8843361308f565b5034610318578060031936011261031857611d3c612d67565b478015611da557600a5482918291829182916001600160a01b03165af1611d61613399565b5015611d6a5780f35b60405162461bcd60e51b8152602060048201526013602482015272115512081d1c985b9cd9995c8819985a5b1959606a1b6044820152606490fd5b60405162461bcd60e51b81526020600482015260126024820152714e6f2045544820746f20776974686472617760701b6044820152606490fd5b5034610318578060031936011261031857602060ff60165416604051908152f35b5034610318578060031936011261031857611e19612d67565b611e2161399e565b42601555611e3d611e3460145442613585565b60125490613592565b8015611ef4576001908180805b611eaa575b50506020611e997fb33a1f54dde4e0082c45281b338d78b2c4b5be163b6ffffa5d0d6d1050ba5a5892611e90611e886012548093613ac7565b6014546135f5565b60145542613592565b604051908152a142601555600b5580f35b601054811015611eef57600081815260026020526040902054611eda91906001600160a01b0316611ee057613ab8565b81611e4a565b611eea8482613e8d565b613ab8565b611e4f565b60405162461bcd60e51b815260206004820152602760248201527f4e6f2065706f6368732068617665207061737365642073696e6365206c6173746044820152662075706461746560c81b6064820152608490fd5b503461031857604036600319011261031857611f63612baa565b60243591611f7082612dbf565b831015611f9d5760209260409260018060a01b031682526006845282822090825283522054604051908152f35b60405162461bcd60e51b815260206004820152602b60248201527f455243373231456e756d657261626c653a206f776e657220696e646578206f7560448201526a74206f6620626f756e647360a81b6064820152608490fd5b503461031857806003193601126103185761200f612d67565b600c546040516370a0823160e01b81523060048201526001600160a01b039182169291602091908282602481885afa91821561093f5784926120f2575b5081156120ad57600a54166040519263a9059cbb60e01b90840152602483015260448201526044815260808101928184106001600160401b0385111761209957610fed9293604052613b26565b634e487b7160e01b83526041600452602483fd5b60405162461bcd60e51b815260048101849052601b60248201527f4e6f20455243323020746f6b656e7320746f20776974686472617700000000006044820152606490fd5b9091508281813d831161211a575b61210a8183612cae565b8101031261115d5751903861204c565b503d612100565b50346103185760203660031901126103185760043561213e61399e565b61214781612e82565b6001600160a01b03929061215e9084163314613ada565b8181526017602052604081209161217c611e34600e85015442613585565b80612435575b5080825260176020526007604083200192825b845481101561242c576121b16121ab8287613643565b50613a82565b6040810151421061241d5786600d541690805190866121f5602083019485519460405180968194829363244d87ad60e11b8452604060048501526044840190612b85565b90602483015203915afa9182156124125787926123f6575b507faeafb1e363dc235e7bce50a1a03b55ee1485cfc2b7626884ee98a834c84eb6076122c3608084015194600195612249878a019182546135f5565b905561010060a086015195600296612265888c019182546135f5565b905501519360059461227b868b019182546135f5565b90556122a7815183516040519161229183612c5d565b8252602082015288604082015260068b016136bd565b5190516040519283928b84526060806020860152840190612b85565b9060408301520390a18754600019908181019081116123e2576122e6908a613643565b506122f1868b613643565b9190916123ce5780859183036123ad575b50505088548015612399570192612319848a613643565b9290926123855782918980959492612332829454612ea8565b9081612348575b50505082015501558555612195565b601f908183116001146123635750505083555b813880612339565b61237c91878552602085209301901c820184830161365f565b8185555561235b565b634e487b7160e01b89526004899052602489fd5b634e487b7160e01b89526031600452602489fd5b806123b9839285613cac565b87810154888501550154910155388381612302565b634e487b7160e01b8a5260048a905260248afd5b634e487b7160e01b89526011600452602489fd5b61240b9192503d8089833e6109098183612cae565b903861220d565b6040513d89823e3d90fd5b5061242790613ab8565b612195565b836001600b5580f35b61243f9082613e8d565b38612182565b503461031857610fed61245736612bdb565b91612465610fd8843361308f565b613157565b50346103185780600319360112610318576020600854604051908152f35b5034610318576040366003190112610318576124a2612baa565b602435906001600160a01b0380806124b985612e82565b169216918083146125ae5780331490811561258d575b50156125225782845260046020526040842080546001600160a01b031916831790556124fa83612e82565b167f8c5be1e5ebec7d5bd14f71427d1e84f3dd0314c0f7b2291e5b200ac8c7c3b9258480a480f35b60405162461bcd60e51b815260206004820152603d60248201527f4552433732313a20617070726f76652063616c6c6572206973206e6f7420746f60448201527f6b656e206f776e6572206f7220617070726f76656420666f7220616c6c0000006064820152608490fd5b9050845260056020526040842033855260205260ff604085205416386124cf565b60405162461bcd60e51b815260206004820152602160248201527f4552433732313a20617070726f76616c20746f2063757272656e74206f776e656044820152603960f91b6064820152608490fd5b5034610318576020366003190112610318576020611a9b600435612f78565b50346103185780600319360112610318576020601554604051908152f35b50346103185780600319360112610318576040519080805461265b81612ea8565b808552916001918083169081156113c9575060011461268457610f688561135b81870382612cae565b80809450527f290decd9548b62a8d60345a988386fc84ba6bc95484008f6362f93160ef3e5635b8284106126c657505050810160200161135b82610f6861134b565b805460208587018101919091529093019281016126ab565b5034610318576020366003190112610318576126f8612baa565b612700612d67565b600e54906001600160a01b03908183166127295716906001600160601b0360a01b1617600e5580f35b60405162461bcd60e51b815260206004820152601760248201527f4d6170436f6e747261637420616c7265616479207365740000000000000000006044820152606490fd5b50346103185760203660031901126103185760043563ffffffff60e01b8116809103610d7a5760209063780e9d6360e01b81149081156127b4575b506040519015158152f35b6380ac58cd60e01b8114915081156127e6575b81156127d5575b50826127a9565b6301ffc9a760e01b149050826127ce565b635b5e139f60e01b811491506127c7565b905034610d7a576020366003190112610d7a57816101206004359261281b81612c10565b8281528260208201528260408201528260608201528260808201528260a0820152606060c0820152606060e082015260405161285681612c42565b8381528360208201528360408201528360608201528360808201528360a082015261010082015201526128a161122182600052600260205260018060a01b0360406000205416151590565b815260176020526040812090604051906128ba82612c10565b8254825260018301546020830152600283015460408301526003830154606083015260048301546080830152600583015460a08301526006830180546128ff81613618565b9161290d6040519384612cae565b81835283526020808420849184015b838310612b44575050505060c08301526007830192835461293c81613618565b9061294a6040519283612cae565b80825260208201958452602084209584905b828210612b265750505060e0840152600e9061297a60088201612ccf565b61010085015201546101208301526040519060208252610200820183516020840152602084015160408401526040840151606084015260608401516080840152608084015160a084015260a084015160c084015260c0840151916101e0918260e08601528351809152610220906020828701928260051b88010195019183905b828210612adb575050505060e085015192601f1990818682030161010087015284519182825260208201906020808560051b850101970194925b848410612a9157888089896101208e612a876101008201518387019060a0809180518452602081015160208501526040810151604085015260608101516060850152608081015160808501520151910152565b0151908301520390f35b909192939496602080828585600195030187528a5190604080612abd8451606085526060850190612b85565b93858101518685015201519101529901940194019294939190612a34565b9091929560208060019261021f198b8203018552895190604080612b088451606085526060850190612b85565b938581015186850152015115159101529801920192019092916129fa565b60036020600192612b368b613a82565b81520198019101909661295c565b60036020600192612b5485613a40565b81520192019201919061291c565b60005b838110612b755750506000910152565b8181015183820152602001612b65565b90602091612b9e81518092818552858086019101612b62565b601f01601f1916010190565b600435906001600160a01b0382168203612bc057565b600080fd5b602435906001600160a01b0382168203612bc057565b6060906003190112612bc0576001600160a01b03906004358281168103612bc057916024359081168103612bc0579060443590565b61014081019081106001600160401b03821117612c2c57604052565b634e487b7160e01b600052604160045260246000fd5b60c081019081106001600160401b03821117612c2c57604052565b606081019081106001600160401b03821117612c2c57604052565b602081019081106001600160401b03821117612c2c57604052565b604081019081106001600160401b03821117612c2c57604052565b90601f801991011681019081106001600160401b03821117612c2c57604052565b90604051612cdc81612c42565b60a06005829480548452600181015460208501526002810154604085015260038101546060850152600481015460808501520154910152565b6001600160401b038111612c2c57601f01601f191660200190565b929192612d3c82612d15565b91612d4a6040519384612cae565b829481845281830111612bc0578281602093846000960137010152565b600a546001600160a01b03163303612d7b57565b606460405162461bcd60e51b815260206004820152602060248201527f4f776e61626c653a2063616c6c6572206973206e6f7420746865206f776e65726044820152fd5b6001600160a01b03168015612ddf57600052600360205260406000205490565b60405162461bcd60e51b815260206004820152602960248201527f4552433732313a2061646472657373207a65726f206973206e6f7420612076616044820152683634b21037bbb732b960b91b6064820152608490fd5b15612e3d57565b60405162461bcd60e51b815260206004820152601860248201527f4552433732313a20696e76616c696420746f6b656e20494400000000000000006044820152606490fd5b6000908152600260205260409020546001600160a01b0316612ea5811515612e36565b90565b90600182811c92168015612ed8575b6020831014612ec257565b634e487b7160e01b600052602260045260246000fd5b91607f1691612eb7565b9060009291805491612ef383612ea8565b918282526001938481169081600014612f555750600114612f15575b50505050565b90919394506000526020928360002092846000945b838610612f41575050505001019038808080612f0f565b805485870183015294019385908201612f2a565b9294505050602093945060ff191683830152151560051b01019038808080612f0f565b600081815260026020526040902054612f9b906001600160a01b03161515612e36565b6000908152600460205260409020546001600160a01b031690565b15612fbd57565b60405162461bcd60e51b815260206004820152602d60248201527f4552433732313a2063616c6c6572206973206e6f7420746f6b656e206f776e6560448201526c1c881bdc88185c1c1c9bdd9959609a1b6064820152608490fd5b60809060208152603260208201527f4552433732313a207472616e7366657220746f206e6f6e20455243373231526560408201527131b2b4bb32b91034b6b83632b6b2b73a32b960711b60608201520190565b1561307257565b60405162461bcd60e51b81528061308b60048201613018565b0390fd5b906001600160a01b0380806130a384612e82565b169316918383149384156130d6575b5083156130c0575b50505090565b6130cc91929350612f78565b16143880806130ba565b909350600052600560205260406000208260005260205260ff6040600020541692386130b2565b1561310457565b60405162461bcd60e51b815260206004820152602560248201527f4552433732313a207472616e736665722066726f6d20696e636f72726563742060448201526437bbb732b960d91b6064820152608490fd5b61317b9161316484612e82565b6001600160a01b03938484169391851684146130fd565b8382169384156133485783918261328f575090506008549085600052600960205281604060002055600160401b821015612c2c576131e1926131c8876104cb856001899701600855613538565b82860361325c575b506131da86612e82565b16146130fd565b7fddf252ad1be2c89b69c2b068fc378daa952ba7f163c4a11628f55a4df523b3ef60008481526004602052604081206001600160601b0360a01b9081815416905583825260036020526040822060001981540190558482526040822060018154019055858252600260205284604083209182541617905580a4565b61326590612dbf565b604060008781526006602052818120838252602052888282205588815260076020522055386131d0565b8583036132a1575b506131e1926131c8565b6132ac919250612dbf565b600019810191908211613332576131e192849260009088825260209060078252604091828420548281036132fb575b508a84528383812055868452600681528284209184525281205592613297565b87855260068252838520838652825283852054888652600683528486208287528352808587205585526007825283852055386132db565b634e487b7160e01b600052601160045260246000fd5b60405162461bcd60e51b8152602060048201526024808201527f4552433732313a207472616e7366657220746f20746865207a65726f206164646044820152637265737360e01b6064820152608490fd5b3d156133c4573d906133aa82612d15565b916133b86040519384612cae565b82523d6000602084013e565b606090565b9091600091803b156134b4576134146020918493604051948580948193630a85bd0160e11b9a8b84523360048501528460248501526044840152608060648401526084830190612b85565b03926001600160a01b03165af19082908261346c575b505061345e57613438613399565b805190816134595760405162461bcd60e51b81528061308b60048201613018565b602001fd5b6001600160e01b0319161490565b909192506020813d82116134ac575b8161348860209383612cae565b81010312610d7a5751906001600160e01b031982168203610318575090388061342a565b3d915061347b565b50505050600190565b91926000929190813b1561352e576020916135139185604051958680958194630a85bd0160e11b9b8c845233600485015260018060a01b0380951660248501526044840152608060648401526084830190612b85565b0393165af19082908261346c57505061345e57613438613399565b5050505050600190565b60085481101561356f5760086000527ff3f7a9fe364faab93b216da50a3214154f22a0a2b415b23a84c8169e8b636ee30190600090565b634e487b7160e01b600052603260045260246000fd5b9190820391821161333257565b811561359c570490565b634e487b7160e01b600052601260045260246000fd5b156135b957565b60405162461bcd60e51b8152602060048201526014602482015273151bdad95b88191bd95cc81b9bdd08195e1a5cdd60621b6044820152606490fd5b9190820180921161333257565b9190826040910312612bc0576020825192015190565b6001600160401b038111612c2c5760051b60200190565b805182101561356f5760209160051b010190565b805482101561356f576000526003602060002091020190600090565b81811061366a575050565b6000815560010161365f565b9190601f811161368557505050565b6136b1926000526020600020906020601f840160051c830193106136b3575b601f0160051c019061365f565b565b90915081906136a4565b91908254600160401b811015612c2c576136de906001948582018155613643565b9190916137d8578051938451946001600160401b038611612c2c57613707866117b48654612ea8565b602090601f871160011461376a5791866136b196976002959360409560009261375f575b5050600019600383901b1c191690821b1785555b6020820151908501550151151591019060ff801983541691151516179055565b01519050388061372b565b90601f1987169185600052816000209260005b8181106137c257509760029593859360409693836136b19b9c106137a9575b505050811b01855561373f565b015160001960f88460031b161c1916905538808061379c565b828401518555938501936020938401930161377d565b634e487b7160e01b600052600060045260246000fd5b81601f82011215612bc057805161380481612d15565b926138126040519485612cae565b81845260208284010111612bc057612ea59160208085019101612b62565b91908260c0910312612bc05760405161384881612c42565b60a080829480518452602081015160208501526040810151604085015260608101516060850152608081015160808501520151910152565b51908115158203612bc057565b90602082820312612bc05781516001600160401b0392838211612bc057019061038082820312612bc057604051926101a0840184811082821117612c2c576040528251818111612bc057826138e39185016137ee565b8452602083015160208501526138fc8260408501613830565b604085015261010061391083828601613830565b60608601526101c084015160808601526101e084015160a086015261020084015160c086015261022084015160e086015261024084015190850152613959826102608501613830565b6101208501526103208301516101408501526139786103408401613880565b610160850152610360830151908111612bc05761399592016137ee565b61018082015290565b6002600b54146139af576002600b55565b60405162461bcd60e51b815260206004820152601f60248201527f5265656e7472616e637947756172643a207265656e7472616e742063616c6c006044820152606490fd5b156139fb57565b60405162461bcd60e51b815260206004820152601c60248201527f4552433732313a20746f6b656e20616c7265616479206d696e746564000000006044820152606490fd5b90604051613a4d81612c5d565b604060ff600283958351613a6c81613a658185612ee2565b0382612cae565b8552600181015460208601520154161515910152565b90604051613a8f81612c5d565b6040600282948251613aa581613a658185612ee2565b8452600181015460208501520154910152565b60001981146133325760010190565b8181029291811591840414171561333257565b15613ae157565b60405162461bcd60e51b815260206004820152601a60248201527f4e6f7420746865206f776e6572206f662074686973206c616e640000000000006044820152606490fd5b604051613b84916001600160a01b0316613b3f82612c93565b6000806020958685527f5361666545524332303a206c6f772d6c6576656c2063616c6c206661696c656487860152868151910182855af1613b7e613399565b91613c13565b8051828115918215613bf4575b5050905015613b9d5750565b6084906040519062461bcd60e51b82526004820152602a60248201527f5361666545524332303a204552433230206f7065726174696f6e20646964206e6044820152691bdd081cdd58d8d9595960b21b6064820152fd5b8380929350010312612bc05781613c0b9101613880565b808238613b91565b91929015613c755750815115613c27575090565b3b15613c305790565b60405162461bcd60e51b815260206004820152601d60248201527f416464726573733a2063616c6c20746f206e6f6e2d636f6e74726163740000006044820152606490fd5b825190915015613c885750805190602001fd5b60405162461bcd60e51b81526020600482015290819061308b906024830190612b85565b90808214613d8057613cbe8154612ea8565b906001600160401b038211612c2c578190613cdd826117b48654612ea8565b600090601f8311600114613d1457600092613d09575b50508160011b916000199060031b1c1916179055565b015490503880613cf3565b81526020808220858352818320935090601f1985169083905b828210613d67575050908460019594939210613d4e575b505050811b019055565b015460001960f88460031b161c19169055388080613d44565b8495819295850154815560018091019601940190613d2d565b5050565b908151815111159182613dfa575b82613de6575b82613dd2575b82613dbe575b82613dae57505090565b60a0919250810151910151111590565b915060808201516080820151111591613da4565b915060608201516060820151111591613d9e565b915060408201516040820151111591613d98565b915060208201516020820151111591613d92565b90600560a0613e8992613e2381518654613585565b85556020810151613e3960018701918254613585565b90556040810151613e4f60028701918254613585565b90556060810151613e6560038701918254613585565b90556080810151613e7b60048701918254613585565b905501519201918254613585565b9055565b9091816000526017602052604060002060018060a01b03600d54166040519063bfecd1a760e01b825281604481016040600483015260068501548091526064820160648260051b84010191600687016000526020600020916000905b82821061466d575050505091818060c0948a602483015203915afa80156140d757600090614633575b60a091508051613f27600885019182546135f5565b90556020810151613f3d600985019182546135f5565b90556040810151613f53600a85019182546135f5565b90556060810151613f69600b85019182546135f5565b90556080810151613f7f600c85019182546135f5565b90550151613f92600d83019182546135f5565b905582600052601760205260406000209360005b60068601548110156140e357613fbf8160068801613643565b5090600282015460ff8116613fdf575b50613fda9150613ab8565b613fa6565b60018060a01b03600d54169260006001820154604051958680809363244d87ad60e11b8252604060048301526140186044830188612ee2565b90602483015203915afa9081156140d757613fda946000926140ba575b5060608201519160088b019161404e8461167285612ccf565b1561406557505061405f9250613e0e565b38613fcf565b9150915060026101009360ff1916910155608081015161408a60018b01918254613585565b905560a08101516140a060028b01918254613585565b905501516140b360058901918254613585565b905561405f565b6140d09192503d806000833e6109098183612cae565b9038614035565b6040513d6000823e3d90fd5b50919350918060005260176020526040600020600281018054603281116000146145ca5750546031198101908111613332576141379060646141308661412b86548095613ac7565b613ac7565b04906135f5565b81555b61414b6141456146bb565b83614735565b806145aa575b50508060005260176020526040600020906000825480156145a2575b6008840154606481029080820460641490151715613332578161418f91613592565b91600385015460648102908082046064149015171561333257826141b291613592565b600486015460648102908082046064149015171561333257836141d491613592565b91600187015480606481020460641481151715613332578460646141f89202613592565b936005880154908160648102046064148215171561333257606461421c9202613592565b9460c8811061457e57506005810190600060058312911290801582169115161761333257600a90915b10614566576142556005916146f3565b915b10614557576001810190600060018312911290801582169115161761333257905b6101f4811061452757506004810190600060048312911290801582169115161761333257601490915b106145015760038101906000600383129112908015821691151617613332575b6142cc614145614710565b806144df575b5090600052601760205260066040600020018054906142f082613618565b916142fe6040519384612cae565b808352601f1961430d82613618565b0160005b8181106144ce57505060009260005b82811061441f5750506005831091506144099050575061433f906146f3565b600081131561439857826002600e9361435e613e899661438495613ac7565b61436c8383019182546135f5565b90555b01606481541161438e575b5060125490613ac7565b92019182546135f5565b606490553861437a565b600081126143b3575b50614384613e89926002600e9361436f565b90600160ff1b821461333257826002614384926143d8613e8996600e96600003613ac7565b82820190808254116000146143ff576143f2908254613585565b90555b93505092506143a1565b50600090556143f5565b6002111561433f5761441a906146e1565b61433f565b600160005b868110614488575b50614440575b61443b90613ab8565b614320565b9361448061443b91613a656144656144588989613643565b5060405192838092612ee2565b61446f828661362f565b5261447a818561362f565b50613ab8565b949050614432565b613a656144986144588589613643565b602081519101206144a9828661362f565b5160208151910120146144c4576144bf90613ab8565b614424565b505060003861442c565b806060602080938801015201614311565b600a9004906000828201928312911290801582169115161761333257386142d2565b6002198101908113600116156142c157634e487b7160e01b600052601160045260246000fd5b60641161453f576145396014916146f3565b916142a1565b600319810190811360011661333257601490916142a1565b614560906146e1565b90614278565b60011981019081136001166133325760059091614257565b60641161459657614590600a916146f3565b91614245565b50600a60041991614245565b50600161416d565b6145c1906103e86141308661412b86548095613ac7565b90553880614151565b9050601e811080614628575b6145e1575b5061413a565b601e03601e8111613332576103e86145ff8561412b85548095613ac7565b0480911160001461461e57614615908254613585565b81555b386145db565b5060008155614618565b5060328254116145d6565b5060c03d8111614666575b6146488183612cae565b81019060c081830312612bc05760a09161466191613830565b613f12565b503d61463e565b919360019193955060036020916063198a82030185526146936060808352820189612ee2565b908489015484820152604060ff60028b01541615159101529601920192018694939192613ee9565b604051906146c882612c93565b600a8252693837b83ab630ba34b7b760b11b6020830152565b90600019820191821360011661333257565b906002820191600060028412911290801582169115161761333257565b6040519061471d82612c93565b600982526868617070696e65737360b81b6020830152565b6000908152602060178152604080832091839460068594018054945b858110614762575050505050505090565b61477561476f8284613643565b50613a40565b8581015161478d575b5061478890613ab8565b614751565b876147c860018060a09c959c1b03600d541687845194015193895180958194829363244d87ad60e11b84528d60048501526044840190612b85565b90602483015203915afa908115614870578891614856575b5083518585019081206147f1614710565b8051908801200361481757506147889160a061480f920151906135f5565b975b9061477e565b849992995190206148266146bb565b8681519101201461483c575b5061478890614811565b6147889198608061484f920151906135f5565b9790614832565b61486a91503d808a833e6109098183612cae565b386147e0565b86513d8a823e3d90fdfea264697066735822122026bb19ad2b2e735beec9bd9eeacb6336c6d84d0628e8da0202a8570f79105e6c64736f6c63430008130033","opcodes":"PUSH1 0x80 CALLVALUE PUSH3 0x397 JUMPI PUSH1 0x1F NOT PUSH1 0x1F PUSH1 0x1 PUSH1 0x1 PUSH1 0x40 SHL SUB PUSH3 0x4C6D CODESIZE DUP2 SWAP1 SUB DUP4 DUP2 ADD DUP6 AND DUP7 ADD DUP4 DUP2 GT DUP8 DUP3 LT OR PUSH3 0x381 JUMPI DUP7 SWAP3 DUP3 SWAP2 PUSH1 0x40 MSTORE DUP4 CODECOPY PUSH1 0x20 SWAP6 DUP7 SWAP2 DUP2 ADD SUB SLT PUSH3 0x397 JUMPI MLOAD SWAP1 PUSH3 0x52 PUSH3 0x39C JUMP JUMPDEST SWAP3 PUSH1 0xD DUP5 MSTORE PUSH13 0x119A9D5B9B1D5B990813185B99 PUSH1 0x9A SHL DUP7 DUP6 ADD MSTORE PUSH3 0x76 PUSH3 0x39C JUMP JUMPDEST SWAP6 PUSH1 0x3 DUP8 MSTORE PUSH3 0x119293 PUSH1 0xEA SHL DUP2 DUP9 ADD MSTORE DUP5 MLOAD SWAP6 DUP4 DUP8 GT PUSH3 0x381 JUMPI PUSH1 0x0 SWAP7 DUP8 SLOAD SWAP7 PUSH1 0x1 SWAP8 DUP9 DUP2 DUP2 SHR SWAP2 AND DUP1 ISZERO PUSH3 0x376 JUMPI JUMPDEST DUP6 DUP3 LT EQ PUSH3 0x362 JUMPI SWAP1 DUP2 DUP7 DUP5 SWAP4 GT PUSH3 0x30F JUMPI JUMPDEST POP DUP5 SWAP1 DUP7 DUP4 GT PUSH1 0x1 EQ PUSH3 0x2AE JUMPI DUP11 SWAP3 PUSH3 0x2A2 JUMPI JUMPDEST POP POP PUSH1 0x0 NOT PUSH1 0x3 DUP4 SWAP1 SHL SHR NOT AND SWAP1 DUP8 SHL OR DUP8 SSTORE JUMPDEST DUP8 MLOAD SWAP4 DUP5 GT PUSH3 0x28E JUMPI DUP6 SLOAD DUP7 DUP2 DUP2 SHR SWAP2 AND DUP1 ISZERO PUSH3 0x283 JUMPI JUMPDEST DUP4 DUP3 LT EQ PUSH3 0x26F JUMPI DUP4 DUP2 GT PUSH3 0x227 JUMPI JUMPDEST POP DUP2 SWAP3 DUP5 GT PUSH1 0x1 EQ PUSH3 0x1BF JUMPI POP POP DUP5 SWAP6 DUP3 SWAP4 SWAP5 SWAP6 SWAP3 PUSH3 0x1B3 JUMPI JUMPDEST POP POP PUSH1 0x0 NOT PUSH1 0x3 DUP4 SWAP1 SHL SHR NOT AND SWAP1 DUP4 SHL OR DUP3 SSTORE JUMPDEST PUSH1 0xA DUP1 SLOAD CALLER PUSH1 0x1 PUSH1 0x1 PUSH1 0xA0 SHL SUB NOT DUP3 AND DUP2 OR SWAP1 SWAP3 SSTORE PUSH1 0x40 MLOAD SWAP5 PUSH1 0x1 PUSH1 0x1 PUSH1 0xA0 SHL SUB SWAP1 SWAP2 AND SWAP1 PUSH32 0x8BE0079C531659141344CD1FD0A4F28419497F9722A3DAAFE3B4186F6B6457E0 SWAP1 DUP1 LOG3 DUP2 PUSH1 0xB SSTORE PUSH2 0xE10 PUSH1 0x12 SSTORE PUSH2 0x2710 PUSH1 0x13 SSTORE PUSH1 0x11 SSTORE PUSH1 0x10 SSTORE TIMESTAMP PUSH1 0x14 SSTORE PUSH2 0x48B0 SWAP1 DUP2 PUSH3 0x3BD DUP3 CODECOPY RETURN JUMPDEST ADD MLOAD SWAP1 POP CODESIZE DUP1 PUSH3 0x12F JUMP JUMPDEST DUP4 SWAP3 SWAP2 SWAP3 AND SWAP7 DUP6 DUP8 MSTORE DUP3 DUP8 KECCAK256 SWAP3 DUP8 SWAP1 JUMPDEST DUP10 DUP3 LT PUSH3 0x20F JUMPI POP POP DUP4 DUP7 SWAP8 SWAP9 SWAP7 SWAP6 SWAP7 LT PUSH3 0x1F5 JUMPI JUMPDEST POP POP POP DUP2 SHL ADD DUP3 SSTORE PUSH3 0x143 JUMP JUMPDEST ADD MLOAD PUSH1 0x0 NOT PUSH1 0xF8 DUP5 PUSH1 0x3 SHL AND SHR NOT AND SWAP1 SSTORE CODESIZE DUP1 DUP1 PUSH3 0x1E7 JUMP JUMPDEST DUP1 DUP9 DUP6 SWAP7 DUP3 SWAP5 SWAP7 DUP7 ADD MLOAD DUP2 SSTORE ADD SWAP6 ADD SWAP4 ADD SWAP1 PUSH3 0x1CF JUMP JUMPDEST DUP7 DUP9 MSTORE DUP3 DUP9 KECCAK256 DUP5 DUP1 DUP8 ADD PUSH1 0x5 SHR DUP3 ADD SWAP3 DUP6 DUP9 LT PUSH3 0x265 JUMPI JUMPDEST ADD PUSH1 0x5 SHR ADD SWAP1 DUP8 SWAP1 JUMPDEST DUP3 DUP2 LT PUSH3 0x259 JUMPI POP POP PUSH3 0x113 JUMP JUMPDEST DUP10 DUP2 SSTORE ADD DUP8 SWAP1 PUSH3 0x249 JUMP JUMPDEST SWAP3 POP DUP2 SWAP3 PUSH3 0x240 JUMP JUMPDEST PUSH4 0x4E487B71 PUSH1 0xE0 SHL DUP9 MSTORE PUSH1 0x22 PUSH1 0x4 MSTORE PUSH1 0x24 DUP9 REVERT JUMPDEST SWAP1 PUSH1 0x7F AND SWAP1 PUSH3 0x101 JUMP JUMPDEST PUSH4 0x4E487B71 PUSH1 0xE0 SHL DUP8 MSTORE PUSH1 0x41 PUSH1 0x4 MSTORE PUSH1 0x24 DUP8 REVERT JUMPDEST ADD MLOAD SWAP1 POP CODESIZE DUP1 PUSH3 0xD3 JUMP JUMPDEST SWAP1 DUP5 DUP11 SWAP5 AND SWAP2 DUP12 DUP1 MSTORE DUP7 DUP13 KECCAK256 SWAP3 DUP13 JUMPDEST DUP9 DUP3 DUP3 LT PUSH3 0x2F8 JUMPI POP POP DUP5 GT PUSH3 0x2DE JUMPI JUMPDEST POP POP POP DUP2 SHL ADD DUP8 SSTORE PUSH3 0xE7 JUMP JUMPDEST ADD MLOAD PUSH1 0x0 NOT PUSH1 0xF8 DUP5 PUSH1 0x3 SHL AND SHR NOT AND SWAP1 SSTORE CODESIZE DUP1 DUP1 PUSH3 0x2D0 JUMP JUMPDEST DUP4 DUP6 ADD MLOAD DUP7 SSTORE DUP14 SWAP8 SWAP1 SWAP6 ADD SWAP5 SWAP4 DUP5 ADD SWAP4 ADD PUSH3 0x2BD JUMP JUMPDEST SWAP1 SWAP2 POP DUP10 DUP1 MSTORE DUP5 DUP11 KECCAK256 DUP7 DUP1 DUP6 ADD PUSH1 0x5 SHR DUP3 ADD SWAP3 DUP8 DUP7 LT PUSH3 0x358 JUMPI JUMPDEST SWAP2 DUP12 SWAP2 DUP7 SWAP6 SWAP5 SWAP4 ADD PUSH1 0x5 SHR ADD SWAP2 JUMPDEST DUP3 DUP2 LT PUSH3 0x349 JUMPI POP POP PUSH3 0xBD JUMP JUMPDEST DUP13 DUP2 SSTORE DUP6 SWAP5 POP DUP12 SWAP2 ADD PUSH3 0x339 JUMP JUMPDEST SWAP3 POP DUP2 SWAP3 PUSH3 0x32B JUMP JUMPDEST PUSH4 0x4E487B71 PUSH1 0xE0 SHL DUP11 MSTORE PUSH1 0x22 PUSH1 0x4 MSTORE PUSH1 0x24 DUP11 REVERT JUMPDEST SWAP1 PUSH1 0x7F AND SWAP1 PUSH3 0xA8 JUMP JUMPDEST PUSH4 0x4E487B71 PUSH1 0xE0 SHL PUSH1 0x0 MSTORE PUSH1 0x41 PUSH1 0x4 MSTORE PUSH1 0x24 PUSH1 0x0 REVERT JUMPDEST PUSH1 0x0 DUP1 REVERT JUMPDEST PUSH1 0x40 DUP1 MLOAD SWAP2 SWAP1 DUP3 ADD PUSH1 0x1 PUSH1 0x1 PUSH1 0x40 SHL SUB DUP2 GT DUP4 DUP3 LT OR PUSH3 0x381 JUMPI PUSH1 0x40 MSTORE JUMP INVALID PUSH1 0x80 DUP1 PUSH1 0x40 MSTORE PUSH1 0x4 CALLDATASIZE LT ISZERO PUSH2 0x13 JUMPI PUSH1 0x0 DUP1 REVERT JUMPDEST PUSH1 0x0 SWAP1 DUP2 CALLDATALOAD PUSH1 0xE0 SHR SWAP1 DUP2 PUSH4 0x18C7F9E EQ PUSH2 0x27F7 JUMPI POP DUP1 PUSH4 0x1FFC9A7 EQ PUSH2 0x276E JUMPI DUP1 PUSH4 0x426657C EQ PUSH2 0x26DE JUMPI DUP1 PUSH4 0x6FDDE03 EQ PUSH2 0x263A JUMPI DUP1 PUSH4 0x73C9C81 EQ PUSH2 0x261C JUMPI DUP1 PUSH4 0x81812FC EQ PUSH2 0x25FD JUMPI DUP1 PUSH4 0x95EA7B3 EQ PUSH2 0x2488 JUMPI DUP1 PUSH4 0x18160DDD EQ PUSH2 0x246A JUMPI DUP1 PUSH4 0x23B872DD EQ PUSH2 0x2445 JUMPI DUP1 PUSH4 0x2DE3E04F EQ PUSH2 0x2121 JUMPI DUP1 PUSH4 0x2ED6D5E8 EQ PUSH2 0x1FF6 JUMPI DUP1 PUSH4 0x2F745C59 EQ PUSH2 0x1F49 JUMPI DUP1 PUSH4 0x36F4FB02 EQ PUSH2 0x1E00 JUMPI DUP1 PUSH4 0x3B97E856 EQ PUSH2 0x1DDF JUMPI DUP1 PUSH4 0x3CCFD60B EQ PUSH2 0x1D23 JUMPI DUP1 PUSH4 0x42842E0E EQ PUSH2 0x1CF0 JUMPI DUP1 PUSH4 0x4F6CCCE7 EQ PUSH2 0x1C5E JUMPI DUP1 PUSH4 0x4FF0876A EQ PUSH2 0x1C40 JUMPI DUP1 PUSH4 0x51450056 EQ PUSH2 0x1B90 JUMPI DUP1 PUSH4 0x5C842848 EQ PUSH2 0x1AD6 JUMPI DUP1 PUSH4 0x60E4C393 EQ PUSH2 0x1AAD JUMPI DUP1 PUSH4 0x6352211E EQ PUSH2 0x1A7C JUMPI DUP1 PUSH4 0x6727B150 EQ PUSH2 0x1A53 JUMPI DUP1 PUSH4 0x6817C76C EQ PUSH2 0x1A35 JUMPI DUP1 PUSH4 0x691C7836 EQ PUSH2 0x159B JUMPI DUP1 PUSH4 0x70A08231 EQ PUSH2 0x156F JUMPI DUP1 PUSH4 0x715018A6 EQ PUSH2 0x1512 JUMPI DUP1 PUSH4 0x75794A3C EQ PUSH2 0x14F4 JUMPI DUP1 PUSH4 0x76FE7CB5 EQ PUSH2 0x14D6 JUMPI DUP1 PUSH4 0x8A13EEA7 EQ PUSH2 0x14AD JUMPI DUP1 PUSH4 0x8DA5CB5B EQ PUSH2 0x1484 JUMPI DUP1 PUSH4 0x90EDBFEE EQ PUSH2 0x13F3 JUMPI DUP1 PUSH4 0x95D89B41 EQ PUSH2 0x1310 JUMPI DUP1 PUSH4 0x9B006001 EQ PUSH2 0x118A JUMPI DUP1 PUSH4 0xA1794BCD EQ PUSH2 0x1161 JUMPI DUP1 PUSH4 0xA22CB465 EQ PUSH2 0x1084 JUMPI DUP1 PUSH4 0xA563EF2C EQ PUSH2 0xFF4 JUMPI DUP1 PUSH4 0xB88D4FDE EQ PUSH2 0xF6C JUMPI DUP1 PUSH4 0xC87B56DD EQ PUSH2 0xEFA JUMPI DUP1 PUSH4 0xD5ABEB01 EQ PUSH2 0xEDC JUMPI DUP1 PUSH4 0xDE562487 EQ PUSH2 0xDCE JUMPI DUP1 PUSH4 0xE985E9C5 EQ PUSH2 0xD7E JUMPI DUP1 PUSH4 0xF26748E2 EQ PUSH2 0x404 JUMPI DUP1 PUSH4 0xF2FDE38B EQ PUSH2 0x33E JUMPI DUP1 PUSH4 0xF4A0A528 EQ PUSH2 0x31B JUMPI PUSH4 0xF85EA2AB EQ PUSH2 0x21B JUMPI PUSH1 0x0 DUP1 REVERT JUMPDEST CALLVALUE PUSH2 0x318 JUMPI PUSH1 0x20 CALLDATASIZE PUSH1 0x3 NOT ADD SLT PUSH2 0x318 JUMPI PUSH2 0x234 PUSH2 0x2BAA JUMP JUMPDEST PUSH2 0x23C PUSH2 0x2D67 JUMP JUMPDEST PUSH1 0x1 PUSH1 0x1 PUSH1 0xA0 SHL SUB SWAP1 DUP2 AND SWAP1 DUP2 ISZERO PUSH2 0x2D3 JUMPI PUSH1 0xF SLOAD SWAP1 DUP2 AND PUSH2 0x28E JUMPI PUSH1 0x1 PUSH1 0x1 PUSH1 0xA0 SHL SUB NOT AND DUP2 OR PUSH1 0xF SSTORE PUSH32 0xB707EBC7426CA1A0097189565FAB1383FA2BFD226132FB5573651AE72A02B208 DUP3 DUP1 LOG2 DUP1 RETURN JUMPDEST PUSH1 0x40 MLOAD PUSH3 0x461BCD PUSH1 0xE5 SHL DUP2 MSTORE PUSH1 0x20 PUSH1 0x4 DUP3 ADD MSTORE PUSH1 0x1A PUSH1 0x24 DUP3 ADD MSTORE PUSH32 0x4D61726B6574436F6E747261637420616C726561647920736574000000000000 PUSH1 0x44 DUP3 ADD MSTORE PUSH1 0x64 SWAP1 REVERT JUMPDEST PUSH1 0x40 MLOAD PUSH3 0x461BCD PUSH1 0xE5 SHL DUP2 MSTORE PUSH1 0x20 PUSH1 0x4 DUP3 ADD MSTORE PUSH1 0x1E PUSH1 0x24 DUP3 ADD MSTORE PUSH32 0x496E76616C6964204D61726B6574436F6E747261637420616464726573730000 PUSH1 0x44 DUP3 ADD MSTORE PUSH1 0x64 SWAP1 REVERT JUMPDEST DUP1 REVERT JUMPDEST POP CALLVALUE PUSH2 0x318 JUMPI PUSH1 0x20 CALLDATASIZE PUSH1 0x3 NOT ADD SLT PUSH2 0x318 JUMPI PUSH2 0x335 PUSH2 0x2D67 JUMP JUMPDEST PUSH1 0x4 CALLDATALOAD PUSH1 0x11 SSTORE DUP1 RETURN JUMPDEST POP CALLVALUE PUSH2 0x318 JUMPI PUSH1 0x20 CALLDATASIZE PUSH1 0x3 NOT ADD SLT PUSH2 0x318 JUMPI PUSH2 0x358 PUSH2 0x2BAA JUMP JUMPDEST PUSH2 0x360 PUSH2 0x2D67 JUMP JUMPDEST PUSH1 0x1 PUSH1 0x1 PUSH1 0xA0 SHL SUB SWAP1 DUP2 AND SWAP1 DUP2 ISZERO PUSH2 0x3B0 JUMPI PUSH1 0xA SLOAD DUP3 PUSH1 0x1 PUSH1 0x1 PUSH1 0x60 SHL SUB PUSH1 0xA0 SHL DUP3 AND OR PUSH1 0xA SSTORE AND PUSH32 0x8BE0079C531659141344CD1FD0A4F28419497F9722A3DAAFE3B4186F6B6457E0 PUSH1 0x0 DUP1 LOG3 DUP1 RETURN JUMPDEST PUSH1 0x40 MLOAD PUSH3 0x461BCD PUSH1 0xE5 SHL DUP2 MSTORE PUSH1 0x20 PUSH1 0x4 DUP3 ADD MSTORE PUSH1 0x26 PUSH1 0x24 DUP3 ADD MSTORE PUSH32 0x4F776E61626C653A206E6577206F776E657220697320746865207A65726F2061 PUSH1 0x44 DUP3 ADD MSTORE PUSH6 0x646472657373 PUSH1 0xD0 SHL PUSH1 0x64 DUP3 ADD MSTORE PUSH1 0x84 SWAP1 REVERT JUMPDEST POP PUSH1 0x40 CALLDATASIZE PUSH1 0x3 NOT ADD SLT PUSH2 0x318 JUMPI PUSH1 0x4 CALLDATALOAD PUSH1 0x2 DUP2 LT ISZERO PUSH2 0xD7A JUMPI PUSH2 0x425 PUSH2 0x399E JUMP JUMPDEST PUSH1 0x11 SLOAD CALLVALUE LT PUSH2 0xD3E JUMPI PUSH1 0xE SLOAD PUSH1 0x1 PUSH1 0x1 PUSH1 0xA0 SHL SUB AND ISZERO PUSH2 0xD03 JUMPI PUSH1 0x10 SLOAD PUSH1 0x13 SLOAD DUP2 GT PUSH2 0xCC5 JUMPI PUSH1 0x1 DUP2 ADD DUP1 DUP3 GT PUSH2 0xCB1 JUMPI PUSH1 0x10 SSTORE PUSH1 0x40 MLOAD PUSH2 0x465 DUP2 PUSH2 0x2C78 JUMP JUMPDEST DUP4 DUP2 MSTORE CALLER ISZERO PUSH2 0xC6D JUMPI PUSH1 0x0 DUP3 DUP2 MSTORE PUSH1 0x2 PUSH1 0x20 MSTORE PUSH1 0x40 SWAP1 KECCAK256 SLOAD PUSH2 0x493 SWAP1 PUSH1 0x1 PUSH1 0x1 PUSH1 0xA0 SHL SUB AND ISZERO ISZERO JUMPDEST ISZERO PUSH2 0x39F4 JUMP JUMPDEST PUSH1 0x8 SLOAD DUP3 DUP6 MSTORE PUSH1 0x9 PUSH1 0x20 MSTORE DUP1 PUSH1 0x40 DUP7 KECCAK256 SSTORE PUSH1 0x1 PUSH1 0x40 SHL DUP2 LT ISZERO PUSH2 0xC59 JUMPI PUSH2 0x598 SWAP2 PUSH2 0x4E4 DUP5 PUSH2 0x4CB DUP5 PUSH1 0x1 PUSH2 0x593 SWAP7 ADD PUSH1 0x8 SSTORE PUSH2 0x3538 JUMP JUMPDEST SWAP1 SWAP2 SWAP1 DUP3 SLOAD SWAP1 PUSH1 0x3 SHL SWAP2 DUP3 SHL SWAP2 PUSH1 0x0 NOT SWAP1 SHL NOT AND OR SWAP1 SSTORE JUMP JUMPDEST PUSH2 0x4ED CALLER PUSH2 0x2DBF JUMP JUMPDEST CALLER DUP8 MSTORE PUSH1 0x6 PUSH1 0x20 MSTORE PUSH1 0x40 DUP8 KECCAK256 DUP2 DUP9 MSTORE PUSH1 0x20 MSTORE DUP5 PUSH1 0x40 DUP9 KECCAK256 SSTORE DUP5 DUP8 MSTORE PUSH1 0x7 PUSH1 0x20 MSTORE PUSH1 0x40 DUP8 KECCAK256 SSTORE PUSH2 0x534 PUSH2 0x48D DUP6 PUSH1 0x0 MSTORE PUSH1 0x2 PUSH1 0x20 MSTORE PUSH1 0x1 DUP1 PUSH1 0xA0 SHL SUB PUSH1 0x40 PUSH1 0x0 KECCAK256 SLOAD AND ISZERO ISZERO SWAP1 JUMP JUMPDEST CALLER DUP7 MSTORE PUSH1 0x3 PUSH1 0x20 MSTORE PUSH1 0x40 DUP7 KECCAK256 PUSH1 0x1 DUP2 SLOAD ADD SWAP1 SSTORE DUP4 DUP7 MSTORE PUSH1 0x2 PUSH1 0x20 MSTORE PUSH1 0x40 DUP7 KECCAK256 CALLER PUSH1 0x1 PUSH1 0x1 PUSH1 0x60 SHL SUB PUSH1 0xA0 SHL DUP3 SLOAD AND OR SWAP1 SSTORE DUP4 CALLER DUP8 PUSH32 0xDDF252AD1BE2C89B69C2B068FC378DAA952BA7F163C4A11628F55A4DF523B3EF DUP2 DUP1 LOG4 DUP4 CALLER PUSH2 0x33C9 JUMP JUMPDEST PUSH2 0x306B JUMP JUMPDEST DUP1 DUP4 MSTORE PUSH1 0x17 PUSH1 0x20 MSTORE PUSH1 0x40 DUP4 KECCAK256 PUSH1 0x64 DUP2 SSTORE PUSH1 0x1 DUP2 ADD PUSH1 0x32 DUP2 SSTORE PUSH1 0x2 DUP3 ADD SWAP4 PUSH1 0x32 DUP6 SSTORE PUSH1 0xA PUSH1 0x3 DUP5 ADD SSTORE PUSH1 0x4 DUP4 ADD SWAP4 PUSH1 0xA DUP6 SSTORE DUP7 PUSH1 0x5 DUP6 ADD SWAP3 PUSH1 0xA DUP5 SSTORE PUSH1 0x40 MLOAD PUSH2 0x5DF DUP2 PUSH2 0x2C42 JUMP JUMPDEST PUSH2 0x1F4 DUP1 DUP3 MSTORE PUSH1 0xFA PUSH1 0xA0 PUSH2 0x12C SWAP4 DUP5 PUSH1 0x20 DUP3 ADD MSTORE PUSH1 0xC8 PUSH1 0x40 DUP3 ADD MSTORE PUSH1 0x64 PUSH1 0x60 DUP3 ADD MSTORE PUSH1 0x64 PUSH1 0x80 DUP3 ADD MSTORE ADD MSTORE PUSH1 0x8 DUP9 ADD SSTORE PUSH1 0x9 DUP8 ADD SSTORE PUSH1 0xC8 PUSH1 0xA DUP8 ADD SSTORE PUSH1 0x64 PUSH1 0xB DUP8 ADD SSTORE PUSH1 0x64 PUSH1 0xC DUP8 ADD SSTORE PUSH1 0xFA PUSH1 0xD DUP8 ADD SSTORE TIMESTAMP PUSH1 0xE DUP8 ADD SSTORE PUSH1 0x1 DUP2 EQ PUSH1 0x0 EQ PUSH2 0xBA0 JUMPI POP POP PUSH1 0x24 CALLDATALOAD CALLER PUSH1 0x1 PUSH1 0x1 PUSH1 0xA0 SHL SUB PUSH2 0x658 DUP4 PUSH2 0x2E82 JUMP JUMPDEST AND SUB PUSH2 0xB50 JUMPI PUSH1 0x1 DUP1 PUSH1 0xA0 SHL SUB PUSH1 0xE SLOAD AND SWAP1 PUSH1 0x40 MLOAD SWAP1 PUSH4 0x3C7C604F PUSH1 0xE0 SHL DUP3 MSTORE PUSH1 0x4 DUP3 ADD MSTORE PUSH1 0x40 DUP2 PUSH1 0x24 DUP2 DUP6 GAS STATICCALL DUP1 ISZERO PUSH2 0xB14 JUMPI DUP10 SWAP2 DUP11 SWAP2 PUSH2 0xB1F JUMPI JUMPDEST POP PUSH1 0x40 MLOAD SWAP2 PUSH4 0x72013ED3 PUSH1 0xE1 SHL DUP4 MSTORE PUSH1 0x4 DUP4 ADD MSTORE PUSH1 0x24 DUP3 ADD MSTORE DUP9 DUP2 PUSH1 0x44 DUP2 DUP6 GAS STATICCALL SWAP1 DUP2 ISZERO PUSH2 0xB14 JUMPI DUP10 SWAP2 PUSH2 0xA0C JUMPI JUMPDEST POP DUP1 MLOAD ISZERO PUSH2 0x9BD JUMPI DUP1 MLOAD ISZERO PUSH2 0x9A9 JUMPI SWAP1 PUSH1 0x20 DUP10 SWAP6 SWAP5 SWAP4 SWAP3 ADD MLOAD SWAP1 DUP2 MLOAD PUSH1 0x20 DUP4 ADD MLOAD DUP3 EXTCODESIZE ISZERO PUSH2 0x9A5 JUMPI PUSH1 0x40 MLOAD PUSH4 0x478935D3 PUSH1 0xE0 SHL DUP2 MSTORE PUSH1 0x4 DUP2 ADD DUP7 SWAP1 MSTORE PUSH1 0x24 DUP2 ADD SWAP3 SWAP1 SWAP3 MSTORE PUSH1 0x44 DUP3 ADD MSTORE SWAP1 DUP7 SWAP1 DUP3 SWAP1 PUSH1 0x64 SWAP1 DUP3 SWAP1 DUP5 SWAP1 GAS CALL DUP1 ISZERO PUSH2 0x99A JUMPI PUSH2 0x94A JUMPI JUMPDEST POP DUP1 MLOAD PUSH1 0x20 SWAP2 DUP3 ADD MLOAD PUSH1 0x40 DUP1 MLOAD SWAP5 DUP6 MSTORE SWAP3 DUP5 ADD SWAP2 SWAP1 SWAP2 MSTORE SWAP1 DUP3 ADD MSTORE PUSH1 0x84 SWAP5 SWAP4 SWAP3 SWAP2 SWAP1 CALLER SWAP1 PUSH32 0x8436F10F9012A01D1C3BB5D6DD9014DA60DD826366249F20010F63BC881BEA82 SWAP1 PUSH1 0x60 SWAP1 LOG2 JUMPDEST PUSH1 0x40 MLOAD SWAP2 PUSH2 0x77E DUP4 PUSH2 0x2C5D JUMP JUMPDEST PUSH2 0x7BB PUSH1 0x6 PUSH1 0x40 MLOAD SWAP7 PUSH2 0x790 DUP9 PUSH2 0x2C93 JUMP JUMPDEST PUSH1 0x4 DUP9 MSTORE PUSH4 0x4661726D PUSH1 0xE0 SHL SWAP8 DUP9 PUSH1 0x20 DUP3 ADD MSTORE DUP7 MSTORE PUSH1 0x1 PUSH1 0x20 DUP8 ADD MSTORE PUSH1 0x1 PUSH1 0x40 DUP8 ADD MSTORE ADD SWAP4 DUP5 PUSH2 0x36BD JUMP JUMPDEST PUSH2 0x806 PUSH1 0x40 MLOAD PUSH2 0x7CA DUP2 PUSH2 0x2C5D JUMP JUMPDEST PUSH1 0x40 MLOAD SWAP5 PUSH2 0x7D7 DUP7 PUSH2 0x2C93 JUMP JUMPDEST PUSH1 0xB DUP7 MSTORE PUSH11 0x4D61726B6574706C616365 PUSH1 0xA8 SHL SWAP6 DUP7 PUSH1 0x20 DUP3 ADD MSTORE DUP3 MSTORE PUSH1 0x1 PUSH1 0x20 DUP4 ADD MSTORE PUSH1 0x1 PUSH1 0x40 DUP4 ADD MSTORE PUSH2 0x36BD JUMP JUMPDEST DUP4 PUSH1 0x1 DUP1 PUSH1 0xA0 SHL SUB PUSH1 0xD SLOAD AND PUSH1 0x40 MLOAD SWAP8 DUP9 DUP1 SWAP3 PUSH4 0x244D87AD PUSH1 0xE1 SHL SWAP10 DUP11 DUP4 MSTORE PUSH1 0x40 PUSH1 0x4 DUP5 ADD MSTORE PUSH1 0x4 PUSH1 0x44 DUP5 ADD MSTORE PUSH1 0x64 DUP4 ADD MSTORE PUSH1 0x1 PUSH1 0x24 DUP4 ADD MSTORE GAS STATICCALL SWAP6 DUP7 ISZERO PUSH2 0x93F JUMPI DUP5 SWAP7 PUSH2 0x923 JUMPI JUMPDEST POP PUSH2 0x85F PUSH1 0x80 DUP8 ADD MLOAD DUP3 SLOAD PUSH2 0x35F5 JUMP JUMPDEST SWAP1 SSTORE PUSH2 0x883 PUSH2 0x100 PUSH2 0x876 PUSH1 0xA0 DUP9 ADD MLOAD DUP11 SLOAD PUSH2 0x35F5 JUMP JUMPDEST SWAP7 DUP8 DUP11 SSTORE ADD MLOAD DUP3 SLOAD PUSH2 0x35F5 JUMP JUMPDEST SWAP1 SSTORE PUSH1 0xD SLOAD PUSH1 0x40 DUP1 MLOAD SWAP5 DUP6 MSTORE PUSH1 0x4 DUP6 ADD MSTORE PUSH1 0xB PUSH1 0x44 DUP6 ADD MSTORE PUSH1 0x64 DUP5 ADD SWAP2 SWAP1 SWAP2 MSTORE PUSH1 0x1 PUSH1 0x24 DUP5 ADD MSTORE DUP3 SWAP1 PUSH1 0x84 SWAP1 DUP3 SWAP1 PUSH1 0x1 PUSH1 0x1 PUSH1 0xA0 SHL SUB AND GAS STATICCALL DUP1 ISZERO PUSH2 0x918 JUMPI PUSH2 0x8EA SWAP4 PUSH1 0xA0 SWAP3 DUP8 SWAP3 PUSH2 0x8F4 JUMPI JUMPDEST POP PUSH2 0x8E0 PUSH1 0xE0 DUP4 ADD MLOAD DUP3 SLOAD PUSH2 0x35F5 JUMP JUMPDEST SWAP1 SSTORE ADD MLOAD SWAP1 PUSH2 0x35F5 JUMP JUMPDEST SWAP1 SSTORE PUSH1 0x1 PUSH1 0xB SSTORE DUP1 RETURN JUMPDEST PUSH2 0x911 SWAP2 SWAP3 POP RETURNDATASIZE DUP1 DUP10 DUP4 RETURNDATACOPY PUSH2 0x909 DUP2 DUP4 PUSH2 0x2CAE JUMP JUMPDEST DUP2 ADD SWAP1 PUSH2 0x388D JUMP JUMPDEST SWAP1 CODESIZE PUSH2 0x8D0 JUMP JUMPDEST PUSH1 0x40 MLOAD RETURNDATASIZE DUP8 DUP3 RETURNDATACOPY RETURNDATASIZE SWAP1 REVERT JUMPDEST PUSH2 0x938 SWAP2 SWAP7 POP RETURNDATASIZE DUP1 DUP7 DUP4 RETURNDATACOPY PUSH2 0x909 DUP2 DUP4 PUSH2 0x2CAE JUMP JUMPDEST SWAP5 CODESIZE PUSH2 0x84F JUMP JUMPDEST PUSH1 0x40 MLOAD RETURNDATASIZE DUP7 DUP3 RETURNDATACOPY RETURNDATASIZE SWAP1 REVERT JUMPDEST SWAP1 SWAP5 POP PUSH1 0x1 PUSH1 0x1 PUSH1 0x40 SHL SUB DUP2 GT PUSH2 0x986 JUMPI PUSH1 0x40 MSTORE DUP8 SWAP4 PUSH32 0x8436F10F9012A01D1C3BB5D6DD9014DA60DD826366249F20010F63BC881BEA82 PUSH2 0x726 JUMP JUMPDEST PUSH4 0x4E487B71 PUSH1 0xE0 SHL DUP10 MSTORE PUSH1 0x41 PUSH1 0x4 MSTORE PUSH1 0x24 DUP10 REVERT JUMPDEST PUSH1 0x40 MLOAD RETURNDATASIZE DUP9 DUP3 RETURNDATACOPY RETURNDATASIZE SWAP1 REVERT JUMPDEST DUP8 DUP1 REVERT JUMPDEST PUSH4 0x4E487B71 PUSH1 0xE0 SHL DUP10 MSTORE PUSH1 0x32 PUSH1 0x4 MSTORE PUSH1 0x24 DUP10 REVERT JUMPDEST PUSH1 0x40 MLOAD PUSH3 0x461BCD PUSH1 0xE5 SHL DUP2 MSTORE PUSH1 0x20 PUSH1 0x4 DUP3 ADD MSTORE PUSH1 0x21 PUSH1 0x24 DUP3 ADD MSTORE PUSH32 0x4E6F2061646A6163656E7420636F6F7264696E6174657320617661696C61626C PUSH1 0x44 DUP3 ADD MSTORE PUSH1 0x65 PUSH1 0xF8 SHL PUSH1 0x64 DUP3 ADD MSTORE PUSH1 0x84 SWAP1 REVERT JUMPDEST SWAP1 POP RETURNDATASIZE DUP1 DUP11 DUP4 RETURNDATACOPY PUSH2 0xA1D DUP2 DUP4 PUSH2 0x2CAE JUMP JUMPDEST PUSH1 0x20 DUP3 DUP3 DUP2 ADD SUB SLT PUSH2 0xB10 JUMPI DUP2 MLOAD SWAP1 PUSH1 0x1 PUSH1 0x1 PUSH1 0x40 SHL SUB DUP3 GT PUSH2 0xB0C JUMPI DUP1 DUP4 ADD PUSH1 0x1F DUP4 DUP6 ADD ADD SLT ISZERO PUSH2 0xB0C JUMPI DUP2 DUP4 ADD MLOAD SWAP1 PUSH2 0xA57 DUP3 PUSH2 0x3618 JUMP JUMPDEST SWAP4 PUSH2 0xA65 PUSH1 0x40 MLOAD SWAP6 DUP7 PUSH2 0x2CAE JUMP JUMPDEST DUP3 DUP6 MSTORE PUSH1 0x20 DUP6 ADD SWAP4 DUP3 DUP3 ADD PUSH1 0x20 DUP6 PUSH1 0x6 SHL DUP4 DUP6 ADD ADD ADD GT PUSH2 0xB08 JUMPI PUSH1 0x20 DUP2 DUP4 ADD ADD SWAP5 JUMPDEST PUSH1 0x20 DUP6 PUSH1 0x6 SHL DUP4 DUP6 ADD ADD ADD DUP7 LT PUSH2 0xAA5 JUMPI POP POP POP POP POP POP CODESIZE PUSH2 0x6C4 JUMP JUMPDEST PUSH1 0x40 DUP7 DUP6 DUP6 ADD SUB SLT PUSH2 0xB04 JUMPI PUSH1 0x40 MLOAD DUP1 PUSH1 0x40 DUP2 ADD LT PUSH1 0x1 PUSH1 0x1 PUSH1 0x40 SHL SUB PUSH1 0x40 DUP4 ADD GT OR PUSH2 0xAEF JUMPI PUSH1 0x40 DUP1 DUP3 ADD DUP2 MSTORE DUP8 MLOAD DUP3 MSTORE PUSH1 0x20 DUP9 DUP2 ADD MLOAD DUP4 DUP3 ADD MSTORE SWAP2 DUP4 MSTORE SWAP7 SWAP1 SWAP7 ADD SWAP6 ADD PUSH2 0xA88 JUMP JUMPDEST POP PUSH4 0x4E487B71 PUSH1 0xE0 SHL DUP16 MSTORE PUSH1 0x41 PUSH1 0x4 MSTORE PUSH1 0x24 DUP16 REVERT JUMPDEST DUP15 DUP1 REVERT JUMPDEST DUP14 DUP1 REVERT JUMPDEST DUP11 DUP1 REVERT JUMPDEST DUP10 DUP1 REVERT JUMPDEST PUSH1 0x40 MLOAD RETURNDATASIZE DUP12 DUP3 RETURNDATACOPY RETURNDATASIZE SWAP1 REVERT JUMPDEST SWAP1 POP PUSH2 0xB43 SWAP2 POP PUSH1 0x40 RETURNDATASIZE PUSH1 0x40 GT PUSH2 0xB49 JUMPI JUMPDEST PUSH2 0xB3B DUP2 DUP4 PUSH2 0x2CAE JUMP JUMPDEST DUP2 ADD SWAP1 PUSH2 0x3602 JUMP JUMPDEST CODESIZE PUSH2 0x695 JUMP JUMPDEST POP RETURNDATASIZE PUSH2 0xB31 JUMP JUMPDEST PUSH1 0x40 MLOAD PUSH3 0x461BCD PUSH1 0xE5 SHL DUP2 MSTORE PUSH1 0x20 PUSH1 0x4 DUP3 ADD MSTORE PUSH1 0x22 PUSH1 0x24 DUP3 ADD MSTORE PUSH32 0x4E6F7420746865206F776E6572206F6620746865206578697374696E67206C61 PUSH1 0x44 DUP3 ADD MSTORE PUSH2 0x1B99 PUSH1 0xF2 SHL PUSH1 0x64 DUP3 ADD MSTORE PUSH1 0x84 SWAP1 REVERT JUMPDEST SWAP5 SWAP4 SWAP2 SWAP5 SWAP3 SWAP1 SWAP3 ISZERO PUSH2 0xBB6 JUMPI JUMPDEST PUSH1 0x84 SWAP5 POP PUSH2 0x771 JUMP JUMPDEST PUSH1 0xE SLOAD PUSH1 0x40 DUP1 MLOAD PUSH4 0x1039F59D PUSH1 0xE0 SHL DUP2 MSTORE PUSH1 0x4 DUP2 ADD DUP9 SWAP1 MSTORE SWAP7 SWAP2 DUP8 SWAP1 PUSH1 0x24 SWAP1 DUP3 SWAP1 DUP9 SWAP1 PUSH1 0x1 PUSH1 0x1 PUSH1 0xA0 SHL SUB AND GAS CALL SWAP6 DUP7 ISZERO PUSH2 0x93F JUMPI PUSH1 0x84 SWAP7 PUSH32 0x8436F10F9012A01D1C3BB5D6DD9014DA60DD826366249F20010F63BC881BEA82 SWAP2 DUP7 SWAP1 DUP8 SWAP3 PUSH2 0xC37 JUMPI JUMPDEST POP PUSH1 0x40 DUP1 MLOAD SWAP5 DUP6 MSTORE PUSH1 0x20 DUP6 ADD SWAP2 SWAP1 SWAP2 MSTORE DUP4 ADD MSTORE CALLER SWAP2 PUSH1 0x60 SWAP1 LOG2 PUSH2 0xBAD JUMP JUMPDEST SWAP1 POP PUSH2 0xC52 SWAP2 POP PUSH1 0x40 RETURNDATASIZE PUSH1 0x40 GT PUSH2 0xB49 JUMPI PUSH2 0xB3B DUP2 DUP4 PUSH2 0x2CAE JUMP JUMPDEST SWAP1 CODESIZE PUSH2 0xC19 JUMP JUMPDEST PUSH4 0x4E487B71 PUSH1 0xE0 SHL DUP6 MSTORE PUSH1 0x41 PUSH1 0x4 MSTORE PUSH1 0x24 DUP6 REVERT JUMPDEST PUSH1 0x64 PUSH1 0x40 MLOAD PUSH3 0x461BCD PUSH1 0xE5 SHL DUP2 MSTORE PUSH1 0x20 PUSH1 0x4 DUP3 ADD MSTORE PUSH1 0x20 PUSH1 0x24 DUP3 ADD MSTORE PUSH32 0x4552433732313A206D696E7420746F20746865207A65726F2061646472657373 PUSH1 0x44 DUP3 ADD MSTORE REVERT JUMPDEST PUSH4 0x4E487B71 PUSH1 0xE0 SHL DUP5 MSTORE PUSH1 0x11 PUSH1 0x4 MSTORE PUSH1 0x24 DUP5 REVERT JUMPDEST PUSH1 0x40 MLOAD PUSH3 0x461BCD PUSH1 0xE5 SHL DUP2 MSTORE PUSH1 0x20 PUSH1 0x4 DUP3 ADD MSTORE PUSH1 0x16 PUSH1 0x24 DUP3 ADD MSTORE PUSH22 0x13585E1A5B5D5B481CDD5C1C1B1E481C995858DA1959 PUSH1 0x52 SHL PUSH1 0x44 DUP3 ADD MSTORE PUSH1 0x64 SWAP1 REVERT JUMPDEST PUSH1 0x40 MLOAD PUSH3 0x461BCD PUSH1 0xE5 SHL DUP2 MSTORE PUSH1 0x20 PUSH1 0x4 DUP3 ADD MSTORE PUSH1 0x13 PUSH1 0x24 DUP3 ADD MSTORE PUSH19 0x13585C10DBDB9D1C9858DD081B9BDD081CD95D PUSH1 0x6A SHL PUSH1 0x44 DUP3 ADD MSTORE PUSH1 0x64 SWAP1 REVERT JUMPDEST PUSH1 0x40 MLOAD PUSH3 0x461BCD PUSH1 0xE5 SHL DUP2 MSTORE PUSH1 0x20 PUSH1 0x4 DUP3 ADD MSTORE PUSH1 0x14 PUSH1 0x24 DUP3 ADD MSTORE PUSH20 0x125B9CDD59999A58DA595B9D081C185E5B595B9D PUSH1 0x62 SHL PUSH1 0x44 DUP3 ADD MSTORE PUSH1 0x64 SWAP1 REVERT JUMPDEST POP DUP1 REVERT JUMPDEST POP CALLVALUE PUSH2 0x318 JUMPI PUSH1 0x40 CALLDATASIZE PUSH1 0x3 NOT ADD SLT PUSH2 0x318 JUMPI PUSH1 0xFF PUSH1 0x40 PUSH1 0x20 SWAP3 PUSH2 0xD9F PUSH2 0x2BAA JUMP JUMPDEST PUSH2 0xDA7 PUSH2 0x2BC5 JUMP JUMPDEST PUSH1 0x1 PUSH1 0x1 PUSH1 0xA0 SHL SUB SWAP2 DUP3 AND DUP4 MSTORE PUSH1 0x5 DUP7 MSTORE DUP4 DUP4 KECCAK256 SWAP2 AND DUP3 MSTORE DUP5 MSTORE KECCAK256 SLOAD PUSH1 0x40 MLOAD SWAP2 AND ISZERO ISZERO DUP2 MSTORE RETURN JUMPDEST POP CALLVALUE PUSH2 0x318 JUMPI PUSH1 0x20 DUP1 PUSH1 0x3 NOT CALLDATASIZE ADD SLT PUSH2 0xD7A JUMPI PUSH2 0xDE9 PUSH2 0x2BAA JUMP JUMPDEST PUSH2 0xDF1 PUSH2 0x2D67 JUMP JUMPDEST PUSH1 0xC SLOAD SWAP1 PUSH1 0x1 PUSH1 0x1 PUSH1 0xA0 SHL SUB SWAP1 DUP2 DUP4 AND PUSH2 0xE97 JUMPI AND PUSH1 0x1 PUSH1 0x1 PUSH1 0xA0 SHL SUB NOT SWAP2 SWAP1 SWAP2 AND DUP2 OR PUSH1 0xC SSTORE PUSH1 0x40 MLOAD PUSH4 0x313CE567 PUSH1 0xE0 SHL DUP2 MSTORE SWAP2 SWAP1 DUP2 SWAP1 DUP4 SWAP1 PUSH1 0x4 SWAP1 DUP3 SWAP1 GAS STATICCALL SWAP1 DUP2 ISZERO PUSH2 0xE8C JUMPI DUP4 SWAP2 PUSH2 0xE53 JUMPI JUMPDEST DUP4 PUSH1 0xFF DUP4 AND PUSH1 0xFF NOT PUSH1 0x16 SLOAD AND OR PUSH1 0x16 SSTORE DUP1 RETURN JUMPDEST SWAP1 POP DUP2 DUP2 RETURNDATASIZE DUP4 GT PUSH2 0xE85 JUMPI JUMPDEST PUSH2 0xE69 DUP2 DUP4 PUSH2 0x2CAE JUMP JUMPDEST DUP2 ADD SUB SLT PUSH2 0xD7A JUMPI MLOAD PUSH1 0xFF DUP2 AND DUP2 SUB PUSH2 0xD7A JUMPI PUSH1 0xFF SWAP1 CODESIZE PUSH2 0xE40 JUMP JUMPDEST POP RETURNDATASIZE PUSH2 0xE5F JUMP JUMPDEST PUSH1 0x40 MLOAD RETURNDATASIZE DUP6 DUP3 RETURNDATACOPY RETURNDATASIZE SWAP1 REVERT JUMPDEST PUSH1 0x40 MLOAD PUSH3 0x461BCD PUSH1 0xE5 SHL DUP2 MSTORE PUSH1 0x4 DUP2 ADD DUP6 SWAP1 MSTORE PUSH1 0x1F PUSH1 0x24 DUP3 ADD MSTORE PUSH32 0x455243323020746F6B656E206164647265737320616C72656164792073657400 PUSH1 0x44 DUP3 ADD MSTORE PUSH1 0x64 SWAP1 REVERT JUMPDEST POP CALLVALUE PUSH2 0x318 JUMPI DUP1 PUSH1 0x3 NOT CALLDATASIZE ADD SLT PUSH2 0x318 JUMPI PUSH1 0x20 PUSH1 0x13 SLOAD PUSH1 0x40 MLOAD SWAP1 DUP2 MSTORE RETURN JUMPDEST POP CALLVALUE PUSH2 0x318 JUMPI PUSH1 0x20 CALLDATASIZE PUSH1 0x3 NOT ADD SLT PUSH2 0x318 JUMPI PUSH1 0x4 CALLDATALOAD PUSH1 0x0 SWAP1 DUP2 MSTORE PUSH1 0x2 PUSH1 0x20 MSTORE PUSH1 0x40 SWAP1 KECCAK256 SLOAD PUSH2 0xF68 SWAP2 SWAP1 PUSH2 0xF37 SWAP1 PUSH1 0x1 PUSH1 0x1 PUSH1 0xA0 SHL SUB AND ISZERO ISZERO PUSH2 0x2E36 JUMP JUMPDEST DUP1 PUSH1 0x40 MLOAD PUSH2 0xF44 DUP2 PUSH2 0x2C78 JUMP JUMPDEST MSTORE PUSH1 0x40 MLOAD SWAP1 PUSH2 0xF52 DUP3 PUSH2 0x2C78 JUMP JUMPDEST DUP2 MSTORE PUSH1 0x40 MLOAD SWAP2 DUP3 SWAP2 PUSH1 0x20 DUP4 MSTORE PUSH1 0x20 DUP4 ADD SWAP1 PUSH2 0x2B85 JUMP JUMPDEST SUB SWAP1 RETURN JUMPDEST POP CALLVALUE PUSH2 0x318 JUMPI PUSH1 0x80 CALLDATASIZE PUSH1 0x3 NOT ADD SLT PUSH2 0x318 JUMPI PUSH2 0xF86 PUSH2 0x2BAA JUMP JUMPDEST PUSH2 0xF8E PUSH2 0x2BC5 JUMP JUMPDEST SWAP1 PUSH1 0x64 CALLDATALOAD SWAP1 PUSH1 0x44 CALLDATALOAD PUSH1 0x1 PUSH1 0x1 PUSH1 0x40 SHL SUB DUP4 GT PUSH2 0xFF0 JUMPI CALLDATASIZE PUSH1 0x23 DUP5 ADD SLT ISZERO PUSH2 0xFF0 JUMPI PUSH2 0xFED SWAP4 PUSH2 0xFCA PUSH2 0x593 SWAP5 CALLDATASIZE SWAP1 PUSH1 0x24 DUP2 PUSH1 0x4 ADD CALLDATALOAD SWAP2 ADD PUSH2 0x2D30 JUMP JUMPDEST SWAP3 PUSH2 0xFDD PUSH2 0xFD8 DUP5 CALLER PUSH2 0x308F JUMP JUMPDEST PUSH2 0x2FB6 JUMP JUMPDEST PUSH2 0xFE8 DUP4 DUP4 DUP4 PUSH2 0x3157 JUMP JUMPDEST PUSH2 0x34BD JUMP JUMPDEST DUP1 RETURN JUMPDEST DUP5 DUP1 REVERT JUMPDEST POP CALLVALUE PUSH2 0x318 JUMPI PUSH1 0x20 CALLDATASIZE PUSH1 0x3 NOT ADD SLT PUSH2 0x318 JUMPI PUSH2 0x100E PUSH2 0x2BAA JUMP JUMPDEST PUSH2 0x1016 PUSH2 0x2D67 JUMP JUMPDEST PUSH1 0xD SLOAD SWAP1 PUSH1 0x1 PUSH1 0x1 PUSH1 0xA0 SHL SUB SWAP1 DUP2 DUP4 AND PUSH2 0x103F JUMPI AND SWAP1 PUSH1 0x1 PUSH1 0x1 PUSH1 0x60 SHL SUB PUSH1 0xA0 SHL AND OR PUSH1 0xD SSTORE DUP1 RETURN JUMPDEST PUSH1 0x40 MLOAD PUSH3 0x461BCD PUSH1 0xE5 SHL DUP2 MSTORE PUSH1 0x20 PUSH1 0x4 DUP3 ADD MSTORE PUSH1 0x1B PUSH1 0x24 DUP3 ADD MSTORE PUSH32 0x4275696C64696E674D616E6167657220616C7265616479207365740000000000 PUSH1 0x44 DUP3 ADD MSTORE PUSH1 0x64 SWAP1 REVERT JUMPDEST POP CALLVALUE PUSH2 0x318 JUMPI PUSH1 0x40 CALLDATASIZE PUSH1 0x3 NOT ADD SLT PUSH2 0x318 JUMPI PUSH2 0x109E PUSH2 0x2BAA JUMP JUMPDEST PUSH1 0x24 CALLDATALOAD SWAP1 DUP2 ISZERO ISZERO SWAP1 DUP2 DUP4 SUB PUSH2 0x115D JUMPI PUSH1 0x1 PUSH1 0x1 PUSH1 0xA0 SHL SUB AND SWAP2 CALLER DUP4 EQ PUSH2 0x1118 JUMPI PUSH2 0x10E9 SWAP1 CALLER DUP6 MSTORE PUSH1 0x5 PUSH1 0x20 MSTORE PUSH1 0x40 DUP6 KECCAK256 DUP5 DUP7 MSTORE PUSH1 0x20 MSTORE PUSH1 0x40 DUP6 KECCAK256 SWAP1 PUSH1 0xFF DUP1 NOT DUP4 SLOAD AND SWAP2 ISZERO ISZERO AND OR SWAP1 SSTORE JUMP JUMPDEST PUSH1 0x40 MLOAD SWAP1 DUP2 MSTORE PUSH32 0x17307EAB39AB6107E8899845AD3D59BD9653F200F220920489CA2B5937696C31 PUSH1 0x20 CALLER SWAP3 LOG3 DUP1 RETURN JUMPDEST PUSH1 0x40 MLOAD PUSH3 0x461BCD PUSH1 0xE5 SHL DUP2 MSTORE PUSH1 0x20 PUSH1 0x4 DUP3 ADD MSTORE PUSH1 0x19 PUSH1 0x24 DUP3 ADD MSTORE PUSH32 0x4552433732313A20617070726F766520746F2063616C6C657200000000000000 PUSH1 0x44 DUP3 ADD MSTORE PUSH1 0x64 SWAP1 REVERT JUMPDEST DUP4 DUP1 REVERT JUMPDEST POP CALLVALUE PUSH2 0x318 JUMPI DUP1 PUSH1 0x3 NOT CALLDATASIZE ADD SLT PUSH2 0x318 JUMPI PUSH1 0xF SLOAD PUSH1 0x40 MLOAD PUSH1 0x1 PUSH1 0x1 PUSH1 0xA0 SHL SUB SWAP1 SWAP2 AND DUP2 MSTORE PUSH1 0x20 SWAP1 RETURN JUMPDEST POP CALLVALUE PUSH2 0x318 JUMPI PUSH1 0xE0 CALLDATASIZE PUSH1 0x3 NOT ADD SLT PUSH2 0x318 JUMPI PUSH1 0x4 CALLDATALOAD PUSH1 0xC0 CALLDATASIZE PUSH1 0x23 NOT ADD SLT PUSH2 0xD7A JUMPI PUSH1 0x40 MLOAD PUSH2 0x11B7 DUP2 PUSH2 0x2C42 JUMP JUMPDEST PUSH1 0x24 CALLDATALOAD DUP2 MSTORE PUSH1 0x20 DUP1 DUP3 ADD SWAP2 PUSH1 0x44 CALLDATALOAD DUP4 MSTORE PUSH1 0x40 DUP2 ADD PUSH1 0x64 CALLDATALOAD DUP2 MSTORE PUSH1 0x60 DUP3 ADD PUSH1 0x84 CALLDATALOAD DUP2 MSTORE PUSH1 0x80 DUP4 ADD SWAP2 PUSH1 0xA4 CALLDATALOAD DUP4 MSTORE PUSH1 0xA0 DUP5 ADD SWAP4 PUSH1 0xC4 CALLDATALOAD DUP6 MSTORE PUSH1 0x1 DUP1 PUSH1 0xA0 SHL SUB PUSH1 0xF SLOAD AND CALLER SUB PUSH2 0x12CD JUMPI PUSH1 0x0 DUP9 DUP2 MSTORE PUSH1 0x2 PUSH1 0x20 MSTORE PUSH1 0x40 SWAP1 KECCAK256 SLOAD PUSH2 0x1226 SWAP1 PUSH1 0x1 PUSH1 0x1 PUSH1 0xA0 SHL SUB AND ISZERO ISZERO PUSH2 0x35B2 JUMP JUMPDEST PUSH2 0x35B2 JUMP JUMPDEST MLOAD SWAP6 DUP8 DUP10 MSTORE PUSH1 0x17 SWAP7 DUP8 DUP8 MSTORE PUSH2 0x1243 PUSH1 0x8 PUSH1 0x40 DUP13 KECCAK256 ADD SWAP2 DUP3 SLOAD PUSH2 0x35F5 JUMP JUMPDEST SWAP1 SSTORE MLOAD DUP8 DUP10 MSTORE DUP7 DUP7 MSTORE PUSH2 0x125E PUSH1 0x9 PUSH1 0x40 DUP12 KECCAK256 ADD SWAP2 DUP3 SLOAD PUSH2 0x35F5 JUMP JUMPDEST SWAP1 SSTORE MLOAD DUP7 DUP9 MSTORE DUP6 DUP6 MSTORE PUSH2 0x1279 PUSH1 0xA PUSH1 0x40 DUP11 KECCAK256 ADD SWAP2 DUP3 SLOAD PUSH2 0x35F5 JUMP JUMPDEST SWAP1 SSTORE MLOAD DUP6 DUP8 MSTORE DUP5 DUP5 MSTORE PUSH2 0x1294 PUSH1 0xB PUSH1 0x40 DUP10 KECCAK256 ADD SWAP2 DUP3 SLOAD PUSH2 0x35F5 JUMP JUMPDEST SWAP1 SSTORE MLOAD DUP5 DUP7 MSTORE DUP4 DUP4 MSTORE PUSH2 0x12AF PUSH1 0xC PUSH1 0x40 DUP9 KECCAK256 ADD SWAP2 DUP3 SLOAD PUSH2 0x35F5 JUMP JUMPDEST SWAP1 SSTORE MLOAD SWAP3 DUP5 MSTORE MSTORE PUSH2 0x12C8 PUSH1 0xD PUSH1 0x40 DUP5 KECCAK256 ADD SWAP2 DUP3 SLOAD PUSH2 0x35F5 JUMP JUMPDEST SWAP1 SSTORE DUP1 RETURN JUMPDEST PUSH1 0x64 DUP7 PUSH1 0x40 MLOAD SWAP1 PUSH3 0x461BCD PUSH1 0xE5 SHL DUP3 MSTORE DUP1 PUSH1 0x4 DUP4 ADD MSTORE PUSH1 0x24 DUP3 ADD MSTORE PUSH32 0x43616C6C6572206973206E6F7420746865204D61726B6574436F6E7472616374 PUSH1 0x44 DUP3 ADD MSTORE REVERT JUMPDEST POP CALLVALUE PUSH2 0x318 JUMPI DUP1 PUSH1 0x3 NOT CALLDATASIZE ADD SLT PUSH2 0x318 JUMPI PUSH1 0x40 MLOAD SWAP1 DUP1 PUSH1 0x1 DUP1 SLOAD SWAP2 PUSH2 0x1334 DUP4 PUSH2 0x2EA8 JUMP JUMPDEST DUP1 DUP7 MSTORE SWAP3 DUP3 DUP2 AND SWAP1 DUP2 ISZERO PUSH2 0x13C9 JUMPI POP PUSH1 0x1 EQ PUSH2 0x136F JUMPI JUMPDEST PUSH2 0xF68 DUP6 PUSH2 0x135B DUP2 DUP8 SUB DUP3 PUSH2 0x2CAE JUMP JUMPDEST PUSH1 0x40 MLOAD SWAP2 DUP3 SWAP2 PUSH1 0x20 DUP4 MSTORE PUSH1 0x20 DUP4 ADD SWAP1 PUSH2 0x2B85 JUMP JUMPDEST SWAP3 POP DUP1 DUP4 MSTORE PUSH32 0xB10E2D527612073B26EECDFD717E6A320CF44B4AFAC2B0732D9FCBE2B7FA0CF6 JUMPDEST DUP3 DUP5 LT PUSH2 0x13B1 JUMPI POP POP POP DUP2 ADD PUSH1 0x20 ADD PUSH2 0x135B DUP3 PUSH2 0xF68 PUSH2 0x134B JUMP JUMPDEST DUP1 SLOAD PUSH1 0x20 DUP6 DUP8 ADD DUP2 ADD SWAP2 SWAP1 SWAP2 MSTORE SWAP1 SWAP4 ADD SWAP3 DUP2 ADD PUSH2 0x1396 JUMP JUMPDEST DUP7 SWAP6 POP PUSH2 0xF68 SWAP7 SWAP4 POP PUSH1 0x20 SWAP3 POP PUSH2 0x135B SWAP5 SWAP2 POP PUSH1 0xFF NOT AND DUP3 DUP5 ADD MSTORE ISZERO ISZERO PUSH1 0x5 SHL DUP3 ADD ADD SWAP3 SWAP4 PUSH2 0x134B JUMP JUMPDEST POP CALLVALUE PUSH2 0x318 JUMPI PUSH1 0x20 CALLDATASIZE PUSH1 0x3 NOT ADD SLT PUSH2 0x318 JUMPI PUSH1 0x4 CALLDATALOAD PUSH2 0x1410 PUSH2 0x2D67 JUMP JUMPDEST PUSH1 0x13 SLOAD DUP2 GT ISZERO PUSH2 0x1420 JUMPI PUSH1 0x13 SSTORE DUP1 RETURN JUMPDEST PUSH1 0x40 MLOAD PUSH3 0x461BCD PUSH1 0xE5 SHL DUP2 MSTORE PUSH1 0x20 PUSH1 0x4 DUP3 ADD MSTORE PUSH1 0x36 PUSH1 0x24 DUP3 ADD MSTORE PUSH32 0x4E6577206D617820737570706C79206D75737420626520677265617465722074 PUSH1 0x44 DUP3 ADD MSTORE PUSH22 0x68616E2063757272656E74206D617820737570706C79 PUSH1 0x50 SHL PUSH1 0x64 DUP3 ADD MSTORE PUSH1 0x84 SWAP1 REVERT JUMPDEST POP CALLVALUE PUSH2 0x318 JUMPI DUP1 PUSH1 0x3 NOT CALLDATASIZE ADD SLT PUSH2 0x318 JUMPI PUSH1 0xA SLOAD PUSH1 0x40 MLOAD PUSH1 0x1 PUSH1 0x1 PUSH1 0xA0 SHL SUB SWAP1 SWAP2 AND DUP2 MSTORE PUSH1 0x20 SWAP1 RETURN JUMPDEST POP CALLVALUE PUSH2 0x318 JUMPI DUP1 PUSH1 0x3 NOT CALLDATASIZE ADD SLT PUSH2 0x318 JUMPI PUSH1 0xC SLOAD PUSH1 0x40 MLOAD PUSH1 0x1 PUSH1 0x1 PUSH1 0xA0 SHL SUB SWAP1 SWAP2 AND DUP2 MSTORE PUSH1 0x20 SWAP1 RETURN JUMPDEST POP CALLVALUE PUSH2 0x318 JUMPI DUP1 PUSH1 0x3 NOT CALLDATASIZE ADD SLT PUSH2 0x318 JUMPI PUSH1 0x20 PUSH1 0x14 SLOAD PUSH1 0x40 MLOAD SWAP1 DUP2 MSTORE RETURN JUMPDEST POP CALLVALUE PUSH2 0x318 JUMPI DUP1 PUSH1 0x3 NOT CALLDATASIZE ADD SLT PUSH2 0x318 JUMPI PUSH1 0x20 PUSH1 0x10 SLOAD PUSH1 0x40 MLOAD SWAP1 DUP2 MSTORE RETURN JUMPDEST POP CALLVALUE PUSH2 0x318 JUMPI DUP1 PUSH1 0x3 NOT CALLDATASIZE ADD SLT PUSH2 0x318 JUMPI PUSH2 0x152B PUSH2 0x2D67 JUMP JUMPDEST PUSH1 0xA DUP1 SLOAD PUSH1 0x1 PUSH1 0x1 PUSH1 0xA0 SHL SUB NOT DUP2 AND SWAP1 SWAP2 SSTORE DUP2 SWAP1 PUSH1 0x1 PUSH1 0x1 PUSH1 0xA0 SHL SUB AND PUSH32 0x8BE0079C531659141344CD1FD0A4F28419497F9722A3DAAFE3B4186F6B6457E0 DUP3 DUP1 LOG3 DUP1 RETURN JUMPDEST POP CALLVALUE PUSH2 0x318 JUMPI PUSH1 0x20 CALLDATASIZE PUSH1 0x3 NOT ADD SLT PUSH2 0x318 JUMPI PUSH1 0x20 PUSH2 0x1593 PUSH2 0x158E PUSH2 0x2BAA JUMP JUMPDEST PUSH2 0x2DBF JUMP JUMPDEST PUSH1 0x40 MLOAD SWAP1 DUP2 MSTORE RETURN JUMPDEST POP CALLVALUE PUSH2 0x318 JUMPI PUSH1 0x60 CALLDATASIZE PUSH1 0x3 NOT ADD SLT PUSH2 0x318 JUMPI PUSH1 0x24 PUSH1 0x1 PUSH1 0x1 PUSH1 0x40 SHL SUB DUP2 CALLDATALOAD DUP2 DUP2 GT PUSH2 0x115D JUMPI CALLDATASIZE PUSH1 0x23 DUP3 ADD SLT ISZERO PUSH2 0x115D JUMPI PUSH2 0x15DE SWAP1 CALLDATASIZE SWAP1 DUP5 DUP2 PUSH1 0x4 ADD CALLDATALOAD SWAP2 ADD PUSH2 0x2D30 JUMP JUMPDEST SWAP2 PUSH2 0x15E7 PUSH2 0x399E JUMP JUMPDEST PUSH2 0x15F2 PUSH1 0x4 CALLDATALOAD PUSH2 0x2E82 JUMP JUMPDEST PUSH1 0x1 PUSH1 0x1 PUSH1 0xA0 SHL SUB SWAP2 SWAP1 PUSH2 0x1609 SWAP1 DUP4 AND CALLER EQ PUSH2 0x3ADA JUMP JUMPDEST DUP2 PUSH1 0xD SLOAD AND DUP6 PUSH1 0x40 MLOAD DUP1 SWAP3 PUSH4 0x244D87AD PUSH1 0xE1 SHL DUP3 MSTORE PUSH1 0x40 PUSH1 0x4 DUP4 ADD MSTORE DUP2 DUP1 PUSH2 0x1634 PUSH1 0x44 DUP3 ADD DUP12 PUSH2 0x2B85 JUMP JUMPDEST PUSH1 0x44 CALLDATALOAD DUP9 DUP4 ADD MSTORE SUB SWAP2 GAS STATICCALL SWAP1 DUP2 ISZERO PUSH2 0x99A JUMPI DUP7 SWAP2 PUSH2 0x1A1B JUMPI JUMPDEST POP PUSH1 0x4 CALLDATALOAD DUP7 MSTORE PUSH1 0x17 PUSH1 0x20 MSTORE PUSH1 0x8 PUSH1 0x40 DUP8 KECCAK256 ADD PUSH2 0x1677 PUSH1 0x40 DUP4 ADD SWAP2 PUSH2 0x1672 DUP4 MLOAD SWAP2 PUSH2 0x2CCF JUMP JUMPDEST PUSH2 0x3D84 JUMP JUMPDEST ISZERO PUSH2 0x19D7 JUMPI PUSH1 0xA0 DUP2 MLOAD ADD MLOAD PUSH1 0xFF PUSH1 0x16 SLOAD AND PUSH1 0x4D DUP2 GT PUSH2 0x19C4 JUMPI SWAP1 PUSH2 0x169E SWAP2 PUSH1 0xA EXP SWAP1 PUSH2 0x3AC7 JUMP JUMPDEST SWAP4 PUSH1 0xC SLOAD AND PUSH1 0x40 MLOAD PUSH4 0x70A08231 PUSH1 0xE0 SHL DUP2 MSTORE CALLER PUSH1 0x4 DUP3 ADD MSTORE PUSH1 0x20 DUP2 DUP7 DUP2 DUP6 GAS STATICCALL DUP1 ISZERO PUSH2 0xB14 JUMPI DUP7 SWAP2 DUP11 SWAP2 PUSH2 0x198B JUMPI JUMPDEST POP LT PUSH2 0x1947 JUMPI PUSH1 0x40 MLOAD PUSH4 0x23B872DD PUSH1 0xE0 SHL PUSH1 0x20 DUP3 ADD MSTORE CALLER DUP6 DUP3 ADD MSTORE ADDRESS PUSH1 0x44 DUP3 ADD MSTORE PUSH1 0x64 DUP1 DUP3 ADD DUP8 SWAP1 MSTORE DUP2 MSTORE SWAP1 PUSH1 0xA0 DUP3 ADD DUP8 DUP2 GT DUP4 DUP3 LT OR PUSH2 0x1934 JUMPI SWAP3 PUSH2 0x1721 PUSH2 0x1742 SWAP6 SWAP4 PUSH2 0x173A SWAP4 PUSH2 0x140 SWAP7 PUSH1 0x40 MSTORE PUSH2 0x3B26 JUMP JUMPDEST PUSH1 0x4 CALLDATALOAD DUP11 MSTORE PUSH1 0x17 PUSH1 0x20 MSTORE PUSH1 0x8 PUSH1 0x40 DUP12 KECCAK256 ADD SWAP1 MLOAD SWAP1 PUSH2 0x3E0E JUMP JUMPDEST ADD MLOAD TIMESTAMP PUSH2 0x35F5 JUMP JUMPDEST SWAP3 PUSH1 0x4 CALLDATALOAD DUP7 MSTORE PUSH1 0x17 PUSH1 0x20 MSTORE PUSH1 0x7 PUSH1 0x40 DUP8 KECCAK256 ADD SWAP1 PUSH1 0x40 MLOAD SWAP2 PUSH2 0x1762 DUP4 PUSH2 0x2C5D JUMP JUMPDEST DUP7 DUP4 MSTORE PUSH1 0x44 CALLDATALOAD PUSH1 0x20 DUP5 ADD MSTORE DUP6 PUSH1 0x40 DUP5 ADD MSTORE DUP1 SLOAD SWAP1 PUSH1 0x1 PUSH1 0x40 SHL DUP3 LT ISZERO PUSH2 0x1921 JUMPI SWAP1 PUSH2 0x1792 SWAP2 PUSH1 0x1 DUP3 ADD DUP2 SSTORE PUSH2 0x3643 JUMP JUMPDEST SWAP4 SWAP1 SWAP4 PUSH2 0x190F JUMPI DUP3 MLOAD SWAP1 DUP2 MLOAD SWAP3 DUP4 GT PUSH2 0x18FD JUMPI POP PUSH2 0x17BA DUP3 PUSH2 0x17B4 DUP7 SLOAD PUSH2 0x2EA8 JUMP JUMPDEST DUP7 PUSH2 0x3676 JUMP JUMPDEST PUSH1 0x20 SWAP1 PUSH1 0x1F DUP4 GT PUSH1 0x1 EQ PUSH2 0x1869 JUMPI PUSH32 0xE6AD6E82819C4E41704F66995F6132E8E2887AABEAC56A9808F514A83EBC245F SWAP8 SWAP6 SWAP4 DUP4 PUSH2 0x1840 SWAP9 SWAP7 SWAP5 PUSH1 0x2 SWAP5 PUSH1 0x40 SWAP5 DUP14 SWAP3 PUSH2 0x185E JUMPI JUMPDEST POP POP DUP2 PUSH1 0x1 SHL SWAP2 PUSH1 0x0 NOT SWAP1 PUSH1 0x3 SHL SHR NOT AND OR DUP5 SSTORE JUMPDEST PUSH1 0x20 DUP2 ADD MLOAD PUSH1 0x1 DUP6 ADD SSTORE ADD MLOAD SWAP2 ADD SSTORE PUSH1 0x40 MLOAD SWAP4 DUP5 SWAP4 PUSH1 0x4 CALLDATALOAD DUP6 MSTORE PUSH1 0xA0 PUSH1 0x20 DUP7 ADD MSTORE PUSH1 0xA0 DUP6 ADD SWAP1 PUSH2 0x2B85 JUMP JUMPDEST SWAP2 PUSH1 0x44 CALLDATALOAD PUSH1 0x40 DUP6 ADD MSTORE PUSH1 0x60 DUP5 ADD MSTORE PUSH1 0x80 DUP4 ADD MSTORE SUB SWAP1 LOG1 PUSH1 0x1 PUSH1 0xB SSTORE DUP1 RETURN JUMPDEST ADD MLOAD SWAP1 POP CODESIZE DUP1 PUSH2 0x1800 JUMP JUMPDEST SWAP1 DUP5 DUP10 MSTORE PUSH1 0x20 DUP10 KECCAK256 SWAP2 DUP10 JUMPDEST PUSH1 0x1F NOT DUP6 AND DUP2 LT PUSH2 0x18E5 JUMPI POP SWAP4 PUSH1 0x1 DUP5 PUSH1 0x2 SWAP5 PUSH1 0x40 SWAP5 PUSH32 0xE6AD6E82819C4E41704F66995F6132E8E2887AABEAC56A9808F514A83EBC245F SWAP13 SWAP11 SWAP9 PUSH2 0x1840 SWAP13 SWAP11 SWAP9 PUSH1 0x1F NOT DUP2 AND LT PUSH2 0x18CC JUMPI JUMPDEST POP POP POP DUP2 SHL ADD DUP5 SSTORE PUSH2 0x1815 JUMP JUMPDEST ADD MLOAD PUSH1 0x0 NOT PUSH1 0xF8 DUP5 PUSH1 0x3 SHL AND SHR NOT AND SWAP1 SSTORE CODESIZE DUP1 DUP1 PUSH2 0x18BF JUMP JUMPDEST SWAP2 SWAP3 PUSH1 0x20 PUSH1 0x1 DUP2 SWAP3 DUP7 DUP6 ADD MLOAD DUP2 SSTORE ADD SWAP5 ADD SWAP3 ADD PUSH2 0x1874 JUMP JUMPDEST PUSH4 0x4E487B71 PUSH1 0xE0 SHL DUP10 MSTORE PUSH1 0x41 PUSH1 0x4 MSTORE DUP9 REVERT JUMPDEST PUSH4 0x4E487B71 PUSH1 0xE0 SHL DUP9 MSTORE PUSH1 0x4 DUP9 SWAP1 MSTORE DUP8 REVERT JUMPDEST PUSH4 0x4E487B71 PUSH1 0xE0 SHL DUP10 MSTORE PUSH1 0x41 PUSH1 0x4 MSTORE DUP5 DUP10 REVERT JUMPDEST PUSH4 0x4E487B71 PUSH1 0xE0 SHL DUP11 MSTORE PUSH1 0x41 PUSH1 0x4 MSTORE DUP6 DUP11 REVERT JUMPDEST PUSH1 0x40 MLOAD PUSH3 0x461BCD PUSH1 0xE5 SHL DUP2 MSTORE PUSH1 0x20 PUSH1 0x4 DUP3 ADD MSTORE PUSH1 0x17 DUP2 DUP7 ADD MSTORE PUSH32 0x4E6F7420656E6F75676820455243323020746F6B656E73000000000000000000 PUSH1 0x44 DUP3 ADD MSTORE PUSH1 0x64 SWAP1 REVERT JUMPDEST SWAP2 POP POP PUSH1 0x20 DUP2 RETURNDATASIZE PUSH1 0x20 GT PUSH2 0x19BC JUMPI JUMPDEST DUP2 PUSH2 0x19A7 PUSH1 0x20 SWAP4 DUP4 PUSH2 0x2CAE JUMP JUMPDEST DUP2 ADD SUB SLT PUSH2 0x19B8 JUMPI DUP6 SWAP1 MLOAD CODESIZE PUSH2 0x16CD JUMP JUMPDEST DUP9 DUP1 REVERT JUMPDEST RETURNDATASIZE SWAP2 POP PUSH2 0x199A JUMP JUMPDEST PUSH4 0x4E487B71 PUSH1 0xE0 SHL DUP10 MSTORE PUSH1 0x11 PUSH1 0x4 MSTORE DUP5 DUP10 REVERT JUMPDEST PUSH1 0x40 MLOAD PUSH3 0x461BCD PUSH1 0xE5 SHL DUP2 MSTORE PUSH1 0x20 PUSH1 0x4 DUP3 ADD MSTORE PUSH1 0x1C DUP2 DUP6 ADD MSTORE PUSH32 0x4E6F7420656E6F75676820696E2D67616D65207265736F757263657300000000 PUSH1 0x44 DUP3 ADD MSTORE PUSH1 0x64 SWAP1 REVERT JUMPDEST PUSH2 0x1A2F SWAP2 POP RETURNDATASIZE DUP1 DUP9 DUP4 RETURNDATACOPY PUSH2 0x909 DUP2 DUP4 PUSH2 0x2CAE JUMP JUMPDEST CODESIZE PUSH2 0x164D JUMP JUMPDEST POP CALLVALUE PUSH2 0x318 JUMPI DUP1 PUSH1 0x3 NOT CALLDATASIZE ADD SLT PUSH2 0x318 JUMPI PUSH1 0x20 PUSH1 0x11 SLOAD PUSH1 0x40 MLOAD SWAP1 DUP2 MSTORE RETURN JUMPDEST POP CALLVALUE PUSH2 0x318 JUMPI DUP1 PUSH1 0x3 NOT CALLDATASIZE ADD SLT PUSH2 0x318 JUMPI PUSH1 0xE SLOAD PUSH1 0x40 MLOAD PUSH1 0x1 PUSH1 0x1 PUSH1 0xA0 SHL SUB SWAP1 SWAP2 AND DUP2 MSTORE PUSH1 0x20 SWAP1 RETURN JUMPDEST POP CALLVALUE PUSH2 0x318 JUMPI PUSH1 0x20 CALLDATASIZE PUSH1 0x3 NOT ADD SLT PUSH2 0x318 JUMPI PUSH1 0x20 PUSH2 0x1A9B PUSH1 0x4 CALLDATALOAD PUSH2 0x2E82 JUMP JUMPDEST PUSH1 0x40 MLOAD PUSH1 0x1 PUSH1 0x1 PUSH1 0xA0 SHL SUB SWAP1 SWAP2 AND DUP2 MSTORE RETURN JUMPDEST POP CALLVALUE PUSH2 0x318 JUMPI DUP1 PUSH1 0x3 NOT CALLDATASIZE ADD SLT PUSH2 0x318 JUMPI PUSH1 0xD SLOAD PUSH1 0x40 MLOAD PUSH1 0x1 PUSH1 0x1 PUSH1 0xA0 SHL SUB SWAP1 SWAP2 AND DUP2 MSTORE PUSH1 0x20 SWAP1 RETURN JUMPDEST POP CALLVALUE PUSH2 0x318 JUMPI PUSH1 0x20 CALLDATASIZE PUSH1 0x3 NOT ADD SLT PUSH2 0x318 JUMPI PUSH1 0x40 PUSH2 0x1A0 SWAP2 PUSH1 0x4 CALLDATALOAD DUP2 MSTORE PUSH1 0x17 PUSH1 0x20 MSTORE KECCAK256 DUP1 SLOAD SWAP1 PUSH2 0x1B88 PUSH1 0x1 DUP3 ADD SLOAD SWAP2 PUSH1 0x2 DUP2 ADD SLOAD PUSH1 0x3 DUP3 ADD SLOAD PUSH1 0x4 DUP4 ADD SLOAD SWAP1 PUSH1 0x5 DUP5 ADD SLOAD SWAP3 PUSH1 0xE PUSH2 0x1B29 PUSH1 0x8 DUP8 ADD PUSH2 0x2CCF JUMP JUMPDEST SWAP6 ADD SLOAD SWAP7 PUSH1 0x40 MLOAD SWAP9 DUP10 MSTORE PUSH1 0x20 DUP10 ADD MSTORE PUSH1 0x40 DUP9 ADD MSTORE PUSH1 0x60 DUP8 ADD MSTORE PUSH1 0x80 DUP7 ADD MSTORE PUSH1 0xA0 DUP6 ADD MSTORE PUSH1 0xC0 DUP5 ADD SWAP1 PUSH1 0xA0 DUP1 SWAP2 DUP1 MLOAD DUP5 MSTORE PUSH1 0x20 DUP2 ADD MLOAD PUSH1 0x20 DUP6 ADD MSTORE PUSH1 0x40 DUP2 ADD MLOAD PUSH1 0x40 DUP6 ADD MSTORE PUSH1 0x60 DUP2 ADD MLOAD PUSH1 0x60 DUP6 ADD MSTORE PUSH1 0x80 DUP2 ADD MLOAD PUSH1 0x80 DUP6 ADD MSTORE ADD MLOAD SWAP2 ADD MSTORE JUMP JUMPDEST PUSH2 0x180 DUP3 ADD MSTORE RETURN JUMPDEST POP CALLVALUE PUSH2 0x318 JUMPI PUSH1 0x20 CALLDATASIZE PUSH1 0x3 NOT ADD SLT PUSH2 0x318 JUMPI PUSH1 0x4 CALLDATALOAD PUSH1 0x0 DUP2 DUP2 MSTORE PUSH1 0x2 PUSH1 0x20 MSTORE PUSH1 0x40 SWAP1 KECCAK256 SLOAD SWAP1 SWAP2 SWAP1 PUSH2 0x1BCB SWAP1 PUSH1 0x1 PUSH1 0x1 PUSH1 0xA0 SHL SUB AND ISZERO ISZERO PUSH2 0x35B2 JUMP JUMPDEST PUSH1 0xE SLOAD PUSH1 0x40 DUP1 MLOAD PUSH4 0x3C7C604F PUSH1 0xE0 SHL DUP2 MSTORE PUSH1 0x4 DUP2 ADD SWAP5 SWAP1 SWAP5 MSTORE SWAP1 DUP4 SWAP1 PUSH1 0x24 SWAP1 DUP3 SWAP1 PUSH1 0x1 PUSH1 0x1 PUSH1 0xA0 SHL SUB AND GAS STATICCALL DUP1 ISZERO PUSH2 0x1C33 JUMPI PUSH1 0x40 SWAP3 DUP3 SWAP2 PUSH2 0x1C14 JUMPI JUMPDEST POP DUP3 MLOAD SWAP2 DUP3 MSTORE PUSH1 0x20 DUP3 ADD MSTORE RETURN JUMPDEST SWAP1 POP PUSH2 0x1C2D SWAP2 POP DUP3 RETURNDATASIZE DUP5 GT PUSH2 0xB49 JUMPI PUSH2 0xB3B DUP2 DUP4 PUSH2 0x2CAE JUMP JUMPDEST CODESIZE PUSH2 0x1C07 JUMP JUMPDEST POP PUSH1 0x40 MLOAD SWAP1 RETURNDATASIZE SWAP1 DUP3 RETURNDATACOPY RETURNDATASIZE SWAP1 REVERT JUMPDEST POP CALLVALUE PUSH2 0x318 JUMPI DUP1 PUSH1 0x3 NOT CALLDATASIZE ADD SLT PUSH2 0x318 JUMPI PUSH1 0x20 PUSH1 0x12 SLOAD PUSH1 0x40 MLOAD SWAP1 DUP2 MSTORE RETURN JUMPDEST POP CALLVALUE PUSH2 0x318 JUMPI PUSH1 0x20 CALLDATASIZE PUSH1 0x3 NOT ADD SLT PUSH2 0x318 JUMPI PUSH1 0x4 CALLDATALOAD PUSH1 0x8 SLOAD DUP2 LT ISZERO PUSH2 0x1C96 JUMPI PUSH2 0x1C88 PUSH1 0x20 SWAP2 PUSH2 0x3538 JUMP JUMPDEST SWAP1 SLOAD PUSH1 0x40 MLOAD SWAP2 PUSH1 0x3 SHL SHR DUP2 MSTORE RETURN JUMPDEST PUSH1 0x40 MLOAD PUSH3 0x461BCD PUSH1 0xE5 SHL DUP2 MSTORE PUSH1 0x20 PUSH1 0x4 DUP3 ADD MSTORE PUSH1 0x2C PUSH1 0x24 DUP3 ADD MSTORE PUSH32 0x455243373231456E756D657261626C653A20676C6F62616C20696E646578206F PUSH1 0x44 DUP3 ADD MSTORE PUSH12 0x7574206F6620626F756E6473 PUSH1 0xA0 SHL PUSH1 0x64 DUP3 ADD MSTORE PUSH1 0x84 SWAP1 REVERT JUMPDEST POP CALLVALUE PUSH2 0x318 JUMPI PUSH2 0xFED PUSH2 0x593 PUSH2 0x1D05 CALLDATASIZE PUSH2 0x2BDB JUMP JUMPDEST SWAP1 PUSH1 0x40 MLOAD SWAP3 PUSH2 0x1D13 DUP5 PUSH2 0x2C78 JUMP JUMPDEST DUP7 DUP5 MSTORE PUSH2 0xFDD PUSH2 0xFD8 DUP5 CALLER PUSH2 0x308F JUMP JUMPDEST POP CALLVALUE PUSH2 0x318 JUMPI DUP1 PUSH1 0x3 NOT CALLDATASIZE ADD SLT PUSH2 0x318 JUMPI PUSH2 0x1D3C PUSH2 0x2D67 JUMP JUMPDEST SELFBALANCE DUP1 ISZERO PUSH2 0x1DA5 JUMPI PUSH1 0xA SLOAD DUP3 SWAP2 DUP3 SWAP2 DUP3 SWAP2 DUP3 SWAP2 PUSH1 0x1 PUSH1 0x1 PUSH1 0xA0 SHL SUB AND GAS CALL PUSH2 0x1D61 PUSH2 0x3399 JUMP JUMPDEST POP ISZERO PUSH2 0x1D6A JUMPI DUP1 RETURN JUMPDEST PUSH1 0x40 MLOAD PUSH3 0x461BCD PUSH1 0xE5 SHL DUP2 MSTORE PUSH1 0x20 PUSH1 0x4 DUP3 ADD MSTORE PUSH1 0x13 PUSH1 0x24 DUP3 ADD MSTORE PUSH19 0x115512081D1C985B9CD9995C8819985A5B1959 PUSH1 0x6A SHL PUSH1 0x44 DUP3 ADD MSTORE PUSH1 0x64 SWAP1 REVERT JUMPDEST PUSH1 0x40 MLOAD PUSH3 0x461BCD PUSH1 0xE5 SHL DUP2 MSTORE PUSH1 0x20 PUSH1 0x4 DUP3 ADD MSTORE PUSH1 0x12 PUSH1 0x24 DUP3 ADD MSTORE PUSH18 0x4E6F2045544820746F207769746864726177 PUSH1 0x70 SHL PUSH1 0x44 DUP3 ADD MSTORE PUSH1 0x64 SWAP1 REVERT JUMPDEST POP CALLVALUE PUSH2 0x318 JUMPI DUP1 PUSH1 0x3 NOT CALLDATASIZE ADD SLT PUSH2 0x318 JUMPI PUSH1 0x20 PUSH1 0xFF PUSH1 0x16 SLOAD AND PUSH1 0x40 MLOAD SWAP1 DUP2 MSTORE RETURN JUMPDEST POP CALLVALUE PUSH2 0x318 JUMPI DUP1 PUSH1 0x3 NOT CALLDATASIZE ADD SLT PUSH2 0x318 JUMPI PUSH2 0x1E19 PUSH2 0x2D67 JUMP JUMPDEST PUSH2 0x1E21 PUSH2 0x399E JUMP JUMPDEST TIMESTAMP PUSH1 0x15 SSTORE PUSH2 0x1E3D PUSH2 0x1E34 PUSH1 0x14 SLOAD TIMESTAMP PUSH2 0x3585 JUMP JUMPDEST PUSH1 0x12 SLOAD SWAP1 PUSH2 0x3592 JUMP JUMPDEST DUP1 ISZERO PUSH2 0x1EF4 JUMPI PUSH1 0x1 SWAP1 DUP2 DUP1 DUP1 JUMPDEST PUSH2 0x1EAA JUMPI JUMPDEST POP POP PUSH1 0x20 PUSH2 0x1E99 PUSH32 0xB33A1F54DDE4E0082C45281B338D78B2C4B5BE163B6FFFFA5D0D6D1050BA5A58 SWAP3 PUSH2 0x1E90 PUSH2 0x1E88 PUSH1 0x12 SLOAD DUP1 SWAP4 PUSH2 0x3AC7 JUMP JUMPDEST PUSH1 0x14 SLOAD PUSH2 0x35F5 JUMP JUMPDEST PUSH1 0x14 SSTORE TIMESTAMP PUSH2 0x3592 JUMP JUMPDEST PUSH1 0x40 MLOAD SWAP1 DUP2 MSTORE LOG1 TIMESTAMP PUSH1 0x15 SSTORE PUSH1 0xB SSTORE DUP1 RETURN JUMPDEST PUSH1 0x10 SLOAD DUP2 LT ISZERO PUSH2 0x1EEF JUMPI PUSH1 0x0 DUP2 DUP2 MSTORE PUSH1 0x2 PUSH1 0x20 MSTORE PUSH1 0x40 SWAP1 KECCAK256 SLOAD PUSH2 0x1EDA SWAP2 SWAP1 PUSH1 0x1 PUSH1 0x1 PUSH1 0xA0 SHL SUB AND PUSH2 0x1EE0 JUMPI PUSH2 0x3AB8 JUMP JUMPDEST DUP2 PUSH2 0x1E4A JUMP JUMPDEST PUSH2 0x1EEA DUP5 DUP3 PUSH2 0x3E8D JUMP JUMPDEST PUSH2 0x3AB8 JUMP JUMPDEST PUSH2 0x1E4F JUMP JUMPDEST PUSH1 0x40 MLOAD PUSH3 0x461BCD PUSH1 0xE5 SHL DUP2 MSTORE PUSH1 0x20 PUSH1 0x4 DUP3 ADD MSTORE PUSH1 0x27 PUSH1 0x24 DUP3 ADD MSTORE PUSH32 0x4E6F2065706F6368732068617665207061737365642073696E6365206C617374 PUSH1 0x44 DUP3 ADD MSTORE PUSH7 0x20757064617465 PUSH1 0xC8 SHL PUSH1 0x64 DUP3 ADD MSTORE PUSH1 0x84 SWAP1 REVERT JUMPDEST POP CALLVALUE PUSH2 0x318 JUMPI PUSH1 0x40 CALLDATASIZE PUSH1 0x3 NOT ADD SLT PUSH2 0x318 JUMPI PUSH2 0x1F63 PUSH2 0x2BAA JUMP JUMPDEST PUSH1 0x24 CALLDATALOAD SWAP2 PUSH2 0x1F70 DUP3 PUSH2 0x2DBF JUMP JUMPDEST DUP4 LT ISZERO PUSH2 0x1F9D JUMPI PUSH1 0x20 SWAP3 PUSH1 0x40 SWAP3 PUSH1 0x1 DUP1 PUSH1 0xA0 SHL SUB AND DUP3 MSTORE PUSH1 0x6 DUP5 MSTORE DUP3 DUP3 KECCAK256 SWAP1 DUP3 MSTORE DUP4 MSTORE KECCAK256 SLOAD PUSH1 0x40 MLOAD SWAP1 DUP2 MSTORE RETURN JUMPDEST PUSH1 0x40 MLOAD PUSH3 0x461BCD PUSH1 0xE5 SHL DUP2 MSTORE PUSH1 0x20 PUSH1 0x4 DUP3 ADD MSTORE PUSH1 0x2B PUSH1 0x24 DUP3 ADD MSTORE PUSH32 0x455243373231456E756D657261626C653A206F776E657220696E646578206F75 PUSH1 0x44 DUP3 ADD MSTORE PUSH11 0x74206F6620626F756E6473 PUSH1 0xA8 SHL PUSH1 0x64 DUP3 ADD MSTORE PUSH1 0x84 SWAP1 REVERT JUMPDEST POP CALLVALUE PUSH2 0x318 JUMPI DUP1 PUSH1 0x3 NOT CALLDATASIZE ADD SLT PUSH2 0x318 JUMPI PUSH2 0x200F PUSH2 0x2D67 JUMP JUMPDEST PUSH1 0xC SLOAD PUSH1 0x40 MLOAD PUSH4 0x70A08231 PUSH1 0xE0 SHL DUP2 MSTORE ADDRESS PUSH1 0x4 DUP3 ADD MSTORE PUSH1 0x1 PUSH1 0x1 PUSH1 0xA0 SHL SUB SWAP2 DUP3 AND SWAP3 SWAP2 PUSH1 0x20 SWAP2 SWAP1 DUP3 DUP3 PUSH1 0x24 DUP2 DUP9 GAS STATICCALL SWAP2 DUP3 ISZERO PUSH2 0x93F JUMPI DUP5 SWAP3 PUSH2 0x20F2 JUMPI JUMPDEST POP DUP2 ISZERO PUSH2 0x20AD JUMPI PUSH1 0xA SLOAD AND PUSH1 0x40 MLOAD SWAP3 PUSH4 0xA9059CBB PUSH1 0xE0 SHL SWAP1 DUP5 ADD MSTORE PUSH1 0x24 DUP4 ADD MSTORE PUSH1 0x44 DUP3 ADD MSTORE PUSH1 0x44 DUP2 MSTORE PUSH1 0x80 DUP2 ADD SWAP3 DUP2 DUP5 LT PUSH1 0x1 PUSH1 0x1 PUSH1 0x40 SHL SUB DUP6 GT OR PUSH2 0x2099 JUMPI PUSH2 0xFED SWAP3 SWAP4 PUSH1 0x40 MSTORE PUSH2 0x3B26 JUMP JUMPDEST PUSH4 0x4E487B71 PUSH1 0xE0 SHL DUP4 MSTORE PUSH1 0x41 PUSH1 0x4 MSTORE PUSH1 0x24 DUP4 REVERT JUMPDEST PUSH1 0x40 MLOAD PUSH3 0x461BCD PUSH1 0xE5 SHL DUP2 MSTORE PUSH1 0x4 DUP2 ADD DUP5 SWAP1 MSTORE PUSH1 0x1B PUSH1 0x24 DUP3 ADD MSTORE PUSH32 0x4E6F20455243323020746F6B656E7320746F2077697468647261770000000000 PUSH1 0x44 DUP3 ADD MSTORE PUSH1 0x64 SWAP1 REVERT JUMPDEST SWAP1 SWAP2 POP DUP3 DUP2 DUP2 RETURNDATASIZE DUP4 GT PUSH2 0x211A JUMPI JUMPDEST PUSH2 0x210A DUP2 DUP4 PUSH2 0x2CAE JUMP JUMPDEST DUP2 ADD SUB SLT PUSH2 0x115D JUMPI MLOAD SWAP1 CODESIZE PUSH2 0x204C JUMP JUMPDEST POP RETURNDATASIZE PUSH2 0x2100 JUMP JUMPDEST POP CALLVALUE PUSH2 0x318 JUMPI PUSH1 0x20 CALLDATASIZE PUSH1 0x3 NOT ADD SLT PUSH2 0x318 JUMPI PUSH1 0x4 CALLDATALOAD PUSH2 0x213E PUSH2 0x399E JUMP JUMPDEST PUSH2 0x2147 DUP2 PUSH2 0x2E82 JUMP JUMPDEST PUSH1 0x1 PUSH1 0x1 PUSH1 0xA0 SHL SUB SWAP3 SWAP1 PUSH2 0x215E SWAP1 DUP5 AND CALLER EQ PUSH2 0x3ADA JUMP JUMPDEST DUP2 DUP2 MSTORE PUSH1 0x17 PUSH1 0x20 MSTORE PUSH1 0x40 DUP2 KECCAK256 SWAP2 PUSH2 0x217C PUSH2 0x1E34 PUSH1 0xE DUP6 ADD SLOAD TIMESTAMP PUSH2 0x3585 JUMP JUMPDEST DUP1 PUSH2 0x2435 JUMPI JUMPDEST POP DUP1 DUP3 MSTORE PUSH1 0x17 PUSH1 0x20 MSTORE PUSH1 0x7 PUSH1 0x40 DUP4 KECCAK256 ADD SWAP3 DUP3 JUMPDEST DUP5 SLOAD DUP2 LT ISZERO PUSH2 0x242C JUMPI PUSH2 0x21B1 PUSH2 0x21AB DUP3 DUP8 PUSH2 0x3643 JUMP JUMPDEST POP PUSH2 0x3A82 JUMP JUMPDEST PUSH1 0x40 DUP2 ADD MLOAD TIMESTAMP LT PUSH2 0x241D JUMPI DUP7 PUSH1 0xD SLOAD AND SWAP1 DUP1 MLOAD SWAP1 DUP7 PUSH2 0x21F5 PUSH1 0x20 DUP4 ADD SWAP5 DUP6 MLOAD SWAP5 PUSH1 0x40 MLOAD DUP1 SWAP7 DUP2 SWAP5 DUP3 SWAP4 PUSH4 0x244D87AD PUSH1 0xE1 SHL DUP5 MSTORE PUSH1 0x40 PUSH1 0x4 DUP6 ADD MSTORE PUSH1 0x44 DUP5 ADD SWAP1 PUSH2 0x2B85 JUMP JUMPDEST SWAP1 PUSH1 0x24 DUP4 ADD MSTORE SUB SWAP2 GAS STATICCALL SWAP2 DUP3 ISZERO PUSH2 0x2412 JUMPI DUP8 SWAP3 PUSH2 0x23F6 JUMPI JUMPDEST POP PUSH32 0xAEAFB1E363DC235E7BCE50A1A03B55EE1485CFC2B7626884EE98A834C84EB607 PUSH2 0x22C3 PUSH1 0x80 DUP5 ADD MLOAD SWAP5 PUSH1 0x1 SWAP6 PUSH2 0x2249 DUP8 DUP11 ADD SWAP2 DUP3 SLOAD PUSH2 0x35F5 JUMP JUMPDEST SWAP1 SSTORE PUSH2 0x100 PUSH1 0xA0 DUP7 ADD MLOAD SWAP6 PUSH1 0x2 SWAP7 PUSH2 0x2265 DUP9 DUP13 ADD SWAP2 DUP3 SLOAD PUSH2 0x35F5 JUMP JUMPDEST SWAP1 SSTORE ADD MLOAD SWAP4 PUSH1 0x5 SWAP5 PUSH2 0x227B DUP7 DUP12 ADD SWAP2 DUP3 SLOAD PUSH2 0x35F5 JUMP JUMPDEST SWAP1 SSTORE PUSH2 0x22A7 DUP2 MLOAD DUP4 MLOAD PUSH1 0x40 MLOAD SWAP2 PUSH2 0x2291 DUP4 PUSH2 0x2C5D JUMP JUMPDEST DUP3 MSTORE PUSH1 0x20 DUP3 ADD MSTORE DUP9 PUSH1 0x40 DUP3 ADD MSTORE PUSH1 0x6 DUP12 ADD PUSH2 0x36BD JUMP JUMPDEST MLOAD SWAP1 MLOAD PUSH1 0x40 MLOAD SWAP3 DUP4 SWAP3 DUP12 DUP5 MSTORE PUSH1 0x60 DUP1 PUSH1 0x20 DUP7 ADD MSTORE DUP5 ADD SWAP1 PUSH2 0x2B85 JUMP JUMPDEST SWAP1 PUSH1 0x40 DUP4 ADD MSTORE SUB SWAP1 LOG1 DUP8 SLOAD PUSH1 0x0 NOT SWAP1 DUP2 DUP2 ADD SWAP1 DUP2 GT PUSH2 0x23E2 JUMPI PUSH2 0x22E6 SWAP1 DUP11 PUSH2 0x3643 JUMP JUMPDEST POP PUSH2 0x22F1 DUP7 DUP12 PUSH2 0x3643 JUMP JUMPDEST SWAP2 SWAP1 SWAP2 PUSH2 0x23CE JUMPI DUP1 DUP6 SWAP2 DUP4 SUB PUSH2 0x23AD JUMPI JUMPDEST POP POP POP DUP9 SLOAD DUP1 ISZERO PUSH2 0x2399 JUMPI ADD SWAP3 PUSH2 0x2319 DUP5 DUP11 PUSH2 0x3643 JUMP JUMPDEST SWAP3 SWAP1 SWAP3 PUSH2 0x2385 JUMPI DUP3 SWAP2 DUP10 DUP1 SWAP6 SWAP5 SWAP3 PUSH2 0x2332 DUP3 SWAP5 SLOAD PUSH2 0x2EA8 JUMP JUMPDEST SWAP1 DUP2 PUSH2 0x2348 JUMPI JUMPDEST POP POP POP DUP3 ADD SSTORE ADD SSTORE DUP6 SSTORE PUSH2 0x2195 JUMP JUMPDEST PUSH1 0x1F SWAP1 DUP2 DUP4 GT PUSH1 0x1 EQ PUSH2 0x2363 JUMPI POP POP POP DUP4 SSTORE JUMPDEST DUP2 CODESIZE DUP1 PUSH2 0x2339 JUMP JUMPDEST PUSH2 0x237C SWAP2 DUP8 DUP6 MSTORE PUSH1 0x20 DUP6 KECCAK256 SWAP4 ADD SWAP1 SHR DUP3 ADD DUP5 DUP4 ADD PUSH2 0x365F JUMP JUMPDEST DUP2 DUP6 SSTORE SSTORE PUSH2 0x235B JUMP JUMPDEST PUSH4 0x4E487B71 PUSH1 0xE0 SHL DUP10 MSTORE PUSH1 0x4 DUP10 SWAP1 MSTORE PUSH1 0x24 DUP10 REVERT JUMPDEST PUSH4 0x4E487B71 PUSH1 0xE0 SHL DUP10 MSTORE PUSH1 0x31 PUSH1 0x4 MSTORE PUSH1 0x24 DUP10 REVERT JUMPDEST DUP1 PUSH2 0x23B9 DUP4 SWAP3 DUP6 PUSH2 0x3CAC JUMP JUMPDEST DUP8 DUP2 ADD SLOAD DUP9 DUP6 ADD SSTORE ADD SLOAD SWAP2 ADD SSTORE CODESIZE DUP4 DUP2 PUSH2 0x2302 JUMP JUMPDEST PUSH4 0x4E487B71 PUSH1 0xE0 SHL DUP11 MSTORE PUSH1 0x4 DUP11 SWAP1 MSTORE PUSH1 0x24 DUP11 REVERT JUMPDEST PUSH4 0x4E487B71 PUSH1 0xE0 SHL DUP10 MSTORE PUSH1 0x11 PUSH1 0x4 MSTORE PUSH1 0x24 DUP10 REVERT JUMPDEST PUSH2 0x240B SWAP2 SWAP3 POP RETURNDATASIZE DUP1 DUP10 DUP4 RETURNDATACOPY PUSH2 0x909 DUP2 DUP4 PUSH2 0x2CAE JUMP JUMPDEST SWAP1 CODESIZE PUSH2 0x220D JUMP JUMPDEST PUSH1 0x40 MLOAD RETURNDATASIZE DUP10 DUP3 RETURNDATACOPY RETURNDATASIZE SWAP1 REVERT JUMPDEST POP PUSH2 0x2427 SWAP1 PUSH2 0x3AB8 JUMP JUMPDEST PUSH2 0x2195 JUMP JUMPDEST DUP4 PUSH1 0x1 PUSH1 0xB SSTORE DUP1 RETURN JUMPDEST PUSH2 0x243F SWAP1 DUP3 PUSH2 0x3E8D JUMP JUMPDEST CODESIZE PUSH2 0x2182 JUMP JUMPDEST POP CALLVALUE PUSH2 0x318 JUMPI PUSH2 0xFED PUSH2 0x2457 CALLDATASIZE PUSH2 0x2BDB JUMP JUMPDEST SWAP2 PUSH2 0x2465 PUSH2 0xFD8 DUP5 CALLER PUSH2 0x308F JUMP JUMPDEST PUSH2 0x3157 JUMP JUMPDEST POP CALLVALUE PUSH2 0x318 JUMPI DUP1 PUSH1 0x3 NOT CALLDATASIZE ADD SLT PUSH2 0x318 JUMPI PUSH1 0x20 PUSH1 0x8 SLOAD PUSH1 0x40 MLOAD SWAP1 DUP2 MSTORE RETURN JUMPDEST POP CALLVALUE PUSH2 0x318 JUMPI PUSH1 0x40 CALLDATASIZE PUSH1 0x3 NOT ADD SLT PUSH2 0x318 JUMPI PUSH2 0x24A2 PUSH2 0x2BAA JUMP JUMPDEST PUSH1 0x24 CALLDATALOAD SWAP1 PUSH1 0x1 PUSH1 0x1 PUSH1 0xA0 SHL SUB DUP1 DUP1 PUSH2 0x24B9 DUP6 PUSH2 0x2E82 JUMP JUMPDEST AND SWAP3 AND SWAP2 DUP1 DUP4 EQ PUSH2 0x25AE JUMPI DUP1 CALLER EQ SWAP1 DUP2 ISZERO PUSH2 0x258D JUMPI JUMPDEST POP ISZERO PUSH2 0x2522 JUMPI DUP3 DUP5 MSTORE PUSH1 0x4 PUSH1 0x20 MSTORE PUSH1 0x40 DUP5 KECCAK256 DUP1 SLOAD PUSH1 0x1 PUSH1 0x1 PUSH1 0xA0 SHL SUB NOT AND DUP4 OR SWAP1 SSTORE PUSH2 0x24FA DUP4 PUSH2 0x2E82 JUMP JUMPDEST AND PUSH32 0x8C5BE1E5EBEC7D5BD14F71427D1E84F3DD0314C0F7B2291E5B200AC8C7C3B925 DUP5 DUP1 LOG4 DUP1 RETURN JUMPDEST PUSH1 0x40 MLOAD PUSH3 0x461BCD PUSH1 0xE5 SHL DUP2 MSTORE PUSH1 0x20 PUSH1 0x4 DUP3 ADD MSTORE PUSH1 0x3D PUSH1 0x24 DUP3 ADD MSTORE PUSH32 0x4552433732313A20617070726F76652063616C6C6572206973206E6F7420746F PUSH1 0x44 DUP3 ADD MSTORE PUSH32 0x6B656E206F776E6572206F7220617070726F76656420666F7220616C6C000000 PUSH1 0x64 DUP3 ADD MSTORE PUSH1 0x84 SWAP1 REVERT JUMPDEST SWAP1 POP DUP5 MSTORE PUSH1 0x5 PUSH1 0x20 MSTORE PUSH1 0x40 DUP5 KECCAK256 CALLER DUP6 MSTORE PUSH1 0x20 MSTORE PUSH1 0xFF PUSH1 0x40 DUP6 KECCAK256 SLOAD AND CODESIZE PUSH2 0x24CF JUMP JUMPDEST PUSH1 0x40 MLOAD PUSH3 0x461BCD PUSH1 0xE5 SHL DUP2 MSTORE PUSH1 0x20 PUSH1 0x4 DUP3 ADD MSTORE PUSH1 0x21 PUSH1 0x24 DUP3 ADD MSTORE PUSH32 0x4552433732313A20617070726F76616C20746F2063757272656E74206F776E65 PUSH1 0x44 DUP3 ADD MSTORE PUSH1 0x39 PUSH1 0xF9 SHL PUSH1 0x64 DUP3 ADD MSTORE PUSH1 0x84 SWAP1 REVERT JUMPDEST POP CALLVALUE PUSH2 0x318 JUMPI PUSH1 0x20 CALLDATASIZE PUSH1 0x3 NOT ADD SLT PUSH2 0x318 JUMPI PUSH1 0x20 PUSH2 0x1A9B PUSH1 0x4 CALLDATALOAD PUSH2 0x2F78 JUMP JUMPDEST POP CALLVALUE PUSH2 0x318 JUMPI DUP1 PUSH1 0x3 NOT CALLDATASIZE ADD SLT PUSH2 0x318 JUMPI PUSH1 0x20 PUSH1 0x15 SLOAD PUSH1 0x40 MLOAD SWAP1 DUP2 MSTORE RETURN JUMPDEST POP CALLVALUE PUSH2 0x318 JUMPI DUP1 PUSH1 0x3 NOT CALLDATASIZE ADD SLT PUSH2 0x318 JUMPI PUSH1 0x40 MLOAD SWAP1 DUP1 DUP1 SLOAD PUSH2 0x265B DUP2 PUSH2 0x2EA8 JUMP JUMPDEST DUP1 DUP6 MSTORE SWAP2 PUSH1 0x1 SWAP2 DUP1 DUP4 AND SWAP1 DUP2 ISZERO PUSH2 0x13C9 JUMPI POP PUSH1 0x1 EQ PUSH2 0x2684 JUMPI PUSH2 0xF68 DUP6 PUSH2 0x135B DUP2 DUP8 SUB DUP3 PUSH2 0x2CAE JUMP JUMPDEST DUP1 DUP1 SWAP5 POP MSTORE PUSH32 0x290DECD9548B62A8D60345A988386FC84BA6BC95484008F6362F93160EF3E563 JUMPDEST DUP3 DUP5 LT PUSH2 0x26C6 JUMPI POP POP POP DUP2 ADD PUSH1 0x20 ADD PUSH2 0x135B DUP3 PUSH2 0xF68 PUSH2 0x134B JUMP JUMPDEST DUP1 SLOAD PUSH1 0x20 DUP6 DUP8 ADD DUP2 ADD SWAP2 SWAP1 SWAP2 MSTORE SWAP1 SWAP4 ADD SWAP3 DUP2 ADD PUSH2 0x26AB JUMP JUMPDEST POP CALLVALUE PUSH2 0x318 JUMPI PUSH1 0x20 CALLDATASIZE PUSH1 0x3 NOT ADD SLT PUSH2 0x318 JUMPI PUSH2 0x26F8 PUSH2 0x2BAA JUMP JUMPDEST PUSH2 0x2700 PUSH2 0x2D67 JUMP JUMPDEST PUSH1 0xE SLOAD SWAP1 PUSH1 0x1 PUSH1 0x1 PUSH1 0xA0 SHL SUB SWAP1 DUP2 DUP4 AND PUSH2 0x2729 JUMPI AND SWAP1 PUSH1 0x1 PUSH1 0x1 PUSH1 0x60 SHL SUB PUSH1 0xA0 SHL AND OR PUSH1 0xE SSTORE DUP1 RETURN JUMPDEST PUSH1 0x40 MLOAD PUSH3 0x461BCD PUSH1 0xE5 SHL DUP2 MSTORE PUSH1 0x20 PUSH1 0x4 DUP3 ADD MSTORE PUSH1 0x17 PUSH1 0x24 DUP3 ADD MSTORE PUSH32 0x4D6170436F6E747261637420616C726561647920736574000000000000000000 PUSH1 0x44 DUP3 ADD MSTORE PUSH1 0x64 SWAP1 REVERT JUMPDEST POP CALLVALUE PUSH2 0x318 JUMPI PUSH1 0x20 CALLDATASIZE PUSH1 0x3 NOT ADD SLT PUSH2 0x318 JUMPI PUSH1 0x4 CALLDATALOAD PUSH4 0xFFFFFFFF PUSH1 0xE0 SHL DUP2 AND DUP1 SWAP2 SUB PUSH2 0xD7A JUMPI PUSH1 0x20 SWAP1 PUSH4 0x780E9D63 PUSH1 0xE0 SHL DUP2 EQ SWAP1 DUP2 ISZERO PUSH2 0x27B4 JUMPI JUMPDEST POP PUSH1 0x40 MLOAD SWAP1 ISZERO ISZERO DUP2 MSTORE RETURN JUMPDEST PUSH4 0x80AC58CD PUSH1 0xE0 SHL DUP2 EQ SWAP2 POP DUP2 ISZERO PUSH2 0x27E6 JUMPI JUMPDEST DUP2 ISZERO PUSH2 0x27D5 JUMPI JUMPDEST POP DUP3 PUSH2 0x27A9 JUMP JUMPDEST PUSH4 0x1FFC9A7 PUSH1 0xE0 SHL EQ SWAP1 POP DUP3 PUSH2 0x27CE JUMP JUMPDEST PUSH4 0x5B5E139F PUSH1 0xE0 SHL DUP2 EQ SWAP2 POP PUSH2 0x27C7 JUMP JUMPDEST SWAP1 POP CALLVALUE PUSH2 0xD7A JUMPI PUSH1 0x20 CALLDATASIZE PUSH1 0x3 NOT ADD SLT PUSH2 0xD7A JUMPI DUP2 PUSH2 0x120 PUSH1 0x4 CALLDATALOAD SWAP3 PUSH2 0x281B DUP2 PUSH2 0x2C10 JUMP JUMPDEST DUP3 DUP2 MSTORE DUP3 PUSH1 0x20 DUP3 ADD MSTORE DUP3 PUSH1 0x40 DUP3 ADD MSTORE DUP3 PUSH1 0x60 DUP3 ADD MSTORE DUP3 PUSH1 0x80 DUP3 ADD MSTORE DUP3 PUSH1 0xA0 DUP3 ADD MSTORE PUSH1 0x60 PUSH1 0xC0 DUP3 ADD MSTORE PUSH1 0x60 PUSH1 0xE0 DUP3 ADD MSTORE PUSH1 0x40 MLOAD PUSH2 0x2856 DUP2 PUSH2 0x2C42 JUMP JUMPDEST DUP4 DUP2 MSTORE DUP4 PUSH1 0x20 DUP3 ADD MSTORE DUP4 PUSH1 0x40 DUP3 ADD MSTORE DUP4 PUSH1 0x60 DUP3 ADD MSTORE DUP4 PUSH1 0x80 DUP3 ADD MSTORE DUP4 PUSH1 0xA0 DUP3 ADD MSTORE PUSH2 0x100 DUP3 ADD MSTORE ADD MSTORE PUSH2 0x28A1 PUSH2 0x1221 DUP3 PUSH1 0x0 MSTORE PUSH1 0x2 PUSH1 0x20 MSTORE PUSH1 0x1 DUP1 PUSH1 0xA0 SHL SUB PUSH1 0x40 PUSH1 0x0 KECCAK256 SLOAD AND ISZERO ISZERO SWAP1 JUMP JUMPDEST DUP2 MSTORE PUSH1 0x17 PUSH1 0x20 MSTORE PUSH1 0x40 DUP2 KECCAK256 SWAP1 PUSH1 0x40 MLOAD SWAP1 PUSH2 0x28BA DUP3 PUSH2 0x2C10 JUMP JUMPDEST DUP3 SLOAD DUP3 MSTORE PUSH1 0x1 DUP4 ADD SLOAD PUSH1 0x20 DUP4 ADD MSTORE PUSH1 0x2 DUP4 ADD SLOAD PUSH1 0x40 DUP4 ADD MSTORE PUSH1 0x3 DUP4 ADD SLOAD PUSH1 0x60 DUP4 ADD MSTORE PUSH1 0x4 DUP4 ADD SLOAD PUSH1 0x80 DUP4 ADD MSTORE PUSH1 0x5 DUP4 ADD SLOAD PUSH1 0xA0 DUP4 ADD MSTORE PUSH1 0x6 DUP4 ADD DUP1 SLOAD PUSH2 0x28FF DUP2 PUSH2 0x3618 JUMP JUMPDEST SWAP2 PUSH2 0x290D PUSH1 0x40 MLOAD SWAP4 DUP5 PUSH2 0x2CAE JUMP JUMPDEST DUP2 DUP4 MSTORE DUP4 MSTORE PUSH1 0x20 DUP1 DUP5 KECCAK256 DUP5 SWAP2 DUP5 ADD JUMPDEST DUP4 DUP4 LT PUSH2 0x2B44 JUMPI POP POP POP POP PUSH1 0xC0 DUP4 ADD MSTORE PUSH1 0x7 DUP4 ADD SWAP3 DUP4 SLOAD PUSH2 0x293C DUP2 PUSH2 0x3618 JUMP JUMPDEST SWAP1 PUSH2 0x294A PUSH1 0x40 MLOAD SWAP3 DUP4 PUSH2 0x2CAE JUMP JUMPDEST DUP1 DUP3 MSTORE PUSH1 0x20 DUP3 ADD SWAP6 DUP5 MSTORE PUSH1 0x20 DUP5 KECCAK256 SWAP6 DUP5 SWAP1 JUMPDEST DUP3 DUP3 LT PUSH2 0x2B26 JUMPI POP POP POP PUSH1 0xE0 DUP5 ADD MSTORE PUSH1 0xE SWAP1 PUSH2 0x297A PUSH1 0x8 DUP3 ADD PUSH2 0x2CCF JUMP JUMPDEST PUSH2 0x100 DUP6 ADD MSTORE ADD SLOAD PUSH2 0x120 DUP4 ADD MSTORE PUSH1 0x40 MLOAD SWAP1 PUSH1 0x20 DUP3 MSTORE PUSH2 0x200 DUP3 ADD DUP4 MLOAD PUSH1 0x20 DUP5 ADD MSTORE PUSH1 0x20 DUP5 ADD MLOAD PUSH1 0x40 DUP5 ADD MSTORE PUSH1 0x40 DUP5 ADD MLOAD PUSH1 0x60 DUP5 ADD MSTORE PUSH1 0x60 DUP5 ADD MLOAD PUSH1 0x80 DUP5 ADD MSTORE PUSH1 0x80 DUP5 ADD MLOAD PUSH1 0xA0 DUP5 ADD MSTORE PUSH1 0xA0 DUP5 ADD MLOAD PUSH1 0xC0 DUP5 ADD MSTORE PUSH1 0xC0 DUP5 ADD MLOAD SWAP2 PUSH2 0x1E0 SWAP2 DUP3 PUSH1 0xE0 DUP7 ADD MSTORE DUP4 MLOAD DUP1 SWAP2 MSTORE PUSH2 0x220 SWAP1 PUSH1 0x20 DUP3 DUP8 ADD SWAP3 DUP3 PUSH1 0x5 SHL DUP9 ADD ADD SWAP6 ADD SWAP2 DUP4 SWAP1 JUMPDEST DUP3 DUP3 LT PUSH2 0x2ADB JUMPI POP POP POP POP PUSH1 0xE0 DUP6 ADD MLOAD SWAP3 PUSH1 0x1F NOT SWAP1 DUP2 DUP7 DUP3 SUB ADD PUSH2 0x100 DUP8 ADD MSTORE DUP5 MLOAD SWAP2 DUP3 DUP3 MSTORE PUSH1 0x20 DUP3 ADD SWAP1 PUSH1 0x20 DUP1 DUP6 PUSH1 0x5 SHL DUP6 ADD ADD SWAP8 ADD SWAP5 SWAP3 JUMPDEST DUP5 DUP5 LT PUSH2 0x2A91 JUMPI DUP9 DUP1 DUP10 DUP10 PUSH2 0x120 DUP15 PUSH2 0x2A87 PUSH2 0x100 DUP3 ADD MLOAD DUP4 DUP8 ADD SWAP1 PUSH1 0xA0 DUP1 SWAP2 DUP1 MLOAD DUP5 MSTORE PUSH1 0x20 DUP2 ADD MLOAD PUSH1 0x20 DUP6 ADD MSTORE PUSH1 0x40 DUP2 ADD MLOAD PUSH1 0x40 DUP6 ADD MSTORE PUSH1 0x60 DUP2 ADD MLOAD PUSH1 0x60 DUP6 ADD MSTORE PUSH1 0x80 DUP2 ADD MLOAD PUSH1 0x80 DUP6 ADD MSTORE ADD MLOAD SWAP2 ADD MSTORE JUMP JUMPDEST ADD MLOAD SWAP1 DUP4 ADD MSTORE SUB SWAP1 RETURN JUMPDEST SWAP1 SWAP2 SWAP3 SWAP4 SWAP5 SWAP7 PUSH1 0x20 DUP1 DUP3 DUP6 DUP6 PUSH1 0x1 SWAP6 SUB ADD DUP8 MSTORE DUP11 MLOAD SWAP1 PUSH1 0x40 DUP1 PUSH2 0x2ABD DUP5 MLOAD PUSH1 0x60 DUP6 MSTORE PUSH1 0x60 DUP6 ADD SWAP1 PUSH2 0x2B85 JUMP JUMPDEST SWAP4 DUP6 DUP2 ADD MLOAD DUP7 DUP6 ADD MSTORE ADD MLOAD SWAP2 ADD MSTORE SWAP10 ADD SWAP5 ADD SWAP5 ADD SWAP3 SWAP5 SWAP4 SWAP2 SWAP1 PUSH2 0x2A34 JUMP JUMPDEST SWAP1 SWAP2 SWAP3 SWAP6 PUSH1 0x20 DUP1 PUSH1 0x1 SWAP3 PUSH2 0x21F NOT DUP12 DUP3 SUB ADD DUP6 MSTORE DUP10 MLOAD SWAP1 PUSH1 0x40 DUP1 PUSH2 0x2B08 DUP5 MLOAD PUSH1 0x60 DUP6 MSTORE PUSH1 0x60 DUP6 ADD SWAP1 PUSH2 0x2B85 JUMP JUMPDEST SWAP4 DUP6 DUP2 ADD MLOAD DUP7 DUP6 ADD MSTORE ADD MLOAD ISZERO ISZERO SWAP2 ADD MSTORE SWAP9 ADD SWAP3 ADD SWAP3 ADD SWAP1 SWAP3 SWAP2 PUSH2 0x29FA JUMP JUMPDEST PUSH1 0x3 PUSH1 0x20 PUSH1 0x1 SWAP3 PUSH2 0x2B36 DUP12 PUSH2 0x3A82 JUMP JUMPDEST DUP2 MSTORE ADD SWAP9 ADD SWAP2 ADD SWAP1 SWAP7 PUSH2 0x295C JUMP JUMPDEST PUSH1 0x3 PUSH1 0x20 PUSH1 0x1 SWAP3 PUSH2 0x2B54 DUP6 PUSH2 0x3A40 JUMP JUMPDEST DUP2 MSTORE ADD SWAP3 ADD SWAP3 ADD SWAP2 SWAP1 PUSH2 0x291C JUMP JUMPDEST PUSH1 0x0 JUMPDEST DUP4 DUP2 LT PUSH2 0x2B75 JUMPI POP POP PUSH1 0x0 SWAP2 ADD MSTORE JUMP JUMPDEST DUP2 DUP2 ADD MLOAD DUP4 DUP3 ADD MSTORE PUSH1 0x20 ADD PUSH2 0x2B65 JUMP JUMPDEST SWAP1 PUSH1 0x20 SWAP2 PUSH2 0x2B9E DUP2 MLOAD DUP1 SWAP3 DUP2 DUP6 MSTORE DUP6 DUP1 DUP7 ADD SWAP2 ADD PUSH2 0x2B62 JUMP JUMPDEST PUSH1 0x1F ADD PUSH1 0x1F NOT AND ADD ADD SWAP1 JUMP JUMPDEST PUSH1 0x4 CALLDATALOAD SWAP1 PUSH1 0x1 PUSH1 0x1 PUSH1 0xA0 SHL SUB DUP3 AND DUP3 SUB PUSH2 0x2BC0 JUMPI JUMP JUMPDEST PUSH1 0x0 DUP1 REVERT JUMPDEST PUSH1 0x24 CALLDATALOAD SWAP1 PUSH1 0x1 PUSH1 0x1 PUSH1 0xA0 SHL SUB DUP3 AND DUP3 SUB PUSH2 0x2BC0 JUMPI JUMP JUMPDEST PUSH1 0x60 SWAP1 PUSH1 0x3 NOT ADD SLT PUSH2 0x2BC0 JUMPI PUSH1 0x1 PUSH1 0x1 PUSH1 0xA0 SHL SUB SWAP1 PUSH1 0x4 CALLDATALOAD DUP3 DUP2 AND DUP2 SUB PUSH2 0x2BC0 JUMPI SWAP2 PUSH1 0x24 CALLDATALOAD SWAP1 DUP2 AND DUP2 SUB PUSH2 0x2BC0 JUMPI SWAP1 PUSH1 0x44 CALLDATALOAD SWAP1 JUMP JUMPDEST PUSH2 0x140 DUP2 ADD SWAP1 DUP2 LT PUSH1 0x1 PUSH1 0x1 PUSH1 0x40 SHL SUB DUP3 GT OR PUSH2 0x2C2C JUMPI PUSH1 0x40 MSTORE JUMP JUMPDEST PUSH4 0x4E487B71 PUSH1 0xE0 SHL PUSH1 0x0 MSTORE PUSH1 0x41 PUSH1 0x4 MSTORE PUSH1 0x24 PUSH1 0x0 REVERT JUMPDEST PUSH1 0xC0 DUP2 ADD SWAP1 DUP2 LT PUSH1 0x1 PUSH1 0x1 PUSH1 0x40 SHL SUB DUP3 GT OR PUSH2 0x2C2C JUMPI PUSH1 0x40 MSTORE JUMP JUMPDEST PUSH1 0x60 DUP2 ADD SWAP1 DUP2 LT PUSH1 0x1 PUSH1 0x1 PUSH1 0x40 SHL SUB DUP3 GT OR PUSH2 0x2C2C JUMPI PUSH1 0x40 MSTORE JUMP JUMPDEST PUSH1 0x20 DUP2 ADD SWAP1 DUP2 LT PUSH1 0x1 PUSH1 0x1 PUSH1 0x40 SHL SUB DUP3 GT OR PUSH2 0x2C2C JUMPI PUSH1 0x40 MSTORE JUMP JUMPDEST PUSH1 0x40 DUP2 ADD SWAP1 DUP2 LT PUSH1 0x1 PUSH1 0x1 PUSH1 0x40 SHL SUB DUP3 GT OR PUSH2 0x2C2C JUMPI PUSH1 0x40 MSTORE JUMP JUMPDEST SWAP1 PUSH1 0x1F DUP1 NOT SWAP2 ADD AND DUP2 ADD SWAP1 DUP2 LT PUSH1 0x1 PUSH1 0x1 PUSH1 0x40 SHL SUB DUP3 GT OR PUSH2 0x2C2C JUMPI PUSH1 0x40 MSTORE JUMP JUMPDEST SWAP1 PUSH1 0x40 MLOAD PUSH2 0x2CDC DUP2 PUSH2 0x2C42 JUMP JUMPDEST PUSH1 0xA0 PUSH1 0x5 DUP3 SWAP5 DUP1 SLOAD DUP5 MSTORE PUSH1 0x1 DUP2 ADD SLOAD PUSH1 0x20 DUP6 ADD MSTORE PUSH1 0x2 DUP2 ADD SLOAD PUSH1 0x40 DUP6 ADD MSTORE PUSH1 0x3 DUP2 ADD SLOAD PUSH1 0x60 DUP6 ADD MSTORE PUSH1 0x4 DUP2 ADD SLOAD PUSH1 0x80 DUP6 ADD MSTORE ADD SLOAD SWAP2 ADD MSTORE JUMP JUMPDEST PUSH1 0x1 PUSH1 0x1 PUSH1 0x40 SHL SUB DUP2 GT PUSH2 0x2C2C JUMPI PUSH1 0x1F ADD PUSH1 0x1F NOT AND PUSH1 0x20 ADD SWAP1 JUMP JUMPDEST SWAP3 SWAP2 SWAP3 PUSH2 0x2D3C DUP3 PUSH2 0x2D15 JUMP JUMPDEST SWAP2 PUSH2 0x2D4A PUSH1 0x40 MLOAD SWAP4 DUP5 PUSH2 0x2CAE JUMP JUMPDEST DUP3 SWAP5 DUP2 DUP5 MSTORE DUP2 DUP4 ADD GT PUSH2 0x2BC0 JUMPI DUP3 DUP2 PUSH1 0x20 SWAP4 DUP5 PUSH1 0x0 SWAP7 ADD CALLDATACOPY ADD ADD MSTORE JUMP JUMPDEST PUSH1 0xA SLOAD PUSH1 0x1 PUSH1 0x1 PUSH1 0xA0 SHL SUB AND CALLER SUB PUSH2 0x2D7B JUMPI JUMP JUMPDEST PUSH1 0x64 PUSH1 0x40 MLOAD PUSH3 0x461BCD PUSH1 0xE5 SHL DUP2 MSTORE PUSH1 0x20 PUSH1 0x4 DUP3 ADD MSTORE PUSH1 0x20 PUSH1 0x24 DUP3 ADD MSTORE PUSH32 0x4F776E61626C653A2063616C6C6572206973206E6F7420746865206F776E6572 PUSH1 0x44 DUP3 ADD MSTORE REVERT JUMPDEST PUSH1 0x1 PUSH1 0x1 PUSH1 0xA0 SHL SUB AND DUP1 ISZERO PUSH2 0x2DDF JUMPI PUSH1 0x0 MSTORE PUSH1 0x3 PUSH1 0x20 MSTORE PUSH1 0x40 PUSH1 0x0 KECCAK256 SLOAD SWAP1 JUMP JUMPDEST PUSH1 0x40 MLOAD PUSH3 0x461BCD PUSH1 0xE5 SHL DUP2 MSTORE PUSH1 0x20 PUSH1 0x4 DUP3 ADD MSTORE PUSH1 0x29 PUSH1 0x24 DUP3 ADD MSTORE PUSH32 0x4552433732313A2061646472657373207A65726F206973206E6F742061207661 PUSH1 0x44 DUP3 ADD MSTORE PUSH9 0x3634B21037BBB732B9 PUSH1 0xB9 SHL PUSH1 0x64 DUP3 ADD MSTORE PUSH1 0x84 SWAP1 REVERT JUMPDEST ISZERO PUSH2 0x2E3D JUMPI JUMP JUMPDEST PUSH1 0x40 MLOAD PUSH3 0x461BCD PUSH1 0xE5 SHL DUP2 MSTORE PUSH1 0x20 PUSH1 0x4 DUP3 ADD MSTORE PUSH1 0x18 PUSH1 0x24 DUP3 ADD MSTORE PUSH32 0x4552433732313A20696E76616C696420746F6B656E2049440000000000000000 PUSH1 0x44 DUP3 ADD MSTORE PUSH1 0x64 SWAP1 REVERT JUMPDEST PUSH1 0x0 SWAP1 DUP2 MSTORE PUSH1 0x2 PUSH1 0x20 MSTORE PUSH1 0x40 SWAP1 KECCAK256 SLOAD PUSH1 0x1 PUSH1 0x1 PUSH1 0xA0 SHL SUB AND PUSH2 0x2EA5 DUP2 ISZERO ISZERO PUSH2 0x2E36 JUMP JUMPDEST SWAP1 JUMP JUMPDEST SWAP1 PUSH1 0x1 DUP3 DUP2 SHR SWAP3 AND DUP1 ISZERO PUSH2 0x2ED8 JUMPI JUMPDEST PUSH1 0x20 DUP4 LT EQ PUSH2 0x2EC2 JUMPI JUMP JUMPDEST PUSH4 0x4E487B71 PUSH1 0xE0 SHL PUSH1 0x0 MSTORE PUSH1 0x22 PUSH1 0x4 MSTORE PUSH1 0x24 PUSH1 0x0 REVERT JUMPDEST SWAP2 PUSH1 0x7F AND SWAP2 PUSH2 0x2EB7 JUMP JUMPDEST SWAP1 PUSH1 0x0 SWAP3 SWAP2 DUP1 SLOAD SWAP2 PUSH2 0x2EF3 DUP4 PUSH2 0x2EA8 JUMP JUMPDEST SWAP2 DUP3 DUP3 MSTORE PUSH1 0x1 SWAP4 DUP5 DUP2 AND SWAP1 DUP2 PUSH1 0x0 EQ PUSH2 0x2F55 JUMPI POP PUSH1 0x1 EQ PUSH2 0x2F15 JUMPI JUMPDEST POP POP POP POP JUMP JUMPDEST SWAP1 SWAP2 SWAP4 SWAP5 POP PUSH1 0x0 MSTORE PUSH1 0x20 SWAP3 DUP4 PUSH1 0x0 KECCAK256 SWAP3 DUP5 PUSH1 0x0 SWAP5 JUMPDEST DUP4 DUP7 LT PUSH2 0x2F41 JUMPI POP POP POP POP ADD ADD SWAP1 CODESIZE DUP1 DUP1 DUP1 PUSH2 0x2F0F JUMP JUMPDEST DUP1 SLOAD DUP6 DUP8 ADD DUP4 ADD MSTORE SWAP5 ADD SWAP4 DUP6 SWAP1 DUP3 ADD PUSH2 0x2F2A JUMP JUMPDEST SWAP3 SWAP5 POP POP POP PUSH1 0x20 SWAP4 SWAP5 POP PUSH1 0xFF NOT AND DUP4 DUP4 ADD MSTORE ISZERO ISZERO PUSH1 0x5 SHL ADD ADD SWAP1 CODESIZE DUP1 DUP1 DUP1 PUSH2 0x2F0F JUMP JUMPDEST PUSH1 0x0 DUP2 DUP2 MSTORE PUSH1 0x2 PUSH1 0x20 MSTORE PUSH1 0x40 SWAP1 KECCAK256 SLOAD PUSH2 0x2F9B SWAP1 PUSH1 0x1 PUSH1 0x1 PUSH1 0xA0 SHL SUB AND ISZERO ISZERO PUSH2 0x2E36 JUMP JUMPDEST PUSH1 0x0 SWAP1 DUP2 MSTORE PUSH1 0x4 PUSH1 0x20 MSTORE PUSH1 0x40 SWAP1 KECCAK256 SLOAD PUSH1 0x1 PUSH1 0x1 PUSH1 0xA0 SHL SUB AND SWAP1 JUMP JUMPDEST ISZERO PUSH2 0x2FBD JUMPI JUMP JUMPDEST PUSH1 0x40 MLOAD PUSH3 0x461BCD PUSH1 0xE5 SHL DUP2 MSTORE PUSH1 0x20 PUSH1 0x4 DUP3 ADD MSTORE PUSH1 0x2D PUSH1 0x24 DUP3 ADD MSTORE PUSH32 0x4552433732313A2063616C6C6572206973206E6F7420746F6B656E206F776E65 PUSH1 0x44 DUP3 ADD MSTORE PUSH13 0x1C881BDC88185C1C1C9BDD9959 PUSH1 0x9A SHL PUSH1 0x64 DUP3 ADD MSTORE PUSH1 0x84 SWAP1 REVERT JUMPDEST PUSH1 0x80 SWAP1 PUSH1 0x20 DUP2 MSTORE PUSH1 0x32 PUSH1 0x20 DUP3 ADD MSTORE PUSH32 0x4552433732313A207472616E7366657220746F206E6F6E204552433732315265 PUSH1 0x40 DUP3 ADD MSTORE PUSH18 0x31B2B4BB32B91034B6B83632B6B2B73A32B9 PUSH1 0x71 SHL PUSH1 0x60 DUP3 ADD MSTORE ADD SWAP1 JUMP JUMPDEST ISZERO PUSH2 0x3072 JUMPI JUMP JUMPDEST PUSH1 0x40 MLOAD PUSH3 0x461BCD PUSH1 0xE5 SHL DUP2 MSTORE DUP1 PUSH2 0x308B PUSH1 0x4 DUP3 ADD PUSH2 0x3018 JUMP JUMPDEST SUB SWAP1 REVERT JUMPDEST SWAP1 PUSH1 0x1 PUSH1 0x1 PUSH1 0xA0 SHL SUB DUP1 DUP1 PUSH2 0x30A3 DUP5 PUSH2 0x2E82 JUMP JUMPDEST AND SWAP4 AND SWAP2 DUP4 DUP4 EQ SWAP4 DUP5 ISZERO PUSH2 0x30D6 JUMPI JUMPDEST POP DUP4 ISZERO PUSH2 0x30C0 JUMPI JUMPDEST POP POP POP SWAP1 JUMP JUMPDEST PUSH2 0x30CC SWAP2 SWAP3 SWAP4 POP PUSH2 0x2F78 JUMP JUMPDEST AND EQ CODESIZE DUP1 DUP1 PUSH2 0x30BA JUMP JUMPDEST SWAP1 SWAP4 POP PUSH1 0x0 MSTORE PUSH1 0x5 PUSH1 0x20 MSTORE PUSH1 0x40 PUSH1 0x0 KECCAK256 DUP3 PUSH1 0x0 MSTORE PUSH1 0x20 MSTORE PUSH1 0xFF PUSH1 0x40 PUSH1 0x0 KECCAK256 SLOAD AND SWAP3 CODESIZE PUSH2 0x30B2 JUMP JUMPDEST ISZERO PUSH2 0x3104 JUMPI JUMP JUMPDEST PUSH1 0x40 MLOAD PUSH3 0x461BCD PUSH1 0xE5 SHL DUP2 MSTORE PUSH1 0x20 PUSH1 0x4 DUP3 ADD MSTORE PUSH1 0x25 PUSH1 0x24 DUP3 ADD MSTORE PUSH32 0x4552433732313A207472616E736665722066726F6D20696E636F727265637420 PUSH1 0x44 DUP3 ADD MSTORE PUSH5 0x37BBB732B9 PUSH1 0xD9 SHL PUSH1 0x64 DUP3 ADD MSTORE PUSH1 0x84 SWAP1 REVERT JUMPDEST PUSH2 0x317B SWAP2 PUSH2 0x3164 DUP5 PUSH2 0x2E82 JUMP JUMPDEST PUSH1 0x1 PUSH1 0x1 PUSH1 0xA0 SHL SUB SWAP4 DUP5 DUP5 AND SWAP4 SWAP2 DUP6 AND DUP5 EQ PUSH2 0x30FD JUMP JUMPDEST DUP4 DUP3 AND SWAP4 DUP5 ISZERO PUSH2 0x3348 JUMPI DUP4 SWAP2 DUP3 PUSH2 0x328F JUMPI POP SWAP1 POP PUSH1 0x8 SLOAD SWAP1 DUP6 PUSH1 0x0 MSTORE PUSH1 0x9 PUSH1 0x20 MSTORE DUP2 PUSH1 0x40 PUSH1 0x0 KECCAK256 SSTORE PUSH1 0x1 PUSH1 0x40 SHL DUP3 LT ISZERO PUSH2 0x2C2C JUMPI PUSH2 0x31E1 SWAP3 PUSH2 0x31C8 DUP8 PUSH2 0x4CB DUP6 PUSH1 0x1 DUP10 SWAP8 ADD PUSH1 0x8 SSTORE PUSH2 0x3538 JUMP JUMPDEST DUP3 DUP7 SUB PUSH2 0x325C JUMPI JUMPDEST POP PUSH2 0x31DA DUP7 PUSH2 0x2E82 JUMP JUMPDEST AND EQ PUSH2 0x30FD JUMP JUMPDEST PUSH32 0xDDF252AD1BE2C89B69C2B068FC378DAA952BA7F163C4A11628F55A4DF523B3EF PUSH1 0x0 DUP5 DUP2 MSTORE PUSH1 0x4 PUSH1 0x20 MSTORE PUSH1 0x40 DUP2 KECCAK256 PUSH1 0x1 PUSH1 0x1 PUSH1 0x60 SHL SUB PUSH1 0xA0 SHL SWAP1 DUP2 DUP2 SLOAD AND SWAP1 SSTORE DUP4 DUP3 MSTORE PUSH1 0x3 PUSH1 0x20 MSTORE PUSH1 0x40 DUP3 KECCAK256 PUSH1 0x0 NOT DUP2 SLOAD ADD SWAP1 SSTORE DUP5 DUP3 MSTORE PUSH1 0x40 DUP3 KECCAK256 PUSH1 0x1 DUP2 SLOAD ADD SWAP1 SSTORE DUP6 DUP3 MSTORE PUSH1 0x2 PUSH1 0x20 MSTORE DUP5 PUSH1 0x40 DUP4 KECCAK256 SWAP2 DUP3 SLOAD AND OR SWAP1 SSTORE DUP1 LOG4 JUMP JUMPDEST PUSH2 0x3265 SWAP1 PUSH2 0x2DBF JUMP JUMPDEST PUSH1 0x40 PUSH1 0x0 DUP8 DUP2 MSTORE PUSH1 0x6 PUSH1 0x20 MSTORE DUP2 DUP2 KECCAK256 DUP4 DUP3 MSTORE PUSH1 0x20 MSTORE DUP9 DUP3 DUP3 KECCAK256 SSTORE DUP9 DUP2 MSTORE PUSH1 0x7 PUSH1 0x20 MSTORE KECCAK256 SSTORE CODESIZE PUSH2 0x31D0 JUMP JUMPDEST DUP6 DUP4 SUB PUSH2 0x32A1 JUMPI JUMPDEST POP PUSH2 0x31E1 SWAP3 PUSH2 0x31C8 JUMP JUMPDEST PUSH2 0x32AC SWAP2 SWAP3 POP PUSH2 0x2DBF JUMP JUMPDEST PUSH1 0x0 NOT DUP2 ADD SWAP2 SWAP1 DUP3 GT PUSH2 0x3332 JUMPI PUSH2 0x31E1 SWAP3 DUP5 SWAP3 PUSH1 0x0 SWAP1 DUP9 DUP3 MSTORE PUSH1 0x20 SWAP1 PUSH1 0x7 DUP3 MSTORE PUSH1 0x40 SWAP2 DUP3 DUP5 KECCAK256 SLOAD DUP3 DUP2 SUB PUSH2 0x32FB JUMPI JUMPDEST POP DUP11 DUP5 MSTORE DUP4 DUP4 DUP2 KECCAK256 SSTORE DUP7 DUP5 MSTORE PUSH1 0x6 DUP2 MSTORE DUP3 DUP5 KECCAK256 SWAP2 DUP5 MSTORE MSTORE DUP2 KECCAK256 SSTORE SWAP3 PUSH2 0x3297 JUMP JUMPDEST DUP8 DUP6 MSTORE PUSH1 0x6 DUP3 MSTORE DUP4 DUP6 KECCAK256 DUP4 DUP7 MSTORE DUP3 MSTORE DUP4 DUP6 KECCAK256 SLOAD DUP9 DUP7 MSTORE PUSH1 0x6 DUP4 MSTORE DUP5 DUP7 KECCAK256 DUP3 DUP8 MSTORE DUP4 MSTORE DUP1 DUP6 DUP8 KECCAK256 SSTORE DUP6 MSTORE PUSH1 0x7 DUP3 MSTORE DUP4 DUP6 KECCAK256 SSTORE CODESIZE PUSH2 0x32DB JUMP JUMPDEST PUSH4 0x4E487B71 PUSH1 0xE0 SHL PUSH1 0x0 MSTORE PUSH1 0x11 PUSH1 0x4 MSTORE PUSH1 0x24 PUSH1 0x0 REVERT JUMPDEST PUSH1 0x40 MLOAD PUSH3 0x461BCD PUSH1 0xE5 SHL DUP2 MSTORE PUSH1 0x20 PUSH1 0x4 DUP3 ADD MSTORE PUSH1 0x24 DUP1 DUP3 ADD MSTORE PUSH32 0x4552433732313A207472616E7366657220746F20746865207A65726F20616464 PUSH1 0x44 DUP3 ADD MSTORE PUSH4 0x72657373 PUSH1 0xE0 SHL PUSH1 0x64 DUP3 ADD MSTORE PUSH1 0x84 SWAP1 REVERT JUMPDEST RETURNDATASIZE ISZERO PUSH2 0x33C4 JUMPI RETURNDATASIZE SWAP1 PUSH2 0x33AA DUP3 PUSH2 0x2D15 JUMP JUMPDEST SWAP2 PUSH2 0x33B8 PUSH1 0x40 MLOAD SWAP4 DUP5 PUSH2 0x2CAE JUMP JUMPDEST DUP3 MSTORE RETURNDATASIZE PUSH1 0x0 PUSH1 0x20 DUP5 ADD RETURNDATACOPY JUMP JUMPDEST PUSH1 0x60 SWAP1 JUMP JUMPDEST SWAP1 SWAP2 PUSH1 0x0 SWAP2 DUP1 EXTCODESIZE ISZERO PUSH2 0x34B4 JUMPI PUSH2 0x3414 PUSH1 0x20 SWAP2 DUP5 SWAP4 PUSH1 0x40 MLOAD SWAP5 DUP6 DUP1 SWAP5 DUP2 SWAP4 PUSH4 0xA85BD01 PUSH1 0xE1 SHL SWAP11 DUP12 DUP5 MSTORE CALLER PUSH1 0x4 DUP6 ADD MSTORE DUP5 PUSH1 0x24 DUP6 ADD MSTORE PUSH1 0x44 DUP5 ADD MSTORE PUSH1 0x80 PUSH1 0x64 DUP5 ADD MSTORE PUSH1 0x84 DUP4 ADD SWAP1 PUSH2 0x2B85 JUMP JUMPDEST SUB SWAP3 PUSH1 0x1 PUSH1 0x1 PUSH1 0xA0 SHL SUB AND GAS CALL SWAP1 DUP3 SWAP1 DUP3 PUSH2 0x346C JUMPI JUMPDEST POP POP PUSH2 0x345E JUMPI PUSH2 0x3438 PUSH2 0x3399 JUMP JUMPDEST DUP1 MLOAD SWAP1 DUP2 PUSH2 0x3459 JUMPI PUSH1 0x40 MLOAD PUSH3 0x461BCD PUSH1 0xE5 SHL DUP2 MSTORE DUP1 PUSH2 0x308B PUSH1 0x4 DUP3 ADD PUSH2 0x3018 JUMP JUMPDEST PUSH1 0x20 ADD REVERT JUMPDEST PUSH1 0x1 PUSH1 0x1 PUSH1 0xE0 SHL SUB NOT AND EQ SWAP1 JUMP JUMPDEST SWAP1 SWAP2 SWAP3 POP PUSH1 0x20 DUP2 RETURNDATASIZE DUP3 GT PUSH2 0x34AC JUMPI JUMPDEST DUP2 PUSH2 0x3488 PUSH1 0x20 SWAP4 DUP4 PUSH2 0x2CAE JUMP JUMPDEST DUP2 ADD SUB SLT PUSH2 0xD7A JUMPI MLOAD SWAP1 PUSH1 0x1 PUSH1 0x1 PUSH1 0xE0 SHL SUB NOT DUP3 AND DUP3 SUB PUSH2 0x318 JUMPI POP SWAP1 CODESIZE DUP1 PUSH2 0x342A JUMP JUMPDEST RETURNDATASIZE SWAP2 POP PUSH2 0x347B JUMP JUMPDEST POP POP POP POP PUSH1 0x1 SWAP1 JUMP JUMPDEST SWAP2 SWAP3 PUSH1 0x0 SWAP3 SWAP2 SWAP1 DUP2 EXTCODESIZE ISZERO PUSH2 0x352E JUMPI PUSH1 0x20 SWAP2 PUSH2 0x3513 SWAP2 DUP6 PUSH1 0x40 MLOAD SWAP6 DUP7 DUP1 SWAP6 DUP2 SWAP5 PUSH4 0xA85BD01 PUSH1 0xE1 SHL SWAP12 DUP13 DUP5 MSTORE CALLER PUSH1 0x4 DUP6 ADD MSTORE PUSH1 0x1 DUP1 PUSH1 0xA0 SHL SUB DUP1 SWAP6 AND PUSH1 0x24 DUP6 ADD MSTORE PUSH1 0x44 DUP5 ADD MSTORE PUSH1 0x80 PUSH1 0x64 DUP5 ADD MSTORE PUSH1 0x84 DUP4 ADD SWAP1 PUSH2 0x2B85 JUMP JUMPDEST SUB SWAP4 AND GAS CALL SWAP1 DUP3 SWAP1 DUP3 PUSH2 0x346C JUMPI POP POP PUSH2 0x345E JUMPI PUSH2 0x3438 PUSH2 0x3399 JUMP JUMPDEST POP POP POP POP POP PUSH1 0x1 SWAP1 JUMP JUMPDEST PUSH1 0x8 SLOAD DUP2 LT ISZERO PUSH2 0x356F JUMPI PUSH1 0x8 PUSH1 0x0 MSTORE PUSH32 0xF3F7A9FE364FAAB93B216DA50A3214154F22A0A2B415B23A84C8169E8B636EE3 ADD SWAP1 PUSH1 0x0 SWAP1 JUMP JUMPDEST PUSH4 0x4E487B71 PUSH1 0xE0 SHL PUSH1 0x0 MSTORE PUSH1 0x32 PUSH1 0x4 MSTORE PUSH1 0x24 PUSH1 0x0 REVERT JUMPDEST SWAP2 SWAP1 DUP3 SUB SWAP2 DUP3 GT PUSH2 0x3332 JUMPI JUMP JUMPDEST DUP2 ISZERO PUSH2 0x359C JUMPI DIV SWAP1 JUMP JUMPDEST PUSH4 0x4E487B71 PUSH1 0xE0 SHL PUSH1 0x0 MSTORE PUSH1 0x12 PUSH1 0x4 MSTORE PUSH1 0x24 PUSH1 0x0 REVERT JUMPDEST ISZERO PUSH2 0x35B9 JUMPI JUMP JUMPDEST PUSH1 0x40 MLOAD PUSH3 0x461BCD PUSH1 0xE5 SHL DUP2 MSTORE PUSH1 0x20 PUSH1 0x4 DUP3 ADD MSTORE PUSH1 0x14 PUSH1 0x24 DUP3 ADD MSTORE PUSH20 0x151BDAD95B88191BD95CC81B9BDD08195E1A5CDD PUSH1 0x62 SHL PUSH1 0x44 DUP3 ADD MSTORE PUSH1 0x64 SWAP1 REVERT JUMPDEST SWAP2 SWAP1 DUP3 ADD DUP1 SWAP3 GT PUSH2 0x3332 JUMPI JUMP JUMPDEST SWAP2 SWAP1 DUP3 PUSH1 0x40 SWAP2 SUB SLT PUSH2 0x2BC0 JUMPI PUSH1 0x20 DUP3 MLOAD SWAP3 ADD MLOAD SWAP1 JUMP JUMPDEST PUSH1 0x1 PUSH1 0x1 PUSH1 0x40 SHL SUB DUP2 GT PUSH2 0x2C2C JUMPI PUSH1 0x5 SHL PUSH1 0x20 ADD SWAP1 JUMP JUMPDEST DUP1 MLOAD DUP3 LT ISZERO PUSH2 0x356F JUMPI PUSH1 0x20 SWAP2 PUSH1 0x5 SHL ADD ADD SWAP1 JUMP JUMPDEST DUP1 SLOAD DUP3 LT ISZERO PUSH2 0x356F JUMPI PUSH1 0x0 MSTORE PUSH1 0x3 PUSH1 0x20 PUSH1 0x0 KECCAK256 SWAP2 MUL ADD SWAP1 PUSH1 0x0 SWAP1 JUMP JUMPDEST DUP2 DUP2 LT PUSH2 0x366A JUMPI POP POP JUMP JUMPDEST PUSH1 0x0 DUP2 SSTORE PUSH1 0x1 ADD PUSH2 0x365F JUMP JUMPDEST SWAP2 SWAP1 PUSH1 0x1F DUP2 GT PUSH2 0x3685 JUMPI POP POP POP JUMP JUMPDEST PUSH2 0x36B1 SWAP3 PUSH1 0x0 MSTORE PUSH1 0x20 PUSH1 0x0 KECCAK256 SWAP1 PUSH1 0x20 PUSH1 0x1F DUP5 ADD PUSH1 0x5 SHR DUP4 ADD SWAP4 LT PUSH2 0x36B3 JUMPI JUMPDEST PUSH1 0x1F ADD PUSH1 0x5 SHR ADD SWAP1 PUSH2 0x365F JUMP JUMPDEST JUMP JUMPDEST SWAP1 SWAP2 POP DUP2 SWAP1 PUSH2 0x36A4 JUMP JUMPDEST SWAP2 SWAP1 DUP3 SLOAD PUSH1 0x1 PUSH1 0x40 SHL DUP2 LT ISZERO PUSH2 0x2C2C JUMPI PUSH2 0x36DE SWAP1 PUSH1 0x1 SWAP5 DUP6 DUP3 ADD DUP2 SSTORE PUSH2 0x3643 JUMP JUMPDEST SWAP2 SWAP1 SWAP2 PUSH2 0x37D8 JUMPI DUP1 MLOAD SWAP4 DUP5 MLOAD SWAP5 PUSH1 0x1 PUSH1 0x1 PUSH1 0x40 SHL SUB DUP7 GT PUSH2 0x2C2C JUMPI PUSH2 0x3707 DUP7 PUSH2 0x17B4 DUP7 SLOAD PUSH2 0x2EA8 JUMP JUMPDEST PUSH1 0x20 SWAP1 PUSH1 0x1F DUP8 GT PUSH1 0x1 EQ PUSH2 0x376A JUMPI SWAP2 DUP7 PUSH2 0x36B1 SWAP7 SWAP8 PUSH1 0x2 SWAP6 SWAP4 PUSH1 0x40 SWAP6 PUSH1 0x0 SWAP3 PUSH2 0x375F JUMPI JUMPDEST POP POP PUSH1 0x0 NOT PUSH1 0x3 DUP4 SWAP1 SHL SHR NOT AND SWAP1 DUP3 SHL OR DUP6 SSTORE JUMPDEST PUSH1 0x20 DUP3 ADD MLOAD SWAP1 DUP6 ADD SSTORE ADD MLOAD ISZERO ISZERO SWAP2 ADD SWAP1 PUSH1 0xFF DUP1 NOT DUP4 SLOAD AND SWAP2 ISZERO ISZERO AND OR SWAP1 SSTORE JUMP JUMPDEST ADD MLOAD SWAP1 POP CODESIZE DUP1 PUSH2 0x372B JUMP JUMPDEST SWAP1 PUSH1 0x1F NOT DUP8 AND SWAP2 DUP6 PUSH1 0x0 MSTORE DUP2 PUSH1 0x0 KECCAK256 SWAP3 PUSH1 0x0 JUMPDEST DUP2 DUP2 LT PUSH2 0x37C2 JUMPI POP SWAP8 PUSH1 0x2 SWAP6 SWAP4 DUP6 SWAP4 PUSH1 0x40 SWAP7 SWAP4 DUP4 PUSH2 0x36B1 SWAP12 SWAP13 LT PUSH2 0x37A9 JUMPI JUMPDEST POP POP POP DUP2 SHL ADD DUP6 SSTORE PUSH2 0x373F JUMP JUMPDEST ADD MLOAD PUSH1 0x0 NOT PUSH1 0xF8 DUP5 PUSH1 0x3 SHL AND SHR NOT AND SWAP1 SSTORE CODESIZE DUP1 DUP1 PUSH2 0x379C JUMP JUMPDEST DUP3 DUP5 ADD MLOAD DUP6 SSTORE SWAP4 DUP6 ADD SWAP4 PUSH1 0x20 SWAP4 DUP5 ADD SWAP4 ADD PUSH2 0x377D JUMP JUMPDEST PUSH4 0x4E487B71 PUSH1 0xE0 SHL PUSH1 0x0 MSTORE PUSH1 0x0 PUSH1 0x4 MSTORE PUSH1 0x24 PUSH1 0x0 REVERT JUMPDEST DUP2 PUSH1 0x1F DUP3 ADD SLT ISZERO PUSH2 0x2BC0 JUMPI DUP1 MLOAD PUSH2 0x3804 DUP2 PUSH2 0x2D15 JUMP JUMPDEST SWAP3 PUSH2 0x3812 PUSH1 0x40 MLOAD SWAP5 DUP6 PUSH2 0x2CAE JUMP JUMPDEST DUP2 DUP5 MSTORE PUSH1 0x20 DUP3 DUP5 ADD ADD GT PUSH2 0x2BC0 JUMPI PUSH2 0x2EA5 SWAP2 PUSH1 0x20 DUP1 DUP6 ADD SWAP2 ADD PUSH2 0x2B62 JUMP JUMPDEST SWAP2 SWAP1 DUP3 PUSH1 0xC0 SWAP2 SUB SLT PUSH2 0x2BC0 JUMPI PUSH1 0x40 MLOAD PUSH2 0x3848 DUP2 PUSH2 0x2C42 JUMP JUMPDEST PUSH1 0xA0 DUP1 DUP3 SWAP5 DUP1 MLOAD DUP5 MSTORE PUSH1 0x20 DUP2 ADD MLOAD PUSH1 0x20 DUP6 ADD MSTORE PUSH1 0x40 DUP2 ADD MLOAD PUSH1 0x40 DUP6 ADD MSTORE PUSH1 0x60 DUP2 ADD MLOAD PUSH1 0x60 DUP6 ADD MSTORE PUSH1 0x80 DUP2 ADD MLOAD PUSH1 0x80 DUP6 ADD MSTORE ADD MLOAD SWAP2 ADD MSTORE JUMP JUMPDEST MLOAD SWAP1 DUP2 ISZERO ISZERO DUP3 SUB PUSH2 0x2BC0 JUMPI JUMP JUMPDEST SWAP1 PUSH1 0x20 DUP3 DUP3 SUB SLT PUSH2 0x2BC0 JUMPI DUP2 MLOAD PUSH1 0x1 PUSH1 0x1 PUSH1 0x40 SHL SUB SWAP3 DUP4 DUP3 GT PUSH2 0x2BC0 JUMPI ADD SWAP1 PUSH2 0x380 DUP3 DUP3 SUB SLT PUSH2 0x2BC0 JUMPI PUSH1 0x40 MLOAD SWAP3 PUSH2 0x1A0 DUP5 ADD DUP5 DUP2 LT DUP3 DUP3 GT OR PUSH2 0x2C2C JUMPI PUSH1 0x40 MSTORE DUP3 MLOAD DUP2 DUP2 GT PUSH2 0x2BC0 JUMPI DUP3 PUSH2 0x38E3 SWAP2 DUP6 ADD PUSH2 0x37EE JUMP JUMPDEST DUP5 MSTORE PUSH1 0x20 DUP4 ADD MLOAD PUSH1 0x20 DUP6 ADD MSTORE PUSH2 0x38FC DUP3 PUSH1 0x40 DUP6 ADD PUSH2 0x3830 JUMP JUMPDEST PUSH1 0x40 DUP6 ADD MSTORE PUSH2 0x100 PUSH2 0x3910 DUP4 DUP3 DUP7 ADD PUSH2 0x3830 JUMP JUMPDEST PUSH1 0x60 DUP7 ADD MSTORE PUSH2 0x1C0 DUP5 ADD MLOAD PUSH1 0x80 DUP7 ADD MSTORE PUSH2 0x1E0 DUP5 ADD MLOAD PUSH1 0xA0 DUP7 ADD MSTORE PUSH2 0x200 DUP5 ADD MLOAD PUSH1 0xC0 DUP7 ADD MSTORE PUSH2 0x220 DUP5 ADD MLOAD PUSH1 0xE0 DUP7 ADD MSTORE PUSH2 0x240 DUP5 ADD MLOAD SWAP1 DUP6 ADD MSTORE PUSH2 0x3959 DUP3 PUSH2 0x260 DUP6 ADD PUSH2 0x3830 JUMP JUMPDEST PUSH2 0x120 DUP6 ADD MSTORE PUSH2 0x320 DUP4 ADD MLOAD PUSH2 0x140 DUP6 ADD MSTORE PUSH2 0x3978 PUSH2 0x340 DUP5 ADD PUSH2 0x3880 JUMP JUMPDEST PUSH2 0x160 DUP6 ADD MSTORE PUSH2 0x360 DUP4 ADD MLOAD SWAP1 DUP2 GT PUSH2 0x2BC0 JUMPI PUSH2 0x3995 SWAP3 ADD PUSH2 0x37EE JUMP JUMPDEST PUSH2 0x180 DUP3 ADD MSTORE SWAP1 JUMP JUMPDEST PUSH1 0x2 PUSH1 0xB SLOAD EQ PUSH2 0x39AF JUMPI PUSH1 0x2 PUSH1 0xB SSTORE JUMP JUMPDEST PUSH1 0x40 MLOAD PUSH3 0x461BCD PUSH1 0xE5 SHL DUP2 MSTORE PUSH1 0x20 PUSH1 0x4 DUP3 ADD MSTORE PUSH1 0x1F PUSH1 0x24 DUP3 ADD MSTORE PUSH32 0x5265656E7472616E637947756172643A207265656E7472616E742063616C6C00 PUSH1 0x44 DUP3 ADD MSTORE PUSH1 0x64 SWAP1 REVERT JUMPDEST ISZERO PUSH2 0x39FB JUMPI JUMP JUMPDEST PUSH1 0x40 MLOAD PUSH3 0x461BCD PUSH1 0xE5 SHL DUP2 MSTORE PUSH1 0x20 PUSH1 0x4 DUP3 ADD MSTORE PUSH1 0x1C PUSH1 0x24 DUP3 ADD MSTORE PUSH32 0x4552433732313A20746F6B656E20616C7265616479206D696E74656400000000 PUSH1 0x44 DUP3 ADD MSTORE PUSH1 0x64 SWAP1 REVERT JUMPDEST SWAP1 PUSH1 0x40 MLOAD PUSH2 0x3A4D DUP2 PUSH2 0x2C5D JUMP JUMPDEST PUSH1 0x40 PUSH1 0xFF PUSH1 0x2 DUP4 SWAP6 DUP4 MLOAD PUSH2 0x3A6C DUP2 PUSH2 0x3A65 DUP2 DUP6 PUSH2 0x2EE2 JUMP JUMPDEST SUB DUP3 PUSH2 0x2CAE JUMP JUMPDEST DUP6 MSTORE PUSH1 0x1 DUP2 ADD SLOAD PUSH1 0x20 DUP7 ADD MSTORE ADD SLOAD AND ISZERO ISZERO SWAP2 ADD MSTORE JUMP JUMPDEST SWAP1 PUSH1 0x40 MLOAD PUSH2 0x3A8F DUP2 PUSH2 0x2C5D JUMP JUMPDEST PUSH1 0x40 PUSH1 0x2 DUP3 SWAP5 DUP3 MLOAD PUSH2 0x3AA5 DUP2 PUSH2 0x3A65 DUP2 DUP6 PUSH2 0x2EE2 JUMP JUMPDEST DUP5 MSTORE PUSH1 0x1 DUP2 ADD SLOAD PUSH1 0x20 DUP6 ADD MSTORE ADD SLOAD SWAP2 ADD MSTORE JUMP JUMPDEST PUSH1 0x0 NOT DUP2 EQ PUSH2 0x3332 JUMPI PUSH1 0x1 ADD SWAP1 JUMP JUMPDEST DUP2 DUP2 MUL SWAP3 SWAP2 DUP2 ISZERO SWAP2 DUP5 DIV EQ OR ISZERO PUSH2 0x3332 JUMPI JUMP JUMPDEST ISZERO PUSH2 0x3AE1 JUMPI JUMP JUMPDEST PUSH1 0x40 MLOAD PUSH3 0x461BCD PUSH1 0xE5 SHL DUP2 MSTORE PUSH1 0x20 PUSH1 0x4 DUP3 ADD MSTORE PUSH1 0x1A PUSH1 0x24 DUP3 ADD MSTORE PUSH32 0x4E6F7420746865206F776E6572206F662074686973206C616E64000000000000 PUSH1 0x44 DUP3 ADD MSTORE PUSH1 0x64 SWAP1 REVERT JUMPDEST PUSH1 0x40 MLOAD PUSH2 0x3B84 SWAP2 PUSH1 0x1 PUSH1 0x1 PUSH1 0xA0 SHL SUB AND PUSH2 0x3B3F DUP3 PUSH2 0x2C93 JUMP JUMPDEST PUSH1 0x0 DUP1 PUSH1 0x20 SWAP6 DUP7 DUP6 MSTORE PUSH32 0x5361666545524332303A206C6F772D6C6576656C2063616C6C206661696C6564 DUP8 DUP7 ADD MSTORE DUP7 DUP2 MLOAD SWAP2 ADD DUP3 DUP6 GAS CALL PUSH2 0x3B7E PUSH2 0x3399 JUMP JUMPDEST SWAP2 PUSH2 0x3C13 JUMP JUMPDEST DUP1 MLOAD DUP3 DUP2 ISZERO SWAP2 DUP3 ISZERO PUSH2 0x3BF4 JUMPI JUMPDEST POP POP SWAP1 POP ISZERO PUSH2 0x3B9D JUMPI POP JUMP JUMPDEST PUSH1 0x84 SWAP1 PUSH1 0x40 MLOAD SWAP1 PUSH3 0x461BCD PUSH1 0xE5 SHL DUP3 MSTORE PUSH1 0x4 DUP3 ADD MSTORE PUSH1 0x2A PUSH1 0x24 DUP3 ADD MSTORE PUSH32 0x5361666545524332303A204552433230206F7065726174696F6E20646964206E PUSH1 0x44 DUP3 ADD MSTORE PUSH10 0x1BDD081CDD58D8D95959 PUSH1 0xB2 SHL PUSH1 0x64 DUP3 ADD MSTORE REVERT JUMPDEST DUP4 DUP1 SWAP3 SWAP4 POP ADD SUB SLT PUSH2 0x2BC0 JUMPI DUP2 PUSH2 0x3C0B SWAP2 ADD PUSH2 0x3880 JUMP JUMPDEST DUP1 DUP3 CODESIZE PUSH2 0x3B91 JUMP JUMPDEST SWAP2 SWAP3 SWAP1 ISZERO PUSH2 0x3C75 JUMPI POP DUP2 MLOAD ISZERO PUSH2 0x3C27 JUMPI POP SWAP1 JUMP JUMPDEST EXTCODESIZE ISZERO PUSH2 0x3C30 JUMPI SWAP1 JUMP JUMPDEST PUSH1 0x40 MLOAD PUSH3 0x461BCD PUSH1 0xE5 SHL DUP2 MSTORE PUSH1 0x20 PUSH1 0x4 DUP3 ADD MSTORE PUSH1 0x1D PUSH1 0x24 DUP3 ADD MSTORE PUSH32 0x416464726573733A2063616C6C20746F206E6F6E2D636F6E7472616374000000 PUSH1 0x44 DUP3 ADD MSTORE PUSH1 0x64 SWAP1 REVERT JUMPDEST DUP3 MLOAD SWAP1 SWAP2 POP ISZERO PUSH2 0x3C88 JUMPI POP DUP1 MLOAD SWAP1 PUSH1 0x20 ADD REVERT JUMPDEST PUSH1 0x40 MLOAD PUSH3 0x461BCD PUSH1 0xE5 SHL DUP2 MSTORE PUSH1 0x20 PUSH1 0x4 DUP3 ADD MSTORE SWAP1 DUP2 SWAP1 PUSH2 0x308B SWAP1 PUSH1 0x24 DUP4 ADD SWAP1 PUSH2 0x2B85 JUMP JUMPDEST SWAP1 DUP1 DUP3 EQ PUSH2 0x3D80 JUMPI PUSH2 0x3CBE DUP2 SLOAD PUSH2 0x2EA8 JUMP JUMPDEST SWAP1 PUSH1 0x1 PUSH1 0x1 PUSH1 0x40 SHL SUB DUP3 GT PUSH2 0x2C2C JUMPI DUP2 SWAP1 PUSH2 0x3CDD DUP3 PUSH2 0x17B4 DUP7 SLOAD PUSH2 0x2EA8 JUMP JUMPDEST PUSH1 0x0 SWAP1 PUSH1 0x1F DUP4 GT PUSH1 0x1 EQ PUSH2 0x3D14 JUMPI PUSH1 0x0 SWAP3 PUSH2 0x3D09 JUMPI JUMPDEST POP POP DUP2 PUSH1 0x1 SHL SWAP2 PUSH1 0x0 NOT SWAP1 PUSH1 0x3 SHL SHR NOT AND OR SWAP1 SSTORE JUMP JUMPDEST ADD SLOAD SWAP1 POP CODESIZE DUP1 PUSH2 0x3CF3 JUMP JUMPDEST DUP2 MSTORE PUSH1 0x20 DUP1 DUP3 KECCAK256 DUP6 DUP4 MSTORE DUP2 DUP4 KECCAK256 SWAP4 POP SWAP1 PUSH1 0x1F NOT DUP6 AND SWAP1 DUP4 SWAP1 JUMPDEST DUP3 DUP3 LT PUSH2 0x3D67 JUMPI POP POP SWAP1 DUP5 PUSH1 0x1 SWAP6 SWAP5 SWAP4 SWAP3 LT PUSH2 0x3D4E JUMPI JUMPDEST POP POP POP DUP2 SHL ADD SWAP1 SSTORE JUMP JUMPDEST ADD SLOAD PUSH1 0x0 NOT PUSH1 0xF8 DUP5 PUSH1 0x3 SHL AND SHR NOT AND SWAP1 SSTORE CODESIZE DUP1 DUP1 PUSH2 0x3D44 JUMP JUMPDEST DUP5 SWAP6 DUP2 SWAP3 SWAP6 DUP6 ADD SLOAD DUP2 SSTORE PUSH1 0x1 DUP1 SWAP2 ADD SWAP7 ADD SWAP5 ADD SWAP1 PUSH2 0x3D2D JUMP JUMPDEST POP POP JUMP JUMPDEST SWAP1 DUP2 MLOAD DUP2 MLOAD GT ISZERO SWAP2 DUP3 PUSH2 0x3DFA JUMPI JUMPDEST DUP3 PUSH2 0x3DE6 JUMPI JUMPDEST DUP3 PUSH2 0x3DD2 JUMPI JUMPDEST DUP3 PUSH2 0x3DBE JUMPI JUMPDEST DUP3 PUSH2 0x3DAE JUMPI POP POP SWAP1 JUMP JUMPDEST PUSH1 0xA0 SWAP2 SWAP3 POP DUP2 ADD MLOAD SWAP2 ADD MLOAD GT ISZERO SWAP1 JUMP JUMPDEST SWAP2 POP PUSH1 0x80 DUP3 ADD MLOAD PUSH1 0x80 DUP3 ADD MLOAD GT ISZERO SWAP2 PUSH2 0x3DA4 JUMP JUMPDEST SWAP2 POP PUSH1 0x60 DUP3 ADD MLOAD PUSH1 0x60 DUP3 ADD MLOAD GT ISZERO SWAP2 PUSH2 0x3D9E JUMP JUMPDEST SWAP2 POP PUSH1 0x40 DUP3 ADD MLOAD PUSH1 0x40 DUP3 ADD MLOAD GT ISZERO SWAP2 PUSH2 0x3D98 JUMP JUMPDEST SWAP2 POP PUSH1 0x20 DUP3 ADD MLOAD PUSH1 0x20 DUP3 ADD MLOAD GT ISZERO SWAP2 PUSH2 0x3D92 JUMP JUMPDEST SWAP1 PUSH1 0x5 PUSH1 0xA0 PUSH2 0x3E89 SWAP3 PUSH2 0x3E23 DUP2 MLOAD DUP7 SLOAD PUSH2 0x3585 JUMP JUMPDEST DUP6 SSTORE PUSH1 0x20 DUP2 ADD MLOAD PUSH2 0x3E39 PUSH1 0x1 DUP8 ADD SWAP2 DUP3 SLOAD PUSH2 0x3585 JUMP JUMPDEST SWAP1 SSTORE PUSH1 0x40 DUP2 ADD MLOAD PUSH2 0x3E4F PUSH1 0x2 DUP8 ADD SWAP2 DUP3 SLOAD PUSH2 0x3585 JUMP JUMPDEST SWAP1 SSTORE PUSH1 0x60 DUP2 ADD MLOAD PUSH2 0x3E65 PUSH1 0x3 DUP8 ADD SWAP2 DUP3 SLOAD PUSH2 0x3585 JUMP JUMPDEST SWAP1 SSTORE PUSH1 0x80 DUP2 ADD MLOAD PUSH2 0x3E7B PUSH1 0x4 DUP8 ADD SWAP2 DUP3 SLOAD PUSH2 0x3585 JUMP JUMPDEST SWAP1 SSTORE ADD MLOAD SWAP3 ADD SWAP2 DUP3 SLOAD PUSH2 0x3585 JUMP JUMPDEST SWAP1 SSTORE JUMP JUMPDEST SWAP1 SWAP2 DUP2 PUSH1 0x0 MSTORE PUSH1 0x17 PUSH1 0x20 MSTORE PUSH1 0x40 PUSH1 0x0 KECCAK256 PUSH1 0x1 DUP1 PUSH1 0xA0 SHL SUB PUSH1 0xD SLOAD AND PUSH1 0x40 MLOAD SWAP1 PUSH4 0xBFECD1A7 PUSH1 0xE0 SHL DUP3 MSTORE DUP2 PUSH1 0x44 DUP2 ADD PUSH1 0x40 PUSH1 0x4 DUP4 ADD MSTORE PUSH1 0x6 DUP6 ADD SLOAD DUP1 SWAP2 MSTORE PUSH1 0x64 DUP3 ADD PUSH1 0x64 DUP3 PUSH1 0x5 SHL DUP5 ADD ADD SWAP2 PUSH1 0x6 DUP8 ADD PUSH1 0x0 MSTORE PUSH1 0x20 PUSH1 0x0 KECCAK256 SWAP2 PUSH1 0x0 SWAP1 JUMPDEST DUP3 DUP3 LT PUSH2 0x466D JUMPI POP POP POP POP SWAP2 DUP2 DUP1 PUSH1 0xC0 SWAP5 DUP11 PUSH1 0x24 DUP4 ADD MSTORE SUB SWAP2 GAS STATICCALL DUP1 ISZERO PUSH2 0x40D7 JUMPI PUSH1 0x0 SWAP1 PUSH2 0x4633 JUMPI JUMPDEST PUSH1 0xA0 SWAP2 POP DUP1 MLOAD PUSH2 0x3F27 PUSH1 0x8 DUP6 ADD SWAP2 DUP3 SLOAD PUSH2 0x35F5 JUMP JUMPDEST SWAP1 SSTORE PUSH1 0x20 DUP2 ADD MLOAD PUSH2 0x3F3D PUSH1 0x9 DUP6 ADD SWAP2 DUP3 SLOAD PUSH2 0x35F5 JUMP JUMPDEST SWAP1 SSTORE PUSH1 0x40 DUP2 ADD MLOAD PUSH2 0x3F53 PUSH1 0xA DUP6 ADD SWAP2 DUP3 SLOAD PUSH2 0x35F5 JUMP JUMPDEST SWAP1 SSTORE PUSH1 0x60 DUP2 ADD MLOAD PUSH2 0x3F69 PUSH1 0xB DUP6 ADD SWAP2 DUP3 SLOAD PUSH2 0x35F5 JUMP JUMPDEST SWAP1 SSTORE PUSH1 0x80 DUP2 ADD MLOAD PUSH2 0x3F7F PUSH1 0xC DUP6 ADD SWAP2 DUP3 SLOAD PUSH2 0x35F5 JUMP JUMPDEST SWAP1 SSTORE ADD MLOAD PUSH2 0x3F92 PUSH1 0xD DUP4 ADD SWAP2 DUP3 SLOAD PUSH2 0x35F5 JUMP JUMPDEST SWAP1 SSTORE DUP3 PUSH1 0x0 MSTORE PUSH1 0x17 PUSH1 0x20 MSTORE PUSH1 0x40 PUSH1 0x0 KECCAK256 SWAP4 PUSH1 0x0 JUMPDEST PUSH1 0x6 DUP7 ADD SLOAD DUP2 LT ISZERO PUSH2 0x40E3 JUMPI PUSH2 0x3FBF DUP2 PUSH1 0x6 DUP9 ADD PUSH2 0x3643 JUMP JUMPDEST POP SWAP1 PUSH1 0x2 DUP3 ADD SLOAD PUSH1 0xFF DUP2 AND PUSH2 0x3FDF JUMPI JUMPDEST POP PUSH2 0x3FDA SWAP2 POP PUSH2 0x3AB8 JUMP JUMPDEST PUSH2 0x3FA6 JUMP JUMPDEST PUSH1 0x1 DUP1 PUSH1 0xA0 SHL SUB PUSH1 0xD SLOAD AND SWAP3 PUSH1 0x0 PUSH1 0x1 DUP3 ADD SLOAD PUSH1 0x40 MLOAD SWAP6 DUP7 DUP1 DUP1 SWAP4 PUSH4 0x244D87AD PUSH1 0xE1 SHL DUP3 MSTORE PUSH1 0x40 PUSH1 0x4 DUP4 ADD MSTORE PUSH2 0x4018 PUSH1 0x44 DUP4 ADD DUP9 PUSH2 0x2EE2 JUMP JUMPDEST SWAP1 PUSH1 0x24 DUP4 ADD MSTORE SUB SWAP2 GAS STATICCALL SWAP1 DUP2 ISZERO PUSH2 0x40D7 JUMPI PUSH2 0x3FDA SWAP5 PUSH1 0x0 SWAP3 PUSH2 0x40BA JUMPI JUMPDEST POP PUSH1 0x60 DUP3 ADD MLOAD SWAP2 PUSH1 0x8 DUP12 ADD SWAP2 PUSH2 0x404E DUP5 PUSH2 0x1672 DUP6 PUSH2 0x2CCF JUMP JUMPDEST ISZERO PUSH2 0x4065 JUMPI POP POP PUSH2 0x405F SWAP3 POP PUSH2 0x3E0E JUMP JUMPDEST CODESIZE PUSH2 0x3FCF JUMP JUMPDEST SWAP2 POP SWAP2 POP PUSH1 0x2 PUSH2 0x100 SWAP4 PUSH1 0xFF NOT AND SWAP2 ADD SSTORE PUSH1 0x80 DUP2 ADD MLOAD PUSH2 0x408A PUSH1 0x1 DUP12 ADD SWAP2 DUP3 SLOAD PUSH2 0x3585 JUMP JUMPDEST SWAP1 SSTORE PUSH1 0xA0 DUP2 ADD MLOAD PUSH2 0x40A0 PUSH1 0x2 DUP12 ADD SWAP2 DUP3 SLOAD PUSH2 0x3585 JUMP JUMPDEST SWAP1 SSTORE ADD MLOAD PUSH2 0x40B3 PUSH1 0x5 DUP10 ADD SWAP2 DUP3 SLOAD PUSH2 0x3585 JUMP JUMPDEST SWAP1 SSTORE PUSH2 0x405F JUMP JUMPDEST PUSH2 0x40D0 SWAP2 SWAP3 POP RETURNDATASIZE DUP1 PUSH1 0x0 DUP4 RETURNDATACOPY PUSH2 0x909 DUP2 DUP4 PUSH2 0x2CAE JUMP JUMPDEST SWAP1 CODESIZE PUSH2 0x4035 JUMP JUMPDEST PUSH1 0x40 MLOAD RETURNDATASIZE PUSH1 0x0 DUP3 RETURNDATACOPY RETURNDATASIZE SWAP1 REVERT JUMPDEST POP SWAP2 SWAP4 POP SWAP2 DUP1 PUSH1 0x0 MSTORE PUSH1 0x17 PUSH1 0x20 MSTORE PUSH1 0x40 PUSH1 0x0 KECCAK256 PUSH1 0x2 DUP2 ADD DUP1 SLOAD PUSH1 0x32 DUP2 GT PUSH1 0x0 EQ PUSH2 0x45CA JUMPI POP SLOAD PUSH1 0x31 NOT DUP2 ADD SWAP1 DUP2 GT PUSH2 0x3332 JUMPI PUSH2 0x4137 SWAP1 PUSH1 0x64 PUSH2 0x4130 DUP7 PUSH2 0x412B DUP7 SLOAD DUP1 SWAP6 PUSH2 0x3AC7 JUMP JUMPDEST PUSH2 0x3AC7 JUMP JUMPDEST DIV SWAP1 PUSH2 0x35F5 JUMP JUMPDEST DUP2 SSTORE JUMPDEST PUSH2 0x414B PUSH2 0x4145 PUSH2 0x46BB JUMP JUMPDEST DUP4 PUSH2 0x4735 JUMP JUMPDEST DUP1 PUSH2 0x45AA JUMPI JUMPDEST POP POP DUP1 PUSH1 0x0 MSTORE PUSH1 0x17 PUSH1 0x20 MSTORE PUSH1 0x40 PUSH1 0x0 KECCAK256 SWAP1 PUSH1 0x0 DUP3 SLOAD DUP1 ISZERO PUSH2 0x45A2 JUMPI JUMPDEST PUSH1 0x8 DUP5 ADD SLOAD PUSH1 0x64 DUP2 MUL SWAP1 DUP1 DUP3 DIV PUSH1 0x64 EQ SWAP1 ISZERO OR ISZERO PUSH2 0x3332 JUMPI DUP2 PUSH2 0x418F SWAP2 PUSH2 0x3592 JUMP JUMPDEST SWAP2 PUSH1 0x3 DUP6 ADD SLOAD PUSH1 0x64 DUP2 MUL SWAP1 DUP1 DUP3 DIV PUSH1 0x64 EQ SWAP1 ISZERO OR ISZERO PUSH2 0x3332 JUMPI DUP3 PUSH2 0x41B2 SWAP2 PUSH2 0x3592 JUMP JUMPDEST PUSH1 0x4 DUP7 ADD SLOAD PUSH1 0x64 DUP2 MUL SWAP1 DUP1 DUP3 DIV PUSH1 0x64 EQ SWAP1 ISZERO OR ISZERO PUSH2 0x3332 JUMPI DUP4 PUSH2 0x41D4 SWAP2 PUSH2 0x3592 JUMP JUMPDEST SWAP2 PUSH1 0x1 DUP8 ADD SLOAD DUP1 PUSH1 0x64 DUP2 MUL DIV PUSH1 0x64 EQ DUP2 ISZERO OR ISZERO PUSH2 0x3332 JUMPI DUP5 PUSH1 0x64 PUSH2 0x41F8 SWAP3 MUL PUSH2 0x3592 JUMP JUMPDEST SWAP4 PUSH1 0x5 DUP9 ADD SLOAD SWAP1 DUP2 PUSH1 0x64 DUP2 MUL DIV PUSH1 0x64 EQ DUP3 ISZERO OR ISZERO PUSH2 0x3332 JUMPI PUSH1 0x64 PUSH2 0x421C SWAP3 MUL PUSH2 0x3592 JUMP JUMPDEST SWAP5 PUSH1 0xC8 DUP2 LT PUSH2 0x457E JUMPI POP PUSH1 0x5 DUP2 ADD SWAP1 PUSH1 0x0 PUSH1 0x5 DUP4 SLT SWAP2 SLT SWAP1 DUP1 ISZERO DUP3 AND SWAP2 ISZERO AND OR PUSH2 0x3332 JUMPI PUSH1 0xA SWAP1 SWAP2 JUMPDEST LT PUSH2 0x4566 JUMPI PUSH2 0x4255 PUSH1 0x5 SWAP2 PUSH2 0x46F3 JUMP JUMPDEST SWAP2 JUMPDEST LT PUSH2 0x4557 JUMPI PUSH1 0x1 DUP2 ADD SWAP1 PUSH1 0x0 PUSH1 0x1 DUP4 SLT SWAP2 SLT SWAP1 DUP1 ISZERO DUP3 AND SWAP2 ISZERO AND OR PUSH2 0x3332 JUMPI SWAP1 JUMPDEST PUSH2 0x1F4 DUP2 LT PUSH2 0x4527 JUMPI POP PUSH1 0x4 DUP2 ADD SWAP1 PUSH1 0x0 PUSH1 0x4 DUP4 SLT SWAP2 SLT SWAP1 DUP1 ISZERO DUP3 AND SWAP2 ISZERO AND OR PUSH2 0x3332 JUMPI PUSH1 0x14 SWAP1 SWAP2 JUMPDEST LT PUSH2 0x4501 JUMPI PUSH1 0x3 DUP2 ADD SWAP1 PUSH1 0x0 PUSH1 0x3 DUP4 SLT SWAP2 SLT SWAP1 DUP1 ISZERO DUP3 AND SWAP2 ISZERO AND OR PUSH2 0x3332 JUMPI JUMPDEST PUSH2 0x42CC PUSH2 0x4145 PUSH2 0x4710 JUMP JUMPDEST DUP1 PUSH2 0x44DF JUMPI JUMPDEST POP SWAP1 PUSH1 0x0 MSTORE PUSH1 0x17 PUSH1 0x20 MSTORE PUSH1 0x6 PUSH1 0x40 PUSH1 0x0 KECCAK256 ADD DUP1 SLOAD SWAP1 PUSH2 0x42F0 DUP3 PUSH2 0x3618 JUMP JUMPDEST SWAP2 PUSH2 0x42FE PUSH1 0x40 MLOAD SWAP4 DUP5 PUSH2 0x2CAE JUMP JUMPDEST DUP1 DUP4 MSTORE PUSH1 0x1F NOT PUSH2 0x430D DUP3 PUSH2 0x3618 JUMP JUMPDEST ADD PUSH1 0x0 JUMPDEST DUP2 DUP2 LT PUSH2 0x44CE JUMPI POP POP PUSH1 0x0 SWAP3 PUSH1 0x0 JUMPDEST DUP3 DUP2 LT PUSH2 0x441F JUMPI POP POP PUSH1 0x5 DUP4 LT SWAP2 POP PUSH2 0x4409 SWAP1 POP JUMPI POP PUSH2 0x433F SWAP1 PUSH2 0x46F3 JUMP JUMPDEST PUSH1 0x0 DUP2 SGT ISZERO PUSH2 0x4398 JUMPI DUP3 PUSH1 0x2 PUSH1 0xE SWAP4 PUSH2 0x435E PUSH2 0x3E89 SWAP7 PUSH2 0x4384 SWAP6 PUSH2 0x3AC7 JUMP JUMPDEST PUSH2 0x436C DUP4 DUP4 ADD SWAP2 DUP3 SLOAD PUSH2 0x35F5 JUMP JUMPDEST SWAP1 SSTORE JUMPDEST ADD PUSH1 0x64 DUP2 SLOAD GT PUSH2 0x438E JUMPI JUMPDEST POP PUSH1 0x12 SLOAD SWAP1 PUSH2 0x3AC7 JUMP JUMPDEST SWAP3 ADD SWAP2 DUP3 SLOAD PUSH2 0x35F5 JUMP JUMPDEST PUSH1 0x64 SWAP1 SSTORE CODESIZE PUSH2 0x437A JUMP JUMPDEST PUSH1 0x0 DUP2 SLT PUSH2 0x43B3 JUMPI JUMPDEST POP PUSH2 0x4384 PUSH2 0x3E89 SWAP3 PUSH1 0x2 PUSH1 0xE SWAP4 PUSH2 0x436F JUMP JUMPDEST SWAP1 PUSH1 0x1 PUSH1 0xFF SHL DUP3 EQ PUSH2 0x3332 JUMPI DUP3 PUSH1 0x2 PUSH2 0x4384 SWAP3 PUSH2 0x43D8 PUSH2 0x3E89 SWAP7 PUSH1 0xE SWAP7 PUSH1 0x0 SUB PUSH2 0x3AC7 JUMP JUMPDEST DUP3 DUP3 ADD SWAP1 DUP1 DUP3 SLOAD GT PUSH1 0x0 EQ PUSH2 0x43FF JUMPI PUSH2 0x43F2 SWAP1 DUP3 SLOAD PUSH2 0x3585 JUMP JUMPDEST SWAP1 SSTORE JUMPDEST SWAP4 POP POP SWAP3 POP PUSH2 0x43A1 JUMP JUMPDEST POP PUSH1 0x0 SWAP1 SSTORE PUSH2 0x43F5 JUMP JUMPDEST PUSH1 0x2 GT ISZERO PUSH2 0x433F JUMPI PUSH2 0x441A SWAP1 PUSH2 0x46E1 JUMP JUMPDEST PUSH2 0x433F JUMP JUMPDEST PUSH1 0x1 PUSH1 0x0 JUMPDEST DUP7 DUP2 LT PUSH2 0x4488 JUMPI JUMPDEST POP PUSH2 0x4440 JUMPI JUMPDEST PUSH2 0x443B SWAP1 PUSH2 0x3AB8 JUMP JUMPDEST PUSH2 0x4320 JUMP JUMPDEST SWAP4 PUSH2 0x4480 PUSH2 0x443B SWAP2 PUSH2 0x3A65 PUSH2 0x4465 PUSH2 0x4458 DUP10 DUP10 PUSH2 0x3643 JUMP JUMPDEST POP PUSH1 0x40 MLOAD SWAP3 DUP4 DUP1 SWAP3 PUSH2 0x2EE2 JUMP JUMPDEST PUSH2 0x446F DUP3 DUP7 PUSH2 0x362F JUMP JUMPDEST MSTORE PUSH2 0x447A DUP2 DUP6 PUSH2 0x362F JUMP JUMPDEST POP PUSH2 0x3AB8 JUMP JUMPDEST SWAP5 SWAP1 POP PUSH2 0x4432 JUMP JUMPDEST PUSH2 0x3A65 PUSH2 0x4498 PUSH2 0x4458 DUP6 DUP10 PUSH2 0x3643 JUMP JUMPDEST PUSH1 0x20 DUP2 MLOAD SWAP2 ADD KECCAK256 PUSH2 0x44A9 DUP3 DUP7 PUSH2 0x362F JUMP JUMPDEST MLOAD PUSH1 0x20 DUP2 MLOAD SWAP2 ADD KECCAK256 EQ PUSH2 0x44C4 JUMPI PUSH2 0x44BF SWAP1 PUSH2 0x3AB8 JUMP JUMPDEST PUSH2 0x4424 JUMP JUMPDEST POP POP PUSH1 0x0 CODESIZE PUSH2 0x442C JUMP JUMPDEST DUP1 PUSH1 0x60 PUSH1 0x20 DUP1 SWAP4 DUP9 ADD ADD MSTORE ADD PUSH2 0x4311 JUMP JUMPDEST PUSH1 0xA SWAP1 DIV SWAP1 PUSH1 0x0 DUP3 DUP3 ADD SWAP3 DUP4 SLT SWAP2 SLT SWAP1 DUP1 ISZERO DUP3 AND SWAP2 ISZERO AND OR PUSH2 0x3332 JUMPI CODESIZE PUSH2 0x42D2 JUMP JUMPDEST PUSH1 0x2 NOT DUP2 ADD SWAP1 DUP2 SGT PUSH1 0x1 AND ISZERO PUSH2 0x42C1 JUMPI PUSH4 0x4E487B71 PUSH1 0xE0 SHL PUSH1 0x0 MSTORE PUSH1 0x11 PUSH1 0x4 MSTORE PUSH1 0x24 PUSH1 0x0 REVERT JUMPDEST PUSH1 0x64 GT PUSH2 0x453F JUMPI PUSH2 0x4539 PUSH1 0x14 SWAP2 PUSH2 0x46F3 JUMP JUMPDEST SWAP2 PUSH2 0x42A1 JUMP JUMPDEST PUSH1 0x3 NOT DUP2 ADD SWAP1 DUP2 SGT PUSH1 0x1 AND PUSH2 0x3332 JUMPI PUSH1 0x14 SWAP1 SWAP2 PUSH2 0x42A1 JUMP JUMPDEST PUSH2 0x4560 SWAP1 PUSH2 0x46E1 JUMP JUMPDEST SWAP1 PUSH2 0x4278 JUMP JUMPDEST PUSH1 0x1 NOT DUP2 ADD SWAP1 DUP2 SGT PUSH1 0x1 AND PUSH2 0x3332 JUMPI PUSH1 0x5 SWAP1 SWAP2 PUSH2 0x4257 JUMP JUMPDEST PUSH1 0x64 GT PUSH2 0x4596 JUMPI PUSH2 0x4590 PUSH1 0xA SWAP2 PUSH2 0x46F3 JUMP JUMPDEST SWAP2 PUSH2 0x4245 JUMP JUMPDEST POP PUSH1 0xA PUSH1 0x4 NOT SWAP2 PUSH2 0x4245 JUMP JUMPDEST POP PUSH1 0x1 PUSH2 0x416D JUMP JUMPDEST PUSH2 0x45C1 SWAP1 PUSH2 0x3E8 PUSH2 0x4130 DUP7 PUSH2 0x412B DUP7 SLOAD DUP1 SWAP6 PUSH2 0x3AC7 JUMP JUMPDEST SWAP1 SSTORE CODESIZE DUP1 PUSH2 0x4151 JUMP JUMPDEST SWAP1 POP PUSH1 0x1E DUP2 LT DUP1 PUSH2 0x4628 JUMPI JUMPDEST PUSH2 0x45E1 JUMPI JUMPDEST POP PUSH2 0x413A JUMP JUMPDEST PUSH1 0x1E SUB PUSH1 0x1E DUP2 GT PUSH2 0x3332 JUMPI PUSH2 0x3E8 PUSH2 0x45FF DUP6 PUSH2 0x412B DUP6 SLOAD DUP1 SWAP6 PUSH2 0x3AC7 JUMP JUMPDEST DIV DUP1 SWAP2 GT PUSH1 0x0 EQ PUSH2 0x461E JUMPI PUSH2 0x4615 SWAP1 DUP3 SLOAD PUSH2 0x3585 JUMP JUMPDEST DUP2 SSTORE JUMPDEST CODESIZE PUSH2 0x45DB JUMP JUMPDEST POP PUSH1 0x0 DUP2 SSTORE PUSH2 0x4618 JUMP JUMPDEST POP PUSH1 0x32 DUP3 SLOAD GT PUSH2 0x45D6 JUMP JUMPDEST POP PUSH1 0xC0 RETURNDATASIZE DUP2 GT PUSH2 0x4666 JUMPI JUMPDEST PUSH2 0x4648 DUP2 DUP4 PUSH2 0x2CAE JUMP JUMPDEST DUP2 ADD SWAP1 PUSH1 0xC0 DUP2 DUP4 SUB SLT PUSH2 0x2BC0 JUMPI PUSH1 0xA0 SWAP2 PUSH2 0x4661 SWAP2 PUSH2 0x3830 JUMP JUMPDEST PUSH2 0x3F12 JUMP JUMPDEST POP RETURNDATASIZE PUSH2 0x463E JUMP JUMPDEST SWAP2 SWAP4 PUSH1 0x1 SWAP2 SWAP4 SWAP6 POP PUSH1 0x3 PUSH1 0x20 SWAP2 PUSH1 0x63 NOT DUP11 DUP3 SUB ADD DUP6 MSTORE PUSH2 0x4693 PUSH1 0x60 DUP1 DUP4 MSTORE DUP3 ADD DUP10 PUSH2 0x2EE2 JUMP JUMPDEST SWAP1 DUP5 DUP10 ADD SLOAD DUP5 DUP3 ADD MSTORE PUSH1 0x40 PUSH1 0xFF PUSH1 0x2 DUP12 ADD SLOAD AND ISZERO ISZERO SWAP2 ADD MSTORE SWAP7 ADD SWAP3 ADD SWAP3 ADD DUP7 SWAP5 SWAP4 SWAP2 SWAP3 PUSH2 0x3EE9 JUMP JUMPDEST PUSH1 0x40 MLOAD SWAP1 PUSH2 0x46C8 DUP3 PUSH2 0x2C93 JUMP JUMPDEST PUSH1 0xA DUP3 MSTORE PUSH10 0x3837B83AB630BA34B7B7 PUSH1 0xB1 SHL PUSH1 0x20 DUP4 ADD MSTORE JUMP JUMPDEST SWAP1 PUSH1 0x0 NOT DUP3 ADD SWAP2 DUP3 SGT PUSH1 0x1 AND PUSH2 0x3332 JUMPI JUMP JUMPDEST SWAP1 PUSH1 0x2 DUP3 ADD SWAP2 PUSH1 0x0 PUSH1 0x2 DUP5 SLT SWAP2 SLT SWAP1 DUP1 ISZERO DUP3 AND SWAP2 ISZERO AND OR PUSH2 0x3332 JUMPI JUMP JUMPDEST PUSH1 0x40 MLOAD SWAP1 PUSH2 0x471D DUP3 PUSH2 0x2C93 JUMP JUMPDEST PUSH1 0x9 DUP3 MSTORE PUSH9 0x68617070696E657373 PUSH1 0xB8 SHL PUSH1 0x20 DUP4 ADD MSTORE JUMP JUMPDEST PUSH1 0x0 SWAP1 DUP2 MSTORE PUSH1 0x20 PUSH1 0x17 DUP2 MSTORE PUSH1 0x40 DUP1 DUP4 KECCAK256 SWAP2 DUP4 SWAP5 PUSH1 0x6 DUP6 SWAP5 ADD DUP1 SLOAD SWAP5 JUMPDEST DUP6 DUP2 LT PUSH2 0x4762 JUMPI POP POP POP POP POP POP POP SWAP1 JUMP JUMPDEST PUSH2 0x4775 PUSH2 0x476F DUP3 DUP5 PUSH2 0x3643 JUMP JUMPDEST POP PUSH2 0x3A40 JUMP JUMPDEST DUP6 DUP2 ADD MLOAD PUSH2 0x478D JUMPI JUMPDEST POP PUSH2 0x4788 SWAP1 PUSH2 0x3AB8 JUMP JUMPDEST PUSH2 0x4751 JUMP JUMPDEST DUP8 PUSH2 0x47C8 PUSH1 0x1 DUP1 PUSH1 0xA0 SWAP13 SWAP6 SWAP13 SHL SUB PUSH1 0xD SLOAD AND DUP8 DUP5 MLOAD SWAP5 ADD MLOAD SWAP4 DUP10 MLOAD DUP1 SWAP6 DUP2 SWAP5 DUP3 SWAP4 PUSH4 0x244D87AD PUSH1 0xE1 SHL DUP5 MSTORE DUP14 PUSH1 0x4 DUP6 ADD MSTORE PUSH1 0x44 DUP5 ADD SWAP1 PUSH2 0x2B85 JUMP JUMPDEST SWAP1 PUSH1 0x24 DUP4 ADD MSTORE SUB SWAP2 GAS STATICCALL SWAP1 DUP2 ISZERO PUSH2 0x4870 JUMPI DUP9 SWAP2 PUSH2 0x4856 JUMPI JUMPDEST POP DUP4 MLOAD DUP6 DUP6 ADD SWAP1 DUP2 KECCAK256 PUSH2 0x47F1 PUSH2 0x4710 JUMP JUMPDEST DUP1 MLOAD SWAP1 DUP9 ADD KECCAK256 SUB PUSH2 0x4817 JUMPI POP PUSH2 0x4788 SWAP2 PUSH1 0xA0 PUSH2 0x480F SWAP3 ADD MLOAD SWAP1 PUSH2 0x35F5 JUMP JUMPDEST SWAP8 JUMPDEST SWAP1 PUSH2 0x477E JUMP JUMPDEST DUP5 SWAP10 SWAP3 SWAP10 MLOAD SWAP1 KECCAK256 PUSH2 0x4826 PUSH2 0x46BB JUMP JUMPDEST DUP7 DUP2 MLOAD SWAP2 ADD KECCAK256 EQ PUSH2 0x483C JUMPI JUMPDEST POP PUSH2 0x4788 SWAP1 PUSH2 0x4811 JUMP JUMPDEST PUSH2 0x4788 SWAP2 SWAP9 PUSH1 0x80 PUSH2 0x484F SWAP3 ADD MLOAD SWAP1 PUSH2 0x35F5 JUMP JUMPDEST SWAP8 SWAP1 PUSH2 0x4832 JUMP JUMPDEST PUSH2 0x486A SWAP2 POP RETURNDATASIZE DUP1 DUP11 DUP4 RETURNDATACOPY PUSH2 0x909 DUP2 DUP4 PUSH2 0x2CAE JUMP JUMPDEST CODESIZE PUSH2 0x47E0 JUMP JUMPDEST DUP7 MLOAD RETURNDATASIZE DUP11 DUP3 RETURNDATACOPY RETURNDATASIZE SWAP1 REVERT INVALID LOG2 PUSH5 0x6970667358 0x22 SLT KECCAK256 0x26 0xBB NOT 0xAD 0x2B 0x2E PUSH20 0x5BEEC9BD9EEACB6336C6D84D0628E8DA0202A857 0xF PUSH26 0x105E6C64736F6C63430008130033000000000000000000000000 "},"methodIdentifiers":{"addResources(uint256,(uint256,uint256,uint256,uint256,uint256,uint256))":"9b006001","approve(address,uint256)":"095ea7b3","balanceOf(address)":"70a08231","buildingManager()":"60e4c393","completeBuildingConstruction(uint256)":"2de3e04f","epochDuration()":"4ff0876a","erc20Token()":"8a13eea7","getApproved(uint256)":"081812fc","getLandCoordinates(uint256)":"51450056","getLandStats(uint256)":"018c7f9e","increaseMaxSupply(uint256)":"90edbfee","isApprovedForAll(address,address)":"e985e9c5","landStats(uint256)":"5c842848","lastEpochUpdateTime()":"76fe7cb5","lastFlippedEpochTime()":"073c9c81","mapContract()":"6727b150","marketContract()":"a1794bcd","maxSupply()":"d5abeb01","mint(uint8,uint256)":"f26748e2","mintPrice()":"6817c76c","name()":"06fdde03","nextTokenId()":"75794a3c","owner()":"8da5cb5b","ownerOf(uint256)":"6352211e","renounceOwnership()":"715018a6","safeTransferFrom(address,address,uint256)":"42842e0e","safeTransferFrom(address,address,uint256,bytes)":"b88d4fde","setApprovalForAll(address,bool)":"a22cb465","setBuildingManager(address)":"a563ef2c","setERC20Token(address)":"de562487","setMapContract(address)":"0426657c","setMarketContract(address)":"f85ea2ab","setMintPrice(uint256)":"f4a0a528","startBuildingConstruction(uint256,string,uint256)":"691c7836","supportsInterface(bytes4)":"01ffc9a7","symbol()":"95d89b41","tokenByIndex(uint256)":"4f6ccce7","tokenDecimals()":"3b97e856","tokenOfOwnerByIndex(address,uint256)":"2f745c59","tokenURI(uint256)":"c87b56dd","totalSupply()":"18160ddd","transferFrom(address,address,uint256)":"23b872dd","transferOwnership(address)":"f2fde38b","updateEpoch()":"36f4fb02","withdraw()":"3ccfd60b","withdrawERC20()":"2ed6d5e8"}}}}}