{"contracts/leaderboard.sol":{"Leaderboard":{"abi":[{"inputs":[{"internalType":"address","name":"_landNFTAddress","type":"address"},{"internalType":"address","name":"_erc20TokenAddress","type":"address"}],"stateMutability":"nonpayable","type":"constructor"},{"anonymous":false,"inputs":[],"name":"LeaderboardUpdated","type":"event"},{"anonymous":false,"inputs":[{"indexed":true,"internalType":"address","name":"previousOwner","type":"address"},{"indexed":true,"internalType":"address","name":"newOwner","type":"address"}],"name":"OwnershipTransferred","type":"event"},{"anonymous":false,"inputs":[],"name":"RewardsDistributed","type":"event"},{"inputs":[{"internalType":"uint256","name":"amount","type":"uint256"}],"name":"depositERC20","outputs":[],"stateMutability":"nonpayable","type":"function"},{"inputs":[{"internalType":"uint256[]","name":"rewards","type":"uint256[]"}],"name":"distributeRewards","outputs":[],"stateMutability":"nonpayable","type":"function"},{"inputs":[],"name":"erc20Token","outputs":[{"internalType":"contract IERC20","name":"","type":"address"}],"stateMutability":"view","type":"function"},{"inputs":[],"name":"getLeaderboard","outputs":[{"components":[{"internalType":"uint256","name":"tokenId","type":"uint256"},{"internalType":"uint256","name":"score","type":"uint256"}],"internalType":"struct Leaderboard.NFTScore[]","name":"","type":"tuple[]"}],"stateMutability":"view","type":"function"},{"inputs":[],"name":"landNFT","outputs":[{"internalType":"contract LandNFT","name":"","type":"address"}],"stateMutability":"view","type":"function"},{"inputs":[{"internalType":"uint256","name":"","type":"uint256"}],"name":"leaderboard","outputs":[{"internalType":"uint256","name":"tokenId","type":"uint256"},{"internalType":"uint256","name":"score","type":"uint256"}],"stateMutability":"view","type":"function"},{"inputs":[{"internalType":"uint256","name":"","type":"uint256"}],"name":"nftIndex","outputs":[{"internalType":"uint256","name":"","type":"uint256"}],"stateMutability":"view","type":"function"},{"inputs":[],"name":"owner","outputs":[{"internalType":"address","name":"","type":"address"}],"stateMutability":"view","type":"function"},{"inputs":[],"name":"renounceOwnership","outputs":[],"stateMutability":"nonpayable","type":"function"},{"inputs":[{"internalType":"address","name":"newOwner","type":"address"}],"name":"transferOwnership","outputs":[],"stateMutability":"nonpayable","type":"function"},{"inputs":[{"internalType":"address","name":"_newLandNFTAddress","type":"address"}],"name":"updateLandNFT","outputs":[],"stateMutability":"nonpayable","type":"function"},{"inputs":[],"name":"updateLeaderboard","outputs":[],"stateMutability":"nonpayable","type":"function"},{"inputs":[{"internalType":"uint256","name":"amount","type":"uint256"}],"name":"withdrawERC20","outputs":[],"stateMutability":"nonpayable","type":"function"}],"evm":{"bytecode":{"linkReferences":{},"object":"6080346100c357601f61143f38819003918201601f19168301916001600160401b038311848410176100c85780849260409485528339810103126100c357610052602061004b836100de565b92016100de565b60008054336001600160a01b0319808316821784556040519590946001600160a01b03949093859391908416907f8be0079c531659141344cd1fd0a4f28419497f9722a3daafe3b4186f6b6457e09080a3168360025416176002551690600154161760015561134c90816100f38239f35b600080fd5b634e487b7160e01b600052604160045260246000fd5b51906001600160a01b03821682036100c35756fe6080806040526004908136101561001557600080fd5b60003560e01c90816339d022e11461106a5750806353734b02146108045780636d763a6e1461073d578063715018a6146106e45780637deb8b02146104c75780638a13eea71461049e5780638da5cb5b14610475578063a90cb7701461044b578063b5a65818146103be578063b79092fd14610321578063bf368399146102e5578063d78276c6146101805763f2fde38b146100b057600080fd5b3461017b57602036600319011261017b576001600160a01b038135818116929083900361017b576100df6110de565b82156101285750600054826bffffffffffffffffffffffff60a01b821617600055167f8be0079c531659141344cd1fd0a4f28419497f9722a3daafe3b4186f6b6457e0600080a3005b60849060206040519162461bcd60e51b8352820152602660248201527f4f776e61626c653a206e6577206f776e657220697320746865207a65726f206160448201526564647265737360d01b6064820152fd5b600080fd5b503461017b5760208060031936011261017b57813561019d6110de565b6001546040516370a0823160e01b815230858201526001600160a01b0391821691908481602481865afa801561026d5784916000916102b4575b501061027957600080546040805163a9059cbb60e01b8152939091166001600160a01b03169683019687526020870194909452909484938693928492909183910103925af190811561026d57600091610236575b610234826112d2565b005b905081813d8311610266575b61024c8183611182565b8101031261017b576102606102349161126e565b3861022b565b503d610242565b6040513d6000823e3d90fd5b60405162461bcd60e51b81528086018590526014602482015273496e73756666696369656e742062616c616e636560601b6044820152606490fd5b809250868092503d83116102de575b6102cd8183611182565b8101031261017b57839051386101d7565b503d6102c3565b503461017b57602036600319011261017b573560035481101561017b5761030d60409161108e565b506001815491015482519182526020820152f35b503461017b57602036600319011261017b576001546040516323b872dd60e01b8152338184015230602482015291356044830152602090829060649082906000906001600160a01b03165af1801561026d57600090610384575b610234906112d2565b506020813d82116103b6575b8161039d60209383611182565b8101031261017b576103b16102349161126e565b61037b565b3d9150610390565b503461017b57602036600319011261017b5780356001600160a01b038116919082900361017b576103ed6110de565b811561041157506bffffffffffffffffffffffff60a01b6002541617600255600080f35b60649060206040519162461bcd60e51b83528201526013602482015272496e76616c6964206e6577206164647265737360681b6044820152fd5b503461017b57602036600319011261017b5780356000526020526020604060002054604051908152f35b3461017b57600036600319011261017b576000546040516001600160a01b039091168152602090f35b3461017b57600036600319011261017b576001546040516001600160a01b039091168152602090f35b503461017b576020908160031936011261017b5780356001600160401b039182821161017b573660238301121561017b578181013592831161017b57602491600591368486851b8401011161017b5761051e6110de565b600394855481036106a15760005b865481101561067a5781811015610666576105468161108e565b50549060018060a01b038981600254169389604051809681936331a9108f60e11b83528a8301525afa92831561026d57889383898d948a9460009461062e575b506001546040805163a9059cbb60e01b81526001600160a01b039096168c87019081529490931b90950190970135602083015291958693169183916000918391015b03925af191821561026d576000926105f2575b506105e86105ed926112d2565b6111a3565b61052c565b91508882813d8311610627575b6106098183611182565b8101031261017b576105e86106206105ed9361126e565b92506105db565b503d6105ff565b6000929194506106566105c891883d8a1161065f575b61064e8183611182565b8101906111c8565b94919250610586565b503d610644565b85603284634e487b7160e01b600052526000fd5b7fefea7889cd26c56b4174d211c6b03e98a905c56c27fbd926d308e082727de59d600080a1005b60405162461bcd60e51b8152808301889052601d818701527f52657761726473206172726179206c656e677468206d69736d617463680000006044820152606490fd5b3461017b57600036600319011261017b576106fd6110de565b600080546001600160a01b0319811682556001600160a01b03167f8be0079c531659141344cd1fd0a4f28419497f9722a3daafe3b4186f6b6457e08280a3005b3461017b57600036600319011261017b5760035461075a816111e7565b6107676040519182611182565b818152602090818101928360036000527fc2575a0e9e593c00f959f8c92f12db2869c3395a3b0502d05e2516446f71f85b6000915b8383106107e75760408051878152865181890181905289928201908960005b8281106107c85784840385f35b85518051855282015184830152948101946040909301926001016107bb565b6002866001926107f6856112b4565b81520192019201919061079c565b503461017b57600036600319011261017b5761081e6110de565b60035460006003558061100c575b506002546040516318160ddd60e01b8152906020908290849082906001600160a01b03165afa90811561026d57600091610fda575b5060015b8181111561098c576000835b6003548210156109655760018201808311610950575b60035481101561093f57600161089c8261108e565b50015460016108aa8561108e565b500154106108c1575b6108bc906111a3565b610887565b6108d36108cd8461108e565b506112b4565b6108dc8261108e565b506108e68561108e565b91909161092b579181836108bc95946109109403610917575b505061090a8361108e565b9061127b565b90506108b3565b6001818192548455015491015586806108ff565b600085634e487b7160e01b82525260246000fd5b509061094a906111a3565b90610871565b601182634e487b7160e01b6000525260246000fd5b7fe1f4cf2e47a4efbf06b4001dab264f9632dc0f1b5192111ecb9821d96aaad581600080a1005b6002546040516331a9108f60e11b81528481018390526001600160a01b0390911690602081602481855afa90811561026d57600091610fbb575b506001600160a01b03166109e4575b506109df906111a3565b610865565b60006024916040519283809262c63fcf60e11b825286898301525afa90811561026d57600091610c4d575b50805190818060011b0460021482151715610c3857604081015191608080830151606092838501519260208601519460a087015196519160405191602083019342855244604085015281840152825281818101106001600160401b038284011117610c2357906032929181016040525190200695600381029080820460031490151715610c0e5790610aa79160011c9060011b6112a7565b8160011b9180830460021490151715610bf95790610ac4916112a7565b90600590818102918183041490151715610be45790610ae69160011c906112a7565b908060021b90808204881490151715610bcf57906003610b079204906112a7565b600382029180830460031490151715610bba57610b2d9291610b28916112a7565b6112a7565b60405190610b3a82611167565b828252602082015260035468010000000000000000811015610ba5579061090a826001610b6a940160035561108e565b6003546000198101908111610b90576000828152602085905260409020556109df6109d5565b601184634e487b7160e01b6000525260246000fd5b604185634e487b7160e01b6000525260246000fd5b601186634e487b7160e01b6000525260246000fd5b601187634e487b7160e01b6000525260246000fd5b601188634e487b7160e01b6000525260246000fd5b601189634e487b7160e01b6000525260246000fd5b60118a634e487b7160e01b6000525260246000fd5b60418c634e487b7160e01b6000525260246000fd5b601185634e487b7160e01b6000525260246000fd5b3d9150816000823e610c5f8282611182565b602081838101031261017b5780516001600160401b03811161017b576101e0818301848401031261017b576040519261014084018481106001600160401b03821117610e7e57604090815283830180518652602080820151908701528082015191860191909152606080820151908601526080808201519086015260a0808201519086015260c001516001600160401b03811161017b57818401601f828587010101121561017b57808385010151610d16816111e7565b91610d246040519384611182565b818352602083019084870160208460051b83898b010101011161017b576020818789010101915b60208460051b83898b010101018310610f25575050505060c085015260e082840101516001600160401b03811161017b57818401601f828587010101121561017b57808385010151610d9c816111e7565b91610daa6040519384611182565b818352602083019084870160208460051b83898b010101011161017b576020818789010101915b60208460051b83898b010101018310610e93575050505060e085015260c08383019184019190910360ff19011261017b576040519160c083018381106001600160401b03821117610e7e576040908152910161010081810151845261012080830151602086015261014083015193850193909352610160820151606085015261018082015160808501526101a082015160a08501528401929092526101c091909101519082015238610a0f565b604188634e487b7160e01b6000525260246000fd5b82516001600160401b03811161017b57606089890184018201888b0103601f19011261017b5760405191610ec683611136565b602082858b8d0101010151926001600160401b03841161017b57606060209493868c8e610f0289988f8a908401918787878701010101016111fe565b865201010160408181015186850152910151908201528152919093019201610dd1565b8251906001600160401b03821161017b57606089890184018301888b0103601f19011261017b5760405190610f5982611136565b602083858b8d0101010151916001600160401b03831161017b57610fab6060602095878d8f610f978f998b809b8401918787878701010101016111fe565b87520101016040810151868501520161126e565b6040820152815201920191610d4b565b610fd4915060203d60201161065f5761064e8183611182565b386109c6565b90506020813d602011611004575b81610ff560209383611182565b8101031261017b575138610861565b3d9150610fe8565b6001600160ff1b038116810361095057600360005260017fc2575a0e9e593c00f959f8c92f12db2869c3395a3b0502d05e2516446f71f85b91811b8201915b82811061105957505061082c565b60008082558282015560020161104b565b3461017b57600036600319011261017b576002546001600160a01b03168152602090f35b6003548110156110c857600360005260011b7fc2575a0e9e593c00f959f8c92f12db2869c3395a3b0502d05e2516446f71f85b0190600090565b634e487b7160e01b600052603260045260246000fd5b6000546001600160a01b031633036110f257565b606460405162461bcd60e51b815260206004820152602060248201527f4f776e61626c653a2063616c6c6572206973206e6f7420746865206f776e65726044820152fd5b606081019081106001600160401b0382111761115157604052565b634e487b7160e01b600052604160045260246000fd5b604081019081106001600160401b0382111761115157604052565b90601f801991011681019081106001600160401b0382111761115157604052565b60001981146111b25760010190565b634e487b7160e01b600052601160045260246000fd5b9081602091031261017b57516001600160a01b038116810361017b5790565b6001600160401b0381116111515760051b60200190565b919080601f8401121561017b578251906001600160401b0382116111515760405191602091611236601f8301601f1916840185611182565b81845282828701011161017b5760005b81811061125b57508260009394955001015290565b8581018301518482018401528201611246565b5190811515820361017b57565b9190611291576020816001925184550151910155565b634e487b7160e01b600052600060045260246000fd5b919082018092116111b257565b906040516112c181611167565b602060018294805484520154910152565b156112d957565b60405162461bcd60e51b8152602060048201526015602482015274115490cc8c081d1c985b9cd9995c8819985a5b1959605a1b6044820152606490fdfea2646970667358221220c9a18aab303035de22d463c40beaec82d0b75af5b9edf825cd414127301fae4e64736f6c63430008130033","opcodes":"PUSH1 0x80 CALLVALUE PUSH2 0xC3 JUMPI PUSH1 0x1F PUSH2 0x143F CODESIZE DUP2 SWAP1 SUB SWAP2 DUP3 ADD PUSH1 0x1F NOT AND DUP4 ADD SWAP2 PUSH1 0x1 PUSH1 0x1 PUSH1 0x40 SHL SUB DUP4 GT DUP5 DUP5 LT OR PUSH2 0xC8 JUMPI DUP1 DUP5 SWAP3 PUSH1 0x40 SWAP5 DUP6 MSTORE DUP4 CODECOPY DUP2 ADD SUB SLT PUSH2 0xC3 JUMPI PUSH2 0x52 PUSH1 0x20 PUSH2 0x4B DUP4 PUSH2 0xDE JUMP JUMPDEST SWAP3 ADD PUSH2 0xDE JUMP JUMPDEST PUSH1 0x0 DUP1 SLOAD CALLER PUSH1 0x1 PUSH1 0x1 PUSH1 0xA0 SHL SUB NOT DUP1 DUP4 AND DUP3 OR DUP5 SSTORE PUSH1 0x40 MLOAD SWAP6 SWAP1 SWAP5 PUSH1 0x1 PUSH1 0x1 PUSH1 0xA0 SHL SUB SWAP5 SWAP1 SWAP4 DUP6 SWAP4 SWAP2 SWAP1 DUP5 AND SWAP1 PUSH32 0x8BE0079C531659141344CD1FD0A4F28419497F9722A3DAAFE3B4186F6B6457E0 SWAP1 DUP1 LOG3 AND DUP4 PUSH1 0x2 SLOAD AND OR PUSH1 0x2 SSTORE AND SWAP1 PUSH1 0x1 SLOAD AND OR PUSH1 0x1 SSTORE PUSH2 0x134C SWAP1 DUP2 PUSH2 0xF3 DUP3 CODECOPY RETURN JUMPDEST PUSH1 0x0 DUP1 REVERT JUMPDEST PUSH4 0x4E487B71 PUSH1 0xE0 SHL PUSH1 0x0 MSTORE PUSH1 0x41 PUSH1 0x4 MSTORE PUSH1 0x24 PUSH1 0x0 REVERT JUMPDEST MLOAD SWAP1 PUSH1 0x1 PUSH1 0x1 PUSH1 0xA0 SHL SUB DUP3 AND DUP3 SUB PUSH2 0xC3 JUMPI JUMP INVALID PUSH1 0x80 DUP1 PUSH1 0x40 MSTORE PUSH1 0x4 SWAP1 DUP2 CALLDATASIZE LT ISZERO PUSH2 0x15 JUMPI PUSH1 0x0 DUP1 REVERT JUMPDEST PUSH1 0x0 CALLDATALOAD PUSH1 0xE0 SHR SWAP1 DUP2 PUSH4 0x39D022E1 EQ PUSH2 0x106A JUMPI POP DUP1 PUSH4 0x53734B02 EQ PUSH2 0x804 JUMPI DUP1 PUSH4 0x6D763A6E EQ PUSH2 0x73D JUMPI DUP1 PUSH4 0x715018A6 EQ PUSH2 0x6E4 JUMPI DUP1 PUSH4 0x7DEB8B02 EQ PUSH2 0x4C7 JUMPI DUP1 PUSH4 0x8A13EEA7 EQ PUSH2 0x49E JUMPI DUP1 PUSH4 0x8DA5CB5B EQ PUSH2 0x475 JUMPI DUP1 PUSH4 0xA90CB770 EQ PUSH2 0x44B JUMPI DUP1 PUSH4 0xB5A65818 EQ PUSH2 0x3BE JUMPI DUP1 PUSH4 0xB79092FD EQ PUSH2 0x321 JUMPI DUP1 PUSH4 0xBF368399 EQ PUSH2 0x2E5 JUMPI DUP1 PUSH4 0xD78276C6 EQ PUSH2 0x180 JUMPI PUSH4 0xF2FDE38B EQ PUSH2 0xB0 JUMPI PUSH1 0x0 DUP1 REVERT JUMPDEST CALLVALUE PUSH2 0x17B JUMPI PUSH1 0x20 CALLDATASIZE PUSH1 0x3 NOT ADD SLT PUSH2 0x17B JUMPI PUSH1 0x1 PUSH1 0x1 PUSH1 0xA0 SHL SUB DUP2 CALLDATALOAD DUP2 DUP2 AND SWAP3 SWAP1 DUP4 SWAP1 SUB PUSH2 0x17B JUMPI PUSH2 0xDF PUSH2 0x10DE JUMP JUMPDEST DUP3 ISZERO PUSH2 0x128 JUMPI POP PUSH1 0x0 SLOAD DUP3 PUSH12 0xFFFFFFFFFFFFFFFFFFFFFFFF PUSH1 0xA0 SHL DUP3 AND OR PUSH1 0x0 SSTORE AND PUSH32 0x8BE0079C531659141344CD1FD0A4F28419497F9722A3DAAFE3B4186F6B6457E0 PUSH1 0x0 DUP1 LOG3 STOP JUMPDEST PUSH1 0x84 SWAP1 PUSH1 0x20 PUSH1 0x40 MLOAD SWAP2 PUSH3 0x461BCD PUSH1 0xE5 SHL DUP4 MSTORE DUP3 ADD MSTORE PUSH1 0x26 PUSH1 0x24 DUP3 ADD MSTORE PUSH32 0x4F776E61626C653A206E6577206F776E657220697320746865207A65726F2061 PUSH1 0x44 DUP3 ADD MSTORE PUSH6 0x646472657373 PUSH1 0xD0 SHL PUSH1 0x64 DUP3 ADD MSTORE REVERT JUMPDEST PUSH1 0x0 DUP1 REVERT JUMPDEST POP CALLVALUE PUSH2 0x17B JUMPI PUSH1 0x20 DUP1 PUSH1 0x3 NOT CALLDATASIZE ADD SLT PUSH2 0x17B JUMPI DUP2 CALLDATALOAD PUSH2 0x19D PUSH2 0x10DE JUMP JUMPDEST PUSH1 0x1 SLOAD PUSH1 0x40 MLOAD PUSH4 0x70A08231 PUSH1 0xE0 SHL DUP2 MSTORE ADDRESS DUP6 DUP3 ADD MSTORE PUSH1 0x1 PUSH1 0x1 PUSH1 0xA0 SHL SUB SWAP2 DUP3 AND SWAP2 SWAP1 DUP5 DUP2 PUSH1 0x24 DUP2 DUP7 GAS STATICCALL DUP1 ISZERO PUSH2 0x26D JUMPI DUP5 SWAP2 PUSH1 0x0 SWAP2 PUSH2 0x2B4 JUMPI JUMPDEST POP LT PUSH2 0x279 JUMPI PUSH1 0x0 DUP1 SLOAD PUSH1 0x40 DUP1 MLOAD PUSH4 0xA9059CBB PUSH1 0xE0 SHL DUP2 MSTORE SWAP4 SWAP1 SWAP2 AND PUSH1 0x1 PUSH1 0x1 PUSH1 0xA0 SHL SUB AND SWAP7 DUP4 ADD SWAP7 DUP8 MSTORE PUSH1 0x20 DUP8 ADD SWAP5 SWAP1 SWAP5 MSTORE SWAP1 SWAP5 DUP5 SWAP4 DUP7 SWAP4 SWAP3 DUP5 SWAP3 SWAP1 SWAP2 DUP4 SWAP2 ADD SUB SWAP3 GAS CALL SWAP1 DUP2 ISZERO PUSH2 0x26D JUMPI PUSH1 0x0 SWAP2 PUSH2 0x236 JUMPI JUMPDEST PUSH2 0x234 DUP3 PUSH2 0x12D2 JUMP JUMPDEST STOP JUMPDEST SWAP1 POP DUP2 DUP2 RETURNDATASIZE DUP4 GT PUSH2 0x266 JUMPI JUMPDEST PUSH2 0x24C DUP2 DUP4 PUSH2 0x1182 JUMP JUMPDEST DUP2 ADD SUB SLT PUSH2 0x17B JUMPI PUSH2 0x260 PUSH2 0x234 SWAP2 PUSH2 0x126E JUMP JUMPDEST CODESIZE PUSH2 0x22B JUMP JUMPDEST POP RETURNDATASIZE PUSH2 0x242 JUMP JUMPDEST PUSH1 0x40 MLOAD RETURNDATASIZE PUSH1 0x0 DUP3 RETURNDATACOPY RETURNDATASIZE SWAP1 REVERT JUMPDEST PUSH1 0x40 MLOAD PUSH3 0x461BCD PUSH1 0xE5 SHL DUP2 MSTORE DUP1 DUP7 ADD DUP6 SWAP1 MSTORE PUSH1 0x14 PUSH1 0x24 DUP3 ADD MSTORE PUSH20 0x496E73756666696369656E742062616C616E6365 PUSH1 0x60 SHL PUSH1 0x44 DUP3 ADD MSTORE PUSH1 0x64 SWAP1 REVERT JUMPDEST DUP1 SWAP3 POP DUP7 DUP1 SWAP3 POP RETURNDATASIZE DUP4 GT PUSH2 0x2DE JUMPI JUMPDEST PUSH2 0x2CD DUP2 DUP4 PUSH2 0x1182 JUMP JUMPDEST DUP2 ADD SUB SLT PUSH2 0x17B JUMPI DUP4 SWAP1 MLOAD CODESIZE PUSH2 0x1D7 JUMP JUMPDEST POP RETURNDATASIZE PUSH2 0x2C3 JUMP JUMPDEST POP CALLVALUE PUSH2 0x17B JUMPI PUSH1 0x20 CALLDATASIZE PUSH1 0x3 NOT ADD SLT PUSH2 0x17B JUMPI CALLDATALOAD PUSH1 0x3 SLOAD DUP2 LT ISZERO PUSH2 0x17B JUMPI PUSH2 0x30D PUSH1 0x40 SWAP2 PUSH2 0x108E JUMP JUMPDEST POP PUSH1 0x1 DUP2 SLOAD SWAP2 ADD SLOAD DUP3 MLOAD SWAP2 DUP3 MSTORE PUSH1 0x20 DUP3 ADD MSTORE RETURN JUMPDEST POP CALLVALUE PUSH2 0x17B JUMPI PUSH1 0x20 CALLDATASIZE PUSH1 0x3 NOT ADD SLT PUSH2 0x17B JUMPI PUSH1 0x1 SLOAD PUSH1 0x40 MLOAD PUSH4 0x23B872DD PUSH1 0xE0 SHL DUP2 MSTORE CALLER DUP2 DUP5 ADD MSTORE ADDRESS PUSH1 0x24 DUP3 ADD MSTORE SWAP2 CALLDATALOAD PUSH1 0x44 DUP4 ADD MSTORE PUSH1 0x20 SWAP1 DUP3 SWAP1 PUSH1 0x64 SWAP1 DUP3 SWAP1 PUSH1 0x0 SWAP1 PUSH1 0x1 PUSH1 0x1 PUSH1 0xA0 SHL SUB AND GAS CALL DUP1 ISZERO PUSH2 0x26D JUMPI PUSH1 0x0 SWAP1 PUSH2 0x384 JUMPI JUMPDEST PUSH2 0x234 SWAP1 PUSH2 0x12D2 JUMP JUMPDEST POP PUSH1 0x20 DUP2 RETURNDATASIZE DUP3 GT PUSH2 0x3B6 JUMPI JUMPDEST DUP2 PUSH2 0x39D PUSH1 0x20 SWAP4 DUP4 PUSH2 0x1182 JUMP JUMPDEST DUP2 ADD SUB SLT PUSH2 0x17B JUMPI PUSH2 0x3B1 PUSH2 0x234 SWAP2 PUSH2 0x126E JUMP JUMPDEST PUSH2 0x37B JUMP JUMPDEST RETURNDATASIZE SWAP2 POP PUSH2 0x390 JUMP JUMPDEST POP CALLVALUE PUSH2 0x17B JUMPI PUSH1 0x20 CALLDATASIZE PUSH1 0x3 NOT ADD SLT PUSH2 0x17B JUMPI DUP1 CALLDATALOAD PUSH1 0x1 PUSH1 0x1 PUSH1 0xA0 SHL SUB DUP2 AND SWAP2 SWAP1 DUP3 SWAP1 SUB PUSH2 0x17B JUMPI PUSH2 0x3ED PUSH2 0x10DE JUMP JUMPDEST DUP2 ISZERO PUSH2 0x411 JUMPI POP PUSH12 0xFFFFFFFFFFFFFFFFFFFFFFFF PUSH1 0xA0 SHL PUSH1 0x2 SLOAD AND OR PUSH1 0x2 SSTORE PUSH1 0x0 DUP1 RETURN JUMPDEST PUSH1 0x64 SWAP1 PUSH1 0x20 PUSH1 0x40 MLOAD SWAP2 PUSH3 0x461BCD PUSH1 0xE5 SHL DUP4 MSTORE DUP3 ADD MSTORE PUSH1 0x13 PUSH1 0x24 DUP3 ADD MSTORE PUSH19 0x496E76616C6964206E65772061646472657373 PUSH1 0x68 SHL PUSH1 0x44 DUP3 ADD MSTORE REVERT JUMPDEST POP CALLVALUE PUSH2 0x17B JUMPI PUSH1 0x20 CALLDATASIZE PUSH1 0x3 NOT ADD SLT PUSH2 0x17B JUMPI DUP1 CALLDATALOAD PUSH1 0x0 MSTORE PUSH1 0x20 MSTORE PUSH1 0x20 PUSH1 0x40 PUSH1 0x0 KECCAK256 SLOAD PUSH1 0x40 MLOAD SWAP1 DUP2 MSTORE RETURN JUMPDEST CALLVALUE PUSH2 0x17B JUMPI PUSH1 0x0 CALLDATASIZE PUSH1 0x3 NOT ADD SLT PUSH2 0x17B JUMPI PUSH1 0x0 SLOAD PUSH1 0x40 MLOAD PUSH1 0x1 PUSH1 0x1 PUSH1 0xA0 SHL SUB SWAP1 SWAP2 AND DUP2 MSTORE PUSH1 0x20 SWAP1 RETURN JUMPDEST CALLVALUE PUSH2 0x17B JUMPI PUSH1 0x0 CALLDATASIZE PUSH1 0x3 NOT ADD SLT PUSH2 0x17B JUMPI PUSH1 0x1 SLOAD PUSH1 0x40 MLOAD PUSH1 0x1 PUSH1 0x1 PUSH1 0xA0 SHL SUB SWAP1 SWAP2 AND DUP2 MSTORE PUSH1 0x20 SWAP1 RETURN JUMPDEST POP CALLVALUE PUSH2 0x17B JUMPI PUSH1 0x20 SWAP1 DUP2 PUSH1 0x3 NOT CALLDATASIZE ADD SLT PUSH2 0x17B JUMPI DUP1 CALLDATALOAD PUSH1 0x1 PUSH1 0x1 PUSH1 0x40 SHL SUB SWAP2 DUP3 DUP3 GT PUSH2 0x17B JUMPI CALLDATASIZE PUSH1 0x23 DUP4 ADD SLT ISZERO PUSH2 0x17B JUMPI DUP2 DUP2 ADD CALLDATALOAD SWAP3 DUP4 GT PUSH2 0x17B JUMPI PUSH1 0x24 SWAP2 PUSH1 0x5 SWAP2 CALLDATASIZE DUP5 DUP7 DUP6 SHL DUP5 ADD ADD GT PUSH2 0x17B JUMPI PUSH2 0x51E PUSH2 0x10DE JUMP JUMPDEST PUSH1 0x3 SWAP5 DUP6 SLOAD DUP2 SUB PUSH2 0x6A1 JUMPI PUSH1 0x0 JUMPDEST DUP7 SLOAD DUP2 LT ISZERO PUSH2 0x67A JUMPI DUP2 DUP2 LT ISZERO PUSH2 0x666 JUMPI PUSH2 0x546 DUP2 PUSH2 0x108E JUMP JUMPDEST POP SLOAD SWAP1 PUSH1 0x1 DUP1 PUSH1 0xA0 SHL SUB DUP10 DUP2 PUSH1 0x2 SLOAD AND SWAP4 DUP10 PUSH1 0x40 MLOAD DUP1 SWAP7 DUP2 SWAP4 PUSH4 0x31A9108F PUSH1 0xE1 SHL DUP4 MSTORE DUP11 DUP4 ADD MSTORE GAS STATICCALL SWAP3 DUP4 ISZERO PUSH2 0x26D JUMPI DUP9 SWAP4 DUP4 DUP10 DUP14 SWAP5 DUP11 SWAP5 PUSH1 0x0 SWAP5 PUSH2 0x62E JUMPI JUMPDEST POP PUSH1 0x1 SLOAD PUSH1 0x40 DUP1 MLOAD PUSH4 0xA9059CBB PUSH1 0xE0 SHL DUP2 MSTORE PUSH1 0x1 PUSH1 0x1 PUSH1 0xA0 SHL SUB SWAP1 SWAP7 AND DUP13 DUP8 ADD SWAP1 DUP2 MSTORE SWAP5 SWAP1 SWAP4 SHL SWAP1 SWAP6 ADD SWAP1 SWAP8 ADD CALLDATALOAD PUSH1 0x20 DUP4 ADD MSTORE SWAP2 SWAP6 DUP7 SWAP4 AND SWAP2 DUP4 SWAP2 PUSH1 0x0 SWAP2 DUP4 SWAP2 ADD JUMPDEST SUB SWAP3 GAS CALL SWAP2 DUP3 ISZERO PUSH2 0x26D JUMPI PUSH1 0x0 SWAP3 PUSH2 0x5F2 JUMPI JUMPDEST POP PUSH2 0x5E8 PUSH2 0x5ED SWAP3 PUSH2 0x12D2 JUMP JUMPDEST PUSH2 0x11A3 JUMP JUMPDEST PUSH2 0x52C JUMP JUMPDEST SWAP2 POP DUP9 DUP3 DUP2 RETURNDATASIZE DUP4 GT PUSH2 0x627 JUMPI JUMPDEST PUSH2 0x609 DUP2 DUP4 PUSH2 0x1182 JUMP JUMPDEST DUP2 ADD SUB SLT PUSH2 0x17B JUMPI PUSH2 0x5E8 PUSH2 0x620 PUSH2 0x5ED SWAP4 PUSH2 0x126E JUMP JUMPDEST SWAP3 POP PUSH2 0x5DB JUMP JUMPDEST POP RETURNDATASIZE PUSH2 0x5FF JUMP JUMPDEST PUSH1 0x0 SWAP3 SWAP2 SWAP5 POP PUSH2 0x656 PUSH2 0x5C8 SWAP2 DUP9 RETURNDATASIZE DUP11 GT PUSH2 0x65F JUMPI JUMPDEST PUSH2 0x64E DUP2 DUP4 PUSH2 0x1182 JUMP JUMPDEST DUP2 ADD SWAP1 PUSH2 0x11C8 JUMP JUMPDEST SWAP5 SWAP2 SWAP3 POP PUSH2 0x586 JUMP JUMPDEST POP RETURNDATASIZE PUSH2 0x644 JUMP JUMPDEST DUP6 PUSH1 0x32 DUP5 PUSH4 0x4E487B71 PUSH1 0xE0 SHL PUSH1 0x0 MSTORE MSTORE PUSH1 0x0 REVERT JUMPDEST PUSH32 0xEFEA7889CD26C56B4174D211C6B03E98A905C56C27FBD926D308E082727DE59D PUSH1 0x0 DUP1 LOG1 STOP JUMPDEST PUSH1 0x40 MLOAD PUSH3 0x461BCD PUSH1 0xE5 SHL DUP2 MSTORE DUP1 DUP4 ADD DUP9 SWAP1 MSTORE PUSH1 0x1D DUP2 DUP8 ADD MSTORE PUSH32 0x52657761726473206172726179206C656E677468206D69736D61746368000000 PUSH1 0x44 DUP3 ADD MSTORE PUSH1 0x64 SWAP1 REVERT JUMPDEST CALLVALUE PUSH2 0x17B JUMPI PUSH1 0x0 CALLDATASIZE PUSH1 0x3 NOT ADD SLT PUSH2 0x17B JUMPI PUSH2 0x6FD PUSH2 0x10DE JUMP JUMPDEST PUSH1 0x0 DUP1 SLOAD PUSH1 0x1 PUSH1 0x1 PUSH1 0xA0 SHL SUB NOT DUP2 AND DUP3 SSTORE PUSH1 0x1 PUSH1 0x1 PUSH1 0xA0 SHL SUB AND PUSH32 0x8BE0079C531659141344CD1FD0A4F28419497F9722A3DAAFE3B4186F6B6457E0 DUP3 DUP1 LOG3 STOP JUMPDEST CALLVALUE PUSH2 0x17B JUMPI PUSH1 0x0 CALLDATASIZE PUSH1 0x3 NOT ADD SLT PUSH2 0x17B JUMPI PUSH1 0x3 SLOAD PUSH2 0x75A DUP2 PUSH2 0x11E7 JUMP JUMPDEST PUSH2 0x767 PUSH1 0x40 MLOAD SWAP2 DUP3 PUSH2 0x1182 JUMP JUMPDEST DUP2 DUP2 MSTORE PUSH1 0x20 SWAP1 DUP2 DUP2 ADD SWAP3 DUP4 PUSH1 0x3 PUSH1 0x0 MSTORE PUSH32 0xC2575A0E9E593C00F959F8C92F12DB2869C3395A3B0502D05E2516446F71F85B PUSH1 0x0 SWAP2 JUMPDEST DUP4 DUP4 LT PUSH2 0x7E7 JUMPI PUSH1 0x40 DUP1 MLOAD DUP8 DUP2 MSTORE DUP7 MLOAD DUP2 DUP10 ADD DUP2 SWAP1 MSTORE DUP10 SWAP3 DUP3 ADD SWAP1 DUP10 PUSH1 0x0 JUMPDEST DUP3 DUP2 LT PUSH2 0x7C8 JUMPI DUP5 DUP5 SUB DUP6 RETURN JUMPDEST DUP6 MLOAD DUP1 MLOAD DUP6 MSTORE DUP3 ADD MLOAD DUP5 DUP4 ADD MSTORE SWAP5 DUP2 ADD SWAP5 PUSH1 0x40 SWAP1 SWAP4 ADD SWAP3 PUSH1 0x1 ADD PUSH2 0x7BB JUMP JUMPDEST PUSH1 0x2 DUP7 PUSH1 0x1 SWAP3 PUSH2 0x7F6 DUP6 PUSH2 0x12B4 JUMP JUMPDEST DUP2 MSTORE ADD SWAP3 ADD SWAP3 ADD SWAP2 SWAP1 PUSH2 0x79C JUMP JUMPDEST POP CALLVALUE PUSH2 0x17B JUMPI PUSH1 0x0 CALLDATASIZE PUSH1 0x3 NOT ADD SLT PUSH2 0x17B JUMPI PUSH2 0x81E PUSH2 0x10DE JUMP JUMPDEST PUSH1 0x3 SLOAD PUSH1 0x0 PUSH1 0x3 SSTORE DUP1 PUSH2 0x100C JUMPI JUMPDEST POP PUSH1 0x2 SLOAD PUSH1 0x40 MLOAD PUSH4 0x18160DDD PUSH1 0xE0 SHL DUP2 MSTORE SWAP1 PUSH1 0x20 SWAP1 DUP3 SWAP1 DUP5 SWAP1 DUP3 SWAP1 PUSH1 0x1 PUSH1 0x1 PUSH1 0xA0 SHL SUB AND GAS STATICCALL SWAP1 DUP2 ISZERO PUSH2 0x26D JUMPI PUSH1 0x0 SWAP2 PUSH2 0xFDA JUMPI JUMPDEST POP PUSH1 0x1 JUMPDEST DUP2 DUP2 GT ISZERO PUSH2 0x98C JUMPI PUSH1 0x0 DUP4 JUMPDEST PUSH1 0x3 SLOAD DUP3 LT ISZERO PUSH2 0x965 JUMPI PUSH1 0x1 DUP3 ADD DUP1 DUP4 GT PUSH2 0x950 JUMPI JUMPDEST PUSH1 0x3 SLOAD DUP2 LT ISZERO PUSH2 0x93F JUMPI PUSH1 0x1 PUSH2 0x89C DUP3 PUSH2 0x108E JUMP JUMPDEST POP ADD SLOAD PUSH1 0x1 PUSH2 0x8AA DUP6 PUSH2 0x108E JUMP JUMPDEST POP ADD SLOAD LT PUSH2 0x8C1 JUMPI JUMPDEST PUSH2 0x8BC SWAP1 PUSH2 0x11A3 JUMP JUMPDEST PUSH2 0x887 JUMP JUMPDEST PUSH2 0x8D3 PUSH2 0x8CD DUP5 PUSH2 0x108E JUMP JUMPDEST POP PUSH2 0x12B4 JUMP JUMPDEST PUSH2 0x8DC DUP3 PUSH2 0x108E JUMP JUMPDEST POP PUSH2 0x8E6 DUP6 PUSH2 0x108E JUMP JUMPDEST SWAP2 SWAP1 SWAP2 PUSH2 0x92B JUMPI SWAP2 DUP2 DUP4 PUSH2 0x8BC SWAP6 SWAP5 PUSH2 0x910 SWAP5 SUB PUSH2 0x917 JUMPI JUMPDEST POP POP PUSH2 0x90A DUP4 PUSH2 0x108E JUMP JUMPDEST SWAP1 PUSH2 0x127B JUMP JUMPDEST SWAP1 POP PUSH2 0x8B3 JUMP JUMPDEST PUSH1 0x1 DUP2 DUP2 SWAP3 SLOAD DUP5 SSTORE ADD SLOAD SWAP2 ADD SSTORE DUP7 DUP1 PUSH2 0x8FF JUMP JUMPDEST PUSH1 0x0 DUP6 PUSH4 0x4E487B71 PUSH1 0xE0 SHL DUP3 MSTORE MSTORE PUSH1 0x24 PUSH1 0x0 REVERT JUMPDEST POP SWAP1 PUSH2 0x94A SWAP1 PUSH2 0x11A3 JUMP JUMPDEST SWAP1 PUSH2 0x871 JUMP JUMPDEST PUSH1 0x11 DUP3 PUSH4 0x4E487B71 PUSH1 0xE0 SHL PUSH1 0x0 MSTORE MSTORE PUSH1 0x24 PUSH1 0x0 REVERT JUMPDEST PUSH32 0xE1F4CF2E47A4EFBF06B4001DAB264F9632DC0F1B5192111ECB9821D96AAAD581 PUSH1 0x0 DUP1 LOG1 STOP JUMPDEST PUSH1 0x2 SLOAD PUSH1 0x40 MLOAD PUSH4 0x31A9108F PUSH1 0xE1 SHL DUP2 MSTORE DUP5 DUP2 ADD DUP4 SWAP1 MSTORE PUSH1 0x1 PUSH1 0x1 PUSH1 0xA0 SHL SUB SWAP1 SWAP2 AND SWAP1 PUSH1 0x20 DUP2 PUSH1 0x24 DUP2 DUP6 GAS STATICCALL SWAP1 DUP2 ISZERO PUSH2 0x26D JUMPI PUSH1 0x0 SWAP2 PUSH2 0xFBB JUMPI JUMPDEST POP PUSH1 0x1 PUSH1 0x1 PUSH1 0xA0 SHL SUB AND PUSH2 0x9E4 JUMPI JUMPDEST POP PUSH2 0x9DF SWAP1 PUSH2 0x11A3 JUMP JUMPDEST PUSH2 0x865 JUMP JUMPDEST PUSH1 0x0 PUSH1 0x24 SWAP2 PUSH1 0x40 MLOAD SWAP3 DUP4 DUP1 SWAP3 PUSH3 0xC63FCF PUSH1 0xE1 SHL DUP3 MSTORE DUP7 DUP10 DUP4 ADD MSTORE GAS STATICCALL SWAP1 DUP2 ISZERO PUSH2 0x26D JUMPI PUSH1 0x0 SWAP2 PUSH2 0xC4D JUMPI JUMPDEST POP DUP1 MLOAD SWAP1 DUP2 DUP1 PUSH1 0x1 SHL DIV PUSH1 0x2 EQ DUP3 ISZERO OR ISZERO PUSH2 0xC38 JUMPI PUSH1 0x40 DUP2 ADD MLOAD SWAP2 PUSH1 0x80 DUP1 DUP4 ADD MLOAD PUSH1 0x60 SWAP3 DUP4 DUP6 ADD MLOAD SWAP3 PUSH1 0x20 DUP7 ADD MLOAD SWAP5 PUSH1 0xA0 DUP8 ADD MLOAD SWAP7 MLOAD SWAP2 PUSH1 0x40 MLOAD SWAP2 PUSH1 0x20 DUP4 ADD SWAP4 TIMESTAMP DUP6 MSTORE PREVRANDAO PUSH1 0x40 DUP6 ADD MSTORE DUP2 DUP5 ADD MSTORE DUP3 MSTORE DUP2 DUP2 DUP2 ADD LT PUSH1 0x1 PUSH1 0x1 PUSH1 0x40 SHL SUB DUP3 DUP5 ADD GT OR PUSH2 0xC23 JUMPI SWAP1 PUSH1 0x32 SWAP3 SWAP2 DUP2 ADD PUSH1 0x40 MSTORE MLOAD SWAP1 KECCAK256 MOD SWAP6 PUSH1 0x3 DUP2 MUL SWAP1 DUP1 DUP3 DIV PUSH1 0x3 EQ SWAP1 ISZERO OR ISZERO PUSH2 0xC0E JUMPI SWAP1 PUSH2 0xAA7 SWAP2 PUSH1 0x1 SHR SWAP1 PUSH1 0x1 SHL PUSH2 0x12A7 JUMP JUMPDEST DUP2 PUSH1 0x1 SHL SWAP2 DUP1 DUP4 DIV PUSH1 0x2 EQ SWAP1 ISZERO OR ISZERO PUSH2 0xBF9 JUMPI SWAP1 PUSH2 0xAC4 SWAP2 PUSH2 0x12A7 JUMP JUMPDEST SWAP1 PUSH1 0x5 SWAP1 DUP2 DUP2 MUL SWAP2 DUP2 DUP4 DIV EQ SWAP1 ISZERO OR ISZERO PUSH2 0xBE4 JUMPI SWAP1 PUSH2 0xAE6 SWAP2 PUSH1 0x1 SHR SWAP1 PUSH2 0x12A7 JUMP JUMPDEST SWAP1 DUP1 PUSH1 0x2 SHL SWAP1 DUP1 DUP3 DIV DUP9 EQ SWAP1 ISZERO OR ISZERO PUSH2 0xBCF JUMPI SWAP1 PUSH1 0x3 PUSH2 0xB07 SWAP3 DIV SWAP1 PUSH2 0x12A7 JUMP JUMPDEST PUSH1 0x3 DUP3 MUL SWAP2 DUP1 DUP4 DIV PUSH1 0x3 EQ SWAP1 ISZERO OR ISZERO PUSH2 0xBBA JUMPI PUSH2 0xB2D SWAP3 SWAP2 PUSH2 0xB28 SWAP2 PUSH2 0x12A7 JUMP JUMPDEST PUSH2 0x12A7 JUMP JUMPDEST PUSH1 0x40 MLOAD SWAP1 PUSH2 0xB3A DUP3 PUSH2 0x1167 JUMP JUMPDEST DUP3 DUP3 MSTORE PUSH1 0x20 DUP3 ADD MSTORE PUSH1 0x3 SLOAD PUSH9 0x10000000000000000 DUP2 LT ISZERO PUSH2 0xBA5 JUMPI SWAP1 PUSH2 0x90A DUP3 PUSH1 0x1 PUSH2 0xB6A SWAP5 ADD PUSH1 0x3 SSTORE PUSH2 0x108E JUMP JUMPDEST PUSH1 0x3 SLOAD PUSH1 0x0 NOT DUP2 ADD SWAP1 DUP2 GT PUSH2 0xB90 JUMPI PUSH1 0x0 DUP3 DUP2 MSTORE PUSH1 0x20 DUP6 SWAP1 MSTORE PUSH1 0x40 SWAP1 KECCAK256 SSTORE PUSH2 0x9DF PUSH2 0x9D5 JUMP JUMPDEST PUSH1 0x11 DUP5 PUSH4 0x4E487B71 PUSH1 0xE0 SHL PUSH1 0x0 MSTORE MSTORE PUSH1 0x24 PUSH1 0x0 REVERT JUMPDEST PUSH1 0x41 DUP6 PUSH4 0x4E487B71 PUSH1 0xE0 SHL PUSH1 0x0 MSTORE MSTORE PUSH1 0x24 PUSH1 0x0 REVERT JUMPDEST PUSH1 0x11 DUP7 PUSH4 0x4E487B71 PUSH1 0xE0 SHL PUSH1 0x0 MSTORE MSTORE PUSH1 0x24 PUSH1 0x0 REVERT JUMPDEST PUSH1 0x11 DUP8 PUSH4 0x4E487B71 PUSH1 0xE0 SHL PUSH1 0x0 MSTORE MSTORE PUSH1 0x24 PUSH1 0x0 REVERT JUMPDEST PUSH1 0x11 DUP9 PUSH4 0x4E487B71 PUSH1 0xE0 SHL PUSH1 0x0 MSTORE MSTORE PUSH1 0x24 PUSH1 0x0 REVERT JUMPDEST PUSH1 0x11 DUP10 PUSH4 0x4E487B71 PUSH1 0xE0 SHL PUSH1 0x0 MSTORE MSTORE PUSH1 0x24 PUSH1 0x0 REVERT JUMPDEST PUSH1 0x11 DUP11 PUSH4 0x4E487B71 PUSH1 0xE0 SHL PUSH1 0x0 MSTORE MSTORE PUSH1 0x24 PUSH1 0x0 REVERT JUMPDEST PUSH1 0x41 DUP13 PUSH4 0x4E487B71 PUSH1 0xE0 SHL PUSH1 0x0 MSTORE MSTORE PUSH1 0x24 PUSH1 0x0 REVERT JUMPDEST PUSH1 0x11 DUP6 PUSH4 0x4E487B71 PUSH1 0xE0 SHL PUSH1 0x0 MSTORE MSTORE PUSH1 0x24 PUSH1 0x0 REVERT JUMPDEST RETURNDATASIZE SWAP2 POP DUP2 PUSH1 0x0 DUP3 RETURNDATACOPY PUSH2 0xC5F DUP3 DUP3 PUSH2 0x1182 JUMP JUMPDEST PUSH1 0x20 DUP2 DUP4 DUP2 ADD SUB SLT PUSH2 0x17B JUMPI DUP1 MLOAD PUSH1 0x1 PUSH1 0x1 PUSH1 0x40 SHL SUB DUP2 GT PUSH2 0x17B JUMPI PUSH2 0x1E0 DUP2 DUP4 ADD DUP5 DUP5 ADD SUB SLT PUSH2 0x17B JUMPI PUSH1 0x40 MLOAD SWAP3 PUSH2 0x140 DUP5 ADD DUP5 DUP2 LT PUSH1 0x1 PUSH1 0x1 PUSH1 0x40 SHL SUB DUP3 GT OR PUSH2 0xE7E JUMPI PUSH1 0x40 SWAP1 DUP2 MSTORE DUP4 DUP4 ADD DUP1 MLOAD DUP7 MSTORE PUSH1 0x20 DUP1 DUP3 ADD MLOAD SWAP1 DUP8 ADD MSTORE DUP1 DUP3 ADD MLOAD SWAP2 DUP7 ADD SWAP2 SWAP1 SWAP2 MSTORE PUSH1 0x60 DUP1 DUP3 ADD MLOAD SWAP1 DUP7 ADD MSTORE PUSH1 0x80 DUP1 DUP3 ADD MLOAD SWAP1 DUP7 ADD MSTORE PUSH1 0xA0 DUP1 DUP3 ADD MLOAD SWAP1 DUP7 ADD MSTORE PUSH1 0xC0 ADD MLOAD PUSH1 0x1 PUSH1 0x1 PUSH1 0x40 SHL SUB DUP2 GT PUSH2 0x17B JUMPI DUP2 DUP5 ADD PUSH1 0x1F DUP3 DUP6 DUP8 ADD ADD ADD SLT ISZERO PUSH2 0x17B JUMPI DUP1 DUP4 DUP6 ADD ADD MLOAD PUSH2 0xD16 DUP2 PUSH2 0x11E7 JUMP JUMPDEST SWAP2 PUSH2 0xD24 PUSH1 0x40 MLOAD SWAP4 DUP5 PUSH2 0x1182 JUMP JUMPDEST DUP2 DUP4 MSTORE PUSH1 0x20 DUP4 ADD SWAP1 DUP5 DUP8 ADD PUSH1 0x20 DUP5 PUSH1 0x5 SHL DUP4 DUP10 DUP12 ADD ADD ADD ADD GT PUSH2 0x17B JUMPI PUSH1 0x20 DUP2 DUP8 DUP10 ADD ADD ADD SWAP2 JUMPDEST PUSH1 0x20 DUP5 PUSH1 0x5 SHL DUP4 DUP10 DUP12 ADD ADD ADD ADD DUP4 LT PUSH2 0xF25 JUMPI POP POP POP POP PUSH1 0xC0 DUP6 ADD MSTORE PUSH1 0xE0 DUP3 DUP5 ADD ADD MLOAD PUSH1 0x1 PUSH1 0x1 PUSH1 0x40 SHL SUB DUP2 GT PUSH2 0x17B JUMPI DUP2 DUP5 ADD PUSH1 0x1F DUP3 DUP6 DUP8 ADD ADD ADD SLT ISZERO PUSH2 0x17B JUMPI DUP1 DUP4 DUP6 ADD ADD MLOAD PUSH2 0xD9C DUP2 PUSH2 0x11E7 JUMP JUMPDEST SWAP2 PUSH2 0xDAA PUSH1 0x40 MLOAD SWAP4 DUP5 PUSH2 0x1182 JUMP JUMPDEST DUP2 DUP4 MSTORE PUSH1 0x20 DUP4 ADD SWAP1 DUP5 DUP8 ADD PUSH1 0x20 DUP5 PUSH1 0x5 SHL DUP4 DUP10 DUP12 ADD ADD ADD ADD GT PUSH2 0x17B JUMPI PUSH1 0x20 DUP2 DUP8 DUP10 ADD ADD ADD SWAP2 JUMPDEST PUSH1 0x20 DUP5 PUSH1 0x5 SHL DUP4 DUP10 DUP12 ADD ADD ADD ADD DUP4 LT PUSH2 0xE93 JUMPI POP POP POP POP PUSH1 0xE0 DUP6 ADD MSTORE PUSH1 0xC0 DUP4 DUP4 ADD SWAP2 DUP5 ADD SWAP2 SWAP1 SWAP2 SUB PUSH1 0xFF NOT ADD SLT PUSH2 0x17B JUMPI PUSH1 0x40 MLOAD SWAP2 PUSH1 0xC0 DUP4 ADD DUP4 DUP2 LT PUSH1 0x1 PUSH1 0x1 PUSH1 0x40 SHL SUB DUP3 GT OR PUSH2 0xE7E JUMPI PUSH1 0x40 SWAP1 DUP2 MSTORE SWAP2 ADD PUSH2 0x100 DUP2 DUP2 ADD MLOAD DUP5 MSTORE PUSH2 0x120 DUP1 DUP4 ADD MLOAD PUSH1 0x20 DUP7 ADD MSTORE PUSH2 0x140 DUP4 ADD MLOAD SWAP4 DUP6 ADD SWAP4 SWAP1 SWAP4 MSTORE PUSH2 0x160 DUP3 ADD MLOAD PUSH1 0x60 DUP6 ADD MSTORE PUSH2 0x180 DUP3 ADD MLOAD PUSH1 0x80 DUP6 ADD MSTORE PUSH2 0x1A0 DUP3 ADD MLOAD PUSH1 0xA0 DUP6 ADD MSTORE DUP5 ADD SWAP3 SWAP1 SWAP3 MSTORE PUSH2 0x1C0 SWAP2 SWAP1 SWAP2 ADD MLOAD SWAP1 DUP3 ADD MSTORE CODESIZE PUSH2 0xA0F JUMP JUMPDEST PUSH1 0x41 DUP9 PUSH4 0x4E487B71 PUSH1 0xE0 SHL PUSH1 0x0 MSTORE MSTORE PUSH1 0x24 PUSH1 0x0 REVERT JUMPDEST DUP3 MLOAD PUSH1 0x1 PUSH1 0x1 PUSH1 0x40 SHL SUB DUP2 GT PUSH2 0x17B JUMPI PUSH1 0x60 DUP10 DUP10 ADD DUP5 ADD DUP3 ADD DUP9 DUP12 ADD SUB PUSH1 0x1F NOT ADD SLT PUSH2 0x17B JUMPI PUSH1 0x40 MLOAD SWAP2 PUSH2 0xEC6 DUP4 PUSH2 0x1136 JUMP JUMPDEST PUSH1 0x20 DUP3 DUP6 DUP12 DUP14 ADD ADD ADD ADD MLOAD SWAP3 PUSH1 0x1 PUSH1 0x1 PUSH1 0x40 SHL SUB DUP5 GT PUSH2 0x17B JUMPI PUSH1 0x60 PUSH1 0x20 SWAP5 SWAP4 DUP7 DUP13 DUP15 PUSH2 0xF02 DUP10 SWAP9 DUP16 DUP11 SWAP1 DUP5 ADD SWAP2 DUP8 DUP8 DUP8 DUP8 ADD ADD ADD ADD ADD PUSH2 0x11FE JUMP JUMPDEST DUP7 MSTORE ADD ADD ADD PUSH1 0x40 DUP2 DUP2 ADD MLOAD DUP7 DUP6 ADD MSTORE SWAP2 ADD MLOAD SWAP1 DUP3 ADD MSTORE DUP2 MSTORE SWAP2 SWAP1 SWAP4 ADD SWAP3 ADD PUSH2 0xDD1 JUMP JUMPDEST DUP3 MLOAD SWAP1 PUSH1 0x1 PUSH1 0x1 PUSH1 0x40 SHL SUB DUP3 GT PUSH2 0x17B JUMPI PUSH1 0x60 DUP10 DUP10 ADD DUP5 ADD DUP4 ADD DUP9 DUP12 ADD SUB PUSH1 0x1F NOT ADD SLT PUSH2 0x17B JUMPI PUSH1 0x40 MLOAD SWAP1 PUSH2 0xF59 DUP3 PUSH2 0x1136 JUMP JUMPDEST PUSH1 0x20 DUP4 DUP6 DUP12 DUP14 ADD ADD ADD ADD MLOAD SWAP2 PUSH1 0x1 PUSH1 0x1 PUSH1 0x40 SHL SUB DUP4 GT PUSH2 0x17B JUMPI PUSH2 0xFAB PUSH1 0x60 PUSH1 0x20 SWAP6 DUP8 DUP14 DUP16 PUSH2 0xF97 DUP16 SWAP10 DUP12 DUP1 SWAP12 DUP5 ADD SWAP2 DUP8 DUP8 DUP8 DUP8 ADD ADD ADD ADD ADD PUSH2 0x11FE JUMP JUMPDEST DUP8 MSTORE ADD ADD ADD PUSH1 0x40 DUP2 ADD MLOAD DUP7 DUP6 ADD MSTORE ADD PUSH2 0x126E JUMP JUMPDEST PUSH1 0x40 DUP3 ADD MSTORE DUP2 MSTORE ADD SWAP3 ADD SWAP2 PUSH2 0xD4B JUMP JUMPDEST PUSH2 0xFD4 SWAP2 POP PUSH1 0x20 RETURNDATASIZE PUSH1 0x20 GT PUSH2 0x65F JUMPI PUSH2 0x64E DUP2 DUP4 PUSH2 0x1182 JUMP JUMPDEST CODESIZE PUSH2 0x9C6 JUMP JUMPDEST SWAP1 POP PUSH1 0x20 DUP2 RETURNDATASIZE PUSH1 0x20 GT PUSH2 0x1004 JUMPI JUMPDEST DUP2 PUSH2 0xFF5 PUSH1 0x20 SWAP4 DUP4 PUSH2 0x1182 JUMP JUMPDEST DUP2 ADD SUB SLT PUSH2 0x17B JUMPI MLOAD CODESIZE PUSH2 0x861 JUMP JUMPDEST RETURNDATASIZE SWAP2 POP PUSH2 0xFE8 JUMP JUMPDEST PUSH1 0x1 PUSH1 0x1 PUSH1 0xFF SHL SUB DUP2 AND DUP2 SUB PUSH2 0x950 JUMPI PUSH1 0x3 PUSH1 0x0 MSTORE PUSH1 0x1 PUSH32 0xC2575A0E9E593C00F959F8C92F12DB2869C3395A3B0502D05E2516446F71F85B SWAP2 DUP2 SHL DUP3 ADD SWAP2 JUMPDEST DUP3 DUP2 LT PUSH2 0x1059 JUMPI POP POP PUSH2 0x82C JUMP JUMPDEST PUSH1 0x0 DUP1 DUP3 SSTORE DUP3 DUP3 ADD SSTORE PUSH1 0x2 ADD PUSH2 0x104B JUMP JUMPDEST CALLVALUE PUSH2 0x17B JUMPI PUSH1 0x0 CALLDATASIZE PUSH1 0x3 NOT ADD SLT PUSH2 0x17B JUMPI PUSH1 0x2 SLOAD PUSH1 0x1 PUSH1 0x1 PUSH1 0xA0 SHL SUB AND DUP2 MSTORE PUSH1 0x20 SWAP1 RETURN JUMPDEST PUSH1 0x3 SLOAD DUP2 LT ISZERO PUSH2 0x10C8 JUMPI PUSH1 0x3 PUSH1 0x0 MSTORE PUSH1 0x1 SHL PUSH32 0xC2575A0E9E593C00F959F8C92F12DB2869C3395A3B0502D05E2516446F71F85B ADD SWAP1 PUSH1 0x0 SWAP1 JUMP JUMPDEST PUSH4 0x4E487B71 PUSH1 0xE0 SHL PUSH1 0x0 MSTORE PUSH1 0x32 PUSH1 0x4 MSTORE PUSH1 0x24 PUSH1 0x0 REVERT JUMPDEST PUSH1 0x0 SLOAD PUSH1 0x1 PUSH1 0x1 PUSH1 0xA0 SHL SUB AND CALLER SUB PUSH2 0x10F2 JUMPI JUMP JUMPDEST PUSH1 0x64 PUSH1 0x40 MLOAD PUSH3 0x461BCD PUSH1 0xE5 SHL DUP2 MSTORE PUSH1 0x20 PUSH1 0x4 DUP3 ADD MSTORE PUSH1 0x20 PUSH1 0x24 DUP3 ADD MSTORE PUSH32 0x4F776E61626C653A2063616C6C6572206973206E6F7420746865206F776E6572 PUSH1 0x44 DUP3 ADD MSTORE REVERT JUMPDEST PUSH1 0x60 DUP2 ADD SWAP1 DUP2 LT PUSH1 0x1 PUSH1 0x1 PUSH1 0x40 SHL SUB DUP3 GT OR PUSH2 0x1151 JUMPI PUSH1 0x40 MSTORE JUMP JUMPDEST PUSH4 0x4E487B71 PUSH1 0xE0 SHL PUSH1 0x0 MSTORE PUSH1 0x41 PUSH1 0x4 MSTORE PUSH1 0x24 PUSH1 0x0 REVERT JUMPDEST PUSH1 0x40 DUP2 ADD SWAP1 DUP2 LT PUSH1 0x1 PUSH1 0x1 PUSH1 0x40 SHL SUB DUP3 GT OR PUSH2 0x1151 JUMPI PUSH1 0x40 MSTORE JUMP JUMPDEST SWAP1 PUSH1 0x1F DUP1 NOT SWAP2 ADD AND DUP2 ADD SWAP1 DUP2 LT PUSH1 0x1 PUSH1 0x1 PUSH1 0x40 SHL SUB DUP3 GT OR PUSH2 0x1151 JUMPI PUSH1 0x40 MSTORE JUMP JUMPDEST PUSH1 0x0 NOT DUP2 EQ PUSH2 0x11B2 JUMPI PUSH1 0x1 ADD SWAP1 JUMP JUMPDEST PUSH4 0x4E487B71 PUSH1 0xE0 SHL PUSH1 0x0 MSTORE PUSH1 0x11 PUSH1 0x4 MSTORE PUSH1 0x24 PUSH1 0x0 REVERT JUMPDEST SWAP1 DUP2 PUSH1 0x20 SWAP2 SUB SLT PUSH2 0x17B JUMPI MLOAD PUSH1 0x1 PUSH1 0x1 PUSH1 0xA0 SHL SUB DUP2 AND DUP2 SUB PUSH2 0x17B JUMPI SWAP1 JUMP JUMPDEST PUSH1 0x1 PUSH1 0x1 PUSH1 0x40 SHL SUB DUP2 GT PUSH2 0x1151 JUMPI PUSH1 0x5 SHL PUSH1 0x20 ADD SWAP1 JUMP JUMPDEST SWAP2 SWAP1 DUP1 PUSH1 0x1F DUP5 ADD SLT ISZERO PUSH2 0x17B JUMPI DUP3 MLOAD SWAP1 PUSH1 0x1 PUSH1 0x1 PUSH1 0x40 SHL SUB DUP3 GT PUSH2 0x1151 JUMPI PUSH1 0x40 MLOAD SWAP2 PUSH1 0x20 SWAP2 PUSH2 0x1236 PUSH1 0x1F DUP4 ADD PUSH1 0x1F NOT AND DUP5 ADD DUP6 PUSH2 0x1182 JUMP JUMPDEST DUP2 DUP5 MSTORE DUP3 DUP3 DUP8 ADD ADD GT PUSH2 0x17B JUMPI PUSH1 0x0 JUMPDEST DUP2 DUP2 LT PUSH2 0x125B JUMPI POP DUP3 PUSH1 0x0 SWAP4 SWAP5 SWAP6 POP ADD ADD MSTORE SWAP1 JUMP JUMPDEST DUP6 DUP2 ADD DUP4 ADD MLOAD DUP5 DUP3 ADD DUP5 ADD MSTORE DUP3 ADD PUSH2 0x1246 JUMP JUMPDEST MLOAD SWAP1 DUP2 ISZERO ISZERO DUP3 SUB PUSH2 0x17B JUMPI JUMP JUMPDEST SWAP2 SWAP1 PUSH2 0x1291 JUMPI PUSH1 0x20 DUP2 PUSH1 0x1 SWAP3 MLOAD DUP5 SSTORE ADD MLOAD SWAP2 ADD SSTORE JUMP JUMPDEST PUSH4 0x4E487B71 PUSH1 0xE0 SHL PUSH1 0x0 MSTORE PUSH1 0x0 PUSH1 0x4 MSTORE PUSH1 0x24 PUSH1 0x0 REVERT JUMPDEST SWAP2 SWAP1 DUP3 ADD DUP1 SWAP3 GT PUSH2 0x11B2 JUMPI JUMP JUMPDEST SWAP1 PUSH1 0x40 MLOAD PUSH2 0x12C1 DUP2 PUSH2 0x1167 JUMP JUMPDEST PUSH1 0x20 PUSH1 0x1 DUP3 SWAP5 DUP1 SLOAD DUP5 MSTORE ADD SLOAD SWAP2 ADD MSTORE JUMP JUMPDEST ISZERO PUSH2 0x12D9 JUMPI JUMP JUMPDEST PUSH1 0x40 MLOAD PUSH3 0x461BCD PUSH1 0xE5 SHL DUP2 MSTORE PUSH1 0x20 PUSH1 0x4 DUP3 ADD MSTORE PUSH1 0x15 PUSH1 0x24 DUP3 ADD MSTORE PUSH21 0x115490CC8C081D1C985B9CD9995C8819985A5B1959 PUSH1 0x5A SHL PUSH1 0x44 DUP3 ADD MSTORE PUSH1 0x64 SWAP1 REVERT INVALID LOG2 PUSH5 0x6970667358 0x22 SLT KECCAK256 0xC9 LOG1 DUP11 0xAB ADDRESS ADDRESS CALLDATALOAD 0xDE 0x22 0xD4 PUSH4 0xC40BEAEC DUP3 0xD0 0xB7 GAS CREATE2 0xB9 0xED 0xF8 0x25 0xCD COINBASE COINBASE 0x27 ADDRESS 0x1F 0xAE 0x4E PUSH5 0x736F6C6343 STOP ADDMOD SGT STOP CALLER "},"methodIdentifiers":{"depositERC20(uint256)":"b79092fd","distributeRewards(uint256[])":"7deb8b02","erc20Token()":"8a13eea7","getLeaderboard()":"6d763a6e","landNFT()":"39d022e1","leaderboard(uint256)":"bf368399","nftIndex(uint256)":"a90cb770","owner()":"8da5cb5b","renounceOwnership()":"715018a6","transferOwnership(address)":"f2fde38b","updateLandNFT(address)":"b5a65818","updateLeaderboard()":"53734b02","withdrawERC20(uint256)":"d78276c6"}}}}}