{"contracts/rewardsDistributor.sol":{"RewardsDistributor":{"abi":[{"inputs":[{"internalType":"address","name":"_leaderboardAddress","type":"address"},{"internalType":"address","name":"_landNFTAddress","type":"address"},{"internalType":"address","name":"_erc20TokenAddress","type":"address"},{"internalType":"uint256[]","name":"_rewardWeights","type":"uint256[]"},{"internalType":"uint256","name":"_maxRewardsRecipients","type":"uint256"}],"stateMutability":"nonpayable","type":"constructor"},{"anonymous":false,"inputs":[{"indexed":true,"internalType":"address","name":"from","type":"address"},{"indexed":false,"internalType":"uint256","name":"amount","type":"uint256"}],"name":"ERC20Deposited","type":"event"},{"anonymous":false,"inputs":[{"indexed":true,"internalType":"address","name":"to","type":"address"},{"indexed":false,"internalType":"uint256","name":"amount","type":"uint256"}],"name":"ERC20Withdrawn","type":"event"},{"anonymous":false,"inputs":[{"indexed":true,"internalType":"address","name":"previousOwner","type":"address"},{"indexed":true,"internalType":"address","name":"newOwner","type":"address"}],"name":"OwnershipTransferred","type":"event"},{"anonymous":false,"inputs":[{"indexed":false,"internalType":"uint256[]","name":"weights","type":"uint256[]"}],"name":"RewardWeightsUpdated","type":"event"},{"anonymous":false,"inputs":[{"indexed":false,"internalType":"uint256","name":"totalRewards","type":"uint256"}],"name":"RewardsDistributed","type":"event"},{"inputs":[{"internalType":"uint256","name":"amount","type":"uint256"}],"name":"depositERC20","outputs":[],"stateMutability":"nonpayable","type":"function"},{"inputs":[],"name":"distributeRewards","outputs":[],"stateMutability":"nonpayable","type":"function"},{"inputs":[],"name":"erc20Token","outputs":[{"internalType":"contract IERC20","name":"","type":"address"}],"stateMutability":"view","type":"function"},{"inputs":[],"name":"getCurrentLeaderboard","outputs":[{"components":[{"internalType":"uint256","name":"tokenId","type":"uint256"},{"internalType":"uint256","name":"score","type":"uint256"}],"internalType":"struct ILeaderboard.NFTScore[]","name":"","type":"tuple[]"}],"stateMutability":"view","type":"function"},{"inputs":[],"name":"getRewardWeights","outputs":[{"internalType":"uint256[]","name":"","type":"uint256[]"}],"stateMutability":"view","type":"function"},{"inputs":[],"name":"getTotalRewardsAvailable","outputs":[{"internalType":"uint256","name":"","type":"uint256"}],"stateMutability":"view","type":"function"},{"inputs":[],"name":"landNFTContract","outputs":[{"internalType":"contract ILandNFT","name":"","type":"address"}],"stateMutability":"view","type":"function"},{"inputs":[],"name":"leaderboardContract","outputs":[{"internalType":"contract ILeaderboard","name":"","type":"address"}],"stateMutability":"view","type":"function"},{"inputs":[],"name":"maxRewardsRecipients","outputs":[{"internalType":"uint256","name":"","type":"uint256"}],"stateMutability":"view","type":"function"},{"inputs":[],"name":"owner","outputs":[{"internalType":"address","name":"","type":"address"}],"stateMutability":"view","type":"function"},{"inputs":[],"name":"renounceOwnership","outputs":[],"stateMutability":"nonpayable","type":"function"},{"inputs":[{"internalType":"uint256","name":"","type":"uint256"}],"name":"rewardWeights","outputs":[{"internalType":"uint256","name":"","type":"uint256"}],"stateMutability":"view","type":"function"},{"inputs":[{"internalType":"uint256","name":"_maxRecipients","type":"uint256"}],"name":"setMaxRewardsRecipients","outputs":[],"stateMutability":"nonpayable","type":"function"},{"inputs":[{"internalType":"uint256[]","name":"_rewardWeights","type":"uint256[]"}],"name":"setRewardWeights","outputs":[],"stateMutability":"nonpayable","type":"function"},{"inputs":[],"name":"totalWeight","outputs":[{"internalType":"uint256","name":"","type":"uint256"}],"stateMutability":"view","type":"function"},{"inputs":[{"internalType":"address","name":"newOwner","type":"address"}],"name":"transferOwnership","outputs":[],"stateMutability":"nonpayable","type":"function"},{"inputs":[{"internalType":"address","name":"_newLandNFTAddress","type":"address"}],"name":"updateLandNFTContract","outputs":[],"stateMutability":"nonpayable","type":"function"},{"inputs":[{"internalType":"address","name":"_newLeaderboardAddress","type":"address"}],"name":"updateLeaderboardContract","outputs":[],"stateMutability":"nonpayable","type":"function"},{"inputs":[{"internalType":"uint256","name":"amount","type":"uint256"}],"name":"withdrawERC20","outputs":[],"stateMutability":"nonpayable","type":"function"}],"evm":{"bytecode":{"linkReferences":{},"object":"604060a08152346200055357620019f4803803806200001e816200056e565b928339810160a0828203126200055357620000398262000594565b6020906200004982850162000594565b936200005786820162000594565b60608201519092906001600160401b0390818111620005535783019286601f8501121562000553578351918211620005585760059682881b94876200009e8188016200056e565b809581520190888297820101928311620005535788809101915b8383106200054257505050506080015160008054336001600160a01b0319808316821784558c51949b93989390926001600160a01b03929083167f8be0079c531659141344cd1fd0a4f28419497f9722a3daafe3b4186f6b6457e08b80a381600197888055169485156200050057508116928315620004bc571692831562000478576200014885511515620005a9565b8a15620004345781600254161760025560035416176003556080526200016d62000621565b6200017b81511515620005a9565b805160065411620003dd5781600496875486895580620003b7575b5085815591949291905082825b62000294575b50508751858152935185850181905284890193925b868282106200028057505050505090807fd8dcace84bd0bc32f5dbfd23eb84d3d0fc1a1d03e94ad39a3c2b995c1ca401d7920390a1620001fd62000621565b828254106200023e5750506006555161137990816200067b823960805181818161038701528181610552015281816106cb015281816107e501526108e30152f35b835162461bcd60e51b815291820152601860248201527f5365742072657761726420776569676874732066697273740000000000000000604482015260649150fd5b8451865294850194909301928201620001be565b8592939551811015620003ad57620002ad8184620005f6565b51156200036a57620002c08184620005f6565b518854680100000000000000008110156200035757858101808b5581101562000344578988528888200155620002f78184620005f6565b5182549081018091116200033157825560001981146200031e5791949291820182620001a3565b634e487b7160e01b865260118852602486fd5b634e487b7160e01b875260118952602487fd5b634e487b7160e01b885260328a52602488fd5b634e487b7160e01b885260418a52602488fd5b895162461bcd60e51b8152808901889052601e60248201527f52657761726420776569676874206d75737420626520706f73697469766500006044820152606490fd5b94929194620001a9565b888752878720908101905b818110620003d1575062000196565b878155859301620003c2565b875162461bcd60e51b815260048101869052602a60248201527f496e73756666696369656e7420726577617264207765696768747320666f7220604482015269726563697069656e747360b01b6064820152608490fd5b8b5162461bcd60e51b8152600481018a9052601e60248201527f496e76616c6964206d6178207265776172647320726563697069656e747300006044820152606490fd5b8b5162461bcd60e51b8152600481018a9052601b60248201527f496e76616c696420455243323020746f6b656e206164647265737300000000006044820152606490fd5b8c5162461bcd60e51b8152600481018b9052601760248201527f496e76616c6964204c616e644e465420616464726573730000000000000000006044820152606490fd5b62461bcd60e51b8152600481018b9052601b60248201527f496e76616c6964204c6561646572626f617264206164647265737300000000006044820152606490fd5b8251815291810191899101620000b8565b600080fd5b634e487b7160e01b600052604160045260246000fd5b6040519190601f01601f191682016001600160401b038111838210176200055857604052565b51906001600160a01b03821682036200055357565b15620005b157565b60405162461bcd60e51b815260206004820152601760248201527f52657761726420776569676874732072657175697265640000000000000000006044820152606490fd5b80518210156200060b5760209160051b010190565b634e487b7160e01b600052603260045260246000fd5b6000546001600160a01b031633036200063657565b606460405162461bcd60e51b815260206004820152602060248201527f4f776e61626c653a2063616c6c6572206973206e6f7420746865206f776e65726044820152fdfe6040608081526004908136101561001557600080fd5b600091823560e01c9081630361ca5a14610d7457816304d4e9bd14610cef5781632b359bc514610cc6578163491db66814610c185781636f4a2cd01461086e578163715018a6146108145781638a13eea7146107d05781638da5cb5b146107a857816396c82e571461078957816398b5b5da1461074e578163a02f413f1461069c578163ae3be01d1461067d578163ae609ab5146105e7578163b79092fd146104fe578163d78276c614610342578163f2fde38b14610277578163f806cb25146101bd578163fad3a3d21461011f575063ff0224d3146100f457600080fd5b3461011b578160031936011261011b5760025490516001600160a01b039091168152602090f35b5080fd5b9050346101b95760203660031901126101b95780356001600160a01b03811692908390036101b55761014f6110e4565b82156101725750506bffffffffffffffffffffffff60a01b600254161760025580f35b906020606492519162461bcd60e51b8352820152601b60248201527f496e76616c6964204c6561646572626f617264206164647265737300000000006044820152fd5b8380fd5b8280fd5b9050346101b95760203660031901126101b9578035916101db6110e4565b821561023457828254106101f157505060065580f35b906020606492519162461bcd60e51b8352820152601860248201527f53657420726577617264207765696768747320666972737400000000000000006044820152fd5b906020606492519162461bcd60e51b8352820152602060248201527f4d7573742068617665206174206c65617374206f6e6520726563697069656e746044820152fd5b919050346101b95760203660031901126101b9576001600160a01b0382358181169391929084900361033e576102ab6110e4565b83156102ec57505082546001600160a01b0319811683178455167f8be0079c531659141344cd1fd0a4f28419497f9722a3daafe3b4186f6b6457e08380a380f35b906020608492519162461bcd60e51b8352820152602660248201527f4f776e61626c653a206e6577206f776e657220697320746865207a65726f206160448201526564647265737360d01b6064820152fd5b8480fd5b9050346101b9576020806003193601126101b5578135916103616110e4565b61036961122e565b610374831515611182565b83516370a0823160e01b815230818301527f00000000000000000000000000000000000000000000000000000000000000006001600160a01b031691908381602481865afa80156104f457859188916104bf575b501061047c57845163a9059cbb60e01b8152339181019182526020820185905291839183919082908990829060400103925af1908115610472577f7e2c99819371db0a6fc6f4269fe872496e44f502df19ba3eae594b7a15987460939491610437918791610445575b506111ea565b519283523392a26001805580f35b6104659150843d861161046b575b61045d818361100c565b8101906111cd565b38610431565b503d610453565b84513d87823e3d90fd5b845162461bcd60e51b8152908101839052601a60248201527f496e73756666696369656e7420746f6b656e2062616c616e63650000000000006044820152606490fd5b809250858092503d83116104ed575b6104d8818361100c565b810103126104e957849051386103c8565b8680fd5b503d6104ce565b86513d89823e3d90fd5b919050346101b95760203660031901126101b95781359161051d61122e565b610528831515611182565b81516323b872dd60e01b8152339181019190915230602482015260448101839052602081606481877f00000000000000000000000000000000000000000000000000000000000000006001600160a01b03165af19081156105dd57906105949185916105c557506111ea565b519081527fab79632de7fe1724598ce2214eaa326d90d48064d2d3397406ecc5769316a5f660203392a26001805580f35b610465915060203d811161046b5761045d818361100c565b82513d86823e3d90fd5b9050346101b95760203660031901126101b95780356001600160a01b03811692908390036101b5576106176110e4565b821561063a5750506bffffffffffffffffffffffff60a01b600354161760035580f35b906020606492519162461bcd60e51b8352820152601760248201527f496e76616c6964204c616e644e465420616464726573730000000000000000006044820152fd5b50503461011b578160031936011261011b576020906006549051908152f35b919050346101b957826003193601126101b95780516370a0823160e01b815230928101929092526020826024817f00000000000000000000000000000000000000000000000000000000000000006001600160a01b03165afa91821561074457839261070d575b6020838351908152f35b9091506020813d821161073c575b816107286020938361100c565b810103126101b95760209250519038610703565b3d915061071b565b81513d85823e3d90fd5b82843461078657602036600319011261078657823592548310156107865750610778602092611097565b91905490519160031b1c8152f35b80fd5b50503461011b578160031936011261011b576020906005549051908152f35b50503461011b578160031936011261011b57905490516001600160a01b039091168152602090f35b50503461011b578160031936011261011b57517f00000000000000000000000000000000000000000000000000000000000000006001600160a01b03168152602090f35b833461078657806003193601126107865761082d6110e4565b80546001600160a01b03198116825581906001600160a01b03167f8be0079c531659141344cd1fd0a4f28419497f9722a3daafe3b4186f6b6457e08280a380f35b9050346101b957826003193601126101b9576108886110e4565b61089061122e565b60025482516336bb1d3760e11b8152906001600160a01b0390859083908590829085165afa918215610472578592610bf4575b50815115610bba57815192600654808511610bb2575b50929085938693827f000000000000000000000000000000000000000000000000000000000000000016905b84861061093e57887f6d1c76d614228b523baa4dcd9539e2c713b54ff4ab3ff2d1627e7f6cd32be4426020898b51908152a16001805580f35b90919293949561094e8783611161565b515160039186835416918a5193849384926331a9108f60e11b845289840152602095869160249687915afa918215610ba8578d92610b6c575b5088821615610b33578c9061099b8c611097565b9054911b1c8c516370a0823160e01b8152308a820152868187818c5afa928315610b285792610af5575b50818102918183041490151715610ae357600554908115610ad15704928315610a8057508a5163a9059cbb60e01b81526001600160a01b039091168782019081526020810184905290939291908c908490869081906040010381848b5af18015610a7457610a4d95610a4795610a429392610a57575b50506111ea565b611175565b9661113c565b9493929190610905565b610a6d9250803d1061046b5761045d818361100c565b3880610a3b565b508b51903d90823e3d90fd5b876027608492878f519362461bcd60e51b85528401528201527f52657761726420616d6f756e74206d7573742062652067726561746572207468604482015266616e207a65726f60c81b6064820152fd5b634e487b7160e01b8e5260128952848efd5b634e487b7160e01b8d5260118852838dfd5b9091508581813d8311610b21575b610b0d818361100c565b81010312610b1d575190386109c5565b8d80fd5b503d610b03565b8e51903d90823e3d90fd5b508a5162461bcd60e51b81528088018590526013818501527224b73b30b634b2103a37b5b2b71037bbb732b960691b6044820152606490fd5b9091508481813d8311610ba1575b610b84818361100c565b81010312610b9d57518881168103610b9d579038610987565b8c80fd5b503d610b7a565b8c513d8f823e3d90fd5b9350386108d9565b835162461bcd60e51b815260208185015260146024820152734c6561646572626f61726420697320656d70747960601b6044820152606490fd5b610c119192503d8087833e610c09818361100c565b810190611284565b90386108c3565b919050346101b957826003193601126101b95760025481516336bb1d3760e11b815292849184919082906001600160a01b03165afa918215610744578392610caa575b50908151928392602080850191818652845180935281818701950193905b838210610c865786860387f35b84518051875283015186840152879650948501949382019360019190910190610c79565b610cbf9192503d8085833e610c09818361100c565b9038610c5b565b50503461011b578160031936011261011b5760035490516001600160a01b039091168152602090f35b83833461011b578160031936011261011b578051918284549081815260208091019583527f8a35acfbc15ff81a39ae7d344fd709f28e8600b4aa8c65c6b64bfe7fe36bd19b92905b828210610d5d57610d598686610d4f828b038361100c565b519182918261105c565b0390f35b835487529586019560019384019390910190610d37565b9050346101b957602092836003193601126107865781359067ffffffffffffffff82116107865736602383011215610786578183013592610db484611044565b95610dc18651978861100c565b8487528087019360249485600597881b830101913683116110085786849101915b838310610ff85750505050610df56110e4565b865115610fb857865160065411610f6557815483835580610f24575b50828555825b8751811015610eed57610e2a8189611161565b5115610eab57610e3a8189611161565b51835468010000000000000000811015610e995790610e62826001610e949594018755611097565b819291549060031b91821b91600019901b1916179055610e8d610e85828b611161565b518854611175565b875561113c565b610e17565b634e487b7160e01b8652604185528686fd5b865162461bcd60e51b8152808401839052601e818701527f52657761726420776569676874206d75737420626520706f73697469766500006044820152606490fd5b837fd8dcace84bd0bc32f5dbfd23eb84d3d0fc1a1d03e94ad39a3c2b995c1ca401d7610f1e8a8a519182918261105c565b0390a180f35b8284527f8a35acfbc15ff81a39ae7d344fd709f28e8600b4aa8c65c6b64bfe7fe36bd19b908101905b818110610f5a5750610e11565b848155600101610f4d565b855162461bcd60e51b815291820152602a818401527f496e73756666696369656e7420726577617264207765696768747320666f7220604482015269726563697069656e747360b01b6064820152608490fd5b855162461bcd60e51b8152918201526017818401527f52657761726420776569676874732072657175697265640000000000000000006044820152606490fd5b8235815291810191849101610de2565b8580fd5b90601f8019910116810190811067ffffffffffffffff82111761102e57604052565b634e487b7160e01b600052604160045260246000fd5b67ffffffffffffffff811161102e5760051b60200190565b6020908160408183019282815285518094520193019160005b828110611083575050505090565b835185529381019392810192600101611075565b6004548110156110ce5760046000527f8a35acfbc15ff81a39ae7d344fd709f28e8600b4aa8c65c6b64bfe7fe36bd19b0190600090565b634e487b7160e01b600052603260045260246000fd5b6000546001600160a01b031633036110f857565b606460405162461bcd60e51b815260206004820152602060248201527f4f776e61626c653a2063616c6c6572206973206e6f7420746865206f776e65726044820152fd5b600019811461114b5760010190565b634e487b7160e01b600052601160045260246000fd5b80518210156110ce5760209160051b010190565b9190820180921161114b57565b1561118957565b606460405162461bcd60e51b815260206004820152602060248201527f416d6f756e74206d7573742062652067726561746572207468616e207a65726f6044820152fd5b908160209103126111e5575180151581036111e55790565b600080fd5b156111f157565b60405162461bcd60e51b8152602060048201526015602482015274115490cc8c081d1c985b9cd9995c8819985a5b1959605a1b6044820152606490fd5b60026001541461123f576002600155565b60405162461bcd60e51b815260206004820152601f60248201527f5265656e7472616e637947756172643a207265656e7472616e742063616c6c006044820152606490fd5b90602080838303126111e557825167ffffffffffffffff938482116111e557019082601f830112156111e55781516112bb81611044565b946040946112cb8651978861100c565b828752838088019360061b860101948186116111e5578401925b8584106112f6575050505050505090565b86848303126111e557865190878201908282108583111761132e578892879284528651815282870151838201528152019301926112e5565b60246000634e487b7160e01b81526041600452fdfea26469706673582212209323d9671dacd9fe27a40c62de0308327637e61b9e13e8ea65d5f58cab23c11a64736f6c63430008130033","opcodes":"PUSH1 0x40 PUSH1 0xA0 DUP2 MSTORE CALLVALUE PUSH3 0x553 JUMPI PUSH3 0x19F4 DUP1 CODESIZE SUB DUP1 PUSH3 0x1E DUP2 PUSH3 0x56E JUMP JUMPDEST SWAP3 DUP4 CODECOPY DUP2 ADD PUSH1 0xA0 DUP3 DUP3 SUB SLT PUSH3 0x553 JUMPI PUSH3 0x39 DUP3 PUSH3 0x594 JUMP JUMPDEST PUSH1 0x20 SWAP1 PUSH3 0x49 DUP3 DUP6 ADD PUSH3 0x594 JUMP JUMPDEST SWAP4 PUSH3 0x57 DUP7 DUP3 ADD PUSH3 0x594 JUMP JUMPDEST PUSH1 0x60 DUP3 ADD MLOAD SWAP1 SWAP3 SWAP1 PUSH1 0x1 PUSH1 0x1 PUSH1 0x40 SHL SUB SWAP1 DUP2 DUP2 GT PUSH3 0x553 JUMPI DUP4 ADD SWAP3 DUP7 PUSH1 0x1F DUP6 ADD SLT ISZERO PUSH3 0x553 JUMPI DUP4 MLOAD SWAP2 DUP3 GT PUSH3 0x558 JUMPI PUSH1 0x5 SWAP7 DUP3 DUP9 SHL SWAP5 DUP8 PUSH3 0x9E DUP2 DUP9 ADD PUSH3 0x56E JUMP JUMPDEST DUP1 SWAP6 DUP2 MSTORE ADD SWAP1 DUP9 DUP3 SWAP8 DUP3 ADD ADD SWAP3 DUP4 GT PUSH3 0x553 JUMPI DUP9 DUP1 SWAP2 ADD SWAP2 JUMPDEST DUP4 DUP4 LT PUSH3 0x542 JUMPI POP POP POP POP PUSH1 0x80 ADD MLOAD PUSH1 0x0 DUP1 SLOAD CALLER PUSH1 0x1 PUSH1 0x1 PUSH1 0xA0 SHL SUB NOT DUP1 DUP4 AND DUP3 OR DUP5 SSTORE DUP13 MLOAD SWAP5 SWAP12 SWAP4 SWAP9 SWAP4 SWAP1 SWAP3 PUSH1 0x1 PUSH1 0x1 PUSH1 0xA0 SHL SUB SWAP3 SWAP1 DUP4 AND PUSH32 0x8BE0079C531659141344CD1FD0A4F28419497F9722A3DAAFE3B4186F6B6457E0 DUP12 DUP1 LOG3 DUP2 PUSH1 0x1 SWAP8 DUP9 DUP1 SSTORE AND SWAP5 DUP6 ISZERO PUSH3 0x500 JUMPI POP DUP2 AND SWAP3 DUP4 ISZERO PUSH3 0x4BC JUMPI AND SWAP3 DUP4 ISZERO PUSH3 0x478 JUMPI PUSH3 0x148 DUP6 MLOAD ISZERO ISZERO PUSH3 0x5A9 JUMP JUMPDEST DUP11 ISZERO PUSH3 0x434 JUMPI DUP2 PUSH1 0x2 SLOAD AND OR PUSH1 0x2 SSTORE PUSH1 0x3 SLOAD AND OR PUSH1 0x3 SSTORE PUSH1 0x80 MSTORE PUSH3 0x16D PUSH3 0x621 JUMP JUMPDEST PUSH3 0x17B DUP2 MLOAD ISZERO ISZERO PUSH3 0x5A9 JUMP JUMPDEST DUP1 MLOAD PUSH1 0x6 SLOAD GT PUSH3 0x3DD JUMPI DUP2 PUSH1 0x4 SWAP7 DUP8 SLOAD DUP7 DUP10 SSTORE DUP1 PUSH3 0x3B7 JUMPI JUMPDEST POP DUP6 DUP2 SSTORE SWAP2 SWAP5 SWAP3 SWAP2 SWAP1 POP DUP3 DUP3 JUMPDEST PUSH3 0x294 JUMPI JUMPDEST POP POP DUP8 MLOAD DUP6 DUP2 MSTORE SWAP4 MLOAD DUP6 DUP6 ADD DUP2 SWAP1 MSTORE DUP5 DUP10 ADD SWAP4 SWAP3 JUMPDEST DUP7 DUP3 DUP3 LT PUSH3 0x280 JUMPI POP POP POP POP POP SWAP1 DUP1 PUSH32 0xD8DCACE84BD0BC32F5DBFD23EB84D3D0FC1A1D03E94AD39A3C2B995C1CA401D7 SWAP3 SUB SWAP1 LOG1 PUSH3 0x1FD PUSH3 0x621 JUMP JUMPDEST DUP3 DUP3 SLOAD LT PUSH3 0x23E JUMPI POP POP PUSH1 0x6 SSTORE MLOAD PUSH2 0x1379 SWAP1 DUP2 PUSH3 0x67B DUP3 CODECOPY PUSH1 0x80 MLOAD DUP2 DUP2 DUP2 PUSH2 0x387 ADD MSTORE DUP2 DUP2 PUSH2 0x552 ADD MSTORE DUP2 DUP2 PUSH2 0x6CB ADD MSTORE DUP2 DUP2 PUSH2 0x7E5 ADD MSTORE PUSH2 0x8E3 ADD MSTORE RETURN JUMPDEST DUP4 MLOAD PUSH3 0x461BCD PUSH1 0xE5 SHL DUP2 MSTORE SWAP2 DUP3 ADD MSTORE PUSH1 0x18 PUSH1 0x24 DUP3 ADD MSTORE PUSH32 0x5365742072657761726420776569676874732066697273740000000000000000 PUSH1 0x44 DUP3 ADD MSTORE PUSH1 0x64 SWAP2 POP REVERT JUMPDEST DUP5 MLOAD DUP7 MSTORE SWAP5 DUP6 ADD SWAP5 SWAP1 SWAP4 ADD SWAP3 DUP3 ADD PUSH3 0x1BE JUMP JUMPDEST DUP6 SWAP3 SWAP4 SWAP6 MLOAD DUP2 LT ISZERO PUSH3 0x3AD JUMPI PUSH3 0x2AD DUP2 DUP5 PUSH3 0x5F6 JUMP JUMPDEST MLOAD ISZERO PUSH3 0x36A JUMPI PUSH3 0x2C0 DUP2 DUP5 PUSH3 0x5F6 JUMP JUMPDEST MLOAD DUP9 SLOAD PUSH9 0x10000000000000000 DUP2 LT ISZERO PUSH3 0x357 JUMPI DUP6 DUP2 ADD DUP1 DUP12 SSTORE DUP2 LT ISZERO PUSH3 0x344 JUMPI DUP10 DUP9 MSTORE DUP9 DUP9 KECCAK256 ADD SSTORE PUSH3 0x2F7 DUP2 DUP5 PUSH3 0x5F6 JUMP JUMPDEST MLOAD DUP3 SLOAD SWAP1 DUP2 ADD DUP1 SWAP2 GT PUSH3 0x331 JUMPI DUP3 SSTORE PUSH1 0x0 NOT DUP2 EQ PUSH3 0x31E JUMPI SWAP2 SWAP5 SWAP3 SWAP2 DUP3 ADD DUP3 PUSH3 0x1A3 JUMP JUMPDEST PUSH4 0x4E487B71 PUSH1 0xE0 SHL DUP7 MSTORE PUSH1 0x11 DUP9 MSTORE PUSH1 0x24 DUP7 REVERT JUMPDEST PUSH4 0x4E487B71 PUSH1 0xE0 SHL DUP8 MSTORE PUSH1 0x11 DUP10 MSTORE PUSH1 0x24 DUP8 REVERT JUMPDEST PUSH4 0x4E487B71 PUSH1 0xE0 SHL DUP9 MSTORE PUSH1 0x32 DUP11 MSTORE PUSH1 0x24 DUP9 REVERT JUMPDEST PUSH4 0x4E487B71 PUSH1 0xE0 SHL DUP9 MSTORE PUSH1 0x41 DUP11 MSTORE PUSH1 0x24 DUP9 REVERT JUMPDEST DUP10 MLOAD PUSH3 0x461BCD PUSH1 0xE5 SHL DUP2 MSTORE DUP1 DUP10 ADD DUP9 SWAP1 MSTORE PUSH1 0x1E PUSH1 0x24 DUP3 ADD MSTORE PUSH32 0x52657761726420776569676874206D75737420626520706F7369746976650000 PUSH1 0x44 DUP3 ADD MSTORE PUSH1 0x64 SWAP1 REVERT JUMPDEST SWAP5 SWAP3 SWAP2 SWAP5 PUSH3 0x1A9 JUMP JUMPDEST DUP9 DUP8 MSTORE DUP8 DUP8 KECCAK256 SWAP1 DUP2 ADD SWAP1 JUMPDEST DUP2 DUP2 LT PUSH3 0x3D1 JUMPI POP PUSH3 0x196 JUMP JUMPDEST DUP8 DUP2 SSTORE DUP6 SWAP4 ADD PUSH3 0x3C2 JUMP JUMPDEST DUP8 MLOAD PUSH3 0x461BCD PUSH1 0xE5 SHL DUP2 MSTORE PUSH1 0x4 DUP2 ADD DUP7 SWAP1 MSTORE PUSH1 0x2A PUSH1 0x24 DUP3 ADD MSTORE PUSH32 0x496E73756666696369656E7420726577617264207765696768747320666F7220 PUSH1 0x44 DUP3 ADD MSTORE PUSH10 0x726563697069656E7473 PUSH1 0xB0 SHL PUSH1 0x64 DUP3 ADD MSTORE PUSH1 0x84 SWAP1 REVERT JUMPDEST DUP12 MLOAD PUSH3 0x461BCD PUSH1 0xE5 SHL DUP2 MSTORE PUSH1 0x4 DUP2 ADD DUP11 SWAP1 MSTORE PUSH1 0x1E PUSH1 0x24 DUP3 ADD MSTORE PUSH32 0x496E76616C6964206D6178207265776172647320726563697069656E74730000 PUSH1 0x44 DUP3 ADD MSTORE PUSH1 0x64 SWAP1 REVERT JUMPDEST DUP12 MLOAD PUSH3 0x461BCD PUSH1 0xE5 SHL DUP2 MSTORE PUSH1 0x4 DUP2 ADD DUP11 SWAP1 MSTORE PUSH1 0x1B PUSH1 0x24 DUP3 ADD MSTORE PUSH32 0x496E76616C696420455243323020746F6B656E20616464726573730000000000 PUSH1 0x44 DUP3 ADD MSTORE PUSH1 0x64 SWAP1 REVERT JUMPDEST DUP13 MLOAD PUSH3 0x461BCD PUSH1 0xE5 SHL DUP2 MSTORE PUSH1 0x4 DUP2 ADD DUP12 SWAP1 MSTORE PUSH1 0x17 PUSH1 0x24 DUP3 ADD MSTORE PUSH32 0x496E76616C6964204C616E644E46542061646472657373000000000000000000 PUSH1 0x44 DUP3 ADD MSTORE PUSH1 0x64 SWAP1 REVERT JUMPDEST PUSH3 0x461BCD PUSH1 0xE5 SHL DUP2 MSTORE PUSH1 0x4 DUP2 ADD DUP12 SWAP1 MSTORE PUSH1 0x1B PUSH1 0x24 DUP3 ADD MSTORE PUSH32 0x496E76616C6964204C6561646572626F61726420616464726573730000000000 PUSH1 0x44 DUP3 ADD MSTORE PUSH1 0x64 SWAP1 REVERT JUMPDEST DUP3 MLOAD DUP2 MSTORE SWAP2 DUP2 ADD SWAP2 DUP10 SWAP2 ADD PUSH3 0xB8 JUMP JUMPDEST PUSH1 0x0 DUP1 REVERT JUMPDEST PUSH4 0x4E487B71 PUSH1 0xE0 SHL PUSH1 0x0 MSTORE PUSH1 0x41 PUSH1 0x4 MSTORE PUSH1 0x24 PUSH1 0x0 REVERT JUMPDEST PUSH1 0x40 MLOAD SWAP2 SWAP1 PUSH1 0x1F ADD PUSH1 0x1F NOT AND DUP3 ADD PUSH1 0x1 PUSH1 0x1 PUSH1 0x40 SHL SUB DUP2 GT DUP4 DUP3 LT OR PUSH3 0x558 JUMPI PUSH1 0x40 MSTORE JUMP JUMPDEST MLOAD SWAP1 PUSH1 0x1 PUSH1 0x1 PUSH1 0xA0 SHL SUB DUP3 AND DUP3 SUB PUSH3 0x553 JUMPI JUMP JUMPDEST ISZERO PUSH3 0x5B1 JUMPI JUMP JUMPDEST PUSH1 0x40 MLOAD PUSH3 0x461BCD PUSH1 0xE5 SHL DUP2 MSTORE PUSH1 0x20 PUSH1 0x4 DUP3 ADD MSTORE PUSH1 0x17 PUSH1 0x24 DUP3 ADD MSTORE PUSH32 0x5265776172642077656967687473207265717569726564000000000000000000 PUSH1 0x44 DUP3 ADD MSTORE PUSH1 0x64 SWAP1 REVERT JUMPDEST DUP1 MLOAD DUP3 LT ISZERO PUSH3 0x60B JUMPI PUSH1 0x20 SWAP2 PUSH1 0x5 SHL ADD ADD SWAP1 JUMP JUMPDEST PUSH4 0x4E487B71 PUSH1 0xE0 SHL PUSH1 0x0 MSTORE PUSH1 0x32 PUSH1 0x4 MSTORE PUSH1 0x24 PUSH1 0x0 REVERT JUMPDEST PUSH1 0x0 SLOAD PUSH1 0x1 PUSH1 0x1 PUSH1 0xA0 SHL SUB AND CALLER SUB PUSH3 0x636 JUMPI JUMP JUMPDEST PUSH1 0x64 PUSH1 0x40 MLOAD PUSH3 0x461BCD PUSH1 0xE5 SHL DUP2 MSTORE PUSH1 0x20 PUSH1 0x4 DUP3 ADD MSTORE PUSH1 0x20 PUSH1 0x24 DUP3 ADD MSTORE PUSH32 0x4F776E61626C653A2063616C6C6572206973206E6F7420746865206F776E6572 PUSH1 0x44 DUP3 ADD MSTORE REVERT INVALID PUSH1 0x40 PUSH1 0x80 DUP2 MSTORE PUSH1 0x4 SWAP1 DUP2 CALLDATASIZE LT ISZERO PUSH2 0x15 JUMPI PUSH1 0x0 DUP1 REVERT JUMPDEST PUSH1 0x0 SWAP2 DUP3 CALLDATALOAD PUSH1 0xE0 SHR SWAP1 DUP2 PUSH4 0x361CA5A EQ PUSH2 0xD74 JUMPI DUP2 PUSH4 0x4D4E9BD EQ PUSH2 0xCEF JUMPI DUP2 PUSH4 0x2B359BC5 EQ PUSH2 0xCC6 JUMPI DUP2 PUSH4 0x491DB668 EQ PUSH2 0xC18 JUMPI DUP2 PUSH4 0x6F4A2CD0 EQ PUSH2 0x86E JUMPI DUP2 PUSH4 0x715018A6 EQ PUSH2 0x814 JUMPI DUP2 PUSH4 0x8A13EEA7 EQ PUSH2 0x7D0 JUMPI DUP2 PUSH4 0x8DA5CB5B EQ PUSH2 0x7A8 JUMPI DUP2 PUSH4 0x96C82E57 EQ PUSH2 0x789 JUMPI DUP2 PUSH4 0x98B5B5DA EQ PUSH2 0x74E JUMPI DUP2 PUSH4 0xA02F413F EQ PUSH2 0x69C JUMPI DUP2 PUSH4 0xAE3BE01D EQ PUSH2 0x67D JUMPI DUP2 PUSH4 0xAE609AB5 EQ PUSH2 0x5E7 JUMPI DUP2 PUSH4 0xB79092FD EQ PUSH2 0x4FE JUMPI DUP2 PUSH4 0xD78276C6 EQ PUSH2 0x342 JUMPI DUP2 PUSH4 0xF2FDE38B EQ PUSH2 0x277 JUMPI DUP2 PUSH4 0xF806CB25 EQ PUSH2 0x1BD JUMPI DUP2 PUSH4 0xFAD3A3D2 EQ PUSH2 0x11F JUMPI POP PUSH4 0xFF0224D3 EQ PUSH2 0xF4 JUMPI PUSH1 0x0 DUP1 REVERT JUMPDEST CALLVALUE PUSH2 0x11B JUMPI DUP2 PUSH1 0x3 NOT CALLDATASIZE ADD SLT PUSH2 0x11B JUMPI PUSH1 0x2 SLOAD SWAP1 MLOAD PUSH1 0x1 PUSH1 0x1 PUSH1 0xA0 SHL SUB SWAP1 SWAP2 AND DUP2 MSTORE PUSH1 0x20 SWAP1 RETURN JUMPDEST POP DUP1 REVERT JUMPDEST SWAP1 POP CALLVALUE PUSH2 0x1B9 JUMPI PUSH1 0x20 CALLDATASIZE PUSH1 0x3 NOT ADD SLT PUSH2 0x1B9 JUMPI DUP1 CALLDATALOAD PUSH1 0x1 PUSH1 0x1 PUSH1 0xA0 SHL SUB DUP2 AND SWAP3 SWAP1 DUP4 SWAP1 SUB PUSH2 0x1B5 JUMPI PUSH2 0x14F PUSH2 0x10E4 JUMP JUMPDEST DUP3 ISZERO PUSH2 0x172 JUMPI POP POP PUSH12 0xFFFFFFFFFFFFFFFFFFFFFFFF PUSH1 0xA0 SHL PUSH1 0x2 SLOAD AND OR PUSH1 0x2 SSTORE DUP1 RETURN JUMPDEST SWAP1 PUSH1 0x20 PUSH1 0x64 SWAP3 MLOAD SWAP2 PUSH3 0x461BCD PUSH1 0xE5 SHL DUP4 MSTORE DUP3 ADD MSTORE PUSH1 0x1B PUSH1 0x24 DUP3 ADD MSTORE PUSH32 0x496E76616C6964204C6561646572626F61726420616464726573730000000000 PUSH1 0x44 DUP3 ADD MSTORE REVERT JUMPDEST DUP4 DUP1 REVERT JUMPDEST DUP3 DUP1 REVERT JUMPDEST SWAP1 POP CALLVALUE PUSH2 0x1B9 JUMPI PUSH1 0x20 CALLDATASIZE PUSH1 0x3 NOT ADD SLT PUSH2 0x1B9 JUMPI DUP1 CALLDATALOAD SWAP2 PUSH2 0x1DB PUSH2 0x10E4 JUMP JUMPDEST DUP3 ISZERO PUSH2 0x234 JUMPI DUP3 DUP3 SLOAD LT PUSH2 0x1F1 JUMPI POP POP PUSH1 0x6 SSTORE DUP1 RETURN JUMPDEST SWAP1 PUSH1 0x20 PUSH1 0x64 SWAP3 MLOAD SWAP2 PUSH3 0x461BCD PUSH1 0xE5 SHL DUP4 MSTORE DUP3 ADD MSTORE PUSH1 0x18 PUSH1 0x24 DUP3 ADD MSTORE PUSH32 0x5365742072657761726420776569676874732066697273740000000000000000 PUSH1 0x44 DUP3 ADD MSTORE REVERT JUMPDEST SWAP1 PUSH1 0x20 PUSH1 0x64 SWAP3 MLOAD SWAP2 PUSH3 0x461BCD PUSH1 0xE5 SHL DUP4 MSTORE DUP3 ADD MSTORE PUSH1 0x20 PUSH1 0x24 DUP3 ADD MSTORE PUSH32 0x4D7573742068617665206174206C65617374206F6E6520726563697069656E74 PUSH1 0x44 DUP3 ADD MSTORE REVERT JUMPDEST SWAP2 SWAP1 POP CALLVALUE PUSH2 0x1B9 JUMPI PUSH1 0x20 CALLDATASIZE PUSH1 0x3 NOT ADD SLT PUSH2 0x1B9 JUMPI PUSH1 0x1 PUSH1 0x1 PUSH1 0xA0 SHL SUB DUP3 CALLDATALOAD DUP2 DUP2 AND SWAP4 SWAP2 SWAP3 SWAP1 DUP5 SWAP1 SUB PUSH2 0x33E JUMPI PUSH2 0x2AB PUSH2 0x10E4 JUMP JUMPDEST DUP4 ISZERO PUSH2 0x2EC JUMPI POP POP DUP3 SLOAD PUSH1 0x1 PUSH1 0x1 PUSH1 0xA0 SHL SUB NOT DUP2 AND DUP4 OR DUP5 SSTORE AND PUSH32 0x8BE0079C531659141344CD1FD0A4F28419497F9722A3DAAFE3B4186F6B6457E0 DUP4 DUP1 LOG3 DUP1 RETURN JUMPDEST SWAP1 PUSH1 0x20 PUSH1 0x84 SWAP3 MLOAD SWAP2 PUSH3 0x461BCD PUSH1 0xE5 SHL DUP4 MSTORE DUP3 ADD MSTORE PUSH1 0x26 PUSH1 0x24 DUP3 ADD MSTORE PUSH32 0x4F776E61626C653A206E6577206F776E657220697320746865207A65726F2061 PUSH1 0x44 DUP3 ADD MSTORE PUSH6 0x646472657373 PUSH1 0xD0 SHL PUSH1 0x64 DUP3 ADD MSTORE REVERT JUMPDEST DUP5 DUP1 REVERT JUMPDEST SWAP1 POP CALLVALUE PUSH2 0x1B9 JUMPI PUSH1 0x20 DUP1 PUSH1 0x3 NOT CALLDATASIZE ADD SLT PUSH2 0x1B5 JUMPI DUP2 CALLDATALOAD SWAP2 PUSH2 0x361 PUSH2 0x10E4 JUMP JUMPDEST PUSH2 0x369 PUSH2 0x122E JUMP JUMPDEST PUSH2 0x374 DUP4 ISZERO ISZERO PUSH2 0x1182 JUMP JUMPDEST DUP4 MLOAD PUSH4 0x70A08231 PUSH1 0xE0 SHL DUP2 MSTORE ADDRESS DUP2 DUP4 ADD MSTORE PUSH32 0x0 PUSH1 0x1 PUSH1 0x1 PUSH1 0xA0 SHL SUB AND SWAP2 SWAP1 DUP4 DUP2 PUSH1 0x24 DUP2 DUP7 GAS STATICCALL DUP1 ISZERO PUSH2 0x4F4 JUMPI DUP6 SWAP2 DUP9 SWAP2 PUSH2 0x4BF JUMPI JUMPDEST POP LT PUSH2 0x47C JUMPI DUP5 MLOAD PUSH4 0xA9059CBB PUSH1 0xE0 SHL DUP2 MSTORE CALLER SWAP2 DUP2 ADD SWAP2 DUP3 MSTORE PUSH1 0x20 DUP3 ADD DUP6 SWAP1 MSTORE SWAP2 DUP4 SWAP2 DUP4 SWAP2 SWAP1 DUP3 SWAP1 DUP10 SWAP1 DUP3 SWAP1 PUSH1 0x40 ADD SUB SWAP3 GAS CALL SWAP1 DUP2 ISZERO PUSH2 0x472 JUMPI PUSH32 0x7E2C99819371DB0A6FC6F4269FE872496E44F502DF19BA3EAE594B7A15987460 SWAP4 SWAP5 SWAP2 PUSH2 0x437 SWAP2 DUP8 SWAP2 PUSH2 0x445 JUMPI JUMPDEST POP PUSH2 0x11EA JUMP JUMPDEST MLOAD SWAP3 DUP4 MSTORE CALLER SWAP3 LOG2 PUSH1 0x1 DUP1 SSTORE DUP1 RETURN JUMPDEST PUSH2 0x465 SWAP2 POP DUP5 RETURNDATASIZE DUP7 GT PUSH2 0x46B JUMPI JUMPDEST PUSH2 0x45D DUP2 DUP4 PUSH2 0x100C JUMP JUMPDEST DUP2 ADD SWAP1 PUSH2 0x11CD JUMP JUMPDEST CODESIZE PUSH2 0x431 JUMP JUMPDEST POP RETURNDATASIZE PUSH2 0x453 JUMP JUMPDEST DUP5 MLOAD RETURNDATASIZE DUP8 DUP3 RETURNDATACOPY RETURNDATASIZE SWAP1 REVERT JUMPDEST DUP5 MLOAD PUSH3 0x461BCD PUSH1 0xE5 SHL DUP2 MSTORE SWAP1 DUP2 ADD DUP4 SWAP1 MSTORE PUSH1 0x1A PUSH1 0x24 DUP3 ADD MSTORE PUSH32 0x496E73756666696369656E7420746F6B656E2062616C616E6365000000000000 PUSH1 0x44 DUP3 ADD MSTORE PUSH1 0x64 SWAP1 REVERT JUMPDEST DUP1 SWAP3 POP DUP6 DUP1 SWAP3 POP RETURNDATASIZE DUP4 GT PUSH2 0x4ED JUMPI JUMPDEST PUSH2 0x4D8 DUP2 DUP4 PUSH2 0x100C JUMP JUMPDEST DUP2 ADD SUB SLT PUSH2 0x4E9 JUMPI DUP5 SWAP1 MLOAD CODESIZE PUSH2 0x3C8 JUMP JUMPDEST DUP7 DUP1 REVERT JUMPDEST POP RETURNDATASIZE PUSH2 0x4CE JUMP JUMPDEST DUP7 MLOAD RETURNDATASIZE DUP10 DUP3 RETURNDATACOPY RETURNDATASIZE SWAP1 REVERT JUMPDEST SWAP2 SWAP1 POP CALLVALUE PUSH2 0x1B9 JUMPI PUSH1 0x20 CALLDATASIZE PUSH1 0x3 NOT ADD SLT PUSH2 0x1B9 JUMPI DUP2 CALLDATALOAD SWAP2 PUSH2 0x51D PUSH2 0x122E JUMP JUMPDEST PUSH2 0x528 DUP4 ISZERO ISZERO PUSH2 0x1182 JUMP JUMPDEST DUP2 MLOAD PUSH4 0x23B872DD PUSH1 0xE0 SHL DUP2 MSTORE CALLER SWAP2 DUP2 ADD SWAP2 SWAP1 SWAP2 MSTORE ADDRESS PUSH1 0x24 DUP3 ADD MSTORE PUSH1 0x44 DUP2 ADD DUP4 SWAP1 MSTORE PUSH1 0x20 DUP2 PUSH1 0x64 DUP2 DUP8 PUSH32 0x0 PUSH1 0x1 PUSH1 0x1 PUSH1 0xA0 SHL SUB AND GAS CALL SWAP1 DUP2 ISZERO PUSH2 0x5DD JUMPI SWAP1 PUSH2 0x594 SWAP2 DUP6 SWAP2 PUSH2 0x5C5 JUMPI POP PUSH2 0x11EA JUMP JUMPDEST MLOAD SWAP1 DUP2 MSTORE PUSH32 0xAB79632DE7FE1724598CE2214EAA326D90D48064D2D3397406ECC5769316A5F6 PUSH1 0x20 CALLER SWAP3 LOG2 PUSH1 0x1 DUP1 SSTORE DUP1 RETURN JUMPDEST PUSH2 0x465 SWAP2 POP PUSH1 0x20 RETURNDATASIZE DUP2 GT PUSH2 0x46B JUMPI PUSH2 0x45D DUP2 DUP4 PUSH2 0x100C JUMP JUMPDEST DUP3 MLOAD RETURNDATASIZE DUP7 DUP3 RETURNDATACOPY RETURNDATASIZE SWAP1 REVERT JUMPDEST SWAP1 POP CALLVALUE PUSH2 0x1B9 JUMPI PUSH1 0x20 CALLDATASIZE PUSH1 0x3 NOT ADD SLT PUSH2 0x1B9 JUMPI DUP1 CALLDATALOAD PUSH1 0x1 PUSH1 0x1 PUSH1 0xA0 SHL SUB DUP2 AND SWAP3 SWAP1 DUP4 SWAP1 SUB PUSH2 0x1B5 JUMPI PUSH2 0x617 PUSH2 0x10E4 JUMP JUMPDEST DUP3 ISZERO PUSH2 0x63A JUMPI POP POP PUSH12 0xFFFFFFFFFFFFFFFFFFFFFFFF PUSH1 0xA0 SHL PUSH1 0x3 SLOAD AND OR PUSH1 0x3 SSTORE DUP1 RETURN JUMPDEST SWAP1 PUSH1 0x20 PUSH1 0x64 SWAP3 MLOAD SWAP2 PUSH3 0x461BCD PUSH1 0xE5 SHL DUP4 MSTORE DUP3 ADD MSTORE PUSH1 0x17 PUSH1 0x24 DUP3 ADD MSTORE PUSH32 0x496E76616C6964204C616E644E46542061646472657373000000000000000000 PUSH1 0x44 DUP3 ADD MSTORE REVERT JUMPDEST POP POP CALLVALUE PUSH2 0x11B JUMPI DUP2 PUSH1 0x3 NOT CALLDATASIZE ADD SLT PUSH2 0x11B JUMPI PUSH1 0x20 SWAP1 PUSH1 0x6 SLOAD SWAP1 MLOAD SWAP1 DUP2 MSTORE RETURN JUMPDEST SWAP2 SWAP1 POP CALLVALUE PUSH2 0x1B9 JUMPI DUP3 PUSH1 0x3 NOT CALLDATASIZE ADD SLT PUSH2 0x1B9 JUMPI DUP1 MLOAD PUSH4 0x70A08231 PUSH1 0xE0 SHL DUP2 MSTORE ADDRESS SWAP3 DUP2 ADD SWAP3 SWAP1 SWAP3 MSTORE PUSH1 0x20 DUP3 PUSH1 0x24 DUP2 PUSH32 0x0 PUSH1 0x1 PUSH1 0x1 PUSH1 0xA0 SHL SUB AND GAS STATICCALL SWAP2 DUP3 ISZERO PUSH2 0x744 JUMPI DUP4 SWAP3 PUSH2 0x70D JUMPI JUMPDEST PUSH1 0x20 DUP4 DUP4 MLOAD SWAP1 DUP2 MSTORE RETURN JUMPDEST SWAP1 SWAP2 POP PUSH1 0x20 DUP2 RETURNDATASIZE DUP3 GT PUSH2 0x73C JUMPI JUMPDEST DUP2 PUSH2 0x728 PUSH1 0x20 SWAP4 DUP4 PUSH2 0x100C JUMP JUMPDEST DUP2 ADD SUB SLT PUSH2 0x1B9 JUMPI PUSH1 0x20 SWAP3 POP MLOAD SWAP1 CODESIZE PUSH2 0x703 JUMP JUMPDEST RETURNDATASIZE SWAP2 POP PUSH2 0x71B JUMP JUMPDEST DUP2 MLOAD RETURNDATASIZE DUP6 DUP3 RETURNDATACOPY RETURNDATASIZE SWAP1 REVERT JUMPDEST DUP3 DUP5 CALLVALUE PUSH2 0x786 JUMPI PUSH1 0x20 CALLDATASIZE PUSH1 0x3 NOT ADD SLT PUSH2 0x786 JUMPI DUP3 CALLDATALOAD SWAP3 SLOAD DUP4 LT ISZERO PUSH2 0x786 JUMPI POP PUSH2 0x778 PUSH1 0x20 SWAP3 PUSH2 0x1097 JUMP JUMPDEST SWAP2 SWAP1 SLOAD SWAP1 MLOAD SWAP2 PUSH1 0x3 SHL SHR DUP2 MSTORE RETURN JUMPDEST DUP1 REVERT JUMPDEST POP POP CALLVALUE PUSH2 0x11B JUMPI DUP2 PUSH1 0x3 NOT CALLDATASIZE ADD SLT PUSH2 0x11B JUMPI PUSH1 0x20 SWAP1 PUSH1 0x5 SLOAD SWAP1 MLOAD SWAP1 DUP2 MSTORE RETURN JUMPDEST POP POP CALLVALUE PUSH2 0x11B JUMPI DUP2 PUSH1 0x3 NOT CALLDATASIZE ADD SLT PUSH2 0x11B JUMPI SWAP1 SLOAD SWAP1 MLOAD PUSH1 0x1 PUSH1 0x1 PUSH1 0xA0 SHL SUB SWAP1 SWAP2 AND DUP2 MSTORE PUSH1 0x20 SWAP1 RETURN JUMPDEST POP POP CALLVALUE PUSH2 0x11B JUMPI DUP2 PUSH1 0x3 NOT CALLDATASIZE ADD SLT PUSH2 0x11B JUMPI MLOAD PUSH32 0x0 PUSH1 0x1 PUSH1 0x1 PUSH1 0xA0 SHL SUB AND DUP2 MSTORE PUSH1 0x20 SWAP1 RETURN JUMPDEST DUP4 CALLVALUE PUSH2 0x786 JUMPI DUP1 PUSH1 0x3 NOT CALLDATASIZE ADD SLT PUSH2 0x786 JUMPI PUSH2 0x82D PUSH2 0x10E4 JUMP JUMPDEST DUP1 SLOAD PUSH1 0x1 PUSH1 0x1 PUSH1 0xA0 SHL SUB NOT DUP2 AND DUP3 SSTORE DUP2 SWAP1 PUSH1 0x1 PUSH1 0x1 PUSH1 0xA0 SHL SUB AND PUSH32 0x8BE0079C531659141344CD1FD0A4F28419497F9722A3DAAFE3B4186F6B6457E0 DUP3 DUP1 LOG3 DUP1 RETURN JUMPDEST SWAP1 POP CALLVALUE PUSH2 0x1B9 JUMPI DUP3 PUSH1 0x3 NOT CALLDATASIZE ADD SLT PUSH2 0x1B9 JUMPI PUSH2 0x888 PUSH2 0x10E4 JUMP JUMPDEST PUSH2 0x890 PUSH2 0x122E JUMP JUMPDEST PUSH1 0x2 SLOAD DUP3 MLOAD PUSH4 0x36BB1D37 PUSH1 0xE1 SHL DUP2 MSTORE SWAP1 PUSH1 0x1 PUSH1 0x1 PUSH1 0xA0 SHL SUB SWAP1 DUP6 SWAP1 DUP4 SWAP1 DUP6 SWAP1 DUP3 SWAP1 DUP6 AND GAS STATICCALL SWAP2 DUP3 ISZERO PUSH2 0x472 JUMPI DUP6 SWAP3 PUSH2 0xBF4 JUMPI JUMPDEST POP DUP2 MLOAD ISZERO PUSH2 0xBBA JUMPI DUP2 MLOAD SWAP3 PUSH1 0x6 SLOAD DUP1 DUP6 GT PUSH2 0xBB2 JUMPI JUMPDEST POP SWAP3 SWAP1 DUP6 SWAP4 DUP7 SWAP4 DUP3 PUSH32 0x0 AND SWAP1 JUMPDEST DUP5 DUP7 LT PUSH2 0x93E JUMPI DUP9 PUSH32 0x6D1C76D614228B523BAA4DCD9539E2C713B54FF4AB3FF2D1627E7F6CD32BE442 PUSH1 0x20 DUP10 DUP12 MLOAD SWAP1 DUP2 MSTORE LOG1 PUSH1 0x1 DUP1 SSTORE DUP1 RETURN JUMPDEST SWAP1 SWAP2 SWAP3 SWAP4 SWAP5 SWAP6 PUSH2 0x94E DUP8 DUP4 PUSH2 0x1161 JUMP JUMPDEST MLOAD MLOAD PUSH1 0x3 SWAP2 DUP7 DUP4 SLOAD AND SWAP2 DUP11 MLOAD SWAP4 DUP5 SWAP4 DUP5 SWAP3 PUSH4 0x31A9108F PUSH1 0xE1 SHL DUP5 MSTORE DUP10 DUP5 ADD MSTORE PUSH1 0x20 SWAP6 DUP7 SWAP2 PUSH1 0x24 SWAP7 DUP8 SWAP2 GAS STATICCALL SWAP2 DUP3 ISZERO PUSH2 0xBA8 JUMPI DUP14 SWAP3 PUSH2 0xB6C JUMPI JUMPDEST POP DUP9 DUP3 AND ISZERO PUSH2 0xB33 JUMPI DUP13 SWAP1 PUSH2 0x99B DUP13 PUSH2 0x1097 JUMP JUMPDEST SWAP1 SLOAD SWAP2 SHL SHR DUP13 MLOAD PUSH4 0x70A08231 PUSH1 0xE0 SHL DUP2 MSTORE ADDRESS DUP11 DUP3 ADD MSTORE DUP7 DUP2 DUP8 DUP2 DUP13 GAS STATICCALL SWAP3 DUP4 ISZERO PUSH2 0xB28 JUMPI SWAP3 PUSH2 0xAF5 JUMPI JUMPDEST POP DUP2 DUP2 MUL SWAP2 DUP2 DUP4 DIV EQ SWAP1 ISZERO OR ISZERO PUSH2 0xAE3 JUMPI PUSH1 0x5 SLOAD SWAP1 DUP2 ISZERO PUSH2 0xAD1 JUMPI DIV SWAP3 DUP4 ISZERO PUSH2 0xA80 JUMPI POP DUP11 MLOAD PUSH4 0xA9059CBB PUSH1 0xE0 SHL DUP2 MSTORE PUSH1 0x1 PUSH1 0x1 PUSH1 0xA0 SHL SUB SWAP1 SWAP2 AND DUP8 DUP3 ADD SWAP1 DUP2 MSTORE PUSH1 0x20 DUP2 ADD DUP5 SWAP1 MSTORE SWAP1 SWAP4 SWAP3 SWAP2 SWAP1 DUP13 SWAP1 DUP5 SWAP1 DUP7 SWAP1 DUP2 SWAP1 PUSH1 0x40 ADD SUB DUP2 DUP5 DUP12 GAS CALL DUP1 ISZERO PUSH2 0xA74 JUMPI PUSH2 0xA4D SWAP6 PUSH2 0xA47 SWAP6 PUSH2 0xA42 SWAP4 SWAP3 PUSH2 0xA57 JUMPI JUMPDEST POP POP PUSH2 0x11EA JUMP JUMPDEST PUSH2 0x1175 JUMP JUMPDEST SWAP7 PUSH2 0x113C JUMP JUMPDEST SWAP5 SWAP4 SWAP3 SWAP2 SWAP1 PUSH2 0x905 JUMP JUMPDEST PUSH2 0xA6D SWAP3 POP DUP1 RETURNDATASIZE LT PUSH2 0x46B JUMPI PUSH2 0x45D DUP2 DUP4 PUSH2 0x100C JUMP JUMPDEST CODESIZE DUP1 PUSH2 0xA3B JUMP JUMPDEST POP DUP12 MLOAD SWAP1 RETURNDATASIZE SWAP1 DUP3 RETURNDATACOPY RETURNDATASIZE SWAP1 REVERT JUMPDEST DUP8 PUSH1 0x27 PUSH1 0x84 SWAP3 DUP8 DUP16 MLOAD SWAP4 PUSH3 0x461BCD PUSH1 0xE5 SHL DUP6 MSTORE DUP5 ADD MSTORE DUP3 ADD MSTORE PUSH32 0x52657761726420616D6F756E74206D7573742062652067726561746572207468 PUSH1 0x44 DUP3 ADD MSTORE PUSH7 0x616E207A65726F PUSH1 0xC8 SHL PUSH1 0x64 DUP3 ADD MSTORE REVERT JUMPDEST PUSH4 0x4E487B71 PUSH1 0xE0 SHL DUP15 MSTORE PUSH1 0x12 DUP10 MSTORE DUP5 DUP15 REVERT JUMPDEST PUSH4 0x4E487B71 PUSH1 0xE0 SHL DUP14 MSTORE PUSH1 0x11 DUP9 MSTORE DUP4 DUP14 REVERT JUMPDEST SWAP1 SWAP2 POP DUP6 DUP2 DUP2 RETURNDATASIZE DUP4 GT PUSH2 0xB21 JUMPI JUMPDEST PUSH2 0xB0D DUP2 DUP4 PUSH2 0x100C JUMP JUMPDEST DUP2 ADD SUB SLT PUSH2 0xB1D JUMPI MLOAD SWAP1 CODESIZE PUSH2 0x9C5 JUMP JUMPDEST DUP14 DUP1 REVERT JUMPDEST POP RETURNDATASIZE PUSH2 0xB03 JUMP JUMPDEST DUP15 MLOAD SWAP1 RETURNDATASIZE SWAP1 DUP3 RETURNDATACOPY RETURNDATASIZE SWAP1 REVERT JUMPDEST POP DUP11 MLOAD PUSH3 0x461BCD PUSH1 0xE5 SHL DUP2 MSTORE DUP1 DUP9 ADD DUP6 SWAP1 MSTORE PUSH1 0x13 DUP2 DUP6 ADD MSTORE PUSH19 0x24B73B30B634B2103A37B5B2B71037BBB732B9 PUSH1 0x69 SHL PUSH1 0x44 DUP3 ADD MSTORE PUSH1 0x64 SWAP1 REVERT JUMPDEST SWAP1 SWAP2 POP DUP5 DUP2 DUP2 RETURNDATASIZE DUP4 GT PUSH2 0xBA1 JUMPI JUMPDEST PUSH2 0xB84 DUP2 DUP4 PUSH2 0x100C JUMP JUMPDEST DUP2 ADD SUB SLT PUSH2 0xB9D JUMPI MLOAD DUP9 DUP2 AND DUP2 SUB PUSH2 0xB9D JUMPI SWAP1 CODESIZE PUSH2 0x987 JUMP JUMPDEST DUP13 DUP1 REVERT JUMPDEST POP RETURNDATASIZE PUSH2 0xB7A JUMP JUMPDEST DUP13 MLOAD RETURNDATASIZE DUP16 DUP3 RETURNDATACOPY RETURNDATASIZE SWAP1 REVERT JUMPDEST SWAP4 POP CODESIZE PUSH2 0x8D9 JUMP JUMPDEST DUP4 MLOAD PUSH3 0x461BCD PUSH1 0xE5 SHL DUP2 MSTORE PUSH1 0x20 DUP2 DUP6 ADD MSTORE PUSH1 0x14 PUSH1 0x24 DUP3 ADD MSTORE PUSH20 0x4C6561646572626F61726420697320656D707479 PUSH1 0x60 SHL PUSH1 0x44 DUP3 ADD MSTORE PUSH1 0x64 SWAP1 REVERT JUMPDEST PUSH2 0xC11 SWAP2 SWAP3 POP RETURNDATASIZE DUP1 DUP8 DUP4 RETURNDATACOPY PUSH2 0xC09 DUP2 DUP4 PUSH2 0x100C JUMP JUMPDEST DUP2 ADD SWAP1 PUSH2 0x1284 JUMP JUMPDEST SWAP1 CODESIZE PUSH2 0x8C3 JUMP JUMPDEST SWAP2 SWAP1 POP CALLVALUE PUSH2 0x1B9 JUMPI DUP3 PUSH1 0x3 NOT CALLDATASIZE ADD SLT PUSH2 0x1B9 JUMPI PUSH1 0x2 SLOAD DUP2 MLOAD PUSH4 0x36BB1D37 PUSH1 0xE1 SHL DUP2 MSTORE SWAP3 DUP5 SWAP2 DUP5 SWAP2 SWAP1 DUP3 SWAP1 PUSH1 0x1 PUSH1 0x1 PUSH1 0xA0 SHL SUB AND GAS STATICCALL SWAP2 DUP3 ISZERO PUSH2 0x744 JUMPI DUP4 SWAP3 PUSH2 0xCAA JUMPI JUMPDEST POP SWAP1 DUP2 MLOAD SWAP3 DUP4 SWAP3 PUSH1 0x20 DUP1 DUP6 ADD SWAP2 DUP2 DUP7 MSTORE DUP5 MLOAD DUP1 SWAP4 MSTORE DUP2 DUP2 DUP8 ADD SWAP6 ADD SWAP4 SWAP1 JUMPDEST DUP4 DUP3 LT PUSH2 0xC86 JUMPI DUP7 DUP7 SUB DUP8 RETURN JUMPDEST DUP5 MLOAD DUP1 MLOAD DUP8 MSTORE DUP4 ADD MLOAD DUP7 DUP5 ADD MSTORE DUP8 SWAP7 POP SWAP5 DUP6 ADD SWAP5 SWAP4 DUP3 ADD SWAP4 PUSH1 0x1 SWAP2 SWAP1 SWAP2 ADD SWAP1 PUSH2 0xC79 JUMP JUMPDEST PUSH2 0xCBF SWAP2 SWAP3 POP RETURNDATASIZE DUP1 DUP6 DUP4 RETURNDATACOPY PUSH2 0xC09 DUP2 DUP4 PUSH2 0x100C JUMP JUMPDEST SWAP1 CODESIZE PUSH2 0xC5B JUMP JUMPDEST POP POP CALLVALUE PUSH2 0x11B JUMPI DUP2 PUSH1 0x3 NOT CALLDATASIZE ADD SLT PUSH2 0x11B JUMPI PUSH1 0x3 SLOAD SWAP1 MLOAD PUSH1 0x1 PUSH1 0x1 PUSH1 0xA0 SHL SUB SWAP1 SWAP2 AND DUP2 MSTORE PUSH1 0x20 SWAP1 RETURN JUMPDEST DUP4 DUP4 CALLVALUE PUSH2 0x11B JUMPI DUP2 PUSH1 0x3 NOT CALLDATASIZE ADD SLT PUSH2 0x11B JUMPI DUP1 MLOAD SWAP2 DUP3 DUP5 SLOAD SWAP1 DUP2 DUP2 MSTORE PUSH1 0x20 DUP1 SWAP2 ADD SWAP6 DUP4 MSTORE PUSH32 0x8A35ACFBC15FF81A39AE7D344FD709F28E8600B4AA8C65C6B64BFE7FE36BD19B SWAP3 SWAP1 JUMPDEST DUP3 DUP3 LT PUSH2 0xD5D JUMPI PUSH2 0xD59 DUP7 DUP7 PUSH2 0xD4F DUP3 DUP12 SUB DUP4 PUSH2 0x100C JUMP JUMPDEST MLOAD SWAP2 DUP3 SWAP2 DUP3 PUSH2 0x105C JUMP JUMPDEST SUB SWAP1 RETURN JUMPDEST DUP4 SLOAD DUP8 MSTORE SWAP6 DUP7 ADD SWAP6 PUSH1 0x1 SWAP4 DUP5 ADD SWAP4 SWAP1 SWAP2 ADD SWAP1 PUSH2 0xD37 JUMP JUMPDEST SWAP1 POP CALLVALUE PUSH2 0x1B9 JUMPI PUSH1 0x20 SWAP3 DUP4 PUSH1 0x3 NOT CALLDATASIZE ADD SLT PUSH2 0x786 JUMPI DUP2 CALLDATALOAD SWAP1 PUSH8 0xFFFFFFFFFFFFFFFF DUP3 GT PUSH2 0x786 JUMPI CALLDATASIZE PUSH1 0x23 DUP4 ADD SLT ISZERO PUSH2 0x786 JUMPI DUP2 DUP4 ADD CALLDATALOAD SWAP3 PUSH2 0xDB4 DUP5 PUSH2 0x1044 JUMP JUMPDEST SWAP6 PUSH2 0xDC1 DUP7 MLOAD SWAP8 DUP9 PUSH2 0x100C JUMP JUMPDEST DUP5 DUP8 MSTORE DUP1 DUP8 ADD SWAP4 PUSH1 0x24 SWAP5 DUP6 PUSH1 0x5 SWAP8 DUP9 SHL DUP4 ADD ADD SWAP2 CALLDATASIZE DUP4 GT PUSH2 0x1008 JUMPI DUP7 DUP5 SWAP2 ADD SWAP2 JUMPDEST DUP4 DUP4 LT PUSH2 0xFF8 JUMPI POP POP POP POP PUSH2 0xDF5 PUSH2 0x10E4 JUMP JUMPDEST DUP7 MLOAD ISZERO PUSH2 0xFB8 JUMPI DUP7 MLOAD PUSH1 0x6 SLOAD GT PUSH2 0xF65 JUMPI DUP2 SLOAD DUP4 DUP4 SSTORE DUP1 PUSH2 0xF24 JUMPI JUMPDEST POP DUP3 DUP6 SSTORE DUP3 JUMPDEST DUP8 MLOAD DUP2 LT ISZERO PUSH2 0xEED JUMPI PUSH2 0xE2A DUP2 DUP10 PUSH2 0x1161 JUMP JUMPDEST MLOAD ISZERO PUSH2 0xEAB JUMPI PUSH2 0xE3A DUP2 DUP10 PUSH2 0x1161 JUMP JUMPDEST MLOAD DUP4 SLOAD PUSH9 0x10000000000000000 DUP2 LT ISZERO PUSH2 0xE99 JUMPI SWAP1 PUSH2 0xE62 DUP3 PUSH1 0x1 PUSH2 0xE94 SWAP6 SWAP5 ADD DUP8 SSTORE PUSH2 0x1097 JUMP JUMPDEST DUP2 SWAP3 SWAP2 SLOAD SWAP1 PUSH1 0x3 SHL SWAP2 DUP3 SHL SWAP2 PUSH1 0x0 NOT SWAP1 SHL NOT AND OR SWAP1 SSTORE PUSH2 0xE8D PUSH2 0xE85 DUP3 DUP12 PUSH2 0x1161 JUMP JUMPDEST MLOAD DUP9 SLOAD PUSH2 0x1175 JUMP JUMPDEST DUP8 SSTORE PUSH2 0x113C JUMP JUMPDEST PUSH2 0xE17 JUMP JUMPDEST PUSH4 0x4E487B71 PUSH1 0xE0 SHL DUP7 MSTORE PUSH1 0x41 DUP6 MSTORE DUP7 DUP7 REVERT JUMPDEST DUP7 MLOAD PUSH3 0x461BCD PUSH1 0xE5 SHL DUP2 MSTORE DUP1 DUP5 ADD DUP4 SWAP1 MSTORE PUSH1 0x1E DUP2 DUP8 ADD MSTORE PUSH32 0x52657761726420776569676874206D75737420626520706F7369746976650000 PUSH1 0x44 DUP3 ADD MSTORE PUSH1 0x64 SWAP1 REVERT JUMPDEST DUP4 PUSH32 0xD8DCACE84BD0BC32F5DBFD23EB84D3D0FC1A1D03E94AD39A3C2B995C1CA401D7 PUSH2 0xF1E DUP11 DUP11 MLOAD SWAP2 DUP3 SWAP2 DUP3 PUSH2 0x105C JUMP JUMPDEST SUB SWAP1 LOG1 DUP1 RETURN JUMPDEST DUP3 DUP5 MSTORE PUSH32 0x8A35ACFBC15FF81A39AE7D344FD709F28E8600B4AA8C65C6B64BFE7FE36BD19B SWAP1 DUP2 ADD SWAP1 JUMPDEST DUP2 DUP2 LT PUSH2 0xF5A JUMPI POP PUSH2 0xE11 JUMP JUMPDEST DUP5 DUP2 SSTORE PUSH1 0x1 ADD PUSH2 0xF4D JUMP JUMPDEST DUP6 MLOAD PUSH3 0x461BCD PUSH1 0xE5 SHL DUP2 MSTORE SWAP2 DUP3 ADD MSTORE PUSH1 0x2A DUP2 DUP5 ADD MSTORE PUSH32 0x496E73756666696369656E7420726577617264207765696768747320666F7220 PUSH1 0x44 DUP3 ADD MSTORE PUSH10 0x726563697069656E7473 PUSH1 0xB0 SHL PUSH1 0x64 DUP3 ADD MSTORE PUSH1 0x84 SWAP1 REVERT JUMPDEST DUP6 MLOAD PUSH3 0x461BCD PUSH1 0xE5 SHL DUP2 MSTORE SWAP2 DUP3 ADD MSTORE PUSH1 0x17 DUP2 DUP5 ADD MSTORE PUSH32 0x5265776172642077656967687473207265717569726564000000000000000000 PUSH1 0x44 DUP3 ADD MSTORE PUSH1 0x64 SWAP1 REVERT JUMPDEST DUP3 CALLDATALOAD DUP2 MSTORE SWAP2 DUP2 ADD SWAP2 DUP5 SWAP2 ADD PUSH2 0xDE2 JUMP JUMPDEST DUP6 DUP1 REVERT JUMPDEST SWAP1 PUSH1 0x1F DUP1 NOT SWAP2 ADD AND DUP2 ADD SWAP1 DUP2 LT PUSH8 0xFFFFFFFFFFFFFFFF DUP3 GT OR PUSH2 0x102E JUMPI PUSH1 0x40 MSTORE JUMP JUMPDEST PUSH4 0x4E487B71 PUSH1 0xE0 SHL PUSH1 0x0 MSTORE PUSH1 0x41 PUSH1 0x4 MSTORE PUSH1 0x24 PUSH1 0x0 REVERT JUMPDEST PUSH8 0xFFFFFFFFFFFFFFFF DUP2 GT PUSH2 0x102E JUMPI PUSH1 0x5 SHL PUSH1 0x20 ADD SWAP1 JUMP JUMPDEST PUSH1 0x20 SWAP1 DUP2 PUSH1 0x40 DUP2 DUP4 ADD SWAP3 DUP3 DUP2 MSTORE DUP6 MLOAD DUP1 SWAP5 MSTORE ADD SWAP4 ADD SWAP2 PUSH1 0x0 JUMPDEST DUP3 DUP2 LT PUSH2 0x1083 JUMPI POP POP POP POP SWAP1 JUMP JUMPDEST DUP4 MLOAD DUP6 MSTORE SWAP4 DUP2 ADD SWAP4 SWAP3 DUP2 ADD SWAP3 PUSH1 0x1 ADD PUSH2 0x1075 JUMP JUMPDEST PUSH1 0x4 SLOAD DUP2 LT ISZERO PUSH2 0x10CE JUMPI PUSH1 0x4 PUSH1 0x0 MSTORE PUSH32 0x8A35ACFBC15FF81A39AE7D344FD709F28E8600B4AA8C65C6B64BFE7FE36BD19B ADD SWAP1 PUSH1 0x0 SWAP1 JUMP JUMPDEST PUSH4 0x4E487B71 PUSH1 0xE0 SHL PUSH1 0x0 MSTORE PUSH1 0x32 PUSH1 0x4 MSTORE PUSH1 0x24 PUSH1 0x0 REVERT JUMPDEST PUSH1 0x0 SLOAD PUSH1 0x1 PUSH1 0x1 PUSH1 0xA0 SHL SUB AND CALLER SUB PUSH2 0x10F8 JUMPI JUMP JUMPDEST PUSH1 0x64 PUSH1 0x40 MLOAD PUSH3 0x461BCD PUSH1 0xE5 SHL DUP2 MSTORE PUSH1 0x20 PUSH1 0x4 DUP3 ADD MSTORE PUSH1 0x20 PUSH1 0x24 DUP3 ADD MSTORE PUSH32 0x4F776E61626C653A2063616C6C6572206973206E6F7420746865206F776E6572 PUSH1 0x44 DUP3 ADD MSTORE REVERT JUMPDEST PUSH1 0x0 NOT DUP2 EQ PUSH2 0x114B JUMPI PUSH1 0x1 ADD SWAP1 JUMP JUMPDEST PUSH4 0x4E487B71 PUSH1 0xE0 SHL PUSH1 0x0 MSTORE PUSH1 0x11 PUSH1 0x4 MSTORE PUSH1 0x24 PUSH1 0x0 REVERT JUMPDEST DUP1 MLOAD DUP3 LT ISZERO PUSH2 0x10CE JUMPI PUSH1 0x20 SWAP2 PUSH1 0x5 SHL ADD ADD SWAP1 JUMP JUMPDEST SWAP2 SWAP1 DUP3 ADD DUP1 SWAP3 GT PUSH2 0x114B JUMPI JUMP JUMPDEST ISZERO PUSH2 0x1189 JUMPI JUMP JUMPDEST PUSH1 0x64 PUSH1 0x40 MLOAD PUSH3 0x461BCD PUSH1 0xE5 SHL DUP2 MSTORE PUSH1 0x20 PUSH1 0x4 DUP3 ADD MSTORE PUSH1 0x20 PUSH1 0x24 DUP3 ADD MSTORE PUSH32 0x416D6F756E74206D7573742062652067726561746572207468616E207A65726F PUSH1 0x44 DUP3 ADD MSTORE REVERT JUMPDEST SWAP1 DUP2 PUSH1 0x20 SWAP2 SUB SLT PUSH2 0x11E5 JUMPI MLOAD DUP1 ISZERO ISZERO DUP2 SUB PUSH2 0x11E5 JUMPI SWAP1 JUMP JUMPDEST PUSH1 0x0 DUP1 REVERT JUMPDEST ISZERO PUSH2 0x11F1 JUMPI JUMP JUMPDEST PUSH1 0x40 MLOAD PUSH3 0x461BCD PUSH1 0xE5 SHL DUP2 MSTORE PUSH1 0x20 PUSH1 0x4 DUP3 ADD MSTORE PUSH1 0x15 PUSH1 0x24 DUP3 ADD MSTORE PUSH21 0x115490CC8C081D1C985B9CD9995C8819985A5B1959 PUSH1 0x5A SHL PUSH1 0x44 DUP3 ADD MSTORE PUSH1 0x64 SWAP1 REVERT JUMPDEST PUSH1 0x2 PUSH1 0x1 SLOAD EQ PUSH2 0x123F JUMPI PUSH1 0x2 PUSH1 0x1 SSTORE JUMP JUMPDEST PUSH1 0x40 MLOAD PUSH3 0x461BCD PUSH1 0xE5 SHL DUP2 MSTORE PUSH1 0x20 PUSH1 0x4 DUP3 ADD MSTORE PUSH1 0x1F PUSH1 0x24 DUP3 ADD MSTORE PUSH32 0x5265656E7472616E637947756172643A207265656E7472616E742063616C6C00 PUSH1 0x44 DUP3 ADD MSTORE PUSH1 0x64 SWAP1 REVERT JUMPDEST SWAP1 PUSH1 0x20 DUP1 DUP4 DUP4 SUB SLT PUSH2 0x11E5 JUMPI DUP3 MLOAD PUSH8 0xFFFFFFFFFFFFFFFF SWAP4 DUP5 DUP3 GT PUSH2 0x11E5 JUMPI ADD SWAP1 DUP3 PUSH1 0x1F DUP4 ADD SLT ISZERO PUSH2 0x11E5 JUMPI DUP2 MLOAD PUSH2 0x12BB DUP2 PUSH2 0x1044 JUMP JUMPDEST SWAP5 PUSH1 0x40 SWAP5 PUSH2 0x12CB DUP7 MLOAD SWAP8 DUP9 PUSH2 0x100C JUMP JUMPDEST DUP3 DUP8 MSTORE DUP4 DUP1 DUP9 ADD SWAP4 PUSH1 0x6 SHL DUP7 ADD ADD SWAP5 DUP2 DUP7 GT PUSH2 0x11E5 JUMPI DUP5 ADD SWAP3 JUMPDEST DUP6 DUP5 LT PUSH2 0x12F6 JUMPI POP POP POP POP POP POP POP SWAP1 JUMP JUMPDEST DUP7 DUP5 DUP4 SUB SLT PUSH2 0x11E5 JUMPI DUP7 MLOAD SWAP1 DUP8 DUP3 ADD SWAP1 DUP3 DUP3 LT DUP6 DUP4 GT OR PUSH2 0x132E JUMPI DUP9 SWAP3 DUP8 SWAP3 DUP5 MSTORE DUP7 MLOAD DUP2 MSTORE DUP3 DUP8 ADD MLOAD DUP4 DUP3 ADD MSTORE DUP2 MSTORE ADD SWAP4 ADD SWAP3 PUSH2 0x12E5 JUMP JUMPDEST PUSH1 0x24 PUSH1 0x0 PUSH4 0x4E487B71 PUSH1 0xE0 SHL DUP2 MSTORE PUSH1 0x41 PUSH1 0x4 MSTORE REVERT INVALID LOG2 PUSH5 0x6970667358 0x22 SLT KECCAK256 SWAP4 0x23 0xD9 PUSH8 0x1DACD9FE27A40C62 0xDE SUB ADDMOD ORIGIN PUSH23 0x37E61B9E13E8EA65D5F58CAB23C11A64736F6C63430008 SGT STOP CALLER "},"methodIdentifiers":{"depositERC20(uint256)":"b79092fd","distributeRewards()":"6f4a2cd0","erc20Token()":"8a13eea7","getCurrentLeaderboard()":"491db668","getRewardWeights()":"04d4e9bd","getTotalRewardsAvailable()":"a02f413f","landNFTContract()":"2b359bc5","leaderboardContract()":"ff0224d3","maxRewardsRecipients()":"ae3be01d","owner()":"8da5cb5b","renounceOwnership()":"715018a6","rewardWeights(uint256)":"98b5b5da","setMaxRewardsRecipients(uint256)":"f806cb25","setRewardWeights(uint256[])":"0361ca5a","totalWeight()":"96c82e57","transferOwnership(address)":"f2fde38b","updateLandNFTContract(address)":"ae609ab5","updateLeaderboardContract(address)":"fad3a3d2","withdrawERC20(uint256)":"d78276c6"}}}}}