{"contracts/mapContract.sol":{"MapContract":{"abi":[{"anonymous":false,"inputs":[{"indexed":true,"internalType":"address","name":"previousOwner","type":"address"},{"indexed":true,"internalType":"address","name":"newOwner","type":"address"}],"name":"OwnershipTransferred","type":"event"},{"inputs":[],"name":"GRID_HEIGHT","outputs":[{"internalType":"int256","name":"","type":"int256"}],"stateMutability":"view","type":"function"},{"inputs":[],"name":"GRID_WIDTH","outputs":[{"internalType":"int256","name":"","type":"int256"}],"stateMutability":"view","type":"function"},{"inputs":[],"name":"MAX_COORDINATE_X","outputs":[{"internalType":"int256","name":"","type":"int256"}],"stateMutability":"view","type":"function"},{"inputs":[],"name":"MAX_COORDINATE_Y","outputs":[{"internalType":"int256","name":"","type":"int256"}],"stateMutability":"view","type":"function"},{"inputs":[],"name":"MAX_OWNABLE_COORDINATES","outputs":[{"internalType":"uint256","name":"","type":"uint256"}],"stateMutability":"view","type":"function"},{"inputs":[],"name":"MIN_COORDINATE","outputs":[{"internalType":"int256","name":"","type":"int256"}],"stateMutability":"view","type":"function"},{"inputs":[{"internalType":"uint256","name":"tokenId","type":"uint256"},{"internalType":"uint256","name":"existingTokenId","type":"uint256"}],"name":"assignAdjacentCoordinate","outputs":[{"internalType":"int256","name":"x","type":"int256"},{"internalType":"int256","name":"y","type":"int256"}],"stateMutability":"nonpayable","type":"function"},{"inputs":[{"internalType":"uint256","name":"tokenId","type":"uint256"},{"internalType":"int256","name":"x","type":"int256"},{"internalType":"int256","name":"y","type":"int256"}],"name":"assignCoordinate","outputs":[],"stateMutability":"nonpayable","type":"function"},{"inputs":[{"internalType":"uint256","name":"tokenId","type":"uint256"}],"name":"assignRandomCoordinate","outputs":[{"internalType":"int256","name":"x","type":"int256"},{"internalType":"int256","name":"y","type":"int256"}],"stateMutability":"nonpayable","type":"function"},{"inputs":[{"internalType":"int256","name":"x","type":"int256"},{"internalType":"int256","name":"y","type":"int256"}],"name":"getAvailableAdjacentCoordinates","outputs":[{"components":[{"internalType":"int256","name":"x","type":"int256"},{"internalType":"int256","name":"y","type":"int256"}],"internalType":"struct DataTypes.Coordinates[]","name":"","type":"tuple[]"}],"stateMutability":"view","type":"function"},{"inputs":[{"internalType":"int256","name":"x","type":"int256"},{"internalType":"int256","name":"y","type":"int256"}],"name":"getCoordinateTokenId","outputs":[{"internalType":"uint256","name":"","type":"uint256"}],"stateMutability":"view","type":"function"},{"inputs":[{"internalType":"uint256","name":"tokenId","type":"uint256"}],"name":"getTokenCoordinates","outputs":[{"internalType":"int256","name":"x","type":"int256"},{"internalType":"int256","name":"y","type":"int256"}],"stateMutability":"view","type":"function"},{"inputs":[{"internalType":"int256","name":"x","type":"int256"},{"internalType":"int256","name":"y","type":"int256"}],"name":"isCoordinateOccupied","outputs":[{"internalType":"bool","name":"","type":"bool"}],"stateMutability":"view","type":"function"},{"inputs":[],"name":"landNFTAddress","outputs":[{"internalType":"address","name":"","type":"address"}],"stateMutability":"view","type":"function"},{"inputs":[],"name":"owner","outputs":[{"internalType":"address","name":"","type":"address"}],"stateMutability":"view","type":"function"},{"inputs":[],"name":"renounceOwnership","outputs":[],"stateMutability":"nonpayable","type":"function"},{"inputs":[{"internalType":"address","name":"_landNFTAddress","type":"address"}],"name":"setLandNFTAddress","outputs":[],"stateMutability":"nonpayable","type":"function"},{"inputs":[],"name":"totalAssignedCoordinates","outputs":[{"internalType":"uint256","name":"","type":"uint256"}],"stateMutability":"view","type":"function"},{"inputs":[{"internalType":"address","name":"newOwner","type":"address"}],"name":"transferOwnership","outputs":[],"stateMutability":"nonpayable","type":"function"},{"inputs":[{"internalType":"address","name":"_newLandNFTAddress","type":"address"}],"name":"updateLandNFTAddress","outputs":[],"stateMutability":"nonpayable","type":"function"}],"evm":{"bytecode":{"linkReferences":{},"object":"6080806040523461005b5760008054336001600160a01b0319821681178355916001600160a01b03909116907f8be0079c531659141344cd1fd0a4f28419497f9722a3daafe3b4186f6b6457e09080a3610f3590816100618239f35b600080fdfe608060408181526004908136101561001657600080fd5b600092833560e01c9081630650e90414610857575080630b4b8e2e146107fc5780631039f59d146108185780631ff72b06146107fc578063235e78eb146104b05780632dd8e3281461077057806337c905a9146106de5780633c7c604f14610697578063478935d3146104b55780634bf11ad2146104b057806367e7907c14610493578063715018a6146104365780637babce561461040a5780637facfc10146103cb5780638cf6408f146103a25780638da5cb5b1461037a578063af11c6f61461035c578063bfed498914610236578063e4027da6146101cc5763f2fde38b1461010057600080fd5b346101c85760203660031901126101c8576001600160a01b038235818116939192908490036101c4576101316108cf565b831561017257505082546001600160a01b0319811683178455167f8be0079c531659141344cd1fd0a4f28419497f9722a3daafe3b4186f6b6457e08380a380f35b906020608492519162461bcd60e51b8352820152602660248201527f4f776e61626c653a206e6577206f776e657220697320746865207a65726f206160448201526564647265737360d01b6064820152fd5b8480fd5b8280fd5b838234610232576101e56101df366108b9565b90610aa7565b8151928392602080850191818652845180935281818701950193905b83821061020e5786860387f35b84518051875283015186840152879650948501949382019360019190910190610201565b5080fd5b5091903461023257826003193601126102325780359161026160018060a01b03600154163314610927565b61026f612710835410610d11565b6024358152602091600383526102a183868420875161028d81610973565b600182549283835201549283910152610aa7565b80511561030f578051156102fc578386910151928351815260028552818120958585019687518352865280838320558152600385522082518155600185519101556102ec81546109c7565b9055519151908351928352820152f35b634e487b7160e01b835260328252602483fd5b855162461bcd60e51b8152808301859052602160248201527f4e6f20617661696c61626c652061646a6163656e7420636f6f7264696e6174656044820152607360f81b6064820152608490fd5b5090346101c857826003193601126101c85760209250549051908152f35b838234610232578160031936011261023257905490516001600160a01b039091168152602090f35b83823461023257816003193601126102325760015490516001600160a01b039091168152602090f35b838234610232576020906104016103e1366108b9565b906000526002602052604060002090600052602052604060002054151590565b90519015158152f35b838234610232578060209261041e366108b9565b90825260028552828220908252845220549051908152f35b833461049057806003193601126104905761044f6108cf565b80546001600160a01b03198116825581906001600160a01b03167f8be0079c531659141344cd1fd0a4f28419497f9722a3daafe3b4186f6b6457e08280a380f35b80fd5b838234610232578160031936011261023257602090516127108152f35b610898565b50346101c85760603660031901126101c857813560243591604435916104e660018060a01b03600154163314610927565b61271085541015610654578584121580610649575b156106065785831215806105fb575b156105b8578386526020906002825282872084885282528287205461057557600193929160039186895260028252838920858a52825280848a205583519661055188610973565b87528187019485528852528520925183555191015561057081546109c7565b905580f35b825162461bcd60e51b8152808701839052601b60248201527f436f6f7264696e61746520616c7265616479206f6363757069656400000000006044820152606490fd5b815162461bcd60e51b8152602081870152601960248201527f7920636f6f7264696e617465206f7574206f662072616e6765000000000000006044820152606490fd5b50606383131561050a565b815162461bcd60e51b8152602081870152601960248201527f7820636f6f7264696e617465206f7574206f662072616e6765000000000000006044820152606490fd5b5060638413156104fb565b815162461bcd60e51b8152602081870152601c60248201527f416c6c20636f6f7264696e61746573206172652061737369676e6564000000006044820152606490fd5b5090346101c85760203660031901126101c857918192358152600360205220602082516106c381610973565b60018354938483520154918291015282519182526020820152f35b50346101c85760203660031901126101c8576001600160a01b038235818116939192908490036101c4576107106108cf565b60015492831661072d5750506001600160a01b0319161760015580f35b906020606492519162461bcd60e51b8352820152601b60248201527f4c616e644e4654206164647265737320616c72656164792073657400000000006044820152fd5b5090346101c85760203660031901126101c85780356001600160a01b03811692908390036107f8576107a06108cf565b82156107c35750506bffffffffffffffffffffffff60a01b600154161760015580f35b906020606492519162461bcd60e51b8352820152600f60248201526e496e76616c6964206164647265737360881b6044820152fd5b8380fd5b8382346102325781600319360112610232576020905160638152f35b509134610490576020366003190112610490575061084b9061084560018060a01b03600154163314610927565b35610d69565b82519182526020820152f35b8490346102325781600319360112610232576020918152f35b90600019820191821360011661088257565b634e487b7160e01b600052601160045260246000fd5b346108b45760003660031901126108b457602060405160648152f35b600080fd5b60409060031901126108b4576004359060243590565b6000546001600160a01b031633036108e357565b606460405162461bcd60e51b815260206004820152602060248201527f4f776e61626c653a2063616c6c6572206973206e6f7420746865206f776e65726044820152fd5b1561092e57565b60405162461bcd60e51b815260206004820152601e60248201527f4f6e6c79204c616e644e465420636f6e74726163742063616e2063616c6c00006044820152606490fd5b6040810190811067ffffffffffffffff82111761098f57604052565b634e487b7160e01b600052604160045260246000fd5b90601f8019910116810190811067ffffffffffffffff82111761098f57604052565b60001981146108825760010190565b906001820191600060018412911290801582169115161761088257565b906004811015610a045760051b0190565b634e487b7160e01b600052603260045260246000fd5b67ffffffffffffffff811161098f5760051b60200190565b90610a3c82610a1a565b604090610a4b825191826109a5565b8381528093610a5c601f1991610a1a565b0191600090815b848110610a71575050505050565b6020908251610a7f81610973565b848152828581830152828701015201610a63565b8051821015610a045760209160051b010190565b906000916040805192608080850185811067ffffffffffffffff821117610cfd578352855b818110610cdd5750506063610ae0846109d6565b1315610cb4575b6000610af284610870565b1215610c82575b6063610b04826109d6565b1315610c45575b6000610b1682610870565b1215610c04575b505050610b2982610a32565b91600091825b828110610b8257505050610b4281610a32565b9160005b828110610b535750505090565b80610b61610b7d9284610a93565b51610b6c8287610a93565b52610b778186610a93565b506109c7565b610b46565b610bc0610b8f82846109f3565b51516020610b9d84866109f3565b510151906000526002602052604060002090600052602052604060002054151590565b15610bd4575b610bcf906109c7565b610b2f565b92610bfc610bcf91610be686856109f3565b51610bf18289610a93565b52610b778188610a93565b939050610bc6565b90610c14610c3c94959392610870565b905191610c2083610973565b82526020820152610c3182856109f3565b52610b7781846109f3565b90388080610b1d565b93610c7c90610c53866109d6565b835190610c5f82610973565b8582526020820152610c7182876109f3565b52610b7781866109f3565b93610b0b565b93610cae90610c9084610870565b835190610c9c82610973565b8152866020820152610c7182876109f3565b93610af9565b9350610cbf826109d6565b815190610ccb82610973565b81528460208201528352600193610ae7565b6020908451610ceb81610973565b88815288838201528188015201610acc565b634e487b7160e01b87526041600452602487fd5b15610d1857565b60405162461bcd60e51b8152602060048201526024808201527f416c6c206f776e61626c6520636f6f7264696e6174657320617265206173736960448201526319db995960e21b6064820152608490fd5b600091600491610d7d612710845410610d11565b835b606480821015610ebb5760409081516020908282820182610dba888a4442869290916080949284526020840152604083015260608201520190565b0392610dce601f19948581018352826109a5565b519020069260019182870190818811610ea857865142868201908152446020820152604081018b9052606081019390935290610e15908260808501039081018352826109a5565b5190200693610e3e85856000526002602052604060002090600052602052604060002054151590565b15610e56575050505050610e51906109c7565b610d7f565b9194509297828198969397985260028552818120898252855282828220556003825195610e8287610973565b888752808701948b8652835252209251835551910155610ea281546109c7565b90559190565b634e487b7160e01b8c5260118b5260248cfd5b60405162461bcd60e51b8152602081870152601f60248201527f4e6f20617661696c61626c652072616e646f6d20636f6f7264696e61746573006044820152606490fdfea26469706673582212206e536bb488ebc7fd8b68972a5fc3a07ff6dfc478623c80905a824a507fd2d1ac64736f6c63430008130033","opcodes":"PUSH1 0x80 DUP1 PUSH1 0x40 MSTORE CALLVALUE PUSH2 0x5B JUMPI PUSH1 0x0 DUP1 SLOAD CALLER PUSH1 0x1 PUSH1 0x1 PUSH1 0xA0 SHL SUB NOT DUP3 AND DUP2 OR DUP4 SSTORE SWAP2 PUSH1 0x1 PUSH1 0x1 PUSH1 0xA0 SHL SUB SWAP1 SWAP2 AND SWAP1 PUSH32 0x8BE0079C531659141344CD1FD0A4F28419497F9722A3DAAFE3B4186F6B6457E0 SWAP1 DUP1 LOG3 PUSH2 0xF35 SWAP1 DUP2 PUSH2 0x61 DUP3 CODECOPY RETURN JUMPDEST PUSH1 0x0 DUP1 REVERT INVALID PUSH1 0x80 PUSH1 0x40 DUP2 DUP2 MSTORE PUSH1 0x4 SWAP1 DUP2 CALLDATASIZE LT ISZERO PUSH2 0x16 JUMPI PUSH1 0x0 DUP1 REVERT JUMPDEST PUSH1 0x0 SWAP3 DUP4 CALLDATALOAD PUSH1 0xE0 SHR SWAP1 DUP2 PUSH4 0x650E904 EQ PUSH2 0x857 JUMPI POP DUP1 PUSH4 0xB4B8E2E EQ PUSH2 0x7FC JUMPI DUP1 PUSH4 0x1039F59D EQ PUSH2 0x818 JUMPI DUP1 PUSH4 0x1FF72B06 EQ PUSH2 0x7FC JUMPI DUP1 PUSH4 0x235E78EB EQ PUSH2 0x4B0 JUMPI DUP1 PUSH4 0x2DD8E328 EQ PUSH2 0x770 JUMPI DUP1 PUSH4 0x37C905A9 EQ PUSH2 0x6DE JUMPI DUP1 PUSH4 0x3C7C604F EQ PUSH2 0x697 JUMPI DUP1 PUSH4 0x478935D3 EQ PUSH2 0x4B5 JUMPI DUP1 PUSH4 0x4BF11AD2 EQ PUSH2 0x4B0 JUMPI DUP1 PUSH4 0x67E7907C EQ PUSH2 0x493 JUMPI DUP1 PUSH4 0x715018A6 EQ PUSH2 0x436 JUMPI DUP1 PUSH4 0x7BABCE56 EQ PUSH2 0x40A JUMPI DUP1 PUSH4 0x7FACFC10 EQ PUSH2 0x3CB JUMPI DUP1 PUSH4 0x8CF6408F EQ PUSH2 0x3A2 JUMPI DUP1 PUSH4 0x8DA5CB5B EQ PUSH2 0x37A JUMPI DUP1 PUSH4 0xAF11C6F6 EQ PUSH2 0x35C JUMPI DUP1 PUSH4 0xBFED4989 EQ PUSH2 0x236 JUMPI DUP1 PUSH4 0xE4027DA6 EQ PUSH2 0x1CC JUMPI PUSH4 0xF2FDE38B EQ PUSH2 0x100 JUMPI PUSH1 0x0 DUP1 REVERT JUMPDEST CALLVALUE PUSH2 0x1C8 JUMPI PUSH1 0x20 CALLDATASIZE PUSH1 0x3 NOT ADD SLT PUSH2 0x1C8 JUMPI PUSH1 0x1 PUSH1 0x1 PUSH1 0xA0 SHL SUB DUP3 CALLDATALOAD DUP2 DUP2 AND SWAP4 SWAP2 SWAP3 SWAP1 DUP5 SWAP1 SUB PUSH2 0x1C4 JUMPI PUSH2 0x131 PUSH2 0x8CF JUMP JUMPDEST DUP4 ISZERO PUSH2 0x172 JUMPI POP POP DUP3 SLOAD PUSH1 0x1 PUSH1 0x1 PUSH1 0xA0 SHL SUB NOT DUP2 AND DUP4 OR DUP5 SSTORE AND PUSH32 0x8BE0079C531659141344CD1FD0A4F28419497F9722A3DAAFE3B4186F6B6457E0 DUP4 DUP1 LOG3 DUP1 RETURN JUMPDEST SWAP1 PUSH1 0x20 PUSH1 0x84 SWAP3 MLOAD SWAP2 PUSH3 0x461BCD PUSH1 0xE5 SHL DUP4 MSTORE DUP3 ADD MSTORE PUSH1 0x26 PUSH1 0x24 DUP3 ADD MSTORE PUSH32 0x4F776E61626C653A206E6577206F776E657220697320746865207A65726F2061 PUSH1 0x44 DUP3 ADD MSTORE PUSH6 0x646472657373 PUSH1 0xD0 SHL PUSH1 0x64 DUP3 ADD MSTORE REVERT JUMPDEST DUP5 DUP1 REVERT JUMPDEST DUP3 DUP1 REVERT JUMPDEST DUP4 DUP3 CALLVALUE PUSH2 0x232 JUMPI PUSH2 0x1E5 PUSH2 0x1DF CALLDATASIZE PUSH2 0x8B9 JUMP JUMPDEST SWAP1 PUSH2 0xAA7 JUMP JUMPDEST DUP2 MLOAD SWAP3 DUP4 SWAP3 PUSH1 0x20 DUP1 DUP6 ADD SWAP2 DUP2 DUP7 MSTORE DUP5 MLOAD DUP1 SWAP4 MSTORE DUP2 DUP2 DUP8 ADD SWAP6 ADD SWAP4 SWAP1 JUMPDEST DUP4 DUP3 LT PUSH2 0x20E JUMPI DUP7 DUP7 SUB DUP8 RETURN JUMPDEST DUP5 MLOAD DUP1 MLOAD DUP8 MSTORE DUP4 ADD MLOAD DUP7 DUP5 ADD MSTORE DUP8 SWAP7 POP SWAP5 DUP6 ADD SWAP5 SWAP4 DUP3 ADD SWAP4 PUSH1 0x1 SWAP2 SWAP1 SWAP2 ADD SWAP1 PUSH2 0x201 JUMP JUMPDEST POP DUP1 REVERT JUMPDEST POP SWAP2 SWAP1 CALLVALUE PUSH2 0x232 JUMPI DUP3 PUSH1 0x3 NOT CALLDATASIZE ADD SLT PUSH2 0x232 JUMPI DUP1 CALLDATALOAD SWAP2 PUSH2 0x261 PUSH1 0x1 DUP1 PUSH1 0xA0 SHL SUB PUSH1 0x1 SLOAD AND CALLER EQ PUSH2 0x927 JUMP JUMPDEST PUSH2 0x26F PUSH2 0x2710 DUP4 SLOAD LT PUSH2 0xD11 JUMP JUMPDEST PUSH1 0x24 CALLDATALOAD DUP2 MSTORE PUSH1 0x20 SWAP2 PUSH1 0x3 DUP4 MSTORE PUSH2 0x2A1 DUP4 DUP7 DUP5 KECCAK256 DUP8 MLOAD PUSH2 0x28D DUP2 PUSH2 0x973 JUMP JUMPDEST PUSH1 0x1 DUP3 SLOAD SWAP3 DUP4 DUP4 MSTORE ADD SLOAD SWAP3 DUP4 SWAP2 ADD MSTORE PUSH2 0xAA7 JUMP JUMPDEST DUP1 MLOAD ISZERO PUSH2 0x30F JUMPI DUP1 MLOAD ISZERO PUSH2 0x2FC JUMPI DUP4 DUP7 SWAP2 ADD MLOAD SWAP3 DUP4 MLOAD DUP2 MSTORE PUSH1 0x2 DUP6 MSTORE DUP2 DUP2 KECCAK256 SWAP6 DUP6 DUP6 ADD SWAP7 DUP8 MLOAD DUP4 MSTORE DUP7 MSTORE DUP1 DUP4 DUP4 KECCAK256 SSTORE DUP2 MSTORE PUSH1 0x3 DUP6 MSTORE KECCAK256 DUP3 MLOAD DUP2 SSTORE PUSH1 0x1 DUP6 MLOAD SWAP2 ADD SSTORE PUSH2 0x2EC DUP2 SLOAD PUSH2 0x9C7 JUMP JUMPDEST SWAP1 SSTORE MLOAD SWAP2 MLOAD SWAP1 DUP4 MLOAD SWAP3 DUP4 MSTORE DUP3 ADD MSTORE RETURN JUMPDEST PUSH4 0x4E487B71 PUSH1 0xE0 SHL DUP4 MSTORE PUSH1 0x32 DUP3 MSTORE PUSH1 0x24 DUP4 REVERT JUMPDEST DUP6 MLOAD PUSH3 0x461BCD PUSH1 0xE5 SHL DUP2 MSTORE DUP1 DUP4 ADD DUP6 SWAP1 MSTORE PUSH1 0x21 PUSH1 0x24 DUP3 ADD MSTORE PUSH32 0x4E6F20617661696C61626C652061646A6163656E7420636F6F7264696E617465 PUSH1 0x44 DUP3 ADD MSTORE PUSH1 0x73 PUSH1 0xF8 SHL PUSH1 0x64 DUP3 ADD MSTORE PUSH1 0x84 SWAP1 REVERT JUMPDEST POP SWAP1 CALLVALUE PUSH2 0x1C8 JUMPI DUP3 PUSH1 0x3 NOT CALLDATASIZE ADD SLT PUSH2 0x1C8 JUMPI PUSH1 0x20 SWAP3 POP SLOAD SWAP1 MLOAD SWAP1 DUP2 MSTORE RETURN JUMPDEST DUP4 DUP3 CALLVALUE PUSH2 0x232 JUMPI DUP2 PUSH1 0x3 NOT CALLDATASIZE ADD SLT PUSH2 0x232 JUMPI SWAP1 SLOAD SWAP1 MLOAD PUSH1 0x1 PUSH1 0x1 PUSH1 0xA0 SHL SUB SWAP1 SWAP2 AND DUP2 MSTORE PUSH1 0x20 SWAP1 RETURN JUMPDEST DUP4 DUP3 CALLVALUE PUSH2 0x232 JUMPI DUP2 PUSH1 0x3 NOT CALLDATASIZE ADD SLT PUSH2 0x232 JUMPI PUSH1 0x1 SLOAD SWAP1 MLOAD PUSH1 0x1 PUSH1 0x1 PUSH1 0xA0 SHL SUB SWAP1 SWAP2 AND DUP2 MSTORE PUSH1 0x20 SWAP1 RETURN JUMPDEST DUP4 DUP3 CALLVALUE PUSH2 0x232 JUMPI PUSH1 0x20 SWAP1 PUSH2 0x401 PUSH2 0x3E1 CALLDATASIZE PUSH2 0x8B9 JUMP JUMPDEST SWAP1 PUSH1 0x0 MSTORE PUSH1 0x2 PUSH1 0x20 MSTORE PUSH1 0x40 PUSH1 0x0 KECCAK256 SWAP1 PUSH1 0x0 MSTORE PUSH1 0x20 MSTORE PUSH1 0x40 PUSH1 0x0 KECCAK256 SLOAD ISZERO ISZERO SWAP1 JUMP JUMPDEST SWAP1 MLOAD SWAP1 ISZERO ISZERO DUP2 MSTORE RETURN JUMPDEST DUP4 DUP3 CALLVALUE PUSH2 0x232 JUMPI DUP1 PUSH1 0x20 SWAP3 PUSH2 0x41E CALLDATASIZE PUSH2 0x8B9 JUMP JUMPDEST SWAP1 DUP3 MSTORE PUSH1 0x2 DUP6 MSTORE DUP3 DUP3 KECCAK256 SWAP1 DUP3 MSTORE DUP5 MSTORE KECCAK256 SLOAD SWAP1 MLOAD SWAP1 DUP2 MSTORE RETURN JUMPDEST DUP4 CALLVALUE PUSH2 0x490 JUMPI DUP1 PUSH1 0x3 NOT CALLDATASIZE ADD SLT PUSH2 0x490 JUMPI PUSH2 0x44F PUSH2 0x8CF JUMP JUMPDEST DUP1 SLOAD PUSH1 0x1 PUSH1 0x1 PUSH1 0xA0 SHL SUB NOT DUP2 AND DUP3 SSTORE DUP2 SWAP1 PUSH1 0x1 PUSH1 0x1 PUSH1 0xA0 SHL SUB AND PUSH32 0x8BE0079C531659141344CD1FD0A4F28419497F9722A3DAAFE3B4186F6B6457E0 DUP3 DUP1 LOG3 DUP1 RETURN JUMPDEST DUP1 REVERT JUMPDEST DUP4 DUP3 CALLVALUE PUSH2 0x232 JUMPI DUP2 PUSH1 0x3 NOT CALLDATASIZE ADD SLT PUSH2 0x232 JUMPI PUSH1 0x20 SWAP1 MLOAD PUSH2 0x2710 DUP2 MSTORE RETURN JUMPDEST PUSH2 0x898 JUMP JUMPDEST POP CALLVALUE PUSH2 0x1C8 JUMPI PUSH1 0x60 CALLDATASIZE PUSH1 0x3 NOT ADD SLT PUSH2 0x1C8 JUMPI DUP2 CALLDATALOAD PUSH1 0x24 CALLDATALOAD SWAP2 PUSH1 0x44 CALLDATALOAD SWAP2 PUSH2 0x4E6 PUSH1 0x1 DUP1 PUSH1 0xA0 SHL SUB PUSH1 0x1 SLOAD AND CALLER EQ PUSH2 0x927 JUMP JUMPDEST PUSH2 0x2710 DUP6 SLOAD LT ISZERO PUSH2 0x654 JUMPI DUP6 DUP5 SLT ISZERO DUP1 PUSH2 0x649 JUMPI JUMPDEST ISZERO PUSH2 0x606 JUMPI DUP6 DUP4 SLT ISZERO DUP1 PUSH2 0x5FB JUMPI JUMPDEST ISZERO PUSH2 0x5B8 JUMPI DUP4 DUP7 MSTORE PUSH1 0x20 SWAP1 PUSH1 0x2 DUP3 MSTORE DUP3 DUP8 KECCAK256 DUP5 DUP9 MSTORE DUP3 MSTORE DUP3 DUP8 KECCAK256 SLOAD PUSH2 0x575 JUMPI PUSH1 0x1 SWAP4 SWAP3 SWAP2 PUSH1 0x3 SWAP2 DUP7 DUP10 MSTORE PUSH1 0x2 DUP3 MSTORE DUP4 DUP10 KECCAK256 DUP6 DUP11 MSTORE DUP3 MSTORE DUP1 DUP5 DUP11 KECCAK256 SSTORE DUP4 MLOAD SWAP7 PUSH2 0x551 DUP9 PUSH2 0x973 JUMP JUMPDEST DUP8 MSTORE DUP2 DUP8 ADD SWAP5 DUP6 MSTORE DUP9 MSTORE MSTORE DUP6 KECCAK256 SWAP3 MLOAD DUP4 SSTORE MLOAD SWAP2 ADD SSTORE PUSH2 0x570 DUP2 SLOAD PUSH2 0x9C7 JUMP JUMPDEST SWAP1 SSTORE DUP1 RETURN JUMPDEST DUP3 MLOAD PUSH3 0x461BCD PUSH1 0xE5 SHL DUP2 MSTORE DUP1 DUP8 ADD DUP4 SWAP1 MSTORE PUSH1 0x1B PUSH1 0x24 DUP3 ADD MSTORE PUSH32 0x436F6F7264696E61746520616C7265616479206F636375706965640000000000 PUSH1 0x44 DUP3 ADD MSTORE PUSH1 0x64 SWAP1 REVERT JUMPDEST DUP2 MLOAD PUSH3 0x461BCD PUSH1 0xE5 SHL DUP2 MSTORE PUSH1 0x20 DUP2 DUP8 ADD MSTORE PUSH1 0x19 PUSH1 0x24 DUP3 ADD MSTORE PUSH32 0x7920636F6F7264696E617465206F7574206F662072616E676500000000000000 PUSH1 0x44 DUP3 ADD MSTORE PUSH1 0x64 SWAP1 REVERT JUMPDEST POP PUSH1 0x63 DUP4 SGT ISZERO PUSH2 0x50A JUMP JUMPDEST DUP2 MLOAD PUSH3 0x461BCD PUSH1 0xE5 SHL DUP2 MSTORE PUSH1 0x20 DUP2 DUP8 ADD MSTORE PUSH1 0x19 PUSH1 0x24 DUP3 ADD MSTORE PUSH32 0x7820636F6F7264696E617465206F7574206F662072616E676500000000000000 PUSH1 0x44 DUP3 ADD MSTORE PUSH1 0x64 SWAP1 REVERT JUMPDEST POP PUSH1 0x63 DUP5 SGT ISZERO PUSH2 0x4FB JUMP JUMPDEST DUP2 MLOAD PUSH3 0x461BCD PUSH1 0xE5 SHL DUP2 MSTORE PUSH1 0x20 DUP2 DUP8 ADD MSTORE PUSH1 0x1C PUSH1 0x24 DUP3 ADD MSTORE PUSH32 0x416C6C20636F6F7264696E61746573206172652061737369676E656400000000 PUSH1 0x44 DUP3 ADD MSTORE PUSH1 0x64 SWAP1 REVERT JUMPDEST POP SWAP1 CALLVALUE PUSH2 0x1C8 JUMPI PUSH1 0x20 CALLDATASIZE PUSH1 0x3 NOT ADD SLT PUSH2 0x1C8 JUMPI SWAP2 DUP2 SWAP3 CALLDATALOAD DUP2 MSTORE PUSH1 0x3 PUSH1 0x20 MSTORE KECCAK256 PUSH1 0x20 DUP3 MLOAD PUSH2 0x6C3 DUP2 PUSH2 0x973 JUMP JUMPDEST PUSH1 0x1 DUP4 SLOAD SWAP4 DUP5 DUP4 MSTORE ADD SLOAD SWAP2 DUP3 SWAP2 ADD MSTORE DUP3 MLOAD SWAP2 DUP3 MSTORE PUSH1 0x20 DUP3 ADD MSTORE RETURN JUMPDEST POP CALLVALUE PUSH2 0x1C8 JUMPI PUSH1 0x20 CALLDATASIZE PUSH1 0x3 NOT ADD SLT PUSH2 0x1C8 JUMPI PUSH1 0x1 PUSH1 0x1 PUSH1 0xA0 SHL SUB DUP3 CALLDATALOAD DUP2 DUP2 AND SWAP4 SWAP2 SWAP3 SWAP1 DUP5 SWAP1 SUB PUSH2 0x1C4 JUMPI PUSH2 0x710 PUSH2 0x8CF JUMP JUMPDEST PUSH1 0x1 SLOAD SWAP3 DUP4 AND PUSH2 0x72D JUMPI POP POP PUSH1 0x1 PUSH1 0x1 PUSH1 0xA0 SHL SUB NOT AND OR PUSH1 0x1 SSTORE DUP1 RETURN JUMPDEST SWAP1 PUSH1 0x20 PUSH1 0x64 SWAP3 MLOAD SWAP2 PUSH3 0x461BCD PUSH1 0xE5 SHL DUP4 MSTORE DUP3 ADD MSTORE PUSH1 0x1B PUSH1 0x24 DUP3 ADD MSTORE PUSH32 0x4C616E644E4654206164647265737320616C7265616479207365740000000000 PUSH1 0x44 DUP3 ADD MSTORE REVERT JUMPDEST POP SWAP1 CALLVALUE PUSH2 0x1C8 JUMPI PUSH1 0x20 CALLDATASIZE PUSH1 0x3 NOT ADD SLT PUSH2 0x1C8 JUMPI DUP1 CALLDATALOAD PUSH1 0x1 PUSH1 0x1 PUSH1 0xA0 SHL SUB DUP2 AND SWAP3 SWAP1 DUP4 SWAP1 SUB PUSH2 0x7F8 JUMPI PUSH2 0x7A0 PUSH2 0x8CF JUMP JUMPDEST DUP3 ISZERO PUSH2 0x7C3 JUMPI POP POP PUSH12 0xFFFFFFFFFFFFFFFFFFFFFFFF PUSH1 0xA0 SHL PUSH1 0x1 SLOAD AND OR PUSH1 0x1 SSTORE DUP1 RETURN JUMPDEST SWAP1 PUSH1 0x20 PUSH1 0x64 SWAP3 MLOAD SWAP2 PUSH3 0x461BCD PUSH1 0xE5 SHL DUP4 MSTORE DUP3 ADD MSTORE PUSH1 0xF PUSH1 0x24 DUP3 ADD MSTORE PUSH15 0x496E76616C69642061646472657373 PUSH1 0x88 SHL PUSH1 0x44 DUP3 ADD MSTORE REVERT JUMPDEST DUP4 DUP1 REVERT JUMPDEST DUP4 DUP3 CALLVALUE PUSH2 0x232 JUMPI DUP2 PUSH1 0x3 NOT CALLDATASIZE ADD SLT PUSH2 0x232 JUMPI PUSH1 0x20 SWAP1 MLOAD PUSH1 0x63 DUP2 MSTORE RETURN JUMPDEST POP SWAP2 CALLVALUE PUSH2 0x490 JUMPI PUSH1 0x20 CALLDATASIZE PUSH1 0x3 NOT ADD SLT PUSH2 0x490 JUMPI POP PUSH2 0x84B SWAP1 PUSH2 0x845 PUSH1 0x1 DUP1 PUSH1 0xA0 SHL SUB PUSH1 0x1 SLOAD AND CALLER EQ PUSH2 0x927 JUMP JUMPDEST CALLDATALOAD PUSH2 0xD69 JUMP JUMPDEST DUP3 MLOAD SWAP2 DUP3 MSTORE PUSH1 0x20 DUP3 ADD MSTORE RETURN JUMPDEST DUP5 SWAP1 CALLVALUE PUSH2 0x232 JUMPI DUP2 PUSH1 0x3 NOT CALLDATASIZE ADD SLT PUSH2 0x232 JUMPI PUSH1 0x20 SWAP2 DUP2 MSTORE RETURN JUMPDEST SWAP1 PUSH1 0x0 NOT DUP3 ADD SWAP2 DUP3 SGT PUSH1 0x1 AND PUSH2 0x882 JUMPI JUMP JUMPDEST PUSH4 0x4E487B71 PUSH1 0xE0 SHL PUSH1 0x0 MSTORE PUSH1 0x11 PUSH1 0x4 MSTORE PUSH1 0x24 PUSH1 0x0 REVERT JUMPDEST CALLVALUE PUSH2 0x8B4 JUMPI PUSH1 0x0 CALLDATASIZE PUSH1 0x3 NOT ADD SLT PUSH2 0x8B4 JUMPI PUSH1 0x20 PUSH1 0x40 MLOAD PUSH1 0x64 DUP2 MSTORE RETURN JUMPDEST PUSH1 0x0 DUP1 REVERT JUMPDEST PUSH1 0x40 SWAP1 PUSH1 0x3 NOT ADD SLT PUSH2 0x8B4 JUMPI PUSH1 0x4 CALLDATALOAD SWAP1 PUSH1 0x24 CALLDATALOAD SWAP1 JUMP JUMPDEST PUSH1 0x0 SLOAD PUSH1 0x1 PUSH1 0x1 PUSH1 0xA0 SHL SUB AND CALLER SUB PUSH2 0x8E3 JUMPI JUMP JUMPDEST PUSH1 0x64 PUSH1 0x40 MLOAD PUSH3 0x461BCD PUSH1 0xE5 SHL DUP2 MSTORE PUSH1 0x20 PUSH1 0x4 DUP3 ADD MSTORE PUSH1 0x20 PUSH1 0x24 DUP3 ADD MSTORE PUSH32 0x4F776E61626C653A2063616C6C6572206973206E6F7420746865206F776E6572 PUSH1 0x44 DUP3 ADD MSTORE REVERT JUMPDEST ISZERO PUSH2 0x92E JUMPI JUMP JUMPDEST PUSH1 0x40 MLOAD PUSH3 0x461BCD PUSH1 0xE5 SHL DUP2 MSTORE PUSH1 0x20 PUSH1 0x4 DUP3 ADD MSTORE PUSH1 0x1E PUSH1 0x24 DUP3 ADD MSTORE PUSH32 0x4F6E6C79204C616E644E465420636F6E74726163742063616E2063616C6C0000 PUSH1 0x44 DUP3 ADD MSTORE PUSH1 0x64 SWAP1 REVERT JUMPDEST PUSH1 0x40 DUP2 ADD SWAP1 DUP2 LT PUSH8 0xFFFFFFFFFFFFFFFF DUP3 GT OR PUSH2 0x98F JUMPI PUSH1 0x40 MSTORE JUMP JUMPDEST PUSH4 0x4E487B71 PUSH1 0xE0 SHL PUSH1 0x0 MSTORE PUSH1 0x41 PUSH1 0x4 MSTORE PUSH1 0x24 PUSH1 0x0 REVERT JUMPDEST SWAP1 PUSH1 0x1F DUP1 NOT SWAP2 ADD AND DUP2 ADD SWAP1 DUP2 LT PUSH8 0xFFFFFFFFFFFFFFFF DUP3 GT OR PUSH2 0x98F JUMPI PUSH1 0x40 MSTORE JUMP JUMPDEST PUSH1 0x0 NOT DUP2 EQ PUSH2 0x882 JUMPI PUSH1 0x1 ADD SWAP1 JUMP JUMPDEST SWAP1 PUSH1 0x1 DUP3 ADD SWAP2 PUSH1 0x0 PUSH1 0x1 DUP5 SLT SWAP2 SLT SWAP1 DUP1 ISZERO DUP3 AND SWAP2 ISZERO AND OR PUSH2 0x882 JUMPI JUMP JUMPDEST SWAP1 PUSH1 0x4 DUP2 LT ISZERO PUSH2 0xA04 JUMPI PUSH1 0x5 SHL ADD SWAP1 JUMP JUMPDEST PUSH4 0x4E487B71 PUSH1 0xE0 SHL PUSH1 0x0 MSTORE PUSH1 0x32 PUSH1 0x4 MSTORE PUSH1 0x24 PUSH1 0x0 REVERT JUMPDEST PUSH8 0xFFFFFFFFFFFFFFFF DUP2 GT PUSH2 0x98F JUMPI PUSH1 0x5 SHL PUSH1 0x20 ADD SWAP1 JUMP JUMPDEST SWAP1 PUSH2 0xA3C DUP3 PUSH2 0xA1A JUMP JUMPDEST PUSH1 0x40 SWAP1 PUSH2 0xA4B DUP3 MLOAD SWAP2 DUP3 PUSH2 0x9A5 JUMP JUMPDEST DUP4 DUP2 MSTORE DUP1 SWAP4 PUSH2 0xA5C PUSH1 0x1F NOT SWAP2 PUSH2 0xA1A JUMP JUMPDEST ADD SWAP2 PUSH1 0x0 SWAP1 DUP2 JUMPDEST DUP5 DUP2 LT PUSH2 0xA71 JUMPI POP POP POP POP POP JUMP JUMPDEST PUSH1 0x20 SWAP1 DUP3 MLOAD PUSH2 0xA7F DUP2 PUSH2 0x973 JUMP JUMPDEST DUP5 DUP2 MSTORE DUP3 DUP6 DUP2 DUP4 ADD MSTORE DUP3 DUP8 ADD ADD MSTORE ADD PUSH2 0xA63 JUMP JUMPDEST DUP1 MLOAD DUP3 LT ISZERO PUSH2 0xA04 JUMPI PUSH1 0x20 SWAP2 PUSH1 0x5 SHL ADD ADD SWAP1 JUMP JUMPDEST SWAP1 PUSH1 0x0 SWAP2 PUSH1 0x40 DUP1 MLOAD SWAP3 PUSH1 0x80 DUP1 DUP6 ADD DUP6 DUP2 LT PUSH8 0xFFFFFFFFFFFFFFFF DUP3 GT OR PUSH2 0xCFD JUMPI DUP4 MSTORE DUP6 JUMPDEST DUP2 DUP2 LT PUSH2 0xCDD JUMPI POP POP PUSH1 0x63 PUSH2 0xAE0 DUP5 PUSH2 0x9D6 JUMP JUMPDEST SGT ISZERO PUSH2 0xCB4 JUMPI JUMPDEST PUSH1 0x0 PUSH2 0xAF2 DUP5 PUSH2 0x870 JUMP JUMPDEST SLT ISZERO PUSH2 0xC82 JUMPI JUMPDEST PUSH1 0x63 PUSH2 0xB04 DUP3 PUSH2 0x9D6 JUMP JUMPDEST SGT ISZERO PUSH2 0xC45 JUMPI JUMPDEST PUSH1 0x0 PUSH2 0xB16 DUP3 PUSH2 0x870 JUMP JUMPDEST SLT ISZERO PUSH2 0xC04 JUMPI JUMPDEST POP POP POP PUSH2 0xB29 DUP3 PUSH2 0xA32 JUMP JUMPDEST SWAP2 PUSH1 0x0 SWAP2 DUP3 JUMPDEST DUP3 DUP2 LT PUSH2 0xB82 JUMPI POP POP POP PUSH2 0xB42 DUP2 PUSH2 0xA32 JUMP JUMPDEST SWAP2 PUSH1 0x0 JUMPDEST DUP3 DUP2 LT PUSH2 0xB53 JUMPI POP POP POP SWAP1 JUMP JUMPDEST DUP1 PUSH2 0xB61 PUSH2 0xB7D SWAP3 DUP5 PUSH2 0xA93 JUMP JUMPDEST MLOAD PUSH2 0xB6C DUP3 DUP8 PUSH2 0xA93 JUMP JUMPDEST MSTORE PUSH2 0xB77 DUP2 DUP7 PUSH2 0xA93 JUMP JUMPDEST POP PUSH2 0x9C7 JUMP JUMPDEST PUSH2 0xB46 JUMP JUMPDEST PUSH2 0xBC0 PUSH2 0xB8F DUP3 DUP5 PUSH2 0x9F3 JUMP JUMPDEST MLOAD MLOAD PUSH1 0x20 PUSH2 0xB9D DUP5 DUP7 PUSH2 0x9F3 JUMP JUMPDEST MLOAD ADD MLOAD SWAP1 PUSH1 0x0 MSTORE PUSH1 0x2 PUSH1 0x20 MSTORE PUSH1 0x40 PUSH1 0x0 KECCAK256 SWAP1 PUSH1 0x0 MSTORE PUSH1 0x20 MSTORE PUSH1 0x40 PUSH1 0x0 KECCAK256 SLOAD ISZERO ISZERO SWAP1 JUMP JUMPDEST ISZERO PUSH2 0xBD4 JUMPI JUMPDEST PUSH2 0xBCF SWAP1 PUSH2 0x9C7 JUMP JUMPDEST PUSH2 0xB2F JUMP JUMPDEST SWAP3 PUSH2 0xBFC PUSH2 0xBCF SWAP2 PUSH2 0xBE6 DUP7 DUP6 PUSH2 0x9F3 JUMP JUMPDEST MLOAD PUSH2 0xBF1 DUP3 DUP10 PUSH2 0xA93 JUMP JUMPDEST MSTORE PUSH2 0xB77 DUP2 DUP9 PUSH2 0xA93 JUMP JUMPDEST SWAP4 SWAP1 POP PUSH2 0xBC6 JUMP JUMPDEST SWAP1 PUSH2 0xC14 PUSH2 0xC3C SWAP5 SWAP6 SWAP4 SWAP3 PUSH2 0x870 JUMP JUMPDEST SWAP1 MLOAD SWAP2 PUSH2 0xC20 DUP4 PUSH2 0x973 JUMP JUMPDEST DUP3 MSTORE PUSH1 0x20 DUP3 ADD MSTORE PUSH2 0xC31 DUP3 DUP6 PUSH2 0x9F3 JUMP JUMPDEST MSTORE PUSH2 0xB77 DUP2 DUP5 PUSH2 0x9F3 JUMP JUMPDEST SWAP1 CODESIZE DUP1 DUP1 PUSH2 0xB1D JUMP JUMPDEST SWAP4 PUSH2 0xC7C SWAP1 PUSH2 0xC53 DUP7 PUSH2 0x9D6 JUMP JUMPDEST DUP4 MLOAD SWAP1 PUSH2 0xC5F DUP3 PUSH2 0x973 JUMP JUMPDEST DUP6 DUP3 MSTORE PUSH1 0x20 DUP3 ADD MSTORE PUSH2 0xC71 DUP3 DUP8 PUSH2 0x9F3 JUMP JUMPDEST MSTORE PUSH2 0xB77 DUP2 DUP7 PUSH2 0x9F3 JUMP JUMPDEST SWAP4 PUSH2 0xB0B JUMP JUMPDEST SWAP4 PUSH2 0xCAE SWAP1 PUSH2 0xC90 DUP5 PUSH2 0x870 JUMP JUMPDEST DUP4 MLOAD SWAP1 PUSH2 0xC9C DUP3 PUSH2 0x973 JUMP JUMPDEST DUP2 MSTORE DUP7 PUSH1 0x20 DUP3 ADD MSTORE PUSH2 0xC71 DUP3 DUP8 PUSH2 0x9F3 JUMP JUMPDEST SWAP4 PUSH2 0xAF9 JUMP JUMPDEST SWAP4 POP PUSH2 0xCBF DUP3 PUSH2 0x9D6 JUMP JUMPDEST DUP2 MLOAD SWAP1 PUSH2 0xCCB DUP3 PUSH2 0x973 JUMP JUMPDEST DUP2 MSTORE DUP5 PUSH1 0x20 DUP3 ADD MSTORE DUP4 MSTORE PUSH1 0x1 SWAP4 PUSH2 0xAE7 JUMP JUMPDEST PUSH1 0x20 SWAP1 DUP5 MLOAD PUSH2 0xCEB DUP2 PUSH2 0x973 JUMP JUMPDEST DUP9 DUP2 MSTORE DUP9 DUP4 DUP3 ADD MSTORE DUP2 DUP9 ADD MSTORE ADD PUSH2 0xACC JUMP JUMPDEST PUSH4 0x4E487B71 PUSH1 0xE0 SHL DUP8 MSTORE PUSH1 0x41 PUSH1 0x4 MSTORE PUSH1 0x24 DUP8 REVERT JUMPDEST ISZERO PUSH2 0xD18 JUMPI JUMP JUMPDEST PUSH1 0x40 MLOAD PUSH3 0x461BCD PUSH1 0xE5 SHL DUP2 MSTORE PUSH1 0x20 PUSH1 0x4 DUP3 ADD MSTORE PUSH1 0x24 DUP1 DUP3 ADD MSTORE PUSH32 0x416C6C206F776E61626C6520636F6F7264696E61746573206172652061737369 PUSH1 0x44 DUP3 ADD MSTORE PUSH4 0x19DB9959 PUSH1 0xE2 SHL PUSH1 0x64 DUP3 ADD MSTORE PUSH1 0x84 SWAP1 REVERT JUMPDEST PUSH1 0x0 SWAP2 PUSH1 0x4 SWAP2 PUSH2 0xD7D PUSH2 0x2710 DUP5 SLOAD LT PUSH2 0xD11 JUMP JUMPDEST DUP4 JUMPDEST PUSH1 0x64 DUP1 DUP3 LT ISZERO PUSH2 0xEBB JUMPI PUSH1 0x40 SWAP1 DUP2 MLOAD PUSH1 0x20 SWAP1 DUP3 DUP3 DUP3 ADD DUP3 PUSH2 0xDBA DUP9 DUP11 PREVRANDAO TIMESTAMP DUP7 SWAP3 SWAP1 SWAP2 PUSH1 0x80 SWAP5 SWAP3 DUP5 MSTORE PUSH1 0x20 DUP5 ADD MSTORE PUSH1 0x40 DUP4 ADD MSTORE PUSH1 0x60 DUP3 ADD MSTORE ADD SWAP1 JUMP JUMPDEST SUB SWAP3 PUSH2 0xDCE PUSH1 0x1F NOT SWAP5 DUP6 DUP2 ADD DUP4 MSTORE DUP3 PUSH2 0x9A5 JUMP JUMPDEST MLOAD SWAP1 KECCAK256 MOD SWAP3 PUSH1 0x1 SWAP2 DUP3 DUP8 ADD SWAP1 DUP2 DUP9 GT PUSH2 0xEA8 JUMPI DUP7 MLOAD TIMESTAMP DUP7 DUP3 ADD SWAP1 DUP2 MSTORE PREVRANDAO PUSH1 0x20 DUP3 ADD MSTORE PUSH1 0x40 DUP2 ADD DUP12 SWAP1 MSTORE PUSH1 0x60 DUP2 ADD SWAP4 SWAP1 SWAP4 MSTORE SWAP1 PUSH2 0xE15 SWAP1 DUP3 PUSH1 0x80 DUP6 ADD SUB SWAP1 DUP2 ADD DUP4 MSTORE DUP3 PUSH2 0x9A5 JUMP JUMPDEST MLOAD SWAP1 KECCAK256 MOD SWAP4 PUSH2 0xE3E DUP6 DUP6 PUSH1 0x0 MSTORE PUSH1 0x2 PUSH1 0x20 MSTORE PUSH1 0x40 PUSH1 0x0 KECCAK256 SWAP1 PUSH1 0x0 MSTORE PUSH1 0x20 MSTORE PUSH1 0x40 PUSH1 0x0 KECCAK256 SLOAD ISZERO ISZERO SWAP1 JUMP JUMPDEST ISZERO PUSH2 0xE56 JUMPI POP POP POP POP POP PUSH2 0xE51 SWAP1 PUSH2 0x9C7 JUMP JUMPDEST PUSH2 0xD7F JUMP JUMPDEST SWAP2 SWAP5 POP SWAP3 SWAP8 DUP3 DUP2 SWAP9 SWAP7 SWAP4 SWAP8 SWAP9 MSTORE PUSH1 0x2 DUP6 MSTORE DUP2 DUP2 KECCAK256 DUP10 DUP3 MSTORE DUP6 MSTORE DUP3 DUP3 DUP3 KECCAK256 SSTORE PUSH1 0x3 DUP3 MLOAD SWAP6 PUSH2 0xE82 DUP8 PUSH2 0x973 JUMP JUMPDEST DUP9 DUP8 MSTORE DUP1 DUP8 ADD SWAP5 DUP12 DUP7 MSTORE DUP4 MSTORE MSTORE KECCAK256 SWAP3 MLOAD DUP4 SSTORE MLOAD SWAP2 ADD SSTORE PUSH2 0xEA2 DUP2 SLOAD PUSH2 0x9C7 JUMP JUMPDEST SWAP1 SSTORE SWAP2 SWAP1 JUMP JUMPDEST PUSH4 0x4E487B71 PUSH1 0xE0 SHL DUP13 MSTORE PUSH1 0x11 DUP12 MSTORE PUSH1 0x24 DUP13 REVERT JUMPDEST PUSH1 0x40 MLOAD PUSH3 0x461BCD PUSH1 0xE5 SHL DUP2 MSTORE PUSH1 0x20 DUP2 DUP8 ADD MSTORE PUSH1 0x1F PUSH1 0x24 DUP3 ADD MSTORE PUSH32 0x4E6F20617661696C61626C652072616E646F6D20636F6F7264696E6174657300 PUSH1 0x44 DUP3 ADD MSTORE PUSH1 0x64 SWAP1 REVERT INVALID LOG2 PUSH5 0x6970667358 0x22 SLT KECCAK256 PUSH15 0x536BB488EBC7FD8B68972A5FC3A07F 0xF6 0xDF 0xC4 PUSH25 0x623C80905A824A507FD2D1AC64736F6C634300081300330000 "},"methodIdentifiers":{"GRID_HEIGHT()":"4bf11ad2","GRID_WIDTH()":"235e78eb","MAX_COORDINATE_X()":"0b4b8e2e","MAX_COORDINATE_Y()":"1ff72b06","MAX_OWNABLE_COORDINATES()":"67e7907c","MIN_COORDINATE()":"0650e904","assignAdjacentCoordinate(uint256,uint256)":"bfed4989","assignCoordinate(uint256,int256,int256)":"478935d3","assignRandomCoordinate(uint256)":"1039f59d","getAvailableAdjacentCoordinates(int256,int256)":"e4027da6","getCoordinateTokenId(int256,int256)":"7babce56","getTokenCoordinates(uint256)":"3c7c604f","isCoordinateOccupied(int256,int256)":"7facfc10","landNFTAddress()":"8cf6408f","owner()":"8da5cb5b","renounceOwnership()":"715018a6","setLandNFTAddress(address)":"37c905a9","totalAssignedCoordinates()":"af11c6f6","transferOwnership(address)":"f2fde38b","updateLandNFTAddress(address)":"2dd8e328"}}}}}