{"contracts/marketcontract.sol":{"MarketContract":{"abi":[{"inputs":[{"internalType":"address","name":"_erc20Token","type":"address"},{"internalType":"address","name":"_landNFT","type":"address"}],"stateMutability":"nonpayable","type":"constructor"},{"anonymous":false,"inputs":[{"indexed":true,"internalType":"address","name":"owner","type":"address"},{"indexed":false,"internalType":"uint256","name":"amount","type":"uint256"}],"name":"ERC20Withdrawn","type":"event"},{"anonymous":false,"inputs":[{"indexed":true,"internalType":"address","name":"previousOwner","type":"address"},{"indexed":true,"internalType":"address","name":"newOwner","type":"address"}],"name":"OwnershipTransferred","type":"event"},{"anonymous":false,"inputs":[{"components":[{"internalType":"uint256","name":"foodPrice","type":"uint256"},{"internalType":"uint256","name":"woodPrice","type":"uint256"},{"internalType":"uint256","name":"stonePrice","type":"uint256"},{"internalType":"uint256","name":"brassPrice","type":"uint256"},{"internalType":"uint256","name":"ironPrice","type":"uint256"},{"internalType":"uint256","name":"goldPrice","type":"uint256"}],"indexed":false,"internalType":"struct MarketContract.ResourcePrice","name":"newPrices","type":"tuple"}],"name":"ResourcePricesUpdated","type":"event"},{"anonymous":false,"inputs":[{"indexed":true,"internalType":"address","name":"buyer","type":"address"},{"indexed":true,"internalType":"uint256","name":"tokenId","type":"uint256"},{"components":[{"internalType":"uint256","name":"food","type":"uint256"},{"internalType":"uint256","name":"wood","type":"uint256"},{"internalType":"uint256","name":"stone","type":"uint256"},{"internalType":"uint256","name":"brass","type":"uint256"},{"internalType":"uint256","name":"iron","type":"uint256"},{"internalType":"uint256","name":"gold","type":"uint256"}],"indexed":false,"internalType":"struct DataTypes.Resources","name":"resources","type":"tuple"},{"indexed":false,"internalType":"uint256","name":"totalCost","type":"uint256"}],"name":"ResourcesPurchased","type":"event"},{"inputs":[{"internalType":"uint256","name":"tokenId","type":"uint256"},{"components":[{"internalType":"uint256","name":"food","type":"uint256"},{"internalType":"uint256","name":"wood","type":"uint256"},{"internalType":"uint256","name":"stone","type":"uint256"},{"internalType":"uint256","name":"brass","type":"uint256"},{"internalType":"uint256","name":"iron","type":"uint256"},{"internalType":"uint256","name":"gold","type":"uint256"}],"internalType":"struct DataTypes.Resources","name":"desiredResources","type":"tuple"}],"name":"buyResources","outputs":[],"stateMutability":"nonpayable","type":"function"},{"inputs":[],"name":"erc20Token","outputs":[{"internalType":"contract IERC20","name":"","type":"address"}],"stateMutability":"view","type":"function"},{"inputs":[],"name":"getResourcePrices","outputs":[{"components":[{"internalType":"uint256","name":"foodPrice","type":"uint256"},{"internalType":"uint256","name":"woodPrice","type":"uint256"},{"internalType":"uint256","name":"stonePrice","type":"uint256"},{"internalType":"uint256","name":"brassPrice","type":"uint256"},{"internalType":"uint256","name":"ironPrice","type":"uint256"},{"internalType":"uint256","name":"goldPrice","type":"uint256"}],"internalType":"struct MarketContract.ResourcePrice","name":"","type":"tuple"}],"stateMutability":"view","type":"function"},{"inputs":[],"name":"landNFT","outputs":[{"internalType":"contract ILandNFT","name":"","type":"address"}],"stateMutability":"view","type":"function"},{"inputs":[],"name":"owner","outputs":[{"internalType":"address","name":"","type":"address"}],"stateMutability":"view","type":"function"},{"inputs":[],"name":"renounceOwnership","outputs":[],"stateMutability":"nonpayable","type":"function"},{"inputs":[],"name":"resourcePrice","outputs":[{"internalType":"uint256","name":"foodPrice","type":"uint256"},{"internalType":"uint256","name":"woodPrice","type":"uint256"},{"internalType":"uint256","name":"stonePrice","type":"uint256"},{"internalType":"uint256","name":"brassPrice","type":"uint256"},{"internalType":"uint256","name":"ironPrice","type":"uint256"},{"internalType":"uint256","name":"goldPrice","type":"uint256"}],"stateMutability":"view","type":"function"},{"inputs":[{"internalType":"uint256","name":"_foodPrice","type":"uint256"},{"internalType":"uint256","name":"_woodPrice","type":"uint256"},{"internalType":"uint256","name":"_stonePrice","type":"uint256"},{"internalType":"uint256","name":"_brassPrice","type":"uint256"},{"internalType":"uint256","name":"_ironPrice","type":"uint256"},{"internalType":"uint256","name":"_goldPrice","type":"uint256"}],"name":"setResourcePrices","outputs":[],"stateMutability":"nonpayable","type":"function"},{"inputs":[{"internalType":"address","name":"newOwner","type":"address"}],"name":"transferOwnership","outputs":[],"stateMutability":"nonpayable","type":"function"},{"inputs":[],"name":"withdrawAllERC20","outputs":[],"stateMutability":"nonpayable","type":"function"},{"inputs":[{"internalType":"uint256","name":"amount","type":"uint256"}],"name":"withdrawERC20","outputs":[],"stateMutability":"nonpayable","type":"function"}],"evm":{"bytecode":{"linkReferences":{},"object":"60c03461017f57601f610fb938819003918201601f19168301916001600160401b0383118484101761018457808492604094855283398101031261017f57610052602061004b8361019a565b920161019a565b60008054336001600160a01b0319821681178355604051946001600160a01b03949385939192918416907f8be0079c531659141344cd1fd0a4f28419497f9722a3daafe3b4186f6b6457e09080a3600180551692831561013d5750169081156100f85760805260a052604051610e0a90816101af82396080518181816101f4015281816104e8015281816105f801526107e2015260a0518181816108080152610a160152f35b60405162461bcd60e51b815260206004820152601760248201527f496e76616c6964204c616e644e465420616464726573730000000000000000006044820152606490fd5b62461bcd60e51b815260206004820152601b60248201527f496e76616c696420455243323020746f6b656e206164647265737300000000006044820152606490fd5b600080fd5b634e487b7160e01b600052604160045260246000fd5b51906001600160a01b038216820361017f5756fe608060408181526004908136101561001657600080fd5b600092833560e01c90816339d022e114610a02575080636e4740e814610684578063715018a6146106275780638a13eea7146105e35780638a689e81146104ba5780638da5cb5b146104925780638fd4a1ed146103dc578063b833724a1461035b578063d78276c6146101bc578063e4ccfc15146101735763f2fde38b1461009d57600080fd5b3461016f57602036600319011261016f576001600160a01b0382358181169391929084900361016b576100ce610ad0565b8315610119575050600054826bffffffffffffffffffffffff60a01b821617600055167f8be0079c531659141344cd1fd0a4f28419497f9722a3daafe3b4186f6b6457e0600080a380f35b906020608492519162461bcd60e51b8352820152602660248201527f4f776e61626c653a206e6577206f776e657220697320746865207a65726f206160448201526564647265737360d01b6064820152fd5b8480fd5b8280fd5b50903461016f578260031936011261016f5760c09250600254916003549154600554906006549260075494815196875260208701528501526060840152608083015260a0820152f35b508290346103575760208060031936011261016f5783356101db610ad0565b80156103005782516370a0823160e01b815230818701527f0000000000000000000000000000000000000000000000000000000000000000956001600160a01b03918481602481868c165afa9081156102f65790849188916102c0575b501061027d5750610271828697837f7e2c99819371db0a6fc6f4269fe872496e44f502df19ba3eae594b7a159874609798541690610d82565b8554169351908152a280f35b845162461bcd60e51b8152908101849052601a60248201527f496e73756666696369656e742045524332302062616c616e63650000000000006044820152606490fd5b809250868092503d83116102ef575b6102d98183610a77565b810103126102ea5783905189610238565b600080fd5b503d6102cf565b86513d89823e3d90fd5b825162461bcd60e51b8152808601839052602b60248201527f5769746864726177616c20616d6f756e74206d7573742062652067726561746560448201526a72207468616e207a65726f60a81b6064820152608490fd5b5080fd5b503461016f578260031936011261016f578060c09360a06103da935161038081610a45565b828152826020820152828482015282606082015282608082015201528051926103a884610a45565b6002548452600354602085015254818401526005546060840152600654608084015260075460a0840152518092610a99565bf35b50903461016f5760c036600319011261016f577f2368a2aa714d438b66f5f8e70016019544a508f55fd2da080f859726f4990e1a918160c09235916024359060443560643591608435938260a43596610433610ad0565b8760a0855161044181610a45565b8b815285602082015284878201528860608201528960808201520152886002558260035555836005558460065585600755815196875260208701528501526060840152608083015260a0820152a180f35b838234610357578160031936011261035757905490516001600160a01b039091168152602090f35b508290346103575781600319360112610357576104d5610ad0565b80516370a0823160e01b815230818501527f000000000000000000000000000000000000000000000000000000000000000093602091906001600160a01b03908383602481858b165afa9283156105d95786936105aa575b5082156105675750610271828697837f7e2c99819371db0a6fc6f4269fe872496e44f502df19ba3eae594b7a159874609798541690610d82565b845162461bcd60e51b8152908101849052601b60248201527f4e6f20455243323020746f6b656e7320746f20776974686472617700000000006044820152606490fd5b9092508381813d83116105d2575b6105c28183610a77565b810103126102ea5751918761052d565b503d6105b8565b85513d88823e3d90fd5b838234610357578160031936011261035757517f00000000000000000000000000000000000000000000000000000000000000006001600160a01b03168152602090f35b8334610681578060031936011261068157610640610ad0565b600080546001600160a01b0319811682556001600160a01b03167f8be0079c531659141344cd1fd0a4f28419497f9722a3daafe3b4186f6b6457e08280a380f35b80fd5b503461016f5760e036600319011261016f5781359160c03660231901126109fe578151916106b183610a45565b602480358452602084019260443584528285019360649485358152606087016084358152608088019160a435835260a089019360c43585526002600154146109bd5760026001558951158015906109b3575b80156109a9575b801561099f575b8015610995575b801561098b575b1561093e579261076161077c61076194610761610771610787968f6107676107929c9b610761610756610761945160025490610b28565b915160035490610b28565b90610b51565b91518d5490610b28565b915160055490610b28565b915160065490610b28565b915160075490610b28565b9384156108f25783516323b872dd60e01b6020820152338482015230604482015281810186905290815267ffffffffffffffff9060a08101828111828210176108e05789949392916108069187527f0000000000000000000000000000000000000000000000000000000000000000610b5e565b7f00000000000000000000000000000000000000000000000000000000000000006001600160a01b0316803b1561016b57849060e4875180978193639b00600160e01b83528d8884015261085d8d8a850190610a99565b5af180156108d6576108ac575b5050505061087a90518093610a99565b60c08201527f7f58fa204d383445bc73a33d85fd0ca5df7170fe608d00c83bb91326e0e2372f60e03392a36001805580f35b83989498116108c557505085529361087a38808061086a565b634e487b7160e01b84526041905282fd5b85513d8b823e3d90fd5b634e487b7160e01b8a5260418452848afd5b637a65726f60e01b91926020608495519462461bcd60e51b8652850152808401527f546f74616c20636f7374206d7573742062652067726561746572207468616e206044840152820152fd5b875162461bcd60e51b81526020818801526023818901527f4e6f207265736f75726365732073706563696669656420666f7220707572636860448201526261736560e81b818b0152608490fd5b508451151561071f565b5083511515610718565b5082511515610711565b508151151561070a565b5080511515610703565b875162461bcd60e51b8152602081880152601f818901527f5265656e7472616e637947756172643a207265656e7472616e742063616c6c0060448201528990fd5b8380fd5b8490346103575781600319360112610357577f00000000000000000000000000000000000000000000000000000000000000006001600160a01b03168152602090f35b60c0810190811067ffffffffffffffff821117610a6157604052565b634e487b7160e01b600052604160045260246000fd5b90601f8019910116810190811067ffffffffffffffff821117610a6157604052565b60a0809180518452602081015160208501526040810151604085015260608101516060850152608081015160808501520151910152565b6000546001600160a01b03163303610ae457565b606460405162461bcd60e51b815260206004820152602060248201527f4f776e61626c653a2063616c6c6572206973206e6f7420746865206f776e65726044820152fd5b81810292918115918404141715610b3b57565b634e487b7160e01b600052601160045260246000fd5b91908201809211610b3b57565b60018060a01b0316906040516040810167ffffffffffffffff9082811082821117610a61576040526020938483527f5361666545524332303a206c6f772d6c6576656c2063616c6c206661696c6564858401526000808587829751910182855af1903d15610ca3573d928311610c8f5790610bf993929160405192610bec88601f19601f8401160185610a77565b83523d868885013e610cae565b805191821591848315610c6b575b505050905015610c145750565b6084906040519062461bcd60e51b82526004820152602a60248201527f5361666545524332303a204552433230206f7065726174696f6e20646964206e6044820152691bdd081cdd58d8d9595960b21b6064820152fd5b91938180945001031261035757820151908115158203610681575080388084610c07565b634e487b7160e01b85526041600452602485fd5b90610bf99392506060915b91929015610d105750815115610cc2575090565b3b15610ccb5790565b60405162461bcd60e51b815260206004820152601d60248201527f416464726573733a2063616c6c20746f206e6f6e2d636f6e74726163740000006044820152606490fd5b825190915015610d235750805190602001fd5b6040519062461bcd60e51b82528160208060048301528251908160248401526000935b828510610d69575050604492506000838284010152601f80199101168101030190fd5b8481018201518686016044015293810193859350610d46565b60405163a9059cbb60e01b60208201526001600160a01b039092166024830152604480830193909352918152608081019167ffffffffffffffff831182841017610a6157610dd292604052610b5e565b56fea2646970667358221220c8327ba3bf9708ac4dbfab4edc6a8295b46a7bd81a9bbfbba62fb0c8ba47811c64736f6c63430008130033","opcodes":"PUSH1 0xC0 CALLVALUE PUSH2 0x17F JUMPI PUSH1 0x1F PUSH2 0xFB9 CODESIZE DUP2 SWAP1 SUB SWAP2 DUP3 ADD PUSH1 0x1F NOT AND DUP4 ADD SWAP2 PUSH1 0x1 PUSH1 0x1 PUSH1 0x40 SHL SUB DUP4 GT DUP5 DUP5 LT OR PUSH2 0x184 JUMPI DUP1 DUP5 SWAP3 PUSH1 0x40 SWAP5 DUP6 MSTORE DUP4 CODECOPY DUP2 ADD SUB SLT PUSH2 0x17F JUMPI PUSH2 0x52 PUSH1 0x20 PUSH2 0x4B DUP4 PUSH2 0x19A JUMP JUMPDEST SWAP3 ADD PUSH2 0x19A JUMP JUMPDEST PUSH1 0x0 DUP1 SLOAD CALLER PUSH1 0x1 PUSH1 0x1 PUSH1 0xA0 SHL SUB NOT DUP3 AND DUP2 OR DUP4 SSTORE PUSH1 0x40 MLOAD SWAP5 PUSH1 0x1 PUSH1 0x1 PUSH1 0xA0 SHL SUB SWAP5 SWAP4 DUP6 SWAP4 SWAP2 SWAP3 SWAP2 DUP5 AND SWAP1 PUSH32 0x8BE0079C531659141344CD1FD0A4F28419497F9722A3DAAFE3B4186F6B6457E0 SWAP1 DUP1 LOG3 PUSH1 0x1 DUP1 SSTORE AND SWAP3 DUP4 ISZERO PUSH2 0x13D JUMPI POP AND SWAP1 DUP2 ISZERO PUSH2 0xF8 JUMPI PUSH1 0x80 MSTORE PUSH1 0xA0 MSTORE PUSH1 0x40 MLOAD PUSH2 0xE0A SWAP1 DUP2 PUSH2 0x1AF DUP3 CODECOPY PUSH1 0x80 MLOAD DUP2 DUP2 DUP2 PUSH2 0x1F4 ADD MSTORE DUP2 DUP2 PUSH2 0x4E8 ADD MSTORE DUP2 DUP2 PUSH2 0x5F8 ADD MSTORE PUSH2 0x7E2 ADD MSTORE PUSH1 0xA0 MLOAD DUP2 DUP2 DUP2 PUSH2 0x808 ADD MSTORE PUSH2 0xA16 ADD MSTORE RETURN JUMPDEST PUSH1 0x40 MLOAD PUSH3 0x461BCD PUSH1 0xE5 SHL DUP2 MSTORE PUSH1 0x20 PUSH1 0x4 DUP3 ADD MSTORE PUSH1 0x17 PUSH1 0x24 DUP3 ADD MSTORE PUSH32 0x496E76616C6964204C616E644E46542061646472657373000000000000000000 PUSH1 0x44 DUP3 ADD MSTORE PUSH1 0x64 SWAP1 REVERT JUMPDEST PUSH3 0x461BCD PUSH1 0xE5 SHL DUP2 MSTORE PUSH1 0x20 PUSH1 0x4 DUP3 ADD MSTORE PUSH1 0x1B PUSH1 0x24 DUP3 ADD MSTORE PUSH32 0x496E76616C696420455243323020746F6B656E20616464726573730000000000 PUSH1 0x44 DUP3 ADD MSTORE PUSH1 0x64 SWAP1 REVERT JUMPDEST PUSH1 0x0 DUP1 REVERT JUMPDEST PUSH4 0x4E487B71 PUSH1 0xE0 SHL PUSH1 0x0 MSTORE PUSH1 0x41 PUSH1 0x4 MSTORE PUSH1 0x24 PUSH1 0x0 REVERT JUMPDEST MLOAD SWAP1 PUSH1 0x1 PUSH1 0x1 PUSH1 0xA0 SHL SUB DUP3 AND DUP3 SUB PUSH2 0x17F JUMPI JUMP INVALID PUSH1 0x80 PUSH1 0x40 DUP2 DUP2 MSTORE PUSH1 0x4 SWAP1 DUP2 CALLDATASIZE LT ISZERO PUSH2 0x16 JUMPI PUSH1 0x0 DUP1 REVERT JUMPDEST PUSH1 0x0 SWAP3 DUP4 CALLDATALOAD PUSH1 0xE0 SHR SWAP1 DUP2 PUSH4 0x39D022E1 EQ PUSH2 0xA02 JUMPI POP DUP1 PUSH4 0x6E4740E8 EQ PUSH2 0x684 JUMPI DUP1 PUSH4 0x715018A6 EQ PUSH2 0x627 JUMPI DUP1 PUSH4 0x8A13EEA7 EQ PUSH2 0x5E3 JUMPI DUP1 PUSH4 0x8A689E81 EQ PUSH2 0x4BA JUMPI DUP1 PUSH4 0x8DA5CB5B EQ PUSH2 0x492 JUMPI DUP1 PUSH4 0x8FD4A1ED EQ PUSH2 0x3DC JUMPI DUP1 PUSH4 0xB833724A EQ PUSH2 0x35B JUMPI DUP1 PUSH4 0xD78276C6 EQ PUSH2 0x1BC JUMPI DUP1 PUSH4 0xE4CCFC15 EQ PUSH2 0x173 JUMPI PUSH4 0xF2FDE38B EQ PUSH2 0x9D JUMPI PUSH1 0x0 DUP1 REVERT JUMPDEST CALLVALUE PUSH2 0x16F JUMPI PUSH1 0x20 CALLDATASIZE PUSH1 0x3 NOT ADD SLT PUSH2 0x16F JUMPI PUSH1 0x1 PUSH1 0x1 PUSH1 0xA0 SHL SUB DUP3 CALLDATALOAD DUP2 DUP2 AND SWAP4 SWAP2 SWAP3 SWAP1 DUP5 SWAP1 SUB PUSH2 0x16B JUMPI PUSH2 0xCE PUSH2 0xAD0 JUMP JUMPDEST DUP4 ISZERO PUSH2 0x119 JUMPI POP POP PUSH1 0x0 SLOAD DUP3 PUSH12 0xFFFFFFFFFFFFFFFFFFFFFFFF PUSH1 0xA0 SHL DUP3 AND OR PUSH1 0x0 SSTORE AND PUSH32 0x8BE0079C531659141344CD1FD0A4F28419497F9722A3DAAFE3B4186F6B6457E0 PUSH1 0x0 DUP1 LOG3 DUP1 RETURN JUMPDEST SWAP1 PUSH1 0x20 PUSH1 0x84 SWAP3 MLOAD SWAP2 PUSH3 0x461BCD PUSH1 0xE5 SHL DUP4 MSTORE DUP3 ADD MSTORE PUSH1 0x26 PUSH1 0x24 DUP3 ADD MSTORE PUSH32 0x4F776E61626C653A206E6577206F776E657220697320746865207A65726F2061 PUSH1 0x44 DUP3 ADD MSTORE PUSH6 0x646472657373 PUSH1 0xD0 SHL PUSH1 0x64 DUP3 ADD MSTORE REVERT JUMPDEST DUP5 DUP1 REVERT JUMPDEST DUP3 DUP1 REVERT JUMPDEST POP SWAP1 CALLVALUE PUSH2 0x16F JUMPI DUP3 PUSH1 0x3 NOT CALLDATASIZE ADD SLT PUSH2 0x16F JUMPI PUSH1 0xC0 SWAP3 POP PUSH1 0x2 SLOAD SWAP2 PUSH1 0x3 SLOAD SWAP2 SLOAD PUSH1 0x5 SLOAD SWAP1 PUSH1 0x6 SLOAD SWAP3 PUSH1 0x7 SLOAD SWAP5 DUP2 MLOAD SWAP7 DUP8 MSTORE PUSH1 0x20 DUP8 ADD MSTORE DUP6 ADD MSTORE PUSH1 0x60 DUP5 ADD MSTORE PUSH1 0x80 DUP4 ADD MSTORE PUSH1 0xA0 DUP3 ADD MSTORE RETURN JUMPDEST POP DUP3 SWAP1 CALLVALUE PUSH2 0x357 JUMPI PUSH1 0x20 DUP1 PUSH1 0x3 NOT CALLDATASIZE ADD SLT PUSH2 0x16F JUMPI DUP4 CALLDATALOAD PUSH2 0x1DB PUSH2 0xAD0 JUMP JUMPDEST DUP1 ISZERO PUSH2 0x300 JUMPI DUP3 MLOAD PUSH4 0x70A08231 PUSH1 0xE0 SHL DUP2 MSTORE ADDRESS DUP2 DUP8 ADD MSTORE PUSH32 0x0 SWAP6 PUSH1 0x1 PUSH1 0x1 PUSH1 0xA0 SHL SUB SWAP2 DUP5 DUP2 PUSH1 0x24 DUP2 DUP7 DUP13 AND GAS STATICCALL SWAP1 DUP2 ISZERO PUSH2 0x2F6 JUMPI SWAP1 DUP5 SWAP2 DUP9 SWAP2 PUSH2 0x2C0 JUMPI JUMPDEST POP LT PUSH2 0x27D JUMPI POP PUSH2 0x271 DUP3 DUP7 SWAP8 DUP4 PUSH32 0x7E2C99819371DB0A6FC6F4269FE872496E44F502DF19BA3EAE594B7A15987460 SWAP8 SWAP9 SLOAD AND SWAP1 PUSH2 0xD82 JUMP JUMPDEST DUP6 SLOAD AND SWAP4 MLOAD SWAP1 DUP2 MSTORE LOG2 DUP1 RETURN JUMPDEST DUP5 MLOAD PUSH3 0x461BCD PUSH1 0xE5 SHL DUP2 MSTORE SWAP1 DUP2 ADD DUP5 SWAP1 MSTORE PUSH1 0x1A PUSH1 0x24 DUP3 ADD MSTORE PUSH32 0x496E73756666696369656E742045524332302062616C616E6365000000000000 PUSH1 0x44 DUP3 ADD MSTORE PUSH1 0x64 SWAP1 REVERT JUMPDEST DUP1 SWAP3 POP DUP7 DUP1 SWAP3 POP RETURNDATASIZE DUP4 GT PUSH2 0x2EF JUMPI JUMPDEST PUSH2 0x2D9 DUP2 DUP4 PUSH2 0xA77 JUMP JUMPDEST DUP2 ADD SUB SLT PUSH2 0x2EA JUMPI DUP4 SWAP1 MLOAD DUP10 PUSH2 0x238 JUMP JUMPDEST PUSH1 0x0 DUP1 REVERT JUMPDEST POP RETURNDATASIZE PUSH2 0x2CF JUMP JUMPDEST DUP7 MLOAD RETURNDATASIZE DUP10 DUP3 RETURNDATACOPY RETURNDATASIZE SWAP1 REVERT JUMPDEST DUP3 MLOAD PUSH3 0x461BCD PUSH1 0xE5 SHL DUP2 MSTORE DUP1 DUP7 ADD DUP4 SWAP1 MSTORE PUSH1 0x2B PUSH1 0x24 DUP3 ADD MSTORE PUSH32 0x5769746864726177616C20616D6F756E74206D75737420626520677265617465 PUSH1 0x44 DUP3 ADD MSTORE PUSH11 0x72207468616E207A65726F PUSH1 0xA8 SHL PUSH1 0x64 DUP3 ADD MSTORE PUSH1 0x84 SWAP1 REVERT JUMPDEST POP DUP1 REVERT JUMPDEST POP CALLVALUE PUSH2 0x16F JUMPI DUP3 PUSH1 0x3 NOT CALLDATASIZE ADD SLT PUSH2 0x16F JUMPI DUP1 PUSH1 0xC0 SWAP4 PUSH1 0xA0 PUSH2 0x3DA SWAP4 MLOAD PUSH2 0x380 DUP2 PUSH2 0xA45 JUMP JUMPDEST DUP3 DUP2 MSTORE DUP3 PUSH1 0x20 DUP3 ADD MSTORE DUP3 DUP5 DUP3 ADD MSTORE DUP3 PUSH1 0x60 DUP3 ADD MSTORE DUP3 PUSH1 0x80 DUP3 ADD MSTORE ADD MSTORE DUP1 MLOAD SWAP3 PUSH2 0x3A8 DUP5 PUSH2 0xA45 JUMP JUMPDEST PUSH1 0x2 SLOAD DUP5 MSTORE PUSH1 0x3 SLOAD PUSH1 0x20 DUP6 ADD MSTORE SLOAD DUP2 DUP5 ADD MSTORE PUSH1 0x5 SLOAD PUSH1 0x60 DUP5 ADD MSTORE PUSH1 0x6 SLOAD PUSH1 0x80 DUP5 ADD MSTORE PUSH1 0x7 SLOAD PUSH1 0xA0 DUP5 ADD MSTORE MLOAD DUP1 SWAP3 PUSH2 0xA99 JUMP JUMPDEST RETURN JUMPDEST POP SWAP1 CALLVALUE PUSH2 0x16F JUMPI PUSH1 0xC0 CALLDATASIZE PUSH1 0x3 NOT ADD SLT PUSH2 0x16F JUMPI PUSH32 0x2368A2AA714D438B66F5F8E70016019544A508F55FD2DA080F859726F4990E1A SWAP2 DUP2 PUSH1 0xC0 SWAP3 CALLDATALOAD SWAP2 PUSH1 0x24 CALLDATALOAD SWAP1 PUSH1 0x44 CALLDATALOAD PUSH1 0x64 CALLDATALOAD SWAP2 PUSH1 0x84 CALLDATALOAD SWAP4 DUP3 PUSH1 0xA4 CALLDATALOAD SWAP7 PUSH2 0x433 PUSH2 0xAD0 JUMP JUMPDEST DUP8 PUSH1 0xA0 DUP6 MLOAD PUSH2 0x441 DUP2 PUSH2 0xA45 JUMP JUMPDEST DUP12 DUP2 MSTORE DUP6 PUSH1 0x20 DUP3 ADD MSTORE DUP5 DUP8 DUP3 ADD MSTORE DUP9 PUSH1 0x60 DUP3 ADD MSTORE DUP10 PUSH1 0x80 DUP3 ADD MSTORE ADD MSTORE DUP9 PUSH1 0x2 SSTORE DUP3 PUSH1 0x3 SSTORE SSTORE DUP4 PUSH1 0x5 SSTORE DUP5 PUSH1 0x6 SSTORE DUP6 PUSH1 0x7 SSTORE DUP2 MLOAD SWAP7 DUP8 MSTORE PUSH1 0x20 DUP8 ADD MSTORE DUP6 ADD MSTORE PUSH1 0x60 DUP5 ADD MSTORE PUSH1 0x80 DUP4 ADD MSTORE PUSH1 0xA0 DUP3 ADD MSTORE LOG1 DUP1 RETURN JUMPDEST DUP4 DUP3 CALLVALUE PUSH2 0x357 JUMPI DUP2 PUSH1 0x3 NOT CALLDATASIZE ADD SLT PUSH2 0x357 JUMPI SWAP1 SLOAD SWAP1 MLOAD PUSH1 0x1 PUSH1 0x1 PUSH1 0xA0 SHL SUB SWAP1 SWAP2 AND DUP2 MSTORE PUSH1 0x20 SWAP1 RETURN JUMPDEST POP DUP3 SWAP1 CALLVALUE PUSH2 0x357 JUMPI DUP2 PUSH1 0x3 NOT CALLDATASIZE ADD SLT PUSH2 0x357 JUMPI PUSH2 0x4D5 PUSH2 0xAD0 JUMP JUMPDEST DUP1 MLOAD PUSH4 0x70A08231 PUSH1 0xE0 SHL DUP2 MSTORE ADDRESS DUP2 DUP6 ADD MSTORE PUSH32 0x0 SWAP4 PUSH1 0x20 SWAP2 SWAP1 PUSH1 0x1 PUSH1 0x1 PUSH1 0xA0 SHL SUB SWAP1 DUP4 DUP4 PUSH1 0x24 DUP2 DUP6 DUP12 AND GAS STATICCALL SWAP3 DUP4 ISZERO PUSH2 0x5D9 JUMPI DUP7 SWAP4 PUSH2 0x5AA JUMPI JUMPDEST POP DUP3 ISZERO PUSH2 0x567 JUMPI POP PUSH2 0x271 DUP3 DUP7 SWAP8 DUP4 PUSH32 0x7E2C99819371DB0A6FC6F4269FE872496E44F502DF19BA3EAE594B7A15987460 SWAP8 SWAP9 SLOAD AND SWAP1 PUSH2 0xD82 JUMP JUMPDEST DUP5 MLOAD PUSH3 0x461BCD PUSH1 0xE5 SHL DUP2 MSTORE SWAP1 DUP2 ADD DUP5 SWAP1 MSTORE PUSH1 0x1B PUSH1 0x24 DUP3 ADD MSTORE PUSH32 0x4E6F20455243323020746F6B656E7320746F2077697468647261770000000000 PUSH1 0x44 DUP3 ADD MSTORE PUSH1 0x64 SWAP1 REVERT JUMPDEST SWAP1 SWAP3 POP DUP4 DUP2 DUP2 RETURNDATASIZE DUP4 GT PUSH2 0x5D2 JUMPI JUMPDEST PUSH2 0x5C2 DUP2 DUP4 PUSH2 0xA77 JUMP JUMPDEST DUP2 ADD SUB SLT PUSH2 0x2EA JUMPI MLOAD SWAP2 DUP8 PUSH2 0x52D JUMP JUMPDEST POP RETURNDATASIZE PUSH2 0x5B8 JUMP JUMPDEST DUP6 MLOAD RETURNDATASIZE DUP9 DUP3 RETURNDATACOPY RETURNDATASIZE SWAP1 REVERT JUMPDEST DUP4 DUP3 CALLVALUE PUSH2 0x357 JUMPI DUP2 PUSH1 0x3 NOT CALLDATASIZE ADD SLT PUSH2 0x357 JUMPI MLOAD PUSH32 0x0 PUSH1 0x1 PUSH1 0x1 PUSH1 0xA0 SHL SUB AND DUP2 MSTORE PUSH1 0x20 SWAP1 RETURN JUMPDEST DUP4 CALLVALUE PUSH2 0x681 JUMPI DUP1 PUSH1 0x3 NOT CALLDATASIZE ADD SLT PUSH2 0x681 JUMPI PUSH2 0x640 PUSH2 0xAD0 JUMP JUMPDEST PUSH1 0x0 DUP1 SLOAD PUSH1 0x1 PUSH1 0x1 PUSH1 0xA0 SHL SUB NOT DUP2 AND DUP3 SSTORE PUSH1 0x1 PUSH1 0x1 PUSH1 0xA0 SHL SUB AND PUSH32 0x8BE0079C531659141344CD1FD0A4F28419497F9722A3DAAFE3B4186F6B6457E0 DUP3 DUP1 LOG3 DUP1 RETURN JUMPDEST DUP1 REVERT JUMPDEST POP CALLVALUE PUSH2 0x16F JUMPI PUSH1 0xE0 CALLDATASIZE PUSH1 0x3 NOT ADD SLT PUSH2 0x16F JUMPI DUP2 CALLDATALOAD SWAP2 PUSH1 0xC0 CALLDATASIZE PUSH1 0x23 NOT ADD SLT PUSH2 0x9FE JUMPI DUP2 MLOAD SWAP2 PUSH2 0x6B1 DUP4 PUSH2 0xA45 JUMP JUMPDEST PUSH1 0x24 DUP1 CALLDATALOAD DUP5 MSTORE PUSH1 0x20 DUP5 ADD SWAP3 PUSH1 0x44 CALLDATALOAD DUP5 MSTORE DUP3 DUP6 ADD SWAP4 PUSH1 0x64 SWAP5 DUP6 CALLDATALOAD DUP2 MSTORE PUSH1 0x60 DUP8 ADD PUSH1 0x84 CALLDATALOAD DUP2 MSTORE PUSH1 0x80 DUP9 ADD SWAP2 PUSH1 0xA4 CALLDATALOAD DUP4 MSTORE PUSH1 0xA0 DUP10 ADD SWAP4 PUSH1 0xC4 CALLDATALOAD DUP6 MSTORE PUSH1 0x2 PUSH1 0x1 SLOAD EQ PUSH2 0x9BD JUMPI PUSH1 0x2 PUSH1 0x1 SSTORE DUP10 MLOAD ISZERO DUP1 ISZERO SWAP1 PUSH2 0x9B3 JUMPI JUMPDEST DUP1 ISZERO PUSH2 0x9A9 JUMPI JUMPDEST DUP1 ISZERO PUSH2 0x99F JUMPI JUMPDEST DUP1 ISZERO PUSH2 0x995 JUMPI JUMPDEST DUP1 ISZERO PUSH2 0x98B JUMPI JUMPDEST ISZERO PUSH2 0x93E JUMPI SWAP3 PUSH2 0x761 PUSH2 0x77C PUSH2 0x761 SWAP5 PUSH2 0x761 PUSH2 0x771 PUSH2 0x787 SWAP7 DUP16 PUSH2 0x767 PUSH2 0x792 SWAP13 SWAP12 PUSH2 0x761 PUSH2 0x756 PUSH2 0x761 SWAP5 MLOAD PUSH1 0x2 SLOAD SWAP1 PUSH2 0xB28 JUMP JUMPDEST SWAP2 MLOAD PUSH1 0x3 SLOAD SWAP1 PUSH2 0xB28 JUMP JUMPDEST SWAP1 PUSH2 0xB51 JUMP JUMPDEST SWAP2 MLOAD DUP14 SLOAD SWAP1 PUSH2 0xB28 JUMP JUMPDEST SWAP2 MLOAD PUSH1 0x5 SLOAD SWAP1 PUSH2 0xB28 JUMP JUMPDEST SWAP2 MLOAD PUSH1 0x6 SLOAD SWAP1 PUSH2 0xB28 JUMP JUMPDEST SWAP2 MLOAD PUSH1 0x7 SLOAD SWAP1 PUSH2 0xB28 JUMP JUMPDEST SWAP4 DUP5 ISZERO PUSH2 0x8F2 JUMPI DUP4 MLOAD PUSH4 0x23B872DD PUSH1 0xE0 SHL PUSH1 0x20 DUP3 ADD MSTORE CALLER DUP5 DUP3 ADD MSTORE ADDRESS PUSH1 0x44 DUP3 ADD MSTORE DUP2 DUP2 ADD DUP7 SWAP1 MSTORE SWAP1 DUP2 MSTORE PUSH8 0xFFFFFFFFFFFFFFFF SWAP1 PUSH1 0xA0 DUP2 ADD DUP3 DUP2 GT DUP3 DUP3 LT OR PUSH2 0x8E0 JUMPI DUP10 SWAP5 SWAP4 SWAP3 SWAP2 PUSH2 0x806 SWAP2 DUP8 MSTORE PUSH32 0x0 PUSH2 0xB5E JUMP JUMPDEST PUSH32 0x0 PUSH1 0x1 PUSH1 0x1 PUSH1 0xA0 SHL SUB AND DUP1 EXTCODESIZE ISZERO PUSH2 0x16B JUMPI DUP5 SWAP1 PUSH1 0xE4 DUP8 MLOAD DUP1 SWAP8 DUP2 SWAP4 PUSH4 0x9B006001 PUSH1 0xE0 SHL DUP4 MSTORE DUP14 DUP9 DUP5 ADD MSTORE PUSH2 0x85D DUP14 DUP11 DUP6 ADD SWAP1 PUSH2 0xA99 JUMP JUMPDEST GAS CALL DUP1 ISZERO PUSH2 0x8D6 JUMPI PUSH2 0x8AC JUMPI JUMPDEST POP POP POP POP PUSH2 0x87A SWAP1 MLOAD DUP1 SWAP4 PUSH2 0xA99 JUMP JUMPDEST PUSH1 0xC0 DUP3 ADD MSTORE PUSH32 0x7F58FA204D383445BC73A33D85FD0CA5DF7170FE608D00C83BB91326E0E2372F PUSH1 0xE0 CALLER SWAP3 LOG3 PUSH1 0x1 DUP1 SSTORE DUP1 RETURN JUMPDEST DUP4 SWAP9 SWAP5 SWAP9 GT PUSH2 0x8C5 JUMPI POP POP DUP6 MSTORE SWAP4 PUSH2 0x87A CODESIZE DUP1 DUP1 PUSH2 0x86A JUMP JUMPDEST PUSH4 0x4E487B71 PUSH1 0xE0 SHL DUP5 MSTORE PUSH1 0x41 SWAP1 MSTORE DUP3 REVERT JUMPDEST DUP6 MLOAD RETURNDATASIZE DUP12 DUP3 RETURNDATACOPY RETURNDATASIZE SWAP1 REVERT JUMPDEST PUSH4 0x4E487B71 PUSH1 0xE0 SHL DUP11 MSTORE PUSH1 0x41 DUP5 MSTORE DUP5 DUP11 REVERT JUMPDEST PUSH4 0x7A65726F PUSH1 0xE0 SHL SWAP2 SWAP3 PUSH1 0x20 PUSH1 0x84 SWAP6 MLOAD SWAP5 PUSH3 0x461BCD PUSH1 0xE5 SHL DUP7 MSTORE DUP6 ADD MSTORE DUP1 DUP5 ADD MSTORE PUSH32 0x546F74616C20636F7374206D7573742062652067726561746572207468616E20 PUSH1 0x44 DUP5 ADD MSTORE DUP3 ADD MSTORE REVERT JUMPDEST DUP8 MLOAD PUSH3 0x461BCD PUSH1 0xE5 SHL DUP2 MSTORE PUSH1 0x20 DUP2 DUP9 ADD MSTORE PUSH1 0x23 DUP2 DUP10 ADD MSTORE PUSH32 0x4E6F207265736F75726365732073706563696669656420666F72207075726368 PUSH1 0x44 DUP3 ADD MSTORE PUSH3 0x617365 PUSH1 0xE8 SHL DUP2 DUP12 ADD MSTORE PUSH1 0x84 SWAP1 REVERT JUMPDEST POP DUP5 MLOAD ISZERO ISZERO PUSH2 0x71F JUMP JUMPDEST POP DUP4 MLOAD ISZERO ISZERO PUSH2 0x718 JUMP JUMPDEST POP DUP3 MLOAD ISZERO ISZERO PUSH2 0x711 JUMP JUMPDEST POP DUP2 MLOAD ISZERO ISZERO PUSH2 0x70A JUMP JUMPDEST POP DUP1 MLOAD ISZERO ISZERO PUSH2 0x703 JUMP JUMPDEST DUP8 MLOAD PUSH3 0x461BCD PUSH1 0xE5 SHL DUP2 MSTORE PUSH1 0x20 DUP2 DUP9 ADD MSTORE PUSH1 0x1F DUP2 DUP10 ADD MSTORE PUSH32 0x5265656E7472616E637947756172643A207265656E7472616E742063616C6C00 PUSH1 0x44 DUP3 ADD MSTORE DUP10 SWAP1 REVERT JUMPDEST DUP4 DUP1 REVERT JUMPDEST DUP5 SWAP1 CALLVALUE PUSH2 0x357 JUMPI DUP2 PUSH1 0x3 NOT CALLDATASIZE ADD SLT PUSH2 0x357 JUMPI PUSH32 0x0 PUSH1 0x1 PUSH1 0x1 PUSH1 0xA0 SHL SUB AND DUP2 MSTORE PUSH1 0x20 SWAP1 RETURN JUMPDEST PUSH1 0xC0 DUP2 ADD SWAP1 DUP2 LT PUSH8 0xFFFFFFFFFFFFFFFF DUP3 GT OR PUSH2 0xA61 JUMPI PUSH1 0x40 MSTORE JUMP JUMPDEST PUSH4 0x4E487B71 PUSH1 0xE0 SHL PUSH1 0x0 MSTORE PUSH1 0x41 PUSH1 0x4 MSTORE PUSH1 0x24 PUSH1 0x0 REVERT JUMPDEST SWAP1 PUSH1 0x1F DUP1 NOT SWAP2 ADD AND DUP2 ADD SWAP1 DUP2 LT PUSH8 0xFFFFFFFFFFFFFFFF DUP3 GT OR PUSH2 0xA61 JUMPI PUSH1 0x40 MSTORE JUMP JUMPDEST PUSH1 0xA0 DUP1 SWAP2 DUP1 MLOAD DUP5 MSTORE PUSH1 0x20 DUP2 ADD MLOAD PUSH1 0x20 DUP6 ADD MSTORE PUSH1 0x40 DUP2 ADD MLOAD PUSH1 0x40 DUP6 ADD MSTORE PUSH1 0x60 DUP2 ADD MLOAD PUSH1 0x60 DUP6 ADD MSTORE PUSH1 0x80 DUP2 ADD MLOAD PUSH1 0x80 DUP6 ADD MSTORE ADD MLOAD SWAP2 ADD MSTORE JUMP JUMPDEST PUSH1 0x0 SLOAD PUSH1 0x1 PUSH1 0x1 PUSH1 0xA0 SHL SUB AND CALLER SUB PUSH2 0xAE4 JUMPI JUMP JUMPDEST PUSH1 0x64 PUSH1 0x40 MLOAD PUSH3 0x461BCD PUSH1 0xE5 SHL DUP2 MSTORE PUSH1 0x20 PUSH1 0x4 DUP3 ADD MSTORE PUSH1 0x20 PUSH1 0x24 DUP3 ADD MSTORE PUSH32 0x4F776E61626C653A2063616C6C6572206973206E6F7420746865206F776E6572 PUSH1 0x44 DUP3 ADD MSTORE REVERT JUMPDEST DUP2 DUP2 MUL SWAP3 SWAP2 DUP2 ISZERO SWAP2 DUP5 DIV EQ OR ISZERO PUSH2 0xB3B JUMPI JUMP JUMPDEST PUSH4 0x4E487B71 PUSH1 0xE0 SHL PUSH1 0x0 MSTORE PUSH1 0x11 PUSH1 0x4 MSTORE PUSH1 0x24 PUSH1 0x0 REVERT JUMPDEST SWAP2 SWAP1 DUP3 ADD DUP1 SWAP3 GT PUSH2 0xB3B JUMPI JUMP JUMPDEST PUSH1 0x1 DUP1 PUSH1 0xA0 SHL SUB AND SWAP1 PUSH1 0x40 MLOAD PUSH1 0x40 DUP2 ADD PUSH8 0xFFFFFFFFFFFFFFFF SWAP1 DUP3 DUP2 LT DUP3 DUP3 GT OR PUSH2 0xA61 JUMPI PUSH1 0x40 MSTORE PUSH1 0x20 SWAP4 DUP5 DUP4 MSTORE PUSH32 0x5361666545524332303A206C6F772D6C6576656C2063616C6C206661696C6564 DUP6 DUP5 ADD MSTORE PUSH1 0x0 DUP1 DUP6 DUP8 DUP3 SWAP8 MLOAD SWAP2 ADD DUP3 DUP6 GAS CALL SWAP1 RETURNDATASIZE ISZERO PUSH2 0xCA3 JUMPI RETURNDATASIZE SWAP3 DUP4 GT PUSH2 0xC8F JUMPI SWAP1 PUSH2 0xBF9 SWAP4 SWAP3 SWAP2 PUSH1 0x40 MLOAD SWAP3 PUSH2 0xBEC DUP9 PUSH1 0x1F NOT PUSH1 0x1F DUP5 ADD AND ADD DUP6 PUSH2 0xA77 JUMP JUMPDEST DUP4 MSTORE RETURNDATASIZE DUP7 DUP9 DUP6 ADD RETURNDATACOPY PUSH2 0xCAE JUMP JUMPDEST DUP1 MLOAD SWAP2 DUP3 ISZERO SWAP2 DUP5 DUP4 ISZERO PUSH2 0xC6B JUMPI JUMPDEST POP POP POP SWAP1 POP ISZERO PUSH2 0xC14 JUMPI POP JUMP JUMPDEST PUSH1 0x84 SWAP1 PUSH1 0x40 MLOAD SWAP1 PUSH3 0x461BCD PUSH1 0xE5 SHL DUP3 MSTORE PUSH1 0x4 DUP3 ADD MSTORE PUSH1 0x2A PUSH1 0x24 DUP3 ADD MSTORE PUSH32 0x5361666545524332303A204552433230206F7065726174696F6E20646964206E PUSH1 0x44 DUP3 ADD MSTORE PUSH10 0x1BDD081CDD58D8D95959 PUSH1 0xB2 SHL PUSH1 0x64 DUP3 ADD MSTORE REVERT JUMPDEST SWAP2 SWAP4 DUP2 DUP1 SWAP5 POP ADD SUB SLT PUSH2 0x357 JUMPI DUP3 ADD MLOAD SWAP1 DUP2 ISZERO ISZERO DUP3 SUB PUSH2 0x681 JUMPI POP DUP1 CODESIZE DUP1 DUP5 PUSH2 0xC07 JUMP JUMPDEST PUSH4 0x4E487B71 PUSH1 0xE0 SHL DUP6 MSTORE PUSH1 0x41 PUSH1 0x4 MSTORE PUSH1 0x24 DUP6 REVERT JUMPDEST SWAP1 PUSH2 0xBF9 SWAP4 SWAP3 POP PUSH1 0x60 SWAP2 JUMPDEST SWAP2 SWAP3 SWAP1 ISZERO PUSH2 0xD10 JUMPI POP DUP2 MLOAD ISZERO PUSH2 0xCC2 JUMPI POP SWAP1 JUMP JUMPDEST EXTCODESIZE ISZERO PUSH2 0xCCB JUMPI SWAP1 JUMP JUMPDEST PUSH1 0x40 MLOAD PUSH3 0x461BCD PUSH1 0xE5 SHL DUP2 MSTORE PUSH1 0x20 PUSH1 0x4 DUP3 ADD MSTORE PUSH1 0x1D PUSH1 0x24 DUP3 ADD MSTORE PUSH32 0x416464726573733A2063616C6C20746F206E6F6E2D636F6E7472616374000000 PUSH1 0x44 DUP3 ADD MSTORE PUSH1 0x64 SWAP1 REVERT JUMPDEST DUP3 MLOAD SWAP1 SWAP2 POP ISZERO PUSH2 0xD23 JUMPI POP DUP1 MLOAD SWAP1 PUSH1 0x20 ADD REVERT JUMPDEST PUSH1 0x40 MLOAD SWAP1 PUSH3 0x461BCD PUSH1 0xE5 SHL DUP3 MSTORE DUP2 PUSH1 0x20 DUP1 PUSH1 0x4 DUP4 ADD MSTORE DUP3 MLOAD SWAP1 DUP2 PUSH1 0x24 DUP5 ADD MSTORE PUSH1 0x0 SWAP4 JUMPDEST DUP3 DUP6 LT PUSH2 0xD69 JUMPI POP POP PUSH1 0x44 SWAP3 POP PUSH1 0x0 DUP4 DUP3 DUP5 ADD ADD MSTORE PUSH1 0x1F DUP1 NOT SWAP2 ADD AND DUP2 ADD SUB ADD SWAP1 REVERT JUMPDEST DUP5 DUP2 ADD DUP3 ADD MLOAD DUP7 DUP7 ADD PUSH1 0x44 ADD MSTORE SWAP4 DUP2 ADD SWAP4 DUP6 SWAP4 POP PUSH2 0xD46 JUMP JUMPDEST PUSH1 0x40 MLOAD PUSH4 0xA9059CBB PUSH1 0xE0 SHL PUSH1 0x20 DUP3 ADD MSTORE PUSH1 0x1 PUSH1 0x1 PUSH1 0xA0 SHL SUB SWAP1 SWAP3 AND PUSH1 0x24 DUP4 ADD MSTORE PUSH1 0x44 DUP1 DUP4 ADD SWAP4 SWAP1 SWAP4 MSTORE SWAP2 DUP2 MSTORE PUSH1 0x80 DUP2 ADD SWAP2 PUSH8 0xFFFFFFFFFFFFFFFF DUP4 GT DUP3 DUP5 LT OR PUSH2 0xA61 JUMPI PUSH2 0xDD2 SWAP3 PUSH1 0x40 MSTORE PUSH2 0xB5E JUMP JUMPDEST JUMP INVALID LOG2 PUSH5 0x6970667358 0x22 SLT KECCAK256 0xC8 ORIGIN PUSH28 0xA3BF9708AC4DBFAB4EDC6A8295B46A7BD81A9BBFBBA62FB0C8BA4781 SHR PUSH5 0x736F6C6343 STOP ADDMOD SGT STOP CALLER "},"methodIdentifiers":{"buyResources(uint256,(uint256,uint256,uint256,uint256,uint256,uint256))":"6e4740e8","erc20Token()":"8a13eea7","getResourcePrices()":"b833724a","landNFT()":"39d022e1","owner()":"8da5cb5b","renounceOwnership()":"715018a6","resourcePrice()":"e4ccfc15","setResourcePrices(uint256,uint256,uint256,uint256,uint256,uint256)":"8fd4a1ed","transferOwnership(address)":"f2fde38b","withdrawAllERC20()":"8a689e81","withdrawERC20(uint256)":"d78276c6"}}}}}