{"contracts/BuildingManager.sol":{"BuildingManager":{"abi":[{"inputs":[],"stateMutability":"nonpayable","type":"constructor"},{"inputs":[{"internalType":"string","name":"","type":"string"},{"internalType":"uint256","name":"","type":"uint256"}],"name":"availableBuildings","outputs":[{"internalType":"string","name":"name","type":"string"},{"internalType":"uint256","name":"level","type":"uint256"},{"components":[{"internalType":"uint256","name":"food","type":"uint256"},{"internalType":"uint256","name":"wood","type":"uint256"},{"internalType":"uint256","name":"stone","type":"uint256"},{"internalType":"uint256","name":"brass","type":"uint256"},{"internalType":"uint256","name":"iron","type":"uint256"},{"internalType":"uint256","name":"gold","type":"uint256"}],"internalType":"struct DataTypes.Resources","name":"baseCost","type":"tuple"},{"components":[{"internalType":"uint256","name":"food","type":"uint256"},{"internalType":"uint256","name":"wood","type":"uint256"},{"internalType":"uint256","name":"stone","type":"uint256"},{"internalType":"uint256","name":"brass","type":"uint256"},{"internalType":"uint256","name":"iron","type":"uint256"},{"internalType":"uint256","name":"gold","type":"uint256"}],"internalType":"struct DataTypes.Resources","name":"upkeepCost","type":"tuple"},{"internalType":"uint256","name":"productionBoost","type":"uint256"},{"internalType":"uint256","name":"happinessBoost","type":"uint256"},{"internalType":"uint256","name":"technologyBoost","type":"uint256"},{"internalType":"uint256","name":"pietyBoost","type":"uint256"},{"internalType":"uint256","name":"strengthBoost","type":"uint256"},{"components":[{"internalType":"uint256","name":"foodPerEpoch","type":"uint256"},{"internalType":"uint256","name":"woodPerEpoch","type":"uint256"},{"internalType":"uint256","name":"stonePerEpoch","type":"uint256"},{"internalType":"uint256","name":"brassPerEpoch","type":"uint256"},{"internalType":"uint256","name":"ironPerEpoch","type":"uint256"},{"internalType":"uint256","name":"goldPerEpoch","type":"uint256"}],"internalType":"struct DataTypes.ResourceProduction","name":"resourceProduction","type":"tuple"},{"internalType":"uint256","name":"baseConstructionTime","type":"uint256"},{"internalType":"bool","name":"isAvailable","type":"bool"}],"stateMutability":"view","type":"function"},{"inputs":[{"components":[{"internalType":"string","name":"name","type":"string"},{"internalType":"uint256","name":"level","type":"uint256"},{"internalType":"bool","name":"isActive","type":"bool"}],"internalType":"struct DataTypes.Building[]","name":"buildings","type":"tuple[]"},{"internalType":"uint256","name":"epochsElapsed","type":"uint256"}],"name":"calculateTotalResourceProduction","outputs":[{"components":[{"internalType":"uint256","name":"food","type":"uint256"},{"internalType":"uint256","name":"wood","type":"uint256"},{"internalType":"uint256","name":"stone","type":"uint256"},{"internalType":"uint256","name":"brass","type":"uint256"},{"internalType":"uint256","name":"iron","type":"uint256"},{"internalType":"uint256","name":"gold","type":"uint256"}],"internalType":"struct DataTypes.Resources","name":"","type":"tuple"}],"stateMutability":"view","type":"function"},{"inputs":[{"internalType":"string","name":"buildingName","type":"string"},{"internalType":"uint256","name":"level","type":"uint256"}],"name":"completeBuildingConstruction","outputs":[{"internalType":"uint256","name":"productionBoost","type":"uint256"},{"internalType":"uint256","name":"happinessBoost","type":"uint256"},{"internalType":"uint256","name":"strengthBoost","type":"uint256"}],"stateMutability":"view","type":"function"},{"inputs":[{"internalType":"string","name":"name","type":"string"},{"internalType":"uint256","name":"level","type":"uint256"}],"name":"getBuildingInfo","outputs":[{"components":[{"internalType":"string","name":"name","type":"string"},{"internalType":"uint256","name":"level","type":"uint256"},{"components":[{"internalType":"uint256","name":"food","type":"uint256"},{"internalType":"uint256","name":"wood","type":"uint256"},{"internalType":"uint256","name":"stone","type":"uint256"},{"internalType":"uint256","name":"brass","type":"uint256"},{"internalType":"uint256","name":"iron","type":"uint256"},{"internalType":"uint256","name":"gold","type":"uint256"}],"internalType":"struct DataTypes.Resources","name":"baseCost","type":"tuple"},{"components":[{"internalType":"uint256","name":"food","type":"uint256"},{"internalType":"uint256","name":"wood","type":"uint256"},{"internalType":"uint256","name":"stone","type":"uint256"},{"internalType":"uint256","name":"brass","type":"uint256"},{"internalType":"uint256","name":"iron","type":"uint256"},{"internalType":"uint256","name":"gold","type":"uint256"}],"internalType":"struct DataTypes.Resources","name":"upkeepCost","type":"tuple"},{"internalType":"uint256","name":"productionBoost","type":"uint256"},{"internalType":"uint256","name":"happinessBoost","type":"uint256"},{"internalType":"uint256","name":"technologyBoost","type":"uint256"},{"internalType":"uint256","name":"pietyBoost","type":"uint256"},{"internalType":"uint256","name":"strengthBoost","type":"uint256"},{"components":[{"internalType":"uint256","name":"foodPerEpoch","type":"uint256"},{"internalType":"uint256","name":"woodPerEpoch","type":"uint256"},{"internalType":"uint256","name":"stonePerEpoch","type":"uint256"},{"internalType":"uint256","name":"brassPerEpoch","type":"uint256"},{"internalType":"uint256","name":"ironPerEpoch","type":"uint256"},{"internalType":"uint256","name":"goldPerEpoch","type":"uint256"}],"internalType":"struct DataTypes.ResourceProduction","name":"resourceProduction","type":"tuple"},{"internalType":"uint256","name":"baseConstructionTime","type":"uint256"},{"internalType":"bool","name":"isAvailable","type":"bool"}],"internalType":"struct BuildingManager.BuildingInfo","name":"","type":"tuple"}],"stateMutability":"view","type":"function"},{"inputs":[],"name":"landNFT","outputs":[{"internalType":"address","name":"","type":"address"}],"stateMutability":"view","type":"function"},{"inputs":[{"internalType":"address","name":"_landNFT","type":"address"}],"name":"setLandNFT","outputs":[],"stateMutability":"nonpayable","type":"function"},{"inputs":[{"internalType":"string","name":"buildingName","type":"string"},{"internalType":"uint256","name":"level","type":"uint256"},{"components":[{"internalType":"uint256","name":"food","type":"uint256"},{"internalType":"uint256","name":"wood","type":"uint256"},{"internalType":"uint256","name":"stone","type":"uint256"},{"internalType":"uint256","name":"brass","type":"uint256"},{"internalType":"uint256","name":"iron","type":"uint256"},{"internalType":"uint256","name":"gold","type":"uint256"}],"internalType":"struct DataTypes.Resources","name":"currentResources","type":"tuple"},{"internalType":"uint256","name":"production","type":"uint256"}],"name":"startBuildingConstruction","outputs":[{"components":[{"internalType":"uint256","name":"food","type":"uint256"},{"internalType":"uint256","name":"wood","type":"uint256"},{"internalType":"uint256","name":"stone","type":"uint256"},{"internalType":"uint256","name":"brass","type":"uint256"},{"internalType":"uint256","name":"iron","type":"uint256"},{"internalType":"uint256","name":"gold","type":"uint256"}],"internalType":"struct DataTypes.Resources","name":"updatedResources","type":"tuple"},{"internalType":"uint256","name":"completionTime","type":"uint256"}],"stateMutability":"view","type":"function"}],"evm":{"bytecode":{"linkReferences":{},"object":"60806040523480156200001157600080fd5b506200001c62000022565b62003804565b604051806101800160405280604051806040016040528060048152602001634661726d60e01b8152508152602001600181526020016040518060c001604052806064815260200160328152602001601e8152602001600081526020016000815260200160148152508152602001620000d26040518060c001604052806064815260200160328152602001601e8152602001600081526020016000815260200160148152506200351860201b60201c565b815260200160058152602001600281526020016000815260200160008152602001600081526020016040518060c0016040528060648152602001600081526020016000815260200160008152602001600081526020016000815250815260200161a8c081526020016001151581525060016040516200015b90634661726d60e01b815260040190565b9081526040805160209281900383019020600160009081529252902081518190620001879082620036e9565b5060208201518160010155604082015181600201600082015181600001556020820151816001015560408201518160020155606082015181600301556080820151816004015560a082015181600501555050606082015181600801600082015181600001556020820151816001015560408201518160020155606082015181600301556080820151816004015560a082015181600501555050608082015181600e015560a082015181600f015560c0820151816010015560e08201518160110155610100820151816012015561012082015181601301600082015181600001556020820151816001015560408201518160020155606082015181600301556080820151816004015560a082015181600501555050610140820151816019015561016082015181601a0160006101000a81548160ff0219169083151502179055509050506040518061018001604052806040518060400160405280600b81526020016a131d5b58995c88135a5b1b60aa1b8152508152602001600181526020016040518060c0016040528060508152602001603c815260200160288152602001600081526020016000815260200160198152508152602001620003816040518060c0016040528060508152602001603c815260200160288152602001600081526020016000815260200160198152506200351860201b60201c565b815260200160048152602001600081526020016000815260200160008152602001600081526020016040518060c0016040528060008152602001606481526020016000815260200160008152602001600081526020016000815250815260200161a8c0815260200160011515815250600160405162000411906a131d5b58995c88135a5b1b60aa1b8152600b0190565b90815260408051602092819003830190206001600090815292529020815181906200043d9082620036e9565b5060208201518160010155604082015181600201600082015181600001556020820151816001015560408201518160020155606082015181600301556080820151816004015560a082015181600501555050606082015181600801600082015181600001556020820151816001015560408201518160020155606082015181600301556080820151816004015560a082015181600501555050608082015181600e015560a082015181600f015560c0820151816010015560e08201518160110155610100820151816012015561012082015181601301600082015181600001556020820151816001015560408201518160020155606082015181600301556080820151816004015560a082015181600501555050610140820151816019015561016082015181601a0160006101000a81548160ff0219169083151502179055509050506040518061018001604052806040518060400160405280600681526020016551756172727960d01b8152508152602001600181526020016040518060c00160405280605a815260200160288152602001603281526020016000815260200160008152602001601e8152508152602001620006326040518060c00160405280605a815260200160288152602001603281526020016000815260200160008152602001601e8152506200351860201b60201c565b815260200160038152602001600081526020016000815260200160008152602001600081526020016040518060c0016040528060008152602001600081526020016064815260200160008152602001600081526020016000815250815260200161a8c08152602001600115158152506001604051620006bd906551756172727960d01b815260060190565b9081526040805160209281900383019020600160009081529252902081518190620006e99082620036e9565b5060208201518160010155604082015181600201600082015181600001556020820151816001015560408201518160020155606082015181600301556080820151816004015560a082015181600501555050606082015181600801600082015181600001556020820151816001015560408201518160020155606082015181600301556080820151816004015560a082015181600501555050608082015181600e015560a082015181600f015560c0820151816010015560e08201518160110155610100820151816012015561012082015181601301600082015181600001556020820151816001015560408201518160020155606082015181600301556080820151816004015560a082015181600501555050610140820151816019015561016082015181601a0160006101000a81548160ff0219169083151502179055509050506040518061018001604052806040518060400160405280600981526020016849726f6e204d696e6560b81b8152508152602001600181526020016040518060c001604052806064815260200160328152602001603c8152602001600081526020016000815260200160238152508152602001620008e16040518060c001604052806064815260200160328152602001603c8152602001600081526020016000815260200160238152506200351860201b60201c565b815260200160038152602001600081526020016000815260200160008152602001600281526020016040518060c0016040528060008152602001600081526020016000815260200160008152602001606481526020016000815250815260200161a8c081526020016001151581525060016040516200096f906849726f6e204d696e6560b81b815260090190565b90815260408051602092819003830190206001600090815292529020815181906200099b9082620036e9565b5060208201518160010155604082015181600201600082015181600001556020820151816001015560408201518160020155606082015181600301556080820151816004015560a082015181600501555050606082015181600801600082015181600001556020820151816001015560408201518160020155606082015181600301556080820151816004015560a082015181600501555050608082015181600e015560a082015181600f015560c0820151816010015560e08201518160110155610100820151816012015561012082015181601301600082015181600001556020820151816001015560408201518160020155606082015181600301556080820151816004015560a082015181600501555050610140820151816019015561016082015181601a0160006101000a81548160ff021916908315150217905550905050604051806101800160405280604051806040016040528060088152602001670576f726b73686f760c41b8152508152602001600181526020016040518060c00160405280606e8152602001603c81526020016028815260200160008152602001600081526020016028815250815260200162000b926040518060c00160405280606e8152602001603c815260200160288152602001600081526020016000815260200160288152506200351860201b60201c565b815260200160058152602001600081526020016003815260200160008152602001600081526020016040518060c0016040528060008152602001600081526020016000815260200160648152602001600081526020016000815250815260200161a8c0815260200160011515815250600160405162000c1f90670576f726b73686f760c41b815260080190565b908152604080516020928190038301902060016000908152925290208151819062000c4b9082620036e9565b5060208201518160010155604082015181600201600082015181600001556020820151816001015560408201518160020155606082015181600301556080820151816004015560a082015181600501555050606082015181600801600082015181600001556020820151816001015560408201518160020155606082015181600301556080820151816004015560a082015181600501555050608082015181600e015560a082015181600f015560c0820151816010015560e08201518160110155610100820151816012015561012082015181601301600082015181600001556020820151816001015560408201518160020155606082015181600301556080820151816004015560a082015181600501555050610140820151816019015561016082015181601a0160006101000a81548160ff0219169083151502179055509050506040518061018001604052806040518060400160405280600b81526020016a4d61726b6574706c61636560a81b8152508152602001600181526020016040518060c0016040528060788152602001603281526020016032815260200160008152602001600081526020016032815250815260200162000e456040518060c00160405280607881526020016032815260200160328152602001600081526020016000815260200160328152506200351860201b60201c565b815260200160008152602001600381526020016000815260200160028152602001600081526020016040518060c0016040528060008152602001600081526020016000815260200160008152602001600081526020016064815250815260200161a8c0815260200160011515815250600160405162000ed5906a4d61726b6574706c61636560a81b8152600b0190565b908152604080516020928190038301902060016000908152925290208151819062000f019082620036e9565b5060208201518160010155604082015181600201600082015181600001556020820151816001015560408201518160020155606082015181600301556080820151816004015560a082015181600501555050606082015181600801600082015181600001556020820151816001015560408201518160020155606082015181600301556080820151816004015560a082015181600501555050608082015181600e015560a082015181600f015560c0820151816010015560e08201518160110155610100820151816012015561012082015181601301600082015181600001556020820151816001015560408201518160020155606082015181600301556080820151816004015560a082015181600501555050610140820151816019015561016082015181601a0160006101000a81548160ff021916908315150217905550905050604051806101800160405280604051806040016040528060088152602001674261727261636b7360c01b8152508152602001600181526020016040518060c001604052806082815260200160468152602001603c81526020016000815260200160008152602001603c8152508152602001620010f86040518060c001604052806082815260200160468152602001603c81526020016000815260200160008152602001603c8152506200351860201b60201c565b815260200160008152602001600081526020016000815260200160008152602001600581526020016040518060c0016040528060008152602001600081526020016000815260200160008152602001600081526020016000815250815260200161a8c081526020016001151581525060016040516200118590674261727261636b7360c01b815260080190565b9081526040805160209281900383019020600160009081529252902081518190620011b19082620036e9565b5060208201518160010155604082015181600201600082015181600001556020820151816001015560408201518160020155606082015181600301556080820151816004015560a082015181600501555050606082015181600801600082015181600001556020820151816001015560408201518160020155606082015181600301556080820151816004015560a082015181600501555050608082015181600e015560a082015181600f015560c0820151816010015560e08201518160110155610100820151816012015561012082015181601301600082015181600001556020820151816001015560408201518160020155606082015181600301556080820151816004015560a082015181600501555050610140820151816019015561016082015181601a0160006101000a81548160ff0219169083151502179055509050506040518061018001604052806040518060400160405280600681526020016554656d706c6560d01b8152508152602001600181526020016040518060c00160405280608c8152602001603c815260200160468152602001600081526020016000815260200160468152508152602001620013a66040518060c00160405280608c8152602001603c815260200160468152602001600081526020016000815260200160468152506200351860201b60201c565b815260200160008152602001600581526020016000815260200160078152602001600081526020016040518060c0016040528060008152602001600081526020016000815260200160008152602001600081526020016000815250815260200161a8c0815260200160011515815250600160405162001431906554656d706c6560d01b815260060190565b90815260408051602092819003830190206001600090815292529020815181906200145d9082620036e9565b5060208201518160010155604082015181600201600082015181600001556020820151816001015560408201518160020155606082015181600301556080820151816004015560a082015181600501555050606082015181600801600082015181600001556020820151816001015560408201518160020155606082015181600301556080820151816004015560a082015181600501555050608082015181600e015560a082015181600f015560c0820151816010015560e08201518160110155610100820151816012015561012082015181601301600082015181600001556020820151816001015560408201518160020155606082015181600301556080820151816004015560a082015181600501555050610140820151816019015561016082015181601a0160006101000a81548160ff0219169083151502179055509050506040518061018001604052806040518060400160405280600781526020016641636164656d7960c81b8152508152602001600181526020016040518060c00160405280609681526020016050815260200160328152602001600081526020016000815260200160508152508152602001620016536040518060c00160405280609681526020016050815260200160328152602001600081526020016000815260200160508152506200351860201b60201c565b815260200160058152602001600281526020016005815260200160008152602001600081526020016040518060c0016040528060008152602001600081526020016000815260200160008152602001600081526020016000815250815260200161a8c08152602001600115158152506001604051620016df906641636164656d7960c81b815260070190565b90815260408051602092819003830190206001600090815292529020815181906200170b9082620036e9565b5060208201518160010155604082015181600201600082015181600001556020820151816001015560408201518160020155606082015181600301556080820151816004015560a082015181600501555050606082015181600801600082015181600001556020820151816001015560408201518160020155606082015181600301556080820151816004015560a082015181600501555050608082015181600e015560a082015181600f015560c0820151816010015560e08201518160110155610100820151816012015561012082015181601301600082015181600001556020820151816001015560408201518160020155606082015181600301556080820151816004015560a082015181600501555050610140820151816019015561016082015181601a0160006101000a81548160ff02191690831515021790555090505060405180610180016040528060405180604001604052806007815260200166537461626c657360c81b8152508152602001600181526020016040518060c0016040528060a08152602001605a8152602001605081526020016000815260200160008152602001605a8152508152602001620019016040518060c0016040528060a08152602001605a8152602001605081526020016000815260200160008152602001605a8152506200351860201b60201c565b815260200160008152602001600081526020016000815260200160008152602001600381526020016040518060c0016040528060008152602001600081526020016000815260200160008152602001600081526020016000815250815260200161a8c081526020016001151581525060016040516200198d9066537461626c657360c81b815260070190565b9081526040805160209281900383019020600160009081529252902081518190620019b99082620036e9565b5060208201518160010155604082015181600201600082015181600001556020820151816001015560408201518160020155606082015181600301556080820151816004015560a082015181600501555050606082015181600801600082015181600001556020820151816001015560408201518160020155606082015181600301556080820151816004015560a082015181600501555050608082015181600e015560a082015181600f015560c0820151816010015560e08201518160110155610100820151816012015561012082015181601301600082015181600001556020820151816001015560408201518160020155606082015181600301556080820151816004015560a082015181600501555050610140820151816019015561016082015181601a0160006101000a81548160ff0219169083151502179055509050506040518061018001604052806040518060400160405280600681526020016545737461746560d01b8152508152602001600281526020016040518060c0016040528060c8815260200160648152602001603c815260200160008152602001600081526020016028815250815260200162001bae6040518060c0016040528060c8815260200160648152602001603c8152602001600081526020016000815260200160288152506200351860201b60201c565b8152602001600a8152602001600481526020016000815260200160008152602001600081526020016040518060c0016040528060c88152602001600081526020016000815260200160008152602001600081526020016000815250815260200162015180815260200160011515815250600160405162001c3a906545737461746560d01b815260060190565b908152604080516020928190038301902060026000908152925290208151819062001c669082620036e9565b50602082810151600183015560408084015180516002808601919091558184015160038601558183015160048601556060808301516005870155608080840151600688015560a0938401516007880155818801518051600889015580870151600989015580860151600a808a019190915581840151600b8a015581830151600c8a015590850151600d89015581890151600e89015584890151600f89015560c0808a015160108a015560e08a015160118a01556101008a015160128a01556101208a0151805160138b01558089015160148b01558088015160158b01558085015160168b01558084015160178b015586015160188a01556101408a015160198a015561016090990151601a909801805460ff19169815159890981790975584516101c081018652610180810197885269556e697665727369747960b01b6101a0820152968752868601929092528351808801855261012c80825281870185905260648287018190526000838501819052838601819052838701879052898801939093528651998a018752908952958801849052938701949094528584018390528501919091528381015290919082019062001e219062003518565b8152602001600a815260200160048152602001600a815260200160008152602001600081526020016040518060c0016040528060008152602001600081526020016000815260200160008152602001600081526020016000815250815260200162015180815260200160011515815250600160405162001eb19069556e697665727369747960b01b8152600a0190565b908152604080516020928190038301902060026000908152925290208151819062001edd9082620036e9565b5060208201518160010155604082015181600201600082015181600001556020820151816001015560408201518160020155606082015181600301556080820151816004015560a082015181600501555050606082015181600801600082015181600001556020820151816001015560408201518160020155606082015181600301556080820151816004015560a082015181600501555050608082015181600e015560a082015181600f015560c0820151816010015560e08201518160110155610100820151816012015561012082015181601301600082015181600001556020820151816001015560408201518160020155606082015181600301556080820151816004015560a082015181600501555050610140820151816019015561016082015181601a0160006101000a81548160ff0219169083151502179055509050506040518061018001604052806040518060400160405280600981526020016810d85d1a19591c985b60ba1b8152508152602001600281526020016040518060c00160405280610118815260200160788152602001608c81526020016000815260200160008152602001608c8152508152602001620020d76040518060c00160405280610118815260200160788152602001608c81526020016000815260200160008152602001608c8152506200351860201b60201c565b815260200160008152602001600a815260200160008152602001600a8152602001600081526020016040518060c0016040528060008152602001600081526020016000815260200160008152602001600081526020016000815250815260200162015180815260200160011515815250600160405162002166906810d85d1a19591c985b60ba1b815260090190565b9081526040805160209281900383019020600260009081529252902081518190620021929082620036e9565b50602082810151600183015560408084015180516002808601919091558184015160038601558183015160048601556060808301516005870155608080840151600688015560a09384015160078089019190915582890151805160088a01558088015160098a015580870151600a8a015580840151600b8a015580830151600c8a0155850151600d89015581890151600e89015584890151600f89015560c0808a015160108a015560e08a015160118a01556101008a015160128a01556101208a0151805160138b01558089015160148b01558088015160158b01558085015160168b01558084015160178b015586015160188a01556101408a015160198a015561016090990151601a909801805460ff19169815159890981790975584516101c08101865261018081019788526614d85ddb5a5b1b60ca1b6101a0820152968752868601929092528351808801855283815260788187018190526050828701819052600083850181905283860181905260328488018190528a89019490945287519a8b018852868b52978a019190915294880194909452868101859052908601939093528401529091908201906200234b9062003518565b815260200160088152602001600081526020016000815260200160008152602001600081526020016040518060c001604052806000815260200160c8815260200160008152602001600081526020016000815260200160008152508152602001620151808152602001600115158152506001604051620023d8906614d85ddb5a5b1b60ca1b815260070190565b9081526040805160209281900383019020600260009081529252902081518190620024049082620036e9565b5060208201518160010155604082015181600201600082015181600001556020820151816001015560408201518160020155606082015181600301556080820151816004015560a082015181600501555050606082015181600801600082015181600001556020820151816001015560408201518160020155606082015181600301556080820151816004015560a082015181600501555050608082015181600e015560a082015181600f015560c0820151816010015560e08201518160110155610100820151816012015561012082015181601301600082015181600001556020820151816001015560408201518160020155606082015181600301556080820151816004015560a082015181600501555050610140820151816019015561016082015181601a0160006101000a81548160ff0219169083151502179055509050506040518061018001604052806040518060400160405280600a81526020016953746f6e65776f726b7360b01b8152508152602001600281526020016040518060c0016040528060b4815260200160508152602001606481526020016000815260200160008152602001603c8152508152602001620025fd6040518060c0016040528060b4815260200160508152602001606481526020016000815260200160008152602001603c8152506200351860201b60201c565b815260200160068152602001600081526020016000815260200160008152602001600081526020016040518060c00160405280600081526020016000815260200160c881526020016000815260200160008152602001600081525081526020016201518081526020016001151581525060016040516200268d906953746f6e65776f726b7360b01b8152600a0190565b9081526040805160209281900383019020600260009081529252902081518190620026b99082620036e9565b5060208201518160010155604082015181600201600082015181600001556020820151816001015560408201518160020155606082015181600301556080820151816004015560a082015181600501555050606082015181600801600082015181600001556020820151816001015560408201518160020155606082015181600301556080820151816004015560a082015181600501555050608082015181600e015560a082015181600f015560c0820151816010015560e08201518160110155610100820151816012015561012082015181601301600082015181600001556020820151816001015560408201518160020155606082015181600301556080820151816004015560a082015181600501555050610140820151816019015561016082015181601a0160006101000a81548160ff0219169083151502179055509050506040518061018001604052806040518060400160405280600a815260200169537465656c776f726b7360b01b8152508152602001600281526020016040518060c0016040528060c881526020016064815260200160788152602001600081526020016000815260200160468152508152602001620028b26040518060c0016040528060c881526020016064815260200160788152602001600081526020016000815260200160468152506200351860201b60201c565b815260200160068152602001600081526020016000815260200160008152602001600081526020016040518060c001604052806000815260200160008152602001600081526020016000815260200160c8815260200160008152508152602001620151808152602001600115158152506001604051620029429069537465656c776f726b7360b01b8152600a0190565b90815260408051602092819003830190206002600090815292529020815181906200296e9082620036e9565b5060208201518160010155604082015181600201600082015181600001556020820151816001015560408201518160020155606082015181600301556080820151816004015560a082015181600501555050606082015181600801600082015181600001556020820151816001015560408201518160020155606082015181600301556080820151816004015560a082015181600501555050608082015181600e015560a082015181600f015560c0820151816010015560e08201518160110155610100820151816012015561012082015181601301600082015181600001556020820151816001015560408201518160020155606082015181600301556080820151816004015560a082015181600501555050610140820151816019015561016082015181601a0160006101000a81548160ff02191690831515021790555090505060405180610180016040528060405180604001604052806007815260200166466163746f727960c81b8152508152602001600281526020016040518060c0016040528060dc8152602001607881526020016050815260200160008152602001600081526020016050815250815260200162002b646040518060c0016040528060dc81526020016078815260200160508152602001600081526020016000815260200160508152506200351860201b60201c565b8152602001600a8152602001600081526020016000815260200160008152602001600081526020016040518060c0016040528060008152602001600081526020016000815260200160c88152602001600081526020016000815250815260200162015180815260200160011515815250600160405162002bf19066466163746f727960c81b815260070190565b908152604080516020928190038301902060026000908152925290208151819062002c1d9082620036e9565b5060208201518160010155604082015181600201600082015181600001556020820151816001015560408201518160020155606082015181600301556080820151816004015560a082015181600501555050606082015181600801600082015181600001556020820151816001015560408201518160020155606082015181600301556080820151816004015560a082015181600501555050608082015181600e015560a082015181600f015560c0820151816010015560e08201518160110155610100820151816012015561012082015181601301600082015181600001556020820151816001015560408201518160020155606082015181600301556080820151816004015560a082015181600501555050610140820151816019015561016082015181601a0160006101000a81548160ff0219169083151502179055509050506040518061018001604052806040518060400160405280600c81526020016b151c98591a5b99c8141bdcdd60a21b8152508152602001600281526020016040518060c0016040528060f08152602001606481526020016064815260200160008152602001600081526020016064815250815260200162002e186040518060c0016040528060f081526020016064815260200160648152602001600081526020016000815260200160648152506200351860201b60201c565b815260200160008152602001600681526020016000815260200160028152602001600081526020016040518060c00160405280600081526020016000815260200160008152602001600081526020016000815260200160c8815250815260200162015180815260200160011515815250600160405162002eaa906b151c98591a5b99c8141bdcdd60a21b8152600c0190565b908152604080516020928190038301902060026000908152925290208151819062002ed69082620036e9565b5060208201518160010155604082015181600201600082015181600001556020820151816001015560408201518160020155606082015181600301556080820151816004015560a082015181600501555050606082015181600801600082015181600001556020820151816001015560408201518160020155606082015181600301556080820151816004015560a082015181600501555050608082015181600e015560a082015181600f015560c0820151816010015560e08201518160110155610100820151816012015561012082015181601301600082015181600001556020820151816001015560408201518160020155606082015181600301556080820151816004015560a082015181600501555050610140820151816019015561016082015181601a0160006101000a81548160ff02191690831515021790555090505060405180610180016040528060405180604001604052806008815260200167466f72747265737360c01b8152508152602001600281526020016040518060c001604052806101048152602001608c815260200160788152602001600081526020016000815260200160788152508152602001620030cf6040518060c001604052806101048152602001608c815260200160788152602001600081526020016000815260200160788152506200351860201b60201c565b815260200160008152602001600081526020016000815260200160008152602001600a81526020016040518060c001604052806000815260200160008152602001600081526020016000815260200160008152602001600081525081526020016201518081526020016001151581525060016040516200315d9067466f72747265737360c01b815260080190565b9081526040805160209281900383019020600260009081529252902081518190620031899082620036e9565b50602082810151600183015560408084015180516002808601919091558184015160038601558183015160048601556060808301516005870155608080840151600688015560a0938401516007880155818801518051600889015580870151600989015580860151600a89015580830151600b89015580820151600c890155840151600d88015580880151600e8089019190915584890151600f89015560c0808a015160108a015560e08a015160118a01556101008a015160128a01556101208a0151805160138b01558089015160148b01558088015160158b01558085015160168b01558084015160178b015586015160188a0155610140808b015160198b0155610160909a0151601a909901805460ff19169915159990991790985585516101c08101875261018081019182526d10d85d985b1c9e4814d8da1bdbdb60921b6101a0820152908152808701939093528451808801865288815260b4818801819052818701869052600082850181905282840181905282870182905285880192909252865198890187529888529587018890529386018390528581018590529285019390935283019390935291820190620033459062003518565b815260200160008152602001600081526020016000815260200160008152602001600681526020016040518060c00160405280600081526020016000815260200160008152602001600081526020016000815260200160008152508152602001620151808152602001600115158152506001604051620033d9906d10d85d985b1c9e4814d8da1bdbdb60921b8152600e0190565b9081526040805160209281900383019020600260009081529252902081518190620034059082620036e9565b506020828101516001830155604080840151805160028501558083015160038501558082015160048501556060808201516005860155608080830151600687015560a0928301516007870155818701518051600888015580860151600988015580850151600a88015580830151600b88015580820151600c880155830151600d87015580870151600e87015582870151600f87015560c0870151601087015560e08701516011870155610100870151601287015561012087015180516013880155948501516014870155928401516015860155830151601685015590820151601784015501516018820155610140820151601982015561016090910151601a909101805460ff1916911515919091179055565b620035526040518060c001604052806000815260200160008152602001600081526020016000815260200160008152602001600081525090565b6040518060c00160405280606484600001516005620035729190620037b5565b6200357e9190620037e1565b8152602001606484602001516005620035989190620037b5565b620035a49190620037e1565b8152602001606484604001516005620035be9190620037b5565b620035ca9190620037e1565b8152602001606484606001516005620035e49190620037b5565b620035f09190620037e1565b81526020016064846080015160056200360a9190620037b5565b620036169190620037e1565b815260200160648460a001516005620036309190620037b5565b6200363c9190620037e1565b905292915050565b634e487b7160e01b600052604160045260246000fd5b600181811c908216806200366f57607f821691505b6020821081036200369057634e487b7160e01b600052602260045260246000fd5b50919050565b601f821115620036e457600081815260208120601f850160051c81016020861015620036bf5750805b601f850160051c820191505b81811015620036e057828155600101620036cb565b5050505b505050565b81516001600160401b0381111562003705576200370562003644565b6200371d816200371684546200365a565b8462003696565b602080601f8311600181146200375557600084156200373c5750858301515b600019600386901b1c1916600185901b178555620036e0565b600085815260208120601f198616915b82811015620037865788860151825594840194600190910190840162003765565b5085821015620037a55787850151600019600388901b60f8161c191681555b5050505050600190811b01905550565b8082028115828204841417620037db57634e487b7160e01b600052601160045260246000fd5b92915050565b600082620037ff57634e487b7160e01b600052601260045260246000fd5b500490565b61148180620038146000396000f3fe608060405234801561001057600080fd5b506004361061007d5760003560e01c8063ab0e23781161005b578063ab0e2378146100fd578063bfecd1a714610112578063d9dcfdb814610132578063ed81049d1461015357600080fd5b806339d022e114610082578063489b0f5a146100b25780636790d4b9146100d2575b600080fd5b600054610095906001600160a01b031681565b6040516001600160a01b0390911681526020015b60405180910390f35b6100c56100c0366004610f0c565b610181565b6040516100a99190610fdb565b6100e56100e0366004610f0c565b6103a8565b6040516100a99c9b9a9998979695949392919061109b565b61011061010b366004611125565b610582565b005b610125610120366004611155565b6105fb565b6040516100a9919061127a565b610145610140366004611288565b61095f565b6040516100a9929190611336565b610166610161366004610f0c565b610cdb565b604080519384526020840192909252908201526060016100a9565b610189610d2f565b6001836040516101999190611351565b9081526040805191829003602090810183206000868152915281902061018083019091528054829082906101cc9061136d565b80601f01602080910402602001604051908101604052809291908181526020018280546101f89061136d565b80156102455780601f1061021a57610100808354040283529160200191610245565b820191906000526020600020905b81548152906001019060200180831161022857829003601f168201915b5050505050815260200160018201548152602001600282016040518060c001604052908160008201548152602001600182015481526020016002820154815260200160038201548152602001600482015481526020016005820154815250508152602001600882016040518060c001604052908160008201548152602001600182015481526020016002820154815260200160038201548152602001600482015481526020016005820154815250508152602001600e8201548152602001600f8201548152602001601082015481526020016011820154815260200160128201548152602001601382016040518060c00160405290816000820154815260200160018201548152602001600282015481526020016003820154815260200160048201548152602001600582015481525050815260200160198201548152602001601a820160009054906101000a900460ff16151515158152505090505b92915050565b8151602081840181018051600182529282019482019490942091909352909152600090815260409020805481906103de9061136d565b80601f016020809104026020016040519081016040528092919081815260200182805461040a9061136d565b80156104575780601f1061042c57610100808354040283529160200191610457565b820191906000526020600020905b81548152906001019060200180831161043a57829003601f168201915b505050505090806001015490806002016040518060c0016040529081600082015481526020016001820154815260200160028201548152602001600382015481526020016004820154815260200160058201548152505090806008016040518060c001604052908160008201548152602001600182015481526020016002820154815260200160038201548152602001600482015481526020016005820154815250509080600e01549080600f015490806010015490806011015490806012015490806013016040518060c001604052908160008201548152602001600182015481526020016002820154815260200160038201548152602001600482015481526020016005820154815250509080601901549080601a0160009054906101000a900460ff1690508c565b6000546001600160a01b0316156105d95760405162461bcd60e51b815260206004820152601660248201527513185b99139195081a5cc8185b1c9958591e481cd95d60521b60448201526064015b60405180910390fd5b600080546001600160a01b0319166001600160a01b0392909216919091179055565b610603610dd3565b61060b610dd3565b60005b845181101561095757600085828151811061062b5761062b6113a7565b60200260200101519050806040015115610944576000600182600001516040516106559190611351565b9081526040805191829003602090810183208582015160009081529152819020610180830190915280548290829061068c9061136d565b80601f01602080910402602001604051908101604052809291908181526020018280546106b89061136d565b80156107055780601f106106da57610100808354040283529160200191610705565b820191906000526020600020905b8154815290600101906020018083116106e857829003601f168201915b5050505050815260200160018201548152602001600282016040518060c001604052908160008201548152602001600182015481526020016002820154815260200160038201548152602001600482015481526020016005820154815250508152602001600882016040518060c001604052908160008201548152602001600182015481526020016002820154815260200160038201548152602001600482015481526020016005820154815250508152602001600e8201548152602001600f8201548152602001601082015481526020016011820154815260200160128201548152602001601382016040518060c00160405290816000820154815260200160018201548152602001600282015481526020016003820154815260200160048201548152602001600582015481525050815260200160198201548152602001601a820160009054906101000a900460ff16151515158152505090506000816101200151905086816000015161087b91906113d3565b8551869061088a9083906113ea565b905250602081015161089d9088906113d3565b856020018181516108ae91906113ea565b90525060408101516108c19088906113d3565b856040018181516108d291906113ea565b90525060608101516108e59088906113d3565b856060018181516108f691906113ea565b90525060808101516109099088906113d3565b8560800181815161091a91906113ea565b90525060a081015161092d9088906113d3565b8560a00181815161093e91906113ea565b90525050505b508061094f816113fd565b91505061060e565b509392505050565b610967610dd3565b6000808651116109b15760405162461bcd60e51b8152602060048201526015602482015274496e76616c6964206275696c64696e67206e616d6560581b60448201526064016105d0565b60006001876040516109c39190611351565b9081526040805160209281900383019020600089815292529020601a81015490915060ff16610a2d5760405162461bcd60e51b81526020600482015260166024820152754275696c64696e67206e6f7420617661696c61626c6560501b60448201526064016105d0565b600281015485511015610a745760405162461bcd60e51b815260206004820152600f60248201526e139bdd08195b9bdd59da08199bdbd9608a1b60448201526064016105d0565b600381015460208601511015610abe5760405162461bcd60e51b815260206004820152600f60248201526e139bdd08195b9bdd59da081ddbdbd9608a1b60448201526064016105d0565b600481015460408601511015610b095760405162461bcd60e51b815260206004820152601060248201526f4e6f7420656e6f7567682073746f6e6560801b60448201526064016105d0565b600581015460608601511015610b545760405162461bcd60e51b815260206004820152601060248201526f4e6f7420656e6f75676820627261737360801b60448201526064016105d0565b600681015460808601511015610b9e5760405162461bcd60e51b815260206004820152600f60248201526e2737ba1032b737bab3b41034b937b760891b60448201526064016105d0565b600781015460a08601511015610be85760405162461bcd60e51b815260206004820152600f60248201526e139bdd08195b9bdd59da0819dbdb19608a1b60448201526064016105d0565b600281015485518694508490610bff908390611416565b9052506003810154602084018051610c18908390611416565b9052506004810154604084018051610c31908390611416565b9052506005810154606084018051610c4a908390611416565b9052506006810154608084018051610c63908390611416565b905250600781015460a084018051610c7c908390611416565b90525060198101546000908590610c949060326113d3565b610c9e9190611429565b9050610e10811015610cb35750610e10610cc4565b6202a300811115610cc457506202a3005b610cce81426113ea565b9250505094509492505050565b600080600080600186604051610cf19190611351565b90815260200160405180910390206000868152602001908152602001600020905080600e0154935080600f0154925080601201549150509250925092565b6040518061018001604052806060815260200160008152602001610d51610dd3565b8152602001610d5e610dd3565b81526020016000815260200160008152602001600081526020016000815260200160008152602001610dbf6040518060c001604052806000815260200160008152602001600081526020016000815260200160008152602001600081525090565b815260006020820181905260409091015290565b6040518060c001604052806000815260200160008152602001600081526020016000815260200160008152602001600081525090565b634e487b7160e01b600052604160045260246000fd5b6040516060810167ffffffffffffffff81118282101715610e4257610e42610e09565b60405290565b60405160c0810167ffffffffffffffff81118282101715610e4257610e42610e09565b604051601f8201601f1916810167ffffffffffffffff81118282101715610e9457610e94610e09565b604052919050565b600082601f830112610ead57600080fd5b813567ffffffffffffffff811115610ec757610ec7610e09565b610eda601f8201601f1916602001610e6b565b818152846020838601011115610eef57600080fd5b816020850160208301376000918101602001919091529392505050565b60008060408385031215610f1f57600080fd5b823567ffffffffffffffff811115610f3657600080fd5b610f4285828601610e9c565b95602094909401359450505050565b60005b83811015610f6c578181015183820152602001610f54565b50506000910152565b60008151808452610f8d816020860160208601610f51565b601f01601f19169290920160200192915050565b805182526020810151602083015260408101516040830152606081015160608301526080810151608083015260a081015160a08301525050565b6020815260008251610360806020850152610ffa610380850183610f75565b91506020850151604085015260408501516110186060860182610fa1565b50606085015161012061102d81870183610fa1565b60808701516101e087015260a087015161020087015260c087015161022087015260e08701516102408701526101008701516102608701528601519050611078610280860182610fa1565b506101408501516103408501526101609094015115159390920192909252919050565b610360815260006110b061036083018f610f75565b90508c60208301526110c5604083018d610fa1565b6110d361010083018c610fa1565b896101c0830152886101e0830152876102008301528661022083015285610240830152611104610260830186610fa1565b836103208301528215156103408301529d9c50505050505050505050505050565b60006020828403121561113757600080fd5b81356001600160a01b038116811461114e57600080fd5b9392505050565b6000806040838503121561116857600080fd5b823567ffffffffffffffff8082111561118057600080fd5b818501915085601f83011261119457600080fd5b81356020828211156111a8576111a8610e09565b8160051b6111b7828201610e6b565b928352848101820192828101908a8511156111d157600080fd5b83870192505b84831015611269578235868111156111ef5760008081fd5b87016060818d03601f19018113156112075760008081fd5b61120f610e1f565b86830135898111156112215760008081fd5b61122f8f8983870101610e9c565b8252506040830135878201529181013591821515831461125157600091508182fd5b604081019290925250825291830191908301906111d7565b9a9890920135985050505050505050565b60c081016103a28284610fa1565b6000806000808486036101208112156112a057600080fd5b853567ffffffffffffffff8111156112b757600080fd5b6112c388828901610e9c565b9550506020860135935060c0603f19820112156112df57600080fd5b506112e8610e48565b60408601358152606086013560208201526080860135604082015260a0860135606082015260c0860135608082015260e086013560a082015280925050610100850135905092959194509250565b60e081016113448285610fa1565b8260c08301529392505050565b60008251611363818460208701610f51565b9190910192915050565b600181811c9082168061138157607f821691505b6020821081036113a157634e487b7160e01b600052602260045260246000fd5b50919050565b634e487b7160e01b600052603260045260246000fd5b634e487b7160e01b600052601160045260246000fd5b80820281158282048414176103a2576103a26113bd565b808201808211156103a2576103a26113bd565b60006001820161140f5761140f6113bd565b5060010190565b818103818111156103a2576103a26113bd565b60008261144657634e487b7160e01b600052601260045260246000fd5b50049056fea2646970667358221220be3b4f16965c13ebbdb17d0490ee71003fb11b31a0c78b5802c580f970042cda64736f6c63430008130033","opcodes":"PUSH1 0x80 PUSH1 0x40 MSTORE CALLVALUE DUP1 ISZERO PUSH3 0x11 JUMPI PUSH1 0x0 DUP1 REVERT JUMPDEST POP PUSH3 0x1C PUSH3 0x22 JUMP JUMPDEST PUSH3 0x3804 JUMP JUMPDEST PUSH1 0x40 MLOAD DUP1 PUSH2 0x180 ADD PUSH1 0x40 MSTORE DUP1 PUSH1 0x40 MLOAD DUP1 PUSH1 0x40 ADD PUSH1 0x40 MSTORE DUP1 PUSH1 0x4 DUP2 MSTORE PUSH1 0x20 ADD PUSH4 0x4661726D PUSH1 0xE0 SHL DUP2 MSTORE POP DUP2 MSTORE PUSH1 0x20 ADD PUSH1 0x1 DUP2 MSTORE PUSH1 0x20 ADD PUSH1 0x40 MLOAD DUP1 PUSH1 0xC0 ADD PUSH1 0x40 MSTORE DUP1 PUSH1 0x64 DUP2 MSTORE PUSH1 0x20 ADD PUSH1 0x32 DUP2 MSTORE PUSH1 0x20 ADD PUSH1 0x1E DUP2 MSTORE PUSH1 0x20 ADD PUSH1 0x0 DUP2 MSTORE PUSH1 0x20 ADD PUSH1 0x0 DUP2 MSTORE PUSH1 0x20 ADD PUSH1 0x14 DUP2 MSTORE POP DUP2 MSTORE PUSH1 0x20 ADD PUSH3 0xD2 PUSH1 0x40 MLOAD DUP1 PUSH1 0xC0 ADD PUSH1 0x40 MSTORE DUP1 PUSH1 0x64 DUP2 MSTORE PUSH1 0x20 ADD PUSH1 0x32 DUP2 MSTORE PUSH1 0x20 ADD PUSH1 0x1E DUP2 MSTORE PUSH1 0x20 ADD PUSH1 0x0 DUP2 MSTORE PUSH1 0x20 ADD PUSH1 0x0 DUP2 MSTORE PUSH1 0x20 ADD PUSH1 0x14 DUP2 MSTORE POP PUSH3 0x3518 PUSH1 0x20 SHL PUSH1 0x20 SHR JUMP JUMPDEST DUP2 MSTORE PUSH1 0x20 ADD PUSH1 0x5 DUP2 MSTORE PUSH1 0x20 ADD PUSH1 0x2 DUP2 MSTORE PUSH1 0x20 ADD PUSH1 0x0 DUP2 MSTORE PUSH1 0x20 ADD PUSH1 0x0 DUP2 MSTORE PUSH1 0x20 ADD PUSH1 0x0 DUP2 MSTORE PUSH1 0x20 ADD PUSH1 0x40 MLOAD DUP1 PUSH1 0xC0 ADD PUSH1 0x40 MSTORE DUP1 PUSH1 0x64 DUP2 MSTORE PUSH1 0x20 ADD PUSH1 0x0 DUP2 MSTORE PUSH1 0x20 ADD PUSH1 0x0 DUP2 MSTORE PUSH1 0x20 ADD PUSH1 0x0 DUP2 MSTORE PUSH1 0x20 ADD PUSH1 0x0 DUP2 MSTORE PUSH1 0x20 ADD PUSH1 0x0 DUP2 MSTORE POP DUP2 MSTORE PUSH1 0x20 ADD PUSH2 0xA8C0 DUP2 MSTORE PUSH1 0x20 ADD PUSH1 0x1 ISZERO ISZERO DUP2 MSTORE POP PUSH1 0x1 PUSH1 0x40 MLOAD PUSH3 0x15B SWAP1 PUSH4 0x4661726D PUSH1 0xE0 SHL DUP2 MSTORE PUSH1 0x4 ADD SWAP1 JUMP JUMPDEST SWAP1 DUP2 MSTORE PUSH1 0x40 DUP1 MLOAD PUSH1 0x20 SWAP3 DUP2 SWAP1 SUB DUP4 ADD SWAP1 KECCAK256 PUSH1 0x1 PUSH1 0x0 SWAP1 DUP2 MSTORE SWAP3 MSTORE SWAP1 KECCAK256 DUP2 MLOAD DUP2 SWAP1 PUSH3 0x187 SWAP1 DUP3 PUSH3 0x36E9 JUMP JUMPDEST POP PUSH1 0x20 DUP3 ADD MLOAD DUP2 PUSH1 0x1 ADD SSTORE PUSH1 0x40 DUP3 ADD MLOAD DUP2 PUSH1 0x2 ADD PUSH1 0x0 DUP3 ADD MLOAD DUP2 PUSH1 0x0 ADD SSTORE PUSH1 0x20 DUP3 ADD MLOAD DUP2 PUSH1 0x1 ADD SSTORE PUSH1 0x40 DUP3 ADD MLOAD DUP2 PUSH1 0x2 ADD SSTORE PUSH1 0x60 DUP3 ADD MLOAD DUP2 PUSH1 0x3 ADD SSTORE PUSH1 0x80 DUP3 ADD MLOAD DUP2 PUSH1 0x4 ADD SSTORE PUSH1 0xA0 DUP3 ADD MLOAD DUP2 PUSH1 0x5 ADD SSTORE POP POP PUSH1 0x60 DUP3 ADD MLOAD DUP2 PUSH1 0x8 ADD PUSH1 0x0 DUP3 ADD MLOAD DUP2 PUSH1 0x0 ADD SSTORE PUSH1 0x20 DUP3 ADD MLOAD DUP2 PUSH1 0x1 ADD SSTORE PUSH1 0x40 DUP3 ADD MLOAD DUP2 PUSH1 0x2 ADD SSTORE PUSH1 0x60 DUP3 ADD MLOAD DUP2 PUSH1 0x3 ADD SSTORE PUSH1 0x80 DUP3 ADD MLOAD DUP2 PUSH1 0x4 ADD SSTORE PUSH1 0xA0 DUP3 ADD MLOAD DUP2 PUSH1 0x5 ADD SSTORE POP POP PUSH1 0x80 DUP3 ADD MLOAD DUP2 PUSH1 0xE ADD SSTORE PUSH1 0xA0 DUP3 ADD MLOAD DUP2 PUSH1 0xF ADD SSTORE PUSH1 0xC0 DUP3 ADD MLOAD DUP2 PUSH1 0x10 ADD SSTORE PUSH1 0xE0 DUP3 ADD MLOAD DUP2 PUSH1 0x11 ADD SSTORE PUSH2 0x100 DUP3 ADD MLOAD DUP2 PUSH1 0x12 ADD SSTORE PUSH2 0x120 DUP3 ADD MLOAD DUP2 PUSH1 0x13 ADD PUSH1 0x0 DUP3 ADD MLOAD DUP2 PUSH1 0x0 ADD SSTORE PUSH1 0x20 DUP3 ADD MLOAD DUP2 PUSH1 0x1 ADD SSTORE PUSH1 0x40 DUP3 ADD MLOAD DUP2 PUSH1 0x2 ADD SSTORE PUSH1 0x60 DUP3 ADD MLOAD DUP2 PUSH1 0x3 ADD SSTORE PUSH1 0x80 DUP3 ADD MLOAD DUP2 PUSH1 0x4 ADD SSTORE PUSH1 0xA0 DUP3 ADD MLOAD DUP2 PUSH1 0x5 ADD SSTORE POP POP PUSH2 0x140 DUP3 ADD MLOAD DUP2 PUSH1 0x19 ADD SSTORE PUSH2 0x160 DUP3 ADD MLOAD DUP2 PUSH1 0x1A ADD PUSH1 0x0 PUSH2 0x100 EXP DUP2 SLOAD DUP2 PUSH1 0xFF MUL NOT AND SWAP1 DUP4 ISZERO ISZERO MUL OR SWAP1 SSTORE POP SWAP1 POP POP PUSH1 0x40 MLOAD DUP1 PUSH2 0x180 ADD PUSH1 0x40 MSTORE DUP1 PUSH1 0x40 MLOAD DUP1 PUSH1 0x40 ADD PUSH1 0x40 MSTORE DUP1 PUSH1 0xB DUP2 MSTORE PUSH1 0x20 ADD PUSH11 0x131D5B58995C88135A5B1B PUSH1 0xAA SHL DUP2 MSTORE POP DUP2 MSTORE PUSH1 0x20 ADD PUSH1 0x1 DUP2 MSTORE PUSH1 0x20 ADD PUSH1 0x40 MLOAD DUP1 PUSH1 0xC0 ADD PUSH1 0x40 MSTORE DUP1 PUSH1 0x50 DUP2 MSTORE PUSH1 0x20 ADD PUSH1 0x3C DUP2 MSTORE PUSH1 0x20 ADD PUSH1 0x28 DUP2 MSTORE PUSH1 0x20 ADD PUSH1 0x0 DUP2 MSTORE PUSH1 0x20 ADD PUSH1 0x0 DUP2 MSTORE PUSH1 0x20 ADD PUSH1 0x19 DUP2 MSTORE POP DUP2 MSTORE PUSH1 0x20 ADD PUSH3 0x381 PUSH1 0x40 MLOAD DUP1 PUSH1 0xC0 ADD PUSH1 0x40 MSTORE DUP1 PUSH1 0x50 DUP2 MSTORE PUSH1 0x20 ADD PUSH1 0x3C DUP2 MSTORE PUSH1 0x20 ADD PUSH1 0x28 DUP2 MSTORE PUSH1 0x20 ADD PUSH1 0x0 DUP2 MSTORE PUSH1 0x20 ADD PUSH1 0x0 DUP2 MSTORE PUSH1 0x20 ADD PUSH1 0x19 DUP2 MSTORE POP PUSH3 0x3518 PUSH1 0x20 SHL PUSH1 0x20 SHR JUMP JUMPDEST DUP2 MSTORE PUSH1 0x20 ADD PUSH1 0x4 DUP2 MSTORE PUSH1 0x20 ADD PUSH1 0x0 DUP2 MSTORE PUSH1 0x20 ADD PUSH1 0x0 DUP2 MSTORE PUSH1 0x20 ADD PUSH1 0x0 DUP2 MSTORE PUSH1 0x20 ADD PUSH1 0x0 DUP2 MSTORE PUSH1 0x20 ADD PUSH1 0x40 MLOAD DUP1 PUSH1 0xC0 ADD PUSH1 0x40 MSTORE DUP1 PUSH1 0x0 DUP2 MSTORE PUSH1 0x20 ADD PUSH1 0x64 DUP2 MSTORE PUSH1 0x20 ADD PUSH1 0x0 DUP2 MSTORE PUSH1 0x20 ADD PUSH1 0x0 DUP2 MSTORE PUSH1 0x20 ADD PUSH1 0x0 DUP2 MSTORE PUSH1 0x20 ADD PUSH1 0x0 DUP2 MSTORE POP DUP2 MSTORE PUSH1 0x20 ADD PUSH2 0xA8C0 DUP2 MSTORE PUSH1 0x20 ADD PUSH1 0x1 ISZERO ISZERO DUP2 MSTORE POP PUSH1 0x1 PUSH1 0x40 MLOAD PUSH3 0x411 SWAP1 PUSH11 0x131D5B58995C88135A5B1B PUSH1 0xAA SHL DUP2 MSTORE PUSH1 0xB ADD SWAP1 JUMP JUMPDEST SWAP1 DUP2 MSTORE PUSH1 0x40 DUP1 MLOAD PUSH1 0x20 SWAP3 DUP2 SWAP1 SUB DUP4 ADD SWAP1 KECCAK256 PUSH1 0x1 PUSH1 0x0 SWAP1 DUP2 MSTORE SWAP3 MSTORE SWAP1 KECCAK256 DUP2 MLOAD DUP2 SWAP1 PUSH3 0x43D SWAP1 DUP3 PUSH3 0x36E9 JUMP JUMPDEST POP PUSH1 0x20 DUP3 ADD MLOAD DUP2 PUSH1 0x1 ADD SSTORE PUSH1 0x40 DUP3 ADD MLOAD DUP2 PUSH1 0x2 ADD PUSH1 0x0 DUP3 ADD MLOAD DUP2 PUSH1 0x0 ADD SSTORE PUSH1 0x20 DUP3 ADD MLOAD DUP2 PUSH1 0x1 ADD SSTORE PUSH1 0x40 DUP3 ADD MLOAD DUP2 PUSH1 0x2 ADD SSTORE PUSH1 0x60 DUP3 ADD MLOAD DUP2 PUSH1 0x3 ADD SSTORE PUSH1 0x80 DUP3 ADD MLOAD DUP2 PUSH1 0x4 ADD SSTORE PUSH1 0xA0 DUP3 ADD MLOAD DUP2 PUSH1 0x5 ADD SSTORE POP POP PUSH1 0x60 DUP3 ADD MLOAD DUP2 PUSH1 0x8 ADD PUSH1 0x0 DUP3 ADD MLOAD DUP2 PUSH1 0x0 ADD SSTORE PUSH1 0x20 DUP3 ADD MLOAD DUP2 PUSH1 0x1 ADD SSTORE PUSH1 0x40 DUP3 ADD MLOAD DUP2 PUSH1 0x2 ADD SSTORE PUSH1 0x60 DUP3 ADD MLOAD DUP2 PUSH1 0x3 ADD SSTORE PUSH1 0x80 DUP3 ADD MLOAD DUP2 PUSH1 0x4 ADD SSTORE PUSH1 0xA0 DUP3 ADD MLOAD DUP2 PUSH1 0x5 ADD SSTORE POP POP PUSH1 0x80 DUP3 ADD MLOAD DUP2 PUSH1 0xE ADD SSTORE PUSH1 0xA0 DUP3 ADD MLOAD DUP2 PUSH1 0xF ADD SSTORE PUSH1 0xC0 DUP3 ADD MLOAD DUP2 PUSH1 0x10 ADD SSTORE PUSH1 0xE0 DUP3 ADD MLOAD DUP2 PUSH1 0x11 ADD SSTORE PUSH2 0x100 DUP3 ADD MLOAD DUP2 PUSH1 0x12 ADD SSTORE PUSH2 0x120 DUP3 ADD MLOAD DUP2 PUSH1 0x13 ADD PUSH1 0x0 DUP3 ADD MLOAD DUP2 PUSH1 0x0 ADD SSTORE PUSH1 0x20 DUP3 ADD MLOAD DUP2 PUSH1 0x1 ADD SSTORE PUSH1 0x40 DUP3 ADD MLOAD DUP2 PUSH1 0x2 ADD SSTORE PUSH1 0x60 DUP3 ADD MLOAD DUP2 PUSH1 0x3 ADD SSTORE PUSH1 0x80 DUP3 ADD MLOAD DUP2 PUSH1 0x4 ADD SSTORE PUSH1 0xA0 DUP3 ADD MLOAD DUP2 PUSH1 0x5 ADD SSTORE POP POP PUSH2 0x140 DUP3 ADD MLOAD DUP2 PUSH1 0x19 ADD SSTORE PUSH2 0x160 DUP3 ADD MLOAD DUP2 PUSH1 0x1A ADD PUSH1 0x0 PUSH2 0x100 EXP DUP2 SLOAD DUP2 PUSH1 0xFF MUL NOT AND SWAP1 DUP4 ISZERO ISZERO MUL OR SWAP1 SSTORE POP SWAP1 POP POP PUSH1 0x40 MLOAD DUP1 PUSH2 0x180 ADD PUSH1 0x40 MSTORE DUP1 PUSH1 0x40 MLOAD DUP1 PUSH1 0x40 ADD PUSH1 0x40 MSTORE DUP1 PUSH1 0x6 DUP2 MSTORE PUSH1 0x20 ADD PUSH6 0x517561727279 PUSH1 0xD0 SHL DUP2 MSTORE POP DUP2 MSTORE PUSH1 0x20 ADD PUSH1 0x1 DUP2 MSTORE PUSH1 0x20 ADD PUSH1 0x40 MLOAD DUP1 PUSH1 0xC0 ADD PUSH1 0x40 MSTORE DUP1 PUSH1 0x5A DUP2 MSTORE PUSH1 0x20 ADD PUSH1 0x28 DUP2 MSTORE PUSH1 0x20 ADD PUSH1 0x32 DUP2 MSTORE PUSH1 0x20 ADD PUSH1 0x0 DUP2 MSTORE PUSH1 0x20 ADD PUSH1 0x0 DUP2 MSTORE PUSH1 0x20 ADD PUSH1 0x1E DUP2 MSTORE POP DUP2 MSTORE PUSH1 0x20 ADD PUSH3 0x632 PUSH1 0x40 MLOAD DUP1 PUSH1 0xC0 ADD PUSH1 0x40 MSTORE DUP1 PUSH1 0x5A DUP2 MSTORE PUSH1 0x20 ADD PUSH1 0x28 DUP2 MSTORE PUSH1 0x20 ADD PUSH1 0x32 DUP2 MSTORE PUSH1 0x20 ADD PUSH1 0x0 DUP2 MSTORE PUSH1 0x20 ADD PUSH1 0x0 DUP2 MSTORE PUSH1 0x20 ADD PUSH1 0x1E DUP2 MSTORE POP PUSH3 0x3518 PUSH1 0x20 SHL PUSH1 0x20 SHR JUMP JUMPDEST DUP2 MSTORE PUSH1 0x20 ADD PUSH1 0x3 DUP2 MSTORE PUSH1 0x20 ADD PUSH1 0x0 DUP2 MSTORE PUSH1 0x20 ADD PUSH1 0x0 DUP2 MSTORE PUSH1 0x20 ADD PUSH1 0x0 DUP2 MSTORE PUSH1 0x20 ADD PUSH1 0x0 DUP2 MSTORE PUSH1 0x20 ADD PUSH1 0x40 MLOAD DUP1 PUSH1 0xC0 ADD PUSH1 0x40 MSTORE DUP1 PUSH1 0x0 DUP2 MSTORE PUSH1 0x20 ADD PUSH1 0x0 DUP2 MSTORE PUSH1 0x20 ADD PUSH1 0x64 DUP2 MSTORE PUSH1 0x20 ADD PUSH1 0x0 DUP2 MSTORE PUSH1 0x20 ADD PUSH1 0x0 DUP2 MSTORE PUSH1 0x20 ADD PUSH1 0x0 DUP2 MSTORE POP DUP2 MSTORE PUSH1 0x20 ADD PUSH2 0xA8C0 DUP2 MSTORE PUSH1 0x20 ADD PUSH1 0x1 ISZERO ISZERO DUP2 MSTORE POP PUSH1 0x1 PUSH1 0x40 MLOAD PUSH3 0x6BD SWAP1 PUSH6 0x517561727279 PUSH1 0xD0 SHL DUP2 MSTORE PUSH1 0x6 ADD SWAP1 JUMP JUMPDEST SWAP1 DUP2 MSTORE PUSH1 0x40 DUP1 MLOAD PUSH1 0x20 SWAP3 DUP2 SWAP1 SUB DUP4 ADD SWAP1 KECCAK256 PUSH1 0x1 PUSH1 0x0 SWAP1 DUP2 MSTORE SWAP3 MSTORE SWAP1 KECCAK256 DUP2 MLOAD DUP2 SWAP1 PUSH3 0x6E9 SWAP1 DUP3 PUSH3 0x36E9 JUMP JUMPDEST POP PUSH1 0x20 DUP3 ADD MLOAD DUP2 PUSH1 0x1 ADD SSTORE PUSH1 0x40 DUP3 ADD MLOAD DUP2 PUSH1 0x2 ADD PUSH1 0x0 DUP3 ADD MLOAD DUP2 PUSH1 0x0 ADD SSTORE PUSH1 0x20 DUP3 ADD MLOAD DUP2 PUSH1 0x1 ADD SSTORE PUSH1 0x40 DUP3 ADD MLOAD DUP2 PUSH1 0x2 ADD SSTORE PUSH1 0x60 DUP3 ADD MLOAD DUP2 PUSH1 0x3 ADD SSTORE PUSH1 0x80 DUP3 ADD MLOAD DUP2 PUSH1 0x4 ADD SSTORE PUSH1 0xA0 DUP3 ADD MLOAD DUP2 PUSH1 0x5 ADD SSTORE POP POP PUSH1 0x60 DUP3 ADD MLOAD DUP2 PUSH1 0x8 ADD PUSH1 0x0 DUP3 ADD MLOAD DUP2 PUSH1 0x0 ADD SSTORE PUSH1 0x20 DUP3 ADD MLOAD DUP2 PUSH1 0x1 ADD SSTORE PUSH1 0x40 DUP3 ADD MLOAD DUP2 PUSH1 0x2 ADD SSTORE PUSH1 0x60 DUP3 ADD MLOAD DUP2 PUSH1 0x3 ADD SSTORE PUSH1 0x80 DUP3 ADD MLOAD DUP2 PUSH1 0x4 ADD SSTORE PUSH1 0xA0 DUP3 ADD MLOAD DUP2 PUSH1 0x5 ADD SSTORE POP POP PUSH1 0x80 DUP3 ADD MLOAD DUP2 PUSH1 0xE ADD SSTORE PUSH1 0xA0 DUP3 ADD MLOAD DUP2 PUSH1 0xF ADD SSTORE PUSH1 0xC0 DUP3 ADD MLOAD DUP2 PUSH1 0x10 ADD SSTORE PUSH1 0xE0 DUP3 ADD MLOAD DUP2 PUSH1 0x11 ADD SSTORE PUSH2 0x100 DUP3 ADD MLOAD DUP2 PUSH1 0x12 ADD SSTORE PUSH2 0x120 DUP3 ADD MLOAD DUP2 PUSH1 0x13 ADD PUSH1 0x0 DUP3 ADD MLOAD DUP2 PUSH1 0x0 ADD SSTORE PUSH1 0x20 DUP3 ADD MLOAD DUP2 PUSH1 0x1 ADD SSTORE PUSH1 0x40 DUP3 ADD MLOAD DUP2 PUSH1 0x2 ADD SSTORE PUSH1 0x60 DUP3 ADD MLOAD DUP2 PUSH1 0x3 ADD SSTORE PUSH1 0x80 DUP3 ADD MLOAD DUP2 PUSH1 0x4 ADD SSTORE PUSH1 0xA0 DUP3 ADD MLOAD DUP2 PUSH1 0x5 ADD SSTORE POP POP PUSH2 0x140 DUP3 ADD MLOAD DUP2 PUSH1 0x19 ADD SSTORE PUSH2 0x160 DUP3 ADD MLOAD DUP2 PUSH1 0x1A ADD PUSH1 0x0 PUSH2 0x100 EXP DUP2 SLOAD DUP2 PUSH1 0xFF MUL NOT AND SWAP1 DUP4 ISZERO ISZERO MUL OR SWAP1 SSTORE POP SWAP1 POP POP PUSH1 0x40 MLOAD DUP1 PUSH2 0x180 ADD PUSH1 0x40 MSTORE DUP1 PUSH1 0x40 MLOAD DUP1 PUSH1 0x40 ADD PUSH1 0x40 MSTORE DUP1 PUSH1 0x9 DUP2 MSTORE PUSH1 0x20 ADD PUSH9 0x49726F6E204D696E65 PUSH1 0xB8 SHL DUP2 MSTORE POP DUP2 MSTORE PUSH1 0x20 ADD PUSH1 0x1 DUP2 MSTORE PUSH1 0x20 ADD PUSH1 0x40 MLOAD DUP1 PUSH1 0xC0 ADD PUSH1 0x40 MSTORE DUP1 PUSH1 0x64 DUP2 MSTORE PUSH1 0x20 ADD PUSH1 0x32 DUP2 MSTORE PUSH1 0x20 ADD PUSH1 0x3C DUP2 MSTORE PUSH1 0x20 ADD PUSH1 0x0 DUP2 MSTORE PUSH1 0x20 ADD PUSH1 0x0 DUP2 MSTORE PUSH1 0x20 ADD PUSH1 0x23 DUP2 MSTORE POP DUP2 MSTORE PUSH1 0x20 ADD PUSH3 0x8E1 PUSH1 0x40 MLOAD DUP1 PUSH1 0xC0 ADD PUSH1 0x40 MSTORE DUP1 PUSH1 0x64 DUP2 MSTORE PUSH1 0x20 ADD PUSH1 0x32 DUP2 MSTORE PUSH1 0x20 ADD PUSH1 0x3C DUP2 MSTORE PUSH1 0x20 ADD PUSH1 0x0 DUP2 MSTORE PUSH1 0x20 ADD PUSH1 0x0 DUP2 MSTORE PUSH1 0x20 ADD PUSH1 0x23 DUP2 MSTORE POP PUSH3 0x3518 PUSH1 0x20 SHL PUSH1 0x20 SHR JUMP JUMPDEST DUP2 MSTORE PUSH1 0x20 ADD PUSH1 0x3 DUP2 MSTORE PUSH1 0x20 ADD PUSH1 0x0 DUP2 MSTORE PUSH1 0x20 ADD PUSH1 0x0 DUP2 MSTORE PUSH1 0x20 ADD PUSH1 0x0 DUP2 MSTORE PUSH1 0x20 ADD PUSH1 0x2 DUP2 MSTORE PUSH1 0x20 ADD PUSH1 0x40 MLOAD DUP1 PUSH1 0xC0 ADD PUSH1 0x40 MSTORE DUP1 PUSH1 0x0 DUP2 MSTORE PUSH1 0x20 ADD PUSH1 0x0 DUP2 MSTORE PUSH1 0x20 ADD PUSH1 0x0 DUP2 MSTORE PUSH1 0x20 ADD PUSH1 0x0 DUP2 MSTORE PUSH1 0x20 ADD PUSH1 0x64 DUP2 MSTORE PUSH1 0x20 ADD PUSH1 0x0 DUP2 MSTORE POP DUP2 MSTORE PUSH1 0x20 ADD PUSH2 0xA8C0 DUP2 MSTORE PUSH1 0x20 ADD PUSH1 0x1 ISZERO ISZERO DUP2 MSTORE POP PUSH1 0x1 PUSH1 0x40 MLOAD PUSH3 0x96F SWAP1 PUSH9 0x49726F6E204D696E65 PUSH1 0xB8 SHL DUP2 MSTORE PUSH1 0x9 ADD SWAP1 JUMP JUMPDEST SWAP1 DUP2 MSTORE PUSH1 0x40 DUP1 MLOAD PUSH1 0x20 SWAP3 DUP2 SWAP1 SUB DUP4 ADD SWAP1 KECCAK256 PUSH1 0x1 PUSH1 0x0 SWAP1 DUP2 MSTORE SWAP3 MSTORE SWAP1 KECCAK256 DUP2 MLOAD DUP2 SWAP1 PUSH3 0x99B SWAP1 DUP3 PUSH3 0x36E9 JUMP JUMPDEST POP PUSH1 0x20 DUP3 ADD MLOAD DUP2 PUSH1 0x1 ADD SSTORE PUSH1 0x40 DUP3 ADD MLOAD DUP2 PUSH1 0x2 ADD PUSH1 0x0 DUP3 ADD MLOAD DUP2 PUSH1 0x0 ADD SSTORE PUSH1 0x20 DUP3 ADD MLOAD DUP2 PUSH1 0x1 ADD SSTORE PUSH1 0x40 DUP3 ADD MLOAD DUP2 PUSH1 0x2 ADD SSTORE PUSH1 0x60 DUP3 ADD MLOAD DUP2 PUSH1 0x3 ADD SSTORE PUSH1 0x80 DUP3 ADD MLOAD DUP2 PUSH1 0x4 ADD SSTORE PUSH1 0xA0 DUP3 ADD MLOAD DUP2 PUSH1 0x5 ADD SSTORE POP POP PUSH1 0x60 DUP3 ADD MLOAD DUP2 PUSH1 0x8 ADD PUSH1 0x0 DUP3 ADD MLOAD DUP2 PUSH1 0x0 ADD SSTORE PUSH1 0x20 DUP3 ADD MLOAD DUP2 PUSH1 0x1 ADD SSTORE PUSH1 0x40 DUP3 ADD MLOAD DUP2 PUSH1 0x2 ADD SSTORE PUSH1 0x60 DUP3 ADD MLOAD DUP2 PUSH1 0x3 ADD SSTORE PUSH1 0x80 DUP3 ADD MLOAD DUP2 PUSH1 0x4 ADD SSTORE PUSH1 0xA0 DUP3 ADD MLOAD DUP2 PUSH1 0x5 ADD SSTORE POP POP PUSH1 0x80 DUP3 ADD MLOAD DUP2 PUSH1 0xE ADD SSTORE PUSH1 0xA0 DUP3 ADD MLOAD DUP2 PUSH1 0xF ADD SSTORE PUSH1 0xC0 DUP3 ADD MLOAD DUP2 PUSH1 0x10 ADD SSTORE PUSH1 0xE0 DUP3 ADD MLOAD DUP2 PUSH1 0x11 ADD SSTORE PUSH2 0x100 DUP3 ADD MLOAD DUP2 PUSH1 0x12 ADD SSTORE PUSH2 0x120 DUP3 ADD MLOAD DUP2 PUSH1 0x13 ADD PUSH1 0x0 DUP3 ADD MLOAD DUP2 PUSH1 0x0 ADD SSTORE PUSH1 0x20 DUP3 ADD MLOAD DUP2 PUSH1 0x1 ADD SSTORE PUSH1 0x40 DUP3 ADD MLOAD DUP2 PUSH1 0x2 ADD SSTORE PUSH1 0x60 DUP3 ADD MLOAD DUP2 PUSH1 0x3 ADD SSTORE PUSH1 0x80 DUP3 ADD MLOAD DUP2 PUSH1 0x4 ADD SSTORE PUSH1 0xA0 DUP3 ADD MLOAD DUP2 PUSH1 0x5 ADD SSTORE POP POP PUSH2 0x140 DUP3 ADD MLOAD DUP2 PUSH1 0x19 ADD SSTORE PUSH2 0x160 DUP3 ADD MLOAD DUP2 PUSH1 0x1A ADD PUSH1 0x0 PUSH2 0x100 EXP DUP2 SLOAD DUP2 PUSH1 0xFF MUL NOT AND SWAP1 DUP4 ISZERO ISZERO MUL OR SWAP1 SSTORE POP SWAP1 POP POP PUSH1 0x40 MLOAD DUP1 PUSH2 0x180 ADD PUSH1 0x40 MSTORE DUP1 PUSH1 0x40 MLOAD DUP1 PUSH1 0x40 ADD PUSH1 0x40 MSTORE DUP1 PUSH1 0x8 DUP2 MSTORE PUSH1 0x20 ADD PUSH8 0x576F726B73686F7 PUSH1 0xC4 SHL DUP2 MSTORE POP DUP2 MSTORE PUSH1 0x20 ADD PUSH1 0x1 DUP2 MSTORE PUSH1 0x20 ADD PUSH1 0x40 MLOAD DUP1 PUSH1 0xC0 ADD PUSH1 0x40 MSTORE DUP1 PUSH1 0x6E DUP2 MSTORE PUSH1 0x20 ADD PUSH1 0x3C DUP2 MSTORE PUSH1 0x20 ADD PUSH1 0x28 DUP2 MSTORE PUSH1 0x20 ADD PUSH1 0x0 DUP2 MSTORE PUSH1 0x20 ADD PUSH1 0x0 DUP2 MSTORE PUSH1 0x20 ADD PUSH1 0x28 DUP2 MSTORE POP DUP2 MSTORE PUSH1 0x20 ADD PUSH3 0xB92 PUSH1 0x40 MLOAD DUP1 PUSH1 0xC0 ADD PUSH1 0x40 MSTORE DUP1 PUSH1 0x6E DUP2 MSTORE PUSH1 0x20 ADD PUSH1 0x3C DUP2 MSTORE PUSH1 0x20 ADD PUSH1 0x28 DUP2 MSTORE PUSH1 0x20 ADD PUSH1 0x0 DUP2 MSTORE PUSH1 0x20 ADD PUSH1 0x0 DUP2 MSTORE PUSH1 0x20 ADD PUSH1 0x28 DUP2 MSTORE POP PUSH3 0x3518 PUSH1 0x20 SHL PUSH1 0x20 SHR JUMP JUMPDEST DUP2 MSTORE PUSH1 0x20 ADD PUSH1 0x5 DUP2 MSTORE PUSH1 0x20 ADD PUSH1 0x0 DUP2 MSTORE PUSH1 0x20 ADD PUSH1 0x3 DUP2 MSTORE PUSH1 0x20 ADD PUSH1 0x0 DUP2 MSTORE PUSH1 0x20 ADD PUSH1 0x0 DUP2 MSTORE PUSH1 0x20 ADD PUSH1 0x40 MLOAD DUP1 PUSH1 0xC0 ADD PUSH1 0x40 MSTORE DUP1 PUSH1 0x0 DUP2 MSTORE PUSH1 0x20 ADD PUSH1 0x0 DUP2 MSTORE PUSH1 0x20 ADD PUSH1 0x0 DUP2 MSTORE PUSH1 0x20 ADD PUSH1 0x64 DUP2 MSTORE PUSH1 0x20 ADD PUSH1 0x0 DUP2 MSTORE PUSH1 0x20 ADD PUSH1 0x0 DUP2 MSTORE POP DUP2 MSTORE PUSH1 0x20 ADD PUSH2 0xA8C0 DUP2 MSTORE PUSH1 0x20 ADD PUSH1 0x1 ISZERO ISZERO DUP2 MSTORE POP PUSH1 0x1 PUSH1 0x40 MLOAD PUSH3 0xC1F SWAP1 PUSH8 0x576F726B73686F7 PUSH1 0xC4 SHL DUP2 MSTORE PUSH1 0x8 ADD SWAP1 JUMP JUMPDEST SWAP1 DUP2 MSTORE PUSH1 0x40 DUP1 MLOAD PUSH1 0x20 SWAP3 DUP2 SWAP1 SUB DUP4 ADD SWAP1 KECCAK256 PUSH1 0x1 PUSH1 0x0 SWAP1 DUP2 MSTORE SWAP3 MSTORE SWAP1 KECCAK256 DUP2 MLOAD DUP2 SWAP1 PUSH3 0xC4B SWAP1 DUP3 PUSH3 0x36E9 JUMP JUMPDEST POP PUSH1 0x20 DUP3 ADD MLOAD DUP2 PUSH1 0x1 ADD SSTORE PUSH1 0x40 DUP3 ADD MLOAD DUP2 PUSH1 0x2 ADD PUSH1 0x0 DUP3 ADD MLOAD DUP2 PUSH1 0x0 ADD SSTORE PUSH1 0x20 DUP3 ADD MLOAD DUP2 PUSH1 0x1 ADD SSTORE PUSH1 0x40 DUP3 ADD MLOAD DUP2 PUSH1 0x2 ADD SSTORE PUSH1 0x60 DUP3 ADD MLOAD DUP2 PUSH1 0x3 ADD SSTORE PUSH1 0x80 DUP3 ADD MLOAD DUP2 PUSH1 0x4 ADD SSTORE PUSH1 0xA0 DUP3 ADD MLOAD DUP2 PUSH1 0x5 ADD SSTORE POP POP PUSH1 0x60 DUP3 ADD MLOAD DUP2 PUSH1 0x8 ADD PUSH1 0x0 DUP3 ADD MLOAD DUP2 PUSH1 0x0 ADD SSTORE PUSH1 0x20 DUP3 ADD MLOAD DUP2 PUSH1 0x1 ADD SSTORE PUSH1 0x40 DUP3 ADD MLOAD DUP2 PUSH1 0x2 ADD SSTORE PUSH1 0x60 DUP3 ADD MLOAD DUP2 PUSH1 0x3 ADD SSTORE PUSH1 0x80 DUP3 ADD MLOAD DUP2 PUSH1 0x4 ADD SSTORE PUSH1 0xA0 DUP3 ADD MLOAD DUP2 PUSH1 0x5 ADD SSTORE POP POP PUSH1 0x80 DUP3 ADD MLOAD DUP2 PUSH1 0xE ADD SSTORE PUSH1 0xA0 DUP3 ADD MLOAD DUP2 PUSH1 0xF ADD SSTORE PUSH1 0xC0 DUP3 ADD MLOAD DUP2 PUSH1 0x10 ADD SSTORE PUSH1 0xE0 DUP3 ADD MLOAD DUP2 PUSH1 0x11 ADD SSTORE PUSH2 0x100 DUP3 ADD MLOAD DUP2 PUSH1 0x12 ADD SSTORE PUSH2 0x120 DUP3 ADD MLOAD DUP2 PUSH1 0x13 ADD PUSH1 0x0 DUP3 ADD MLOAD DUP2 PUSH1 0x0 ADD SSTORE PUSH1 0x20 DUP3 ADD MLOAD DUP2 PUSH1 0x1 ADD SSTORE PUSH1 0x40 DUP3 ADD MLOAD DUP2 PUSH1 0x2 ADD SSTORE PUSH1 0x60 DUP3 ADD MLOAD DUP2 PUSH1 0x3 ADD SSTORE PUSH1 0x80 DUP3 ADD MLOAD DUP2 PUSH1 0x4 ADD SSTORE PUSH1 0xA0 DUP3 ADD MLOAD DUP2 PUSH1 0x5 ADD SSTORE POP POP PUSH2 0x140 DUP3 ADD MLOAD DUP2 PUSH1 0x19 ADD SSTORE PUSH2 0x160 DUP3 ADD MLOAD DUP2 PUSH1 0x1A ADD PUSH1 0x0 PUSH2 0x100 EXP DUP2 SLOAD DUP2 PUSH1 0xFF MUL NOT AND SWAP1 DUP4 ISZERO ISZERO MUL OR SWAP1 SSTORE POP SWAP1 POP POP PUSH1 0x40 MLOAD DUP1 PUSH2 0x180 ADD PUSH1 0x40 MSTORE DUP1 PUSH1 0x40 MLOAD DUP1 PUSH1 0x40 ADD PUSH1 0x40 MSTORE DUP1 PUSH1 0xB DUP2 MSTORE PUSH1 0x20 ADD PUSH11 0x4D61726B6574706C616365 PUSH1 0xA8 SHL DUP2 MSTORE POP DUP2 MSTORE PUSH1 0x20 ADD PUSH1 0x1 DUP2 MSTORE PUSH1 0x20 ADD PUSH1 0x40 MLOAD DUP1 PUSH1 0xC0 ADD PUSH1 0x40 MSTORE DUP1 PUSH1 0x78 DUP2 MSTORE PUSH1 0x20 ADD PUSH1 0x32 DUP2 MSTORE PUSH1 0x20 ADD PUSH1 0x32 DUP2 MSTORE PUSH1 0x20 ADD PUSH1 0x0 DUP2 MSTORE PUSH1 0x20 ADD PUSH1 0x0 DUP2 MSTORE PUSH1 0x20 ADD PUSH1 0x32 DUP2 MSTORE POP DUP2 MSTORE PUSH1 0x20 ADD PUSH3 0xE45 PUSH1 0x40 MLOAD DUP1 PUSH1 0xC0 ADD PUSH1 0x40 MSTORE DUP1 PUSH1 0x78 DUP2 MSTORE PUSH1 0x20 ADD PUSH1 0x32 DUP2 MSTORE PUSH1 0x20 ADD PUSH1 0x32 DUP2 MSTORE PUSH1 0x20 ADD PUSH1 0x0 DUP2 MSTORE PUSH1 0x20 ADD PUSH1 0x0 DUP2 MSTORE PUSH1 0x20 ADD PUSH1 0x32 DUP2 MSTORE POP PUSH3 0x3518 PUSH1 0x20 SHL PUSH1 0x20 SHR JUMP JUMPDEST DUP2 MSTORE PUSH1 0x20 ADD PUSH1 0x0 DUP2 MSTORE PUSH1 0x20 ADD PUSH1 0x3 DUP2 MSTORE PUSH1 0x20 ADD PUSH1 0x0 DUP2 MSTORE PUSH1 0x20 ADD PUSH1 0x2 DUP2 MSTORE PUSH1 0x20 ADD PUSH1 0x0 DUP2 MSTORE PUSH1 0x20 ADD PUSH1 0x40 MLOAD DUP1 PUSH1 0xC0 ADD PUSH1 0x40 MSTORE DUP1 PUSH1 0x0 DUP2 MSTORE PUSH1 0x20 ADD PUSH1 0x0 DUP2 MSTORE PUSH1 0x20 ADD PUSH1 0x0 DUP2 MSTORE PUSH1 0x20 ADD PUSH1 0x0 DUP2 MSTORE PUSH1 0x20 ADD PUSH1 0x0 DUP2 MSTORE PUSH1 0x20 ADD PUSH1 0x64 DUP2 MSTORE POP DUP2 MSTORE PUSH1 0x20 ADD PUSH2 0xA8C0 DUP2 MSTORE PUSH1 0x20 ADD PUSH1 0x1 ISZERO ISZERO DUP2 MSTORE POP PUSH1 0x1 PUSH1 0x40 MLOAD PUSH3 0xED5 SWAP1 PUSH11 0x4D61726B6574706C616365 PUSH1 0xA8 SHL DUP2 MSTORE PUSH1 0xB ADD SWAP1 JUMP JUMPDEST SWAP1 DUP2 MSTORE PUSH1 0x40 DUP1 MLOAD PUSH1 0x20 SWAP3 DUP2 SWAP1 SUB DUP4 ADD SWAP1 KECCAK256 PUSH1 0x1 PUSH1 0x0 SWAP1 DUP2 MSTORE SWAP3 MSTORE SWAP1 KECCAK256 DUP2 MLOAD DUP2 SWAP1 PUSH3 0xF01 SWAP1 DUP3 PUSH3 0x36E9 JUMP JUMPDEST POP PUSH1 0x20 DUP3 ADD MLOAD DUP2 PUSH1 0x1 ADD SSTORE PUSH1 0x40 DUP3 ADD MLOAD DUP2 PUSH1 0x2 ADD PUSH1 0x0 DUP3 ADD MLOAD DUP2 PUSH1 0x0 ADD SSTORE PUSH1 0x20 DUP3 ADD MLOAD DUP2 PUSH1 0x1 ADD SSTORE PUSH1 0x40 DUP3 ADD MLOAD DUP2 PUSH1 0x2 ADD SSTORE PUSH1 0x60 DUP3 ADD MLOAD DUP2 PUSH1 0x3 ADD SSTORE PUSH1 0x80 DUP3 ADD MLOAD DUP2 PUSH1 0x4 ADD SSTORE PUSH1 0xA0 DUP3 ADD MLOAD DUP2 PUSH1 0x5 ADD SSTORE POP POP PUSH1 0x60 DUP3 ADD MLOAD DUP2 PUSH1 0x8 ADD PUSH1 0x0 DUP3 ADD MLOAD DUP2 PUSH1 0x0 ADD SSTORE PUSH1 0x20 DUP3 ADD MLOAD DUP2 PUSH1 0x1 ADD SSTORE PUSH1 0x40 DUP3 ADD MLOAD DUP2 PUSH1 0x2 ADD SSTORE PUSH1 0x60 DUP3 ADD MLOAD DUP2 PUSH1 0x3 ADD SSTORE PUSH1 0x80 DUP3 ADD MLOAD DUP2 PUSH1 0x4 ADD SSTORE PUSH1 0xA0 DUP3 ADD MLOAD DUP2 PUSH1 0x5 ADD SSTORE POP POP PUSH1 0x80 DUP3 ADD MLOAD DUP2 PUSH1 0xE ADD SSTORE PUSH1 0xA0 DUP3 ADD MLOAD DUP2 PUSH1 0xF ADD SSTORE PUSH1 0xC0 DUP3 ADD MLOAD DUP2 PUSH1 0x10 ADD SSTORE PUSH1 0xE0 DUP3 ADD MLOAD DUP2 PUSH1 0x11 ADD SSTORE PUSH2 0x100 DUP3 ADD MLOAD DUP2 PUSH1 0x12 ADD SSTORE PUSH2 0x120 DUP3 ADD MLOAD DUP2 PUSH1 0x13 ADD PUSH1 0x0 DUP3 ADD MLOAD DUP2 PUSH1 0x0 ADD SSTORE PUSH1 0x20 DUP3 ADD MLOAD DUP2 PUSH1 0x1 ADD SSTORE PUSH1 0x40 DUP3 ADD MLOAD DUP2 PUSH1 0x2 ADD SSTORE PUSH1 0x60 DUP3 ADD MLOAD DUP2 PUSH1 0x3 ADD SSTORE PUSH1 0x80 DUP3 ADD MLOAD DUP2 PUSH1 0x4 ADD SSTORE PUSH1 0xA0 DUP3 ADD MLOAD DUP2 PUSH1 0x5 ADD SSTORE POP POP PUSH2 0x140 DUP3 ADD MLOAD DUP2 PUSH1 0x19 ADD SSTORE PUSH2 0x160 DUP3 ADD MLOAD DUP2 PUSH1 0x1A ADD PUSH1 0x0 PUSH2 0x100 EXP DUP2 SLOAD DUP2 PUSH1 0xFF MUL NOT AND SWAP1 DUP4 ISZERO ISZERO MUL OR SWAP1 SSTORE POP SWAP1 POP POP PUSH1 0x40 MLOAD DUP1 PUSH2 0x180 ADD PUSH1 0x40 MSTORE DUP1 PUSH1 0x40 MLOAD DUP1 PUSH1 0x40 ADD PUSH1 0x40 MSTORE DUP1 PUSH1 0x8 DUP2 MSTORE PUSH1 0x20 ADD PUSH8 0x4261727261636B73 PUSH1 0xC0 SHL DUP2 MSTORE POP DUP2 MSTORE PUSH1 0x20 ADD PUSH1 0x1 DUP2 MSTORE PUSH1 0x20 ADD PUSH1 0x40 MLOAD DUP1 PUSH1 0xC0 ADD PUSH1 0x40 MSTORE DUP1 PUSH1 0x82 DUP2 MSTORE PUSH1 0x20 ADD PUSH1 0x46 DUP2 MSTORE PUSH1 0x20 ADD PUSH1 0x3C DUP2 MSTORE PUSH1 0x20 ADD PUSH1 0x0 DUP2 MSTORE PUSH1 0x20 ADD PUSH1 0x0 DUP2 MSTORE PUSH1 0x20 ADD PUSH1 0x3C DUP2 MSTORE POP DUP2 MSTORE PUSH1 0x20 ADD PUSH3 0x10F8 PUSH1 0x40 MLOAD DUP1 PUSH1 0xC0 ADD PUSH1 0x40 MSTORE DUP1 PUSH1 0x82 DUP2 MSTORE PUSH1 0x20 ADD PUSH1 0x46 DUP2 MSTORE PUSH1 0x20 ADD PUSH1 0x3C DUP2 MSTORE PUSH1 0x20 ADD PUSH1 0x0 DUP2 MSTORE PUSH1 0x20 ADD PUSH1 0x0 DUP2 MSTORE PUSH1 0x20 ADD PUSH1 0x3C DUP2 MSTORE POP PUSH3 0x3518 PUSH1 0x20 SHL PUSH1 0x20 SHR JUMP JUMPDEST DUP2 MSTORE PUSH1 0x20 ADD PUSH1 0x0 DUP2 MSTORE PUSH1 0x20 ADD PUSH1 0x0 DUP2 MSTORE PUSH1 0x20 ADD PUSH1 0x0 DUP2 MSTORE PUSH1 0x20 ADD PUSH1 0x0 DUP2 MSTORE PUSH1 0x20 ADD PUSH1 0x5 DUP2 MSTORE PUSH1 0x20 ADD PUSH1 0x40 MLOAD DUP1 PUSH1 0xC0 ADD PUSH1 0x40 MSTORE DUP1 PUSH1 0x0 DUP2 MSTORE PUSH1 0x20 ADD PUSH1 0x0 DUP2 MSTORE PUSH1 0x20 ADD PUSH1 0x0 DUP2 MSTORE PUSH1 0x20 ADD PUSH1 0x0 DUP2 MSTORE PUSH1 0x20 ADD PUSH1 0x0 DUP2 MSTORE PUSH1 0x20 ADD PUSH1 0x0 DUP2 MSTORE POP DUP2 MSTORE PUSH1 0x20 ADD PUSH2 0xA8C0 DUP2 MSTORE PUSH1 0x20 ADD PUSH1 0x1 ISZERO ISZERO DUP2 MSTORE POP PUSH1 0x1 PUSH1 0x40 MLOAD PUSH3 0x1185 SWAP1 PUSH8 0x4261727261636B73 PUSH1 0xC0 SHL DUP2 MSTORE PUSH1 0x8 ADD SWAP1 JUMP JUMPDEST SWAP1 DUP2 MSTORE PUSH1 0x40 DUP1 MLOAD PUSH1 0x20 SWAP3 DUP2 SWAP1 SUB DUP4 ADD SWAP1 KECCAK256 PUSH1 0x1 PUSH1 0x0 SWAP1 DUP2 MSTORE SWAP3 MSTORE SWAP1 KECCAK256 DUP2 MLOAD DUP2 SWAP1 PUSH3 0x11B1 SWAP1 DUP3 PUSH3 0x36E9 JUMP JUMPDEST POP PUSH1 0x20 DUP3 ADD MLOAD DUP2 PUSH1 0x1 ADD SSTORE PUSH1 0x40 DUP3 ADD MLOAD DUP2 PUSH1 0x2 ADD PUSH1 0x0 DUP3 ADD MLOAD DUP2 PUSH1 0x0 ADD SSTORE PUSH1 0x20 DUP3 ADD MLOAD DUP2 PUSH1 0x1 ADD SSTORE PUSH1 0x40 DUP3 ADD MLOAD DUP2 PUSH1 0x2 ADD SSTORE PUSH1 0x60 DUP3 ADD MLOAD DUP2 PUSH1 0x3 ADD SSTORE PUSH1 0x80 DUP3 ADD MLOAD DUP2 PUSH1 0x4 ADD SSTORE PUSH1 0xA0 DUP3 ADD MLOAD DUP2 PUSH1 0x5 ADD SSTORE POP POP PUSH1 0x60 DUP3 ADD MLOAD DUP2 PUSH1 0x8 ADD PUSH1 0x0 DUP3 ADD MLOAD DUP2 PUSH1 0x0 ADD SSTORE PUSH1 0x20 DUP3 ADD MLOAD DUP2 PUSH1 0x1 ADD SSTORE PUSH1 0x40 DUP3 ADD MLOAD DUP2 PUSH1 0x2 ADD SSTORE PUSH1 0x60 DUP3 ADD MLOAD DUP2 PUSH1 0x3 ADD SSTORE PUSH1 0x80 DUP3 ADD MLOAD DUP2 PUSH1 0x4 ADD SSTORE PUSH1 0xA0 DUP3 ADD MLOAD DUP2 PUSH1 0x5 ADD SSTORE POP POP PUSH1 0x80 DUP3 ADD MLOAD DUP2 PUSH1 0xE ADD SSTORE PUSH1 0xA0 DUP3 ADD MLOAD DUP2 PUSH1 0xF ADD SSTORE PUSH1 0xC0 DUP3 ADD MLOAD DUP2 PUSH1 0x10 ADD SSTORE PUSH1 0xE0 DUP3 ADD MLOAD DUP2 PUSH1 0x11 ADD SSTORE PUSH2 0x100 DUP3 ADD MLOAD DUP2 PUSH1 0x12 ADD SSTORE PUSH2 0x120 DUP3 ADD MLOAD DUP2 PUSH1 0x13 ADD PUSH1 0x0 DUP3 ADD MLOAD DUP2 PUSH1 0x0 ADD SSTORE PUSH1 0x20 DUP3 ADD MLOAD DUP2 PUSH1 0x1 ADD SSTORE PUSH1 0x40 DUP3 ADD MLOAD DUP2 PUSH1 0x2 ADD SSTORE PUSH1 0x60 DUP3 ADD MLOAD DUP2 PUSH1 0x3 ADD SSTORE PUSH1 0x80 DUP3 ADD MLOAD DUP2 PUSH1 0x4 ADD SSTORE PUSH1 0xA0 DUP3 ADD MLOAD DUP2 PUSH1 0x5 ADD SSTORE POP POP PUSH2 0x140 DUP3 ADD MLOAD DUP2 PUSH1 0x19 ADD SSTORE PUSH2 0x160 DUP3 ADD MLOAD DUP2 PUSH1 0x1A ADD PUSH1 0x0 PUSH2 0x100 EXP DUP2 SLOAD DUP2 PUSH1 0xFF MUL NOT AND SWAP1 DUP4 ISZERO ISZERO MUL OR SWAP1 SSTORE POP SWAP1 POP POP PUSH1 0x40 MLOAD DUP1 PUSH2 0x180 ADD PUSH1 0x40 MSTORE DUP1 PUSH1 0x40 MLOAD DUP1 PUSH1 0x40 ADD PUSH1 0x40 MSTORE DUP1 PUSH1 0x6 DUP2 MSTORE PUSH1 0x20 ADD PUSH6 0x54656D706C65 PUSH1 0xD0 SHL DUP2 MSTORE POP DUP2 MSTORE PUSH1 0x20 ADD PUSH1 0x1 DUP2 MSTORE PUSH1 0x20 ADD PUSH1 0x40 MLOAD DUP1 PUSH1 0xC0 ADD PUSH1 0x40 MSTORE DUP1 PUSH1 0x8C DUP2 MSTORE PUSH1 0x20 ADD PUSH1 0x3C DUP2 MSTORE PUSH1 0x20 ADD PUSH1 0x46 DUP2 MSTORE PUSH1 0x20 ADD PUSH1 0x0 DUP2 MSTORE PUSH1 0x20 ADD PUSH1 0x0 DUP2 MSTORE PUSH1 0x20 ADD PUSH1 0x46 DUP2 MSTORE POP DUP2 MSTORE PUSH1 0x20 ADD PUSH3 0x13A6 PUSH1 0x40 MLOAD DUP1 PUSH1 0xC0 ADD PUSH1 0x40 MSTORE DUP1 PUSH1 0x8C DUP2 MSTORE PUSH1 0x20 ADD PUSH1 0x3C DUP2 MSTORE PUSH1 0x20 ADD PUSH1 0x46 DUP2 MSTORE PUSH1 0x20 ADD PUSH1 0x0 DUP2 MSTORE PUSH1 0x20 ADD PUSH1 0x0 DUP2 MSTORE PUSH1 0x20 ADD PUSH1 0x46 DUP2 MSTORE POP PUSH3 0x3518 PUSH1 0x20 SHL PUSH1 0x20 SHR JUMP JUMPDEST DUP2 MSTORE PUSH1 0x20 ADD PUSH1 0x0 DUP2 MSTORE PUSH1 0x20 ADD PUSH1 0x5 DUP2 MSTORE PUSH1 0x20 ADD PUSH1 0x0 DUP2 MSTORE PUSH1 0x20 ADD PUSH1 0x7 DUP2 MSTORE PUSH1 0x20 ADD PUSH1 0x0 DUP2 MSTORE PUSH1 0x20 ADD PUSH1 0x40 MLOAD DUP1 PUSH1 0xC0 ADD PUSH1 0x40 MSTORE DUP1 PUSH1 0x0 DUP2 MSTORE PUSH1 0x20 ADD PUSH1 0x0 DUP2 MSTORE PUSH1 0x20 ADD PUSH1 0x0 DUP2 MSTORE PUSH1 0x20 ADD PUSH1 0x0 DUP2 MSTORE PUSH1 0x20 ADD PUSH1 0x0 DUP2 MSTORE PUSH1 0x20 ADD PUSH1 0x0 DUP2 MSTORE POP DUP2 MSTORE PUSH1 0x20 ADD PUSH2 0xA8C0 DUP2 MSTORE PUSH1 0x20 ADD PUSH1 0x1 ISZERO ISZERO DUP2 MSTORE POP PUSH1 0x1 PUSH1 0x40 MLOAD PUSH3 0x1431 SWAP1 PUSH6 0x54656D706C65 PUSH1 0xD0 SHL DUP2 MSTORE PUSH1 0x6 ADD SWAP1 JUMP JUMPDEST SWAP1 DUP2 MSTORE PUSH1 0x40 DUP1 MLOAD PUSH1 0x20 SWAP3 DUP2 SWAP1 SUB DUP4 ADD SWAP1 KECCAK256 PUSH1 0x1 PUSH1 0x0 SWAP1 DUP2 MSTORE SWAP3 MSTORE SWAP1 KECCAK256 DUP2 MLOAD DUP2 SWAP1 PUSH3 0x145D SWAP1 DUP3 PUSH3 0x36E9 JUMP JUMPDEST POP PUSH1 0x20 DUP3 ADD MLOAD DUP2 PUSH1 0x1 ADD SSTORE PUSH1 0x40 DUP3 ADD MLOAD DUP2 PUSH1 0x2 ADD PUSH1 0x0 DUP3 ADD MLOAD DUP2 PUSH1 0x0 ADD SSTORE PUSH1 0x20 DUP3 ADD MLOAD DUP2 PUSH1 0x1 ADD SSTORE PUSH1 0x40 DUP3 ADD MLOAD DUP2 PUSH1 0x2 ADD SSTORE PUSH1 0x60 DUP3 ADD MLOAD DUP2 PUSH1 0x3 ADD SSTORE PUSH1 0x80 DUP3 ADD MLOAD DUP2 PUSH1 0x4 ADD SSTORE PUSH1 0xA0 DUP3 ADD MLOAD DUP2 PUSH1 0x5 ADD SSTORE POP POP PUSH1 0x60 DUP3 ADD MLOAD DUP2 PUSH1 0x8 ADD PUSH1 0x0 DUP3 ADD MLOAD DUP2 PUSH1 0x0 ADD SSTORE PUSH1 0x20 DUP3 ADD MLOAD DUP2 PUSH1 0x1 ADD SSTORE PUSH1 0x40 DUP3 ADD MLOAD DUP2 PUSH1 0x2 ADD SSTORE PUSH1 0x60 DUP3 ADD MLOAD DUP2 PUSH1 0x3 ADD SSTORE PUSH1 0x80 DUP3 ADD MLOAD DUP2 PUSH1 0x4 ADD SSTORE PUSH1 0xA0 DUP3 ADD MLOAD DUP2 PUSH1 0x5 ADD SSTORE POP POP PUSH1 0x80 DUP3 ADD MLOAD DUP2 PUSH1 0xE ADD SSTORE PUSH1 0xA0 DUP3 ADD MLOAD DUP2 PUSH1 0xF ADD SSTORE PUSH1 0xC0 DUP3 ADD MLOAD DUP2 PUSH1 0x10 ADD SSTORE PUSH1 0xE0 DUP3 ADD MLOAD DUP2 PUSH1 0x11 ADD SSTORE PUSH2 0x100 DUP3 ADD MLOAD DUP2 PUSH1 0x12 ADD SSTORE PUSH2 0x120 DUP3 ADD MLOAD DUP2 PUSH1 0x13 ADD PUSH1 0x0 DUP3 ADD MLOAD DUP2 PUSH1 0x0 ADD SSTORE PUSH1 0x20 DUP3 ADD MLOAD DUP2 PUSH1 0x1 ADD SSTORE PUSH1 0x40 DUP3 ADD MLOAD DUP2 PUSH1 0x2 ADD SSTORE PUSH1 0x60 DUP3 ADD MLOAD DUP2 PUSH1 0x3 ADD SSTORE PUSH1 0x80 DUP3 ADD MLOAD DUP2 PUSH1 0x4 ADD SSTORE PUSH1 0xA0 DUP3 ADD MLOAD DUP2 PUSH1 0x5 ADD SSTORE POP POP PUSH2 0x140 DUP3 ADD MLOAD DUP2 PUSH1 0x19 ADD SSTORE PUSH2 0x160 DUP3 ADD MLOAD DUP2 PUSH1 0x1A ADD PUSH1 0x0 PUSH2 0x100 EXP DUP2 SLOAD DUP2 PUSH1 0xFF MUL NOT AND SWAP1 DUP4 ISZERO ISZERO MUL OR SWAP1 SSTORE POP SWAP1 POP POP PUSH1 0x40 MLOAD DUP1 PUSH2 0x180 ADD PUSH1 0x40 MSTORE DUP1 PUSH1 0x40 MLOAD DUP1 PUSH1 0x40 ADD PUSH1 0x40 MSTORE DUP1 PUSH1 0x7 DUP2 MSTORE PUSH1 0x20 ADD PUSH7 0x41636164656D79 PUSH1 0xC8 SHL DUP2 MSTORE POP DUP2 MSTORE PUSH1 0x20 ADD PUSH1 0x1 DUP2 MSTORE PUSH1 0x20 ADD PUSH1 0x40 MLOAD DUP1 PUSH1 0xC0 ADD PUSH1 0x40 MSTORE DUP1 PUSH1 0x96 DUP2 MSTORE PUSH1 0x20 ADD PUSH1 0x50 DUP2 MSTORE PUSH1 0x20 ADD PUSH1 0x32 DUP2 MSTORE PUSH1 0x20 ADD PUSH1 0x0 DUP2 MSTORE PUSH1 0x20 ADD PUSH1 0x0 DUP2 MSTORE PUSH1 0x20 ADD PUSH1 0x50 DUP2 MSTORE POP DUP2 MSTORE PUSH1 0x20 ADD PUSH3 0x1653 PUSH1 0x40 MLOAD DUP1 PUSH1 0xC0 ADD PUSH1 0x40 MSTORE DUP1 PUSH1 0x96 DUP2 MSTORE PUSH1 0x20 ADD PUSH1 0x50 DUP2 MSTORE PUSH1 0x20 ADD PUSH1 0x32 DUP2 MSTORE PUSH1 0x20 ADD PUSH1 0x0 DUP2 MSTORE PUSH1 0x20 ADD PUSH1 0x0 DUP2 MSTORE PUSH1 0x20 ADD PUSH1 0x50 DUP2 MSTORE POP PUSH3 0x3518 PUSH1 0x20 SHL PUSH1 0x20 SHR JUMP JUMPDEST DUP2 MSTORE PUSH1 0x20 ADD PUSH1 0x5 DUP2 MSTORE PUSH1 0x20 ADD PUSH1 0x2 DUP2 MSTORE PUSH1 0x20 ADD PUSH1 0x5 DUP2 MSTORE PUSH1 0x20 ADD PUSH1 0x0 DUP2 MSTORE PUSH1 0x20 ADD PUSH1 0x0 DUP2 MSTORE PUSH1 0x20 ADD PUSH1 0x40 MLOAD DUP1 PUSH1 0xC0 ADD PUSH1 0x40 MSTORE DUP1 PUSH1 0x0 DUP2 MSTORE PUSH1 0x20 ADD PUSH1 0x0 DUP2 MSTORE PUSH1 0x20 ADD PUSH1 0x0 DUP2 MSTORE PUSH1 0x20 ADD PUSH1 0x0 DUP2 MSTORE PUSH1 0x20 ADD PUSH1 0x0 DUP2 MSTORE PUSH1 0x20 ADD PUSH1 0x0 DUP2 MSTORE POP DUP2 MSTORE PUSH1 0x20 ADD PUSH2 0xA8C0 DUP2 MSTORE PUSH1 0x20 ADD PUSH1 0x1 ISZERO ISZERO DUP2 MSTORE POP PUSH1 0x1 PUSH1 0x40 MLOAD PUSH3 0x16DF SWAP1 PUSH7 0x41636164656D79 PUSH1 0xC8 SHL DUP2 MSTORE PUSH1 0x7 ADD SWAP1 JUMP JUMPDEST SWAP1 DUP2 MSTORE PUSH1 0x40 DUP1 MLOAD PUSH1 0x20 SWAP3 DUP2 SWAP1 SUB DUP4 ADD SWAP1 KECCAK256 PUSH1 0x1 PUSH1 0x0 SWAP1 DUP2 MSTORE SWAP3 MSTORE SWAP1 KECCAK256 DUP2 MLOAD DUP2 SWAP1 PUSH3 0x170B SWAP1 DUP3 PUSH3 0x36E9 JUMP JUMPDEST POP PUSH1 0x20 DUP3 ADD MLOAD DUP2 PUSH1 0x1 ADD SSTORE PUSH1 0x40 DUP3 ADD MLOAD DUP2 PUSH1 0x2 ADD PUSH1 0x0 DUP3 ADD MLOAD DUP2 PUSH1 0x0 ADD SSTORE PUSH1 0x20 DUP3 ADD MLOAD DUP2 PUSH1 0x1 ADD SSTORE PUSH1 0x40 DUP3 ADD MLOAD DUP2 PUSH1 0x2 ADD SSTORE PUSH1 0x60 DUP3 ADD MLOAD DUP2 PUSH1 0x3 ADD SSTORE PUSH1 0x80 DUP3 ADD MLOAD DUP2 PUSH1 0x4 ADD SSTORE PUSH1 0xA0 DUP3 ADD MLOAD DUP2 PUSH1 0x5 ADD SSTORE POP POP PUSH1 0x60 DUP3 ADD MLOAD DUP2 PUSH1 0x8 ADD PUSH1 0x0 DUP3 ADD MLOAD DUP2 PUSH1 0x0 ADD SSTORE PUSH1 0x20 DUP3 ADD MLOAD DUP2 PUSH1 0x1 ADD SSTORE PUSH1 0x40 DUP3 ADD MLOAD DUP2 PUSH1 0x2 ADD SSTORE PUSH1 0x60 DUP3 ADD MLOAD DUP2 PUSH1 0x3 ADD SSTORE PUSH1 0x80 DUP3 ADD MLOAD DUP2 PUSH1 0x4 ADD SSTORE PUSH1 0xA0 DUP3 ADD MLOAD DUP2 PUSH1 0x5 ADD SSTORE POP POP PUSH1 0x80 DUP3 ADD MLOAD DUP2 PUSH1 0xE ADD SSTORE PUSH1 0xA0 DUP3 ADD MLOAD DUP2 PUSH1 0xF ADD SSTORE PUSH1 0xC0 DUP3 ADD MLOAD DUP2 PUSH1 0x10 ADD SSTORE PUSH1 0xE0 DUP3 ADD MLOAD DUP2 PUSH1 0x11 ADD SSTORE PUSH2 0x100 DUP3 ADD MLOAD DUP2 PUSH1 0x12 ADD SSTORE PUSH2 0x120 DUP3 ADD MLOAD DUP2 PUSH1 0x13 ADD PUSH1 0x0 DUP3 ADD MLOAD DUP2 PUSH1 0x0 ADD SSTORE PUSH1 0x20 DUP3 ADD MLOAD DUP2 PUSH1 0x1 ADD SSTORE PUSH1 0x40 DUP3 ADD MLOAD DUP2 PUSH1 0x2 ADD SSTORE PUSH1 0x60 DUP3 ADD MLOAD DUP2 PUSH1 0x3 ADD SSTORE PUSH1 0x80 DUP3 ADD MLOAD DUP2 PUSH1 0x4 ADD SSTORE PUSH1 0xA0 DUP3 ADD MLOAD DUP2 PUSH1 0x5 ADD SSTORE POP POP PUSH2 0x140 DUP3 ADD MLOAD DUP2 PUSH1 0x19 ADD SSTORE PUSH2 0x160 DUP3 ADD MLOAD DUP2 PUSH1 0x1A ADD PUSH1 0x0 PUSH2 0x100 EXP DUP2 SLOAD DUP2 PUSH1 0xFF MUL NOT AND SWAP1 DUP4 ISZERO ISZERO MUL OR SWAP1 SSTORE POP SWAP1 POP POP PUSH1 0x40 MLOAD DUP1 PUSH2 0x180 ADD PUSH1 0x40 MSTORE DUP1 PUSH1 0x40 MLOAD DUP1 PUSH1 0x40 ADD PUSH1 0x40 MSTORE DUP1 PUSH1 0x7 DUP2 MSTORE PUSH1 0x20 ADD PUSH7 0x537461626C6573 PUSH1 0xC8 SHL DUP2 MSTORE POP DUP2 MSTORE PUSH1 0x20 ADD PUSH1 0x1 DUP2 MSTORE PUSH1 0x20 ADD PUSH1 0x40 MLOAD DUP1 PUSH1 0xC0 ADD PUSH1 0x40 MSTORE DUP1 PUSH1 0xA0 DUP2 MSTORE PUSH1 0x20 ADD PUSH1 0x5A DUP2 MSTORE PUSH1 0x20 ADD PUSH1 0x50 DUP2 MSTORE PUSH1 0x20 ADD PUSH1 0x0 DUP2 MSTORE PUSH1 0x20 ADD PUSH1 0x0 DUP2 MSTORE PUSH1 0x20 ADD PUSH1 0x5A DUP2 MSTORE POP DUP2 MSTORE PUSH1 0x20 ADD PUSH3 0x1901 PUSH1 0x40 MLOAD DUP1 PUSH1 0xC0 ADD PUSH1 0x40 MSTORE DUP1 PUSH1 0xA0 DUP2 MSTORE PUSH1 0x20 ADD PUSH1 0x5A DUP2 MSTORE PUSH1 0x20 ADD PUSH1 0x50 DUP2 MSTORE PUSH1 0x20 ADD PUSH1 0x0 DUP2 MSTORE PUSH1 0x20 ADD PUSH1 0x0 DUP2 MSTORE PUSH1 0x20 ADD PUSH1 0x5A DUP2 MSTORE POP PUSH3 0x3518 PUSH1 0x20 SHL PUSH1 0x20 SHR JUMP JUMPDEST DUP2 MSTORE PUSH1 0x20 ADD PUSH1 0x0 DUP2 MSTORE PUSH1 0x20 ADD PUSH1 0x0 DUP2 MSTORE PUSH1 0x20 ADD PUSH1 0x0 DUP2 MSTORE PUSH1 0x20 ADD PUSH1 0x0 DUP2 MSTORE PUSH1 0x20 ADD PUSH1 0x3 DUP2 MSTORE PUSH1 0x20 ADD PUSH1 0x40 MLOAD DUP1 PUSH1 0xC0 ADD PUSH1 0x40 MSTORE DUP1 PUSH1 0x0 DUP2 MSTORE PUSH1 0x20 ADD PUSH1 0x0 DUP2 MSTORE PUSH1 0x20 ADD PUSH1 0x0 DUP2 MSTORE PUSH1 0x20 ADD PUSH1 0x0 DUP2 MSTORE PUSH1 0x20 ADD PUSH1 0x0 DUP2 MSTORE PUSH1 0x20 ADD PUSH1 0x0 DUP2 MSTORE POP DUP2 MSTORE PUSH1 0x20 ADD PUSH2 0xA8C0 DUP2 MSTORE PUSH1 0x20 ADD PUSH1 0x1 ISZERO ISZERO DUP2 MSTORE POP PUSH1 0x1 PUSH1 0x40 MLOAD PUSH3 0x198D SWAP1 PUSH7 0x537461626C6573 PUSH1 0xC8 SHL DUP2 MSTORE PUSH1 0x7 ADD SWAP1 JUMP JUMPDEST SWAP1 DUP2 MSTORE PUSH1 0x40 DUP1 MLOAD PUSH1 0x20 SWAP3 DUP2 SWAP1 SUB DUP4 ADD SWAP1 KECCAK256 PUSH1 0x1 PUSH1 0x0 SWAP1 DUP2 MSTORE SWAP3 MSTORE SWAP1 KECCAK256 DUP2 MLOAD DUP2 SWAP1 PUSH3 0x19B9 SWAP1 DUP3 PUSH3 0x36E9 JUMP JUMPDEST POP PUSH1 0x20 DUP3 ADD MLOAD DUP2 PUSH1 0x1 ADD SSTORE PUSH1 0x40 DUP3 ADD MLOAD DUP2 PUSH1 0x2 ADD PUSH1 0x0 DUP3 ADD MLOAD DUP2 PUSH1 0x0 ADD SSTORE PUSH1 0x20 DUP3 ADD MLOAD DUP2 PUSH1 0x1 ADD SSTORE PUSH1 0x40 DUP3 ADD MLOAD DUP2 PUSH1 0x2 ADD SSTORE PUSH1 0x60 DUP3 ADD MLOAD DUP2 PUSH1 0x3 ADD SSTORE PUSH1 0x80 DUP3 ADD MLOAD DUP2 PUSH1 0x4 ADD SSTORE PUSH1 0xA0 DUP3 ADD MLOAD DUP2 PUSH1 0x5 ADD SSTORE POP POP PUSH1 0x60 DUP3 ADD MLOAD DUP2 PUSH1 0x8 ADD PUSH1 0x0 DUP3 ADD MLOAD DUP2 PUSH1 0x0 ADD SSTORE PUSH1 0x20 DUP3 ADD MLOAD DUP2 PUSH1 0x1 ADD SSTORE PUSH1 0x40 DUP3 ADD MLOAD DUP2 PUSH1 0x2 ADD SSTORE PUSH1 0x60 DUP3 ADD MLOAD DUP2 PUSH1 0x3 ADD SSTORE PUSH1 0x80 DUP3 ADD MLOAD DUP2 PUSH1 0x4 ADD SSTORE PUSH1 0xA0 DUP3 ADD MLOAD DUP2 PUSH1 0x5 ADD SSTORE POP POP PUSH1 0x80 DUP3 ADD MLOAD DUP2 PUSH1 0xE ADD SSTORE PUSH1 0xA0 DUP3 ADD MLOAD DUP2 PUSH1 0xF ADD SSTORE PUSH1 0xC0 DUP3 ADD MLOAD DUP2 PUSH1 0x10 ADD SSTORE PUSH1 0xE0 DUP3 ADD MLOAD DUP2 PUSH1 0x11 ADD SSTORE PUSH2 0x100 DUP3 ADD MLOAD DUP2 PUSH1 0x12 ADD SSTORE PUSH2 0x120 DUP3 ADD MLOAD DUP2 PUSH1 0x13 ADD PUSH1 0x0 DUP3 ADD MLOAD DUP2 PUSH1 0x0 ADD SSTORE PUSH1 0x20 DUP3 ADD MLOAD DUP2 PUSH1 0x1 ADD SSTORE PUSH1 0x40 DUP3 ADD MLOAD DUP2 PUSH1 0x2 ADD SSTORE PUSH1 0x60 DUP3 ADD MLOAD DUP2 PUSH1 0x3 ADD SSTORE PUSH1 0x80 DUP3 ADD MLOAD DUP2 PUSH1 0x4 ADD SSTORE PUSH1 0xA0 DUP3 ADD MLOAD DUP2 PUSH1 0x5 ADD SSTORE POP POP PUSH2 0x140 DUP3 ADD MLOAD DUP2 PUSH1 0x19 ADD SSTORE PUSH2 0x160 DUP3 ADD MLOAD DUP2 PUSH1 0x1A ADD PUSH1 0x0 PUSH2 0x100 EXP DUP2 SLOAD DUP2 PUSH1 0xFF MUL NOT AND SWAP1 DUP4 ISZERO ISZERO MUL OR SWAP1 SSTORE POP SWAP1 POP POP PUSH1 0x40 MLOAD DUP1 PUSH2 0x180 ADD PUSH1 0x40 MSTORE DUP1 PUSH1 0x40 MLOAD DUP1 PUSH1 0x40 ADD PUSH1 0x40 MSTORE DUP1 PUSH1 0x6 DUP2 MSTORE PUSH1 0x20 ADD PUSH6 0x457374617465 PUSH1 0xD0 SHL DUP2 MSTORE POP DUP2 MSTORE PUSH1 0x20 ADD PUSH1 0x2 DUP2 MSTORE PUSH1 0x20 ADD PUSH1 0x40 MLOAD DUP1 PUSH1 0xC0 ADD PUSH1 0x40 MSTORE DUP1 PUSH1 0xC8 DUP2 MSTORE PUSH1 0x20 ADD PUSH1 0x64 DUP2 MSTORE PUSH1 0x20 ADD PUSH1 0x3C DUP2 MSTORE PUSH1 0x20 ADD PUSH1 0x0 DUP2 MSTORE PUSH1 0x20 ADD PUSH1 0x0 DUP2 MSTORE PUSH1 0x20 ADD PUSH1 0x28 DUP2 MSTORE POP DUP2 MSTORE PUSH1 0x20 ADD PUSH3 0x1BAE PUSH1 0x40 MLOAD DUP1 PUSH1 0xC0 ADD PUSH1 0x40 MSTORE DUP1 PUSH1 0xC8 DUP2 MSTORE PUSH1 0x20 ADD PUSH1 0x64 DUP2 MSTORE PUSH1 0x20 ADD PUSH1 0x3C DUP2 MSTORE PUSH1 0x20 ADD PUSH1 0x0 DUP2 MSTORE PUSH1 0x20 ADD PUSH1 0x0 DUP2 MSTORE PUSH1 0x20 ADD PUSH1 0x28 DUP2 MSTORE POP PUSH3 0x3518 PUSH1 0x20 SHL PUSH1 0x20 SHR JUMP JUMPDEST DUP2 MSTORE PUSH1 0x20 ADD PUSH1 0xA DUP2 MSTORE PUSH1 0x20 ADD PUSH1 0x4 DUP2 MSTORE PUSH1 0x20 ADD PUSH1 0x0 DUP2 MSTORE PUSH1 0x20 ADD PUSH1 0x0 DUP2 MSTORE PUSH1 0x20 ADD PUSH1 0x0 DUP2 MSTORE PUSH1 0x20 ADD PUSH1 0x40 MLOAD DUP1 PUSH1 0xC0 ADD PUSH1 0x40 MSTORE DUP1 PUSH1 0xC8 DUP2 MSTORE PUSH1 0x20 ADD PUSH1 0x0 DUP2 MSTORE PUSH1 0x20 ADD PUSH1 0x0 DUP2 MSTORE PUSH1 0x20 ADD PUSH1 0x0 DUP2 MSTORE PUSH1 0x20 ADD PUSH1 0x0 DUP2 MSTORE PUSH1 0x20 ADD PUSH1 0x0 DUP2 MSTORE POP DUP2 MSTORE PUSH1 0x20 ADD PUSH3 0x15180 DUP2 MSTORE PUSH1 0x20 ADD PUSH1 0x1 ISZERO ISZERO DUP2 MSTORE POP PUSH1 0x1 PUSH1 0x40 MLOAD PUSH3 0x1C3A SWAP1 PUSH6 0x457374617465 PUSH1 0xD0 SHL DUP2 MSTORE PUSH1 0x6 ADD SWAP1 JUMP JUMPDEST SWAP1 DUP2 MSTORE PUSH1 0x40 DUP1 MLOAD PUSH1 0x20 SWAP3 DUP2 SWAP1 SUB DUP4 ADD SWAP1 KECCAK256 PUSH1 0x2 PUSH1 0x0 SWAP1 DUP2 MSTORE SWAP3 MSTORE SWAP1 KECCAK256 DUP2 MLOAD DUP2 SWAP1 PUSH3 0x1C66 SWAP1 DUP3 PUSH3 0x36E9 JUMP JUMPDEST POP PUSH1 0x20 DUP3 DUP2 ADD MLOAD PUSH1 0x1 DUP4 ADD SSTORE PUSH1 0x40 DUP1 DUP5 ADD MLOAD DUP1 MLOAD PUSH1 0x2 DUP1 DUP7 ADD SWAP2 SWAP1 SWAP2 SSTORE DUP2 DUP5 ADD MLOAD PUSH1 0x3 DUP7 ADD SSTORE DUP2 DUP4 ADD MLOAD PUSH1 0x4 DUP7 ADD SSTORE PUSH1 0x60 DUP1 DUP4 ADD MLOAD PUSH1 0x5 DUP8 ADD SSTORE PUSH1 0x80 DUP1 DUP5 ADD MLOAD PUSH1 0x6 DUP9 ADD SSTORE PUSH1 0xA0 SWAP4 DUP5 ADD MLOAD PUSH1 0x7 DUP9 ADD SSTORE DUP2 DUP9 ADD MLOAD DUP1 MLOAD PUSH1 0x8 DUP10 ADD SSTORE DUP1 DUP8 ADD MLOAD PUSH1 0x9 DUP10 ADD SSTORE DUP1 DUP7 ADD MLOAD PUSH1 0xA DUP1 DUP11 ADD SWAP2 SWAP1 SWAP2 SSTORE DUP2 DUP5 ADD MLOAD PUSH1 0xB DUP11 ADD SSTORE DUP2 DUP4 ADD MLOAD PUSH1 0xC DUP11 ADD SSTORE SWAP1 DUP6 ADD MLOAD PUSH1 0xD DUP10 ADD SSTORE DUP2 DUP10 ADD MLOAD PUSH1 0xE DUP10 ADD SSTORE DUP5 DUP10 ADD MLOAD PUSH1 0xF DUP10 ADD SSTORE PUSH1 0xC0 DUP1 DUP11 ADD MLOAD PUSH1 0x10 DUP11 ADD SSTORE PUSH1 0xE0 DUP11 ADD MLOAD PUSH1 0x11 DUP11 ADD SSTORE PUSH2 0x100 DUP11 ADD MLOAD PUSH1 0x12 DUP11 ADD SSTORE PUSH2 0x120 DUP11 ADD MLOAD DUP1 MLOAD PUSH1 0x13 DUP12 ADD SSTORE DUP1 DUP10 ADD MLOAD PUSH1 0x14 DUP12 ADD SSTORE DUP1 DUP9 ADD MLOAD PUSH1 0x15 DUP12 ADD SSTORE DUP1 DUP6 ADD MLOAD PUSH1 0x16 DUP12 ADD SSTORE DUP1 DUP5 ADD MLOAD PUSH1 0x17 DUP12 ADD SSTORE DUP7 ADD MLOAD PUSH1 0x18 DUP11 ADD SSTORE PUSH2 0x140 DUP11 ADD MLOAD PUSH1 0x19 DUP11 ADD SSTORE PUSH2 0x160 SWAP1 SWAP10 ADD MLOAD PUSH1 0x1A SWAP1 SWAP9 ADD DUP1 SLOAD PUSH1 0xFF NOT AND SWAP9 ISZERO ISZERO SWAP9 SWAP1 SWAP9 OR SWAP1 SWAP8 SSTORE DUP5 MLOAD PUSH2 0x1C0 DUP2 ADD DUP7 MSTORE PUSH2 0x180 DUP2 ADD SWAP8 DUP9 MSTORE PUSH10 0x556E6976657273697479 PUSH1 0xB0 SHL PUSH2 0x1A0 DUP3 ADD MSTORE SWAP7 DUP8 MSTORE DUP7 DUP7 ADD SWAP3 SWAP1 SWAP3 MSTORE DUP4 MLOAD DUP1 DUP9 ADD DUP6 MSTORE PUSH2 0x12C DUP1 DUP3 MSTORE DUP2 DUP8 ADD DUP6 SWAP1 MSTORE PUSH1 0x64 DUP3 DUP8 ADD DUP2 SWAP1 MSTORE PUSH1 0x0 DUP4 DUP6 ADD DUP2 SWAP1 MSTORE DUP4 DUP7 ADD DUP2 SWAP1 MSTORE DUP4 DUP8 ADD DUP8 SWAP1 MSTORE DUP10 DUP9 ADD SWAP4 SWAP1 SWAP4 MSTORE DUP7 MLOAD SWAP10 DUP11 ADD DUP8 MSTORE SWAP1 DUP10 MSTORE SWAP6 DUP9 ADD DUP5 SWAP1 MSTORE SWAP4 DUP8 ADD SWAP5 SWAP1 SWAP5 MSTORE DUP6 DUP5 ADD DUP4 SWAP1 MSTORE DUP6 ADD SWAP2 SWAP1 SWAP2 MSTORE DUP4 DUP2 ADD MSTORE SWAP1 SWAP2 SWAP1 DUP3 ADD SWAP1 PUSH3 0x1E21 SWAP1 PUSH3 0x3518 JUMP JUMPDEST DUP2 MSTORE PUSH1 0x20 ADD PUSH1 0xA DUP2 MSTORE PUSH1 0x20 ADD PUSH1 0x4 DUP2 MSTORE PUSH1 0x20 ADD PUSH1 0xA DUP2 MSTORE PUSH1 0x20 ADD PUSH1 0x0 DUP2 MSTORE PUSH1 0x20 ADD PUSH1 0x0 DUP2 MSTORE PUSH1 0x20 ADD PUSH1 0x40 MLOAD DUP1 PUSH1 0xC0 ADD PUSH1 0x40 MSTORE DUP1 PUSH1 0x0 DUP2 MSTORE PUSH1 0x20 ADD PUSH1 0x0 DUP2 MSTORE PUSH1 0x20 ADD PUSH1 0x0 DUP2 MSTORE PUSH1 0x20 ADD PUSH1 0x0 DUP2 MSTORE PUSH1 0x20 ADD PUSH1 0x0 DUP2 MSTORE PUSH1 0x20 ADD PUSH1 0x0 DUP2 MSTORE POP DUP2 MSTORE PUSH1 0x20 ADD PUSH3 0x15180 DUP2 MSTORE PUSH1 0x20 ADD PUSH1 0x1 ISZERO ISZERO DUP2 MSTORE POP PUSH1 0x1 PUSH1 0x40 MLOAD PUSH3 0x1EB1 SWAP1 PUSH10 0x556E6976657273697479 PUSH1 0xB0 SHL DUP2 MSTORE PUSH1 0xA ADD SWAP1 JUMP JUMPDEST SWAP1 DUP2 MSTORE PUSH1 0x40 DUP1 MLOAD PUSH1 0x20 SWAP3 DUP2 SWAP1 SUB DUP4 ADD SWAP1 KECCAK256 PUSH1 0x2 PUSH1 0x0 SWAP1 DUP2 MSTORE SWAP3 MSTORE SWAP1 KECCAK256 DUP2 MLOAD DUP2 SWAP1 PUSH3 0x1EDD SWAP1 DUP3 PUSH3 0x36E9 JUMP JUMPDEST POP PUSH1 0x20 DUP3 ADD MLOAD DUP2 PUSH1 0x1 ADD SSTORE PUSH1 0x40 DUP3 ADD MLOAD DUP2 PUSH1 0x2 ADD PUSH1 0x0 DUP3 ADD MLOAD DUP2 PUSH1 0x0 ADD SSTORE PUSH1 0x20 DUP3 ADD MLOAD DUP2 PUSH1 0x1 ADD SSTORE PUSH1 0x40 DUP3 ADD MLOAD DUP2 PUSH1 0x2 ADD SSTORE PUSH1 0x60 DUP3 ADD MLOAD DUP2 PUSH1 0x3 ADD SSTORE PUSH1 0x80 DUP3 ADD MLOAD DUP2 PUSH1 0x4 ADD SSTORE PUSH1 0xA0 DUP3 ADD MLOAD DUP2 PUSH1 0x5 ADD SSTORE POP POP PUSH1 0x60 DUP3 ADD MLOAD DUP2 PUSH1 0x8 ADD PUSH1 0x0 DUP3 ADD MLOAD DUP2 PUSH1 0x0 ADD SSTORE PUSH1 0x20 DUP3 ADD MLOAD DUP2 PUSH1 0x1 ADD SSTORE PUSH1 0x40 DUP3 ADD MLOAD DUP2 PUSH1 0x2 ADD SSTORE PUSH1 0x60 DUP3 ADD MLOAD DUP2 PUSH1 0x3 ADD SSTORE PUSH1 0x80 DUP3 ADD MLOAD DUP2 PUSH1 0x4 ADD SSTORE PUSH1 0xA0 DUP3 ADD MLOAD DUP2 PUSH1 0x5 ADD SSTORE POP POP PUSH1 0x80 DUP3 ADD MLOAD DUP2 PUSH1 0xE ADD SSTORE PUSH1 0xA0 DUP3 ADD MLOAD DUP2 PUSH1 0xF ADD SSTORE PUSH1 0xC0 DUP3 ADD MLOAD DUP2 PUSH1 0x10 ADD SSTORE PUSH1 0xE0 DUP3 ADD MLOAD DUP2 PUSH1 0x11 ADD SSTORE PUSH2 0x100 DUP3 ADD MLOAD DUP2 PUSH1 0x12 ADD SSTORE PUSH2 0x120 DUP3 ADD MLOAD DUP2 PUSH1 0x13 ADD PUSH1 0x0 DUP3 ADD MLOAD DUP2 PUSH1 0x0 ADD SSTORE PUSH1 0x20 DUP3 ADD MLOAD DUP2 PUSH1 0x1 ADD SSTORE PUSH1 0x40 DUP3 ADD MLOAD DUP2 PUSH1 0x2 ADD SSTORE PUSH1 0x60 DUP3 ADD MLOAD DUP2 PUSH1 0x3 ADD SSTORE PUSH1 0x80 DUP3 ADD MLOAD DUP2 PUSH1 0x4 ADD SSTORE PUSH1 0xA0 DUP3 ADD MLOAD DUP2 PUSH1 0x5 ADD SSTORE POP POP PUSH2 0x140 DUP3 ADD MLOAD DUP2 PUSH1 0x19 ADD SSTORE PUSH2 0x160 DUP3 ADD MLOAD DUP2 PUSH1 0x1A ADD PUSH1 0x0 PUSH2 0x100 EXP DUP2 SLOAD DUP2 PUSH1 0xFF MUL NOT AND SWAP1 DUP4 ISZERO ISZERO MUL OR SWAP1 SSTORE POP SWAP1 POP POP PUSH1 0x40 MLOAD DUP1 PUSH2 0x180 ADD PUSH1 0x40 MSTORE DUP1 PUSH1 0x40 MLOAD DUP1 PUSH1 0x40 ADD PUSH1 0x40 MSTORE DUP1 PUSH1 0x9 DUP2 MSTORE PUSH1 0x20 ADD PUSH9 0x10D85D1A19591C985B PUSH1 0xBA SHL DUP2 MSTORE POP DUP2 MSTORE PUSH1 0x20 ADD PUSH1 0x2 DUP2 MSTORE PUSH1 0x20 ADD PUSH1 0x40 MLOAD DUP1 PUSH1 0xC0 ADD PUSH1 0x40 MSTORE DUP1 PUSH2 0x118 DUP2 MSTORE PUSH1 0x20 ADD PUSH1 0x78 DUP2 MSTORE PUSH1 0x20 ADD PUSH1 0x8C DUP2 MSTORE PUSH1 0x20 ADD PUSH1 0x0 DUP2 MSTORE PUSH1 0x20 ADD PUSH1 0x0 DUP2 MSTORE PUSH1 0x20 ADD PUSH1 0x8C DUP2 MSTORE POP DUP2 MSTORE PUSH1 0x20 ADD PUSH3 0x20D7 PUSH1 0x40 MLOAD DUP1 PUSH1 0xC0 ADD PUSH1 0x40 MSTORE DUP1 PUSH2 0x118 DUP2 MSTORE PUSH1 0x20 ADD PUSH1 0x78 DUP2 MSTORE PUSH1 0x20 ADD PUSH1 0x8C DUP2 MSTORE PUSH1 0x20 ADD PUSH1 0x0 DUP2 MSTORE PUSH1 0x20 ADD PUSH1 0x0 DUP2 MSTORE PUSH1 0x20 ADD PUSH1 0x8C DUP2 MSTORE POP PUSH3 0x3518 PUSH1 0x20 SHL PUSH1 0x20 SHR JUMP JUMPDEST DUP2 MSTORE PUSH1 0x20 ADD PUSH1 0x0 DUP2 MSTORE PUSH1 0x20 ADD PUSH1 0xA DUP2 MSTORE PUSH1 0x20 ADD PUSH1 0x0 DUP2 MSTORE PUSH1 0x20 ADD PUSH1 0xA DUP2 MSTORE PUSH1 0x20 ADD PUSH1 0x0 DUP2 MSTORE PUSH1 0x20 ADD PUSH1 0x40 MLOAD DUP1 PUSH1 0xC0 ADD PUSH1 0x40 MSTORE DUP1 PUSH1 0x0 DUP2 MSTORE PUSH1 0x20 ADD PUSH1 0x0 DUP2 MSTORE PUSH1 0x20 ADD PUSH1 0x0 DUP2 MSTORE PUSH1 0x20 ADD PUSH1 0x0 DUP2 MSTORE PUSH1 0x20 ADD PUSH1 0x0 DUP2 MSTORE PUSH1 0x20 ADD PUSH1 0x0 DUP2 MSTORE POP DUP2 MSTORE PUSH1 0x20 ADD PUSH3 0x15180 DUP2 MSTORE PUSH1 0x20 ADD PUSH1 0x1 ISZERO ISZERO DUP2 MSTORE POP PUSH1 0x1 PUSH1 0x40 MLOAD PUSH3 0x2166 SWAP1 PUSH9 0x10D85D1A19591C985B PUSH1 0xBA SHL DUP2 MSTORE PUSH1 0x9 ADD SWAP1 JUMP JUMPDEST SWAP1 DUP2 MSTORE PUSH1 0x40 DUP1 MLOAD PUSH1 0x20 SWAP3 DUP2 SWAP1 SUB DUP4 ADD SWAP1 KECCAK256 PUSH1 0x2 PUSH1 0x0 SWAP1 DUP2 MSTORE SWAP3 MSTORE SWAP1 KECCAK256 DUP2 MLOAD DUP2 SWAP1 PUSH3 0x2192 SWAP1 DUP3 PUSH3 0x36E9 JUMP JUMPDEST POP PUSH1 0x20 DUP3 DUP2 ADD MLOAD PUSH1 0x1 DUP4 ADD SSTORE PUSH1 0x40 DUP1 DUP5 ADD MLOAD DUP1 MLOAD PUSH1 0x2 DUP1 DUP7 ADD SWAP2 SWAP1 SWAP2 SSTORE DUP2 DUP5 ADD MLOAD PUSH1 0x3 DUP7 ADD SSTORE DUP2 DUP4 ADD MLOAD PUSH1 0x4 DUP7 ADD SSTORE PUSH1 0x60 DUP1 DUP4 ADD MLOAD PUSH1 0x5 DUP8 ADD SSTORE PUSH1 0x80 DUP1 DUP5 ADD MLOAD PUSH1 0x6 DUP9 ADD SSTORE PUSH1 0xA0 SWAP4 DUP5 ADD MLOAD PUSH1 0x7 DUP1 DUP10 ADD SWAP2 SWAP1 SWAP2 SSTORE DUP3 DUP10 ADD MLOAD DUP1 MLOAD PUSH1 0x8 DUP11 ADD SSTORE DUP1 DUP9 ADD MLOAD PUSH1 0x9 DUP11 ADD SSTORE DUP1 DUP8 ADD MLOAD PUSH1 0xA DUP11 ADD SSTORE DUP1 DUP5 ADD MLOAD PUSH1 0xB DUP11 ADD SSTORE DUP1 DUP4 ADD MLOAD PUSH1 0xC DUP11 ADD SSTORE DUP6 ADD MLOAD PUSH1 0xD DUP10 ADD SSTORE DUP2 DUP10 ADD MLOAD PUSH1 0xE DUP10 ADD SSTORE DUP5 DUP10 ADD MLOAD PUSH1 0xF DUP10 ADD SSTORE PUSH1 0xC0 DUP1 DUP11 ADD MLOAD PUSH1 0x10 DUP11 ADD SSTORE PUSH1 0xE0 DUP11 ADD MLOAD PUSH1 0x11 DUP11 ADD SSTORE PUSH2 0x100 DUP11 ADD MLOAD PUSH1 0x12 DUP11 ADD SSTORE PUSH2 0x120 DUP11 ADD MLOAD DUP1 MLOAD PUSH1 0x13 DUP12 ADD SSTORE DUP1 DUP10 ADD MLOAD PUSH1 0x14 DUP12 ADD SSTORE DUP1 DUP9 ADD MLOAD PUSH1 0x15 DUP12 ADD SSTORE DUP1 DUP6 ADD MLOAD PUSH1 0x16 DUP12 ADD SSTORE DUP1 DUP5 ADD MLOAD PUSH1 0x17 DUP12 ADD SSTORE DUP7 ADD MLOAD PUSH1 0x18 DUP11 ADD SSTORE PUSH2 0x140 DUP11 ADD MLOAD PUSH1 0x19 DUP11 ADD SSTORE PUSH2 0x160 SWAP1 SWAP10 ADD MLOAD PUSH1 0x1A SWAP1 SWAP9 ADD DUP1 SLOAD PUSH1 0xFF NOT AND SWAP9 ISZERO ISZERO SWAP9 SWAP1 SWAP9 OR SWAP1 SWAP8 SSTORE DUP5 MLOAD PUSH2 0x1C0 DUP2 ADD DUP7 MSTORE PUSH2 0x180 DUP2 ADD SWAP8 DUP9 MSTORE PUSH7 0x14D85DDB5A5B1B PUSH1 0xCA SHL PUSH2 0x1A0 DUP3 ADD MSTORE SWAP7 DUP8 MSTORE DUP7 DUP7 ADD SWAP3 SWAP1 SWAP3 MSTORE DUP4 MLOAD DUP1 DUP9 ADD DUP6 MSTORE DUP4 DUP2 MSTORE PUSH1 0x78 DUP2 DUP8 ADD DUP2 SWAP1 MSTORE PUSH1 0x50 DUP3 DUP8 ADD DUP2 SWAP1 MSTORE PUSH1 0x0 DUP4 DUP6 ADD DUP2 SWAP1 MSTORE DUP4 DUP7 ADD DUP2 SWAP1 MSTORE PUSH1 0x32 DUP5 DUP9 ADD DUP2 SWAP1 MSTORE DUP11 DUP10 ADD SWAP5 SWAP1 SWAP5 MSTORE DUP8 MLOAD SWAP11 DUP12 ADD DUP9 MSTORE DUP7 DUP12 MSTORE SWAP8 DUP11 ADD SWAP2 SWAP1 SWAP2 MSTORE SWAP5 DUP9 ADD SWAP5 SWAP1 SWAP5 MSTORE DUP7 DUP2 ADD DUP6 SWAP1 MSTORE SWAP1 DUP7 ADD SWAP4 SWAP1 SWAP4 MSTORE DUP5 ADD MSTORE SWAP1 SWAP2 SWAP1 DUP3 ADD SWAP1 PUSH3 0x234B SWAP1 PUSH3 0x3518 JUMP JUMPDEST DUP2 MSTORE PUSH1 0x20 ADD PUSH1 0x8 DUP2 MSTORE PUSH1 0x20 ADD PUSH1 0x0 DUP2 MSTORE PUSH1 0x20 ADD PUSH1 0x0 DUP2 MSTORE PUSH1 0x20 ADD PUSH1 0x0 DUP2 MSTORE PUSH1 0x20 ADD PUSH1 0x0 DUP2 MSTORE PUSH1 0x20 ADD PUSH1 0x40 MLOAD DUP1 PUSH1 0xC0 ADD PUSH1 0x40 MSTORE DUP1 PUSH1 0x0 DUP2 MSTORE PUSH1 0x20 ADD PUSH1 0xC8 DUP2 MSTORE PUSH1 0x20 ADD PUSH1 0x0 DUP2 MSTORE PUSH1 0x20 ADD PUSH1 0x0 DUP2 MSTORE PUSH1 0x20 ADD PUSH1 0x0 DUP2 MSTORE PUSH1 0x20 ADD PUSH1 0x0 DUP2 MSTORE POP DUP2 MSTORE PUSH1 0x20 ADD PUSH3 0x15180 DUP2 MSTORE PUSH1 0x20 ADD PUSH1 0x1 ISZERO ISZERO DUP2 MSTORE POP PUSH1 0x1 PUSH1 0x40 MLOAD PUSH3 0x23D8 SWAP1 PUSH7 0x14D85DDB5A5B1B PUSH1 0xCA SHL DUP2 MSTORE PUSH1 0x7 ADD SWAP1 JUMP JUMPDEST SWAP1 DUP2 MSTORE PUSH1 0x40 DUP1 MLOAD PUSH1 0x20 SWAP3 DUP2 SWAP1 SUB DUP4 ADD SWAP1 KECCAK256 PUSH1 0x2 PUSH1 0x0 SWAP1 DUP2 MSTORE SWAP3 MSTORE SWAP1 KECCAK256 DUP2 MLOAD DUP2 SWAP1 PUSH3 0x2404 SWAP1 DUP3 PUSH3 0x36E9 JUMP JUMPDEST POP PUSH1 0x20 DUP3 ADD MLOAD DUP2 PUSH1 0x1 ADD SSTORE PUSH1 0x40 DUP3 ADD MLOAD DUP2 PUSH1 0x2 ADD PUSH1 0x0 DUP3 ADD MLOAD DUP2 PUSH1 0x0 ADD SSTORE PUSH1 0x20 DUP3 ADD MLOAD DUP2 PUSH1 0x1 ADD SSTORE PUSH1 0x40 DUP3 ADD MLOAD DUP2 PUSH1 0x2 ADD SSTORE PUSH1 0x60 DUP3 ADD MLOAD DUP2 PUSH1 0x3 ADD SSTORE PUSH1 0x80 DUP3 ADD MLOAD DUP2 PUSH1 0x4 ADD SSTORE PUSH1 0xA0 DUP3 ADD MLOAD DUP2 PUSH1 0x5 ADD SSTORE POP POP PUSH1 0x60 DUP3 ADD MLOAD DUP2 PUSH1 0x8 ADD PUSH1 0x0 DUP3 ADD MLOAD DUP2 PUSH1 0x0 ADD SSTORE PUSH1 0x20 DUP3 ADD MLOAD DUP2 PUSH1 0x1 ADD SSTORE PUSH1 0x40 DUP3 ADD MLOAD DUP2 PUSH1 0x2 ADD SSTORE PUSH1 0x60 DUP3 ADD MLOAD DUP2 PUSH1 0x3 ADD SSTORE PUSH1 0x80 DUP3 ADD MLOAD DUP2 PUSH1 0x4 ADD SSTORE PUSH1 0xA0 DUP3 ADD MLOAD DUP2 PUSH1 0x5 ADD SSTORE POP POP PUSH1 0x80 DUP3 ADD MLOAD DUP2 PUSH1 0xE ADD SSTORE PUSH1 0xA0 DUP3 ADD MLOAD DUP2 PUSH1 0xF ADD SSTORE PUSH1 0xC0 DUP3 ADD MLOAD DUP2 PUSH1 0x10 ADD SSTORE PUSH1 0xE0 DUP3 ADD MLOAD DUP2 PUSH1 0x11 ADD SSTORE PUSH2 0x100 DUP3 ADD MLOAD DUP2 PUSH1 0x12 ADD SSTORE PUSH2 0x120 DUP3 ADD MLOAD DUP2 PUSH1 0x13 ADD PUSH1 0x0 DUP3 ADD MLOAD DUP2 PUSH1 0x0 ADD SSTORE PUSH1 0x20 DUP3 ADD MLOAD DUP2 PUSH1 0x1 ADD SSTORE PUSH1 0x40 DUP3 ADD MLOAD DUP2 PUSH1 0x2 ADD SSTORE PUSH1 0x60 DUP3 ADD MLOAD DUP2 PUSH1 0x3 ADD SSTORE PUSH1 0x80 DUP3 ADD MLOAD DUP2 PUSH1 0x4 ADD SSTORE PUSH1 0xA0 DUP3 ADD MLOAD DUP2 PUSH1 0x5 ADD SSTORE POP POP PUSH2 0x140 DUP3 ADD MLOAD DUP2 PUSH1 0x19 ADD SSTORE PUSH2 0x160 DUP3 ADD MLOAD DUP2 PUSH1 0x1A ADD PUSH1 0x0 PUSH2 0x100 EXP DUP2 SLOAD DUP2 PUSH1 0xFF MUL NOT AND SWAP1 DUP4 ISZERO ISZERO MUL OR SWAP1 SSTORE POP SWAP1 POP POP PUSH1 0x40 MLOAD DUP1 PUSH2 0x180 ADD PUSH1 0x40 MSTORE DUP1 PUSH1 0x40 MLOAD DUP1 PUSH1 0x40 ADD PUSH1 0x40 MSTORE DUP1 PUSH1 0xA DUP2 MSTORE PUSH1 0x20 ADD PUSH10 0x53746F6E65776F726B73 PUSH1 0xB0 SHL DUP2 MSTORE POP DUP2 MSTORE PUSH1 0x20 ADD PUSH1 0x2 DUP2 MSTORE PUSH1 0x20 ADD PUSH1 0x40 MLOAD DUP1 PUSH1 0xC0 ADD PUSH1 0x40 MSTORE DUP1 PUSH1 0xB4 DUP2 MSTORE PUSH1 0x20 ADD PUSH1 0x50 DUP2 MSTORE PUSH1 0x20 ADD PUSH1 0x64 DUP2 MSTORE PUSH1 0x20 ADD PUSH1 0x0 DUP2 MSTORE PUSH1 0x20 ADD PUSH1 0x0 DUP2 MSTORE PUSH1 0x20 ADD PUSH1 0x3C DUP2 MSTORE POP DUP2 MSTORE PUSH1 0x20 ADD PUSH3 0x25FD PUSH1 0x40 MLOAD DUP1 PUSH1 0xC0 ADD PUSH1 0x40 MSTORE DUP1 PUSH1 0xB4 DUP2 MSTORE PUSH1 0x20 ADD PUSH1 0x50 DUP2 MSTORE PUSH1 0x20 ADD PUSH1 0x64 DUP2 MSTORE PUSH1 0x20 ADD PUSH1 0x0 DUP2 MSTORE PUSH1 0x20 ADD PUSH1 0x0 DUP2 MSTORE PUSH1 0x20 ADD PUSH1 0x3C DUP2 MSTORE POP PUSH3 0x3518 PUSH1 0x20 SHL PUSH1 0x20 SHR JUMP JUMPDEST DUP2 MSTORE PUSH1 0x20 ADD PUSH1 0x6 DUP2 MSTORE PUSH1 0x20 ADD PUSH1 0x0 DUP2 MSTORE PUSH1 0x20 ADD PUSH1 0x0 DUP2 MSTORE PUSH1 0x20 ADD PUSH1 0x0 DUP2 MSTORE PUSH1 0x20 ADD PUSH1 0x0 DUP2 MSTORE PUSH1 0x20 ADD PUSH1 0x40 MLOAD DUP1 PUSH1 0xC0 ADD PUSH1 0x40 MSTORE DUP1 PUSH1 0x0 DUP2 MSTORE PUSH1 0x20 ADD PUSH1 0x0 DUP2 MSTORE PUSH1 0x20 ADD PUSH1 0xC8 DUP2 MSTORE PUSH1 0x20 ADD PUSH1 0x0 DUP2 MSTORE PUSH1 0x20 ADD PUSH1 0x0 DUP2 MSTORE PUSH1 0x20 ADD PUSH1 0x0 DUP2 MSTORE POP DUP2 MSTORE PUSH1 0x20 ADD PUSH3 0x15180 DUP2 MSTORE PUSH1 0x20 ADD PUSH1 0x1 ISZERO ISZERO DUP2 MSTORE POP PUSH1 0x1 PUSH1 0x40 MLOAD PUSH3 0x268D SWAP1 PUSH10 0x53746F6E65776F726B73 PUSH1 0xB0 SHL DUP2 MSTORE PUSH1 0xA ADD SWAP1 JUMP JUMPDEST SWAP1 DUP2 MSTORE PUSH1 0x40 DUP1 MLOAD PUSH1 0x20 SWAP3 DUP2 SWAP1 SUB DUP4 ADD SWAP1 KECCAK256 PUSH1 0x2 PUSH1 0x0 SWAP1 DUP2 MSTORE SWAP3 MSTORE SWAP1 KECCAK256 DUP2 MLOAD DUP2 SWAP1 PUSH3 0x26B9 SWAP1 DUP3 PUSH3 0x36E9 JUMP JUMPDEST POP PUSH1 0x20 DUP3 ADD MLOAD DUP2 PUSH1 0x1 ADD SSTORE PUSH1 0x40 DUP3 ADD MLOAD DUP2 PUSH1 0x2 ADD PUSH1 0x0 DUP3 ADD MLOAD DUP2 PUSH1 0x0 ADD SSTORE PUSH1 0x20 DUP3 ADD MLOAD DUP2 PUSH1 0x1 ADD SSTORE PUSH1 0x40 DUP3 ADD MLOAD DUP2 PUSH1 0x2 ADD SSTORE PUSH1 0x60 DUP3 ADD MLOAD DUP2 PUSH1 0x3 ADD SSTORE PUSH1 0x80 DUP3 ADD MLOAD DUP2 PUSH1 0x4 ADD SSTORE PUSH1 0xA0 DUP3 ADD MLOAD DUP2 PUSH1 0x5 ADD SSTORE POP POP PUSH1 0x60 DUP3 ADD MLOAD DUP2 PUSH1 0x8 ADD PUSH1 0x0 DUP3 ADD MLOAD DUP2 PUSH1 0x0 ADD SSTORE PUSH1 0x20 DUP3 ADD MLOAD DUP2 PUSH1 0x1 ADD SSTORE PUSH1 0x40 DUP3 ADD MLOAD DUP2 PUSH1 0x2 ADD SSTORE PUSH1 0x60 DUP3 ADD MLOAD DUP2 PUSH1 0x3 ADD SSTORE PUSH1 0x80 DUP3 ADD MLOAD DUP2 PUSH1 0x4 ADD SSTORE PUSH1 0xA0 DUP3 ADD MLOAD DUP2 PUSH1 0x5 ADD SSTORE POP POP PUSH1 0x80 DUP3 ADD MLOAD DUP2 PUSH1 0xE ADD SSTORE PUSH1 0xA0 DUP3 ADD MLOAD DUP2 PUSH1 0xF ADD SSTORE PUSH1 0xC0 DUP3 ADD MLOAD DUP2 PUSH1 0x10 ADD SSTORE PUSH1 0xE0 DUP3 ADD MLOAD DUP2 PUSH1 0x11 ADD SSTORE PUSH2 0x100 DUP3 ADD MLOAD DUP2 PUSH1 0x12 ADD SSTORE PUSH2 0x120 DUP3 ADD MLOAD DUP2 PUSH1 0x13 ADD PUSH1 0x0 DUP3 ADD MLOAD DUP2 PUSH1 0x0 ADD SSTORE PUSH1 0x20 DUP3 ADD MLOAD DUP2 PUSH1 0x1 ADD SSTORE PUSH1 0x40 DUP3 ADD MLOAD DUP2 PUSH1 0x2 ADD SSTORE PUSH1 0x60 DUP3 ADD MLOAD DUP2 PUSH1 0x3 ADD SSTORE PUSH1 0x80 DUP3 ADD MLOAD DUP2 PUSH1 0x4 ADD SSTORE PUSH1 0xA0 DUP3 ADD MLOAD DUP2 PUSH1 0x5 ADD SSTORE POP POP PUSH2 0x140 DUP3 ADD MLOAD DUP2 PUSH1 0x19 ADD SSTORE PUSH2 0x160 DUP3 ADD MLOAD DUP2 PUSH1 0x1A ADD PUSH1 0x0 PUSH2 0x100 EXP DUP2 SLOAD DUP2 PUSH1 0xFF MUL NOT AND SWAP1 DUP4 ISZERO ISZERO MUL OR SWAP1 SSTORE POP SWAP1 POP POP PUSH1 0x40 MLOAD DUP1 PUSH2 0x180 ADD PUSH1 0x40 MSTORE DUP1 PUSH1 0x40 MLOAD DUP1 PUSH1 0x40 ADD PUSH1 0x40 MSTORE DUP1 PUSH1 0xA DUP2 MSTORE PUSH1 0x20 ADD PUSH10 0x537465656C776F726B73 PUSH1 0xB0 SHL DUP2 MSTORE POP DUP2 MSTORE PUSH1 0x20 ADD PUSH1 0x2 DUP2 MSTORE PUSH1 0x20 ADD PUSH1 0x40 MLOAD DUP1 PUSH1 0xC0 ADD PUSH1 0x40 MSTORE DUP1 PUSH1 0xC8 DUP2 MSTORE PUSH1 0x20 ADD PUSH1 0x64 DUP2 MSTORE PUSH1 0x20 ADD PUSH1 0x78 DUP2 MSTORE PUSH1 0x20 ADD PUSH1 0x0 DUP2 MSTORE PUSH1 0x20 ADD PUSH1 0x0 DUP2 MSTORE PUSH1 0x20 ADD PUSH1 0x46 DUP2 MSTORE POP DUP2 MSTORE PUSH1 0x20 ADD PUSH3 0x28B2 PUSH1 0x40 MLOAD DUP1 PUSH1 0xC0 ADD PUSH1 0x40 MSTORE DUP1 PUSH1 0xC8 DUP2 MSTORE PUSH1 0x20 ADD PUSH1 0x64 DUP2 MSTORE PUSH1 0x20 ADD PUSH1 0x78 DUP2 MSTORE PUSH1 0x20 ADD PUSH1 0x0 DUP2 MSTORE PUSH1 0x20 ADD PUSH1 0x0 DUP2 MSTORE PUSH1 0x20 ADD PUSH1 0x46 DUP2 MSTORE POP PUSH3 0x3518 PUSH1 0x20 SHL PUSH1 0x20 SHR JUMP JUMPDEST DUP2 MSTORE PUSH1 0x20 ADD PUSH1 0x6 DUP2 MSTORE PUSH1 0x20 ADD PUSH1 0x0 DUP2 MSTORE PUSH1 0x20 ADD PUSH1 0x0 DUP2 MSTORE PUSH1 0x20 ADD PUSH1 0x0 DUP2 MSTORE PUSH1 0x20 ADD PUSH1 0x0 DUP2 MSTORE PUSH1 0x20 ADD PUSH1 0x40 MLOAD DUP1 PUSH1 0xC0 ADD PUSH1 0x40 MSTORE DUP1 PUSH1 0x0 DUP2 MSTORE PUSH1 0x20 ADD PUSH1 0x0 DUP2 MSTORE PUSH1 0x20 ADD PUSH1 0x0 DUP2 MSTORE PUSH1 0x20 ADD PUSH1 0x0 DUP2 MSTORE PUSH1 0x20 ADD PUSH1 0xC8 DUP2 MSTORE PUSH1 0x20 ADD PUSH1 0x0 DUP2 MSTORE POP DUP2 MSTORE PUSH1 0x20 ADD PUSH3 0x15180 DUP2 MSTORE PUSH1 0x20 ADD PUSH1 0x1 ISZERO ISZERO DUP2 MSTORE POP PUSH1 0x1 PUSH1 0x40 MLOAD PUSH3 0x2942 SWAP1 PUSH10 0x537465656C776F726B73 PUSH1 0xB0 SHL DUP2 MSTORE PUSH1 0xA ADD SWAP1 JUMP JUMPDEST SWAP1 DUP2 MSTORE PUSH1 0x40 DUP1 MLOAD PUSH1 0x20 SWAP3 DUP2 SWAP1 SUB DUP4 ADD SWAP1 KECCAK256 PUSH1 0x2 PUSH1 0x0 SWAP1 DUP2 MSTORE SWAP3 MSTORE SWAP1 KECCAK256 DUP2 MLOAD DUP2 SWAP1 PUSH3 0x296E SWAP1 DUP3 PUSH3 0x36E9 JUMP JUMPDEST POP PUSH1 0x20 DUP3 ADD MLOAD DUP2 PUSH1 0x1 ADD SSTORE PUSH1 0x40 DUP3 ADD MLOAD DUP2 PUSH1 0x2 ADD PUSH1 0x0 DUP3 ADD MLOAD DUP2 PUSH1 0x0 ADD SSTORE PUSH1 0x20 DUP3 ADD MLOAD DUP2 PUSH1 0x1 ADD SSTORE PUSH1 0x40 DUP3 ADD MLOAD DUP2 PUSH1 0x2 ADD SSTORE PUSH1 0x60 DUP3 ADD MLOAD DUP2 PUSH1 0x3 ADD SSTORE PUSH1 0x80 DUP3 ADD MLOAD DUP2 PUSH1 0x4 ADD SSTORE PUSH1 0xA0 DUP3 ADD MLOAD DUP2 PUSH1 0x5 ADD SSTORE POP POP PUSH1 0x60 DUP3 ADD MLOAD DUP2 PUSH1 0x8 ADD PUSH1 0x0 DUP3 ADD MLOAD DUP2 PUSH1 0x0 ADD SSTORE PUSH1 0x20 DUP3 ADD MLOAD DUP2 PUSH1 0x1 ADD SSTORE PUSH1 0x40 DUP3 ADD MLOAD DUP2 PUSH1 0x2 ADD SSTORE PUSH1 0x60 DUP3 ADD MLOAD DUP2 PUSH1 0x3 ADD SSTORE PUSH1 0x80 DUP3 ADD MLOAD DUP2 PUSH1 0x4 ADD SSTORE PUSH1 0xA0 DUP3 ADD MLOAD DUP2 PUSH1 0x5 ADD SSTORE POP POP PUSH1 0x80 DUP3 ADD MLOAD DUP2 PUSH1 0xE ADD SSTORE PUSH1 0xA0 DUP3 ADD MLOAD DUP2 PUSH1 0xF ADD SSTORE PUSH1 0xC0 DUP3 ADD MLOAD DUP2 PUSH1 0x10 ADD SSTORE PUSH1 0xE0 DUP3 ADD MLOAD DUP2 PUSH1 0x11 ADD SSTORE PUSH2 0x100 DUP3 ADD MLOAD DUP2 PUSH1 0x12 ADD SSTORE PUSH2 0x120 DUP3 ADD MLOAD DUP2 PUSH1 0x13 ADD PUSH1 0x0 DUP3 ADD MLOAD DUP2 PUSH1 0x0 ADD SSTORE PUSH1 0x20 DUP3 ADD MLOAD DUP2 PUSH1 0x1 ADD SSTORE PUSH1 0x40 DUP3 ADD MLOAD DUP2 PUSH1 0x2 ADD SSTORE PUSH1 0x60 DUP3 ADD MLOAD DUP2 PUSH1 0x3 ADD SSTORE PUSH1 0x80 DUP3 ADD MLOAD DUP2 PUSH1 0x4 ADD SSTORE PUSH1 0xA0 DUP3 ADD MLOAD DUP2 PUSH1 0x5 ADD SSTORE POP POP PUSH2 0x140 DUP3 ADD MLOAD DUP2 PUSH1 0x19 ADD SSTORE PUSH2 0x160 DUP3 ADD MLOAD DUP2 PUSH1 0x1A ADD PUSH1 0x0 PUSH2 0x100 EXP DUP2 SLOAD DUP2 PUSH1 0xFF MUL NOT AND SWAP1 DUP4 ISZERO ISZERO MUL OR SWAP1 SSTORE POP SWAP1 POP POP PUSH1 0x40 MLOAD DUP1 PUSH2 0x180 ADD PUSH1 0x40 MSTORE DUP1 PUSH1 0x40 MLOAD DUP1 PUSH1 0x40 ADD PUSH1 0x40 MSTORE DUP1 PUSH1 0x7 DUP2 MSTORE PUSH1 0x20 ADD PUSH7 0x466163746F7279 PUSH1 0xC8 SHL DUP2 MSTORE POP DUP2 MSTORE PUSH1 0x20 ADD PUSH1 0x2 DUP2 MSTORE PUSH1 0x20 ADD PUSH1 0x40 MLOAD DUP1 PUSH1 0xC0 ADD PUSH1 0x40 MSTORE DUP1 PUSH1 0xDC DUP2 MSTORE PUSH1 0x20 ADD PUSH1 0x78 DUP2 MSTORE PUSH1 0x20 ADD PUSH1 0x50 DUP2 MSTORE PUSH1 0x20 ADD PUSH1 0x0 DUP2 MSTORE PUSH1 0x20 ADD PUSH1 0x0 DUP2 MSTORE PUSH1 0x20 ADD PUSH1 0x50 DUP2 MSTORE POP DUP2 MSTORE PUSH1 0x20 ADD PUSH3 0x2B64 PUSH1 0x40 MLOAD DUP1 PUSH1 0xC0 ADD PUSH1 0x40 MSTORE DUP1 PUSH1 0xDC DUP2 MSTORE PUSH1 0x20 ADD PUSH1 0x78 DUP2 MSTORE PUSH1 0x20 ADD PUSH1 0x50 DUP2 MSTORE PUSH1 0x20 ADD PUSH1 0x0 DUP2 MSTORE PUSH1 0x20 ADD PUSH1 0x0 DUP2 MSTORE PUSH1 0x20 ADD PUSH1 0x50 DUP2 MSTORE POP PUSH3 0x3518 PUSH1 0x20 SHL PUSH1 0x20 SHR JUMP JUMPDEST DUP2 MSTORE PUSH1 0x20 ADD PUSH1 0xA DUP2 MSTORE PUSH1 0x20 ADD PUSH1 0x0 DUP2 MSTORE PUSH1 0x20 ADD PUSH1 0x0 DUP2 MSTORE PUSH1 0x20 ADD PUSH1 0x0 DUP2 MSTORE PUSH1 0x20 ADD PUSH1 0x0 DUP2 MSTORE PUSH1 0x20 ADD PUSH1 0x40 MLOAD DUP1 PUSH1 0xC0 ADD PUSH1 0x40 MSTORE DUP1 PUSH1 0x0 DUP2 MSTORE PUSH1 0x20 ADD PUSH1 0x0 DUP2 MSTORE PUSH1 0x20 ADD PUSH1 0x0 DUP2 MSTORE PUSH1 0x20 ADD PUSH1 0xC8 DUP2 MSTORE PUSH1 0x20 ADD PUSH1 0x0 DUP2 MSTORE PUSH1 0x20 ADD PUSH1 0x0 DUP2 MSTORE POP DUP2 MSTORE PUSH1 0x20 ADD PUSH3 0x15180 DUP2 MSTORE PUSH1 0x20 ADD PUSH1 0x1 ISZERO ISZERO DUP2 MSTORE POP PUSH1 0x1 PUSH1 0x40 MLOAD PUSH3 0x2BF1 SWAP1 PUSH7 0x466163746F7279 PUSH1 0xC8 SHL DUP2 MSTORE PUSH1 0x7 ADD SWAP1 JUMP JUMPDEST SWAP1 DUP2 MSTORE PUSH1 0x40 DUP1 MLOAD PUSH1 0x20 SWAP3 DUP2 SWAP1 SUB DUP4 ADD SWAP1 KECCAK256 PUSH1 0x2 PUSH1 0x0 SWAP1 DUP2 MSTORE SWAP3 MSTORE SWAP1 KECCAK256 DUP2 MLOAD DUP2 SWAP1 PUSH3 0x2C1D SWAP1 DUP3 PUSH3 0x36E9 JUMP JUMPDEST POP PUSH1 0x20 DUP3 ADD MLOAD DUP2 PUSH1 0x1 ADD SSTORE PUSH1 0x40 DUP3 ADD MLOAD DUP2 PUSH1 0x2 ADD PUSH1 0x0 DUP3 ADD MLOAD DUP2 PUSH1 0x0 ADD SSTORE PUSH1 0x20 DUP3 ADD MLOAD DUP2 PUSH1 0x1 ADD SSTORE PUSH1 0x40 DUP3 ADD MLOAD DUP2 PUSH1 0x2 ADD SSTORE PUSH1 0x60 DUP3 ADD MLOAD DUP2 PUSH1 0x3 ADD SSTORE PUSH1 0x80 DUP3 ADD MLOAD DUP2 PUSH1 0x4 ADD SSTORE PUSH1 0xA0 DUP3 ADD MLOAD DUP2 PUSH1 0x5 ADD SSTORE POP POP PUSH1 0x60 DUP3 ADD MLOAD DUP2 PUSH1 0x8 ADD PUSH1 0x0 DUP3 ADD MLOAD DUP2 PUSH1 0x0 ADD SSTORE PUSH1 0x20 DUP3 ADD MLOAD DUP2 PUSH1 0x1 ADD SSTORE PUSH1 0x40 DUP3 ADD MLOAD DUP2 PUSH1 0x2 ADD SSTORE PUSH1 0x60 DUP3 ADD MLOAD DUP2 PUSH1 0x3 ADD SSTORE PUSH1 0x80 DUP3 ADD MLOAD DUP2 PUSH1 0x4 ADD SSTORE PUSH1 0xA0 DUP3 ADD MLOAD DUP2 PUSH1 0x5 ADD SSTORE POP POP PUSH1 0x80 DUP3 ADD MLOAD DUP2 PUSH1 0xE ADD SSTORE PUSH1 0xA0 DUP3 ADD MLOAD DUP2 PUSH1 0xF ADD SSTORE PUSH1 0xC0 DUP3 ADD MLOAD DUP2 PUSH1 0x10 ADD SSTORE PUSH1 0xE0 DUP3 ADD MLOAD DUP2 PUSH1 0x11 ADD SSTORE PUSH2 0x100 DUP3 ADD MLOAD DUP2 PUSH1 0x12 ADD SSTORE PUSH2 0x120 DUP3 ADD MLOAD DUP2 PUSH1 0x13 ADD PUSH1 0x0 DUP3 ADD MLOAD DUP2 PUSH1 0x0 ADD SSTORE PUSH1 0x20 DUP3 ADD MLOAD DUP2 PUSH1 0x1 ADD SSTORE PUSH1 0x40 DUP3 ADD MLOAD DUP2 PUSH1 0x2 ADD SSTORE PUSH1 0x60 DUP3 ADD MLOAD DUP2 PUSH1 0x3 ADD SSTORE PUSH1 0x80 DUP3 ADD MLOAD DUP2 PUSH1 0x4 ADD SSTORE PUSH1 0xA0 DUP3 ADD MLOAD DUP2 PUSH1 0x5 ADD SSTORE POP POP PUSH2 0x140 DUP3 ADD MLOAD DUP2 PUSH1 0x19 ADD SSTORE PUSH2 0x160 DUP3 ADD MLOAD DUP2 PUSH1 0x1A ADD PUSH1 0x0 PUSH2 0x100 EXP DUP2 SLOAD DUP2 PUSH1 0xFF MUL NOT AND SWAP1 DUP4 ISZERO ISZERO MUL OR SWAP1 SSTORE POP SWAP1 POP POP PUSH1 0x40 MLOAD DUP1 PUSH2 0x180 ADD PUSH1 0x40 MSTORE DUP1 PUSH1 0x40 MLOAD DUP1 PUSH1 0x40 ADD PUSH1 0x40 MSTORE DUP1 PUSH1 0xC DUP2 MSTORE PUSH1 0x20 ADD PUSH12 0x151C98591A5B99C8141BDCDD PUSH1 0xA2 SHL DUP2 MSTORE POP DUP2 MSTORE PUSH1 0x20 ADD PUSH1 0x2 DUP2 MSTORE PUSH1 0x20 ADD PUSH1 0x40 MLOAD DUP1 PUSH1 0xC0 ADD PUSH1 0x40 MSTORE DUP1 PUSH1 0xF0 DUP2 MSTORE PUSH1 0x20 ADD PUSH1 0x64 DUP2 MSTORE PUSH1 0x20 ADD PUSH1 0x64 DUP2 MSTORE PUSH1 0x20 ADD PUSH1 0x0 DUP2 MSTORE PUSH1 0x20 ADD PUSH1 0x0 DUP2 MSTORE PUSH1 0x20 ADD PUSH1 0x64 DUP2 MSTORE POP DUP2 MSTORE PUSH1 0x20 ADD PUSH3 0x2E18 PUSH1 0x40 MLOAD DUP1 PUSH1 0xC0 ADD PUSH1 0x40 MSTORE DUP1 PUSH1 0xF0 DUP2 MSTORE PUSH1 0x20 ADD PUSH1 0x64 DUP2 MSTORE PUSH1 0x20 ADD PUSH1 0x64 DUP2 MSTORE PUSH1 0x20 ADD PUSH1 0x0 DUP2 MSTORE PUSH1 0x20 ADD PUSH1 0x0 DUP2 MSTORE PUSH1 0x20 ADD PUSH1 0x64 DUP2 MSTORE POP PUSH3 0x3518 PUSH1 0x20 SHL PUSH1 0x20 SHR JUMP JUMPDEST DUP2 MSTORE PUSH1 0x20 ADD PUSH1 0x0 DUP2 MSTORE PUSH1 0x20 ADD PUSH1 0x6 DUP2 MSTORE PUSH1 0x20 ADD PUSH1 0x0 DUP2 MSTORE PUSH1 0x20 ADD PUSH1 0x2 DUP2 MSTORE PUSH1 0x20 ADD PUSH1 0x0 DUP2 MSTORE PUSH1 0x20 ADD PUSH1 0x40 MLOAD DUP1 PUSH1 0xC0 ADD PUSH1 0x40 MSTORE DUP1 PUSH1 0x0 DUP2 MSTORE PUSH1 0x20 ADD PUSH1 0x0 DUP2 MSTORE PUSH1 0x20 ADD PUSH1 0x0 DUP2 MSTORE PUSH1 0x20 ADD PUSH1 0x0 DUP2 MSTORE PUSH1 0x20 ADD PUSH1 0x0 DUP2 MSTORE PUSH1 0x20 ADD PUSH1 0xC8 DUP2 MSTORE POP DUP2 MSTORE PUSH1 0x20 ADD PUSH3 0x15180 DUP2 MSTORE PUSH1 0x20 ADD PUSH1 0x1 ISZERO ISZERO DUP2 MSTORE POP PUSH1 0x1 PUSH1 0x40 MLOAD PUSH3 0x2EAA SWAP1 PUSH12 0x151C98591A5B99C8141BDCDD PUSH1 0xA2 SHL DUP2 MSTORE PUSH1 0xC ADD SWAP1 JUMP JUMPDEST SWAP1 DUP2 MSTORE PUSH1 0x40 DUP1 MLOAD PUSH1 0x20 SWAP3 DUP2 SWAP1 SUB DUP4 ADD SWAP1 KECCAK256 PUSH1 0x2 PUSH1 0x0 SWAP1 DUP2 MSTORE SWAP3 MSTORE SWAP1 KECCAK256 DUP2 MLOAD DUP2 SWAP1 PUSH3 0x2ED6 SWAP1 DUP3 PUSH3 0x36E9 JUMP JUMPDEST POP PUSH1 0x20 DUP3 ADD MLOAD DUP2 PUSH1 0x1 ADD SSTORE PUSH1 0x40 DUP3 ADD MLOAD DUP2 PUSH1 0x2 ADD PUSH1 0x0 DUP3 ADD MLOAD DUP2 PUSH1 0x0 ADD SSTORE PUSH1 0x20 DUP3 ADD MLOAD DUP2 PUSH1 0x1 ADD SSTORE PUSH1 0x40 DUP3 ADD MLOAD DUP2 PUSH1 0x2 ADD SSTORE PUSH1 0x60 DUP3 ADD MLOAD DUP2 PUSH1 0x3 ADD SSTORE PUSH1 0x80 DUP3 ADD MLOAD DUP2 PUSH1 0x4 ADD SSTORE PUSH1 0xA0 DUP3 ADD MLOAD DUP2 PUSH1 0x5 ADD SSTORE POP POP PUSH1 0x60 DUP3 ADD MLOAD DUP2 PUSH1 0x8 ADD PUSH1 0x0 DUP3 ADD MLOAD DUP2 PUSH1 0x0 ADD SSTORE PUSH1 0x20 DUP3 ADD MLOAD DUP2 PUSH1 0x1 ADD SSTORE PUSH1 0x40 DUP3 ADD MLOAD DUP2 PUSH1 0x2 ADD SSTORE PUSH1 0x60 DUP3 ADD MLOAD DUP2 PUSH1 0x3 ADD SSTORE PUSH1 0x80 DUP3 ADD MLOAD DUP2 PUSH1 0x4 ADD SSTORE PUSH1 0xA0 DUP3 ADD MLOAD DUP2 PUSH1 0x5 ADD SSTORE POP POP PUSH1 0x80 DUP3 ADD MLOAD DUP2 PUSH1 0xE ADD SSTORE PUSH1 0xA0 DUP3 ADD MLOAD DUP2 PUSH1 0xF ADD SSTORE PUSH1 0xC0 DUP3 ADD MLOAD DUP2 PUSH1 0x10 ADD SSTORE PUSH1 0xE0 DUP3 ADD MLOAD DUP2 PUSH1 0x11 ADD SSTORE PUSH2 0x100 DUP3 ADD MLOAD DUP2 PUSH1 0x12 ADD SSTORE PUSH2 0x120 DUP3 ADD MLOAD DUP2 PUSH1 0x13 ADD PUSH1 0x0 DUP3 ADD MLOAD DUP2 PUSH1 0x0 ADD SSTORE PUSH1 0x20 DUP3 ADD MLOAD DUP2 PUSH1 0x1 ADD SSTORE PUSH1 0x40 DUP3 ADD MLOAD DUP2 PUSH1 0x2 ADD SSTORE PUSH1 0x60 DUP3 ADD MLOAD DUP2 PUSH1 0x3 ADD SSTORE PUSH1 0x80 DUP3 ADD MLOAD DUP2 PUSH1 0x4 ADD SSTORE PUSH1 0xA0 DUP3 ADD MLOAD DUP2 PUSH1 0x5 ADD SSTORE POP POP PUSH2 0x140 DUP3 ADD MLOAD DUP2 PUSH1 0x19 ADD SSTORE PUSH2 0x160 DUP3 ADD MLOAD DUP2 PUSH1 0x1A ADD PUSH1 0x0 PUSH2 0x100 EXP DUP2 SLOAD DUP2 PUSH1 0xFF MUL NOT AND SWAP1 DUP4 ISZERO ISZERO MUL OR SWAP1 SSTORE POP SWAP1 POP POP PUSH1 0x40 MLOAD DUP1 PUSH2 0x180 ADD PUSH1 0x40 MSTORE DUP1 PUSH1 0x40 MLOAD DUP1 PUSH1 0x40 ADD PUSH1 0x40 MSTORE DUP1 PUSH1 0x8 DUP2 MSTORE PUSH1 0x20 ADD PUSH8 0x466F727472657373 PUSH1 0xC0 SHL DUP2 MSTORE POP DUP2 MSTORE PUSH1 0x20 ADD PUSH1 0x2 DUP2 MSTORE PUSH1 0x20 ADD PUSH1 0x40 MLOAD DUP1 PUSH1 0xC0 ADD PUSH1 0x40 MSTORE DUP1 PUSH2 0x104 DUP2 MSTORE PUSH1 0x20 ADD PUSH1 0x8C DUP2 MSTORE PUSH1 0x20 ADD PUSH1 0x78 DUP2 MSTORE PUSH1 0x20 ADD PUSH1 0x0 DUP2 MSTORE PUSH1 0x20 ADD PUSH1 0x0 DUP2 MSTORE PUSH1 0x20 ADD PUSH1 0x78 DUP2 MSTORE POP DUP2 MSTORE PUSH1 0x20 ADD PUSH3 0x30CF PUSH1 0x40 MLOAD DUP1 PUSH1 0xC0 ADD PUSH1 0x40 MSTORE DUP1 PUSH2 0x104 DUP2 MSTORE PUSH1 0x20 ADD PUSH1 0x8C DUP2 MSTORE PUSH1 0x20 ADD PUSH1 0x78 DUP2 MSTORE PUSH1 0x20 ADD PUSH1 0x0 DUP2 MSTORE PUSH1 0x20 ADD PUSH1 0x0 DUP2 MSTORE PUSH1 0x20 ADD PUSH1 0x78 DUP2 MSTORE POP PUSH3 0x3518 PUSH1 0x20 SHL PUSH1 0x20 SHR JUMP JUMPDEST DUP2 MSTORE PUSH1 0x20 ADD PUSH1 0x0 DUP2 MSTORE PUSH1 0x20 ADD PUSH1 0x0 DUP2 MSTORE PUSH1 0x20 ADD PUSH1 0x0 DUP2 MSTORE PUSH1 0x20 ADD PUSH1 0x0 DUP2 MSTORE PUSH1 0x20 ADD PUSH1 0xA DUP2 MSTORE PUSH1 0x20 ADD PUSH1 0x40 MLOAD DUP1 PUSH1 0xC0 ADD PUSH1 0x40 MSTORE DUP1 PUSH1 0x0 DUP2 MSTORE PUSH1 0x20 ADD PUSH1 0x0 DUP2 MSTORE PUSH1 0x20 ADD PUSH1 0x0 DUP2 MSTORE PUSH1 0x20 ADD PUSH1 0x0 DUP2 MSTORE PUSH1 0x20 ADD PUSH1 0x0 DUP2 MSTORE PUSH1 0x20 ADD PUSH1 0x0 DUP2 MSTORE POP DUP2 MSTORE PUSH1 0x20 ADD PUSH3 0x15180 DUP2 MSTORE PUSH1 0x20 ADD PUSH1 0x1 ISZERO ISZERO DUP2 MSTORE POP PUSH1 0x1 PUSH1 0x40 MLOAD PUSH3 0x315D SWAP1 PUSH8 0x466F727472657373 PUSH1 0xC0 SHL DUP2 MSTORE PUSH1 0x8 ADD SWAP1 JUMP JUMPDEST SWAP1 DUP2 MSTORE PUSH1 0x40 DUP1 MLOAD PUSH1 0x20 SWAP3 DUP2 SWAP1 SUB DUP4 ADD SWAP1 KECCAK256 PUSH1 0x2 PUSH1 0x0 SWAP1 DUP2 MSTORE SWAP3 MSTORE SWAP1 KECCAK256 DUP2 MLOAD DUP2 SWAP1 PUSH3 0x3189 SWAP1 DUP3 PUSH3 0x36E9 JUMP JUMPDEST POP PUSH1 0x20 DUP3 DUP2 ADD MLOAD PUSH1 0x1 DUP4 ADD SSTORE PUSH1 0x40 DUP1 DUP5 ADD MLOAD DUP1 MLOAD PUSH1 0x2 DUP1 DUP7 ADD SWAP2 SWAP1 SWAP2 SSTORE DUP2 DUP5 ADD MLOAD PUSH1 0x3 DUP7 ADD SSTORE DUP2 DUP4 ADD MLOAD PUSH1 0x4 DUP7 ADD SSTORE PUSH1 0x60 DUP1 DUP4 ADD MLOAD PUSH1 0x5 DUP8 ADD SSTORE PUSH1 0x80 DUP1 DUP5 ADD MLOAD PUSH1 0x6 DUP9 ADD SSTORE PUSH1 0xA0 SWAP4 DUP5 ADD MLOAD PUSH1 0x7 DUP9 ADD SSTORE DUP2 DUP9 ADD MLOAD DUP1 MLOAD PUSH1 0x8 DUP10 ADD SSTORE DUP1 DUP8 ADD MLOAD PUSH1 0x9 DUP10 ADD SSTORE DUP1 DUP7 ADD MLOAD PUSH1 0xA DUP10 ADD SSTORE DUP1 DUP4 ADD MLOAD PUSH1 0xB DUP10 ADD SSTORE DUP1 DUP3 ADD MLOAD PUSH1 0xC DUP10 ADD SSTORE DUP5 ADD MLOAD PUSH1 0xD DUP9 ADD SSTORE DUP1 DUP9 ADD MLOAD PUSH1 0xE DUP1 DUP10 ADD SWAP2 SWAP1 SWAP2 SSTORE DUP5 DUP10 ADD MLOAD PUSH1 0xF DUP10 ADD SSTORE PUSH1 0xC0 DUP1 DUP11 ADD MLOAD PUSH1 0x10 DUP11 ADD SSTORE PUSH1 0xE0 DUP11 ADD MLOAD PUSH1 0x11 DUP11 ADD SSTORE PUSH2 0x100 DUP11 ADD MLOAD PUSH1 0x12 DUP11 ADD SSTORE PUSH2 0x120 DUP11 ADD MLOAD DUP1 MLOAD PUSH1 0x13 DUP12 ADD SSTORE DUP1 DUP10 ADD MLOAD PUSH1 0x14 DUP12 ADD SSTORE DUP1 DUP9 ADD MLOAD PUSH1 0x15 DUP12 ADD SSTORE DUP1 DUP6 ADD MLOAD PUSH1 0x16 DUP12 ADD SSTORE DUP1 DUP5 ADD MLOAD PUSH1 0x17 DUP12 ADD SSTORE DUP7 ADD MLOAD PUSH1 0x18 DUP11 ADD SSTORE PUSH2 0x140 DUP1 DUP12 ADD MLOAD PUSH1 0x19 DUP12 ADD SSTORE PUSH2 0x160 SWAP1 SWAP11 ADD MLOAD PUSH1 0x1A SWAP1 SWAP10 ADD DUP1 SLOAD PUSH1 0xFF NOT AND SWAP10 ISZERO ISZERO SWAP10 SWAP1 SWAP10 OR SWAP1 SWAP9 SSTORE DUP6 MLOAD PUSH2 0x1C0 DUP2 ADD DUP8 MSTORE PUSH2 0x180 DUP2 ADD SWAP2 DUP3 MSTORE PUSH14 0x10D85D985B1C9E4814D8DA1BDBDB PUSH1 0x92 SHL PUSH2 0x1A0 DUP3 ADD MSTORE SWAP1 DUP2 MSTORE DUP1 DUP8 ADD SWAP4 SWAP1 SWAP4 MSTORE DUP5 MLOAD DUP1 DUP9 ADD DUP7 MSTORE DUP9 DUP2 MSTORE PUSH1 0xB4 DUP2 DUP9 ADD DUP2 SWAP1 MSTORE DUP2 DUP8 ADD DUP7 SWAP1 MSTORE PUSH1 0x0 DUP3 DUP6 ADD DUP2 SWAP1 MSTORE DUP3 DUP5 ADD DUP2 SWAP1 MSTORE DUP3 DUP8 ADD DUP3 SWAP1 MSTORE DUP6 DUP9 ADD SWAP3 SWAP1 SWAP3 MSTORE DUP7 MLOAD SWAP9 DUP10 ADD DUP8 MSTORE SWAP9 DUP9 MSTORE SWAP6 DUP8 ADD DUP9 SWAP1 MSTORE SWAP4 DUP7 ADD DUP4 SWAP1 MSTORE DUP6 DUP2 ADD DUP6 SWAP1 MSTORE SWAP3 DUP6 ADD SWAP4 SWAP1 SWAP4 MSTORE DUP4 ADD SWAP4 SWAP1 SWAP4 MSTORE SWAP2 DUP3 ADD SWAP1 PUSH3 0x3345 SWAP1 PUSH3 0x3518 JUMP JUMPDEST DUP2 MSTORE PUSH1 0x20 ADD PUSH1 0x0 DUP2 MSTORE PUSH1 0x20 ADD PUSH1 0x0 DUP2 MSTORE PUSH1 0x20 ADD PUSH1 0x0 DUP2 MSTORE PUSH1 0x20 ADD PUSH1 0x0 DUP2 MSTORE PUSH1 0x20 ADD PUSH1 0x6 DUP2 MSTORE PUSH1 0x20 ADD PUSH1 0x40 MLOAD DUP1 PUSH1 0xC0 ADD PUSH1 0x40 MSTORE DUP1 PUSH1 0x0 DUP2 MSTORE PUSH1 0x20 ADD PUSH1 0x0 DUP2 MSTORE PUSH1 0x20 ADD PUSH1 0x0 DUP2 MSTORE PUSH1 0x20 ADD PUSH1 0x0 DUP2 MSTORE PUSH1 0x20 ADD PUSH1 0x0 DUP2 MSTORE PUSH1 0x20 ADD PUSH1 0x0 DUP2 MSTORE POP DUP2 MSTORE PUSH1 0x20 ADD PUSH3 0x15180 DUP2 MSTORE PUSH1 0x20 ADD PUSH1 0x1 ISZERO ISZERO DUP2 MSTORE POP PUSH1 0x1 PUSH1 0x40 MLOAD PUSH3 0x33D9 SWAP1 PUSH14 0x10D85D985B1C9E4814D8DA1BDBDB PUSH1 0x92 SHL DUP2 MSTORE PUSH1 0xE ADD SWAP1 JUMP JUMPDEST SWAP1 DUP2 MSTORE PUSH1 0x40 DUP1 MLOAD PUSH1 0x20 SWAP3 DUP2 SWAP1 SUB DUP4 ADD SWAP1 KECCAK256 PUSH1 0x2 PUSH1 0x0 SWAP1 DUP2 MSTORE SWAP3 MSTORE SWAP1 KECCAK256 DUP2 MLOAD DUP2 SWAP1 PUSH3 0x3405 SWAP1 DUP3 PUSH3 0x36E9 JUMP JUMPDEST POP PUSH1 0x20 DUP3 DUP2 ADD MLOAD PUSH1 0x1 DUP4 ADD SSTORE PUSH1 0x40 DUP1 DUP5 ADD MLOAD DUP1 MLOAD PUSH1 0x2 DUP6 ADD SSTORE DUP1 DUP4 ADD MLOAD PUSH1 0x3 DUP6 ADD SSTORE DUP1 DUP3 ADD MLOAD PUSH1 0x4 DUP6 ADD SSTORE PUSH1 0x60 DUP1 DUP3 ADD MLOAD PUSH1 0x5 DUP7 ADD SSTORE PUSH1 0x80 DUP1 DUP4 ADD MLOAD PUSH1 0x6 DUP8 ADD SSTORE PUSH1 0xA0 SWAP3 DUP4 ADD MLOAD PUSH1 0x7 DUP8 ADD SSTORE DUP2 DUP8 ADD MLOAD DUP1 MLOAD PUSH1 0x8 DUP9 ADD SSTORE DUP1 DUP7 ADD MLOAD PUSH1 0x9 DUP9 ADD SSTORE DUP1 DUP6 ADD MLOAD PUSH1 0xA DUP9 ADD SSTORE DUP1 DUP4 ADD MLOAD PUSH1 0xB DUP9 ADD SSTORE DUP1 DUP3 ADD MLOAD PUSH1 0xC DUP9 ADD SSTORE DUP4 ADD MLOAD PUSH1 0xD DUP8 ADD SSTORE DUP1 DUP8 ADD MLOAD PUSH1 0xE DUP8 ADD SSTORE DUP3 DUP8 ADD MLOAD PUSH1 0xF DUP8 ADD SSTORE PUSH1 0xC0 DUP8 ADD MLOAD PUSH1 0x10 DUP8 ADD SSTORE PUSH1 0xE0 DUP8 ADD MLOAD PUSH1 0x11 DUP8 ADD SSTORE PUSH2 0x100 DUP8 ADD MLOAD PUSH1 0x12 DUP8 ADD SSTORE PUSH2 0x120 DUP8 ADD MLOAD DUP1 MLOAD PUSH1 0x13 DUP9 ADD SSTORE SWAP5 DUP6 ADD MLOAD PUSH1 0x14 DUP8 ADD SSTORE SWAP3 DUP5 ADD MLOAD PUSH1 0x15 DUP7 ADD SSTORE DUP4 ADD MLOAD PUSH1 0x16 DUP6 ADD SSTORE SWAP1 DUP3 ADD MLOAD PUSH1 0x17 DUP5 ADD SSTORE ADD MLOAD PUSH1 0x18 DUP3 ADD SSTORE PUSH2 0x140 DUP3 ADD MLOAD PUSH1 0x19 DUP3 ADD SSTORE PUSH2 0x160 SWAP1 SWAP2 ADD MLOAD PUSH1 0x1A SWAP1 SWAP2 ADD DUP1 SLOAD PUSH1 0xFF NOT AND SWAP2 ISZERO ISZERO SWAP2 SWAP1 SWAP2 OR SWAP1 SSTORE JUMP JUMPDEST PUSH3 0x3552 PUSH1 0x40 MLOAD DUP1 PUSH1 0xC0 ADD PUSH1 0x40 MSTORE DUP1 PUSH1 0x0 DUP2 MSTORE PUSH1 0x20 ADD PUSH1 0x0 DUP2 MSTORE PUSH1 0x20 ADD PUSH1 0x0 DUP2 MSTORE PUSH1 0x20 ADD PUSH1 0x0 DUP2 MSTORE PUSH1 0x20 ADD PUSH1 0x0 DUP2 MSTORE PUSH1 0x20 ADD PUSH1 0x0 DUP2 MSTORE POP SWAP1 JUMP JUMPDEST PUSH1 0x40 MLOAD DUP1 PUSH1 0xC0 ADD PUSH1 0x40 MSTORE DUP1 PUSH1 0x64 DUP5 PUSH1 0x0 ADD MLOAD PUSH1 0x5 PUSH3 0x3572 SWAP2 SWAP1 PUSH3 0x37B5 JUMP JUMPDEST PUSH3 0x357E SWAP2 SWAP1 PUSH3 0x37E1 JUMP JUMPDEST DUP2 MSTORE PUSH1 0x20 ADD PUSH1 0x64 DUP5 PUSH1 0x20 ADD MLOAD PUSH1 0x5 PUSH3 0x3598 SWAP2 SWAP1 PUSH3 0x37B5 JUMP JUMPDEST PUSH3 0x35A4 SWAP2 SWAP1 PUSH3 0x37E1 JUMP JUMPDEST DUP2 MSTORE PUSH1 0x20 ADD PUSH1 0x64 DUP5 PUSH1 0x40 ADD MLOAD PUSH1 0x5 PUSH3 0x35BE SWAP2 SWAP1 PUSH3 0x37B5 JUMP JUMPDEST PUSH3 0x35CA SWAP2 SWAP1 PUSH3 0x37E1 JUMP JUMPDEST DUP2 MSTORE PUSH1 0x20 ADD PUSH1 0x64 DUP5 PUSH1 0x60 ADD MLOAD PUSH1 0x5 PUSH3 0x35E4 SWAP2 SWAP1 PUSH3 0x37B5 JUMP JUMPDEST PUSH3 0x35F0 SWAP2 SWAP1 PUSH3 0x37E1 JUMP JUMPDEST DUP2 MSTORE PUSH1 0x20 ADD PUSH1 0x64 DUP5 PUSH1 0x80 ADD MLOAD PUSH1 0x5 PUSH3 0x360A SWAP2 SWAP1 PUSH3 0x37B5 JUMP JUMPDEST PUSH3 0x3616 SWAP2 SWAP1 PUSH3 0x37E1 JUMP JUMPDEST DUP2 MSTORE PUSH1 0x20 ADD PUSH1 0x64 DUP5 PUSH1 0xA0 ADD MLOAD PUSH1 0x5 PUSH3 0x3630 SWAP2 SWAP1 PUSH3 0x37B5 JUMP JUMPDEST PUSH3 0x363C SWAP2 SWAP1 PUSH3 0x37E1 JUMP JUMPDEST SWAP1 MSTORE SWAP3 SWAP2 POP POP JUMP JUMPDEST PUSH4 0x4E487B71 PUSH1 0xE0 SHL PUSH1 0x0 MSTORE PUSH1 0x41 PUSH1 0x4 MSTORE PUSH1 0x24 PUSH1 0x0 REVERT JUMPDEST PUSH1 0x1 DUP2 DUP2 SHR SWAP1 DUP3 AND DUP1 PUSH3 0x366F JUMPI PUSH1 0x7F DUP3 AND SWAP2 POP JUMPDEST PUSH1 0x20 DUP3 LT DUP2 SUB PUSH3 0x3690 JUMPI PUSH4 0x4E487B71 PUSH1 0xE0 SHL PUSH1 0x0 MSTORE PUSH1 0x22 PUSH1 0x4 MSTORE PUSH1 0x24 PUSH1 0x0 REVERT JUMPDEST POP SWAP2 SWAP1 POP JUMP JUMPDEST PUSH1 0x1F DUP3 GT ISZERO PUSH3 0x36E4 JUMPI PUSH1 0x0 DUP2 DUP2 MSTORE PUSH1 0x20 DUP2 KECCAK256 PUSH1 0x1F DUP6 ADD PUSH1 0x5 SHR DUP2 ADD PUSH1 0x20 DUP7 LT ISZERO PUSH3 0x36BF JUMPI POP DUP1 JUMPDEST PUSH1 0x1F DUP6 ADD PUSH1 0x5 SHR DUP3 ADD SWAP2 POP JUMPDEST DUP2 DUP2 LT ISZERO PUSH3 0x36E0 JUMPI DUP3 DUP2 SSTORE PUSH1 0x1 ADD PUSH3 0x36CB JUMP JUMPDEST POP POP POP JUMPDEST POP POP POP JUMP JUMPDEST DUP2 MLOAD PUSH1 0x1 PUSH1 0x1 PUSH1 0x40 SHL SUB DUP2 GT ISZERO PUSH3 0x3705 JUMPI PUSH3 0x3705 PUSH3 0x3644 JUMP JUMPDEST PUSH3 0x371D DUP2 PUSH3 0x3716 DUP5 SLOAD PUSH3 0x365A JUMP JUMPDEST DUP5 PUSH3 0x3696 JUMP JUMPDEST PUSH1 0x20 DUP1 PUSH1 0x1F DUP4 GT PUSH1 0x1 DUP2 EQ PUSH3 0x3755 JUMPI PUSH1 0x0 DUP5 ISZERO PUSH3 0x373C JUMPI POP DUP6 DUP4 ADD MLOAD JUMPDEST PUSH1 0x0 NOT PUSH1 0x3 DUP7 SWAP1 SHL SHR NOT AND PUSH1 0x1 DUP6 SWAP1 SHL OR DUP6 SSTORE PUSH3 0x36E0 JUMP JUMPDEST PUSH1 0x0 DUP6 DUP2 MSTORE PUSH1 0x20 DUP2 KECCAK256 PUSH1 0x1F NOT DUP7 AND SWAP2 JUMPDEST DUP3 DUP2 LT ISZERO PUSH3 0x3786 JUMPI DUP9 DUP7 ADD MLOAD DUP3 SSTORE SWAP5 DUP5 ADD SWAP5 PUSH1 0x1 SWAP1 SWAP2 ADD SWAP1 DUP5 ADD PUSH3 0x3765 JUMP JUMPDEST POP DUP6 DUP3 LT ISZERO PUSH3 0x37A5 JUMPI DUP8 DUP6 ADD MLOAD PUSH1 0x0 NOT PUSH1 0x3 DUP9 SWAP1 SHL PUSH1 0xF8 AND SHR NOT AND DUP2 SSTORE JUMPDEST POP POP POP POP POP PUSH1 0x1 SWAP1 DUP2 SHL ADD SWAP1 SSTORE POP JUMP JUMPDEST DUP1 DUP3 MUL DUP2 ISZERO DUP3 DUP3 DIV DUP5 EQ OR PUSH3 0x37DB JUMPI PUSH4 0x4E487B71 PUSH1 0xE0 SHL PUSH1 0x0 MSTORE PUSH1 0x11 PUSH1 0x4 MSTORE PUSH1 0x24 PUSH1 0x0 REVERT JUMPDEST SWAP3 SWAP2 POP POP JUMP JUMPDEST PUSH1 0x0 DUP3 PUSH3 0x37FF JUMPI PUSH4 0x4E487B71 PUSH1 0xE0 SHL PUSH1 0x0 MSTORE PUSH1 0x12 PUSH1 0x4 MSTORE PUSH1 0x24 PUSH1 0x0 REVERT JUMPDEST POP DIV SWAP1 JUMP JUMPDEST PUSH2 0x1481 DUP1 PUSH3 0x3814 PUSH1 0x0 CODECOPY PUSH1 0x0 RETURN INVALID PUSH1 0x80 PUSH1 0x40 MSTORE CALLVALUE DUP1 ISZERO PUSH2 0x10 JUMPI PUSH1 0x0 DUP1 REVERT JUMPDEST POP PUSH1 0x4 CALLDATASIZE LT PUSH2 0x7D JUMPI PUSH1 0x0 CALLDATALOAD PUSH1 0xE0 SHR DUP1 PUSH4 0xAB0E2378 GT PUSH2 0x5B JUMPI DUP1 PUSH4 0xAB0E2378 EQ PUSH2 0xFD JUMPI DUP1 PUSH4 0xBFECD1A7 EQ PUSH2 0x112 JUMPI DUP1 PUSH4 0xD9DCFDB8 EQ PUSH2 0x132 JUMPI DUP1 PUSH4 0xED81049D EQ PUSH2 0x153 JUMPI PUSH1 0x0 DUP1 REVERT JUMPDEST DUP1 PUSH4 0x39D022E1 EQ PUSH2 0x82 JUMPI DUP1 PUSH4 0x489B0F5A EQ PUSH2 0xB2 JUMPI DUP1 PUSH4 0x6790D4B9 EQ PUSH2 0xD2 JUMPI JUMPDEST PUSH1 0x0 DUP1 REVERT JUMPDEST PUSH1 0x0 SLOAD PUSH2 0x95 SWAP1 PUSH1 0x1 PUSH1 0x1 PUSH1 0xA0 SHL SUB AND DUP2 JUMP JUMPDEST PUSH1 0x40 MLOAD PUSH1 0x1 PUSH1 0x1 PUSH1 0xA0 SHL SUB SWAP1 SWAP2 AND DUP2 MSTORE PUSH1 0x20 ADD JUMPDEST PUSH1 0x40 MLOAD DUP1 SWAP2 SUB SWAP1 RETURN JUMPDEST PUSH2 0xC5 PUSH2 0xC0 CALLDATASIZE PUSH1 0x4 PUSH2 0xF0C JUMP JUMPDEST PUSH2 0x181 JUMP JUMPDEST PUSH1 0x40 MLOAD PUSH2 0xA9 SWAP2 SWAP1 PUSH2 0xFDB JUMP JUMPDEST PUSH2 0xE5 PUSH2 0xE0 CALLDATASIZE PUSH1 0x4 PUSH2 0xF0C JUMP JUMPDEST PUSH2 0x3A8 JUMP JUMPDEST PUSH1 0x40 MLOAD PUSH2 0xA9 SWAP13 SWAP12 SWAP11 SWAP10 SWAP9 SWAP8 SWAP7 SWAP6 SWAP5 SWAP4 SWAP3 SWAP2 SWAP1 PUSH2 0x109B JUMP JUMPDEST PUSH2 0x110 PUSH2 0x10B CALLDATASIZE PUSH1 0x4 PUSH2 0x1125 JUMP JUMPDEST PUSH2 0x582 JUMP JUMPDEST STOP JUMPDEST PUSH2 0x125 PUSH2 0x120 CALLDATASIZE PUSH1 0x4 PUSH2 0x1155 JUMP JUMPDEST PUSH2 0x5FB JUMP JUMPDEST PUSH1 0x40 MLOAD PUSH2 0xA9 SWAP2 SWAP1 PUSH2 0x127A JUMP JUMPDEST PUSH2 0x145 PUSH2 0x140 CALLDATASIZE PUSH1 0x4 PUSH2 0x1288 JUMP JUMPDEST PUSH2 0x95F JUMP JUMPDEST PUSH1 0x40 MLOAD PUSH2 0xA9 SWAP3 SWAP2 SWAP1 PUSH2 0x1336 JUMP JUMPDEST PUSH2 0x166 PUSH2 0x161 CALLDATASIZE PUSH1 0x4 PUSH2 0xF0C JUMP JUMPDEST PUSH2 0xCDB JUMP JUMPDEST PUSH1 0x40 DUP1 MLOAD SWAP4 DUP5 MSTORE PUSH1 0x20 DUP5 ADD SWAP3 SWAP1 SWAP3 MSTORE SWAP1 DUP3 ADD MSTORE PUSH1 0x60 ADD PUSH2 0xA9 JUMP JUMPDEST PUSH2 0x189 PUSH2 0xD2F JUMP JUMPDEST PUSH1 0x1 DUP4 PUSH1 0x40 MLOAD PUSH2 0x199 SWAP2 SWAP1 PUSH2 0x1351 JUMP JUMPDEST SWAP1 DUP2 MSTORE PUSH1 0x40 DUP1 MLOAD SWAP2 DUP3 SWAP1 SUB PUSH1 0x20 SWAP1 DUP2 ADD DUP4 KECCAK256 PUSH1 0x0 DUP7 DUP2 MSTORE SWAP2 MSTORE DUP2 SWAP1 KECCAK256 PUSH2 0x180 DUP4 ADD SWAP1 SWAP2 MSTORE DUP1 SLOAD DUP3 SWAP1 DUP3 SWAP1 PUSH2 0x1CC SWAP1 PUSH2 0x136D JUMP JUMPDEST DUP1 PUSH1 0x1F ADD PUSH1 0x20 DUP1 SWAP2 DIV MUL PUSH1 0x20 ADD PUSH1 0x40 MLOAD SWAP1 DUP2 ADD PUSH1 0x40 MSTORE DUP1 SWAP3 SWAP2 SWAP1 DUP2 DUP2 MSTORE PUSH1 0x20 ADD DUP3 DUP1 SLOAD PUSH2 0x1F8 SWAP1 PUSH2 0x136D JUMP JUMPDEST DUP1 ISZERO PUSH2 0x245 JUMPI DUP1 PUSH1 0x1F LT PUSH2 0x21A JUMPI PUSH2 0x100 DUP1 DUP4 SLOAD DIV MUL DUP4 MSTORE SWAP2 PUSH1 0x20 ADD SWAP2 PUSH2 0x245 JUMP JUMPDEST DUP3 ADD SWAP2 SWAP1 PUSH1 0x0 MSTORE PUSH1 0x20 PUSH1 0x0 KECCAK256 SWAP1 JUMPDEST DUP2 SLOAD DUP2 MSTORE SWAP1 PUSH1 0x1 ADD SWAP1 PUSH1 0x20 ADD DUP1 DUP4 GT PUSH2 0x228 JUMPI DUP3 SWAP1 SUB PUSH1 0x1F AND DUP3 ADD SWAP2 JUMPDEST POP POP POP POP POP DUP2 MSTORE PUSH1 0x20 ADD PUSH1 0x1 DUP3 ADD SLOAD DUP2 MSTORE PUSH1 0x20 ADD PUSH1 0x2 DUP3 ADD PUSH1 0x40 MLOAD DUP1 PUSH1 0xC0 ADD PUSH1 0x40 MSTORE SWAP1 DUP2 PUSH1 0x0 DUP3 ADD SLOAD DUP2 MSTORE PUSH1 0x20 ADD PUSH1 0x1 DUP3 ADD SLOAD DUP2 MSTORE PUSH1 0x20 ADD PUSH1 0x2 DUP3 ADD SLOAD DUP2 MSTORE PUSH1 0x20 ADD PUSH1 0x3 DUP3 ADD SLOAD DUP2 MSTORE PUSH1 0x20 ADD PUSH1 0x4 DUP3 ADD SLOAD DUP2 MSTORE PUSH1 0x20 ADD PUSH1 0x5 DUP3 ADD SLOAD DUP2 MSTORE POP POP DUP2 MSTORE PUSH1 0x20 ADD PUSH1 0x8 DUP3 ADD PUSH1 0x40 MLOAD DUP1 PUSH1 0xC0 ADD PUSH1 0x40 MSTORE SWAP1 DUP2 PUSH1 0x0 DUP3 ADD SLOAD DUP2 MSTORE PUSH1 0x20 ADD PUSH1 0x1 DUP3 ADD SLOAD DUP2 MSTORE PUSH1 0x20 ADD PUSH1 0x2 DUP3 ADD SLOAD DUP2 MSTORE PUSH1 0x20 ADD PUSH1 0x3 DUP3 ADD SLOAD DUP2 MSTORE PUSH1 0x20 ADD PUSH1 0x4 DUP3 ADD SLOAD DUP2 MSTORE PUSH1 0x20 ADD PUSH1 0x5 DUP3 ADD SLOAD DUP2 MSTORE POP POP DUP2 MSTORE PUSH1 0x20 ADD PUSH1 0xE DUP3 ADD SLOAD DUP2 MSTORE PUSH1 0x20 ADD PUSH1 0xF DUP3 ADD SLOAD DUP2 MSTORE PUSH1 0x20 ADD PUSH1 0x10 DUP3 ADD SLOAD DUP2 MSTORE PUSH1 0x20 ADD PUSH1 0x11 DUP3 ADD SLOAD DUP2 MSTORE PUSH1 0x20 ADD PUSH1 0x12 DUP3 ADD SLOAD DUP2 MSTORE PUSH1 0x20 ADD PUSH1 0x13 DUP3 ADD PUSH1 0x40 MLOAD DUP1 PUSH1 0xC0 ADD PUSH1 0x40 MSTORE SWAP1 DUP2 PUSH1 0x0 DUP3 ADD SLOAD DUP2 MSTORE PUSH1 0x20 ADD PUSH1 0x1 DUP3 ADD SLOAD DUP2 MSTORE PUSH1 0x20 ADD PUSH1 0x2 DUP3 ADD SLOAD DUP2 MSTORE PUSH1 0x20 ADD PUSH1 0x3 DUP3 ADD SLOAD DUP2 MSTORE PUSH1 0x20 ADD PUSH1 0x4 DUP3 ADD SLOAD DUP2 MSTORE PUSH1 0x20 ADD PUSH1 0x5 DUP3 ADD SLOAD DUP2 MSTORE POP POP DUP2 MSTORE PUSH1 0x20 ADD PUSH1 0x19 DUP3 ADD SLOAD DUP2 MSTORE PUSH1 0x20 ADD PUSH1 0x1A DUP3 ADD PUSH1 0x0 SWAP1 SLOAD SWAP1 PUSH2 0x100 EXP SWAP1 DIV PUSH1 0xFF AND ISZERO ISZERO ISZERO ISZERO DUP2 MSTORE POP POP SWAP1 POP JUMPDEST SWAP3 SWAP2 POP POP JUMP JUMPDEST DUP2 MLOAD PUSH1 0x20 DUP2 DUP5 ADD DUP2 ADD DUP1 MLOAD PUSH1 0x1 DUP3 MSTORE SWAP3 DUP3 ADD SWAP5 DUP3 ADD SWAP5 SWAP1 SWAP5 KECCAK256 SWAP2 SWAP1 SWAP4 MSTORE SWAP1 SWAP2 MSTORE PUSH1 0x0 SWAP1 DUP2 MSTORE PUSH1 0x40 SWAP1 KECCAK256 DUP1 SLOAD DUP2 SWAP1 PUSH2 0x3DE SWAP1 PUSH2 0x136D JUMP JUMPDEST DUP1 PUSH1 0x1F ADD PUSH1 0x20 DUP1 SWAP2 DIV MUL PUSH1 0x20 ADD PUSH1 0x40 MLOAD SWAP1 DUP2 ADD PUSH1 0x40 MSTORE DUP1 SWAP3 SWAP2 SWAP1 DUP2 DUP2 MSTORE PUSH1 0x20 ADD DUP3 DUP1 SLOAD PUSH2 0x40A SWAP1 PUSH2 0x136D JUMP JUMPDEST DUP1 ISZERO PUSH2 0x457 JUMPI DUP1 PUSH1 0x1F LT PUSH2 0x42C JUMPI PUSH2 0x100 DUP1 DUP4 SLOAD DIV MUL DUP4 MSTORE SWAP2 PUSH1 0x20 ADD SWAP2 PUSH2 0x457 JUMP JUMPDEST DUP3 ADD SWAP2 SWAP1 PUSH1 0x0 MSTORE PUSH1 0x20 PUSH1 0x0 KECCAK256 SWAP1 JUMPDEST DUP2 SLOAD DUP2 MSTORE SWAP1 PUSH1 0x1 ADD SWAP1 PUSH1 0x20 ADD DUP1 DUP4 GT PUSH2 0x43A JUMPI DUP3 SWAP1 SUB PUSH1 0x1F AND DUP3 ADD SWAP2 JUMPDEST POP POP POP POP POP SWAP1 DUP1 PUSH1 0x1 ADD SLOAD SWAP1 DUP1 PUSH1 0x2 ADD PUSH1 0x40 MLOAD DUP1 PUSH1 0xC0 ADD PUSH1 0x40 MSTORE SWAP1 DUP2 PUSH1 0x0 DUP3 ADD SLOAD DUP2 MSTORE PUSH1 0x20 ADD PUSH1 0x1 DUP3 ADD SLOAD DUP2 MSTORE PUSH1 0x20 ADD PUSH1 0x2 DUP3 ADD SLOAD DUP2 MSTORE PUSH1 0x20 ADD PUSH1 0x3 DUP3 ADD SLOAD DUP2 MSTORE PUSH1 0x20 ADD PUSH1 0x4 DUP3 ADD SLOAD DUP2 MSTORE PUSH1 0x20 ADD PUSH1 0x5 DUP3 ADD SLOAD DUP2 MSTORE POP POP SWAP1 DUP1 PUSH1 0x8 ADD PUSH1 0x40 MLOAD DUP1 PUSH1 0xC0 ADD PUSH1 0x40 MSTORE SWAP1 DUP2 PUSH1 0x0 DUP3 ADD SLOAD DUP2 MSTORE PUSH1 0x20 ADD PUSH1 0x1 DUP3 ADD SLOAD DUP2 MSTORE PUSH1 0x20 ADD PUSH1 0x2 DUP3 ADD SLOAD DUP2 MSTORE PUSH1 0x20 ADD PUSH1 0x3 DUP3 ADD SLOAD DUP2 MSTORE PUSH1 0x20 ADD PUSH1 0x4 DUP3 ADD SLOAD DUP2 MSTORE PUSH1 0x20 ADD PUSH1 0x5 DUP3 ADD SLOAD DUP2 MSTORE POP POP SWAP1 DUP1 PUSH1 0xE ADD SLOAD SWAP1 DUP1 PUSH1 0xF ADD SLOAD SWAP1 DUP1 PUSH1 0x10 ADD SLOAD SWAP1 DUP1 PUSH1 0x11 ADD SLOAD SWAP1 DUP1 PUSH1 0x12 ADD SLOAD SWAP1 DUP1 PUSH1 0x13 ADD PUSH1 0x40 MLOAD DUP1 PUSH1 0xC0 ADD PUSH1 0x40 MSTORE SWAP1 DUP2 PUSH1 0x0 DUP3 ADD SLOAD DUP2 MSTORE PUSH1 0x20 ADD PUSH1 0x1 DUP3 ADD SLOAD DUP2 MSTORE PUSH1 0x20 ADD PUSH1 0x2 DUP3 ADD SLOAD DUP2 MSTORE PUSH1 0x20 ADD PUSH1 0x3 DUP3 ADD SLOAD DUP2 MSTORE PUSH1 0x20 ADD PUSH1 0x4 DUP3 ADD SLOAD DUP2 MSTORE PUSH1 0x20 ADD PUSH1 0x5 DUP3 ADD SLOAD DUP2 MSTORE POP POP SWAP1 DUP1 PUSH1 0x19 ADD SLOAD SWAP1 DUP1 PUSH1 0x1A ADD PUSH1 0x0 SWAP1 SLOAD SWAP1 PUSH2 0x100 EXP SWAP1 DIV PUSH1 0xFF AND SWAP1 POP DUP13 JUMP JUMPDEST PUSH1 0x0 SLOAD PUSH1 0x1 PUSH1 0x1 PUSH1 0xA0 SHL SUB AND ISZERO PUSH2 0x5D9 JUMPI PUSH1 0x40 MLOAD PUSH3 0x461BCD PUSH1 0xE5 SHL DUP2 MSTORE PUSH1 0x20 PUSH1 0x4 DUP3 ADD MSTORE PUSH1 0x16 PUSH1 0x24 DUP3 ADD MSTORE PUSH22 0x13185B99139195081A5CC8185B1C9958591E481CD95D PUSH1 0x52 SHL PUSH1 0x44 DUP3 ADD MSTORE PUSH1 0x64 ADD JUMPDEST PUSH1 0x40 MLOAD DUP1 SWAP2 SUB SWAP1 REVERT JUMPDEST PUSH1 0x0 DUP1 SLOAD PUSH1 0x1 PUSH1 0x1 PUSH1 0xA0 SHL SUB NOT AND PUSH1 0x1 PUSH1 0x1 PUSH1 0xA0 SHL SUB SWAP3 SWAP1 SWAP3 AND SWAP2 SWAP1 SWAP2 OR SWAP1 SSTORE JUMP JUMPDEST PUSH2 0x603 PUSH2 0xDD3 JUMP JUMPDEST PUSH2 0x60B PUSH2 0xDD3 JUMP JUMPDEST PUSH1 0x0 JUMPDEST DUP5 MLOAD DUP2 LT ISZERO PUSH2 0x957 JUMPI PUSH1 0x0 DUP6 DUP3 DUP2 MLOAD DUP2 LT PUSH2 0x62B JUMPI PUSH2 0x62B PUSH2 0x13A7 JUMP JUMPDEST PUSH1 0x20 MUL PUSH1 0x20 ADD ADD MLOAD SWAP1 POP DUP1 PUSH1 0x40 ADD MLOAD ISZERO PUSH2 0x944 JUMPI PUSH1 0x0 PUSH1 0x1 DUP3 PUSH1 0x0 ADD MLOAD PUSH1 0x40 MLOAD PUSH2 0x655 SWAP2 SWAP1 PUSH2 0x1351 JUMP JUMPDEST SWAP1 DUP2 MSTORE PUSH1 0x40 DUP1 MLOAD SWAP2 DUP3 SWAP1 SUB PUSH1 0x20 SWAP1 DUP2 ADD DUP4 KECCAK256 DUP6 DUP3 ADD MLOAD PUSH1 0x0 SWAP1 DUP2 MSTORE SWAP2 MSTORE DUP2 SWAP1 KECCAK256 PUSH2 0x180 DUP4 ADD SWAP1 SWAP2 MSTORE DUP1 SLOAD DUP3 SWAP1 DUP3 SWAP1 PUSH2 0x68C SWAP1 PUSH2 0x136D JUMP JUMPDEST DUP1 PUSH1 0x1F ADD PUSH1 0x20 DUP1 SWAP2 DIV MUL PUSH1 0x20 ADD PUSH1 0x40 MLOAD SWAP1 DUP2 ADD PUSH1 0x40 MSTORE DUP1 SWAP3 SWAP2 SWAP1 DUP2 DUP2 MSTORE PUSH1 0x20 ADD DUP3 DUP1 SLOAD PUSH2 0x6B8 SWAP1 PUSH2 0x136D JUMP JUMPDEST DUP1 ISZERO PUSH2 0x705 JUMPI DUP1 PUSH1 0x1F LT PUSH2 0x6DA JUMPI PUSH2 0x100 DUP1 DUP4 SLOAD DIV MUL DUP4 MSTORE SWAP2 PUSH1 0x20 ADD SWAP2 PUSH2 0x705 JUMP JUMPDEST DUP3 ADD SWAP2 SWAP1 PUSH1 0x0 MSTORE PUSH1 0x20 PUSH1 0x0 KECCAK256 SWAP1 JUMPDEST DUP2 SLOAD DUP2 MSTORE SWAP1 PUSH1 0x1 ADD SWAP1 PUSH1 0x20 ADD DUP1 DUP4 GT PUSH2 0x6E8 JUMPI DUP3 SWAP1 SUB PUSH1 0x1F AND DUP3 ADD SWAP2 JUMPDEST POP POP POP POP POP DUP2 MSTORE PUSH1 0x20 ADD PUSH1 0x1 DUP3 ADD SLOAD DUP2 MSTORE PUSH1 0x20 ADD PUSH1 0x2 DUP3 ADD PUSH1 0x40 MLOAD DUP1 PUSH1 0xC0 ADD PUSH1 0x40 MSTORE SWAP1 DUP2 PUSH1 0x0 DUP3 ADD SLOAD DUP2 MSTORE PUSH1 0x20 ADD PUSH1 0x1 DUP3 ADD SLOAD DUP2 MSTORE PUSH1 0x20 ADD PUSH1 0x2 DUP3 ADD SLOAD DUP2 MSTORE PUSH1 0x20 ADD PUSH1 0x3 DUP3 ADD SLOAD DUP2 MSTORE PUSH1 0x20 ADD PUSH1 0x4 DUP3 ADD SLOAD DUP2 MSTORE PUSH1 0x20 ADD PUSH1 0x5 DUP3 ADD SLOAD DUP2 MSTORE POP POP DUP2 MSTORE PUSH1 0x20 ADD PUSH1 0x8 DUP3 ADD PUSH1 0x40 MLOAD DUP1 PUSH1 0xC0 ADD PUSH1 0x40 MSTORE SWAP1 DUP2 PUSH1 0x0 DUP3 ADD SLOAD DUP2 MSTORE PUSH1 0x20 ADD PUSH1 0x1 DUP3 ADD SLOAD DUP2 MSTORE PUSH1 0x20 ADD PUSH1 0x2 DUP3 ADD SLOAD DUP2 MSTORE PUSH1 0x20 ADD PUSH1 0x3 DUP3 ADD SLOAD DUP2 MSTORE PUSH1 0x20 ADD PUSH1 0x4 DUP3 ADD SLOAD DUP2 MSTORE PUSH1 0x20 ADD PUSH1 0x5 DUP3 ADD SLOAD DUP2 MSTORE POP POP DUP2 MSTORE PUSH1 0x20 ADD PUSH1 0xE DUP3 ADD SLOAD DUP2 MSTORE PUSH1 0x20 ADD PUSH1 0xF DUP3 ADD SLOAD DUP2 MSTORE PUSH1 0x20 ADD PUSH1 0x10 DUP3 ADD SLOAD DUP2 MSTORE PUSH1 0x20 ADD PUSH1 0x11 DUP3 ADD SLOAD DUP2 MSTORE PUSH1 0x20 ADD PUSH1 0x12 DUP3 ADD SLOAD DUP2 MSTORE PUSH1 0x20 ADD PUSH1 0x13 DUP3 ADD PUSH1 0x40 MLOAD DUP1 PUSH1 0xC0 ADD PUSH1 0x40 MSTORE SWAP1 DUP2 PUSH1 0x0 DUP3 ADD SLOAD DUP2 MSTORE PUSH1 0x20 ADD PUSH1 0x1 DUP3 ADD SLOAD DUP2 MSTORE PUSH1 0x20 ADD PUSH1 0x2 DUP3 ADD SLOAD DUP2 MSTORE PUSH1 0x20 ADD PUSH1 0x3 DUP3 ADD SLOAD DUP2 MSTORE PUSH1 0x20 ADD PUSH1 0x4 DUP3 ADD SLOAD DUP2 MSTORE PUSH1 0x20 ADD PUSH1 0x5 DUP3 ADD SLOAD DUP2 MSTORE POP POP DUP2 MSTORE PUSH1 0x20 ADD PUSH1 0x19 DUP3 ADD SLOAD DUP2 MSTORE PUSH1 0x20 ADD PUSH1 0x1A DUP3 ADD PUSH1 0x0 SWAP1 SLOAD SWAP1 PUSH2 0x100 EXP SWAP1 DIV PUSH1 0xFF AND ISZERO ISZERO ISZERO ISZERO DUP2 MSTORE POP POP SWAP1 POP PUSH1 0x0 DUP2 PUSH2 0x120 ADD MLOAD SWAP1 POP DUP7 DUP2 PUSH1 0x0 ADD MLOAD PUSH2 0x87B SWAP2 SWAP1 PUSH2 0x13D3 JUMP JUMPDEST DUP6 MLOAD DUP7 SWAP1 PUSH2 0x88A SWAP1 DUP4 SWAP1 PUSH2 0x13EA JUMP JUMPDEST SWAP1 MSTORE POP PUSH1 0x20 DUP2 ADD MLOAD PUSH2 0x89D SWAP1 DUP9 SWAP1 PUSH2 0x13D3 JUMP JUMPDEST DUP6 PUSH1 0x20 ADD DUP2 DUP2 MLOAD PUSH2 0x8AE SWAP2 SWAP1 PUSH2 0x13EA JUMP JUMPDEST SWAP1 MSTORE POP PUSH1 0x40 DUP2 ADD MLOAD PUSH2 0x8C1 SWAP1 DUP9 SWAP1 PUSH2 0x13D3 JUMP JUMPDEST DUP6 PUSH1 0x40 ADD DUP2 DUP2 MLOAD PUSH2 0x8D2 SWAP2 SWAP1 PUSH2 0x13EA JUMP JUMPDEST SWAP1 MSTORE POP PUSH1 0x60 DUP2 ADD MLOAD PUSH2 0x8E5 SWAP1 DUP9 SWAP1 PUSH2 0x13D3 JUMP JUMPDEST DUP6 PUSH1 0x60 ADD DUP2 DUP2 MLOAD PUSH2 0x8F6 SWAP2 SWAP1 PUSH2 0x13EA JUMP JUMPDEST SWAP1 MSTORE POP PUSH1 0x80 DUP2 ADD MLOAD PUSH2 0x909 SWAP1 DUP9 SWAP1 PUSH2 0x13D3 JUMP JUMPDEST DUP6 PUSH1 0x80 ADD DUP2 DUP2 MLOAD PUSH2 0x91A SWAP2 SWAP1 PUSH2 0x13EA JUMP JUMPDEST SWAP1 MSTORE POP PUSH1 0xA0 DUP2 ADD MLOAD PUSH2 0x92D SWAP1 DUP9 SWAP1 PUSH2 0x13D3 JUMP JUMPDEST DUP6 PUSH1 0xA0 ADD DUP2 DUP2 MLOAD PUSH2 0x93E SWAP2 SWAP1 PUSH2 0x13EA JUMP JUMPDEST SWAP1 MSTORE POP POP POP JUMPDEST POP DUP1 PUSH2 0x94F DUP2 PUSH2 0x13FD JUMP JUMPDEST SWAP2 POP POP PUSH2 0x60E JUMP JUMPDEST POP SWAP4 SWAP3 POP POP POP JUMP JUMPDEST PUSH2 0x967 PUSH2 0xDD3 JUMP JUMPDEST PUSH1 0x0 DUP1 DUP7 MLOAD GT PUSH2 0x9B1 JUMPI PUSH1 0x40 MLOAD PUSH3 0x461BCD PUSH1 0xE5 SHL DUP2 MSTORE PUSH1 0x20 PUSH1 0x4 DUP3 ADD MSTORE PUSH1 0x15 PUSH1 0x24 DUP3 ADD MSTORE PUSH21 0x496E76616C6964206275696C64696E67206E616D65 PUSH1 0x58 SHL PUSH1 0x44 DUP3 ADD MSTORE PUSH1 0x64 ADD PUSH2 0x5D0 JUMP JUMPDEST PUSH1 0x0 PUSH1 0x1 DUP8 PUSH1 0x40 MLOAD PUSH2 0x9C3 SWAP2 SWAP1 PUSH2 0x1351 JUMP JUMPDEST SWAP1 DUP2 MSTORE PUSH1 0x40 DUP1 MLOAD PUSH1 0x20 SWAP3 DUP2 SWAP1 SUB DUP4 ADD SWAP1 KECCAK256 PUSH1 0x0 DUP10 DUP2 MSTORE SWAP3 MSTORE SWAP1 KECCAK256 PUSH1 0x1A DUP2 ADD SLOAD SWAP1 SWAP2 POP PUSH1 0xFF AND PUSH2 0xA2D JUMPI PUSH1 0x40 MLOAD PUSH3 0x461BCD PUSH1 0xE5 SHL DUP2 MSTORE PUSH1 0x20 PUSH1 0x4 DUP3 ADD MSTORE PUSH1 0x16 PUSH1 0x24 DUP3 ADD MSTORE PUSH22 0x4275696C64696E67206E6F7420617661696C61626C65 PUSH1 0x50 SHL PUSH1 0x44 DUP3 ADD MSTORE PUSH1 0x64 ADD PUSH2 0x5D0 JUMP JUMPDEST PUSH1 0x2 DUP2 ADD SLOAD DUP6 MLOAD LT ISZERO PUSH2 0xA74 JUMPI PUSH1 0x40 MLOAD PUSH3 0x461BCD PUSH1 0xE5 SHL DUP2 MSTORE PUSH1 0x20 PUSH1 0x4 DUP3 ADD MSTORE PUSH1 0xF PUSH1 0x24 DUP3 ADD MSTORE PUSH15 0x139BDD08195B9BDD59DA08199BDBD9 PUSH1 0x8A SHL PUSH1 0x44 DUP3 ADD MSTORE PUSH1 0x64 ADD PUSH2 0x5D0 JUMP JUMPDEST PUSH1 0x3 DUP2 ADD SLOAD PUSH1 0x20 DUP7 ADD MLOAD LT ISZERO PUSH2 0xABE JUMPI PUSH1 0x40 MLOAD PUSH3 0x461BCD PUSH1 0xE5 SHL DUP2 MSTORE PUSH1 0x20 PUSH1 0x4 DUP3 ADD MSTORE PUSH1 0xF PUSH1 0x24 DUP3 ADD MSTORE PUSH15 0x139BDD08195B9BDD59DA081DDBDBD9 PUSH1 0x8A SHL PUSH1 0x44 DUP3 ADD MSTORE PUSH1 0x64 ADD PUSH2 0x5D0 JUMP JUMPDEST PUSH1 0x4 DUP2 ADD SLOAD PUSH1 0x40 DUP7 ADD MLOAD LT ISZERO PUSH2 0xB09 JUMPI PUSH1 0x40 MLOAD PUSH3 0x461BCD PUSH1 0xE5 SHL DUP2 MSTORE PUSH1 0x20 PUSH1 0x4 DUP3 ADD MSTORE PUSH1 0x10 PUSH1 0x24 DUP3 ADD MSTORE PUSH16 0x4E6F7420656E6F7567682073746F6E65 PUSH1 0x80 SHL PUSH1 0x44 DUP3 ADD MSTORE PUSH1 0x64 ADD PUSH2 0x5D0 JUMP JUMPDEST PUSH1 0x5 DUP2 ADD SLOAD PUSH1 0x60 DUP7 ADD MLOAD LT ISZERO PUSH2 0xB54 JUMPI PUSH1 0x40 MLOAD PUSH3 0x461BCD PUSH1 0xE5 SHL DUP2 MSTORE PUSH1 0x20 PUSH1 0x4 DUP3 ADD MSTORE PUSH1 0x10 PUSH1 0x24 DUP3 ADD MSTORE PUSH16 0x4E6F7420656E6F756768206272617373 PUSH1 0x80 SHL PUSH1 0x44 DUP3 ADD MSTORE PUSH1 0x64 ADD PUSH2 0x5D0 JUMP JUMPDEST PUSH1 0x6 DUP2 ADD SLOAD PUSH1 0x80 DUP7 ADD MLOAD LT ISZERO PUSH2 0xB9E JUMPI PUSH1 0x40 MLOAD PUSH3 0x461BCD PUSH1 0xE5 SHL DUP2 MSTORE PUSH1 0x20 PUSH1 0x4 DUP3 ADD MSTORE PUSH1 0xF PUSH1 0x24 DUP3 ADD MSTORE PUSH15 0x2737BA1032B737BAB3B41034B937B7 PUSH1 0x89 SHL PUSH1 0x44 DUP3 ADD MSTORE PUSH1 0x64 ADD PUSH2 0x5D0 JUMP JUMPDEST PUSH1 0x7 DUP2 ADD SLOAD PUSH1 0xA0 DUP7 ADD MLOAD LT ISZERO PUSH2 0xBE8 JUMPI PUSH1 0x40 MLOAD PUSH3 0x461BCD PUSH1 0xE5 SHL DUP2 MSTORE PUSH1 0x20 PUSH1 0x4 DUP3 ADD MSTORE PUSH1 0xF PUSH1 0x24 DUP3 ADD MSTORE PUSH15 0x139BDD08195B9BDD59DA0819DBDB19 PUSH1 0x8A SHL PUSH1 0x44 DUP3 ADD MSTORE PUSH1 0x64 ADD PUSH2 0x5D0 JUMP JUMPDEST PUSH1 0x2 DUP2 ADD SLOAD DUP6 MLOAD DUP7 SWAP5 POP DUP5 SWAP1 PUSH2 0xBFF SWAP1 DUP4 SWAP1 PUSH2 0x1416 JUMP JUMPDEST SWAP1 MSTORE POP PUSH1 0x3 DUP2 ADD SLOAD PUSH1 0x20 DUP5 ADD DUP1 MLOAD PUSH2 0xC18 SWAP1 DUP4 SWAP1 PUSH2 0x1416 JUMP JUMPDEST SWAP1 MSTORE POP PUSH1 0x4 DUP2 ADD SLOAD PUSH1 0x40 DUP5 ADD DUP1 MLOAD PUSH2 0xC31 SWAP1 DUP4 SWAP1 PUSH2 0x1416 JUMP JUMPDEST SWAP1 MSTORE POP PUSH1 0x5 DUP2 ADD SLOAD PUSH1 0x60 DUP5 ADD DUP1 MLOAD PUSH2 0xC4A SWAP1 DUP4 SWAP1 PUSH2 0x1416 JUMP JUMPDEST SWAP1 MSTORE POP PUSH1 0x6 DUP2 ADD SLOAD PUSH1 0x80 DUP5 ADD DUP1 MLOAD PUSH2 0xC63 SWAP1 DUP4 SWAP1 PUSH2 0x1416 JUMP JUMPDEST SWAP1 MSTORE POP PUSH1 0x7 DUP2 ADD SLOAD PUSH1 0xA0 DUP5 ADD DUP1 MLOAD PUSH2 0xC7C SWAP1 DUP4 SWAP1 PUSH2 0x1416 JUMP JUMPDEST SWAP1 MSTORE POP PUSH1 0x19 DUP2 ADD SLOAD PUSH1 0x0 SWAP1 DUP6 SWAP1 PUSH2 0xC94 SWAP1 PUSH1 0x32 PUSH2 0x13D3 JUMP JUMPDEST PUSH2 0xC9E SWAP2 SWAP1 PUSH2 0x1429 JUMP JUMPDEST SWAP1 POP PUSH2 0xE10 DUP2 LT ISZERO PUSH2 0xCB3 JUMPI POP PUSH2 0xE10 PUSH2 0xCC4 JUMP JUMPDEST PUSH3 0x2A300 DUP2 GT ISZERO PUSH2 0xCC4 JUMPI POP PUSH3 0x2A300 JUMPDEST PUSH2 0xCCE DUP2 TIMESTAMP PUSH2 0x13EA JUMP JUMPDEST SWAP3 POP POP POP SWAP5 POP SWAP5 SWAP3 POP POP POP JUMP JUMPDEST PUSH1 0x0 DUP1 PUSH1 0x0 DUP1 PUSH1 0x1 DUP7 PUSH1 0x40 MLOAD PUSH2 0xCF1 SWAP2 SWAP1 PUSH2 0x1351 JUMP JUMPDEST SWAP1 DUP2 MSTORE PUSH1 0x20 ADD PUSH1 0x40 MLOAD DUP1 SWAP2 SUB SWAP1 KECCAK256 PUSH1 0x0 DUP7 DUP2 MSTORE PUSH1 0x20 ADD SWAP1 DUP2 MSTORE PUSH1 0x20 ADD PUSH1 0x0 KECCAK256 SWAP1 POP DUP1 PUSH1 0xE ADD SLOAD SWAP4 POP DUP1 PUSH1 0xF ADD SLOAD SWAP3 POP DUP1 PUSH1 0x12 ADD SLOAD SWAP2 POP POP SWAP3 POP SWAP3 POP SWAP3 JUMP JUMPDEST PUSH1 0x40 MLOAD DUP1 PUSH2 0x180 ADD PUSH1 0x40 MSTORE DUP1 PUSH1 0x60 DUP2 MSTORE PUSH1 0x20 ADD PUSH1 0x0 DUP2 MSTORE PUSH1 0x20 ADD PUSH2 0xD51 PUSH2 0xDD3 JUMP JUMPDEST DUP2 MSTORE PUSH1 0x20 ADD PUSH2 0xD5E PUSH2 0xDD3 JUMP JUMPDEST DUP2 MSTORE PUSH1 0x20 ADD PUSH1 0x0 DUP2 MSTORE PUSH1 0x20 ADD PUSH1 0x0 DUP2 MSTORE PUSH1 0x20 ADD PUSH1 0x0 DUP2 MSTORE PUSH1 0x20 ADD PUSH1 0x0 DUP2 MSTORE PUSH1 0x20 ADD PUSH1 0x0 DUP2 MSTORE PUSH1 0x20 ADD PUSH2 0xDBF PUSH1 0x40 MLOAD DUP1 PUSH1 0xC0 ADD PUSH1 0x40 MSTORE DUP1 PUSH1 0x0 DUP2 MSTORE PUSH1 0x20 ADD PUSH1 0x0 DUP2 MSTORE PUSH1 0x20 ADD PUSH1 0x0 DUP2 MSTORE PUSH1 0x20 ADD PUSH1 0x0 DUP2 MSTORE PUSH1 0x20 ADD PUSH1 0x0 DUP2 MSTORE PUSH1 0x20 ADD PUSH1 0x0 DUP2 MSTORE POP SWAP1 JUMP JUMPDEST DUP2 MSTORE PUSH1 0x0 PUSH1 0x20 DUP3 ADD DUP2 SWAP1 MSTORE PUSH1 0x40 SWAP1 SWAP2 ADD MSTORE SWAP1 JUMP JUMPDEST PUSH1 0x40 MLOAD DUP1 PUSH1 0xC0 ADD PUSH1 0x40 MSTORE DUP1 PUSH1 0x0 DUP2 MSTORE PUSH1 0x20 ADD PUSH1 0x0 DUP2 MSTORE PUSH1 0x20 ADD PUSH1 0x0 DUP2 MSTORE PUSH1 0x20 ADD PUSH1 0x0 DUP2 MSTORE PUSH1 0x20 ADD PUSH1 0x0 DUP2 MSTORE PUSH1 0x20 ADD PUSH1 0x0 DUP2 MSTORE POP SWAP1 JUMP JUMPDEST PUSH4 0x4E487B71 PUSH1 0xE0 SHL PUSH1 0x0 MSTORE PUSH1 0x41 PUSH1 0x4 MSTORE PUSH1 0x24 PUSH1 0x0 REVERT JUMPDEST PUSH1 0x40 MLOAD PUSH1 0x60 DUP2 ADD PUSH8 0xFFFFFFFFFFFFFFFF DUP2 GT DUP3 DUP3 LT OR ISZERO PUSH2 0xE42 JUMPI PUSH2 0xE42 PUSH2 0xE09 JUMP JUMPDEST PUSH1 0x40 MSTORE SWAP1 JUMP JUMPDEST PUSH1 0x40 MLOAD PUSH1 0xC0 DUP2 ADD PUSH8 0xFFFFFFFFFFFFFFFF DUP2 GT DUP3 DUP3 LT OR ISZERO PUSH2 0xE42 JUMPI PUSH2 0xE42 PUSH2 0xE09 JUMP JUMPDEST PUSH1 0x40 MLOAD PUSH1 0x1F DUP3 ADD PUSH1 0x1F NOT AND DUP2 ADD PUSH8 0xFFFFFFFFFFFFFFFF DUP2 GT DUP3 DUP3 LT OR ISZERO PUSH2 0xE94 JUMPI PUSH2 0xE94 PUSH2 0xE09 JUMP JUMPDEST PUSH1 0x40 MSTORE SWAP2 SWAP1 POP JUMP JUMPDEST PUSH1 0x0 DUP3 PUSH1 0x1F DUP4 ADD SLT PUSH2 0xEAD JUMPI PUSH1 0x0 DUP1 REVERT JUMPDEST DUP2 CALLDATALOAD PUSH8 0xFFFFFFFFFFFFFFFF DUP2 GT ISZERO PUSH2 0xEC7 JUMPI PUSH2 0xEC7 PUSH2 0xE09 JUMP JUMPDEST PUSH2 0xEDA PUSH1 0x1F DUP3 ADD PUSH1 0x1F NOT AND PUSH1 0x20 ADD PUSH2 0xE6B JUMP JUMPDEST DUP2 DUP2 MSTORE DUP5 PUSH1 0x20 DUP4 DUP7 ADD ADD GT ISZERO PUSH2 0xEEF JUMPI PUSH1 0x0 DUP1 REVERT JUMPDEST DUP2 PUSH1 0x20 DUP6 ADD PUSH1 0x20 DUP4 ADD CALLDATACOPY PUSH1 0x0 SWAP2 DUP2 ADD PUSH1 0x20 ADD SWAP2 SWAP1 SWAP2 MSTORE SWAP4 SWAP3 POP POP POP JUMP JUMPDEST PUSH1 0x0 DUP1 PUSH1 0x40 DUP4 DUP6 SUB SLT ISZERO PUSH2 0xF1F JUMPI PUSH1 0x0 DUP1 REVERT JUMPDEST DUP3 CALLDATALOAD PUSH8 0xFFFFFFFFFFFFFFFF DUP2 GT ISZERO PUSH2 0xF36 JUMPI PUSH1 0x0 DUP1 REVERT JUMPDEST PUSH2 0xF42 DUP6 DUP3 DUP7 ADD PUSH2 0xE9C JUMP JUMPDEST SWAP6 PUSH1 0x20 SWAP5 SWAP1 SWAP5 ADD CALLDATALOAD SWAP5 POP POP POP POP JUMP JUMPDEST PUSH1 0x0 JUMPDEST DUP4 DUP2 LT ISZERO PUSH2 0xF6C JUMPI DUP2 DUP2 ADD MLOAD DUP4 DUP3 ADD MSTORE PUSH1 0x20 ADD PUSH2 0xF54 JUMP JUMPDEST POP POP PUSH1 0x0 SWAP2 ADD MSTORE JUMP JUMPDEST PUSH1 0x0 DUP2 MLOAD DUP1 DUP5 MSTORE PUSH2 0xF8D DUP2 PUSH1 0x20 DUP7 ADD PUSH1 0x20 DUP7 ADD PUSH2 0xF51 JUMP JUMPDEST PUSH1 0x1F ADD PUSH1 0x1F NOT AND SWAP3 SWAP1 SWAP3 ADD PUSH1 0x20 ADD SWAP3 SWAP2 POP POP JUMP JUMPDEST DUP1 MLOAD DUP3 MSTORE PUSH1 0x20 DUP2 ADD MLOAD PUSH1 0x20 DUP4 ADD MSTORE PUSH1 0x40 DUP2 ADD MLOAD PUSH1 0x40 DUP4 ADD MSTORE PUSH1 0x60 DUP2 ADD MLOAD PUSH1 0x60 DUP4 ADD MSTORE PUSH1 0x80 DUP2 ADD MLOAD PUSH1 0x80 DUP4 ADD MSTORE PUSH1 0xA0 DUP2 ADD MLOAD PUSH1 0xA0 DUP4 ADD MSTORE POP POP JUMP JUMPDEST PUSH1 0x20 DUP2 MSTORE PUSH1 0x0 DUP3 MLOAD PUSH2 0x360 DUP1 PUSH1 0x20 DUP6 ADD MSTORE PUSH2 0xFFA PUSH2 0x380 DUP6 ADD DUP4 PUSH2 0xF75 JUMP JUMPDEST SWAP2 POP PUSH1 0x20 DUP6 ADD MLOAD PUSH1 0x40 DUP6 ADD MSTORE PUSH1 0x40 DUP6 ADD MLOAD PUSH2 0x1018 PUSH1 0x60 DUP7 ADD DUP3 PUSH2 0xFA1 JUMP JUMPDEST POP PUSH1 0x60 DUP6 ADD MLOAD PUSH2 0x120 PUSH2 0x102D DUP2 DUP8 ADD DUP4 PUSH2 0xFA1 JUMP JUMPDEST PUSH1 0x80 DUP8 ADD MLOAD PUSH2 0x1E0 DUP8 ADD MSTORE PUSH1 0xA0 DUP8 ADD MLOAD PUSH2 0x200 DUP8 ADD MSTORE PUSH1 0xC0 DUP8 ADD MLOAD PUSH2 0x220 DUP8 ADD MSTORE PUSH1 0xE0 DUP8 ADD MLOAD PUSH2 0x240 DUP8 ADD MSTORE PUSH2 0x100 DUP8 ADD MLOAD PUSH2 0x260 DUP8 ADD MSTORE DUP7 ADD MLOAD SWAP1 POP PUSH2 0x1078 PUSH2 0x280 DUP7 ADD DUP3 PUSH2 0xFA1 JUMP JUMPDEST POP PUSH2 0x140 DUP6 ADD MLOAD PUSH2 0x340 DUP6 ADD MSTORE PUSH2 0x160 SWAP1 SWAP5 ADD MLOAD ISZERO ISZERO SWAP4 SWAP1 SWAP3 ADD SWAP3 SWAP1 SWAP3 MSTORE SWAP2 SWAP1 POP JUMP JUMPDEST PUSH2 0x360 DUP2 MSTORE PUSH1 0x0 PUSH2 0x10B0 PUSH2 0x360 DUP4 ADD DUP16 PUSH2 0xF75 JUMP JUMPDEST SWAP1 POP DUP13 PUSH1 0x20 DUP4 ADD MSTORE PUSH2 0x10C5 PUSH1 0x40 DUP4 ADD DUP14 PUSH2 0xFA1 JUMP JUMPDEST PUSH2 0x10D3 PUSH2 0x100 DUP4 ADD DUP13 PUSH2 0xFA1 JUMP JUMPDEST DUP10 PUSH2 0x1C0 DUP4 ADD MSTORE DUP9 PUSH2 0x1E0 DUP4 ADD MSTORE DUP8 PUSH2 0x200 DUP4 ADD MSTORE DUP7 PUSH2 0x220 DUP4 ADD MSTORE DUP6 PUSH2 0x240 DUP4 ADD MSTORE PUSH2 0x1104 PUSH2 0x260 DUP4 ADD DUP7 PUSH2 0xFA1 JUMP JUMPDEST DUP4 PUSH2 0x320 DUP4 ADD MSTORE DUP3 ISZERO ISZERO PUSH2 0x340 DUP4 ADD MSTORE SWAP14 SWAP13 POP POP POP POP POP POP POP POP POP POP POP POP POP JUMP JUMPDEST PUSH1 0x0 PUSH1 0x20 DUP3 DUP5 SUB SLT ISZERO PUSH2 0x1137 JUMPI PUSH1 0x0 DUP1 REVERT JUMPDEST DUP2 CALLDATALOAD PUSH1 0x1 PUSH1 0x1 PUSH1 0xA0 SHL SUB DUP2 AND DUP2 EQ PUSH2 0x114E JUMPI PUSH1 0x0 DUP1 REVERT JUMPDEST SWAP4 SWAP3 POP POP POP JUMP JUMPDEST PUSH1 0x0 DUP1 PUSH1 0x40 DUP4 DUP6 SUB SLT ISZERO PUSH2 0x1168 JUMPI PUSH1 0x0 DUP1 REVERT JUMPDEST DUP3 CALLDATALOAD PUSH8 0xFFFFFFFFFFFFFFFF DUP1 DUP3 GT ISZERO PUSH2 0x1180 JUMPI PUSH1 0x0 DUP1 REVERT JUMPDEST DUP2 DUP6 ADD SWAP2 POP DUP6 PUSH1 0x1F DUP4 ADD SLT PUSH2 0x1194 JUMPI PUSH1 0x0 DUP1 REVERT JUMPDEST DUP2 CALLDATALOAD PUSH1 0x20 DUP3 DUP3 GT ISZERO PUSH2 0x11A8 JUMPI PUSH2 0x11A8 PUSH2 0xE09 JUMP JUMPDEST DUP2 PUSH1 0x5 SHL PUSH2 0x11B7 DUP3 DUP3 ADD PUSH2 0xE6B JUMP JUMPDEST SWAP3 DUP4 MSTORE DUP5 DUP2 ADD DUP3 ADD SWAP3 DUP3 DUP2 ADD SWAP1 DUP11 DUP6 GT ISZERO PUSH2 0x11D1 JUMPI PUSH1 0x0 DUP1 REVERT JUMPDEST DUP4 DUP8 ADD SWAP3 POP JUMPDEST DUP5 DUP4 LT ISZERO PUSH2 0x1269 JUMPI DUP3 CALLDATALOAD DUP7 DUP2 GT ISZERO PUSH2 0x11EF JUMPI PUSH1 0x0 DUP1 DUP2 REVERT JUMPDEST DUP8 ADD PUSH1 0x60 DUP2 DUP14 SUB PUSH1 0x1F NOT ADD DUP2 SGT ISZERO PUSH2 0x1207 JUMPI PUSH1 0x0 DUP1 DUP2 REVERT JUMPDEST PUSH2 0x120F PUSH2 0xE1F JUMP JUMPDEST DUP7 DUP4 ADD CALLDATALOAD DUP10 DUP2 GT ISZERO PUSH2 0x1221 JUMPI PUSH1 0x0 DUP1 DUP2 REVERT JUMPDEST PUSH2 0x122F DUP16 DUP10 DUP4 DUP8 ADD ADD PUSH2 0xE9C JUMP JUMPDEST DUP3 MSTORE POP PUSH1 0x40 DUP4 ADD CALLDATALOAD DUP8 DUP3 ADD MSTORE SWAP2 DUP2 ADD CALLDATALOAD SWAP2 DUP3 ISZERO ISZERO DUP4 EQ PUSH2 0x1251 JUMPI PUSH1 0x0 SWAP2 POP DUP2 DUP3 REVERT JUMPDEST PUSH1 0x40 DUP2 ADD SWAP3 SWAP1 SWAP3 MSTORE POP DUP3 MSTORE SWAP2 DUP4 ADD SWAP2 SWAP1 DUP4 ADD SWAP1 PUSH2 0x11D7 JUMP JUMPDEST SWAP11 SWAP9 SWAP1 SWAP3 ADD CALLDATALOAD SWAP9 POP POP POP POP POP POP POP POP JUMP JUMPDEST PUSH1 0xC0 DUP2 ADD PUSH2 0x3A2 DUP3 DUP5 PUSH2 0xFA1 JUMP JUMPDEST PUSH1 0x0 DUP1 PUSH1 0x0 DUP1 DUP5 DUP7 SUB PUSH2 0x120 DUP2 SLT ISZERO PUSH2 0x12A0 JUMPI PUSH1 0x0 DUP1 REVERT JUMPDEST DUP6 CALLDATALOAD PUSH8 0xFFFFFFFFFFFFFFFF DUP2 GT ISZERO PUSH2 0x12B7 JUMPI PUSH1 0x0 DUP1 REVERT JUMPDEST PUSH2 0x12C3 DUP9 DUP3 DUP10 ADD PUSH2 0xE9C JUMP JUMPDEST SWAP6 POP POP PUSH1 0x20 DUP7 ADD CALLDATALOAD SWAP4 POP PUSH1 0xC0 PUSH1 0x3F NOT DUP3 ADD SLT ISZERO PUSH2 0x12DF JUMPI PUSH1 0x0 DUP1 REVERT JUMPDEST POP PUSH2 0x12E8 PUSH2 0xE48 JUMP JUMPDEST PUSH1 0x40 DUP7 ADD CALLDATALOAD DUP2 MSTORE PUSH1 0x60 DUP7 ADD CALLDATALOAD PUSH1 0x20 DUP3 ADD MSTORE PUSH1 0x80 DUP7 ADD CALLDATALOAD PUSH1 0x40 DUP3 ADD MSTORE PUSH1 0xA0 DUP7 ADD CALLDATALOAD PUSH1 0x60 DUP3 ADD MSTORE PUSH1 0xC0 DUP7 ADD CALLDATALOAD PUSH1 0x80 DUP3 ADD MSTORE PUSH1 0xE0 DUP7 ADD CALLDATALOAD PUSH1 0xA0 DUP3 ADD MSTORE DUP1 SWAP3 POP POP PUSH2 0x100 DUP6 ADD CALLDATALOAD SWAP1 POP SWAP3 SWAP6 SWAP2 SWAP5 POP SWAP3 POP JUMP JUMPDEST PUSH1 0xE0 DUP2 ADD PUSH2 0x1344 DUP3 DUP6 PUSH2 0xFA1 JUMP JUMPDEST DUP3 PUSH1 0xC0 DUP4 ADD MSTORE SWAP4 SWAP3 POP POP POP JUMP JUMPDEST PUSH1 0x0 DUP3 MLOAD PUSH2 0x1363 DUP2 DUP5 PUSH1 0x20 DUP8 ADD PUSH2 0xF51 JUMP JUMPDEST SWAP2 SWAP1 SWAP2 ADD SWAP3 SWAP2 POP POP JUMP JUMPDEST PUSH1 0x1 DUP2 DUP2 SHR SWAP1 DUP3 AND DUP1 PUSH2 0x1381 JUMPI PUSH1 0x7F DUP3 AND SWAP2 POP JUMPDEST PUSH1 0x20 DUP3 LT DUP2 SUB PUSH2 0x13A1 JUMPI PUSH4 0x4E487B71 PUSH1 0xE0 SHL PUSH1 0x0 MSTORE PUSH1 0x22 PUSH1 0x4 MSTORE PUSH1 0x24 PUSH1 0x0 REVERT JUMPDEST POP SWAP2 SWAP1 POP JUMP JUMPDEST PUSH4 0x4E487B71 PUSH1 0xE0 SHL PUSH1 0x0 MSTORE PUSH1 0x32 PUSH1 0x4 MSTORE PUSH1 0x24 PUSH1 0x0 REVERT JUMPDEST PUSH4 0x4E487B71 PUSH1 0xE0 SHL PUSH1 0x0 MSTORE PUSH1 0x11 PUSH1 0x4 MSTORE PUSH1 0x24 PUSH1 0x0 REVERT JUMPDEST DUP1 DUP3 MUL DUP2 ISZERO DUP3 DUP3 DIV DUP5 EQ OR PUSH2 0x3A2 JUMPI PUSH2 0x3A2 PUSH2 0x13BD JUMP JUMPDEST DUP1 DUP3 ADD DUP1 DUP3 GT ISZERO PUSH2 0x3A2 JUMPI PUSH2 0x3A2 PUSH2 0x13BD JUMP JUMPDEST PUSH1 0x0 PUSH1 0x1 DUP3 ADD PUSH2 0x140F JUMPI PUSH2 0x140F PUSH2 0x13BD JUMP JUMPDEST POP PUSH1 0x1 ADD SWAP1 JUMP JUMPDEST DUP2 DUP2 SUB DUP2 DUP2 GT ISZERO PUSH2 0x3A2 JUMPI PUSH2 0x3A2 PUSH2 0x13BD JUMP JUMPDEST PUSH1 0x0 DUP3 PUSH2 0x1446 JUMPI PUSH4 0x4E487B71 PUSH1 0xE0 SHL PUSH1 0x0 MSTORE PUSH1 0x12 PUSH1 0x4 MSTORE PUSH1 0x24 PUSH1 0x0 REVERT JUMPDEST POP DIV SWAP1 JUMP INVALID LOG2 PUSH5 0x6970667358 0x22 SLT KECCAK256 0xBE EXTCODESIZE 0x4F AND SWAP7 0x5C SGT 0xEB 0xBD 0xB1 PUSH30 0x490EE71003FB11B31A0C78B5802C580F970042CDA64736F6C6343000813 STOP CALLER "},"methodIdentifiers":{"availableBuildings(string,uint256)":"6790d4b9","calculateTotalResourceProduction((string,uint256,bool)[],uint256)":"bfecd1a7","completeBuildingConstruction(string,uint256)":"ed81049d","getBuildingInfo(string,uint256)":"489b0f5a","landNFT()":"39d022e1","setLandNFT(address)":"ab0e2378","startBuildingConstruction(string,uint256,(uint256,uint256,uint256,uint256,uint256,uint256),uint256)":"d9dcfdb8"}}}}}