{"contracts/UnitNFT.sol":{"UnitNFT":{"abi":[{"inputs":[{"internalType":"address","name":"_landNFTAddress","type":"address"}],"stateMutability":"nonpayable","type":"constructor"},{"anonymous":false,"inputs":[{"indexed":true,"internalType":"address","name":"owner","type":"address"},{"indexed":true,"internalType":"address","name":"approved","type":"address"},{"indexed":true,"internalType":"uint256","name":"tokenId","type":"uint256"}],"name":"Approval","type":"event"},{"anonymous":false,"inputs":[{"indexed":true,"internalType":"address","name":"owner","type":"address"},{"indexed":true,"internalType":"address","name":"operator","type":"address"},{"indexed":false,"internalType":"bool","name":"approved","type":"bool"}],"name":"ApprovalForAll","type":"event"},{"anonymous":false,"inputs":[{"indexed":true,"internalType":"address","name":"previousOwner","type":"address"},{"indexed":true,"internalType":"address","name":"newOwner","type":"address"}],"name":"OwnershipTransferred","type":"event"},{"anonymous":false,"inputs":[{"indexed":true,"internalType":"address","name":"from","type":"address"},{"indexed":true,"internalType":"address","name":"to","type":"address"},{"indexed":true,"internalType":"uint256","name":"tokenId","type":"uint256"}],"name":"Transfer","type":"event"},{"anonymous":false,"inputs":[{"indexed":true,"internalType":"address","name":"owner","type":"address"},{"indexed":false,"internalType":"uint256","name":"tokenId","type":"uint256"},{"indexed":false,"internalType":"string","name":"unitType","type":"string"},{"indexed":false,"internalType":"uint256","name":"landTokenId","type":"uint256"}],"name":"UnitMinted","type":"event"},{"inputs":[{"internalType":"address","name":"to","type":"address"},{"internalType":"uint256","name":"tokenId","type":"uint256"}],"name":"approve","outputs":[],"stateMutability":"nonpayable","type":"function"},{"inputs":[{"internalType":"address","name":"owner","type":"address"}],"name":"balanceOf","outputs":[{"internalType":"uint256","name":"","type":"uint256"}],"stateMutability":"view","type":"function"},{"inputs":[{"internalType":"uint256","name":"_landTokenId","type":"uint256"}],"name":"calculateTotalUpkeep","outputs":[{"components":[{"internalType":"uint256","name":"food","type":"uint256"},{"internalType":"uint256","name":"wood","type":"uint256"},{"internalType":"uint256","name":"stone","type":"uint256"},{"internalType":"uint256","name":"brass","type":"uint256"},{"internalType":"uint256","name":"iron","type":"uint256"},{"internalType":"uint256","name":"gold","type":"uint256"}],"internalType":"struct DataTypes.Resources","name":"totalUpkeep","type":"tuple"}],"stateMutability":"view","type":"function"},{"inputs":[{"internalType":"uint256","name":"tokenId","type":"uint256"}],"name":"getApproved","outputs":[{"internalType":"address","name":"","type":"address"}],"stateMutability":"view","type":"function"},{"inputs":[{"internalType":"uint256","name":"_tokenId","type":"uint256"}],"name":"getUnitStats","outputs":[{"internalType":"string","name":"name","type":"string"},{"internalType":"uint256","name":"attack","type":"uint256"},{"internalType":"uint256","name":"defense","type":"uint256"},{"internalType":"uint256","name":"speed","type":"uint256"},{"internalType":"uint256","name":"range","type":"uint256"},{"internalType":"string","name":"abilities","type":"string"},{"components":[{"internalType":"uint256","name":"food","type":"uint256"},{"internalType":"uint256","name":"wood","type":"uint256"},{"internalType":"uint256","name":"stone","type":"uint256"},{"internalType":"uint256","name":"brass","type":"uint256"},{"internalType":"uint256","name":"iron","type":"uint256"},{"internalType":"uint256","name":"gold","type":"uint256"}],"internalType":"struct DataTypes.Resources","name":"upkeepCost","type":"tuple"},{"internalType":"bool","name":"isActive","type":"bool"}],"stateMutability":"view","type":"function"},{"inputs":[{"internalType":"uint256","name":"_landTokenId","type":"uint256"}],"name":"getUnitsByLand","outputs":[{"internalType":"uint256[]","name":"","type":"uint256[]"}],"stateMutability":"view","type":"function"},{"inputs":[{"internalType":"address","name":"_owner","type":"address"}],"name":"getUnitsByOwner","outputs":[{"internalType":"uint256[]","name":"","type":"uint256[]"}],"stateMutability":"view","type":"function"},{"inputs":[{"internalType":"address","name":"owner","type":"address"},{"internalType":"address","name":"operator","type":"address"}],"name":"isApprovedForAll","outputs":[{"internalType":"bool","name":"","type":"bool"}],"stateMutability":"view","type":"function"},{"inputs":[],"name":"landNFTAddress","outputs":[{"internalType":"address","name":"","type":"address"}],"stateMutability":"view","type":"function"},{"inputs":[],"name":"landNFTContract","outputs":[{"internalType":"contract ILandNFT","name":"","type":"address"}],"stateMutability":"view","type":"function"},{"inputs":[{"internalType":"uint256","name":"","type":"uint256"},{"internalType":"uint256","name":"","type":"uint256"}],"name":"landToUnits","outputs":[{"internalType":"uint256","name":"","type":"uint256"}],"stateMutability":"view","type":"function"},{"inputs":[{"internalType":"string","name":"_unitType","type":"string"},{"internalType":"uint256","name":"_landTokenId","type":"uint256"}],"name":"mintUnit","outputs":[],"stateMutability":"nonpayable","type":"function"},{"inputs":[],"name":"name","outputs":[{"internalType":"string","name":"","type":"string"}],"stateMutability":"view","type":"function"},{"inputs":[],"name":"nextTokenId","outputs":[{"internalType":"uint256","name":"","type":"uint256"}],"stateMutability":"view","type":"function"},{"inputs":[],"name":"owner","outputs":[{"internalType":"address","name":"","type":"address"}],"stateMutability":"view","type":"function"},{"inputs":[{"internalType":"uint256","name":"tokenId","type":"uint256"}],"name":"ownerOf","outputs":[{"internalType":"address","name":"","type":"address"}],"stateMutability":"view","type":"function"},{"inputs":[{"internalType":"address","name":"","type":"address"},{"internalType":"uint256","name":"","type":"uint256"}],"name":"ownerToUnits","outputs":[{"internalType":"uint256","name":"","type":"uint256"}],"stateMutability":"view","type":"function"},{"inputs":[],"name":"renounceOwnership","outputs":[],"stateMutability":"nonpayable","type":"function"},{"inputs":[{"internalType":"address","name":"from","type":"address"},{"internalType":"address","name":"to","type":"address"},{"internalType":"uint256","name":"tokenId","type":"uint256"}],"name":"safeTransferFrom","outputs":[],"stateMutability":"nonpayable","type":"function"},{"inputs":[{"internalType":"address","name":"from","type":"address"},{"internalType":"address","name":"to","type":"address"},{"internalType":"uint256","name":"tokenId","type":"uint256"},{"internalType":"bytes","name":"data","type":"bytes"}],"name":"safeTransferFrom","outputs":[],"stateMutability":"nonpayable","type":"function"},{"inputs":[{"internalType":"address","name":"operator","type":"address"},{"internalType":"bool","name":"approved","type":"bool"}],"name":"setApprovalForAll","outputs":[],"stateMutability":"nonpayable","type":"function"},{"inputs":[{"internalType":"uint256","name":"_tokenId","type":"uint256"},{"internalType":"bool","name":"_status","type":"bool"}],"name":"setUnitActiveStatus","outputs":[],"stateMutability":"nonpayable","type":"function"},{"inputs":[{"internalType":"bytes4","name":"interfaceId","type":"bytes4"}],"name":"supportsInterface","outputs":[{"internalType":"bool","name":"","type":"bool"}],"stateMutability":"view","type":"function"},{"inputs":[],"name":"symbol","outputs":[{"internalType":"string","name":"","type":"string"}],"stateMutability":"view","type":"function"},{"inputs":[{"internalType":"uint256","name":"","type":"uint256"}],"name":"tokenIdToUnit","outputs":[{"internalType":"string","name":"name","type":"string"},{"internalType":"uint256","name":"attack","type":"uint256"},{"internalType":"uint256","name":"defense","type":"uint256"},{"internalType":"uint256","name":"speed","type":"uint256"},{"internalType":"uint256","name":"range","type":"uint256"},{"internalType":"string","name":"abilities","type":"string"},{"components":[{"internalType":"uint256","name":"food","type":"uint256"},{"internalType":"uint256","name":"wood","type":"uint256"},{"internalType":"uint256","name":"stone","type":"uint256"},{"internalType":"uint256","name":"brass","type":"uint256"},{"internalType":"uint256","name":"iron","type":"uint256"},{"internalType":"uint256","name":"gold","type":"uint256"}],"internalType":"struct DataTypes.Resources","name":"upkeepCost","type":"tuple"},{"internalType":"bool","name":"isActive","type":"bool"}],"stateMutability":"view","type":"function"},{"inputs":[{"internalType":"uint256","name":"tokenId","type":"uint256"}],"name":"tokenURI","outputs":[{"internalType":"string","name":"","type":"string"}],"stateMutability":"view","type":"function"},{"inputs":[{"internalType":"address","name":"from","type":"address"},{"internalType":"address","name":"to","type":"address"},{"internalType":"uint256","name":"tokenId","type":"uint256"}],"name":"transferFrom","outputs":[],"stateMutability":"nonpayable","type":"function"},{"inputs":[{"internalType":"address","name":"newOwner","type":"address"}],"name":"transferOwnership","outputs":[],"stateMutability":"nonpayable","type":"function"},{"inputs":[{"internalType":"uint256","name":"","type":"uint256"}],"name":"unitToLand","outputs":[{"internalType":"uint256","name":"","type":"uint256"}],"stateMutability":"view","type":"function"},{"inputs":[{"internalType":"string","name":"","type":"string"}],"name":"unitTypes","outputs":[{"internalType":"string","name":"name","type":"string"},{"internalType":"uint256","name":"attack","type":"uint256"},{"internalType":"uint256","name":"defense","type":"uint256"},{"internalType":"uint256","name":"speed","type":"uint256"},{"internalType":"uint256","name":"range","type":"uint256"},{"internalType":"string","name":"abilities","type":"string"},{"components":[{"internalType":"uint256","name":"food","type":"uint256"},{"internalType":"uint256","name":"wood","type":"uint256"},{"internalType":"uint256","name":"stone","type":"uint256"},{"internalType":"uint256","name":"brass","type":"uint256"},{"internalType":"uint256","name":"iron","type":"uint256"},{"internalType":"uint256","name":"gold","type":"uint256"}],"internalType":"struct DataTypes.Resources","name":"upkeepCost","type":"tuple"},{"internalType":"bool","name":"isActive","type":"bool"}],"stateMutability":"view","type":"function"}],"evm":{"bytecode":{"linkReferences":{},"object":"608034620022b557601f6200444e38819003918201601f19168301916001600160401b03831184841017620013dc57808492602094604052833981010312620022b557516001600160a01b03908181168103620022b55762000060620022fb565b91600d83526c119a9d5b9b1d5b9908155b9a5d609a1b602084015262000085620022fb565b6003815262464a5560e81b602082015283519092906001600160401b038111620013dc57600054600181811c91168015620022aa575b6020821014620013bb57601f811162002252575b50602094601f8211600114620021da57948192939495600092620021ce575b50508160011b916000199060031b1c1916176000555b82516001600160401b038111620013dc57600154600181811c91168015620021c3575b6020821014620013bb57601f81116200216a575b506020601f8211600114620020f15781929394600092620020e5575b50508160011b916000199060031b1c1916176001555b60068054336001600160a01b03198216811790925583167f8be0079c531659141344cd1fd0a4f28419497f9722a3daafe3b4186f6b6457e0600080a36001600755620001b8620022ba565b6005815260016020820152600060408201526000606082015260006080820152600060a0820152620001e9620022da565b90620001f4620022fb565b60078152662337b7ba36b0b760c91b602082015282526032602083015260326040830152600560608301526001608083015260405180602081011060018060401b03602083011117620013dc57602081016040526000815260a083015260c0820152600160e08201526027604051662337b7ba36b0b760c91b8152600960078201522090805180519060018060401b038211620013dc57835490600182811c92168015620020da575b6020831014620013bb5781601f84931162002085575b50602090601f8311600114620020145760009262002008575b50508160011b916000199060031b1c19161782555b6020810151600183015560408101516002830155606081015160038301556080810151600483015560a08101518051906001600160401b038211620013dc576005840154600181811c9116801562001ffd575b6020821014620013bb57601f811162001fb1575b50602090601f831160011462001f37579180600c949260e09460009262001f2b575b50508160011b916000199060031b1c19161760058501555b60a060c0820151805160068701556020810151600787015560408101516008870155606081015160098701556080810151600a8701550151600b8501550151151560ff80198385015416911617910155620003dc620022ba565b6004815260026020820152600060408201526000606082015260006080820152600060a082015260266200040f620022da565b916200041a620022fb565b90600682526520b931b432b960d11b91826020820152845260286020850152601e6040850152600560608501526007608085015262000458620022fb565b601781527f43616e2061747461636b20666c79696e6720756e697473000000000000000000602082015260a085015260c0840152600160e0840152604051908152600960068201522081518051906001600160401b038211620013dc57825490600182811c9216801562001f20575b6020831014620013bb5781601f84931162001ecb575b50602090601f831160011462001e5a5760009262001e4e575b50508160011b916000199060031b1c19161781555b6020820151600182015560408201516002820155606082015160038201556080820151600482015560a08201518051906001600160401b038211620013dc576005830154600181811c9116801562001e43575b6020821014620013bb57601f811162001df7575b50602090601f831160011462001d7d57918060e09492600c9460009262001d71575b50508160011b916000199060031b1c19161760058201555b60a060c0850151805160068401556020810151600784015560408101516008840155606081015160098401556080810151600a8401550151600b82015501910151151560ff8019835416911617905562000605620022ba565b6006815260006020820152600060408201526000606082015260036080820152600060a0820152602662000638620022da565b9162000643620022fb565b90600682526512db9a59da1d60d21b91826020820152845260466020850152603c6040850152600760608501526001608085015262000681620022fb565b600d81526c4368617267652061747461636b60981b602082015260a085015260c0840152600160e0840152604051908152600960068201522081518051906001600160401b038211620013dc57825490600182811c9216801562001d66575b6020831014620013bb5781601f84931162001d11575b50602090601f831160011462001ca05760009262001c94575b50508160011b916000199060031b1c19161781555b6020820151600182015560408201516002820155606082015160038201556080820151600482015560a08201518051906001600160401b038211620013dc576005830154600181811c9116801562001c89575b6020821014620013bb57601f811162001c3d575b50602090601f831160011462001bc357918060e09492600c9460009262001bb7575b50508160011b916000199060031b1c19161760058201555b60a060c0850151805160068401556020810151600784015560408101516008840155606081015160098401556080810151600a8401550151600b82015501910151151560ff801983541691161790556200081e620022ba565b6000815260056020820152600560408201526000606082015260006080820152600060a0820152602862000851620022da565b916200085c620022fb565b90600882526710d85d185c1d5b1d60c21b918260208201528452605060208501526014604085015260036060850152600a60808501526200089c620022fb565b600b81526a417265612064616d61676560a81b602082015260a085015260c0840152600160e0840152604051908152600960088201522081518051906001600160401b038211620013dc57825490600182811c9216801562001bac575b6020831014620013bb5781601f84931162001b57575b50602090601f831160011462001ae65760009262001ada575b50508160011b916000199060031b1c19161781555b6020820151600182015560408201516002820155606082015160038201556080820151600482015560a08201518051906001600160401b038211620013dc576005830154600181811c9116801562001acf575b6020821014620013bb57601f811162001a83575b50602090601f831160011462001a0957918060e09492600c94600092620019fd575b50508160011b916000199060031b1c19161760058201555b60a060c0850151805160068401556020810151600784015560408101516008840155606081015160098401556080810151600a8401550151600b82015501910151151560ff8019835416911617905562000a37620022ba565b6005815260006020820152600060408201526000606082015260026080820152600060a0820152602862000a6a620022da565b9162000a75620022fb565b90600882526729b832b0b936b0b760c11b9182602082015284526032602085015260326040850152600560608501526001608085015262000ab5620022fb565b601c81527f426f6e75732064616d61676520616761696e737420636176616c727900000000602082015260a085015260c0840152600160e0840152604051908152600960088201522081518051906001600160401b038211620013dc57825490600182811c92168015620019f2575b6020831014620013bb5781601f8493116200199d575b50602090601f83116001146200192c5760009262001920575b50508160011b916000199060031b1c19161781555b6020820151600182015560408201516002820155606082015160038201556080820151600482015560a08201518051906001600160401b038211620013dc576005830154600181811c9116801562001915575b6020821014620013bb57601f8111620018c9575b50602090601f83116001146200184f57918060e09492600c9460009262001843575b50508160011b916000199060031b1c19161760058201555b60a060c0850151805160068401556020810151600784015560408101516008840155606081015160098401556080810151600a8401550151600b82015501910151151560ff8019835416911617905562000c62620022ba565b6005815260006020820152600060408201526000606082015260006080820152600360a0820152602662000c95620022da565b9162000ca0620022fb565b90600682526515da5e985c9960d21b9182602082015284526032602085015260286040850152600560608501526005608085015262000cde620022fb565b600c81526b4361737473207370656c6c7360a01b602082015260a085015260c0840152600160e0840152604051908152600960068201522081518051906001600160401b038211620013dc57825490600182811c9216801562001838575b6020831014620013bb5781601f849311620017e3575b50602090601f8311600114620017725760009262001766575b50508160011b916000199060031b1c19161781555b6020820151600182015560408201516002820155606082015160038201556080820151600482015560a08201518051906001600160401b038211620013dc576005830154600181811c911680156200175b575b6020821014620013bb57601f81116200170f575b50602090601f83116001146200169557918060e09492600c9460009262001689575b50508160011b916000199060031b1c19161760058201555b60a060c0850151805160068401556020810151600784015560408101516008840155606081015160098401556080810151600a8401550151600b82015501910151151560ff8019835416911617905562000e7a620022ba565b6005815260006020820152600060408201526003606082015260006080820152600060a0820152602b62000ead620022da565b9162000eb8620022fb565b90600b82526a2732b1b937b6b0b731b2b960a91b918260208201528452601e6020850152601e6040850152600460608501526005608085015262000efb620022fb565b601481527f53756d6d6f6e7320756e6465616420756e697473000000000000000000000000602082015260a085015260c0840152600160e08401526040519081526009600b8201522081518051906001600160401b038211620013dc57825490600182811c921680156200167e575b6020831014620013bb5781601f84931162001629575b50602090601f8311600114620015b857600092620015ac575b50508160011b916000199060031b1c19161781555b6020820151600182015560408201516002820155606082015160038201556080820151600482015560a08201518051906001600160401b038211620013dc576005830154600181811c91168015620015a1575b6020821014620013bb57601f811162001555575b50602090601f8311600114620014db57918060e09492600c94600092620014cf575b50508160011b916000199060031b1c19161760058201555b60a060c0850151805160068401556020810151600784015560408101516008840155606081015160098401556080810151600a8401550151600b82015501910151151560ff80198354169116179055620010a8620022ba565b6003815260006020820152600060408201526001606082015260006080820152600060a0820152620010d9620022da565b90620010e4620022fb565b600681526523b7b13634b760d11b60208201528252602360208301526019604083015260086060830152600160808301526200111f620022fb565b60068152654672656e7a7960d01b602082015260a083015260c0820152600160e082015260266040516523b7b13634b760d11b81526009600682015220815180519060018060401b038211620013dc57825490600182811c92168015620014c4575b6020831014620013bb5781601f8493116200146f575b50602090601f8311600114620013fe57600092620013f2575b50508160011b916000199060031b1c19161781555b6020820151600182015560408201516002820155606082015160038201556080820151600482015560a08201518051906001600160401b038211620013dc576005830154600181811c91168015620013d1575b6020821014620013bb57601f81116200136f575b50602090601f8311600114620012f557918060e09492600c94600092620012e9575b50508160011b916000199060031b1c19161760058201555b60a060c0850151805160068401556020810151600784015560408101516008840155606081015160098401556080810151600a8401550151600b82015501910151151560ff8019835416911617905581811660018060a01b0319600d541617600d551660018060a01b0319600e541617600e556040516120f290816200231c8239f35b0151905038806200124e565b906005840160005260206000209160005b601f19851681106200135657509260e09492600192600c9583601f198116106200133c575b505050811b01600582015562001266565b015160001960f88460031b161c191690553880806200132b565b9192602060018192868501518155019401920162001306565b600584016000526020600020601f840160051c810160208510620013b3575b601f830160051c82018110620013a65750506200122c565b600081556001016200138e565b50806200138e565b634e487b7160e01b600052602260045260246000fd5b90607f169062001218565b634e487b7160e01b600052604160045260246000fd5b015190503880620011b0565b9250836000526020600020906000935b601f198416851062001453576001945083601f1981161062001439575b505050811b018155620011c5565b015160001960f88460031b161c191690553880806200142b565b818101518355602094850194600190930192909101906200140e565b909150836000526020600020601f840160051c810160208510620014bc575b90849392915b601f830160051c82018110620014ac57505062001197565b6000815585945060010162001494565b50806200148e565b91607f169162001181565b01519050388062001037565b906005840160005260206000209160005b601f19851681106200153c57509260e09492600192600c9583601f1981161062001522575b505050811b0160058201556200104f565b015160001960f88460031b161c1916905538808062001511565b91926020600181928685015181550194019201620014ec565b600584016000526020600020601f840160051c81016020851062001599575b601f830160051c820181106200158c57505062001015565b6000815560010162001574565b508062001574565b90607f169062001001565b01519050388062000f99565b9250836000526020600020906000935b601f19841685106200160d576001945083601f19811610620015f3575b505050811b01815562000fae565b015160001960f88460031b161c19169055388080620015e5565b81810151835560209485019460019093019290910190620015c8565b909150836000526020600020601f840160051c81016020851062001676575b90849392915b601f830160051c820181106200166657505062000f80565b600081558594506001016200164e565b508062001648565b91607f169162000f6a565b01519050388062000e09565b906005840160005260206000209160005b601f1985168110620016f657509260e09492600192600c9583601f19811610620016dc575b505050811b01600582015562000e21565b015160001960f88460031b161c19169055388080620016cb565b91926020600181928685015181550194019201620016a6565b600584016000526020600020601f840160051c81016020851062001753575b601f830160051c820181106200174657505062000de7565b600081556001016200172e565b50806200172e565b90607f169062000dd3565b01519050388062000d6b565b9250836000526020600020906000935b601f1984168510620017c7576001945083601f19811610620017ad575b505050811b01815562000d80565b015160001960f88460031b161c191690553880806200179f565b8181015183556020948501946001909301929091019062001782565b909150836000526020600020601f840160051c81016020851062001830575b90849392915b601f830160051c820181106200182057505062000d52565b6000815585945060010162001808565b508062001802565b91607f169162000d3c565b01519050388062000bf1565b906005840160005260206000209160005b601f1985168110620018b057509260e09492600192600c9583601f1981161062001896575b505050811b01600582015562000c09565b015160001960f88460031b161c1916905538808062001885565b9192602060018192868501518155019401920162001860565b600584016000526020600020601f840160051c8101602085106200190d575b601f830160051c820181106200190057505062000bcf565b60008155600101620018e8565b5080620018e8565b90607f169062000bbb565b01519050388062000b53565b9250836000526020600020906000935b601f198416851062001981576001945083601f1981161062001967575b505050811b01815562000b68565b015160001960f88460031b161c1916905538808062001959565b818101518355602094850194600190930192909101906200193c565b909150836000526020600020601f840160051c810160208510620019ea575b90849392915b601f830160051c82018110620019da57505062000b3a565b60008155859450600101620019c2565b5080620019bc565b91607f169162000b24565b015190503880620009c6565b906005840160005260206000209160005b601f198516811062001a6a57509260e09492600192600c9583601f1981161062001a50575b505050811b016005820155620009de565b015160001960f88460031b161c1916905538808062001a3f565b9192602060018192868501518155019401920162001a1a565b600584016000526020600020601f840160051c81016020851062001ac7575b601f830160051c8201811062001aba575050620009a4565b6000815560010162001aa2565b508062001aa2565b90607f169062000990565b01519050388062000928565b9250836000526020600020906000935b601f198416851062001b3b576001945083601f1981161062001b21575b505050811b0181556200093d565b015160001960f88460031b161c1916905538808062001b13565b8181015183556020948501946001909301929091019062001af6565b909150836000526020600020601f840160051c81016020851062001ba4575b90849392915b601f830160051c8201811062001b945750506200090f565b6000815585945060010162001b7c565b508062001b76565b91607f1691620008f9565b015190503880620007ad565b906005840160005260206000209160005b601f198516811062001c2457509260e09492600192600c9583601f1981161062001c0a575b505050811b016005820155620007c5565b015160001960f88460031b161c1916905538808062001bf9565b9192602060018192868501518155019401920162001bd4565b600584016000526020600020601f840160051c81016020851062001c81575b601f830160051c8201811062001c745750506200078b565b6000815560010162001c5c565b508062001c5c565b90607f169062000777565b0151905038806200070f565b9250836000526020600020906000935b601f198416851062001cf5576001945083601f1981161062001cdb575b505050811b01815562000724565b015160001960f88460031b161c1916905538808062001ccd565b8181015183556020948501946001909301929091019062001cb0565b909150836000526020600020601f840160051c81016020851062001d5e575b90849392915b601f830160051c8201811062001d4e575050620006f6565b6000815585945060010162001d36565b508062001d30565b91607f1691620006e0565b01519050388062000594565b906005840160005260206000209160005b601f198516811062001dde57509260e09492600192600c9583601f1981161062001dc4575b505050811b016005820155620005ac565b015160001960f88460031b161c1916905538808062001db3565b9192602060018192868501518155019401920162001d8e565b600584016000526020600020601f840160051c81016020851062001e3b575b601f830160051c8201811062001e2e57505062000572565b6000815560010162001e16565b508062001e16565b90607f16906200055e565b015190503880620004f6565b9250836000526020600020906000935b601f198416851062001eaf576001945083601f1981161062001e95575b505050811b0181556200050b565b015160001960f88460031b161c1916905538808062001e87565b8181015183556020948501946001909301929091019062001e6a565b909150836000526020600020601f840160051c81016020851062001f18575b90849392915b601f830160051c8201811062001f08575050620004dd565b6000815585945060010162001ef0565b508062001eea565b91607f1691620004c7565b0151905038806200036a565b906005850160005260206000209160005b601f198516811062001f98575092600c949260019260e09583601f1981161062001f7e575b505050811b01600585015562000382565b015160001960f88460031b161c1916905538808062001f6d565b9192602060018192868501518155019401920162001f48565b600585016000526020600020601f840160051c81016020851062001ff5575b601f830160051c8201811062001fe857505062000348565b6000815560010162001fd0565b508062001fd0565b90607f169062000334565b015190503880620002cc565b9250846000526020600020906000935b601f198416851062002069576001945083601f198116106200204f575b505050811b018255620002e1565b015160001960f88460031b161c1916905538808062002041565b8181015183556020948501946001909301929091019062002024565b909150846000526020600020601f840160051c810160208510620020d2575b90849392915b601f830160051c82018110620020c2575050620002b3565b60008155859450600101620020aa565b5080620020a4565b91607f16916200029d565b01519050388062000157565b600160009081526000805160206200442e8339815191529190601f198416905b818110620021515750958360019596971062002137575b505050811b016001556200016d565b015160001960f88460031b161c1916905538808062002128565b9192602060018192868b01518155019401920162002111565b60016000526000805160206200442e833981519152601f830160051c81019160208410620021b8575b601f0160051c01905b818110620021ab57506200013b565b600081556001016200219c565b909150819062002193565b90607f169062000127565b015190503880620000ee565b6000808052601f198316966000805160206200440e8339815191529290915b88811062002239575083600195969798106200221f575b505050811b0160005562000104565b015160001960f88460031b161c1916905538808062002210565b91926020600181928685015181550194019201620021f9565b600080526000805160206200440e833981519152601f830160051c810191602084106200229f575b601f0160051c01905b818110620022925750620000cf565b6000815560010162002283565b90915081906200227a565b90607f1690620000bb565b600080fd5b6040519060c082016001600160401b03811183821017620013dc57604052565b6040519061010082016001600160401b03811183821017620013dc57604052565b60408051919082016001600160401b03811183821017620013dc5760405256fe608060408181526004918236101561001657600080fd5b600060e0918135831c90816301ffc9a7146113cb5750806306fdde0314611323578063081812fc14611302578063095ea7b31461119357806323b872dd1461116e5780632b359bc51461114557806342842e0e1461111157806359aa021b146110225780636352211e14610ff057806370a0823114610f5a578063715018a614610efd5780637253305e14610ed057806374fd9f7214610afd57806375794a3c14610ade578063824cc83214610a7957806383233ed414610a315780638cf6408f14610a085780638da5cb5b146109df57806395d89b41146108fc5780639c3eee0c146108b55780639d5ffdc81461088c578063a22cb465146107ba578063a5c9af631461073c578063b88d4fde146106ae578063c366ab9d14610609578063c87b56dd1461059d578063dc1a1af7146103ae578063e985e9c51461035c578063f2fde38b1461028b5763fe401d2f1461016f57600080fd5b3461028857602036600319011261028857833561018a61205d565b506000818152600260205260409020546001600160a01b03161561024e5781849161024a9493526008602052208351936101c38561152e565b6101cc826115bb565b85526001820154946020810195865260028301549682820197885260038401549060608301918252840154906080830191825261020b600586016115bb565b9260a0810193845260ff600c61022360068901611661565b978860c08501520154161515809782015251975198519051915192519351988998896116a7565b0390f35b835162461bcd60e51b81526020818701526014602482015273151bdad95b88191bd95cc81b9bdd08195e1a5cdd60621b6044820152606490fd5b80fd5b50828434610358576020366003190112610358576102a761147f565b906102b061180c565b6001600160a01b03918216928315610306575050600654826bffffffffffffffffffffffff60a01b821617600655167f8be0079c531659141344cd1fd0a4f28419497f9722a3daafe3b4186f6b6457e08380a380f35b906020608492519162461bcd60e51b8352820152602660248201527f4f776e61626c653a206e6577206f776e657220697320746865207a65726f206160448201526564647265737360d01b6064820152fd5b8280fd5b5082346103aa57806003193601126103aa5760ff8160209361037c61147f565b61038461149a565b6001600160a01b0391821683526005875283832091168252855220549151911615158152f35b5080fd5b50929190346105995760209081600319360112610595576103cd61205d565b9284358652600c9081845280872081518082878294549384815201908b52878b20928b5b8982821061057f5750505061040892500382611599565b875b815181101561053c576104b49060058782821b850101518b52600888528988868d208b8989519561043a8761152e565b610443846115bb565b875260018401548588015260028401548b8801528c61047a600386015497606098898b015286015492608093848b015286016115bb565b9760a0988982015260ff61049060068801611661565b9460c0830197868952015416151591829101526104b9575b50505050505050611e91565b61040a565b61052e9587956104ce61051e9451865161208f565b85526104e3818751015191860191825161208f565b90528b855101516104f88d860191825161208f565b905261050d818651015191850191825161208f565b90528084510151920191825161208f565b9052510151918a0191825161208f565b9052388088818b81806104a8565b60c08761057d8551809260a0809180518452602081015160208501526040810151604085015260608101516060850152608081015160808501520151910152565bf35b85548452600195860195879550930192016103f1565b8480fd5b8380fd5b848285346103aa5760203660031901126103aa576105dc6105d761024a9435600052600260205260018060a01b0360406000205416151590565b611864565b8181516105e88161157d565b528051916105f58361157d565b82525191829160208352602083019061145a565b509050346102885760203660031901126102885782359067ffffffffffffffff82116102885750610657602061064561024a9336908701611785565b81855193828580945193849201611437565b810160098152030190209161066b836115bb565b926001810154946002820154906003830154908301549061068e600585016115bb565b9260ff600c61069f60068801611661565b960154169551988998896116a7565b5083346103aa5760803660031901126103aa576106c961147f565b906106d261149a565b916044356064359367ffffffffffffffff851161073857366023860112156107385761070d610730948660246107359836930135910161174e565b9261072061071b84336119ea565b611911565b61072b838383611ab2565b611e06565b6119c6565b80f35b8580fd5b5082346103aa5760209081600319360112610358576001600160a01b0361076161147f565b168352600a82528083209281518093808654928381520195835280832092905b8282106107a35761024a8686610799828b0383611599565b51918291826117a3565b835487529586019560019384019390910190610781565b508383346103585780600319360112610358576107d561147f565b906107de6114e5565b6001600160a01b039092169233841461084a5750338452600560205280842083855260205261081b828286209060ff801983541691151516179055565b5190151581527f17307eab39ab6107e8899845ad3d59bd9653f200f220920489ca2b5937696c3160203392a380f35b6020606492519162461bcd60e51b8352820152601960248201527f4552433732313a20617070726f766520746f2063616c6c6572000000000000006044820152fd5b50828434610358576020366003190112610358576020928291358152600b845220549051908152f35b5090503461028857816003193601126102885760243592358152600c60205281812090815484101561028857506020926108ee916117de565b91905490519160031b1c8152f35b5082346103aa57816003193601126103aa57805190826001805491610920836114f4565b808652928281169081156109b7575060011461095b575b5050506109498261024a940383611599565b5191829160208352602083019061145a565b94508085527fb10e2d527612073b26eecdfd717e6a320cf44b4afac2b0732d9fcbe2b7fa0cf65b82861061099f5750505061094982602061024a9582010194610937565b80546020878701810191909152909501948101610982565b61024a97508693506020925061094994915060ff191682840152151560051b82010194610937565b5082346103aa57816003193601126103aa5760065490516001600160a01b039091168152602090f35b5082346103aa57816003193601126103aa57600e5490516001600160a01b039091168152602090f35b5082346103aa57806003193601126103aa57610a4b61147f565b6001600160a01b03168252600a6020528082208054602435939084101561028857506020926108ee916117de565b50838334610358576020918260031936011261059957358352600c82528083209281518093808654928381520195835280832092905b828210610ac75761024a8686610799828b0383611599565b835487529586019560019384019390910190610aaf565b5082346103aa57816003193601126103aa576020906007549051908152f35b848285346103aa57806003193601126103aa57823567ffffffffffffffff811161035857610b2e9036908501611785565b926024358251948051926001602097888181860197610b4e81838b611437565b81016009815203019020015415610e8d57600d5485516331a9108f60e11b8152828101859052906001600160a01b039089908390602490829085165afa918215610e83578892610e47575b5033911603610e0457610bc68760075495610bb387611e91565b6007558751809381928751928391611437565b8101600981520301902084875260088852858720818103610d50575b5050838652600b87528285872055828652600c8752610c0384868820611fe9565b845190610c0f8261157d565b8682523315610d0f57509060608697610cf0610730610d0295610c85898b7f1e606f355f318326aacd024898d3d4423dbef4bc207a8fd760e434b199217f669c9d610c78610c7284600052600260205260018060a01b0360406000205416151590565b15612011565b338152600a885220611fe9565b600089815260026020526040902054610ca8906001600160a01b03161515610c72565b33808d52600385528b8d2080546001019055898d52600285528b8d2080546001600160a01b0319168217905589908d60008051602061209d8339815191528180a48833611cea565b8751958652850152606084019061145a565b938201528033930390a280f35b606490888088519262461bcd60e51b845283015260248201527f4552433732313a206d696e7420746f20746865207a65726f20616464726573736044820152fd5b600c60ff8184610d63610dc19686611eb6565b6001810154600186015560028101546002860155600381015460038601558681015487860155610d996005820160058701611eb6565b6006850160068201808203610dc8575b505001541691019060ff801983541691151516179055565b8780610be2565b549055600781015460078601556008810154600886015560098101546009860155600a810154600a860155600b810154600b8601558d80610da9565b845162461bcd60e51b8152908101879052601a60248201527f4e6f7420746865206f776e6572206f662074686973206c616e640000000000006044820152606490fd5b9091508881813d8311610e7c575b610e5f8183611599565b81010312610e7857518181168103610e78579089610b99565b8780fd5b503d610e55565b87513d8a823e3d90fd5b845162461bcd60e51b8152908101879052601860248201527f556e6974207479706520646f6573206e6f7420657869737400000000000000006044820152606490fd5b50905034610288576020366003190112610288578161024a91843581526008602052209161066b836115bb565b5034610288578060031936011261028857610f1661180c565b600680546001600160a01b0319811690915581906001600160a01b03167f8be0079c531659141344cd1fd0a4f28419497f9722a3daafe3b4186f6b6457e08280a380f35b838286346103aa5760203660031901126103aa576001600160a01b03610f7e61147f565b16908115610f9b5760208480858581526003845220549051908152f35b608490602085519162461bcd60e51b8352820152602960248201527f4552433732313a2061646472657373207a65726f206973206e6f7420612076616044820152683634b21037bbb732b960b91b6064820152fd5b509050346102885760203660031901126102885750611011602092356118b0565b90516001600160a01b039091168152f35b838286346103aa57826003193601126103aa57803561103f6114e5565b600e549092906001600160a01b031633036110ce576000828152600260205260409020546001600160a01b03161561109557508293600c91610735945260086020528420019060ff801983541691151516179055565b606490602086519162461bcd60e51b83528201526013602482015272155b9a5d08191bd95cc81b9bdd08195e1a5cdd606a1b6044820152fd5b606490602086519162461bcd60e51b8352820152601e60248201527f43616c6c6572206973206e6f74204c616e644e465420636f6e747261637400006044820152fd5b5082346103aa5761073061073591611128366114b0565b919251926111358461157d565b86845261072061071b84336119ea565b5082346103aa57816003193601126103aa57600d5490516001600160a01b039091168152602090f35b503461028857610735611180366114b0565b9161118e61071b84336119ea565b611ab2565b508284346103585781600319360112610358576111ae61147f565b6024359290916001600160a01b03919082806111c9876118b0565b169416938085146112b557803314908115611296575b501561122e57848652602052842080546001600160a01b03191683179055611206836118b0565b167f8c5be1e5ebec7d5bd14f71427d1e84f3dd0314c0f7b2291e5b200ac8c7c3b9258480a480f35b6020608492519162461bcd60e51b8352820152603d60248201527f4552433732313a20617070726f76652063616c6c6572206973206e6f7420746f60448201527f6b656e206f776e6572206f7220617070726f76656420666f7220616c6c0000006064820152fd5b90508652600560205281862033875260205260ff8287205416876111df565b506020608492519162461bcd60e51b8352820152602160248201527f4552433732313a20617070726f76616c20746f2063757272656e74206f776e656044820152603960f91b6064820152fd5b509050346102885760203660031901126102885750611011602092356118d3565b5082346103aa57816003193601126103aa57805190828054611344816114f4565b808552916001918083169081156109b7575060011461136f575050506109498261024a940383611599565b80809650527f290decd9548b62a8d60345a988386fc84ba6bc95484008f6362f93160ef3e5635b8286106113b35750505061094982602061024a9582010194610937565b80546020878701810191909152909501948101611396565b90508434610358576020366003190112610358573563ffffffff60e01b811680910361035857602092506380ac58cd60e01b8114908115611426575b8115611415575b5015158152f35b6301ffc9a760e01b1490508361140e565b635b5e139f60e01b81149150611407565b60005b83811061144a5750506000910152565b818101518382015260200161143a565b9060209161147381518092818552858086019101611437565b601f01601f1916010190565b600435906001600160a01b038216820361149557565b600080fd5b602435906001600160a01b038216820361149557565b6060906003190112611495576001600160a01b0390600435828116810361149557916024359081168103611495579060443590565b60243590811515820361149557565b90600182811c92168015611524575b602083101461150e57565b634e487b7160e01b600052602260045260246000fd5b91607f1691611503565b610100810190811067ffffffffffffffff82111761154b57604052565b634e487b7160e01b600052604160045260246000fd5b60c0810190811067ffffffffffffffff82111761154b57604052565b6020810190811067ffffffffffffffff82111761154b57604052565b90601f8019910116810190811067ffffffffffffffff82111761154b57604052565b90604051918260008254926115cf846114f4565b90818452600194858116908160001461163e57506001146115fb575b50506115f992500383611599565b565b9093915060005260209081600020936000915b8183106116265750506115f9935082010138806115eb565b8554888401850152948501948794509183019161160e565b9150506115f994506020925060ff191682840152151560051b82010138806115eb565b9060405161166e81611561565b60a06005829480548452600181015460208501526002810154604085015260038101546060850152600481015460808501520154910152565b9698979461172b946116eb946116c961018099946101a0808d528c019061145a565b9460208b015260408a01526060890152608088015286820360a088015261145a565b865160c0860152602087015160e086015260408701516101008601526060870151610120860152608087015161014086015260a090960151610160850152565b1515910152565b67ffffffffffffffff811161154b57601f01601f191660200190565b92919261175a82611732565b916117686040519384611599565b829481845281830111611495578281602093846000960137010152565b9080601f83011215611495578160206117a09335910161174e565b90565b6020908160408183019282815285518094520193019160005b8281106117ca575050505090565b8351855293810193928101926001016117bc565b80548210156117f65760005260206000200190600090565b634e487b7160e01b600052603260045260246000fd5b6006546001600160a01b0316330361182057565b606460405162461bcd60e51b815260206004820152602060248201527f4f776e61626c653a2063616c6c6572206973206e6f7420746865206f776e65726044820152fd5b1561186b57565b60405162461bcd60e51b815260206004820152601860248201527f4552433732313a20696e76616c696420746f6b656e20494400000000000000006044820152606490fd5b6000908152600260205260409020546001600160a01b03166117a0811515611864565b6000818152600260205260409020546118f6906001600160a01b03161515611864565b6000908152600460205260409020546001600160a01b031690565b1561191857565b60405162461bcd60e51b815260206004820152602d60248201527f4552433732313a2063616c6c6572206973206e6f7420746f6b656e206f776e6560448201526c1c881bdc88185c1c1c9bdd9959609a1b6064820152608490fd5b60809060208152603260208201527f4552433732313a207472616e7366657220746f206e6f6e20455243373231526560408201527131b2b4bb32b91034b6b83632b6b2b73a32b960711b60608201520190565b156119cd57565b60405162461bcd60e51b8152806119e660048201611973565b0390fd5b906001600160a01b0380806119fe846118b0565b16931691838314938415611a31575b508315611a1b575b50505090565b611a27919293506118d3565b1614388080611a15565b909350600052600560205260406000208260005260205260ff604060002054169238611a0d565b15611a5f57565b60405162461bcd60e51b815260206004820152602560248201527f4552433732313a207472616e736665722066726f6d20696e636f72726563742060448201526437bbb732b960d91b6064820152608490fd5b90611ada91611ac0846118b0565b6001600160a01b0393918416928492909183168414611a58565b16918215611c995781611b81575b60008051602061209d83398151915290611b2483600092868452600a602052611b148860408620611fe9565b611b1d886118b0565b1614611a58565b8481526004602052604081206bffffffffffffffffffffffff60a01b9081815416905583825260036020526040822060001981540190558482526040822060018154019055858252600260205284604083209182541617905580a4565b929190600093818552600a60205260408520855b815480821015611c7d578690611bab83856117de565b929054600393841b1c14611bc9575050611bc490611e91565b611b95565b916000989194959697981992838101908111611c695790611bfd611bf0611c1693876117de565b905490881b1c91866117de565b90919082549060031b91821b91600019901b1916179055565b8254908115611c555750908060008051602061209d833981519152959493920192611c4184846117de565b81939154921b1b19169055555b9050611ae8565b634e487b7160e01b81526031600452602490fd5b634e487b7160e01b83526011600452602483fd5b50505060008051602061209d8339815191529192939450611c4e565b60405162461bcd60e51b8152602060048201526024808201527f4552433732313a207472616e7366657220746f20746865207a65726f206164646044820152637265737360e01b6064820152608490fd5b9192600092909190803b15611dfc57611d38946040518092630a85bd0160e11b9485835233600484015287602484015260448301526080606483015281878160209a8b96608483019061145a565b03926001600160a01b03165af1849181611dbc575b50611dab575050503d600014611da3573d611d6781611732565b90611d756040519283611599565b81528091833d92013e5b80519182611da05760405162461bcd60e51b8152806119e660048201611973565b01fd5b506060611d7f565b6001600160e01b0319161492509050565b9091508581813d8311611df5575b611dd48183611599565b8101031261059557516001600160e01b031981168103610595579038611d4d565b503d611dca565b5050915050600190565b9293600093909291803b15611e8657948491611e609660405180948193630a85bd0160e11b9788845233600485015260018060a01b0380921660248501526044840152608060648401528260209b8c97608483019061145a565b0393165af1849181611dbc5750611dab575050503d600014611da3573d611d6781611732565b505050915050600190565b6000198114611ea05760010190565b634e487b7160e01b600052601160045260246000fd5b90808214611fe557611ec881546114f4565b9067ffffffffffffffff821161154b578190611ee484546114f4565b601f8111611f91575b50600090601f8311600114611f2557600092611f1a575b50508160011b916000199060031b1c1916179055565b015490503880611f04565b81526020808220858352818320935090601f1985169083905b828210611f78575050908460019594939210611f5f575b505050811b019055565b015460001960f88460031b161c19169055388080611f55565b8495819295850154815560018091019601940190611f3e565b909150600084815260208120601f850160051c81019260208610611fdb575b90601f86959493920160051c01915b828110611fcd575050611eed565b818155859450600101611fbf565b9092508290611fb0565b5050565b908154916801000000000000000083101561154b5782611bfd9160016115f9950181556117de565b1561201857565b60405162461bcd60e51b815260206004820152601c60248201527f4552433732313a20746f6b656e20616c7265616479206d696e746564000000006044820152606490fd5b6040519061206a82611561565b8160a06000918281528260208201528260408201528260608201528260808201520152565b91908201809211611ea05756feddf252ad1be2c89b69c2b068fc378daa952ba7f163c4a11628f55a4df523b3efa264697066735822122038c4e115f2e5e2c8afed11b8af0091f74e87381c20b3a4ad0f34a1f9903b75e664736f6c63430008130033290decd9548b62a8d60345a988386fc84ba6bc95484008f6362f93160ef3e563b10e2d527612073b26eecdfd717e6a320cf44b4afac2b0732d9fcbe2b7fa0cf6","opcodes":"PUSH1 0x80 CALLVALUE PUSH3 0x22B5 JUMPI PUSH1 0x1F PUSH3 0x444E CODESIZE DUP2 SWAP1 SUB SWAP2 DUP3 ADD PUSH1 0x1F NOT AND DUP4 ADD SWAP2 PUSH1 0x1 PUSH1 0x1 PUSH1 0x40 SHL SUB DUP4 GT DUP5 DUP5 LT OR PUSH3 0x13DC JUMPI DUP1 DUP5 SWAP3 PUSH1 0x20 SWAP5 PUSH1 0x40 MSTORE DUP4 CODECOPY DUP2 ADD SUB SLT PUSH3 0x22B5 JUMPI MLOAD PUSH1 0x1 PUSH1 0x1 PUSH1 0xA0 SHL SUB SWAP1 DUP2 DUP2 AND DUP2 SUB PUSH3 0x22B5 JUMPI PUSH3 0x60 PUSH3 0x22FB JUMP JUMPDEST SWAP2 PUSH1 0xD DUP4 MSTORE PUSH13 0x119A9D5B9B1D5B9908155B9A5D PUSH1 0x9A SHL PUSH1 0x20 DUP5 ADD MSTORE PUSH3 0x85 PUSH3 0x22FB JUMP JUMPDEST PUSH1 0x3 DUP2 MSTORE PUSH3 0x464A55 PUSH1 0xE8 SHL PUSH1 0x20 DUP3 ADD MSTORE DUP4 MLOAD SWAP1 SWAP3 SWAP1 PUSH1 0x1 PUSH1 0x1 PUSH1 0x40 SHL SUB DUP2 GT PUSH3 0x13DC JUMPI PUSH1 0x0 SLOAD PUSH1 0x1 DUP2 DUP2 SHR SWAP2 AND DUP1 ISZERO PUSH3 0x22AA JUMPI JUMPDEST PUSH1 0x20 DUP3 LT EQ PUSH3 0x13BB JUMPI PUSH1 0x1F DUP2 GT PUSH3 0x2252 JUMPI JUMPDEST POP PUSH1 0x20 SWAP5 PUSH1 0x1F DUP3 GT PUSH1 0x1 EQ PUSH3 0x21DA JUMPI SWAP5 DUP2 SWAP3 SWAP4 SWAP5 SWAP6 PUSH1 0x0 SWAP3 PUSH3 0x21CE JUMPI JUMPDEST POP POP DUP2 PUSH1 0x1 SHL SWAP2 PUSH1 0x0 NOT SWAP1 PUSH1 0x3 SHL SHR NOT AND OR PUSH1 0x0 SSTORE JUMPDEST DUP3 MLOAD PUSH1 0x1 PUSH1 0x1 PUSH1 0x40 SHL SUB DUP2 GT PUSH3 0x13DC JUMPI PUSH1 0x1 SLOAD PUSH1 0x1 DUP2 DUP2 SHR SWAP2 AND DUP1 ISZERO PUSH3 0x21C3 JUMPI JUMPDEST PUSH1 0x20 DUP3 LT EQ PUSH3 0x13BB JUMPI PUSH1 0x1F DUP2 GT PUSH3 0x216A JUMPI JUMPDEST POP PUSH1 0x20 PUSH1 0x1F DUP3 GT PUSH1 0x1 EQ PUSH3 0x20F1 JUMPI DUP2 SWAP3 SWAP4 SWAP5 PUSH1 0x0 SWAP3 PUSH3 0x20E5 JUMPI JUMPDEST POP POP DUP2 PUSH1 0x1 SHL SWAP2 PUSH1 0x0 NOT SWAP1 PUSH1 0x3 SHL SHR NOT AND OR PUSH1 0x1 SSTORE JUMPDEST PUSH1 0x6 DUP1 SLOAD CALLER PUSH1 0x1 PUSH1 0x1 PUSH1 0xA0 SHL SUB NOT DUP3 AND DUP2 OR SWAP1 SWAP3 SSTORE DUP4 AND PUSH32 0x8BE0079C531659141344CD1FD0A4F28419497F9722A3DAAFE3B4186F6B6457E0 PUSH1 0x0 DUP1 LOG3 PUSH1 0x1 PUSH1 0x7 SSTORE PUSH3 0x1B8 PUSH3 0x22BA JUMP JUMPDEST PUSH1 0x5 DUP2 MSTORE PUSH1 0x1 PUSH1 0x20 DUP3 ADD MSTORE PUSH1 0x0 PUSH1 0x40 DUP3 ADD MSTORE PUSH1 0x0 PUSH1 0x60 DUP3 ADD MSTORE PUSH1 0x0 PUSH1 0x80 DUP3 ADD MSTORE PUSH1 0x0 PUSH1 0xA0 DUP3 ADD MSTORE PUSH3 0x1E9 PUSH3 0x22DA JUMP JUMPDEST SWAP1 PUSH3 0x1F4 PUSH3 0x22FB JUMP JUMPDEST PUSH1 0x7 DUP2 MSTORE PUSH7 0x2337B7BA36B0B7 PUSH1 0xC9 SHL PUSH1 0x20 DUP3 ADD MSTORE DUP3 MSTORE PUSH1 0x32 PUSH1 0x20 DUP4 ADD MSTORE PUSH1 0x32 PUSH1 0x40 DUP4 ADD MSTORE PUSH1 0x5 PUSH1 0x60 DUP4 ADD MSTORE PUSH1 0x1 PUSH1 0x80 DUP4 ADD MSTORE PUSH1 0x40 MLOAD DUP1 PUSH1 0x20 DUP2 ADD LT PUSH1 0x1 DUP1 PUSH1 0x40 SHL SUB PUSH1 0x20 DUP4 ADD GT OR PUSH3 0x13DC JUMPI PUSH1 0x20 DUP2 ADD PUSH1 0x40 MSTORE PUSH1 0x0 DUP2 MSTORE PUSH1 0xA0 DUP4 ADD MSTORE PUSH1 0xC0 DUP3 ADD MSTORE PUSH1 0x1 PUSH1 0xE0 DUP3 ADD MSTORE PUSH1 0x27 PUSH1 0x40 MLOAD PUSH7 0x2337B7BA36B0B7 PUSH1 0xC9 SHL DUP2 MSTORE PUSH1 0x9 PUSH1 0x7 DUP3 ADD MSTORE KECCAK256 SWAP1 DUP1 MLOAD DUP1 MLOAD SWAP1 PUSH1 0x1 DUP1 PUSH1 0x40 SHL SUB DUP3 GT PUSH3 0x13DC JUMPI DUP4 SLOAD SWAP1 PUSH1 0x1 DUP3 DUP2 SHR SWAP3 AND DUP1 ISZERO PUSH3 0x20DA JUMPI JUMPDEST PUSH1 0x20 DUP4 LT EQ PUSH3 0x13BB JUMPI DUP2 PUSH1 0x1F DUP5 SWAP4 GT PUSH3 0x2085 JUMPI JUMPDEST POP PUSH1 0x20 SWAP1 PUSH1 0x1F DUP4 GT PUSH1 0x1 EQ PUSH3 0x2014 JUMPI PUSH1 0x0 SWAP3 PUSH3 0x2008 JUMPI JUMPDEST POP POP DUP2 PUSH1 0x1 SHL SWAP2 PUSH1 0x0 NOT SWAP1 PUSH1 0x3 SHL SHR NOT AND OR DUP3 SSTORE JUMPDEST PUSH1 0x20 DUP2 ADD MLOAD PUSH1 0x1 DUP4 ADD SSTORE PUSH1 0x40 DUP2 ADD MLOAD PUSH1 0x2 DUP4 ADD SSTORE PUSH1 0x60 DUP2 ADD MLOAD PUSH1 0x3 DUP4 ADD SSTORE PUSH1 0x80 DUP2 ADD MLOAD PUSH1 0x4 DUP4 ADD SSTORE PUSH1 0xA0 DUP2 ADD MLOAD DUP1 MLOAD SWAP1 PUSH1 0x1 PUSH1 0x1 PUSH1 0x40 SHL SUB DUP3 GT PUSH3 0x13DC JUMPI PUSH1 0x5 DUP5 ADD SLOAD PUSH1 0x1 DUP2 DUP2 SHR SWAP2 AND DUP1 ISZERO PUSH3 0x1FFD JUMPI JUMPDEST PUSH1 0x20 DUP3 LT EQ PUSH3 0x13BB JUMPI PUSH1 0x1F DUP2 GT PUSH3 0x1FB1 JUMPI JUMPDEST POP PUSH1 0x20 SWAP1 PUSH1 0x1F DUP4 GT PUSH1 0x1 EQ PUSH3 0x1F37 JUMPI SWAP2 DUP1 PUSH1 0xC SWAP5 SWAP3 PUSH1 0xE0 SWAP5 PUSH1 0x0 SWAP3 PUSH3 0x1F2B JUMPI JUMPDEST POP POP DUP2 PUSH1 0x1 SHL SWAP2 PUSH1 0x0 NOT SWAP1 PUSH1 0x3 SHL SHR NOT AND OR PUSH1 0x5 DUP6 ADD SSTORE JUMPDEST PUSH1 0xA0 PUSH1 0xC0 DUP3 ADD MLOAD DUP1 MLOAD PUSH1 0x6 DUP8 ADD SSTORE PUSH1 0x20 DUP2 ADD MLOAD PUSH1 0x7 DUP8 ADD SSTORE PUSH1 0x40 DUP2 ADD MLOAD PUSH1 0x8 DUP8 ADD SSTORE PUSH1 0x60 DUP2 ADD MLOAD PUSH1 0x9 DUP8 ADD SSTORE PUSH1 0x80 DUP2 ADD MLOAD PUSH1 0xA DUP8 ADD SSTORE ADD MLOAD PUSH1 0xB DUP6 ADD SSTORE ADD MLOAD ISZERO ISZERO PUSH1 0xFF DUP1 NOT DUP4 DUP6 ADD SLOAD AND SWAP2 AND OR SWAP2 ADD SSTORE PUSH3 0x3DC PUSH3 0x22BA JUMP JUMPDEST PUSH1 0x4 DUP2 MSTORE PUSH1 0x2 PUSH1 0x20 DUP3 ADD MSTORE PUSH1 0x0 PUSH1 0x40 DUP3 ADD MSTORE PUSH1 0x0 PUSH1 0x60 DUP3 ADD MSTORE PUSH1 0x0 PUSH1 0x80 DUP3 ADD MSTORE PUSH1 0x0 PUSH1 0xA0 DUP3 ADD MSTORE PUSH1 0x26 PUSH3 0x40F PUSH3 0x22DA JUMP JUMPDEST SWAP2 PUSH3 0x41A PUSH3 0x22FB JUMP JUMPDEST SWAP1 PUSH1 0x6 DUP3 MSTORE PUSH6 0x20B931B432B9 PUSH1 0xD1 SHL SWAP2 DUP3 PUSH1 0x20 DUP3 ADD MSTORE DUP5 MSTORE PUSH1 0x28 PUSH1 0x20 DUP6 ADD MSTORE PUSH1 0x1E PUSH1 0x40 DUP6 ADD MSTORE PUSH1 0x5 PUSH1 0x60 DUP6 ADD MSTORE PUSH1 0x7 PUSH1 0x80 DUP6 ADD MSTORE PUSH3 0x458 PUSH3 0x22FB JUMP JUMPDEST PUSH1 0x17 DUP2 MSTORE PUSH32 0x43616E2061747461636B20666C79696E6720756E697473000000000000000000 PUSH1 0x20 DUP3 ADD MSTORE PUSH1 0xA0 DUP6 ADD MSTORE PUSH1 0xC0 DUP5 ADD MSTORE PUSH1 0x1 PUSH1 0xE0 DUP5 ADD MSTORE PUSH1 0x40 MLOAD SWAP1 DUP2 MSTORE PUSH1 0x9 PUSH1 0x6 DUP3 ADD MSTORE KECCAK256 DUP2 MLOAD DUP1 MLOAD SWAP1 PUSH1 0x1 PUSH1 0x1 PUSH1 0x40 SHL SUB DUP3 GT PUSH3 0x13DC JUMPI DUP3 SLOAD SWAP1 PUSH1 0x1 DUP3 DUP2 SHR SWAP3 AND DUP1 ISZERO PUSH3 0x1F20 JUMPI JUMPDEST PUSH1 0x20 DUP4 LT EQ PUSH3 0x13BB JUMPI DUP2 PUSH1 0x1F DUP5 SWAP4 GT PUSH3 0x1ECB JUMPI JUMPDEST POP PUSH1 0x20 SWAP1 PUSH1 0x1F DUP4 GT PUSH1 0x1 EQ PUSH3 0x1E5A JUMPI PUSH1 0x0 SWAP3 PUSH3 0x1E4E JUMPI JUMPDEST POP POP DUP2 PUSH1 0x1 SHL SWAP2 PUSH1 0x0 NOT SWAP1 PUSH1 0x3 SHL SHR NOT AND OR DUP2 SSTORE JUMPDEST PUSH1 0x20 DUP3 ADD MLOAD PUSH1 0x1 DUP3 ADD SSTORE PUSH1 0x40 DUP3 ADD MLOAD PUSH1 0x2 DUP3 ADD SSTORE PUSH1 0x60 DUP3 ADD MLOAD PUSH1 0x3 DUP3 ADD SSTORE PUSH1 0x80 DUP3 ADD MLOAD PUSH1 0x4 DUP3 ADD SSTORE PUSH1 0xA0 DUP3 ADD MLOAD DUP1 MLOAD SWAP1 PUSH1 0x1 PUSH1 0x1 PUSH1 0x40 SHL SUB DUP3 GT PUSH3 0x13DC JUMPI PUSH1 0x5 DUP4 ADD SLOAD PUSH1 0x1 DUP2 DUP2 SHR SWAP2 AND DUP1 ISZERO PUSH3 0x1E43 JUMPI JUMPDEST PUSH1 0x20 DUP3 LT EQ PUSH3 0x13BB JUMPI PUSH1 0x1F DUP2 GT PUSH3 0x1DF7 JUMPI JUMPDEST POP PUSH1 0x20 SWAP1 PUSH1 0x1F DUP4 GT PUSH1 0x1 EQ PUSH3 0x1D7D JUMPI SWAP2 DUP1 PUSH1 0xE0 SWAP5 SWAP3 PUSH1 0xC SWAP5 PUSH1 0x0 SWAP3 PUSH3 0x1D71 JUMPI JUMPDEST POP POP DUP2 PUSH1 0x1 SHL SWAP2 PUSH1 0x0 NOT SWAP1 PUSH1 0x3 SHL SHR NOT AND OR PUSH1 0x5 DUP3 ADD SSTORE JUMPDEST PUSH1 0xA0 PUSH1 0xC0 DUP6 ADD MLOAD DUP1 MLOAD PUSH1 0x6 DUP5 ADD SSTORE PUSH1 0x20 DUP2 ADD MLOAD PUSH1 0x7 DUP5 ADD SSTORE PUSH1 0x40 DUP2 ADD MLOAD PUSH1 0x8 DUP5 ADD SSTORE PUSH1 0x60 DUP2 ADD MLOAD PUSH1 0x9 DUP5 ADD SSTORE PUSH1 0x80 DUP2 ADD MLOAD PUSH1 0xA DUP5 ADD SSTORE ADD MLOAD PUSH1 0xB DUP3 ADD SSTORE ADD SWAP2 ADD MLOAD ISZERO ISZERO PUSH1 0xFF DUP1 NOT DUP4 SLOAD AND SWAP2 AND OR SWAP1 SSTORE PUSH3 0x605 PUSH3 0x22BA JUMP JUMPDEST PUSH1 0x6 DUP2 MSTORE PUSH1 0x0 PUSH1 0x20 DUP3 ADD MSTORE PUSH1 0x0 PUSH1 0x40 DUP3 ADD MSTORE PUSH1 0x0 PUSH1 0x60 DUP3 ADD MSTORE PUSH1 0x3 PUSH1 0x80 DUP3 ADD MSTORE PUSH1 0x0 PUSH1 0xA0 DUP3 ADD MSTORE PUSH1 0x26 PUSH3 0x638 PUSH3 0x22DA JUMP JUMPDEST SWAP2 PUSH3 0x643 PUSH3 0x22FB JUMP JUMPDEST SWAP1 PUSH1 0x6 DUP3 MSTORE PUSH6 0x12DB9A59DA1D PUSH1 0xD2 SHL SWAP2 DUP3 PUSH1 0x20 DUP3 ADD MSTORE DUP5 MSTORE PUSH1 0x46 PUSH1 0x20 DUP6 ADD MSTORE PUSH1 0x3C PUSH1 0x40 DUP6 ADD MSTORE PUSH1 0x7 PUSH1 0x60 DUP6 ADD MSTORE PUSH1 0x1 PUSH1 0x80 DUP6 ADD MSTORE PUSH3 0x681 PUSH3 0x22FB JUMP JUMPDEST PUSH1 0xD DUP2 MSTORE PUSH13 0x4368617267652061747461636B PUSH1 0x98 SHL PUSH1 0x20 DUP3 ADD MSTORE PUSH1 0xA0 DUP6 ADD MSTORE PUSH1 0xC0 DUP5 ADD MSTORE PUSH1 0x1 PUSH1 0xE0 DUP5 ADD MSTORE PUSH1 0x40 MLOAD SWAP1 DUP2 MSTORE PUSH1 0x9 PUSH1 0x6 DUP3 ADD MSTORE KECCAK256 DUP2 MLOAD DUP1 MLOAD SWAP1 PUSH1 0x1 PUSH1 0x1 PUSH1 0x40 SHL SUB DUP3 GT PUSH3 0x13DC JUMPI DUP3 SLOAD SWAP1 PUSH1 0x1 DUP3 DUP2 SHR SWAP3 AND DUP1 ISZERO PUSH3 0x1D66 JUMPI JUMPDEST PUSH1 0x20 DUP4 LT EQ PUSH3 0x13BB JUMPI DUP2 PUSH1 0x1F DUP5 SWAP4 GT PUSH3 0x1D11 JUMPI JUMPDEST POP PUSH1 0x20 SWAP1 PUSH1 0x1F DUP4 GT PUSH1 0x1 EQ PUSH3 0x1CA0 JUMPI PUSH1 0x0 SWAP3 PUSH3 0x1C94 JUMPI JUMPDEST POP POP DUP2 PUSH1 0x1 SHL SWAP2 PUSH1 0x0 NOT SWAP1 PUSH1 0x3 SHL SHR NOT AND OR DUP2 SSTORE JUMPDEST PUSH1 0x20 DUP3 ADD MLOAD PUSH1 0x1 DUP3 ADD SSTORE PUSH1 0x40 DUP3 ADD MLOAD PUSH1 0x2 DUP3 ADD SSTORE PUSH1 0x60 DUP3 ADD MLOAD PUSH1 0x3 DUP3 ADD SSTORE PUSH1 0x80 DUP3 ADD MLOAD PUSH1 0x4 DUP3 ADD SSTORE PUSH1 0xA0 DUP3 ADD MLOAD DUP1 MLOAD SWAP1 PUSH1 0x1 PUSH1 0x1 PUSH1 0x40 SHL SUB DUP3 GT PUSH3 0x13DC JUMPI PUSH1 0x5 DUP4 ADD SLOAD PUSH1 0x1 DUP2 DUP2 SHR SWAP2 AND DUP1 ISZERO PUSH3 0x1C89 JUMPI JUMPDEST PUSH1 0x20 DUP3 LT EQ PUSH3 0x13BB JUMPI PUSH1 0x1F DUP2 GT PUSH3 0x1C3D JUMPI JUMPDEST POP PUSH1 0x20 SWAP1 PUSH1 0x1F DUP4 GT PUSH1 0x1 EQ PUSH3 0x1BC3 JUMPI SWAP2 DUP1 PUSH1 0xE0 SWAP5 SWAP3 PUSH1 0xC SWAP5 PUSH1 0x0 SWAP3 PUSH3 0x1BB7 JUMPI JUMPDEST POP POP DUP2 PUSH1 0x1 SHL SWAP2 PUSH1 0x0 NOT SWAP1 PUSH1 0x3 SHL SHR NOT AND OR PUSH1 0x5 DUP3 ADD SSTORE JUMPDEST PUSH1 0xA0 PUSH1 0xC0 DUP6 ADD MLOAD DUP1 MLOAD PUSH1 0x6 DUP5 ADD SSTORE PUSH1 0x20 DUP2 ADD MLOAD PUSH1 0x7 DUP5 ADD SSTORE PUSH1 0x40 DUP2 ADD MLOAD PUSH1 0x8 DUP5 ADD SSTORE PUSH1 0x60 DUP2 ADD MLOAD PUSH1 0x9 DUP5 ADD SSTORE PUSH1 0x80 DUP2 ADD MLOAD PUSH1 0xA DUP5 ADD SSTORE ADD MLOAD PUSH1 0xB DUP3 ADD SSTORE ADD SWAP2 ADD MLOAD ISZERO ISZERO PUSH1 0xFF DUP1 NOT DUP4 SLOAD AND SWAP2 AND OR SWAP1 SSTORE PUSH3 0x81E PUSH3 0x22BA JUMP JUMPDEST PUSH1 0x0 DUP2 MSTORE PUSH1 0x5 PUSH1 0x20 DUP3 ADD MSTORE PUSH1 0x5 PUSH1 0x40 DUP3 ADD MSTORE PUSH1 0x0 PUSH1 0x60 DUP3 ADD MSTORE PUSH1 0x0 PUSH1 0x80 DUP3 ADD MSTORE PUSH1 0x0 PUSH1 0xA0 DUP3 ADD MSTORE PUSH1 0x28 PUSH3 0x851 PUSH3 0x22DA JUMP JUMPDEST SWAP2 PUSH3 0x85C PUSH3 0x22FB JUMP JUMPDEST SWAP1 PUSH1 0x8 DUP3 MSTORE PUSH8 0x10D85D185C1D5B1D PUSH1 0xC2 SHL SWAP2 DUP3 PUSH1 0x20 DUP3 ADD MSTORE DUP5 MSTORE PUSH1 0x50 PUSH1 0x20 DUP6 ADD MSTORE PUSH1 0x14 PUSH1 0x40 DUP6 ADD MSTORE PUSH1 0x3 PUSH1 0x60 DUP6 ADD MSTORE PUSH1 0xA PUSH1 0x80 DUP6 ADD MSTORE PUSH3 0x89C PUSH3 0x22FB JUMP JUMPDEST PUSH1 0xB DUP2 MSTORE PUSH11 0x417265612064616D616765 PUSH1 0xA8 SHL PUSH1 0x20 DUP3 ADD MSTORE PUSH1 0xA0 DUP6 ADD MSTORE PUSH1 0xC0 DUP5 ADD MSTORE PUSH1 0x1 PUSH1 0xE0 DUP5 ADD MSTORE PUSH1 0x40 MLOAD SWAP1 DUP2 MSTORE PUSH1 0x9 PUSH1 0x8 DUP3 ADD MSTORE KECCAK256 DUP2 MLOAD DUP1 MLOAD SWAP1 PUSH1 0x1 PUSH1 0x1 PUSH1 0x40 SHL SUB DUP3 GT PUSH3 0x13DC JUMPI DUP3 SLOAD SWAP1 PUSH1 0x1 DUP3 DUP2 SHR SWAP3 AND DUP1 ISZERO PUSH3 0x1BAC JUMPI JUMPDEST PUSH1 0x20 DUP4 LT EQ PUSH3 0x13BB JUMPI DUP2 PUSH1 0x1F DUP5 SWAP4 GT PUSH3 0x1B57 JUMPI JUMPDEST POP PUSH1 0x20 SWAP1 PUSH1 0x1F DUP4 GT PUSH1 0x1 EQ PUSH3 0x1AE6 JUMPI PUSH1 0x0 SWAP3 PUSH3 0x1ADA JUMPI JUMPDEST POP POP DUP2 PUSH1 0x1 SHL SWAP2 PUSH1 0x0 NOT SWAP1 PUSH1 0x3 SHL SHR NOT AND OR DUP2 SSTORE JUMPDEST PUSH1 0x20 DUP3 ADD MLOAD PUSH1 0x1 DUP3 ADD SSTORE PUSH1 0x40 DUP3 ADD MLOAD PUSH1 0x2 DUP3 ADD SSTORE PUSH1 0x60 DUP3 ADD MLOAD PUSH1 0x3 DUP3 ADD SSTORE PUSH1 0x80 DUP3 ADD MLOAD PUSH1 0x4 DUP3 ADD SSTORE PUSH1 0xA0 DUP3 ADD MLOAD DUP1 MLOAD SWAP1 PUSH1 0x1 PUSH1 0x1 PUSH1 0x40 SHL SUB DUP3 GT PUSH3 0x13DC JUMPI PUSH1 0x5 DUP4 ADD SLOAD PUSH1 0x1 DUP2 DUP2 SHR SWAP2 AND DUP1 ISZERO PUSH3 0x1ACF JUMPI JUMPDEST PUSH1 0x20 DUP3 LT EQ PUSH3 0x13BB JUMPI PUSH1 0x1F DUP2 GT PUSH3 0x1A83 JUMPI JUMPDEST POP PUSH1 0x20 SWAP1 PUSH1 0x1F DUP4 GT PUSH1 0x1 EQ PUSH3 0x1A09 JUMPI SWAP2 DUP1 PUSH1 0xE0 SWAP5 SWAP3 PUSH1 0xC SWAP5 PUSH1 0x0 SWAP3 PUSH3 0x19FD JUMPI JUMPDEST POP POP DUP2 PUSH1 0x1 SHL SWAP2 PUSH1 0x0 NOT SWAP1 PUSH1 0x3 SHL SHR NOT AND OR PUSH1 0x5 DUP3 ADD SSTORE JUMPDEST PUSH1 0xA0 PUSH1 0xC0 DUP6 ADD MLOAD DUP1 MLOAD PUSH1 0x6 DUP5 ADD SSTORE PUSH1 0x20 DUP2 ADD MLOAD PUSH1 0x7 DUP5 ADD SSTORE PUSH1 0x40 DUP2 ADD MLOAD PUSH1 0x8 DUP5 ADD SSTORE PUSH1 0x60 DUP2 ADD MLOAD PUSH1 0x9 DUP5 ADD SSTORE PUSH1 0x80 DUP2 ADD MLOAD PUSH1 0xA DUP5 ADD SSTORE ADD MLOAD PUSH1 0xB DUP3 ADD SSTORE ADD SWAP2 ADD MLOAD ISZERO ISZERO PUSH1 0xFF DUP1 NOT DUP4 SLOAD AND SWAP2 AND OR SWAP1 SSTORE PUSH3 0xA37 PUSH3 0x22BA JUMP JUMPDEST PUSH1 0x5 DUP2 MSTORE PUSH1 0x0 PUSH1 0x20 DUP3 ADD MSTORE PUSH1 0x0 PUSH1 0x40 DUP3 ADD MSTORE PUSH1 0x0 PUSH1 0x60 DUP3 ADD MSTORE PUSH1 0x2 PUSH1 0x80 DUP3 ADD MSTORE PUSH1 0x0 PUSH1 0xA0 DUP3 ADD MSTORE PUSH1 0x28 PUSH3 0xA6A PUSH3 0x22DA JUMP JUMPDEST SWAP2 PUSH3 0xA75 PUSH3 0x22FB JUMP JUMPDEST SWAP1 PUSH1 0x8 DUP3 MSTORE PUSH8 0x29B832B0B936B0B7 PUSH1 0xC1 SHL SWAP2 DUP3 PUSH1 0x20 DUP3 ADD MSTORE DUP5 MSTORE PUSH1 0x32 PUSH1 0x20 DUP6 ADD MSTORE PUSH1 0x32 PUSH1 0x40 DUP6 ADD MSTORE PUSH1 0x5 PUSH1 0x60 DUP6 ADD MSTORE PUSH1 0x1 PUSH1 0x80 DUP6 ADD MSTORE PUSH3 0xAB5 PUSH3 0x22FB JUMP JUMPDEST PUSH1 0x1C DUP2 MSTORE PUSH32 0x426F6E75732064616D61676520616761696E737420636176616C727900000000 PUSH1 0x20 DUP3 ADD MSTORE PUSH1 0xA0 DUP6 ADD MSTORE PUSH1 0xC0 DUP5 ADD MSTORE PUSH1 0x1 PUSH1 0xE0 DUP5 ADD MSTORE PUSH1 0x40 MLOAD SWAP1 DUP2 MSTORE PUSH1 0x9 PUSH1 0x8 DUP3 ADD MSTORE KECCAK256 DUP2 MLOAD DUP1 MLOAD SWAP1 PUSH1 0x1 PUSH1 0x1 PUSH1 0x40 SHL SUB DUP3 GT PUSH3 0x13DC JUMPI DUP3 SLOAD SWAP1 PUSH1 0x1 DUP3 DUP2 SHR SWAP3 AND DUP1 ISZERO PUSH3 0x19F2 JUMPI JUMPDEST PUSH1 0x20 DUP4 LT EQ PUSH3 0x13BB JUMPI DUP2 PUSH1 0x1F DUP5 SWAP4 GT PUSH3 0x199D JUMPI JUMPDEST POP PUSH1 0x20 SWAP1 PUSH1 0x1F DUP4 GT PUSH1 0x1 EQ PUSH3 0x192C JUMPI PUSH1 0x0 SWAP3 PUSH3 0x1920 JUMPI JUMPDEST POP POP DUP2 PUSH1 0x1 SHL SWAP2 PUSH1 0x0 NOT SWAP1 PUSH1 0x3 SHL SHR NOT AND OR DUP2 SSTORE JUMPDEST PUSH1 0x20 DUP3 ADD MLOAD PUSH1 0x1 DUP3 ADD SSTORE PUSH1 0x40 DUP3 ADD MLOAD PUSH1 0x2 DUP3 ADD SSTORE PUSH1 0x60 DUP3 ADD MLOAD PUSH1 0x3 DUP3 ADD SSTORE PUSH1 0x80 DUP3 ADD MLOAD PUSH1 0x4 DUP3 ADD SSTORE PUSH1 0xA0 DUP3 ADD MLOAD DUP1 MLOAD SWAP1 PUSH1 0x1 PUSH1 0x1 PUSH1 0x40 SHL SUB DUP3 GT PUSH3 0x13DC JUMPI PUSH1 0x5 DUP4 ADD SLOAD PUSH1 0x1 DUP2 DUP2 SHR SWAP2 AND DUP1 ISZERO PUSH3 0x1915 JUMPI JUMPDEST PUSH1 0x20 DUP3 LT EQ PUSH3 0x13BB JUMPI PUSH1 0x1F DUP2 GT PUSH3 0x18C9 JUMPI JUMPDEST POP PUSH1 0x20 SWAP1 PUSH1 0x1F DUP4 GT PUSH1 0x1 EQ PUSH3 0x184F JUMPI SWAP2 DUP1 PUSH1 0xE0 SWAP5 SWAP3 PUSH1 0xC SWAP5 PUSH1 0x0 SWAP3 PUSH3 0x1843 JUMPI JUMPDEST POP POP DUP2 PUSH1 0x1 SHL SWAP2 PUSH1 0x0 NOT SWAP1 PUSH1 0x3 SHL SHR NOT AND OR PUSH1 0x5 DUP3 ADD SSTORE JUMPDEST PUSH1 0xA0 PUSH1 0xC0 DUP6 ADD MLOAD DUP1 MLOAD PUSH1 0x6 DUP5 ADD SSTORE PUSH1 0x20 DUP2 ADD MLOAD PUSH1 0x7 DUP5 ADD SSTORE PUSH1 0x40 DUP2 ADD MLOAD PUSH1 0x8 DUP5 ADD SSTORE PUSH1 0x60 DUP2 ADD MLOAD PUSH1 0x9 DUP5 ADD SSTORE PUSH1 0x80 DUP2 ADD MLOAD PUSH1 0xA DUP5 ADD SSTORE ADD MLOAD PUSH1 0xB DUP3 ADD SSTORE ADD SWAP2 ADD MLOAD ISZERO ISZERO PUSH1 0xFF DUP1 NOT DUP4 SLOAD AND SWAP2 AND OR SWAP1 SSTORE PUSH3 0xC62 PUSH3 0x22BA JUMP JUMPDEST PUSH1 0x5 DUP2 MSTORE PUSH1 0x0 PUSH1 0x20 DUP3 ADD MSTORE PUSH1 0x0 PUSH1 0x40 DUP3 ADD MSTORE PUSH1 0x0 PUSH1 0x60 DUP3 ADD MSTORE PUSH1 0x0 PUSH1 0x80 DUP3 ADD MSTORE PUSH1 0x3 PUSH1 0xA0 DUP3 ADD MSTORE PUSH1 0x26 PUSH3 0xC95 PUSH3 0x22DA JUMP JUMPDEST SWAP2 PUSH3 0xCA0 PUSH3 0x22FB JUMP JUMPDEST SWAP1 PUSH1 0x6 DUP3 MSTORE PUSH6 0x15DA5E985C99 PUSH1 0xD2 SHL SWAP2 DUP3 PUSH1 0x20 DUP3 ADD MSTORE DUP5 MSTORE PUSH1 0x32 PUSH1 0x20 DUP6 ADD MSTORE PUSH1 0x28 PUSH1 0x40 DUP6 ADD MSTORE PUSH1 0x5 PUSH1 0x60 DUP6 ADD MSTORE PUSH1 0x5 PUSH1 0x80 DUP6 ADD MSTORE PUSH3 0xCDE PUSH3 0x22FB JUMP JUMPDEST PUSH1 0xC DUP2 MSTORE PUSH12 0x4361737473207370656C6C73 PUSH1 0xA0 SHL PUSH1 0x20 DUP3 ADD MSTORE PUSH1 0xA0 DUP6 ADD MSTORE PUSH1 0xC0 DUP5 ADD MSTORE PUSH1 0x1 PUSH1 0xE0 DUP5 ADD MSTORE PUSH1 0x40 MLOAD SWAP1 DUP2 MSTORE PUSH1 0x9 PUSH1 0x6 DUP3 ADD MSTORE KECCAK256 DUP2 MLOAD DUP1 MLOAD SWAP1 PUSH1 0x1 PUSH1 0x1 PUSH1 0x40 SHL SUB DUP3 GT PUSH3 0x13DC JUMPI DUP3 SLOAD SWAP1 PUSH1 0x1 DUP3 DUP2 SHR SWAP3 AND DUP1 ISZERO PUSH3 0x1838 JUMPI JUMPDEST PUSH1 0x20 DUP4 LT EQ PUSH3 0x13BB JUMPI DUP2 PUSH1 0x1F DUP5 SWAP4 GT PUSH3 0x17E3 JUMPI JUMPDEST POP PUSH1 0x20 SWAP1 PUSH1 0x1F DUP4 GT PUSH1 0x1 EQ PUSH3 0x1772 JUMPI PUSH1 0x0 SWAP3 PUSH3 0x1766 JUMPI JUMPDEST POP POP DUP2 PUSH1 0x1 SHL SWAP2 PUSH1 0x0 NOT SWAP1 PUSH1 0x3 SHL SHR NOT AND OR DUP2 SSTORE JUMPDEST PUSH1 0x20 DUP3 ADD MLOAD PUSH1 0x1 DUP3 ADD SSTORE PUSH1 0x40 DUP3 ADD MLOAD PUSH1 0x2 DUP3 ADD SSTORE PUSH1 0x60 DUP3 ADD MLOAD PUSH1 0x3 DUP3 ADD SSTORE PUSH1 0x80 DUP3 ADD MLOAD PUSH1 0x4 DUP3 ADD SSTORE PUSH1 0xA0 DUP3 ADD MLOAD DUP1 MLOAD SWAP1 PUSH1 0x1 PUSH1 0x1 PUSH1 0x40 SHL SUB DUP3 GT PUSH3 0x13DC JUMPI PUSH1 0x5 DUP4 ADD SLOAD PUSH1 0x1 DUP2 DUP2 SHR SWAP2 AND DUP1 ISZERO PUSH3 0x175B JUMPI JUMPDEST PUSH1 0x20 DUP3 LT EQ PUSH3 0x13BB JUMPI PUSH1 0x1F DUP2 GT PUSH3 0x170F JUMPI JUMPDEST POP PUSH1 0x20 SWAP1 PUSH1 0x1F DUP4 GT PUSH1 0x1 EQ PUSH3 0x1695 JUMPI SWAP2 DUP1 PUSH1 0xE0 SWAP5 SWAP3 PUSH1 0xC SWAP5 PUSH1 0x0 SWAP3 PUSH3 0x1689 JUMPI JUMPDEST POP POP DUP2 PUSH1 0x1 SHL SWAP2 PUSH1 0x0 NOT SWAP1 PUSH1 0x3 SHL SHR NOT AND OR PUSH1 0x5 DUP3 ADD SSTORE JUMPDEST PUSH1 0xA0 PUSH1 0xC0 DUP6 ADD MLOAD DUP1 MLOAD PUSH1 0x6 DUP5 ADD SSTORE PUSH1 0x20 DUP2 ADD MLOAD PUSH1 0x7 DUP5 ADD SSTORE PUSH1 0x40 DUP2 ADD MLOAD PUSH1 0x8 DUP5 ADD SSTORE PUSH1 0x60 DUP2 ADD MLOAD PUSH1 0x9 DUP5 ADD SSTORE PUSH1 0x80 DUP2 ADD MLOAD PUSH1 0xA DUP5 ADD SSTORE ADD MLOAD PUSH1 0xB DUP3 ADD SSTORE ADD SWAP2 ADD MLOAD ISZERO ISZERO PUSH1 0xFF DUP1 NOT DUP4 SLOAD AND SWAP2 AND OR SWAP1 SSTORE PUSH3 0xE7A PUSH3 0x22BA JUMP JUMPDEST PUSH1 0x5 DUP2 MSTORE PUSH1 0x0 PUSH1 0x20 DUP3 ADD MSTORE PUSH1 0x0 PUSH1 0x40 DUP3 ADD MSTORE PUSH1 0x3 PUSH1 0x60 DUP3 ADD MSTORE PUSH1 0x0 PUSH1 0x80 DUP3 ADD MSTORE PUSH1 0x0 PUSH1 0xA0 DUP3 ADD MSTORE PUSH1 0x2B PUSH3 0xEAD PUSH3 0x22DA JUMP JUMPDEST SWAP2 PUSH3 0xEB8 PUSH3 0x22FB JUMP JUMPDEST SWAP1 PUSH1 0xB DUP3 MSTORE PUSH11 0x2732B1B937B6B0B731B2B9 PUSH1 0xA9 SHL SWAP2 DUP3 PUSH1 0x20 DUP3 ADD MSTORE DUP5 MSTORE PUSH1 0x1E PUSH1 0x20 DUP6 ADD MSTORE PUSH1 0x1E PUSH1 0x40 DUP6 ADD MSTORE PUSH1 0x4 PUSH1 0x60 DUP6 ADD MSTORE PUSH1 0x5 PUSH1 0x80 DUP6 ADD MSTORE PUSH3 0xEFB PUSH3 0x22FB JUMP JUMPDEST PUSH1 0x14 DUP2 MSTORE PUSH32 0x53756D6D6F6E7320756E6465616420756E697473000000000000000000000000 PUSH1 0x20 DUP3 ADD MSTORE PUSH1 0xA0 DUP6 ADD MSTORE PUSH1 0xC0 DUP5 ADD MSTORE PUSH1 0x1 PUSH1 0xE0 DUP5 ADD MSTORE PUSH1 0x40 MLOAD SWAP1 DUP2 MSTORE PUSH1 0x9 PUSH1 0xB DUP3 ADD MSTORE KECCAK256 DUP2 MLOAD DUP1 MLOAD SWAP1 PUSH1 0x1 PUSH1 0x1 PUSH1 0x40 SHL SUB DUP3 GT PUSH3 0x13DC JUMPI DUP3 SLOAD SWAP1 PUSH1 0x1 DUP3 DUP2 SHR SWAP3 AND DUP1 ISZERO PUSH3 0x167E JUMPI JUMPDEST PUSH1 0x20 DUP4 LT EQ PUSH3 0x13BB JUMPI DUP2 PUSH1 0x1F DUP5 SWAP4 GT PUSH3 0x1629 JUMPI JUMPDEST POP PUSH1 0x20 SWAP1 PUSH1 0x1F DUP4 GT PUSH1 0x1 EQ PUSH3 0x15B8 JUMPI PUSH1 0x0 SWAP3 PUSH3 0x15AC JUMPI JUMPDEST POP POP DUP2 PUSH1 0x1 SHL SWAP2 PUSH1 0x0 NOT SWAP1 PUSH1 0x3 SHL SHR NOT AND OR DUP2 SSTORE JUMPDEST PUSH1 0x20 DUP3 ADD MLOAD PUSH1 0x1 DUP3 ADD SSTORE PUSH1 0x40 DUP3 ADD MLOAD PUSH1 0x2 DUP3 ADD SSTORE PUSH1 0x60 DUP3 ADD MLOAD PUSH1 0x3 DUP3 ADD SSTORE PUSH1 0x80 DUP3 ADD MLOAD PUSH1 0x4 DUP3 ADD SSTORE PUSH1 0xA0 DUP3 ADD MLOAD DUP1 MLOAD SWAP1 PUSH1 0x1 PUSH1 0x1 PUSH1 0x40 SHL SUB DUP3 GT PUSH3 0x13DC JUMPI PUSH1 0x5 DUP4 ADD SLOAD PUSH1 0x1 DUP2 DUP2 SHR SWAP2 AND DUP1 ISZERO PUSH3 0x15A1 JUMPI JUMPDEST PUSH1 0x20 DUP3 LT EQ PUSH3 0x13BB JUMPI PUSH1 0x1F DUP2 GT PUSH3 0x1555 JUMPI JUMPDEST POP PUSH1 0x20 SWAP1 PUSH1 0x1F DUP4 GT PUSH1 0x1 EQ PUSH3 0x14DB JUMPI SWAP2 DUP1 PUSH1 0xE0 SWAP5 SWAP3 PUSH1 0xC SWAP5 PUSH1 0x0 SWAP3 PUSH3 0x14CF JUMPI JUMPDEST POP POP DUP2 PUSH1 0x1 SHL SWAP2 PUSH1 0x0 NOT SWAP1 PUSH1 0x3 SHL SHR NOT AND OR PUSH1 0x5 DUP3 ADD SSTORE JUMPDEST PUSH1 0xA0 PUSH1 0xC0 DUP6 ADD MLOAD DUP1 MLOAD PUSH1 0x6 DUP5 ADD SSTORE PUSH1 0x20 DUP2 ADD MLOAD PUSH1 0x7 DUP5 ADD SSTORE PUSH1 0x40 DUP2 ADD MLOAD PUSH1 0x8 DUP5 ADD SSTORE PUSH1 0x60 DUP2 ADD MLOAD PUSH1 0x9 DUP5 ADD SSTORE PUSH1 0x80 DUP2 ADD MLOAD PUSH1 0xA DUP5 ADD SSTORE ADD MLOAD PUSH1 0xB DUP3 ADD SSTORE ADD SWAP2 ADD MLOAD ISZERO ISZERO PUSH1 0xFF DUP1 NOT DUP4 SLOAD AND SWAP2 AND OR SWAP1 SSTORE PUSH3 0x10A8 PUSH3 0x22BA JUMP JUMPDEST PUSH1 0x3 DUP2 MSTORE PUSH1 0x0 PUSH1 0x20 DUP3 ADD MSTORE PUSH1 0x0 PUSH1 0x40 DUP3 ADD MSTORE PUSH1 0x1 PUSH1 0x60 DUP3 ADD MSTORE PUSH1 0x0 PUSH1 0x80 DUP3 ADD MSTORE PUSH1 0x0 PUSH1 0xA0 DUP3 ADD MSTORE PUSH3 0x10D9 PUSH3 0x22DA JUMP JUMPDEST SWAP1 PUSH3 0x10E4 PUSH3 0x22FB JUMP JUMPDEST PUSH1 0x6 DUP2 MSTORE PUSH6 0x23B7B13634B7 PUSH1 0xD1 SHL PUSH1 0x20 DUP3 ADD MSTORE DUP3 MSTORE PUSH1 0x23 PUSH1 0x20 DUP4 ADD MSTORE PUSH1 0x19 PUSH1 0x40 DUP4 ADD MSTORE PUSH1 0x8 PUSH1 0x60 DUP4 ADD MSTORE PUSH1 0x1 PUSH1 0x80 DUP4 ADD MSTORE PUSH3 0x111F PUSH3 0x22FB JUMP JUMPDEST PUSH1 0x6 DUP2 MSTORE PUSH6 0x4672656E7A79 PUSH1 0xD0 SHL PUSH1 0x20 DUP3 ADD MSTORE PUSH1 0xA0 DUP4 ADD MSTORE PUSH1 0xC0 DUP3 ADD MSTORE PUSH1 0x1 PUSH1 0xE0 DUP3 ADD MSTORE PUSH1 0x26 PUSH1 0x40 MLOAD PUSH6 0x23B7B13634B7 PUSH1 0xD1 SHL DUP2 MSTORE PUSH1 0x9 PUSH1 0x6 DUP3 ADD MSTORE KECCAK256 DUP2 MLOAD DUP1 MLOAD SWAP1 PUSH1 0x1 DUP1 PUSH1 0x40 SHL SUB DUP3 GT PUSH3 0x13DC JUMPI DUP3 SLOAD SWAP1 PUSH1 0x1 DUP3 DUP2 SHR SWAP3 AND DUP1 ISZERO PUSH3 0x14C4 JUMPI JUMPDEST PUSH1 0x20 DUP4 LT EQ PUSH3 0x13BB JUMPI DUP2 PUSH1 0x1F DUP5 SWAP4 GT PUSH3 0x146F JUMPI JUMPDEST POP PUSH1 0x20 SWAP1 PUSH1 0x1F DUP4 GT PUSH1 0x1 EQ PUSH3 0x13FE JUMPI PUSH1 0x0 SWAP3 PUSH3 0x13F2 JUMPI JUMPDEST POP POP DUP2 PUSH1 0x1 SHL SWAP2 PUSH1 0x0 NOT SWAP1 PUSH1 0x3 SHL SHR NOT AND OR DUP2 SSTORE JUMPDEST PUSH1 0x20 DUP3 ADD MLOAD PUSH1 0x1 DUP3 ADD SSTORE PUSH1 0x40 DUP3 ADD MLOAD PUSH1 0x2 DUP3 ADD SSTORE PUSH1 0x60 DUP3 ADD MLOAD PUSH1 0x3 DUP3 ADD SSTORE PUSH1 0x80 DUP3 ADD MLOAD PUSH1 0x4 DUP3 ADD SSTORE PUSH1 0xA0 DUP3 ADD MLOAD DUP1 MLOAD SWAP1 PUSH1 0x1 PUSH1 0x1 PUSH1 0x40 SHL SUB DUP3 GT PUSH3 0x13DC JUMPI PUSH1 0x5 DUP4 ADD SLOAD PUSH1 0x1 DUP2 DUP2 SHR SWAP2 AND DUP1 ISZERO PUSH3 0x13D1 JUMPI JUMPDEST PUSH1 0x20 DUP3 LT EQ PUSH3 0x13BB JUMPI PUSH1 0x1F DUP2 GT PUSH3 0x136F JUMPI JUMPDEST POP PUSH1 0x20 SWAP1 PUSH1 0x1F DUP4 GT PUSH1 0x1 EQ PUSH3 0x12F5 JUMPI SWAP2 DUP1 PUSH1 0xE0 SWAP5 SWAP3 PUSH1 0xC SWAP5 PUSH1 0x0 SWAP3 PUSH3 0x12E9 JUMPI JUMPDEST POP POP DUP2 PUSH1 0x1 SHL SWAP2 PUSH1 0x0 NOT SWAP1 PUSH1 0x3 SHL SHR NOT AND OR PUSH1 0x5 DUP3 ADD SSTORE JUMPDEST PUSH1 0xA0 PUSH1 0xC0 DUP6 ADD MLOAD DUP1 MLOAD PUSH1 0x6 DUP5 ADD SSTORE PUSH1 0x20 DUP2 ADD MLOAD PUSH1 0x7 DUP5 ADD SSTORE PUSH1 0x40 DUP2 ADD MLOAD PUSH1 0x8 DUP5 ADD SSTORE PUSH1 0x60 DUP2 ADD MLOAD PUSH1 0x9 DUP5 ADD SSTORE PUSH1 0x80 DUP2 ADD MLOAD PUSH1 0xA DUP5 ADD SSTORE ADD MLOAD PUSH1 0xB DUP3 ADD SSTORE ADD SWAP2 ADD MLOAD ISZERO ISZERO PUSH1 0xFF DUP1 NOT DUP4 SLOAD AND SWAP2 AND OR SWAP1 SSTORE DUP2 DUP2 AND PUSH1 0x1 DUP1 PUSH1 0xA0 SHL SUB NOT PUSH1 0xD SLOAD AND OR PUSH1 0xD SSTORE AND PUSH1 0x1 DUP1 PUSH1 0xA0 SHL SUB NOT PUSH1 0xE SLOAD AND OR PUSH1 0xE SSTORE PUSH1 0x40 MLOAD PUSH2 0x20F2 SWAP1 DUP2 PUSH3 0x231C DUP3 CODECOPY RETURN JUMPDEST ADD MLOAD SWAP1 POP CODESIZE DUP1 PUSH3 0x124E JUMP JUMPDEST SWAP1 PUSH1 0x5 DUP5 ADD PUSH1 0x0 MSTORE PUSH1 0x20 PUSH1 0x0 KECCAK256 SWAP2 PUSH1 0x0 JUMPDEST PUSH1 0x1F NOT DUP6 AND DUP2 LT PUSH3 0x1356 JUMPI POP SWAP3 PUSH1 0xE0 SWAP5 SWAP3 PUSH1 0x1 SWAP3 PUSH1 0xC SWAP6 DUP4 PUSH1 0x1F NOT DUP2 AND LT PUSH3 0x133C JUMPI JUMPDEST POP POP POP DUP2 SHL ADD PUSH1 0x5 DUP3 ADD SSTORE PUSH3 0x1266 JUMP JUMPDEST ADD MLOAD PUSH1 0x0 NOT PUSH1 0xF8 DUP5 PUSH1 0x3 SHL AND SHR NOT AND SWAP1 SSTORE CODESIZE DUP1 DUP1 PUSH3 0x132B JUMP JUMPDEST SWAP2 SWAP3 PUSH1 0x20 PUSH1 0x1 DUP2 SWAP3 DUP7 DUP6 ADD MLOAD DUP2 SSTORE ADD SWAP5 ADD SWAP3 ADD PUSH3 0x1306 JUMP JUMPDEST PUSH1 0x5 DUP5 ADD PUSH1 0x0 MSTORE PUSH1 0x20 PUSH1 0x0 KECCAK256 PUSH1 0x1F DUP5 ADD PUSH1 0x5 SHR DUP2 ADD PUSH1 0x20 DUP6 LT PUSH3 0x13B3 JUMPI JUMPDEST PUSH1 0x1F DUP4 ADD PUSH1 0x5 SHR DUP3 ADD DUP2 LT PUSH3 0x13A6 JUMPI POP POP PUSH3 0x122C JUMP JUMPDEST PUSH1 0x0 DUP2 SSTORE PUSH1 0x1 ADD PUSH3 0x138E JUMP JUMPDEST POP DUP1 PUSH3 0x138E JUMP JUMPDEST PUSH4 0x4E487B71 PUSH1 0xE0 SHL PUSH1 0x0 MSTORE PUSH1 0x22 PUSH1 0x4 MSTORE PUSH1 0x24 PUSH1 0x0 REVERT JUMPDEST SWAP1 PUSH1 0x7F AND SWAP1 PUSH3 0x1218 JUMP JUMPDEST PUSH4 0x4E487B71 PUSH1 0xE0 SHL PUSH1 0x0 MSTORE PUSH1 0x41 PUSH1 0x4 MSTORE PUSH1 0x24 PUSH1 0x0 REVERT JUMPDEST ADD MLOAD SWAP1 POP CODESIZE DUP1 PUSH3 0x11B0 JUMP JUMPDEST SWAP3 POP DUP4 PUSH1 0x0 MSTORE PUSH1 0x20 PUSH1 0x0 KECCAK256 SWAP1 PUSH1 0x0 SWAP4 JUMPDEST PUSH1 0x1F NOT DUP5 AND DUP6 LT PUSH3 0x1453 JUMPI PUSH1 0x1 SWAP5 POP DUP4 PUSH1 0x1F NOT DUP2 AND LT PUSH3 0x1439 JUMPI JUMPDEST POP POP POP DUP2 SHL ADD DUP2 SSTORE PUSH3 0x11C5 JUMP JUMPDEST ADD MLOAD PUSH1 0x0 NOT PUSH1 0xF8 DUP5 PUSH1 0x3 SHL AND SHR NOT AND SWAP1 SSTORE CODESIZE DUP1 DUP1 PUSH3 0x142B JUMP JUMPDEST DUP2 DUP2 ADD MLOAD DUP4 SSTORE PUSH1 0x20 SWAP5 DUP6 ADD SWAP5 PUSH1 0x1 SWAP1 SWAP4 ADD SWAP3 SWAP1 SWAP2 ADD SWAP1 PUSH3 0x140E JUMP JUMPDEST SWAP1 SWAP2 POP DUP4 PUSH1 0x0 MSTORE PUSH1 0x20 PUSH1 0x0 KECCAK256 PUSH1 0x1F DUP5 ADD PUSH1 0x5 SHR DUP2 ADD PUSH1 0x20 DUP6 LT PUSH3 0x14BC JUMPI JUMPDEST SWAP1 DUP5 SWAP4 SWAP3 SWAP2 JUMPDEST PUSH1 0x1F DUP4 ADD PUSH1 0x5 SHR DUP3 ADD DUP2 LT PUSH3 0x14AC JUMPI POP POP PUSH3 0x1197 JUMP JUMPDEST PUSH1 0x0 DUP2 SSTORE DUP6 SWAP5 POP PUSH1 0x1 ADD PUSH3 0x1494 JUMP JUMPDEST POP DUP1 PUSH3 0x148E JUMP JUMPDEST SWAP2 PUSH1 0x7F AND SWAP2 PUSH3 0x1181 JUMP JUMPDEST ADD MLOAD SWAP1 POP CODESIZE DUP1 PUSH3 0x1037 JUMP JUMPDEST SWAP1 PUSH1 0x5 DUP5 ADD PUSH1 0x0 MSTORE PUSH1 0x20 PUSH1 0x0 KECCAK256 SWAP2 PUSH1 0x0 JUMPDEST PUSH1 0x1F NOT DUP6 AND DUP2 LT PUSH3 0x153C JUMPI POP SWAP3 PUSH1 0xE0 SWAP5 SWAP3 PUSH1 0x1 SWAP3 PUSH1 0xC SWAP6 DUP4 PUSH1 0x1F NOT DUP2 AND LT PUSH3 0x1522 JUMPI JUMPDEST POP POP POP DUP2 SHL ADD PUSH1 0x5 DUP3 ADD SSTORE PUSH3 0x104F JUMP JUMPDEST ADD MLOAD PUSH1 0x0 NOT PUSH1 0xF8 DUP5 PUSH1 0x3 SHL AND SHR NOT AND SWAP1 SSTORE CODESIZE DUP1 DUP1 PUSH3 0x1511 JUMP JUMPDEST SWAP2 SWAP3 PUSH1 0x20 PUSH1 0x1 DUP2 SWAP3 DUP7 DUP6 ADD MLOAD DUP2 SSTORE ADD SWAP5 ADD SWAP3 ADD PUSH3 0x14EC JUMP JUMPDEST PUSH1 0x5 DUP5 ADD PUSH1 0x0 MSTORE PUSH1 0x20 PUSH1 0x0 KECCAK256 PUSH1 0x1F DUP5 ADD PUSH1 0x5 SHR DUP2 ADD PUSH1 0x20 DUP6 LT PUSH3 0x1599 JUMPI JUMPDEST PUSH1 0x1F DUP4 ADD PUSH1 0x5 SHR DUP3 ADD DUP2 LT PUSH3 0x158C JUMPI POP POP PUSH3 0x1015 JUMP JUMPDEST PUSH1 0x0 DUP2 SSTORE PUSH1 0x1 ADD PUSH3 0x1574 JUMP JUMPDEST POP DUP1 PUSH3 0x1574 JUMP JUMPDEST SWAP1 PUSH1 0x7F AND SWAP1 PUSH3 0x1001 JUMP JUMPDEST ADD MLOAD SWAP1 POP CODESIZE DUP1 PUSH3 0xF99 JUMP JUMPDEST SWAP3 POP DUP4 PUSH1 0x0 MSTORE PUSH1 0x20 PUSH1 0x0 KECCAK256 SWAP1 PUSH1 0x0 SWAP4 JUMPDEST PUSH1 0x1F NOT DUP5 AND DUP6 LT PUSH3 0x160D JUMPI PUSH1 0x1 SWAP5 POP DUP4 PUSH1 0x1F NOT DUP2 AND LT PUSH3 0x15F3 JUMPI JUMPDEST POP POP POP DUP2 SHL ADD DUP2 SSTORE PUSH3 0xFAE JUMP JUMPDEST ADD MLOAD PUSH1 0x0 NOT PUSH1 0xF8 DUP5 PUSH1 0x3 SHL AND SHR NOT AND SWAP1 SSTORE CODESIZE DUP1 DUP1 PUSH3 0x15E5 JUMP JUMPDEST DUP2 DUP2 ADD MLOAD DUP4 SSTORE PUSH1 0x20 SWAP5 DUP6 ADD SWAP5 PUSH1 0x1 SWAP1 SWAP4 ADD SWAP3 SWAP1 SWAP2 ADD SWAP1 PUSH3 0x15C8 JUMP JUMPDEST SWAP1 SWAP2 POP DUP4 PUSH1 0x0 MSTORE PUSH1 0x20 PUSH1 0x0 KECCAK256 PUSH1 0x1F DUP5 ADD PUSH1 0x5 SHR DUP2 ADD PUSH1 0x20 DUP6 LT PUSH3 0x1676 JUMPI JUMPDEST SWAP1 DUP5 SWAP4 SWAP3 SWAP2 JUMPDEST PUSH1 0x1F DUP4 ADD PUSH1 0x5 SHR DUP3 ADD DUP2 LT PUSH3 0x1666 JUMPI POP POP PUSH3 0xF80 JUMP JUMPDEST PUSH1 0x0 DUP2 SSTORE DUP6 SWAP5 POP PUSH1 0x1 ADD PUSH3 0x164E JUMP JUMPDEST POP DUP1 PUSH3 0x1648 JUMP JUMPDEST SWAP2 PUSH1 0x7F AND SWAP2 PUSH3 0xF6A JUMP JUMPDEST ADD MLOAD SWAP1 POP CODESIZE DUP1 PUSH3 0xE09 JUMP JUMPDEST SWAP1 PUSH1 0x5 DUP5 ADD PUSH1 0x0 MSTORE PUSH1 0x20 PUSH1 0x0 KECCAK256 SWAP2 PUSH1 0x0 JUMPDEST PUSH1 0x1F NOT DUP6 AND DUP2 LT PUSH3 0x16F6 JUMPI POP SWAP3 PUSH1 0xE0 SWAP5 SWAP3 PUSH1 0x1 SWAP3 PUSH1 0xC SWAP6 DUP4 PUSH1 0x1F NOT DUP2 AND LT PUSH3 0x16DC JUMPI JUMPDEST POP POP POP DUP2 SHL ADD PUSH1 0x5 DUP3 ADD SSTORE PUSH3 0xE21 JUMP JUMPDEST ADD MLOAD PUSH1 0x0 NOT PUSH1 0xF8 DUP5 PUSH1 0x3 SHL AND SHR NOT AND SWAP1 SSTORE CODESIZE DUP1 DUP1 PUSH3 0x16CB JUMP JUMPDEST SWAP2 SWAP3 PUSH1 0x20 PUSH1 0x1 DUP2 SWAP3 DUP7 DUP6 ADD MLOAD DUP2 SSTORE ADD SWAP5 ADD SWAP3 ADD PUSH3 0x16A6 JUMP JUMPDEST PUSH1 0x5 DUP5 ADD PUSH1 0x0 MSTORE PUSH1 0x20 PUSH1 0x0 KECCAK256 PUSH1 0x1F DUP5 ADD PUSH1 0x5 SHR DUP2 ADD PUSH1 0x20 DUP6 LT PUSH3 0x1753 JUMPI JUMPDEST PUSH1 0x1F DUP4 ADD PUSH1 0x5 SHR DUP3 ADD DUP2 LT PUSH3 0x1746 JUMPI POP POP PUSH3 0xDE7 JUMP JUMPDEST PUSH1 0x0 DUP2 SSTORE PUSH1 0x1 ADD PUSH3 0x172E JUMP JUMPDEST POP DUP1 PUSH3 0x172E JUMP JUMPDEST SWAP1 PUSH1 0x7F AND SWAP1 PUSH3 0xDD3 JUMP JUMPDEST ADD MLOAD SWAP1 POP CODESIZE DUP1 PUSH3 0xD6B JUMP JUMPDEST SWAP3 POP DUP4 PUSH1 0x0 MSTORE PUSH1 0x20 PUSH1 0x0 KECCAK256 SWAP1 PUSH1 0x0 SWAP4 JUMPDEST PUSH1 0x1F NOT DUP5 AND DUP6 LT PUSH3 0x17C7 JUMPI PUSH1 0x1 SWAP5 POP DUP4 PUSH1 0x1F NOT DUP2 AND LT PUSH3 0x17AD JUMPI JUMPDEST POP POP POP DUP2 SHL ADD DUP2 SSTORE PUSH3 0xD80 JUMP JUMPDEST ADD MLOAD PUSH1 0x0 NOT PUSH1 0xF8 DUP5 PUSH1 0x3 SHL AND SHR NOT AND SWAP1 SSTORE CODESIZE DUP1 DUP1 PUSH3 0x179F JUMP JUMPDEST DUP2 DUP2 ADD MLOAD DUP4 SSTORE PUSH1 0x20 SWAP5 DUP6 ADD SWAP5 PUSH1 0x1 SWAP1 SWAP4 ADD SWAP3 SWAP1 SWAP2 ADD SWAP1 PUSH3 0x1782 JUMP JUMPDEST SWAP1 SWAP2 POP DUP4 PUSH1 0x0 MSTORE PUSH1 0x20 PUSH1 0x0 KECCAK256 PUSH1 0x1F DUP5 ADD PUSH1 0x5 SHR DUP2 ADD PUSH1 0x20 DUP6 LT PUSH3 0x1830 JUMPI JUMPDEST SWAP1 DUP5 SWAP4 SWAP3 SWAP2 JUMPDEST PUSH1 0x1F DUP4 ADD PUSH1 0x5 SHR DUP3 ADD DUP2 LT PUSH3 0x1820 JUMPI POP POP PUSH3 0xD52 JUMP JUMPDEST PUSH1 0x0 DUP2 SSTORE DUP6 SWAP5 POP PUSH1 0x1 ADD PUSH3 0x1808 JUMP JUMPDEST POP DUP1 PUSH3 0x1802 JUMP JUMPDEST SWAP2 PUSH1 0x7F AND SWAP2 PUSH3 0xD3C JUMP JUMPDEST ADD MLOAD SWAP1 POP CODESIZE DUP1 PUSH3 0xBF1 JUMP JUMPDEST SWAP1 PUSH1 0x5 DUP5 ADD PUSH1 0x0 MSTORE PUSH1 0x20 PUSH1 0x0 KECCAK256 SWAP2 PUSH1 0x0 JUMPDEST PUSH1 0x1F NOT DUP6 AND DUP2 LT PUSH3 0x18B0 JUMPI POP SWAP3 PUSH1 0xE0 SWAP5 SWAP3 PUSH1 0x1 SWAP3 PUSH1 0xC SWAP6 DUP4 PUSH1 0x1F NOT DUP2 AND LT PUSH3 0x1896 JUMPI JUMPDEST POP POP POP DUP2 SHL ADD PUSH1 0x5 DUP3 ADD SSTORE PUSH3 0xC09 JUMP JUMPDEST ADD MLOAD PUSH1 0x0 NOT PUSH1 0xF8 DUP5 PUSH1 0x3 SHL AND SHR NOT AND SWAP1 SSTORE CODESIZE DUP1 DUP1 PUSH3 0x1885 JUMP JUMPDEST SWAP2 SWAP3 PUSH1 0x20 PUSH1 0x1 DUP2 SWAP3 DUP7 DUP6 ADD MLOAD DUP2 SSTORE ADD SWAP5 ADD SWAP3 ADD PUSH3 0x1860 JUMP JUMPDEST PUSH1 0x5 DUP5 ADD PUSH1 0x0 MSTORE PUSH1 0x20 PUSH1 0x0 KECCAK256 PUSH1 0x1F DUP5 ADD PUSH1 0x5 SHR DUP2 ADD PUSH1 0x20 DUP6 LT PUSH3 0x190D JUMPI JUMPDEST PUSH1 0x1F DUP4 ADD PUSH1 0x5 SHR DUP3 ADD DUP2 LT PUSH3 0x1900 JUMPI POP POP PUSH3 0xBCF JUMP JUMPDEST PUSH1 0x0 DUP2 SSTORE PUSH1 0x1 ADD PUSH3 0x18E8 JUMP JUMPDEST POP DUP1 PUSH3 0x18E8 JUMP JUMPDEST SWAP1 PUSH1 0x7F AND SWAP1 PUSH3 0xBBB JUMP JUMPDEST ADD MLOAD SWAP1 POP CODESIZE DUP1 PUSH3 0xB53 JUMP JUMPDEST SWAP3 POP DUP4 PUSH1 0x0 MSTORE PUSH1 0x20 PUSH1 0x0 KECCAK256 SWAP1 PUSH1 0x0 SWAP4 JUMPDEST PUSH1 0x1F NOT DUP5 AND DUP6 LT PUSH3 0x1981 JUMPI PUSH1 0x1 SWAP5 POP DUP4 PUSH1 0x1F NOT DUP2 AND LT PUSH3 0x1967 JUMPI JUMPDEST POP POP POP DUP2 SHL ADD DUP2 SSTORE PUSH3 0xB68 JUMP JUMPDEST ADD MLOAD PUSH1 0x0 NOT PUSH1 0xF8 DUP5 PUSH1 0x3 SHL AND SHR NOT AND SWAP1 SSTORE CODESIZE DUP1 DUP1 PUSH3 0x1959 JUMP JUMPDEST DUP2 DUP2 ADD MLOAD DUP4 SSTORE PUSH1 0x20 SWAP5 DUP6 ADD SWAP5 PUSH1 0x1 SWAP1 SWAP4 ADD SWAP3 SWAP1 SWAP2 ADD SWAP1 PUSH3 0x193C JUMP JUMPDEST SWAP1 SWAP2 POP DUP4 PUSH1 0x0 MSTORE PUSH1 0x20 PUSH1 0x0 KECCAK256 PUSH1 0x1F DUP5 ADD PUSH1 0x5 SHR DUP2 ADD PUSH1 0x20 DUP6 LT PUSH3 0x19EA JUMPI JUMPDEST SWAP1 DUP5 SWAP4 SWAP3 SWAP2 JUMPDEST PUSH1 0x1F DUP4 ADD PUSH1 0x5 SHR DUP3 ADD DUP2 LT PUSH3 0x19DA JUMPI POP POP PUSH3 0xB3A JUMP JUMPDEST PUSH1 0x0 DUP2 SSTORE DUP6 SWAP5 POP PUSH1 0x1 ADD PUSH3 0x19C2 JUMP JUMPDEST POP DUP1 PUSH3 0x19BC JUMP JUMPDEST SWAP2 PUSH1 0x7F AND SWAP2 PUSH3 0xB24 JUMP JUMPDEST ADD MLOAD SWAP1 POP CODESIZE DUP1 PUSH3 0x9C6 JUMP JUMPDEST SWAP1 PUSH1 0x5 DUP5 ADD PUSH1 0x0 MSTORE PUSH1 0x20 PUSH1 0x0 KECCAK256 SWAP2 PUSH1 0x0 JUMPDEST PUSH1 0x1F NOT DUP6 AND DUP2 LT PUSH3 0x1A6A JUMPI POP SWAP3 PUSH1 0xE0 SWAP5 SWAP3 PUSH1 0x1 SWAP3 PUSH1 0xC SWAP6 DUP4 PUSH1 0x1F NOT DUP2 AND LT PUSH3 0x1A50 JUMPI JUMPDEST POP POP POP DUP2 SHL ADD PUSH1 0x5 DUP3 ADD SSTORE PUSH3 0x9DE JUMP JUMPDEST ADD MLOAD PUSH1 0x0 NOT PUSH1 0xF8 DUP5 PUSH1 0x3 SHL AND SHR NOT AND SWAP1 SSTORE CODESIZE DUP1 DUP1 PUSH3 0x1A3F JUMP JUMPDEST SWAP2 SWAP3 PUSH1 0x20 PUSH1 0x1 DUP2 SWAP3 DUP7 DUP6 ADD MLOAD DUP2 SSTORE ADD SWAP5 ADD SWAP3 ADD PUSH3 0x1A1A JUMP JUMPDEST PUSH1 0x5 DUP5 ADD PUSH1 0x0 MSTORE PUSH1 0x20 PUSH1 0x0 KECCAK256 PUSH1 0x1F DUP5 ADD PUSH1 0x5 SHR DUP2 ADD PUSH1 0x20 DUP6 LT PUSH3 0x1AC7 JUMPI JUMPDEST PUSH1 0x1F DUP4 ADD PUSH1 0x5 SHR DUP3 ADD DUP2 LT PUSH3 0x1ABA JUMPI POP POP PUSH3 0x9A4 JUMP JUMPDEST PUSH1 0x0 DUP2 SSTORE PUSH1 0x1 ADD PUSH3 0x1AA2 JUMP JUMPDEST POP DUP1 PUSH3 0x1AA2 JUMP JUMPDEST SWAP1 PUSH1 0x7F AND SWAP1 PUSH3 0x990 JUMP JUMPDEST ADD MLOAD SWAP1 POP CODESIZE DUP1 PUSH3 0x928 JUMP JUMPDEST SWAP3 POP DUP4 PUSH1 0x0 MSTORE PUSH1 0x20 PUSH1 0x0 KECCAK256 SWAP1 PUSH1 0x0 SWAP4 JUMPDEST PUSH1 0x1F NOT DUP5 AND DUP6 LT PUSH3 0x1B3B JUMPI PUSH1 0x1 SWAP5 POP DUP4 PUSH1 0x1F NOT DUP2 AND LT PUSH3 0x1B21 JUMPI JUMPDEST POP POP POP DUP2 SHL ADD DUP2 SSTORE PUSH3 0x93D JUMP JUMPDEST ADD MLOAD PUSH1 0x0 NOT PUSH1 0xF8 DUP5 PUSH1 0x3 SHL AND SHR NOT AND SWAP1 SSTORE CODESIZE DUP1 DUP1 PUSH3 0x1B13 JUMP JUMPDEST DUP2 DUP2 ADD MLOAD DUP4 SSTORE PUSH1 0x20 SWAP5 DUP6 ADD SWAP5 PUSH1 0x1 SWAP1 SWAP4 ADD SWAP3 SWAP1 SWAP2 ADD SWAP1 PUSH3 0x1AF6 JUMP JUMPDEST SWAP1 SWAP2 POP DUP4 PUSH1 0x0 MSTORE PUSH1 0x20 PUSH1 0x0 KECCAK256 PUSH1 0x1F DUP5 ADD PUSH1 0x5 SHR DUP2 ADD PUSH1 0x20 DUP6 LT PUSH3 0x1BA4 JUMPI JUMPDEST SWAP1 DUP5 SWAP4 SWAP3 SWAP2 JUMPDEST PUSH1 0x1F DUP4 ADD PUSH1 0x5 SHR DUP3 ADD DUP2 LT PUSH3 0x1B94 JUMPI POP POP PUSH3 0x90F JUMP JUMPDEST PUSH1 0x0 DUP2 SSTORE DUP6 SWAP5 POP PUSH1 0x1 ADD PUSH3 0x1B7C JUMP JUMPDEST POP DUP1 PUSH3 0x1B76 JUMP JUMPDEST SWAP2 PUSH1 0x7F AND SWAP2 PUSH3 0x8F9 JUMP JUMPDEST ADD MLOAD SWAP1 POP CODESIZE DUP1 PUSH3 0x7AD JUMP JUMPDEST SWAP1 PUSH1 0x5 DUP5 ADD PUSH1 0x0 MSTORE PUSH1 0x20 PUSH1 0x0 KECCAK256 SWAP2 PUSH1 0x0 JUMPDEST PUSH1 0x1F NOT DUP6 AND DUP2 LT PUSH3 0x1C24 JUMPI POP SWAP3 PUSH1 0xE0 SWAP5 SWAP3 PUSH1 0x1 SWAP3 PUSH1 0xC SWAP6 DUP4 PUSH1 0x1F NOT DUP2 AND LT PUSH3 0x1C0A JUMPI JUMPDEST POP POP POP DUP2 SHL ADD PUSH1 0x5 DUP3 ADD SSTORE PUSH3 0x7C5 JUMP JUMPDEST ADD MLOAD PUSH1 0x0 NOT PUSH1 0xF8 DUP5 PUSH1 0x3 SHL AND SHR NOT AND SWAP1 SSTORE CODESIZE DUP1 DUP1 PUSH3 0x1BF9 JUMP JUMPDEST SWAP2 SWAP3 PUSH1 0x20 PUSH1 0x1 DUP2 SWAP3 DUP7 DUP6 ADD MLOAD DUP2 SSTORE ADD SWAP5 ADD SWAP3 ADD PUSH3 0x1BD4 JUMP JUMPDEST PUSH1 0x5 DUP5 ADD PUSH1 0x0 MSTORE PUSH1 0x20 PUSH1 0x0 KECCAK256 PUSH1 0x1F DUP5 ADD PUSH1 0x5 SHR DUP2 ADD PUSH1 0x20 DUP6 LT PUSH3 0x1C81 JUMPI JUMPDEST PUSH1 0x1F DUP4 ADD PUSH1 0x5 SHR DUP3 ADD DUP2 LT PUSH3 0x1C74 JUMPI POP POP PUSH3 0x78B JUMP JUMPDEST PUSH1 0x0 DUP2 SSTORE PUSH1 0x1 ADD PUSH3 0x1C5C JUMP JUMPDEST POP DUP1 PUSH3 0x1C5C JUMP JUMPDEST SWAP1 PUSH1 0x7F AND SWAP1 PUSH3 0x777 JUMP JUMPDEST ADD MLOAD SWAP1 POP CODESIZE DUP1 PUSH3 0x70F JUMP JUMPDEST SWAP3 POP DUP4 PUSH1 0x0 MSTORE PUSH1 0x20 PUSH1 0x0 KECCAK256 SWAP1 PUSH1 0x0 SWAP4 JUMPDEST PUSH1 0x1F NOT DUP5 AND DUP6 LT PUSH3 0x1CF5 JUMPI PUSH1 0x1 SWAP5 POP DUP4 PUSH1 0x1F NOT DUP2 AND LT PUSH3 0x1CDB JUMPI JUMPDEST POP POP POP DUP2 SHL ADD DUP2 SSTORE PUSH3 0x724 JUMP JUMPDEST ADD MLOAD PUSH1 0x0 NOT PUSH1 0xF8 DUP5 PUSH1 0x3 SHL AND SHR NOT AND SWAP1 SSTORE CODESIZE DUP1 DUP1 PUSH3 0x1CCD JUMP JUMPDEST DUP2 DUP2 ADD MLOAD DUP4 SSTORE PUSH1 0x20 SWAP5 DUP6 ADD SWAP5 PUSH1 0x1 SWAP1 SWAP4 ADD SWAP3 SWAP1 SWAP2 ADD SWAP1 PUSH3 0x1CB0 JUMP JUMPDEST SWAP1 SWAP2 POP DUP4 PUSH1 0x0 MSTORE PUSH1 0x20 PUSH1 0x0 KECCAK256 PUSH1 0x1F DUP5 ADD PUSH1 0x5 SHR DUP2 ADD PUSH1 0x20 DUP6 LT PUSH3 0x1D5E JUMPI JUMPDEST SWAP1 DUP5 SWAP4 SWAP3 SWAP2 JUMPDEST PUSH1 0x1F DUP4 ADD PUSH1 0x5 SHR DUP3 ADD DUP2 LT PUSH3 0x1D4E JUMPI POP POP PUSH3 0x6F6 JUMP JUMPDEST PUSH1 0x0 DUP2 SSTORE DUP6 SWAP5 POP PUSH1 0x1 ADD PUSH3 0x1D36 JUMP JUMPDEST POP DUP1 PUSH3 0x1D30 JUMP JUMPDEST SWAP2 PUSH1 0x7F AND SWAP2 PUSH3 0x6E0 JUMP JUMPDEST ADD MLOAD SWAP1 POP CODESIZE DUP1 PUSH3 0x594 JUMP JUMPDEST SWAP1 PUSH1 0x5 DUP5 ADD PUSH1 0x0 MSTORE PUSH1 0x20 PUSH1 0x0 KECCAK256 SWAP2 PUSH1 0x0 JUMPDEST PUSH1 0x1F NOT DUP6 AND DUP2 LT PUSH3 0x1DDE JUMPI POP SWAP3 PUSH1 0xE0 SWAP5 SWAP3 PUSH1 0x1 SWAP3 PUSH1 0xC SWAP6 DUP4 PUSH1 0x1F NOT DUP2 AND LT PUSH3 0x1DC4 JUMPI JUMPDEST POP POP POP DUP2 SHL ADD PUSH1 0x5 DUP3 ADD SSTORE PUSH3 0x5AC JUMP JUMPDEST ADD MLOAD PUSH1 0x0 NOT PUSH1 0xF8 DUP5 PUSH1 0x3 SHL AND SHR NOT AND SWAP1 SSTORE CODESIZE DUP1 DUP1 PUSH3 0x1DB3 JUMP JUMPDEST SWAP2 SWAP3 PUSH1 0x20 PUSH1 0x1 DUP2 SWAP3 DUP7 DUP6 ADD MLOAD DUP2 SSTORE ADD SWAP5 ADD SWAP3 ADD PUSH3 0x1D8E JUMP JUMPDEST PUSH1 0x5 DUP5 ADD PUSH1 0x0 MSTORE PUSH1 0x20 PUSH1 0x0 KECCAK256 PUSH1 0x1F DUP5 ADD PUSH1 0x5 SHR DUP2 ADD PUSH1 0x20 DUP6 LT PUSH3 0x1E3B JUMPI JUMPDEST PUSH1 0x1F DUP4 ADD PUSH1 0x5 SHR DUP3 ADD DUP2 LT PUSH3 0x1E2E JUMPI POP POP PUSH3 0x572 JUMP JUMPDEST PUSH1 0x0 DUP2 SSTORE PUSH1 0x1 ADD PUSH3 0x1E16 JUMP JUMPDEST POP DUP1 PUSH3 0x1E16 JUMP JUMPDEST SWAP1 PUSH1 0x7F AND SWAP1 PUSH3 0x55E JUMP JUMPDEST ADD MLOAD SWAP1 POP CODESIZE DUP1 PUSH3 0x4F6 JUMP JUMPDEST SWAP3 POP DUP4 PUSH1 0x0 MSTORE PUSH1 0x20 PUSH1 0x0 KECCAK256 SWAP1 PUSH1 0x0 SWAP4 JUMPDEST PUSH1 0x1F NOT DUP5 AND DUP6 LT PUSH3 0x1EAF JUMPI PUSH1 0x1 SWAP5 POP DUP4 PUSH1 0x1F NOT DUP2 AND LT PUSH3 0x1E95 JUMPI JUMPDEST POP POP POP DUP2 SHL ADD DUP2 SSTORE PUSH3 0x50B JUMP JUMPDEST ADD MLOAD PUSH1 0x0 NOT PUSH1 0xF8 DUP5 PUSH1 0x3 SHL AND SHR NOT AND SWAP1 SSTORE CODESIZE DUP1 DUP1 PUSH3 0x1E87 JUMP JUMPDEST DUP2 DUP2 ADD MLOAD DUP4 SSTORE PUSH1 0x20 SWAP5 DUP6 ADD SWAP5 PUSH1 0x1 SWAP1 SWAP4 ADD SWAP3 SWAP1 SWAP2 ADD SWAP1 PUSH3 0x1E6A JUMP JUMPDEST SWAP1 SWAP2 POP DUP4 PUSH1 0x0 MSTORE PUSH1 0x20 PUSH1 0x0 KECCAK256 PUSH1 0x1F DUP5 ADD PUSH1 0x5 SHR DUP2 ADD PUSH1 0x20 DUP6 LT PUSH3 0x1F18 JUMPI JUMPDEST SWAP1 DUP5 SWAP4 SWAP3 SWAP2 JUMPDEST PUSH1 0x1F DUP4 ADD PUSH1 0x5 SHR DUP3 ADD DUP2 LT PUSH3 0x1F08 JUMPI POP POP PUSH3 0x4DD JUMP JUMPDEST PUSH1 0x0 DUP2 SSTORE DUP6 SWAP5 POP PUSH1 0x1 ADD PUSH3 0x1EF0 JUMP JUMPDEST POP DUP1 PUSH3 0x1EEA JUMP JUMPDEST SWAP2 PUSH1 0x7F AND SWAP2 PUSH3 0x4C7 JUMP JUMPDEST ADD MLOAD SWAP1 POP CODESIZE DUP1 PUSH3 0x36A JUMP JUMPDEST SWAP1 PUSH1 0x5 DUP6 ADD PUSH1 0x0 MSTORE PUSH1 0x20 PUSH1 0x0 KECCAK256 SWAP2 PUSH1 0x0 JUMPDEST PUSH1 0x1F NOT DUP6 AND DUP2 LT PUSH3 0x1F98 JUMPI POP SWAP3 PUSH1 0xC SWAP5 SWAP3 PUSH1 0x1 SWAP3 PUSH1 0xE0 SWAP6 DUP4 PUSH1 0x1F NOT DUP2 AND LT PUSH3 0x1F7E JUMPI JUMPDEST POP POP POP DUP2 SHL ADD PUSH1 0x5 DUP6 ADD SSTORE PUSH3 0x382 JUMP JUMPDEST ADD MLOAD PUSH1 0x0 NOT PUSH1 0xF8 DUP5 PUSH1 0x3 SHL AND SHR NOT AND SWAP1 SSTORE CODESIZE DUP1 DUP1 PUSH3 0x1F6D JUMP JUMPDEST SWAP2 SWAP3 PUSH1 0x20 PUSH1 0x1 DUP2 SWAP3 DUP7 DUP6 ADD MLOAD DUP2 SSTORE ADD SWAP5 ADD SWAP3 ADD PUSH3 0x1F48 JUMP JUMPDEST PUSH1 0x5 DUP6 ADD PUSH1 0x0 MSTORE PUSH1 0x20 PUSH1 0x0 KECCAK256 PUSH1 0x1F DUP5 ADD PUSH1 0x5 SHR DUP2 ADD PUSH1 0x20 DUP6 LT PUSH3 0x1FF5 JUMPI JUMPDEST PUSH1 0x1F DUP4 ADD PUSH1 0x5 SHR DUP3 ADD DUP2 LT PUSH3 0x1FE8 JUMPI POP POP PUSH3 0x348 JUMP JUMPDEST PUSH1 0x0 DUP2 SSTORE PUSH1 0x1 ADD PUSH3 0x1FD0 JUMP JUMPDEST POP DUP1 PUSH3 0x1FD0 JUMP JUMPDEST SWAP1 PUSH1 0x7F AND SWAP1 PUSH3 0x334 JUMP JUMPDEST ADD MLOAD SWAP1 POP CODESIZE DUP1 PUSH3 0x2CC JUMP JUMPDEST SWAP3 POP DUP5 PUSH1 0x0 MSTORE PUSH1 0x20 PUSH1 0x0 KECCAK256 SWAP1 PUSH1 0x0 SWAP4 JUMPDEST PUSH1 0x1F NOT DUP5 AND DUP6 LT PUSH3 0x2069 JUMPI PUSH1 0x1 SWAP5 POP DUP4 PUSH1 0x1F NOT DUP2 AND LT PUSH3 0x204F JUMPI JUMPDEST POP POP POP DUP2 SHL ADD DUP3 SSTORE PUSH3 0x2E1 JUMP JUMPDEST ADD MLOAD PUSH1 0x0 NOT PUSH1 0xF8 DUP5 PUSH1 0x3 SHL AND SHR NOT AND SWAP1 SSTORE CODESIZE DUP1 DUP1 PUSH3 0x2041 JUMP JUMPDEST DUP2 DUP2 ADD MLOAD DUP4 SSTORE PUSH1 0x20 SWAP5 DUP6 ADD SWAP5 PUSH1 0x1 SWAP1 SWAP4 ADD SWAP3 SWAP1 SWAP2 ADD SWAP1 PUSH3 0x2024 JUMP JUMPDEST SWAP1 SWAP2 POP DUP5 PUSH1 0x0 MSTORE PUSH1 0x20 PUSH1 0x0 KECCAK256 PUSH1 0x1F DUP5 ADD PUSH1 0x5 SHR DUP2 ADD PUSH1 0x20 DUP6 LT PUSH3 0x20D2 JUMPI JUMPDEST SWAP1 DUP5 SWAP4 SWAP3 SWAP2 JUMPDEST PUSH1 0x1F DUP4 ADD PUSH1 0x5 SHR DUP3 ADD DUP2 LT PUSH3 0x20C2 JUMPI POP POP PUSH3 0x2B3 JUMP JUMPDEST PUSH1 0x0 DUP2 SSTORE DUP6 SWAP5 POP PUSH1 0x1 ADD PUSH3 0x20AA JUMP JUMPDEST POP DUP1 PUSH3 0x20A4 JUMP JUMPDEST SWAP2 PUSH1 0x7F AND SWAP2 PUSH3 0x29D JUMP JUMPDEST ADD MLOAD SWAP1 POP CODESIZE DUP1 PUSH3 0x157 JUMP JUMPDEST PUSH1 0x1 PUSH1 0x0 SWAP1 DUP2 MSTORE PUSH1 0x0 DUP1 MLOAD PUSH1 0x20 PUSH3 0x442E DUP4 CODECOPY DUP2 MLOAD SWAP2 MSTORE SWAP2 SWAP1 PUSH1 0x1F NOT DUP5 AND SWAP1 JUMPDEST DUP2 DUP2 LT PUSH3 0x2151 JUMPI POP SWAP6 DUP4 PUSH1 0x1 SWAP6 SWAP7 SWAP8 LT PUSH3 0x2137 JUMPI JUMPDEST POP POP POP DUP2 SHL ADD PUSH1 0x1 SSTORE PUSH3 0x16D JUMP JUMPDEST ADD MLOAD PUSH1 0x0 NOT PUSH1 0xF8 DUP5 PUSH1 0x3 SHL AND SHR NOT AND SWAP1 SSTORE CODESIZE DUP1 DUP1 PUSH3 0x2128 JUMP JUMPDEST SWAP2 SWAP3 PUSH1 0x20 PUSH1 0x1 DUP2 SWAP3 DUP7 DUP12 ADD MLOAD DUP2 SSTORE ADD SWAP5 ADD SWAP3 ADD PUSH3 0x2111 JUMP JUMPDEST PUSH1 0x1 PUSH1 0x0 MSTORE PUSH1 0x0 DUP1 MLOAD PUSH1 0x20 PUSH3 0x442E DUP4 CODECOPY DUP2 MLOAD SWAP2 MSTORE PUSH1 0x1F DUP4 ADD PUSH1 0x5 SHR DUP2 ADD SWAP2 PUSH1 0x20 DUP5 LT PUSH3 0x21B8 JUMPI JUMPDEST PUSH1 0x1F ADD PUSH1 0x5 SHR ADD SWAP1 JUMPDEST DUP2 DUP2 LT PUSH3 0x21AB JUMPI POP PUSH3 0x13B JUMP JUMPDEST PUSH1 0x0 DUP2 SSTORE PUSH1 0x1 ADD PUSH3 0x219C JUMP JUMPDEST SWAP1 SWAP2 POP DUP2 SWAP1 PUSH3 0x2193 JUMP JUMPDEST SWAP1 PUSH1 0x7F AND SWAP1 PUSH3 0x127 JUMP JUMPDEST ADD MLOAD SWAP1 POP CODESIZE DUP1 PUSH3 0xEE JUMP JUMPDEST PUSH1 0x0 DUP1 DUP1 MSTORE PUSH1 0x1F NOT DUP4 AND SWAP7 PUSH1 0x0 DUP1 MLOAD PUSH1 0x20 PUSH3 0x440E DUP4 CODECOPY DUP2 MLOAD SWAP2 MSTORE SWAP3 SWAP1 SWAP2 JUMPDEST DUP9 DUP2 LT PUSH3 0x2239 JUMPI POP DUP4 PUSH1 0x1 SWAP6 SWAP7 SWAP8 SWAP9 LT PUSH3 0x221F JUMPI JUMPDEST POP POP POP DUP2 SHL ADD PUSH1 0x0 SSTORE PUSH3 0x104 JUMP JUMPDEST ADD MLOAD PUSH1 0x0 NOT PUSH1 0xF8 DUP5 PUSH1 0x3 SHL AND SHR NOT AND SWAP1 SSTORE CODESIZE DUP1 DUP1 PUSH3 0x2210 JUMP JUMPDEST SWAP2 SWAP3 PUSH1 0x20 PUSH1 0x1 DUP2 SWAP3 DUP7 DUP6 ADD MLOAD DUP2 SSTORE ADD SWAP5 ADD SWAP3 ADD PUSH3 0x21F9 JUMP JUMPDEST PUSH1 0x0 DUP1 MSTORE PUSH1 0x0 DUP1 MLOAD PUSH1 0x20 PUSH3 0x440E DUP4 CODECOPY DUP2 MLOAD SWAP2 MSTORE PUSH1 0x1F DUP4 ADD PUSH1 0x5 SHR DUP2 ADD SWAP2 PUSH1 0x20 DUP5 LT PUSH3 0x229F JUMPI JUMPDEST PUSH1 0x1F ADD PUSH1 0x5 SHR ADD SWAP1 JUMPDEST DUP2 DUP2 LT PUSH3 0x2292 JUMPI POP PUSH3 0xCF JUMP JUMPDEST PUSH1 0x0 DUP2 SSTORE PUSH1 0x1 ADD PUSH3 0x2283 JUMP JUMPDEST SWAP1 SWAP2 POP DUP2 SWAP1 PUSH3 0x227A JUMP JUMPDEST SWAP1 PUSH1 0x7F AND SWAP1 PUSH3 0xBB JUMP JUMPDEST PUSH1 0x0 DUP1 REVERT JUMPDEST PUSH1 0x40 MLOAD SWAP1 PUSH1 0xC0 DUP3 ADD PUSH1 0x1 PUSH1 0x1 PUSH1 0x40 SHL SUB DUP2 GT DUP4 DUP3 LT OR PUSH3 0x13DC JUMPI PUSH1 0x40 MSTORE JUMP JUMPDEST PUSH1 0x40 MLOAD SWAP1 PUSH2 0x100 DUP3 ADD PUSH1 0x1 PUSH1 0x1 PUSH1 0x40 SHL SUB DUP2 GT DUP4 DUP3 LT OR PUSH3 0x13DC JUMPI PUSH1 0x40 MSTORE JUMP JUMPDEST PUSH1 0x40 DUP1 MLOAD SWAP2 SWAP1 DUP3 ADD PUSH1 0x1 PUSH1 0x1 PUSH1 0x40 SHL SUB DUP2 GT DUP4 DUP3 LT OR PUSH3 0x13DC JUMPI PUSH1 0x40 MSTORE JUMP INVALID PUSH1 0x80 PUSH1 0x40 DUP2 DUP2 MSTORE PUSH1 0x4 SWAP2 DUP3 CALLDATASIZE LT ISZERO PUSH2 0x16 JUMPI PUSH1 0x0 DUP1 REVERT JUMPDEST PUSH1 0x0 PUSH1 0xE0 SWAP2 DUP2 CALLDATALOAD DUP4 SHR SWAP1 DUP2 PUSH4 0x1FFC9A7 EQ PUSH2 0x13CB JUMPI POP DUP1 PUSH4 0x6FDDE03 EQ PUSH2 0x1323 JUMPI DUP1 PUSH4 0x81812FC EQ PUSH2 0x1302 JUMPI DUP1 PUSH4 0x95EA7B3 EQ PUSH2 0x1193 JUMPI DUP1 PUSH4 0x23B872DD EQ PUSH2 0x116E JUMPI DUP1 PUSH4 0x2B359BC5 EQ PUSH2 0x1145 JUMPI DUP1 PUSH4 0x42842E0E EQ PUSH2 0x1111 JUMPI DUP1 PUSH4 0x59AA021B EQ PUSH2 0x1022 JUMPI DUP1 PUSH4 0x6352211E EQ PUSH2 0xFF0 JUMPI DUP1 PUSH4 0x70A08231 EQ PUSH2 0xF5A JUMPI DUP1 PUSH4 0x715018A6 EQ PUSH2 0xEFD JUMPI DUP1 PUSH4 0x7253305E EQ PUSH2 0xED0 JUMPI DUP1 PUSH4 0x74FD9F72 EQ PUSH2 0xAFD JUMPI DUP1 PUSH4 0x75794A3C EQ PUSH2 0xADE JUMPI DUP1 PUSH4 0x824CC832 EQ PUSH2 0xA79 JUMPI DUP1 PUSH4 0x83233ED4 EQ PUSH2 0xA31 JUMPI DUP1 PUSH4 0x8CF6408F EQ PUSH2 0xA08 JUMPI DUP1 PUSH4 0x8DA5CB5B EQ PUSH2 0x9DF JUMPI DUP1 PUSH4 0x95D89B41 EQ PUSH2 0x8FC JUMPI DUP1 PUSH4 0x9C3EEE0C EQ PUSH2 0x8B5 JUMPI DUP1 PUSH4 0x9D5FFDC8 EQ PUSH2 0x88C JUMPI DUP1 PUSH4 0xA22CB465 EQ PUSH2 0x7BA JUMPI DUP1 PUSH4 0xA5C9AF63 EQ PUSH2 0x73C JUMPI DUP1 PUSH4 0xB88D4FDE EQ PUSH2 0x6AE JUMPI DUP1 PUSH4 0xC366AB9D EQ PUSH2 0x609 JUMPI DUP1 PUSH4 0xC87B56DD EQ PUSH2 0x59D JUMPI DUP1 PUSH4 0xDC1A1AF7 EQ PUSH2 0x3AE JUMPI DUP1 PUSH4 0xE985E9C5 EQ PUSH2 0x35C JUMPI DUP1 PUSH4 0xF2FDE38B EQ PUSH2 0x28B JUMPI PUSH4 0xFE401D2F EQ PUSH2 0x16F JUMPI PUSH1 0x0 DUP1 REVERT JUMPDEST CALLVALUE PUSH2 0x288 JUMPI PUSH1 0x20 CALLDATASIZE PUSH1 0x3 NOT ADD SLT PUSH2 0x288 JUMPI DUP4 CALLDATALOAD PUSH2 0x18A PUSH2 0x205D JUMP JUMPDEST POP PUSH1 0x0 DUP2 DUP2 MSTORE PUSH1 0x2 PUSH1 0x20 MSTORE PUSH1 0x40 SWAP1 KECCAK256 SLOAD PUSH1 0x1 PUSH1 0x1 PUSH1 0xA0 SHL SUB AND ISZERO PUSH2 0x24E JUMPI DUP2 DUP5 SWAP2 PUSH2 0x24A SWAP5 SWAP4 MSTORE PUSH1 0x8 PUSH1 0x20 MSTORE KECCAK256 DUP4 MLOAD SWAP4 PUSH2 0x1C3 DUP6 PUSH2 0x152E JUMP JUMPDEST PUSH2 0x1CC DUP3 PUSH2 0x15BB JUMP JUMPDEST DUP6 MSTORE PUSH1 0x1 DUP3 ADD SLOAD SWAP5 PUSH1 0x20 DUP2 ADD SWAP6 DUP7 MSTORE PUSH1 0x2 DUP4 ADD SLOAD SWAP7 DUP3 DUP3 ADD SWAP8 DUP9 MSTORE PUSH1 0x3 DUP5 ADD SLOAD SWAP1 PUSH1 0x60 DUP4 ADD SWAP2 DUP3 MSTORE DUP5 ADD SLOAD SWAP1 PUSH1 0x80 DUP4 ADD SWAP2 DUP3 MSTORE PUSH2 0x20B PUSH1 0x5 DUP7 ADD PUSH2 0x15BB JUMP JUMPDEST SWAP3 PUSH1 0xA0 DUP2 ADD SWAP4 DUP5 MSTORE PUSH1 0xFF PUSH1 0xC PUSH2 0x223 PUSH1 0x6 DUP10 ADD PUSH2 0x1661 JUMP JUMPDEST SWAP8 DUP9 PUSH1 0xC0 DUP6 ADD MSTORE ADD SLOAD AND ISZERO ISZERO DUP1 SWAP8 DUP3 ADD MSTORE MLOAD SWAP8 MLOAD SWAP9 MLOAD SWAP1 MLOAD SWAP2 MLOAD SWAP3 MLOAD SWAP4 MLOAD SWAP9 DUP10 SWAP9 DUP10 PUSH2 0x16A7 JUMP JUMPDEST SUB SWAP1 RETURN JUMPDEST DUP4 MLOAD PUSH3 0x461BCD PUSH1 0xE5 SHL DUP2 MSTORE PUSH1 0x20 DUP2 DUP8 ADD MSTORE PUSH1 0x14 PUSH1 0x24 DUP3 ADD MSTORE PUSH20 0x151BDAD95B88191BD95CC81B9BDD08195E1A5CDD PUSH1 0x62 SHL PUSH1 0x44 DUP3 ADD MSTORE PUSH1 0x64 SWAP1 REVERT JUMPDEST DUP1 REVERT JUMPDEST POP DUP3 DUP5 CALLVALUE PUSH2 0x358 JUMPI PUSH1 0x20 CALLDATASIZE PUSH1 0x3 NOT ADD SLT PUSH2 0x358 JUMPI PUSH2 0x2A7 PUSH2 0x147F JUMP JUMPDEST SWAP1 PUSH2 0x2B0 PUSH2 0x180C JUMP JUMPDEST PUSH1 0x1 PUSH1 0x1 PUSH1 0xA0 SHL SUB SWAP2 DUP3 AND SWAP3 DUP4 ISZERO PUSH2 0x306 JUMPI POP POP PUSH1 0x6 SLOAD DUP3 PUSH12 0xFFFFFFFFFFFFFFFFFFFFFFFF PUSH1 0xA0 SHL DUP3 AND OR PUSH1 0x6 SSTORE AND PUSH32 0x8BE0079C531659141344CD1FD0A4F28419497F9722A3DAAFE3B4186F6B6457E0 DUP4 DUP1 LOG3 DUP1 RETURN JUMPDEST SWAP1 PUSH1 0x20 PUSH1 0x84 SWAP3 MLOAD SWAP2 PUSH3 0x461BCD PUSH1 0xE5 SHL DUP4 MSTORE DUP3 ADD MSTORE PUSH1 0x26 PUSH1 0x24 DUP3 ADD MSTORE PUSH32 0x4F776E61626C653A206E6577206F776E657220697320746865207A65726F2061 PUSH1 0x44 DUP3 ADD MSTORE PUSH6 0x646472657373 PUSH1 0xD0 SHL PUSH1 0x64 DUP3 ADD MSTORE REVERT JUMPDEST DUP3 DUP1 REVERT JUMPDEST POP DUP3 CALLVALUE PUSH2 0x3AA JUMPI DUP1 PUSH1 0x3 NOT CALLDATASIZE ADD SLT PUSH2 0x3AA JUMPI PUSH1 0xFF DUP2 PUSH1 0x20 SWAP4 PUSH2 0x37C PUSH2 0x147F JUMP JUMPDEST PUSH2 0x384 PUSH2 0x149A JUMP JUMPDEST PUSH1 0x1 PUSH1 0x1 PUSH1 0xA0 SHL SUB SWAP2 DUP3 AND DUP4 MSTORE PUSH1 0x5 DUP8 MSTORE DUP4 DUP4 KECCAK256 SWAP2 AND DUP3 MSTORE DUP6 MSTORE KECCAK256 SLOAD SWAP2 MLOAD SWAP2 AND ISZERO ISZERO DUP2 MSTORE RETURN JUMPDEST POP DUP1 REVERT JUMPDEST POP SWAP3 SWAP2 SWAP1 CALLVALUE PUSH2 0x599 JUMPI PUSH1 0x20 SWAP1 DUP2 PUSH1 0x3 NOT CALLDATASIZE ADD SLT PUSH2 0x595 JUMPI PUSH2 0x3CD PUSH2 0x205D JUMP JUMPDEST SWAP3 DUP5 CALLDATALOAD DUP7 MSTORE PUSH1 0xC SWAP1 DUP2 DUP5 MSTORE DUP1 DUP8 KECCAK256 DUP2 MLOAD DUP1 DUP3 DUP8 DUP3 SWAP5 SLOAD SWAP4 DUP5 DUP2 MSTORE ADD SWAP1 DUP12 MSTORE DUP8 DUP12 KECCAK256 SWAP3 DUP12 JUMPDEST DUP10 DUP3 DUP3 LT PUSH2 0x57F JUMPI POP POP POP PUSH2 0x408 SWAP3 POP SUB DUP3 PUSH2 0x1599 JUMP JUMPDEST DUP8 JUMPDEST DUP2 MLOAD DUP2 LT ISZERO PUSH2 0x53C JUMPI PUSH2 0x4B4 SWAP1 PUSH1 0x5 DUP8 DUP3 DUP3 SHL DUP6 ADD ADD MLOAD DUP12 MSTORE PUSH1 0x8 DUP9 MSTORE DUP10 DUP9 DUP7 DUP14 KECCAK256 DUP12 DUP10 DUP10 MLOAD SWAP6 PUSH2 0x43A DUP8 PUSH2 0x152E JUMP JUMPDEST PUSH2 0x443 DUP5 PUSH2 0x15BB JUMP JUMPDEST DUP8 MSTORE PUSH1 0x1 DUP5 ADD SLOAD DUP6 DUP9 ADD MSTORE PUSH1 0x2 DUP5 ADD SLOAD DUP12 DUP9 ADD MSTORE DUP13 PUSH2 0x47A PUSH1 0x3 DUP7 ADD SLOAD SWAP8 PUSH1 0x60 SWAP9 DUP10 DUP12 ADD MSTORE DUP7 ADD SLOAD SWAP3 PUSH1 0x80 SWAP4 DUP5 DUP12 ADD MSTORE DUP7 ADD PUSH2 0x15BB JUMP JUMPDEST SWAP8 PUSH1 0xA0 SWAP9 DUP10 DUP3 ADD MSTORE PUSH1 0xFF PUSH2 0x490 PUSH1 0x6 DUP9 ADD PUSH2 0x1661 JUMP JUMPDEST SWAP5 PUSH1 0xC0 DUP4 ADD SWAP8 DUP7 DUP10 MSTORE ADD SLOAD AND ISZERO ISZERO SWAP2 DUP3 SWAP2 ADD MSTORE PUSH2 0x4B9 JUMPI JUMPDEST POP POP POP POP POP POP POP PUSH2 0x1E91 JUMP JUMPDEST PUSH2 0x40A JUMP JUMPDEST PUSH2 0x52E SWAP6 DUP8 SWAP6 PUSH2 0x4CE PUSH2 0x51E SWAP5 MLOAD DUP7 MLOAD PUSH2 0x208F JUMP JUMPDEST DUP6 MSTORE PUSH2 0x4E3 DUP2 DUP8 MLOAD ADD MLOAD SWAP2 DUP7 ADD SWAP2 DUP3 MLOAD PUSH2 0x208F JUMP JUMPDEST SWAP1 MSTORE DUP12 DUP6 MLOAD ADD MLOAD PUSH2 0x4F8 DUP14 DUP7 ADD SWAP2 DUP3 MLOAD PUSH2 0x208F JUMP JUMPDEST SWAP1 MSTORE PUSH2 0x50D DUP2 DUP7 MLOAD ADD MLOAD SWAP2 DUP6 ADD SWAP2 DUP3 MLOAD PUSH2 0x208F JUMP JUMPDEST SWAP1 MSTORE DUP1 DUP5 MLOAD ADD MLOAD SWAP3 ADD SWAP2 DUP3 MLOAD PUSH2 0x208F JUMP JUMPDEST SWAP1 MSTORE MLOAD ADD MLOAD SWAP2 DUP11 ADD SWAP2 DUP3 MLOAD PUSH2 0x208F JUMP JUMPDEST SWAP1 MSTORE CODESIZE DUP1 DUP9 DUP2 DUP12 DUP2 DUP1 PUSH2 0x4A8 JUMP JUMPDEST PUSH1 0xC0 DUP8 PUSH2 0x57D DUP6 MLOAD DUP1 SWAP3 PUSH1 0xA0 DUP1 SWAP2 DUP1 MLOAD DUP5 MSTORE PUSH1 0x20 DUP2 ADD MLOAD PUSH1 0x20 DUP6 ADD MSTORE PUSH1 0x40 DUP2 ADD MLOAD PUSH1 0x40 DUP6 ADD MSTORE PUSH1 0x60 DUP2 ADD MLOAD PUSH1 0x60 DUP6 ADD MSTORE PUSH1 0x80 DUP2 ADD MLOAD PUSH1 0x80 DUP6 ADD MSTORE ADD MLOAD SWAP2 ADD MSTORE JUMP JUMPDEST RETURN JUMPDEST DUP6 SLOAD DUP5 MSTORE PUSH1 0x1 SWAP6 DUP7 ADD SWAP6 DUP8 SWAP6 POP SWAP4 ADD SWAP3 ADD PUSH2 0x3F1 JUMP JUMPDEST DUP5 DUP1 REVERT JUMPDEST DUP4 DUP1 REVERT JUMPDEST DUP5 DUP3 DUP6 CALLVALUE PUSH2 0x3AA JUMPI PUSH1 0x20 CALLDATASIZE PUSH1 0x3 NOT ADD SLT PUSH2 0x3AA JUMPI PUSH2 0x5DC PUSH2 0x5D7 PUSH2 0x24A SWAP5 CALLDATALOAD PUSH1 0x0 MSTORE PUSH1 0x2 PUSH1 0x20 MSTORE PUSH1 0x1 DUP1 PUSH1 0xA0 SHL SUB PUSH1 0x40 PUSH1 0x0 KECCAK256 SLOAD AND ISZERO ISZERO SWAP1 JUMP JUMPDEST PUSH2 0x1864 JUMP JUMPDEST DUP2 DUP2 MLOAD PUSH2 0x5E8 DUP2 PUSH2 0x157D JUMP JUMPDEST MSTORE DUP1 MLOAD SWAP2 PUSH2 0x5F5 DUP4 PUSH2 0x157D JUMP JUMPDEST DUP3 MSTORE MLOAD SWAP2 DUP3 SWAP2 PUSH1 0x20 DUP4 MSTORE PUSH1 0x20 DUP4 ADD SWAP1 PUSH2 0x145A JUMP JUMPDEST POP SWAP1 POP CALLVALUE PUSH2 0x288 JUMPI PUSH1 0x20 CALLDATASIZE PUSH1 0x3 NOT ADD SLT PUSH2 0x288 JUMPI DUP3 CALLDATALOAD SWAP1 PUSH8 0xFFFFFFFFFFFFFFFF DUP3 GT PUSH2 0x288 JUMPI POP PUSH2 0x657 PUSH1 0x20 PUSH2 0x645 PUSH2 0x24A SWAP4 CALLDATASIZE SWAP1 DUP8 ADD PUSH2 0x1785 JUMP JUMPDEST DUP2 DUP6 MLOAD SWAP4 DUP3 DUP6 DUP1 SWAP5 MLOAD SWAP4 DUP5 SWAP3 ADD PUSH2 0x1437 JUMP JUMPDEST DUP2 ADD PUSH1 0x9 DUP2 MSTORE SUB ADD SWAP1 KECCAK256 SWAP2 PUSH2 0x66B DUP4 PUSH2 0x15BB JUMP JUMPDEST SWAP3 PUSH1 0x1 DUP2 ADD SLOAD SWAP5 PUSH1 0x2 DUP3 ADD SLOAD SWAP1 PUSH1 0x3 DUP4 ADD SLOAD SWAP1 DUP4 ADD SLOAD SWAP1 PUSH2 0x68E PUSH1 0x5 DUP6 ADD PUSH2 0x15BB JUMP JUMPDEST SWAP3 PUSH1 0xFF PUSH1 0xC PUSH2 0x69F PUSH1 0x6 DUP9 ADD PUSH2 0x1661 JUMP JUMPDEST SWAP7 ADD SLOAD AND SWAP6 MLOAD SWAP9 DUP10 SWAP9 DUP10 PUSH2 0x16A7 JUMP JUMPDEST POP DUP4 CALLVALUE PUSH2 0x3AA JUMPI PUSH1 0x80 CALLDATASIZE PUSH1 0x3 NOT ADD SLT PUSH2 0x3AA JUMPI PUSH2 0x6C9 PUSH2 0x147F JUMP JUMPDEST SWAP1 PUSH2 0x6D2 PUSH2 0x149A JUMP JUMPDEST SWAP2 PUSH1 0x44 CALLDATALOAD PUSH1 0x64 CALLDATALOAD SWAP4 PUSH8 0xFFFFFFFFFFFFFFFF DUP6 GT PUSH2 0x738 JUMPI CALLDATASIZE PUSH1 0x23 DUP7 ADD SLT ISZERO PUSH2 0x738 JUMPI PUSH2 0x70D PUSH2 0x730 SWAP5 DUP7 PUSH1 0x24 PUSH2 0x735 SWAP9 CALLDATASIZE SWAP4 ADD CALLDATALOAD SWAP2 ADD PUSH2 0x174E JUMP JUMPDEST SWAP3 PUSH2 0x720 PUSH2 0x71B DUP5 CALLER PUSH2 0x19EA JUMP JUMPDEST PUSH2 0x1911 JUMP JUMPDEST PUSH2 0x72B DUP4 DUP4 DUP4 PUSH2 0x1AB2 JUMP JUMPDEST PUSH2 0x1E06 JUMP JUMPDEST PUSH2 0x19C6 JUMP JUMPDEST DUP1 RETURN JUMPDEST DUP6 DUP1 REVERT JUMPDEST POP DUP3 CALLVALUE PUSH2 0x3AA JUMPI PUSH1 0x20 SWAP1 DUP2 PUSH1 0x3 NOT CALLDATASIZE ADD SLT PUSH2 0x358 JUMPI PUSH1 0x1 PUSH1 0x1 PUSH1 0xA0 SHL SUB PUSH2 0x761 PUSH2 0x147F JUMP JUMPDEST AND DUP4 MSTORE PUSH1 0xA DUP3 MSTORE DUP1 DUP4 KECCAK256 SWAP3 DUP2 MLOAD DUP1 SWAP4 DUP1 DUP7 SLOAD SWAP3 DUP4 DUP2 MSTORE ADD SWAP6 DUP4 MSTORE DUP1 DUP4 KECCAK256 SWAP3 SWAP1 JUMPDEST DUP3 DUP3 LT PUSH2 0x7A3 JUMPI PUSH2 0x24A DUP7 DUP7 PUSH2 0x799 DUP3 DUP12 SUB DUP4 PUSH2 0x1599 JUMP JUMPDEST MLOAD SWAP2 DUP3 SWAP2 DUP3 PUSH2 0x17A3 JUMP JUMPDEST DUP4 SLOAD DUP8 MSTORE SWAP6 DUP7 ADD SWAP6 PUSH1 0x1 SWAP4 DUP5 ADD SWAP4 SWAP1 SWAP2 ADD SWAP1 PUSH2 0x781 JUMP JUMPDEST POP DUP4 DUP4 CALLVALUE PUSH2 0x358 JUMPI DUP1 PUSH1 0x3 NOT CALLDATASIZE ADD SLT PUSH2 0x358 JUMPI PUSH2 0x7D5 PUSH2 0x147F JUMP JUMPDEST SWAP1 PUSH2 0x7DE PUSH2 0x14E5 JUMP JUMPDEST PUSH1 0x1 PUSH1 0x1 PUSH1 0xA0 SHL SUB SWAP1 SWAP3 AND SWAP3 CALLER DUP5 EQ PUSH2 0x84A JUMPI POP CALLER DUP5 MSTORE PUSH1 0x5 PUSH1 0x20 MSTORE DUP1 DUP5 KECCAK256 DUP4 DUP6 MSTORE PUSH1 0x20 MSTORE PUSH2 0x81B DUP3 DUP3 DUP7 KECCAK256 SWAP1 PUSH1 0xFF DUP1 NOT DUP4 SLOAD AND SWAP2 ISZERO ISZERO AND OR SWAP1 SSTORE JUMP JUMPDEST MLOAD SWAP1 ISZERO ISZERO DUP2 MSTORE PUSH32 0x17307EAB39AB6107E8899845AD3D59BD9653F200F220920489CA2B5937696C31 PUSH1 0x20 CALLER SWAP3 LOG3 DUP1 RETURN JUMPDEST PUSH1 0x20 PUSH1 0x64 SWAP3 MLOAD SWAP2 PUSH3 0x461BCD PUSH1 0xE5 SHL DUP4 MSTORE DUP3 ADD MSTORE PUSH1 0x19 PUSH1 0x24 DUP3 ADD MSTORE PUSH32 0x4552433732313A20617070726F766520746F2063616C6C657200000000000000 PUSH1 0x44 DUP3 ADD MSTORE REVERT JUMPDEST POP DUP3 DUP5 CALLVALUE PUSH2 0x358 JUMPI PUSH1 0x20 CALLDATASIZE PUSH1 0x3 NOT ADD SLT PUSH2 0x358 JUMPI PUSH1 0x20 SWAP3 DUP3 SWAP2 CALLDATALOAD DUP2 MSTORE PUSH1 0xB DUP5 MSTORE KECCAK256 SLOAD SWAP1 MLOAD SWAP1 DUP2 MSTORE RETURN JUMPDEST POP SWAP1 POP CALLVALUE PUSH2 0x288 JUMPI DUP2 PUSH1 0x3 NOT CALLDATASIZE ADD SLT PUSH2 0x288 JUMPI PUSH1 0x24 CALLDATALOAD SWAP3 CALLDATALOAD DUP2 MSTORE PUSH1 0xC PUSH1 0x20 MSTORE DUP2 DUP2 KECCAK256 SWAP1 DUP2 SLOAD DUP5 LT ISZERO PUSH2 0x288 JUMPI POP PUSH1 0x20 SWAP3 PUSH2 0x8EE SWAP2 PUSH2 0x17DE JUMP JUMPDEST SWAP2 SWAP1 SLOAD SWAP1 MLOAD SWAP2 PUSH1 0x3 SHL SHR DUP2 MSTORE RETURN JUMPDEST POP DUP3 CALLVALUE PUSH2 0x3AA JUMPI DUP2 PUSH1 0x3 NOT CALLDATASIZE ADD SLT PUSH2 0x3AA JUMPI DUP1 MLOAD SWAP1 DUP3 PUSH1 0x1 DUP1 SLOAD SWAP2 PUSH2 0x920 DUP4 PUSH2 0x14F4 JUMP JUMPDEST DUP1 DUP7 MSTORE SWAP3 DUP3 DUP2 AND SWAP1 DUP2 ISZERO PUSH2 0x9B7 JUMPI POP PUSH1 0x1 EQ PUSH2 0x95B JUMPI JUMPDEST POP POP POP PUSH2 0x949 DUP3 PUSH2 0x24A SWAP5 SUB DUP4 PUSH2 0x1599 JUMP JUMPDEST MLOAD SWAP2 DUP3 SWAP2 PUSH1 0x20 DUP4 MSTORE PUSH1 0x20 DUP4 ADD SWAP1 PUSH2 0x145A JUMP JUMPDEST SWAP5 POP DUP1 DUP6 MSTORE PUSH32 0xB10E2D527612073B26EECDFD717E6A320CF44B4AFAC2B0732D9FCBE2B7FA0CF6 JUMPDEST DUP3 DUP7 LT PUSH2 0x99F JUMPI POP POP POP PUSH2 0x949 DUP3 PUSH1 0x20 PUSH2 0x24A SWAP6 DUP3 ADD ADD SWAP5 PUSH2 0x937 JUMP JUMPDEST DUP1 SLOAD PUSH1 0x20 DUP8 DUP8 ADD DUP2 ADD SWAP2 SWAP1 SWAP2 MSTORE SWAP1 SWAP6 ADD SWAP5 DUP2 ADD PUSH2 0x982 JUMP JUMPDEST PUSH2 0x24A SWAP8 POP DUP7 SWAP4 POP PUSH1 0x20 SWAP3 POP PUSH2 0x949 SWAP5 SWAP2 POP PUSH1 0xFF NOT AND DUP3 DUP5 ADD MSTORE ISZERO ISZERO PUSH1 0x5 SHL DUP3 ADD ADD SWAP5 PUSH2 0x937 JUMP JUMPDEST POP DUP3 CALLVALUE PUSH2 0x3AA JUMPI DUP2 PUSH1 0x3 NOT CALLDATASIZE ADD SLT PUSH2 0x3AA JUMPI PUSH1 0x6 SLOAD SWAP1 MLOAD PUSH1 0x1 PUSH1 0x1 PUSH1 0xA0 SHL SUB SWAP1 SWAP2 AND DUP2 MSTORE PUSH1 0x20 SWAP1 RETURN JUMPDEST POP DUP3 CALLVALUE PUSH2 0x3AA JUMPI DUP2 PUSH1 0x3 NOT CALLDATASIZE ADD SLT PUSH2 0x3AA JUMPI PUSH1 0xE SLOAD SWAP1 MLOAD PUSH1 0x1 PUSH1 0x1 PUSH1 0xA0 SHL SUB SWAP1 SWAP2 AND DUP2 MSTORE PUSH1 0x20 SWAP1 RETURN JUMPDEST POP DUP3 CALLVALUE PUSH2 0x3AA JUMPI DUP1 PUSH1 0x3 NOT CALLDATASIZE ADD SLT PUSH2 0x3AA JUMPI PUSH2 0xA4B PUSH2 0x147F JUMP JUMPDEST PUSH1 0x1 PUSH1 0x1 PUSH1 0xA0 SHL SUB AND DUP3 MSTORE PUSH1 0xA PUSH1 0x20 MSTORE DUP1 DUP3 KECCAK256 DUP1 SLOAD PUSH1 0x24 CALLDATALOAD SWAP4 SWAP1 DUP5 LT ISZERO PUSH2 0x288 JUMPI POP PUSH1 0x20 SWAP3 PUSH2 0x8EE SWAP2 PUSH2 0x17DE JUMP JUMPDEST POP DUP4 DUP4 CALLVALUE PUSH2 0x358 JUMPI PUSH1 0x20 SWAP2 DUP3 PUSH1 0x3 NOT CALLDATASIZE ADD SLT PUSH2 0x599 JUMPI CALLDATALOAD DUP4 MSTORE PUSH1 0xC DUP3 MSTORE DUP1 DUP4 KECCAK256 SWAP3 DUP2 MLOAD DUP1 SWAP4 DUP1 DUP7 SLOAD SWAP3 DUP4 DUP2 MSTORE ADD SWAP6 DUP4 MSTORE DUP1 DUP4 KECCAK256 SWAP3 SWAP1 JUMPDEST DUP3 DUP3 LT PUSH2 0xAC7 JUMPI PUSH2 0x24A DUP7 DUP7 PUSH2 0x799 DUP3 DUP12 SUB DUP4 PUSH2 0x1599 JUMP JUMPDEST DUP4 SLOAD DUP8 MSTORE SWAP6 DUP7 ADD SWAP6 PUSH1 0x1 SWAP4 DUP5 ADD SWAP4 SWAP1 SWAP2 ADD SWAP1 PUSH2 0xAAF JUMP JUMPDEST POP DUP3 CALLVALUE PUSH2 0x3AA JUMPI DUP2 PUSH1 0x3 NOT CALLDATASIZE ADD SLT PUSH2 0x3AA JUMPI PUSH1 0x20 SWAP1 PUSH1 0x7 SLOAD SWAP1 MLOAD SWAP1 DUP2 MSTORE RETURN JUMPDEST DUP5 DUP3 DUP6 CALLVALUE PUSH2 0x3AA JUMPI DUP1 PUSH1 0x3 NOT CALLDATASIZE ADD SLT PUSH2 0x3AA JUMPI DUP3 CALLDATALOAD PUSH8 0xFFFFFFFFFFFFFFFF DUP2 GT PUSH2 0x358 JUMPI PUSH2 0xB2E SWAP1 CALLDATASIZE SWAP1 DUP6 ADD PUSH2 0x1785 JUMP JUMPDEST SWAP3 PUSH1 0x24 CALLDATALOAD DUP3 MLOAD SWAP5 DUP1 MLOAD SWAP3 PUSH1 0x1 PUSH1 0x20 SWAP8 DUP9 DUP2 DUP2 DUP7 ADD SWAP8 PUSH2 0xB4E DUP2 DUP4 DUP12 PUSH2 0x1437 JUMP JUMPDEST DUP2 ADD PUSH1 0x9 DUP2 MSTORE SUB ADD SWAP1 KECCAK256 ADD SLOAD ISZERO PUSH2 0xE8D JUMPI PUSH1 0xD SLOAD DUP6 MLOAD PUSH4 0x31A9108F PUSH1 0xE1 SHL DUP2 MSTORE DUP3 DUP2 ADD DUP6 SWAP1 MSTORE SWAP1 PUSH1 0x1 PUSH1 0x1 PUSH1 0xA0 SHL SUB SWAP1 DUP10 SWAP1 DUP4 SWAP1 PUSH1 0x24 SWAP1 DUP3 SWAP1 DUP6 AND GAS STATICCALL SWAP2 DUP3 ISZERO PUSH2 0xE83 JUMPI DUP9 SWAP3 PUSH2 0xE47 JUMPI JUMPDEST POP CALLER SWAP2 AND SUB PUSH2 0xE04 JUMPI PUSH2 0xBC6 DUP8 PUSH1 0x7 SLOAD SWAP6 PUSH2 0xBB3 DUP8 PUSH2 0x1E91 JUMP JUMPDEST PUSH1 0x7 SSTORE DUP8 MLOAD DUP1 SWAP4 DUP2 SWAP3 DUP8 MLOAD SWAP3 DUP4 SWAP2 PUSH2 0x1437 JUMP JUMPDEST DUP2 ADD PUSH1 0x9 DUP2 MSTORE SUB ADD SWAP1 KECCAK256 DUP5 DUP8 MSTORE PUSH1 0x8 DUP9 MSTORE DUP6 DUP8 KECCAK256 DUP2 DUP2 SUB PUSH2 0xD50 JUMPI JUMPDEST POP POP DUP4 DUP7 MSTORE PUSH1 0xB DUP8 MSTORE DUP3 DUP6 DUP8 KECCAK256 SSTORE DUP3 DUP7 MSTORE PUSH1 0xC DUP8 MSTORE PUSH2 0xC03 DUP5 DUP7 DUP9 KECCAK256 PUSH2 0x1FE9 JUMP JUMPDEST DUP5 MLOAD SWAP1 PUSH2 0xC0F DUP3 PUSH2 0x157D JUMP JUMPDEST DUP7 DUP3 MSTORE CALLER ISZERO PUSH2 0xD0F JUMPI POP SWAP1 PUSH1 0x60 DUP7 SWAP8 PUSH2 0xCF0 PUSH2 0x730 PUSH2 0xD02 SWAP6 PUSH2 0xC85 DUP10 DUP12 PUSH32 0x1E606F355F318326AACD024898D3D4423DBEF4BC207A8FD760E434B199217F66 SWAP13 SWAP14 PUSH2 0xC78 PUSH2 0xC72 DUP5 PUSH1 0x0 MSTORE PUSH1 0x2 PUSH1 0x20 MSTORE PUSH1 0x1 DUP1 PUSH1 0xA0 SHL SUB PUSH1 0x40 PUSH1 0x0 KECCAK256 SLOAD AND ISZERO ISZERO SWAP1 JUMP JUMPDEST ISZERO PUSH2 0x2011 JUMP JUMPDEST CALLER DUP2 MSTORE PUSH1 0xA DUP9 MSTORE KECCAK256 PUSH2 0x1FE9 JUMP JUMPDEST PUSH1 0x0 DUP10 DUP2 MSTORE PUSH1 0x2 PUSH1 0x20 MSTORE PUSH1 0x40 SWAP1 KECCAK256 SLOAD PUSH2 0xCA8 SWAP1 PUSH1 0x1 PUSH1 0x1 PUSH1 0xA0 SHL SUB AND ISZERO ISZERO PUSH2 0xC72 JUMP JUMPDEST CALLER DUP1 DUP14 MSTORE PUSH1 0x3 DUP6 MSTORE DUP12 DUP14 KECCAK256 DUP1 SLOAD PUSH1 0x1 ADD SWAP1 SSTORE DUP10 DUP14 MSTORE PUSH1 0x2 DUP6 MSTORE DUP12 DUP14 KECCAK256 DUP1 SLOAD PUSH1 0x1 PUSH1 0x1 PUSH1 0xA0 SHL SUB NOT AND DUP3 OR SWAP1 SSTORE DUP10 SWAP1 DUP14 PUSH1 0x0 DUP1 MLOAD PUSH1 0x20 PUSH2 0x209D DUP4 CODECOPY DUP2 MLOAD SWAP2 MSTORE DUP2 DUP1 LOG4 DUP9 CALLER PUSH2 0x1CEA JUMP JUMPDEST DUP8 MLOAD SWAP6 DUP7 MSTORE DUP6 ADD MSTORE PUSH1 0x60 DUP5 ADD SWAP1 PUSH2 0x145A JUMP JUMPDEST SWAP4 DUP3 ADD MSTORE DUP1 CALLER SWAP4 SUB SWAP1 LOG2 DUP1 RETURN JUMPDEST PUSH1 0x64 SWAP1 DUP9 DUP1 DUP9 MLOAD SWAP3 PUSH3 0x461BCD PUSH1 0xE5 SHL DUP5 MSTORE DUP4 ADD MSTORE PUSH1 0x24 DUP3 ADD MSTORE PUSH32 0x4552433732313A206D696E7420746F20746865207A65726F2061646472657373 PUSH1 0x44 DUP3 ADD MSTORE REVERT JUMPDEST PUSH1 0xC PUSH1 0xFF DUP2 DUP5 PUSH2 0xD63 PUSH2 0xDC1 SWAP7 DUP7 PUSH2 0x1EB6 JUMP JUMPDEST PUSH1 0x1 DUP2 ADD SLOAD PUSH1 0x1 DUP7 ADD SSTORE PUSH1 0x2 DUP2 ADD SLOAD PUSH1 0x2 DUP7 ADD SSTORE PUSH1 0x3 DUP2 ADD SLOAD PUSH1 0x3 DUP7 ADD SSTORE DUP7 DUP2 ADD SLOAD DUP8 DUP7 ADD SSTORE PUSH2 0xD99 PUSH1 0x5 DUP3 ADD PUSH1 0x5 DUP8 ADD PUSH2 0x1EB6 JUMP JUMPDEST PUSH1 0x6 DUP6 ADD PUSH1 0x6 DUP3 ADD DUP1 DUP3 SUB PUSH2 0xDC8 JUMPI JUMPDEST POP POP ADD SLOAD AND SWAP2 ADD SWAP1 PUSH1 0xFF DUP1 NOT DUP4 SLOAD AND SWAP2 ISZERO ISZERO AND OR SWAP1 SSTORE JUMP JUMPDEST DUP8 DUP1 PUSH2 0xBE2 JUMP JUMPDEST SLOAD SWAP1 SSTORE PUSH1 0x7 DUP2 ADD SLOAD PUSH1 0x7 DUP7 ADD SSTORE PUSH1 0x8 DUP2 ADD SLOAD PUSH1 0x8 DUP7 ADD SSTORE PUSH1 0x9 DUP2 ADD SLOAD PUSH1 0x9 DUP7 ADD SSTORE PUSH1 0xA DUP2 ADD SLOAD PUSH1 0xA DUP7 ADD SSTORE PUSH1 0xB DUP2 ADD SLOAD PUSH1 0xB DUP7 ADD SSTORE DUP14 DUP1 PUSH2 0xDA9 JUMP JUMPDEST DUP5 MLOAD PUSH3 0x461BCD PUSH1 0xE5 SHL DUP2 MSTORE SWAP1 DUP2 ADD DUP8 SWAP1 MSTORE PUSH1 0x1A PUSH1 0x24 DUP3 ADD MSTORE PUSH32 0x4E6F7420746865206F776E6572206F662074686973206C616E64000000000000 PUSH1 0x44 DUP3 ADD MSTORE PUSH1 0x64 SWAP1 REVERT JUMPDEST SWAP1 SWAP2 POP DUP9 DUP2 DUP2 RETURNDATASIZE DUP4 GT PUSH2 0xE7C JUMPI JUMPDEST PUSH2 0xE5F DUP2 DUP4 PUSH2 0x1599 JUMP JUMPDEST DUP2 ADD SUB SLT PUSH2 0xE78 JUMPI MLOAD DUP2 DUP2 AND DUP2 SUB PUSH2 0xE78 JUMPI SWAP1 DUP10 PUSH2 0xB99 JUMP JUMPDEST DUP8 DUP1 REVERT JUMPDEST POP RETURNDATASIZE PUSH2 0xE55 JUMP JUMPDEST DUP8 MLOAD RETURNDATASIZE DUP11 DUP3 RETURNDATACOPY RETURNDATASIZE SWAP1 REVERT JUMPDEST DUP5 MLOAD PUSH3 0x461BCD PUSH1 0xE5 SHL DUP2 MSTORE SWAP1 DUP2 ADD DUP8 SWAP1 MSTORE PUSH1 0x18 PUSH1 0x24 DUP3 ADD MSTORE PUSH32 0x556E6974207479706520646F6573206E6F742065786973740000000000000000 PUSH1 0x44 DUP3 ADD MSTORE PUSH1 0x64 SWAP1 REVERT JUMPDEST POP SWAP1 POP CALLVALUE PUSH2 0x288 JUMPI PUSH1 0x20 CALLDATASIZE PUSH1 0x3 NOT ADD SLT PUSH2 0x288 JUMPI DUP2 PUSH2 0x24A SWAP2 DUP5 CALLDATALOAD DUP2 MSTORE PUSH1 0x8 PUSH1 0x20 MSTORE KECCAK256 SWAP2 PUSH2 0x66B DUP4 PUSH2 0x15BB JUMP JUMPDEST POP CALLVALUE PUSH2 0x288 JUMPI DUP1 PUSH1 0x3 NOT CALLDATASIZE ADD SLT PUSH2 0x288 JUMPI PUSH2 0xF16 PUSH2 0x180C JUMP JUMPDEST PUSH1 0x6 DUP1 SLOAD PUSH1 0x1 PUSH1 0x1 PUSH1 0xA0 SHL SUB NOT DUP2 AND SWAP1 SWAP2 SSTORE DUP2 SWAP1 PUSH1 0x1 PUSH1 0x1 PUSH1 0xA0 SHL SUB AND PUSH32 0x8BE0079C531659141344CD1FD0A4F28419497F9722A3DAAFE3B4186F6B6457E0 DUP3 DUP1 LOG3 DUP1 RETURN JUMPDEST DUP4 DUP3 DUP7 CALLVALUE PUSH2 0x3AA JUMPI PUSH1 0x20 CALLDATASIZE PUSH1 0x3 NOT ADD SLT PUSH2 0x3AA JUMPI PUSH1 0x1 PUSH1 0x1 PUSH1 0xA0 SHL SUB PUSH2 0xF7E PUSH2 0x147F JUMP JUMPDEST AND SWAP1 DUP2 ISZERO PUSH2 0xF9B JUMPI PUSH1 0x20 DUP5 DUP1 DUP6 DUP6 DUP2 MSTORE PUSH1 0x3 DUP5 MSTORE KECCAK256 SLOAD SWAP1 MLOAD SWAP1 DUP2 MSTORE RETURN JUMPDEST PUSH1 0x84 SWAP1 PUSH1 0x20 DUP6 MLOAD SWAP2 PUSH3 0x461BCD PUSH1 0xE5 SHL DUP4 MSTORE DUP3 ADD MSTORE PUSH1 0x29 PUSH1 0x24 DUP3 ADD MSTORE PUSH32 0x4552433732313A2061646472657373207A65726F206973206E6F742061207661 PUSH1 0x44 DUP3 ADD MSTORE PUSH9 0x3634B21037BBB732B9 PUSH1 0xB9 SHL PUSH1 0x64 DUP3 ADD MSTORE REVERT JUMPDEST POP SWAP1 POP CALLVALUE PUSH2 0x288 JUMPI PUSH1 0x20 CALLDATASIZE PUSH1 0x3 NOT ADD SLT PUSH2 0x288 JUMPI POP PUSH2 0x1011 PUSH1 0x20 SWAP3 CALLDATALOAD PUSH2 0x18B0 JUMP JUMPDEST SWAP1 MLOAD PUSH1 0x1 PUSH1 0x1 PUSH1 0xA0 SHL SUB SWAP1 SWAP2 AND DUP2 MSTORE RETURN JUMPDEST DUP4 DUP3 DUP7 CALLVALUE PUSH2 0x3AA JUMPI DUP3 PUSH1 0x3 NOT CALLDATASIZE ADD SLT PUSH2 0x3AA JUMPI DUP1 CALLDATALOAD PUSH2 0x103F PUSH2 0x14E5 JUMP JUMPDEST PUSH1 0xE SLOAD SWAP1 SWAP3 SWAP1 PUSH1 0x1 PUSH1 0x1 PUSH1 0xA0 SHL SUB AND CALLER SUB PUSH2 0x10CE JUMPI PUSH1 0x0 DUP3 DUP2 MSTORE PUSH1 0x2 PUSH1 0x20 MSTORE PUSH1 0x40 SWAP1 KECCAK256 SLOAD PUSH1 0x1 PUSH1 0x1 PUSH1 0xA0 SHL SUB AND ISZERO PUSH2 0x1095 JUMPI POP DUP3 SWAP4 PUSH1 0xC SWAP2 PUSH2 0x735 SWAP5 MSTORE PUSH1 0x8 PUSH1 0x20 MSTORE DUP5 KECCAK256 ADD SWAP1 PUSH1 0xFF DUP1 NOT DUP4 SLOAD AND SWAP2 ISZERO ISZERO AND OR SWAP1 SSTORE JUMP JUMPDEST PUSH1 0x64 SWAP1 PUSH1 0x20 DUP7 MLOAD SWAP2 PUSH3 0x461BCD PUSH1 0xE5 SHL DUP4 MSTORE DUP3 ADD MSTORE PUSH1 0x13 PUSH1 0x24 DUP3 ADD MSTORE PUSH19 0x155B9A5D08191BD95CC81B9BDD08195E1A5CDD PUSH1 0x6A SHL PUSH1 0x44 DUP3 ADD MSTORE REVERT JUMPDEST PUSH1 0x64 SWAP1 PUSH1 0x20 DUP7 MLOAD SWAP2 PUSH3 0x461BCD PUSH1 0xE5 SHL DUP4 MSTORE DUP3 ADD MSTORE PUSH1 0x1E PUSH1 0x24 DUP3 ADD MSTORE PUSH32 0x43616C6C6572206973206E6F74204C616E644E465420636F6E74726163740000 PUSH1 0x44 DUP3 ADD MSTORE REVERT JUMPDEST POP DUP3 CALLVALUE PUSH2 0x3AA JUMPI PUSH2 0x730 PUSH2 0x735 SWAP2 PUSH2 0x1128 CALLDATASIZE PUSH2 0x14B0 JUMP JUMPDEST SWAP2 SWAP3 MLOAD SWAP3 PUSH2 0x1135 DUP5 PUSH2 0x157D JUMP JUMPDEST DUP7 DUP5 MSTORE PUSH2 0x720 PUSH2 0x71B DUP5 CALLER PUSH2 0x19EA JUMP JUMPDEST POP DUP3 CALLVALUE PUSH2 0x3AA JUMPI DUP2 PUSH1 0x3 NOT CALLDATASIZE ADD SLT PUSH2 0x3AA JUMPI PUSH1 0xD SLOAD SWAP1 MLOAD PUSH1 0x1 PUSH1 0x1 PUSH1 0xA0 SHL SUB SWAP1 SWAP2 AND DUP2 MSTORE PUSH1 0x20 SWAP1 RETURN JUMPDEST POP CALLVALUE PUSH2 0x288 JUMPI PUSH2 0x735 PUSH2 0x1180 CALLDATASIZE PUSH2 0x14B0 JUMP JUMPDEST SWAP2 PUSH2 0x118E PUSH2 0x71B DUP5 CALLER PUSH2 0x19EA JUMP JUMPDEST PUSH2 0x1AB2 JUMP JUMPDEST POP DUP3 DUP5 CALLVALUE PUSH2 0x358 JUMPI DUP2 PUSH1 0x3 NOT CALLDATASIZE ADD SLT PUSH2 0x358 JUMPI PUSH2 0x11AE PUSH2 0x147F JUMP JUMPDEST PUSH1 0x24 CALLDATALOAD SWAP3 SWAP1 SWAP2 PUSH1 0x1 PUSH1 0x1 PUSH1 0xA0 SHL SUB SWAP2 SWAP1 DUP3 DUP1 PUSH2 0x11C9 DUP8 PUSH2 0x18B0 JUMP JUMPDEST AND SWAP5 AND SWAP4 DUP1 DUP6 EQ PUSH2 0x12B5 JUMPI DUP1 CALLER EQ SWAP1 DUP2 ISZERO PUSH2 0x1296 JUMPI JUMPDEST POP ISZERO PUSH2 0x122E JUMPI DUP5 DUP7 MSTORE PUSH1 0x20 MSTORE DUP5 KECCAK256 DUP1 SLOAD PUSH1 0x1 PUSH1 0x1 PUSH1 0xA0 SHL SUB NOT AND DUP4 OR SWAP1 SSTORE PUSH2 0x1206 DUP4 PUSH2 0x18B0 JUMP JUMPDEST AND PUSH32 0x8C5BE1E5EBEC7D5BD14F71427D1E84F3DD0314C0F7B2291E5B200AC8C7C3B925 DUP5 DUP1 LOG4 DUP1 RETURN JUMPDEST PUSH1 0x20 PUSH1 0x84 SWAP3 MLOAD SWAP2 PUSH3 0x461BCD PUSH1 0xE5 SHL DUP4 MSTORE DUP3 ADD MSTORE PUSH1 0x3D PUSH1 0x24 DUP3 ADD MSTORE PUSH32 0x4552433732313A20617070726F76652063616C6C6572206973206E6F7420746F PUSH1 0x44 DUP3 ADD MSTORE PUSH32 0x6B656E206F776E6572206F7220617070726F76656420666F7220616C6C000000 PUSH1 0x64 DUP3 ADD MSTORE REVERT JUMPDEST SWAP1 POP DUP7 MSTORE PUSH1 0x5 PUSH1 0x20 MSTORE DUP2 DUP7 KECCAK256 CALLER DUP8 MSTORE PUSH1 0x20 MSTORE PUSH1 0xFF DUP3 DUP8 KECCAK256 SLOAD AND DUP8 PUSH2 0x11DF JUMP JUMPDEST POP PUSH1 0x20 PUSH1 0x84 SWAP3 MLOAD SWAP2 PUSH3 0x461BCD PUSH1 0xE5 SHL DUP4 MSTORE DUP3 ADD MSTORE PUSH1 0x21 PUSH1 0x24 DUP3 ADD MSTORE PUSH32 0x4552433732313A20617070726F76616C20746F2063757272656E74206F776E65 PUSH1 0x44 DUP3 ADD MSTORE PUSH1 0x39 PUSH1 0xF9 SHL PUSH1 0x64 DUP3 ADD MSTORE REVERT JUMPDEST POP SWAP1 POP CALLVALUE PUSH2 0x288 JUMPI PUSH1 0x20 CALLDATASIZE PUSH1 0x3 NOT ADD SLT PUSH2 0x288 JUMPI POP PUSH2 0x1011 PUSH1 0x20 SWAP3 CALLDATALOAD PUSH2 0x18D3 JUMP JUMPDEST POP DUP3 CALLVALUE PUSH2 0x3AA JUMPI DUP2 PUSH1 0x3 NOT CALLDATASIZE ADD SLT PUSH2 0x3AA JUMPI DUP1 MLOAD SWAP1 DUP3 DUP1 SLOAD PUSH2 0x1344 DUP2 PUSH2 0x14F4 JUMP JUMPDEST DUP1 DUP6 MSTORE SWAP2 PUSH1 0x1 SWAP2 DUP1 DUP4 AND SWAP1 DUP2 ISZERO PUSH2 0x9B7 JUMPI POP PUSH1 0x1 EQ PUSH2 0x136F JUMPI POP POP POP PUSH2 0x949 DUP3 PUSH2 0x24A SWAP5 SUB DUP4 PUSH2 0x1599 JUMP JUMPDEST DUP1 DUP1 SWAP7 POP MSTORE PUSH32 0x290DECD9548B62A8D60345A988386FC84BA6BC95484008F6362F93160EF3E563 JUMPDEST DUP3 DUP7 LT PUSH2 0x13B3 JUMPI POP POP POP PUSH2 0x949 DUP3 PUSH1 0x20 PUSH2 0x24A SWAP6 DUP3 ADD ADD SWAP5 PUSH2 0x937 JUMP JUMPDEST DUP1 SLOAD PUSH1 0x20 DUP8 DUP8 ADD DUP2 ADD SWAP2 SWAP1 SWAP2 MSTORE SWAP1 SWAP6 ADD SWAP5 DUP2 ADD PUSH2 0x1396 JUMP JUMPDEST SWAP1 POP DUP5 CALLVALUE PUSH2 0x358 JUMPI PUSH1 0x20 CALLDATASIZE PUSH1 0x3 NOT ADD SLT PUSH2 0x358 JUMPI CALLDATALOAD PUSH4 0xFFFFFFFF PUSH1 0xE0 SHL DUP2 AND DUP1 SWAP2 SUB PUSH2 0x358 JUMPI PUSH1 0x20 SWAP3 POP PUSH4 0x80AC58CD PUSH1 0xE0 SHL DUP2 EQ SWAP1 DUP2 ISZERO PUSH2 0x1426 JUMPI JUMPDEST DUP2 ISZERO PUSH2 0x1415 JUMPI JUMPDEST POP ISZERO ISZERO DUP2 MSTORE RETURN JUMPDEST PUSH4 0x1FFC9A7 PUSH1 0xE0 SHL EQ SWAP1 POP DUP4 PUSH2 0x140E JUMP JUMPDEST PUSH4 0x5B5E139F PUSH1 0xE0 SHL DUP2 EQ SWAP2 POP PUSH2 0x1407 JUMP JUMPDEST PUSH1 0x0 JUMPDEST DUP4 DUP2 LT PUSH2 0x144A JUMPI POP POP PUSH1 0x0 SWAP2 ADD MSTORE JUMP JUMPDEST DUP2 DUP2 ADD MLOAD DUP4 DUP3 ADD MSTORE PUSH1 0x20 ADD PUSH2 0x143A JUMP JUMPDEST SWAP1 PUSH1 0x20 SWAP2 PUSH2 0x1473 DUP2 MLOAD DUP1 SWAP3 DUP2 DUP6 MSTORE DUP6 DUP1 DUP7 ADD SWAP2 ADD PUSH2 0x1437 JUMP JUMPDEST PUSH1 0x1F ADD PUSH1 0x1F NOT AND ADD ADD SWAP1 JUMP JUMPDEST PUSH1 0x4 CALLDATALOAD SWAP1 PUSH1 0x1 PUSH1 0x1 PUSH1 0xA0 SHL SUB DUP3 AND DUP3 SUB PUSH2 0x1495 JUMPI JUMP JUMPDEST PUSH1 0x0 DUP1 REVERT JUMPDEST PUSH1 0x24 CALLDATALOAD SWAP1 PUSH1 0x1 PUSH1 0x1 PUSH1 0xA0 SHL SUB DUP3 AND DUP3 SUB PUSH2 0x1495 JUMPI JUMP JUMPDEST PUSH1 0x60 SWAP1 PUSH1 0x3 NOT ADD SLT PUSH2 0x1495 JUMPI PUSH1 0x1 PUSH1 0x1 PUSH1 0xA0 SHL SUB SWAP1 PUSH1 0x4 CALLDATALOAD DUP3 DUP2 AND DUP2 SUB PUSH2 0x1495 JUMPI SWAP2 PUSH1 0x24 CALLDATALOAD SWAP1 DUP2 AND DUP2 SUB PUSH2 0x1495 JUMPI SWAP1 PUSH1 0x44 CALLDATALOAD SWAP1 JUMP JUMPDEST PUSH1 0x24 CALLDATALOAD SWAP1 DUP2 ISZERO ISZERO DUP3 SUB PUSH2 0x1495 JUMPI JUMP JUMPDEST SWAP1 PUSH1 0x1 DUP3 DUP2 SHR SWAP3 AND DUP1 ISZERO PUSH2 0x1524 JUMPI JUMPDEST PUSH1 0x20 DUP4 LT EQ PUSH2 0x150E JUMPI JUMP JUMPDEST PUSH4 0x4E487B71 PUSH1 0xE0 SHL PUSH1 0x0 MSTORE PUSH1 0x22 PUSH1 0x4 MSTORE PUSH1 0x24 PUSH1 0x0 REVERT JUMPDEST SWAP2 PUSH1 0x7F AND SWAP2 PUSH2 0x1503 JUMP JUMPDEST PUSH2 0x100 DUP2 ADD SWAP1 DUP2 LT PUSH8 0xFFFFFFFFFFFFFFFF DUP3 GT OR PUSH2 0x154B JUMPI PUSH1 0x40 MSTORE JUMP JUMPDEST PUSH4 0x4E487B71 PUSH1 0xE0 SHL PUSH1 0x0 MSTORE PUSH1 0x41 PUSH1 0x4 MSTORE PUSH1 0x24 PUSH1 0x0 REVERT JUMPDEST PUSH1 0xC0 DUP2 ADD SWAP1 DUP2 LT PUSH8 0xFFFFFFFFFFFFFFFF DUP3 GT OR PUSH2 0x154B JUMPI PUSH1 0x40 MSTORE JUMP JUMPDEST PUSH1 0x20 DUP2 ADD SWAP1 DUP2 LT PUSH8 0xFFFFFFFFFFFFFFFF DUP3 GT OR PUSH2 0x154B JUMPI PUSH1 0x40 MSTORE JUMP JUMPDEST SWAP1 PUSH1 0x1F DUP1 NOT SWAP2 ADD AND DUP2 ADD SWAP1 DUP2 LT PUSH8 0xFFFFFFFFFFFFFFFF DUP3 GT OR PUSH2 0x154B JUMPI PUSH1 0x40 MSTORE JUMP JUMPDEST SWAP1 PUSH1 0x40 MLOAD SWAP2 DUP3 PUSH1 0x0 DUP3 SLOAD SWAP3 PUSH2 0x15CF DUP5 PUSH2 0x14F4 JUMP JUMPDEST SWAP1 DUP2 DUP5 MSTORE PUSH1 0x1 SWAP5 DUP6 DUP2 AND SWAP1 DUP2 PUSH1 0x0 EQ PUSH2 0x163E JUMPI POP PUSH1 0x1 EQ PUSH2 0x15FB JUMPI JUMPDEST POP POP PUSH2 0x15F9 SWAP3 POP SUB DUP4 PUSH2 0x1599 JUMP JUMPDEST JUMP JUMPDEST SWAP1 SWAP4 SWAP2 POP PUSH1 0x0 MSTORE PUSH1 0x20 SWAP1 DUP2 PUSH1 0x0 KECCAK256 SWAP4 PUSH1 0x0 SWAP2 JUMPDEST DUP2 DUP4 LT PUSH2 0x1626 JUMPI POP POP PUSH2 0x15F9 SWAP4 POP DUP3 ADD ADD CODESIZE DUP1 PUSH2 0x15EB JUMP JUMPDEST DUP6 SLOAD DUP9 DUP5 ADD DUP6 ADD MSTORE SWAP5 DUP6 ADD SWAP5 DUP8 SWAP5 POP SWAP2 DUP4 ADD SWAP2 PUSH2 0x160E JUMP JUMPDEST SWAP2 POP POP PUSH2 0x15F9 SWAP5 POP PUSH1 0x20 SWAP3 POP PUSH1 0xFF NOT AND DUP3 DUP5 ADD MSTORE ISZERO ISZERO PUSH1 0x5 SHL DUP3 ADD ADD CODESIZE DUP1 PUSH2 0x15EB JUMP JUMPDEST SWAP1 PUSH1 0x40 MLOAD PUSH2 0x166E DUP2 PUSH2 0x1561 JUMP JUMPDEST PUSH1 0xA0 PUSH1 0x5 DUP3 SWAP5 DUP1 SLOAD DUP5 MSTORE PUSH1 0x1 DUP2 ADD SLOAD PUSH1 0x20 DUP6 ADD MSTORE PUSH1 0x2 DUP2 ADD SLOAD PUSH1 0x40 DUP6 ADD MSTORE PUSH1 0x3 DUP2 ADD SLOAD PUSH1 0x60 DUP6 ADD MSTORE PUSH1 0x4 DUP2 ADD SLOAD PUSH1 0x80 DUP6 ADD MSTORE ADD SLOAD SWAP2 ADD MSTORE JUMP JUMPDEST SWAP7 SWAP9 SWAP8 SWAP5 PUSH2 0x172B SWAP5 PUSH2 0x16EB SWAP5 PUSH2 0x16C9 PUSH2 0x180 SWAP10 SWAP5 PUSH2 0x1A0 DUP1 DUP14 MSTORE DUP13 ADD SWAP1 PUSH2 0x145A JUMP JUMPDEST SWAP5 PUSH1 0x20 DUP12 ADD MSTORE PUSH1 0x40 DUP11 ADD MSTORE PUSH1 0x60 DUP10 ADD MSTORE PUSH1 0x80 DUP9 ADD MSTORE DUP7 DUP3 SUB PUSH1 0xA0 DUP9 ADD MSTORE PUSH2 0x145A JUMP JUMPDEST DUP7 MLOAD PUSH1 0xC0 DUP7 ADD MSTORE PUSH1 0x20 DUP8 ADD MLOAD PUSH1 0xE0 DUP7 ADD MSTORE PUSH1 0x40 DUP8 ADD MLOAD PUSH2 0x100 DUP7 ADD MSTORE PUSH1 0x60 DUP8 ADD MLOAD PUSH2 0x120 DUP7 ADD MSTORE PUSH1 0x80 DUP8 ADD MLOAD PUSH2 0x140 DUP7 ADD MSTORE PUSH1 0xA0 SWAP1 SWAP7 ADD MLOAD PUSH2 0x160 DUP6 ADD MSTORE JUMP JUMPDEST ISZERO ISZERO SWAP2 ADD MSTORE JUMP JUMPDEST PUSH8 0xFFFFFFFFFFFFFFFF DUP2 GT PUSH2 0x154B JUMPI PUSH1 0x1F ADD PUSH1 0x1F NOT AND PUSH1 0x20 ADD SWAP1 JUMP JUMPDEST SWAP3 SWAP2 SWAP3 PUSH2 0x175A DUP3 PUSH2 0x1732 JUMP JUMPDEST SWAP2 PUSH2 0x1768 PUSH1 0x40 MLOAD SWAP4 DUP5 PUSH2 0x1599 JUMP JUMPDEST DUP3 SWAP5 DUP2 DUP5 MSTORE DUP2 DUP4 ADD GT PUSH2 0x1495 JUMPI DUP3 DUP2 PUSH1 0x20 SWAP4 DUP5 PUSH1 0x0 SWAP7 ADD CALLDATACOPY ADD ADD MSTORE JUMP JUMPDEST SWAP1 DUP1 PUSH1 0x1F DUP4 ADD SLT ISZERO PUSH2 0x1495 JUMPI DUP2 PUSH1 0x20 PUSH2 0x17A0 SWAP4 CALLDATALOAD SWAP2 ADD PUSH2 0x174E JUMP JUMPDEST SWAP1 JUMP JUMPDEST PUSH1 0x20 SWAP1 DUP2 PUSH1 0x40 DUP2 DUP4 ADD SWAP3 DUP3 DUP2 MSTORE DUP6 MLOAD DUP1 SWAP5 MSTORE ADD SWAP4 ADD SWAP2 PUSH1 0x0 JUMPDEST DUP3 DUP2 LT PUSH2 0x17CA JUMPI POP POP POP POP SWAP1 JUMP JUMPDEST DUP4 MLOAD DUP6 MSTORE SWAP4 DUP2 ADD SWAP4 SWAP3 DUP2 ADD SWAP3 PUSH1 0x1 ADD PUSH2 0x17BC JUMP JUMPDEST DUP1 SLOAD DUP3 LT ISZERO PUSH2 0x17F6 JUMPI PUSH1 0x0 MSTORE PUSH1 0x20 PUSH1 0x0 KECCAK256 ADD SWAP1 PUSH1 0x0 SWAP1 JUMP JUMPDEST PUSH4 0x4E487B71 PUSH1 0xE0 SHL PUSH1 0x0 MSTORE PUSH1 0x32 PUSH1 0x4 MSTORE PUSH1 0x24 PUSH1 0x0 REVERT JUMPDEST PUSH1 0x6 SLOAD PUSH1 0x1 PUSH1 0x1 PUSH1 0xA0 SHL SUB AND CALLER SUB PUSH2 0x1820 JUMPI JUMP JUMPDEST PUSH1 0x64 PUSH1 0x40 MLOAD PUSH3 0x461BCD PUSH1 0xE5 SHL DUP2 MSTORE PUSH1 0x20 PUSH1 0x4 DUP3 ADD MSTORE PUSH1 0x20 PUSH1 0x24 DUP3 ADD MSTORE PUSH32 0x4F776E61626C653A2063616C6C6572206973206E6F7420746865206F776E6572 PUSH1 0x44 DUP3 ADD MSTORE REVERT JUMPDEST ISZERO PUSH2 0x186B JUMPI JUMP JUMPDEST PUSH1 0x40 MLOAD PUSH3 0x461BCD PUSH1 0xE5 SHL DUP2 MSTORE PUSH1 0x20 PUSH1 0x4 DUP3 ADD MSTORE PUSH1 0x18 PUSH1 0x24 DUP3 ADD MSTORE PUSH32 0x4552433732313A20696E76616C696420746F6B656E2049440000000000000000 PUSH1 0x44 DUP3 ADD MSTORE PUSH1 0x64 SWAP1 REVERT JUMPDEST PUSH1 0x0 SWAP1 DUP2 MSTORE PUSH1 0x2 PUSH1 0x20 MSTORE PUSH1 0x40 SWAP1 KECCAK256 SLOAD PUSH1 0x1 PUSH1 0x1 PUSH1 0xA0 SHL SUB AND PUSH2 0x17A0 DUP2 ISZERO ISZERO PUSH2 0x1864 JUMP JUMPDEST PUSH1 0x0 DUP2 DUP2 MSTORE PUSH1 0x2 PUSH1 0x20 MSTORE PUSH1 0x40 SWAP1 KECCAK256 SLOAD PUSH2 0x18F6 SWAP1 PUSH1 0x1 PUSH1 0x1 PUSH1 0xA0 SHL SUB AND ISZERO ISZERO PUSH2 0x1864 JUMP JUMPDEST PUSH1 0x0 SWAP1 DUP2 MSTORE PUSH1 0x4 PUSH1 0x20 MSTORE PUSH1 0x40 SWAP1 KECCAK256 SLOAD PUSH1 0x1 PUSH1 0x1 PUSH1 0xA0 SHL SUB AND SWAP1 JUMP JUMPDEST ISZERO PUSH2 0x1918 JUMPI JUMP JUMPDEST PUSH1 0x40 MLOAD PUSH3 0x461BCD PUSH1 0xE5 SHL DUP2 MSTORE PUSH1 0x20 PUSH1 0x4 DUP3 ADD MSTORE PUSH1 0x2D PUSH1 0x24 DUP3 ADD MSTORE PUSH32 0x4552433732313A2063616C6C6572206973206E6F7420746F6B656E206F776E65 PUSH1 0x44 DUP3 ADD MSTORE PUSH13 0x1C881BDC88185C1C1C9BDD9959 PUSH1 0x9A SHL PUSH1 0x64 DUP3 ADD MSTORE PUSH1 0x84 SWAP1 REVERT JUMPDEST PUSH1 0x80 SWAP1 PUSH1 0x20 DUP2 MSTORE PUSH1 0x32 PUSH1 0x20 DUP3 ADD MSTORE PUSH32 0x4552433732313A207472616E7366657220746F206E6F6E204552433732315265 PUSH1 0x40 DUP3 ADD MSTORE PUSH18 0x31B2B4BB32B91034B6B83632B6B2B73A32B9 PUSH1 0x71 SHL PUSH1 0x60 DUP3 ADD MSTORE ADD SWAP1 JUMP JUMPDEST ISZERO PUSH2 0x19CD JUMPI JUMP JUMPDEST PUSH1 0x40 MLOAD PUSH3 0x461BCD PUSH1 0xE5 SHL DUP2 MSTORE DUP1 PUSH2 0x19E6 PUSH1 0x4 DUP3 ADD PUSH2 0x1973 JUMP JUMPDEST SUB SWAP1 REVERT JUMPDEST SWAP1 PUSH1 0x1 PUSH1 0x1 PUSH1 0xA0 SHL SUB DUP1 DUP1 PUSH2 0x19FE DUP5 PUSH2 0x18B0 JUMP JUMPDEST AND SWAP4 AND SWAP2 DUP4 DUP4 EQ SWAP4 DUP5 ISZERO PUSH2 0x1A31 JUMPI JUMPDEST POP DUP4 ISZERO PUSH2 0x1A1B JUMPI JUMPDEST POP POP POP SWAP1 JUMP JUMPDEST PUSH2 0x1A27 SWAP2 SWAP3 SWAP4 POP PUSH2 0x18D3 JUMP JUMPDEST AND EQ CODESIZE DUP1 DUP1 PUSH2 0x1A15 JUMP JUMPDEST SWAP1 SWAP4 POP PUSH1 0x0 MSTORE PUSH1 0x5 PUSH1 0x20 MSTORE PUSH1 0x40 PUSH1 0x0 KECCAK256 DUP3 PUSH1 0x0 MSTORE PUSH1 0x20 MSTORE PUSH1 0xFF PUSH1 0x40 PUSH1 0x0 KECCAK256 SLOAD AND SWAP3 CODESIZE PUSH2 0x1A0D JUMP JUMPDEST ISZERO PUSH2 0x1A5F JUMPI JUMP JUMPDEST PUSH1 0x40 MLOAD PUSH3 0x461BCD PUSH1 0xE5 SHL DUP2 MSTORE PUSH1 0x20 PUSH1 0x4 DUP3 ADD MSTORE PUSH1 0x25 PUSH1 0x24 DUP3 ADD MSTORE PUSH32 0x4552433732313A207472616E736665722066726F6D20696E636F727265637420 PUSH1 0x44 DUP3 ADD MSTORE PUSH5 0x37BBB732B9 PUSH1 0xD9 SHL PUSH1 0x64 DUP3 ADD MSTORE PUSH1 0x84 SWAP1 REVERT JUMPDEST SWAP1 PUSH2 0x1ADA SWAP2 PUSH2 0x1AC0 DUP5 PUSH2 0x18B0 JUMP JUMPDEST PUSH1 0x1 PUSH1 0x1 PUSH1 0xA0 SHL SUB SWAP4 SWAP2 DUP5 AND SWAP3 DUP5 SWAP3 SWAP1 SWAP2 DUP4 AND DUP5 EQ PUSH2 0x1A58 JUMP JUMPDEST AND SWAP2 DUP3 ISZERO PUSH2 0x1C99 JUMPI DUP2 PUSH2 0x1B81 JUMPI JUMPDEST PUSH1 0x0 DUP1 MLOAD PUSH1 0x20 PUSH2 0x209D DUP4 CODECOPY DUP2 MLOAD SWAP2 MSTORE SWAP1 PUSH2 0x1B24 DUP4 PUSH1 0x0 SWAP3 DUP7 DUP5 MSTORE PUSH1 0xA PUSH1 0x20 MSTORE PUSH2 0x1B14 DUP9 PUSH1 0x40 DUP7 KECCAK256 PUSH2 0x1FE9 JUMP JUMPDEST PUSH2 0x1B1D DUP9 PUSH2 0x18B0 JUMP JUMPDEST AND EQ PUSH2 0x1A58 JUMP JUMPDEST DUP5 DUP2 MSTORE PUSH1 0x4 PUSH1 0x20 MSTORE PUSH1 0x40 DUP2 KECCAK256 PUSH12 0xFFFFFFFFFFFFFFFFFFFFFFFF PUSH1 0xA0 SHL SWAP1 DUP2 DUP2 SLOAD AND SWAP1 SSTORE DUP4 DUP3 MSTORE PUSH1 0x3 PUSH1 0x20 MSTORE PUSH1 0x40 DUP3 KECCAK256 PUSH1 0x0 NOT DUP2 SLOAD ADD SWAP1 SSTORE DUP5 DUP3 MSTORE PUSH1 0x40 DUP3 KECCAK256 PUSH1 0x1 DUP2 SLOAD ADD SWAP1 SSTORE DUP6 DUP3 MSTORE PUSH1 0x2 PUSH1 0x20 MSTORE DUP5 PUSH1 0x40 DUP4 KECCAK256 SWAP2 DUP3 SLOAD AND OR SWAP1 SSTORE DUP1 LOG4 JUMP JUMPDEST SWAP3 SWAP2 SWAP1 PUSH1 0x0 SWAP4 DUP2 DUP6 MSTORE PUSH1 0xA PUSH1 0x20 MSTORE PUSH1 0x40 DUP6 KECCAK256 DUP6 JUMPDEST DUP2 SLOAD DUP1 DUP3 LT ISZERO PUSH2 0x1C7D JUMPI DUP7 SWAP1 PUSH2 0x1BAB DUP4 DUP6 PUSH2 0x17DE JUMP JUMPDEST SWAP3 SWAP1 SLOAD PUSH1 0x3 SWAP4 DUP5 SHL SHR EQ PUSH2 0x1BC9 JUMPI POP POP PUSH2 0x1BC4 SWAP1 PUSH2 0x1E91 JUMP JUMPDEST PUSH2 0x1B95 JUMP JUMPDEST SWAP2 PUSH1 0x0 SWAP9 SWAP2 SWAP5 SWAP6 SWAP7 SWAP8 SWAP9 NOT SWAP3 DUP4 DUP2 ADD SWAP1 DUP2 GT PUSH2 0x1C69 JUMPI SWAP1 PUSH2 0x1BFD PUSH2 0x1BF0 PUSH2 0x1C16 SWAP4 DUP8 PUSH2 0x17DE JUMP JUMPDEST SWAP1 SLOAD SWAP1 DUP9 SHL SHR SWAP2 DUP7 PUSH2 0x17DE JUMP JUMPDEST SWAP1 SWAP2 SWAP1 DUP3 SLOAD SWAP1 PUSH1 0x3 SHL SWAP2 DUP3 SHL SWAP2 PUSH1 0x0 NOT SWAP1 SHL NOT AND OR SWAP1 SSTORE JUMP JUMPDEST DUP3 SLOAD SWAP1 DUP2 ISZERO PUSH2 0x1C55 JUMPI POP SWAP1 DUP1 PUSH1 0x0 DUP1 MLOAD PUSH1 0x20 PUSH2 0x209D DUP4 CODECOPY DUP2 MLOAD SWAP2 MSTORE SWAP6 SWAP5 SWAP4 SWAP3 ADD SWAP3 PUSH2 0x1C41 DUP5 DUP5 PUSH2 0x17DE JUMP JUMPDEST DUP2 SWAP4 SWAP2 SLOAD SWAP3 SHL SHL NOT AND SWAP1 SSTORE SSTORE JUMPDEST SWAP1 POP PUSH2 0x1AE8 JUMP JUMPDEST PUSH4 0x4E487B71 PUSH1 0xE0 SHL DUP2 MSTORE PUSH1 0x31 PUSH1 0x4 MSTORE PUSH1 0x24 SWAP1 REVERT JUMPDEST PUSH4 0x4E487B71 PUSH1 0xE0 SHL DUP4 MSTORE PUSH1 0x11 PUSH1 0x4 MSTORE PUSH1 0x24 DUP4 REVERT JUMPDEST POP POP POP PUSH1 0x0 DUP1 MLOAD PUSH1 0x20 PUSH2 0x209D DUP4 CODECOPY DUP2 MLOAD SWAP2 MSTORE SWAP2 SWAP3 SWAP4 SWAP5 POP PUSH2 0x1C4E JUMP JUMPDEST PUSH1 0x40 MLOAD PUSH3 0x461BCD PUSH1 0xE5 SHL DUP2 MSTORE PUSH1 0x20 PUSH1 0x4 DUP3 ADD MSTORE PUSH1 0x24 DUP1 DUP3 ADD MSTORE PUSH32 0x4552433732313A207472616E7366657220746F20746865207A65726F20616464 PUSH1 0x44 DUP3 ADD MSTORE PUSH4 0x72657373 PUSH1 0xE0 SHL PUSH1 0x64 DUP3 ADD MSTORE PUSH1 0x84 SWAP1 REVERT JUMPDEST SWAP2 SWAP3 PUSH1 0x0 SWAP3 SWAP1 SWAP2 SWAP1 DUP1 EXTCODESIZE ISZERO PUSH2 0x1DFC JUMPI PUSH2 0x1D38 SWAP5 PUSH1 0x40 MLOAD DUP1 SWAP3 PUSH4 0xA85BD01 PUSH1 0xE1 SHL SWAP5 DUP6 DUP4 MSTORE CALLER PUSH1 0x4 DUP5 ADD MSTORE DUP8 PUSH1 0x24 DUP5 ADD MSTORE PUSH1 0x44 DUP4 ADD MSTORE PUSH1 0x80 PUSH1 0x64 DUP4 ADD MSTORE DUP2 DUP8 DUP2 PUSH1 0x20 SWAP11 DUP12 SWAP7 PUSH1 0x84 DUP4 ADD SWAP1 PUSH2 0x145A JUMP JUMPDEST SUB SWAP3 PUSH1 0x1 PUSH1 0x1 PUSH1 0xA0 SHL SUB AND GAS CALL DUP5 SWAP2 DUP2 PUSH2 0x1DBC JUMPI JUMPDEST POP PUSH2 0x1DAB JUMPI POP POP POP RETURNDATASIZE PUSH1 0x0 EQ PUSH2 0x1DA3 JUMPI RETURNDATASIZE PUSH2 0x1D67 DUP2 PUSH2 0x1732 JUMP JUMPDEST SWAP1 PUSH2 0x1D75 PUSH1 0x40 MLOAD SWAP3 DUP4 PUSH2 0x1599 JUMP JUMPDEST DUP2 MSTORE DUP1 SWAP2 DUP4 RETURNDATASIZE SWAP3 ADD RETURNDATACOPY JUMPDEST DUP1 MLOAD SWAP2 DUP3 PUSH2 0x1DA0 JUMPI PUSH1 0x40 MLOAD PUSH3 0x461BCD PUSH1 0xE5 SHL DUP2 MSTORE DUP1 PUSH2 0x19E6 PUSH1 0x4 DUP3 ADD PUSH2 0x1973 JUMP JUMPDEST ADD REVERT JUMPDEST POP PUSH1 0x60 PUSH2 0x1D7F JUMP JUMPDEST PUSH1 0x1 PUSH1 0x1 PUSH1 0xE0 SHL SUB NOT AND EQ SWAP3 POP SWAP1 POP JUMP JUMPDEST SWAP1 SWAP2 POP DUP6 DUP2 DUP2 RETURNDATASIZE DUP4 GT PUSH2 0x1DF5 JUMPI JUMPDEST PUSH2 0x1DD4 DUP2 DUP4 PUSH2 0x1599 JUMP JUMPDEST DUP2 ADD SUB SLT PUSH2 0x595 JUMPI MLOAD PUSH1 0x1 PUSH1 0x1 PUSH1 0xE0 SHL SUB NOT DUP2 AND DUP2 SUB PUSH2 0x595 JUMPI SWAP1 CODESIZE PUSH2 0x1D4D JUMP JUMPDEST POP RETURNDATASIZE PUSH2 0x1DCA JUMP JUMPDEST POP POP SWAP2 POP POP PUSH1 0x1 SWAP1 JUMP JUMPDEST SWAP3 SWAP4 PUSH1 0x0 SWAP4 SWAP1 SWAP3 SWAP2 DUP1 EXTCODESIZE ISZERO PUSH2 0x1E86 JUMPI SWAP5 DUP5 SWAP2 PUSH2 0x1E60 SWAP7 PUSH1 0x40 MLOAD DUP1 SWAP5 DUP2 SWAP4 PUSH4 0xA85BD01 PUSH1 0xE1 SHL SWAP8 DUP9 DUP5 MSTORE CALLER PUSH1 0x4 DUP6 ADD MSTORE PUSH1 0x1 DUP1 PUSH1 0xA0 SHL SUB DUP1 SWAP3 AND PUSH1 0x24 DUP6 ADD MSTORE PUSH1 0x44 DUP5 ADD MSTORE PUSH1 0x80 PUSH1 0x64 DUP5 ADD MSTORE DUP3 PUSH1 0x20 SWAP12 DUP13 SWAP8 PUSH1 0x84 DUP4 ADD SWAP1 PUSH2 0x145A JUMP JUMPDEST SUB SWAP4 AND GAS CALL DUP5 SWAP2 DUP2 PUSH2 0x1DBC JUMPI POP PUSH2 0x1DAB JUMPI POP POP POP RETURNDATASIZE PUSH1 0x0 EQ PUSH2 0x1DA3 JUMPI RETURNDATASIZE PUSH2 0x1D67 DUP2 PUSH2 0x1732 JUMP JUMPDEST POP POP POP SWAP2 POP POP PUSH1 0x1 SWAP1 JUMP JUMPDEST PUSH1 0x0 NOT DUP2 EQ PUSH2 0x1EA0 JUMPI PUSH1 0x1 ADD SWAP1 JUMP JUMPDEST PUSH4 0x4E487B71 PUSH1 0xE0 SHL PUSH1 0x0 MSTORE PUSH1 0x11 PUSH1 0x4 MSTORE PUSH1 0x24 PUSH1 0x0 REVERT JUMPDEST SWAP1 DUP1 DUP3 EQ PUSH2 0x1FE5 JUMPI PUSH2 0x1EC8 DUP2 SLOAD PUSH2 0x14F4 JUMP JUMPDEST SWAP1 PUSH8 0xFFFFFFFFFFFFFFFF DUP3 GT PUSH2 0x154B JUMPI DUP2 SWAP1 PUSH2 0x1EE4 DUP5 SLOAD PUSH2 0x14F4 JUMP JUMPDEST PUSH1 0x1F DUP2 GT PUSH2 0x1F91 JUMPI JUMPDEST POP PUSH1 0x0 SWAP1 PUSH1 0x1F DUP4 GT PUSH1 0x1 EQ PUSH2 0x1F25 JUMPI PUSH1 0x0 SWAP3 PUSH2 0x1F1A JUMPI JUMPDEST POP POP DUP2 PUSH1 0x1 SHL SWAP2 PUSH1 0x0 NOT SWAP1 PUSH1 0x3 SHL SHR NOT AND OR SWAP1 SSTORE JUMP JUMPDEST ADD SLOAD SWAP1 POP CODESIZE DUP1 PUSH2 0x1F04 JUMP JUMPDEST DUP2 MSTORE PUSH1 0x20 DUP1 DUP3 KECCAK256 DUP6 DUP4 MSTORE DUP2 DUP4 KECCAK256 SWAP4 POP SWAP1 PUSH1 0x1F NOT DUP6 AND SWAP1 DUP4 SWAP1 JUMPDEST DUP3 DUP3 LT PUSH2 0x1F78 JUMPI POP POP SWAP1 DUP5 PUSH1 0x1 SWAP6 SWAP5 SWAP4 SWAP3 LT PUSH2 0x1F5F JUMPI JUMPDEST POP POP POP DUP2 SHL ADD SWAP1 SSTORE JUMP JUMPDEST ADD SLOAD PUSH1 0x0 NOT PUSH1 0xF8 DUP5 PUSH1 0x3 SHL AND SHR NOT AND SWAP1 SSTORE CODESIZE DUP1 DUP1 PUSH2 0x1F55 JUMP JUMPDEST DUP5 SWAP6 DUP2 SWAP3 SWAP6 DUP6 ADD SLOAD DUP2 SSTORE PUSH1 0x1 DUP1 SWAP2 ADD SWAP7 ADD SWAP5 ADD SWAP1 PUSH2 0x1F3E JUMP JUMPDEST SWAP1 SWAP2 POP PUSH1 0x0 DUP5 DUP2 MSTORE PUSH1 0x20 DUP2 KECCAK256 PUSH1 0x1F DUP6 ADD PUSH1 0x5 SHR DUP2 ADD SWAP3 PUSH1 0x20 DUP7 LT PUSH2 0x1FDB JUMPI JUMPDEST SWAP1 PUSH1 0x1F DUP7 SWAP6 SWAP5 SWAP4 SWAP3 ADD PUSH1 0x5 SHR ADD SWAP2 JUMPDEST DUP3 DUP2 LT PUSH2 0x1FCD JUMPI POP POP PUSH2 0x1EED JUMP JUMPDEST DUP2 DUP2 SSTORE DUP6 SWAP5 POP PUSH1 0x1 ADD PUSH2 0x1FBF JUMP JUMPDEST SWAP1 SWAP3 POP DUP3 SWAP1 PUSH2 0x1FB0 JUMP JUMPDEST POP POP JUMP JUMPDEST SWAP1 DUP2 SLOAD SWAP2 PUSH9 0x10000000000000000 DUP4 LT ISZERO PUSH2 0x154B JUMPI DUP3 PUSH2 0x1BFD SWAP2 PUSH1 0x1 PUSH2 0x15F9 SWAP6 ADD DUP2 SSTORE PUSH2 0x17DE JUMP JUMPDEST ISZERO PUSH2 0x2018 JUMPI JUMP JUMPDEST PUSH1 0x40 MLOAD PUSH3 0x461BCD PUSH1 0xE5 SHL DUP2 MSTORE PUSH1 0x20 PUSH1 0x4 DUP3 ADD MSTORE PUSH1 0x1C PUSH1 0x24 DUP3 ADD MSTORE PUSH32 0x4552433732313A20746F6B656E20616C7265616479206D696E74656400000000 PUSH1 0x44 DUP3 ADD MSTORE PUSH1 0x64 SWAP1 REVERT JUMPDEST PUSH1 0x40 MLOAD SWAP1 PUSH2 0x206A DUP3 PUSH2 0x1561 JUMP JUMPDEST DUP2 PUSH1 0xA0 PUSH1 0x0 SWAP2 DUP3 DUP2 MSTORE DUP3 PUSH1 0x20 DUP3 ADD MSTORE DUP3 PUSH1 0x40 DUP3 ADD MSTORE DUP3 PUSH1 0x60 DUP3 ADD MSTORE DUP3 PUSH1 0x80 DUP3 ADD MSTORE ADD MSTORE JUMP JUMPDEST SWAP2 SWAP1 DUP3 ADD DUP1 SWAP3 GT PUSH2 0x1EA0 JUMPI JUMP INVALID 0xDD CALLCODE MSTORE 0xAD SHL 0xE2 0xC8 SWAP12 PUSH10 0xC2B068FC378DAA952BA7 CALL PUSH4 0xC4A11628 CREATE2 GAS 0x4D CREATE2 0x23 0xB3 0xEF LOG2 PUSH5 0x6970667358 0x22 SLT KECCAK256 CODESIZE 0xC4 0xE1 ISZERO CALLCODE 0xE5 0xE2 0xC8 0xAF 0xED GT 0xB8 0xAF STOP SWAP2 0xF7 0x4E DUP8 CODESIZE SHR KECCAK256 0xB3 LOG4 0xAD 0xF CALLVALUE LOG1 0xF9 SWAP1 EXTCODESIZE PUSH22 0xE664736F6C63430008130033290DECD9548B62A8D603 GASLIMIT 0xA9 DUP9 CODESIZE PUSH16 0xC84BA6BC95484008F6362F93160EF3E5 PUSH4 0xB10E2D52 PUSH23 0x12073B26EECDFD717E6A320CF44B4AFAC2B0732D9FCBE2 0xB7 STATICCALL 0xC 0xF6 "},"methodIdentifiers":{"approve(address,uint256)":"095ea7b3","balanceOf(address)":"70a08231","calculateTotalUpkeep(uint256)":"dc1a1af7","getApproved(uint256)":"081812fc","getUnitStats(uint256)":"fe401d2f","getUnitsByLand(uint256)":"824cc832","getUnitsByOwner(address)":"a5c9af63","isApprovedForAll(address,address)":"e985e9c5","landNFTAddress()":"8cf6408f","landNFTContract()":"2b359bc5","landToUnits(uint256,uint256)":"9c3eee0c","mintUnit(string,uint256)":"74fd9f72","name()":"06fdde03","nextTokenId()":"75794a3c","owner()":"8da5cb5b","ownerOf(uint256)":"6352211e","ownerToUnits(address,uint256)":"83233ed4","renounceOwnership()":"715018a6","safeTransferFrom(address,address,uint256)":"42842e0e","safeTransferFrom(address,address,uint256,bytes)":"b88d4fde","setApprovalForAll(address,bool)":"a22cb465","setUnitActiveStatus(uint256,bool)":"59aa021b","supportsInterface(bytes4)":"01ffc9a7","symbol()":"95d89b41","tokenIdToUnit(uint256)":"7253305e","tokenURI(uint256)":"c87b56dd","transferFrom(address,address,uint256)":"23b872dd","transferOwnership(address)":"f2fde38b","unitToLand(uint256)":"9d5ffdc8","unitTypes(string)":"c366ab9d"}}}}}