{
  "_format": "hh-sol-artifact-1",
  "contractName": "MarketContract",
  "sourceName": "contracts/marketcontract.sol",
  "abi": [
    {
      "inputs": [
        {
          "internalType": "address",
          "name": "_erc20Token",
          "type": "address"
        },
        {
          "internalType": "address",
          "name": "_landNFT",
          "type": "address"
        }
      ],
      "stateMutability": "nonpayable",
      "type": "constructor"
    },
    {
      "anonymous": false,
      "inputs": [
        {
          "indexed": true,
          "internalType": "address",
          "name": "owner",
          "type": "address"
        },
        {
          "indexed": false,
          "internalType": "uint256",
          "name": "amount",
          "type": "uint256"
        }
      ],
      "name": "ERC20Withdrawn",
      "type": "event"
    },
    {
      "anonymous": false,
      "inputs": [
        {
          "indexed": true,
          "internalType": "address",
          "name": "previousOwner",
          "type": "address"
        },
        {
          "indexed": true,
          "internalType": "address",
          "name": "newOwner",
          "type": "address"
        }
      ],
      "name": "OwnershipTransferred",
      "type": "event"
    },
    {
      "anonymous": false,
      "inputs": [
        {
          "components": [
            {
              "internalType": "uint256",
              "name": "foodPrice",
              "type": "uint256"
            },
            {
              "internalType": "uint256",
              "name": "woodPrice",
              "type": "uint256"
            },
            {
              "internalType": "uint256",
              "name": "stonePrice",
              "type": "uint256"
            },
            {
              "internalType": "uint256",
              "name": "brassPrice",
              "type": "uint256"
            },
            {
              "internalType": "uint256",
              "name": "ironPrice",
              "type": "uint256"
            },
            {
              "internalType": "uint256",
              "name": "goldPrice",
              "type": "uint256"
            }
          ],
          "indexed": false,
          "internalType": "struct MarketContract.ResourcePrice",
          "name": "newPrices",
          "type": "tuple"
        }
      ],
      "name": "ResourcePricesUpdated",
      "type": "event"
    },
    {
      "anonymous": false,
      "inputs": [
        {
          "indexed": true,
          "internalType": "address",
          "name": "buyer",
          "type": "address"
        },
        {
          "indexed": true,
          "internalType": "uint256",
          "name": "tokenId",
          "type": "uint256"
        },
        {
          "components": [
            {
              "internalType": "uint256",
              "name": "food",
              "type": "uint256"
            },
            {
              "internalType": "uint256",
              "name": "wood",
              "type": "uint256"
            },
            {
              "internalType": "uint256",
              "name": "stone",
              "type": "uint256"
            },
            {
              "internalType": "uint256",
              "name": "brass",
              "type": "uint256"
            },
            {
              "internalType": "uint256",
              "name": "iron",
              "type": "uint256"
            },
            {
              "internalType": "uint256",
              "name": "gold",
              "type": "uint256"
            }
          ],
          "indexed": false,
          "internalType": "struct DataTypes.Resources",
          "name": "resources",
          "type": "tuple"
        },
        {
          "indexed": false,
          "internalType": "uint256",
          "name": "totalCost",
          "type": "uint256"
        }
      ],
      "name": "ResourcesPurchased",
      "type": "event"
    },
    {
      "inputs": [
        {
          "internalType": "uint256",
          "name": "tokenId",
          "type": "uint256"
        },
        {
          "components": [
            {
              "internalType": "uint256",
              "name": "food",
              "type": "uint256"
            },
            {
              "internalType": "uint256",
              "name": "wood",
              "type": "uint256"
            },
            {
              "internalType": "uint256",
              "name": "stone",
              "type": "uint256"
            },
            {
              "internalType": "uint256",
              "name": "brass",
              "type": "uint256"
            },
            {
              "internalType": "uint256",
              "name": "iron",
              "type": "uint256"
            },
            {
              "internalType": "uint256",
              "name": "gold",
              "type": "uint256"
            }
          ],
          "internalType": "struct DataTypes.Resources",
          "name": "desiredResources",
          "type": "tuple"
        }
      ],
      "name": "buyResources",
      "outputs": [],
      "stateMutability": "nonpayable",
      "type": "function"
    },
    {
      "inputs": [],
      "name": "erc20Token",
      "outputs": [
        {
          "internalType": "contract IERC20",
          "name": "",
          "type": "address"
        }
      ],
      "stateMutability": "view",
      "type": "function"
    },
    {
      "inputs": [],
      "name": "getResourcePrices",
      "outputs": [
        {
          "components": [
            {
              "internalType": "uint256",
              "name": "foodPrice",
              "type": "uint256"
            },
            {
              "internalType": "uint256",
              "name": "woodPrice",
              "type": "uint256"
            },
            {
              "internalType": "uint256",
              "name": "stonePrice",
              "type": "uint256"
            },
            {
              "internalType": "uint256",
              "name": "brassPrice",
              "type": "uint256"
            },
            {
              "internalType": "uint256",
              "name": "ironPrice",
              "type": "uint256"
            },
            {
              "internalType": "uint256",
              "name": "goldPrice",
              "type": "uint256"
            }
          ],
          "internalType": "struct MarketContract.ResourcePrice",
          "name": "",
          "type": "tuple"
        }
      ],
      "stateMutability": "view",
      "type": "function"
    },
    {
      "inputs": [],
      "name": "landNFT",
      "outputs": [
        {
          "internalType": "contract ILandNFT",
          "name": "",
          "type": "address"
        }
      ],
      "stateMutability": "view",
      "type": "function"
    },
    {
      "inputs": [],
      "name": "owner",
      "outputs": [
        {
          "internalType": "address",
          "name": "",
          "type": "address"
        }
      ],
      "stateMutability": "view",
      "type": "function"
    },
    {
      "inputs": [],
      "name": "renounceOwnership",
      "outputs": [],
      "stateMutability": "nonpayable",
      "type": "function"
    },
    {
      "inputs": [],
      "name": "resourcePrice",
      "outputs": [
        {
          "internalType": "uint256",
          "name": "foodPrice",
          "type": "uint256"
        },
        {
          "internalType": "uint256",
          "name": "woodPrice",
          "type": "uint256"
        },
        {
          "internalType": "uint256",
          "name": "stonePrice",
          "type": "uint256"
        },
        {
          "internalType": "uint256",
          "name": "brassPrice",
          "type": "uint256"
        },
        {
          "internalType": "uint256",
          "name": "ironPrice",
          "type": "uint256"
        },
        {
          "internalType": "uint256",
          "name": "goldPrice",
          "type": "uint256"
        }
      ],
      "stateMutability": "view",
      "type": "function"
    },
    {
      "inputs": [
        {
          "internalType": "uint256",
          "name": "_foodPrice",
          "type": "uint256"
        },
        {
          "internalType": "uint256",
          "name": "_woodPrice",
          "type": "uint256"
        },
        {
          "internalType": "uint256",
          "name": "_stonePrice",
          "type": "uint256"
        },
        {
          "internalType": "uint256",
          "name": "_brassPrice",
          "type": "uint256"
        },
        {
          "internalType": "uint256",
          "name": "_ironPrice",
          "type": "uint256"
        },
        {
          "internalType": "uint256",
          "name": "_goldPrice",
          "type": "uint256"
        }
      ],
      "name": "setResourcePrices",
      "outputs": [],
      "stateMutability": "nonpayable",
      "type": "function"
    },
    {
      "inputs": [
        {
          "internalType": "address",
          "name": "newOwner",
          "type": "address"
        }
      ],
      "name": "transferOwnership",
      "outputs": [],
      "stateMutability": "nonpayable",
      "type": "function"
    },
    {
      "inputs": [],
      "name": "withdrawAllERC20",
      "outputs": [],
      "stateMutability": "nonpayable",
      "type": "function"
    },
    {
      "inputs": [
        {
          "internalType": "uint256",
          "name": "amount",
          "type": "uint256"
        }
      ],
      "name": "withdrawERC20",
      "outputs": [],
      "stateMutability": "nonpayable",
      "type": "function"
    }
  ],
  "bytecode": "0x60c03461017f57601f610fb938819003918201601f19168301916001600160401b0383118484101761018457808492604094855283398101031261017f57610052602061004b8361019a565b920161019a565b60008054336001600160a01b0319821681178355604051946001600160a01b03949385939192918416907f8be0079c531659141344cd1fd0a4f28419497f9722a3daafe3b4186f6b6457e09080a3600180551692831561013d5750169081156100f85760805260a052604051610e0a90816101af82396080518181816101f4015281816104e8015281816105f801526107e2015260a0518181816108080152610a160152f35b60405162461bcd60e51b815260206004820152601760248201527f496e76616c6964204c616e644e465420616464726573730000000000000000006044820152606490fd5b62461bcd60e51b815260206004820152601b60248201527f496e76616c696420455243323020746f6b656e206164647265737300000000006044820152606490fd5b600080fd5b634e487b7160e01b600052604160045260246000fd5b51906001600160a01b038216820361017f5756fe608060408181526004908136101561001657600080fd5b600092833560e01c90816339d022e114610a02575080636e4740e814610684578063715018a6146106275780638a13eea7146105e35780638a689e81146104ba5780638da5cb5b146104925780638fd4a1ed146103dc578063b833724a1461035b578063d78276c6146101bc578063e4ccfc15146101735763f2fde38b1461009d57600080fd5b3461016f57602036600319011261016f576001600160a01b0382358181169391929084900361016b576100ce610ad0565b8315610119575050600054826bffffffffffffffffffffffff60a01b821617600055167f8be0079c531659141344cd1fd0a4f28419497f9722a3daafe3b4186f6b6457e0600080a380f35b906020608492519162461bcd60e51b8352820152602660248201527f4f776e61626c653a206e6577206f776e657220697320746865207a65726f206160448201526564647265737360d01b6064820152fd5b8480fd5b8280fd5b50903461016f578260031936011261016f5760c09250600254916003549154600554906006549260075494815196875260208701528501526060840152608083015260a0820152f35b508290346103575760208060031936011261016f5783356101db610ad0565b80156103005782516370a0823160e01b815230818701527f0000000000000000000000000000000000000000000000000000000000000000956001600160a01b03918481602481868c165afa9081156102f65790849188916102c0575b501061027d5750610271828697837f7e2c99819371db0a6fc6f4269fe872496e44f502df19ba3eae594b7a159874609798541690610d82565b8554169351908152a280f35b845162461bcd60e51b8152908101849052601a60248201527f496e73756666696369656e742045524332302062616c616e63650000000000006044820152606490fd5b809250868092503d83116102ef575b6102d98183610a77565b810103126102ea5783905189610238565b600080fd5b503d6102cf565b86513d89823e3d90fd5b825162461bcd60e51b8152808601839052602b60248201527f5769746864726177616c20616d6f756e74206d7573742062652067726561746560448201526a72207468616e207a65726f60a81b6064820152608490fd5b5080fd5b503461016f578260031936011261016f578060c09360a06103da935161038081610a45565b828152826020820152828482015282606082015282608082015201528051926103a884610a45565b6002548452600354602085015254818401526005546060840152600654608084015260075460a0840152518092610a99565bf35b50903461016f5760c036600319011261016f577f2368a2aa714d438b66f5f8e70016019544a508f55fd2da080f859726f4990e1a918160c09235916024359060443560643591608435938260a43596610433610ad0565b8760a0855161044181610a45565b8b815285602082015284878201528860608201528960808201520152886002558260035555836005558460065585600755815196875260208701528501526060840152608083015260a0820152a180f35b838234610357578160031936011261035757905490516001600160a01b039091168152602090f35b508290346103575781600319360112610357576104d5610ad0565b80516370a0823160e01b815230818501527f000000000000000000000000000000000000000000000000000000000000000093602091906001600160a01b03908383602481858b165afa9283156105d95786936105aa575b5082156105675750610271828697837f7e2c99819371db0a6fc6f4269fe872496e44f502df19ba3eae594b7a159874609798541690610d82565b845162461bcd60e51b8152908101849052601b60248201527f4e6f20455243323020746f6b656e7320746f20776974686472617700000000006044820152606490fd5b9092508381813d83116105d2575b6105c28183610a77565b810103126102ea5751918761052d565b503d6105b8565b85513d88823e3d90fd5b838234610357578160031936011261035757517f00000000000000000000000000000000000000000000000000000000000000006001600160a01b03168152602090f35b8334610681578060031936011261068157610640610ad0565b600080546001600160a01b0319811682556001600160a01b03167f8be0079c531659141344cd1fd0a4f28419497f9722a3daafe3b4186f6b6457e08280a380f35b80fd5b503461016f5760e036600319011261016f5781359160c03660231901126109fe578151916106b183610a45565b602480358452602084019260443584528285019360649485358152606087016084358152608088019160a435835260a089019360c43585526002600154146109bd5760026001558951158015906109b3575b80156109a9575b801561099f575b8015610995575b801561098b575b1561093e579261076161077c61076194610761610771610787968f6107676107929c9b610761610756610761945160025490610b28565b915160035490610b28565b90610b51565b91518d5490610b28565b915160055490610b28565b915160065490610b28565b915160075490610b28565b9384156108f25783516323b872dd60e01b6020820152338482015230604482015281810186905290815267ffffffffffffffff9060a08101828111828210176108e05789949392916108069187527f0000000000000000000000000000000000000000000000000000000000000000610b5e565b7f00000000000000000000000000000000000000000000000000000000000000006001600160a01b0316803b1561016b57849060e4875180978193639b00600160e01b83528d8884015261085d8d8a850190610a99565b5af180156108d6576108ac575b5050505061087a90518093610a99565b60c08201527f7f58fa204d383445bc73a33d85fd0ca5df7170fe608d00c83bb91326e0e2372f60e03392a36001805580f35b83989498116108c557505085529361087a38808061086a565b634e487b7160e01b84526041905282fd5b85513d8b823e3d90fd5b634e487b7160e01b8a5260418452848afd5b637a65726f60e01b91926020608495519462461bcd60e51b8652850152808401527f546f74616c20636f7374206d7573742062652067726561746572207468616e206044840152820152fd5b875162461bcd60e51b81526020818801526023818901527f4e6f207265736f75726365732073706563696669656420666f7220707572636860448201526261736560e81b818b0152608490fd5b508451151561071f565b5083511515610718565b5082511515610711565b508151151561070a565b5080511515610703565b875162461bcd60e51b8152602081880152601f818901527f5265656e7472616e637947756172643a207265656e7472616e742063616c6c0060448201528990fd5b8380fd5b8490346103575781600319360112610357577f00000000000000000000000000000000000000000000000000000000000000006001600160a01b03168152602090f35b60c0810190811067ffffffffffffffff821117610a6157604052565b634e487b7160e01b600052604160045260246000fd5b90601f8019910116810190811067ffffffffffffffff821117610a6157604052565b60a0809180518452602081015160208501526040810151604085015260608101516060850152608081015160808501520151910152565b6000546001600160a01b03163303610ae457565b606460405162461bcd60e51b815260206004820152602060248201527f4f776e61626c653a2063616c6c6572206973206e6f7420746865206f776e65726044820152fd5b81810292918115918404141715610b3b57565b634e487b7160e01b600052601160045260246000fd5b91908201809211610b3b57565b60018060a01b0316906040516040810167ffffffffffffffff9082811082821117610a61576040526020938483527f5361666545524332303a206c6f772d6c6576656c2063616c6c206661696c6564858401526000808587829751910182855af1903d15610ca3573d928311610c8f5790610bf993929160405192610bec88601f19601f8401160185610a77565b83523d868885013e610cae565b805191821591848315610c6b575b505050905015610c145750565b6084906040519062461bcd60e51b82526004820152602a60248201527f5361666545524332303a204552433230206f7065726174696f6e20646964206e6044820152691bdd081cdd58d8d9595960b21b6064820152fd5b91938180945001031261035757820151908115158203610681575080388084610c07565b634e487b7160e01b85526041600452602485fd5b90610bf99392506060915b91929015610d105750815115610cc2575090565b3b15610ccb5790565b60405162461bcd60e51b815260206004820152601d60248201527f416464726573733a2063616c6c20746f206e6f6e2d636f6e74726163740000006044820152606490fd5b825190915015610d235750805190602001fd5b6040519062461bcd60e51b82528160208060048301528251908160248401526000935b828510610d69575050604492506000838284010152601f80199101168101030190fd5b8481018201518686016044015293810193859350610d46565b60405163a9059cbb60e01b60208201526001600160a01b039092166024830152604480830193909352918152608081019167ffffffffffffffff831182841017610a6157610dd292604052610b5e565b56fea26469706673582212205afebfd1e799c67eca6c3b6efbcc925f6d322a622f07c9dd485fba643b667e2164736f6c63430008130033",
  "linkReferences": {},
  "deployedLinkReferences": {}
}