{
  "_format": "hh-sol-artifact-1",
  "contractName": "ArmyDeck",
  "sourceName": "contracts/ArmyDeck.sol",
  "abi": [
    {
      "inputs": [
        {
          "internalType": "address",
          "name": "_unitNFTAddress",
          "type": "address"
        }
      ],
      "stateMutability": "nonpayable",
      "type": "constructor"
    },
    {
      "anonymous": false,
      "inputs": [
        {
          "indexed": true,
          "internalType": "address",
          "name": "previousOwner",
          "type": "address"
        },
        {
          "indexed": true,
          "internalType": "address",
          "name": "newOwner",
          "type": "address"
        }
      ],
      "name": "OwnershipTransferred",
      "type": "event"
    },
    {
      "anonymous": false,
      "inputs": [
        {
          "indexed": true,
          "internalType": "address",
          "name": "user",
          "type": "address"
        },
        {
          "indexed": false,
          "internalType": "uint256[]",
          "name": "unitIds",
          "type": "uint256[]"
        }
      ],
      "name": "UnitsAddedToDeck",
      "type": "event"
    },
    {
      "anonymous": false,
      "inputs": [
        {
          "indexed": true,
          "internalType": "address",
          "name": "user",
          "type": "address"
        },
        {
          "indexed": false,
          "internalType": "uint256[]",
          "name": "unitIds",
          "type": "uint256[]"
        }
      ],
      "name": "UnitsRemovedFromDeck",
      "type": "event"
    },
    {
      "inputs": [],
      "name": "MAX_UNITS_IN_DECK",
      "outputs": [
        {
          "internalType": "uint8",
          "name": "",
          "type": "uint8"
        }
      ],
      "stateMutability": "view",
      "type": "function"
    },
    {
      "inputs": [
        {
          "internalType": "uint256[]",
          "name": "_unitIds",
          "type": "uint256[]"
        }
      ],
      "name": "addUnitsToDeck",
      "outputs": [],
      "stateMutability": "nonpayable",
      "type": "function"
    },
    {
      "inputs": [
        {
          "internalType": "address",
          "name": "_user",
          "type": "address"
        }
      ],
      "name": "getUserDeck",
      "outputs": [
        {
          "internalType": "uint256[]",
          "name": "",
          "type": "uint256[]"
        }
      ],
      "stateMutability": "view",
      "type": "function"
    },
    {
      "inputs": [
        {
          "internalType": "address",
          "name": "_user",
          "type": "address"
        }
      ],
      "name": "getUserDeckUnitDetails",
      "outputs": [
        {
          "internalType": "string[]",
          "name": "names",
          "type": "string[]"
        },
        {
          "internalType": "uint256[]",
          "name": "attacks",
          "type": "uint256[]"
        },
        {
          "internalType": "uint256[]",
          "name": "defenses",
          "type": "uint256[]"
        },
        {
          "internalType": "uint256[]",
          "name": "speeds",
          "type": "uint256[]"
        },
        {
          "internalType": "uint256[]",
          "name": "ranges",
          "type": "uint256[]"
        },
        {
          "internalType": "string[]",
          "name": "abilitiesList",
          "type": "string[]"
        },
        {
          "internalType": "bool[]",
          "name": "isActives",
          "type": "bool[]"
        }
      ],
      "stateMutability": "view",
      "type": "function"
    },
    {
      "inputs": [],
      "name": "owner",
      "outputs": [
        {
          "internalType": "address",
          "name": "",
          "type": "address"
        }
      ],
      "stateMutability": "view",
      "type": "function"
    },
    {
      "inputs": [
        {
          "internalType": "uint256[]",
          "name": "_unitIds",
          "type": "uint256[]"
        }
      ],
      "name": "removeUnitsFromDeck",
      "outputs": [],
      "stateMutability": "nonpayable",
      "type": "function"
    },
    {
      "inputs": [],
      "name": "renounceOwnership",
      "outputs": [],
      "stateMutability": "nonpayable",
      "type": "function"
    },
    {
      "inputs": [
        {
          "internalType": "address",
          "name": "newOwner",
          "type": "address"
        }
      ],
      "name": "transferOwnership",
      "outputs": [],
      "stateMutability": "nonpayable",
      "type": "function"
    },
    {
      "inputs": [],
      "name": "unitNFTContract",
      "outputs": [
        {
          "internalType": "contract IUnitNFT",
          "name": "",
          "type": "address"
        }
      ],
      "stateMutability": "view",
      "type": "function"
    },
    {
      "inputs": [
        {
          "internalType": "address",
          "name": "",
          "type": "address"
        },
        {
          "internalType": "uint256",
          "name": "",
          "type": "uint256"
        }
      ],
      "name": "userDecks",
      "outputs": [
        {
          "internalType": "uint256",
          "name": "",
          "type": "uint256"
        }
      ],
      "stateMutability": "view",
      "type": "function"
    }
  ],
  "bytecode": "0x6080346100a757601f610fab38819003918201601f19168301916001600160401b038311848410176100ac578084926020946040528339810103126100a757516001600160a01b0390818116908190036100a75760005460018060a01b0319903382821617600055604051933391167f8be0079c531659141344cd1fd0a4f28419497f9722a3daafe3b4186f6b6457e0600080a36001541617600155610ee890816100c38239f35b600080fd5b634e487b7160e01b600052604160045260246000fdfe608080604052600436101561001357600080fd5b60003560e01c9081633d3ab78414610a20575080635f45304e146109c8578063715018a61461096f5780637371111a14610946578063822b6eeb146108b75780638da5cb5b1461088e578063bf9ccf3314610483578063c70e116c14610234578063cb0aac281461015b5763f2fde38b1461008d57600080fd5b34610156576020366003190112610156576100a6610a3a565b6100ae610b93565b6001600160a01b0390811690811561010257600054826bffffffffffffffffffffffff60a01b821617600055167f8be0079c531659141344cd1fd0a4f28419497f9722a3daafe3b4186f6b6457e0600080a3005b60405162461bcd60e51b815260206004820152602660248201527f4f776e61626c653a206e6577206f776e657220697320746865207a65726f206160448201526564647265737360d01b6064820152608490fd5b600080fd5b346101565761016936610b46565b610174811515610beb565b3360005260026020526040600020818154106101ef5760005b8281106101cc5760405133907ff9b2e78f75b7ad64bcb8b8cf8464699d454781b15cc208607039aef94ad20c0790806101c7878983610c6c565b0390a2005b806101e56101de6101ea938688610c3a565b3584610d92565b610c2b565b61018d565b60405162461bcd60e51b815260206004820152601860248201527f4e6f7420656e6f75676820756e69747320696e206465636b00000000000000006044820152606490fd5b346101565761024236610b46565b61024d811515610beb565b33600052602060028152604060002090815483810180911161046d576007106104335760005b8381106102ad5760405133907fb148cdf0fdad47346220b5e24963d8928af1ae448bcd673fb30031cdc253dbb590806101c7888a83610c6c565b6102b8818587610c3a565b600180546040516331a9108f60e11b815292356004840181905292602492916001600160a01b0390879083908690829085165afa918215610427576000926103ef575b50339116036103ab5761030e8387610e70565b610370578554916801000000000000000083101561035c57509161033e8261035795946101e59401885587610a50565b90919082549060031b91821b91600019901b1916179055565b610273565b634e487b7160e01b60009081526041600452fd5b60405162461bcd60e51b81526004810186905260148184015273556e697420616c726561647920696e206465636b60601b6044820152606490fd5b60405162461bcd60e51b815260048101869052601a818401527f4e6f7420746865206f776e6572206f66207468697320756e69740000000000006044820152606490fd5b9091508681813d8311610420575b6104078183610c4a565b810103126101565751818116810361015657908a6102fb565b503d6103fd565b6040513d6000823e3d90fd5b6064906040519062461bcd60e51b825260048201526013602482015272111958dac81b1a5b5a5d08195e18d959591959606a1b6044820152fd5b634e487b7160e01b600052601160045260246000fd5b34610156576020366003190112610156576001600160a01b03806104a5610a3a565b16600052600260205260406000206040518082602082945493848152019060005260206000209260005b8181106108755750506104e492500382610c4a565b8051916104f083610cad565b926104fa81610cf7565b61050382610cf7565b61050c83610cf7565b9161051684610cf7565b9361052081610cad565b9561052a82610c95565b97610538604051998a610c4a565b828952601f1961054784610c95565b013660208b013760009160015416915b83811061061357508960e08a6105d28b6105c48c6105b68d6105a88e61059a8f61058c6040519d8d8f9e8f9081520190610ad5565b8c810360208e015290610a7e565b908a820360408c0152610a7e565b9088820360608a0152610a7e565b908682036080880152610a7e565b9084820360a0860152610ad5565b82810360c08401526020808351928381520192019060005b8181106105f8575050500390f35b825115158452859450602093840193909201916001016105ea565b61062381839c969798999c610d29565b51906040519163fe401d2f60e01b83526004830152600082602481875afa918215610427576000926106ea575b5060e0826106df9351610663848a610d29565b5261066e8389610d29565b50602081015161067e848b610d29565b52604081015161068e848c610d29565b52606081015161069e848d610d29565b528d6106af84608084015192610d29565b5260a08101516106bf848e610d29565b526106ca838d610d29565b50015115156106d9828d610d29565b52610c2b565b999695949399610557565b3d9250826000823e6106fc8382610c4a565b602081848101031261015657805167ffffffffffffffff8111610156576101a081830185840103126101565760405193610100850185811067ffffffffffffffff82111761085f576040528183015167ffffffffffffffff81116101565761076b908285019084860101610d3d565b85528282016020818101519087015260408082015190870152606080820151908701526080808201519087015260a001519067ffffffffffffffff8211610156576107bf60c0928286019085870101610d3d565b60a08701528383019084010360bf19011261015657604051918260c081011067ffffffffffffffff60c08501111761085f5760c083810160409081529290910180820151845260e08101516020850152610100810151928401929092526101208201516060840152610140820151608084015261016082015160a0840152840191909152610180015180151581036101565760e080840191909152610650565b634e487b7160e01b600052604160045260246000fd5b84548352600194850194869450602090930192016104cf565b34610156576000366003190112610156576000546040516001600160a01b039091168152602090f35b3461015657602080600319360112610156576001600160a01b036108d9610a3a565b1660005260028152604060002090604051808383829554938481520190600052836000209260005b858282106109305750505061091892500383610c4a565b61092c604051928284938452830190610a7e565b0390f35b8554845260019586019588955093019201610901565b34610156576000366003190112610156576001546040516001600160a01b039091168152602090f35b3461015657600036600319011261015657610988610b93565b600080546001600160a01b0319811682556001600160a01b03167f8be0079c531659141344cd1fd0a4f28419497f9722a3daafe3b4186f6b6457e08280a3005b34610156576040366003190112610156576109e1610a3a565b6001600160a01b031660009081526002602052604090208054602435919082101561015657602091610a1291610a50565b90546040519160031b1c8152f35b346101565760003660031901126101565780600760209252f35b600435906001600160a01b038216820361015657565b8054821015610a685760005260206000200190600090565b634e487b7160e01b600052603260045260246000fd5b90815180825260208080930193019160005b828110610a9e575050505090565b835185529381019392810192600101610a90565b60005b838110610ac55750506000910152565b8181015183820152602001610ab5565b908082519081815260208091019281808460051b8301019501936000915b848310610b035750505050505090565b909192939495848080600193601f1980878303018852601f8c51610b3281518092818752878088019101610ab2565b011601019801930193019194939290610af3565b9060206003198301126101565760043567ffffffffffffffff9283821161015657806023830112156101565781600401359384116101565760248460051b83010111610156576024019190565b6000546001600160a01b03163303610ba757565b606460405162461bcd60e51b815260206004820152602060248201527f4f776e61626c653a2063616c6c6572206973206e6f7420746865206f776e65726044820152fd5b15610bf257565b60405162461bcd60e51b8152602060048201526011602482015270139bc81d5b9a5d1cc81c1c9bdd9a591959607a1b6044820152606490fd5b600019811461046d5760010190565b9190811015610a685760051b0190565b90601f8019910116810190811067ffffffffffffffff82111761085f57604052565b602080825281018390526001600160fb1b0383116101565760409260051b809284830137010190565b67ffffffffffffffff811161085f5760051b60200190565b90610cb782610c95565b610cc46040519182610c4a565b8281528092610cd5601f1991610c95565b019060005b828110610ce657505050565b806060602080938501015201610cda565b90610d0182610c95565b610d0e6040519182610c4a565b8281528092610d1f601f1991610c95565b0190602036910137565b8051821015610a685760209160051b010190565b81601f8201121561015657805167ffffffffffffffff811161085f5760405192610d71601f8301601f191660200185610c4a565b8184526020828401011161015657610d8f9160208085019101610ab2565b90565b9060005b825480821015610e32578290610dac8386610a50565b929054600393841b1c14610dca575050610dc590610c2b565b610d96565b909392506000199182820191821161046d5761033e610dec610df99386610a50565b905490871b1c9185610a50565b81548015610e1c57810192610e0e8484610a50565b81939154921b1b1916905555565b634e487b7160e01b600052603160045260246000fd5b60405162461bcd60e51b8152602060048201526016602482015275556e6974206e6f7420666f756e6420696e206465636b60501b6044820152606490fd5b9060005b8254811015610eaa5781610e888285610a50565b90549060031b1c14610ea257610e9d90610c2b565b610e74565b505050600190565b50505060009056fea26469706673582212209bb79f18f237c3617dfdadd934035161d14a5992d6d21bf4860d72acb365f82064736f6c63430008130033",
  "linkReferences": {},
  "deployedLinkReferences": {}
}