{
  "_format": "hh-sol-artifact-1",
  "contractName": "BuildingManager",
  "sourceName": "contracts/BuildingManager.sol",
  "abi": [
    {
      "inputs": [],
      "stateMutability": "nonpayable",
      "type": "constructor"
    },
    {
      "anonymous": false,
      "inputs": [
        {
          "indexed": true,
          "internalType": "address",
          "name": "previousOwner",
          "type": "address"
        },
        {
          "indexed": true,
          "internalType": "address",
          "name": "newOwner",
          "type": "address"
        }
      ],
      "name": "OwnershipTransferred",
      "type": "event"
    },
    {
      "inputs": [
        {
          "internalType": "string",
          "name": "",
          "type": "string"
        },
        {
          "internalType": "uint256",
          "name": "",
          "type": "uint256"
        }
      ],
      "name": "availableBuildings",
      "outputs": [
        {
          "internalType": "string",
          "name": "name",
          "type": "string"
        },
        {
          "internalType": "uint256",
          "name": "level",
          "type": "uint256"
        },
        {
          "components": [
            {
              "internalType": "uint256",
              "name": "food",
              "type": "uint256"
            },
            {
              "internalType": "uint256",
              "name": "wood",
              "type": "uint256"
            },
            {
              "internalType": "uint256",
              "name": "stone",
              "type": "uint256"
            },
            {
              "internalType": "uint256",
              "name": "brass",
              "type": "uint256"
            },
            {
              "internalType": "uint256",
              "name": "iron",
              "type": "uint256"
            },
            {
              "internalType": "uint256",
              "name": "gold",
              "type": "uint256"
            }
          ],
          "internalType": "struct DataTypes.Resources",
          "name": "baseCost",
          "type": "tuple"
        },
        {
          "components": [
            {
              "internalType": "uint256",
              "name": "food",
              "type": "uint256"
            },
            {
              "internalType": "uint256",
              "name": "wood",
              "type": "uint256"
            },
            {
              "internalType": "uint256",
              "name": "stone",
              "type": "uint256"
            },
            {
              "internalType": "uint256",
              "name": "brass",
              "type": "uint256"
            },
            {
              "internalType": "uint256",
              "name": "iron",
              "type": "uint256"
            },
            {
              "internalType": "uint256",
              "name": "gold",
              "type": "uint256"
            }
          ],
          "internalType": "struct DataTypes.Resources",
          "name": "upkeepCost",
          "type": "tuple"
        },
        {
          "internalType": "uint256",
          "name": "productionBoost",
          "type": "uint256"
        },
        {
          "internalType": "uint256",
          "name": "happinessBoost",
          "type": "uint256"
        },
        {
          "internalType": "uint256",
          "name": "technologyBoost",
          "type": "uint256"
        },
        {
          "internalType": "uint256",
          "name": "pietyBoost",
          "type": "uint256"
        },
        {
          "internalType": "uint256",
          "name": "strengthBoost",
          "type": "uint256"
        },
        {
          "components": [
            {
              "internalType": "uint256",
              "name": "foodPerEpoch",
              "type": "uint256"
            },
            {
              "internalType": "uint256",
              "name": "woodPerEpoch",
              "type": "uint256"
            },
            {
              "internalType": "uint256",
              "name": "stonePerEpoch",
              "type": "uint256"
            },
            {
              "internalType": "uint256",
              "name": "brassPerEpoch",
              "type": "uint256"
            },
            {
              "internalType": "uint256",
              "name": "ironPerEpoch",
              "type": "uint256"
            },
            {
              "internalType": "uint256",
              "name": "goldPerEpoch",
              "type": "uint256"
            }
          ],
          "internalType": "struct DataTypes.ResourceProduction",
          "name": "resourceProduction",
          "type": "tuple"
        },
        {
          "internalType": "uint256",
          "name": "baseConstructionTime",
          "type": "uint256"
        },
        {
          "internalType": "bool",
          "name": "isAvailable",
          "type": "bool"
        },
        {
          "internalType": "string",
          "name": "imageURI",
          "type": "string"
        }
      ],
      "stateMutability": "view",
      "type": "function"
    },
    {
      "inputs": [
        {
          "components": [
            {
              "internalType": "string",
              "name": "name",
              "type": "string"
            },
            {
              "internalType": "uint256",
              "name": "level",
              "type": "uint256"
            },
            {
              "internalType": "bool",
              "name": "isActive",
              "type": "bool"
            }
          ],
          "internalType": "struct DataTypes.Building[]",
          "name": "buildings",
          "type": "tuple[]"
        },
        {
          "internalType": "uint256",
          "name": "epochsElapsed",
          "type": "uint256"
        }
      ],
      "name": "calculateTotalResourceProduction",
      "outputs": [
        {
          "components": [
            {
              "internalType": "uint256",
              "name": "food",
              "type": "uint256"
            },
            {
              "internalType": "uint256",
              "name": "wood",
              "type": "uint256"
            },
            {
              "internalType": "uint256",
              "name": "stone",
              "type": "uint256"
            },
            {
              "internalType": "uint256",
              "name": "brass",
              "type": "uint256"
            },
            {
              "internalType": "uint256",
              "name": "iron",
              "type": "uint256"
            },
            {
              "internalType": "uint256",
              "name": "gold",
              "type": "uint256"
            }
          ],
          "internalType": "struct DataTypes.Resources",
          "name": "",
          "type": "tuple"
        }
      ],
      "stateMutability": "view",
      "type": "function"
    },
    {
      "inputs": [
        {
          "internalType": "string",
          "name": "buildingName",
          "type": "string"
        },
        {
          "internalType": "uint256",
          "name": "level",
          "type": "uint256"
        }
      ],
      "name": "completeBuildingConstruction",
      "outputs": [
        {
          "internalType": "uint256",
          "name": "productionBoost",
          "type": "uint256"
        },
        {
          "internalType": "uint256",
          "name": "happinessBoost",
          "type": "uint256"
        },
        {
          "internalType": "uint256",
          "name": "strengthBoost",
          "type": "uint256"
        }
      ],
      "stateMutability": "view",
      "type": "function"
    },
    {
      "inputs": [
        {
          "internalType": "string",
          "name": "name",
          "type": "string"
        },
        {
          "internalType": "uint256",
          "name": "level",
          "type": "uint256"
        }
      ],
      "name": "getBuildingInfo",
      "outputs": [
        {
          "components": [
            {
              "internalType": "string",
              "name": "name",
              "type": "string"
            },
            {
              "internalType": "uint256",
              "name": "level",
              "type": "uint256"
            },
            {
              "components": [
                {
                  "internalType": "uint256",
                  "name": "food",
                  "type": "uint256"
                },
                {
                  "internalType": "uint256",
                  "name": "wood",
                  "type": "uint256"
                },
                {
                  "internalType": "uint256",
                  "name": "stone",
                  "type": "uint256"
                },
                {
                  "internalType": "uint256",
                  "name": "brass",
                  "type": "uint256"
                },
                {
                  "internalType": "uint256",
                  "name": "iron",
                  "type": "uint256"
                },
                {
                  "internalType": "uint256",
                  "name": "gold",
                  "type": "uint256"
                }
              ],
              "internalType": "struct DataTypes.Resources",
              "name": "baseCost",
              "type": "tuple"
            },
            {
              "components": [
                {
                  "internalType": "uint256",
                  "name": "food",
                  "type": "uint256"
                },
                {
                  "internalType": "uint256",
                  "name": "wood",
                  "type": "uint256"
                },
                {
                  "internalType": "uint256",
                  "name": "stone",
                  "type": "uint256"
                },
                {
                  "internalType": "uint256",
                  "name": "brass",
                  "type": "uint256"
                },
                {
                  "internalType": "uint256",
                  "name": "iron",
                  "type": "uint256"
                },
                {
                  "internalType": "uint256",
                  "name": "gold",
                  "type": "uint256"
                }
              ],
              "internalType": "struct DataTypes.Resources",
              "name": "upkeepCost",
              "type": "tuple"
            },
            {
              "internalType": "uint256",
              "name": "productionBoost",
              "type": "uint256"
            },
            {
              "internalType": "uint256",
              "name": "happinessBoost",
              "type": "uint256"
            },
            {
              "internalType": "uint256",
              "name": "technologyBoost",
              "type": "uint256"
            },
            {
              "internalType": "uint256",
              "name": "pietyBoost",
              "type": "uint256"
            },
            {
              "internalType": "uint256",
              "name": "strengthBoost",
              "type": "uint256"
            },
            {
              "components": [
                {
                  "internalType": "uint256",
                  "name": "foodPerEpoch",
                  "type": "uint256"
                },
                {
                  "internalType": "uint256",
                  "name": "woodPerEpoch",
                  "type": "uint256"
                },
                {
                  "internalType": "uint256",
                  "name": "stonePerEpoch",
                  "type": "uint256"
                },
                {
                  "internalType": "uint256",
                  "name": "brassPerEpoch",
                  "type": "uint256"
                },
                {
                  "internalType": "uint256",
                  "name": "ironPerEpoch",
                  "type": "uint256"
                },
                {
                  "internalType": "uint256",
                  "name": "goldPerEpoch",
                  "type": "uint256"
                }
              ],
              "internalType": "struct DataTypes.ResourceProduction",
              "name": "resourceProduction",
              "type": "tuple"
            },
            {
              "internalType": "uint256",
              "name": "baseConstructionTime",
              "type": "uint256"
            },
            {
              "internalType": "bool",
              "name": "isAvailable",
              "type": "bool"
            },
            {
              "internalType": "string",
              "name": "imageURI",
              "type": "string"
            }
          ],
          "internalType": "struct BuildingManager.BuildingInfo",
          "name": "",
          "type": "tuple"
        }
      ],
      "stateMutability": "view",
      "type": "function"
    },
    {
      "inputs": [],
      "name": "landNFT",
      "outputs": [
        {
          "internalType": "address",
          "name": "",
          "type": "address"
        }
      ],
      "stateMutability": "view",
      "type": "function"
    },
    {
      "inputs": [],
      "name": "owner",
      "outputs": [
        {
          "internalType": "address",
          "name": "",
          "type": "address"
        }
      ],
      "stateMutability": "view",
      "type": "function"
    },
    {
      "inputs": [],
      "name": "renounceOwnership",
      "outputs": [],
      "stateMutability": "nonpayable",
      "type": "function"
    },
    {
      "inputs": [
        {
          "internalType": "address",
          "name": "_landNFT",
          "type": "address"
        }
      ],
      "name": "setLandNFT",
      "outputs": [],
      "stateMutability": "nonpayable",
      "type": "function"
    },
    {
      "inputs": [
        {
          "internalType": "string",
          "name": "buildingName",
          "type": "string"
        },
        {
          "internalType": "uint256",
          "name": "level",
          "type": "uint256"
        },
        {
          "components": [
            {
              "internalType": "uint256",
              "name": "food",
              "type": "uint256"
            },
            {
              "internalType": "uint256",
              "name": "wood",
              "type": "uint256"
            },
            {
              "internalType": "uint256",
              "name": "stone",
              "type": "uint256"
            },
            {
              "internalType": "uint256",
              "name": "brass",
              "type": "uint256"
            },
            {
              "internalType": "uint256",
              "name": "iron",
              "type": "uint256"
            },
            {
              "internalType": "uint256",
              "name": "gold",
              "type": "uint256"
            }
          ],
          "internalType": "struct DataTypes.Resources",
          "name": "currentResources",
          "type": "tuple"
        },
        {
          "internalType": "uint256",
          "name": "production",
          "type": "uint256"
        }
      ],
      "name": "startBuildingConstruction",
      "outputs": [
        {
          "components": [
            {
              "internalType": "uint256",
              "name": "food",
              "type": "uint256"
            },
            {
              "internalType": "uint256",
              "name": "wood",
              "type": "uint256"
            },
            {
              "internalType": "uint256",
              "name": "stone",
              "type": "uint256"
            },
            {
              "internalType": "uint256",
              "name": "brass",
              "type": "uint256"
            },
            {
              "internalType": "uint256",
              "name": "iron",
              "type": "uint256"
            },
            {
              "internalType": "uint256",
              "name": "gold",
              "type": "uint256"
            }
          ],
          "internalType": "struct DataTypes.Resources",
          "name": "updatedResources",
          "type": "tuple"
        },
        {
          "internalType": "uint256",
          "name": "completionTime",
          "type": "uint256"
        }
      ],
      "stateMutability": "view",
      "type": "function"
    },
    {
      "inputs": [
        {
          "internalType": "address",
          "name": "newOwner",
          "type": "address"
        }
      ],
      "name": "transferOwnership",
      "outputs": [],
      "stateMutability": "nonpayable",
      "type": "function"
    },
    {
      "inputs": [
        {
          "internalType": "string",
          "name": "buildingName",
          "type": "string"
        },
        {
          "internalType": "uint256",
          "name": "level",
          "type": "uint256"
        },
        {
          "internalType": "string",
          "name": "newImageURI",
          "type": "string"
        }
      ],
      "name": "updateBuildingImageURI",
      "outputs": [],
      "stateMutability": "nonpayable",
      "type": "function"
    },
    {
      "inputs": [
        {
          "internalType": "address",
          "name": "_newLandNFT",
          "type": "address"
        }
      ],
      "name": "updateLandNFT",
      "outputs": [],
      "stateMutability": "nonpayable",
      "type": "function"
    }
  ],
  "bytecode": "0x34620069055760008054336001600160a01b0319821681178355916001600160a01b03909116907f8be0079c531659141344cd1fd0a4f28419497f9722a3daafe3b4186f6b6457e09080a3610100604081905260446080527f68747470733a2f2f697066732e696f2f697066732f516d52476f6b4d33686b5060a0527f4e665a4a53647a6f4548546b3568683668656a5972324672773667315570526d60c052635970722f60e01b60e052620000b5816200690a565b6064815260326020820152601e60408201526000606082015260006080820152601460a08201526200011b604051620000ee816200690a565b6064815260326020820152601e60408201526000606082015260006080820152601460a0820152620069b0565b60405162000129816200690a565b6064815260006020820152600060408201526000606082015260006080820152600060a0820152604051916200018a6009846200016b60208201608062006983565b6806661726d2e776562760bc1b8152036016198101865201846200695f565b60405193620001998562006926565b604051620001a78162006943565b60048152634661726d60e01b60208201528552600160208601526040850152606084015260056080840152600260a0840152600060c0840152600060e08401526000610100840152610120830152610e1061014083015260016101608301526101808201526024604051634661726d60e01b815260026004820152206001600052602052604060002090805180519060018060401b038211620048695783548060011c906001811615620068fa575b60011660208210146200484857601f8111620068b1575b50602090601f83116001146200683e576101809392916000918362006832575b50508160011b916000199060031b1c19161783555b6020818101516001850155604080830151805160028701559182015160038601558101516004850155606081015160058501556080810151600685015560a00151600784015560608181015180516008860155602081015160098601556040810151600a86015590810151600b8501556080810151600c85015560a00151600d840155608081810151600e85015560a080830151600f86015560c0830151601086015560e08301516011860155610100830151601286015561012083015180516013870155602081015160148701556040810151601587015560608101516016870155918201516017860155015160188401556101408101516019840155610160810151151560ff8019601a86015416911617601a840155015180519060018060401b0382116200486957601b830154600181811c9116801562006827575b60208210146200484857601f8111620067db575b50602090601f83116001146200676657601b9291600091836200675a575b50508160011b916000199060031b1c1916179101555b60405162000437816200690a565b60508152603c6020820152602860408201526000606082015260006080820152601960a08201526200049d60405162000470816200690a565b60508152603c6020820152602860408201526000606082015260006080820152601960a0820152620069b0565b604051620004ab816200690a565b6000815260646020820152600060408201526000606082015260006080820152600060a08201526040519162000514600f84620004ed60208201608062006983565b6e06c756d6265726d696c6c2e7765627608c1b81526010198282030182520301846200695f565b60405193620005238562006926565b604051620005318162006943565b600b81526a131d5b58995c88135a5b1b60aa1b60208201528552600160208601526040850152606084015260046080840152600060a0840152600060c0840152600060e08401526000610100840152610120830152610e106101408301526001610160830152610180820152602b6040516a131d5b58995c88135a5b1b60aa1b81526002600b820152206001600052602052604060002090805180519060018060401b03821162004869578354600181811c911680156200674f575b60208210146200484857601f811162006706575b50602090601f831160011462006693576101809392916000918362006687575b50508160011b916000199060031b1c19161783555b6020818101516001850155604080830151805160028701559182015160038601558101516004850155606081015160058501556080810151600685015560a00151600784015560608181015180516008860155602081015160098601556040810151600a86015590810151600b8501556080810151600c85015560a00151600d840155608081810151600e85015560a080830151600f86015560c0830151601086015560e08301516011860155610100830151601286015561012083015180516013870155602081015160148701556040810151601587015560608101516016870155918201516017860155015160188401556101408101516019840155601a8301610160820151151560ff80198354169116179055015180519060018060401b0382116200486957601b830154600181811c911680156200667c575b60208210146200484857601f811162006630575b50602090601f8311600114620065bb57601b929160009183620065af575b50508160011b916000199060031b1c1916179101555b604051620007c9816200690a565b605a815260286020820152603260408201526000606082015260006080820152601e60a08201526200082f60405162000802816200690a565b605a815260286020820152603260408201526000606082015260006080820152601e60a0820152620069b0565b6040516200083d816200690a565b6000815260006020820152606460408201526000606082015260006080820152600060a082015260405191620008a2600b846200087f60208201608062006983565b6a07175617272792e776562760ac1b81526014198282030182520301846200695f565b60405193620008b18562006926565b604051620008bf8162006943565b600681526551756172727960d01b60208201528552600160208601526040850152606084015260036080840152600060a0840152600060c0840152600060e08401526000610100840152610120830152610e10610140830152600161016083015261018082015260266040516551756172727960d01b815260026006820152206001600052602052604060002090805180519060018060401b03821162004869578354600181811c91168015620065a4575b60208210146200484857601f81116200655b575b50602090601f8311600114620064e85761018093929160009183620064dc575b50508160011b916000199060031b1c19161783555b6020818101516001850155604080830151805160028701559182015160038601558101516004850155606081015160058501556080810151600685015560a00151600784015560608181015180516008860155602081015160098601556040810151600a86015590810151600b8501556080810151600c85015560a00151600d840155608081810151600e85015560a080830151600f86015560c0830151601086015560e08301516011860155610100830151601286015561012083015180516013870155602081015160148701556040810151601587015560608101516016870155918201516017860155015160188401556101408101516019840155601a8301610160820151151560ff80198354169116179055015180519060018060401b0382116200486957601b830154600181811c91168015620064d1575b60208210146200484857601f811162006485575b50602090601f83116001146200641057601b92916000918362006404575b50508160011b916000199060031b1c1916179101555b60405162000b4d816200690a565b6064815260326020820152603c60408201526000606082015260006080820152602360a082015262000bb360405162000b86816200690a565b6064815260326020820152603c60408201526000606082015260006080820152602360a0820152620069b0565b60405162000bc1816200690a565b6000815260006020820152600060408201526000606082015260646080820152600060a08201526040519162000c29600e8462000c0360208201608062006983565b6d069726f6e5f6d696e652e776562760941b81526011198282030182520301846200695f565b6040519362000c388562006926565b60405162000c468162006943565b600981526849726f6e204d696e6560b81b60208201528552600160208601526040850152606084015260036080840152600060a0840152600060c0840152600060e08401526002610100840152610120830152610e10610140830152600161016083015261018082015260296040516849726f6e204d696e6560b81b815260026009820152206001600052602052604060002090805180519060018060401b03821162004869578354600181811c91168015620063f9575b60208210146200484857601f8111620063b0575b50602090601f83116001146200633d576101809392916000918362006331575b50508160011b916000199060031b1c19161783555b6020818101516001850155604080830151805160028701559182015160038601558101516004850155606081015160058501556080810151600685015560a00151600784015560608181015180516008860155602081015160098601556040810151600a86015590810151600b8501556080810151600c85015560a00151600d840155608081810151600e85015560a080830151600f86015560c0830151601086015560e08301516011860155610100830151601286015561012083015180516013870155602081015160148701556040810151601587015560608101516016870155918201516017860155015160188401556101408101516019840155601a8301610160820151151560ff80198354169116179055015180519060018060401b0382116200486957601b830154600181811c9116801562006326575b60208210146200484857601f8111620062da575b50602090601f83116001146200626557601b92916000918362006259575b50508160011b916000199060031b1c1916179101555b60405162000eda816200690a565b606e8152603c6020820152602860408201526000606082015260006080820152602860a082015262000f4060405162000f13816200690a565b606e8152603c6020820152602860408201526000606082015260006080820152602860a0820152620069b0565b60405162000f4e816200690a565b6000815260006020820152600060408201526064606082015260006080820152600060a08201526040519162000fb5600d8462000f9060208201608062006983565b6c0776f726b73686f702e7765627609c1b81526012198282030182520301846200695f565b6040519362000fc48562006926565b60405162000fd28162006943565b60088152670576f726b73686f760c41b60208201528552600160208601526040850152606084015260056080840152600060a0840152600360c0840152600060e08401526000610100840152610120830152610e1061014083015260016101608301526101808201526028604051670576f726b73686f760c41b815260026008820152206001600052602052604060002090805180519060018060401b03821162004869578354600181811c911680156200624e575b60208210146200484857601f811162006205575b50602090601f831160011462006192576101809392916000918362006186575b50508160011b916000199060031b1c19161783555b6020818101516001850155604080830151805160028701559182015160038601558101516004850155606081015160058501556080810151600685015560a00151600784015560608181015180516008860155602081015160098601556040810151600a86015590810151600b8501556080810151600c85015560a00151600d840155608081810151600e85015560a080830151600f86015560c0830151601086015560e08301516011860155610100830151601286015561012083015180516013870155602081015160148701556040810151601587015560608101516016870155918201516017860155015160188401556101408101516019840155601a8301610160820151151560ff80198354169116179055015180519060018060401b0382116200486957601b830154600181811c911680156200617b575b60208210146200484857601f81116200612f575b50602090601f8311600114620060ba57601b929160009183620060ae575b50508160011b916000199060031b1c1916179101555b60405162001264816200690a565b6078815260326020820152603260408201526000606082015260006080820152603260a0820152620012ca6040516200129d816200690a565b6078815260326020820152603260408201526000606082015260006080820152603260a0820152620069b0565b604051620012d8816200690a565b6000815260006020820152600060408201526000606082015260006080820152606460a082015260405191620013426010846200131a60208201608062006983565b6f06d61726b6574706c6163652e776562760841b8152600f198282030182520301846200695f565b60405193620013518562006926565b6040516200135f8162006943565b600b81526a4d61726b6574706c61636560a81b60208201528552600160208601526040850152606084015260006080840152600360a0840152600060c0840152600260e08401526000610100840152610120830152610e106101408301526001610160830152610180820152602b6040516a4d61726b6574706c61636560a81b81526002600b820152206001600052602052604060002090805180519060018060401b03821162004869578354600181811c91168015620060a3575b60208210146200484857601f81116200605a575b50602090601f831160011462005fe7576101809392916000918362005fdb575b50508160011b916000199060031b1c19161783555b6020818101516001850155604080830151805160028701559182015160038601558101516004850155606081015160058501556080810151600685015560a00151600784015560608181015180516008860155602081015160098601556040810151600a86015590810151600b8501556080810151600c85015560a00151600d840155608081810151600e85015560a080830151600f86015560c0830151601086015560e08301516011860155610100830151601286015561012083015180516013870155602081015160148701556040810151601587015560608101516016870155918201516017860155015160188401556101408101516019840155601a8301610160820151151560ff80198354169116179055015180519060018060401b0382116200486957601b830154600181811c9116801562005fd0575b60208210146200484857601f811162005f84575b50602090601f831160011462005f0f57601b92916000918362005f03575b50508160011b916000199060031b1c1916179101555b604051620015f7816200690a565b6082815260466020820152603c60408201526000606082015260006080820152603c60a08201526200165d60405162001630816200690a565b6082815260466020820152603c60408201526000606082015260006080820152603c60a0820152620069b0565b6040516200166b816200690a565b6000815260006020820152600060408201526000606082015260006080820152600060a082015260405191620016d0600d84620016ad60208201608062006983565b6c06261727261636b732e7765627609c1b8152036012198101865201846200695f565b60405193620016df8562006926565b604051620016ed8162006943565b60088152674261727261636b7360c01b60208201528552600160208601526040850152606084015260006080840152600060a0840152600060c0840152600060e08401526005610100840152610120830152610e1061014083015260016101608301526101808201526028604051674261727261636b7360c01b815260026008820152206001600052602052604060002090805180519060018060401b03821162004869578354600181811c9116801562005ef8575b60208210146200484857601f811162005eaf575b50602090601f831160011462005e3c576101809392916000918362005e30575b50508160011b916000199060031b1c19161783555b6020818101516001850155604080830151805160028701559182015160038601558101516004850155606081015160058501556080810151600685015560a00151600784015560608181015180516008860155602081015160098601556040810151600a86015590810151600b8501556080810151600c85015560a00151600d840155608081810151600e85015560a080830151600f86015560c0830151601086015560e08301516011860155610100830151601286015561012083015180516013870155602081015160148701556040810151601587015560608101516016870155918201516017860155015160188401556101408101516019840155601a8301610160820151151560ff80198354169116179055015180519060018060401b0382116200486957601b830154600181811c9116801562005e25575b60208210146200484857601f811162005dd9575b50602090601f831160011462005d6457601b92916000918362005d58575b50508160011b916000199060031b1c1916179101555b6040516200197f816200690a565b608c8152603c6020820152604660408201526000606082015260006080820152604660a0820152620019e5604051620019b8816200690a565b608c8152603c6020820152604660408201526000606082015260006080820152604660a0820152620069b0565b604051620019f3816200690a565b6000815260006020820152600060408201526000606082015260006080820152600060a08201526040519162001a56600b8462001a3560208201608062006983565b6a074656d706c652e776562760ac1b8152036014198101865201846200695f565b6040519362001a658562006926565b60405162001a738162006943565b600681526554656d706c6560d01b60208201528552600160208601526040850152606084015260006080840152600560a0840152600060c0840152600760e08401526000610100840152610120830152610e10610140830152600161016083015261018082015260266040516554656d706c6560d01b815260026006820152206001600052602052604060002090805180519060018060401b03821162004869578354600181811c9116801562005d4d575b60208210146200484857601f811162005d04575b50602090601f831160011462005c91576101809392916000918362005c85575b50508160011b916000199060031b1c19161783555b6020818101516001850155604080830151805160028701559182015160038601558101516004850155606081015160058501556080810151600685015560a00151600784015560608181015180516008860155602081015160098601556040810151600a86015590810151600b8501556080810151600c85015560a00151600d840155608081810151600e85015560a080830151600f86015560c0830151601086015560e08301516011860155610100830151601286015561012083015180516013870155602081015160148701556040810151601587015560608101516016870155918201516017860155015160188401556101408101516019840155601a8301610160820151151560ff80198354169116179055015180519060018060401b0382116200486957601b830154600181811c9116801562005c7a575b60208210146200484857601f811162005c2e575b50602090601f831160011462005bb957601b92916000918362005bad575b50508160011b916000199060031b1c1916179101555b60405162001d01816200690a565b6096815260506020820152603260408201526000606082015260006080820152605060a082015262001d6760405162001d3a816200690a565b6096815260506020820152603260408201526000606082015260006080820152605060a0820152620069b0565b60405162001d75816200690a565b6000815260006020820152600060408201526000606082015260006080820152600060a08201526040519162001ddb600c8462001db760208201608062006983565b6b061636164656d792e776562760a41b81526013198282030182520301846200695f565b6040519362001dea8562006926565b60405162001df88162006943565b600781526641636164656d7960c81b60208201528552600160208601526040850152606084015260056080840152600260a0840152600560c0840152600060e08401526000610100840152610120830152610e10610140830152600161016083015261018082015260276040516641636164656d7960c81b815260026007820152206001600052602052604060002090805180519060018060401b03821162004869578354600181811c9116801562005ba2575b60208210146200484857601f811162005b59575b50602090601f831160011462005ae6576101809392916000918362005ada575b50508160011b916000199060031b1c19161783555b6020818101516001850155604080830151805160028701559182015160038601558101516004850155606081015160058501556080810151600685015560a00151600784015560608181015180516008860155602081015160098601556040810151600a86015590810151600b8501556080810151600c85015560a00151600d840155608081810151600e85015560a080830151600f86015560c0830151601086015560e08301516011860155610100830151601286015561012083015180516013870155602081015160148701556040810151601587015560608101516016870155918201516017860155015160188401556101408101516019840155601a8301610160820151151560ff80198354169116179055015180519060018060401b0382116200486957601b830154600181811c9116801562005acf575b60208210146200484857601f811162005a83575b50602090601f831160011462005a0e57601b92916000918362005a02575b50508160011b916000199060031b1c1916179101555b60405162002088816200690a565b60a08152605a6020820152605060408201526000606082015260006080820152605a60a0820152620020ee604051620020c1816200690a565b60a08152605a6020820152605060408201526000606082015260006080820152605a60a0820152620069b0565b604051620020fc816200690a565b6000815260006020820152600060408201526000606082015260006080820152600060a08201526040519162002160600c846200213e60208201608062006983565b6b0737461626c65732e776562760a41b8152036013198101865201846200695f565b604051936200216f8562006926565b6040516200217d8162006943565b6007815266537461626c657360c81b60208201528552600160208601526040850152606084015260006080840152600060a0840152600060c0840152600060e08401526003610100840152610120830152610e106101408301526001610160830152610180820152602760405166537461626c657360c81b815260026007820152206001600052602052604060002090805180519060018060401b03821162004869578354600181811c91168015620059f7575b60208210146200484857601f8111620059ae575b50602090601f83116001146200593b57610180939291600091836200592f575b50508160011b916000199060031b1c19161783555b6020818101516001850155604080830151805160028701559182015160038601558101516004850155606081015160058501556080810151600685015560a00151600784015560608181015180516008860155602081015160098601556040810151600a86015590810151600b8501556080810151600c85015560a00151600d840155608081810151600e85015560a080830151600f86015560c0830151601086015560e08301516011860155610100830151601286015561012083015180516013870155602081015160148701556040810151601587015560608101516016870155918201516017860155015160188401556101408101516019840155601a8301610160820151151560ff80198354169116179055015180519060018060401b0382116200486957601b830154600181811c9116801562005924575b60208210146200484857601f8111620058d8575b50602090601f83116001146200586357601b92916000918362005857575b50508160011b916000199060031b1c1916179101555b6040516200240d816200690a565b60c8815260646020820152603c60408201526000606082015260006080820152602860a08201526200247360405162002446816200690a565b60c8815260646020820152603c60408201526000606082015260006080820152602860a0820152620069b0565b60405162002481816200690a565b60c8815260006020820152600060408201526000606082015260006080820152600060a082015260405191620024e4600b84620024c360208201608062006983565b6a06573746174652e776562760ac1b8152036014198101865201846200695f565b60405193620024f38562006926565b604051620025018162006943565b600681526545737461746560d01b602082015285526002602086015260408501526060840152600a6080840152600460a0840152600060c0840152600060e08401526000610100840152610120830152610e10610140830152600161016083015261018082015260266040516545737461746560d01b815260026006820152206002600052602052604060002090805180519060018060401b03821162004869578354600181811c911680156200584c575b60208210146200484857601f811162005803575b50602090601f831160011462005790576101809392916000918362005784575b50508160011b916000199060031b1c19161783555b6020818101516001850155604080830151805160028701559182015160038601558101516004850155606081015160058501556080810151600685015560a00151600784015560608181015180516008860155602081015160098601556040810151600a86015590810151600b8501556080810151600c85015560a00151600d840155608081810151600e85015560a080830151600f86015560c0830151601086015560e08301516011860155610100830151601286015561012083015180516013870155602081015160148701556040810151601587015560608101516016870155918201516017860155015160188401556101408101516019840155601a8301610160820151151560ff80198354169116179055015180519060018060401b0382116200486957601b830154600181811c9116801562005779575b60208210146200484857601f81116200572d575b50602090601f8311600114620056b857601b929160009183620056ac575b50508160011b916000199060031b1c1916179101555b6040516200278f816200690a565b620027f461012c80835260a0602084015260646040840152600060608401526000608084015260a08084015260405190620027ca826200690a565b815260a0602082015260646040820152600060608201526000608082015260a080820152620069b0565b60405162002802816200690a565b6000815260006020820152600060408201526000606082015260006080820152600060a08201526040519162002869600f846200284460208201608062006983565b6e0756e69766572736974792e7765627608c1b8152036010198101865201846200695f565b60405193620028788562006926565b604051620028868162006943565b600a815269556e697665727369747960b01b602082015285526002602086015260408501526060840152600a6080840152600460a0840152600a60c0840152600060e08401526000610100840152610120830152610e106101408301526001610160830152610180820152602a60405169556e697665727369747960b01b81526002600a820152206002600052602052604060002090805180519060018060401b03821162004869578354600181811c91168015620056a1575b60208210146200484857601f811162005658575b50602090601f8311600114620055e55761018093929160009183620055d9575b50508160011b916000199060031b1c19161783555b6020818101516001850155604080830151805160028701559182015160038601558101516004850155606081015160058501556080810151600685015560a00151600784015560608181015180516008860155602081015160098601556040810151600a86015590810151600b8501556080810151600c85015560a00151600d840155608081810151600e85015560a080830151600f86015560c0830151601086015560e08301516011860155610100830151601286015561012083015180516013870155602081015160148701556040810151601587015560608101516016870155918201516017860155015160188401556101408101516019840155601a8301610160820151151560ff80198354169116179055015180519060018060401b0382116200486957601b830154600181811c91168015620055ce575b60208210146200484857601f811162005582575b50602090601f83116001146200550d57601b92916000918362005501575b50508160011b916000199060031b1c1916179101555b60405162002b1c816200690a565b62002b8361011880835260786020840152608c60408401526000606084015260006080840152608c60a08401526040519062002b58826200690a565b815260786020820152608c60408201526000606082015260006080820152608c60a0820152620069b0565b60405162002b91816200690a565b6000815260006020820152600060408201526000606082015260006080820152600060a08201526040519162002bf7600e8462002bd360208201608062006983565b6d063617468656472616c2e776562760941b8152036011198101865201846200695f565b6040519362002c068562006926565b60405162002c148162006943565b600981526810d85d1a19591c985b60ba1b60208201528552600260208601526040850152606084015260006080840152600a60a0840152600060c0840152600a60e08401526000610100840152610120830152610e10610140830152600161016083015261018082015260296040516810d85d1a19591c985b60ba1b815260026009820152206002600052602052604060002090805180519060018060401b03821162004869578354600181811c91168015620054f6575b60208210146200484857601f8111620054ad575b50602090601f83116001146200543a57610180939291600091836200542e575b50508160011b916000199060031b1c19161783555b6020818101516001850155604080830151805160028701559182015160038601558101516004850155606081015160058501556080810151600685015560a00151600784015560608181015180516008860155602081015160098601556040810151600a86015590810151600b8501556080810151600c85015560a00151600d840155608081810151600e85015560a080830151600f86015560c0830151601086015560e08301516011860155610100830151601286015561012083015180516013870155602081015160148701556040810151601587015560608101516016870155918201516017860155015160188401556101408101516019840155601a8301610160820151151560ff80198354169116179055015180519060018060401b0382116200486957601b830154600181811c9116801562005423575b60208210146200484857601f8111620053d7575b50602090601f83116001146200536257601b92916000918362005356575b50508160011b916000199060031b1c1916179101555b60405162002ea8816200690a565b60a0815260786020820152605060408201526000606082015260006080820152603260a082015262002f0e60405162002ee1816200690a565b60a0815260786020820152605060408201526000606082015260006080820152603260a0820152620069b0565b60405162002f1c816200690a565b6000815260c86020820152600060408201526000606082015260006080820152600060a08201526040519162002f80600c8462002f5e60208201608062006983565b6b07361776d696c6c2e776562760a41b8152036013198101865201846200695f565b6040519362002f8f8562006926565b60405162002f9d8162006943565b600781526614d85ddb5a5b1b60ca1b60208201528552600260208601526040850152606084015260086080840152600060a0840152600060c0840152600060e08401526000610100840152610120830152610e10610140830152600161016083015261018082015260276040516614d85ddb5a5b1b60ca1b815260026007820152206002600052602052604060002090805180519060018060401b03821162004869578354600181811c911680156200534b575b60208210146200484857601f811162005302575b50602090601f83116001146200528f576101809392916000918362005283575b50508160011b916000199060031b1c19161783555b6020818101516001850155604080830151805160028701559182015160038601558101516004850155606081015160058501556080810151600685015560a00151600784015560608181015180516008860155602081015160098601556040810151600a86015590810151600b8501556080810151600c85015560a00151600d840155608081810151600e85015560a080830151600f86015560c0830151601086015560e08301516011860155610100830151601286015561012083015180516013870155602081015160148701556040810151601587015560608101516016870155918201516017860155015160188401556101408101516019840155601a8301610160820151151560ff80198354169116179055015180519060018060401b0382116200486957601b830154600181811c9116801562005278575b60208210146200484857601f81116200522c575b50602090601f8311600114620051b757601b929160009183620051ab575b50508160011b916000199060031b1c1916179101555b6040516200322d816200690a565b60b4815260506020820152606460408201526000606082015260006080820152603c60a08201526200329360405162003266816200690a565b60b4815260506020820152606460408201526000606082015260006080820152603c60a0820152620069b0565b604051620032a1816200690a565b600081526000602082015260c860408201526000606082015260006080820152600060a08201526040519162003308600f84620032e360208201608062006983565b6e073746f6e65776f726b732e7765627608c1b8152036010198101865201846200695f565b60405193620033178562006926565b604051620033258162006943565b600a81526953746f6e65776f726b7360b01b60208201528552600260208601526040850152606084015260066080840152600060a0840152600060c0840152600060e08401526000610100840152610120830152610e106101408301526001610160830152610180820152602a6040516953746f6e65776f726b7360b01b81526002600a820152206002600052602052604060002090805180519060018060401b03821162004869578354600181811c91168015620051a0575b60208210146200484857601f811162005157575b50602090601f8311600114620050e45761018093929160009183620050d8575b50508160011b916000199060031b1c19161783555b6020818101516001850155604080830151805160028701559182015160038601558101516004850155606081015160058501556080810151600685015560a00151600784015560608181015180516008860155602081015160098601556040810151600a86015590810151600b8501556080810151600c85015560a00151600d840155608081810151600e85015560a080830151600f86015560c0830151601086015560e08301516011860155610100830151601286015561012083015180516013870155602081015160148701556040810151601587015560608101516016870155918201516017860155015160188401556101408101516019840155601a8301610160820151151560ff80198354169116179055015180519060018060401b0382116200486957601b830154600181811c91168015620050cd575b60208210146200484857601f811162005081575b50602090601f83116001146200500c57601b92916000918362005000575b50508160011b916000199060031b1c1916179101555b604051620035bb816200690a565b60c8815260646020820152607860408201526000606082015260006080820152604660a082015262003621604051620035f4816200690a565b60c8815260646020820152607860408201526000606082015260006080820152604660a0820152620069b0565b6040516200362f816200690a565b6000815260006020820152600060408201526000606082015260c86080820152600060a08201526040519162003696600f846200367160208201608062006983565b6e0737465656c776f726b732e7765627608c1b8152036010198101865201846200695f565b60405193620036a58562006926565b604051620036b38162006943565b600a815269537465656c776f726b7360b01b60208201528552600260208601526040850152606084015260066080840152600060a0840152600060c0840152600060e08401526000610100840152610120830152610e106101408301526001610160830152610180820152602a60405169537465656c776f726b7360b01b81526002600a820152206002600052602052604060002090805180519060018060401b03821162004869578354600181811c9116801562004ff5575b60208210146200484857601f811162004fac575b50602090601f831160011462004f39576101809392916000918362004f2d575b50508160011b916000199060031b1c19161783555b6020818101516001850155604080830151805160028701559182015160038601558101516004850155606081015160058501556080810151600685015560a00151600784015560608181015180516008860155602081015160098601556040810151600a86015590810151600b8501556080810151600c85015560a00151600d840155608081810151600e85015560a080830151600f86015560c0830151601086015560e08301516011860155610100830151601286015561012083015180516013870155602081015160148701556040810151601587015560608101516016870155918201516017860155015160188401556101408101516019840155601a8301610160820151151560ff80198354169116179055015180519060018060401b0382116200486957601b830154600181811c9116801562004f22575b60208210146200484857601f811162004ed6575b50602090601f831160011462004e6157601b92916000918362004e55575b50508160011b916000199060031b1c1916179101555b60405162003949816200690a565b60dc815260786020820152605060408201526000606082015260006080820152605060a0820152620039af60405162003982816200690a565b60dc815260786020820152605060408201526000606082015260006080820152605060a0820152620069b0565b604051620039bd816200690a565b60008152600060208201526000604082015260c8606082015260006080820152600060a08201526040519162003a21600c84620039ff60208201608062006983565b6b0666163746f72792e776562760a41b8152036013198101865201846200695f565b6040519362003a308562006926565b60405162003a3e8162006943565b6007815266466163746f727960c81b602082015285526002602086015260408501526060840152600a6080840152600060a0840152600060c0840152600060e08401526000610100840152610120830152610e106101408301526001610160830152610180820152602760405166466163746f727960c81b815260026007820152206002600052602052604060002090805180519060018060401b03821162004869578354600181811c9116801562004e4a575b60208210146200484857601f811162004e01575b50602090601f831160011462004d8e576101809392916000918362004d82575b50508160011b916000199060031b1c19161783555b6020818101516001850155604080830151805160028701559182015160038601558101516004850155606081015160058501556080810151600685015560a00151600784015560608181015180516008860155602081015160098601556040810151600a86015590810151600b8501556080810151600c85015560a00151600d840155608081810151600e85015560a080830151600f86015560c0830151601086015560e08301516011860155610100830151601286015561012083015180516013870155602081015160148701556040810151601587015560608101516016870155918201516017860155015160188401556101408101516019840155601a8301610160820151151560ff80198354169116179055015180519060018060401b0382116200486957601b830154600181811c9116801562004d77575b60208210146200484857601f811162004d2b575b50602090601f831160011462004cb657601b92916000918362004caa575b50508160011b916000199060031b1c1916179101555b60405162003cce816200690a565b60f0815260646020820152606460408201526000606082015260006080820152606460a082015262003d3460405162003d07816200690a565b60f0815260646020820152606460408201526000606082015260006080820152606460a0820152620069b0565b60405162003d42816200690a565b600081526000602082015260006040820152600060608201526000608082015260c860a08201526040519162003daa60108462003d8460208201608062006983565b6f074726164696e67706f73742e776562760841b815203600f198101865201846200695f565b6040519362003db98562006926565b60405162003dc78162006943565b600c81526b151c98591a5b99c8141bdcdd60a21b60208201528552600260208601526040850152606084015260006080840152600660a0840152600060c0840152600260e08401526000610100840152610120830152610e106101408301526001610160830152610180820152602c6040516b151c98591a5b99c8141bdcdd60a21b81526002600c820152206002600052602052604060002090805180519060018060401b03821162004869578354600181811c9116801562004c9f575b60208210146200484857601f811162004c56575b50602090601f831160011462004be3576101809392916000918362004bd7575b50508160011b916000199060031b1c19161783555b6020818101516001850155604080830151805160028701559182015160038601558101516004850155606081015160058501556080810151600685015560a00151600784015560608181015180516008860155602081015160098601556040810151600a86015590810151600b8501556080810151600c85015560a00151600d840155608081810151600e85015560a080830151600f86015560c0830151601086015560e08301516011860155610100830151601286015561012083015180516013870155602081015160148701556040810151601587015560608101516016870155918201516017860155015160188401556101408101516019840155601a8301610160820151151560ff80198354169116179055015180519060018060401b0382116200486957601b830154600181811c9116801562004bcc575b60208210146200484857601f811162004b80575b50602090601f831160011462004b0b57601b92916000918362004aff575b50508160011b916000199060031b1c1916179101555b60405162004061816200690a565b620040c8610104808352608c6020840152607860408401526000606084015260006080840152607860a0840152604051906200409d826200690a565b8152608c6020820152607860408201526000606082015260006080820152607860a0820152620069b0565b604051620040d6816200690a565b6000815260006020820152600060408201526000606082015260006080820152600060a0820152604051916200413b600d846200411860208201608062006983565b6c0666f7274726573732e7765627609c1b8152036012198101865201846200695f565b604051936200414a8562006926565b604051620041588162006943565b6008815267466f72747265737360c01b60208201528552600260208601526040850152606084015260006080840152600060a0840152600060c0840152600060e0840152600a610100840152610120830152610e106101408301526001610160830152610180820152602860405167466f72747265737360c01b815260026008820152206002600052602052604060002090805180519060018060401b03821162004869578354600181811c9116801562004af4575b60208210146200484857601f811162004aab575b50602090601f831160011462004a38576101809392916000918362004a2c575b50508160011b916000199060031b1c19161783555b6020818101516001850155604080830151805160028701559182015160038601558101516004850155606081015160058501556080810151600685015560a00151600784015560608181015180516008860155602081015160098601556040810151600a86015590810151600b8501556080810151600c85015560a00151600d840155608081810151600e85015560a080830151600f86015560c0830151601086015560e08301516011860155610100830151601286015561012083015180516013870155602081015160148701556040810151601587015560608101516016870155918201516017860155015160188401556101408101516019840155601a8301610160820151151560ff80198354169116179055015180519060018060401b0382116200486957601b830154600181811c9116801562004a21575b60208210146200484857601f8111620049d5575b50602090601f83116001146200496057601b92916000918362004954575b50508160011b916000199060031b1c1916179101555b604051620043ea816200690a565b610140815260b4602082015260a06040820152600060608201526000608082015260b460a08201526200445260405162004424816200690a565b610140815260b4602082015260a06040820152600060608201526000608082015260b460a0820152620069b0565b60405162004460816200690a565b6000815260006020820152600060408201526000606082015260006080820152600060a082015260405191620044ca601284620044a260208201608062006983565b710636176616c72797363686f6f6c2e776562760741b815203600d198101865201846200695f565b60405193620044d98562006926565b604051620044e78162006943565b600e81526d10d85d985b1c9e4814d8da1bdbdb60921b60208201528552600260208601526040850152606084015260006080840152600060a0840152600060c0840152600060e08401526006610100840152610120830152610e106101408301526001610160830152610180820152602e6040516d10d85d985b1c9e4814d8da1bdbdb60921b81526002600e8201522060026000526020526040600020815180519060018060401b03821162004869578254600181811c9116801562004949575b60208210146200484857601f811162004900575b50602090601f83116001146200488b5791806101809492601b946000926200487f575b50508160011b916000199060031b1c19161781555b6020848101516001830155604080860151805160028501559182015160038401558101516004830155606081015160058301556080810151600683015560a00151600782015560608481015180516008840155602081015160098401556040810151600a84015590810151600b8301556080810151600c83015560a00151600d820155608084810151600e83015560a080860151600f84015560c0860151601084015560e08601516011840155610100860151601284015561012086015180516013850155602081015160148501556040810151601585015560608101516016850155918201516017840155015160188201556101408401516019820155601a8101610160850151151560ff801983541691161790550191015190815160018060401b03811162004869578154600181811c911680156200485e575b60208210146200484857601f8111620047fb575b50602092601f821160011462004792579281929360009262004786575b50508160011b916000199060031b1c19161790555b6040516113ad908162006b148239f35b01519050388062004761565b601f198216938360005260206000209160005b868110620047e25750836001959610620047c8575b505050811b01905562004776565b015160001960f88460031b161c19169055388080620047ba565b91926020600181928685015181550194019201620047a5565b826000526020600020601f830160051c810191602084106200483d575b601f0160051c01905b81811062004830575062004744565b6000815560010162004821565b909150819062004818565b634e487b7160e01b600052602260045260246000fd5b90607f169062004730565b634e487b7160e01b600052604160045260246000fd5b015190503880620045df565b908360005260206000209160005b601f1985168110620048e75750926101809492600192601b9583601f19811610620048cd575b505050811b018155620045f4565b015160001960f88460031b161c19169055388080620048bf565b9192602060018192868501518155019401920162004899565b836000526020600020601f840160051c81016020851062004941575b601f830160051c8201811062004934575050620045bc565b600081556001016200491c565b50806200491c565b90607f1690620045a8565b015190503880620043c6565b90601b840160005260206000209160005b601f1985168110620049bc5750918391600193601b95601f19811610620049a2575b505050811b01910155620043dc565b015160001960f88460031b161c1916905538808062004993565b9192602060018192868501518155019401920162004971565b601b84016000526020600020601f840160051c81016020851062004a19575b601f830160051c8201811062004a0c575050620043a8565b60008155600101620049f4565b5080620049f4565b90607f169062004394565b01519050388062004242565b908460005260206000209160005b601f198516811062004a9257509183916001936101809695601f1981161062004a78575b505050811b01835562004257565b015160001960f88460031b161c1916905538808062004a6a565b9192602060018192868501518155019401920162004a46565b846000526020600020601f840160051c81016020851062004aec575b601f830160051c8201811062004adf57505062004222565b6000815560010162004ac7565b508062004ac7565b90607f16906200420e565b0151905038806200403d565b90601b840160005260206000209160005b601f198516811062004b675750918391600193601b95601f1981161062004b4d575b505050811b0191015562004053565b015160001960f88460031b161c1916905538808062004b3e565b9192602060018192868501518155019401920162004b1c565b601b84016000526020600020601f840160051c81016020851062004bc4575b601f830160051c8201811062004bb75750506200401f565b6000815560010162004b9f565b508062004b9f565b90607f16906200400b565b01519050388062003eb9565b908460005260206000209160005b601f198516811062004c3d57509183916001936101809695601f1981161062004c23575b505050811b01835562003ece565b015160001960f88460031b161c1916905538808062004c15565b9192602060018192868501518155019401920162004bf1565b846000526020600020601f840160051c81016020851062004c97575b601f830160051c8201811062004c8a57505062003e99565b6000815560010162004c72565b508062004c72565b90607f169062003e85565b01519050388062003caa565b90601b840160005260206000209160005b601f198516811062004d125750918391600193601b95601f1981161062004cf8575b505050811b0191015562003cc0565b015160001960f88460031b161c1916905538808062004ce9565b9192602060018192868501518155019401920162004cc7565b601b84016000526020600020601f840160051c81016020851062004d6f575b601f830160051c8201811062004d6257505062003c8c565b6000815560010162004d4a565b508062004d4a565b90607f169062003c78565b01519050388062003b26565b908460005260206000209160005b601f198516811062004de857509183916001936101809695601f1981161062004dce575b505050811b01835562003b3b565b015160001960f88460031b161c1916905538808062004dc0565b9192602060018192868501518155019401920162004d9c565b846000526020600020601f840160051c81016020851062004e42575b601f830160051c8201811062004e3557505062003b06565b6000815560010162004e1d565b508062004e1d565b90607f169062003af2565b01519050388062003925565b90601b840160005260206000209160005b601f198516811062004ebd5750918391600193601b95601f1981161062004ea3575b505050811b019101556200393b565b015160001960f88460031b161c1916905538808062004e94565b9192602060018192868501518155019401920162004e72565b601b84016000526020600020601f840160051c81016020851062004f1a575b601f830160051c8201811062004f0d57505062003907565b6000815560010162004ef5565b508062004ef5565b90607f1690620038f3565b015190503880620037a1565b908460005260206000209160005b601f198516811062004f9357509183916001936101809695601f1981161062004f79575b505050811b018355620037b6565b015160001960f88460031b161c1916905538808062004f6b565b9192602060018192868501518155019401920162004f47565b846000526020600020601f840160051c81016020851062004fed575b601f830160051c8201811062004fe057505062003781565b6000815560010162004fc8565b508062004fc8565b90607f16906200376d565b01519050388062003597565b90601b840160005260206000209160005b601f1985168110620050685750918391600193601b95601f198116106200504e575b505050811b01910155620035ad565b015160001960f88460031b161c191690553880806200503f565b919260206001819286850151815501940192016200501d565b601b84016000526020600020601f840160051c810160208510620050c5575b601f830160051c82018110620050b857505062003579565b60008155600101620050a0565b5080620050a0565b90607f169062003565565b01519050388062003413565b908460005260206000209160005b601f19851681106200513e57509183916001936101809695601f1981161062005124575b505050811b01835562003428565b015160001960f88460031b161c1916905538808062005116565b91926020600181928685015181550194019201620050f2565b846000526020600020601f840160051c81016020851062005198575b601f830160051c820181106200518b575050620033f3565b6000815560010162005173565b508062005173565b90607f1690620033df565b01519050388062003209565b90601b840160005260206000209160005b601f1985168110620052135750918391600193601b95601f19811610620051f9575b505050811b019101556200321f565b015160001960f88460031b161c19169055388080620051ea565b91926020600181928685015181550194019201620051c8565b601b84016000526020600020601f840160051c81016020851062005270575b601f830160051c8201811062005263575050620031eb565b600081556001016200524b565b50806200524b565b90607f1690620031d7565b01519050388062003085565b908460005260206000209160005b601f1985168110620052e957509183916001936101809695601f19811610620052cf575b505050811b0183556200309a565b015160001960f88460031b161c19169055388080620052c1565b919260206001819286850151815501940192016200529d565b846000526020600020601f840160051c81016020851062005343575b601f830160051c820181106200533657505062003065565b600081556001016200531e565b50806200531e565b90607f169062003051565b01519050388062002e84565b90601b840160005260206000209160005b601f1985168110620053be5750918391600193601b95601f19811610620053a4575b505050811b0191015562002e9a565b015160001960f88460031b161c1916905538808062005395565b9192602060018192868501518155019401920162005373565b601b84016000526020600020601f840160051c8101602085106200541b575b601f830160051c820181106200540e57505062002e66565b60008155600101620053f6565b5080620053f6565b90607f169062002e52565b01519050388062002d00565b908460005260206000209160005b601f19851681106200549457509183916001936101809695601f198116106200547a575b505050811b01835562002d15565b015160001960f88460031b161c191690553880806200546c565b9192602060018192868501518155019401920162005448565b846000526020600020601f840160051c810160208510620054ee575b601f830160051c82018110620054e157505062002ce0565b60008155600101620054c9565b5080620054c9565b90607f169062002ccc565b01519050388062002af8565b90601b840160005260206000209160005b601f1985168110620055695750918391600193601b95601f198116106200554f575b505050811b0191015562002b0e565b015160001960f88460031b161c1916905538808062005540565b919260206001819286850151815501940192016200551e565b601b84016000526020600020601f840160051c810160208510620055c6575b601f830160051c82018110620055b957505062002ada565b60008155600101620055a1565b5080620055a1565b90607f169062002ac6565b01519050388062002974565b908460005260206000209160005b601f19851681106200563f57509183916001936101809695601f1981161062005625575b505050811b01835562002989565b015160001960f88460031b161c1916905538808062005617565b91926020600181928685015181550194019201620055f3565b846000526020600020601f840160051c81016020851062005699575b601f830160051c820181106200568c57505062002954565b6000815560010162005674565b508062005674565b90607f169062002940565b0151905038806200276b565b90601b840160005260206000209160005b601f1985168110620057145750918391600193601b95601f19811610620056fa575b505050811b0191015562002781565b015160001960f88460031b161c19169055388080620056eb565b91926020600181928685015181550194019201620056c9565b601b84016000526020600020601f840160051c81016020851062005771575b601f830160051c82018110620057645750506200274d565b600081556001016200574c565b50806200574c565b90607f169062002739565b015190503880620025e7565b908460005260206000209160005b601f1985168110620057ea57509183916001936101809695601f19811610620057d0575b505050811b018355620025fc565b015160001960f88460031b161c19169055388080620057c2565b919260206001819286850151815501940192016200579e565b846000526020600020601f840160051c81016020851062005844575b601f830160051c8201811062005837575050620025c7565b600081556001016200581f565b50806200581f565b90607f1690620025b3565b015190503880620023e9565b90601b840160005260206000209160005b601f1985168110620058bf5750918391600193601b95601f19811610620058a5575b505050811b01910155620023ff565b015160001960f88460031b161c1916905538808062005896565b9192602060018192868501518155019401920162005874565b601b84016000526020600020601f840160051c8101602085106200591c575b601f830160051c820181106200590f575050620023cb565b60008155600101620058f7565b5080620058f7565b90607f1690620023b7565b01519050388062002265565b908460005260206000209160005b601f19851681106200599557509183916001936101809695601f198116106200597b575b505050811b0183556200227a565b015160001960f88460031b161c191690553880806200596d565b9192602060018192868501518155019401920162005949565b846000526020600020601f840160051c810160208510620059ef575b601f830160051c82018110620059e257505062002245565b60008155600101620059ca565b5080620059ca565b90607f169062002231565b01519050388062002064565b90601b840160005260206000209160005b601f198516811062005a6a5750918391600193601b95601f1981161062005a50575b505050811b019101556200207a565b015160001960f88460031b161c1916905538808062005a41565b9192602060018192868501518155019401920162005a1f565b601b84016000526020600020601f840160051c81016020851062005ac7575b601f830160051c8201811062005aba57505062002046565b6000815560010162005aa2565b508062005aa2565b90607f169062002032565b01519050388062001ee0565b908460005260206000209160005b601f198516811062005b4057509183916001936101809695601f1981161062005b26575b505050811b01835562001ef5565b015160001960f88460031b161c1916905538808062005b18565b9192602060018192868501518155019401920162005af4565b846000526020600020601f840160051c81016020851062005b9a575b601f830160051c8201811062005b8d57505062001ec0565b6000815560010162005b75565b508062005b75565b90607f169062001eac565b01519050388062001cdd565b90601b840160005260206000209160005b601f198516811062005c155750918391600193601b95601f1981161062005bfb575b505050811b0191015562001cf3565b015160001960f88460031b161c1916905538808062005bec565b9192602060018192868501518155019401920162005bca565b601b84016000526020600020601f840160051c81016020851062005c72575b601f830160051c8201811062005c6557505062001cbf565b6000815560010162005c4d565b508062005c4d565b90607f169062001cab565b01519050388062001b59565b908460005260206000209160005b601f198516811062005ceb57509183916001936101809695601f1981161062005cd1575b505050811b01835562001b6e565b015160001960f88460031b161c1916905538808062005cc3565b9192602060018192868501518155019401920162005c9f565b846000526020600020601f840160051c81016020851062005d45575b601f830160051c8201811062005d3857505062001b39565b6000815560010162005d20565b508062005d20565b90607f169062001b25565b0151905038806200195b565b90601b840160005260206000209160005b601f198516811062005dc05750918391600193601b95601f1981161062005da6575b505050811b0191015562001971565b015160001960f88460031b161c1916905538808062005d97565b9192602060018192868501518155019401920162005d75565b601b84016000526020600020601f840160051c81016020851062005e1d575b601f830160051c8201811062005e105750506200193d565b6000815560010162005df8565b508062005df8565b90607f169062001929565b015190503880620017d7565b908460005260206000209160005b601f198516811062005e9657509183916001936101809695601f1981161062005e7c575b505050811b018355620017ec565b015160001960f88460031b161c1916905538808062005e6e565b9192602060018192868501518155019401920162005e4a565b846000526020600020601f840160051c81016020851062005ef0575b601f830160051c8201811062005ee3575050620017b7565b6000815560010162005ecb565b508062005ecb565b90607f1690620017a3565b015190503880620015d3565b90601b840160005260206000209160005b601f198516811062005f6b5750918391600193601b95601f1981161062005f51575b505050811b01910155620015e9565b015160001960f88460031b161c1916905538808062005f42565b9192602060018192868501518155019401920162005f20565b601b84016000526020600020601f840160051c81016020851062005fc8575b601f830160051c8201811062005fbb575050620015b5565b6000815560010162005fa3565b508062005fa3565b90607f1690620015a1565b0151905038806200144f565b908460005260206000209160005b601f19851681106200604157509183916001936101809695601f1981161062006027575b505050811b01835562001464565b015160001960f88460031b161c1916905538808062006019565b9192602060018192868501518155019401920162005ff5565b846000526020600020601f840160051c8101602085106200609b575b601f830160051c820181106200608e5750506200142f565b6000815560010162006076565b508062006076565b90607f16906200141b565b01519050388062001240565b90601b840160005260206000209160005b601f1985168110620061165750918391600193601b95601f19811610620060fc575b505050811b0191015562001256565b015160001960f88460031b161c19169055388080620060ed565b91926020600181928685015181550194019201620060cb565b601b84016000526020600020601f840160051c81016020851062006173575b601f830160051c820181106200616657505062001222565b600081556001016200614e565b50806200614e565b90607f16906200120e565b015190503880620010bc565b908460005260206000209160005b601f1985168110620061ec57509183916001936101809695601f19811610620061d2575b505050811b018355620010d1565b015160001960f88460031b161c19169055388080620061c4565b91926020600181928685015181550194019201620061a0565b846000526020600020601f840160051c81016020851062006246575b601f830160051c82018110620062395750506200109c565b6000815560010162006221565b508062006221565b90607f169062001088565b01519050388062000eb6565b90601b840160005260206000209160005b601f1985168110620062c15750918391600193601b95601f19811610620062a7575b505050811b0191015562000ecc565b015160001960f88460031b161c1916905538808062006298565b9192602060018192868501518155019401920162006276565b601b84016000526020600020601f840160051c8101602085106200631e575b601f830160051c820181106200631157505062000e98565b60008155600101620062f9565b5080620062f9565b90607f169062000e84565b01519050388062000d32565b908460005260206000209160005b601f19851681106200639757509183916001936101809695601f198116106200637d575b505050811b01835562000d47565b015160001960f88460031b161c191690553880806200636f565b919260206001819286850151815501940192016200634b565b846000526020600020601f840160051c810160208510620063f1575b601f830160051c82018110620063e457505062000d12565b60008155600101620063cc565b5080620063cc565b90607f169062000cfe565b01519050388062000b29565b90601b840160005260206000209160005b601f19851681106200646c5750918391600193601b95601f1981161062006452575b505050811b0191015562000b3f565b015160001960f88460031b161c1916905538808062006443565b9192602060018192868501518155019401920162006421565b601b84016000526020600020601f840160051c810160208510620064c9575b601f830160051c82018110620064bc57505062000b0b565b60008155600101620064a4565b5080620064a4565b90607f169062000af7565b015190503880620009a5565b908460005260206000209160005b601f19851681106200654257509183916001936101809695601f1981161062006528575b505050811b018355620009ba565b015160001960f88460031b161c191690553880806200651a565b91926020600181928685015181550194019201620064f6565b846000526020600020601f840160051c8101602085106200659c575b601f830160051c820181106200658f57505062000985565b6000815560010162006577565b508062006577565b90607f169062000971565b015190503880620007a5565b90601b840160005260206000209160005b601f1985168110620066175750918391600193601b95601f19811610620065fd575b505050811b01910155620007bb565b015160001960f88460031b161c19169055388080620065ee565b91926020600181928685015181550194019201620065cc565b601b84016000526020600020601f840160051c81016020851062006674575b601f830160051c820181106200666757505062000787565b600081556001016200664f565b50806200664f565b90607f169062000773565b01519050388062000621565b908460005260206000209160005b601f1985168110620066ed57509183916001936101809695601f19811610620066d3575b505050811b01835562000636565b015160001960f88460031b161c19169055388080620066c5565b91926020600181928685015181550194019201620066a1565b846000526020600020601f840160051c81016020851062006747575b601f830160051c820181106200673a57505062000601565b6000815560010162006722565b508062006722565b90607f1690620005ed565b01519050388062000413565b90601b840160005260206000209160005b601f1985168110620067c25750918391600193601b95601f19811610620067a8575b505050811b0191015562000429565b015160001960f88460031b161c1916905538808062006799565b9192602060018192868501518155019401920162006777565b601b84016000526020600020601f840160051c8101602085106200681f575b601f830160051c8201811062006812575050620003f5565b60008155600101620067fa565b5080620067fa565b90607f1690620003e1565b0151905038806200028d565b908460005260206000209160005b601f19851681106200689857509183916001936101809695601f198116106200687e575b505050811b018355620002a2565b015160001960f88460031b161c1916905538808062006870565b919260206001819286850151815501940192016200684c565b846000526020600020601f840160051c810160208510620068f2575b601f830160051c82018110620068e55750506200026d565b60008155600101620068cd565b5080620068cd565b90607f169062000256565b600080fd5b60c081019081106001600160401b038211176200486957604052565b6101a081019081106001600160401b038211176200486957604052565b604081019081106001600160401b038211176200486957604052565b601f909101601f19168101906001600160401b038211908210176200486957604052565b9081519160005b8381106200699c575050016000815290565b80602080928401015181850152016200698a565b60a0604051620069c0816200690a565b60009181838093528260208201528260408201528260608201528260808201520152815160019281841b9060029280830484149015171562006aff5760208101519182861b9280840485149015171562006aeb5760408201519485871b9580870486149015171562006aaf5760608301519687811b9780890487149015171562006ad75760808401519384821b9480860488149015171562006ac35760a0015180911b95818704149015171562006aaf57506040519562006a81876200690a565b60648096818096818096048b520460208a01520460408801520460608601520460808401520460a082015290565b634e487b7160e01b81526011600452602490fd5b634e487b7160e01b83526011600452602483fd5b634e487b7160e01b82526011600452602482fd5b634e487b7160e01b85526011600452602485fd5b634e487b7160e01b84526011600452602484fdfe60808060405260048036101561001457600080fd5b600091823560e01c90816339d022e114610f5857508063489b0f5a14610d285780636790d4b914610bf3578063715018a614610b995780638da5cb5b14610b72578063ab0e237814610ae9578063b5a6581814610a5e578063bfecd1a71461072f578063c58e527f1461057e578063d9dcfdb8146101d4578063ed81049d146101705763f2fde38b146100a657600080fd5b3461016c57602036600319011261016c576001600160a01b0381358181169290839003610168576100d5611221565b8215610115575082546001600160a01b0319811683178455167f8be0079c531659141344cd1fd0a4f28419497f9722a3daafe3b4186f6b6457e08380a380f35b60849060206040519162461bcd60e51b8352820152602660248201527f4f776e61626c653a206e6577206f776e657220697320746865207a65726f206160448201526564647265737360d01b6064820152fd5b8380fd5b5080fd5b82346101d1576040606091602061019d6101893661104a565b92908186519382858094519384920161107c565b8101600281520301902090825260205220600e810154906012600f8201549101549060405192835260208301526040820152f35b80fd5b503461016c5761012036600319011261016c57803567ffffffffffffffff811161057a576102059036908301610fee565b9060c036604319011261057a576040519161021f83610fb0565b604435835260208301936064358552604084019160843583526060850160a4358152608086019060c4358252610282602060a089019460e4358652610262611279565b5061026f815115156112ab565b816040519382858094519384920161107c565b81016002815203019020946024958635865260205260408520986102ac60ff601a8c0154166112ef565b88519060028b015480921061054557805160038c0154809110610510578351928a8d01548094106104da57908c94939291600587519601548096106104a457908d9695949392916006895198015480981061046f57908e989796959493929160078b519a0154809a1061043a5761033f938f9361033f61033f9997948661033f6103489f9e9d9b989661033f9751611334565b90528251611334565b9052610104359485156103ea5760190154926032840293808504603214901517156103da57600186018096116103da5785156103ca5760e08561039a610e10898804818110156103ae57505b4261136a565b6103a760405180936110c4565b60c0820152f35b90506202a3008082116103c2575b50610394565b9050846103bc565b634e487b7160e01b825260129052fd5b634e487b7160e01b825260119052fd5b60405162461bcd60e51b81526020818601528084018490527f50726f64756374696f6e206d7573742062652067726561746572207468616e206044820152637a65726f60e01b6064820152608490fd5b60648e600f8f60206040519362461bcd60e51b85528401528201526e139bdd08195b9bdd59da0819dbdb19608a1b6044820152fd5b60405162461bcd60e51b81526020818f0152600f818e01526e2737ba1032b737bab3b41034b937b760891b6044820152606490fd5b60405162461bcd60e51b81526020818e01526010818d01526f4e6f7420656e6f75676820627261737360801b6044820152606490fd5b60405162461bcd60e51b81526020818d01526010818c01526f4e6f7420656e6f7567682073746f6e6560801b6044820152606490fd5b60405162461bcd60e51b81526020818c0152600f818b01526e139bdd08195b9bdd59da081ddbdbd9608a1b6044820152606490fd5b60405162461bcd60e51b81526020818b0152600f818a01526e139bdd08195b9bdd59da08199bdbd9608a1b6044820152606490fd5b8280fd5b5090346101d15760603660031901126101d15767ffffffffffffffff91803583811161057a576105b19036908301610fee565b92604435818111610168576105c99036908401610fee565b936105d2611221565b6105de815115156112ab565b60405181818093516105f6816020968780960161107c565b8101600281520301902060243585528152601b6040852061061d60ff601a830154166112ef565b0192855192831161071c575061063383546110fb565b601f81116106d9575b5080601f8311600114610677575083948293949261066c575b50508160011b916000199060031b1c191617905580f35b015190503880610655565b90601f198316958486528286209286905b8882106106c1575050836001959697106106a8575b505050811b01905580f35b015160001960f88460031b161c1916905538808061069d565b80600185968294968601518155019501930190610688565b838552818520601f840160051c810191838510610712575b601f0160051c01905b818110610707575061063c565b8581556001016106fa565b90915081906106f1565b634e487b7160e01b855260419052602484fd5b503461016c57604036600319011261016c5780359167ffffffffffffffff9182841161016c573660238501121561016c578381013592808411610a4b5760059380851b9560405192602092610786848a0186610fcc565b8452828401906024809984010192368411610a4757898101925b8484106109b55750505050508535906107b7611279565b506107c0611279565b92855b81518110156109a3578281891b830101516040810151610802575b5060001981146107f0576001016107c3565b634e487b7160e01b8752601186528887fd5b805190848061081a604051948581519384920161107c565b8301928181600295868152030190209101518952845261099b6109908660408b206108666040519561084b87610f7d565b61085483611135565b875260018301548a88015282016111db565b6040860152610877600882016111db565b60609081870152600e820154608090818801528b61096a600f8501549460a0998a9687820152601082015460c0820152601182015460e082015260128201546101008201526101806108fa601b6108d0601386016111db565b946101208501958652601981015461014086015260ff601a82015416151561016086015201611135565b910152519361091461090d888751611357565b845161136a565b83528c6109326109278983890151611357565b91850191825161136a565b9052610942876040870151611357565b6109516040850191825161136a565b90526109608782870151611357565b920191825161136a565b905261098761097c8583850151611357565b918d0191825161136a565b90520151611357565b91870191825161136a565b9052386107de565b60c0856109b360405180926110c4565bf35b8335838111610a43578201606090816023198236030112610a295760405191820182811086821117610a31576040528c810135858111610a2d5790610a016064928f3691840101610fee565b835260448101358984015201358015158103610a2957604082015281529285019285016107a0565b8a80fd5b8b80fd5b634e487b7160e01b8c5260418b528d8cfd5b8980fd5b8780fd5b634e487b7160e01b835260418252602483fd5b503461016c57602036600319011261016c5780356001600160a01b038116919082900361057a57610a8d611221565b8115610aaf57506bffffffffffffffffffffffff60a01b600154161760015580f35b60649060206040519162461bcd60e51b83528201526013602482015272496e76616c6964206e6577206164647265737360681b6044820152fd5b503461016c57602036600319011261016c576001600160a01b038135818116929083900361016857610b19611221565b600154918216610b3557506001600160a01b0319161760015580f35b60649060206040519162461bcd60e51b8352820152601660248201527513185b99139195081a5cc8185b1c9958591e481cd95d60521b6044820152fd5b82346101d157806003193601126101d157546040516001600160a01b039091168152602090f35b82346101d157806003193601126101d157610bb2611221565b80546001600160a01b03198116825581906001600160a01b03167f8be0079c531659141344cd1fd0a4f28419497f9722a3daafe3b4186f6b6457e08280a380f35b82346101d157610c023661104a565b906040518181809351602081930191610c1a9261107c565b81016002815203602001902090825260205260409020610c3981611135565b60018201549091610c4c600282016111db565b92610c59600883016111db565b91600e810154600f8201546010830154601184015460128501549160138601610c81906111db565b93601987015495601a88015460ff1697601b01610c9d90611135565b996040519c8d9c8d9b8c6103808091528d01610cb89161109f565b9b6020015260408d01610cca916110c4565b6101008c01610cd8916110c4565b6101c08b01526101e08a01526102008901526102208801526102408701526102608601610d04916110c4565b6103208501521515610340840152828103610360840152610d249161109f565b0390f35b82346101d1576040610d24916020610dc3610d423661104a565b929060606101808751610d5481610f7d565b8281528785820152610d64611279565b89820152610d70611279565b838201528760808201528760a08201528760c08201528760e082015287610100820152610d9b611279565b610120820152876101408201528761016082015201528186519382858094519384920161107c565b8101600281520301902090825260205220610e83601b60405192610de684610f7d565b610def81611135565b845260018101546020850152610e07600282016111db565b6040850152610e18600882016111db565b6060850152600e8101546080850152600f81015460a0850152601081015460c0850152601181015460e08501526012810154610100850152610e5c601382016111db565b610120850152601981015461014085015260ff601a82015416151561016085015201611135565b61018082015260405191829160208352610180610eae825161038060208701526103a086019061109f565b9160208101516040860152610ecb604082015160608701906110c4565b610ede60608201516101208701906110c4565b60808101516101e086015260a081015161020086015260c081015161022086015260e0810151610240860152610100810151610260860152610f2a6101208201516102808701906110c4565b61014081015161034086015261016081015115156103608601520151838203601f190161038085015261109f565b83903461016c578160031936011261016c576001546001600160a01b03168152602090f35b6101a0810190811067ffffffffffffffff821117610f9a57604052565b634e487b7160e01b600052604160045260246000fd5b60c0810190811067ffffffffffffffff821117610f9a57604052565b90601f8019910116810190811067ffffffffffffffff821117610f9a57604052565b81601f820112156110455780359067ffffffffffffffff8211610f9a5760405192611023601f8401601f191660200185610fcc565b8284526020838301011161104557816000926020809301838601378301015290565b600080fd5b6040600319820112611045576004359067ffffffffffffffff82116110455761107591600401610fee565b9060243590565b60005b83811061108f5750506000910152565b818101518382015260200161107f565b906020916110b88151809281855285808601910161107c565b601f01601f1916010190565b60a0809180518452602081015160208501526040810151604085015260608101516060850152608081015160808501520151910152565b90600182811c9216801561112b575b602083101461111557565b634e487b7160e01b600052602260045260246000fd5b91607f169161110a565b9060405191826000825492611149846110fb565b9081845260019485811690816000146111b85750600114611175575b505061117392500383610fcc565b565b9093915060005260209081600020936000915b8183106111a057505061117393508201013880611165565b85548884018501529485019487945091830191611188565b91505061117394506020925060ff191682840152151560051b8201013880611165565b906040516111e881610fb0565b60a06005829480548452600181015460208501526002810154604085015260038101546060850152600481015460808501520154910152565b6000546001600160a01b0316330361123557565b606460405162461bcd60e51b815260206004820152602060248201527f4f776e61626c653a2063616c6c6572206973206e6f7420746865206f776e65726044820152fd5b6040519061128682610fb0565b8160a06000918281528260208201528260408201528260608201528260808201520152565b156112b257565b60405162461bcd60e51b8152602060048201526015602482015274496e76616c6964206275696c64696e67206e616d6560581b6044820152606490fd5b156112f657565b60405162461bcd60e51b81526020600482015260166024820152754275696c64696e67206e6f7420617661696c61626c6560501b6044820152606490fd5b9190820391821161134157565b634e487b7160e01b600052601160045260246000fd5b8181029291811591840414171561134157565b919082018092116113415756fea2646970667358221220d76227df915a581e96b9110cb62f99299f71397e3969faaa9cbe8277d6084b1a64736f6c63430008130033",
  "linkReferences": {},
  "deployedLinkReferences": {}
}