{
  "_format": "hh-sol-artifact-1",
  "contractName": "RewardsDistributor",
  "sourceName": "contracts/rewardsDistributor.sol",
  "abi": [
    {
      "inputs": [
        {
          "internalType": "address",
          "name": "_leaderboardAddress",
          "type": "address"
        },
        {
          "internalType": "address",
          "name": "_landNFTAddress",
          "type": "address"
        },
        {
          "internalType": "address",
          "name": "_erc20TokenAddress",
          "type": "address"
        },
        {
          "internalType": "uint256[]",
          "name": "_rewardWeights",
          "type": "uint256[]"
        },
        {
          "internalType": "uint256",
          "name": "_maxRewardsRecipients",
          "type": "uint256"
        }
      ],
      "stateMutability": "nonpayable",
      "type": "constructor"
    },
    {
      "anonymous": false,
      "inputs": [
        {
          "indexed": true,
          "internalType": "address",
          "name": "from",
          "type": "address"
        },
        {
          "indexed": false,
          "internalType": "uint256",
          "name": "amount",
          "type": "uint256"
        }
      ],
      "name": "ERC20Deposited",
      "type": "event"
    },
    {
      "anonymous": false,
      "inputs": [
        {
          "indexed": true,
          "internalType": "address",
          "name": "to",
          "type": "address"
        },
        {
          "indexed": false,
          "internalType": "uint256",
          "name": "amount",
          "type": "uint256"
        }
      ],
      "name": "ERC20Withdrawn",
      "type": "event"
    },
    {
      "anonymous": false,
      "inputs": [
        {
          "indexed": true,
          "internalType": "address",
          "name": "previousOwner",
          "type": "address"
        },
        {
          "indexed": true,
          "internalType": "address",
          "name": "newOwner",
          "type": "address"
        }
      ],
      "name": "OwnershipTransferred",
      "type": "event"
    },
    {
      "anonymous": false,
      "inputs": [
        {
          "indexed": false,
          "internalType": "uint256[]",
          "name": "weights",
          "type": "uint256[]"
        }
      ],
      "name": "RewardWeightsUpdated",
      "type": "event"
    },
    {
      "anonymous": false,
      "inputs": [
        {
          "indexed": false,
          "internalType": "uint256",
          "name": "totalRewards",
          "type": "uint256"
        }
      ],
      "name": "RewardsDistributed",
      "type": "event"
    },
    {
      "inputs": [
        {
          "internalType": "uint256",
          "name": "amount",
          "type": "uint256"
        }
      ],
      "name": "depositERC20",
      "outputs": [],
      "stateMutability": "nonpayable",
      "type": "function"
    },
    {
      "inputs": [],
      "name": "distributeRewards",
      "outputs": [],
      "stateMutability": "nonpayable",
      "type": "function"
    },
    {
      "inputs": [],
      "name": "erc20Token",
      "outputs": [
        {
          "internalType": "contract IERC20",
          "name": "",
          "type": "address"
        }
      ],
      "stateMutability": "view",
      "type": "function"
    },
    {
      "inputs": [],
      "name": "getCurrentLeaderboard",
      "outputs": [
        {
          "components": [
            {
              "internalType": "uint256",
              "name": "tokenId",
              "type": "uint256"
            },
            {
              "internalType": "uint256",
              "name": "score",
              "type": "uint256"
            }
          ],
          "internalType": "struct ILeaderboard.NFTScore[]",
          "name": "",
          "type": "tuple[]"
        }
      ],
      "stateMutability": "view",
      "type": "function"
    },
    {
      "inputs": [],
      "name": "getRewardWeights",
      "outputs": [
        {
          "internalType": "uint256[]",
          "name": "",
          "type": "uint256[]"
        }
      ],
      "stateMutability": "view",
      "type": "function"
    },
    {
      "inputs": [],
      "name": "getTotalRewardsAvailable",
      "outputs": [
        {
          "internalType": "uint256",
          "name": "",
          "type": "uint256"
        }
      ],
      "stateMutability": "view",
      "type": "function"
    },
    {
      "inputs": [],
      "name": "landNFTContract",
      "outputs": [
        {
          "internalType": "contract ILandNFT",
          "name": "",
          "type": "address"
        }
      ],
      "stateMutability": "view",
      "type": "function"
    },
    {
      "inputs": [],
      "name": "leaderboardContract",
      "outputs": [
        {
          "internalType": "contract ILeaderboard",
          "name": "",
          "type": "address"
        }
      ],
      "stateMutability": "view",
      "type": "function"
    },
    {
      "inputs": [],
      "name": "maxRewardsRecipients",
      "outputs": [
        {
          "internalType": "uint256",
          "name": "",
          "type": "uint256"
        }
      ],
      "stateMutability": "view",
      "type": "function"
    },
    {
      "inputs": [],
      "name": "owner",
      "outputs": [
        {
          "internalType": "address",
          "name": "",
          "type": "address"
        }
      ],
      "stateMutability": "view",
      "type": "function"
    },
    {
      "inputs": [],
      "name": "renounceOwnership",
      "outputs": [],
      "stateMutability": "nonpayable",
      "type": "function"
    },
    {
      "inputs": [
        {
          "internalType": "uint256",
          "name": "",
          "type": "uint256"
        }
      ],
      "name": "rewardWeights",
      "outputs": [
        {
          "internalType": "uint256",
          "name": "",
          "type": "uint256"
        }
      ],
      "stateMutability": "view",
      "type": "function"
    },
    {
      "inputs": [
        {
          "internalType": "uint256",
          "name": "_maxRecipients",
          "type": "uint256"
        }
      ],
      "name": "setMaxRewardsRecipients",
      "outputs": [],
      "stateMutability": "nonpayable",
      "type": "function"
    },
    {
      "inputs": [
        {
          "internalType": "uint256[]",
          "name": "_rewardWeights",
          "type": "uint256[]"
        }
      ],
      "name": "setRewardWeights",
      "outputs": [],
      "stateMutability": "nonpayable",
      "type": "function"
    },
    {
      "inputs": [],
      "name": "totalWeight",
      "outputs": [
        {
          "internalType": "uint256",
          "name": "",
          "type": "uint256"
        }
      ],
      "stateMutability": "view",
      "type": "function"
    },
    {
      "inputs": [
        {
          "internalType": "address",
          "name": "newOwner",
          "type": "address"
        }
      ],
      "name": "transferOwnership",
      "outputs": [],
      "stateMutability": "nonpayable",
      "type": "function"
    },
    {
      "inputs": [
        {
          "internalType": "address",
          "name": "_newLandNFTAddress",
          "type": "address"
        }
      ],
      "name": "updateLandNFTContract",
      "outputs": [],
      "stateMutability": "nonpayable",
      "type": "function"
    },
    {
      "inputs": [
        {
          "internalType": "address",
          "name": "_newLeaderboardAddress",
          "type": "address"
        }
      ],
      "name": "updateLeaderboardContract",
      "outputs": [],
      "stateMutability": "nonpayable",
      "type": "function"
    },
    {
      "inputs": [
        {
          "internalType": "uint256",
          "name": "amount",
          "type": "uint256"
        }
      ],
      "name": "withdrawERC20",
      "outputs": [],
      "stateMutability": "nonpayable",
      "type": "function"
    }
  ],
  "bytecode": "0x604060a08152346200055357620019f4803803806200001e816200056e565b928339810160a0828203126200055357620000398262000594565b6020906200004982850162000594565b936200005786820162000594565b60608201519092906001600160401b0390818111620005535783019286601f8501121562000553578351918211620005585760059682881b94876200009e8188016200056e565b809581520190888297820101928311620005535788809101915b8383106200054257505050506080015160008054336001600160a01b0319808316821784558c51949b93989390926001600160a01b03929083167f8be0079c531659141344cd1fd0a4f28419497f9722a3daafe3b4186f6b6457e08b80a381600197888055169485156200050057508116928315620004bc571692831562000478576200014885511515620005a9565b8a15620004345781600254161760025560035416176003556080526200016d62000621565b6200017b81511515620005a9565b805160065411620003dd5781600496875486895580620003b7575b5085815591949291905082825b62000294575b50508751858152935185850181905284890193925b868282106200028057505050505090807fd8dcace84bd0bc32f5dbfd23eb84d3d0fc1a1d03e94ad39a3c2b995c1ca401d7920390a1620001fd62000621565b828254106200023e5750506006555161137990816200067b823960805181818161038701528181610552015281816106cb015281816107e501526108e30152f35b835162461bcd60e51b815291820152601860248201527f5365742072657761726420776569676874732066697273740000000000000000604482015260649150fd5b8451865294850194909301928201620001be565b8592939551811015620003ad57620002ad8184620005f6565b51156200036a57620002c08184620005f6565b518854680100000000000000008110156200035757858101808b5581101562000344578988528888200155620002f78184620005f6565b5182549081018091116200033157825560001981146200031e5791949291820182620001a3565b634e487b7160e01b865260118852602486fd5b634e487b7160e01b875260118952602487fd5b634e487b7160e01b885260328a52602488fd5b634e487b7160e01b885260418a52602488fd5b895162461bcd60e51b8152808901889052601e60248201527f52657761726420776569676874206d75737420626520706f73697469766500006044820152606490fd5b94929194620001a9565b888752878720908101905b818110620003d1575062000196565b878155859301620003c2565b875162461bcd60e51b815260048101869052602a60248201527f496e73756666696369656e7420726577617264207765696768747320666f7220604482015269726563697069656e747360b01b6064820152608490fd5b8b5162461bcd60e51b8152600481018a9052601e60248201527f496e76616c6964206d6178207265776172647320726563697069656e747300006044820152606490fd5b8b5162461bcd60e51b8152600481018a9052601b60248201527f496e76616c696420455243323020746f6b656e206164647265737300000000006044820152606490fd5b8c5162461bcd60e51b8152600481018b9052601760248201527f496e76616c6964204c616e644e465420616464726573730000000000000000006044820152606490fd5b62461bcd60e51b8152600481018b9052601b60248201527f496e76616c6964204c6561646572626f617264206164647265737300000000006044820152606490fd5b8251815291810191899101620000b8565b600080fd5b634e487b7160e01b600052604160045260246000fd5b6040519190601f01601f191682016001600160401b038111838210176200055857604052565b51906001600160a01b03821682036200055357565b15620005b157565b60405162461bcd60e51b815260206004820152601760248201527f52657761726420776569676874732072657175697265640000000000000000006044820152606490fd5b80518210156200060b5760209160051b010190565b634e487b7160e01b600052603260045260246000fd5b6000546001600160a01b031633036200063657565b606460405162461bcd60e51b815260206004820152602060248201527f4f776e61626c653a2063616c6c6572206973206e6f7420746865206f776e65726044820152fdfe6040608081526004908136101561001557600080fd5b600091823560e01c9081630361ca5a14610d7457816304d4e9bd14610cef5781632b359bc514610cc6578163491db66814610c185781636f4a2cd01461086e578163715018a6146108145781638a13eea7146107d05781638da5cb5b146107a857816396c82e571461078957816398b5b5da1461074e578163a02f413f1461069c578163ae3be01d1461067d578163ae609ab5146105e7578163b79092fd146104fe578163d78276c614610342578163f2fde38b14610277578163f806cb25146101bd578163fad3a3d21461011f575063ff0224d3146100f457600080fd5b3461011b578160031936011261011b5760025490516001600160a01b039091168152602090f35b5080fd5b9050346101b95760203660031901126101b95780356001600160a01b03811692908390036101b55761014f6110e4565b82156101725750506bffffffffffffffffffffffff60a01b600254161760025580f35b906020606492519162461bcd60e51b8352820152601b60248201527f496e76616c6964204c6561646572626f617264206164647265737300000000006044820152fd5b8380fd5b8280fd5b9050346101b95760203660031901126101b9578035916101db6110e4565b821561023457828254106101f157505060065580f35b906020606492519162461bcd60e51b8352820152601860248201527f53657420726577617264207765696768747320666972737400000000000000006044820152fd5b906020606492519162461bcd60e51b8352820152602060248201527f4d7573742068617665206174206c65617374206f6e6520726563697069656e746044820152fd5b919050346101b95760203660031901126101b9576001600160a01b0382358181169391929084900361033e576102ab6110e4565b83156102ec57505082546001600160a01b0319811683178455167f8be0079c531659141344cd1fd0a4f28419497f9722a3daafe3b4186f6b6457e08380a380f35b906020608492519162461bcd60e51b8352820152602660248201527f4f776e61626c653a206e6577206f776e657220697320746865207a65726f206160448201526564647265737360d01b6064820152fd5b8480fd5b9050346101b9576020806003193601126101b5578135916103616110e4565b61036961122e565b610374831515611182565b83516370a0823160e01b815230818301527f00000000000000000000000000000000000000000000000000000000000000006001600160a01b031691908381602481865afa80156104f457859188916104bf575b501061047c57845163a9059cbb60e01b8152339181019182526020820185905291839183919082908990829060400103925af1908115610472577f7e2c99819371db0a6fc6f4269fe872496e44f502df19ba3eae594b7a15987460939491610437918791610445575b506111ea565b519283523392a26001805580f35b6104659150843d861161046b575b61045d818361100c565b8101906111cd565b38610431565b503d610453565b84513d87823e3d90fd5b845162461bcd60e51b8152908101839052601a60248201527f496e73756666696369656e7420746f6b656e2062616c616e63650000000000006044820152606490fd5b809250858092503d83116104ed575b6104d8818361100c565b810103126104e957849051386103c8565b8680fd5b503d6104ce565b86513d89823e3d90fd5b919050346101b95760203660031901126101b95781359161051d61122e565b610528831515611182565b81516323b872dd60e01b8152339181019190915230602482015260448101839052602081606481877f00000000000000000000000000000000000000000000000000000000000000006001600160a01b03165af19081156105dd57906105949185916105c557506111ea565b519081527fab79632de7fe1724598ce2214eaa326d90d48064d2d3397406ecc5769316a5f660203392a26001805580f35b610465915060203d811161046b5761045d818361100c565b82513d86823e3d90fd5b9050346101b95760203660031901126101b95780356001600160a01b03811692908390036101b5576106176110e4565b821561063a5750506bffffffffffffffffffffffff60a01b600354161760035580f35b906020606492519162461bcd60e51b8352820152601760248201527f496e76616c6964204c616e644e465420616464726573730000000000000000006044820152fd5b50503461011b578160031936011261011b576020906006549051908152f35b919050346101b957826003193601126101b95780516370a0823160e01b815230928101929092526020826024817f00000000000000000000000000000000000000000000000000000000000000006001600160a01b03165afa91821561074457839261070d575b6020838351908152f35b9091506020813d821161073c575b816107286020938361100c565b810103126101b95760209250519038610703565b3d915061071b565b81513d85823e3d90fd5b82843461078657602036600319011261078657823592548310156107865750610778602092611097565b91905490519160031b1c8152f35b80fd5b50503461011b578160031936011261011b576020906005549051908152f35b50503461011b578160031936011261011b57905490516001600160a01b039091168152602090f35b50503461011b578160031936011261011b57517f00000000000000000000000000000000000000000000000000000000000000006001600160a01b03168152602090f35b833461078657806003193601126107865761082d6110e4565b80546001600160a01b03198116825581906001600160a01b03167f8be0079c531659141344cd1fd0a4f28419497f9722a3daafe3b4186f6b6457e08280a380f35b9050346101b957826003193601126101b9576108886110e4565b61089061122e565b60025482516336bb1d3760e11b8152906001600160a01b0390859083908590829085165afa918215610472578592610bf4575b50815115610bba57815192600654808511610bb2575b50929085938693827f000000000000000000000000000000000000000000000000000000000000000016905b84861061093e57887f6d1c76d614228b523baa4dcd9539e2c713b54ff4ab3ff2d1627e7f6cd32be4426020898b51908152a16001805580f35b90919293949561094e8783611161565b515160039186835416918a5193849384926331a9108f60e11b845289840152602095869160249687915afa918215610ba8578d92610b6c575b5088821615610b33578c9061099b8c611097565b9054911b1c8c516370a0823160e01b8152308a820152868187818c5afa928315610b285792610af5575b50818102918183041490151715610ae357600554908115610ad15704928315610a8057508a5163a9059cbb60e01b81526001600160a01b039091168782019081526020810184905290939291908c908490869081906040010381848b5af18015610a7457610a4d95610a4795610a429392610a57575b50506111ea565b611175565b9661113c565b9493929190610905565b610a6d9250803d1061046b5761045d818361100c565b3880610a3b565b508b51903d90823e3d90fd5b876027608492878f519362461bcd60e51b85528401528201527f52657761726420616d6f756e74206d7573742062652067726561746572207468604482015266616e207a65726f60c81b6064820152fd5b634e487b7160e01b8e5260128952848efd5b634e487b7160e01b8d5260118852838dfd5b9091508581813d8311610b21575b610b0d818361100c565b81010312610b1d575190386109c5565b8d80fd5b503d610b03565b8e51903d90823e3d90fd5b508a5162461bcd60e51b81528088018590526013818501527224b73b30b634b2103a37b5b2b71037bbb732b960691b6044820152606490fd5b9091508481813d8311610ba1575b610b84818361100c565b81010312610b9d57518881168103610b9d579038610987565b8c80fd5b503d610b7a565b8c513d8f823e3d90fd5b9350386108d9565b835162461bcd60e51b815260208185015260146024820152734c6561646572626f61726420697320656d70747960601b6044820152606490fd5b610c119192503d8087833e610c09818361100c565b810190611284565b90386108c3565b919050346101b957826003193601126101b95760025481516336bb1d3760e11b815292849184919082906001600160a01b03165afa918215610744578392610caa575b50908151928392602080850191818652845180935281818701950193905b838210610c865786860387f35b84518051875283015186840152879650948501949382019360019190910190610c79565b610cbf9192503d8085833e610c09818361100c565b9038610c5b565b50503461011b578160031936011261011b5760035490516001600160a01b039091168152602090f35b83833461011b578160031936011261011b578051918284549081815260208091019583527f8a35acfbc15ff81a39ae7d344fd709f28e8600b4aa8c65c6b64bfe7fe36bd19b92905b828210610d5d57610d598686610d4f828b038361100c565b519182918261105c565b0390f35b835487529586019560019384019390910190610d37565b9050346101b957602092836003193601126107865781359067ffffffffffffffff82116107865736602383011215610786578183013592610db484611044565b95610dc18651978861100c565b8487528087019360249485600597881b830101913683116110085786849101915b838310610ff85750505050610df56110e4565b865115610fb857865160065411610f6557815483835580610f24575b50828555825b8751811015610eed57610e2a8189611161565b5115610eab57610e3a8189611161565b51835468010000000000000000811015610e995790610e62826001610e949594018755611097565b819291549060031b91821b91600019901b1916179055610e8d610e85828b611161565b518854611175565b875561113c565b610e17565b634e487b7160e01b8652604185528686fd5b865162461bcd60e51b8152808401839052601e818701527f52657761726420776569676874206d75737420626520706f73697469766500006044820152606490fd5b837fd8dcace84bd0bc32f5dbfd23eb84d3d0fc1a1d03e94ad39a3c2b995c1ca401d7610f1e8a8a519182918261105c565b0390a180f35b8284527f8a35acfbc15ff81a39ae7d344fd709f28e8600b4aa8c65c6b64bfe7fe36bd19b908101905b818110610f5a5750610e11565b848155600101610f4d565b855162461bcd60e51b815291820152602a818401527f496e73756666696369656e7420726577617264207765696768747320666f7220604482015269726563697069656e747360b01b6064820152608490fd5b855162461bcd60e51b8152918201526017818401527f52657761726420776569676874732072657175697265640000000000000000006044820152606490fd5b8235815291810191849101610de2565b8580fd5b90601f8019910116810190811067ffffffffffffffff82111761102e57604052565b634e487b7160e01b600052604160045260246000fd5b67ffffffffffffffff811161102e5760051b60200190565b6020908160408183019282815285518094520193019160005b828110611083575050505090565b835185529381019392810192600101611075565b6004548110156110ce5760046000527f8a35acfbc15ff81a39ae7d344fd709f28e8600b4aa8c65c6b64bfe7fe36bd19b0190600090565b634e487b7160e01b600052603260045260246000fd5b6000546001600160a01b031633036110f857565b606460405162461bcd60e51b815260206004820152602060248201527f4f776e61626c653a2063616c6c6572206973206e6f7420746865206f776e65726044820152fd5b600019811461114b5760010190565b634e487b7160e01b600052601160045260246000fd5b80518210156110ce5760209160051b010190565b9190820180921161114b57565b1561118957565b606460405162461bcd60e51b815260206004820152602060248201527f416d6f756e74206d7573742062652067726561746572207468616e207a65726f6044820152fd5b908160209103126111e5575180151581036111e55790565b600080fd5b156111f157565b60405162461bcd60e51b8152602060048201526015602482015274115490cc8c081d1c985b9cd9995c8819985a5b1959605a1b6044820152606490fd5b60026001541461123f576002600155565b60405162461bcd60e51b815260206004820152601f60248201527f5265656e7472616e637947756172643a207265656e7472616e742063616c6c006044820152606490fd5b90602080838303126111e557825167ffffffffffffffff938482116111e557019082601f830112156111e55781516112bb81611044565b946040946112cb8651978861100c565b828752838088019360061b860101948186116111e5578401925b8584106112f6575050505050505090565b86848303126111e557865190878201908282108583111761132e578892879284528651815282870151838201528152019301926112e5565b60246000634e487b7160e01b81526041600452fdfea26469706673582212209323d9671dacd9fe27a40c62de0308327637e61b9e13e8ea65d5f58cab23c11a64736f6c63430008130033",
  "linkReferences": {},
  "deployedLinkReferences": {}
}