{
  "_format": "hh-sol-artifact-1",
  "contractName": "BuildingManager",
  "sourceName": "contracts/BuildingManager.sol",
  "abi": [
    {
      "inputs": [],
      "stateMutability": "nonpayable",
      "type": "constructor"
    },
    {
      "inputs": [
        {
          "internalType": "string",
          "name": "",
          "type": "string"
        },
        {
          "internalType": "uint256",
          "name": "",
          "type": "uint256"
        }
      ],
      "name": "availableBuildings",
      "outputs": [
        {
          "internalType": "string",
          "name": "name",
          "type": "string"
        },
        {
          "internalType": "uint256",
          "name": "level",
          "type": "uint256"
        },
        {
          "components": [
            {
              "internalType": "uint256",
              "name": "food",
              "type": "uint256"
            },
            {
              "internalType": "uint256",
              "name": "wood",
              "type": "uint256"
            },
            {
              "internalType": "uint256",
              "name": "stone",
              "type": "uint256"
            },
            {
              "internalType": "uint256",
              "name": "brass",
              "type": "uint256"
            },
            {
              "internalType": "uint256",
              "name": "iron",
              "type": "uint256"
            },
            {
              "internalType": "uint256",
              "name": "gold",
              "type": "uint256"
            }
          ],
          "internalType": "struct DataTypes.Resources",
          "name": "baseCost",
          "type": "tuple"
        },
        {
          "components": [
            {
              "internalType": "uint256",
              "name": "food",
              "type": "uint256"
            },
            {
              "internalType": "uint256",
              "name": "wood",
              "type": "uint256"
            },
            {
              "internalType": "uint256",
              "name": "stone",
              "type": "uint256"
            },
            {
              "internalType": "uint256",
              "name": "brass",
              "type": "uint256"
            },
            {
              "internalType": "uint256",
              "name": "iron",
              "type": "uint256"
            },
            {
              "internalType": "uint256",
              "name": "gold",
              "type": "uint256"
            }
          ],
          "internalType": "struct DataTypes.Resources",
          "name": "upkeepCost",
          "type": "tuple"
        },
        {
          "internalType": "uint256",
          "name": "productionBoost",
          "type": "uint256"
        },
        {
          "internalType": "uint256",
          "name": "happinessBoost",
          "type": "uint256"
        },
        {
          "internalType": "uint256",
          "name": "technologyBoost",
          "type": "uint256"
        },
        {
          "internalType": "uint256",
          "name": "pietyBoost",
          "type": "uint256"
        },
        {
          "internalType": "uint256",
          "name": "strengthBoost",
          "type": "uint256"
        },
        {
          "components": [
            {
              "internalType": "uint256",
              "name": "foodPerEpoch",
              "type": "uint256"
            },
            {
              "internalType": "uint256",
              "name": "woodPerEpoch",
              "type": "uint256"
            },
            {
              "internalType": "uint256",
              "name": "stonePerEpoch",
              "type": "uint256"
            },
            {
              "internalType": "uint256",
              "name": "brassPerEpoch",
              "type": "uint256"
            },
            {
              "internalType": "uint256",
              "name": "ironPerEpoch",
              "type": "uint256"
            },
            {
              "internalType": "uint256",
              "name": "goldPerEpoch",
              "type": "uint256"
            }
          ],
          "internalType": "struct DataTypes.ResourceProduction",
          "name": "resourceProduction",
          "type": "tuple"
        },
        {
          "internalType": "uint256",
          "name": "baseConstructionTime",
          "type": "uint256"
        },
        {
          "internalType": "bool",
          "name": "isAvailable",
          "type": "bool"
        }
      ],
      "stateMutability": "view",
      "type": "function"
    },
    {
      "inputs": [
        {
          "components": [
            {
              "internalType": "string",
              "name": "name",
              "type": "string"
            },
            {
              "internalType": "uint256",
              "name": "level",
              "type": "uint256"
            },
            {
              "internalType": "bool",
              "name": "isActive",
              "type": "bool"
            }
          ],
          "internalType": "struct DataTypes.Building[]",
          "name": "buildings",
          "type": "tuple[]"
        },
        {
          "internalType": "uint256",
          "name": "epochsElapsed",
          "type": "uint256"
        }
      ],
      "name": "calculateTotalResourceProduction",
      "outputs": [
        {
          "components": [
            {
              "internalType": "uint256",
              "name": "food",
              "type": "uint256"
            },
            {
              "internalType": "uint256",
              "name": "wood",
              "type": "uint256"
            },
            {
              "internalType": "uint256",
              "name": "stone",
              "type": "uint256"
            },
            {
              "internalType": "uint256",
              "name": "brass",
              "type": "uint256"
            },
            {
              "internalType": "uint256",
              "name": "iron",
              "type": "uint256"
            },
            {
              "internalType": "uint256",
              "name": "gold",
              "type": "uint256"
            }
          ],
          "internalType": "struct DataTypes.Resources",
          "name": "",
          "type": "tuple"
        }
      ],
      "stateMutability": "view",
      "type": "function"
    },
    {
      "inputs": [
        {
          "internalType": "string",
          "name": "buildingName",
          "type": "string"
        },
        {
          "internalType": "uint256",
          "name": "level",
          "type": "uint256"
        }
      ],
      "name": "completeBuildingConstruction",
      "outputs": [
        {
          "internalType": "uint256",
          "name": "productionBoost",
          "type": "uint256"
        },
        {
          "internalType": "uint256",
          "name": "happinessBoost",
          "type": "uint256"
        },
        {
          "internalType": "uint256",
          "name": "strengthBoost",
          "type": "uint256"
        }
      ],
      "stateMutability": "view",
      "type": "function"
    },
    {
      "inputs": [
        {
          "internalType": "string",
          "name": "name",
          "type": "string"
        },
        {
          "internalType": "uint256",
          "name": "level",
          "type": "uint256"
        }
      ],
      "name": "getBuildingInfo",
      "outputs": [
        {
          "components": [
            {
              "internalType": "string",
              "name": "name",
              "type": "string"
            },
            {
              "internalType": "uint256",
              "name": "level",
              "type": "uint256"
            },
            {
              "components": [
                {
                  "internalType": "uint256",
                  "name": "food",
                  "type": "uint256"
                },
                {
                  "internalType": "uint256",
                  "name": "wood",
                  "type": "uint256"
                },
                {
                  "internalType": "uint256",
                  "name": "stone",
                  "type": "uint256"
                },
                {
                  "internalType": "uint256",
                  "name": "brass",
                  "type": "uint256"
                },
                {
                  "internalType": "uint256",
                  "name": "iron",
                  "type": "uint256"
                },
                {
                  "internalType": "uint256",
                  "name": "gold",
                  "type": "uint256"
                }
              ],
              "internalType": "struct DataTypes.Resources",
              "name": "baseCost",
              "type": "tuple"
            },
            {
              "components": [
                {
                  "internalType": "uint256",
                  "name": "food",
                  "type": "uint256"
                },
                {
                  "internalType": "uint256",
                  "name": "wood",
                  "type": "uint256"
                },
                {
                  "internalType": "uint256",
                  "name": "stone",
                  "type": "uint256"
                },
                {
                  "internalType": "uint256",
                  "name": "brass",
                  "type": "uint256"
                },
                {
                  "internalType": "uint256",
                  "name": "iron",
                  "type": "uint256"
                },
                {
                  "internalType": "uint256",
                  "name": "gold",
                  "type": "uint256"
                }
              ],
              "internalType": "struct DataTypes.Resources",
              "name": "upkeepCost",
              "type": "tuple"
            },
            {
              "internalType": "uint256",
              "name": "productionBoost",
              "type": "uint256"
            },
            {
              "internalType": "uint256",
              "name": "happinessBoost",
              "type": "uint256"
            },
            {
              "internalType": "uint256",
              "name": "technologyBoost",
              "type": "uint256"
            },
            {
              "internalType": "uint256",
              "name": "pietyBoost",
              "type": "uint256"
            },
            {
              "internalType": "uint256",
              "name": "strengthBoost",
              "type": "uint256"
            },
            {
              "components": [
                {
                  "internalType": "uint256",
                  "name": "foodPerEpoch",
                  "type": "uint256"
                },
                {
                  "internalType": "uint256",
                  "name": "woodPerEpoch",
                  "type": "uint256"
                },
                {
                  "internalType": "uint256",
                  "name": "stonePerEpoch",
                  "type": "uint256"
                },
                {
                  "internalType": "uint256",
                  "name": "brassPerEpoch",
                  "type": "uint256"
                },
                {
                  "internalType": "uint256",
                  "name": "ironPerEpoch",
                  "type": "uint256"
                },
                {
                  "internalType": "uint256",
                  "name": "goldPerEpoch",
                  "type": "uint256"
                }
              ],
              "internalType": "struct DataTypes.ResourceProduction",
              "name": "resourceProduction",
              "type": "tuple"
            },
            {
              "internalType": "uint256",
              "name": "baseConstructionTime",
              "type": "uint256"
            },
            {
              "internalType": "bool",
              "name": "isAvailable",
              "type": "bool"
            }
          ],
          "internalType": "struct BuildingManager.BuildingInfo",
          "name": "",
          "type": "tuple"
        }
      ],
      "stateMutability": "view",
      "type": "function"
    },
    {
      "inputs": [],
      "name": "landNFT",
      "outputs": [
        {
          "internalType": "address",
          "name": "",
          "type": "address"
        }
      ],
      "stateMutability": "view",
      "type": "function"
    },
    {
      "inputs": [
        {
          "internalType": "address",
          "name": "_landNFT",
          "type": "address"
        }
      ],
      "name": "setLandNFT",
      "outputs": [],
      "stateMutability": "nonpayable",
      "type": "function"
    },
    {
      "inputs": [
        {
          "internalType": "string",
          "name": "buildingName",
          "type": "string"
        },
        {
          "internalType": "uint256",
          "name": "level",
          "type": "uint256"
        },
        {
          "components": [
            {
              "internalType": "uint256",
              "name": "food",
              "type": "uint256"
            },
            {
              "internalType": "uint256",
              "name": "wood",
              "type": "uint256"
            },
            {
              "internalType": "uint256",
              "name": "stone",
              "type": "uint256"
            },
            {
              "internalType": "uint256",
              "name": "brass",
              "type": "uint256"
            },
            {
              "internalType": "uint256",
              "name": "iron",
              "type": "uint256"
            },
            {
              "internalType": "uint256",
              "name": "gold",
              "type": "uint256"
            }
          ],
          "internalType": "struct DataTypes.Resources",
          "name": "currentResources",
          "type": "tuple"
        },
        {
          "internalType": "uint256",
          "name": "production",
          "type": "uint256"
        }
      ],
      "name": "startBuildingConstruction",
      "outputs": [
        {
          "components": [
            {
              "internalType": "uint256",
              "name": "food",
              "type": "uint256"
            },
            {
              "internalType": "uint256",
              "name": "wood",
              "type": "uint256"
            },
            {
              "internalType": "uint256",
              "name": "stone",
              "type": "uint256"
            },
            {
              "internalType": "uint256",
              "name": "brass",
              "type": "uint256"
            },
            {
              "internalType": "uint256",
              "name": "iron",
              "type": "uint256"
            },
            {
              "internalType": "uint256",
              "name": "gold",
              "type": "uint256"
            }
          ],
          "internalType": "struct DataTypes.Resources",
          "name": "updatedResources",
          "type": "tuple"
        },
        {
          "internalType": "uint256",
          "name": "completionTime",
          "type": "uint256"
        }
      ],
      "stateMutability": "view",
      "type": "function"
    }
  ],
  "bytecode": "0x60806040523480156200001157600080fd5b506200001c62000022565b62003804565b604051806101800160405280604051806040016040528060048152602001634661726d60e01b8152508152602001600181526020016040518060c001604052806064815260200160328152602001601e8152602001600081526020016000815260200160148152508152602001620000d26040518060c001604052806064815260200160328152602001601e8152602001600081526020016000815260200160148152506200351860201b60201c565b815260200160058152602001600281526020016000815260200160008152602001600081526020016040518060c0016040528060648152602001600081526020016000815260200160008152602001600081526020016000815250815260200161a8c081526020016001151581525060016040516200015b90634661726d60e01b815260040190565b9081526040805160209281900383019020600160009081529252902081518190620001879082620036e9565b5060208201518160010155604082015181600201600082015181600001556020820151816001015560408201518160020155606082015181600301556080820151816004015560a082015181600501555050606082015181600801600082015181600001556020820151816001015560408201518160020155606082015181600301556080820151816004015560a082015181600501555050608082015181600e015560a082015181600f015560c0820151816010015560e08201518160110155610100820151816012015561012082015181601301600082015181600001556020820151816001015560408201518160020155606082015181600301556080820151816004015560a082015181600501555050610140820151816019015561016082015181601a0160006101000a81548160ff0219169083151502179055509050506040518061018001604052806040518060400160405280600b81526020016a131d5b58995c88135a5b1b60aa1b8152508152602001600181526020016040518060c0016040528060508152602001603c815260200160288152602001600081526020016000815260200160198152508152602001620003816040518060c0016040528060508152602001603c815260200160288152602001600081526020016000815260200160198152506200351860201b60201c565b815260200160048152602001600081526020016000815260200160008152602001600081526020016040518060c0016040528060008152602001606481526020016000815260200160008152602001600081526020016000815250815260200161a8c0815260200160011515815250600160405162000411906a131d5b58995c88135a5b1b60aa1b8152600b0190565b90815260408051602092819003830190206001600090815292529020815181906200043d9082620036e9565b5060208201518160010155604082015181600201600082015181600001556020820151816001015560408201518160020155606082015181600301556080820151816004015560a082015181600501555050606082015181600801600082015181600001556020820151816001015560408201518160020155606082015181600301556080820151816004015560a082015181600501555050608082015181600e015560a082015181600f015560c0820151816010015560e08201518160110155610100820151816012015561012082015181601301600082015181600001556020820151816001015560408201518160020155606082015181600301556080820151816004015560a082015181600501555050610140820151816019015561016082015181601a0160006101000a81548160ff0219169083151502179055509050506040518061018001604052806040518060400160405280600681526020016551756172727960d01b8152508152602001600181526020016040518060c00160405280605a815260200160288152602001603281526020016000815260200160008152602001601e8152508152602001620006326040518060c00160405280605a815260200160288152602001603281526020016000815260200160008152602001601e8152506200351860201b60201c565b815260200160038152602001600081526020016000815260200160008152602001600081526020016040518060c0016040528060008152602001600081526020016064815260200160008152602001600081526020016000815250815260200161a8c08152602001600115158152506001604051620006bd906551756172727960d01b815260060190565b9081526040805160209281900383019020600160009081529252902081518190620006e99082620036e9565b5060208201518160010155604082015181600201600082015181600001556020820151816001015560408201518160020155606082015181600301556080820151816004015560a082015181600501555050606082015181600801600082015181600001556020820151816001015560408201518160020155606082015181600301556080820151816004015560a082015181600501555050608082015181600e015560a082015181600f015560c0820151816010015560e08201518160110155610100820151816012015561012082015181601301600082015181600001556020820151816001015560408201518160020155606082015181600301556080820151816004015560a082015181600501555050610140820151816019015561016082015181601a0160006101000a81548160ff0219169083151502179055509050506040518061018001604052806040518060400160405280600981526020016849726f6e204d696e6560b81b8152508152602001600181526020016040518060c001604052806064815260200160328152602001603c8152602001600081526020016000815260200160238152508152602001620008e16040518060c001604052806064815260200160328152602001603c8152602001600081526020016000815260200160238152506200351860201b60201c565b815260200160038152602001600081526020016000815260200160008152602001600281526020016040518060c0016040528060008152602001600081526020016000815260200160008152602001606481526020016000815250815260200161a8c081526020016001151581525060016040516200096f906849726f6e204d696e6560b81b815260090190565b90815260408051602092819003830190206001600090815292529020815181906200099b9082620036e9565b5060208201518160010155604082015181600201600082015181600001556020820151816001015560408201518160020155606082015181600301556080820151816004015560a082015181600501555050606082015181600801600082015181600001556020820151816001015560408201518160020155606082015181600301556080820151816004015560a082015181600501555050608082015181600e015560a082015181600f015560c0820151816010015560e08201518160110155610100820151816012015561012082015181601301600082015181600001556020820151816001015560408201518160020155606082015181600301556080820151816004015560a082015181600501555050610140820151816019015561016082015181601a0160006101000a81548160ff021916908315150217905550905050604051806101800160405280604051806040016040528060088152602001670576f726b73686f760c41b8152508152602001600181526020016040518060c00160405280606e8152602001603c81526020016028815260200160008152602001600081526020016028815250815260200162000b926040518060c00160405280606e8152602001603c815260200160288152602001600081526020016000815260200160288152506200351860201b60201c565b815260200160058152602001600081526020016003815260200160008152602001600081526020016040518060c0016040528060008152602001600081526020016000815260200160648152602001600081526020016000815250815260200161a8c0815260200160011515815250600160405162000c1f90670576f726b73686f760c41b815260080190565b908152604080516020928190038301902060016000908152925290208151819062000c4b9082620036e9565b5060208201518160010155604082015181600201600082015181600001556020820151816001015560408201518160020155606082015181600301556080820151816004015560a082015181600501555050606082015181600801600082015181600001556020820151816001015560408201518160020155606082015181600301556080820151816004015560a082015181600501555050608082015181600e015560a082015181600f015560c0820151816010015560e08201518160110155610100820151816012015561012082015181601301600082015181600001556020820151816001015560408201518160020155606082015181600301556080820151816004015560a082015181600501555050610140820151816019015561016082015181601a0160006101000a81548160ff0219169083151502179055509050506040518061018001604052806040518060400160405280600b81526020016a4d61726b6574706c61636560a81b8152508152602001600181526020016040518060c0016040528060788152602001603281526020016032815260200160008152602001600081526020016032815250815260200162000e456040518060c00160405280607881526020016032815260200160328152602001600081526020016000815260200160328152506200351860201b60201c565b815260200160008152602001600381526020016000815260200160028152602001600081526020016040518060c0016040528060008152602001600081526020016000815260200160008152602001600081526020016064815250815260200161a8c0815260200160011515815250600160405162000ed5906a4d61726b6574706c61636560a81b8152600b0190565b908152604080516020928190038301902060016000908152925290208151819062000f019082620036e9565b5060208201518160010155604082015181600201600082015181600001556020820151816001015560408201518160020155606082015181600301556080820151816004015560a082015181600501555050606082015181600801600082015181600001556020820151816001015560408201518160020155606082015181600301556080820151816004015560a082015181600501555050608082015181600e015560a082015181600f015560c0820151816010015560e08201518160110155610100820151816012015561012082015181601301600082015181600001556020820151816001015560408201518160020155606082015181600301556080820151816004015560a082015181600501555050610140820151816019015561016082015181601a0160006101000a81548160ff021916908315150217905550905050604051806101800160405280604051806040016040528060088152602001674261727261636b7360c01b8152508152602001600181526020016040518060c001604052806082815260200160468152602001603c81526020016000815260200160008152602001603c8152508152602001620010f86040518060c001604052806082815260200160468152602001603c81526020016000815260200160008152602001603c8152506200351860201b60201c565b815260200160008152602001600081526020016000815260200160008152602001600581526020016040518060c0016040528060008152602001600081526020016000815260200160008152602001600081526020016000815250815260200161a8c081526020016001151581525060016040516200118590674261727261636b7360c01b815260080190565b9081526040805160209281900383019020600160009081529252902081518190620011b19082620036e9565b5060208201518160010155604082015181600201600082015181600001556020820151816001015560408201518160020155606082015181600301556080820151816004015560a082015181600501555050606082015181600801600082015181600001556020820151816001015560408201518160020155606082015181600301556080820151816004015560a082015181600501555050608082015181600e015560a082015181600f015560c0820151816010015560e08201518160110155610100820151816012015561012082015181601301600082015181600001556020820151816001015560408201518160020155606082015181600301556080820151816004015560a082015181600501555050610140820151816019015561016082015181601a0160006101000a81548160ff0219169083151502179055509050506040518061018001604052806040518060400160405280600681526020016554656d706c6560d01b8152508152602001600181526020016040518060c00160405280608c8152602001603c815260200160468152602001600081526020016000815260200160468152508152602001620013a66040518060c00160405280608c8152602001603c815260200160468152602001600081526020016000815260200160468152506200351860201b60201c565b815260200160008152602001600581526020016000815260200160078152602001600081526020016040518060c0016040528060008152602001600081526020016000815260200160008152602001600081526020016000815250815260200161a8c0815260200160011515815250600160405162001431906554656d706c6560d01b815260060190565b90815260408051602092819003830190206001600090815292529020815181906200145d9082620036e9565b5060208201518160010155604082015181600201600082015181600001556020820151816001015560408201518160020155606082015181600301556080820151816004015560a082015181600501555050606082015181600801600082015181600001556020820151816001015560408201518160020155606082015181600301556080820151816004015560a082015181600501555050608082015181600e015560a082015181600f015560c0820151816010015560e08201518160110155610100820151816012015561012082015181601301600082015181600001556020820151816001015560408201518160020155606082015181600301556080820151816004015560a082015181600501555050610140820151816019015561016082015181601a0160006101000a81548160ff0219169083151502179055509050506040518061018001604052806040518060400160405280600781526020016641636164656d7960c81b8152508152602001600181526020016040518060c00160405280609681526020016050815260200160328152602001600081526020016000815260200160508152508152602001620016536040518060c00160405280609681526020016050815260200160328152602001600081526020016000815260200160508152506200351860201b60201c565b815260200160058152602001600281526020016005815260200160008152602001600081526020016040518060c0016040528060008152602001600081526020016000815260200160008152602001600081526020016000815250815260200161a8c08152602001600115158152506001604051620016df906641636164656d7960c81b815260070190565b90815260408051602092819003830190206001600090815292529020815181906200170b9082620036e9565b5060208201518160010155604082015181600201600082015181600001556020820151816001015560408201518160020155606082015181600301556080820151816004015560a082015181600501555050606082015181600801600082015181600001556020820151816001015560408201518160020155606082015181600301556080820151816004015560a082015181600501555050608082015181600e015560a082015181600f015560c0820151816010015560e08201518160110155610100820151816012015561012082015181601301600082015181600001556020820151816001015560408201518160020155606082015181600301556080820151816004015560a082015181600501555050610140820151816019015561016082015181601a0160006101000a81548160ff02191690831515021790555090505060405180610180016040528060405180604001604052806007815260200166537461626c657360c81b8152508152602001600181526020016040518060c0016040528060a08152602001605a8152602001605081526020016000815260200160008152602001605a8152508152602001620019016040518060c0016040528060a08152602001605a8152602001605081526020016000815260200160008152602001605a8152506200351860201b60201c565b815260200160008152602001600081526020016000815260200160008152602001600381526020016040518060c0016040528060008152602001600081526020016000815260200160008152602001600081526020016000815250815260200161a8c081526020016001151581525060016040516200198d9066537461626c657360c81b815260070190565b9081526040805160209281900383019020600160009081529252902081518190620019b99082620036e9565b5060208201518160010155604082015181600201600082015181600001556020820151816001015560408201518160020155606082015181600301556080820151816004015560a082015181600501555050606082015181600801600082015181600001556020820151816001015560408201518160020155606082015181600301556080820151816004015560a082015181600501555050608082015181600e015560a082015181600f015560c0820151816010015560e08201518160110155610100820151816012015561012082015181601301600082015181600001556020820151816001015560408201518160020155606082015181600301556080820151816004015560a082015181600501555050610140820151816019015561016082015181601a0160006101000a81548160ff0219169083151502179055509050506040518061018001604052806040518060400160405280600681526020016545737461746560d01b8152508152602001600281526020016040518060c0016040528060c8815260200160648152602001603c815260200160008152602001600081526020016028815250815260200162001bae6040518060c0016040528060c8815260200160648152602001603c8152602001600081526020016000815260200160288152506200351860201b60201c565b8152602001600a8152602001600481526020016000815260200160008152602001600081526020016040518060c0016040528060c88152602001600081526020016000815260200160008152602001600081526020016000815250815260200162015180815260200160011515815250600160405162001c3a906545737461746560d01b815260060190565b908152604080516020928190038301902060026000908152925290208151819062001c669082620036e9565b50602082810151600183015560408084015180516002808601919091558184015160038601558183015160048601556060808301516005870155608080840151600688015560a0938401516007880155818801518051600889015580870151600989015580860151600a808a019190915581840151600b8a015581830151600c8a015590850151600d89015581890151600e89015584890151600f89015560c0808a015160108a015560e08a015160118a01556101008a015160128a01556101208a0151805160138b01558089015160148b01558088015160158b01558085015160168b01558084015160178b015586015160188a01556101408a015160198a015561016090990151601a909801805460ff19169815159890981790975584516101c081018652610180810197885269556e697665727369747960b01b6101a0820152968752868601929092528351808801855261012c80825281870185905260648287018190526000838501819052838601819052838701879052898801939093528651998a018752908952958801849052938701949094528584018390528501919091528381015290919082019062001e219062003518565b8152602001600a815260200160048152602001600a815260200160008152602001600081526020016040518060c0016040528060008152602001600081526020016000815260200160008152602001600081526020016000815250815260200162015180815260200160011515815250600160405162001eb19069556e697665727369747960b01b8152600a0190565b908152604080516020928190038301902060026000908152925290208151819062001edd9082620036e9565b5060208201518160010155604082015181600201600082015181600001556020820151816001015560408201518160020155606082015181600301556080820151816004015560a082015181600501555050606082015181600801600082015181600001556020820151816001015560408201518160020155606082015181600301556080820151816004015560a082015181600501555050608082015181600e015560a082015181600f015560c0820151816010015560e08201518160110155610100820151816012015561012082015181601301600082015181600001556020820151816001015560408201518160020155606082015181600301556080820151816004015560a082015181600501555050610140820151816019015561016082015181601a0160006101000a81548160ff0219169083151502179055509050506040518061018001604052806040518060400160405280600981526020016810d85d1a19591c985b60ba1b8152508152602001600281526020016040518060c00160405280610118815260200160788152602001608c81526020016000815260200160008152602001608c8152508152602001620020d76040518060c00160405280610118815260200160788152602001608c81526020016000815260200160008152602001608c8152506200351860201b60201c565b815260200160008152602001600a815260200160008152602001600a8152602001600081526020016040518060c0016040528060008152602001600081526020016000815260200160008152602001600081526020016000815250815260200162015180815260200160011515815250600160405162002166906810d85d1a19591c985b60ba1b815260090190565b9081526040805160209281900383019020600260009081529252902081518190620021929082620036e9565b50602082810151600183015560408084015180516002808601919091558184015160038601558183015160048601556060808301516005870155608080840151600688015560a09384015160078089019190915582890151805160088a01558088015160098a015580870151600a8a015580840151600b8a015580830151600c8a0155850151600d89015581890151600e89015584890151600f89015560c0808a015160108a015560e08a015160118a01556101008a015160128a01556101208a0151805160138b01558089015160148b01558088015160158b01558085015160168b01558084015160178b015586015160188a01556101408a015160198a015561016090990151601a909801805460ff19169815159890981790975584516101c08101865261018081019788526614d85ddb5a5b1b60ca1b6101a0820152968752868601929092528351808801855283815260788187018190526050828701819052600083850181905283860181905260328488018190528a89019490945287519a8b018852868b52978a019190915294880194909452868101859052908601939093528401529091908201906200234b9062003518565b815260200160088152602001600081526020016000815260200160008152602001600081526020016040518060c001604052806000815260200160c8815260200160008152602001600081526020016000815260200160008152508152602001620151808152602001600115158152506001604051620023d8906614d85ddb5a5b1b60ca1b815260070190565b9081526040805160209281900383019020600260009081529252902081518190620024049082620036e9565b5060208201518160010155604082015181600201600082015181600001556020820151816001015560408201518160020155606082015181600301556080820151816004015560a082015181600501555050606082015181600801600082015181600001556020820151816001015560408201518160020155606082015181600301556080820151816004015560a082015181600501555050608082015181600e015560a082015181600f015560c0820151816010015560e08201518160110155610100820151816012015561012082015181601301600082015181600001556020820151816001015560408201518160020155606082015181600301556080820151816004015560a082015181600501555050610140820151816019015561016082015181601a0160006101000a81548160ff0219169083151502179055509050506040518061018001604052806040518060400160405280600a81526020016953746f6e65776f726b7360b01b8152508152602001600281526020016040518060c0016040528060b4815260200160508152602001606481526020016000815260200160008152602001603c8152508152602001620025fd6040518060c0016040528060b4815260200160508152602001606481526020016000815260200160008152602001603c8152506200351860201b60201c565b815260200160068152602001600081526020016000815260200160008152602001600081526020016040518060c00160405280600081526020016000815260200160c881526020016000815260200160008152602001600081525081526020016201518081526020016001151581525060016040516200268d906953746f6e65776f726b7360b01b8152600a0190565b9081526040805160209281900383019020600260009081529252902081518190620026b99082620036e9565b5060208201518160010155604082015181600201600082015181600001556020820151816001015560408201518160020155606082015181600301556080820151816004015560a082015181600501555050606082015181600801600082015181600001556020820151816001015560408201518160020155606082015181600301556080820151816004015560a082015181600501555050608082015181600e015560a082015181600f015560c0820151816010015560e08201518160110155610100820151816012015561012082015181601301600082015181600001556020820151816001015560408201518160020155606082015181600301556080820151816004015560a082015181600501555050610140820151816019015561016082015181601a0160006101000a81548160ff0219169083151502179055509050506040518061018001604052806040518060400160405280600a815260200169537465656c776f726b7360b01b8152508152602001600281526020016040518060c0016040528060c881526020016064815260200160788152602001600081526020016000815260200160468152508152602001620028b26040518060c0016040528060c881526020016064815260200160788152602001600081526020016000815260200160468152506200351860201b60201c565b815260200160068152602001600081526020016000815260200160008152602001600081526020016040518060c001604052806000815260200160008152602001600081526020016000815260200160c8815260200160008152508152602001620151808152602001600115158152506001604051620029429069537465656c776f726b7360b01b8152600a0190565b90815260408051602092819003830190206002600090815292529020815181906200296e9082620036e9565b5060208201518160010155604082015181600201600082015181600001556020820151816001015560408201518160020155606082015181600301556080820151816004015560a082015181600501555050606082015181600801600082015181600001556020820151816001015560408201518160020155606082015181600301556080820151816004015560a082015181600501555050608082015181600e015560a082015181600f015560c0820151816010015560e08201518160110155610100820151816012015561012082015181601301600082015181600001556020820151816001015560408201518160020155606082015181600301556080820151816004015560a082015181600501555050610140820151816019015561016082015181601a0160006101000a81548160ff02191690831515021790555090505060405180610180016040528060405180604001604052806007815260200166466163746f727960c81b8152508152602001600281526020016040518060c0016040528060dc8152602001607881526020016050815260200160008152602001600081526020016050815250815260200162002b646040518060c0016040528060dc81526020016078815260200160508152602001600081526020016000815260200160508152506200351860201b60201c565b8152602001600a8152602001600081526020016000815260200160008152602001600081526020016040518060c0016040528060008152602001600081526020016000815260200160c88152602001600081526020016000815250815260200162015180815260200160011515815250600160405162002bf19066466163746f727960c81b815260070190565b908152604080516020928190038301902060026000908152925290208151819062002c1d9082620036e9565b5060208201518160010155604082015181600201600082015181600001556020820151816001015560408201518160020155606082015181600301556080820151816004015560a082015181600501555050606082015181600801600082015181600001556020820151816001015560408201518160020155606082015181600301556080820151816004015560a082015181600501555050608082015181600e015560a082015181600f015560c0820151816010015560e08201518160110155610100820151816012015561012082015181601301600082015181600001556020820151816001015560408201518160020155606082015181600301556080820151816004015560a082015181600501555050610140820151816019015561016082015181601a0160006101000a81548160ff0219169083151502179055509050506040518061018001604052806040518060400160405280600c81526020016b151c98591a5b99c8141bdcdd60a21b8152508152602001600281526020016040518060c0016040528060f08152602001606481526020016064815260200160008152602001600081526020016064815250815260200162002e186040518060c0016040528060f081526020016064815260200160648152602001600081526020016000815260200160648152506200351860201b60201c565b815260200160008152602001600681526020016000815260200160028152602001600081526020016040518060c00160405280600081526020016000815260200160008152602001600081526020016000815260200160c8815250815260200162015180815260200160011515815250600160405162002eaa906b151c98591a5b99c8141bdcdd60a21b8152600c0190565b908152604080516020928190038301902060026000908152925290208151819062002ed69082620036e9565b5060208201518160010155604082015181600201600082015181600001556020820151816001015560408201518160020155606082015181600301556080820151816004015560a082015181600501555050606082015181600801600082015181600001556020820151816001015560408201518160020155606082015181600301556080820151816004015560a082015181600501555050608082015181600e015560a082015181600f015560c0820151816010015560e08201518160110155610100820151816012015561012082015181601301600082015181600001556020820151816001015560408201518160020155606082015181600301556080820151816004015560a082015181600501555050610140820151816019015561016082015181601a0160006101000a81548160ff02191690831515021790555090505060405180610180016040528060405180604001604052806008815260200167466f72747265737360c01b8152508152602001600281526020016040518060c001604052806101048152602001608c815260200160788152602001600081526020016000815260200160788152508152602001620030cf6040518060c001604052806101048152602001608c815260200160788152602001600081526020016000815260200160788152506200351860201b60201c565b815260200160008152602001600081526020016000815260200160008152602001600a81526020016040518060c001604052806000815260200160008152602001600081526020016000815260200160008152602001600081525081526020016201518081526020016001151581525060016040516200315d9067466f72747265737360c01b815260080190565b9081526040805160209281900383019020600260009081529252902081518190620031899082620036e9565b50602082810151600183015560408084015180516002808601919091558184015160038601558183015160048601556060808301516005870155608080840151600688015560a0938401516007880155818801518051600889015580870151600989015580860151600a89015580830151600b89015580820151600c890155840151600d88015580880151600e8089019190915584890151600f89015560c0808a015160108a015560e08a015160118a01556101008a015160128a01556101208a0151805160138b01558089015160148b01558088015160158b01558085015160168b01558084015160178b015586015160188a0155610140808b015160198b0155610160909a0151601a909901805460ff19169915159990991790985585516101c08101875261018081019182526d10d85d985b1c9e4814d8da1bdbdb60921b6101a0820152908152808701939093528451808801865288815260b4818801819052818701869052600082850181905282840181905282870182905285880192909252865198890187529888529587018890529386018390528581018590529285019390935283019390935291820190620033459062003518565b815260200160008152602001600081526020016000815260200160008152602001600681526020016040518060c00160405280600081526020016000815260200160008152602001600081526020016000815260200160008152508152602001620151808152602001600115158152506001604051620033d9906d10d85d985b1c9e4814d8da1bdbdb60921b8152600e0190565b9081526040805160209281900383019020600260009081529252902081518190620034059082620036e9565b506020828101516001830155604080840151805160028501558083015160038501558082015160048501556060808201516005860155608080830151600687015560a0928301516007870155818701518051600888015580860151600988015580850151600a88015580830151600b88015580820151600c880155830151600d87015580870151600e87015582870151600f87015560c0870151601087015560e08701516011870155610100870151601287015561012087015180516013880155948501516014870155928401516015860155830151601685015590820151601784015501516018820155610140820151601982015561016090910151601a909101805460ff1916911515919091179055565b620035526040518060c001604052806000815260200160008152602001600081526020016000815260200160008152602001600081525090565b6040518060c00160405280606484600001516005620035729190620037b5565b6200357e9190620037e1565b8152602001606484602001516005620035989190620037b5565b620035a49190620037e1565b8152602001606484604001516005620035be9190620037b5565b620035ca9190620037e1565b8152602001606484606001516005620035e49190620037b5565b620035f09190620037e1565b81526020016064846080015160056200360a9190620037b5565b620036169190620037e1565b815260200160648460a001516005620036309190620037b5565b6200363c9190620037e1565b905292915050565b634e487b7160e01b600052604160045260246000fd5b600181811c908216806200366f57607f821691505b6020821081036200369057634e487b7160e01b600052602260045260246000fd5b50919050565b601f821115620036e457600081815260208120601f850160051c81016020861015620036bf5750805b601f850160051c820191505b81811015620036e057828155600101620036cb565b5050505b505050565b81516001600160401b0381111562003705576200370562003644565b6200371d816200371684546200365a565b8462003696565b602080601f8311600181146200375557600084156200373c5750858301515b600019600386901b1c1916600185901b178555620036e0565b600085815260208120601f198616915b82811015620037865788860151825594840194600190910190840162003765565b5085821015620037a55787850151600019600388901b60f8161c191681555b5050505050600190811b01905550565b8082028115828204841417620037db57634e487b7160e01b600052601160045260246000fd5b92915050565b600082620037ff57634e487b7160e01b600052601260045260246000fd5b500490565b61148180620038146000396000f3fe608060405234801561001057600080fd5b506004361061007d5760003560e01c8063ab0e23781161005b578063ab0e2378146100fd578063bfecd1a714610112578063d9dcfdb814610132578063ed81049d1461015357600080fd5b806339d022e114610082578063489b0f5a146100b25780636790d4b9146100d2575b600080fd5b600054610095906001600160a01b031681565b6040516001600160a01b0390911681526020015b60405180910390f35b6100c56100c0366004610f0c565b610181565b6040516100a99190610fdb565b6100e56100e0366004610f0c565b6103a8565b6040516100a99c9b9a9998979695949392919061109b565b61011061010b366004611125565b610582565b005b610125610120366004611155565b6105fb565b6040516100a9919061127a565b610145610140366004611288565b61095f565b6040516100a9929190611336565b610166610161366004610f0c565b610cdb565b604080519384526020840192909252908201526060016100a9565b610189610d2f565b6001836040516101999190611351565b9081526040805191829003602090810183206000868152915281902061018083019091528054829082906101cc9061136d565b80601f01602080910402602001604051908101604052809291908181526020018280546101f89061136d565b80156102455780601f1061021a57610100808354040283529160200191610245565b820191906000526020600020905b81548152906001019060200180831161022857829003601f168201915b5050505050815260200160018201548152602001600282016040518060c001604052908160008201548152602001600182015481526020016002820154815260200160038201548152602001600482015481526020016005820154815250508152602001600882016040518060c001604052908160008201548152602001600182015481526020016002820154815260200160038201548152602001600482015481526020016005820154815250508152602001600e8201548152602001600f8201548152602001601082015481526020016011820154815260200160128201548152602001601382016040518060c00160405290816000820154815260200160018201548152602001600282015481526020016003820154815260200160048201548152602001600582015481525050815260200160198201548152602001601a820160009054906101000a900460ff16151515158152505090505b92915050565b8151602081840181018051600182529282019482019490942091909352909152600090815260409020805481906103de9061136d565b80601f016020809104026020016040519081016040528092919081815260200182805461040a9061136d565b80156104575780601f1061042c57610100808354040283529160200191610457565b820191906000526020600020905b81548152906001019060200180831161043a57829003601f168201915b505050505090806001015490806002016040518060c0016040529081600082015481526020016001820154815260200160028201548152602001600382015481526020016004820154815260200160058201548152505090806008016040518060c001604052908160008201548152602001600182015481526020016002820154815260200160038201548152602001600482015481526020016005820154815250509080600e01549080600f015490806010015490806011015490806012015490806013016040518060c001604052908160008201548152602001600182015481526020016002820154815260200160038201548152602001600482015481526020016005820154815250509080601901549080601a0160009054906101000a900460ff1690508c565b6000546001600160a01b0316156105d95760405162461bcd60e51b815260206004820152601660248201527513185b99139195081a5cc8185b1c9958591e481cd95d60521b60448201526064015b60405180910390fd5b600080546001600160a01b0319166001600160a01b0392909216919091179055565b610603610dd3565b61060b610dd3565b60005b845181101561095757600085828151811061062b5761062b6113a7565b60200260200101519050806040015115610944576000600182600001516040516106559190611351565b9081526040805191829003602090810183208582015160009081529152819020610180830190915280548290829061068c9061136d565b80601f01602080910402602001604051908101604052809291908181526020018280546106b89061136d565b80156107055780601f106106da57610100808354040283529160200191610705565b820191906000526020600020905b8154815290600101906020018083116106e857829003601f168201915b5050505050815260200160018201548152602001600282016040518060c001604052908160008201548152602001600182015481526020016002820154815260200160038201548152602001600482015481526020016005820154815250508152602001600882016040518060c001604052908160008201548152602001600182015481526020016002820154815260200160038201548152602001600482015481526020016005820154815250508152602001600e8201548152602001600f8201548152602001601082015481526020016011820154815260200160128201548152602001601382016040518060c00160405290816000820154815260200160018201548152602001600282015481526020016003820154815260200160048201548152602001600582015481525050815260200160198201548152602001601a820160009054906101000a900460ff16151515158152505090506000816101200151905086816000015161087b91906113d3565b8551869061088a9083906113ea565b905250602081015161089d9088906113d3565b856020018181516108ae91906113ea565b90525060408101516108c19088906113d3565b856040018181516108d291906113ea565b90525060608101516108e59088906113d3565b856060018181516108f691906113ea565b90525060808101516109099088906113d3565b8560800181815161091a91906113ea565b90525060a081015161092d9088906113d3565b8560a00181815161093e91906113ea565b90525050505b508061094f816113fd565b91505061060e565b509392505050565b610967610dd3565b6000808651116109b15760405162461bcd60e51b8152602060048201526015602482015274496e76616c6964206275696c64696e67206e616d6560581b60448201526064016105d0565b60006001876040516109c39190611351565b9081526040805160209281900383019020600089815292529020601a81015490915060ff16610a2d5760405162461bcd60e51b81526020600482015260166024820152754275696c64696e67206e6f7420617661696c61626c6560501b60448201526064016105d0565b600281015485511015610a745760405162461bcd60e51b815260206004820152600f60248201526e139bdd08195b9bdd59da08199bdbd9608a1b60448201526064016105d0565b600381015460208601511015610abe5760405162461bcd60e51b815260206004820152600f60248201526e139bdd08195b9bdd59da081ddbdbd9608a1b60448201526064016105d0565b600481015460408601511015610b095760405162461bcd60e51b815260206004820152601060248201526f4e6f7420656e6f7567682073746f6e6560801b60448201526064016105d0565b600581015460608601511015610b545760405162461bcd60e51b815260206004820152601060248201526f4e6f7420656e6f75676820627261737360801b60448201526064016105d0565b600681015460808601511015610b9e5760405162461bcd60e51b815260206004820152600f60248201526e2737ba1032b737bab3b41034b937b760891b60448201526064016105d0565b600781015460a08601511015610be85760405162461bcd60e51b815260206004820152600f60248201526e139bdd08195b9bdd59da0819dbdb19608a1b60448201526064016105d0565b600281015485518694508490610bff908390611416565b9052506003810154602084018051610c18908390611416565b9052506004810154604084018051610c31908390611416565b9052506005810154606084018051610c4a908390611416565b9052506006810154608084018051610c63908390611416565b905250600781015460a084018051610c7c908390611416565b90525060198101546000908590610c949060326113d3565b610c9e9190611429565b9050610e10811015610cb35750610e10610cc4565b6202a300811115610cc457506202a3005b610cce81426113ea565b9250505094509492505050565b600080600080600186604051610cf19190611351565b90815260200160405180910390206000868152602001908152602001600020905080600e0154935080600f0154925080601201549150509250925092565b6040518061018001604052806060815260200160008152602001610d51610dd3565b8152602001610d5e610dd3565b81526020016000815260200160008152602001600081526020016000815260200160008152602001610dbf6040518060c001604052806000815260200160008152602001600081526020016000815260200160008152602001600081525090565b815260006020820181905260409091015290565b6040518060c001604052806000815260200160008152602001600081526020016000815260200160008152602001600081525090565b634e487b7160e01b600052604160045260246000fd5b6040516060810167ffffffffffffffff81118282101715610e4257610e42610e09565b60405290565b60405160c0810167ffffffffffffffff81118282101715610e4257610e42610e09565b604051601f8201601f1916810167ffffffffffffffff81118282101715610e9457610e94610e09565b604052919050565b600082601f830112610ead57600080fd5b813567ffffffffffffffff811115610ec757610ec7610e09565b610eda601f8201601f1916602001610e6b565b818152846020838601011115610eef57600080fd5b816020850160208301376000918101602001919091529392505050565b60008060408385031215610f1f57600080fd5b823567ffffffffffffffff811115610f3657600080fd5b610f4285828601610e9c565b95602094909401359450505050565b60005b83811015610f6c578181015183820152602001610f54565b50506000910152565b60008151808452610f8d816020860160208601610f51565b601f01601f19169290920160200192915050565b805182526020810151602083015260408101516040830152606081015160608301526080810151608083015260a081015160a08301525050565b6020815260008251610360806020850152610ffa610380850183610f75565b91506020850151604085015260408501516110186060860182610fa1565b50606085015161012061102d81870183610fa1565b60808701516101e087015260a087015161020087015260c087015161022087015260e08701516102408701526101008701516102608701528601519050611078610280860182610fa1565b506101408501516103408501526101609094015115159390920192909252919050565b610360815260006110b061036083018f610f75565b90508c60208301526110c5604083018d610fa1565b6110d361010083018c610fa1565b896101c0830152886101e0830152876102008301528661022083015285610240830152611104610260830186610fa1565b836103208301528215156103408301529d9c50505050505050505050505050565b60006020828403121561113757600080fd5b81356001600160a01b038116811461114e57600080fd5b9392505050565b6000806040838503121561116857600080fd5b823567ffffffffffffffff8082111561118057600080fd5b818501915085601f83011261119457600080fd5b81356020828211156111a8576111a8610e09565b8160051b6111b7828201610e6b565b928352848101820192828101908a8511156111d157600080fd5b83870192505b84831015611269578235868111156111ef5760008081fd5b87016060818d03601f19018113156112075760008081fd5b61120f610e1f565b86830135898111156112215760008081fd5b61122f8f8983870101610e9c565b8252506040830135878201529181013591821515831461125157600091508182fd5b604081019290925250825291830191908301906111d7565b9a9890920135985050505050505050565b60c081016103a28284610fa1565b6000806000808486036101208112156112a057600080fd5b853567ffffffffffffffff8111156112b757600080fd5b6112c388828901610e9c565b9550506020860135935060c0603f19820112156112df57600080fd5b506112e8610e48565b60408601358152606086013560208201526080860135604082015260a0860135606082015260c0860135608082015260e086013560a082015280925050610100850135905092959194509250565b60e081016113448285610fa1565b8260c08301529392505050565b60008251611363818460208701610f51565b9190910192915050565b600181811c9082168061138157607f821691505b6020821081036113a157634e487b7160e01b600052602260045260246000fd5b50919050565b634e487b7160e01b600052603260045260246000fd5b634e487b7160e01b600052601160045260246000fd5b80820281158282048414176103a2576103a26113bd565b808201808211156103a2576103a26113bd565b60006001820161140f5761140f6113bd565b5060010190565b818103818111156103a2576103a26113bd565b60008261144657634e487b7160e01b600052601260045260246000fd5b50049056fea2646970667358221220040d2c39134bdaaa65026760222c019a448abe859aedf404edf3385677e064b264736f6c63430008130033",
  "linkReferences": {},
  "deployedLinkReferences": {}
}