{
  "_format": "hh-sol-artifact-1",
  "contractName": "UnitNFT",
  "sourceName": "contracts/UnitNFT.sol",
  "abi": [
    {
      "inputs": [
        {
          "internalType": "address",
          "name": "_landNFTAddress",
          "type": "address"
        }
      ],
      "stateMutability": "nonpayable",
      "type": "constructor"
    },
    {
      "anonymous": false,
      "inputs": [
        {
          "indexed": true,
          "internalType": "address",
          "name": "owner",
          "type": "address"
        },
        {
          "indexed": true,
          "internalType": "address",
          "name": "approved",
          "type": "address"
        },
        {
          "indexed": true,
          "internalType": "uint256",
          "name": "tokenId",
          "type": "uint256"
        }
      ],
      "name": "Approval",
      "type": "event"
    },
    {
      "anonymous": false,
      "inputs": [
        {
          "indexed": true,
          "internalType": "address",
          "name": "owner",
          "type": "address"
        },
        {
          "indexed": true,
          "internalType": "address",
          "name": "operator",
          "type": "address"
        },
        {
          "indexed": false,
          "internalType": "bool",
          "name": "approved",
          "type": "bool"
        }
      ],
      "name": "ApprovalForAll",
      "type": "event"
    },
    {
      "anonymous": false,
      "inputs": [
        {
          "indexed": true,
          "internalType": "address",
          "name": "previousOwner",
          "type": "address"
        },
        {
          "indexed": true,
          "internalType": "address",
          "name": "newOwner",
          "type": "address"
        }
      ],
      "name": "OwnershipTransferred",
      "type": "event"
    },
    {
      "anonymous": false,
      "inputs": [
        {
          "indexed": true,
          "internalType": "address",
          "name": "from",
          "type": "address"
        },
        {
          "indexed": true,
          "internalType": "address",
          "name": "to",
          "type": "address"
        },
        {
          "indexed": true,
          "internalType": "uint256",
          "name": "tokenId",
          "type": "uint256"
        }
      ],
      "name": "Transfer",
      "type": "event"
    },
    {
      "anonymous": false,
      "inputs": [
        {
          "indexed": true,
          "internalType": "address",
          "name": "owner",
          "type": "address"
        },
        {
          "indexed": false,
          "internalType": "uint256",
          "name": "tokenId",
          "type": "uint256"
        },
        {
          "indexed": false,
          "internalType": "string",
          "name": "unitType",
          "type": "string"
        },
        {
          "indexed": false,
          "internalType": "uint256",
          "name": "landTokenId",
          "type": "uint256"
        }
      ],
      "name": "UnitMinted",
      "type": "event"
    },
    {
      "inputs": [
        {
          "internalType": "address",
          "name": "to",
          "type": "address"
        },
        {
          "internalType": "uint256",
          "name": "tokenId",
          "type": "uint256"
        }
      ],
      "name": "approve",
      "outputs": [],
      "stateMutability": "nonpayable",
      "type": "function"
    },
    {
      "inputs": [
        {
          "internalType": "address",
          "name": "owner",
          "type": "address"
        }
      ],
      "name": "balanceOf",
      "outputs": [
        {
          "internalType": "uint256",
          "name": "",
          "type": "uint256"
        }
      ],
      "stateMutability": "view",
      "type": "function"
    },
    {
      "inputs": [
        {
          "internalType": "uint256",
          "name": "_landTokenId",
          "type": "uint256"
        }
      ],
      "name": "calculateTotalUpkeep",
      "outputs": [
        {
          "components": [
            {
              "internalType": "uint256",
              "name": "food",
              "type": "uint256"
            },
            {
              "internalType": "uint256",
              "name": "wood",
              "type": "uint256"
            },
            {
              "internalType": "uint256",
              "name": "stone",
              "type": "uint256"
            },
            {
              "internalType": "uint256",
              "name": "brass",
              "type": "uint256"
            },
            {
              "internalType": "uint256",
              "name": "iron",
              "type": "uint256"
            },
            {
              "internalType": "uint256",
              "name": "gold",
              "type": "uint256"
            }
          ],
          "internalType": "struct DataTypes.Resources",
          "name": "totalUpkeep",
          "type": "tuple"
        }
      ],
      "stateMutability": "view",
      "type": "function"
    },
    {
      "inputs": [
        {
          "internalType": "uint256",
          "name": "tokenId",
          "type": "uint256"
        }
      ],
      "name": "getApproved",
      "outputs": [
        {
          "internalType": "address",
          "name": "",
          "type": "address"
        }
      ],
      "stateMutability": "view",
      "type": "function"
    },
    {
      "inputs": [
        {
          "internalType": "uint256",
          "name": "_tokenId",
          "type": "uint256"
        }
      ],
      "name": "getUnitStats",
      "outputs": [
        {
          "internalType": "string",
          "name": "name",
          "type": "string"
        },
        {
          "internalType": "uint256",
          "name": "attack",
          "type": "uint256"
        },
        {
          "internalType": "uint256",
          "name": "defense",
          "type": "uint256"
        },
        {
          "internalType": "uint256",
          "name": "speed",
          "type": "uint256"
        },
        {
          "internalType": "uint256",
          "name": "range",
          "type": "uint256"
        },
        {
          "internalType": "string",
          "name": "abilities",
          "type": "string"
        },
        {
          "components": [
            {
              "internalType": "uint256",
              "name": "food",
              "type": "uint256"
            },
            {
              "internalType": "uint256",
              "name": "wood",
              "type": "uint256"
            },
            {
              "internalType": "uint256",
              "name": "stone",
              "type": "uint256"
            },
            {
              "internalType": "uint256",
              "name": "brass",
              "type": "uint256"
            },
            {
              "internalType": "uint256",
              "name": "iron",
              "type": "uint256"
            },
            {
              "internalType": "uint256",
              "name": "gold",
              "type": "uint256"
            }
          ],
          "internalType": "struct DataTypes.Resources",
          "name": "upkeepCost",
          "type": "tuple"
        },
        {
          "internalType": "bool",
          "name": "isActive",
          "type": "bool"
        }
      ],
      "stateMutability": "view",
      "type": "function"
    },
    {
      "inputs": [
        {
          "internalType": "uint256",
          "name": "_landTokenId",
          "type": "uint256"
        }
      ],
      "name": "getUnitsByLand",
      "outputs": [
        {
          "internalType": "uint256[]",
          "name": "",
          "type": "uint256[]"
        }
      ],
      "stateMutability": "view",
      "type": "function"
    },
    {
      "inputs": [
        {
          "internalType": "address",
          "name": "_owner",
          "type": "address"
        }
      ],
      "name": "getUnitsByOwner",
      "outputs": [
        {
          "internalType": "uint256[]",
          "name": "",
          "type": "uint256[]"
        }
      ],
      "stateMutability": "view",
      "type": "function"
    },
    {
      "inputs": [
        {
          "internalType": "address",
          "name": "owner",
          "type": "address"
        },
        {
          "internalType": "address",
          "name": "operator",
          "type": "address"
        }
      ],
      "name": "isApprovedForAll",
      "outputs": [
        {
          "internalType": "bool",
          "name": "",
          "type": "bool"
        }
      ],
      "stateMutability": "view",
      "type": "function"
    },
    {
      "inputs": [],
      "name": "landNFTAddress",
      "outputs": [
        {
          "internalType": "address",
          "name": "",
          "type": "address"
        }
      ],
      "stateMutability": "view",
      "type": "function"
    },
    {
      "inputs": [],
      "name": "landNFTContract",
      "outputs": [
        {
          "internalType": "contract ILandNFT",
          "name": "",
          "type": "address"
        }
      ],
      "stateMutability": "view",
      "type": "function"
    },
    {
      "inputs": [
        {
          "internalType": "uint256",
          "name": "",
          "type": "uint256"
        },
        {
          "internalType": "uint256",
          "name": "",
          "type": "uint256"
        }
      ],
      "name": "landToUnits",
      "outputs": [
        {
          "internalType": "uint256",
          "name": "",
          "type": "uint256"
        }
      ],
      "stateMutability": "view",
      "type": "function"
    },
    {
      "inputs": [
        {
          "internalType": "string",
          "name": "_unitType",
          "type": "string"
        },
        {
          "internalType": "uint256",
          "name": "_landTokenId",
          "type": "uint256"
        }
      ],
      "name": "mintUnit",
      "outputs": [],
      "stateMutability": "nonpayable",
      "type": "function"
    },
    {
      "inputs": [],
      "name": "name",
      "outputs": [
        {
          "internalType": "string",
          "name": "",
          "type": "string"
        }
      ],
      "stateMutability": "view",
      "type": "function"
    },
    {
      "inputs": [],
      "name": "nextTokenId",
      "outputs": [
        {
          "internalType": "uint256",
          "name": "",
          "type": "uint256"
        }
      ],
      "stateMutability": "view",
      "type": "function"
    },
    {
      "inputs": [],
      "name": "owner",
      "outputs": [
        {
          "internalType": "address",
          "name": "",
          "type": "address"
        }
      ],
      "stateMutability": "view",
      "type": "function"
    },
    {
      "inputs": [
        {
          "internalType": "uint256",
          "name": "tokenId",
          "type": "uint256"
        }
      ],
      "name": "ownerOf",
      "outputs": [
        {
          "internalType": "address",
          "name": "",
          "type": "address"
        }
      ],
      "stateMutability": "view",
      "type": "function"
    },
    {
      "inputs": [
        {
          "internalType": "address",
          "name": "",
          "type": "address"
        },
        {
          "internalType": "uint256",
          "name": "",
          "type": "uint256"
        }
      ],
      "name": "ownerToUnits",
      "outputs": [
        {
          "internalType": "uint256",
          "name": "",
          "type": "uint256"
        }
      ],
      "stateMutability": "view",
      "type": "function"
    },
    {
      "inputs": [],
      "name": "renounceOwnership",
      "outputs": [],
      "stateMutability": "nonpayable",
      "type": "function"
    },
    {
      "inputs": [
        {
          "internalType": "address",
          "name": "from",
          "type": "address"
        },
        {
          "internalType": "address",
          "name": "to",
          "type": "address"
        },
        {
          "internalType": "uint256",
          "name": "tokenId",
          "type": "uint256"
        }
      ],
      "name": "safeTransferFrom",
      "outputs": [],
      "stateMutability": "nonpayable",
      "type": "function"
    },
    {
      "inputs": [
        {
          "internalType": "address",
          "name": "from",
          "type": "address"
        },
        {
          "internalType": "address",
          "name": "to",
          "type": "address"
        },
        {
          "internalType": "uint256",
          "name": "tokenId",
          "type": "uint256"
        },
        {
          "internalType": "bytes",
          "name": "data",
          "type": "bytes"
        }
      ],
      "name": "safeTransferFrom",
      "outputs": [],
      "stateMutability": "nonpayable",
      "type": "function"
    },
    {
      "inputs": [
        {
          "internalType": "address",
          "name": "operator",
          "type": "address"
        },
        {
          "internalType": "bool",
          "name": "approved",
          "type": "bool"
        }
      ],
      "name": "setApprovalForAll",
      "outputs": [],
      "stateMutability": "nonpayable",
      "type": "function"
    },
    {
      "inputs": [
        {
          "internalType": "uint256",
          "name": "_tokenId",
          "type": "uint256"
        },
        {
          "internalType": "bool",
          "name": "_status",
          "type": "bool"
        }
      ],
      "name": "setUnitActiveStatus",
      "outputs": [],
      "stateMutability": "nonpayable",
      "type": "function"
    },
    {
      "inputs": [
        {
          "internalType": "bytes4",
          "name": "interfaceId",
          "type": "bytes4"
        }
      ],
      "name": "supportsInterface",
      "outputs": [
        {
          "internalType": "bool",
          "name": "",
          "type": "bool"
        }
      ],
      "stateMutability": "view",
      "type": "function"
    },
    {
      "inputs": [],
      "name": "symbol",
      "outputs": [
        {
          "internalType": "string",
          "name": "",
          "type": "string"
        }
      ],
      "stateMutability": "view",
      "type": "function"
    },
    {
      "inputs": [
        {
          "internalType": "uint256",
          "name": "",
          "type": "uint256"
        }
      ],
      "name": "tokenIdToUnit",
      "outputs": [
        {
          "internalType": "string",
          "name": "name",
          "type": "string"
        },
        {
          "internalType": "uint256",
          "name": "attack",
          "type": "uint256"
        },
        {
          "internalType": "uint256",
          "name": "defense",
          "type": "uint256"
        },
        {
          "internalType": "uint256",
          "name": "speed",
          "type": "uint256"
        },
        {
          "internalType": "uint256",
          "name": "range",
          "type": "uint256"
        },
        {
          "internalType": "string",
          "name": "abilities",
          "type": "string"
        },
        {
          "components": [
            {
              "internalType": "uint256",
              "name": "food",
              "type": "uint256"
            },
            {
              "internalType": "uint256",
              "name": "wood",
              "type": "uint256"
            },
            {
              "internalType": "uint256",
              "name": "stone",
              "type": "uint256"
            },
            {
              "internalType": "uint256",
              "name": "brass",
              "type": "uint256"
            },
            {
              "internalType": "uint256",
              "name": "iron",
              "type": "uint256"
            },
            {
              "internalType": "uint256",
              "name": "gold",
              "type": "uint256"
            }
          ],
          "internalType": "struct DataTypes.Resources",
          "name": "upkeepCost",
          "type": "tuple"
        },
        {
          "internalType": "bool",
          "name": "isActive",
          "type": "bool"
        }
      ],
      "stateMutability": "view",
      "type": "function"
    },
    {
      "inputs": [
        {
          "internalType": "uint256",
          "name": "tokenId",
          "type": "uint256"
        }
      ],
      "name": "tokenURI",
      "outputs": [
        {
          "internalType": "string",
          "name": "",
          "type": "string"
        }
      ],
      "stateMutability": "view",
      "type": "function"
    },
    {
      "inputs": [
        {
          "internalType": "address",
          "name": "from",
          "type": "address"
        },
        {
          "internalType": "address",
          "name": "to",
          "type": "address"
        },
        {
          "internalType": "uint256",
          "name": "tokenId",
          "type": "uint256"
        }
      ],
      "name": "transferFrom",
      "outputs": [],
      "stateMutability": "nonpayable",
      "type": "function"
    },
    {
      "inputs": [
        {
          "internalType": "address",
          "name": "newOwner",
          "type": "address"
        }
      ],
      "name": "transferOwnership",
      "outputs": [],
      "stateMutability": "nonpayable",
      "type": "function"
    },
    {
      "inputs": [
        {
          "internalType": "uint256",
          "name": "",
          "type": "uint256"
        }
      ],
      "name": "unitToLand",
      "outputs": [
        {
          "internalType": "uint256",
          "name": "",
          "type": "uint256"
        }
      ],
      "stateMutability": "view",
      "type": "function"
    },
    {
      "inputs": [
        {
          "internalType": "string",
          "name": "",
          "type": "string"
        }
      ],
      "name": "unitTypes",
      "outputs": [
        {
          "internalType": "string",
          "name": "name",
          "type": "string"
        },
        {
          "internalType": "uint256",
          "name": "attack",
          "type": "uint256"
        },
        {
          "internalType": "uint256",
          "name": "defense",
          "type": "uint256"
        },
        {
          "internalType": "uint256",
          "name": "speed",
          "type": "uint256"
        },
        {
          "internalType": "uint256",
          "name": "range",
          "type": "uint256"
        },
        {
          "internalType": "string",
          "name": "abilities",
          "type": "string"
        },
        {
          "components": [
            {
              "internalType": "uint256",
              "name": "food",
              "type": "uint256"
            },
            {
              "internalType": "uint256",
              "name": "wood",
              "type": "uint256"
            },
            {
              "internalType": "uint256",
              "name": "stone",
              "type": "uint256"
            },
            {
              "internalType": "uint256",
              "name": "brass",
              "type": "uint256"
            },
            {
              "internalType": "uint256",
              "name": "iron",
              "type": "uint256"
            },
            {
              "internalType": "uint256",
              "name": "gold",
              "type": "uint256"
            }
          ],
          "internalType": "struct DataTypes.Resources",
          "name": "upkeepCost",
          "type": "tuple"
        },
        {
          "internalType": "bool",
          "name": "isActive",
          "type": "bool"
        }
      ],
      "stateMutability": "view",
      "type": "function"
    }
  ],
  "bytecode": "0x608034620022b557601f6200444e38819003918201601f19168301916001600160401b03831184841017620013dc57808492602094604052833981010312620022b557516001600160a01b03908181168103620022b55762000060620022fb565b91600d83526c119a9d5b9b1d5b9908155b9a5d609a1b602084015262000085620022fb565b6003815262464a5560e81b602082015283519092906001600160401b038111620013dc57600054600181811c91168015620022aa575b6020821014620013bb57601f811162002252575b50602094601f8211600114620021da57948192939495600092620021ce575b50508160011b916000199060031b1c1916176000555b82516001600160401b038111620013dc57600154600181811c91168015620021c3575b6020821014620013bb57601f81116200216a575b506020601f8211600114620020f15781929394600092620020e5575b50508160011b916000199060031b1c1916176001555b60068054336001600160a01b03198216811790925583167f8be0079c531659141344cd1fd0a4f28419497f9722a3daafe3b4186f6b6457e0600080a36001600755620001b8620022ba565b6005815260016020820152600060408201526000606082015260006080820152600060a0820152620001e9620022da565b90620001f4620022fb565b60078152662337b7ba36b0b760c91b602082015282526032602083015260326040830152600560608301526001608083015260405180602081011060018060401b03602083011117620013dc57602081016040526000815260a083015260c0820152600160e08201526027604051662337b7ba36b0b760c91b8152600960078201522090805180519060018060401b038211620013dc57835490600182811c92168015620020da575b6020831014620013bb5781601f84931162002085575b50602090601f8311600114620020145760009262002008575b50508160011b916000199060031b1c19161782555b6020810151600183015560408101516002830155606081015160038301556080810151600483015560a08101518051906001600160401b038211620013dc576005840154600181811c9116801562001ffd575b6020821014620013bb57601f811162001fb1575b50602090601f831160011462001f37579180600c949260e09460009262001f2b575b50508160011b916000199060031b1c19161760058501555b60a060c0820151805160068701556020810151600787015560408101516008870155606081015160098701556080810151600a8701550151600b8501550151151560ff80198385015416911617910155620003dc620022ba565b6004815260026020820152600060408201526000606082015260006080820152600060a082015260266200040f620022da565b916200041a620022fb565b90600682526520b931b432b960d11b91826020820152845260286020850152601e6040850152600560608501526007608085015262000458620022fb565b601781527f43616e2061747461636b20666c79696e6720756e697473000000000000000000602082015260a085015260c0840152600160e0840152604051908152600960068201522081518051906001600160401b038211620013dc57825490600182811c9216801562001f20575b6020831014620013bb5781601f84931162001ecb575b50602090601f831160011462001e5a5760009262001e4e575b50508160011b916000199060031b1c19161781555b6020820151600182015560408201516002820155606082015160038201556080820151600482015560a08201518051906001600160401b038211620013dc576005830154600181811c9116801562001e43575b6020821014620013bb57601f811162001df7575b50602090601f831160011462001d7d57918060e09492600c9460009262001d71575b50508160011b916000199060031b1c19161760058201555b60a060c0850151805160068401556020810151600784015560408101516008840155606081015160098401556080810151600a8401550151600b82015501910151151560ff8019835416911617905562000605620022ba565b6006815260006020820152600060408201526000606082015260036080820152600060a0820152602662000638620022da565b9162000643620022fb565b90600682526512db9a59da1d60d21b91826020820152845260466020850152603c6040850152600760608501526001608085015262000681620022fb565b600d81526c4368617267652061747461636b60981b602082015260a085015260c0840152600160e0840152604051908152600960068201522081518051906001600160401b038211620013dc57825490600182811c9216801562001d66575b6020831014620013bb5781601f84931162001d11575b50602090601f831160011462001ca05760009262001c94575b50508160011b916000199060031b1c19161781555b6020820151600182015560408201516002820155606082015160038201556080820151600482015560a08201518051906001600160401b038211620013dc576005830154600181811c9116801562001c89575b6020821014620013bb57601f811162001c3d575b50602090601f831160011462001bc357918060e09492600c9460009262001bb7575b50508160011b916000199060031b1c19161760058201555b60a060c0850151805160068401556020810151600784015560408101516008840155606081015160098401556080810151600a8401550151600b82015501910151151560ff801983541691161790556200081e620022ba565b6000815260056020820152600560408201526000606082015260006080820152600060a0820152602862000851620022da565b916200085c620022fb565b90600882526710d85d185c1d5b1d60c21b918260208201528452605060208501526014604085015260036060850152600a60808501526200089c620022fb565b600b81526a417265612064616d61676560a81b602082015260a085015260c0840152600160e0840152604051908152600960088201522081518051906001600160401b038211620013dc57825490600182811c9216801562001bac575b6020831014620013bb5781601f84931162001b57575b50602090601f831160011462001ae65760009262001ada575b50508160011b916000199060031b1c19161781555b6020820151600182015560408201516002820155606082015160038201556080820151600482015560a08201518051906001600160401b038211620013dc576005830154600181811c9116801562001acf575b6020821014620013bb57601f811162001a83575b50602090601f831160011462001a0957918060e09492600c94600092620019fd575b50508160011b916000199060031b1c19161760058201555b60a060c0850151805160068401556020810151600784015560408101516008840155606081015160098401556080810151600a8401550151600b82015501910151151560ff8019835416911617905562000a37620022ba565b6005815260006020820152600060408201526000606082015260026080820152600060a0820152602862000a6a620022da565b9162000a75620022fb565b90600882526729b832b0b936b0b760c11b9182602082015284526032602085015260326040850152600560608501526001608085015262000ab5620022fb565b601c81527f426f6e75732064616d61676520616761696e737420636176616c727900000000602082015260a085015260c0840152600160e0840152604051908152600960088201522081518051906001600160401b038211620013dc57825490600182811c92168015620019f2575b6020831014620013bb5781601f8493116200199d575b50602090601f83116001146200192c5760009262001920575b50508160011b916000199060031b1c19161781555b6020820151600182015560408201516002820155606082015160038201556080820151600482015560a08201518051906001600160401b038211620013dc576005830154600181811c9116801562001915575b6020821014620013bb57601f8111620018c9575b50602090601f83116001146200184f57918060e09492600c9460009262001843575b50508160011b916000199060031b1c19161760058201555b60a060c0850151805160068401556020810151600784015560408101516008840155606081015160098401556080810151600a8401550151600b82015501910151151560ff8019835416911617905562000c62620022ba565b6005815260006020820152600060408201526000606082015260006080820152600360a0820152602662000c95620022da565b9162000ca0620022fb565b90600682526515da5e985c9960d21b9182602082015284526032602085015260286040850152600560608501526005608085015262000cde620022fb565b600c81526b4361737473207370656c6c7360a01b602082015260a085015260c0840152600160e0840152604051908152600960068201522081518051906001600160401b038211620013dc57825490600182811c9216801562001838575b6020831014620013bb5781601f849311620017e3575b50602090601f8311600114620017725760009262001766575b50508160011b916000199060031b1c19161781555b6020820151600182015560408201516002820155606082015160038201556080820151600482015560a08201518051906001600160401b038211620013dc576005830154600181811c911680156200175b575b6020821014620013bb57601f81116200170f575b50602090601f83116001146200169557918060e09492600c9460009262001689575b50508160011b916000199060031b1c19161760058201555b60a060c0850151805160068401556020810151600784015560408101516008840155606081015160098401556080810151600a8401550151600b82015501910151151560ff8019835416911617905562000e7a620022ba565b6005815260006020820152600060408201526003606082015260006080820152600060a0820152602b62000ead620022da565b9162000eb8620022fb565b90600b82526a2732b1b937b6b0b731b2b960a91b918260208201528452601e6020850152601e6040850152600460608501526005608085015262000efb620022fb565b601481527f53756d6d6f6e7320756e6465616420756e697473000000000000000000000000602082015260a085015260c0840152600160e08401526040519081526009600b8201522081518051906001600160401b038211620013dc57825490600182811c921680156200167e575b6020831014620013bb5781601f84931162001629575b50602090601f8311600114620015b857600092620015ac575b50508160011b916000199060031b1c19161781555b6020820151600182015560408201516002820155606082015160038201556080820151600482015560a08201518051906001600160401b038211620013dc576005830154600181811c91168015620015a1575b6020821014620013bb57601f811162001555575b50602090601f8311600114620014db57918060e09492600c94600092620014cf575b50508160011b916000199060031b1c19161760058201555b60a060c0850151805160068401556020810151600784015560408101516008840155606081015160098401556080810151600a8401550151600b82015501910151151560ff80198354169116179055620010a8620022ba565b6003815260006020820152600060408201526001606082015260006080820152600060a0820152620010d9620022da565b90620010e4620022fb565b600681526523b7b13634b760d11b60208201528252602360208301526019604083015260086060830152600160808301526200111f620022fb565b60068152654672656e7a7960d01b602082015260a083015260c0820152600160e082015260266040516523b7b13634b760d11b81526009600682015220815180519060018060401b038211620013dc57825490600182811c92168015620014c4575b6020831014620013bb5781601f8493116200146f575b50602090601f8311600114620013fe57600092620013f2575b50508160011b916000199060031b1c19161781555b6020820151600182015560408201516002820155606082015160038201556080820151600482015560a08201518051906001600160401b038211620013dc576005830154600181811c91168015620013d1575b6020821014620013bb57601f81116200136f575b50602090601f8311600114620012f557918060e09492600c94600092620012e9575b50508160011b916000199060031b1c19161760058201555b60a060c0850151805160068401556020810151600784015560408101516008840155606081015160098401556080810151600a8401550151600b82015501910151151560ff8019835416911617905581811660018060a01b0319600d541617600d551660018060a01b0319600e541617600e556040516120f290816200231c8239f35b0151905038806200124e565b906005840160005260206000209160005b601f19851681106200135657509260e09492600192600c9583601f198116106200133c575b505050811b01600582015562001266565b015160001960f88460031b161c191690553880806200132b565b9192602060018192868501518155019401920162001306565b600584016000526020600020601f840160051c810160208510620013b3575b601f830160051c82018110620013a65750506200122c565b600081556001016200138e565b50806200138e565b634e487b7160e01b600052602260045260246000fd5b90607f169062001218565b634e487b7160e01b600052604160045260246000fd5b015190503880620011b0565b9250836000526020600020906000935b601f198416851062001453576001945083601f1981161062001439575b505050811b018155620011c5565b015160001960f88460031b161c191690553880806200142b565b818101518355602094850194600190930192909101906200140e565b909150836000526020600020601f840160051c810160208510620014bc575b90849392915b601f830160051c82018110620014ac57505062001197565b6000815585945060010162001494565b50806200148e565b91607f169162001181565b01519050388062001037565b906005840160005260206000209160005b601f19851681106200153c57509260e09492600192600c9583601f1981161062001522575b505050811b0160058201556200104f565b015160001960f88460031b161c1916905538808062001511565b91926020600181928685015181550194019201620014ec565b600584016000526020600020601f840160051c81016020851062001599575b601f830160051c820181106200158c57505062001015565b6000815560010162001574565b508062001574565b90607f169062001001565b01519050388062000f99565b9250836000526020600020906000935b601f19841685106200160d576001945083601f19811610620015f3575b505050811b01815562000fae565b015160001960f88460031b161c19169055388080620015e5565b81810151835560209485019460019093019290910190620015c8565b909150836000526020600020601f840160051c81016020851062001676575b90849392915b601f830160051c820181106200166657505062000f80565b600081558594506001016200164e565b508062001648565b91607f169162000f6a565b01519050388062000e09565b906005840160005260206000209160005b601f1985168110620016f657509260e09492600192600c9583601f19811610620016dc575b505050811b01600582015562000e21565b015160001960f88460031b161c19169055388080620016cb565b91926020600181928685015181550194019201620016a6565b600584016000526020600020601f840160051c81016020851062001753575b601f830160051c820181106200174657505062000de7565b600081556001016200172e565b50806200172e565b90607f169062000dd3565b01519050388062000d6b565b9250836000526020600020906000935b601f1984168510620017c7576001945083601f19811610620017ad575b505050811b01815562000d80565b015160001960f88460031b161c191690553880806200179f565b8181015183556020948501946001909301929091019062001782565b909150836000526020600020601f840160051c81016020851062001830575b90849392915b601f830160051c820181106200182057505062000d52565b6000815585945060010162001808565b508062001802565b91607f169162000d3c565b01519050388062000bf1565b906005840160005260206000209160005b601f1985168110620018b057509260e09492600192600c9583601f1981161062001896575b505050811b01600582015562000c09565b015160001960f88460031b161c1916905538808062001885565b9192602060018192868501518155019401920162001860565b600584016000526020600020601f840160051c8101602085106200190d575b601f830160051c820181106200190057505062000bcf565b60008155600101620018e8565b5080620018e8565b90607f169062000bbb565b01519050388062000b53565b9250836000526020600020906000935b601f198416851062001981576001945083601f1981161062001967575b505050811b01815562000b68565b015160001960f88460031b161c1916905538808062001959565b818101518355602094850194600190930192909101906200193c565b909150836000526020600020601f840160051c810160208510620019ea575b90849392915b601f830160051c82018110620019da57505062000b3a565b60008155859450600101620019c2565b5080620019bc565b91607f169162000b24565b015190503880620009c6565b906005840160005260206000209160005b601f198516811062001a6a57509260e09492600192600c9583601f1981161062001a50575b505050811b016005820155620009de565b015160001960f88460031b161c1916905538808062001a3f565b9192602060018192868501518155019401920162001a1a565b600584016000526020600020601f840160051c81016020851062001ac7575b601f830160051c8201811062001aba575050620009a4565b6000815560010162001aa2565b508062001aa2565b90607f169062000990565b01519050388062000928565b9250836000526020600020906000935b601f198416851062001b3b576001945083601f1981161062001b21575b505050811b0181556200093d565b015160001960f88460031b161c1916905538808062001b13565b8181015183556020948501946001909301929091019062001af6565b909150836000526020600020601f840160051c81016020851062001ba4575b90849392915b601f830160051c8201811062001b945750506200090f565b6000815585945060010162001b7c565b508062001b76565b91607f1691620008f9565b015190503880620007ad565b906005840160005260206000209160005b601f198516811062001c2457509260e09492600192600c9583601f1981161062001c0a575b505050811b016005820155620007c5565b015160001960f88460031b161c1916905538808062001bf9565b9192602060018192868501518155019401920162001bd4565b600584016000526020600020601f840160051c81016020851062001c81575b601f830160051c8201811062001c745750506200078b565b6000815560010162001c5c565b508062001c5c565b90607f169062000777565b0151905038806200070f565b9250836000526020600020906000935b601f198416851062001cf5576001945083601f1981161062001cdb575b505050811b01815562000724565b015160001960f88460031b161c1916905538808062001ccd565b8181015183556020948501946001909301929091019062001cb0565b909150836000526020600020601f840160051c81016020851062001d5e575b90849392915b601f830160051c8201811062001d4e575050620006f6565b6000815585945060010162001d36565b508062001d30565b91607f1691620006e0565b01519050388062000594565b906005840160005260206000209160005b601f198516811062001dde57509260e09492600192600c9583601f1981161062001dc4575b505050811b016005820155620005ac565b015160001960f88460031b161c1916905538808062001db3565b9192602060018192868501518155019401920162001d8e565b600584016000526020600020601f840160051c81016020851062001e3b575b601f830160051c8201811062001e2e57505062000572565b6000815560010162001e16565b508062001e16565b90607f16906200055e565b015190503880620004f6565b9250836000526020600020906000935b601f198416851062001eaf576001945083601f1981161062001e95575b505050811b0181556200050b565b015160001960f88460031b161c1916905538808062001e87565b8181015183556020948501946001909301929091019062001e6a565b909150836000526020600020601f840160051c81016020851062001f18575b90849392915b601f830160051c8201811062001f08575050620004dd565b6000815585945060010162001ef0565b508062001eea565b91607f1691620004c7565b0151905038806200036a565b906005850160005260206000209160005b601f198516811062001f98575092600c949260019260e09583601f1981161062001f7e575b505050811b01600585015562000382565b015160001960f88460031b161c1916905538808062001f6d565b9192602060018192868501518155019401920162001f48565b600585016000526020600020601f840160051c81016020851062001ff5575b601f830160051c8201811062001fe857505062000348565b6000815560010162001fd0565b508062001fd0565b90607f169062000334565b015190503880620002cc565b9250846000526020600020906000935b601f198416851062002069576001945083601f198116106200204f575b505050811b018255620002e1565b015160001960f88460031b161c1916905538808062002041565b8181015183556020948501946001909301929091019062002024565b909150846000526020600020601f840160051c810160208510620020d2575b90849392915b601f830160051c82018110620020c2575050620002b3565b60008155859450600101620020aa565b5080620020a4565b91607f16916200029d565b01519050388062000157565b600160009081526000805160206200442e8339815191529190601f198416905b818110620021515750958360019596971062002137575b505050811b016001556200016d565b015160001960f88460031b161c1916905538808062002128565b9192602060018192868b01518155019401920162002111565b60016000526000805160206200442e833981519152601f830160051c81019160208410620021b8575b601f0160051c01905b818110620021ab57506200013b565b600081556001016200219c565b909150819062002193565b90607f169062000127565b015190503880620000ee565b6000808052601f198316966000805160206200440e8339815191529290915b88811062002239575083600195969798106200221f575b505050811b0160005562000104565b015160001960f88460031b161c1916905538808062002210565b91926020600181928685015181550194019201620021f9565b600080526000805160206200440e833981519152601f830160051c810191602084106200229f575b601f0160051c01905b818110620022925750620000cf565b6000815560010162002283565b90915081906200227a565b90607f1690620000bb565b600080fd5b6040519060c082016001600160401b03811183821017620013dc57604052565b6040519061010082016001600160401b03811183821017620013dc57604052565b60408051919082016001600160401b03811183821017620013dc5760405256fe608060408181526004918236101561001657600080fd5b600060e0918135831c90816301ffc9a7146113cb5750806306fdde0314611323578063081812fc14611302578063095ea7b31461119357806323b872dd1461116e5780632b359bc51461114557806342842e0e1461111157806359aa021b146110225780636352211e14610ff057806370a0823114610f5a578063715018a614610efd5780637253305e14610ed057806374fd9f7214610afd57806375794a3c14610ade578063824cc83214610a7957806383233ed414610a315780638cf6408f14610a085780638da5cb5b146109df57806395d89b41146108fc5780639c3eee0c146108b55780639d5ffdc81461088c578063a22cb465146107ba578063a5c9af631461073c578063b88d4fde146106ae578063c366ab9d14610609578063c87b56dd1461059d578063dc1a1af7146103ae578063e985e9c51461035c578063f2fde38b1461028b5763fe401d2f1461016f57600080fd5b3461028857602036600319011261028857833561018a61205d565b506000818152600260205260409020546001600160a01b03161561024e5781849161024a9493526008602052208351936101c38561152e565b6101cc826115bb565b85526001820154946020810195865260028301549682820197885260038401549060608301918252840154906080830191825261020b600586016115bb565b9260a0810193845260ff600c61022360068901611661565b978860c08501520154161515809782015251975198519051915192519351988998896116a7565b0390f35b835162461bcd60e51b81526020818701526014602482015273151bdad95b88191bd95cc81b9bdd08195e1a5cdd60621b6044820152606490fd5b80fd5b50828434610358576020366003190112610358576102a761147f565b906102b061180c565b6001600160a01b03918216928315610306575050600654826bffffffffffffffffffffffff60a01b821617600655167f8be0079c531659141344cd1fd0a4f28419497f9722a3daafe3b4186f6b6457e08380a380f35b906020608492519162461bcd60e51b8352820152602660248201527f4f776e61626c653a206e6577206f776e657220697320746865207a65726f206160448201526564647265737360d01b6064820152fd5b8280fd5b5082346103aa57806003193601126103aa5760ff8160209361037c61147f565b61038461149a565b6001600160a01b0391821683526005875283832091168252855220549151911615158152f35b5080fd5b50929190346105995760209081600319360112610595576103cd61205d565b9284358652600c9081845280872081518082878294549384815201908b52878b20928b5b8982821061057f5750505061040892500382611599565b875b815181101561053c576104b49060058782821b850101518b52600888528988868d208b8989519561043a8761152e565b610443846115bb565b875260018401548588015260028401548b8801528c61047a600386015497606098898b015286015492608093848b015286016115bb565b9760a0988982015260ff61049060068801611661565b9460c0830197868952015416151591829101526104b9575b50505050505050611e91565b61040a565b61052e9587956104ce61051e9451865161208f565b85526104e3818751015191860191825161208f565b90528b855101516104f88d860191825161208f565b905261050d818651015191850191825161208f565b90528084510151920191825161208f565b9052510151918a0191825161208f565b9052388088818b81806104a8565b60c08761057d8551809260a0809180518452602081015160208501526040810151604085015260608101516060850152608081015160808501520151910152565bf35b85548452600195860195879550930192016103f1565b8480fd5b8380fd5b848285346103aa5760203660031901126103aa576105dc6105d761024a9435600052600260205260018060a01b0360406000205416151590565b611864565b8181516105e88161157d565b528051916105f58361157d565b82525191829160208352602083019061145a565b509050346102885760203660031901126102885782359067ffffffffffffffff82116102885750610657602061064561024a9336908701611785565b81855193828580945193849201611437565b810160098152030190209161066b836115bb565b926001810154946002820154906003830154908301549061068e600585016115bb565b9260ff600c61069f60068801611661565b960154169551988998896116a7565b5083346103aa5760803660031901126103aa576106c961147f565b906106d261149a565b916044356064359367ffffffffffffffff851161073857366023860112156107385761070d610730948660246107359836930135910161174e565b9261072061071b84336119ea565b611911565b61072b838383611ab2565b611e06565b6119c6565b80f35b8580fd5b5082346103aa5760209081600319360112610358576001600160a01b0361076161147f565b168352600a82528083209281518093808654928381520195835280832092905b8282106107a35761024a8686610799828b0383611599565b51918291826117a3565b835487529586019560019384019390910190610781565b508383346103585780600319360112610358576107d561147f565b906107de6114e5565b6001600160a01b039092169233841461084a5750338452600560205280842083855260205261081b828286209060ff801983541691151516179055565b5190151581527f17307eab39ab6107e8899845ad3d59bd9653f200f220920489ca2b5937696c3160203392a380f35b6020606492519162461bcd60e51b8352820152601960248201527f4552433732313a20617070726f766520746f2063616c6c6572000000000000006044820152fd5b50828434610358576020366003190112610358576020928291358152600b845220549051908152f35b5090503461028857816003193601126102885760243592358152600c60205281812090815484101561028857506020926108ee916117de565b91905490519160031b1c8152f35b5082346103aa57816003193601126103aa57805190826001805491610920836114f4565b808652928281169081156109b7575060011461095b575b5050506109498261024a940383611599565b5191829160208352602083019061145a565b94508085527fb10e2d527612073b26eecdfd717e6a320cf44b4afac2b0732d9fcbe2b7fa0cf65b82861061099f5750505061094982602061024a9582010194610937565b80546020878701810191909152909501948101610982565b61024a97508693506020925061094994915060ff191682840152151560051b82010194610937565b5082346103aa57816003193601126103aa5760065490516001600160a01b039091168152602090f35b5082346103aa57816003193601126103aa57600e5490516001600160a01b039091168152602090f35b5082346103aa57806003193601126103aa57610a4b61147f565b6001600160a01b03168252600a6020528082208054602435939084101561028857506020926108ee916117de565b50838334610358576020918260031936011261059957358352600c82528083209281518093808654928381520195835280832092905b828210610ac75761024a8686610799828b0383611599565b835487529586019560019384019390910190610aaf565b5082346103aa57816003193601126103aa576020906007549051908152f35b848285346103aa57806003193601126103aa57823567ffffffffffffffff811161035857610b2e9036908501611785565b926024358251948051926001602097888181860197610b4e81838b611437565b81016009815203019020015415610e8d57600d5485516331a9108f60e11b8152828101859052906001600160a01b039089908390602490829085165afa918215610e83578892610e47575b5033911603610e0457610bc68760075495610bb387611e91565b6007558751809381928751928391611437565b8101600981520301902084875260088852858720818103610d50575b5050838652600b87528285872055828652600c8752610c0384868820611fe9565b845190610c0f8261157d565b8682523315610d0f57509060608697610cf0610730610d0295610c85898b7f1e606f355f318326aacd024898d3d4423dbef4bc207a8fd760e434b199217f669c9d610c78610c7284600052600260205260018060a01b0360406000205416151590565b15612011565b338152600a885220611fe9565b600089815260026020526040902054610ca8906001600160a01b03161515610c72565b33808d52600385528b8d2080546001019055898d52600285528b8d2080546001600160a01b0319168217905589908d60008051602061209d8339815191528180a48833611cea565b8751958652850152606084019061145a565b938201528033930390a280f35b606490888088519262461bcd60e51b845283015260248201527f4552433732313a206d696e7420746f20746865207a65726f20616464726573736044820152fd5b600c60ff8184610d63610dc19686611eb6565b6001810154600186015560028101546002860155600381015460038601558681015487860155610d996005820160058701611eb6565b6006850160068201808203610dc8575b505001541691019060ff801983541691151516179055565b8780610be2565b549055600781015460078601556008810154600886015560098101546009860155600a810154600a860155600b810154600b8601558d80610da9565b845162461bcd60e51b8152908101879052601a60248201527f4e6f7420746865206f776e6572206f662074686973206c616e640000000000006044820152606490fd5b9091508881813d8311610e7c575b610e5f8183611599565b81010312610e7857518181168103610e78579089610b99565b8780fd5b503d610e55565b87513d8a823e3d90fd5b845162461bcd60e51b8152908101879052601860248201527f556e6974207479706520646f6573206e6f7420657869737400000000000000006044820152606490fd5b50905034610288576020366003190112610288578161024a91843581526008602052209161066b836115bb565b5034610288578060031936011261028857610f1661180c565b600680546001600160a01b0319811690915581906001600160a01b03167f8be0079c531659141344cd1fd0a4f28419497f9722a3daafe3b4186f6b6457e08280a380f35b838286346103aa5760203660031901126103aa576001600160a01b03610f7e61147f565b16908115610f9b5760208480858581526003845220549051908152f35b608490602085519162461bcd60e51b8352820152602960248201527f4552433732313a2061646472657373207a65726f206973206e6f7420612076616044820152683634b21037bbb732b960b91b6064820152fd5b509050346102885760203660031901126102885750611011602092356118b0565b90516001600160a01b039091168152f35b838286346103aa57826003193601126103aa57803561103f6114e5565b600e549092906001600160a01b031633036110ce576000828152600260205260409020546001600160a01b03161561109557508293600c91610735945260086020528420019060ff801983541691151516179055565b606490602086519162461bcd60e51b83528201526013602482015272155b9a5d08191bd95cc81b9bdd08195e1a5cdd606a1b6044820152fd5b606490602086519162461bcd60e51b8352820152601e60248201527f43616c6c6572206973206e6f74204c616e644e465420636f6e747261637400006044820152fd5b5082346103aa5761073061073591611128366114b0565b919251926111358461157d565b86845261072061071b84336119ea565b5082346103aa57816003193601126103aa57600d5490516001600160a01b039091168152602090f35b503461028857610735611180366114b0565b9161118e61071b84336119ea565b611ab2565b508284346103585781600319360112610358576111ae61147f565b6024359290916001600160a01b03919082806111c9876118b0565b169416938085146112b557803314908115611296575b501561122e57848652602052842080546001600160a01b03191683179055611206836118b0565b167f8c5be1e5ebec7d5bd14f71427d1e84f3dd0314c0f7b2291e5b200ac8c7c3b9258480a480f35b6020608492519162461bcd60e51b8352820152603d60248201527f4552433732313a20617070726f76652063616c6c6572206973206e6f7420746f60448201527f6b656e206f776e6572206f7220617070726f76656420666f7220616c6c0000006064820152fd5b90508652600560205281862033875260205260ff8287205416876111df565b506020608492519162461bcd60e51b8352820152602160248201527f4552433732313a20617070726f76616c20746f2063757272656e74206f776e656044820152603960f91b6064820152fd5b509050346102885760203660031901126102885750611011602092356118d3565b5082346103aa57816003193601126103aa57805190828054611344816114f4565b808552916001918083169081156109b7575060011461136f575050506109498261024a940383611599565b80809650527f290decd9548b62a8d60345a988386fc84ba6bc95484008f6362f93160ef3e5635b8286106113b35750505061094982602061024a9582010194610937565b80546020878701810191909152909501948101611396565b90508434610358576020366003190112610358573563ffffffff60e01b811680910361035857602092506380ac58cd60e01b8114908115611426575b8115611415575b5015158152f35b6301ffc9a760e01b1490508361140e565b635b5e139f60e01b81149150611407565b60005b83811061144a5750506000910152565b818101518382015260200161143a565b9060209161147381518092818552858086019101611437565b601f01601f1916010190565b600435906001600160a01b038216820361149557565b600080fd5b602435906001600160a01b038216820361149557565b6060906003190112611495576001600160a01b0390600435828116810361149557916024359081168103611495579060443590565b60243590811515820361149557565b90600182811c92168015611524575b602083101461150e57565b634e487b7160e01b600052602260045260246000fd5b91607f1691611503565b610100810190811067ffffffffffffffff82111761154b57604052565b634e487b7160e01b600052604160045260246000fd5b60c0810190811067ffffffffffffffff82111761154b57604052565b6020810190811067ffffffffffffffff82111761154b57604052565b90601f8019910116810190811067ffffffffffffffff82111761154b57604052565b90604051918260008254926115cf846114f4565b90818452600194858116908160001461163e57506001146115fb575b50506115f992500383611599565b565b9093915060005260209081600020936000915b8183106116265750506115f9935082010138806115eb565b8554888401850152948501948794509183019161160e565b9150506115f994506020925060ff191682840152151560051b82010138806115eb565b9060405161166e81611561565b60a06005829480548452600181015460208501526002810154604085015260038101546060850152600481015460808501520154910152565b9698979461172b946116eb946116c961018099946101a0808d528c019061145a565b9460208b015260408a01526060890152608088015286820360a088015261145a565b865160c0860152602087015160e086015260408701516101008601526060870151610120860152608087015161014086015260a090960151610160850152565b1515910152565b67ffffffffffffffff811161154b57601f01601f191660200190565b92919261175a82611732565b916117686040519384611599565b829481845281830111611495578281602093846000960137010152565b9080601f83011215611495578160206117a09335910161174e565b90565b6020908160408183019282815285518094520193019160005b8281106117ca575050505090565b8351855293810193928101926001016117bc565b80548210156117f65760005260206000200190600090565b634e487b7160e01b600052603260045260246000fd5b6006546001600160a01b0316330361182057565b606460405162461bcd60e51b815260206004820152602060248201527f4f776e61626c653a2063616c6c6572206973206e6f7420746865206f776e65726044820152fd5b1561186b57565b60405162461bcd60e51b815260206004820152601860248201527f4552433732313a20696e76616c696420746f6b656e20494400000000000000006044820152606490fd5b6000908152600260205260409020546001600160a01b03166117a0811515611864565b6000818152600260205260409020546118f6906001600160a01b03161515611864565b6000908152600460205260409020546001600160a01b031690565b1561191857565b60405162461bcd60e51b815260206004820152602d60248201527f4552433732313a2063616c6c6572206973206e6f7420746f6b656e206f776e6560448201526c1c881bdc88185c1c1c9bdd9959609a1b6064820152608490fd5b60809060208152603260208201527f4552433732313a207472616e7366657220746f206e6f6e20455243373231526560408201527131b2b4bb32b91034b6b83632b6b2b73a32b960711b60608201520190565b156119cd57565b60405162461bcd60e51b8152806119e660048201611973565b0390fd5b906001600160a01b0380806119fe846118b0565b16931691838314938415611a31575b508315611a1b575b50505090565b611a27919293506118d3565b1614388080611a15565b909350600052600560205260406000208260005260205260ff604060002054169238611a0d565b15611a5f57565b60405162461bcd60e51b815260206004820152602560248201527f4552433732313a207472616e736665722066726f6d20696e636f72726563742060448201526437bbb732b960d91b6064820152608490fd5b90611ada91611ac0846118b0565b6001600160a01b0393918416928492909183168414611a58565b16918215611c995781611b81575b60008051602061209d83398151915290611b2483600092868452600a602052611b148860408620611fe9565b611b1d886118b0565b1614611a58565b8481526004602052604081206bffffffffffffffffffffffff60a01b9081815416905583825260036020526040822060001981540190558482526040822060018154019055858252600260205284604083209182541617905580a4565b929190600093818552600a60205260408520855b815480821015611c7d578690611bab83856117de565b929054600393841b1c14611bc9575050611bc490611e91565b611b95565b916000989194959697981992838101908111611c695790611bfd611bf0611c1693876117de565b905490881b1c91866117de565b90919082549060031b91821b91600019901b1916179055565b8254908115611c555750908060008051602061209d833981519152959493920192611c4184846117de565b81939154921b1b19169055555b9050611ae8565b634e487b7160e01b81526031600452602490fd5b634e487b7160e01b83526011600452602483fd5b50505060008051602061209d8339815191529192939450611c4e565b60405162461bcd60e51b8152602060048201526024808201527f4552433732313a207472616e7366657220746f20746865207a65726f206164646044820152637265737360e01b6064820152608490fd5b9192600092909190803b15611dfc57611d38946040518092630a85bd0160e11b9485835233600484015287602484015260448301526080606483015281878160209a8b96608483019061145a565b03926001600160a01b03165af1849181611dbc575b50611dab575050503d600014611da3573d611d6781611732565b90611d756040519283611599565b81528091833d92013e5b80519182611da05760405162461bcd60e51b8152806119e660048201611973565b01fd5b506060611d7f565b6001600160e01b0319161492509050565b9091508581813d8311611df5575b611dd48183611599565b8101031261059557516001600160e01b031981168103610595579038611d4d565b503d611dca565b5050915050600190565b9293600093909291803b15611e8657948491611e609660405180948193630a85bd0160e11b9788845233600485015260018060a01b0380921660248501526044840152608060648401528260209b8c97608483019061145a565b0393165af1849181611dbc5750611dab575050503d600014611da3573d611d6781611732565b505050915050600190565b6000198114611ea05760010190565b634e487b7160e01b600052601160045260246000fd5b90808214611fe557611ec881546114f4565b9067ffffffffffffffff821161154b578190611ee484546114f4565b601f8111611f91575b50600090601f8311600114611f2557600092611f1a575b50508160011b916000199060031b1c1916179055565b015490503880611f04565b81526020808220858352818320935090601f1985169083905b828210611f78575050908460019594939210611f5f575b505050811b019055565b015460001960f88460031b161c19169055388080611f55565b8495819295850154815560018091019601940190611f3e565b909150600084815260208120601f850160051c81019260208610611fdb575b90601f86959493920160051c01915b828110611fcd575050611eed565b818155859450600101611fbf565b9092508290611fb0565b5050565b908154916801000000000000000083101561154b5782611bfd9160016115f9950181556117de565b1561201857565b60405162461bcd60e51b815260206004820152601c60248201527f4552433732313a20746f6b656e20616c7265616479206d696e746564000000006044820152606490fd5b6040519061206a82611561565b8160a06000918281528260208201528260408201528260608201528260808201520152565b91908201809211611ea05756feddf252ad1be2c89b69c2b068fc378daa952ba7f163c4a11628f55a4df523b3efa2646970667358221220ba5fdb8e74e785220d0a7d2ece8ff1b222f78848a8794259474438dbcc59a20364736f6c63430008130033290decd9548b62a8d60345a988386fc84ba6bc95484008f6362f93160ef3e563b10e2d527612073b26eecdfd717e6a320cf44b4afac2b0732d9fcbe2b7fa0cf6",
  "linkReferences": {},
  "deployedLinkReferences": {}
}