{
  "_format": "hh-sol-artifact-1",
  "contractName": "LandNFT",
  "sourceName": "contracts/landNFT.sol",
  "abi": [
    {
      "inputs": [
        {
          "internalType": "uint256",
          "name": "_mintPrice",
          "type": "uint256"
        }
      ],
      "stateMutability": "nonpayable",
      "type": "constructor"
    },
    {
      "anonymous": false,
      "inputs": [
        {
          "indexed": true,
          "internalType": "address",
          "name": "owner",
          "type": "address"
        },
        {
          "indexed": true,
          "internalType": "address",
          "name": "approved",
          "type": "address"
        },
        {
          "indexed": true,
          "internalType": "uint256",
          "name": "tokenId",
          "type": "uint256"
        }
      ],
      "name": "Approval",
      "type": "event"
    },
    {
      "anonymous": false,
      "inputs": [
        {
          "indexed": true,
          "internalType": "address",
          "name": "owner",
          "type": "address"
        },
        {
          "indexed": true,
          "internalType": "address",
          "name": "operator",
          "type": "address"
        },
        {
          "indexed": false,
          "internalType": "bool",
          "name": "approved",
          "type": "bool"
        }
      ],
      "name": "ApprovalForAll",
      "type": "event"
    },
    {
      "anonymous": false,
      "inputs": [
        {
          "indexed": false,
          "internalType": "uint256",
          "name": "tokenId",
          "type": "uint256"
        },
        {
          "indexed": false,
          "internalType": "string",
          "name": "buildingName",
          "type": "string"
        },
        {
          "indexed": false,
          "internalType": "uint256",
          "name": "level",
          "type": "uint256"
        }
      ],
      "name": "BuildingConstructionCompleted",
      "type": "event"
    },
    {
      "anonymous": false,
      "inputs": [
        {
          "indexed": false,
          "internalType": "uint256",
          "name": "tokenId",
          "type": "uint256"
        },
        {
          "indexed": false,
          "internalType": "string",
          "name": "buildingName",
          "type": "string"
        },
        {
          "indexed": false,
          "internalType": "uint256",
          "name": "level",
          "type": "uint256"
        },
        {
          "indexed": false,
          "internalType": "uint256",
          "name": "completionTime",
          "type": "uint256"
        }
      ],
      "name": "BuildingConstructionStarted",
      "type": "event"
    },
    {
      "anonymous": false,
      "inputs": [
        {
          "indexed": false,
          "internalType": "uint256",
          "name": "tokenId",
          "type": "uint256"
        },
        {
          "components": [
            {
              "internalType": "uint256",
              "name": "population",
              "type": "uint256"
            },
            {
              "internalType": "uint256",
              "name": "production",
              "type": "uint256"
            },
            {
              "internalType": "uint256",
              "name": "happiness",
              "type": "uint256"
            },
            {
              "internalType": "uint256",
              "name": "technology",
              "type": "uint256"
            },
            {
              "internalType": "uint256",
              "name": "piety",
              "type": "uint256"
            },
            {
              "internalType": "uint256",
              "name": "strength",
              "type": "uint256"
            },
            {
              "components": [
                {
                  "internalType": "string",
                  "name": "name",
                  "type": "string"
                },
                {
                  "internalType": "uint256",
                  "name": "level",
                  "type": "uint256"
                },
                {
                  "internalType": "bool",
                  "name": "isActive",
                  "type": "bool"
                }
              ],
              "internalType": "struct DataTypes.Building[]",
              "name": "buildings",
              "type": "tuple[]"
            },
            {
              "components": [
                {
                  "internalType": "string",
                  "name": "name",
                  "type": "string"
                },
                {
                  "internalType": "uint256",
                  "name": "level",
                  "type": "uint256"
                },
                {
                  "internalType": "uint256",
                  "name": "completionTime",
                  "type": "uint256"
                }
              ],
              "internalType": "struct DataTypes.BuildingUnderConstruction[]",
              "name": "constructions",
              "type": "tuple[]"
            },
            {
              "components": [
                {
                  "internalType": "uint256",
                  "name": "food",
                  "type": "uint256"
                },
                {
                  "internalType": "uint256",
                  "name": "wood",
                  "type": "uint256"
                },
                {
                  "internalType": "uint256",
                  "name": "stone",
                  "type": "uint256"
                },
                {
                  "internalType": "uint256",
                  "name": "brass",
                  "type": "uint256"
                },
                {
                  "internalType": "uint256",
                  "name": "iron",
                  "type": "uint256"
                },
                {
                  "internalType": "uint256",
                  "name": "gold",
                  "type": "uint256"
                }
              ],
              "internalType": "struct DataTypes.Resources",
              "name": "resources",
              "type": "tuple"
            },
            {
              "internalType": "uint256",
              "name": "lastResourceUpdate",
              "type": "uint256"
            }
          ],
          "indexed": false,
          "internalType": "struct DataTypes.LandStats",
          "name": "stats",
          "type": "tuple"
        }
      ],
      "name": "EpochUpdated",
      "type": "event"
    },
    {
      "anonymous": false,
      "inputs": [
        {
          "indexed": true,
          "internalType": "address",
          "name": "owner",
          "type": "address"
        },
        {
          "indexed": false,
          "internalType": "uint256",
          "name": "tokenId",
          "type": "uint256"
        },
        {
          "indexed": false,
          "internalType": "int256",
          "name": "x",
          "type": "int256"
        },
        {
          "indexed": false,
          "internalType": "int256",
          "name": "y",
          "type": "int256"
        }
      ],
      "name": "Minted",
      "type": "event"
    },
    {
      "anonymous": false,
      "inputs": [
        {
          "indexed": true,
          "internalType": "address",
          "name": "previousOwner",
          "type": "address"
        },
        {
          "indexed": true,
          "internalType": "address",
          "name": "newOwner",
          "type": "address"
        }
      ],
      "name": "OwnershipTransferred",
      "type": "event"
    },
    {
      "anonymous": false,
      "inputs": [
        {
          "indexed": true,
          "internalType": "address",
          "name": "from",
          "type": "address"
        },
        {
          "indexed": true,
          "internalType": "address",
          "name": "to",
          "type": "address"
        },
        {
          "indexed": true,
          "internalType": "uint256",
          "name": "tokenId",
          "type": "uint256"
        }
      ],
      "name": "Transfer",
      "type": "event"
    },
    {
      "inputs": [
        {
          "internalType": "address",
          "name": "to",
          "type": "address"
        },
        {
          "internalType": "uint256",
          "name": "tokenId",
          "type": "uint256"
        }
      ],
      "name": "approve",
      "outputs": [],
      "stateMutability": "nonpayable",
      "type": "function"
    },
    {
      "inputs": [
        {
          "internalType": "address",
          "name": "owner",
          "type": "address"
        }
      ],
      "name": "balanceOf",
      "outputs": [
        {
          "internalType": "uint256",
          "name": "",
          "type": "uint256"
        }
      ],
      "stateMutability": "view",
      "type": "function"
    },
    {
      "inputs": [],
      "name": "buildingManager",
      "outputs": [
        {
          "internalType": "contract BuildingManager",
          "name": "",
          "type": "address"
        }
      ],
      "stateMutability": "view",
      "type": "function"
    },
    {
      "inputs": [
        {
          "internalType": "uint256",
          "name": "tokenId",
          "type": "uint256"
        }
      ],
      "name": "completeBuildingConstruction",
      "outputs": [],
      "stateMutability": "nonpayable",
      "type": "function"
    },
    {
      "inputs": [],
      "name": "epochDuration",
      "outputs": [
        {
          "internalType": "uint256",
          "name": "",
          "type": "uint256"
        }
      ],
      "stateMutability": "view",
      "type": "function"
    },
    {
      "inputs": [
        {
          "internalType": "uint256",
          "name": "tokenId",
          "type": "uint256"
        }
      ],
      "name": "getApproved",
      "outputs": [
        {
          "internalType": "address",
          "name": "",
          "type": "address"
        }
      ],
      "stateMutability": "view",
      "type": "function"
    },
    {
      "inputs": [
        {
          "internalType": "uint256",
          "name": "tokenId",
          "type": "uint256"
        }
      ],
      "name": "getLandCoordinates",
      "outputs": [
        {
          "internalType": "int256",
          "name": "x",
          "type": "int256"
        },
        {
          "internalType": "int256",
          "name": "y",
          "type": "int256"
        }
      ],
      "stateMutability": "view",
      "type": "function"
    },
    {
      "inputs": [
        {
          "internalType": "uint256",
          "name": "tokenId",
          "type": "uint256"
        }
      ],
      "name": "getLandStats",
      "outputs": [
        {
          "components": [
            {
              "internalType": "uint256",
              "name": "population",
              "type": "uint256"
            },
            {
              "internalType": "uint256",
              "name": "production",
              "type": "uint256"
            },
            {
              "internalType": "uint256",
              "name": "happiness",
              "type": "uint256"
            },
            {
              "internalType": "uint256",
              "name": "technology",
              "type": "uint256"
            },
            {
              "internalType": "uint256",
              "name": "piety",
              "type": "uint256"
            },
            {
              "internalType": "uint256",
              "name": "strength",
              "type": "uint256"
            },
            {
              "components": [
                {
                  "internalType": "string",
                  "name": "name",
                  "type": "string"
                },
                {
                  "internalType": "uint256",
                  "name": "level",
                  "type": "uint256"
                },
                {
                  "internalType": "bool",
                  "name": "isActive",
                  "type": "bool"
                }
              ],
              "internalType": "struct DataTypes.Building[]",
              "name": "buildings",
              "type": "tuple[]"
            },
            {
              "components": [
                {
                  "internalType": "string",
                  "name": "name",
                  "type": "string"
                },
                {
                  "internalType": "uint256",
                  "name": "level",
                  "type": "uint256"
                },
                {
                  "internalType": "uint256",
                  "name": "completionTime",
                  "type": "uint256"
                }
              ],
              "internalType": "struct DataTypes.BuildingUnderConstruction[]",
              "name": "constructions",
              "type": "tuple[]"
            },
            {
              "components": [
                {
                  "internalType": "uint256",
                  "name": "food",
                  "type": "uint256"
                },
                {
                  "internalType": "uint256",
                  "name": "wood",
                  "type": "uint256"
                },
                {
                  "internalType": "uint256",
                  "name": "stone",
                  "type": "uint256"
                },
                {
                  "internalType": "uint256",
                  "name": "brass",
                  "type": "uint256"
                },
                {
                  "internalType": "uint256",
                  "name": "iron",
                  "type": "uint256"
                },
                {
                  "internalType": "uint256",
                  "name": "gold",
                  "type": "uint256"
                }
              ],
              "internalType": "struct DataTypes.Resources",
              "name": "resources",
              "type": "tuple"
            },
            {
              "internalType": "uint256",
              "name": "lastResourceUpdate",
              "type": "uint256"
            }
          ],
          "internalType": "struct DataTypes.LandStats",
          "name": "",
          "type": "tuple"
        }
      ],
      "stateMutability": "view",
      "type": "function"
    },
    {
      "inputs": [
        {
          "internalType": "uint256",
          "name": "newMaxSupply",
          "type": "uint256"
        }
      ],
      "name": "increaseMaxSupply",
      "outputs": [],
      "stateMutability": "nonpayable",
      "type": "function"
    },
    {
      "inputs": [
        {
          "internalType": "address",
          "name": "owner",
          "type": "address"
        },
        {
          "internalType": "address",
          "name": "operator",
          "type": "address"
        }
      ],
      "name": "isApprovedForAll",
      "outputs": [
        {
          "internalType": "bool",
          "name": "",
          "type": "bool"
        }
      ],
      "stateMutability": "view",
      "type": "function"
    },
    {
      "inputs": [],
      "name": "mapContract",
      "outputs": [
        {
          "internalType": "contract MapContract",
          "name": "",
          "type": "address"
        }
      ],
      "stateMutability": "view",
      "type": "function"
    },
    {
      "inputs": [],
      "name": "maxSupply",
      "outputs": [
        {
          "internalType": "uint256",
          "name": "",
          "type": "uint256"
        }
      ],
      "stateMutability": "view",
      "type": "function"
    },
    {
      "inputs": [
        {
          "internalType": "enum LandNFT.MintOption",
          "name": "option",
          "type": "uint8"
        },
        {
          "internalType": "uint256",
          "name": "existingTokenId",
          "type": "uint256"
        },
        {
          "internalType": "int256",
          "name": "x",
          "type": "int256"
        },
        {
          "internalType": "int256",
          "name": "y",
          "type": "int256"
        }
      ],
      "name": "mint",
      "outputs": [],
      "stateMutability": "payable",
      "type": "function"
    },
    {
      "inputs": [],
      "name": "mintPrice",
      "outputs": [
        {
          "internalType": "uint256",
          "name": "",
          "type": "uint256"
        }
      ],
      "stateMutability": "view",
      "type": "function"
    },
    {
      "inputs": [],
      "name": "name",
      "outputs": [
        {
          "internalType": "string",
          "name": "",
          "type": "string"
        }
      ],
      "stateMutability": "view",
      "type": "function"
    },
    {
      "inputs": [],
      "name": "nextTokenId",
      "outputs": [
        {
          "internalType": "uint256",
          "name": "",
          "type": "uint256"
        }
      ],
      "stateMutability": "view",
      "type": "function"
    },
    {
      "inputs": [],
      "name": "owner",
      "outputs": [
        {
          "internalType": "address",
          "name": "",
          "type": "address"
        }
      ],
      "stateMutability": "view",
      "type": "function"
    },
    {
      "inputs": [
        {
          "internalType": "uint256",
          "name": "tokenId",
          "type": "uint256"
        }
      ],
      "name": "ownerOf",
      "outputs": [
        {
          "internalType": "address",
          "name": "",
          "type": "address"
        }
      ],
      "stateMutability": "view",
      "type": "function"
    },
    {
      "inputs": [],
      "name": "renounceOwnership",
      "outputs": [],
      "stateMutability": "nonpayable",
      "type": "function"
    },
    {
      "inputs": [
        {
          "internalType": "address",
          "name": "from",
          "type": "address"
        },
        {
          "internalType": "address",
          "name": "to",
          "type": "address"
        },
        {
          "internalType": "uint256",
          "name": "tokenId",
          "type": "uint256"
        }
      ],
      "name": "safeTransferFrom",
      "outputs": [],
      "stateMutability": "nonpayable",
      "type": "function"
    },
    {
      "inputs": [
        {
          "internalType": "address",
          "name": "from",
          "type": "address"
        },
        {
          "internalType": "address",
          "name": "to",
          "type": "address"
        },
        {
          "internalType": "uint256",
          "name": "tokenId",
          "type": "uint256"
        },
        {
          "internalType": "bytes",
          "name": "data",
          "type": "bytes"
        }
      ],
      "name": "safeTransferFrom",
      "outputs": [],
      "stateMutability": "nonpayable",
      "type": "function"
    },
    {
      "inputs": [
        {
          "internalType": "address",
          "name": "operator",
          "type": "address"
        },
        {
          "internalType": "bool",
          "name": "approved",
          "type": "bool"
        }
      ],
      "name": "setApprovalForAll",
      "outputs": [],
      "stateMutability": "nonpayable",
      "type": "function"
    },
    {
      "inputs": [
        {
          "internalType": "address",
          "name": "_buildingManager",
          "type": "address"
        }
      ],
      "name": "setBuildingManager",
      "outputs": [],
      "stateMutability": "nonpayable",
      "type": "function"
    },
    {
      "inputs": [
        {
          "internalType": "address",
          "name": "_mapContract",
          "type": "address"
        }
      ],
      "name": "setMapContract",
      "outputs": [],
      "stateMutability": "nonpayable",
      "type": "function"
    },
    {
      "inputs": [
        {
          "internalType": "uint256",
          "name": "newPrice",
          "type": "uint256"
        }
      ],
      "name": "setMintPrice",
      "outputs": [],
      "stateMutability": "nonpayable",
      "type": "function"
    },
    {
      "inputs": [
        {
          "internalType": "uint256",
          "name": "tokenId",
          "type": "uint256"
        },
        {
          "internalType": "string",
          "name": "buildingName",
          "type": "string"
        },
        {
          "internalType": "uint256",
          "name": "level",
          "type": "uint256"
        }
      ],
      "name": "startBuildingConstruction",
      "outputs": [],
      "stateMutability": "nonpayable",
      "type": "function"
    },
    {
      "inputs": [
        {
          "internalType": "bytes4",
          "name": "interfaceId",
          "type": "bytes4"
        }
      ],
      "name": "supportsInterface",
      "outputs": [
        {
          "internalType": "bool",
          "name": "",
          "type": "bool"
        }
      ],
      "stateMutability": "view",
      "type": "function"
    },
    {
      "inputs": [],
      "name": "symbol",
      "outputs": [
        {
          "internalType": "string",
          "name": "",
          "type": "string"
        }
      ],
      "stateMutability": "view",
      "type": "function"
    },
    {
      "inputs": [
        {
          "internalType": "uint256",
          "name": "index",
          "type": "uint256"
        }
      ],
      "name": "tokenByIndex",
      "outputs": [
        {
          "internalType": "uint256",
          "name": "",
          "type": "uint256"
        }
      ],
      "stateMutability": "view",
      "type": "function"
    },
    {
      "inputs": [
        {
          "internalType": "address",
          "name": "owner",
          "type": "address"
        },
        {
          "internalType": "uint256",
          "name": "index",
          "type": "uint256"
        }
      ],
      "name": "tokenOfOwnerByIndex",
      "outputs": [
        {
          "internalType": "uint256",
          "name": "",
          "type": "uint256"
        }
      ],
      "stateMutability": "view",
      "type": "function"
    },
    {
      "inputs": [
        {
          "internalType": "uint256",
          "name": "tokenId",
          "type": "uint256"
        }
      ],
      "name": "tokenURI",
      "outputs": [
        {
          "internalType": "string",
          "name": "",
          "type": "string"
        }
      ],
      "stateMutability": "view",
      "type": "function"
    },
    {
      "inputs": [],
      "name": "totalSupply",
      "outputs": [
        {
          "internalType": "uint256",
          "name": "",
          "type": "uint256"
        }
      ],
      "stateMutability": "view",
      "type": "function"
    },
    {
      "inputs": [
        {
          "internalType": "address",
          "name": "from",
          "type": "address"
        },
        {
          "internalType": "address",
          "name": "to",
          "type": "address"
        },
        {
          "internalType": "uint256",
          "name": "tokenId",
          "type": "uint256"
        }
      ],
      "name": "transferFrom",
      "outputs": [],
      "stateMutability": "nonpayable",
      "type": "function"
    },
    {
      "inputs": [
        {
          "internalType": "address",
          "name": "newOwner",
          "type": "address"
        }
      ],
      "name": "transferOwnership",
      "outputs": [],
      "stateMutability": "nonpayable",
      "type": "function"
    },
    {
      "inputs": [
        {
          "internalType": "uint256",
          "name": "tokenId",
          "type": "uint256"
        }
      ],
      "name": "updateEpoch",
      "outputs": [],
      "stateMutability": "nonpayable",
      "type": "function"
    },
    {
      "inputs": [],
      "name": "withdraw",
      "outputs": [],
      "stateMutability": "nonpayable",
      "type": "function"
    }
  ],
  "bytecode": "0x6080604052620151806010556127106011553480156200001e57600080fd5b50604051620046223803806200462283398101604081905262000041916200012c565b6040518060400160405280600d81526020016c119a9d5b9b1d5b990813185b99609a1b8152506040518060400160405280600381526020016211929360ea1b8152508160009081620000949190620001eb565b506001620000a38282620001eb565b505050620000c0620000ba620000d660201b60201c565b620000da565b6001600b819055600f91909155600e55620002b7565b3390565b600a80546001600160a01b038381166001600160a01b0319831681179093556040519116919082907f8be0079c531659141344cd1fd0a4f28419497f9722a3daafe3b4186f6b6457e090600090a35050565b6000602082840312156200013f57600080fd5b5051919050565b634e487b7160e01b600052604160045260246000fd5b600181811c908216806200017157607f821691505b6020821081036200019257634e487b7160e01b600052602260045260246000fd5b50919050565b601f821115620001e657600081815260208120601f850160051c81016020861015620001c15750805b601f850160051c820191505b81811015620001e257828155600101620001cd565b5050505b505050565b81516001600160401b0381111562000207576200020762000146565b6200021f816200021884546200015c565b8462000198565b602080601f8311600181146200025757600084156200023e5750858301515b600019600386901b1c1916600185901b178555620001e2565b600085815260208120601f198616915b82811015620002885788860151825594840194600190910190840162000267565b5085821015620002a75787850151600019600388901b60f8161c191681555b5050505050600190811b01905550565b61435b80620002c76000396000f3fe60806040526004361061020f5760003560e01c80636352211e1161011857806395d89b41116100a0578063c87b56dd1161006f578063c87b56dd146105fc578063d5abeb011461061c578063e985e9c514610632578063f2fde38b1461067b578063f4a0a5281461069b57600080fd5b806395d89b4114610587578063a22cb4651461059c578063a563ef2c146105bc578063b88d4fde146105dc57600080fd5b806370a08231116100e757806370a08231146104fe578063715018a61461051e57806375794a3c146105335780638da5cb5b1461054957806390edbfee1461056757600080fd5b80636352211e146104885780636727b150146104a85780636817c76c146104c8578063691c7836146104de57600080fd5b806323b872dd1161019b57806342842e0e1161016a57806342842e0e146103dd5780634f6ccce7146103fd5780634ff0876a1461041d578063514500561461043357806360e4c3931461046857600080fd5b806323b872dd146103685780632de3e04f146103885780632f745c59146103a85780633ccfd60b146103c857600080fd5b8063081812fc116101e2578063081812fc146102be57806308d1616d146102f6578063095ea7b31461030957806315ca0dc01461032957806318160ddd1461034957600080fd5b8063018c7f9e1461021457806301ffc9a71461024a5780630426657c1461027a57806306fdde031461029c575b600080fd5b34801561022057600080fd5b5061023461022f366004613320565b6106bb565b604051610241919061346e565b60405180910390f35b34801561025657600080fd5b5061026a610265366004613557565b6109b8565b6040519015158152602001610241565b34801561028657600080fd5b5061029a610295366004613590565b6109e3565b005b3480156102a857600080fd5b506102b1610a66565b60405161024191906135ab565b3480156102ca57600080fd5b506102de6102d9366004613320565b610af8565b6040516001600160a01b039091168152602001610241565b61029a6103043660046135be565b610b1f565b34801561031557600080fd5b5061029a6103243660046135fd565b611363565b34801561033557600080fd5b5061029a610344366004613320565b611478565b34801561035557600080fd5b506008545b604051908152602001610241565b34801561037457600080fd5b5061029a610383366004613627565b6114eb565b34801561039457600080fd5b5061029a6103a3366004613320565b61151c565b3480156103b457600080fd5b5061035a6103c33660046135fd565b6118aa565b3480156103d457600080fd5b5061029a611940565b3480156103e957600080fd5b5061029a6103f8366004613627565b6119ee565b34801561040957600080fd5b5061035a610418366004613320565b611a09565b34801561042957600080fd5b5061035a60105481565b34801561043f57600080fd5b5061045361044e366004613320565b611a9c565b60408051928352602083019190915201610241565b34801561047457600080fd5b50600c546102de906001600160a01b031681565b34801561049457600080fd5b506102de6104a3366004613320565b611b39565b3480156104b457600080fd5b50600d546102de906001600160a01b031681565b3480156104d457600080fd5b5061035a600f5481565b3480156104ea57600080fd5b5061029a6104f936600461375d565b611b99565b34801561050a57600080fd5b5061035a610519366004613590565b611de4565b34801561052a57600080fd5b5061029a611e6a565b34801561053f57600080fd5b5061035a600e5481565b34801561055557600080fd5b50600a546001600160a01b03166102de565b34801561057357600080fd5b5061029a610582366004613320565b611e7e565b34801561059357600080fd5b506102b1611efb565b3480156105a857600080fd5b5061029a6105b73660046137cf565b611f0a565b3480156105c857600080fd5b5061029a6105d7366004613590565b611f19565b3480156105e857600080fd5b5061029a6105f7366004613806565b611f9c565b34801561060857600080fd5b506102b1610617366004613320565b611fce565b34801561062857600080fd5b5061035a60115481565b34801561063e57600080fd5b5061026a61064d366004613882565b6001600160a01b03918216600090815260056020908152604080832093909416825291909152205460ff1690565b34801561068757600080fd5b5061029a610696366004613590565b612042565b3480156106a757600080fd5b5061029a6106b6366004613320565b6120b8565b6106c3613248565b6106cc826120c5565b6106f15760405162461bcd60e51b81526004016106e8906138b5565b60405180910390fd5b601260008381526020019081526020016000206040518061014001604052908160008201548152602001600182015481526020016002820154815260200160038201548152602001600482015481526020016005820154815260200160068201805480602002602001604051908101604052809291908181526020016000905b8282101561085457838290600052602060002090600302016040518060600160405290816000820180546107a4906138e3565b80601f01602080910402602001604051908101604052809291908181526020018280546107d0906138e3565b801561081d5780601f106107f25761010080835404028352916020019161081d565b820191906000526020600020905b81548152906001019060200180831161080057829003601f168201915b505050918352505060018281015460208084019190915260029093015460ff16151560409092019190915291835292019101610771565b50505050815260200160078201805480602002602001604051908101604052809291908181526020016000905b8282101561095957838290600052602060002090600302016040518060600160405290816000820180546108b4906138e3565b80601f01602080910402602001604051908101604052809291908181526020018280546108e0906138e3565b801561092d5780601f106109025761010080835404028352916020019161092d565b820191906000526020600020905b81548152906001019060200180831161091057829003601f168201915b505050505081526020016001820154815260200160028201548152505081526020019060010190610881565b505050908252506040805160c081018252600884015481526009840154602082810191909152600a85015482840152600b8501546060830152600c8501546080830152600d85015460a0830152830152600e9092015491015292915050565b60006001600160e01b0319821663780e9d6360e01b14806109dd57506109dd826120e2565b92915050565b6109eb612132565b600d546001600160a01b031615610a445760405162461bcd60e51b815260206004820152601760248201527f4d6170436f6e747261637420616c72656164792073657400000000000000000060448201526064016106e8565b600d80546001600160a01b0319166001600160a01b0392909216919091179055565b606060008054610a75906138e3565b80601f0160208091040260200160405190810160405280929190818152602001828054610aa1906138e3565b8015610aee5780601f10610ac357610100808354040283529160200191610aee565b820191906000526020600020905b815481529060010190602001808311610ad157829003601f168201915b5050505050905090565b6000610b038261218c565b506000908152600460205260409020546001600160a01b031690565b610b276121dc565b600f54341015610b705760405162461bcd60e51b8152602060048201526014602482015273125b9cdd59999a58da595b9d081c185e5b595b9d60621b60448201526064016106e8565b600d546001600160a01b0316610bbe5760405162461bcd60e51b815260206004820152601360248201527213585c10dbdb9d1c9858dd081b9bdd081cd95d606a1b60448201526064016106e8565b601154600e541115610c0b5760405162461bcd60e51b815260206004820152601660248201527513585e1a5b5d5b481cdd5c1c1b1e481c995858da195960521b60448201526064016106e8565b600e80549081906000610c1d83613933565b9190505550610c2c3382612235565b6000818152601260209081526040808320606480825560326001808401829055600284018290556003840187905560048401879055600a60058501819055855160c0810187526101f480825261012c98820189905260c8978201889052606082018a90526080820186905260a09091018490526008860155600985019690965594830193909355600b820194909455600c810193909355600d83015542600e830155866001811115610ce057610ce061394c565b03610f845733610cef86611b39565b6001600160a01b031614610d505760405162461bcd60e51b815260206004820152602260248201527f4e6f7420746865206f776e6572206f6620746865206578697374696e67206c616044820152611b9960f21b60648201526084016106e8565b600d54604051633c7c604f60e01b81526004810187905260009182916001600160a01b0390911690633c7c604f906024016040805180830381865afa158015610d9d573d6000803e3d6000fd5b505050506040513d601f19601f82011682018060405250810190610dc19190613962565b600d546040516372013ed360e11b815260048101849052602481018390529294509092506000916001600160a01b039091169063e4027da690604401600060405180830381865afa158015610e1a573d6000803e3d6000fd5b505050506040513d6000823e601f3d908101601f19168201604052610e429190810190613986565b90506000815111610e9f5760405162461bcd60e51b815260206004820152602160248201527f4e6f2061646a6163656e7420636f6f7264696e6174657320617661696c61626c6044820152606560f81b60648201526084016106e8565b600081600081518110610eb457610eb4613a53565b602090810291909101810151600d5481519282015160405163478935d360e01b8152600481018b9052602481019490945260448401529092506001600160a01b03169063478935d390606401600060405180830381600087803b158015610f1a57600080fd5b505af1158015610f2e573d6000803e3d6000fd5b50508251602080850151604080518c8152928301939093528183015290513393507f8436f10f9012a01d1c3bb5d6dd9014da60dd826366249f20010f63bc881bea8292509081900360600190a2505050506111d0565b6000866001811115610f9857610f9861394c565b0361105f57600d54604051631039f59d60e01b81526004810184905260009182916001600160a01b0390911690631039f59d9060240160408051808303816000875af1158015610fec573d6000803e3d6000fd5b505050506040513d601f19601f820116820180604052508101906110109190613962565b6040805187815260208101849052908101829052919350915033907f8436f10f9012a01d1c3bb5d6dd9014da60dd826366249f20010f63bc881bea829060600160405180910390a250506111d0565b600d546040516307facfc160e41b815260048101869052602481018590526001600160a01b0390911690637facfc1090604401602060405180830381865afa1580156110af573d6000803e3d6000fd5b505050506040513d601f19601f820116820180604052508101906110d39190613a74565b156111205760405162461bcd60e51b815260206004820152601c60248201527f436f6f7264696e6174657320616c7265616479206f636375706965640000000060448201526064016106e8565b600d5460405163478935d360e01b81526004810184905260248101869052604481018590526001600160a01b039091169063478935d390606401600060405180830381600087803b15801561117457600080fd5b505af1158015611188573d6000803e3d6000fd5b505060408051858152602081018890529081018690523392507f8436f10f9012a01d1c3bb5d6dd9014da60dd826366249f20010f63bc881bea82915060600160405180910390a25b6040805160a081018252600460608201908152634661726d60e01b6080830152815260016020808301829052928201819052600684018054918201815560009081529290922081519192839260039091029091019081906112319082613adf565b5060208201516001808301919091556040928301516002909201805492151560ff1990931692909217909155600c54915163244d87ad60e11b81526000926001600160a01b03169163489b0f5a916112ad91906004016040808252600490820152634661726d60e01b6060820152602081019190915260800190565b600060405180830381865afa1580156112ca573d6000803e3d6000fd5b505050506040513d6000823e601f3d908101601f191682016040526112f29190810190613c5e565b9050806080015183600101600082825461130c9190613d67565b909155505060a081015160028401805460009061132a908490613d67565b9091555050610100810151600584018054600090611349908490613d67565b90915550506001600b555061135d92505050565b50505050565b600061136e82611b39565b9050806001600160a01b0316836001600160a01b0316036113db5760405162461bcd60e51b815260206004820152602160248201527f4552433732313a20617070726f76616c20746f2063757272656e74206f776e656044820152603960f91b60648201526084016106e8565b336001600160a01b03821614806113f757506113f7813361064d565b6114695760405162461bcd60e51b815260206004820152603d60248201527f4552433732313a20617070726f76652063616c6c6572206973206e6f7420746f60448201527f6b656e206f776e6572206f7220617070726f76656420666f7220616c6c00000060648201526084016106e8565b611473838361224f565b505050565b6114806121dc565b611489816120c5565b6114a55760405162461bcd60e51b81526004016106e8906138b5565b336114af82611b39565b6001600160a01b0316146114d55760405162461bcd60e51b81526004016106e890613d7a565b6114de816122bd565b6114e86001600b55565b50565b6114f5338261239e565b6115115760405162461bcd60e51b81526004016106e890613db1565b61147383838361241d565b6115246121dc565b3361152e82611b39565b6001600160a01b0316146115545760405162461bcd60e51b81526004016106e890613d7a565b61155d8161258e565b6000818152601260205260408120600701905b815481101561189e57600082828154811061158d5761158d613a53565b90600052602060002090600302016040518060600160405290816000820180546115b6906138e3565b80601f01602080910402602001604051908101604052809291908181526020018280546115e2906138e3565b801561162f5780601f106116045761010080835404028352916020019161162f565b820191906000526020600020905b81548152906001019060200180831161161257829003601f168201915b505050505081526020016001820154815260200160028201548152505090508060400151421061188a57600c548151602083015160405163244d87ad60e11b81526000936001600160a01b03169263489b0f5a9261168f92600401613dfe565b600060405180830381865afa1580156116ac573d6000803e3d6000fd5b505050506040513d6000823e601f3d908101601f191682016040526116d49190810190613c5e565b60808101516000878152601260205260408120600101805493945091926116fc908490613d67565b909155505060a081015160008681526012602052604081206002018054909190611727908490613d67565b909155505061010081015160008681526012602052604081206005018054909190611753908490613d67565b909155505060008581526012602090815260408083208151606081018352865181528684015181850152600192810183905260069091018054928301815584529190922081519192600302019081906117ac9082613adf565b5060208201516001828101919091556040909201516002909101805460ff1916911515919091179055845485916117e291613e20565b815481106117f2576117f2613a53565b906000526020600020906003020184848154811061181257611812613a53565b600091825260209091206003909102018061182d8382613e33565b5060018281015490820155600291820154910155835484908061185257611852613f06565b6000828152602081206000199092019160038302019061187282826132d2565b50600060018201819055600290910155905550611898565b8161189481613933565b9250505b50611570565b50506114e86001600b55565b60006118b583611de4565b82106119175760405162461bcd60e51b815260206004820152602b60248201527f455243373231456e756d657261626c653a206f776e657220696e646578206f7560448201526a74206f6620626f756e647360a81b60648201526084016106e8565b506001600160a01b03919091166000908152600660209081526040808320938352929052205490565b611948612132565b600061195c600a546001600160a01b031690565b6001600160a01b03164760405160006040518083038185875af1925050503d80600081146119a6576040519150601f19603f3d011682016040523d82523d6000602084013e6119ab565b606091505b50509050806114e85760405162461bcd60e51b815260206004820152600f60248201526e151c985b9cd9995c8819985a5b1959608a1b60448201526064016106e8565b61147383838360405180602001604052806000815250611f9c565b6000611a1460085490565b8210611a775760405162461bcd60e51b815260206004820152602c60248201527f455243373231456e756d657261626c653a20676c6f62616c20696e646578206f60448201526b7574206f6620626f756e647360a01b60648201526084016106e8565b60088281548110611a8a57611a8a613a53565b90600052602060002001549050919050565b600080611aa8836120c5565b611ac45760405162461bcd60e51b81526004016106e8906138b5565b600d54604051633c7c604f60e01b8152600481018590526001600160a01b0390911690633c7c604f906024016040805180830381865afa158015611b0c573d6000803e3d6000fd5b505050506040513d601f19601f82011682018060405250810190611b309190613962565b91509150915091565b6000818152600260205260408120546001600160a01b0316806109dd5760405162461bcd60e51b8152602060048201526018602482015277115490cdcc8c4e881a5b9d985b1a59081d1bdad95b88125160421b60448201526064016106e8565b611ba16121dc565b33611bab84611b39565b6001600160a01b031614611bd15760405162461bcd60e51b81526004016106e890613d7a565b600c5460405163244d87ad60e11b81526000916001600160a01b03169063489b0f5a90611c049086908690600401613dfe565b600060405180830381865afa158015611c21573d6000803e3d6000fd5b505050506040513d6000823e601f3d908101601f19168201604052611c499190810190613c5e565b9050611c548461258e565b600084815260126020908152604091829020825160c08101845260088201548152600982015492810192909252600a81015482840152600b8101546060830152600c8101546080830152600d015460a082015290820151611cb5919061272d565b611cf85760405162461bcd60e51b81526020600482015260146024820152734e6f7420656e6f756768207265736f757263657360601b60448201526064016106e8565b611d1b60126000868152602001908152602001600020600801826040015161279c565b600081610140015142611d2e9190613d67565b60008681526012602090815260408083208151606081018352898152808401899052918201859052600701805460018101825590845291909220825193945091926003909102909101908190611d849082613adf565b50602082015181600101556040820151816002015550507f622e8de066e5bec4c7150e2fd56df14c20cecbea5744da2646fe0cfd2861d15785858584604051611dd09493929190613f1c565b60405180910390a150506114736001600b55565b60006001600160a01b038216611e4e5760405162461bcd60e51b815260206004820152602960248201527f4552433732313a2061646472657373207a65726f206973206e6f7420612076616044820152683634b21037bbb732b960b91b60648201526084016106e8565b506001600160a01b031660009081526003602052604090205490565b611e72612132565b611e7c600061284f565b565b611e86612132565b6011548111611ef65760405162461bcd60e51b815260206004820152603660248201527f4e6577206d617820737570706c79206d7573742062652067726561746572207460448201527568616e2063757272656e74206d617820737570706c7960501b60648201526084016106e8565b601155565b606060018054610a75906138e3565b611f153383836128a1565b5050565b611f21612132565b600c546001600160a01b031615611f7a5760405162461bcd60e51b815260206004820152601b60248201527f4275696c64696e674d616e6167657220616c726561647920736574000000000060448201526064016106e8565b600c80546001600160a01b0319166001600160a01b0392909216919091179055565b611fa6338361239e565b611fc25760405162461bcd60e51b81526004016106e890613db1565b61135d8484848461296f565b6060611fd98261218c565b6000611ff060408051602081019091526000815290565b90506000815111612010576040518060200160405280600081525061203b565b8061201a846129a2565b60405160200161202b929190613f48565b6040516020818303038152906040525b9392505050565b61204a612132565b6001600160a01b0381166120af5760405162461bcd60e51b815260206004820152602660248201527f4f776e61626c653a206e6577206f776e657220697320746865207a65726f206160448201526564647265737360d01b60648201526084016106e8565b6114e88161284f565b6120c0612132565b600f55565b6000908152600260205260409020546001600160a01b0316151590565b60006001600160e01b031982166380ac58cd60e01b148061211357506001600160e01b03198216635b5e139f60e01b145b806109dd57506301ffc9a760e01b6001600160e01b03198316146109dd565b600a546001600160a01b03163314611e7c5760405162461bcd60e51b815260206004820181905260248201527f4f776e61626c653a2063616c6c6572206973206e6f7420746865206f776e657260448201526064016106e8565b612195816120c5565b6114e85760405162461bcd60e51b8152602060048201526018602482015277115490cdcc8c4e881a5b9d985b1a59081d1bdad95b88125160421b60448201526064016106e8565b6002600b540361222e5760405162461bcd60e51b815260206004820152601f60248201527f5265656e7472616e637947756172643a207265656e7472616e742063616c6c0060448201526064016106e8565b6002600b55565b611f15828260405180602001604052806000815250612a35565b600081815260046020526040902080546001600160a01b0319166001600160a01b038416908117909155819061228482611b39565b6001600160a01b03167f8c5be1e5ebec7d5bd14f71427d1e84f3dd0314c0f7b2291e5b200ac8c7c3b92560405160405180910390a45050565b60008181526012602052604090206122d48261258e565b60328160020154111561232c57600060648260000154603284600201546122fb9190613e20565b6123059190613f77565b61230f9190613f8e565b9050808260000160008282546123259190613d67565b9091555050505b60058160020154111561235957600581600201600082825461234e9190613e20565b909155506123619050565b600060028201555b7ff3abc8dbf0c6213d4011b96ecd73368a6e6f36cbe993693ca128db83465a639e828260405161239292919061411f565b60405180910390a15050565b6000806123aa83611b39565b9050806001600160a01b0316846001600160a01b031614806123f157506001600160a01b0380821660009081526005602090815260408083209388168352929052205460ff165b806124155750836001600160a01b031661240a84610af8565b6001600160a01b0316145b949350505050565b826001600160a01b031661243082611b39565b6001600160a01b0316146124565760405162461bcd60e51b81526004016106e8906141f2565b6001600160a01b0382166124b85760405162461bcd60e51b8152602060048201526024808201527f4552433732313a207472616e7366657220746f20746865207a65726f206164646044820152637265737360e01b60648201526084016106e8565b6124c58383836001612a68565b826001600160a01b03166124d882611b39565b6001600160a01b0316146124fe5760405162461bcd60e51b81526004016106e8906141f2565b600081815260046020908152604080832080546001600160a01b03199081169091556001600160a01b0387811680865260038552838620805460001901905590871680865283862080546001019055868652600290945282852080549092168417909155905184937fddf252ad1be2c89b69c2b068fc378daa952ba7f163c4a11628f55a4df523b3ef91a4505050565b6000818152601260205260408120600e8101549091906125ae9042613e20565b90506000601054826125c09190613f8e565b9050801561135d57600c5460405163bfecd1a760e01b81526000916001600160a01b03169063bfecd1a7906125fe9060068801908690600401614237565b60c060405180830381865afa15801561261b573d6000803e3d6000fd5b505050506040513d601f19601f8201168201806040525081019061263f919061424a565b9050806000015184600801600001600082825461265c9190613d67565b9091555050602081015160098501805460009061267a908490613d67565b90915550506040810151600a85018054600090612698908490613d67565b90915550506060810151600b850180546000906126b6908490613d67565b90915550506080810151600c850180546000906126d4908490613d67565b909155505060a0810151600d850180546000906126f2908490613d67565b90915550612701905085612b9c565b60105461270e9083613f77565b84600e0160008282546127219190613d67565b90915550505050505050565b805182516000911180159061274a57508160200151836020015110155b801561275e57508160400151836040015110155b801561277257508160600151836060015110155b801561278657508160800151836080015110155b801561203b57505060a090810151910151101590565b8051825483906000906127b0908490613e20565b909155505060208101516001830180546000906127ce908490613e20565b909155505060408101516002830180546000906127ec908490613e20565b9091555050606081015160038301805460009061280a908490613e20565b90915550506080810151600483018054600090612828908490613e20565b909155505060a0810151600583018054600090612846908490613e20565b90915550505050565b600a80546001600160a01b038381166001600160a01b0319831681179093556040519116919082907f8be0079c531659141344cd1fd0a4f28419497f9722a3daafe3b4186f6b6457e090600090a35050565b816001600160a01b0316836001600160a01b0316036129025760405162461bcd60e51b815260206004820152601960248201527f4552433732313a20617070726f766520746f2063616c6c65720000000000000060448201526064016106e8565b6001600160a01b03838116600081815260056020908152604080832094871680845294825291829020805460ff191686151590811790915591519182527f17307eab39ab6107e8899845ad3d59bd9653f200f220920489ca2b5937696c31910160405180910390a3505050565b61297a84848461241d565b61298684848484612d64565b61135d5760405162461bcd60e51b81526004016106e890614266565b606060006129af83612e65565b600101905060008167ffffffffffffffff8111156129cf576129cf613663565b6040519080825280601f01601f1916602001820160405280156129f9576020820181803683370190505b5090508181016020015b600019016f181899199a1a9b1b9c1cb0b131b232b360811b600a86061a8153600a8504945084612a0357509392505050565b612a3f8383612f3d565b612a4c6000848484612d64565b6114735760405162461bcd60e51b81526004016106e890614266565b6001811115612ad75760405162461bcd60e51b815260206004820152603560248201527f455243373231456e756d657261626c653a20636f6e7365637574697665207472604482015274185b9cd9995c9cc81b9bdd081cdd5c1c1bdc9d1959605a1b60648201526084016106e8565b816001600160a01b038516612b3357612b2e81600880546000838152600960205260408120829055600182018355919091527ff3f7a9fe364faab93b216da50a3214154f22a0a2b415b23a84c8169e8b636ee30155565b612b56565b836001600160a01b0316856001600160a01b031614612b5657612b5685826130b8565b6001600160a01b038416612b7257612b6d81613155565b612b95565b846001600160a01b0316846001600160a01b031614612b9557612b958482613204565b5050505050565b6000818152601260205260408120905b6006820154811015611473576000826006018281548110612bcf57612bcf613a53565b60009182526020909120600390910201600281015490915060ff1615612d5157600c54600182015460405163244d87ad60e11b81526000926001600160a01b03169163489b0f5a91612c259186916004016142b8565b600060405180830381865afa158015612c42573d6000803e3d6000fd5b505050506040513d6000823e601f3d908101601f19168201604052612c6a9190810190613c5e565b90506000816060015190506000612ccb866008016040518060c001604052908160008201548152602001600182015481526020016002820154815260200160038201548152602001600482015481526020016005820154815250508361272d565b90508015612ce557612ce0866008018361279c565b612d4d565b60028401805460ff191690556080830151600187018054600090612d0a908490613e20565b909155505060a0830151600287018054600090612d28908490613e20565b9091555050610100830151600587018054600090612d47908490613e20565b90915550505b5050505b5080612d5c81613933565b915050612bac565b60006001600160a01b0384163b15612e5a57604051630a85bd0160e11b81526001600160a01b0385169063150b7a0290612da89033908990889088906004016142cb565b6020604051808303816000875af1925050508015612de3575060408051601f3d908101601f19168201909252612de091810190614308565b60015b612e40573d808015612e11576040519150601f19603f3d011682016040523d82523d6000602084013e612e16565b606091505b508051600003612e385760405162461bcd60e51b81526004016106e890614266565b805181602001fd5b6001600160e01b031916630a85bd0160e11b149050612415565b506001949350505050565b60008072184f03e93ff9f4daa797ed6e38ed64bf6a1f0160401b8310612ea45772184f03e93ff9f4daa797ed6e38ed64bf6a1f0160401b830492506040015b6d04ee2d6d415b85acef81000000008310612ed0576d04ee2d6d415b85acef8100000000830492506020015b662386f26fc100008310612eee57662386f26fc10000830492506010015b6305f5e1008310612f06576305f5e100830492506008015b6127108310612f1a57612710830492506004015b60648310612f2c576064830492506002015b600a83106109dd5760010192915050565b6001600160a01b038216612f935760405162461bcd60e51b815260206004820181905260248201527f4552433732313a206d696e7420746f20746865207a65726f206164647265737360448201526064016106e8565b612f9c816120c5565b15612fe95760405162461bcd60e51b815260206004820152601c60248201527f4552433732313a20746f6b656e20616c7265616479206d696e7465640000000060448201526064016106e8565b612ff7600083836001612a68565b613000816120c5565b1561304d5760405162461bcd60e51b815260206004820152601c60248201527f4552433732313a20746f6b656e20616c7265616479206d696e7465640000000060448201526064016106e8565b6001600160a01b038216600081815260036020908152604080832080546001019055848352600290915280822080546001600160a01b0319168417905551839291907fddf252ad1be2c89b69c2b068fc378daa952ba7f163c4a11628f55a4df523b3ef908290a45050565b600060016130c584611de4565b6130cf9190613e20565b600083815260076020526040902054909150808214613122576001600160a01b03841660009081526006602090815260408083208584528252808320548484528184208190558352600790915290208190555b5060009182526007602090815260408084208490556001600160a01b039094168352600681528383209183525290812055565b60085460009061316790600190613e20565b6000838152600960205260408120546008805493945090928490811061318f5761318f613a53565b9060005260206000200154905080600883815481106131b0576131b0613a53565b60009182526020808320909101929092558281526009909152604080822084905585825281205560088054806131e8576131e8613f06565b6001900381819060005260206000200160009055905550505050565b600061320f83611de4565b6001600160a01b039093166000908152600660209081526040808320868452825280832085905593825260079052919091209190915550565b60405180610140016040528060008152602001600081526020016000815260200160008152602001600081526020016000815260200160608152602001606081526020016132c56040518060c001604052806000815260200160008152602001600081526020016000815260200160008152602001600081525090565b8152602001600081525090565b5080546132de906138e3565b6000825580601f106132ee575050565b601f0160209004906000526020600020908101906114e891905b8082111561331c5760008155600101613308565b5090565b60006020828403121561333257600080fd5b5035919050565b60005b8381101561335457818101518382015260200161333c565b50506000910152565b60008151808452613375816020860160208601613339565b601f01601f19169290920160200192915050565b600082825180855260208086019550808260051b84010181860160005b848110156133f657601f198684030189528151606081518186526133cc8287018261335d565b838801518789015260409384015115159390960192909252505097830197908301906001016133a6565b5090979650505050505050565b600082825180855260208086019550808260051b84010181860160005b848110156133f657601f198684030189528151606081518186526134468287018261335d565b8388015187890152604093840151939096019290925250509783019790830190600101613420565b6020815281516020820152602082015160408201526040820151606082015260608201516080820152608082015160a082015260a082015160c0820152600060c08301516101e08060e08501526134c9610200850183613389565b915060e0850151610100601f1986850301818701526134e88483613403565b9087015180516101208881019190915260208201516101408901526040820151610160890152606082015161018089015260808201516101a089015260a0909101516101c0880152909601519190940152509192915050565b6001600160e01b0319811681146114e857600080fd5b60006020828403121561356957600080fd5b813561203b81613541565b80356001600160a01b038116811461358b57600080fd5b919050565b6000602082840312156135a257600080fd5b61203b82613574565b60208152600061203b602083018461335d565b600080600080608085870312156135d457600080fd5b8435600281106135e357600080fd5b966020860135965060408601359560600135945092505050565b6000806040838503121561361057600080fd5b61361983613574565b946020939093013593505050565b60008060006060848603121561363c57600080fd5b61364584613574565b925061365360208501613574565b9150604084013590509250925092565b634e487b7160e01b600052604160045260246000fd5b6040805190810167ffffffffffffffff8111828210171561369c5761369c613663565b60405290565b604051610180810167ffffffffffffffff8111828210171561369c5761369c613663565b604051601f8201601f1916810167ffffffffffffffff811182821017156136ef576136ef613663565b604052919050565b600067ffffffffffffffff82111561371157613711613663565b50601f01601f191660200190565b600061373261372d846136f7565b6136c6565b905082815283838301111561374657600080fd5b828260208301376000602084830101529392505050565b60008060006060848603121561377257600080fd5b83359250602084013567ffffffffffffffff81111561379057600080fd5b8401601f810186136137a157600080fd5b6137b08682356020840161371f565b925050604084013590509250925092565b80151581146114e857600080fd5b600080604083850312156137e257600080fd5b6137eb83613574565b915060208301356137fb816137c1565b809150509250929050565b6000806000806080858703121561381c57600080fd5b61382585613574565b935061383360208601613574565b925060408501359150606085013567ffffffffffffffff81111561385657600080fd5b8501601f8101871361386757600080fd5b6138768782356020840161371f565b91505092959194509250565b6000806040838503121561389557600080fd5b61389e83613574565b91506138ac60208401613574565b90509250929050565b602080825260149082015273151bdad95b88191bd95cc81b9bdd08195e1a5cdd60621b604082015260600190565b600181811c908216806138f757607f821691505b60208210810361391757634e487b7160e01b600052602260045260246000fd5b50919050565b634e487b7160e01b600052601160045260246000fd5b6000600182016139455761394561391d565b5060010190565b634e487b7160e01b600052602160045260246000fd5b6000806040838503121561397557600080fd5b505080516020909101519092909150565b6000602080838503121561399957600080fd5b825167ffffffffffffffff808211156139b157600080fd5b818501915085601f8301126139c557600080fd5b8151818111156139d7576139d7613663565b6139e5848260051b016136c6565b818152848101925060069190911b830184019087821115613a0557600080fd5b928401925b81841015613a485760408489031215613a235760008081fd5b613a2b613679565b845181528585015186820152835260409093019291840191613a0a565b979650505050505050565b634e487b7160e01b600052603260045260246000fd5b805161358b816137c1565b600060208284031215613a8657600080fd5b815161203b816137c1565b601f82111561147357600081815260208120601f850160051c81016020861015613ab85750805b601f850160051c820191505b81811015613ad757828155600101613ac4565b505050505050565b815167ffffffffffffffff811115613af957613af9613663565b613b0d81613b0784546138e3565b84613a91565b602080601f831160018114613b425760008415613b2a5750858301515b600019600386901b1c1916600185901b178555613ad7565b600085815260208120601f198616915b82811015613b7157888601518255948401946001909101908401613b52565b5085821015613b8f5787850151600019600388901b60f8161c191681555b5050505050600190811b01905550565b600082601f830112613bb057600080fd5b8151613bbe61372d826136f7565b818152846020838601011115613bd357600080fd5b612415826020830160208701613339565b600060c08284031215613bf657600080fd5b60405160c0810181811067ffffffffffffffff82111715613c1957613c19613663565b8060405250809150825181526020830151602082015260408301516040820152606083015160608201526080830151608082015260a083015160a08201525092915050565b600060208284031215613c7057600080fd5b815167ffffffffffffffff80821115613c8857600080fd5b908301906103608286031215613c9d57600080fd5b613ca56136a2565b825182811115613cb457600080fd5b613cc087828601613b9f565b82525060208301516020820152613cda8660408501613be4565b60408201526101009150613cf086838501613be4565b60608201526101c083015160808201526101e083015160a082015261020083015160c082015261022083015160e082015261024083015182820152613d39866102608501613be4565b610120820152610320830151610140820152613d586103408401613a69565b61016082015295945050505050565b808201808211156109dd576109dd61391d565b6020808252601a908201527f4e6f7420746865206f776e6572206f662074686973206c616e64000000000000604082015260600190565b6020808252602d908201527f4552433732313a2063616c6c6572206973206e6f7420746f6b656e206f776e6560408201526c1c881bdc88185c1c1c9bdd9959609a1b606082015260800190565b604081526000613e11604083018561335d565b90508260208301529392505050565b818103818111156109dd576109dd61391d565b818103613e3e575050565b613e4882546138e3565b67ffffffffffffffff811115613e6057613e60613663565b613e6e81613b0784546138e3565b6000601f821160018114613ea25760008315613e8a5750848201545b600019600385901b1c1916600184901b178455612b95565b600085815260209020601f19841690600086815260209020845b83811015613edc5782860154825560019586019590910190602001613ebc565b5085831015613b8f5793015460001960f8600387901b161c19169092555050600190811b01905550565b634e487b7160e01b600052603160045260246000fd5b848152608060208201526000613f35608083018661335d565b6040830194909452506060015292915050565b60008351613f5a818460208801613339565b835190830190613f6e818360208801613339565b01949350505050565b80820281158282048414176109dd576109dd61391d565b600082613fab57634e487b7160e01b600052601260045260246000fd5b500490565b60008154613fbd816138e3565b808552602060018381168015613fda5760018114613ff457614022565b60ff1985168884015283151560051b880183019550614022565b866000528260002060005b8581101561401a5781548a8201860152908301908401613fff565b890184019650505b505050505092915050565b600081548084526020808501808196508360051b81019150856000528260002060005b858110156140a2578284038952606080855261406e81860184613fb0565b905060018301548686015260ff60028401541615156040860152809450506003820191508489019850600181019050614050565b5091979650505050505050565b600081548084526020808501808196508360051b81019150856000528260002060005b858110156140a257828403895260608085526140f081860184613fb0565b9050600183015486860152600283015460408601528094505060038201915084890198506001810190506140d2565b82815260406020820152815460408201526001820154606082015260028201546080820152600382015460a0820152600482015460c0820152600582015460e08201526101e0610100820152600061417e61022083016006850161402d565b828103603f190161012084015261419881600786016140af565b60088501546101408501526009850154610160850152600a850154610180850152600b8501546101a0850152600c8501546101c0850152600d8501546101e08501529050600e840154610200840152809150509392505050565b60208082526025908201527f4552433732313a207472616e736665722066726f6d20696e636f72726563742060408201526437bbb732b960d91b606082015260800190565b604081526000613e11604083018561402d565b600060c0828403121561425c57600080fd5b61203b8383613be4565b60208082526032908201527f4552433732313a207472616e7366657220746f206e6f6e20455243373231526560408201527131b2b4bb32b91034b6b83632b6b2b73a32b960711b606082015260800190565b604081526000613e116040830185613fb0565b6001600160a01b03858116825284166020820152604081018390526080606082018190526000906142fe9083018461335d565b9695505050505050565b60006020828403121561431a57600080fd5b815161203b8161354156fea264697066735822122008457fda97cf38f01f75f3bbfa8c8dc34f7eba12c336cfa31ed5cb87b5ecd31164736f6c63430008130033",
  "linkReferences": {},
  "deployedLinkReferences": {}
}