{
  "_format": "hh-sol-artifact-1",
  "contractName": "MapContract",
  "sourceName": "contracts/mapContract.sol",
  "abi": [
    {
      "inputs": [],
      "name": "GRID_SIZE",
      "outputs": [
        {
          "internalType": "int256",
          "name": "",
          "type": "int256"
        }
      ],
      "stateMutability": "view",
      "type": "function"
    },
    {
      "inputs": [],
      "name": "MAX_COORDINATE",
      "outputs": [
        {
          "internalType": "int256",
          "name": "",
          "type": "int256"
        }
      ],
      "stateMutability": "view",
      "type": "function"
    },
    {
      "inputs": [],
      "name": "MAX_COORDINATES",
      "outputs": [
        {
          "internalType": "uint256",
          "name": "",
          "type": "uint256"
        }
      ],
      "stateMutability": "view",
      "type": "function"
    },
    {
      "inputs": [],
      "name": "MIN_COORDINATE",
      "outputs": [
        {
          "internalType": "int256",
          "name": "",
          "type": "int256"
        }
      ],
      "stateMutability": "view",
      "type": "function"
    },
    {
      "inputs": [
        {
          "internalType": "uint256",
          "name": "tokenId",
          "type": "uint256"
        },
        {
          "internalType": "int256",
          "name": "x",
          "type": "int256"
        },
        {
          "internalType": "int256",
          "name": "y",
          "type": "int256"
        }
      ],
      "name": "assignCoordinate",
      "outputs": [],
      "stateMutability": "nonpayable",
      "type": "function"
    },
    {
      "inputs": [
        {
          "internalType": "uint256",
          "name": "tokenId",
          "type": "uint256"
        }
      ],
      "name": "assignRandomCoordinate",
      "outputs": [
        {
          "internalType": "int256",
          "name": "x",
          "type": "int256"
        },
        {
          "internalType": "int256",
          "name": "y",
          "type": "int256"
        }
      ],
      "stateMutability": "nonpayable",
      "type": "function"
    },
    {
      "inputs": [
        {
          "internalType": "int256",
          "name": "x",
          "type": "int256"
        },
        {
          "internalType": "int256",
          "name": "y",
          "type": "int256"
        }
      ],
      "name": "getAvailableAdjacentCoordinates",
      "outputs": [
        {
          "components": [
            {
              "internalType": "int256",
              "name": "x",
              "type": "int256"
            },
            {
              "internalType": "int256",
              "name": "y",
              "type": "int256"
            }
          ],
          "internalType": "struct DataTypes.Coordinates[]",
          "name": "",
          "type": "tuple[]"
        }
      ],
      "stateMutability": "view",
      "type": "function"
    },
    {
      "inputs": [
        {
          "internalType": "int256",
          "name": "x",
          "type": "int256"
        },
        {
          "internalType": "int256",
          "name": "y",
          "type": "int256"
        }
      ],
      "name": "getCoordinateTokenId",
      "outputs": [
        {
          "internalType": "uint256",
          "name": "",
          "type": "uint256"
        }
      ],
      "stateMutability": "view",
      "type": "function"
    },
    {
      "inputs": [
        {
          "internalType": "uint256",
          "name": "tokenId",
          "type": "uint256"
        }
      ],
      "name": "getTokenCoordinates",
      "outputs": [
        {
          "internalType": "int256",
          "name": "x",
          "type": "int256"
        },
        {
          "internalType": "int256",
          "name": "y",
          "type": "int256"
        }
      ],
      "stateMutability": "view",
      "type": "function"
    },
    {
      "inputs": [
        {
          "internalType": "int256",
          "name": "x",
          "type": "int256"
        },
        {
          "internalType": "int256",
          "name": "y",
          "type": "int256"
        }
      ],
      "name": "isCoordinateOccupied",
      "outputs": [
        {
          "internalType": "bool",
          "name": "",
          "type": "bool"
        }
      ],
      "stateMutability": "view",
      "type": "function"
    },
    {
      "inputs": [],
      "name": "landNFTAddress",
      "outputs": [
        {
          "internalType": "address",
          "name": "",
          "type": "address"
        }
      ],
      "stateMutability": "view",
      "type": "function"
    },
    {
      "inputs": [
        {
          "internalType": "address",
          "name": "_landNFTAddress",
          "type": "address"
        }
      ],
      "name": "setLandNFTAddress",
      "outputs": [],
      "stateMutability": "nonpayable",
      "type": "function"
    },
    {
      "inputs": [],
      "name": "totalAssignedCoordinates",
      "outputs": [
        {
          "internalType": "uint256",
          "name": "",
          "type": "uint256"
        }
      ],
      "stateMutability": "view",
      "type": "function"
    }
  ],
  "bytecode": "0x608060405234801561001057600080fd5b50610cfa806100206000396000f3fe608060405234801561001057600080fd5b50600436106100cf5760003560e01c80637babce561161008c5780638cf6408f116100665780638cf6408f146101dd578063af11c6f614610208578063d257418314610211578063e4027da61461021957600080fd5b80637babce56146101855780637facfc10146101985780637fc4eda8146101d557600080fd5b80630650e904146100d45780631039f59d146100ef57806337c905a9146101175780633c7c604f1461012c578063478935d31461016957806348f21a621461017c575b600080fd5b6100dc600081565b6040519081526020015b60405180910390f35b6101026100fd366004610aff565b610239565b604080519283526020830191909152016100e6565b61012a610125366004610b18565b610481565b005b61010261013a366004610aff565b600090815260026020908152604091829020825180840190935280548084526001909101549290910182905291565b61012a610177366004610b48565b6104fc565b6100dc61271081565b6100dc610193366004610b74565b610738565b6101c56101a6366004610b74565b6000918252600160209081526040808420928452919052902054151590565b60405190151581526020016100e6565b6100dc606481565b6000546101f0906001600160a01b031681565b6040516001600160a01b0390911681526020016100e6565b6100dc60035481565b6100dc610759565b61022c610227366004610b74565b610768565b6040516100e69190610b96565b6000805481906001600160a01b0316331461029b5760405162461bcd60e51b815260206004820152601e60248201527f4f6e6c79204c616e644e465420636f6e74726163742063616e2063616c6c000060448201526064015b60405180910390fd5b612710600354106102ee5760405162461bcd60e51b815260206004820152601c60248201527f416c6c20636f6f7264696e61746573206172652061737369676e6564000000006044820152606401610292565b606460005b8181101561043357604080514260208201524491810191909152606081018690526080810182905260009060649060a0016040516020818303038152906040528051906020012060001c6103479190610be5565b90506000606442448961035b876001610c1d565b6040805160208101959095528401929092526060830152608082015260a0016040516020818303038152906040528051906020012060001c61039d9190610be5565b600083815260016020908152604080832084845290915290205490915061041e57600082815260016020818152604080842085855282528084208b9055805180820182528681528083018681528c86526002909352908420905181559051910155600380549161040c83610c30565b90915550919550935061047c92505050565b5050808061042b90610c30565b9150506102f3565b5060405162461bcd60e51b815260206004820152601f60248201527f4e6f20617661696c61626c652072616e646f6d20636f6f7264696e61746573006044820152606401610292565b915091565b6000546001600160a01b0316156104da5760405162461bcd60e51b815260206004820152601b60248201527f4c616e644e4654206164647265737320616c72656164792073657400000000006044820152606401610292565b600080546001600160a01b0319166001600160a01b0392909216919091179055565b6000546001600160a01b031633146105565760405162461bcd60e51b815260206004820152601e60248201527f4f6e6c79204c616e644e465420636f6e74726163742063616e2063616c6c00006044820152606401610292565b612710600354106105a95760405162461bcd60e51b815260206004820152601c60248201527f416c6c20636f6f7264696e61746573206172652061737369676e6564000000006044820152606401610292565b600082121580156105c557506105c160016064610c49565b8213155b6106115760405162461bcd60e51b815260206004820152601960248201527f7820636f6f7264696e617465206f7574206f662072616e6765000000000000006044820152606401610292565b6000811215801561062d575061062960016064610c49565b8113155b6106795760405162461bcd60e51b815260206004820152601960248201527f7920636f6f7264696e617465206f7574206f662072616e6765000000000000006044820152606401610292565b6000828152600160209081526040808320848452909152902054156106e05760405162461bcd60e51b815260206004820152601b60248201527f436f6f7264696e61746520616c7265616479206f6363757069656400000000006044820152606401610292565b60008281526001602081815260408084208585528252808420879055805180820182528681528083018681528886526002909352908420905181559051910155600380549161072e83610c30565b9190505550505050565b60008281526001602090815260408083208484529091529020545b92915050565b61076560016064610c49565b81565b60606000610774610ac6565b61078060016064610c49565b61078b866001610c70565b136107d55760405180604001604052808660016107a89190610c70565b81526020018590528183600481106107c2576107c2610c98565b6020020152816107d181610c30565b9250505b60006107e2600187610c49565b1261082c5760405180604001604052806001876107ff9190610c49565b815260200185905281836004811061081957610819610c98565b60200201528161082881610c30565b9250505b61083860016064610c49565b610843856001610c70565b1361088d5760405180604001604052808681526020018560016108669190610c70565b905281836004811061087a5761087a610c98565b60200201528161088981610c30565b9250505b600061089a600186610c49565b126108e45760405180604001604052808681526020016001866108bd9190610c49565b90528183600481106108d1576108d1610c98565b6020020152816108e081610c30565b9250505b60008267ffffffffffffffff8111156108ff576108ff610cae565b60405190808252806020026020018201604052801561094457816020015b604080518082019091526000808252602082015281526020019060019003908161091d5790505b5090506000805b84811015610a01576109a884826004811061096857610968610c98565b60200201515185836004811061098057610980610c98565b6020020151602001516000918252600160209081526040808420928452919052902054151590565b6109ef578381600481106109be576109be610c98565b60200201518383815181106109d5576109d5610c98565b602002602001018190525081806109eb90610c30565b9250505b806109f981610c30565b91505061094b565b5060008167ffffffffffffffff811115610a1d57610a1d610cae565b604051908082528060200260200182016040528015610a6257816020015b6040805180820190915260008082526020820152815260200190600190039081610a3b5790505b50905060005b82811015610aba57838181518110610a8257610a82610c98565b6020026020010151828281518110610a9c57610a9c610c98565b60200260200101819052508080610ab290610c30565b915050610a68565b50979650505050505050565b60405180608001604052806004905b6040805180820190915260008082526020820152815260200190600190039081610ad55790505090565b600060208284031215610b1157600080fd5b5035919050565b600060208284031215610b2a57600080fd5b81356001600160a01b0381168114610b4157600080fd5b9392505050565b600080600060608486031215610b5d57600080fd5b505081359360208301359350604090920135919050565b60008060408385031215610b8757600080fd5b50508035926020909101359150565b602080825282518282018190526000919060409081850190868401855b82811015610bd857815180518552860151868501529284019290850190600101610bb3565b5091979650505050505050565b600082610c0257634e487b7160e01b600052601260045260246000fd5b500690565b634e487b7160e01b600052601160045260246000fd5b8082018082111561075357610753610c07565b600060018201610c4257610c42610c07565b5060010190565b8181036000831280158383131683831282161715610c6957610c69610c07565b5092915050565b8082018281126000831280158216821582161715610c9057610c90610c07565b505092915050565b634e487b7160e01b600052603260045260246000fd5b634e487b7160e01b600052604160045260246000fdfea26469706673582212209c8419cc71091e2913e609e08873a260c72b98c51ce806ab4642ed92a36cba3264736f6c63430008130033",
  "linkReferences": {},
  "deployedLinkReferences": {}
}